{
	"contracts/Twitter0.5v.sol": {
		"Twitter": {
			"abi": [
				{
					"inputs": [],
					"stateMutability": "nonpayable",
					"type": "constructor"
				},
				{
					"inputs": [
						{
							"internalType": "uint256",
							"name": "newTweetLen",
							"type": "uint256"
						}
					],
					"name": "ChangeTweetLength",
					"outputs": [],
					"stateMutability": "nonpayable",
					"type": "function"
				},
				{
					"inputs": [],
					"name": "DeleteAllTweets",
					"outputs": [],
					"stateMutability": "nonpayable",
					"type": "function"
				},
				{
					"inputs": [],
					"name": "DeleteRecentTweet",
					"outputs": [],
					"stateMutability": "nonpayable",
					"type": "function"
				},
				{
					"inputs": [],
					"name": "GetAllTweets",
					"outputs": [
						{
							"components": [
								{
									"internalType": "uint256",
									"name": "id",
									"type": "uint256"
								},
								{
									"internalType": "string",
									"name": "content",
									"type": "string"
								},
								{
									"internalType": "address",
									"name": "author",
									"type": "address"
								},
								{
									"internalType": "uint256",
									"name": "timestamp",
									"type": "uint256"
								},
								{
									"internalType": "address[]",
									"name": "likes",
									"type": "address[]"
								},
								{
									"internalType": "uint256",
									"name": "LikesCount",
									"type": "uint256"
								},
								{
									"internalType": "uint256",
									"name": "unlikescount",
									"type": "uint256"
								},
								{
									"internalType": "address[]",
									"name": "unlikes",
									"type": "address[]"
								}
							],
							"internalType": "struct Twitter.Tweet[]",
							"name": "",
							"type": "tuple[]"
						}
					],
					"stateMutability": "view",
					"type": "function"
				},
				{
					"inputs": [
						{
							"internalType": "address",
							"name": "User",
							"type": "address"
						},
						{
							"internalType": "uint256",
							"name": "Index",
							"type": "uint256"
						}
					],
					"name": "GetTweet",
					"outputs": [
						{
							"components": [
								{
									"internalType": "uint256",
									"name": "id",
									"type": "uint256"
								},
								{
									"internalType": "string",
									"name": "content",
									"type": "string"
								},
								{
									"internalType": "address",
									"name": "author",
									"type": "address"
								},
								{
									"internalType": "uint256",
									"name": "timestamp",
									"type": "uint256"
								},
								{
									"internalType": "address[]",
									"name": "likes",
									"type": "address[]"
								},
								{
									"internalType": "uint256",
									"name": "LikesCount",
									"type": "uint256"
								},
								{
									"internalType": "uint256",
									"name": "unlikescount",
									"type": "uint256"
								},
								{
									"internalType": "address[]",
									"name": "unlikes",
									"type": "address[]"
								}
							],
							"internalType": "struct Twitter.Tweet",
							"name": "",
							"type": "tuple"
						}
					],
					"stateMutability": "view",
					"type": "function"
				},
				{
					"inputs": [
						{
							"internalType": "address",
							"name": "User",
							"type": "address"
						},
						{
							"internalType": "uint256",
							"name": "TweetIndex",
							"type": "uint256"
						}
					],
					"name": "LikesTweet",
					"outputs": [],
					"stateMutability": "nonpayable",
					"type": "function"
				},
				{
					"inputs": [
						{
							"internalType": "address",
							"name": "User",
							"type": "address"
						},
						{
							"internalType": "uint256",
							"name": "TweetIndex",
							"type": "uint256"
						}
					],
					"name": "UnlikeTweet",
					"outputs": [],
					"stateMutability": "nonpayable",
					"type": "function"
				},
				{
					"inputs": [
						{
							"internalType": "string",
							"name": "_tweet",
							"type": "string"
						}
					],
					"name": "createTweet",
					"outputs": [],
					"stateMutability": "nonpayable",
					"type": "function"
				}
			],
			"devdoc": {
				"kind": "dev",
				"methods": {},
				"version": 1
			},
			"evm": {
				"assembly": "    /* \"contracts/Twitter0.5v.sol\":478:4585  contract Twitter... */\n  mstore(0x40, 0x80)\n    /* \"contracts/Twitter0.5v.sol\":884:886  10 */\n  0x0a\n    /* \"contracts/Twitter0.5v.sol\":862:886  uint256 TweetLength = 10 */\n  0x01\n  sstore\n    /* \"contracts/Twitter0.5v.sol\":798:854  constructor()... */\n  callvalue\n  dup1\n  iszero\n  tag_1\n  jumpi\n  0x00\n  dup1\n  revert\ntag_1:\n  pop\n    /* \"contracts/Twitter0.5v.sol\":836:846  msg.sender */\n  caller\n    /* \"contracts/Twitter0.5v.sol\":828:833  owner */\n  0x00\n  dup1\n    /* \"contracts/Twitter0.5v.sol\":828:846  owner = msg.sender */\n  0x0100\n  exp\n  dup2\n  sload\n  dup2\n  0xffffffffffffffffffffffffffffffffffffffff\n  mul\n  not\n  and\n  swap1\n  dup4\n  0xffffffffffffffffffffffffffffffffffffffff\n  and\n  mul\n  or\n  swap1\n  sstore\n  pop\n    /* \"contracts/Twitter0.5v.sol\":478:4585  contract Twitter... */\n  dataSize(sub_0)\n  dup1\n  dataOffset(sub_0)\n  0x00\n  codecopy\n  0x00\n  return\nstop\n\nsub_0: assembly {\n        /* \"contracts/Twitter0.5v.sol\":478:4585  contract Twitter... */\n      mstore(0x40, 0x80)\n      callvalue\n      dup1\n      iszero\n      tag_1\n      jumpi\n      0x00\n      dup1\n      revert\n    tag_1:\n      pop\n      jumpi(tag_2, lt(calldatasize, 0x04))\n      shr(0xe0, calldataload(0x00))\n      dup1\n      0x765fab45\n      gt\n      tag_11\n      jumpi\n      dup1\n      0x765fab45\n      eq\n      tag_7\n      jumpi\n      dup1\n      0x7c9cd2bc\n      eq\n      tag_8\n      jumpi\n      dup1\n      0xa110e72d\n      eq\n      tag_9\n      jumpi\n      dup1\n      0xe479c244\n      eq\n      tag_10\n      jumpi\n      jump(tag_2)\n    tag_11:\n      dup1\n      0x1216cdc5\n      eq\n      tag_3\n      jumpi\n      dup1\n      0x37f36a4c\n      eq\n      tag_4\n      jumpi\n      dup1\n      0x42d7fbc0\n      eq\n      tag_5\n      jumpi\n      dup1\n      0x71e7eb12\n      eq\n      tag_6\n      jumpi\n    tag_2:\n      0x00\n      dup1\n      revert\n        /* \"contracts/Twitter0.5v.sol\":3837:4194  function LikesTweet(address User,uint256 TweetIndex)external ... */\n    tag_3:\n      tag_12\n      0x04\n      dup1\n      calldatasize\n      sub\n      dup2\n      add\n      swap1\n      tag_13\n      swap2\n      swap1\n      tag_14\n      jump\t// in\n    tag_13:\n      tag_15\n      jump\t// in\n    tag_12:\n      stop\n        /* \"contracts/Twitter0.5v.sol\":3512:3645  function GetTweet(address User,uint Index)public view returns (Tweet memory)... */\n    tag_4:\n      tag_16\n      0x04\n      dup1\n      calldatasize\n      sub\n      dup2\n      add\n      swap1\n      tag_17\n      swap2\n      swap1\n      tag_14\n      jump\t// in\n    tag_17:\n      tag_18\n      jump\t// in\n    tag_16:\n      mload(0x40)\n      tag_19\n      swap2\n      swap1\n      tag_20\n      jump\t// in\n    tag_19:\n      mload(0x40)\n      dup1\n      swap2\n      sub\n      swap1\n      return\n        /* \"contracts/Twitter0.5v.sol\":3391:3504  function GetAllTweets() public view returns(Tweet[] memory)... */\n    tag_5:\n      tag_21\n      tag_22\n      jump\t// in\n    tag_21:\n      mload(0x40)\n      tag_23\n      swap2\n      swap1\n      tag_24\n      jump\t// in\n    tag_23:\n      mload(0x40)\n      dup1\n      swap2\n      sub\n      swap1\n      return\n        /* \"contracts/Twitter0.5v.sol\":3653:3740  function DeleteRecentTweet()public... */\n    tag_6:\n      tag_25\n      tag_26\n      jump\t// in\n    tag_25:\n      stop\n        /* \"contracts/Twitter0.5v.sol\":3748:3829  function DeleteAllTweets()public {... */\n    tag_7:\n      tag_27\n      tag_28\n      jump\t// in\n    tag_27:\n      stop\n        /* \"contracts/Twitter0.5v.sol\":1207:2181  function createTweet(string memory _tweet) public {... */\n    tag_8:\n      tag_29\n      0x04\n      dup1\n      calldatasize\n      sub\n      dup2\n      add\n      swap1\n      tag_30\n      swap2\n      swap1\n      tag_31\n      jump\t// in\n    tag_30:\n      tag_32\n      jump\t// in\n    tag_29:\n      stop\n        /* \"contracts/Twitter0.5v.sol\":4202:4574  function UnlikeTweet(address User,uint256 TweetIndex)external ... */\n    tag_9:\n      tag_33\n      0x04\n      dup1\n      calldatasize\n      sub\n      dup2\n      add\n      swap1\n      tag_34\n      swap2\n      swap1\n      tag_14\n      jump\t// in\n    tag_34:\n      tag_35\n      jump\t// in\n    tag_33:\n      stop\n        /* \"contracts/Twitter0.5v.sol\":1027:1132  function ChangeTweetLength(uint256 newTweetLen)public isOwner{... */\n    tag_10:\n      tag_36\n      0x04\n      dup1\n      calldatasize\n      sub\n      dup2\n      add\n      swap1\n      tag_37\n      swap2\n      swap1\n      tag_38\n      jump\t// in\n    tag_37:\n      tag_39\n      jump\t// in\n    tag_36:\n      stop\n        /* \"contracts/Twitter0.5v.sol\":3837:4194  function LikesTweet(address User,uint256 TweetIndex)external ... */\n    tag_15:\n        /* \"contracts/Twitter0.5v.sol\":3922:3926  User */\n      dup2\n        /* \"contracts/Twitter0.5v.sol\":3927:3937  TweetIndex */\n      dup2\n        /* \"contracts/Twitter0.5v.sol\":2424:2426  id */\n      dup1\n        /* \"contracts/Twitter0.5v.sol\":2397:2407  Tweet_info */\n      0x03\n        /* \"contracts/Twitter0.5v.sol\":2397:2413  Tweet_info[User] */\n      0x00\n        /* \"contracts/Twitter0.5v.sol\":2408:2412  User */\n      dup5\n        /* \"contracts/Twitter0.5v.sol\":2397:2413  Tweet_info[User] */\n      0xffffffffffffffffffffffffffffffffffffffff\n      and\n      0xffffffffffffffffffffffffffffffffffffffff\n      and\n      dup2\n      mstore\n      0x20\n      add\n      swap1\n      dup2\n      mstore\n      0x20\n      add\n      0x00\n      keccak256\n        /* \"contracts/Twitter0.5v.sol\":2397:2420  Tweet_info[User].length */\n      dup1\n      sload\n      swap1\n      pop\n        /* \"contracts/Twitter0.5v.sol\":2397:2426  Tweet_info[User].length >= id */\n      lt\n      iszero\n        /* \"contracts/Twitter0.5v.sol\":2389:2452  require(Tweet_info[User].length >= id,\"This Tweet Not Exist !\") */\n      tag_41\n      jumpi\n      mload(0x40)\n      0x08c379a000000000000000000000000000000000000000000000000000000000\n      dup2\n      mstore\n      0x04\n      add\n      tag_42\n      swap1\n      tag_43\n      jump\t// in\n    tag_42:\n      mload(0x40)\n      dup1\n      swap2\n      sub\n      swap1\n      revert\n    tag_41:\n        /* \"contracts/Twitter0.5v.sol\":2463:2471  bool res */\n      0x00\n        /* \"contracts/Twitter0.5v.sol\":2474:2478  true */\n      0x01\n        /* \"contracts/Twitter0.5v.sol\":2463:2478  bool res = true */\n      swap1\n      pop\n        /* \"contracts/Twitter0.5v.sol\":2489:2498  uint256 l */\n      0x00\n        /* \"contracts/Twitter0.5v.sol\":2513:2778  while (l<Tweet_info[User][id-1].likes.length)... */\n    tag_44:\n        /* \"contracts/Twitter0.5v.sol\":2522:2532  Tweet_info */\n      0x03\n        /* \"contracts/Twitter0.5v.sol\":2522:2538  Tweet_info[User] */\n      0x00\n        /* \"contracts/Twitter0.5v.sol\":2533:2537  User */\n      dup6\n        /* \"contracts/Twitter0.5v.sol\":2522:2538  Tweet_info[User] */\n      0xffffffffffffffffffffffffffffffffffffffff\n      and\n      0xffffffffffffffffffffffffffffffffffffffff\n      and\n      dup2\n      mstore\n      0x20\n      add\n      swap1\n      dup2\n      mstore\n      0x20\n      add\n      0x00\n      keccak256\n        /* \"contracts/Twitter0.5v.sol\":2542:2543  1 */\n      0x01\n        /* \"contracts/Twitter0.5v.sol\":2539:2541  id */\n      dup5\n        /* \"contracts/Twitter0.5v.sol\":2539:2543  id-1 */\n      tag_46\n      swap2\n      swap1\n      tag_47\n      jump\t// in\n    tag_46:\n        /* \"contracts/Twitter0.5v.sol\":2522:2544  Tweet_info[User][id-1] */\n      dup2\n      sload\n      dup2\n      lt\n      tag_48\n      jumpi\n      tag_49\n      tag_50\n      jump\t// in\n    tag_49:\n    tag_48:\n      swap1\n      0x00\n      mstore\n      keccak256(0x00, 0x20)\n      swap1\n      0x08\n      mul\n      add\n        /* \"contracts/Twitter0.5v.sol\":2522:2550  Tweet_info[User][id-1].likes */\n      0x04\n      add\n        /* \"contracts/Twitter0.5v.sol\":2522:2557  Tweet_info[User][id-1].likes.length */\n      dup1\n      sload\n      swap1\n      pop\n        /* \"contracts/Twitter0.5v.sol\":2520:2521  l */\n      dup2\n        /* \"contracts/Twitter0.5v.sol\":2520:2557  l<Tweet_info[User][id-1].likes.length */\n      lt\n        /* \"contracts/Twitter0.5v.sol\":2513:2778  while (l<Tweet_info[User][id-1].likes.length)... */\n      iszero\n      tag_45\n      jumpi\n        /* \"contracts/Twitter0.5v.sol\":2621:2631  msg.sender */\n      caller\n        /* \"contracts/Twitter0.5v.sol\":2586:2631  Tweet_info[User][id-1].likes[l] == msg.sender */\n      0xffffffffffffffffffffffffffffffffffffffff\n      and\n        /* \"contracts/Twitter0.5v.sol\":2586:2596  Tweet_info */\n      0x03\n        /* \"contracts/Twitter0.5v.sol\":2586:2602  Tweet_info[User] */\n      0x00\n        /* \"contracts/Twitter0.5v.sol\":2597:2601  User */\n      dup7\n        /* \"contracts/Twitter0.5v.sol\":2586:2602  Tweet_info[User] */\n      0xffffffffffffffffffffffffffffffffffffffff\n      and\n      0xffffffffffffffffffffffffffffffffffffffff\n      and\n      dup2\n      mstore\n      0x20\n      add\n      swap1\n      dup2\n      mstore\n      0x20\n      add\n      0x00\n      keccak256\n        /* \"contracts/Twitter0.5v.sol\":2606:2607  1 */\n      0x01\n        /* \"contracts/Twitter0.5v.sol\":2603:2605  id */\n      dup6\n        /* \"contracts/Twitter0.5v.sol\":2603:2607  id-1 */\n      tag_52\n      swap2\n      swap1\n      tag_47\n      jump\t// in\n    tag_52:\n        /* \"contracts/Twitter0.5v.sol\":2586:2608  Tweet_info[User][id-1] */\n      dup2\n      sload\n      dup2\n      lt\n      tag_53\n      jumpi\n      tag_54\n      tag_50\n      jump\t// in\n    tag_54:\n    tag_53:\n      swap1\n      0x00\n      mstore\n      keccak256(0x00, 0x20)\n      swap1\n      0x08\n      mul\n      add\n        /* \"contracts/Twitter0.5v.sol\":2586:2614  Tweet_info[User][id-1].likes */\n      0x04\n      add\n        /* \"contracts/Twitter0.5v.sol\":2615:2616  l */\n      dup3\n        /* \"contracts/Twitter0.5v.sol\":2586:2617  Tweet_info[User][id-1].likes[l] */\n      dup2\n      sload\n      dup2\n      lt\n      tag_56\n      jumpi\n      tag_57\n      tag_50\n      jump\t// in\n    tag_57:\n    tag_56:\n      swap1\n      0x00\n      mstore\n      keccak256(0x00, 0x20)\n      add\n      0x00\n      swap1\n      sload\n      swap1\n      0x0100\n      exp\n      swap1\n      div\n      0xffffffffffffffffffffffffffffffffffffffff\n      and\n        /* \"contracts/Twitter0.5v.sol\":2586:2631  Tweet_info[User][id-1].likes[l] == msg.sender */\n      0xffffffffffffffffffffffffffffffffffffffff\n      and\n      sub\n        /* \"contracts/Twitter0.5v.sol\":2583:2767  if(Tweet_info[User][id-1].likes[l] == msg.sender)... */\n      tag_59\n      jumpi\n        /* \"contracts/Twitter0.5v.sol\":2669:2674  false */\n      0x00\n        /* \"contracts/Twitter0.5v.sol\":2665:2674  res=false */\n      swap2\n      pop\n        /* \"contracts/Twitter0.5v.sol\":2693:2698  break */\n      jump(tag_45)\n        /* \"contracts/Twitter0.5v.sol\":2583:2767  if(Tweet_info[User][id-1].likes[l] == msg.sender)... */\n    tag_59:\n        /* \"contracts/Twitter0.5v.sol\":2748:2751  l++ */\n      dup1\n      dup1\n      tag_61\n      swap1\n      tag_62\n      jump\t// in\n    tag_61:\n      swap2\n      pop\n      pop\n        /* \"contracts/Twitter0.5v.sol\":2513:2778  while (l<Tweet_info[User][id-1].likes.length)... */\n      jump(tag_44)\n    tag_45:\n        /* \"contracts/Twitter0.5v.sol\":2805:2809  true */\n      0x01\n        /* \"contracts/Twitter0.5v.sol\":2798:2809  res == true */\n      iszero\n      iszero\n        /* \"contracts/Twitter0.5v.sol\":2798:2801  res */\n      dup3\n        /* \"contracts/Twitter0.5v.sol\":2798:2809  res == true */\n      iszero\n      iszero\n      eq\n        /* \"contracts/Twitter0.5v.sol\":2790:2842  require(res == true, \"You Already Liked the tweet!\") */\n      tag_63\n      jumpi\n      mload(0x40)\n      0x08c379a000000000000000000000000000000000000000000000000000000000\n      dup2\n      mstore\n      0x04\n      add\n      tag_64\n      swap1\n      tag_65\n      jump\t// in\n    tag_64:\n      mload(0x40)\n      dup1\n      swap2\n      sub\n      swap1\n      revert\n    tag_63:\n        /* \"contracts/Twitter0.5v.sol\":3959:3963  User */\n      dup6\n        /* \"contracts/Twitter0.5v.sol\":3964:3974  TweetIndex */\n      dup6\n        /* \"contracts/Twitter0.5v.sol\":2976:2978  id */\n      dup1\n        /* \"contracts/Twitter0.5v.sol\":2949:2959  Tweet_info */\n      0x03\n        /* \"contracts/Twitter0.5v.sol\":2949:2965  Tweet_info[User] */\n      0x00\n        /* \"contracts/Twitter0.5v.sol\":2960:2964  User */\n      dup5\n        /* \"contracts/Twitter0.5v.sol\":2949:2965  Tweet_info[User] */\n      0xffffffffffffffffffffffffffffffffffffffff\n      and\n      0xffffffffffffffffffffffffffffffffffffffff\n      and\n      dup2\n      mstore\n      0x20\n      add\n      swap1\n      dup2\n      mstore\n      0x20\n      add\n      0x00\n      keccak256\n        /* \"contracts/Twitter0.5v.sol\":2949:2972  Tweet_info[User].length */\n      dup1\n      sload\n      swap1\n      pop\n        /* \"contracts/Twitter0.5v.sol\":2949:2978  Tweet_info[User].length >= id */\n      lt\n      iszero\n        /* \"contracts/Twitter0.5v.sol\":2941:3004  require(Tweet_info[User].length >= id,\"This Tweet Not Exist !\") */\n      tag_67\n      jumpi\n      mload(0x40)\n      0x08c379a000000000000000000000000000000000000000000000000000000000\n      dup2\n      mstore\n      0x04\n      add\n      tag_68\n      swap1\n      tag_43\n      jump\t// in\n    tag_68:\n      mload(0x40)\n      dup1\n      swap2\n      sub\n      swap1\n      revert\n    tag_67:\n        /* \"contracts/Twitter0.5v.sol\":3015:3023  bool res */\n      0x00\n        /* \"contracts/Twitter0.5v.sol\":3026:3030  true */\n      0x01\n        /* \"contracts/Twitter0.5v.sol\":3015:3030  bool res = true */\n      swap1\n      pop\n        /* \"contracts/Twitter0.5v.sol\":3041:3050  uint256 l */\n      0x00\n        /* \"contracts/Twitter0.5v.sol\":3064:3296  while (l<Tweet_info[User][id-1].likes.length)... */\n    tag_69:\n        /* \"contracts/Twitter0.5v.sol\":3073:3083  Tweet_info */\n      0x03\n        /* \"contracts/Twitter0.5v.sol\":3073:3089  Tweet_info[User] */\n      0x00\n        /* \"contracts/Twitter0.5v.sol\":3084:3088  User */\n      dup6\n        /* \"contracts/Twitter0.5v.sol\":3073:3089  Tweet_info[User] */\n      0xffffffffffffffffffffffffffffffffffffffff\n      and\n      0xffffffffffffffffffffffffffffffffffffffff\n      and\n      dup2\n      mstore\n      0x20\n      add\n      swap1\n      dup2\n      mstore\n      0x20\n      add\n      0x00\n      keccak256\n        /* \"contracts/Twitter0.5v.sol\":3093:3094  1 */\n      0x01\n        /* \"contracts/Twitter0.5v.sol\":3090:3092  id */\n      dup5\n        /* \"contracts/Twitter0.5v.sol\":3090:3094  id-1 */\n      tag_71\n      swap2\n      swap1\n      tag_47\n      jump\t// in\n    tag_71:\n        /* \"contracts/Twitter0.5v.sol\":3073:3095  Tweet_info[User][id-1] */\n      dup2\n      sload\n      dup2\n      lt\n      tag_72\n      jumpi\n      tag_73\n      tag_50\n      jump\t// in\n    tag_73:\n    tag_72:\n      swap1\n      0x00\n      mstore\n      keccak256(0x00, 0x20)\n      swap1\n      0x08\n      mul\n      add\n        /* \"contracts/Twitter0.5v.sol\":3073:3101  Tweet_info[User][id-1].likes */\n      0x04\n      add\n        /* \"contracts/Twitter0.5v.sol\":3073:3108  Tweet_info[User][id-1].likes.length */\n      dup1\n      sload\n      swap1\n      pop\n        /* \"contracts/Twitter0.5v.sol\":3071:3072  l */\n      dup2\n        /* \"contracts/Twitter0.5v.sol\":3071:3108  l<Tweet_info[User][id-1].likes.length */\n      lt\n        /* \"contracts/Twitter0.5v.sol\":3064:3296  while (l<Tweet_info[User][id-1].likes.length)... */\n      iszero\n      tag_70\n      jumpi\n        /* \"contracts/Twitter0.5v.sol\":3174:3184  msg.sender */\n      caller\n        /* \"contracts/Twitter0.5v.sol\":3137:3184  Tweet_info[User][id-1].unlikes[l] == msg.sender */\n      0xffffffffffffffffffffffffffffffffffffffff\n      and\n        /* \"contracts/Twitter0.5v.sol\":3137:3147  Tweet_info */\n      0x03\n        /* \"contracts/Twitter0.5v.sol\":3137:3153  Tweet_info[User] */\n      0x00\n        /* \"contracts/Twitter0.5v.sol\":3148:3152  User */\n      dup7\n        /* \"contracts/Twitter0.5v.sol\":3137:3153  Tweet_info[User] */\n      0xffffffffffffffffffffffffffffffffffffffff\n      and\n      0xffffffffffffffffffffffffffffffffffffffff\n      and\n      dup2\n      mstore\n      0x20\n      add\n      swap1\n      dup2\n      mstore\n      0x20\n      add\n      0x00\n      keccak256\n        /* \"contracts/Twitter0.5v.sol\":3157:3158  1 */\n      0x01\n        /* \"contracts/Twitter0.5v.sol\":3154:3156  id */\n      dup6\n        /* \"contracts/Twitter0.5v.sol\":3154:3158  id-1 */\n      tag_75\n      swap2\n      swap1\n      tag_47\n      jump\t// in\n    tag_75:\n        /* \"contracts/Twitter0.5v.sol\":3137:3159  Tweet_info[User][id-1] */\n      dup2\n      sload\n      dup2\n      lt\n      tag_76\n      jumpi\n      tag_77\n      tag_50\n      jump\t// in\n    tag_77:\n    tag_76:\n      swap1\n      0x00\n      mstore\n      keccak256(0x00, 0x20)\n      swap1\n      0x08\n      mul\n      add\n        /* \"contracts/Twitter0.5v.sol\":3137:3167  Tweet_info[User][id-1].unlikes */\n      0x07\n      add\n        /* \"contracts/Twitter0.5v.sol\":3168:3169  l */\n      dup3\n        /* \"contracts/Twitter0.5v.sol\":3137:3170  Tweet_info[User][id-1].unlikes[l] */\n      dup2\n      sload\n      dup2\n      lt\n      tag_79\n      jumpi\n      tag_80\n      tag_50\n      jump\t// in\n    tag_80:\n    tag_79:\n      swap1\n      0x00\n      mstore\n      keccak256(0x00, 0x20)\n      add\n      0x00\n      swap1\n      sload\n      swap1\n      0x0100\n      exp\n      swap1\n      div\n      0xffffffffffffffffffffffffffffffffffffffff\n      and\n        /* \"contracts/Twitter0.5v.sol\":3137:3184  Tweet_info[User][id-1].unlikes[l] == msg.sender */\n      0xffffffffffffffffffffffffffffffffffffffff\n      and\n      sub\n        /* \"contracts/Twitter0.5v.sol\":3134:3267  if(Tweet_info[User][id-1].unlikes[l] == msg.sender)... */\n      tag_82\n      jumpi\n        /* \"contracts/Twitter0.5v.sol\":3222:3227  false */\n      0x00\n        /* \"contracts/Twitter0.5v.sol\":3218:3227  res=false */\n      swap2\n      pop\n        /* \"contracts/Twitter0.5v.sol\":3246:3251  break */\n      jump(tag_70)\n        /* \"contracts/Twitter0.5v.sol\":3134:3267  if(Tweet_info[User][id-1].unlikes[l] == msg.sender)... */\n    tag_82:\n        /* \"contracts/Twitter0.5v.sol\":3281:3284  l++ */\n      dup1\n      dup1\n      tag_83\n      swap1\n      tag_62\n      jump\t// in\n    tag_83:\n      swap2\n      pop\n      pop\n        /* \"contracts/Twitter0.5v.sol\":3064:3296  while (l<Tweet_info[User][id-1].likes.length)... */\n      jump(tag_69)\n    tag_70:\n        /* \"contracts/Twitter0.5v.sol\":3323:3327  true */\n      0x01\n        /* \"contracts/Twitter0.5v.sol\":3316:3327  res == true */\n      iszero\n      iszero\n        /* \"contracts/Twitter0.5v.sol\":3316:3319  res */\n      dup3\n        /* \"contracts/Twitter0.5v.sol\":3316:3327  res == true */\n      iszero\n      iszero\n      eq\n        /* \"contracts/Twitter0.5v.sol\":3308:3361  require(res == true,\"You Already UnLiked the tweet!\") */\n      tag_84\n      jumpi\n      mload(0x40)\n      0x08c379a000000000000000000000000000000000000000000000000000000000\n      dup2\n      mstore\n      0x04\n      add\n      tag_85\n      swap1\n      tag_86\n      jump\t// in\n    tag_85:\n      mload(0x40)\n      dup1\n      swap2\n      sub\n      swap1\n      revert\n    tag_84:\n        /* \"contracts/Twitter0.5v.sol\":4008:4018  msg.sender */\n      caller\n        /* \"contracts/Twitter0.5v.sol\":4000:4018  User != msg.sender */\n      0xffffffffffffffffffffffffffffffffffffffff\n      and\n        /* \"contracts/Twitter0.5v.sol\":4000:4004  User */\n      dup11\n        /* \"contracts/Twitter0.5v.sol\":4000:4018  User != msg.sender */\n      0xffffffffffffffffffffffffffffffffffffffff\n      and\n      sub\n        /* \"contracts/Twitter0.5v.sol\":3992:4068  require(User != msg.sender,\"This is Your Tweet!You cann't Like Your Tweet!\") */\n      tag_88\n      jumpi\n      mload(0x40)\n      0x08c379a000000000000000000000000000000000000000000000000000000000\n      dup2\n      mstore\n      0x04\n      add\n      tag_89\n      swap1\n      tag_90\n      jump\t// in\n    tag_89:\n      mload(0x40)\n      dup1\n      swap2\n      sub\n      swap1\n      revert\n    tag_88:\n        /* \"contracts/Twitter0.5v.sol\":4079:4089  Tweet_info */\n      0x03\n        /* \"contracts/Twitter0.5v.sol\":4079:4095  Tweet_info[User] */\n      0x00\n        /* \"contracts/Twitter0.5v.sol\":4090:4094  User */\n      dup12\n        /* \"contracts/Twitter0.5v.sol\":4079:4095  Tweet_info[User] */\n      0xffffffffffffffffffffffffffffffffffffffff\n      and\n      0xffffffffffffffffffffffffffffffffffffffff\n      and\n      dup2\n      mstore\n      0x20\n      add\n      swap1\n      dup2\n      mstore\n      0x20\n      add\n      0x00\n      keccak256\n        /* \"contracts/Twitter0.5v.sol\":4107:4108  1 */\n      0x01\n        /* \"contracts/Twitter0.5v.sol\":4096:4106  TweetIndex */\n      dup11\n        /* \"contracts/Twitter0.5v.sol\":4096:4108  TweetIndex-1 */\n      tag_91\n      swap2\n      swap1\n      tag_47\n      jump\t// in\n    tag_91:\n        /* \"contracts/Twitter0.5v.sol\":4079:4109  Tweet_info[User][TweetIndex-1] */\n      dup2\n      sload\n      dup2\n      lt\n      tag_92\n      jumpi\n      tag_93\n      tag_50\n      jump\t// in\n    tag_93:\n    tag_92:\n      swap1\n      0x00\n      mstore\n      keccak256(0x00, 0x20)\n      swap1\n      0x08\n      mul\n      add\n        /* \"contracts/Twitter0.5v.sol\":4079:4115  Tweet_info[User][TweetIndex-1].likes */\n      0x04\n      add\n        /* \"contracts/Twitter0.5v.sol\":4121:4131  msg.sender */\n      caller\n        /* \"contracts/Twitter0.5v.sol\":4079:4132  Tweet_info[User][TweetIndex-1].likes.push(msg.sender) */\n      swap1\n      dup1\n      0x01\n      dup2\n      sload\n      add\n      dup1\n      dup3\n      sstore\n      dup1\n      swap2\n      pop\n      pop\n      0x01\n      swap1\n      sub\n      swap1\n      0x00\n      mstore\n      keccak256(0x00, 0x20)\n      add\n      0x00\n      swap1\n      swap2\n      swap1\n      swap2\n      swap1\n      swap2\n      0x0100\n      exp\n      dup2\n      sload\n      dup2\n      0xffffffffffffffffffffffffffffffffffffffff\n      mul\n      not\n      and\n      swap1\n      dup4\n      0xffffffffffffffffffffffffffffffffffffffff\n      and\n      mul\n      or\n      swap1\n      sstore\n      pop\n        /* \"contracts/Twitter0.5v.sol\":4143:4153  Tweet_info */\n      0x03\n        /* \"contracts/Twitter0.5v.sol\":4143:4159  Tweet_info[User] */\n      0x00\n        /* \"contracts/Twitter0.5v.sol\":4154:4158  User */\n      dup12\n        /* \"contracts/Twitter0.5v.sol\":4143:4159  Tweet_info[User] */\n      0xffffffffffffffffffffffffffffffffffffffff\n      and\n      0xffffffffffffffffffffffffffffffffffffffff\n      and\n      dup2\n      mstore\n      0x20\n      add\n      swap1\n      dup2\n      mstore\n      0x20\n      add\n      0x00\n      keccak256\n        /* \"contracts/Twitter0.5v.sol\":4171:4172  1 */\n      0x01\n        /* \"contracts/Twitter0.5v.sol\":4160:4170  TweetIndex */\n      dup11\n        /* \"contracts/Twitter0.5v.sol\":4160:4172  TweetIndex-1 */\n      tag_96\n      swap2\n      swap1\n      tag_47\n      jump\t// in\n    tag_96:\n        /* \"contracts/Twitter0.5v.sol\":4143:4173  Tweet_info[User][TweetIndex-1] */\n      dup2\n      sload\n      dup2\n      lt\n      tag_97\n      jumpi\n      tag_98\n      tag_50\n      jump\t// in\n    tag_98:\n    tag_97:\n      swap1\n      0x00\n      mstore\n      keccak256(0x00, 0x20)\n      swap1\n      0x08\n      mul\n      add\n        /* \"contracts/Twitter0.5v.sol\":4143:4184  Tweet_info[User][TweetIndex-1].LikesCount */\n      0x05\n      add\n      0x00\n        /* \"contracts/Twitter0.5v.sol\":4143:4186  Tweet_info[User][TweetIndex-1].LikesCount++ */\n      dup2\n      sload\n      dup1\n      swap3\n      swap2\n      swap1\n      tag_100\n      swap1\n      tag_62\n      jump\t// in\n    tag_100:\n      swap2\n      swap1\n      pop\n      sstore\n      pop\n        /* \"contracts/Twitter0.5v.sol\":2931:3383  {... */\n      pop\n      pop\n        /* \"contracts/Twitter0.5v.sol\":2853:2854  _ */\n      pop\n      pop\n        /* \"contracts/Twitter0.5v.sol\":2378:2864  {... */\n      pop\n      pop\n        /* \"contracts/Twitter0.5v.sol\":3837:4194  function LikesTweet(address User,uint256 TweetIndex)external ... */\n      pop\n      pop\n      pop\n      pop\n      jump\t// out\n        /* \"contracts/Twitter0.5v.sol\":3512:3645  function GetTweet(address User,uint Index)public view returns (Tweet memory)... */\n    tag_18:\n        /* \"contracts/Twitter0.5v.sol\":3575:3587  Tweet memory */\n      tag_101\n      tag_102\n      jump\t// in\n    tag_101:\n        /* \"contracts/Twitter0.5v.sol\":3612:3622  Tweet_info */\n      0x03\n        /* \"contracts/Twitter0.5v.sol\":3612:3628  Tweet_info[User] */\n      0x00\n        /* \"contracts/Twitter0.5v.sol\":3623:3627  User */\n      dup5\n        /* \"contracts/Twitter0.5v.sol\":3612:3628  Tweet_info[User] */\n      0xffffffffffffffffffffffffffffffffffffffff\n      and\n      0xffffffffffffffffffffffffffffffffffffffff\n      and\n      dup2\n      mstore\n      0x20\n      add\n      swap1\n      dup2\n      mstore\n      0x20\n      add\n      0x00\n      keccak256\n        /* \"contracts/Twitter0.5v.sol\":3635:3636  1 */\n      0x01\n        /* \"contracts/Twitter0.5v.sol\":3629:3634  Index */\n      dup4\n        /* \"contracts/Twitter0.5v.sol\":3629:3636  Index-1 */\n      tag_104\n      swap2\n      swap1\n      tag_47\n      jump\t// in\n    tag_104:\n        /* \"contracts/Twitter0.5v.sol\":3612:3637  Tweet_info[User][Index-1] */\n      dup2\n      sload\n      dup2\n      lt\n      tag_105\n      jumpi\n      tag_106\n      tag_50\n      jump\t// in\n    tag_106:\n    tag_105:\n      swap1\n      0x00\n      mstore\n      keccak256(0x00, 0x20)\n      swap1\n      0x08\n      mul\n      add\n        /* \"contracts/Twitter0.5v.sol\":3605:3637  return Tweet_info[User][Index-1] */\n      mload(0x40)\n      dup1\n      0x0100\n      add\n      0x40\n      mstore\n      swap1\n      dup2\n      0x00\n      dup3\n      add\n      sload\n      dup2\n      mstore\n      0x20\n      add\n      0x01\n      dup3\n      add\n      dup1\n      sload\n      tag_108\n      swap1\n      tag_109\n      jump\t// in\n    tag_108:\n      dup1\n      0x1f\n      add\n      0x20\n      dup1\n      swap2\n      div\n      mul\n      0x20\n      add\n      mload(0x40)\n      swap1\n      dup2\n      add\n      0x40\n      mstore\n      dup1\n      swap3\n      swap2\n      swap1\n      dup2\n      dup2\n      mstore\n      0x20\n      add\n      dup3\n      dup1\n      sload\n      tag_110\n      swap1\n      tag_109\n      jump\t// in\n    tag_110:\n      dup1\n      iszero\n      tag_111\n      jumpi\n      dup1\n      0x1f\n      lt\n      tag_112\n      jumpi\n      0x0100\n      dup1\n      dup4\n      sload\n      div\n      mul\n      dup4\n      mstore\n      swap2\n      0x20\n      add\n      swap2\n      jump(tag_111)\n    tag_112:\n      dup3\n      add\n      swap2\n      swap1\n      0x00\n      mstore\n      keccak256(0x00, 0x20)\n      swap1\n    tag_113:\n      dup2\n      sload\n      dup2\n      mstore\n      swap1\n      0x01\n      add\n      swap1\n      0x20\n      add\n      dup1\n      dup4\n      gt\n      tag_113\n      jumpi\n      dup3\n      swap1\n      sub\n      0x1f\n      and\n      dup3\n      add\n      swap2\n    tag_111:\n      pop\n      pop\n      pop\n      pop\n      pop\n      dup2\n      mstore\n      0x20\n      add\n      0x02\n      dup3\n      add\n      0x00\n      swap1\n      sload\n      swap1\n      0x0100\n      exp\n      swap1\n      div\n      0xffffffffffffffffffffffffffffffffffffffff\n      and\n      0xffffffffffffffffffffffffffffffffffffffff\n      and\n      0xffffffffffffffffffffffffffffffffffffffff\n      and\n      dup2\n      mstore\n      0x20\n      add\n      0x03\n      dup3\n      add\n      sload\n      dup2\n      mstore\n      0x20\n      add\n      0x04\n      dup3\n      add\n      dup1\n      sload\n      dup1\n      0x20\n      mul\n      0x20\n      add\n      mload(0x40)\n      swap1\n      dup2\n      add\n      0x40\n      mstore\n      dup1\n      swap3\n      swap2\n      swap1\n      dup2\n      dup2\n      mstore\n      0x20\n      add\n      dup3\n      dup1\n      sload\n      dup1\n      iszero\n      tag_114\n      jumpi\n      0x20\n      mul\n      dup3\n      add\n      swap2\n      swap1\n      0x00\n      mstore\n      keccak256(0x00, 0x20)\n      swap1\n    tag_115:\n      dup2\n      0x00\n      swap1\n      sload\n      swap1\n      0x0100\n      exp\n      swap1\n      div\n      0xffffffffffffffffffffffffffffffffffffffff\n      and\n      0xffffffffffffffffffffffffffffffffffffffff\n      and\n      dup2\n      mstore\n      0x20\n      add\n      swap1\n      0x01\n      add\n      swap1\n      dup1\n      dup4\n      gt\n      tag_115\n      jumpi\n    tag_114:\n      pop\n      pop\n      pop\n      pop\n      pop\n      dup2\n      mstore\n      0x20\n      add\n      0x05\n      dup3\n      add\n      sload\n      dup2\n      mstore\n      0x20\n      add\n      0x06\n      dup3\n      add\n      sload\n      dup2\n      mstore\n      0x20\n      add\n      0x07\n      dup3\n      add\n      dup1\n      sload\n      dup1\n      0x20\n      mul\n      0x20\n      add\n      mload(0x40)\n      swap1\n      dup2\n      add\n      0x40\n      mstore\n      dup1\n      swap3\n      swap2\n      swap1\n      dup2\n      dup2\n      mstore\n      0x20\n      add\n      dup3\n      dup1\n      sload\n      dup1\n      iszero\n      tag_116\n      jumpi\n      0x20\n      mul\n      dup3\n      add\n      swap2\n      swap1\n      0x00\n      mstore\n      keccak256(0x00, 0x20)\n      swap1\n    tag_117:\n      dup2\n      0x00\n      swap1\n      sload\n      swap1\n      0x0100\n      exp\n      swap1\n      div\n      0xffffffffffffffffffffffffffffffffffffffff\n      and\n      0xffffffffffffffffffffffffffffffffffffffff\n      and\n      dup2\n      mstore\n      0x20\n      add\n      swap1\n      0x01\n      add\n      swap1\n      dup1\n      dup4\n      gt\n      tag_117\n      jumpi\n    tag_116:\n      pop\n      pop\n      pop\n      pop\n      pop\n      dup2\n      mstore\n      pop\n      pop\n      swap1\n      pop\n        /* \"contracts/Twitter0.5v.sol\":3512:3645  function GetTweet(address User,uint Index)public view returns (Tweet memory)... */\n      swap3\n      swap2\n      pop\n      pop\n      jump\t// out\n        /* \"contracts/Twitter0.5v.sol\":3391:3504  function GetAllTweets() public view returns(Tweet[] memory)... */\n    tag_22:\n        /* \"contracts/Twitter0.5v.sol\":3435:3449  Tweet[] memory */\n      0x60\n        /* \"contracts/Twitter0.5v.sol\":3474:3484  Tweet_info */\n      0x03\n        /* \"contracts/Twitter0.5v.sol\":3474:3496  Tweet_info[msg.sender] */\n      0x00\n        /* \"contracts/Twitter0.5v.sol\":3485:3495  msg.sender */\n      caller\n        /* \"contracts/Twitter0.5v.sol\":3474:3496  Tweet_info[msg.sender] */\n      0xffffffffffffffffffffffffffffffffffffffff\n      and\n      0xffffffffffffffffffffffffffffffffffffffff\n      and\n      dup2\n      mstore\n      0x20\n      add\n      swap1\n      dup2\n      mstore\n      0x20\n      add\n      0x00\n      keccak256\n        /* \"contracts/Twitter0.5v.sol\":3467:3496  return Tweet_info[msg.sender] */\n      dup1\n      sload\n      dup1\n      0x20\n      mul\n      0x20\n      add\n      mload(0x40)\n      swap1\n      dup2\n      add\n      0x40\n      mstore\n      dup1\n      swap3\n      swap2\n      swap1\n      dup2\n      dup2\n      mstore\n      0x20\n      add\n      0x00\n      swap1\n    tag_119:\n      dup3\n      dup3\n      lt\n      iszero\n      tag_120\n      jumpi\n      dup4\n      dup3\n      swap1\n      0x00\n      mstore\n      keccak256(0x00, 0x20)\n      swap1\n      0x08\n      mul\n      add\n      mload(0x40)\n      dup1\n      0x0100\n      add\n      0x40\n      mstore\n      swap1\n      dup2\n      0x00\n      dup3\n      add\n      sload\n      dup2\n      mstore\n      0x20\n      add\n      0x01\n      dup3\n      add\n      dup1\n      sload\n      tag_122\n      swap1\n      tag_109\n      jump\t// in\n    tag_122:\n      dup1\n      0x1f\n      add\n      0x20\n      dup1\n      swap2\n      div\n      mul\n      0x20\n      add\n      mload(0x40)\n      swap1\n      dup2\n      add\n      0x40\n      mstore\n      dup1\n      swap3\n      swap2\n      swap1\n      dup2\n      dup2\n      mstore\n      0x20\n      add\n      dup3\n      dup1\n      sload\n      tag_123\n      swap1\n      tag_109\n      jump\t// in\n    tag_123:\n      dup1\n      iszero\n      tag_124\n      jumpi\n      dup1\n      0x1f\n      lt\n      tag_125\n      jumpi\n      0x0100\n      dup1\n      dup4\n      sload\n      div\n      mul\n      dup4\n      mstore\n      swap2\n      0x20\n      add\n      swap2\n      jump(tag_124)\n    tag_125:\n      dup3\n      add\n      swap2\n      swap1\n      0x00\n      mstore\n      keccak256(0x00, 0x20)\n      swap1\n    tag_126:\n      dup2\n      sload\n      dup2\n      mstore\n      swap1\n      0x01\n      add\n      swap1\n      0x20\n      add\n      dup1\n      dup4\n      gt\n      tag_126\n      jumpi\n      dup3\n      swap1\n      sub\n      0x1f\n      and\n      dup3\n      add\n      swap2\n    tag_124:\n      pop\n      pop\n      pop\n      pop\n      pop\n      dup2\n      mstore\n      0x20\n      add\n      0x02\n      dup3\n      add\n      0x00\n      swap1\n      sload\n      swap1\n      0x0100\n      exp\n      swap1\n      div\n      0xffffffffffffffffffffffffffffffffffffffff\n      and\n      0xffffffffffffffffffffffffffffffffffffffff\n      and\n      0xffffffffffffffffffffffffffffffffffffffff\n      and\n      dup2\n      mstore\n      0x20\n      add\n      0x03\n      dup3\n      add\n      sload\n      dup2\n      mstore\n      0x20\n      add\n      0x04\n      dup3\n      add\n      dup1\n      sload\n      dup1\n      0x20\n      mul\n      0x20\n      add\n      mload(0x40)\n      swap1\n      dup2\n      add\n      0x40\n      mstore\n      dup1\n      swap3\n      swap2\n      swap1\n      dup2\n      dup2\n      mstore\n      0x20\n      add\n      dup3\n      dup1\n      sload\n      dup1\n      iszero\n      tag_127\n      jumpi\n      0x20\n      mul\n      dup3\n      add\n      swap2\n      swap1\n      0x00\n      mstore\n      keccak256(0x00, 0x20)\n      swap1\n    tag_128:\n      dup2\n      0x00\n      swap1\n      sload\n      swap1\n      0x0100\n      exp\n      swap1\n      div\n      0xffffffffffffffffffffffffffffffffffffffff\n      and\n      0xffffffffffffffffffffffffffffffffffffffff\n      and\n      dup2\n      mstore\n      0x20\n      add\n      swap1\n      0x01\n      add\n      swap1\n      dup1\n      dup4\n      gt\n      tag_128\n      jumpi\n    tag_127:\n      pop\n      pop\n      pop\n      pop\n      pop\n      dup2\n      mstore\n      0x20\n      add\n      0x05\n      dup3\n      add\n      sload\n      dup2\n      mstore\n      0x20\n      add\n      0x06\n      dup3\n      add\n      sload\n      dup2\n      mstore\n      0x20\n      add\n      0x07\n      dup3\n      add\n      dup1\n      sload\n      dup1\n      0x20\n      mul\n      0x20\n      add\n      mload(0x40)\n      swap1\n      dup2\n      add\n      0x40\n      mstore\n      dup1\n      swap3\n      swap2\n      swap1\n      dup2\n      dup2\n      mstore\n      0x20\n      add\n      dup3\n      dup1\n      sload\n      dup1\n      iszero\n      tag_129\n      jumpi\n      0x20\n      mul\n      dup3\n      add\n      swap2\n      swap1\n      0x00\n      mstore\n      keccak256(0x00, 0x20)\n      swap1\n    tag_130:\n      dup2\n      0x00\n      swap1\n      sload\n      swap1\n      0x0100\n      exp\n      swap1\n      div\n      0xffffffffffffffffffffffffffffffffffffffff\n      and\n      0xffffffffffffffffffffffffffffffffffffffff\n      and\n      dup2\n      mstore\n      0x20\n      add\n      swap1\n      0x01\n      add\n      swap1\n      dup1\n      dup4\n      gt\n      tag_130\n      jumpi\n    tag_129:\n      pop\n      pop\n      pop\n      pop\n      pop\n      dup2\n      mstore\n      pop\n      pop\n      dup2\n      mstore\n      0x20\n      add\n      swap1\n      0x01\n      add\n      swap1\n      jump(tag_119)\n    tag_120:\n      pop\n      pop\n      pop\n      pop\n      swap1\n      pop\n        /* \"contracts/Twitter0.5v.sol\":3391:3504  function GetAllTweets() public view returns(Tweet[] memory)... */\n      swap1\n      jump\t// out\n        /* \"contracts/Twitter0.5v.sol\":3653:3740  function DeleteRecentTweet()public... */\n    tag_26:\n        /* \"contracts/Twitter0.5v.sol\":3704:3714  Tweet_info */\n      0x03\n        /* \"contracts/Twitter0.5v.sol\":3704:3726  Tweet_info[msg.sender] */\n      0x00\n        /* \"contracts/Twitter0.5v.sol\":3715:3725  msg.sender */\n      caller\n        /* \"contracts/Twitter0.5v.sol\":3704:3726  Tweet_info[msg.sender] */\n      0xffffffffffffffffffffffffffffffffffffffff\n      and\n      0xffffffffffffffffffffffffffffffffffffffff\n      and\n      dup2\n      mstore\n      0x20\n      add\n      swap1\n      dup2\n      mstore\n      0x20\n      add\n      0x00\n      keccak256\n        /* \"contracts/Twitter0.5v.sol\":3704:3732  Tweet_info[msg.sender].pop() */\n      dup1\n      sload\n      dup1\n      tag_132\n      jumpi\n      tag_133\n      tag_134\n      jump\t// in\n    tag_133:\n    tag_132:\n      0x01\n      swap1\n      sub\n      dup2\n      dup2\n      swap1\n      0x00\n      mstore\n      keccak256(0x00, 0x20)\n      swap1\n      0x08\n      mul\n      add\n      0x00\n      dup1\n      dup3\n      add\n      0x00\n      swap1\n      sstore\n      0x01\n      dup3\n      add\n      0x00\n      tag_136\n      swap2\n      swap1\n      tag_137\n      jump\t// in\n    tag_136:\n      0x02\n      dup3\n      add\n      exp(0x0100, 0x00)\n      dup2\n      sload\n      swap1\n      0xffffffffffffffffffffffffffffffffffffffff\n      mul\n      not\n      and\n      swap1\n      sstore\n      0x03\n      dup3\n      add\n      0x00\n      swap1\n      sstore\n      0x04\n      dup3\n      add\n      0x00\n      tag_138\n      swap2\n      swap1\n      tag_139\n      jump\t// in\n    tag_138:\n      0x05\n      dup3\n      add\n      0x00\n      swap1\n      sstore\n      0x06\n      dup3\n      add\n      0x00\n      swap1\n      sstore\n      0x07\n      dup3\n      add\n      0x00\n      tag_140\n      swap2\n      swap1\n      tag_139\n      jump\t// in\n    tag_140:\n      pop\n      pop\n      swap1\n      sstore\n        /* \"contracts/Twitter0.5v.sol\":3653:3740  function DeleteRecentTweet()public... */\n      jump\t// out\n        /* \"contracts/Twitter0.5v.sol\":3748:3829  function DeleteAllTweets()public {... */\n    tag_28:\n        /* \"contracts/Twitter0.5v.sol\":3799:3809  Tweet_info */\n      0x03\n        /* \"contracts/Twitter0.5v.sol\":3799:3821  Tweet_info[msg.sender] */\n      0x00\n        /* \"contracts/Twitter0.5v.sol\":3810:3820  msg.sender */\n      caller\n        /* \"contracts/Twitter0.5v.sol\":3799:3821  Tweet_info[msg.sender] */\n      0xffffffffffffffffffffffffffffffffffffffff\n      and\n      0xffffffffffffffffffffffffffffffffffffffff\n      and\n      dup2\n      mstore\n      0x20\n      add\n      swap1\n      dup2\n      mstore\n      0x20\n      add\n      0x00\n      keccak256\n      0x00\n        /* \"contracts/Twitter0.5v.sol\":3792:3821  delete Tweet_info[msg.sender] */\n      tag_142\n      swap2\n      swap1\n      tag_143\n      jump\t// in\n    tag_142:\n        /* \"contracts/Twitter0.5v.sol\":3748:3829  function DeleteAllTweets()public {... */\n      jump\t// out\n        /* \"contracts/Twitter0.5v.sol\":1207:2181  function createTweet(string memory _tweet) public {... */\n    tag_32:\n        /* \"contracts/Twitter0.5v.sol\":1773:1784  TweetLength */\n      sload(0x01)\n        /* \"contracts/Twitter0.5v.sol\":1755:1761  _tweet */\n      dup2\n        /* \"contracts/Twitter0.5v.sol\":1749:1769  bytes(_tweet).length */\n      mload\n        /* \"contracts/Twitter0.5v.sol\":1749:1784  bytes(_tweet).length <= TweetLength */\n      gt\n      iszero\n        /* \"contracts/Twitter0.5v.sol\":1741:1812  require(bytes(_tweet).length <= TweetLength ,\"Tweet Length is Exceed!\") */\n      tag_145\n      jumpi\n      mload(0x40)\n      0x08c379a000000000000000000000000000000000000000000000000000000000\n      dup2\n      mstore\n      0x04\n      add\n      tag_146\n      swap1\n      tag_147\n      jump\t// in\n    tag_146:\n      mload(0x40)\n      dup1\n      swap2\n      sub\n      swap1\n      revert\n    tag_145:\n        /* \"contracts/Twitter0.5v.sol\":1825:1846  Tweet memory NewTweet */\n      0x00\n        /* \"contracts/Twitter0.5v.sol\":1849:2123  Tweet({... */\n      mload(0x40)\n      dup1\n      0x0100\n      add\n      0x40\n      mstore\n      dup1\n        /* \"contracts/Twitter0.5v.sol\":1905:1906  1 */\n      0x01\n        /* \"contracts/Twitter0.5v.sol\":1875:1885  Tweet_info */\n      0x03\n        /* \"contracts/Twitter0.5v.sol\":1875:1897  Tweet_info[msg.sender] */\n      0x00\n        /* \"contracts/Twitter0.5v.sol\":1886:1896  msg.sender */\n      caller\n        /* \"contracts/Twitter0.5v.sol\":1875:1897  Tweet_info[msg.sender] */\n      0xffffffffffffffffffffffffffffffffffffffff\n      and\n      0xffffffffffffffffffffffffffffffffffffffff\n      and\n      dup2\n      mstore\n      0x20\n      add\n      swap1\n      dup2\n      mstore\n      0x20\n      add\n      0x00\n      keccak256\n        /* \"contracts/Twitter0.5v.sol\":1875:1904  Tweet_info[msg.sender].length */\n      dup1\n      sload\n      swap1\n      pop\n        /* \"contracts/Twitter0.5v.sol\":1875:1906  Tweet_info[msg.sender].length+1 */\n      tag_148\n      swap2\n      swap1\n      tag_149\n      jump\t// in\n    tag_148:\n        /* \"contracts/Twitter0.5v.sol\":1849:2123  Tweet({... */\n      dup2\n      mstore\n      0x20\n      add\n        /* \"contracts/Twitter0.5v.sol\":1929:1935  _tweet */\n      dup4\n        /* \"contracts/Twitter0.5v.sol\":1849:2123  Tweet({... */\n      dup2\n      mstore\n      0x20\n      add\n        /* \"contracts/Twitter0.5v.sol\":1957:1967  msg.sender */\n      caller\n        /* \"contracts/Twitter0.5v.sol\":1849:2123  Tweet({... */\n      0xffffffffffffffffffffffffffffffffffffffff\n      and\n      dup2\n      mstore\n      0x20\n      add\n        /* \"contracts/Twitter0.5v.sol\":1992:2007  block.timestamp */\n      timestamp\n        /* \"contracts/Twitter0.5v.sol\":1849:2123  Tweet({... */\n      dup2\n      mstore\n      0x20\n      add\n        /* \"contracts/Twitter0.5v.sol\":2028:2030  li */\n      0x02\n        /* \"contracts/Twitter0.5v.sol\":1849:2123  Tweet({... */\n      dup1\n      sload\n      dup1\n      0x20\n      mul\n      0x20\n      add\n      mload(0x40)\n      swap1\n      dup2\n      add\n      0x40\n      mstore\n      dup1\n      swap3\n      swap2\n      swap1\n      dup2\n      dup2\n      mstore\n      0x20\n      add\n      dup3\n      dup1\n      sload\n      dup1\n      iszero\n      tag_150\n      jumpi\n      0x20\n      mul\n      dup3\n      add\n      swap2\n      swap1\n      0x00\n      mstore\n      keccak256(0x00, 0x20)\n      swap1\n    tag_151:\n      dup2\n      0x00\n      swap1\n      sload\n      swap1\n      0x0100\n      exp\n      swap1\n      div\n      0xffffffffffffffffffffffffffffffffffffffff\n      and\n      0xffffffffffffffffffffffffffffffffffffffff\n      and\n      dup2\n      mstore\n      0x20\n      add\n      swap1\n      0x01\n      add\n      swap1\n      dup1\n      dup4\n      gt\n      tag_151\n      jumpi\n    tag_150:\n      pop\n      pop\n      pop\n      pop\n      pop\n      dup2\n      mstore\n      0x20\n      add\n        /* \"contracts/Twitter0.5v.sol\":2056:2057  0 */\n      0x00\n        /* \"contracts/Twitter0.5v.sol\":1849:2123  Tweet({... */\n      dup2\n      mstore\n      0x20\n      add\n        /* \"contracts/Twitter0.5v.sol\":2085:2086  0 */\n      0x00\n        /* \"contracts/Twitter0.5v.sol\":1849:2123  Tweet({... */\n      dup2\n      mstore\n      0x20\n      add\n        /* \"contracts/Twitter0.5v.sol\":2109:2111  li */\n      0x02\n        /* \"contracts/Twitter0.5v.sol\":1849:2123  Tweet({... */\n      dup1\n      sload\n      dup1\n      0x20\n      mul\n      0x20\n      add\n      mload(0x40)\n      swap1\n      dup2\n      add\n      0x40\n      mstore\n      dup1\n      swap3\n      swap2\n      swap1\n      dup2\n      dup2\n      mstore\n      0x20\n      add\n      dup3\n      dup1\n      sload\n      dup1\n      iszero\n      tag_152\n      jumpi\n      0x20\n      mul\n      dup3\n      add\n      swap2\n      swap1\n      0x00\n      mstore\n      keccak256(0x00, 0x20)\n      swap1\n    tag_153:\n      dup2\n      0x00\n      swap1\n      sload\n      swap1\n      0x0100\n      exp\n      swap1\n      div\n      0xffffffffffffffffffffffffffffffffffffffff\n      and\n      0xffffffffffffffffffffffffffffffffffffffff\n      and\n      dup2\n      mstore\n      0x20\n      add\n      swap1\n      0x01\n      add\n      swap1\n      dup1\n      dup4\n      gt\n      tag_153\n      jumpi\n    tag_152:\n      pop\n      pop\n      pop\n      pop\n      pop\n      dup2\n      mstore\n      pop\n        /* \"contracts/Twitter0.5v.sol\":1825:2123  Tweet memory NewTweet = Tweet({... */\n      swap1\n      pop\n        /* \"contracts/Twitter0.5v.sol\":2136:2146  Tweet_info */\n      0x03\n        /* \"contracts/Twitter0.5v.sol\":2136:2158  Tweet_info[msg.sender] */\n      0x00\n        /* \"contracts/Twitter0.5v.sol\":2147:2157  msg.sender */\n      caller\n        /* \"contracts/Twitter0.5v.sol\":2136:2158  Tweet_info[msg.sender] */\n      0xffffffffffffffffffffffffffffffffffffffff\n      and\n      0xffffffffffffffffffffffffffffffffffffffff\n      and\n      dup2\n      mstore\n      0x20\n      add\n      swap1\n      dup2\n      mstore\n      0x20\n      add\n      0x00\n      keccak256\n        /* \"contracts/Twitter0.5v.sol\":2164:2172  NewTweet */\n      dup2\n        /* \"contracts/Twitter0.5v.sol\":2136:2173  Tweet_info[msg.sender].push(NewTweet) */\n      swap1\n      dup1\n      0x01\n      dup2\n      sload\n      add\n      dup1\n      dup3\n      sstore\n      dup1\n      swap2\n      pop\n      pop\n      0x01\n      swap1\n      sub\n      swap1\n      0x00\n      mstore\n      keccak256(0x00, 0x20)\n      swap1\n      0x08\n      mul\n      add\n      0x00\n      swap1\n      swap2\n      swap1\n      swap2\n      swap1\n      swap2\n      pop\n      0x00\n      dup3\n      add\n      mload\n      dup2\n      0x00\n      add\n      sstore\n      0x20\n      dup3\n      add\n      mload\n      dup2\n      0x01\n      add\n      swap1\n      dup2\n      tag_155\n      swap2\n      swap1\n      tag_156\n      jump\t// in\n    tag_155:\n      pop\n      0x40\n      dup3\n      add\n      mload\n      dup2\n      0x02\n      add\n      exp(0x0100, 0x00)\n      dup2\n      sload\n      dup2\n      0xffffffffffffffffffffffffffffffffffffffff\n      mul\n      not\n      and\n      swap1\n      dup4\n      0xffffffffffffffffffffffffffffffffffffffff\n      and\n      mul\n      or\n      swap1\n      sstore\n      pop\n      0x60\n      dup3\n      add\n      mload\n      dup2\n      0x03\n      add\n      sstore\n      0x80\n      dup3\n      add\n      mload\n      dup2\n      0x04\n      add\n      swap1\n      dup1\n      mload\n      swap1\n      0x20\n      add\n      swap1\n      tag_157\n      swap3\n      swap2\n      swap1\n      tag_158\n      jump\t// in\n    tag_157:\n      pop\n      0xa0\n      dup3\n      add\n      mload\n      dup2\n      0x05\n      add\n      sstore\n      0xc0\n      dup3\n      add\n      mload\n      dup2\n      0x06\n      add\n      sstore\n      0xe0\n      dup3\n      add\n      mload\n      dup2\n      0x07\n      add\n      swap1\n      dup1\n      mload\n      swap1\n      0x20\n      add\n      swap1\n      tag_159\n      swap3\n      swap2\n      swap1\n      tag_158\n      jump\t// in\n    tag_159:\n      pop\n      pop\n      pop\n        /* \"contracts/Twitter0.5v.sol\":1257:2181  {... */\n      pop\n        /* \"contracts/Twitter0.5v.sol\":1207:2181  function createTweet(string memory _tweet) public {... */\n      pop\n      jump\t// out\n        /* \"contracts/Twitter0.5v.sol\":4202:4574  function UnlikeTweet(address User,uint256 TweetIndex)external ... */\n    tag_35:\n        /* \"contracts/Twitter0.5v.sol\":4288:4292  User */\n      dup2\n        /* \"contracts/Twitter0.5v.sol\":4293:4303  TweetIndex */\n      dup2\n        /* \"contracts/Twitter0.5v.sol\":2424:2426  id */\n      dup1\n        /* \"contracts/Twitter0.5v.sol\":2397:2407  Tweet_info */\n      0x03\n        /* \"contracts/Twitter0.5v.sol\":2397:2413  Tweet_info[User] */\n      0x00\n        /* \"contracts/Twitter0.5v.sol\":2408:2412  User */\n      dup5\n        /* \"contracts/Twitter0.5v.sol\":2397:2413  Tweet_info[User] */\n      0xffffffffffffffffffffffffffffffffffffffff\n      and\n      0xffffffffffffffffffffffffffffffffffffffff\n      and\n      dup2\n      mstore\n      0x20\n      add\n      swap1\n      dup2\n      mstore\n      0x20\n      add\n      0x00\n      keccak256\n        /* \"contracts/Twitter0.5v.sol\":2397:2420  Tweet_info[User].length */\n      dup1\n      sload\n      swap1\n      pop\n        /* \"contracts/Twitter0.5v.sol\":2397:2426  Tweet_info[User].length >= id */\n      lt\n      iszero\n        /* \"contracts/Twitter0.5v.sol\":2389:2452  require(Tweet_info[User].length >= id,\"This Tweet Not Exist !\") */\n      tag_161\n      jumpi\n      mload(0x40)\n      0x08c379a000000000000000000000000000000000000000000000000000000000\n      dup2\n      mstore\n      0x04\n      add\n      tag_162\n      swap1\n      tag_43\n      jump\t// in\n    tag_162:\n      mload(0x40)\n      dup1\n      swap2\n      sub\n      swap1\n      revert\n    tag_161:\n        /* \"contracts/Twitter0.5v.sol\":2463:2471  bool res */\n      0x00\n        /* \"contracts/Twitter0.5v.sol\":2474:2478  true */\n      0x01\n        /* \"contracts/Twitter0.5v.sol\":2463:2478  bool res = true */\n      swap1\n      pop\n        /* \"contracts/Twitter0.5v.sol\":2489:2498  uint256 l */\n      0x00\n        /* \"contracts/Twitter0.5v.sol\":2513:2778  while (l<Tweet_info[User][id-1].likes.length)... */\n    tag_163:\n        /* \"contracts/Twitter0.5v.sol\":2522:2532  Tweet_info */\n      0x03\n        /* \"contracts/Twitter0.5v.sol\":2522:2538  Tweet_info[User] */\n      0x00\n        /* \"contracts/Twitter0.5v.sol\":2533:2537  User */\n      dup6\n        /* \"contracts/Twitter0.5v.sol\":2522:2538  Tweet_info[User] */\n      0xffffffffffffffffffffffffffffffffffffffff\n      and\n      0xffffffffffffffffffffffffffffffffffffffff\n      and\n      dup2\n      mstore\n      0x20\n      add\n      swap1\n      dup2\n      mstore\n      0x20\n      add\n      0x00\n      keccak256\n        /* \"contracts/Twitter0.5v.sol\":2542:2543  1 */\n      0x01\n        /* \"contracts/Twitter0.5v.sol\":2539:2541  id */\n      dup5\n        /* \"contracts/Twitter0.5v.sol\":2539:2543  id-1 */\n      tag_165\n      swap2\n      swap1\n      tag_47\n      jump\t// in\n    tag_165:\n        /* \"contracts/Twitter0.5v.sol\":2522:2544  Tweet_info[User][id-1] */\n      dup2\n      sload\n      dup2\n      lt\n      tag_166\n      jumpi\n      tag_167\n      tag_50\n      jump\t// in\n    tag_167:\n    tag_166:\n      swap1\n      0x00\n      mstore\n      keccak256(0x00, 0x20)\n      swap1\n      0x08\n      mul\n      add\n        /* \"contracts/Twitter0.5v.sol\":2522:2550  Tweet_info[User][id-1].likes */\n      0x04\n      add\n        /* \"contracts/Twitter0.5v.sol\":2522:2557  Tweet_info[User][id-1].likes.length */\n      dup1\n      sload\n      swap1\n      pop\n        /* \"contracts/Twitter0.5v.sol\":2520:2521  l */\n      dup2\n        /* \"contracts/Twitter0.5v.sol\":2520:2557  l<Tweet_info[User][id-1].likes.length */\n      lt\n        /* \"contracts/Twitter0.5v.sol\":2513:2778  while (l<Tweet_info[User][id-1].likes.length)... */\n      iszero\n      tag_164\n      jumpi\n        /* \"contracts/Twitter0.5v.sol\":2621:2631  msg.sender */\n      caller\n        /* \"contracts/Twitter0.5v.sol\":2586:2631  Tweet_info[User][id-1].likes[l] == msg.sender */\n      0xffffffffffffffffffffffffffffffffffffffff\n      and\n        /* \"contracts/Twitter0.5v.sol\":2586:2596  Tweet_info */\n      0x03\n        /* \"contracts/Twitter0.5v.sol\":2586:2602  Tweet_info[User] */\n      0x00\n        /* \"contracts/Twitter0.5v.sol\":2597:2601  User */\n      dup7\n        /* \"contracts/Twitter0.5v.sol\":2586:2602  Tweet_info[User] */\n      0xffffffffffffffffffffffffffffffffffffffff\n      and\n      0xffffffffffffffffffffffffffffffffffffffff\n      and\n      dup2\n      mstore\n      0x20\n      add\n      swap1\n      dup2\n      mstore\n      0x20\n      add\n      0x00\n      keccak256\n        /* \"contracts/Twitter0.5v.sol\":2606:2607  1 */\n      0x01\n        /* \"contracts/Twitter0.5v.sol\":2603:2605  id */\n      dup6\n        /* \"contracts/Twitter0.5v.sol\":2603:2607  id-1 */\n      tag_169\n      swap2\n      swap1\n      tag_47\n      jump\t// in\n    tag_169:\n        /* \"contracts/Twitter0.5v.sol\":2586:2608  Tweet_info[User][id-1] */\n      dup2\n      sload\n      dup2\n      lt\n      tag_170\n      jumpi\n      tag_171\n      tag_50\n      jump\t// in\n    tag_171:\n    tag_170:\n      swap1\n      0x00\n      mstore\n      keccak256(0x00, 0x20)\n      swap1\n      0x08\n      mul\n      add\n        /* \"contracts/Twitter0.5v.sol\":2586:2614  Tweet_info[User][id-1].likes */\n      0x04\n      add\n        /* \"contracts/Twitter0.5v.sol\":2615:2616  l */\n      dup3\n        /* \"contracts/Twitter0.5v.sol\":2586:2617  Tweet_info[User][id-1].likes[l] */\n      dup2\n      sload\n      dup2\n      lt\n      tag_173\n      jumpi\n      tag_174\n      tag_50\n      jump\t// in\n    tag_174:\n    tag_173:\n      swap1\n      0x00\n      mstore\n      keccak256(0x00, 0x20)\n      add\n      0x00\n      swap1\n      sload\n      swap1\n      0x0100\n      exp\n      swap1\n      div\n      0xffffffffffffffffffffffffffffffffffffffff\n      and\n        /* \"contracts/Twitter0.5v.sol\":2586:2631  Tweet_info[User][id-1].likes[l] == msg.sender */\n      0xffffffffffffffffffffffffffffffffffffffff\n      and\n      sub\n        /* \"contracts/Twitter0.5v.sol\":2583:2767  if(Tweet_info[User][id-1].likes[l] == msg.sender)... */\n      tag_176\n      jumpi\n        /* \"contracts/Twitter0.5v.sol\":2669:2674  false */\n      0x00\n        /* \"contracts/Twitter0.5v.sol\":2665:2674  res=false */\n      swap2\n      pop\n        /* \"contracts/Twitter0.5v.sol\":2693:2698  break */\n      jump(tag_164)\n        /* \"contracts/Twitter0.5v.sol\":2583:2767  if(Tweet_info[User][id-1].likes[l] == msg.sender)... */\n    tag_176:\n        /* \"contracts/Twitter0.5v.sol\":2748:2751  l++ */\n      dup1\n      dup1\n      tag_178\n      swap1\n      tag_62\n      jump\t// in\n    tag_178:\n      swap2\n      pop\n      pop\n        /* \"contracts/Twitter0.5v.sol\":2513:2778  while (l<Tweet_info[User][id-1].likes.length)... */\n      jump(tag_163)\n    tag_164:\n        /* \"contracts/Twitter0.5v.sol\":2805:2809  true */\n      0x01\n        /* \"contracts/Twitter0.5v.sol\":2798:2809  res == true */\n      iszero\n      iszero\n        /* \"contracts/Twitter0.5v.sol\":2798:2801  res */\n      dup3\n        /* \"contracts/Twitter0.5v.sol\":2798:2809  res == true */\n      iszero\n      iszero\n      eq\n        /* \"contracts/Twitter0.5v.sol\":2790:2842  require(res == true, \"You Already Liked the tweet!\") */\n      tag_179\n      jumpi\n      mload(0x40)\n      0x08c379a000000000000000000000000000000000000000000000000000000000\n      dup2\n      mstore\n      0x04\n      add\n      tag_180\n      swap1\n      tag_65\n      jump\t// in\n    tag_180:\n      mload(0x40)\n      dup1\n      swap2\n      sub\n      swap1\n      revert\n    tag_179:\n        /* \"contracts/Twitter0.5v.sol\":4325:4329  User */\n      dup6\n        /* \"contracts/Twitter0.5v.sol\":4330:4340  TweetIndex */\n      dup6\n        /* \"contracts/Twitter0.5v.sol\":2976:2978  id */\n      dup1\n        /* \"contracts/Twitter0.5v.sol\":2949:2959  Tweet_info */\n      0x03\n        /* \"contracts/Twitter0.5v.sol\":2949:2965  Tweet_info[User] */\n      0x00\n        /* \"contracts/Twitter0.5v.sol\":2960:2964  User */\n      dup5\n        /* \"contracts/Twitter0.5v.sol\":2949:2965  Tweet_info[User] */\n      0xffffffffffffffffffffffffffffffffffffffff\n      and\n      0xffffffffffffffffffffffffffffffffffffffff\n      and\n      dup2\n      mstore\n      0x20\n      add\n      swap1\n      dup2\n      mstore\n      0x20\n      add\n      0x00\n      keccak256\n        /* \"contracts/Twitter0.5v.sol\":2949:2972  Tweet_info[User].length */\n      dup1\n      sload\n      swap1\n      pop\n        /* \"contracts/Twitter0.5v.sol\":2949:2978  Tweet_info[User].length >= id */\n      lt\n      iszero\n        /* \"contracts/Twitter0.5v.sol\":2941:3004  require(Tweet_info[User].length >= id,\"This Tweet Not Exist !\") */\n      tag_182\n      jumpi\n      mload(0x40)\n      0x08c379a000000000000000000000000000000000000000000000000000000000\n      dup2\n      mstore\n      0x04\n      add\n      tag_183\n      swap1\n      tag_43\n      jump\t// in\n    tag_183:\n      mload(0x40)\n      dup1\n      swap2\n      sub\n      swap1\n      revert\n    tag_182:\n        /* \"contracts/Twitter0.5v.sol\":3015:3023  bool res */\n      0x00\n        /* \"contracts/Twitter0.5v.sol\":3026:3030  true */\n      0x01\n        /* \"contracts/Twitter0.5v.sol\":3015:3030  bool res = true */\n      swap1\n      pop\n        /* \"contracts/Twitter0.5v.sol\":3041:3050  uint256 l */\n      0x00\n        /* \"contracts/Twitter0.5v.sol\":3064:3296  while (l<Tweet_info[User][id-1].likes.length)... */\n    tag_184:\n        /* \"contracts/Twitter0.5v.sol\":3073:3083  Tweet_info */\n      0x03\n        /* \"contracts/Twitter0.5v.sol\":3073:3089  Tweet_info[User] */\n      0x00\n        /* \"contracts/Twitter0.5v.sol\":3084:3088  User */\n      dup6\n        /* \"contracts/Twitter0.5v.sol\":3073:3089  Tweet_info[User] */\n      0xffffffffffffffffffffffffffffffffffffffff\n      and\n      0xffffffffffffffffffffffffffffffffffffffff\n      and\n      dup2\n      mstore\n      0x20\n      add\n      swap1\n      dup2\n      mstore\n      0x20\n      add\n      0x00\n      keccak256\n        /* \"contracts/Twitter0.5v.sol\":3093:3094  1 */\n      0x01\n        /* \"contracts/Twitter0.5v.sol\":3090:3092  id */\n      dup5\n        /* \"contracts/Twitter0.5v.sol\":3090:3094  id-1 */\n      tag_186\n      swap2\n      swap1\n      tag_47\n      jump\t// in\n    tag_186:\n        /* \"contracts/Twitter0.5v.sol\":3073:3095  Tweet_info[User][id-1] */\n      dup2\n      sload\n      dup2\n      lt\n      tag_187\n      jumpi\n      tag_188\n      tag_50\n      jump\t// in\n    tag_188:\n    tag_187:\n      swap1\n      0x00\n      mstore\n      keccak256(0x00, 0x20)\n      swap1\n      0x08\n      mul\n      add\n        /* \"contracts/Twitter0.5v.sol\":3073:3101  Tweet_info[User][id-1].likes */\n      0x04\n      add\n        /* \"contracts/Twitter0.5v.sol\":3073:3108  Tweet_info[User][id-1].likes.length */\n      dup1\n      sload\n      swap1\n      pop\n        /* \"contracts/Twitter0.5v.sol\":3071:3072  l */\n      dup2\n        /* \"contracts/Twitter0.5v.sol\":3071:3108  l<Tweet_info[User][id-1].likes.length */\n      lt\n        /* \"contracts/Twitter0.5v.sol\":3064:3296  while (l<Tweet_info[User][id-1].likes.length)... */\n      iszero\n      tag_185\n      jumpi\n        /* \"contracts/Twitter0.5v.sol\":3174:3184  msg.sender */\n      caller\n        /* \"contracts/Twitter0.5v.sol\":3137:3184  Tweet_info[User][id-1].unlikes[l] == msg.sender */\n      0xffffffffffffffffffffffffffffffffffffffff\n      and\n        /* \"contracts/Twitter0.5v.sol\":3137:3147  Tweet_info */\n      0x03\n        /* \"contracts/Twitter0.5v.sol\":3137:3153  Tweet_info[User] */\n      0x00\n        /* \"contracts/Twitter0.5v.sol\":3148:3152  User */\n      dup7\n        /* \"contracts/Twitter0.5v.sol\":3137:3153  Tweet_info[User] */\n      0xffffffffffffffffffffffffffffffffffffffff\n      and\n      0xffffffffffffffffffffffffffffffffffffffff\n      and\n      dup2\n      mstore\n      0x20\n      add\n      swap1\n      dup2\n      mstore\n      0x20\n      add\n      0x00\n      keccak256\n        /* \"contracts/Twitter0.5v.sol\":3157:3158  1 */\n      0x01\n        /* \"contracts/Twitter0.5v.sol\":3154:3156  id */\n      dup6\n        /* \"contracts/Twitter0.5v.sol\":3154:3158  id-1 */\n      tag_190\n      swap2\n      swap1\n      tag_47\n      jump\t// in\n    tag_190:\n        /* \"contracts/Twitter0.5v.sol\":3137:3159  Tweet_info[User][id-1] */\n      dup2\n      sload\n      dup2\n      lt\n      tag_191\n      jumpi\n      tag_192\n      tag_50\n      jump\t// in\n    tag_192:\n    tag_191:\n      swap1\n      0x00\n      mstore\n      keccak256(0x00, 0x20)\n      swap1\n      0x08\n      mul\n      add\n        /* \"contracts/Twitter0.5v.sol\":3137:3167  Tweet_info[User][id-1].unlikes */\n      0x07\n      add\n        /* \"contracts/Twitter0.5v.sol\":3168:3169  l */\n      dup3\n        /* \"contracts/Twitter0.5v.sol\":3137:3170  Tweet_info[User][id-1].unlikes[l] */\n      dup2\n      sload\n      dup2\n      lt\n      tag_194\n      jumpi\n      tag_195\n      tag_50\n      jump\t// in\n    tag_195:\n    tag_194:\n      swap1\n      0x00\n      mstore\n      keccak256(0x00, 0x20)\n      add\n      0x00\n      swap1\n      sload\n      swap1\n      0x0100\n      exp\n      swap1\n      div\n      0xffffffffffffffffffffffffffffffffffffffff\n      and\n        /* \"contracts/Twitter0.5v.sol\":3137:3184  Tweet_info[User][id-1].unlikes[l] == msg.sender */\n      0xffffffffffffffffffffffffffffffffffffffff\n      and\n      sub\n        /* \"contracts/Twitter0.5v.sol\":3134:3267  if(Tweet_info[User][id-1].unlikes[l] == msg.sender)... */\n      tag_197\n      jumpi\n        /* \"contracts/Twitter0.5v.sol\":3222:3227  false */\n      0x00\n        /* \"contracts/Twitter0.5v.sol\":3218:3227  res=false */\n      swap2\n      pop\n        /* \"contracts/Twitter0.5v.sol\":3246:3251  break */\n      jump(tag_185)\n        /* \"contracts/Twitter0.5v.sol\":3134:3267  if(Tweet_info[User][id-1].unlikes[l] == msg.sender)... */\n    tag_197:\n        /* \"contracts/Twitter0.5v.sol\":3281:3284  l++ */\n      dup1\n      dup1\n      tag_198\n      swap1\n      tag_62\n      jump\t// in\n    tag_198:\n      swap2\n      pop\n      pop\n        /* \"contracts/Twitter0.5v.sol\":3064:3296  while (l<Tweet_info[User][id-1].likes.length)... */\n      jump(tag_184)\n    tag_185:\n        /* \"contracts/Twitter0.5v.sol\":3323:3327  true */\n      0x01\n        /* \"contracts/Twitter0.5v.sol\":3316:3327  res == true */\n      iszero\n      iszero\n        /* \"contracts/Twitter0.5v.sol\":3316:3319  res */\n      dup3\n        /* \"contracts/Twitter0.5v.sol\":3316:3327  res == true */\n      iszero\n      iszero\n      eq\n        /* \"contracts/Twitter0.5v.sol\":3308:3361  require(res == true,\"You Already UnLiked the tweet!\") */\n      tag_199\n      jumpi\n      mload(0x40)\n      0x08c379a000000000000000000000000000000000000000000000000000000000\n      dup2\n      mstore\n      0x04\n      add\n      tag_200\n      swap1\n      tag_86\n      jump\t// in\n    tag_200:\n      mload(0x40)\n      dup1\n      swap2\n      sub\n      swap1\n      revert\n    tag_199:\n        /* \"contracts/Twitter0.5v.sol\":4374:4384  msg.sender */\n      caller\n        /* \"contracts/Twitter0.5v.sol\":4366:4384  User != msg.sender */\n      0xffffffffffffffffffffffffffffffffffffffff\n      and\n        /* \"contracts/Twitter0.5v.sol\":4366:4370  User */\n      dup11\n        /* \"contracts/Twitter0.5v.sol\":4366:4384  User != msg.sender */\n      0xffffffffffffffffffffffffffffffffffffffff\n      and\n      sub\n        /* \"contracts/Twitter0.5v.sol\":4358:4434  require(User != msg.sender,\"This is Your Tweet!You cann't Like Your Tweet!\") */\n      tag_202\n      jumpi\n      mload(0x40)\n      0x08c379a000000000000000000000000000000000000000000000000000000000\n      dup2\n      mstore\n      0x04\n      add\n      tag_203\n      swap1\n      tag_90\n      jump\t// in\n    tag_203:\n      mload(0x40)\n      dup1\n      swap2\n      sub\n      swap1\n      revert\n    tag_202:\n        /* \"contracts/Twitter0.5v.sol\":4445:4455  Tweet_info */\n      0x03\n        /* \"contracts/Twitter0.5v.sol\":4445:4461  Tweet_info[User] */\n      0x00\n        /* \"contracts/Twitter0.5v.sol\":4456:4460  User */\n      dup12\n        /* \"contracts/Twitter0.5v.sol\":4445:4461  Tweet_info[User] */\n      0xffffffffffffffffffffffffffffffffffffffff\n      and\n      0xffffffffffffffffffffffffffffffffffffffff\n      and\n      dup2\n      mstore\n      0x20\n      add\n      swap1\n      dup2\n      mstore\n      0x20\n      add\n      0x00\n      keccak256\n        /* \"contracts/Twitter0.5v.sol\":4473:4474  1 */\n      0x01\n        /* \"contracts/Twitter0.5v.sol\":4462:4472  TweetIndex */\n      dup11\n        /* \"contracts/Twitter0.5v.sol\":4462:4474  TweetIndex-1 */\n      tag_204\n      swap2\n      swap1\n      tag_47\n      jump\t// in\n    tag_204:\n        /* \"contracts/Twitter0.5v.sol\":4445:4475  Tweet_info[User][TweetIndex-1] */\n      dup2\n      sload\n      dup2\n      lt\n      tag_205\n      jumpi\n      tag_206\n      tag_50\n      jump\t// in\n    tag_206:\n    tag_205:\n      swap1\n      0x00\n      mstore\n      keccak256(0x00, 0x20)\n      swap1\n      0x08\n      mul\n      add\n        /* \"contracts/Twitter0.5v.sol\":4445:4483  Tweet_info[User][TweetIndex-1].unlikes */\n      0x07\n      add\n        /* \"contracts/Twitter0.5v.sol\":4489:4499  msg.sender */\n      caller\n        /* \"contracts/Twitter0.5v.sol\":4445:4500  Tweet_info[User][TweetIndex-1].unlikes.push(msg.sender) */\n      swap1\n      dup1\n      0x01\n      dup2\n      sload\n      add\n      dup1\n      dup3\n      sstore\n      dup1\n      swap2\n      pop\n      pop\n      0x01\n      swap1\n      sub\n      swap1\n      0x00\n      mstore\n      keccak256(0x00, 0x20)\n      add\n      0x00\n      swap1\n      swap2\n      swap1\n      swap2\n      swap1\n      swap2\n      0x0100\n      exp\n      dup2\n      sload\n      dup2\n      0xffffffffffffffffffffffffffffffffffffffff\n      mul\n      not\n      and\n      swap1\n      dup4\n      0xffffffffffffffffffffffffffffffffffffffff\n      and\n      mul\n      or\n      swap1\n      sstore\n      pop\n        /* \"contracts/Twitter0.5v.sol\":4511:4521  Tweet_info */\n      0x03\n        /* \"contracts/Twitter0.5v.sol\":4511:4527  Tweet_info[User] */\n      0x00\n        /* \"contracts/Twitter0.5v.sol\":4522:4526  User */\n      dup12\n        /* \"contracts/Twitter0.5v.sol\":4511:4527  Tweet_info[User] */\n      0xffffffffffffffffffffffffffffffffffffffff\n      and\n      0xffffffffffffffffffffffffffffffffffffffff\n      and\n      dup2\n      mstore\n      0x20\n      add\n      swap1\n      dup2\n      mstore\n      0x20\n      add\n      0x00\n      keccak256\n        /* \"contracts/Twitter0.5v.sol\":4539:4540  1 */\n      0x01\n        /* \"contracts/Twitter0.5v.sol\":4528:4538  TweetIndex */\n      dup11\n        /* \"contracts/Twitter0.5v.sol\":4528:4540  TweetIndex-1 */\n      tag_209\n      swap2\n      swap1\n      tag_47\n      jump\t// in\n    tag_209:\n        /* \"contracts/Twitter0.5v.sol\":4511:4541  Tweet_info[User][TweetIndex-1] */\n      dup2\n      sload\n      dup2\n      lt\n      tag_210\n      jumpi\n      tag_211\n      tag_50\n      jump\t// in\n    tag_211:\n    tag_210:\n      swap1\n      0x00\n      mstore\n      keccak256(0x00, 0x20)\n      swap1\n      0x08\n      mul\n      add\n        /* \"contracts/Twitter0.5v.sol\":4511:4554  Tweet_info[User][TweetIndex-1].unlikescount */\n      0x06\n      add\n      0x00\n        /* \"contracts/Twitter0.5v.sol\":4511:4556  Tweet_info[User][TweetIndex-1].unlikescount++ */\n      dup2\n      sload\n      dup1\n      swap3\n      swap2\n      swap1\n      tag_213\n      swap1\n      tag_62\n      jump\t// in\n    tag_213:\n      swap2\n      swap1\n      pop\n      sstore\n      pop\n        /* \"contracts/Twitter0.5v.sol\":2931:3383  {... */\n      pop\n      pop\n        /* \"contracts/Twitter0.5v.sol\":2853:2854  _ */\n      pop\n      pop\n        /* \"contracts/Twitter0.5v.sol\":2378:2864  {... */\n      pop\n      pop\n        /* \"contracts/Twitter0.5v.sol\":4202:4574  function UnlikeTweet(address User,uint256 TweetIndex)external ... */\n      pop\n      pop\n      pop\n      pop\n      jump\t// out\n        /* \"contracts/Twitter0.5v.sol\":1027:1132  function ChangeTweetLength(uint256 newTweetLen)public isOwner{... */\n    tag_39:\n        /* \"contracts/Twitter0.5v.sol\":947:957  msg.sender */\n      caller\n        /* \"contracts/Twitter0.5v.sol\":938:957  owner == msg.sender */\n      0xffffffffffffffffffffffffffffffffffffffff\n      and\n        /* \"contracts/Twitter0.5v.sol\":938:943  owner */\n      0x00\n      dup1\n      sload\n      swap1\n      0x0100\n      exp\n      swap1\n      div\n      0xffffffffffffffffffffffffffffffffffffffff\n      and\n        /* \"contracts/Twitter0.5v.sol\":938:957  owner == msg.sender */\n      0xffffffffffffffffffffffffffffffffffffffff\n      and\n      eq\n        /* \"contracts/Twitter0.5v.sol\":930:999  require(owner == msg.sender,\"You are not a Owner!Permission Denied!\") */\n      tag_215\n      jumpi\n      mload(0x40)\n      0x08c379a000000000000000000000000000000000000000000000000000000000\n      dup2\n      mstore\n      0x04\n      add\n      tag_216\n      swap1\n      tag_217\n      jump\t// in\n    tag_216:\n      mload(0x40)\n      dup1\n      swap2\n      sub\n      swap1\n      revert\n    tag_215:\n        /* \"contracts/Twitter0.5v.sol\":1113:1124  newTweetLen */\n      dup1\n        /* \"contracts/Twitter0.5v.sol\":1099:1110  TweetLength */\n      0x01\n        /* \"contracts/Twitter0.5v.sol\":1099:1124  TweetLength = newTweetLen */\n      dup2\n      swap1\n      sstore\n      pop\n        /* \"contracts/Twitter0.5v.sol\":1027:1132  function ChangeTweetLength(uint256 newTweetLen)public isOwner{... */\n      pop\n      jump\t// out\n    tag_102:\n      mload(0x40)\n      dup1\n      0x0100\n      add\n      0x40\n      mstore\n      dup1\n      0x00\n      dup2\n      mstore\n      0x20\n      add\n      0x60\n      dup2\n      mstore\n      0x20\n      add\n      and(0xffffffffffffffffffffffffffffffffffffffff, 0x00)\n      dup2\n      mstore\n      0x20\n      add\n      0x00\n      dup2\n      mstore\n      0x20\n      add\n      0x60\n      dup2\n      mstore\n      0x20\n      add\n      0x00\n      dup2\n      mstore\n      0x20\n      add\n      0x00\n      dup2\n      mstore\n      0x20\n      add\n      0x60\n      dup2\n      mstore\n      pop\n      swap1\n      jump\t// out\n    tag_137:\n      pop\n      dup1\n      sload\n      tag_219\n      swap1\n      tag_109\n      jump\t// in\n    tag_219:\n      0x00\n      dup3\n      sstore\n      dup1\n      0x1f\n      lt\n      tag_221\n      jumpi\n      pop\n      jump(tag_220)\n    tag_221:\n      0x1f\n      add\n      0x20\n      swap1\n      div\n      swap1\n      0x00\n      mstore\n      keccak256(0x00, 0x20)\n      swap1\n      dup2\n      add\n      swap1\n      tag_222\n      swap2\n      swap1\n      tag_223\n      jump\t// in\n    tag_222:\n    tag_220:\n      pop\n      jump\t// out\n    tag_139:\n      pop\n      dup1\n      sload\n      0x00\n      dup3\n      sstore\n      swap1\n      0x00\n      mstore\n      keccak256(0x00, 0x20)\n      swap1\n      dup2\n      add\n      swap1\n      tag_225\n      swap2\n      swap1\n      tag_223\n      jump\t// in\n    tag_225:\n      pop\n      jump\t// out\n    tag_143:\n      pop\n      dup1\n      sload\n      0x00\n      dup3\n      sstore\n      0x08\n      mul\n      swap1\n      0x00\n      mstore\n      keccak256(0x00, 0x20)\n      swap1\n      dup2\n      add\n      swap1\n      tag_227\n      swap2\n      swap1\n      tag_228\n      jump\t// in\n    tag_227:\n      pop\n      jump\t// out\n    tag_158:\n      dup3\n      dup1\n      sload\n      dup3\n      dup3\n      sstore\n      swap1\n      0x00\n      mstore\n      keccak256(0x00, 0x20)\n      swap1\n      dup2\n      add\n      swap3\n      dup3\n      iszero\n      tag_229\n      jumpi\n      swap2\n      0x20\n      mul\n      dup3\n      add\n    tag_230:\n      dup3\n      dup2\n      gt\n      iszero\n      tag_231\n      jumpi\n      dup3\n      mload\n      dup3\n      exp(0x0100, 0x00)\n      dup2\n      sload\n      dup2\n      0xffffffffffffffffffffffffffffffffffffffff\n      mul\n      not\n      and\n      swap1\n      dup4\n      0xffffffffffffffffffffffffffffffffffffffff\n      and\n      mul\n      or\n      swap1\n      sstore\n      pop\n      swap2\n      0x20\n      add\n      swap2\n      swap1\n      0x01\n      add\n      swap1\n      jump(tag_230)\n    tag_231:\n    tag_229:\n      pop\n      swap1\n      pop\n      tag_232\n      swap2\n      swap1\n      tag_223\n      jump\t// in\n    tag_232:\n      pop\n      swap1\n      jump\t// out\n    tag_223:\n    tag_233:\n      dup1\n      dup3\n      gt\n      iszero\n      tag_234\n      jumpi\n      0x00\n      dup2\n      0x00\n      swap1\n      sstore\n      pop\n      0x01\n      add\n      jump(tag_233)\n    tag_234:\n      pop\n      swap1\n      jump\t// out\n    tag_228:\n    tag_235:\n      dup1\n      dup3\n      gt\n      iszero\n      tag_236\n      jumpi\n      0x00\n      dup1\n      dup3\n      add\n      0x00\n      swap1\n      sstore\n      0x01\n      dup3\n      add\n      0x00\n      tag_237\n      swap2\n      swap1\n      tag_137\n      jump\t// in\n    tag_237:\n      0x02\n      dup3\n      add\n      exp(0x0100, 0x00)\n      dup2\n      sload\n      swap1\n      0xffffffffffffffffffffffffffffffffffffffff\n      mul\n      not\n      and\n      swap1\n      sstore\n      0x03\n      dup3\n      add\n      0x00\n      swap1\n      sstore\n      0x04\n      dup3\n      add\n      0x00\n      tag_238\n      swap2\n      swap1\n      tag_139\n      jump\t// in\n    tag_238:\n      0x05\n      dup3\n      add\n      0x00\n      swap1\n      sstore\n      0x06\n      dup3\n      add\n      0x00\n      swap1\n      sstore\n      0x07\n      dup3\n      add\n      0x00\n      tag_239\n      swap2\n      swap1\n      tag_139\n      jump\t// in\n    tag_239:\n      pop\n      0x08\n      add\n      jump(tag_235)\n    tag_236:\n      pop\n      swap1\n      jump\t// out\n        /* \"#utility.yul\":7:82   */\n    tag_240:\n        /* \"#utility.yul\":40:46   */\n      0x00\n        /* \"#utility.yul\":73:75   */\n      0x40\n        /* \"#utility.yul\":67:76   */\n      mload\n        /* \"#utility.yul\":57:76   */\n      swap1\n      pop\n        /* \"#utility.yul\":7:82   */\n      swap1\n      jump\t// out\n        /* \"#utility.yul\":88:205   */\n    tag_241:\n        /* \"#utility.yul\":197:198   */\n      0x00\n        /* \"#utility.yul\":194:195   */\n      dup1\n        /* \"#utility.yul\":187:199   */\n      revert\n        /* \"#utility.yul\":211:328   */\n    tag_242:\n        /* \"#utility.yul\":320:321   */\n      0x00\n        /* \"#utility.yul\":317:318   */\n      dup1\n        /* \"#utility.yul\":310:322   */\n      revert\n        /* \"#utility.yul\":334:460   */\n    tag_243:\n        /* \"#utility.yul\":371:378   */\n      0x00\n        /* \"#utility.yul\":411:453   */\n      0xffffffffffffffffffffffffffffffffffffffff\n        /* \"#utility.yul\":404:409   */\n      dup3\n        /* \"#utility.yul\":400:454   */\n      and\n        /* \"#utility.yul\":389:454   */\n      swap1\n      pop\n        /* \"#utility.yul\":334:460   */\n      swap2\n      swap1\n      pop\n      jump\t// out\n        /* \"#utility.yul\":466:562   */\n    tag_244:\n        /* \"#utility.yul\":503:510   */\n      0x00\n        /* \"#utility.yul\":532:556   */\n      tag_316\n        /* \"#utility.yul\":550:555   */\n      dup3\n        /* \"#utility.yul\":532:556   */\n      tag_243\n      jump\t// in\n    tag_316:\n        /* \"#utility.yul\":521:556   */\n      swap1\n      pop\n        /* \"#utility.yul\":466:562   */\n      swap2\n      swap1\n      pop\n      jump\t// out\n        /* \"#utility.yul\":568:690   */\n    tag_245:\n        /* \"#utility.yul\":641:665   */\n      tag_318\n        /* \"#utility.yul\":659:664   */\n      dup2\n        /* \"#utility.yul\":641:665   */\n      tag_244\n      jump\t// in\n    tag_318:\n        /* \"#utility.yul\":634:639   */\n      dup2\n        /* \"#utility.yul\":631:666   */\n      eq\n        /* \"#utility.yul\":621:684   */\n      tag_319\n      jumpi\n        /* \"#utility.yul\":680:681   */\n      0x00\n        /* \"#utility.yul\":677:678   */\n      dup1\n        /* \"#utility.yul\":670:682   */\n      revert\n        /* \"#utility.yul\":621:684   */\n    tag_319:\n        /* \"#utility.yul\":568:690   */\n      pop\n      jump\t// out\n        /* \"#utility.yul\":696:835   */\n    tag_246:\n        /* \"#utility.yul\":742:747   */\n      0x00\n        /* \"#utility.yul\":780:786   */\n      dup2\n        /* \"#utility.yul\":767:787   */\n      calldataload\n        /* \"#utility.yul\":758:787   */\n      swap1\n      pop\n        /* \"#utility.yul\":796:829   */\n      tag_321\n        /* \"#utility.yul\":823:828   */\n      dup2\n        /* \"#utility.yul\":796:829   */\n      tag_245\n      jump\t// in\n    tag_321:\n        /* \"#utility.yul\":696:835   */\n      swap3\n      swap2\n      pop\n      pop\n      jump\t// out\n        /* \"#utility.yul\":841:918   */\n    tag_247:\n        /* \"#utility.yul\":878:885   */\n      0x00\n        /* \"#utility.yul\":907:912   */\n      dup2\n        /* \"#utility.yul\":896:912   */\n      swap1\n      pop\n        /* \"#utility.yul\":841:918   */\n      swap2\n      swap1\n      pop\n      jump\t// out\n        /* \"#utility.yul\":924:1046   */\n    tag_248:\n        /* \"#utility.yul\":997:1021   */\n      tag_324\n        /* \"#utility.yul\":1015:1020   */\n      dup2\n        /* \"#utility.yul\":997:1021   */\n      tag_247\n      jump\t// in\n    tag_324:\n        /* \"#utility.yul\":990:995   */\n      dup2\n        /* \"#utility.yul\":987:1022   */\n      eq\n        /* \"#utility.yul\":977:1040   */\n      tag_325\n      jumpi\n        /* \"#utility.yul\":1036:1037   */\n      0x00\n        /* \"#utility.yul\":1033:1034   */\n      dup1\n        /* \"#utility.yul\":1026:1038   */\n      revert\n        /* \"#utility.yul\":977:1040   */\n    tag_325:\n        /* \"#utility.yul\":924:1046   */\n      pop\n      jump\t// out\n        /* \"#utility.yul\":1052:1191   */\n    tag_249:\n        /* \"#utility.yul\":1098:1103   */\n      0x00\n        /* \"#utility.yul\":1136:1142   */\n      dup2\n        /* \"#utility.yul\":1123:1143   */\n      calldataload\n        /* \"#utility.yul\":1114:1143   */\n      swap1\n      pop\n        /* \"#utility.yul\":1152:1185   */\n      tag_327\n        /* \"#utility.yul\":1179:1184   */\n      dup2\n        /* \"#utility.yul\":1152:1185   */\n      tag_248\n      jump\t// in\n    tag_327:\n        /* \"#utility.yul\":1052:1191   */\n      swap3\n      swap2\n      pop\n      pop\n      jump\t// out\n        /* \"#utility.yul\":1197:1671   */\n    tag_14:\n        /* \"#utility.yul\":1265:1271   */\n      0x00\n        /* \"#utility.yul\":1273:1279   */\n      dup1\n        /* \"#utility.yul\":1322:1324   */\n      0x40\n        /* \"#utility.yul\":1310:1319   */\n      dup4\n        /* \"#utility.yul\":1301:1308   */\n      dup6\n        /* \"#utility.yul\":1297:1320   */\n      sub\n        /* \"#utility.yul\":1293:1325   */\n      slt\n        /* \"#utility.yul\":1290:1409   */\n      iszero\n      tag_329\n      jumpi\n        /* \"#utility.yul\":1328:1407   */\n      tag_330\n      tag_241\n      jump\t// in\n    tag_330:\n        /* \"#utility.yul\":1290:1409   */\n    tag_329:\n        /* \"#utility.yul\":1448:1449   */\n      0x00\n        /* \"#utility.yul\":1473:1526   */\n      tag_331\n        /* \"#utility.yul\":1518:1525   */\n      dup6\n        /* \"#utility.yul\":1509:1515   */\n      dup3\n        /* \"#utility.yul\":1498:1507   */\n      dup7\n        /* \"#utility.yul\":1494:1516   */\n      add\n        /* \"#utility.yul\":1473:1526   */\n      tag_246\n      jump\t// in\n    tag_331:\n        /* \"#utility.yul\":1463:1526   */\n      swap3\n      pop\n        /* \"#utility.yul\":1419:1536   */\n      pop\n        /* \"#utility.yul\":1575:1577   */\n      0x20\n        /* \"#utility.yul\":1601:1654   */\n      tag_332\n        /* \"#utility.yul\":1646:1653   */\n      dup6\n        /* \"#utility.yul\":1637:1643   */\n      dup3\n        /* \"#utility.yul\":1626:1635   */\n      dup7\n        /* \"#utility.yul\":1622:1644   */\n      add\n        /* \"#utility.yul\":1601:1654   */\n      tag_249\n      jump\t// in\n    tag_332:\n        /* \"#utility.yul\":1591:1654   */\n      swap2\n      pop\n        /* \"#utility.yul\":1546:1664   */\n      pop\n        /* \"#utility.yul\":1197:1671   */\n      swap3\n      pop\n      swap3\n      swap1\n      pop\n      jump\t// out\n        /* \"#utility.yul\":1677:1785   */\n    tag_250:\n        /* \"#utility.yul\":1754:1778   */\n      tag_334\n        /* \"#utility.yul\":1772:1777   */\n      dup2\n        /* \"#utility.yul\":1754:1778   */\n      tag_247\n      jump\t// in\n    tag_334:\n        /* \"#utility.yul\":1749:1752   */\n      dup3\n        /* \"#utility.yul\":1742:1779   */\n      mstore\n        /* \"#utility.yul\":1677:1785   */\n      pop\n      pop\n      jump\t// out\n        /* \"#utility.yul\":1791:1890   */\n    tag_251:\n        /* \"#utility.yul\":1843:1849   */\n      0x00\n        /* \"#utility.yul\":1877:1882   */\n      dup2\n        /* \"#utility.yul\":1871:1883   */\n      mload\n        /* \"#utility.yul\":1861:1883   */\n      swap1\n      pop\n        /* \"#utility.yul\":1791:1890   */\n      swap2\n      swap1\n      pop\n      jump\t// out\n        /* \"#utility.yul\":1896:2055   */\n    tag_252:\n        /* \"#utility.yul\":1970:1981   */\n      0x00\n        /* \"#utility.yul\":2004:2010   */\n      dup3\n        /* \"#utility.yul\":1999:2002   */\n      dup3\n        /* \"#utility.yul\":1992:2011   */\n      mstore\n        /* \"#utility.yul\":2044:2048   */\n      0x20\n        /* \"#utility.yul\":2039:2042   */\n      dup3\n        /* \"#utility.yul\":2035:2049   */\n      add\n        /* \"#utility.yul\":2020:2049   */\n      swap1\n      pop\n        /* \"#utility.yul\":1896:2055   */\n      swap3\n      swap2\n      pop\n      pop\n      jump\t// out\n        /* \"#utility.yul\":2061:2307   */\n    tag_253:\n        /* \"#utility.yul\":2142:2143   */\n      0x00\n        /* \"#utility.yul\":2152:2265   */\n    tag_338:\n        /* \"#utility.yul\":2166:2172   */\n      dup4\n        /* \"#utility.yul\":2163:2164   */\n      dup2\n        /* \"#utility.yul\":2160:2173   */\n      lt\n        /* \"#utility.yul\":2152:2265   */\n      iszero\n      tag_340\n      jumpi\n        /* \"#utility.yul\":2251:2252   */\n      dup1\n        /* \"#utility.yul\":2246:2249   */\n      dup3\n        /* \"#utility.yul\":2242:2253   */\n      add\n        /* \"#utility.yul\":2236:2254   */\n      mload\n        /* \"#utility.yul\":2232:2233   */\n      dup2\n        /* \"#utility.yul\":2227:2230   */\n      dup5\n        /* \"#utility.yul\":2223:2234   */\n      add\n        /* \"#utility.yul\":2216:2255   */\n      mstore\n        /* \"#utility.yul\":2188:2190   */\n      0x20\n        /* \"#utility.yul\":2185:2186   */\n      dup2\n        /* \"#utility.yul\":2181:2191   */\n      add\n        /* \"#utility.yul\":2176:2191   */\n      swap1\n      pop\n        /* \"#utility.yul\":2152:2265   */\n      jump(tag_338)\n    tag_340:\n        /* \"#utility.yul\":2299:2300   */\n      0x00\n        /* \"#utility.yul\":2290:2296   */\n      dup5\n        /* \"#utility.yul\":2285:2288   */\n      dup5\n        /* \"#utility.yul\":2281:2297   */\n      add\n        /* \"#utility.yul\":2274:2301   */\n      mstore\n        /* \"#utility.yul\":2123:2307   */\n      pop\n        /* \"#utility.yul\":2061:2307   */\n      pop\n      pop\n      pop\n      jump\t// out\n        /* \"#utility.yul\":2313:2415   */\n    tag_254:\n        /* \"#utility.yul\":2354:2360   */\n      0x00\n        /* \"#utility.yul\":2405:2407   */\n      0x1f\n        /* \"#utility.yul\":2401:2408   */\n      not\n        /* \"#utility.yul\":2396:2398   */\n      0x1f\n        /* \"#utility.yul\":2389:2394   */\n      dup4\n        /* \"#utility.yul\":2385:2399   */\n      add\n        /* \"#utility.yul\":2381:2409   */\n      and\n        /* \"#utility.yul\":2371:2409   */\n      swap1\n      pop\n        /* \"#utility.yul\":2313:2415   */\n      swap2\n      swap1\n      pop\n      jump\t// out\n        /* \"#utility.yul\":2421:2778   */\n    tag_255:\n        /* \"#utility.yul\":2499:2502   */\n      0x00\n        /* \"#utility.yul\":2527:2566   */\n      tag_343\n        /* \"#utility.yul\":2560:2565   */\n      dup3\n        /* \"#utility.yul\":2527:2566   */\n      tag_251\n      jump\t// in\n    tag_343:\n        /* \"#utility.yul\":2582:2643   */\n      tag_344\n        /* \"#utility.yul\":2636:2642   */\n      dup2\n        /* \"#utility.yul\":2631:2634   */\n      dup6\n        /* \"#utility.yul\":2582:2643   */\n      tag_252\n      jump\t// in\n    tag_344:\n        /* \"#utility.yul\":2575:2643   */\n      swap4\n      pop\n        /* \"#utility.yul\":2652:2717   */\n      tag_345\n        /* \"#utility.yul\":2710:2716   */\n      dup2\n        /* \"#utility.yul\":2705:2708   */\n      dup6\n        /* \"#utility.yul\":2698:2702   */\n      0x20\n        /* \"#utility.yul\":2691:2696   */\n      dup7\n        /* \"#utility.yul\":2687:2703   */\n      add\n        /* \"#utility.yul\":2652:2717   */\n      tag_253\n      jump\t// in\n    tag_345:\n        /* \"#utility.yul\":2742:2771   */\n      tag_346\n        /* \"#utility.yul\":2764:2770   */\n      dup2\n        /* \"#utility.yul\":2742:2771   */\n      tag_254\n      jump\t// in\n    tag_346:\n        /* \"#utility.yul\":2737:2740   */\n      dup5\n        /* \"#utility.yul\":2733:2772   */\n      add\n        /* \"#utility.yul\":2726:2772   */\n      swap2\n      pop\n        /* \"#utility.yul\":2503:2778   */\n      pop\n        /* \"#utility.yul\":2421:2778   */\n      swap3\n      swap2\n      pop\n      pop\n      jump\t// out\n        /* \"#utility.yul\":2784:2892   */\n    tag_256:\n        /* \"#utility.yul\":2861:2885   */\n      tag_348\n        /* \"#utility.yul\":2879:2884   */\n      dup2\n        /* \"#utility.yul\":2861:2885   */\n      tag_244\n      jump\t// in\n    tag_348:\n        /* \"#utility.yul\":2856:2859   */\n      dup3\n        /* \"#utility.yul\":2849:2886   */\n      mstore\n        /* \"#utility.yul\":2784:2892   */\n      pop\n      pop\n      jump\t// out\n        /* \"#utility.yul\":2898:3012   */\n    tag_257:\n        /* \"#utility.yul\":2965:2971   */\n      0x00\n        /* \"#utility.yul\":2999:3004   */\n      dup2\n        /* \"#utility.yul\":2993:3005   */\n      mload\n        /* \"#utility.yul\":2983:3005   */\n      swap1\n      pop\n        /* \"#utility.yul\":2898:3012   */\n      swap2\n      swap1\n      pop\n      jump\t// out\n        /* \"#utility.yul\":3018:3192   */\n    tag_258:\n        /* \"#utility.yul\":3107:3118   */\n      0x00\n        /* \"#utility.yul\":3141:3147   */\n      dup3\n        /* \"#utility.yul\":3136:3139   */\n      dup3\n        /* \"#utility.yul\":3129:3148   */\n      mstore\n        /* \"#utility.yul\":3181:3185   */\n      0x20\n        /* \"#utility.yul\":3176:3179   */\n      dup3\n        /* \"#utility.yul\":3172:3186   */\n      add\n        /* \"#utility.yul\":3157:3186   */\n      swap1\n      pop\n        /* \"#utility.yul\":3018:3192   */\n      swap3\n      swap2\n      pop\n      pop\n      jump\t// out\n        /* \"#utility.yul\":3198:3330   */\n    tag_259:\n        /* \"#utility.yul\":3265:3269   */\n      0x00\n        /* \"#utility.yul\":3288:3291   */\n      dup2\n        /* \"#utility.yul\":3280:3291   */\n      swap1\n      pop\n        /* \"#utility.yul\":3318:3322   */\n      0x20\n        /* \"#utility.yul\":3313:3316   */\n      dup3\n        /* \"#utility.yul\":3309:3323   */\n      add\n        /* \"#utility.yul\":3301:3323   */\n      swap1\n      pop\n        /* \"#utility.yul\":3198:3330   */\n      swap2\n      swap1\n      pop\n      jump\t// out\n        /* \"#utility.yul\":3336:3515   */\n    tag_260:\n        /* \"#utility.yul\":3405:3415   */\n      0x00\n        /* \"#utility.yul\":3426:3472   */\n      tag_353\n        /* \"#utility.yul\":3468:3471   */\n      dup4\n        /* \"#utility.yul\":3460:3466   */\n      dup4\n        /* \"#utility.yul\":3426:3472   */\n      tag_256\n      jump\t// in\n    tag_353:\n        /* \"#utility.yul\":3504:3508   */\n      0x20\n        /* \"#utility.yul\":3499:3502   */\n      dup4\n        /* \"#utility.yul\":3495:3509   */\n      add\n        /* \"#utility.yul\":3481:3509   */\n      swap1\n      pop\n        /* \"#utility.yul\":3336:3515   */\n      swap3\n      swap2\n      pop\n      pop\n      jump\t// out\n        /* \"#utility.yul\":3521:3634   */\n    tag_261:\n        /* \"#utility.yul\":3591:3595   */\n      0x00\n        /* \"#utility.yul\":3623:3627   */\n      0x20\n        /* \"#utility.yul\":3618:3621   */\n      dup3\n        /* \"#utility.yul\":3614:3628   */\n      add\n        /* \"#utility.yul\":3606:3628   */\n      swap1\n      pop\n        /* \"#utility.yul\":3521:3634   */\n      swap2\n      swap1\n      pop\n      jump\t// out\n        /* \"#utility.yul\":3670:4382   */\n    tag_262:\n        /* \"#utility.yul\":3779:3782   */\n      0x00\n        /* \"#utility.yul\":3808:3862   */\n      tag_356\n        /* \"#utility.yul\":3856:3861   */\n      dup3\n        /* \"#utility.yul\":3808:3862   */\n      tag_257\n      jump\t// in\n    tag_356:\n        /* \"#utility.yul\":3878:3954   */\n      tag_357\n        /* \"#utility.yul\":3947:3953   */\n      dup2\n        /* \"#utility.yul\":3942:3945   */\n      dup6\n        /* \"#utility.yul\":3878:3954   */\n      tag_258\n      jump\t// in\n    tag_357:\n        /* \"#utility.yul\":3871:3954   */\n      swap4\n      pop\n        /* \"#utility.yul\":3978:4034   */\n      tag_358\n        /* \"#utility.yul\":4028:4033   */\n      dup4\n        /* \"#utility.yul\":3978:4034   */\n      tag_259\n      jump\t// in\n    tag_358:\n        /* \"#utility.yul\":4057:4064   */\n      dup1\n        /* \"#utility.yul\":4088:4089   */\n      0x00\n        /* \"#utility.yul\":4073:4357   */\n    tag_359:\n        /* \"#utility.yul\":4098:4104   */\n      dup4\n        /* \"#utility.yul\":4095:4096   */\n      dup2\n        /* \"#utility.yul\":4092:4105   */\n      lt\n        /* \"#utility.yul\":4073:4357   */\n      iszero\n      tag_361\n      jumpi\n        /* \"#utility.yul\":4174:4180   */\n      dup2\n        /* \"#utility.yul\":4168:4181   */\n      mload\n        /* \"#utility.yul\":4201:4264   */\n      tag_362\n        /* \"#utility.yul\":4260:4263   */\n      dup9\n        /* \"#utility.yul\":4245:4258   */\n      dup3\n        /* \"#utility.yul\":4201:4264   */\n      tag_260\n      jump\t// in\n    tag_362:\n        /* \"#utility.yul\":4194:4264   */\n      swap8\n      pop\n        /* \"#utility.yul\":4287:4347   */\n      tag_363\n        /* \"#utility.yul\":4340:4346   */\n      dup4\n        /* \"#utility.yul\":4287:4347   */\n      tag_261\n      jump\t// in\n    tag_363:\n        /* \"#utility.yul\":4277:4347   */\n      swap3\n      pop\n        /* \"#utility.yul\":4133:4357   */\n      pop\n        /* \"#utility.yul\":4120:4121   */\n      0x01\n        /* \"#utility.yul\":4117:4118   */\n      dup2\n        /* \"#utility.yul\":4113:4122   */\n      add\n        /* \"#utility.yul\":4108:4122   */\n      swap1\n      pop\n        /* \"#utility.yul\":4073:4357   */\n      jump(tag_359)\n    tag_361:\n        /* \"#utility.yul\":4077:4091   */\n      pop\n        /* \"#utility.yul\":4373:4376   */\n      dup6\n        /* \"#utility.yul\":4366:4376   */\n      swap4\n      pop\n        /* \"#utility.yul\":3784:4382   */\n      pop\n      pop\n      pop\n        /* \"#utility.yul\":3670:4382   */\n      swap3\n      swap2\n      pop\n      pop\n      jump\t// out\n        /* \"#utility.yul\":4440:6312   */\n    tag_263:\n        /* \"#utility.yul\":4551:4554   */\n      0x00\n        /* \"#utility.yul\":4587:4593   */\n      0x0100\n        /* \"#utility.yul\":4582:4585   */\n      dup4\n        /* \"#utility.yul\":4578:4594   */\n      add\n        /* \"#utility.yul\":4674:4678   */\n      0x00\n        /* \"#utility.yul\":4667:4672   */\n      dup4\n        /* \"#utility.yul\":4663:4679   */\n      add\n        /* \"#utility.yul\":4657:4680   */\n      mload\n        /* \"#utility.yul\":4693:4756   */\n      tag_365\n        /* \"#utility.yul\":4750:4754   */\n      0x00\n        /* \"#utility.yul\":4745:4748   */\n      dup7\n        /* \"#utility.yul\":4741:4755   */\n      add\n        /* \"#utility.yul\":4727:4739   */\n      dup3\n        /* \"#utility.yul\":4693:4756   */\n      tag_250\n      jump\t// in\n    tag_365:\n        /* \"#utility.yul\":4604:4766   */\n      pop\n        /* \"#utility.yul\":4851:4855   */\n      0x20\n        /* \"#utility.yul\":4844:4849   */\n      dup4\n        /* \"#utility.yul\":4840:4856   */\n      add\n        /* \"#utility.yul\":4834:4857   */\n      mload\n        /* \"#utility.yul\":4904:4907   */\n      dup5\n        /* \"#utility.yul\":4898:4902   */\n      dup3\n        /* \"#utility.yul\":4894:4908   */\n      sub\n        /* \"#utility.yul\":4887:4891   */\n      0x20\n        /* \"#utility.yul\":4882:4885   */\n      dup7\n        /* \"#utility.yul\":4878:4892   */\n      add\n        /* \"#utility.yul\":4871:4909   */\n      mstore\n        /* \"#utility.yul\":4930:5003   */\n      tag_366\n        /* \"#utility.yul\":4998:5002   */\n      dup3\n        /* \"#utility.yul\":4984:4996   */\n      dup3\n        /* \"#utility.yul\":4930:5003   */\n      tag_255\n      jump\t// in\n    tag_366:\n        /* \"#utility.yul\":4922:5003   */\n      swap2\n      pop\n        /* \"#utility.yul\":4776:5014   */\n      pop\n        /* \"#utility.yul\":5098:5102   */\n      0x40\n        /* \"#utility.yul\":5091:5096   */\n      dup4\n        /* \"#utility.yul\":5087:5103   */\n      add\n        /* \"#utility.yul\":5081:5104   */\n      mload\n        /* \"#utility.yul\":5117:5180   */\n      tag_367\n        /* \"#utility.yul\":5174:5178   */\n      0x40\n        /* \"#utility.yul\":5169:5172   */\n      dup7\n        /* \"#utility.yul\":5165:5179   */\n      add\n        /* \"#utility.yul\":5151:5163   */\n      dup3\n        /* \"#utility.yul\":5117:5180   */\n      tag_256\n      jump\t// in\n    tag_367:\n        /* \"#utility.yul\":5024:5190   */\n      pop\n        /* \"#utility.yul\":5277:5281   */\n      0x60\n        /* \"#utility.yul\":5270:5275   */\n      dup4\n        /* \"#utility.yul\":5266:5282   */\n      add\n        /* \"#utility.yul\":5260:5283   */\n      mload\n        /* \"#utility.yul\":5296:5359   */\n      tag_368\n        /* \"#utility.yul\":5353:5357   */\n      0x60\n        /* \"#utility.yul\":5348:5351   */\n      dup7\n        /* \"#utility.yul\":5344:5358   */\n      add\n        /* \"#utility.yul\":5330:5342   */\n      dup3\n        /* \"#utility.yul\":5296:5359   */\n      tag_250\n      jump\t// in\n    tag_368:\n        /* \"#utility.yul\":5200:5369   */\n      pop\n        /* \"#utility.yul\":5452:5456   */\n      0x80\n        /* \"#utility.yul\":5445:5450   */\n      dup4\n        /* \"#utility.yul\":5441:5457   */\n      add\n        /* \"#utility.yul\":5435:5458   */\n      mload\n        /* \"#utility.yul\":5505:5508   */\n      dup5\n        /* \"#utility.yul\":5499:5503   */\n      dup3\n        /* \"#utility.yul\":5495:5509   */\n      sub\n        /* \"#utility.yul\":5488:5492   */\n      0x80\n        /* \"#utility.yul\":5483:5486   */\n      dup7\n        /* \"#utility.yul\":5479:5493   */\n      add\n        /* \"#utility.yul\":5472:5510   */\n      mstore\n        /* \"#utility.yul\":5531:5634   */\n      tag_369\n        /* \"#utility.yul\":5629:5633   */\n      dup3\n        /* \"#utility.yul\":5615:5627   */\n      dup3\n        /* \"#utility.yul\":5531:5634   */\n      tag_262\n      jump\t// in\n    tag_369:\n        /* \"#utility.yul\":5523:5634   */\n      swap2\n      pop\n        /* \"#utility.yul\":5379:5645   */\n      pop\n        /* \"#utility.yul\":5733:5737   */\n      0xa0\n        /* \"#utility.yul\":5726:5731   */\n      dup4\n        /* \"#utility.yul\":5722:5738   */\n      add\n        /* \"#utility.yul\":5716:5739   */\n      mload\n        /* \"#utility.yul\":5752:5815   */\n      tag_370\n        /* \"#utility.yul\":5809:5813   */\n      0xa0\n        /* \"#utility.yul\":5804:5807   */\n      dup7\n        /* \"#utility.yul\":5800:5814   */\n      add\n        /* \"#utility.yul\":5786:5798   */\n      dup3\n        /* \"#utility.yul\":5752:5815   */\n      tag_250\n      jump\t// in\n    tag_370:\n        /* \"#utility.yul\":5655:5825   */\n      pop\n        /* \"#utility.yul\":5915:5919   */\n      0xc0\n        /* \"#utility.yul\":5908:5913   */\n      dup4\n        /* \"#utility.yul\":5904:5920   */\n      add\n        /* \"#utility.yul\":5898:5921   */\n      mload\n        /* \"#utility.yul\":5934:5997   */\n      tag_371\n        /* \"#utility.yul\":5991:5995   */\n      0xc0\n        /* \"#utility.yul\":5986:5989   */\n      dup7\n        /* \"#utility.yul\":5982:5996   */\n      add\n        /* \"#utility.yul\":5968:5980   */\n      dup3\n        /* \"#utility.yul\":5934:5997   */\n      tag_250\n      jump\t// in\n    tag_371:\n        /* \"#utility.yul\":5835:6007   */\n      pop\n        /* \"#utility.yul\":6092:6096   */\n      0xe0\n        /* \"#utility.yul\":6085:6090   */\n      dup4\n        /* \"#utility.yul\":6081:6097   */\n      add\n        /* \"#utility.yul\":6075:6098   */\n      mload\n        /* \"#utility.yul\":6145:6148   */\n      dup5\n        /* \"#utility.yul\":6139:6143   */\n      dup3\n        /* \"#utility.yul\":6135:6149   */\n      sub\n        /* \"#utility.yul\":6128:6132   */\n      0xe0\n        /* \"#utility.yul\":6123:6126   */\n      dup7\n        /* \"#utility.yul\":6119:6133   */\n      add\n        /* \"#utility.yul\":6112:6150   */\n      mstore\n        /* \"#utility.yul\":6171:6274   */\n      tag_372\n        /* \"#utility.yul\":6269:6273   */\n      dup3\n        /* \"#utility.yul\":6255:6267   */\n      dup3\n        /* \"#utility.yul\":6171:6274   */\n      tag_262\n      jump\t// in\n    tag_372:\n        /* \"#utility.yul\":6163:6274   */\n      swap2\n      pop\n        /* \"#utility.yul\":6017:6285   */\n      pop\n        /* \"#utility.yul\":6302:6306   */\n      dup1\n        /* \"#utility.yul\":6295:6306   */\n      swap2\n      pop\n        /* \"#utility.yul\":4556:6312   */\n      pop\n        /* \"#utility.yul\":4440:6312   */\n      swap3\n      swap2\n      pop\n      pop\n      jump\t// out\n        /* \"#utility.yul\":6318:6675   */\n    tag_20:\n        /* \"#utility.yul\":6453:6457   */\n      0x00\n        /* \"#utility.yul\":6491:6493   */\n      0x20\n        /* \"#utility.yul\":6480:6489   */\n      dup3\n        /* \"#utility.yul\":6476:6494   */\n      add\n        /* \"#utility.yul\":6468:6494   */\n      swap1\n      pop\n        /* \"#utility.yul\":6540:6549   */\n      dup2\n        /* \"#utility.yul\":6534:6538   */\n      dup2\n        /* \"#utility.yul\":6530:6550   */\n      sub\n        /* \"#utility.yul\":6526:6527   */\n      0x00\n        /* \"#utility.yul\":6515:6524   */\n      dup4\n        /* \"#utility.yul\":6511:6528   */\n      add\n        /* \"#utility.yul\":6504:6551   */\n      mstore\n        /* \"#utility.yul\":6568:6668   */\n      tag_374\n        /* \"#utility.yul\":6663:6667   */\n      dup2\n        /* \"#utility.yul\":6654:6660   */\n      dup5\n        /* \"#utility.yul\":6568:6668   */\n      tag_263\n      jump\t// in\n    tag_374:\n        /* \"#utility.yul\":6560:6668   */\n      swap1\n      pop\n        /* \"#utility.yul\":6318:6675   */\n      swap3\n      swap2\n      pop\n      pop\n      jump\t// out\n        /* \"#utility.yul\":6681:6816   */\n    tag_264:\n        /* \"#utility.yul\":6769:6775   */\n      0x00\n        /* \"#utility.yul\":6803:6808   */\n      dup2\n        /* \"#utility.yul\":6797:6809   */\n      mload\n        /* \"#utility.yul\":6787:6809   */\n      swap1\n      pop\n        /* \"#utility.yul\":6681:6816   */\n      swap2\n      swap1\n      pop\n      jump\t// out\n        /* \"#utility.yul\":6822:7027   */\n    tag_265:\n        /* \"#utility.yul\":6942:6953   */\n      0x00\n        /* \"#utility.yul\":6976:6982   */\n      dup3\n        /* \"#utility.yul\":6971:6974   */\n      dup3\n        /* \"#utility.yul\":6964:6983   */\n      mstore\n        /* \"#utility.yul\":7016:7020   */\n      0x20\n        /* \"#utility.yul\":7011:7014   */\n      dup3\n        /* \"#utility.yul\":7007:7021   */\n      add\n        /* \"#utility.yul\":6992:7021   */\n      swap1\n      pop\n        /* \"#utility.yul\":6822:7027   */\n      swap3\n      swap2\n      pop\n      pop\n      jump\t// out\n        /* \"#utility.yul\":7033:7186   */\n    tag_266:\n        /* \"#utility.yul\":7121:7125   */\n      0x00\n        /* \"#utility.yul\":7144:7147   */\n      dup2\n        /* \"#utility.yul\":7136:7147   */\n      swap1\n      pop\n        /* \"#utility.yul\":7174:7178   */\n      0x20\n        /* \"#utility.yul\":7169:7172   */\n      dup3\n        /* \"#utility.yul\":7165:7179   */\n      add\n        /* \"#utility.yul\":7157:7179   */\n      swap1\n      pop\n        /* \"#utility.yul\":7033:7186   */\n      swap2\n      swap1\n      pop\n      jump\t// out\n        /* \"#utility.yul\":7244:9106   */\n    tag_267:\n        /* \"#utility.yul\":7345:7348   */\n      0x00\n        /* \"#utility.yul\":7381:7387   */\n      0x0100\n        /* \"#utility.yul\":7376:7379   */\n      dup4\n        /* \"#utility.yul\":7372:7388   */\n      add\n        /* \"#utility.yul\":7468:7472   */\n      0x00\n        /* \"#utility.yul\":7461:7466   */\n      dup4\n        /* \"#utility.yul\":7457:7473   */\n      add\n        /* \"#utility.yul\":7451:7474   */\n      mload\n        /* \"#utility.yul\":7487:7550   */\n      tag_379\n        /* \"#utility.yul\":7544:7548   */\n      0x00\n        /* \"#utility.yul\":7539:7542   */\n      dup7\n        /* \"#utility.yul\":7535:7549   */\n      add\n        /* \"#utility.yul\":7521:7533   */\n      dup3\n        /* \"#utility.yul\":7487:7550   */\n      tag_250\n      jump\t// in\n    tag_379:\n        /* \"#utility.yul\":7398:7560   */\n      pop\n        /* \"#utility.yul\":7645:7649   */\n      0x20\n        /* \"#utility.yul\":7638:7643   */\n      dup4\n        /* \"#utility.yul\":7634:7650   */\n      add\n        /* \"#utility.yul\":7628:7651   */\n      mload\n        /* \"#utility.yul\":7698:7701   */\n      dup5\n        /* \"#utility.yul\":7692:7696   */\n      dup3\n        /* \"#utility.yul\":7688:7702   */\n      sub\n        /* \"#utility.yul\":7681:7685   */\n      0x20\n        /* \"#utility.yul\":7676:7679   */\n      dup7\n        /* \"#utility.yul\":7672:7686   */\n      add\n        /* \"#utility.yul\":7665:7703   */\n      mstore\n        /* \"#utility.yul\":7724:7797   */\n      tag_380\n        /* \"#utility.yul\":7792:7796   */\n      dup3\n        /* \"#utility.yul\":7778:7790   */\n      dup3\n        /* \"#utility.yul\":7724:7797   */\n      tag_255\n      jump\t// in\n    tag_380:\n        /* \"#utility.yul\":7716:7797   */\n      swap2\n      pop\n        /* \"#utility.yul\":7570:7808   */\n      pop\n        /* \"#utility.yul\":7892:7896   */\n      0x40\n        /* \"#utility.yul\":7885:7890   */\n      dup4\n        /* \"#utility.yul\":7881:7897   */\n      add\n        /* \"#utility.yul\":7875:7898   */\n      mload\n        /* \"#utility.yul\":7911:7974   */\n      tag_381\n        /* \"#utility.yul\":7968:7972   */\n      0x40\n        /* \"#utility.yul\":7963:7966   */\n      dup7\n        /* \"#utility.yul\":7959:7973   */\n      add\n        /* \"#utility.yul\":7945:7957   */\n      dup3\n        /* \"#utility.yul\":7911:7974   */\n      tag_256\n      jump\t// in\n    tag_381:\n        /* \"#utility.yul\":7818:7984   */\n      pop\n        /* \"#utility.yul\":8071:8075   */\n      0x60\n        /* \"#utility.yul\":8064:8069   */\n      dup4\n        /* \"#utility.yul\":8060:8076   */\n      add\n        /* \"#utility.yul\":8054:8077   */\n      mload\n        /* \"#utility.yul\":8090:8153   */\n      tag_382\n        /* \"#utility.yul\":8147:8151   */\n      0x60\n        /* \"#utility.yul\":8142:8145   */\n      dup7\n        /* \"#utility.yul\":8138:8152   */\n      add\n        /* \"#utility.yul\":8124:8136   */\n      dup3\n        /* \"#utility.yul\":8090:8153   */\n      tag_250\n      jump\t// in\n    tag_382:\n        /* \"#utility.yul\":7994:8163   */\n      pop\n        /* \"#utility.yul\":8246:8250   */\n      0x80\n        /* \"#utility.yul\":8239:8244   */\n      dup4\n        /* \"#utility.yul\":8235:8251   */\n      add\n        /* \"#utility.yul\":8229:8252   */\n      mload\n        /* \"#utility.yul\":8299:8302   */\n      dup5\n        /* \"#utility.yul\":8293:8297   */\n      dup3\n        /* \"#utility.yul\":8289:8303   */\n      sub\n        /* \"#utility.yul\":8282:8286   */\n      0x80\n        /* \"#utility.yul\":8277:8280   */\n      dup7\n        /* \"#utility.yul\":8273:8287   */\n      add\n        /* \"#utility.yul\":8266:8304   */\n      mstore\n        /* \"#utility.yul\":8325:8428   */\n      tag_383\n        /* \"#utility.yul\":8423:8427   */\n      dup3\n        /* \"#utility.yul\":8409:8421   */\n      dup3\n        /* \"#utility.yul\":8325:8428   */\n      tag_262\n      jump\t// in\n    tag_383:\n        /* \"#utility.yul\":8317:8428   */\n      swap2\n      pop\n        /* \"#utility.yul\":8173:8439   */\n      pop\n        /* \"#utility.yul\":8527:8531   */\n      0xa0\n        /* \"#utility.yul\":8520:8525   */\n      dup4\n        /* \"#utility.yul\":8516:8532   */\n      add\n        /* \"#utility.yul\":8510:8533   */\n      mload\n        /* \"#utility.yul\":8546:8609   */\n      tag_384\n        /* \"#utility.yul\":8603:8607   */\n      0xa0\n        /* \"#utility.yul\":8598:8601   */\n      dup7\n        /* \"#utility.yul\":8594:8608   */\n      add\n        /* \"#utility.yul\":8580:8592   */\n      dup3\n        /* \"#utility.yul\":8546:8609   */\n      tag_250\n      jump\t// in\n    tag_384:\n        /* \"#utility.yul\":8449:8619   */\n      pop\n        /* \"#utility.yul\":8709:8713   */\n      0xc0\n        /* \"#utility.yul\":8702:8707   */\n      dup4\n        /* \"#utility.yul\":8698:8714   */\n      add\n        /* \"#utility.yul\":8692:8715   */\n      mload\n        /* \"#utility.yul\":8728:8791   */\n      tag_385\n        /* \"#utility.yul\":8785:8789   */\n      0xc0\n        /* \"#utility.yul\":8780:8783   */\n      dup7\n        /* \"#utility.yul\":8776:8790   */\n      add\n        /* \"#utility.yul\":8762:8774   */\n      dup3\n        /* \"#utility.yul\":8728:8791   */\n      tag_250\n      jump\t// in\n    tag_385:\n        /* \"#utility.yul\":8629:8801   */\n      pop\n        /* \"#utility.yul\":8886:8890   */\n      0xe0\n        /* \"#utility.yul\":8879:8884   */\n      dup4\n        /* \"#utility.yul\":8875:8891   */\n      add\n        /* \"#utility.yul\":8869:8892   */\n      mload\n        /* \"#utility.yul\":8939:8942   */\n      dup5\n        /* \"#utility.yul\":8933:8937   */\n      dup3\n        /* \"#utility.yul\":8929:8943   */\n      sub\n        /* \"#utility.yul\":8922:8926   */\n      0xe0\n        /* \"#utility.yul\":8917:8920   */\n      dup7\n        /* \"#utility.yul\":8913:8927   */\n      add\n        /* \"#utility.yul\":8906:8944   */\n      mstore\n        /* \"#utility.yul\":8965:9068   */\n      tag_386\n        /* \"#utility.yul\":9063:9067   */\n      dup3\n        /* \"#utility.yul\":9049:9061   */\n      dup3\n        /* \"#utility.yul\":8965:9068   */\n      tag_262\n      jump\t// in\n    tag_386:\n        /* \"#utility.yul\":8957:9068   */\n      swap2\n      pop\n        /* \"#utility.yul\":8811:9079   */\n      pop\n        /* \"#utility.yul\":9096:9100   */\n      dup1\n        /* \"#utility.yul\":9089:9100   */\n      swap2\n      pop\n        /* \"#utility.yul\":7350:9106   */\n      pop\n        /* \"#utility.yul\":7244:9106   */\n      swap3\n      swap2\n      pop\n      pop\n      jump\t// out\n        /* \"#utility.yul\":9112:9352   */\n    tag_268:\n        /* \"#utility.yul\":9223:9233   */\n      0x00\n        /* \"#utility.yul\":9258:9346   */\n      tag_388\n        /* \"#utility.yul\":9342:9345   */\n      dup4\n        /* \"#utility.yul\":9334:9340   */\n      dup4\n        /* \"#utility.yul\":9258:9346   */\n      tag_267\n      jump\t// in\n    tag_388:\n        /* \"#utility.yul\":9244:9346   */\n      swap1\n      pop\n        /* \"#utility.yul\":9112:9352   */\n      swap3\n      swap2\n      pop\n      pop\n      jump\t// out\n        /* \"#utility.yul\":9358:9492   */\n    tag_269:\n        /* \"#utility.yul\":9449:9453   */\n      0x00\n        /* \"#utility.yul\":9481:9485   */\n      0x20\n        /* \"#utility.yul\":9476:9479   */\n      dup3\n        /* \"#utility.yul\":9472:9486   */\n      add\n        /* \"#utility.yul\":9464:9486   */\n      swap1\n      pop\n        /* \"#utility.yul\":9358:9492   */\n      swap2\n      swap1\n      pop\n      jump\t// out\n        /* \"#utility.yul\":9554:10633   */\n    tag_270:\n        /* \"#utility.yul\":9715:9718   */\n      0x00\n        /* \"#utility.yul\":9744:9819   */\n      tag_391\n        /* \"#utility.yul\":9813:9818   */\n      dup3\n        /* \"#utility.yul\":9744:9819   */\n      tag_264\n      jump\t// in\n    tag_391:\n        /* \"#utility.yul\":9835:9942   */\n      tag_392\n        /* \"#utility.yul\":9935:9941   */\n      dup2\n        /* \"#utility.yul\":9930:9933   */\n      dup6\n        /* \"#utility.yul\":9835:9942   */\n      tag_265\n      jump\t// in\n    tag_392:\n        /* \"#utility.yul\":9828:9942   */\n      swap4\n      pop\n        /* \"#utility.yul\":9968:9971   */\n      dup4\n        /* \"#utility.yul\":10013:10017   */\n      0x20\n        /* \"#utility.yul\":10005:10011   */\n      dup3\n        /* \"#utility.yul\":10001:10018   */\n      mul\n        /* \"#utility.yul\":9996:9999   */\n      dup6\n        /* \"#utility.yul\":9992:10019   */\n      add\n        /* \"#utility.yul\":10043:10120   */\n      tag_393\n        /* \"#utility.yul\":10114:10119   */\n      dup6\n        /* \"#utility.yul\":10043:10120   */\n      tag_266\n      jump\t// in\n    tag_393:\n        /* \"#utility.yul\":10143:10150   */\n      dup1\n        /* \"#utility.yul\":10174:10175   */\n      0x00\n        /* \"#utility.yul\":10159:10588   */\n    tag_394:\n        /* \"#utility.yul\":10184:10190   */\n      dup6\n        /* \"#utility.yul\":10181:10182   */\n      dup2\n        /* \"#utility.yul\":10178:10191   */\n      lt\n        /* \"#utility.yul\":10159:10588   */\n      iszero\n      tag_396\n      jumpi\n        /* \"#utility.yul\":10255:10264   */\n      dup5\n        /* \"#utility.yul\":10249:10253   */\n      dup5\n        /* \"#utility.yul\":10245:10265   */\n      sub\n        /* \"#utility.yul\":10240:10243   */\n      dup10\n        /* \"#utility.yul\":10233:10266   */\n      mstore\n        /* \"#utility.yul\":10306:10312   */\n      dup2\n        /* \"#utility.yul\":10300:10313   */\n      mload\n        /* \"#utility.yul\":10334:10440   */\n      tag_397\n        /* \"#utility.yul\":10435:10439   */\n      dup6\n        /* \"#utility.yul\":10420:10433   */\n      dup3\n        /* \"#utility.yul\":10334:10440   */\n      tag_268\n      jump\t// in\n    tag_397:\n        /* \"#utility.yul\":10326:10440   */\n      swap5\n      pop\n        /* \"#utility.yul\":10463:10544   */\n      tag_398\n        /* \"#utility.yul\":10537:10543   */\n      dup4\n        /* \"#utility.yul\":10463:10544   */\n      tag_269\n      jump\t// in\n    tag_398:\n        /* \"#utility.yul\":10453:10544   */\n      swap3\n      pop\n        /* \"#utility.yul\":10573:10577   */\n      0x20\n        /* \"#utility.yul\":10568:10571   */\n      dup11\n        /* \"#utility.yul\":10564:10578   */\n      add\n        /* \"#utility.yul\":10557:10578   */\n      swap10\n      pop\n        /* \"#utility.yul\":10219:10588   */\n      pop\n        /* \"#utility.yul\":10206:10207   */\n      0x01\n        /* \"#utility.yul\":10203:10204   */\n      dup2\n        /* \"#utility.yul\":10199:10208   */\n      add\n        /* \"#utility.yul\":10194:10208   */\n      swap1\n      pop\n        /* \"#utility.yul\":10159:10588   */\n      jump(tag_394)\n    tag_396:\n        /* \"#utility.yul\":10163:10177   */\n      pop\n        /* \"#utility.yul\":10604:10608   */\n      dup3\n        /* \"#utility.yul\":10597:10608   */\n      swap8\n      pop\n        /* \"#utility.yul\":10624:10627   */\n      dup8\n        /* \"#utility.yul\":10617:10627   */\n      swap6\n      pop\n        /* \"#utility.yul\":9720:10633   */\n      pop\n      pop\n      pop\n      pop\n      pop\n        /* \"#utility.yul\":9554:10633   */\n      swap3\n      swap2\n      pop\n      pop\n      jump\t// out\n        /* \"#utility.yul\":10639:11096   */\n    tag_24:\n        /* \"#utility.yul\":10824:10828   */\n      0x00\n        /* \"#utility.yul\":10862:10864   */\n      0x20\n        /* \"#utility.yul\":10851:10860   */\n      dup3\n        /* \"#utility.yul\":10847:10865   */\n      add\n        /* \"#utility.yul\":10839:10865   */\n      swap1\n      pop\n        /* \"#utility.yul\":10911:10920   */\n      dup2\n        /* \"#utility.yul\":10905:10909   */\n      dup2\n        /* \"#utility.yul\":10901:10921   */\n      sub\n        /* \"#utility.yul\":10897:10898   */\n      0x00\n        /* \"#utility.yul\":10886:10895   */\n      dup4\n        /* \"#utility.yul\":10882:10899   */\n      add\n        /* \"#utility.yul\":10875:10922   */\n      mstore\n        /* \"#utility.yul\":10939:11089   */\n      tag_400\n        /* \"#utility.yul\":11084:11088   */\n      dup2\n        /* \"#utility.yul\":11075:11081   */\n      dup5\n        /* \"#utility.yul\":10939:11089   */\n      tag_270\n      jump\t// in\n    tag_400:\n        /* \"#utility.yul\":10931:11089   */\n      swap1\n      pop\n        /* \"#utility.yul\":10639:11096   */\n      swap3\n      swap2\n      pop\n      pop\n      jump\t// out\n        /* \"#utility.yul\":11102:11219   */\n    tag_271:\n        /* \"#utility.yul\":11211:11212   */\n      0x00\n        /* \"#utility.yul\":11208:11209   */\n      dup1\n        /* \"#utility.yul\":11201:11213   */\n      revert\n        /* \"#utility.yul\":11225:11342   */\n    tag_272:\n        /* \"#utility.yul\":11334:11335   */\n      0x00\n        /* \"#utility.yul\":11331:11332   */\n      dup1\n        /* \"#utility.yul\":11324:11336   */\n      revert\n        /* \"#utility.yul\":11348:11528   */\n    tag_273:\n        /* \"#utility.yul\":11396:11473   */\n      0x4e487b7100000000000000000000000000000000000000000000000000000000\n        /* \"#utility.yul\":11393:11394   */\n      0x00\n        /* \"#utility.yul\":11386:11474   */\n      mstore\n        /* \"#utility.yul\":11493:11497   */\n      0x41\n        /* \"#utility.yul\":11490:11491   */\n      0x04\n        /* \"#utility.yul\":11483:11498   */\n      mstore\n        /* \"#utility.yul\":11517:11521   */\n      0x24\n        /* \"#utility.yul\":11514:11515   */\n      0x00\n        /* \"#utility.yul\":11507:11522   */\n      revert\n        /* \"#utility.yul\":11534:11815   */\n    tag_274:\n        /* \"#utility.yul\":11617:11644   */\n      tag_405\n        /* \"#utility.yul\":11639:11643   */\n      dup3\n        /* \"#utility.yul\":11617:11644   */\n      tag_254\n      jump\t// in\n    tag_405:\n        /* \"#utility.yul\":11609:11615   */\n      dup2\n        /* \"#utility.yul\":11605:11645   */\n      add\n        /* \"#utility.yul\":11747:11753   */\n      dup2\n        /* \"#utility.yul\":11735:11745   */\n      dup2\n        /* \"#utility.yul\":11732:11754   */\n      lt\n        /* \"#utility.yul\":11711:11729   */\n      0xffffffffffffffff\n        /* \"#utility.yul\":11699:11709   */\n      dup3\n        /* \"#utility.yul\":11696:11730   */\n      gt\n        /* \"#utility.yul\":11693:11755   */\n      or\n        /* \"#utility.yul\":11690:11778   */\n      iszero\n      tag_406\n      jumpi\n        /* \"#utility.yul\":11758:11776   */\n      tag_407\n      tag_273\n      jump\t// in\n    tag_407:\n        /* \"#utility.yul\":11690:11778   */\n    tag_406:\n        /* \"#utility.yul\":11798:11808   */\n      dup1\n        /* \"#utility.yul\":11794:11796   */\n      0x40\n        /* \"#utility.yul\":11787:11809   */\n      mstore\n        /* \"#utility.yul\":11577:11815   */\n      pop\n        /* \"#utility.yul\":11534:11815   */\n      pop\n      pop\n      jump\t// out\n        /* \"#utility.yul\":11821:11950   */\n    tag_275:\n        /* \"#utility.yul\":11855:11861   */\n      0x00\n        /* \"#utility.yul\":11882:11902   */\n      tag_409\n      tag_240\n      jump\t// in\n    tag_409:\n        /* \"#utility.yul\":11872:11902   */\n      swap1\n      pop\n        /* \"#utility.yul\":11911:11944   */\n      tag_410\n        /* \"#utility.yul\":11939:11943   */\n      dup3\n        /* \"#utility.yul\":11931:11937   */\n      dup3\n        /* \"#utility.yul\":11911:11944   */\n      tag_274\n      jump\t// in\n    tag_410:\n        /* \"#utility.yul\":11821:11950   */\n      swap2\n      swap1\n      pop\n      jump\t// out\n        /* \"#utility.yul\":11956:12264   */\n    tag_276:\n        /* \"#utility.yul\":12018:12022   */\n      0x00\n        /* \"#utility.yul\":12108:12126   */\n      0xffffffffffffffff\n        /* \"#utility.yul\":12100:12106   */\n      dup3\n        /* \"#utility.yul\":12097:12127   */\n      gt\n        /* \"#utility.yul\":12094:12150   */\n      iszero\n      tag_412\n      jumpi\n        /* \"#utility.yul\":12130:12148   */\n      tag_413\n      tag_273\n      jump\t// in\n    tag_413:\n        /* \"#utility.yul\":12094:12150   */\n    tag_412:\n        /* \"#utility.yul\":12168:12197   */\n      tag_414\n        /* \"#utility.yul\":12190:12196   */\n      dup3\n        /* \"#utility.yul\":12168:12197   */\n      tag_254\n      jump\t// in\n    tag_414:\n        /* \"#utility.yul\":12160:12197   */\n      swap1\n      pop\n        /* \"#utility.yul\":12252:12256   */\n      0x20\n        /* \"#utility.yul\":12246:12250   */\n      dup2\n        /* \"#utility.yul\":12242:12257   */\n      add\n        /* \"#utility.yul\":12234:12257   */\n      swap1\n      pop\n        /* \"#utility.yul\":11956:12264   */\n      swap2\n      swap1\n      pop\n      jump\t// out\n        /* \"#utility.yul\":12270:12416   */\n    tag_277:\n        /* \"#utility.yul\":12367:12373   */\n      dup3\n        /* \"#utility.yul\":12362:12365   */\n      dup2\n        /* \"#utility.yul\":12357:12360   */\n      dup4\n        /* \"#utility.yul\":12344:12374   */\n      calldatacopy\n        /* \"#utility.yul\":12408:12409   */\n      0x00\n        /* \"#utility.yul\":12399:12405   */\n      dup4\n        /* \"#utility.yul\":12394:12397   */\n      dup4\n        /* \"#utility.yul\":12390:12406   */\n      add\n        /* \"#utility.yul\":12383:12410   */\n      mstore\n        /* \"#utility.yul\":12270:12416   */\n      pop\n      pop\n      pop\n      jump\t// out\n        /* \"#utility.yul\":12422:12847   */\n    tag_278:\n        /* \"#utility.yul\":12500:12505   */\n      0x00\n        /* \"#utility.yul\":12525:12591   */\n      tag_417\n        /* \"#utility.yul\":12541:12590   */\n      tag_418\n        /* \"#utility.yul\":12583:12589   */\n      dup5\n        /* \"#utility.yul\":12541:12590   */\n      tag_276\n      jump\t// in\n    tag_418:\n        /* \"#utility.yul\":12525:12591   */\n      tag_275\n      jump\t// in\n    tag_417:\n        /* \"#utility.yul\":12516:12591   */\n      swap1\n      pop\n        /* \"#utility.yul\":12614:12620   */\n      dup3\n        /* \"#utility.yul\":12607:12612   */\n      dup2\n        /* \"#utility.yul\":12600:12621   */\n      mstore\n        /* \"#utility.yul\":12652:12656   */\n      0x20\n        /* \"#utility.yul\":12645:12650   */\n      dup2\n        /* \"#utility.yul\":12641:12657   */\n      add\n        /* \"#utility.yul\":12690:12693   */\n      dup5\n        /* \"#utility.yul\":12681:12687   */\n      dup5\n        /* \"#utility.yul\":12676:12679   */\n      dup5\n        /* \"#utility.yul\":12672:12688   */\n      add\n        /* \"#utility.yul\":12669:12694   */\n      gt\n        /* \"#utility.yul\":12666:12778   */\n      iszero\n      tag_419\n      jumpi\n        /* \"#utility.yul\":12697:12776   */\n      tag_420\n      tag_272\n      jump\t// in\n    tag_420:\n        /* \"#utility.yul\":12666:12778   */\n    tag_419:\n        /* \"#utility.yul\":12787:12841   */\n      tag_421\n        /* \"#utility.yul\":12834:12840   */\n      dup5\n        /* \"#utility.yul\":12829:12832   */\n      dup3\n        /* \"#utility.yul\":12824:12827   */\n      dup6\n        /* \"#utility.yul\":12787:12841   */\n      tag_277\n      jump\t// in\n    tag_421:\n        /* \"#utility.yul\":12506:12847   */\n      pop\n        /* \"#utility.yul\":12422:12847   */\n      swap4\n      swap3\n      pop\n      pop\n      pop\n      jump\t// out\n        /* \"#utility.yul\":12867:13207   */\n    tag_279:\n        /* \"#utility.yul\":12923:12928   */\n      0x00\n        /* \"#utility.yul\":12972:12975   */\n      dup3\n        /* \"#utility.yul\":12965:12969   */\n      0x1f\n        /* \"#utility.yul\":12957:12963   */\n      dup4\n        /* \"#utility.yul\":12953:12970   */\n      add\n        /* \"#utility.yul\":12949:12976   */\n      slt\n        /* \"#utility.yul\":12939:13061   */\n      tag_423\n      jumpi\n        /* \"#utility.yul\":12980:13059   */\n      tag_424\n      tag_271\n      jump\t// in\n    tag_424:\n        /* \"#utility.yul\":12939:13061   */\n    tag_423:\n        /* \"#utility.yul\":13097:13103   */\n      dup2\n        /* \"#utility.yul\":13084:13104   */\n      calldataload\n        /* \"#utility.yul\":13122:13201   */\n      tag_425\n        /* \"#utility.yul\":13197:13200   */\n      dup5\n        /* \"#utility.yul\":13189:13195   */\n      dup3\n        /* \"#utility.yul\":13182:13186   */\n      0x20\n        /* \"#utility.yul\":13174:13180   */\n      dup7\n        /* \"#utility.yul\":13170:13187   */\n      add\n        /* \"#utility.yul\":13122:13201   */\n      tag_278\n      jump\t// in\n    tag_425:\n        /* \"#utility.yul\":13113:13201   */\n      swap2\n      pop\n        /* \"#utility.yul\":12929:13207   */\n      pop\n        /* \"#utility.yul\":12867:13207   */\n      swap3\n      swap2\n      pop\n      pop\n      jump\t// out\n        /* \"#utility.yul\":13213:13722   */\n    tag_31:\n        /* \"#utility.yul\":13282:13288   */\n      0x00\n        /* \"#utility.yul\":13331:13333   */\n      0x20\n        /* \"#utility.yul\":13319:13328   */\n      dup3\n        /* \"#utility.yul\":13310:13317   */\n      dup5\n        /* \"#utility.yul\":13306:13329   */\n      sub\n        /* \"#utility.yul\":13302:13334   */\n      slt\n        /* \"#utility.yul\":13299:13418   */\n      iszero\n      tag_427\n      jumpi\n        /* \"#utility.yul\":13337:13416   */\n      tag_428\n      tag_241\n      jump\t// in\n    tag_428:\n        /* \"#utility.yul\":13299:13418   */\n    tag_427:\n        /* \"#utility.yul\":13485:13486   */\n      0x00\n        /* \"#utility.yul\":13474:13483   */\n      dup3\n        /* \"#utility.yul\":13470:13487   */\n      add\n        /* \"#utility.yul\":13457:13488   */\n      calldataload\n        /* \"#utility.yul\":13515:13533   */\n      0xffffffffffffffff\n        /* \"#utility.yul\":13507:13513   */\n      dup2\n        /* \"#utility.yul\":13504:13534   */\n      gt\n        /* \"#utility.yul\":13501:13618   */\n      iszero\n      tag_429\n      jumpi\n        /* \"#utility.yul\":13537:13616   */\n      tag_430\n      tag_242\n      jump\t// in\n    tag_430:\n        /* \"#utility.yul\":13501:13618   */\n    tag_429:\n        /* \"#utility.yul\":13642:13705   */\n      tag_431\n        /* \"#utility.yul\":13697:13704   */\n      dup5\n        /* \"#utility.yul\":13688:13694   */\n      dup3\n        /* \"#utility.yul\":13677:13686   */\n      dup6\n        /* \"#utility.yul\":13673:13695   */\n      add\n        /* \"#utility.yul\":13642:13705   */\n      tag_279\n      jump\t// in\n    tag_431:\n        /* \"#utility.yul\":13632:13705   */\n      swap2\n      pop\n        /* \"#utility.yul\":13428:13715   */\n      pop\n        /* \"#utility.yul\":13213:13722   */\n      swap3\n      swap2\n      pop\n      pop\n      jump\t// out\n        /* \"#utility.yul\":13728:14057   */\n    tag_38:\n        /* \"#utility.yul\":13787:13793   */\n      0x00\n        /* \"#utility.yul\":13836:13838   */\n      0x20\n        /* \"#utility.yul\":13824:13833   */\n      dup3\n        /* \"#utility.yul\":13815:13822   */\n      dup5\n        /* \"#utility.yul\":13811:13834   */\n      sub\n        /* \"#utility.yul\":13807:13839   */\n      slt\n        /* \"#utility.yul\":13804:13923   */\n      iszero\n      tag_433\n      jumpi\n        /* \"#utility.yul\":13842:13921   */\n      tag_434\n      tag_241\n      jump\t// in\n    tag_434:\n        /* \"#utility.yul\":13804:13923   */\n    tag_433:\n        /* \"#utility.yul\":13962:13963   */\n      0x00\n        /* \"#utility.yul\":13987:14040   */\n      tag_435\n        /* \"#utility.yul\":14032:14039   */\n      dup5\n        /* \"#utility.yul\":14023:14029   */\n      dup3\n        /* \"#utility.yul\":14012:14021   */\n      dup6\n        /* \"#utility.yul\":14008:14030   */\n      add\n        /* \"#utility.yul\":13987:14040   */\n      tag_249\n      jump\t// in\n    tag_435:\n        /* \"#utility.yul\":13977:14040   */\n      swap2\n      pop\n        /* \"#utility.yul\":13933:14050   */\n      pop\n        /* \"#utility.yul\":13728:14057   */\n      swap3\n      swap2\n      pop\n      pop\n      jump\t// out\n        /* \"#utility.yul\":14063:14232   */\n    tag_280:\n        /* \"#utility.yul\":14147:14158   */\n      0x00\n        /* \"#utility.yul\":14181:14187   */\n      dup3\n        /* \"#utility.yul\":14176:14179   */\n      dup3\n        /* \"#utility.yul\":14169:14188   */\n      mstore\n        /* \"#utility.yul\":14221:14225   */\n      0x20\n        /* \"#utility.yul\":14216:14219   */\n      dup3\n        /* \"#utility.yul\":14212:14226   */\n      add\n        /* \"#utility.yul\":14197:14226   */\n      swap1\n      pop\n        /* \"#utility.yul\":14063:14232   */\n      swap3\n      swap2\n      pop\n      pop\n      jump\t// out\n        /* \"#utility.yul\":14238:14410   */\n    tag_281:\n        /* \"#utility.yul\":14378:14402   */\n      0x54686973205477656574204e6f74204578697374202100000000000000000000\n        /* \"#utility.yul\":14374:14375   */\n      0x00\n        /* \"#utility.yul\":14366:14372   */\n      dup3\n        /* \"#utility.yul\":14362:14376   */\n      add\n        /* \"#utility.yul\":14355:14403   */\n      mstore\n        /* \"#utility.yul\":14238:14410   */\n      pop\n      jump\t// out\n        /* \"#utility.yul\":14416:14782   */\n    tag_282:\n        /* \"#utility.yul\":14558:14561   */\n      0x00\n        /* \"#utility.yul\":14579:14646   */\n      tag_439\n        /* \"#utility.yul\":14643:14645   */\n      0x16\n        /* \"#utility.yul\":14638:14641   */\n      dup4\n        /* \"#utility.yul\":14579:14646   */\n      tag_280\n      jump\t// in\n    tag_439:\n        /* \"#utility.yul\":14572:14646   */\n      swap2\n      pop\n        /* \"#utility.yul\":14655:14748   */\n      tag_440\n        /* \"#utility.yul\":14744:14747   */\n      dup3\n        /* \"#utility.yul\":14655:14748   */\n      tag_281\n      jump\t// in\n    tag_440:\n        /* \"#utility.yul\":14773:14775   */\n      0x20\n        /* \"#utility.yul\":14768:14771   */\n      dup3\n        /* \"#utility.yul\":14764:14776   */\n      add\n        /* \"#utility.yul\":14757:14776   */\n      swap1\n      pop\n        /* \"#utility.yul\":14416:14782   */\n      swap2\n      swap1\n      pop\n      jump\t// out\n        /* \"#utility.yul\":14788:15207   */\n    tag_43:\n        /* \"#utility.yul\":14954:14958   */\n      0x00\n        /* \"#utility.yul\":14992:14994   */\n      0x20\n        /* \"#utility.yul\":14981:14990   */\n      dup3\n        /* \"#utility.yul\":14977:14995   */\n      add\n        /* \"#utility.yul\":14969:14995   */\n      swap1\n      pop\n        /* \"#utility.yul\":15041:15050   */\n      dup2\n        /* \"#utility.yul\":15035:15039   */\n      dup2\n        /* \"#utility.yul\":15031:15051   */\n      sub\n        /* \"#utility.yul\":15027:15028   */\n      0x00\n        /* \"#utility.yul\":15016:15025   */\n      dup4\n        /* \"#utility.yul\":15012:15029   */\n      add\n        /* \"#utility.yul\":15005:15052   */\n      mstore\n        /* \"#utility.yul\":15069:15200   */\n      tag_442\n        /* \"#utility.yul\":15195:15199   */\n      dup2\n        /* \"#utility.yul\":15069:15200   */\n      tag_282\n      jump\t// in\n    tag_442:\n        /* \"#utility.yul\":15061:15200   */\n      swap1\n      pop\n        /* \"#utility.yul\":14788:15207   */\n      swap2\n      swap1\n      pop\n      jump\t// out\n        /* \"#utility.yul\":15213:15393   */\n    tag_283:\n        /* \"#utility.yul\":15261:15338   */\n      0x4e487b7100000000000000000000000000000000000000000000000000000000\n        /* \"#utility.yul\":15258:15259   */\n      0x00\n        /* \"#utility.yul\":15251:15339   */\n      mstore\n        /* \"#utility.yul\":15358:15362   */\n      0x11\n        /* \"#utility.yul\":15355:15356   */\n      0x04\n        /* \"#utility.yul\":15348:15363   */\n      mstore\n        /* \"#utility.yul\":15382:15386   */\n      0x24\n        /* \"#utility.yul\":15379:15380   */\n      0x00\n        /* \"#utility.yul\":15372:15387   */\n      revert\n        /* \"#utility.yul\":15399:15593   */\n    tag_47:\n        /* \"#utility.yul\":15439:15443   */\n      0x00\n        /* \"#utility.yul\":15459:15479   */\n      tag_445\n        /* \"#utility.yul\":15477:15478   */\n      dup3\n        /* \"#utility.yul\":15459:15479   */\n      tag_247\n      jump\t// in\n    tag_445:\n        /* \"#utility.yul\":15454:15479   */\n      swap2\n      pop\n        /* \"#utility.yul\":15493:15513   */\n      tag_446\n        /* \"#utility.yul\":15511:15512   */\n      dup4\n        /* \"#utility.yul\":15493:15513   */\n      tag_247\n      jump\t// in\n    tag_446:\n        /* \"#utility.yul\":15488:15513   */\n      swap3\n      pop\n        /* \"#utility.yul\":15537:15538   */\n      dup3\n        /* \"#utility.yul\":15534:15535   */\n      dup3\n        /* \"#utility.yul\":15530:15539   */\n      sub\n        /* \"#utility.yul\":15522:15539   */\n      swap1\n      pop\n        /* \"#utility.yul\":15561:15562   */\n      dup2\n        /* \"#utility.yul\":15555:15559   */\n      dup2\n        /* \"#utility.yul\":15552:15563   */\n      gt\n        /* \"#utility.yul\":15549:15586   */\n      iszero\n      tag_447\n      jumpi\n        /* \"#utility.yul\":15566:15584   */\n      tag_448\n      tag_283\n      jump\t// in\n    tag_448:\n        /* \"#utility.yul\":15549:15586   */\n    tag_447:\n        /* \"#utility.yul\":15399:15593   */\n      swap3\n      swap2\n      pop\n      pop\n      jump\t// out\n        /* \"#utility.yul\":15599:15779   */\n    tag_50:\n        /* \"#utility.yul\":15647:15724   */\n      0x4e487b7100000000000000000000000000000000000000000000000000000000\n        /* \"#utility.yul\":15644:15645   */\n      0x00\n        /* \"#utility.yul\":15637:15725   */\n      mstore\n        /* \"#utility.yul\":15744:15748   */\n      0x32\n        /* \"#utility.yul\":15741:15742   */\n      0x04\n        /* \"#utility.yul\":15734:15749   */\n      mstore\n        /* \"#utility.yul\":15768:15772   */\n      0x24\n        /* \"#utility.yul\":15765:15766   */\n      0x00\n        /* \"#utility.yul\":15758:15773   */\n      revert\n        /* \"#utility.yul\":15785:16018   */\n    tag_62:\n        /* \"#utility.yul\":15824:15827   */\n      0x00\n        /* \"#utility.yul\":15847:15871   */\n      tag_451\n        /* \"#utility.yul\":15865:15870   */\n      dup3\n        /* \"#utility.yul\":15847:15871   */\n      tag_247\n      jump\t// in\n    tag_451:\n        /* \"#utility.yul\":15838:15871   */\n      swap2\n      pop\n        /* \"#utility.yul\":15893:15959   */\n      0xffffffffffffffffffffffffffffffffffffffffffffffffffffffffffffffff\n        /* \"#utility.yul\":15886:15891   */\n      dup3\n        /* \"#utility.yul\":15883:15960   */\n      sub\n        /* \"#utility.yul\":15880:15983   */\n      tag_452\n      jumpi\n        /* \"#utility.yul\":15963:15981   */\n      tag_453\n      tag_283\n      jump\t// in\n    tag_453:\n        /* \"#utility.yul\":15880:15983   */\n    tag_452:\n        /* \"#utility.yul\":16010:16011   */\n      0x01\n        /* \"#utility.yul\":16003:16008   */\n      dup3\n        /* \"#utility.yul\":15999:16012   */\n      add\n        /* \"#utility.yul\":15992:16012   */\n      swap1\n      pop\n        /* \"#utility.yul\":15785:16018   */\n      swap2\n      swap1\n      pop\n      jump\t// out\n        /* \"#utility.yul\":16024:16202   */\n    tag_284:\n        /* \"#utility.yul\":16164:16194   */\n      0x596f7520416c7265616479204c696b6564207468652074776565742100000000\n        /* \"#utility.yul\":16160:16161   */\n      0x00\n        /* \"#utility.yul\":16152:16158   */\n      dup3\n        /* \"#utility.yul\":16148:16162   */\n      add\n        /* \"#utility.yul\":16141:16195   */\n      mstore\n        /* \"#utility.yul\":16024:16202   */\n      pop\n      jump\t// out\n        /* \"#utility.yul\":16208:16574   */\n    tag_285:\n        /* \"#utility.yul\":16350:16353   */\n      0x00\n        /* \"#utility.yul\":16371:16438   */\n      tag_456\n        /* \"#utility.yul\":16435:16437   */\n      0x1c\n        /* \"#utility.yul\":16430:16433   */\n      dup4\n        /* \"#utility.yul\":16371:16438   */\n      tag_280\n      jump\t// in\n    tag_456:\n        /* \"#utility.yul\":16364:16438   */\n      swap2\n      pop\n        /* \"#utility.yul\":16447:16540   */\n      tag_457\n        /* \"#utility.yul\":16536:16539   */\n      dup3\n        /* \"#utility.yul\":16447:16540   */\n      tag_284\n      jump\t// in\n    tag_457:\n        /* \"#utility.yul\":16565:16567   */\n      0x20\n        /* \"#utility.yul\":16560:16563   */\n      dup3\n        /* \"#utility.yul\":16556:16568   */\n      add\n        /* \"#utility.yul\":16549:16568   */\n      swap1\n      pop\n        /* \"#utility.yul\":16208:16574   */\n      swap2\n      swap1\n      pop\n      jump\t// out\n        /* \"#utility.yul\":16580:16999   */\n    tag_65:\n        /* \"#utility.yul\":16746:16750   */\n      0x00\n        /* \"#utility.yul\":16784:16786   */\n      0x20\n        /* \"#utility.yul\":16773:16782   */\n      dup3\n        /* \"#utility.yul\":16769:16787   */\n      add\n        /* \"#utility.yul\":16761:16787   */\n      swap1\n      pop\n        /* \"#utility.yul\":16833:16842   */\n      dup2\n        /* \"#utility.yul\":16827:16831   */\n      dup2\n        /* \"#utility.yul\":16823:16843   */\n      sub\n        /* \"#utility.yul\":16819:16820   */\n      0x00\n        /* \"#utility.yul\":16808:16817   */\n      dup4\n        /* \"#utility.yul\":16804:16821   */\n      add\n        /* \"#utility.yul\":16797:16844   */\n      mstore\n        /* \"#utility.yul\":16861:16992   */\n      tag_459\n        /* \"#utility.yul\":16987:16991   */\n      dup2\n        /* \"#utility.yul\":16861:16992   */\n      tag_285\n      jump\t// in\n    tag_459:\n        /* \"#utility.yul\":16853:16992   */\n      swap1\n      pop\n        /* \"#utility.yul\":16580:16999   */\n      swap2\n      swap1\n      pop\n      jump\t// out\n        /* \"#utility.yul\":17005:17185   */\n    tag_286:\n        /* \"#utility.yul\":17145:17177   */\n      0x596f7520416c726561647920556e4c696b656420746865207477656574210000\n        /* \"#utility.yul\":17141:17142   */\n      0x00\n        /* \"#utility.yul\":17133:17139   */\n      dup3\n        /* \"#utility.yul\":17129:17143   */\n      add\n        /* \"#utility.yul\":17122:17178   */\n      mstore\n        /* \"#utility.yul\":17005:17185   */\n      pop\n      jump\t// out\n        /* \"#utility.yul\":17191:17557   */\n    tag_287:\n        /* \"#utility.yul\":17333:17336   */\n      0x00\n        /* \"#utility.yul\":17354:17421   */\n      tag_462\n        /* \"#utility.yul\":17418:17420   */\n      0x1e\n        /* \"#utility.yul\":17413:17416   */\n      dup4\n        /* \"#utility.yul\":17354:17421   */\n      tag_280\n      jump\t// in\n    tag_462:\n        /* \"#utility.yul\":17347:17421   */\n      swap2\n      pop\n        /* \"#utility.yul\":17430:17523   */\n      tag_463\n        /* \"#utility.yul\":17519:17522   */\n      dup3\n        /* \"#utility.yul\":17430:17523   */\n      tag_286\n      jump\t// in\n    tag_463:\n        /* \"#utility.yul\":17548:17550   */\n      0x20\n        /* \"#utility.yul\":17543:17546   */\n      dup3\n        /* \"#utility.yul\":17539:17551   */\n      add\n        /* \"#utility.yul\":17532:17551   */\n      swap1\n      pop\n        /* \"#utility.yul\":17191:17557   */\n      swap2\n      swap1\n      pop\n      jump\t// out\n        /* \"#utility.yul\":17563:17982   */\n    tag_86:\n        /* \"#utility.yul\":17729:17733   */\n      0x00\n        /* \"#utility.yul\":17767:17769   */\n      0x20\n        /* \"#utility.yul\":17756:17765   */\n      dup3\n        /* \"#utility.yul\":17752:17770   */\n      add\n        /* \"#utility.yul\":17744:17770   */\n      swap1\n      pop\n        /* \"#utility.yul\":17816:17825   */\n      dup2\n        /* \"#utility.yul\":17810:17814   */\n      dup2\n        /* \"#utility.yul\":17806:17826   */\n      sub\n        /* \"#utility.yul\":17802:17803   */\n      0x00\n        /* \"#utility.yul\":17791:17800   */\n      dup4\n        /* \"#utility.yul\":17787:17804   */\n      add\n        /* \"#utility.yul\":17780:17827   */\n      mstore\n        /* \"#utility.yul\":17844:17975   */\n      tag_465\n        /* \"#utility.yul\":17970:17974   */\n      dup2\n        /* \"#utility.yul\":17844:17975   */\n      tag_287\n      jump\t// in\n    tag_465:\n        /* \"#utility.yul\":17836:17975   */\n      swap1\n      pop\n        /* \"#utility.yul\":17563:17982   */\n      swap2\n      swap1\n      pop\n      jump\t// out\n        /* \"#utility.yul\":17988:18221   */\n    tag_288:\n        /* \"#utility.yul\":18128:18162   */\n      0x5468697320697320596f757220547765657421596f752063616e6e2774204c69\n        /* \"#utility.yul\":18124:18125   */\n      0x00\n        /* \"#utility.yul\":18116:18122   */\n      dup3\n        /* \"#utility.yul\":18112:18126   */\n      add\n        /* \"#utility.yul\":18105:18163   */\n      mstore\n        /* \"#utility.yul\":18197:18213   */\n      0x6b6520596f757220547765657421000000000000000000000000000000000000\n        /* \"#utility.yul\":18192:18194   */\n      0x20\n        /* \"#utility.yul\":18184:18190   */\n      dup3\n        /* \"#utility.yul\":18180:18195   */\n      add\n        /* \"#utility.yul\":18173:18214   */\n      mstore\n        /* \"#utility.yul\":17988:18221   */\n      pop\n      jump\t// out\n        /* \"#utility.yul\":18227:18593   */\n    tag_289:\n        /* \"#utility.yul\":18369:18372   */\n      0x00\n        /* \"#utility.yul\":18390:18457   */\n      tag_468\n        /* \"#utility.yul\":18454:18456   */\n      0x2e\n        /* \"#utility.yul\":18449:18452   */\n      dup4\n        /* \"#utility.yul\":18390:18457   */\n      tag_280\n      jump\t// in\n    tag_468:\n        /* \"#utility.yul\":18383:18457   */\n      swap2\n      pop\n        /* \"#utility.yul\":18466:18559   */\n      tag_469\n        /* \"#utility.yul\":18555:18558   */\n      dup3\n        /* \"#utility.yul\":18466:18559   */\n      tag_288\n      jump\t// in\n    tag_469:\n        /* \"#utility.yul\":18584:18586   */\n      0x40\n        /* \"#utility.yul\":18579:18582   */\n      dup3\n        /* \"#utility.yul\":18575:18587   */\n      add\n        /* \"#utility.yul\":18568:18587   */\n      swap1\n      pop\n        /* \"#utility.yul\":18227:18593   */\n      swap2\n      swap1\n      pop\n      jump\t// out\n        /* \"#utility.yul\":18599:19018   */\n    tag_90:\n        /* \"#utility.yul\":18765:18769   */\n      0x00\n        /* \"#utility.yul\":18803:18805   */\n      0x20\n        /* \"#utility.yul\":18792:18801   */\n      dup3\n        /* \"#utility.yul\":18788:18806   */\n      add\n        /* \"#utility.yul\":18780:18806   */\n      swap1\n      pop\n        /* \"#utility.yul\":18852:18861   */\n      dup2\n        /* \"#utility.yul\":18846:18850   */\n      dup2\n        /* \"#utility.yul\":18842:18862   */\n      sub\n        /* \"#utility.yul\":18838:18839   */\n      0x00\n        /* \"#utility.yul\":18827:18836   */\n      dup4\n        /* \"#utility.yul\":18823:18840   */\n      add\n        /* \"#utility.yul\":18816:18863   */\n      mstore\n        /* \"#utility.yul\":18880:19011   */\n      tag_471\n        /* \"#utility.yul\":19006:19010   */\n      dup2\n        /* \"#utility.yul\":18880:19011   */\n      tag_289\n      jump\t// in\n    tag_471:\n        /* \"#utility.yul\":18872:19011   */\n      swap1\n      pop\n        /* \"#utility.yul\":18599:19018   */\n      swap2\n      swap1\n      pop\n      jump\t// out\n        /* \"#utility.yul\":19024:19204   */\n    tag_290:\n        /* \"#utility.yul\":19072:19149   */\n      0x4e487b7100000000000000000000000000000000000000000000000000000000\n        /* \"#utility.yul\":19069:19070   */\n      0x00\n        /* \"#utility.yul\":19062:19150   */\n      mstore\n        /* \"#utility.yul\":19169:19173   */\n      0x22\n        /* \"#utility.yul\":19166:19167   */\n      0x04\n        /* \"#utility.yul\":19159:19174   */\n      mstore\n        /* \"#utility.yul\":19193:19197   */\n      0x24\n        /* \"#utility.yul\":19190:19191   */\n      0x00\n        /* \"#utility.yul\":19183:19198   */\n      revert\n        /* \"#utility.yul\":19210:19530   */\n    tag_109:\n        /* \"#utility.yul\":19254:19260   */\n      0x00\n        /* \"#utility.yul\":19291:19292   */\n      0x02\n        /* \"#utility.yul\":19285:19289   */\n      dup3\n        /* \"#utility.yul\":19281:19293   */\n      div\n        /* \"#utility.yul\":19271:19293   */\n      swap1\n      pop\n        /* \"#utility.yul\":19338:19339   */\n      0x01\n        /* \"#utility.yul\":19332:19336   */\n      dup3\n        /* \"#utility.yul\":19328:19340   */\n      and\n        /* \"#utility.yul\":19359:19377   */\n      dup1\n        /* \"#utility.yul\":19349:19430   */\n      tag_474\n      jumpi\n        /* \"#utility.yul\":19415:19419   */\n      0x7f\n        /* \"#utility.yul\":19407:19413   */\n      dup3\n        /* \"#utility.yul\":19403:19420   */\n      and\n        /* \"#utility.yul\":19393:19420   */\n      swap2\n      pop\n        /* \"#utility.yul\":19349:19430   */\n    tag_474:\n        /* \"#utility.yul\":19477:19479   */\n      0x20\n        /* \"#utility.yul\":19469:19475   */\n      dup3\n        /* \"#utility.yul\":19466:19480   */\n      lt\n        /* \"#utility.yul\":19446:19464   */\n      dup2\n        /* \"#utility.yul\":19443:19481   */\n      sub\n        /* \"#utility.yul\":19440:19524   */\n      tag_475\n      jumpi\n        /* \"#utility.yul\":19496:19514   */\n      tag_476\n      tag_290\n      jump\t// in\n    tag_476:\n        /* \"#utility.yul\":19440:19524   */\n    tag_475:\n        /* \"#utility.yul\":19261:19530   */\n      pop\n        /* \"#utility.yul\":19210:19530   */\n      swap2\n      swap1\n      pop\n      jump\t// out\n        /* \"#utility.yul\":19536:19716   */\n    tag_134:\n        /* \"#utility.yul\":19584:19661   */\n      0x4e487b7100000000000000000000000000000000000000000000000000000000\n        /* \"#utility.yul\":19581:19582   */\n      0x00\n        /* \"#utility.yul\":19574:19662   */\n      mstore\n        /* \"#utility.yul\":19681:19685   */\n      0x31\n        /* \"#utility.yul\":19678:19679   */\n      0x04\n        /* \"#utility.yul\":19671:19686   */\n      mstore\n        /* \"#utility.yul\":19705:19709   */\n      0x24\n        /* \"#utility.yul\":19702:19703   */\n      0x00\n        /* \"#utility.yul\":19695:19710   */\n      revert\n        /* \"#utility.yul\":19722:19895   */\n    tag_291:\n        /* \"#utility.yul\":19862:19887   */\n      0x5477656574204c656e6774682069732045786365656421000000000000000000\n        /* \"#utility.yul\":19858:19859   */\n      0x00\n        /* \"#utility.yul\":19850:19856   */\n      dup3\n        /* \"#utility.yul\":19846:19860   */\n      add\n        /* \"#utility.yul\":19839:19888   */\n      mstore\n        /* \"#utility.yul\":19722:19895   */\n      pop\n      jump\t// out\n        /* \"#utility.yul\":19901:20267   */\n    tag_292:\n        /* \"#utility.yul\":20043:20046   */\n      0x00\n        /* \"#utility.yul\":20064:20131   */\n      tag_480\n        /* \"#utility.yul\":20128:20130   */\n      0x17\n        /* \"#utility.yul\":20123:20126   */\n      dup4\n        /* \"#utility.yul\":20064:20131   */\n      tag_280\n      jump\t// in\n    tag_480:\n        /* \"#utility.yul\":20057:20131   */\n      swap2\n      pop\n        /* \"#utility.yul\":20140:20233   */\n      tag_481\n        /* \"#utility.yul\":20229:20232   */\n      dup3\n        /* \"#utility.yul\":20140:20233   */\n      tag_291\n      jump\t// in\n    tag_481:\n        /* \"#utility.yul\":20258:20260   */\n      0x20\n        /* \"#utility.yul\":20253:20256   */\n      dup3\n        /* \"#utility.yul\":20249:20261   */\n      add\n        /* \"#utility.yul\":20242:20261   */\n      swap1\n      pop\n        /* \"#utility.yul\":19901:20267   */\n      swap2\n      swap1\n      pop\n      jump\t// out\n        /* \"#utility.yul\":20273:20692   */\n    tag_147:\n        /* \"#utility.yul\":20439:20443   */\n      0x00\n        /* \"#utility.yul\":20477:20479   */\n      0x20\n        /* \"#utility.yul\":20466:20475   */\n      dup3\n        /* \"#utility.yul\":20462:20480   */\n      add\n        /* \"#utility.yul\":20454:20480   */\n      swap1\n      pop\n        /* \"#utility.yul\":20526:20535   */\n      dup2\n        /* \"#utility.yul\":20520:20524   */\n      dup2\n        /* \"#utility.yul\":20516:20536   */\n      sub\n        /* \"#utility.yul\":20512:20513   */\n      0x00\n        /* \"#utility.yul\":20501:20510   */\n      dup4\n        /* \"#utility.yul\":20497:20514   */\n      add\n        /* \"#utility.yul\":20490:20537   */\n      mstore\n        /* \"#utility.yul\":20554:20685   */\n      tag_483\n        /* \"#utility.yul\":20680:20684   */\n      dup2\n        /* \"#utility.yul\":20554:20685   */\n      tag_292\n      jump\t// in\n    tag_483:\n        /* \"#utility.yul\":20546:20685   */\n      swap1\n      pop\n        /* \"#utility.yul\":20273:20692   */\n      swap2\n      swap1\n      pop\n      jump\t// out\n        /* \"#utility.yul\":20698:20889   */\n    tag_149:\n        /* \"#utility.yul\":20738:20741   */\n      0x00\n        /* \"#utility.yul\":20757:20777   */\n      tag_485\n        /* \"#utility.yul\":20775:20776   */\n      dup3\n        /* \"#utility.yul\":20757:20777   */\n      tag_247\n      jump\t// in\n    tag_485:\n        /* \"#utility.yul\":20752:20777   */\n      swap2\n      pop\n        /* \"#utility.yul\":20791:20811   */\n      tag_486\n        /* \"#utility.yul\":20809:20810   */\n      dup4\n        /* \"#utility.yul\":20791:20811   */\n      tag_247\n      jump\t// in\n    tag_486:\n        /* \"#utility.yul\":20786:20811   */\n      swap3\n      pop\n        /* \"#utility.yul\":20834:20835   */\n      dup3\n        /* \"#utility.yul\":20831:20832   */\n      dup3\n        /* \"#utility.yul\":20827:20836   */\n      add\n        /* \"#utility.yul\":20820:20836   */\n      swap1\n      pop\n        /* \"#utility.yul\":20855:20858   */\n      dup1\n        /* \"#utility.yul\":20852:20853   */\n      dup3\n        /* \"#utility.yul\":20849:20859   */\n      gt\n        /* \"#utility.yul\":20846:20882   */\n      iszero\n      tag_487\n      jumpi\n        /* \"#utility.yul\":20862:20880   */\n      tag_488\n      tag_283\n      jump\t// in\n    tag_488:\n        /* \"#utility.yul\":20846:20882   */\n    tag_487:\n        /* \"#utility.yul\":20698:20889   */\n      swap3\n      swap2\n      pop\n      pop\n      jump\t// out\n        /* \"#utility.yul\":20895:21036   */\n    tag_293:\n        /* \"#utility.yul\":20944:20948   */\n      0x00\n        /* \"#utility.yul\":20967:20970   */\n      dup2\n        /* \"#utility.yul\":20959:20970   */\n      swap1\n      pop\n        /* \"#utility.yul\":20990:20993   */\n      dup2\n        /* \"#utility.yul\":20987:20988   */\n      0x00\n        /* \"#utility.yul\":20980:20994   */\n      mstore\n        /* \"#utility.yul\":21024:21028   */\n      0x20\n        /* \"#utility.yul\":21021:21022   */\n      0x00\n        /* \"#utility.yul\":21011:21029   */\n      keccak256\n        /* \"#utility.yul\":21003:21029   */\n      swap1\n      pop\n        /* \"#utility.yul\":20895:21036   */\n      swap2\n      swap1\n      pop\n      jump\t// out\n        /* \"#utility.yul\":21042:21135   */\n    tag_294:\n        /* \"#utility.yul\":21079:21085   */\n      0x00\n        /* \"#utility.yul\":21126:21128   */\n      0x20\n        /* \"#utility.yul\":21121:21123   */\n      0x1f\n        /* \"#utility.yul\":21114:21119   */\n      dup4\n        /* \"#utility.yul\":21110:21124   */\n      add\n        /* \"#utility.yul\":21106:21129   */\n      div\n        /* \"#utility.yul\":21096:21129   */\n      swap1\n      pop\n        /* \"#utility.yul\":21042:21135   */\n      swap2\n      swap1\n      pop\n      jump\t// out\n        /* \"#utility.yul\":21141:21248   */\n    tag_295:\n        /* \"#utility.yul\":21185:21193   */\n      0x00\n        /* \"#utility.yul\":21235:21240   */\n      dup3\n        /* \"#utility.yul\":21229:21233   */\n      dup3\n        /* \"#utility.yul\":21225:21241   */\n      shl\n        /* \"#utility.yul\":21204:21241   */\n      swap1\n      pop\n        /* \"#utility.yul\":21141:21248   */\n      swap3\n      swap2\n      pop\n      pop\n      jump\t// out\n        /* \"#utility.yul\":21254:21647   */\n    tag_296:\n        /* \"#utility.yul\":21323:21329   */\n      0x00\n        /* \"#utility.yul\":21373:21374   */\n      0x08\n        /* \"#utility.yul\":21361:21371   */\n      dup4\n        /* \"#utility.yul\":21357:21375   */\n      mul\n        /* \"#utility.yul\":21396:21493   */\n      tag_493\n        /* \"#utility.yul\":21426:21492   */\n      0xffffffffffffffffffffffffffffffffffffffffffffffffffffffffffffffff\n        /* \"#utility.yul\":21415:21424   */\n      dup3\n        /* \"#utility.yul\":21396:21493   */\n      tag_295\n      jump\t// in\n    tag_493:\n        /* \"#utility.yul\":21514:21553   */\n      tag_494\n        /* \"#utility.yul\":21544:21552   */\n      dup7\n        /* \"#utility.yul\":21533:21542   */\n      dup4\n        /* \"#utility.yul\":21514:21553   */\n      tag_295\n      jump\t// in\n    tag_494:\n        /* \"#utility.yul\":21502:21553   */\n      swap6\n      pop\n        /* \"#utility.yul\":21586:21590   */\n      dup1\n        /* \"#utility.yul\":21582:21591   */\n      not\n        /* \"#utility.yul\":21575:21580   */\n      dup5\n        /* \"#utility.yul\":21571:21592   */\n      and\n        /* \"#utility.yul\":21562:21592   */\n      swap4\n      pop\n        /* \"#utility.yul\":21635:21639   */\n      dup1\n        /* \"#utility.yul\":21625:21633   */\n      dup7\n        /* \"#utility.yul\":21621:21640   */\n      and\n        /* \"#utility.yul\":21614:21619   */\n      dup5\n        /* \"#utility.yul\":21611:21641   */\n      or\n        /* \"#utility.yul\":21601:21641   */\n      swap3\n      pop\n        /* \"#utility.yul\":21330:21647   */\n      pop\n      pop\n        /* \"#utility.yul\":21254:21647   */\n      swap4\n      swap3\n      pop\n      pop\n      pop\n      jump\t// out\n        /* \"#utility.yul\":21653:21713   */\n    tag_297:\n        /* \"#utility.yul\":21681:21684   */\n      0x00\n        /* \"#utility.yul\":21702:21707   */\n      dup2\n        /* \"#utility.yul\":21695:21707   */\n      swap1\n      pop\n        /* \"#utility.yul\":21653:21713   */\n      swap2\n      swap1\n      pop\n      jump\t// out\n        /* \"#utility.yul\":21719:21861   */\n    tag_298:\n        /* \"#utility.yul\":21769:21778   */\n      0x00\n        /* \"#utility.yul\":21802:21855   */\n      tag_497\n        /* \"#utility.yul\":21820:21854   */\n      tag_498\n        /* \"#utility.yul\":21829:21853   */\n      tag_499\n        /* \"#utility.yul\":21847:21852   */\n      dup5\n        /* \"#utility.yul\":21829:21853   */\n      tag_247\n      jump\t// in\n    tag_499:\n        /* \"#utility.yul\":21820:21854   */\n      tag_297\n      jump\t// in\n    tag_498:\n        /* \"#utility.yul\":21802:21855   */\n      tag_247\n      jump\t// in\n    tag_497:\n        /* \"#utility.yul\":21789:21855   */\n      swap1\n      pop\n        /* \"#utility.yul\":21719:21861   */\n      swap2\n      swap1\n      pop\n      jump\t// out\n        /* \"#utility.yul\":21867:21942   */\n    tag_299:\n        /* \"#utility.yul\":21910:21913   */\n      0x00\n        /* \"#utility.yul\":21931:21936   */\n      dup2\n        /* \"#utility.yul\":21924:21936   */\n      swap1\n      pop\n        /* \"#utility.yul\":21867:21942   */\n      swap2\n      swap1\n      pop\n      jump\t// out\n        /* \"#utility.yul\":21948:22217   */\n    tag_300:\n        /* \"#utility.yul\":22058:22097   */\n      tag_502\n        /* \"#utility.yul\":22089:22096   */\n      dup4\n        /* \"#utility.yul\":22058:22097   */\n      tag_298\n      jump\t// in\n    tag_502:\n        /* \"#utility.yul\":22119:22210   */\n      tag_503\n        /* \"#utility.yul\":22168:22209   */\n      tag_504\n        /* \"#utility.yul\":22192:22208   */\n      dup3\n        /* \"#utility.yul\":22168:22209   */\n      tag_299\n      jump\t// in\n    tag_504:\n        /* \"#utility.yul\":22160:22166   */\n      dup5\n        /* \"#utility.yul\":22153:22157   */\n      dup5\n        /* \"#utility.yul\":22147:22158   */\n      sload\n        /* \"#utility.yul\":22119:22210   */\n      tag_296\n      jump\t// in\n    tag_503:\n        /* \"#utility.yul\":22113:22117   */\n      dup3\n        /* \"#utility.yul\":22106:22211   */\n      sstore\n        /* \"#utility.yul\":22024:22217   */\n      pop\n        /* \"#utility.yul\":21948:22217   */\n      pop\n      pop\n      pop\n      jump\t// out\n        /* \"#utility.yul\":22223:22296   */\n    tag_301:\n        /* \"#utility.yul\":22268:22271   */\n      0x00\n        /* \"#utility.yul\":22223:22296   */\n      swap1\n      jump\t// out\n        /* \"#utility.yul\":22302:22491   */\n    tag_302:\n        /* \"#utility.yul\":22379:22411   */\n      tag_507\n      tag_301\n      jump\t// in\n    tag_507:\n        /* \"#utility.yul\":22420:22485   */\n      tag_508\n        /* \"#utility.yul\":22478:22484   */\n      dup2\n        /* \"#utility.yul\":22470:22476   */\n      dup5\n        /* \"#utility.yul\":22464:22468   */\n      dup5\n        /* \"#utility.yul\":22420:22485   */\n      tag_300\n      jump\t// in\n    tag_508:\n        /* \"#utility.yul\":22355:22491   */\n      pop\n        /* \"#utility.yul\":22302:22491   */\n      pop\n      pop\n      jump\t// out\n        /* \"#utility.yul\":22497:22683   */\n    tag_303:\n        /* \"#utility.yul\":22557:22677   */\n    tag_510:\n        /* \"#utility.yul\":22574:22577   */\n      dup2\n        /* \"#utility.yul\":22567:22572   */\n      dup2\n        /* \"#utility.yul\":22564:22578   */\n      lt\n        /* \"#utility.yul\":22557:22677   */\n      iszero\n      tag_512\n      jumpi\n        /* \"#utility.yul\":22628:22667   */\n      tag_513\n        /* \"#utility.yul\":22665:22666   */\n      0x00\n        /* \"#utility.yul\":22658:22663   */\n      dup3\n        /* \"#utility.yul\":22628:22667   */\n      tag_302\n      jump\t// in\n    tag_513:\n        /* \"#utility.yul\":22601:22602   */\n      0x01\n        /* \"#utility.yul\":22594:22599   */\n      dup2\n        /* \"#utility.yul\":22590:22603   */\n      add\n        /* \"#utility.yul\":22581:22603   */\n      swap1\n      pop\n        /* \"#utility.yul\":22557:22677   */\n      jump(tag_510)\n    tag_512:\n        /* \"#utility.yul\":22497:22683   */\n      pop\n      pop\n      jump\t// out\n        /* \"#utility.yul\":22689:23232   */\n    tag_304:\n        /* \"#utility.yul\":22790:22792   */\n      0x1f\n        /* \"#utility.yul\":22785:22788   */\n      dup3\n        /* \"#utility.yul\":22782:22793   */\n      gt\n        /* \"#utility.yul\":22779:23225   */\n      iszero\n      tag_515\n      jumpi\n        /* \"#utility.yul\":22824:22862   */\n      tag_516\n        /* \"#utility.yul\":22856:22861   */\n      dup2\n        /* \"#utility.yul\":22824:22862   */\n      tag_293\n      jump\t// in\n    tag_516:\n        /* \"#utility.yul\":22908:22937   */\n      tag_517\n        /* \"#utility.yul\":22926:22936   */\n      dup5\n        /* \"#utility.yul\":22908:22937   */\n      tag_294\n      jump\t// in\n    tag_517:\n        /* \"#utility.yul\":22898:22906   */\n      dup2\n        /* \"#utility.yul\":22894:22938   */\n      add\n        /* \"#utility.yul\":23091:23093   */\n      0x20\n        /* \"#utility.yul\":23079:23089   */\n      dup6\n        /* \"#utility.yul\":23076:23094   */\n      lt\n        /* \"#utility.yul\":23073:23122   */\n      iszero\n      tag_518\n      jumpi\n        /* \"#utility.yul\":23112:23120   */\n      dup2\n        /* \"#utility.yul\":23097:23120   */\n      swap1\n      pop\n        /* \"#utility.yul\":23073:23122   */\n    tag_518:\n        /* \"#utility.yul\":23135:23215   */\n      tag_519\n        /* \"#utility.yul\":23191:23213   */\n      tag_520\n        /* \"#utility.yul\":23209:23212   */\n      dup6\n        /* \"#utility.yul\":23191:23213   */\n      tag_294\n      jump\t// in\n    tag_520:\n        /* \"#utility.yul\":23181:23189   */\n      dup4\n        /* \"#utility.yul\":23177:23214   */\n      add\n        /* \"#utility.yul\":23164:23175   */\n      dup3\n        /* \"#utility.yul\":23135:23215   */\n      tag_303\n      jump\t// in\n    tag_519:\n        /* \"#utility.yul\":22794:23225   */\n      pop\n      pop\n        /* \"#utility.yul\":22779:23225   */\n    tag_515:\n        /* \"#utility.yul\":22689:23232   */\n      pop\n      pop\n      pop\n      jump\t// out\n        /* \"#utility.yul\":23238:23355   */\n    tag_305:\n        /* \"#utility.yul\":23292:23300   */\n      0x00\n        /* \"#utility.yul\":23342:23347   */\n      dup3\n        /* \"#utility.yul\":23336:23340   */\n      dup3\n        /* \"#utility.yul\":23332:23348   */\n      shr\n        /* \"#utility.yul\":23311:23348   */\n      swap1\n      pop\n        /* \"#utility.yul\":23238:23355   */\n      swap3\n      swap2\n      pop\n      pop\n      jump\t// out\n        /* \"#utility.yul\":23361:23530   */\n    tag_306:\n        /* \"#utility.yul\":23405:23411   */\n      0x00\n        /* \"#utility.yul\":23438:23489   */\n      tag_523\n        /* \"#utility.yul\":23486:23487   */\n      0x00\n        /* \"#utility.yul\":23482:23488   */\n      not\n        /* \"#utility.yul\":23474:23479   */\n      dup5\n        /* \"#utility.yul\":23471:23472   */\n      0x08\n        /* \"#utility.yul\":23467:23480   */\n      mul\n        /* \"#utility.yul\":23438:23489   */\n      tag_305\n      jump\t// in\n    tag_523:\n        /* \"#utility.yul\":23434:23490   */\n      not\n        /* \"#utility.yul\":23519:23523   */\n      dup1\n        /* \"#utility.yul\":23513:23517   */\n      dup4\n        /* \"#utility.yul\":23509:23524   */\n      and\n        /* \"#utility.yul\":23499:23524   */\n      swap2\n      pop\n        /* \"#utility.yul\":23412:23530   */\n      pop\n        /* \"#utility.yul\":23361:23530   */\n      swap3\n      swap2\n      pop\n      pop\n      jump\t// out\n        /* \"#utility.yul\":23535:23830   */\n    tag_307:\n        /* \"#utility.yul\":23611:23615   */\n      0x00\n        /* \"#utility.yul\":23757:23786   */\n      tag_525\n        /* \"#utility.yul\":23782:23785   */\n      dup4\n        /* \"#utility.yul\":23776:23780   */\n      dup4\n        /* \"#utility.yul\":23757:23786   */\n      tag_306\n      jump\t// in\n    tag_525:\n        /* \"#utility.yul\":23749:23786   */\n      swap2\n      pop\n        /* \"#utility.yul\":23819:23822   */\n      dup3\n        /* \"#utility.yul\":23816:23817   */\n      0x02\n        /* \"#utility.yul\":23812:23823   */\n      mul\n        /* \"#utility.yul\":23806:23810   */\n      dup3\n        /* \"#utility.yul\":23803:23824   */\n      or\n        /* \"#utility.yul\":23795:23824   */\n      swap1\n      pop\n        /* \"#utility.yul\":23535:23830   */\n      swap3\n      swap2\n      pop\n      pop\n      jump\t// out\n        /* \"#utility.yul\":23835:25230   */\n    tag_156:\n        /* \"#utility.yul\":23952:23989   */\n      tag_527\n        /* \"#utility.yul\":23985:23988   */\n      dup3\n        /* \"#utility.yul\":23952:23989   */\n      tag_251\n      jump\t// in\n    tag_527:\n        /* \"#utility.yul\":24054:24072   */\n      0xffffffffffffffff\n        /* \"#utility.yul\":24046:24052   */\n      dup2\n        /* \"#utility.yul\":24043:24073   */\n      gt\n        /* \"#utility.yul\":24040:24096   */\n      iszero\n      tag_528\n      jumpi\n        /* \"#utility.yul\":24076:24094   */\n      tag_529\n      tag_273\n      jump\t// in\n    tag_529:\n        /* \"#utility.yul\":24040:24096   */\n    tag_528:\n        /* \"#utility.yul\":24120:24158   */\n      tag_530\n        /* \"#utility.yul\":24152:24156   */\n      dup3\n        /* \"#utility.yul\":24146:24157   */\n      sload\n        /* \"#utility.yul\":24120:24158   */\n      tag_109\n      jump\t// in\n    tag_530:\n        /* \"#utility.yul\":24205:24272   */\n      tag_531\n        /* \"#utility.yul\":24265:24271   */\n      dup3\n        /* \"#utility.yul\":24257:24263   */\n      dup3\n        /* \"#utility.yul\":24251:24255   */\n      dup6\n        /* \"#utility.yul\":24205:24272   */\n      tag_304\n      jump\t// in\n    tag_531:\n        /* \"#utility.yul\":24299:24300   */\n      0x00\n        /* \"#utility.yul\":24323:24327   */\n      0x20\n        /* \"#utility.yul\":24310:24327   */\n      swap1\n      pop\n        /* \"#utility.yul\":24355:24357   */\n      0x1f\n        /* \"#utility.yul\":24347:24353   */\n      dup4\n        /* \"#utility.yul\":24344:24358   */\n      gt\n        /* \"#utility.yul\":24372:24373   */\n      0x01\n        /* \"#utility.yul\":24367:24985   */\n      dup2\n      eq\n      tag_533\n      jumpi\n        /* \"#utility.yul\":25029:25030   */\n      0x00\n        /* \"#utility.yul\":25046:25052   */\n      dup5\n        /* \"#utility.yul\":25043:25120   */\n      iszero\n      tag_534\n      jumpi\n        /* \"#utility.yul\":25095:25104   */\n      dup3\n        /* \"#utility.yul\":25090:25093   */\n      dup8\n        /* \"#utility.yul\":25086:25105   */\n      add\n        /* \"#utility.yul\":25080:25106   */\n      mload\n        /* \"#utility.yul\":25071:25106   */\n      swap1\n      pop\n        /* \"#utility.yul\":25043:25120   */\n    tag_534:\n        /* \"#utility.yul\":25146:25213   */\n      tag_535\n        /* \"#utility.yul\":25206:25212   */\n      dup6\n        /* \"#utility.yul\":25199:25204   */\n      dup3\n        /* \"#utility.yul\":25146:25213   */\n      tag_307\n      jump\t// in\n    tag_535:\n        /* \"#utility.yul\":25140:25144   */\n      dup7\n        /* \"#utility.yul\":25133:25214   */\n      sstore\n        /* \"#utility.yul\":25002:25224   */\n      pop\n        /* \"#utility.yul\":24337:25224   */\n      jump(tag_532)\n        /* \"#utility.yul\":24367:24985   */\n    tag_533:\n        /* \"#utility.yul\":24419:24423   */\n      0x1f\n        /* \"#utility.yul\":24415:24424   */\n      not\n        /* \"#utility.yul\":24407:24413   */\n      dup5\n        /* \"#utility.yul\":24403:24425   */\n      and\n        /* \"#utility.yul\":24453:24490   */\n      tag_536\n        /* \"#utility.yul\":24485:24489   */\n      dup7\n        /* \"#utility.yul\":24453:24490   */\n      tag_293\n      jump\t// in\n    tag_536:\n        /* \"#utility.yul\":24512:24513   */\n      0x00\n        /* \"#utility.yul\":24526:24734   */\n    tag_537:\n        /* \"#utility.yul\":24540:24547   */\n      dup3\n        /* \"#utility.yul\":24537:24538   */\n      dup2\n        /* \"#utility.yul\":24534:24548   */\n      lt\n        /* \"#utility.yul\":24526:24734   */\n      iszero\n      tag_539\n      jumpi\n        /* \"#utility.yul\":24619:24628   */\n      dup5\n        /* \"#utility.yul\":24614:24617   */\n      dup10\n        /* \"#utility.yul\":24610:24629   */\n      add\n        /* \"#utility.yul\":24604:24630   */\n      mload\n        /* \"#utility.yul\":24596:24602   */\n      dup3\n        /* \"#utility.yul\":24589:24631   */\n      sstore\n        /* \"#utility.yul\":24670:24671   */\n      0x01\n        /* \"#utility.yul\":24662:24668   */\n      dup3\n        /* \"#utility.yul\":24658:24672   */\n      add\n        /* \"#utility.yul\":24648:24672   */\n      swap2\n      pop\n        /* \"#utility.yul\":24717:24719   */\n      0x20\n        /* \"#utility.yul\":24706:24715   */\n      dup6\n        /* \"#utility.yul\":24702:24720   */\n      add\n        /* \"#utility.yul\":24689:24720   */\n      swap5\n      pop\n        /* \"#utility.yul\":24563:24567   */\n      0x20\n        /* \"#utility.yul\":24560:24561   */\n      dup2\n        /* \"#utility.yul\":24556:24568   */\n      add\n        /* \"#utility.yul\":24551:24568   */\n      swap1\n      pop\n        /* \"#utility.yul\":24526:24734   */\n      jump(tag_537)\n    tag_539:\n        /* \"#utility.yul\":24762:24768   */\n      dup7\n        /* \"#utility.yul\":24753:24760   */\n      dup4\n        /* \"#utility.yul\":24750:24769   */\n      lt\n        /* \"#utility.yul\":24747:24926   */\n      iszero\n      tag_540\n      jumpi\n        /* \"#utility.yul\":24820:24829   */\n      dup5\n        /* \"#utility.yul\":24815:24818   */\n      dup10\n        /* \"#utility.yul\":24811:24830   */\n      add\n        /* \"#utility.yul\":24805:24831   */\n      mload\n        /* \"#utility.yul\":24863:24911   */\n      tag_541\n        /* \"#utility.yul\":24905:24909   */\n      0x1f\n        /* \"#utility.yul\":24897:24903   */\n      dup10\n        /* \"#utility.yul\":24893:24910   */\n      and\n        /* \"#utility.yul\":24882:24891   */\n      dup3\n        /* \"#utility.yul\":24863:24911   */\n      tag_306\n      jump\t// in\n    tag_541:\n        /* \"#utility.yul\":24855:24861   */\n      dup4\n        /* \"#utility.yul\":24848:24912   */\n      sstore\n        /* \"#utility.yul\":24770:24926   */\n      pop\n        /* \"#utility.yul\":24747:24926   */\n    tag_540:\n        /* \"#utility.yul\":24972:24973   */\n      0x01\n        /* \"#utility.yul\":24968:24969   */\n      0x02\n        /* \"#utility.yul\":24960:24966   */\n      dup9\n        /* \"#utility.yul\":24956:24970   */\n      mul\n        /* \"#utility.yul\":24952:24974   */\n      add\n        /* \"#utility.yul\":24946:24950   */\n      dup9\n        /* \"#utility.yul\":24939:24975   */\n      sstore\n        /* \"#utility.yul\":24374:24985   */\n      pop\n      pop\n      pop\n        /* \"#utility.yul\":24337:25224   */\n    tag_532:\n      pop\n        /* \"#utility.yul\":23927:25230   */\n      pop\n      pop\n      pop\n        /* \"#utility.yul\":23835:25230   */\n      pop\n      pop\n      jump\t// out\n        /* \"#utility.yul\":25236:25461   */\n    tag_308:\n        /* \"#utility.yul\":25376:25410   */\n      0x596f7520617265206e6f742061204f776e6572215065726d697373696f6e2044\n        /* \"#utility.yul\":25372:25373   */\n      0x00\n        /* \"#utility.yul\":25364:25370   */\n      dup3\n        /* \"#utility.yul\":25360:25374   */\n      add\n        /* \"#utility.yul\":25353:25411   */\n      mstore\n        /* \"#utility.yul\":25445:25453   */\n      0x656e696564210000000000000000000000000000000000000000000000000000\n        /* \"#utility.yul\":25440:25442   */\n      0x20\n        /* \"#utility.yul\":25432:25438   */\n      dup3\n        /* \"#utility.yul\":25428:25443   */\n      add\n        /* \"#utility.yul\":25421:25454   */\n      mstore\n        /* \"#utility.yul\":25236:25461   */\n      pop\n      jump\t// out\n        /* \"#utility.yul\":25467:25833   */\n    tag_309:\n        /* \"#utility.yul\":25609:25612   */\n      0x00\n        /* \"#utility.yul\":25630:25697   */\n      tag_544\n        /* \"#utility.yul\":25694:25696   */\n      0x26\n        /* \"#utility.yul\":25689:25692   */\n      dup4\n        /* \"#utility.yul\":25630:25697   */\n      tag_280\n      jump\t// in\n    tag_544:\n        /* \"#utility.yul\":25623:25697   */\n      swap2\n      pop\n        /* \"#utility.yul\":25706:25799   */\n      tag_545\n        /* \"#utility.yul\":25795:25798   */\n      dup3\n        /* \"#utility.yul\":25706:25799   */\n      tag_308\n      jump\t// in\n    tag_545:\n        /* \"#utility.yul\":25824:25826   */\n      0x40\n        /* \"#utility.yul\":25819:25822   */\n      dup3\n        /* \"#utility.yul\":25815:25827   */\n      add\n        /* \"#utility.yul\":25808:25827   */\n      swap1\n      pop\n        /* \"#utility.yul\":25467:25833   */\n      swap2\n      swap1\n      pop\n      jump\t// out\n        /* \"#utility.yul\":25839:26258   */\n    tag_217:\n        /* \"#utility.yul\":26005:26009   */\n      0x00\n        /* \"#utility.yul\":26043:26045   */\n      0x20\n        /* \"#utility.yul\":26032:26041   */\n      dup3\n        /* \"#utility.yul\":26028:26046   */\n      add\n        /* \"#utility.yul\":26020:26046   */\n      swap1\n      pop\n        /* \"#utility.yul\":26092:26101   */\n      dup2\n        /* \"#utility.yul\":26086:26090   */\n      dup2\n        /* \"#utility.yul\":26082:26102   */\n      sub\n        /* \"#utility.yul\":26078:26079   */\n      0x00\n        /* \"#utility.yul\":26067:26076   */\n      dup4\n        /* \"#utility.yul\":26063:26080   */\n      add\n        /* \"#utility.yul\":26056:26103   */\n      mstore\n        /* \"#utility.yul\":26120:26251   */\n      tag_547\n        /* \"#utility.yul\":26246:26250   */\n      dup2\n        /* \"#utility.yul\":26120:26251   */\n      tag_309\n      jump\t// in\n    tag_547:\n        /* \"#utility.yul\":26112:26251   */\n      swap1\n      pop\n        /* \"#utility.yul\":25839:26258   */\n      swap2\n      swap1\n      pop\n      jump\t// out\n\n    auxdata: 0xa2646970667358221220590be674005d4d6458106fd6f6e1f401756fb2588fb4cf4e33d14f7337b3e2a664736f6c63430008120033\n}\n",
				"bytecode": {
					"linkReferences": {},
					"object": "6080604052600a60015534801561001557600080fd5b50336000806101000a81548173ffffffffffffffffffffffffffffffffffffffff021916908373ffffffffffffffffffffffffffffffffffffffff160217905550612840806100656000396000f3fe608060405234801561001057600080fd5b50600436106100885760003560e01c8063765fab451161005b578063765fab45146101015780637c9cd2bc1461010b578063a110e72d14610127578063e479c2441461014357610088565b80631216cdc51461008d57806337f36a4c146100a957806342d7fbc0146100d957806371e7eb12146100f7575b600080fd5b6100a760048036038101906100a29190611b40565b61015f565b005b6100c360048036038101906100be9190611b40565b6107be565b6040516100d09190611d9b565b60405180910390f35b6100e1610a71565b6040516100ee9190611f3d565b60405180910390f35b6100ff610d3a565b005b610109610e1b565b005b61012560048036038101906101209190612094565b610e68565b005b610141600480360381019061013c9190611b40565b61118c565b005b61015d600480360381019061015891906120dd565b6117eb565b005b818180600360008473ffffffffffffffffffffffffffffffffffffffff1673ffffffffffffffffffffffffffffffffffffffff1681526020019081526020016000208054905010156101e6576040517f08c379a00000000000000000000000000000000000000000000000000000000081526004016101dd90612167565b60405180910390fd5b60006001905060005b600360008573ffffffffffffffffffffffffffffffffffffffff1673ffffffffffffffffffffffffffffffffffffffff16815260200190815260200160002060018461023b91906121b6565b8154811061024c5761024b6121ea565b5b906000526020600020906008020160040180549050811015610361573373ffffffffffffffffffffffffffffffffffffffff16600360008673ffffffffffffffffffffffffffffffffffffffff1673ffffffffffffffffffffffffffffffffffffffff1681526020019081526020016000206001856102cb91906121b6565b815481106102dc576102db6121ea565b5b906000526020600020906008020160040182815481106102ff576102fe6121ea565b5b9060005260206000200160009054906101000a900473ffffffffffffffffffffffffffffffffffffffff1673ffffffffffffffffffffffffffffffffffffffff160361034e5760009150610361565b808061035990612219565b9150506101ef565b60011515821515146103a8576040517f08c379a000000000000000000000000000000000000000000000000000000000815260040161039f906122ad565b60405180910390fd5b858580600360008473ffffffffffffffffffffffffffffffffffffffff1673ffffffffffffffffffffffffffffffffffffffff16815260200190815260200160002080549050101561042f576040517f08c379a000000000000000000000000000000000000000000000000000000000815260040161042690612167565b60405180910390fd5b60006001905060005b600360008573ffffffffffffffffffffffffffffffffffffffff1673ffffffffffffffffffffffffffffffffffffffff16815260200190815260200160002060018461048491906121b6565b81548110610495576104946121ea565b5b9060005260206000209060080201600401805490508110156105aa573373ffffffffffffffffffffffffffffffffffffffff16600360008673ffffffffffffffffffffffffffffffffffffffff1673ffffffffffffffffffffffffffffffffffffffff16815260200190815260200160002060018561051491906121b6565b81548110610525576105246121ea565b5b90600052602060002090600802016007018281548110610548576105476121ea565b5b9060005260206000200160009054906101000a900473ffffffffffffffffffffffffffffffffffffffff1673ffffffffffffffffffffffffffffffffffffffff160361059757600091506105aa565b80806105a290612219565b915050610438565b60011515821515146105f1576040517f08c379a00000000000000000000000000000000000000000000000000000000081526004016105e890612319565b60405180910390fd5b3373ffffffffffffffffffffffffffffffffffffffff168a73ffffffffffffffffffffffffffffffffffffffff160361065f576040517f08c379a0000000000000000000000000000000000000000000000000000000008152600401610656906123ab565b60405180910390fd5b600360008b73ffffffffffffffffffffffffffffffffffffffff1673ffffffffffffffffffffffffffffffffffffffff16815260200190815260200160002060018a6106ab91906121b6565b815481106106bc576106bb6121ea565b5b9060005260206000209060080201600401339080600181540180825580915050600190039060005260206000200160009091909190916101000a81548173ffffffffffffffffffffffffffffffffffffffff021916908373ffffffffffffffffffffffffffffffffffffffff160217905550600360008b73ffffffffffffffffffffffffffffffffffffffff1673ffffffffffffffffffffffffffffffffffffffff16815260200190815260200160002060018a61077a91906121b6565b8154811061078b5761078a6121ea565b5b906000526020600020906008020160050160008154809291906107ad90612219565b919050555050505050505050505050565b6107c6611883565b600360008473ffffffffffffffffffffffffffffffffffffffff1673ffffffffffffffffffffffffffffffffffffffff16815260200190815260200160002060018361081291906121b6565b81548110610823576108226121ea565b5b90600052602060002090600802016040518061010001604052908160008201548152602001600182018054610857906123fa565b80601f0160208091040260200160405190810160405280929190818152602001828054610883906123fa565b80156108d05780601f106108a5576101008083540402835291602001916108d0565b820191906000526020600020905b8154815290600101906020018083116108b357829003601f168201915b505050505081526020016002820160009054906101000a900473ffffffffffffffffffffffffffffffffffffffff1673ffffffffffffffffffffffffffffffffffffffff1673ffffffffffffffffffffffffffffffffffffffff16815260200160038201548152602001600482018054806020026020016040519081016040528092919081815260200182805480156109be57602002820191906000526020600020905b8160009054906101000a900473ffffffffffffffffffffffffffffffffffffffff1673ffffffffffffffffffffffffffffffffffffffff1681526020019060010190808311610974575b50505050508152602001600582015481526020016006820154815260200160078201805480602002602001604051908101604052809291908181526020018280548015610a6057602002820191906000526020600020905b8160009054906101000a900473ffffffffffffffffffffffffffffffffffffffff1673ffffffffffffffffffffffffffffffffffffffff1681526020019060010190808311610a16575b505050505081525050905092915050565b6060600360003373ffffffffffffffffffffffffffffffffffffffff1673ffffffffffffffffffffffffffffffffffffffff168152602001908152602001600020805480602002602001604051908101604052809291908181526020016000905b82821015610d3157838290600052602060002090600802016040518061010001604052908160008201548152602001600182018054610b10906123fa565b80601f0160208091040260200160405190810160405280929190818152602001828054610b3c906123fa565b8015610b895780601f10610b5e57610100808354040283529160200191610b89565b820191906000526020600020905b815481529060010190602001808311610b6c57829003601f168201915b505050505081526020016002820160009054906101000a900473ffffffffffffffffffffffffffffffffffffffff1673ffffffffffffffffffffffffffffffffffffffff1673ffffffffffffffffffffffffffffffffffffffff1681526020016003820154815260200160048201805480602002602001604051908101604052809291908181526020018280548015610c7757602002820191906000526020600020905b8160009054906101000a900473ffffffffffffffffffffffffffffffffffffffff1673ffffffffffffffffffffffffffffffffffffffff1681526020019060010190808311610c2d575b50505050508152602001600582015481526020016006820154815260200160078201805480602002602001604051908101604052809291908181526020018280548015610d1957602002820191906000526020600020905b8160009054906101000a900473ffffffffffffffffffffffffffffffffffffffff1673ffffffffffffffffffffffffffffffffffffffff1681526020019060010190808311610ccf575b50505050508152505081526020019060010190610ad2565b50505050905090565b600360003373ffffffffffffffffffffffffffffffffffffffff1673ffffffffffffffffffffffffffffffffffffffff168152602001908152602001600020805480610d8957610d8861242b565b5b6001900381819060005260206000209060080201600080820160009055600182016000610db691906118de565b6002820160006101000a81549073ffffffffffffffffffffffffffffffffffffffff02191690556003820160009055600482016000610df5919061191e565b60058201600090556006820160009055600782016000610e15919061191e565b50509055565b600360003373ffffffffffffffffffffffffffffffffffffffff1673ffffffffffffffffffffffffffffffffffffffff1681526020019081526020016000206000610e66919061193f565b565b60015481511115610eae576040517f08c379a0000000000000000000000000000000000000000000000000000000008152600401610ea5906124a6565b60405180910390fd5b60006040518061010001604052806001600360003373ffffffffffffffffffffffffffffffffffffffff1673ffffffffffffffffffffffffffffffffffffffff16815260200190815260200160002080549050610f0b91906124c6565b81526020018381526020013373ffffffffffffffffffffffffffffffffffffffff1681526020014281526020016002805480602002602001604051908101604052809291908181526020018280548015610fba57602002820191906000526020600020905b8160009054906101000a900473ffffffffffffffffffffffffffffffffffffffff1673ffffffffffffffffffffffffffffffffffffffff1681526020019060010190808311610f70575b505050505081526020016000815260200160008152602001600280548060200260200160405190810160405280929190818152602001828054801561105457602002820191906000526020600020905b8160009054906101000a900473ffffffffffffffffffffffffffffffffffffffff1673ffffffffffffffffffffffffffffffffffffffff168152602001906001019080831161100a575b50505050508152509050600360003373ffffffffffffffffffffffffffffffffffffffff1673ffffffffffffffffffffffffffffffffffffffff1681526020019081526020016000208190806001815401808255809150506001900390600052602060002090600802016000909190919091506000820151816000015560208201518160010190816110e691906126a6565b5060408201518160020160006101000a81548173ffffffffffffffffffffffffffffffffffffffff021916908373ffffffffffffffffffffffffffffffffffffffff160217905550606082015181600301556080820151816004019080519060200190611154929190611963565b5060a0820151816005015560c0820151816006015560e0820151816007019080519060200190611185929190611963565b5050505050565b818180600360008473ffffffffffffffffffffffffffffffffffffffff1673ffffffffffffffffffffffffffffffffffffffff168152602001908152602001600020805490501015611213576040517f08c379a000000000000000000000000000000000000000000000000000000000815260040161120a90612167565b60405180910390fd5b60006001905060005b600360008573ffffffffffffffffffffffffffffffffffffffff1673ffffffffffffffffffffffffffffffffffffffff16815260200190815260200160002060018461126891906121b6565b81548110611279576112786121ea565b5b90600052602060002090600802016004018054905081101561138e573373ffffffffffffffffffffffffffffffffffffffff16600360008673ffffffffffffffffffffffffffffffffffffffff1673ffffffffffffffffffffffffffffffffffffffff1681526020019081526020016000206001856112f891906121b6565b81548110611309576113086121ea565b5b9060005260206000209060080201600401828154811061132c5761132b6121ea565b5b9060005260206000200160009054906101000a900473ffffffffffffffffffffffffffffffffffffffff1673ffffffffffffffffffffffffffffffffffffffff160361137b576000915061138e565b808061138690612219565b91505061121c565b60011515821515146113d5576040517f08c379a00000000000000000000000000000000000000000000000000000000081526004016113cc906122ad565b60405180910390fd5b858580600360008473ffffffffffffffffffffffffffffffffffffffff1673ffffffffffffffffffffffffffffffffffffffff16815260200190815260200160002080549050101561145c576040517f08c379a000000000000000000000000000000000000000000000000000000000815260040161145390612167565b60405180910390fd5b60006001905060005b600360008573ffffffffffffffffffffffffffffffffffffffff1673ffffffffffffffffffffffffffffffffffffffff1681526020019081526020016000206001846114b191906121b6565b815481106114c2576114c16121ea565b5b9060005260206000209060080201600401805490508110156115d7573373ffffffffffffffffffffffffffffffffffffffff16600360008673ffffffffffffffffffffffffffffffffffffffff1673ffffffffffffffffffffffffffffffffffffffff16815260200190815260200160002060018561154191906121b6565b81548110611552576115516121ea565b5b90600052602060002090600802016007018281548110611575576115746121ea565b5b9060005260206000200160009054906101000a900473ffffffffffffffffffffffffffffffffffffffff1673ffffffffffffffffffffffffffffffffffffffff16036115c457600091506115d7565b80806115cf90612219565b915050611465565b600115158215151461161e576040517f08c379a000000000000000000000000000000000000000000000000000000000815260040161161590612319565b60405180910390fd5b3373ffffffffffffffffffffffffffffffffffffffff168a73ffffffffffffffffffffffffffffffffffffffff160361168c576040517f08c379a0000000000000000000000000000000000000000000000000000000008152600401611683906123ab565b60405180910390fd5b600360008b73ffffffffffffffffffffffffffffffffffffffff1673ffffffffffffffffffffffffffffffffffffffff16815260200190815260200160002060018a6116d891906121b6565b815481106116e9576116e86121ea565b5b9060005260206000209060080201600701339080600181540180825580915050600190039060005260206000200160009091909190916101000a81548173ffffffffffffffffffffffffffffffffffffffff021916908373ffffffffffffffffffffffffffffffffffffffff160217905550600360008b73ffffffffffffffffffffffffffffffffffffffff1673ffffffffffffffffffffffffffffffffffffffff16815260200190815260200160002060018a6117a791906121b6565b815481106117b8576117b76121ea565b5b906000526020600020906008020160060160008154809291906117da90612219565b919050555050505050505050505050565b3373ffffffffffffffffffffffffffffffffffffffff1660008054906101000a900473ffffffffffffffffffffffffffffffffffffffff1673ffffffffffffffffffffffffffffffffffffffff1614611879576040517f08c379a0000000000000000000000000000000000000000000000000000000008152600401611870906127ea565b60405180910390fd5b8060018190555050565b6040518061010001604052806000815260200160608152602001600073ffffffffffffffffffffffffffffffffffffffff16815260200160008152602001606081526020016000815260200160008152602001606081525090565b5080546118ea906123fa565b6000825580601f106118fc575061191b565b601f01602090049060005260206000209081019061191a91906119ed565b5b50565b508054600082559060005260206000209081019061193c91906119ed565b50565b50805460008255600802906000526020600020908101906119609190611a0a565b50565b8280548282559060005260206000209081019282156119dc579160200282015b828111156119db5782518260006101000a81548173ffffffffffffffffffffffffffffffffffffffff021916908373ffffffffffffffffffffffffffffffffffffffff16021790555091602001919060010190611983565b5b5090506119e991906119ed565b5090565b5b80821115611a065760008160009055506001016119ee565b5090565b5b80821115611a9457600080820160009055600182016000611a2c91906118de565b6002820160006101000a81549073ffffffffffffffffffffffffffffffffffffffff02191690556003820160009055600482016000611a6b919061191e565b60058201600090556006820160009055600782016000611a8b919061191e565b50600801611a0b565b5090565b6000604051905090565b600080fd5b600080fd5b600073ffffffffffffffffffffffffffffffffffffffff82169050919050565b6000611ad782611aac565b9050919050565b611ae781611acc565b8114611af257600080fd5b50565b600081359050611b0481611ade565b92915050565b6000819050919050565b611b1d81611b0a565b8114611b2857600080fd5b50565b600081359050611b3a81611b14565b92915050565b60008060408385031215611b5757611b56611aa2565b5b6000611b6585828601611af5565b9250506020611b7685828601611b2b565b9150509250929050565b611b8981611b0a565b82525050565b600081519050919050565b600082825260208201905092915050565b60005b83811015611bc9578082015181840152602081019050611bae565b60008484015250505050565b6000601f19601f8301169050919050565b6000611bf182611b8f565b611bfb8185611b9a565b9350611c0b818560208601611bab565b611c1481611bd5565b840191505092915050565b611c2881611acc565b82525050565b600081519050919050565b600082825260208201905092915050565b6000819050602082019050919050565b6000611c668383611c1f565b60208301905092915050565b6000602082019050919050565b6000611c8a82611c2e565b611c948185611c39565b9350611c9f83611c4a565b8060005b83811015611cd0578151611cb78882611c5a565b9750611cc283611c72565b925050600181019050611ca3565b5085935050505092915050565b600061010083016000830151611cf66000860182611b80565b5060208301518482036020860152611d0e8282611be6565b9150506040830151611d236040860182611c1f565b506060830151611d366060860182611b80565b5060808301518482036080860152611d4e8282611c7f565b91505060a0830151611d6360a0860182611b80565b5060c0830151611d7660c0860182611b80565b5060e083015184820360e0860152611d8e8282611c7f565b9150508091505092915050565b60006020820190508181036000830152611db58184611cdd565b905092915050565b600081519050919050565b600082825260208201905092915050565b6000819050602082019050919050565b600061010083016000830151611e026000860182611b80565b5060208301518482036020860152611e1a8282611be6565b9150506040830151611e2f6040860182611c1f565b506060830151611e426060860182611b80565b5060808301518482036080860152611e5a8282611c7f565b91505060a0830151611e6f60a0860182611b80565b5060c0830151611e8260c0860182611b80565b5060e083015184820360e0860152611e9a8282611c7f565b9150508091505092915050565b6000611eb38383611de9565b905092915050565b6000602082019050919050565b6000611ed382611dbd565b611edd8185611dc8565b935083602082028501611eef85611dd9565b8060005b85811015611f2b5784840389528151611f0c8582611ea7565b9450611f1783611ebb565b925060208a01995050600181019050611ef3565b50829750879550505050505092915050565b60006020820190508181036000830152611f578184611ec8565b905092915050565b600080fd5b600080fd5b7f4e487b7100000000000000000000000000000000000000000000000000000000600052604160045260246000fd5b611fa182611bd5565b810181811067ffffffffffffffff82111715611fc057611fbf611f69565b5b80604052505050565b6000611fd3611a98565b9050611fdf8282611f98565b919050565b600067ffffffffffffffff821115611fff57611ffe611f69565b5b61200882611bd5565b9050602081019050919050565b82818337600083830152505050565b600061203761203284611fe4565b611fc9565b90508281526020810184848401111561205357612052611f64565b5b61205e848285612015565b509392505050565b600082601f83011261207b5761207a611f5f565b5b813561208b848260208601612024565b91505092915050565b6000602082840312156120aa576120a9611aa2565b5b600082013567ffffffffffffffff8111156120c8576120c7611aa7565b5b6120d484828501612066565b91505092915050565b6000602082840312156120f3576120f2611aa2565b5b600061210184828501611b2b565b91505092915050565b600082825260208201905092915050565b7f54686973205477656574204e6f74204578697374202100000000000000000000600082015250565b600061215160168361210a565b915061215c8261211b565b602082019050919050565b6000602082019050818103600083015261218081612144565b9050919050565b7f4e487b7100000000000000000000000000000000000000000000000000000000600052601160045260246000fd5b60006121c182611b0a565b91506121cc83611b0a565b92508282039050818111156121e4576121e3612187565b5b92915050565b7f4e487b7100000000000000000000000000000000000000000000000000000000600052603260045260246000fd5b600061222482611b0a565b91507fffffffffffffffffffffffffffffffffffffffffffffffffffffffffffffffff820361225657612255612187565b5b600182019050919050565b7f596f7520416c7265616479204c696b6564207468652074776565742100000000600082015250565b6000612297601c8361210a565b91506122a282612261565b602082019050919050565b600060208201905081810360008301526122c68161228a565b9050919050565b7f596f7520416c726561647920556e4c696b656420746865207477656574210000600082015250565b6000612303601e8361210a565b915061230e826122cd565b602082019050919050565b60006020820190508181036000830152612332816122f6565b9050919050565b7f5468697320697320596f757220547765657421596f752063616e6e2774204c6960008201527f6b6520596f757220547765657421000000000000000000000000000000000000602082015250565b6000612395602e8361210a565b91506123a082612339565b604082019050919050565b600060208201905081810360008301526123c481612388565b9050919050565b7f4e487b7100000000000000000000000000000000000000000000000000000000600052602260045260246000fd5b6000600282049050600182168061241257607f821691505b602082108103612425576124246123cb565b5b50919050565b7f4e487b7100000000000000000000000000000000000000000000000000000000600052603160045260246000fd5b7f5477656574204c656e6774682069732045786365656421000000000000000000600082015250565b600061249060178361210a565b915061249b8261245a565b602082019050919050565b600060208201905081810360008301526124bf81612483565b9050919050565b60006124d182611b0a565b91506124dc83611b0a565b92508282019050808211156124f4576124f3612187565b5b92915050565b60008190508160005260206000209050919050565b60006020601f8301049050919050565b600082821b905092915050565b60006008830261255c7fffffffffffffffffffffffffffffffffffffffffffffffffffffffffffffffff8261251f565b612566868361251f565b95508019841693508086168417925050509392505050565b6000819050919050565b60006125a361259e61259984611b0a565b61257e565b611b0a565b9050919050565b6000819050919050565b6125bd83612588565b6125d16125c9826125aa565b84845461252c565b825550505050565b600090565b6125e66125d9565b6125f18184846125b4565b505050565b5b818110156126155761260a6000826125de565b6001810190506125f7565b5050565b601f82111561265a5761262b816124fa565b6126348461250f565b81016020851015612643578190505b61265761264f8561250f565b8301826125f6565b50505b505050565b600082821c905092915050565b600061267d6000198460080261265f565b1980831691505092915050565b6000612696838361266c565b9150826002028217905092915050565b6126af82611b8f565b67ffffffffffffffff8111156126c8576126c7611f69565b5b6126d282546123fa565b6126dd828285612619565b600060209050601f83116001811461271057600084156126fe578287015190505b612708858261268a565b865550612770565b601f19841661271e866124fa565b60005b8281101561274657848901518255600182019150602085019450602081019050612721565b86831015612763578489015161275f601f89168261266c565b8355505b6001600288020188555050505b505050505050565b7f596f7520617265206e6f742061204f776e6572215065726d697373696f6e204460008201527f656e696564210000000000000000000000000000000000000000000000000000602082015250565b60006127d460268361210a565b91506127df82612778565b604082019050919050565b60006020820190508181036000830152612803816127c7565b905091905056fea2646970667358221220590be674005d4d6458106fd6f6e1f401756fb2588fb4cf4e33d14f7337b3e2a664736f6c63430008120033",
					"opcodes": "PUSH1 0x80 PUSH1 0x40 MSTORE PUSH1 0xA PUSH1 0x1 SSTORE CALLVALUE DUP1 ISZERO PUSH2 0x15 JUMPI PUSH1 0x0 DUP1 REVERT JUMPDEST POP CALLER PUSH1 0x0 DUP1 PUSH2 0x100 EXP DUP2 SLOAD DUP2 PUSH20 0xFFFFFFFFFFFFFFFFFFFFFFFFFFFFFFFFFFFFFFFF MUL NOT AND SWAP1 DUP4 PUSH20 0xFFFFFFFFFFFFFFFFFFFFFFFFFFFFFFFFFFFFFFFF AND MUL OR SWAP1 SSTORE POP PUSH2 0x2840 DUP1 PUSH2 0x65 PUSH1 0x0 CODECOPY PUSH1 0x0 RETURN INVALID PUSH1 0x80 PUSH1 0x40 MSTORE CALLVALUE DUP1 ISZERO PUSH2 0x10 JUMPI PUSH1 0x0 DUP1 REVERT JUMPDEST POP PUSH1 0x4 CALLDATASIZE LT PUSH2 0x88 JUMPI PUSH1 0x0 CALLDATALOAD PUSH1 0xE0 SHR DUP1 PUSH4 0x765FAB45 GT PUSH2 0x5B JUMPI DUP1 PUSH4 0x765FAB45 EQ PUSH2 0x101 JUMPI DUP1 PUSH4 0x7C9CD2BC EQ PUSH2 0x10B JUMPI DUP1 PUSH4 0xA110E72D EQ PUSH2 0x127 JUMPI DUP1 PUSH4 0xE479C244 EQ PUSH2 0x143 JUMPI PUSH2 0x88 JUMP JUMPDEST DUP1 PUSH4 0x1216CDC5 EQ PUSH2 0x8D JUMPI DUP1 PUSH4 0x37F36A4C EQ PUSH2 0xA9 JUMPI DUP1 PUSH4 0x42D7FBC0 EQ PUSH2 0xD9 JUMPI DUP1 PUSH4 0x71E7EB12 EQ PUSH2 0xF7 JUMPI JUMPDEST PUSH1 0x0 DUP1 REVERT JUMPDEST PUSH2 0xA7 PUSH1 0x4 DUP1 CALLDATASIZE SUB DUP2 ADD SWAP1 PUSH2 0xA2 SWAP2 SWAP1 PUSH2 0x1B40 JUMP JUMPDEST PUSH2 0x15F JUMP JUMPDEST STOP JUMPDEST PUSH2 0xC3 PUSH1 0x4 DUP1 CALLDATASIZE SUB DUP2 ADD SWAP1 PUSH2 0xBE SWAP2 SWAP1 PUSH2 0x1B40 JUMP JUMPDEST PUSH2 0x7BE JUMP JUMPDEST PUSH1 0x40 MLOAD PUSH2 0xD0 SWAP2 SWAP1 PUSH2 0x1D9B JUMP JUMPDEST PUSH1 0x40 MLOAD DUP1 SWAP2 SUB SWAP1 RETURN JUMPDEST PUSH2 0xE1 PUSH2 0xA71 JUMP JUMPDEST PUSH1 0x40 MLOAD PUSH2 0xEE SWAP2 SWAP1 PUSH2 0x1F3D JUMP JUMPDEST PUSH1 0x40 MLOAD DUP1 SWAP2 SUB SWAP1 RETURN JUMPDEST PUSH2 0xFF PUSH2 0xD3A JUMP JUMPDEST STOP JUMPDEST PUSH2 0x109 PUSH2 0xE1B JUMP JUMPDEST STOP JUMPDEST PUSH2 0x125 PUSH1 0x4 DUP1 CALLDATASIZE SUB DUP2 ADD SWAP1 PUSH2 0x120 SWAP2 SWAP1 PUSH2 0x2094 JUMP JUMPDEST PUSH2 0xE68 JUMP JUMPDEST STOP JUMPDEST PUSH2 0x141 PUSH1 0x4 DUP1 CALLDATASIZE SUB DUP2 ADD SWAP1 PUSH2 0x13C SWAP2 SWAP1 PUSH2 0x1B40 JUMP JUMPDEST PUSH2 0x118C JUMP JUMPDEST STOP JUMPDEST PUSH2 0x15D PUSH1 0x4 DUP1 CALLDATASIZE SUB DUP2 ADD SWAP1 PUSH2 0x158 SWAP2 SWAP1 PUSH2 0x20DD JUMP JUMPDEST PUSH2 0x17EB JUMP JUMPDEST STOP JUMPDEST DUP2 DUP2 DUP1 PUSH1 0x3 PUSH1 0x0 DUP5 PUSH20 0xFFFFFFFFFFFFFFFFFFFFFFFFFFFFFFFFFFFFFFFF AND PUSH20 0xFFFFFFFFFFFFFFFFFFFFFFFFFFFFFFFFFFFFFFFF AND DUP2 MSTORE PUSH1 0x20 ADD SWAP1 DUP2 MSTORE PUSH1 0x20 ADD PUSH1 0x0 KECCAK256 DUP1 SLOAD SWAP1 POP LT ISZERO PUSH2 0x1E6 JUMPI PUSH1 0x40 MLOAD PUSH32 0x8C379A000000000000000000000000000000000000000000000000000000000 DUP2 MSTORE PUSH1 0x4 ADD PUSH2 0x1DD SWAP1 PUSH2 0x2167 JUMP JUMPDEST PUSH1 0x40 MLOAD DUP1 SWAP2 SUB SWAP1 REVERT JUMPDEST PUSH1 0x0 PUSH1 0x1 SWAP1 POP PUSH1 0x0 JUMPDEST PUSH1 0x3 PUSH1 0x0 DUP6 PUSH20 0xFFFFFFFFFFFFFFFFFFFFFFFFFFFFFFFFFFFFFFFF AND PUSH20 0xFFFFFFFFFFFFFFFFFFFFFFFFFFFFFFFFFFFFFFFF AND DUP2 MSTORE PUSH1 0x20 ADD SWAP1 DUP2 MSTORE PUSH1 0x20 ADD PUSH1 0x0 KECCAK256 PUSH1 0x1 DUP5 PUSH2 0x23B SWAP2 SWAP1 PUSH2 0x21B6 JUMP JUMPDEST DUP2 SLOAD DUP2 LT PUSH2 0x24C JUMPI PUSH2 0x24B PUSH2 0x21EA JUMP JUMPDEST JUMPDEST SWAP1 PUSH1 0x0 MSTORE PUSH1 0x20 PUSH1 0x0 KECCAK256 SWAP1 PUSH1 0x8 MUL ADD PUSH1 0x4 ADD DUP1 SLOAD SWAP1 POP DUP2 LT ISZERO PUSH2 0x361 JUMPI CALLER PUSH20 0xFFFFFFFFFFFFFFFFFFFFFFFFFFFFFFFFFFFFFFFF AND PUSH1 0x3 PUSH1 0x0 DUP7 PUSH20 0xFFFFFFFFFFFFFFFFFFFFFFFFFFFFFFFFFFFFFFFF AND PUSH20 0xFFFFFFFFFFFFFFFFFFFFFFFFFFFFFFFFFFFFFFFF AND DUP2 MSTORE PUSH1 0x20 ADD SWAP1 DUP2 MSTORE PUSH1 0x20 ADD PUSH1 0x0 KECCAK256 PUSH1 0x1 DUP6 PUSH2 0x2CB SWAP2 SWAP1 PUSH2 0x21B6 JUMP JUMPDEST DUP2 SLOAD DUP2 LT PUSH2 0x2DC JUMPI PUSH2 0x2DB PUSH2 0x21EA JUMP JUMPDEST JUMPDEST SWAP1 PUSH1 0x0 MSTORE PUSH1 0x20 PUSH1 0x0 KECCAK256 SWAP1 PUSH1 0x8 MUL ADD PUSH1 0x4 ADD DUP3 DUP2 SLOAD DUP2 LT PUSH2 0x2FF JUMPI PUSH2 0x2FE PUSH2 0x21EA JUMP JUMPDEST JUMPDEST SWAP1 PUSH1 0x0 MSTORE PUSH1 0x20 PUSH1 0x0 KECCAK256 ADD PUSH1 0x0 SWAP1 SLOAD SWAP1 PUSH2 0x100 EXP SWAP1 DIV PUSH20 0xFFFFFFFFFFFFFFFFFFFFFFFFFFFFFFFFFFFFFFFF AND PUSH20 0xFFFFFFFFFFFFFFFFFFFFFFFFFFFFFFFFFFFFFFFF AND SUB PUSH2 0x34E JUMPI PUSH1 0x0 SWAP2 POP PUSH2 0x361 JUMP JUMPDEST DUP1 DUP1 PUSH2 0x359 SWAP1 PUSH2 0x2219 JUMP JUMPDEST SWAP2 POP POP PUSH2 0x1EF JUMP JUMPDEST PUSH1 0x1 ISZERO ISZERO DUP3 ISZERO ISZERO EQ PUSH2 0x3A8 JUMPI PUSH1 0x40 MLOAD PUSH32 0x8C379A000000000000000000000000000000000000000000000000000000000 DUP2 MSTORE PUSH1 0x4 ADD PUSH2 0x39F SWAP1 PUSH2 0x22AD JUMP JUMPDEST PUSH1 0x40 MLOAD DUP1 SWAP2 SUB SWAP1 REVERT JUMPDEST DUP6 DUP6 DUP1 PUSH1 0x3 PUSH1 0x0 DUP5 PUSH20 0xFFFFFFFFFFFFFFFFFFFFFFFFFFFFFFFFFFFFFFFF AND PUSH20 0xFFFFFFFFFFFFFFFFFFFFFFFFFFFFFFFFFFFFFFFF AND DUP2 MSTORE PUSH1 0x20 ADD SWAP1 DUP2 MSTORE PUSH1 0x20 ADD PUSH1 0x0 KECCAK256 DUP1 SLOAD SWAP1 POP LT ISZERO PUSH2 0x42F JUMPI PUSH1 0x40 MLOAD PUSH32 0x8C379A000000000000000000000000000000000000000000000000000000000 DUP2 MSTORE PUSH1 0x4 ADD PUSH2 0x426 SWAP1 PUSH2 0x2167 JUMP JUMPDEST PUSH1 0x40 MLOAD DUP1 SWAP2 SUB SWAP1 REVERT JUMPDEST PUSH1 0x0 PUSH1 0x1 SWAP1 POP PUSH1 0x0 JUMPDEST PUSH1 0x3 PUSH1 0x0 DUP6 PUSH20 0xFFFFFFFFFFFFFFFFFFFFFFFFFFFFFFFFFFFFFFFF AND PUSH20 0xFFFFFFFFFFFFFFFFFFFFFFFFFFFFFFFFFFFFFFFF AND DUP2 MSTORE PUSH1 0x20 ADD SWAP1 DUP2 MSTORE PUSH1 0x20 ADD PUSH1 0x0 KECCAK256 PUSH1 0x1 DUP5 PUSH2 0x484 SWAP2 SWAP1 PUSH2 0x21B6 JUMP JUMPDEST DUP2 SLOAD DUP2 LT PUSH2 0x495 JUMPI PUSH2 0x494 PUSH2 0x21EA JUMP JUMPDEST JUMPDEST SWAP1 PUSH1 0x0 MSTORE PUSH1 0x20 PUSH1 0x0 KECCAK256 SWAP1 PUSH1 0x8 MUL ADD PUSH1 0x4 ADD DUP1 SLOAD SWAP1 POP DUP2 LT ISZERO PUSH2 0x5AA JUMPI CALLER PUSH20 0xFFFFFFFFFFFFFFFFFFFFFFFFFFFFFFFFFFFFFFFF AND PUSH1 0x3 PUSH1 0x0 DUP7 PUSH20 0xFFFFFFFFFFFFFFFFFFFFFFFFFFFFFFFFFFFFFFFF AND PUSH20 0xFFFFFFFFFFFFFFFFFFFFFFFFFFFFFFFFFFFFFFFF AND DUP2 MSTORE PUSH1 0x20 ADD SWAP1 DUP2 MSTORE PUSH1 0x20 ADD PUSH1 0x0 KECCAK256 PUSH1 0x1 DUP6 PUSH2 0x514 SWAP2 SWAP1 PUSH2 0x21B6 JUMP JUMPDEST DUP2 SLOAD DUP2 LT PUSH2 0x525 JUMPI PUSH2 0x524 PUSH2 0x21EA JUMP JUMPDEST JUMPDEST SWAP1 PUSH1 0x0 MSTORE PUSH1 0x20 PUSH1 0x0 KECCAK256 SWAP1 PUSH1 0x8 MUL ADD PUSH1 0x7 ADD DUP3 DUP2 SLOAD DUP2 LT PUSH2 0x548 JUMPI PUSH2 0x547 PUSH2 0x21EA JUMP JUMPDEST JUMPDEST SWAP1 PUSH1 0x0 MSTORE PUSH1 0x20 PUSH1 0x0 KECCAK256 ADD PUSH1 0x0 SWAP1 SLOAD SWAP1 PUSH2 0x100 EXP SWAP1 DIV PUSH20 0xFFFFFFFFFFFFFFFFFFFFFFFFFFFFFFFFFFFFFFFF AND PUSH20 0xFFFFFFFFFFFFFFFFFFFFFFFFFFFFFFFFFFFFFFFF AND SUB PUSH2 0x597 JUMPI PUSH1 0x0 SWAP2 POP PUSH2 0x5AA JUMP JUMPDEST DUP1 DUP1 PUSH2 0x5A2 SWAP1 PUSH2 0x2219 JUMP JUMPDEST SWAP2 POP POP PUSH2 0x438 JUMP JUMPDEST PUSH1 0x1 ISZERO ISZERO DUP3 ISZERO ISZERO EQ PUSH2 0x5F1 JUMPI PUSH1 0x40 MLOAD PUSH32 0x8C379A000000000000000000000000000000000000000000000000000000000 DUP2 MSTORE PUSH1 0x4 ADD PUSH2 0x5E8 SWAP1 PUSH2 0x2319 JUMP JUMPDEST PUSH1 0x40 MLOAD DUP1 SWAP2 SUB SWAP1 REVERT JUMPDEST CALLER PUSH20 0xFFFFFFFFFFFFFFFFFFFFFFFFFFFFFFFFFFFFFFFF AND DUP11 PUSH20 0xFFFFFFFFFFFFFFFFFFFFFFFFFFFFFFFFFFFFFFFF AND SUB PUSH2 0x65F JUMPI PUSH1 0x40 MLOAD PUSH32 0x8C379A000000000000000000000000000000000000000000000000000000000 DUP2 MSTORE PUSH1 0x4 ADD PUSH2 0x656 SWAP1 PUSH2 0x23AB JUMP JUMPDEST PUSH1 0x40 MLOAD DUP1 SWAP2 SUB SWAP1 REVERT JUMPDEST PUSH1 0x3 PUSH1 0x0 DUP12 PUSH20 0xFFFFFFFFFFFFFFFFFFFFFFFFFFFFFFFFFFFFFFFF AND PUSH20 0xFFFFFFFFFFFFFFFFFFFFFFFFFFFFFFFFFFFFFFFF AND DUP2 MSTORE PUSH1 0x20 ADD SWAP1 DUP2 MSTORE PUSH1 0x20 ADD PUSH1 0x0 KECCAK256 PUSH1 0x1 DUP11 PUSH2 0x6AB SWAP2 SWAP1 PUSH2 0x21B6 JUMP JUMPDEST DUP2 SLOAD DUP2 LT PUSH2 0x6BC JUMPI PUSH2 0x6BB PUSH2 0x21EA JUMP JUMPDEST JUMPDEST SWAP1 PUSH1 0x0 MSTORE PUSH1 0x20 PUSH1 0x0 KECCAK256 SWAP1 PUSH1 0x8 MUL ADD PUSH1 0x4 ADD CALLER SWAP1 DUP1 PUSH1 0x1 DUP2 SLOAD ADD DUP1 DUP3 SSTORE DUP1 SWAP2 POP POP PUSH1 0x1 SWAP1 SUB SWAP1 PUSH1 0x0 MSTORE PUSH1 0x20 PUSH1 0x0 KECCAK256 ADD PUSH1 0x0 SWAP1 SWAP2 SWAP1 SWAP2 SWAP1 SWAP2 PUSH2 0x100 EXP DUP2 SLOAD DUP2 PUSH20 0xFFFFFFFFFFFFFFFFFFFFFFFFFFFFFFFFFFFFFFFF MUL NOT AND SWAP1 DUP4 PUSH20 0xFFFFFFFFFFFFFFFFFFFFFFFFFFFFFFFFFFFFFFFF AND MUL OR SWAP1 SSTORE POP PUSH1 0x3 PUSH1 0x0 DUP12 PUSH20 0xFFFFFFFFFFFFFFFFFFFFFFFFFFFFFFFFFFFFFFFF AND PUSH20 0xFFFFFFFFFFFFFFFFFFFFFFFFFFFFFFFFFFFFFFFF AND DUP2 MSTORE PUSH1 0x20 ADD SWAP1 DUP2 MSTORE PUSH1 0x20 ADD PUSH1 0x0 KECCAK256 PUSH1 0x1 DUP11 PUSH2 0x77A SWAP2 SWAP1 PUSH2 0x21B6 JUMP JUMPDEST DUP2 SLOAD DUP2 LT PUSH2 0x78B JUMPI PUSH2 0x78A PUSH2 0x21EA JUMP JUMPDEST JUMPDEST SWAP1 PUSH1 0x0 MSTORE PUSH1 0x20 PUSH1 0x0 KECCAK256 SWAP1 PUSH1 0x8 MUL ADD PUSH1 0x5 ADD PUSH1 0x0 DUP2 SLOAD DUP1 SWAP3 SWAP2 SWAP1 PUSH2 0x7AD SWAP1 PUSH2 0x2219 JUMP JUMPDEST SWAP2 SWAP1 POP SSTORE POP POP POP POP POP POP POP POP POP POP POP JUMP JUMPDEST PUSH2 0x7C6 PUSH2 0x1883 JUMP JUMPDEST PUSH1 0x3 PUSH1 0x0 DUP5 PUSH20 0xFFFFFFFFFFFFFFFFFFFFFFFFFFFFFFFFFFFFFFFF AND PUSH20 0xFFFFFFFFFFFFFFFFFFFFFFFFFFFFFFFFFFFFFFFF AND DUP2 MSTORE PUSH1 0x20 ADD SWAP1 DUP2 MSTORE PUSH1 0x20 ADD PUSH1 0x0 KECCAK256 PUSH1 0x1 DUP4 PUSH2 0x812 SWAP2 SWAP1 PUSH2 0x21B6 JUMP JUMPDEST DUP2 SLOAD DUP2 LT PUSH2 0x823 JUMPI PUSH2 0x822 PUSH2 0x21EA JUMP JUMPDEST JUMPDEST SWAP1 PUSH1 0x0 MSTORE PUSH1 0x20 PUSH1 0x0 KECCAK256 SWAP1 PUSH1 0x8 MUL ADD PUSH1 0x40 MLOAD DUP1 PUSH2 0x100 ADD PUSH1 0x40 MSTORE SWAP1 DUP2 PUSH1 0x0 DUP3 ADD SLOAD DUP2 MSTORE PUSH1 0x20 ADD PUSH1 0x1 DUP3 ADD DUP1 SLOAD PUSH2 0x857 SWAP1 PUSH2 0x23FA JUMP JUMPDEST DUP1 PUSH1 0x1F ADD PUSH1 0x20 DUP1 SWAP2 DIV MUL PUSH1 0x20 ADD PUSH1 0x40 MLOAD SWAP1 DUP2 ADD PUSH1 0x40 MSTORE DUP1 SWAP3 SWAP2 SWAP1 DUP2 DUP2 MSTORE PUSH1 0x20 ADD DUP3 DUP1 SLOAD PUSH2 0x883 SWAP1 PUSH2 0x23FA JUMP JUMPDEST DUP1 ISZERO PUSH2 0x8D0 JUMPI DUP1 PUSH1 0x1F LT PUSH2 0x8A5 JUMPI PUSH2 0x100 DUP1 DUP4 SLOAD DIV MUL DUP4 MSTORE SWAP2 PUSH1 0x20 ADD SWAP2 PUSH2 0x8D0 JUMP JUMPDEST DUP3 ADD SWAP2 SWAP1 PUSH1 0x0 MSTORE PUSH1 0x20 PUSH1 0x0 KECCAK256 SWAP1 JUMPDEST DUP2 SLOAD DUP2 MSTORE SWAP1 PUSH1 0x1 ADD SWAP1 PUSH1 0x20 ADD DUP1 DUP4 GT PUSH2 0x8B3 JUMPI DUP3 SWAP1 SUB PUSH1 0x1F AND DUP3 ADD SWAP2 JUMPDEST POP POP POP POP POP DUP2 MSTORE PUSH1 0x20 ADD PUSH1 0x2 DUP3 ADD PUSH1 0x0 SWAP1 SLOAD SWAP1 PUSH2 0x100 EXP SWAP1 DIV PUSH20 0xFFFFFFFFFFFFFFFFFFFFFFFFFFFFFFFFFFFFFFFF AND PUSH20 0xFFFFFFFFFFFFFFFFFFFFFFFFFFFFFFFFFFFFFFFF AND PUSH20 0xFFFFFFFFFFFFFFFFFFFFFFFFFFFFFFFFFFFFFFFF AND DUP2 MSTORE PUSH1 0x20 ADD PUSH1 0x3 DUP3 ADD SLOAD DUP2 MSTORE PUSH1 0x20 ADD PUSH1 0x4 DUP3 ADD DUP1 SLOAD DUP1 PUSH1 0x20 MUL PUSH1 0x20 ADD PUSH1 0x40 MLOAD SWAP1 DUP2 ADD PUSH1 0x40 MSTORE DUP1 SWAP3 SWAP2 SWAP1 DUP2 DUP2 MSTORE PUSH1 0x20 ADD DUP3 DUP1 SLOAD DUP1 ISZERO PUSH2 0x9BE JUMPI PUSH1 0x20 MUL DUP3 ADD SWAP2 SWAP1 PUSH1 0x0 MSTORE PUSH1 0x20 PUSH1 0x0 KECCAK256 SWAP1 JUMPDEST DUP2 PUSH1 0x0 SWAP1 SLOAD SWAP1 PUSH2 0x100 EXP SWAP1 DIV PUSH20 0xFFFFFFFFFFFFFFFFFFFFFFFFFFFFFFFFFFFFFFFF AND PUSH20 0xFFFFFFFFFFFFFFFFFFFFFFFFFFFFFFFFFFFFFFFF AND DUP2 MSTORE PUSH1 0x20 ADD SWAP1 PUSH1 0x1 ADD SWAP1 DUP1 DUP4 GT PUSH2 0x974 JUMPI JUMPDEST POP POP POP POP POP DUP2 MSTORE PUSH1 0x20 ADD PUSH1 0x5 DUP3 ADD SLOAD DUP2 MSTORE PUSH1 0x20 ADD PUSH1 0x6 DUP3 ADD SLOAD DUP2 MSTORE PUSH1 0x20 ADD PUSH1 0x7 DUP3 ADD DUP1 SLOAD DUP1 PUSH1 0x20 MUL PUSH1 0x20 ADD PUSH1 0x40 MLOAD SWAP1 DUP2 ADD PUSH1 0x40 MSTORE DUP1 SWAP3 SWAP2 SWAP1 DUP2 DUP2 MSTORE PUSH1 0x20 ADD DUP3 DUP1 SLOAD DUP1 ISZERO PUSH2 0xA60 JUMPI PUSH1 0x20 MUL DUP3 ADD SWAP2 SWAP1 PUSH1 0x0 MSTORE PUSH1 0x20 PUSH1 0x0 KECCAK256 SWAP1 JUMPDEST DUP2 PUSH1 0x0 SWAP1 SLOAD SWAP1 PUSH2 0x100 EXP SWAP1 DIV PUSH20 0xFFFFFFFFFFFFFFFFFFFFFFFFFFFFFFFFFFFFFFFF AND PUSH20 0xFFFFFFFFFFFFFFFFFFFFFFFFFFFFFFFFFFFFFFFF AND DUP2 MSTORE PUSH1 0x20 ADD SWAP1 PUSH1 0x1 ADD SWAP1 DUP1 DUP4 GT PUSH2 0xA16 JUMPI JUMPDEST POP POP POP POP POP DUP2 MSTORE POP POP SWAP1 POP SWAP3 SWAP2 POP POP JUMP JUMPDEST PUSH1 0x60 PUSH1 0x3 PUSH1 0x0 CALLER PUSH20 0xFFFFFFFFFFFFFFFFFFFFFFFFFFFFFFFFFFFFFFFF AND PUSH20 0xFFFFFFFFFFFFFFFFFFFFFFFFFFFFFFFFFFFFFFFF AND DUP2 MSTORE PUSH1 0x20 ADD SWAP1 DUP2 MSTORE PUSH1 0x20 ADD PUSH1 0x0 KECCAK256 DUP1 SLOAD DUP1 PUSH1 0x20 MUL PUSH1 0x20 ADD PUSH1 0x40 MLOAD SWAP1 DUP2 ADD PUSH1 0x40 MSTORE DUP1 SWAP3 SWAP2 SWAP1 DUP2 DUP2 MSTORE PUSH1 0x20 ADD PUSH1 0x0 SWAP1 JUMPDEST DUP3 DUP3 LT ISZERO PUSH2 0xD31 JUMPI DUP4 DUP3 SWAP1 PUSH1 0x0 MSTORE PUSH1 0x20 PUSH1 0x0 KECCAK256 SWAP1 PUSH1 0x8 MUL ADD PUSH1 0x40 MLOAD DUP1 PUSH2 0x100 ADD PUSH1 0x40 MSTORE SWAP1 DUP2 PUSH1 0x0 DUP3 ADD SLOAD DUP2 MSTORE PUSH1 0x20 ADD PUSH1 0x1 DUP3 ADD DUP1 SLOAD PUSH2 0xB10 SWAP1 PUSH2 0x23FA JUMP JUMPDEST DUP1 PUSH1 0x1F ADD PUSH1 0x20 DUP1 SWAP2 DIV MUL PUSH1 0x20 ADD PUSH1 0x40 MLOAD SWAP1 DUP2 ADD PUSH1 0x40 MSTORE DUP1 SWAP3 SWAP2 SWAP1 DUP2 DUP2 MSTORE PUSH1 0x20 ADD DUP3 DUP1 SLOAD PUSH2 0xB3C SWAP1 PUSH2 0x23FA JUMP JUMPDEST DUP1 ISZERO PUSH2 0xB89 JUMPI DUP1 PUSH1 0x1F LT PUSH2 0xB5E JUMPI PUSH2 0x100 DUP1 DUP4 SLOAD DIV MUL DUP4 MSTORE SWAP2 PUSH1 0x20 ADD SWAP2 PUSH2 0xB89 JUMP JUMPDEST DUP3 ADD SWAP2 SWAP1 PUSH1 0x0 MSTORE PUSH1 0x20 PUSH1 0x0 KECCAK256 SWAP1 JUMPDEST DUP2 SLOAD DUP2 MSTORE SWAP1 PUSH1 0x1 ADD SWAP1 PUSH1 0x20 ADD DUP1 DUP4 GT PUSH2 0xB6C JUMPI DUP3 SWAP1 SUB PUSH1 0x1F AND DUP3 ADD SWAP2 JUMPDEST POP POP POP POP POP DUP2 MSTORE PUSH1 0x20 ADD PUSH1 0x2 DUP3 ADD PUSH1 0x0 SWAP1 SLOAD SWAP1 PUSH2 0x100 EXP SWAP1 DIV PUSH20 0xFFFFFFFFFFFFFFFFFFFFFFFFFFFFFFFFFFFFFFFF AND PUSH20 0xFFFFFFFFFFFFFFFFFFFFFFFFFFFFFFFFFFFFFFFF AND PUSH20 0xFFFFFFFFFFFFFFFFFFFFFFFFFFFFFFFFFFFFFFFF AND DUP2 MSTORE PUSH1 0x20 ADD PUSH1 0x3 DUP3 ADD SLOAD DUP2 MSTORE PUSH1 0x20 ADD PUSH1 0x4 DUP3 ADD DUP1 SLOAD DUP1 PUSH1 0x20 MUL PUSH1 0x20 ADD PUSH1 0x40 MLOAD SWAP1 DUP2 ADD PUSH1 0x40 MSTORE DUP1 SWAP3 SWAP2 SWAP1 DUP2 DUP2 MSTORE PUSH1 0x20 ADD DUP3 DUP1 SLOAD DUP1 ISZERO PUSH2 0xC77 JUMPI PUSH1 0x20 MUL DUP3 ADD SWAP2 SWAP1 PUSH1 0x0 MSTORE PUSH1 0x20 PUSH1 0x0 KECCAK256 SWAP1 JUMPDEST DUP2 PUSH1 0x0 SWAP1 SLOAD SWAP1 PUSH2 0x100 EXP SWAP1 DIV PUSH20 0xFFFFFFFFFFFFFFFFFFFFFFFFFFFFFFFFFFFFFFFF AND PUSH20 0xFFFFFFFFFFFFFFFFFFFFFFFFFFFFFFFFFFFFFFFF AND DUP2 MSTORE PUSH1 0x20 ADD SWAP1 PUSH1 0x1 ADD SWAP1 DUP1 DUP4 GT PUSH2 0xC2D JUMPI JUMPDEST POP POP POP POP POP DUP2 MSTORE PUSH1 0x20 ADD PUSH1 0x5 DUP3 ADD SLOAD DUP2 MSTORE PUSH1 0x20 ADD PUSH1 0x6 DUP3 ADD SLOAD DUP2 MSTORE PUSH1 0x20 ADD PUSH1 0x7 DUP3 ADD DUP1 SLOAD DUP1 PUSH1 0x20 MUL PUSH1 0x20 ADD PUSH1 0x40 MLOAD SWAP1 DUP2 ADD PUSH1 0x40 MSTORE DUP1 SWAP3 SWAP2 SWAP1 DUP2 DUP2 MSTORE PUSH1 0x20 ADD DUP3 DUP1 SLOAD DUP1 ISZERO PUSH2 0xD19 JUMPI PUSH1 0x20 MUL DUP3 ADD SWAP2 SWAP1 PUSH1 0x0 MSTORE PUSH1 0x20 PUSH1 0x0 KECCAK256 SWAP1 JUMPDEST DUP2 PUSH1 0x0 SWAP1 SLOAD SWAP1 PUSH2 0x100 EXP SWAP1 DIV PUSH20 0xFFFFFFFFFFFFFFFFFFFFFFFFFFFFFFFFFFFFFFFF AND PUSH20 0xFFFFFFFFFFFFFFFFFFFFFFFFFFFFFFFFFFFFFFFF AND DUP2 MSTORE PUSH1 0x20 ADD SWAP1 PUSH1 0x1 ADD SWAP1 DUP1 DUP4 GT PUSH2 0xCCF JUMPI JUMPDEST POP POP POP POP POP DUP2 MSTORE POP POP DUP2 MSTORE PUSH1 0x20 ADD SWAP1 PUSH1 0x1 ADD SWAP1 PUSH2 0xAD2 JUMP JUMPDEST POP POP POP POP SWAP1 POP SWAP1 JUMP JUMPDEST PUSH1 0x3 PUSH1 0x0 CALLER PUSH20 0xFFFFFFFFFFFFFFFFFFFFFFFFFFFFFFFFFFFFFFFF AND PUSH20 0xFFFFFFFFFFFFFFFFFFFFFFFFFFFFFFFFFFFFFFFF AND DUP2 MSTORE PUSH1 0x20 ADD SWAP1 DUP2 MSTORE PUSH1 0x20 ADD PUSH1 0x0 KECCAK256 DUP1 SLOAD DUP1 PUSH2 0xD89 JUMPI PUSH2 0xD88 PUSH2 0x242B JUMP JUMPDEST JUMPDEST PUSH1 0x1 SWAP1 SUB DUP2 DUP2 SWAP1 PUSH1 0x0 MSTORE PUSH1 0x20 PUSH1 0x0 KECCAK256 SWAP1 PUSH1 0x8 MUL ADD PUSH1 0x0 DUP1 DUP3 ADD PUSH1 0x0 SWAP1 SSTORE PUSH1 0x1 DUP3 ADD PUSH1 0x0 PUSH2 0xDB6 SWAP2 SWAP1 PUSH2 0x18DE JUMP JUMPDEST PUSH1 0x2 DUP3 ADD PUSH1 0x0 PUSH2 0x100 EXP DUP2 SLOAD SWAP1 PUSH20 0xFFFFFFFFFFFFFFFFFFFFFFFFFFFFFFFFFFFFFFFF MUL NOT AND SWAP1 SSTORE PUSH1 0x3 DUP3 ADD PUSH1 0x0 SWAP1 SSTORE PUSH1 0x4 DUP3 ADD PUSH1 0x0 PUSH2 0xDF5 SWAP2 SWAP1 PUSH2 0x191E JUMP JUMPDEST PUSH1 0x5 DUP3 ADD PUSH1 0x0 SWAP1 SSTORE PUSH1 0x6 DUP3 ADD PUSH1 0x0 SWAP1 SSTORE PUSH1 0x7 DUP3 ADD PUSH1 0x0 PUSH2 0xE15 SWAP2 SWAP1 PUSH2 0x191E JUMP JUMPDEST POP POP SWAP1 SSTORE JUMP JUMPDEST PUSH1 0x3 PUSH1 0x0 CALLER PUSH20 0xFFFFFFFFFFFFFFFFFFFFFFFFFFFFFFFFFFFFFFFF AND PUSH20 0xFFFFFFFFFFFFFFFFFFFFFFFFFFFFFFFFFFFFFFFF AND DUP2 MSTORE PUSH1 0x20 ADD SWAP1 DUP2 MSTORE PUSH1 0x20 ADD PUSH1 0x0 KECCAK256 PUSH1 0x0 PUSH2 0xE66 SWAP2 SWAP1 PUSH2 0x193F JUMP JUMPDEST JUMP JUMPDEST PUSH1 0x1 SLOAD DUP2 MLOAD GT ISZERO PUSH2 0xEAE JUMPI PUSH1 0x40 MLOAD PUSH32 0x8C379A000000000000000000000000000000000000000000000000000000000 DUP2 MSTORE PUSH1 0x4 ADD PUSH2 0xEA5 SWAP1 PUSH2 0x24A6 JUMP JUMPDEST PUSH1 0x40 MLOAD DUP1 SWAP2 SUB SWAP1 REVERT JUMPDEST PUSH1 0x0 PUSH1 0x40 MLOAD DUP1 PUSH2 0x100 ADD PUSH1 0x40 MSTORE DUP1 PUSH1 0x1 PUSH1 0x3 PUSH1 0x0 CALLER PUSH20 0xFFFFFFFFFFFFFFFFFFFFFFFFFFFFFFFFFFFFFFFF AND PUSH20 0xFFFFFFFFFFFFFFFFFFFFFFFFFFFFFFFFFFFFFFFF AND DUP2 MSTORE PUSH1 0x20 ADD SWAP1 DUP2 MSTORE PUSH1 0x20 ADD PUSH1 0x0 KECCAK256 DUP1 SLOAD SWAP1 POP PUSH2 0xF0B SWAP2 SWAP1 PUSH2 0x24C6 JUMP JUMPDEST DUP2 MSTORE PUSH1 0x20 ADD DUP4 DUP2 MSTORE PUSH1 0x20 ADD CALLER PUSH20 0xFFFFFFFFFFFFFFFFFFFFFFFFFFFFFFFFFFFFFFFF AND DUP2 MSTORE PUSH1 0x20 ADD TIMESTAMP DUP2 MSTORE PUSH1 0x20 ADD PUSH1 0x2 DUP1 SLOAD DUP1 PUSH1 0x20 MUL PUSH1 0x20 ADD PUSH1 0x40 MLOAD SWAP1 DUP2 ADD PUSH1 0x40 MSTORE DUP1 SWAP3 SWAP2 SWAP1 DUP2 DUP2 MSTORE PUSH1 0x20 ADD DUP3 DUP1 SLOAD DUP1 ISZERO PUSH2 0xFBA JUMPI PUSH1 0x20 MUL DUP3 ADD SWAP2 SWAP1 PUSH1 0x0 MSTORE PUSH1 0x20 PUSH1 0x0 KECCAK256 SWAP1 JUMPDEST DUP2 PUSH1 0x0 SWAP1 SLOAD SWAP1 PUSH2 0x100 EXP SWAP1 DIV PUSH20 0xFFFFFFFFFFFFFFFFFFFFFFFFFFFFFFFFFFFFFFFF AND PUSH20 0xFFFFFFFFFFFFFFFFFFFFFFFFFFFFFFFFFFFFFFFF AND DUP2 MSTORE PUSH1 0x20 ADD SWAP1 PUSH1 0x1 ADD SWAP1 DUP1 DUP4 GT PUSH2 0xF70 JUMPI JUMPDEST POP POP POP POP POP DUP2 MSTORE PUSH1 0x20 ADD PUSH1 0x0 DUP2 MSTORE PUSH1 0x20 ADD PUSH1 0x0 DUP2 MSTORE PUSH1 0x20 ADD PUSH1 0x2 DUP1 SLOAD DUP1 PUSH1 0x20 MUL PUSH1 0x20 ADD PUSH1 0x40 MLOAD SWAP1 DUP2 ADD PUSH1 0x40 MSTORE DUP1 SWAP3 SWAP2 SWAP1 DUP2 DUP2 MSTORE PUSH1 0x20 ADD DUP3 DUP1 SLOAD DUP1 ISZERO PUSH2 0x1054 JUMPI PUSH1 0x20 MUL DUP3 ADD SWAP2 SWAP1 PUSH1 0x0 MSTORE PUSH1 0x20 PUSH1 0x0 KECCAK256 SWAP1 JUMPDEST DUP2 PUSH1 0x0 SWAP1 SLOAD SWAP1 PUSH2 0x100 EXP SWAP1 DIV PUSH20 0xFFFFFFFFFFFFFFFFFFFFFFFFFFFFFFFFFFFFFFFF AND PUSH20 0xFFFFFFFFFFFFFFFFFFFFFFFFFFFFFFFFFFFFFFFF AND DUP2 MSTORE PUSH1 0x20 ADD SWAP1 PUSH1 0x1 ADD SWAP1 DUP1 DUP4 GT PUSH2 0x100A JUMPI JUMPDEST POP POP POP POP POP DUP2 MSTORE POP SWAP1 POP PUSH1 0x3 PUSH1 0x0 CALLER PUSH20 0xFFFFFFFFFFFFFFFFFFFFFFFFFFFFFFFFFFFFFFFF AND PUSH20 0xFFFFFFFFFFFFFFFFFFFFFFFFFFFFFFFFFFFFFFFF AND DUP2 MSTORE PUSH1 0x20 ADD SWAP1 DUP2 MSTORE PUSH1 0x20 ADD PUSH1 0x0 KECCAK256 DUP2 SWAP1 DUP1 PUSH1 0x1 DUP2 SLOAD ADD DUP1 DUP3 SSTORE DUP1 SWAP2 POP POP PUSH1 0x1 SWAP1 SUB SWAP1 PUSH1 0x0 MSTORE PUSH1 0x20 PUSH1 0x0 KECCAK256 SWAP1 PUSH1 0x8 MUL ADD PUSH1 0x0 SWAP1 SWAP2 SWAP1 SWAP2 SWAP1 SWAP2 POP PUSH1 0x0 DUP3 ADD MLOAD DUP2 PUSH1 0x0 ADD SSTORE PUSH1 0x20 DUP3 ADD MLOAD DUP2 PUSH1 0x1 ADD SWAP1 DUP2 PUSH2 0x10E6 SWAP2 SWAP1 PUSH2 0x26A6 JUMP JUMPDEST POP PUSH1 0x40 DUP3 ADD MLOAD DUP2 PUSH1 0x2 ADD PUSH1 0x0 PUSH2 0x100 EXP DUP2 SLOAD DUP2 PUSH20 0xFFFFFFFFFFFFFFFFFFFFFFFFFFFFFFFFFFFFFFFF MUL NOT AND SWAP1 DUP4 PUSH20 0xFFFFFFFFFFFFFFFFFFFFFFFFFFFFFFFFFFFFFFFF AND MUL OR SWAP1 SSTORE POP PUSH1 0x60 DUP3 ADD MLOAD DUP2 PUSH1 0x3 ADD SSTORE PUSH1 0x80 DUP3 ADD MLOAD DUP2 PUSH1 0x4 ADD SWAP1 DUP1 MLOAD SWAP1 PUSH1 0x20 ADD SWAP1 PUSH2 0x1154 SWAP3 SWAP2 SWAP1 PUSH2 0x1963 JUMP JUMPDEST POP PUSH1 0xA0 DUP3 ADD MLOAD DUP2 PUSH1 0x5 ADD SSTORE PUSH1 0xC0 DUP3 ADD MLOAD DUP2 PUSH1 0x6 ADD SSTORE PUSH1 0xE0 DUP3 ADD MLOAD DUP2 PUSH1 0x7 ADD SWAP1 DUP1 MLOAD SWAP1 PUSH1 0x20 ADD SWAP1 PUSH2 0x1185 SWAP3 SWAP2 SWAP1 PUSH2 0x1963 JUMP JUMPDEST POP POP POP POP POP JUMP JUMPDEST DUP2 DUP2 DUP1 PUSH1 0x3 PUSH1 0x0 DUP5 PUSH20 0xFFFFFFFFFFFFFFFFFFFFFFFFFFFFFFFFFFFFFFFF AND PUSH20 0xFFFFFFFFFFFFFFFFFFFFFFFFFFFFFFFFFFFFFFFF AND DUP2 MSTORE PUSH1 0x20 ADD SWAP1 DUP2 MSTORE PUSH1 0x20 ADD PUSH1 0x0 KECCAK256 DUP1 SLOAD SWAP1 POP LT ISZERO PUSH2 0x1213 JUMPI PUSH1 0x40 MLOAD PUSH32 0x8C379A000000000000000000000000000000000000000000000000000000000 DUP2 MSTORE PUSH1 0x4 ADD PUSH2 0x120A SWAP1 PUSH2 0x2167 JUMP JUMPDEST PUSH1 0x40 MLOAD DUP1 SWAP2 SUB SWAP1 REVERT JUMPDEST PUSH1 0x0 PUSH1 0x1 SWAP1 POP PUSH1 0x0 JUMPDEST PUSH1 0x3 PUSH1 0x0 DUP6 PUSH20 0xFFFFFFFFFFFFFFFFFFFFFFFFFFFFFFFFFFFFFFFF AND PUSH20 0xFFFFFFFFFFFFFFFFFFFFFFFFFFFFFFFFFFFFFFFF AND DUP2 MSTORE PUSH1 0x20 ADD SWAP1 DUP2 MSTORE PUSH1 0x20 ADD PUSH1 0x0 KECCAK256 PUSH1 0x1 DUP5 PUSH2 0x1268 SWAP2 SWAP1 PUSH2 0x21B6 JUMP JUMPDEST DUP2 SLOAD DUP2 LT PUSH2 0x1279 JUMPI PUSH2 0x1278 PUSH2 0x21EA JUMP JUMPDEST JUMPDEST SWAP1 PUSH1 0x0 MSTORE PUSH1 0x20 PUSH1 0x0 KECCAK256 SWAP1 PUSH1 0x8 MUL ADD PUSH1 0x4 ADD DUP1 SLOAD SWAP1 POP DUP2 LT ISZERO PUSH2 0x138E JUMPI CALLER PUSH20 0xFFFFFFFFFFFFFFFFFFFFFFFFFFFFFFFFFFFFFFFF AND PUSH1 0x3 PUSH1 0x0 DUP7 PUSH20 0xFFFFFFFFFFFFFFFFFFFFFFFFFFFFFFFFFFFFFFFF AND PUSH20 0xFFFFFFFFFFFFFFFFFFFFFFFFFFFFFFFFFFFFFFFF AND DUP2 MSTORE PUSH1 0x20 ADD SWAP1 DUP2 MSTORE PUSH1 0x20 ADD PUSH1 0x0 KECCAK256 PUSH1 0x1 DUP6 PUSH2 0x12F8 SWAP2 SWAP1 PUSH2 0x21B6 JUMP JUMPDEST DUP2 SLOAD DUP2 LT PUSH2 0x1309 JUMPI PUSH2 0x1308 PUSH2 0x21EA JUMP JUMPDEST JUMPDEST SWAP1 PUSH1 0x0 MSTORE PUSH1 0x20 PUSH1 0x0 KECCAK256 SWAP1 PUSH1 0x8 MUL ADD PUSH1 0x4 ADD DUP3 DUP2 SLOAD DUP2 LT PUSH2 0x132C JUMPI PUSH2 0x132B PUSH2 0x21EA JUMP JUMPDEST JUMPDEST SWAP1 PUSH1 0x0 MSTORE PUSH1 0x20 PUSH1 0x0 KECCAK256 ADD PUSH1 0x0 SWAP1 SLOAD SWAP1 PUSH2 0x100 EXP SWAP1 DIV PUSH20 0xFFFFFFFFFFFFFFFFFFFFFFFFFFFFFFFFFFFFFFFF AND PUSH20 0xFFFFFFFFFFFFFFFFFFFFFFFFFFFFFFFFFFFFFFFF AND SUB PUSH2 0x137B JUMPI PUSH1 0x0 SWAP2 POP PUSH2 0x138E JUMP JUMPDEST DUP1 DUP1 PUSH2 0x1386 SWAP1 PUSH2 0x2219 JUMP JUMPDEST SWAP2 POP POP PUSH2 0x121C JUMP JUMPDEST PUSH1 0x1 ISZERO ISZERO DUP3 ISZERO ISZERO EQ PUSH2 0x13D5 JUMPI PUSH1 0x40 MLOAD PUSH32 0x8C379A000000000000000000000000000000000000000000000000000000000 DUP2 MSTORE PUSH1 0x4 ADD PUSH2 0x13CC SWAP1 PUSH2 0x22AD JUMP JUMPDEST PUSH1 0x40 MLOAD DUP1 SWAP2 SUB SWAP1 REVERT JUMPDEST DUP6 DUP6 DUP1 PUSH1 0x3 PUSH1 0x0 DUP5 PUSH20 0xFFFFFFFFFFFFFFFFFFFFFFFFFFFFFFFFFFFFFFFF AND PUSH20 0xFFFFFFFFFFFFFFFFFFFFFFFFFFFFFFFFFFFFFFFF AND DUP2 MSTORE PUSH1 0x20 ADD SWAP1 DUP2 MSTORE PUSH1 0x20 ADD PUSH1 0x0 KECCAK256 DUP1 SLOAD SWAP1 POP LT ISZERO PUSH2 0x145C JUMPI PUSH1 0x40 MLOAD PUSH32 0x8C379A000000000000000000000000000000000000000000000000000000000 DUP2 MSTORE PUSH1 0x4 ADD PUSH2 0x1453 SWAP1 PUSH2 0x2167 JUMP JUMPDEST PUSH1 0x40 MLOAD DUP1 SWAP2 SUB SWAP1 REVERT JUMPDEST PUSH1 0x0 PUSH1 0x1 SWAP1 POP PUSH1 0x0 JUMPDEST PUSH1 0x3 PUSH1 0x0 DUP6 PUSH20 0xFFFFFFFFFFFFFFFFFFFFFFFFFFFFFFFFFFFFFFFF AND PUSH20 0xFFFFFFFFFFFFFFFFFFFFFFFFFFFFFFFFFFFFFFFF AND DUP2 MSTORE PUSH1 0x20 ADD SWAP1 DUP2 MSTORE PUSH1 0x20 ADD PUSH1 0x0 KECCAK256 PUSH1 0x1 DUP5 PUSH2 0x14B1 SWAP2 SWAP1 PUSH2 0x21B6 JUMP JUMPDEST DUP2 SLOAD DUP2 LT PUSH2 0x14C2 JUMPI PUSH2 0x14C1 PUSH2 0x21EA JUMP JUMPDEST JUMPDEST SWAP1 PUSH1 0x0 MSTORE PUSH1 0x20 PUSH1 0x0 KECCAK256 SWAP1 PUSH1 0x8 MUL ADD PUSH1 0x4 ADD DUP1 SLOAD SWAP1 POP DUP2 LT ISZERO PUSH2 0x15D7 JUMPI CALLER PUSH20 0xFFFFFFFFFFFFFFFFFFFFFFFFFFFFFFFFFFFFFFFF AND PUSH1 0x3 PUSH1 0x0 DUP7 PUSH20 0xFFFFFFFFFFFFFFFFFFFFFFFFFFFFFFFFFFFFFFFF AND PUSH20 0xFFFFFFFFFFFFFFFFFFFFFFFFFFFFFFFFFFFFFFFF AND DUP2 MSTORE PUSH1 0x20 ADD SWAP1 DUP2 MSTORE PUSH1 0x20 ADD PUSH1 0x0 KECCAK256 PUSH1 0x1 DUP6 PUSH2 0x1541 SWAP2 SWAP1 PUSH2 0x21B6 JUMP JUMPDEST DUP2 SLOAD DUP2 LT PUSH2 0x1552 JUMPI PUSH2 0x1551 PUSH2 0x21EA JUMP JUMPDEST JUMPDEST SWAP1 PUSH1 0x0 MSTORE PUSH1 0x20 PUSH1 0x0 KECCAK256 SWAP1 PUSH1 0x8 MUL ADD PUSH1 0x7 ADD DUP3 DUP2 SLOAD DUP2 LT PUSH2 0x1575 JUMPI PUSH2 0x1574 PUSH2 0x21EA JUMP JUMPDEST JUMPDEST SWAP1 PUSH1 0x0 MSTORE PUSH1 0x20 PUSH1 0x0 KECCAK256 ADD PUSH1 0x0 SWAP1 SLOAD SWAP1 PUSH2 0x100 EXP SWAP1 DIV PUSH20 0xFFFFFFFFFFFFFFFFFFFFFFFFFFFFFFFFFFFFFFFF AND PUSH20 0xFFFFFFFFFFFFFFFFFFFFFFFFFFFFFFFFFFFFFFFF AND SUB PUSH2 0x15C4 JUMPI PUSH1 0x0 SWAP2 POP PUSH2 0x15D7 JUMP JUMPDEST DUP1 DUP1 PUSH2 0x15CF SWAP1 PUSH2 0x2219 JUMP JUMPDEST SWAP2 POP POP PUSH2 0x1465 JUMP JUMPDEST PUSH1 0x1 ISZERO ISZERO DUP3 ISZERO ISZERO EQ PUSH2 0x161E JUMPI PUSH1 0x40 MLOAD PUSH32 0x8C379A000000000000000000000000000000000000000000000000000000000 DUP2 MSTORE PUSH1 0x4 ADD PUSH2 0x1615 SWAP1 PUSH2 0x2319 JUMP JUMPDEST PUSH1 0x40 MLOAD DUP1 SWAP2 SUB SWAP1 REVERT JUMPDEST CALLER PUSH20 0xFFFFFFFFFFFFFFFFFFFFFFFFFFFFFFFFFFFFFFFF AND DUP11 PUSH20 0xFFFFFFFFFFFFFFFFFFFFFFFFFFFFFFFFFFFFFFFF AND SUB PUSH2 0x168C JUMPI PUSH1 0x40 MLOAD PUSH32 0x8C379A000000000000000000000000000000000000000000000000000000000 DUP2 MSTORE PUSH1 0x4 ADD PUSH2 0x1683 SWAP1 PUSH2 0x23AB JUMP JUMPDEST PUSH1 0x40 MLOAD DUP1 SWAP2 SUB SWAP1 REVERT JUMPDEST PUSH1 0x3 PUSH1 0x0 DUP12 PUSH20 0xFFFFFFFFFFFFFFFFFFFFFFFFFFFFFFFFFFFFFFFF AND PUSH20 0xFFFFFFFFFFFFFFFFFFFFFFFFFFFFFFFFFFFFFFFF AND DUP2 MSTORE PUSH1 0x20 ADD SWAP1 DUP2 MSTORE PUSH1 0x20 ADD PUSH1 0x0 KECCAK256 PUSH1 0x1 DUP11 PUSH2 0x16D8 SWAP2 SWAP1 PUSH2 0x21B6 JUMP JUMPDEST DUP2 SLOAD DUP2 LT PUSH2 0x16E9 JUMPI PUSH2 0x16E8 PUSH2 0x21EA JUMP JUMPDEST JUMPDEST SWAP1 PUSH1 0x0 MSTORE PUSH1 0x20 PUSH1 0x0 KECCAK256 SWAP1 PUSH1 0x8 MUL ADD PUSH1 0x7 ADD CALLER SWAP1 DUP1 PUSH1 0x1 DUP2 SLOAD ADD DUP1 DUP3 SSTORE DUP1 SWAP2 POP POP PUSH1 0x1 SWAP1 SUB SWAP1 PUSH1 0x0 MSTORE PUSH1 0x20 PUSH1 0x0 KECCAK256 ADD PUSH1 0x0 SWAP1 SWAP2 SWAP1 SWAP2 SWAP1 SWAP2 PUSH2 0x100 EXP DUP2 SLOAD DUP2 PUSH20 0xFFFFFFFFFFFFFFFFFFFFFFFFFFFFFFFFFFFFFFFF MUL NOT AND SWAP1 DUP4 PUSH20 0xFFFFFFFFFFFFFFFFFFFFFFFFFFFFFFFFFFFFFFFF AND MUL OR SWAP1 SSTORE POP PUSH1 0x3 PUSH1 0x0 DUP12 PUSH20 0xFFFFFFFFFFFFFFFFFFFFFFFFFFFFFFFFFFFFFFFF AND PUSH20 0xFFFFFFFFFFFFFFFFFFFFFFFFFFFFFFFFFFFFFFFF AND DUP2 MSTORE PUSH1 0x20 ADD SWAP1 DUP2 MSTORE PUSH1 0x20 ADD PUSH1 0x0 KECCAK256 PUSH1 0x1 DUP11 PUSH2 0x17A7 SWAP2 SWAP1 PUSH2 0x21B6 JUMP JUMPDEST DUP2 SLOAD DUP2 LT PUSH2 0x17B8 JUMPI PUSH2 0x17B7 PUSH2 0x21EA JUMP JUMPDEST JUMPDEST SWAP1 PUSH1 0x0 MSTORE PUSH1 0x20 PUSH1 0x0 KECCAK256 SWAP1 PUSH1 0x8 MUL ADD PUSH1 0x6 ADD PUSH1 0x0 DUP2 SLOAD DUP1 SWAP3 SWAP2 SWAP1 PUSH2 0x17DA SWAP1 PUSH2 0x2219 JUMP JUMPDEST SWAP2 SWAP1 POP SSTORE POP POP POP POP POP POP POP POP POP POP POP JUMP JUMPDEST CALLER PUSH20 0xFFFFFFFFFFFFFFFFFFFFFFFFFFFFFFFFFFFFFFFF AND PUSH1 0x0 DUP1 SLOAD SWAP1 PUSH2 0x100 EXP SWAP1 DIV PUSH20 0xFFFFFFFFFFFFFFFFFFFFFFFFFFFFFFFFFFFFFFFF AND PUSH20 0xFFFFFFFFFFFFFFFFFFFFFFFFFFFFFFFFFFFFFFFF AND EQ PUSH2 0x1879 JUMPI PUSH1 0x40 MLOAD PUSH32 0x8C379A000000000000000000000000000000000000000000000000000000000 DUP2 MSTORE PUSH1 0x4 ADD PUSH2 0x1870 SWAP1 PUSH2 0x27EA JUMP JUMPDEST PUSH1 0x40 MLOAD DUP1 SWAP2 SUB SWAP1 REVERT JUMPDEST DUP1 PUSH1 0x1 DUP2 SWAP1 SSTORE POP POP JUMP JUMPDEST PUSH1 0x40 MLOAD DUP1 PUSH2 0x100 ADD PUSH1 0x40 MSTORE DUP1 PUSH1 0x0 DUP2 MSTORE PUSH1 0x20 ADD PUSH1 0x60 DUP2 MSTORE PUSH1 0x20 ADD PUSH1 0x0 PUSH20 0xFFFFFFFFFFFFFFFFFFFFFFFFFFFFFFFFFFFFFFFF AND DUP2 MSTORE PUSH1 0x20 ADD PUSH1 0x0 DUP2 MSTORE PUSH1 0x20 ADD PUSH1 0x60 DUP2 MSTORE PUSH1 0x20 ADD PUSH1 0x0 DUP2 MSTORE PUSH1 0x20 ADD PUSH1 0x0 DUP2 MSTORE PUSH1 0x20 ADD PUSH1 0x60 DUP2 MSTORE POP SWAP1 JUMP JUMPDEST POP DUP1 SLOAD PUSH2 0x18EA SWAP1 PUSH2 0x23FA JUMP JUMPDEST PUSH1 0x0 DUP3 SSTORE DUP1 PUSH1 0x1F LT PUSH2 0x18FC JUMPI POP PUSH2 0x191B JUMP JUMPDEST PUSH1 0x1F ADD PUSH1 0x20 SWAP1 DIV SWAP1 PUSH1 0x0 MSTORE PUSH1 0x20 PUSH1 0x0 KECCAK256 SWAP1 DUP2 ADD SWAP1 PUSH2 0x191A SWAP2 SWAP1 PUSH2 0x19ED JUMP JUMPDEST JUMPDEST POP JUMP JUMPDEST POP DUP1 SLOAD PUSH1 0x0 DUP3 SSTORE SWAP1 PUSH1 0x0 MSTORE PUSH1 0x20 PUSH1 0x0 KECCAK256 SWAP1 DUP2 ADD SWAP1 PUSH2 0x193C SWAP2 SWAP1 PUSH2 0x19ED JUMP JUMPDEST POP JUMP JUMPDEST POP DUP1 SLOAD PUSH1 0x0 DUP3 SSTORE PUSH1 0x8 MUL SWAP1 PUSH1 0x0 MSTORE PUSH1 0x20 PUSH1 0x0 KECCAK256 SWAP1 DUP2 ADD SWAP1 PUSH2 0x1960 SWAP2 SWAP1 PUSH2 0x1A0A JUMP JUMPDEST POP JUMP JUMPDEST DUP3 DUP1 SLOAD DUP3 DUP3 SSTORE SWAP1 PUSH1 0x0 MSTORE PUSH1 0x20 PUSH1 0x0 KECCAK256 SWAP1 DUP2 ADD SWAP3 DUP3 ISZERO PUSH2 0x19DC JUMPI SWAP2 PUSH1 0x20 MUL DUP3 ADD JUMPDEST DUP3 DUP2 GT ISZERO PUSH2 0x19DB JUMPI DUP3 MLOAD DUP3 PUSH1 0x0 PUSH2 0x100 EXP DUP2 SLOAD DUP2 PUSH20 0xFFFFFFFFFFFFFFFFFFFFFFFFFFFFFFFFFFFFFFFF MUL NOT AND SWAP1 DUP4 PUSH20 0xFFFFFFFFFFFFFFFFFFFFFFFFFFFFFFFFFFFFFFFF AND MUL OR SWAP1 SSTORE POP SWAP2 PUSH1 0x20 ADD SWAP2 SWAP1 PUSH1 0x1 ADD SWAP1 PUSH2 0x1983 JUMP JUMPDEST JUMPDEST POP SWAP1 POP PUSH2 0x19E9 SWAP2 SWAP1 PUSH2 0x19ED JUMP JUMPDEST POP SWAP1 JUMP JUMPDEST JUMPDEST DUP1 DUP3 GT ISZERO PUSH2 0x1A06 JUMPI PUSH1 0x0 DUP2 PUSH1 0x0 SWAP1 SSTORE POP PUSH1 0x1 ADD PUSH2 0x19EE JUMP JUMPDEST POP SWAP1 JUMP JUMPDEST JUMPDEST DUP1 DUP3 GT ISZERO PUSH2 0x1A94 JUMPI PUSH1 0x0 DUP1 DUP3 ADD PUSH1 0x0 SWAP1 SSTORE PUSH1 0x1 DUP3 ADD PUSH1 0x0 PUSH2 0x1A2C SWAP2 SWAP1 PUSH2 0x18DE JUMP JUMPDEST PUSH1 0x2 DUP3 ADD PUSH1 0x0 PUSH2 0x100 EXP DUP2 SLOAD SWAP1 PUSH20 0xFFFFFFFFFFFFFFFFFFFFFFFFFFFFFFFFFFFFFFFF MUL NOT AND SWAP1 SSTORE PUSH1 0x3 DUP3 ADD PUSH1 0x0 SWAP1 SSTORE PUSH1 0x4 DUP3 ADD PUSH1 0x0 PUSH2 0x1A6B SWAP2 SWAP1 PUSH2 0x191E JUMP JUMPDEST PUSH1 0x5 DUP3 ADD PUSH1 0x0 SWAP1 SSTORE PUSH1 0x6 DUP3 ADD PUSH1 0x0 SWAP1 SSTORE PUSH1 0x7 DUP3 ADD PUSH1 0x0 PUSH2 0x1A8B SWAP2 SWAP1 PUSH2 0x191E JUMP JUMPDEST POP PUSH1 0x8 ADD PUSH2 0x1A0B JUMP JUMPDEST POP SWAP1 JUMP JUMPDEST PUSH1 0x0 PUSH1 0x40 MLOAD SWAP1 POP SWAP1 JUMP JUMPDEST PUSH1 0x0 DUP1 REVERT JUMPDEST PUSH1 0x0 DUP1 REVERT JUMPDEST PUSH1 0x0 PUSH20 0xFFFFFFFFFFFFFFFFFFFFFFFFFFFFFFFFFFFFFFFF DUP3 AND SWAP1 POP SWAP2 SWAP1 POP JUMP JUMPDEST PUSH1 0x0 PUSH2 0x1AD7 DUP3 PUSH2 0x1AAC JUMP JUMPDEST SWAP1 POP SWAP2 SWAP1 POP JUMP JUMPDEST PUSH2 0x1AE7 DUP2 PUSH2 0x1ACC JUMP JUMPDEST DUP2 EQ PUSH2 0x1AF2 JUMPI PUSH1 0x0 DUP1 REVERT JUMPDEST POP JUMP JUMPDEST PUSH1 0x0 DUP2 CALLDATALOAD SWAP1 POP PUSH2 0x1B04 DUP2 PUSH2 0x1ADE JUMP JUMPDEST SWAP3 SWAP2 POP POP JUMP JUMPDEST PUSH1 0x0 DUP2 SWAP1 POP SWAP2 SWAP1 POP JUMP JUMPDEST PUSH2 0x1B1D DUP2 PUSH2 0x1B0A JUMP JUMPDEST DUP2 EQ PUSH2 0x1B28 JUMPI PUSH1 0x0 DUP1 REVERT JUMPDEST POP JUMP JUMPDEST PUSH1 0x0 DUP2 CALLDATALOAD SWAP1 POP PUSH2 0x1B3A DUP2 PUSH2 0x1B14 JUMP JUMPDEST SWAP3 SWAP2 POP POP JUMP JUMPDEST PUSH1 0x0 DUP1 PUSH1 0x40 DUP4 DUP6 SUB SLT ISZERO PUSH2 0x1B57 JUMPI PUSH2 0x1B56 PUSH2 0x1AA2 JUMP JUMPDEST JUMPDEST PUSH1 0x0 PUSH2 0x1B65 DUP6 DUP3 DUP7 ADD PUSH2 0x1AF5 JUMP JUMPDEST SWAP3 POP POP PUSH1 0x20 PUSH2 0x1B76 DUP6 DUP3 DUP7 ADD PUSH2 0x1B2B JUMP JUMPDEST SWAP2 POP POP SWAP3 POP SWAP3 SWAP1 POP JUMP JUMPDEST PUSH2 0x1B89 DUP2 PUSH2 0x1B0A JUMP JUMPDEST DUP3 MSTORE POP POP JUMP JUMPDEST PUSH1 0x0 DUP2 MLOAD SWAP1 POP SWAP2 SWAP1 POP JUMP JUMPDEST PUSH1 0x0 DUP3 DUP3 MSTORE PUSH1 0x20 DUP3 ADD SWAP1 POP SWAP3 SWAP2 POP POP JUMP JUMPDEST PUSH1 0x0 JUMPDEST DUP4 DUP2 LT ISZERO PUSH2 0x1BC9 JUMPI DUP1 DUP3 ADD MLOAD DUP2 DUP5 ADD MSTORE PUSH1 0x20 DUP2 ADD SWAP1 POP PUSH2 0x1BAE JUMP JUMPDEST PUSH1 0x0 DUP5 DUP5 ADD MSTORE POP POP POP POP JUMP JUMPDEST PUSH1 0x0 PUSH1 0x1F NOT PUSH1 0x1F DUP4 ADD AND SWAP1 POP SWAP2 SWAP1 POP JUMP JUMPDEST PUSH1 0x0 PUSH2 0x1BF1 DUP3 PUSH2 0x1B8F JUMP JUMPDEST PUSH2 0x1BFB DUP2 DUP6 PUSH2 0x1B9A JUMP JUMPDEST SWAP4 POP PUSH2 0x1C0B DUP2 DUP6 PUSH1 0x20 DUP7 ADD PUSH2 0x1BAB JUMP JUMPDEST PUSH2 0x1C14 DUP2 PUSH2 0x1BD5 JUMP JUMPDEST DUP5 ADD SWAP2 POP POP SWAP3 SWAP2 POP POP JUMP JUMPDEST PUSH2 0x1C28 DUP2 PUSH2 0x1ACC JUMP JUMPDEST DUP3 MSTORE POP POP JUMP JUMPDEST PUSH1 0x0 DUP2 MLOAD SWAP1 POP SWAP2 SWAP1 POP JUMP JUMPDEST PUSH1 0x0 DUP3 DUP3 MSTORE PUSH1 0x20 DUP3 ADD SWAP1 POP SWAP3 SWAP2 POP POP JUMP JUMPDEST PUSH1 0x0 DUP2 SWAP1 POP PUSH1 0x20 DUP3 ADD SWAP1 POP SWAP2 SWAP1 POP JUMP JUMPDEST PUSH1 0x0 PUSH2 0x1C66 DUP4 DUP4 PUSH2 0x1C1F JUMP JUMPDEST PUSH1 0x20 DUP4 ADD SWAP1 POP SWAP3 SWAP2 POP POP JUMP JUMPDEST PUSH1 0x0 PUSH1 0x20 DUP3 ADD SWAP1 POP SWAP2 SWAP1 POP JUMP JUMPDEST PUSH1 0x0 PUSH2 0x1C8A DUP3 PUSH2 0x1C2E JUMP JUMPDEST PUSH2 0x1C94 DUP2 DUP6 PUSH2 0x1C39 JUMP JUMPDEST SWAP4 POP PUSH2 0x1C9F DUP4 PUSH2 0x1C4A JUMP JUMPDEST DUP1 PUSH1 0x0 JUMPDEST DUP4 DUP2 LT ISZERO PUSH2 0x1CD0 JUMPI DUP2 MLOAD PUSH2 0x1CB7 DUP9 DUP3 PUSH2 0x1C5A JUMP JUMPDEST SWAP8 POP PUSH2 0x1CC2 DUP4 PUSH2 0x1C72 JUMP JUMPDEST SWAP3 POP POP PUSH1 0x1 DUP2 ADD SWAP1 POP PUSH2 0x1CA3 JUMP JUMPDEST POP DUP6 SWAP4 POP POP POP POP SWAP3 SWAP2 POP POP JUMP JUMPDEST PUSH1 0x0 PUSH2 0x100 DUP4 ADD PUSH1 0x0 DUP4 ADD MLOAD PUSH2 0x1CF6 PUSH1 0x0 DUP7 ADD DUP3 PUSH2 0x1B80 JUMP JUMPDEST POP PUSH1 0x20 DUP4 ADD MLOAD DUP5 DUP3 SUB PUSH1 0x20 DUP7 ADD MSTORE PUSH2 0x1D0E DUP3 DUP3 PUSH2 0x1BE6 JUMP JUMPDEST SWAP2 POP POP PUSH1 0x40 DUP4 ADD MLOAD PUSH2 0x1D23 PUSH1 0x40 DUP7 ADD DUP3 PUSH2 0x1C1F JUMP JUMPDEST POP PUSH1 0x60 DUP4 ADD MLOAD PUSH2 0x1D36 PUSH1 0x60 DUP7 ADD DUP3 PUSH2 0x1B80 JUMP JUMPDEST POP PUSH1 0x80 DUP4 ADD MLOAD DUP5 DUP3 SUB PUSH1 0x80 DUP7 ADD MSTORE PUSH2 0x1D4E DUP3 DUP3 PUSH2 0x1C7F JUMP JUMPDEST SWAP2 POP POP PUSH1 0xA0 DUP4 ADD MLOAD PUSH2 0x1D63 PUSH1 0xA0 DUP7 ADD DUP3 PUSH2 0x1B80 JUMP JUMPDEST POP PUSH1 0xC0 DUP4 ADD MLOAD PUSH2 0x1D76 PUSH1 0xC0 DUP7 ADD DUP3 PUSH2 0x1B80 JUMP JUMPDEST POP PUSH1 0xE0 DUP4 ADD MLOAD DUP5 DUP3 SUB PUSH1 0xE0 DUP7 ADD MSTORE PUSH2 0x1D8E DUP3 DUP3 PUSH2 0x1C7F JUMP JUMPDEST SWAP2 POP POP DUP1 SWAP2 POP POP SWAP3 SWAP2 POP POP JUMP JUMPDEST PUSH1 0x0 PUSH1 0x20 DUP3 ADD SWAP1 POP DUP2 DUP2 SUB PUSH1 0x0 DUP4 ADD MSTORE PUSH2 0x1DB5 DUP2 DUP5 PUSH2 0x1CDD JUMP JUMPDEST SWAP1 POP SWAP3 SWAP2 POP POP JUMP JUMPDEST PUSH1 0x0 DUP2 MLOAD SWAP1 POP SWAP2 SWAP1 POP JUMP JUMPDEST PUSH1 0x0 DUP3 DUP3 MSTORE PUSH1 0x20 DUP3 ADD SWAP1 POP SWAP3 SWAP2 POP POP JUMP JUMPDEST PUSH1 0x0 DUP2 SWAP1 POP PUSH1 0x20 DUP3 ADD SWAP1 POP SWAP2 SWAP1 POP JUMP JUMPDEST PUSH1 0x0 PUSH2 0x100 DUP4 ADD PUSH1 0x0 DUP4 ADD MLOAD PUSH2 0x1E02 PUSH1 0x0 DUP7 ADD DUP3 PUSH2 0x1B80 JUMP JUMPDEST POP PUSH1 0x20 DUP4 ADD MLOAD DUP5 DUP3 SUB PUSH1 0x20 DUP7 ADD MSTORE PUSH2 0x1E1A DUP3 DUP3 PUSH2 0x1BE6 JUMP JUMPDEST SWAP2 POP POP PUSH1 0x40 DUP4 ADD MLOAD PUSH2 0x1E2F PUSH1 0x40 DUP7 ADD DUP3 PUSH2 0x1C1F JUMP JUMPDEST POP PUSH1 0x60 DUP4 ADD MLOAD PUSH2 0x1E42 PUSH1 0x60 DUP7 ADD DUP3 PUSH2 0x1B80 JUMP JUMPDEST POP PUSH1 0x80 DUP4 ADD MLOAD DUP5 DUP3 SUB PUSH1 0x80 DUP7 ADD MSTORE PUSH2 0x1E5A DUP3 DUP3 PUSH2 0x1C7F JUMP JUMPDEST SWAP2 POP POP PUSH1 0xA0 DUP4 ADD MLOAD PUSH2 0x1E6F PUSH1 0xA0 DUP7 ADD DUP3 PUSH2 0x1B80 JUMP JUMPDEST POP PUSH1 0xC0 DUP4 ADD MLOAD PUSH2 0x1E82 PUSH1 0xC0 DUP7 ADD DUP3 PUSH2 0x1B80 JUMP JUMPDEST POP PUSH1 0xE0 DUP4 ADD MLOAD DUP5 DUP3 SUB PUSH1 0xE0 DUP7 ADD MSTORE PUSH2 0x1E9A DUP3 DUP3 PUSH2 0x1C7F JUMP JUMPDEST SWAP2 POP POP DUP1 SWAP2 POP POP SWAP3 SWAP2 POP POP JUMP JUMPDEST PUSH1 0x0 PUSH2 0x1EB3 DUP4 DUP4 PUSH2 0x1DE9 JUMP JUMPDEST SWAP1 POP SWAP3 SWAP2 POP POP JUMP JUMPDEST PUSH1 0x0 PUSH1 0x20 DUP3 ADD SWAP1 POP SWAP2 SWAP1 POP JUMP JUMPDEST PUSH1 0x0 PUSH2 0x1ED3 DUP3 PUSH2 0x1DBD JUMP JUMPDEST PUSH2 0x1EDD DUP2 DUP6 PUSH2 0x1DC8 JUMP JUMPDEST SWAP4 POP DUP4 PUSH1 0x20 DUP3 MUL DUP6 ADD PUSH2 0x1EEF DUP6 PUSH2 0x1DD9 JUMP JUMPDEST DUP1 PUSH1 0x0 JUMPDEST DUP6 DUP2 LT ISZERO PUSH2 0x1F2B JUMPI DUP5 DUP5 SUB DUP10 MSTORE DUP2 MLOAD PUSH2 0x1F0C DUP6 DUP3 PUSH2 0x1EA7 JUMP JUMPDEST SWAP5 POP PUSH2 0x1F17 DUP4 PUSH2 0x1EBB JUMP JUMPDEST SWAP3 POP PUSH1 0x20 DUP11 ADD SWAP10 POP POP PUSH1 0x1 DUP2 ADD SWAP1 POP PUSH2 0x1EF3 JUMP JUMPDEST POP DUP3 SWAP8 POP DUP8 SWAP6 POP POP POP POP POP POP SWAP3 SWAP2 POP POP JUMP JUMPDEST PUSH1 0x0 PUSH1 0x20 DUP3 ADD SWAP1 POP DUP2 DUP2 SUB PUSH1 0x0 DUP4 ADD MSTORE PUSH2 0x1F57 DUP2 DUP5 PUSH2 0x1EC8 JUMP JUMPDEST SWAP1 POP SWAP3 SWAP2 POP POP JUMP JUMPDEST PUSH1 0x0 DUP1 REVERT JUMPDEST PUSH1 0x0 DUP1 REVERT JUMPDEST PUSH32 0x4E487B7100000000000000000000000000000000000000000000000000000000 PUSH1 0x0 MSTORE PUSH1 0x41 PUSH1 0x4 MSTORE PUSH1 0x24 PUSH1 0x0 REVERT JUMPDEST PUSH2 0x1FA1 DUP3 PUSH2 0x1BD5 JUMP JUMPDEST DUP2 ADD DUP2 DUP2 LT PUSH8 0xFFFFFFFFFFFFFFFF DUP3 GT OR ISZERO PUSH2 0x1FC0 JUMPI PUSH2 0x1FBF PUSH2 0x1F69 JUMP JUMPDEST JUMPDEST DUP1 PUSH1 0x40 MSTORE POP POP POP JUMP JUMPDEST PUSH1 0x0 PUSH2 0x1FD3 PUSH2 0x1A98 JUMP JUMPDEST SWAP1 POP PUSH2 0x1FDF DUP3 DUP3 PUSH2 0x1F98 JUMP JUMPDEST SWAP2 SWAP1 POP JUMP JUMPDEST PUSH1 0x0 PUSH8 0xFFFFFFFFFFFFFFFF DUP3 GT ISZERO PUSH2 0x1FFF JUMPI PUSH2 0x1FFE PUSH2 0x1F69 JUMP JUMPDEST JUMPDEST PUSH2 0x2008 DUP3 PUSH2 0x1BD5 JUMP JUMPDEST SWAP1 POP PUSH1 0x20 DUP2 ADD SWAP1 POP SWAP2 SWAP1 POP JUMP JUMPDEST DUP3 DUP2 DUP4 CALLDATACOPY PUSH1 0x0 DUP4 DUP4 ADD MSTORE POP POP POP JUMP JUMPDEST PUSH1 0x0 PUSH2 0x2037 PUSH2 0x2032 DUP5 PUSH2 0x1FE4 JUMP JUMPDEST PUSH2 0x1FC9 JUMP JUMPDEST SWAP1 POP DUP3 DUP2 MSTORE PUSH1 0x20 DUP2 ADD DUP5 DUP5 DUP5 ADD GT ISZERO PUSH2 0x2053 JUMPI PUSH2 0x2052 PUSH2 0x1F64 JUMP JUMPDEST JUMPDEST PUSH2 0x205E DUP5 DUP3 DUP6 PUSH2 0x2015 JUMP JUMPDEST POP SWAP4 SWAP3 POP POP POP JUMP JUMPDEST PUSH1 0x0 DUP3 PUSH1 0x1F DUP4 ADD SLT PUSH2 0x207B JUMPI PUSH2 0x207A PUSH2 0x1F5F JUMP JUMPDEST JUMPDEST DUP2 CALLDATALOAD PUSH2 0x208B DUP5 DUP3 PUSH1 0x20 DUP7 ADD PUSH2 0x2024 JUMP JUMPDEST SWAP2 POP POP SWAP3 SWAP2 POP POP JUMP JUMPDEST PUSH1 0x0 PUSH1 0x20 DUP3 DUP5 SUB SLT ISZERO PUSH2 0x20AA JUMPI PUSH2 0x20A9 PUSH2 0x1AA2 JUMP JUMPDEST JUMPDEST PUSH1 0x0 DUP3 ADD CALLDATALOAD PUSH8 0xFFFFFFFFFFFFFFFF DUP2 GT ISZERO PUSH2 0x20C8 JUMPI PUSH2 0x20C7 PUSH2 0x1AA7 JUMP JUMPDEST JUMPDEST PUSH2 0x20D4 DUP5 DUP3 DUP6 ADD PUSH2 0x2066 JUMP JUMPDEST SWAP2 POP POP SWAP3 SWAP2 POP POP JUMP JUMPDEST PUSH1 0x0 PUSH1 0x20 DUP3 DUP5 SUB SLT ISZERO PUSH2 0x20F3 JUMPI PUSH2 0x20F2 PUSH2 0x1AA2 JUMP JUMPDEST JUMPDEST PUSH1 0x0 PUSH2 0x2101 DUP5 DUP3 DUP6 ADD PUSH2 0x1B2B JUMP JUMPDEST SWAP2 POP POP SWAP3 SWAP2 POP POP JUMP JUMPDEST PUSH1 0x0 DUP3 DUP3 MSTORE PUSH1 0x20 DUP3 ADD SWAP1 POP SWAP3 SWAP2 POP POP JUMP JUMPDEST PUSH32 0x54686973205477656574204E6F74204578697374202100000000000000000000 PUSH1 0x0 DUP3 ADD MSTORE POP JUMP JUMPDEST PUSH1 0x0 PUSH2 0x2151 PUSH1 0x16 DUP4 PUSH2 0x210A JUMP JUMPDEST SWAP2 POP PUSH2 0x215C DUP3 PUSH2 0x211B JUMP JUMPDEST PUSH1 0x20 DUP3 ADD SWAP1 POP SWAP2 SWAP1 POP JUMP JUMPDEST PUSH1 0x0 PUSH1 0x20 DUP3 ADD SWAP1 POP DUP2 DUP2 SUB PUSH1 0x0 DUP4 ADD MSTORE PUSH2 0x2180 DUP2 PUSH2 0x2144 JUMP JUMPDEST SWAP1 POP SWAP2 SWAP1 POP JUMP JUMPDEST PUSH32 0x4E487B7100000000000000000000000000000000000000000000000000000000 PUSH1 0x0 MSTORE PUSH1 0x11 PUSH1 0x4 MSTORE PUSH1 0x24 PUSH1 0x0 REVERT JUMPDEST PUSH1 0x0 PUSH2 0x21C1 DUP3 PUSH2 0x1B0A JUMP JUMPDEST SWAP2 POP PUSH2 0x21CC DUP4 PUSH2 0x1B0A JUMP JUMPDEST SWAP3 POP DUP3 DUP3 SUB SWAP1 POP DUP2 DUP2 GT ISZERO PUSH2 0x21E4 JUMPI PUSH2 0x21E3 PUSH2 0x2187 JUMP JUMPDEST JUMPDEST SWAP3 SWAP2 POP POP JUMP JUMPDEST PUSH32 0x4E487B7100000000000000000000000000000000000000000000000000000000 PUSH1 0x0 MSTORE PUSH1 0x32 PUSH1 0x4 MSTORE PUSH1 0x24 PUSH1 0x0 REVERT JUMPDEST PUSH1 0x0 PUSH2 0x2224 DUP3 PUSH2 0x1B0A JUMP JUMPDEST SWAP2 POP PUSH32 0xFFFFFFFFFFFFFFFFFFFFFFFFFFFFFFFFFFFFFFFFFFFFFFFFFFFFFFFFFFFFFFFF DUP3 SUB PUSH2 0x2256 JUMPI PUSH2 0x2255 PUSH2 0x2187 JUMP JUMPDEST JUMPDEST PUSH1 0x1 DUP3 ADD SWAP1 POP SWAP2 SWAP1 POP JUMP JUMPDEST PUSH32 0x596F7520416C7265616479204C696B6564207468652074776565742100000000 PUSH1 0x0 DUP3 ADD MSTORE POP JUMP JUMPDEST PUSH1 0x0 PUSH2 0x2297 PUSH1 0x1C DUP4 PUSH2 0x210A JUMP JUMPDEST SWAP2 POP PUSH2 0x22A2 DUP3 PUSH2 0x2261 JUMP JUMPDEST PUSH1 0x20 DUP3 ADD SWAP1 POP SWAP2 SWAP1 POP JUMP JUMPDEST PUSH1 0x0 PUSH1 0x20 DUP3 ADD SWAP1 POP DUP2 DUP2 SUB PUSH1 0x0 DUP4 ADD MSTORE PUSH2 0x22C6 DUP2 PUSH2 0x228A JUMP JUMPDEST SWAP1 POP SWAP2 SWAP1 POP JUMP JUMPDEST PUSH32 0x596F7520416C726561647920556E4C696B656420746865207477656574210000 PUSH1 0x0 DUP3 ADD MSTORE POP JUMP JUMPDEST PUSH1 0x0 PUSH2 0x2303 PUSH1 0x1E DUP4 PUSH2 0x210A JUMP JUMPDEST SWAP2 POP PUSH2 0x230E DUP3 PUSH2 0x22CD JUMP JUMPDEST PUSH1 0x20 DUP3 ADD SWAP1 POP SWAP2 SWAP1 POP JUMP JUMPDEST PUSH1 0x0 PUSH1 0x20 DUP3 ADD SWAP1 POP DUP2 DUP2 SUB PUSH1 0x0 DUP4 ADD MSTORE PUSH2 0x2332 DUP2 PUSH2 0x22F6 JUMP JUMPDEST SWAP1 POP SWAP2 SWAP1 POP JUMP JUMPDEST PUSH32 0x5468697320697320596F757220547765657421596F752063616E6E2774204C69 PUSH1 0x0 DUP3 ADD MSTORE PUSH32 0x6B6520596F757220547765657421000000000000000000000000000000000000 PUSH1 0x20 DUP3 ADD MSTORE POP JUMP JUMPDEST PUSH1 0x0 PUSH2 0x2395 PUSH1 0x2E DUP4 PUSH2 0x210A JUMP JUMPDEST SWAP2 POP PUSH2 0x23A0 DUP3 PUSH2 0x2339 JUMP JUMPDEST PUSH1 0x40 DUP3 ADD SWAP1 POP SWAP2 SWAP1 POP JUMP JUMPDEST PUSH1 0x0 PUSH1 0x20 DUP3 ADD SWAP1 POP DUP2 DUP2 SUB PUSH1 0x0 DUP4 ADD MSTORE PUSH2 0x23C4 DUP2 PUSH2 0x2388 JUMP JUMPDEST SWAP1 POP SWAP2 SWAP1 POP JUMP JUMPDEST PUSH32 0x4E487B7100000000000000000000000000000000000000000000000000000000 PUSH1 0x0 MSTORE PUSH1 0x22 PUSH1 0x4 MSTORE PUSH1 0x24 PUSH1 0x0 REVERT JUMPDEST PUSH1 0x0 PUSH1 0x2 DUP3 DIV SWAP1 POP PUSH1 0x1 DUP3 AND DUP1 PUSH2 0x2412 JUMPI PUSH1 0x7F DUP3 AND SWAP2 POP JUMPDEST PUSH1 0x20 DUP3 LT DUP2 SUB PUSH2 0x2425 JUMPI PUSH2 0x2424 PUSH2 0x23CB JUMP JUMPDEST JUMPDEST POP SWAP2 SWAP1 POP JUMP JUMPDEST PUSH32 0x4E487B7100000000000000000000000000000000000000000000000000000000 PUSH1 0x0 MSTORE PUSH1 0x31 PUSH1 0x4 MSTORE PUSH1 0x24 PUSH1 0x0 REVERT JUMPDEST PUSH32 0x5477656574204C656E6774682069732045786365656421000000000000000000 PUSH1 0x0 DUP3 ADD MSTORE POP JUMP JUMPDEST PUSH1 0x0 PUSH2 0x2490 PUSH1 0x17 DUP4 PUSH2 0x210A JUMP JUMPDEST SWAP2 POP PUSH2 0x249B DUP3 PUSH2 0x245A JUMP JUMPDEST PUSH1 0x20 DUP3 ADD SWAP1 POP SWAP2 SWAP1 POP JUMP JUMPDEST PUSH1 0x0 PUSH1 0x20 DUP3 ADD SWAP1 POP DUP2 DUP2 SUB PUSH1 0x0 DUP4 ADD MSTORE PUSH2 0x24BF DUP2 PUSH2 0x2483 JUMP JUMPDEST SWAP1 POP SWAP2 SWAP1 POP JUMP JUMPDEST PUSH1 0x0 PUSH2 0x24D1 DUP3 PUSH2 0x1B0A JUMP JUMPDEST SWAP2 POP PUSH2 0x24DC DUP4 PUSH2 0x1B0A JUMP JUMPDEST SWAP3 POP DUP3 DUP3 ADD SWAP1 POP DUP1 DUP3 GT ISZERO PUSH2 0x24F4 JUMPI PUSH2 0x24F3 PUSH2 0x2187 JUMP JUMPDEST JUMPDEST SWAP3 SWAP2 POP POP JUMP JUMPDEST PUSH1 0x0 DUP2 SWAP1 POP DUP2 PUSH1 0x0 MSTORE PUSH1 0x20 PUSH1 0x0 KECCAK256 SWAP1 POP SWAP2 SWAP1 POP JUMP JUMPDEST PUSH1 0x0 PUSH1 0x20 PUSH1 0x1F DUP4 ADD DIV SWAP1 POP SWAP2 SWAP1 POP JUMP JUMPDEST PUSH1 0x0 DUP3 DUP3 SHL SWAP1 POP SWAP3 SWAP2 POP POP JUMP JUMPDEST PUSH1 0x0 PUSH1 0x8 DUP4 MUL PUSH2 0x255C PUSH32 0xFFFFFFFFFFFFFFFFFFFFFFFFFFFFFFFFFFFFFFFFFFFFFFFFFFFFFFFFFFFFFFFF DUP3 PUSH2 0x251F JUMP JUMPDEST PUSH2 0x2566 DUP7 DUP4 PUSH2 0x251F JUMP JUMPDEST SWAP6 POP DUP1 NOT DUP5 AND SWAP4 POP DUP1 DUP7 AND DUP5 OR SWAP3 POP POP POP SWAP4 SWAP3 POP POP POP JUMP JUMPDEST PUSH1 0x0 DUP2 SWAP1 POP SWAP2 SWAP1 POP JUMP JUMPDEST PUSH1 0x0 PUSH2 0x25A3 PUSH2 0x259E PUSH2 0x2599 DUP5 PUSH2 0x1B0A JUMP JUMPDEST PUSH2 0x257E JUMP JUMPDEST PUSH2 0x1B0A JUMP JUMPDEST SWAP1 POP SWAP2 SWAP1 POP JUMP JUMPDEST PUSH1 0x0 DUP2 SWAP1 POP SWAP2 SWAP1 POP JUMP JUMPDEST PUSH2 0x25BD DUP4 PUSH2 0x2588 JUMP JUMPDEST PUSH2 0x25D1 PUSH2 0x25C9 DUP3 PUSH2 0x25AA JUMP JUMPDEST DUP5 DUP5 SLOAD PUSH2 0x252C JUMP JUMPDEST DUP3 SSTORE POP POP POP POP JUMP JUMPDEST PUSH1 0x0 SWAP1 JUMP JUMPDEST PUSH2 0x25E6 PUSH2 0x25D9 JUMP JUMPDEST PUSH2 0x25F1 DUP2 DUP5 DUP5 PUSH2 0x25B4 JUMP JUMPDEST POP POP POP JUMP JUMPDEST JUMPDEST DUP2 DUP2 LT ISZERO PUSH2 0x2615 JUMPI PUSH2 0x260A PUSH1 0x0 DUP3 PUSH2 0x25DE JUMP JUMPDEST PUSH1 0x1 DUP2 ADD SWAP1 POP PUSH2 0x25F7 JUMP JUMPDEST POP POP JUMP JUMPDEST PUSH1 0x1F DUP3 GT ISZERO PUSH2 0x265A JUMPI PUSH2 0x262B DUP2 PUSH2 0x24FA JUMP JUMPDEST PUSH2 0x2634 DUP5 PUSH2 0x250F JUMP JUMPDEST DUP2 ADD PUSH1 0x20 DUP6 LT ISZERO PUSH2 0x2643 JUMPI DUP2 SWAP1 POP JUMPDEST PUSH2 0x2657 PUSH2 0x264F DUP6 PUSH2 0x250F JUMP JUMPDEST DUP4 ADD DUP3 PUSH2 0x25F6 JUMP JUMPDEST POP POP JUMPDEST POP POP POP JUMP JUMPDEST PUSH1 0x0 DUP3 DUP3 SHR SWAP1 POP SWAP3 SWAP2 POP POP JUMP JUMPDEST PUSH1 0x0 PUSH2 0x267D PUSH1 0x0 NOT DUP5 PUSH1 0x8 MUL PUSH2 0x265F JUMP JUMPDEST NOT DUP1 DUP4 AND SWAP2 POP POP SWAP3 SWAP2 POP POP JUMP JUMPDEST PUSH1 0x0 PUSH2 0x2696 DUP4 DUP4 PUSH2 0x266C JUMP JUMPDEST SWAP2 POP DUP3 PUSH1 0x2 MUL DUP3 OR SWAP1 POP SWAP3 SWAP2 POP POP JUMP JUMPDEST PUSH2 0x26AF DUP3 PUSH2 0x1B8F JUMP JUMPDEST PUSH8 0xFFFFFFFFFFFFFFFF DUP2 GT ISZERO PUSH2 0x26C8 JUMPI PUSH2 0x26C7 PUSH2 0x1F69 JUMP JUMPDEST JUMPDEST PUSH2 0x26D2 DUP3 SLOAD PUSH2 0x23FA JUMP JUMPDEST PUSH2 0x26DD DUP3 DUP3 DUP6 PUSH2 0x2619 JUMP JUMPDEST PUSH1 0x0 PUSH1 0x20 SWAP1 POP PUSH1 0x1F DUP4 GT PUSH1 0x1 DUP2 EQ PUSH2 0x2710 JUMPI PUSH1 0x0 DUP5 ISZERO PUSH2 0x26FE JUMPI DUP3 DUP8 ADD MLOAD SWAP1 POP JUMPDEST PUSH2 0x2708 DUP6 DUP3 PUSH2 0x268A JUMP JUMPDEST DUP7 SSTORE POP PUSH2 0x2770 JUMP JUMPDEST PUSH1 0x1F NOT DUP5 AND PUSH2 0x271E DUP7 PUSH2 0x24FA JUMP JUMPDEST PUSH1 0x0 JUMPDEST DUP3 DUP2 LT ISZERO PUSH2 0x2746 JUMPI DUP5 DUP10 ADD MLOAD DUP3 SSTORE PUSH1 0x1 DUP3 ADD SWAP2 POP PUSH1 0x20 DUP6 ADD SWAP5 POP PUSH1 0x20 DUP2 ADD SWAP1 POP PUSH2 0x2721 JUMP JUMPDEST DUP7 DUP4 LT ISZERO PUSH2 0x2763 JUMPI DUP5 DUP10 ADD MLOAD PUSH2 0x275F PUSH1 0x1F DUP10 AND DUP3 PUSH2 0x266C JUMP JUMPDEST DUP4 SSTORE POP JUMPDEST PUSH1 0x1 PUSH1 0x2 DUP9 MUL ADD DUP9 SSTORE POP POP POP JUMPDEST POP POP POP POP POP POP JUMP JUMPDEST PUSH32 0x596F7520617265206E6F742061204F776E6572215065726D697373696F6E2044 PUSH1 0x0 DUP3 ADD MSTORE PUSH32 0x656E696564210000000000000000000000000000000000000000000000000000 PUSH1 0x20 DUP3 ADD MSTORE POP JUMP JUMPDEST PUSH1 0x0 PUSH2 0x27D4 PUSH1 0x26 DUP4 PUSH2 0x210A JUMP JUMPDEST SWAP2 POP PUSH2 0x27DF DUP3 PUSH2 0x2778 JUMP JUMPDEST PUSH1 0x40 DUP3 ADD SWAP1 POP SWAP2 SWAP1 POP JUMP JUMPDEST PUSH1 0x0 PUSH1 0x20 DUP3 ADD SWAP1 POP DUP2 DUP2 SUB PUSH1 0x0 DUP4 ADD MSTORE PUSH2 0x2803 DUP2 PUSH2 0x27C7 JUMP JUMPDEST SWAP1 POP SWAP2 SWAP1 POP JUMP INVALID LOG2 PUSH5 0x6970667358 0x22 SLT KECCAK256 MSIZE SIGNEXTEND 0xE6 PUSH21 0x5D4D6458106FD6F6E1F401756FB2588FB4CF4E33 0xD1 0x4F PUSH20 0x37B3E2A664736F6C634300081200330000000000 "
				},
				"gasEstimates": {
					"creation": {
						"codeDepositCost": "2060800",
						"executionCost": "48557",
						"totalCost": "2109357"
					},
					"external": {
						"ChangeTweetLength(uint256)": "24753",
						"DeleteAllTweets()": "infinite",
						"DeleteRecentTweet()": "infinite",
						"GetAllTweets()": "infinite",
						"GetTweet(address,uint256)": "infinite",
						"LikesTweet(address,uint256)": "infinite",
						"UnlikeTweet(address,uint256)": "infinite",
						"createTweet(string)": "infinite"
					}
				},
				"methodIdentifiers": {
					"ChangeTweetLength(uint256)": "e479c244",
					"DeleteAllTweets()": "765fab45",
					"DeleteRecentTweet()": "71e7eb12",
					"GetAllTweets()": "42d7fbc0",
					"GetTweet(address,uint256)": "37f36a4c",
					"LikesTweet(address,uint256)": "1216cdc5",
					"UnlikeTweet(address,uint256)": "a110e72d",
					"createTweet(string)": "7c9cd2bc"
				}
			},
			"storageLayout": {
				"storage": [
					{
						"astId": 3,
						"contract": "contracts/Twitter0.5v.sol:Twitter",
						"label": "owner",
						"offset": 0,
						"slot": "0",
						"type": "t_address"
					},
					{
						"astId": 34,
						"contract": "contracts/Twitter0.5v.sol:Twitter",
						"label": "TweetLength",
						"offset": 0,
						"slot": "1",
						"type": "t_uint256"
					},
					{
						"astId": 61,
						"contract": "contracts/Twitter0.5v.sol:Twitter",
						"label": "li",
						"offset": 0,
						"slot": "2",
						"type": "t_array(t_address)dyn_storage"
					},
					{
						"astId": 67,
						"contract": "contracts/Twitter0.5v.sol:Twitter",
						"label": "Tweet_info",
						"offset": 0,
						"slot": "3",
						"type": "t_mapping(t_address,t_array(t_struct(Tweet)22_storage)dyn_storage)"
					}
				],
				"types": {
					"t_address": {
						"encoding": "inplace",
						"label": "address",
						"numberOfBytes": "20"
					},
					"t_array(t_address)dyn_storage": {
						"base": "t_address",
						"encoding": "dynamic_array",
						"label": "address[]",
						"numberOfBytes": "32"
					},
					"t_array(t_struct(Tweet)22_storage)dyn_storage": {
						"base": "t_struct(Tweet)22_storage",
						"encoding": "dynamic_array",
						"label": "struct Twitter.Tweet[]",
						"numberOfBytes": "32"
					},
					"t_mapping(t_address,t_array(t_struct(Tweet)22_storage)dyn_storage)": {
						"encoding": "mapping",
						"key": "t_address",
						"label": "mapping(address => struct Twitter.Tweet[])",
						"numberOfBytes": "32",
						"value": "t_array(t_struct(Tweet)22_storage)dyn_storage"
					},
					"t_string_storage": {
						"encoding": "bytes",
						"label": "string",
						"numberOfBytes": "32"
					},
					"t_struct(Tweet)22_storage": {
						"encoding": "inplace",
						"label": "struct Twitter.Tweet",
						"members": [
							{
								"astId": 5,
								"contract": "contracts/Twitter0.5v.sol:Twitter",
								"label": "id",
								"offset": 0,
								"slot": "0",
								"type": "t_uint256"
							},
							{
								"astId": 7,
								"contract": "contracts/Twitter0.5v.sol:Twitter",
								"label": "content",
								"offset": 0,
								"slot": "1",
								"type": "t_string_storage"
							},
							{
								"astId": 9,
								"contract": "contracts/Twitter0.5v.sol:Twitter",
								"label": "author",
								"offset": 0,
								"slot": "2",
								"type": "t_address"
							},
							{
								"astId": 11,
								"contract": "contracts/Twitter0.5v.sol:Twitter",
								"label": "timestamp",
								"offset": 0,
								"slot": "3",
								"type": "t_uint256"
							},
							{
								"astId": 14,
								"contract": "contracts/Twitter0.5v.sol:Twitter",
								"label": "likes",
								"offset": 0,
								"slot": "4",
								"type": "t_array(t_address)dyn_storage"
							},
							{
								"astId": 16,
								"contract": "contracts/Twitter0.5v.sol:Twitter",
								"label": "LikesCount",
								"offset": 0,
								"slot": "5",
								"type": "t_uint256"
							},
							{
								"astId": 18,
								"contract": "contracts/Twitter0.5v.sol:Twitter",
								"label": "unlikescount",
								"offset": 0,
								"slot": "6",
								"type": "t_uint256"
							},
							{
								"astId": 21,
								"contract": "contracts/Twitter0.5v.sol:Twitter",
								"label": "unlikes",
								"offset": 0,
								"slot": "7",
								"type": "t_array(t_address)dyn_storage"
							}
						],
						"numberOfBytes": "256"
					},
					"t_uint256": {
						"encoding": "inplace",
						"label": "uint256",
						"numberOfBytes": "32"
					}
				}
			},
			"userdoc": {
				"kind": "user",
				"methods": {},
				"version": 1
			}
		}
	}
}