{
	"contracts/Twitter0.6.sol": {
		"Twitter": {
			"abi": [
				{
					"inputs": [],
					"stateMutability": "nonpayable",
					"type": "constructor"
				},
				{
					"anonymous": false,
					"inputs": [
						{
							"indexed": false,
							"internalType": "uint256",
							"name": "id",
							"type": "uint256"
						},
						{
							"indexed": false,
							"internalType": "address",
							"name": "author",
							"type": "address"
						},
						{
							"indexed": false,
							"internalType": "string",
							"name": "content",
							"type": "string"
						},
						{
							"indexed": false,
							"internalType": "uint256",
							"name": "timestamp",
							"type": "uint256"
						}
					],
					"name": "TweetCreated",
					"type": "event"
				},
				{
					"anonymous": false,
					"inputs": [
						{
							"indexed": false,
							"internalType": "address",
							"name": "liker",
							"type": "address"
						},
						{
							"indexed": false,
							"internalType": "address",
							"name": "author",
							"type": "address"
						},
						{
							"indexed": false,
							"internalType": "uint256",
							"name": "likecount",
							"type": "uint256"
						},
						{
							"indexed": false,
							"internalType": "uint256",
							"name": "id",
							"type": "uint256"
						}
					],
					"name": "TweetLiked",
					"type": "event"
				},
				{
					"inputs": [
						{
							"internalType": "uint256",
							"name": "newTweetLen",
							"type": "uint256"
						}
					],
					"name": "ChangeTweetLength",
					"outputs": [],
					"stateMutability": "nonpayable",
					"type": "function"
				},
				{
					"inputs": [],
					"name": "DeleteAllTweets",
					"outputs": [],
					"stateMutability": "nonpayable",
					"type": "function"
				},
				{
					"inputs": [],
					"name": "DeleteRecentTweet",
					"outputs": [],
					"stateMutability": "nonpayable",
					"type": "function"
				},
				{
					"inputs": [],
					"name": "GetAllTweets",
					"outputs": [
						{
							"components": [
								{
									"internalType": "uint256",
									"name": "id",
									"type": "uint256"
								},
								{
									"internalType": "string",
									"name": "content",
									"type": "string"
								},
								{
									"internalType": "address",
									"name": "author",
									"type": "address"
								},
								{
									"internalType": "uint256",
									"name": "timestamp",
									"type": "uint256"
								},
								{
									"internalType": "address[]",
									"name": "likes",
									"type": "address[]"
								},
								{
									"internalType": "uint256",
									"name": "LikesCount",
									"type": "uint256"
								},
								{
									"internalType": "uint256",
									"name": "unlikescount",
									"type": "uint256"
								},
								{
									"internalType": "address[]",
									"name": "unlikes",
									"type": "address[]"
								}
							],
							"internalType": "struct Twitter.Tweet[]",
							"name": "",
							"type": "tuple[]"
						}
					],
					"stateMutability": "view",
					"type": "function"
				},
				{
					"inputs": [
						{
							"internalType": "address",
							"name": "User",
							"type": "address"
						},
						{
							"internalType": "uint256",
							"name": "Index",
							"type": "uint256"
						}
					],
					"name": "GetTweet",
					"outputs": [
						{
							"components": [
								{
									"internalType": "uint256",
									"name": "id",
									"type": "uint256"
								},
								{
									"internalType": "string",
									"name": "content",
									"type": "string"
								},
								{
									"internalType": "address",
									"name": "author",
									"type": "address"
								},
								{
									"internalType": "uint256",
									"name": "timestamp",
									"type": "uint256"
								},
								{
									"internalType": "address[]",
									"name": "likes",
									"type": "address[]"
								},
								{
									"internalType": "uint256",
									"name": "LikesCount",
									"type": "uint256"
								},
								{
									"internalType": "uint256",
									"name": "unlikescount",
									"type": "uint256"
								},
								{
									"internalType": "address[]",
									"name": "unlikes",
									"type": "address[]"
								}
							],
							"internalType": "struct Twitter.Tweet",
							"name": "",
							"type": "tuple"
						}
					],
					"stateMutability": "view",
					"type": "function"
				},
				{
					"inputs": [
						{
							"internalType": "address",
							"name": "User",
							"type": "address"
						},
						{
							"internalType": "uint256",
							"name": "TweetIndex",
							"type": "uint256"
						}
					],
					"name": "LikesTweet",
					"outputs": [],
					"stateMutability": "nonpayable",
					"type": "function"
				},
				{
					"inputs": [
						{
							"internalType": "address",
							"name": "User",
							"type": "address"
						},
						{
							"internalType": "uint256",
							"name": "TweetIndex",
							"type": "uint256"
						}
					],
					"name": "UnlikeTweet",
					"outputs": [],
					"stateMutability": "nonpayable",
					"type": "function"
				},
				{
					"inputs": [
						{
							"internalType": "string",
							"name": "_tweet",
							"type": "string"
						}
					],
					"name": "createTweet",
					"outputs": [],
					"stateMutability": "nonpayable",
					"type": "function"
				}
			],
			"devdoc": {
				"kind": "dev",
				"methods": {},
				"version": 1
			},
			"evm": {
				"assembly": "    /* \"contracts/Twitter0.6.sol\":392:4958  contract Twitter... */\n  mstore(0x40, 0x80)\n    /* \"contracts/Twitter0.6.sol\":1033:1035  10 */\n  0x0a\n    /* \"contracts/Twitter0.6.sol\":1011:1035  uint256 TweetLength = 10 */\n  0x01\n  sstore\n    /* \"contracts/Twitter0.6.sol\":712:768  constructor()... */\n  callvalue\n  dup1\n  iszero\n  tag_1\n  jumpi\n  0x00\n  dup1\n  revert\ntag_1:\n  pop\n    /* \"contracts/Twitter0.6.sol\":750:760  msg.sender */\n  caller\n    /* \"contracts/Twitter0.6.sol\":742:747  owner */\n  0x00\n  dup1\n    /* \"contracts/Twitter0.6.sol\":742:760  owner = msg.sender */\n  0x0100\n  exp\n  dup2\n  sload\n  dup2\n  0xffffffffffffffffffffffffffffffffffffffff\n  mul\n  not\n  and\n  swap1\n  dup4\n  0xffffffffffffffffffffffffffffffffffffffff\n  and\n  mul\n  or\n  swap1\n  sstore\n  pop\n    /* \"contracts/Twitter0.6.sol\":392:4958  contract Twitter... */\n  dataSize(sub_0)\n  dup1\n  dataOffset(sub_0)\n  0x00\n  codecopy\n  0x00\n  return\nstop\n\nsub_0: assembly {\n        /* \"contracts/Twitter0.6.sol\":392:4958  contract Twitter... */\n      mstore(0x40, 0x80)\n      callvalue\n      dup1\n      iszero\n      tag_1\n      jumpi\n      0x00\n      dup1\n      revert\n    tag_1:\n      pop\n      jumpi(tag_2, lt(calldatasize, 0x04))\n      shr(0xe0, calldataload(0x00))\n      dup1\n      0x765fab45\n      gt\n      tag_11\n      jumpi\n      dup1\n      0x765fab45\n      eq\n      tag_7\n      jumpi\n      dup1\n      0x7c9cd2bc\n      eq\n      tag_8\n      jumpi\n      dup1\n      0xa110e72d\n      eq\n      tag_9\n      jumpi\n      dup1\n      0xe479c244\n      eq\n      tag_10\n      jumpi\n      jump(tag_2)\n    tag_11:\n      dup1\n      0x1216cdc5\n      eq\n      tag_3\n      jumpi\n      dup1\n      0x37f36a4c\n      eq\n      tag_4\n      jumpi\n      dup1\n      0x42d7fbc0\n      eq\n      tag_5\n      jumpi\n      dup1\n      0x71e7eb12\n      eq\n      tag_6\n      jumpi\n    tag_2:\n      0x00\n      dup1\n      revert\n        /* \"contracts/Twitter0.6.sol\":4084:4567  function LikesTweet(address User,uint256 TweetIndex)external ... */\n    tag_3:\n      tag_12\n      0x04\n      dup1\n      calldatasize\n      sub\n      dup2\n      add\n      swap1\n      tag_13\n      swap2\n      swap1\n      tag_14\n      jump\t// in\n    tag_13:\n      tag_15\n      jump\t// in\n    tag_12:\n      stop\n        /* \"contracts/Twitter0.6.sol\":3759:3892  function GetTweet(address User,uint Index)public view returns (Tweet memory)... */\n    tag_4:\n      tag_16\n      0x04\n      dup1\n      calldatasize\n      sub\n      dup2\n      add\n      swap1\n      tag_17\n      swap2\n      swap1\n      tag_14\n      jump\t// in\n    tag_17:\n      tag_18\n      jump\t// in\n    tag_16:\n      mload(0x40)\n      tag_19\n      swap2\n      swap1\n      tag_20\n      jump\t// in\n    tag_19:\n      mload(0x40)\n      dup1\n      swap2\n      sub\n      swap1\n      return\n        /* \"contracts/Twitter0.6.sol\":3638:3751  function GetAllTweets() public view returns(Tweet[] memory)... */\n    tag_5:\n      tag_21\n      tag_22\n      jump\t// in\n    tag_21:\n      mload(0x40)\n      tag_23\n      swap2\n      swap1\n      tag_24\n      jump\t// in\n    tag_23:\n      mload(0x40)\n      dup1\n      swap2\n      sub\n      swap1\n      return\n        /* \"contracts/Twitter0.6.sol\":3900:3987  function DeleteRecentTweet()public... */\n    tag_6:\n      tag_25\n      tag_26\n      jump\t// in\n    tag_25:\n      stop\n        /* \"contracts/Twitter0.6.sol\":3995:4076  function DeleteAllTweets()public {... */\n    tag_7:\n      tag_27\n      tag_28\n      jump\t// in\n    tag_27:\n      stop\n        /* \"contracts/Twitter0.6.sol\":1356:2428  function createTweet(string memory _tweet) public {... */\n    tag_8:\n      tag_29\n      0x04\n      dup1\n      calldatasize\n      sub\n      dup2\n      add\n      swap1\n      tag_30\n      swap2\n      swap1\n      tag_31\n      jump\t// in\n    tag_30:\n      tag_32\n      jump\t// in\n    tag_29:\n      stop\n        /* \"contracts/Twitter0.6.sol\":4575:4947  function UnlikeTweet(address User,uint256 TweetIndex)external ... */\n    tag_9:\n      tag_33\n      0x04\n      dup1\n      calldatasize\n      sub\n      dup2\n      add\n      swap1\n      tag_34\n      swap2\n      swap1\n      tag_14\n      jump\t// in\n    tag_34:\n      tag_35\n      jump\t// in\n    tag_33:\n      stop\n        /* \"contracts/Twitter0.6.sol\":1176:1281  function ChangeTweetLength(uint256 newTweetLen)public isOwner{... */\n    tag_10:\n      tag_36\n      0x04\n      dup1\n      calldatasize\n      sub\n      dup2\n      add\n      swap1\n      tag_37\n      swap2\n      swap1\n      tag_38\n      jump\t// in\n    tag_37:\n      tag_39\n      jump\t// in\n    tag_36:\n      stop\n        /* \"contracts/Twitter0.6.sol\":4084:4567  function LikesTweet(address User,uint256 TweetIndex)external ... */\n    tag_15:\n        /* \"contracts/Twitter0.6.sol\":4169:4173  User */\n      dup2\n        /* \"contracts/Twitter0.6.sol\":4174:4184  TweetIndex */\n      dup2\n        /* \"contracts/Twitter0.6.sol\":2671:2673  id */\n      dup1\n        /* \"contracts/Twitter0.6.sol\":2644:2654  Tweet_info */\n      0x03\n        /* \"contracts/Twitter0.6.sol\":2644:2660  Tweet_info[User] */\n      0x00\n        /* \"contracts/Twitter0.6.sol\":2655:2659  User */\n      dup5\n        /* \"contracts/Twitter0.6.sol\":2644:2660  Tweet_info[User] */\n      0xffffffffffffffffffffffffffffffffffffffff\n      and\n      0xffffffffffffffffffffffffffffffffffffffff\n      and\n      dup2\n      mstore\n      0x20\n      add\n      swap1\n      dup2\n      mstore\n      0x20\n      add\n      0x00\n      keccak256\n        /* \"contracts/Twitter0.6.sol\":2644:2667  Tweet_info[User].length */\n      dup1\n      sload\n      swap1\n      pop\n        /* \"contracts/Twitter0.6.sol\":2644:2673  Tweet_info[User].length >= id */\n      lt\n      iszero\n        /* \"contracts/Twitter0.6.sol\":2636:2699  require(Tweet_info[User].length >= id,\"This Tweet Not Exist !\") */\n      tag_41\n      jumpi\n      mload(0x40)\n      0x08c379a000000000000000000000000000000000000000000000000000000000\n      dup2\n      mstore\n      0x04\n      add\n      tag_42\n      swap1\n      tag_43\n      jump\t// in\n    tag_42:\n      mload(0x40)\n      dup1\n      swap2\n      sub\n      swap1\n      revert\n    tag_41:\n        /* \"contracts/Twitter0.6.sol\":2710:2718  bool res */\n      0x00\n        /* \"contracts/Twitter0.6.sol\":2721:2725  true */\n      0x01\n        /* \"contracts/Twitter0.6.sol\":2710:2725  bool res = true */\n      swap1\n      pop\n        /* \"contracts/Twitter0.6.sol\":2736:2745  uint256 l */\n      0x00\n        /* \"contracts/Twitter0.6.sol\":2760:3025  while (l<Tweet_info[User][id-1].likes.length)... */\n    tag_44:\n        /* \"contracts/Twitter0.6.sol\":2769:2779  Tweet_info */\n      0x03\n        /* \"contracts/Twitter0.6.sol\":2769:2785  Tweet_info[User] */\n      0x00\n        /* \"contracts/Twitter0.6.sol\":2780:2784  User */\n      dup6\n        /* \"contracts/Twitter0.6.sol\":2769:2785  Tweet_info[User] */\n      0xffffffffffffffffffffffffffffffffffffffff\n      and\n      0xffffffffffffffffffffffffffffffffffffffff\n      and\n      dup2\n      mstore\n      0x20\n      add\n      swap1\n      dup2\n      mstore\n      0x20\n      add\n      0x00\n      keccak256\n        /* \"contracts/Twitter0.6.sol\":2789:2790  1 */\n      0x01\n        /* \"contracts/Twitter0.6.sol\":2786:2788  id */\n      dup5\n        /* \"contracts/Twitter0.6.sol\":2786:2790  id-1 */\n      tag_46\n      swap2\n      swap1\n      tag_47\n      jump\t// in\n    tag_46:\n        /* \"contracts/Twitter0.6.sol\":2769:2791  Tweet_info[User][id-1] */\n      dup2\n      sload\n      dup2\n      lt\n      tag_48\n      jumpi\n      tag_49\n      tag_50\n      jump\t// in\n    tag_49:\n    tag_48:\n      swap1\n      0x00\n      mstore\n      keccak256(0x00, 0x20)\n      swap1\n      0x08\n      mul\n      add\n        /* \"contracts/Twitter0.6.sol\":2769:2797  Tweet_info[User][id-1].likes */\n      0x04\n      add\n        /* \"contracts/Twitter0.6.sol\":2769:2804  Tweet_info[User][id-1].likes.length */\n      dup1\n      sload\n      swap1\n      pop\n        /* \"contracts/Twitter0.6.sol\":2767:2768  l */\n      dup2\n        /* \"contracts/Twitter0.6.sol\":2767:2804  l<Tweet_info[User][id-1].likes.length */\n      lt\n        /* \"contracts/Twitter0.6.sol\":2760:3025  while (l<Tweet_info[User][id-1].likes.length)... */\n      iszero\n      tag_45\n      jumpi\n        /* \"contracts/Twitter0.6.sol\":2868:2878  msg.sender */\n      caller\n        /* \"contracts/Twitter0.6.sol\":2833:2878  Tweet_info[User][id-1].likes[l] == msg.sender */\n      0xffffffffffffffffffffffffffffffffffffffff\n      and\n        /* \"contracts/Twitter0.6.sol\":2833:2843  Tweet_info */\n      0x03\n        /* \"contracts/Twitter0.6.sol\":2833:2849  Tweet_info[User] */\n      0x00\n        /* \"contracts/Twitter0.6.sol\":2844:2848  User */\n      dup7\n        /* \"contracts/Twitter0.6.sol\":2833:2849  Tweet_info[User] */\n      0xffffffffffffffffffffffffffffffffffffffff\n      and\n      0xffffffffffffffffffffffffffffffffffffffff\n      and\n      dup2\n      mstore\n      0x20\n      add\n      swap1\n      dup2\n      mstore\n      0x20\n      add\n      0x00\n      keccak256\n        /* \"contracts/Twitter0.6.sol\":2853:2854  1 */\n      0x01\n        /* \"contracts/Twitter0.6.sol\":2850:2852  id */\n      dup6\n        /* \"contracts/Twitter0.6.sol\":2850:2854  id-1 */\n      tag_52\n      swap2\n      swap1\n      tag_47\n      jump\t// in\n    tag_52:\n        /* \"contracts/Twitter0.6.sol\":2833:2855  Tweet_info[User][id-1] */\n      dup2\n      sload\n      dup2\n      lt\n      tag_53\n      jumpi\n      tag_54\n      tag_50\n      jump\t// in\n    tag_54:\n    tag_53:\n      swap1\n      0x00\n      mstore\n      keccak256(0x00, 0x20)\n      swap1\n      0x08\n      mul\n      add\n        /* \"contracts/Twitter0.6.sol\":2833:2861  Tweet_info[User][id-1].likes */\n      0x04\n      add\n        /* \"contracts/Twitter0.6.sol\":2862:2863  l */\n      dup3\n        /* \"contracts/Twitter0.6.sol\":2833:2864  Tweet_info[User][id-1].likes[l] */\n      dup2\n      sload\n      dup2\n      lt\n      tag_56\n      jumpi\n      tag_57\n      tag_50\n      jump\t// in\n    tag_57:\n    tag_56:\n      swap1\n      0x00\n      mstore\n      keccak256(0x00, 0x20)\n      add\n      0x00\n      swap1\n      sload\n      swap1\n      0x0100\n      exp\n      swap1\n      div\n      0xffffffffffffffffffffffffffffffffffffffff\n      and\n        /* \"contracts/Twitter0.6.sol\":2833:2878  Tweet_info[User][id-1].likes[l] == msg.sender */\n      0xffffffffffffffffffffffffffffffffffffffff\n      and\n      sub\n        /* \"contracts/Twitter0.6.sol\":2830:3014  if(Tweet_info[User][id-1].likes[l] == msg.sender)... */\n      tag_59\n      jumpi\n        /* \"contracts/Twitter0.6.sol\":2916:2921  false */\n      0x00\n        /* \"contracts/Twitter0.6.sol\":2912:2921  res=false */\n      swap2\n      pop\n        /* \"contracts/Twitter0.6.sol\":2940:2945  break */\n      jump(tag_45)\n        /* \"contracts/Twitter0.6.sol\":2830:3014  if(Tweet_info[User][id-1].likes[l] == msg.sender)... */\n    tag_59:\n        /* \"contracts/Twitter0.6.sol\":2995:2998  l++ */\n      dup1\n      dup1\n      tag_61\n      swap1\n      tag_62\n      jump\t// in\n    tag_61:\n      swap2\n      pop\n      pop\n        /* \"contracts/Twitter0.6.sol\":2760:3025  while (l<Tweet_info[User][id-1].likes.length)... */\n      jump(tag_44)\n    tag_45:\n        /* \"contracts/Twitter0.6.sol\":3052:3056  true */\n      0x01\n        /* \"contracts/Twitter0.6.sol\":3045:3056  res == true */\n      iszero\n      iszero\n        /* \"contracts/Twitter0.6.sol\":3045:3048  res */\n      dup3\n        /* \"contracts/Twitter0.6.sol\":3045:3056  res == true */\n      iszero\n      iszero\n      eq\n        /* \"contracts/Twitter0.6.sol\":3037:3089  require(res == true, \"You Already Liked the tweet!\") */\n      tag_63\n      jumpi\n      mload(0x40)\n      0x08c379a000000000000000000000000000000000000000000000000000000000\n      dup2\n      mstore\n      0x04\n      add\n      tag_64\n      swap1\n      tag_65\n      jump\t// in\n    tag_64:\n      mload(0x40)\n      dup1\n      swap2\n      sub\n      swap1\n      revert\n    tag_63:\n        /* \"contracts/Twitter0.6.sol\":4206:4210  User */\n      dup6\n        /* \"contracts/Twitter0.6.sol\":4211:4221  TweetIndex */\n      dup6\n        /* \"contracts/Twitter0.6.sol\":3223:3225  id */\n      dup1\n        /* \"contracts/Twitter0.6.sol\":3196:3206  Tweet_info */\n      0x03\n        /* \"contracts/Twitter0.6.sol\":3196:3212  Tweet_info[User] */\n      0x00\n        /* \"contracts/Twitter0.6.sol\":3207:3211  User */\n      dup5\n        /* \"contracts/Twitter0.6.sol\":3196:3212  Tweet_info[User] */\n      0xffffffffffffffffffffffffffffffffffffffff\n      and\n      0xffffffffffffffffffffffffffffffffffffffff\n      and\n      dup2\n      mstore\n      0x20\n      add\n      swap1\n      dup2\n      mstore\n      0x20\n      add\n      0x00\n      keccak256\n        /* \"contracts/Twitter0.6.sol\":3196:3219  Tweet_info[User].length */\n      dup1\n      sload\n      swap1\n      pop\n        /* \"contracts/Twitter0.6.sol\":3196:3225  Tweet_info[User].length >= id */\n      lt\n      iszero\n        /* \"contracts/Twitter0.6.sol\":3188:3251  require(Tweet_info[User].length >= id,\"This Tweet Not Exist !\") */\n      tag_67\n      jumpi\n      mload(0x40)\n      0x08c379a000000000000000000000000000000000000000000000000000000000\n      dup2\n      mstore\n      0x04\n      add\n      tag_68\n      swap1\n      tag_43\n      jump\t// in\n    tag_68:\n      mload(0x40)\n      dup1\n      swap2\n      sub\n      swap1\n      revert\n    tag_67:\n        /* \"contracts/Twitter0.6.sol\":3262:3270  bool res */\n      0x00\n        /* \"contracts/Twitter0.6.sol\":3273:3277  true */\n      0x01\n        /* \"contracts/Twitter0.6.sol\":3262:3277  bool res = true */\n      swap1\n      pop\n        /* \"contracts/Twitter0.6.sol\":3288:3297  uint256 l */\n      0x00\n        /* \"contracts/Twitter0.6.sol\":3311:3543  while (l<Tweet_info[User][id-1].likes.length)... */\n    tag_69:\n        /* \"contracts/Twitter0.6.sol\":3320:3330  Tweet_info */\n      0x03\n        /* \"contracts/Twitter0.6.sol\":3320:3336  Tweet_info[User] */\n      0x00\n        /* \"contracts/Twitter0.6.sol\":3331:3335  User */\n      dup6\n        /* \"contracts/Twitter0.6.sol\":3320:3336  Tweet_info[User] */\n      0xffffffffffffffffffffffffffffffffffffffff\n      and\n      0xffffffffffffffffffffffffffffffffffffffff\n      and\n      dup2\n      mstore\n      0x20\n      add\n      swap1\n      dup2\n      mstore\n      0x20\n      add\n      0x00\n      keccak256\n        /* \"contracts/Twitter0.6.sol\":3340:3341  1 */\n      0x01\n        /* \"contracts/Twitter0.6.sol\":3337:3339  id */\n      dup5\n        /* \"contracts/Twitter0.6.sol\":3337:3341  id-1 */\n      tag_71\n      swap2\n      swap1\n      tag_47\n      jump\t// in\n    tag_71:\n        /* \"contracts/Twitter0.6.sol\":3320:3342  Tweet_info[User][id-1] */\n      dup2\n      sload\n      dup2\n      lt\n      tag_72\n      jumpi\n      tag_73\n      tag_50\n      jump\t// in\n    tag_73:\n    tag_72:\n      swap1\n      0x00\n      mstore\n      keccak256(0x00, 0x20)\n      swap1\n      0x08\n      mul\n      add\n        /* \"contracts/Twitter0.6.sol\":3320:3348  Tweet_info[User][id-1].likes */\n      0x04\n      add\n        /* \"contracts/Twitter0.6.sol\":3320:3355  Tweet_info[User][id-1].likes.length */\n      dup1\n      sload\n      swap1\n      pop\n        /* \"contracts/Twitter0.6.sol\":3318:3319  l */\n      dup2\n        /* \"contracts/Twitter0.6.sol\":3318:3355  l<Tweet_info[User][id-1].likes.length */\n      lt\n        /* \"contracts/Twitter0.6.sol\":3311:3543  while (l<Tweet_info[User][id-1].likes.length)... */\n      iszero\n      tag_70\n      jumpi\n        /* \"contracts/Twitter0.6.sol\":3421:3431  msg.sender */\n      caller\n        /* \"contracts/Twitter0.6.sol\":3384:3431  Tweet_info[User][id-1].unlikes[l] == msg.sender */\n      0xffffffffffffffffffffffffffffffffffffffff\n      and\n        /* \"contracts/Twitter0.6.sol\":3384:3394  Tweet_info */\n      0x03\n        /* \"contracts/Twitter0.6.sol\":3384:3400  Tweet_info[User] */\n      0x00\n        /* \"contracts/Twitter0.6.sol\":3395:3399  User */\n      dup7\n        /* \"contracts/Twitter0.6.sol\":3384:3400  Tweet_info[User] */\n      0xffffffffffffffffffffffffffffffffffffffff\n      and\n      0xffffffffffffffffffffffffffffffffffffffff\n      and\n      dup2\n      mstore\n      0x20\n      add\n      swap1\n      dup2\n      mstore\n      0x20\n      add\n      0x00\n      keccak256\n        /* \"contracts/Twitter0.6.sol\":3404:3405  1 */\n      0x01\n        /* \"contracts/Twitter0.6.sol\":3401:3403  id */\n      dup6\n        /* \"contracts/Twitter0.6.sol\":3401:3405  id-1 */\n      tag_75\n      swap2\n      swap1\n      tag_47\n      jump\t// in\n    tag_75:\n        /* \"contracts/Twitter0.6.sol\":3384:3406  Tweet_info[User][id-1] */\n      dup2\n      sload\n      dup2\n      lt\n      tag_76\n      jumpi\n      tag_77\n      tag_50\n      jump\t// in\n    tag_77:\n    tag_76:\n      swap1\n      0x00\n      mstore\n      keccak256(0x00, 0x20)\n      swap1\n      0x08\n      mul\n      add\n        /* \"contracts/Twitter0.6.sol\":3384:3414  Tweet_info[User][id-1].unlikes */\n      0x07\n      add\n        /* \"contracts/Twitter0.6.sol\":3415:3416  l */\n      dup3\n        /* \"contracts/Twitter0.6.sol\":3384:3417  Tweet_info[User][id-1].unlikes[l] */\n      dup2\n      sload\n      dup2\n      lt\n      tag_79\n      jumpi\n      tag_80\n      tag_50\n      jump\t// in\n    tag_80:\n    tag_79:\n      swap1\n      0x00\n      mstore\n      keccak256(0x00, 0x20)\n      add\n      0x00\n      swap1\n      sload\n      swap1\n      0x0100\n      exp\n      swap1\n      div\n      0xffffffffffffffffffffffffffffffffffffffff\n      and\n        /* \"contracts/Twitter0.6.sol\":3384:3431  Tweet_info[User][id-1].unlikes[l] == msg.sender */\n      0xffffffffffffffffffffffffffffffffffffffff\n      and\n      sub\n        /* \"contracts/Twitter0.6.sol\":3381:3514  if(Tweet_info[User][id-1].unlikes[l] == msg.sender)... */\n      tag_82\n      jumpi\n        /* \"contracts/Twitter0.6.sol\":3469:3474  false */\n      0x00\n        /* \"contracts/Twitter0.6.sol\":3465:3474  res=false */\n      swap2\n      pop\n        /* \"contracts/Twitter0.6.sol\":3493:3498  break */\n      jump(tag_70)\n        /* \"contracts/Twitter0.6.sol\":3381:3514  if(Tweet_info[User][id-1].unlikes[l] == msg.sender)... */\n    tag_82:\n        /* \"contracts/Twitter0.6.sol\":3528:3531  l++ */\n      dup1\n      dup1\n      tag_83\n      swap1\n      tag_62\n      jump\t// in\n    tag_83:\n      swap2\n      pop\n      pop\n        /* \"contracts/Twitter0.6.sol\":3311:3543  while (l<Tweet_info[User][id-1].likes.length)... */\n      jump(tag_69)\n    tag_70:\n        /* \"contracts/Twitter0.6.sol\":3570:3574  true */\n      0x01\n        /* \"contracts/Twitter0.6.sol\":3563:3574  res == true */\n      iszero\n      iszero\n        /* \"contracts/Twitter0.6.sol\":3563:3566  res */\n      dup3\n        /* \"contracts/Twitter0.6.sol\":3563:3574  res == true */\n      iszero\n      iszero\n      eq\n        /* \"contracts/Twitter0.6.sol\":3555:3608  require(res == true,\"You Already UnLiked the tweet!\") */\n      tag_84\n      jumpi\n      mload(0x40)\n      0x08c379a000000000000000000000000000000000000000000000000000000000\n      dup2\n      mstore\n      0x04\n      add\n      tag_85\n      swap1\n      tag_86\n      jump\t// in\n    tag_85:\n      mload(0x40)\n      dup1\n      swap2\n      sub\n      swap1\n      revert\n    tag_84:\n        /* \"contracts/Twitter0.6.sol\":4255:4265  msg.sender */\n      caller\n        /* \"contracts/Twitter0.6.sol\":4247:4265  User != msg.sender */\n      0xffffffffffffffffffffffffffffffffffffffff\n      and\n        /* \"contracts/Twitter0.6.sol\":4247:4251  User */\n      dup11\n        /* \"contracts/Twitter0.6.sol\":4247:4265  User != msg.sender */\n      0xffffffffffffffffffffffffffffffffffffffff\n      and\n      sub\n        /* \"contracts/Twitter0.6.sol\":4239:4315  require(User != msg.sender,\"This is Your Tweet!You cann't Like Your Tweet!\") */\n      tag_88\n      jumpi\n      mload(0x40)\n      0x08c379a000000000000000000000000000000000000000000000000000000000\n      dup2\n      mstore\n      0x04\n      add\n      tag_89\n      swap1\n      tag_90\n      jump\t// in\n    tag_89:\n      mload(0x40)\n      dup1\n      swap2\n      sub\n      swap1\n      revert\n    tag_88:\n        /* \"contracts/Twitter0.6.sol\":4326:4336  Tweet_info */\n      0x03\n        /* \"contracts/Twitter0.6.sol\":4326:4342  Tweet_info[User] */\n      0x00\n        /* \"contracts/Twitter0.6.sol\":4337:4341  User */\n      dup12\n        /* \"contracts/Twitter0.6.sol\":4326:4342  Tweet_info[User] */\n      0xffffffffffffffffffffffffffffffffffffffff\n      and\n      0xffffffffffffffffffffffffffffffffffffffff\n      and\n      dup2\n      mstore\n      0x20\n      add\n      swap1\n      dup2\n      mstore\n      0x20\n      add\n      0x00\n      keccak256\n        /* \"contracts/Twitter0.6.sol\":4354:4355  1 */\n      0x01\n        /* \"contracts/Twitter0.6.sol\":4343:4353  TweetIndex */\n      dup11\n        /* \"contracts/Twitter0.6.sol\":4343:4355  TweetIndex-1 */\n      tag_91\n      swap2\n      swap1\n      tag_47\n      jump\t// in\n    tag_91:\n        /* \"contracts/Twitter0.6.sol\":4326:4356  Tweet_info[User][TweetIndex-1] */\n      dup2\n      sload\n      dup2\n      lt\n      tag_92\n      jumpi\n      tag_93\n      tag_50\n      jump\t// in\n    tag_93:\n    tag_92:\n      swap1\n      0x00\n      mstore\n      keccak256(0x00, 0x20)\n      swap1\n      0x08\n      mul\n      add\n        /* \"contracts/Twitter0.6.sol\":4326:4362  Tweet_info[User][TweetIndex-1].likes */\n      0x04\n      add\n        /* \"contracts/Twitter0.6.sol\":4368:4378  msg.sender */\n      caller\n        /* \"contracts/Twitter0.6.sol\":4326:4379  Tweet_info[User][TweetIndex-1].likes.push(msg.sender) */\n      swap1\n      dup1\n      0x01\n      dup2\n      sload\n      add\n      dup1\n      dup3\n      sstore\n      dup1\n      swap2\n      pop\n      pop\n      0x01\n      swap1\n      sub\n      swap1\n      0x00\n      mstore\n      keccak256(0x00, 0x20)\n      add\n      0x00\n      swap1\n      swap2\n      swap1\n      swap2\n      swap1\n      swap2\n      0x0100\n      exp\n      dup2\n      sload\n      dup2\n      0xffffffffffffffffffffffffffffffffffffffff\n      mul\n      not\n      and\n      swap1\n      dup4\n      0xffffffffffffffffffffffffffffffffffffffff\n      and\n      mul\n      or\n      swap1\n      sstore\n      pop\n        /* \"contracts/Twitter0.6.sol\":4390:4400  Tweet_info */\n      0x03\n        /* \"contracts/Twitter0.6.sol\":4390:4406  Tweet_info[User] */\n      0x00\n        /* \"contracts/Twitter0.6.sol\":4401:4405  User */\n      dup12\n        /* \"contracts/Twitter0.6.sol\":4390:4406  Tweet_info[User] */\n      0xffffffffffffffffffffffffffffffffffffffff\n      and\n      0xffffffffffffffffffffffffffffffffffffffff\n      and\n      dup2\n      mstore\n      0x20\n      add\n      swap1\n      dup2\n      mstore\n      0x20\n      add\n      0x00\n      keccak256\n        /* \"contracts/Twitter0.6.sol\":4418:4419  1 */\n      0x01\n        /* \"contracts/Twitter0.6.sol\":4407:4417  TweetIndex */\n      dup11\n        /* \"contracts/Twitter0.6.sol\":4407:4419  TweetIndex-1 */\n      tag_96\n      swap2\n      swap1\n      tag_47\n      jump\t// in\n    tag_96:\n        /* \"contracts/Twitter0.6.sol\":4390:4420  Tweet_info[User][TweetIndex-1] */\n      dup2\n      sload\n      dup2\n      lt\n      tag_97\n      jumpi\n      tag_98\n      tag_50\n      jump\t// in\n    tag_98:\n    tag_97:\n      swap1\n      0x00\n      mstore\n      keccak256(0x00, 0x20)\n      swap1\n      0x08\n      mul\n      add\n        /* \"contracts/Twitter0.6.sol\":4390:4431  Tweet_info[User][TweetIndex-1].LikesCount */\n      0x05\n      add\n      0x00\n        /* \"contracts/Twitter0.6.sol\":4390:4433  Tweet_info[User][TweetIndex-1].LikesCount++ */\n      dup2\n      sload\n      dup1\n      swap3\n      swap2\n      swap1\n      tag_100\n      swap1\n      tag_62\n      jump\t// in\n    tag_100:\n      swap2\n      swap1\n      pop\n      sstore\n      pop\n        /* \"contracts/Twitter0.6.sol\":4449:4556  TweetLiked(msg.sender , User, Tweet_info[User][TweetIndex-1].LikesCount, Tweet_info[User][TweetIndex-1].id) */\n      0xe8a76fc0f16d11a00d1e93b689b63d76cf60af914dd3d915375dc41d01a0c3c8\n        /* \"contracts/Twitter0.6.sol\":4460:4470  msg.sender */\n      caller\n        /* \"contracts/Twitter0.6.sol\":4473:4477  User */\n      dup12\n        /* \"contracts/Twitter0.6.sol\":4479:4489  Tweet_info */\n      0x03\n        /* \"contracts/Twitter0.6.sol\":4479:4495  Tweet_info[User] */\n      0x00\n        /* \"contracts/Twitter0.6.sol\":4490:4494  User */\n      dup15\n        /* \"contracts/Twitter0.6.sol\":4479:4495  Tweet_info[User] */\n      0xffffffffffffffffffffffffffffffffffffffff\n      and\n      0xffffffffffffffffffffffffffffffffffffffff\n      and\n      dup2\n      mstore\n      0x20\n      add\n      swap1\n      dup2\n      mstore\n      0x20\n      add\n      0x00\n      keccak256\n        /* \"contracts/Twitter0.6.sol\":4507:4508  1 */\n      0x01\n        /* \"contracts/Twitter0.6.sol\":4496:4506  TweetIndex */\n      dup14\n        /* \"contracts/Twitter0.6.sol\":4496:4508  TweetIndex-1 */\n      tag_101\n      swap2\n      swap1\n      tag_47\n      jump\t// in\n    tag_101:\n        /* \"contracts/Twitter0.6.sol\":4479:4509  Tweet_info[User][TweetIndex-1] */\n      dup2\n      sload\n      dup2\n      lt\n      tag_102\n      jumpi\n      tag_103\n      tag_50\n      jump\t// in\n    tag_103:\n    tag_102:\n      swap1\n      0x00\n      mstore\n      keccak256(0x00, 0x20)\n      swap1\n      0x08\n      mul\n      add\n        /* \"contracts/Twitter0.6.sol\":4479:4520  Tweet_info[User][TweetIndex-1].LikesCount */\n      0x05\n      add\n      sload\n        /* \"contracts/Twitter0.6.sol\":4522:4532  Tweet_info */\n      0x03\n        /* \"contracts/Twitter0.6.sol\":4522:4538  Tweet_info[User] */\n      0x00\n        /* \"contracts/Twitter0.6.sol\":4533:4537  User */\n      dup16\n        /* \"contracts/Twitter0.6.sol\":4522:4538  Tweet_info[User] */\n      0xffffffffffffffffffffffffffffffffffffffff\n      and\n      0xffffffffffffffffffffffffffffffffffffffff\n      and\n      dup2\n      mstore\n      0x20\n      add\n      swap1\n      dup2\n      mstore\n      0x20\n      add\n      0x00\n      keccak256\n        /* \"contracts/Twitter0.6.sol\":4550:4551  1 */\n      0x01\n        /* \"contracts/Twitter0.6.sol\":4539:4549  TweetIndex */\n      dup15\n        /* \"contracts/Twitter0.6.sol\":4539:4551  TweetIndex-1 */\n      tag_105\n      swap2\n      swap1\n      tag_47\n      jump\t// in\n    tag_105:\n        /* \"contracts/Twitter0.6.sol\":4522:4552  Tweet_info[User][TweetIndex-1] */\n      dup2\n      sload\n      dup2\n      lt\n      tag_106\n      jumpi\n      tag_107\n      tag_50\n      jump\t// in\n    tag_107:\n    tag_106:\n      swap1\n      0x00\n      mstore\n      keccak256(0x00, 0x20)\n      swap1\n      0x08\n      mul\n      add\n        /* \"contracts/Twitter0.6.sol\":4522:4555  Tweet_info[User][TweetIndex-1].id */\n      0x00\n      add\n      sload\n        /* \"contracts/Twitter0.6.sol\":4449:4556  TweetLiked(msg.sender , User, Tweet_info[User][TweetIndex-1].LikesCount, Tweet_info[User][TweetIndex-1].id) */\n      mload(0x40)\n      tag_109\n      swap5\n      swap4\n      swap3\n      swap2\n      swap1\n      tag_110\n      jump\t// in\n    tag_109:\n      mload(0x40)\n      dup1\n      swap2\n      sub\n      swap1\n      log1\n        /* \"contracts/Twitter0.6.sol\":3178:3630  {... */\n      pop\n      pop\n        /* \"contracts/Twitter0.6.sol\":3100:3101  _ */\n      pop\n      pop\n        /* \"contracts/Twitter0.6.sol\":2625:3111  {... */\n      pop\n      pop\n        /* \"contracts/Twitter0.6.sol\":4084:4567  function LikesTweet(address User,uint256 TweetIndex)external ... */\n      pop\n      pop\n      pop\n      pop\n      jump\t// out\n        /* \"contracts/Twitter0.6.sol\":3759:3892  function GetTweet(address User,uint Index)public view returns (Tweet memory)... */\n    tag_18:\n        /* \"contracts/Twitter0.6.sol\":3822:3834  Tweet memory */\n      tag_111\n      tag_112\n      jump\t// in\n    tag_111:\n        /* \"contracts/Twitter0.6.sol\":3859:3869  Tweet_info */\n      0x03\n        /* \"contracts/Twitter0.6.sol\":3859:3875  Tweet_info[User] */\n      0x00\n        /* \"contracts/Twitter0.6.sol\":3870:3874  User */\n      dup5\n        /* \"contracts/Twitter0.6.sol\":3859:3875  Tweet_info[User] */\n      0xffffffffffffffffffffffffffffffffffffffff\n      and\n      0xffffffffffffffffffffffffffffffffffffffff\n      and\n      dup2\n      mstore\n      0x20\n      add\n      swap1\n      dup2\n      mstore\n      0x20\n      add\n      0x00\n      keccak256\n        /* \"contracts/Twitter0.6.sol\":3882:3883  1 */\n      0x01\n        /* \"contracts/Twitter0.6.sol\":3876:3881  Index */\n      dup4\n        /* \"contracts/Twitter0.6.sol\":3876:3883  Index-1 */\n      tag_114\n      swap2\n      swap1\n      tag_47\n      jump\t// in\n    tag_114:\n        /* \"contracts/Twitter0.6.sol\":3859:3884  Tweet_info[User][Index-1] */\n      dup2\n      sload\n      dup2\n      lt\n      tag_115\n      jumpi\n      tag_116\n      tag_50\n      jump\t// in\n    tag_116:\n    tag_115:\n      swap1\n      0x00\n      mstore\n      keccak256(0x00, 0x20)\n      swap1\n      0x08\n      mul\n      add\n        /* \"contracts/Twitter0.6.sol\":3852:3884  return Tweet_info[User][Index-1] */\n      mload(0x40)\n      dup1\n      0x0100\n      add\n      0x40\n      mstore\n      swap1\n      dup2\n      0x00\n      dup3\n      add\n      sload\n      dup2\n      mstore\n      0x20\n      add\n      0x01\n      dup3\n      add\n      dup1\n      sload\n      tag_118\n      swap1\n      tag_119\n      jump\t// in\n    tag_118:\n      dup1\n      0x1f\n      add\n      0x20\n      dup1\n      swap2\n      div\n      mul\n      0x20\n      add\n      mload(0x40)\n      swap1\n      dup2\n      add\n      0x40\n      mstore\n      dup1\n      swap3\n      swap2\n      swap1\n      dup2\n      dup2\n      mstore\n      0x20\n      add\n      dup3\n      dup1\n      sload\n      tag_120\n      swap1\n      tag_119\n      jump\t// in\n    tag_120:\n      dup1\n      iszero\n      tag_121\n      jumpi\n      dup1\n      0x1f\n      lt\n      tag_122\n      jumpi\n      0x0100\n      dup1\n      dup4\n      sload\n      div\n      mul\n      dup4\n      mstore\n      swap2\n      0x20\n      add\n      swap2\n      jump(tag_121)\n    tag_122:\n      dup3\n      add\n      swap2\n      swap1\n      0x00\n      mstore\n      keccak256(0x00, 0x20)\n      swap1\n    tag_123:\n      dup2\n      sload\n      dup2\n      mstore\n      swap1\n      0x01\n      add\n      swap1\n      0x20\n      add\n      dup1\n      dup4\n      gt\n      tag_123\n      jumpi\n      dup3\n      swap1\n      sub\n      0x1f\n      and\n      dup3\n      add\n      swap2\n    tag_121:\n      pop\n      pop\n      pop\n      pop\n      pop\n      dup2\n      mstore\n      0x20\n      add\n      0x02\n      dup3\n      add\n      0x00\n      swap1\n      sload\n      swap1\n      0x0100\n      exp\n      swap1\n      div\n      0xffffffffffffffffffffffffffffffffffffffff\n      and\n      0xffffffffffffffffffffffffffffffffffffffff\n      and\n      0xffffffffffffffffffffffffffffffffffffffff\n      and\n      dup2\n      mstore\n      0x20\n      add\n      0x03\n      dup3\n      add\n      sload\n      dup2\n      mstore\n      0x20\n      add\n      0x04\n      dup3\n      add\n      dup1\n      sload\n      dup1\n      0x20\n      mul\n      0x20\n      add\n      mload(0x40)\n      swap1\n      dup2\n      add\n      0x40\n      mstore\n      dup1\n      swap3\n      swap2\n      swap1\n      dup2\n      dup2\n      mstore\n      0x20\n      add\n      dup3\n      dup1\n      sload\n      dup1\n      iszero\n      tag_124\n      jumpi\n      0x20\n      mul\n      dup3\n      add\n      swap2\n      swap1\n      0x00\n      mstore\n      keccak256(0x00, 0x20)\n      swap1\n    tag_125:\n      dup2\n      0x00\n      swap1\n      sload\n      swap1\n      0x0100\n      exp\n      swap1\n      div\n      0xffffffffffffffffffffffffffffffffffffffff\n      and\n      0xffffffffffffffffffffffffffffffffffffffff\n      and\n      dup2\n      mstore\n      0x20\n      add\n      swap1\n      0x01\n      add\n      swap1\n      dup1\n      dup4\n      gt\n      tag_125\n      jumpi\n    tag_124:\n      pop\n      pop\n      pop\n      pop\n      pop\n      dup2\n      mstore\n      0x20\n      add\n      0x05\n      dup3\n      add\n      sload\n      dup2\n      mstore\n      0x20\n      add\n      0x06\n      dup3\n      add\n      sload\n      dup2\n      mstore\n      0x20\n      add\n      0x07\n      dup3\n      add\n      dup1\n      sload\n      dup1\n      0x20\n      mul\n      0x20\n      add\n      mload(0x40)\n      swap1\n      dup2\n      add\n      0x40\n      mstore\n      dup1\n      swap3\n      swap2\n      swap1\n      dup2\n      dup2\n      mstore\n      0x20\n      add\n      dup3\n      dup1\n      sload\n      dup1\n      iszero\n      tag_126\n      jumpi\n      0x20\n      mul\n      dup3\n      add\n      swap2\n      swap1\n      0x00\n      mstore\n      keccak256(0x00, 0x20)\n      swap1\n    tag_127:\n      dup2\n      0x00\n      swap1\n      sload\n      swap1\n      0x0100\n      exp\n      swap1\n      div\n      0xffffffffffffffffffffffffffffffffffffffff\n      and\n      0xffffffffffffffffffffffffffffffffffffffff\n      and\n      dup2\n      mstore\n      0x20\n      add\n      swap1\n      0x01\n      add\n      swap1\n      dup1\n      dup4\n      gt\n      tag_127\n      jumpi\n    tag_126:\n      pop\n      pop\n      pop\n      pop\n      pop\n      dup2\n      mstore\n      pop\n      pop\n      swap1\n      pop\n        /* \"contracts/Twitter0.6.sol\":3759:3892  function GetTweet(address User,uint Index)public view returns (Tweet memory)... */\n      swap3\n      swap2\n      pop\n      pop\n      jump\t// out\n        /* \"contracts/Twitter0.6.sol\":3638:3751  function GetAllTweets() public view returns(Tweet[] memory)... */\n    tag_22:\n        /* \"contracts/Twitter0.6.sol\":3682:3696  Tweet[] memory */\n      0x60\n        /* \"contracts/Twitter0.6.sol\":3721:3731  Tweet_info */\n      0x03\n        /* \"contracts/Twitter0.6.sol\":3721:3743  Tweet_info[msg.sender] */\n      0x00\n        /* \"contracts/Twitter0.6.sol\":3732:3742  msg.sender */\n      caller\n        /* \"contracts/Twitter0.6.sol\":3721:3743  Tweet_info[msg.sender] */\n      0xffffffffffffffffffffffffffffffffffffffff\n      and\n      0xffffffffffffffffffffffffffffffffffffffff\n      and\n      dup2\n      mstore\n      0x20\n      add\n      swap1\n      dup2\n      mstore\n      0x20\n      add\n      0x00\n      keccak256\n        /* \"contracts/Twitter0.6.sol\":3714:3743  return Tweet_info[msg.sender] */\n      dup1\n      sload\n      dup1\n      0x20\n      mul\n      0x20\n      add\n      mload(0x40)\n      swap1\n      dup2\n      add\n      0x40\n      mstore\n      dup1\n      swap3\n      swap2\n      swap1\n      dup2\n      dup2\n      mstore\n      0x20\n      add\n      0x00\n      swap1\n    tag_129:\n      dup3\n      dup3\n      lt\n      iszero\n      tag_130\n      jumpi\n      dup4\n      dup3\n      swap1\n      0x00\n      mstore\n      keccak256(0x00, 0x20)\n      swap1\n      0x08\n      mul\n      add\n      mload(0x40)\n      dup1\n      0x0100\n      add\n      0x40\n      mstore\n      swap1\n      dup2\n      0x00\n      dup3\n      add\n      sload\n      dup2\n      mstore\n      0x20\n      add\n      0x01\n      dup3\n      add\n      dup1\n      sload\n      tag_132\n      swap1\n      tag_119\n      jump\t// in\n    tag_132:\n      dup1\n      0x1f\n      add\n      0x20\n      dup1\n      swap2\n      div\n      mul\n      0x20\n      add\n      mload(0x40)\n      swap1\n      dup2\n      add\n      0x40\n      mstore\n      dup1\n      swap3\n      swap2\n      swap1\n      dup2\n      dup2\n      mstore\n      0x20\n      add\n      dup3\n      dup1\n      sload\n      tag_133\n      swap1\n      tag_119\n      jump\t// in\n    tag_133:\n      dup1\n      iszero\n      tag_134\n      jumpi\n      dup1\n      0x1f\n      lt\n      tag_135\n      jumpi\n      0x0100\n      dup1\n      dup4\n      sload\n      div\n      mul\n      dup4\n      mstore\n      swap2\n      0x20\n      add\n      swap2\n      jump(tag_134)\n    tag_135:\n      dup3\n      add\n      swap2\n      swap1\n      0x00\n      mstore\n      keccak256(0x00, 0x20)\n      swap1\n    tag_136:\n      dup2\n      sload\n      dup2\n      mstore\n      swap1\n      0x01\n      add\n      swap1\n      0x20\n      add\n      dup1\n      dup4\n      gt\n      tag_136\n      jumpi\n      dup3\n      swap1\n      sub\n      0x1f\n      and\n      dup3\n      add\n      swap2\n    tag_134:\n      pop\n      pop\n      pop\n      pop\n      pop\n      dup2\n      mstore\n      0x20\n      add\n      0x02\n      dup3\n      add\n      0x00\n      swap1\n      sload\n      swap1\n      0x0100\n      exp\n      swap1\n      div\n      0xffffffffffffffffffffffffffffffffffffffff\n      and\n      0xffffffffffffffffffffffffffffffffffffffff\n      and\n      0xffffffffffffffffffffffffffffffffffffffff\n      and\n      dup2\n      mstore\n      0x20\n      add\n      0x03\n      dup3\n      add\n      sload\n      dup2\n      mstore\n      0x20\n      add\n      0x04\n      dup3\n      add\n      dup1\n      sload\n      dup1\n      0x20\n      mul\n      0x20\n      add\n      mload(0x40)\n      swap1\n      dup2\n      add\n      0x40\n      mstore\n      dup1\n      swap3\n      swap2\n      swap1\n      dup2\n      dup2\n      mstore\n      0x20\n      add\n      dup3\n      dup1\n      sload\n      dup1\n      iszero\n      tag_137\n      jumpi\n      0x20\n      mul\n      dup3\n      add\n      swap2\n      swap1\n      0x00\n      mstore\n      keccak256(0x00, 0x20)\n      swap1\n    tag_138:\n      dup2\n      0x00\n      swap1\n      sload\n      swap1\n      0x0100\n      exp\n      swap1\n      div\n      0xffffffffffffffffffffffffffffffffffffffff\n      and\n      0xffffffffffffffffffffffffffffffffffffffff\n      and\n      dup2\n      mstore\n      0x20\n      add\n      swap1\n      0x01\n      add\n      swap1\n      dup1\n      dup4\n      gt\n      tag_138\n      jumpi\n    tag_137:\n      pop\n      pop\n      pop\n      pop\n      pop\n      dup2\n      mstore\n      0x20\n      add\n      0x05\n      dup3\n      add\n      sload\n      dup2\n      mstore\n      0x20\n      add\n      0x06\n      dup3\n      add\n      sload\n      dup2\n      mstore\n      0x20\n      add\n      0x07\n      dup3\n      add\n      dup1\n      sload\n      dup1\n      0x20\n      mul\n      0x20\n      add\n      mload(0x40)\n      swap1\n      dup2\n      add\n      0x40\n      mstore\n      dup1\n      swap3\n      swap2\n      swap1\n      dup2\n      dup2\n      mstore\n      0x20\n      add\n      dup3\n      dup1\n      sload\n      dup1\n      iszero\n      tag_139\n      jumpi\n      0x20\n      mul\n      dup3\n      add\n      swap2\n      swap1\n      0x00\n      mstore\n      keccak256(0x00, 0x20)\n      swap1\n    tag_140:\n      dup2\n      0x00\n      swap1\n      sload\n      swap1\n      0x0100\n      exp\n      swap1\n      div\n      0xffffffffffffffffffffffffffffffffffffffff\n      and\n      0xffffffffffffffffffffffffffffffffffffffff\n      and\n      dup2\n      mstore\n      0x20\n      add\n      swap1\n      0x01\n      add\n      swap1\n      dup1\n      dup4\n      gt\n      tag_140\n      jumpi\n    tag_139:\n      pop\n      pop\n      pop\n      pop\n      pop\n      dup2\n      mstore\n      pop\n      pop\n      dup2\n      mstore\n      0x20\n      add\n      swap1\n      0x01\n      add\n      swap1\n      jump(tag_129)\n    tag_130:\n      pop\n      pop\n      pop\n      pop\n      swap1\n      pop\n        /* \"contracts/Twitter0.6.sol\":3638:3751  function GetAllTweets() public view returns(Tweet[] memory)... */\n      swap1\n      jump\t// out\n        /* \"contracts/Twitter0.6.sol\":3900:3987  function DeleteRecentTweet()public... */\n    tag_26:\n        /* \"contracts/Twitter0.6.sol\":3951:3961  Tweet_info */\n      0x03\n        /* \"contracts/Twitter0.6.sol\":3951:3973  Tweet_info[msg.sender] */\n      0x00\n        /* \"contracts/Twitter0.6.sol\":3962:3972  msg.sender */\n      caller\n        /* \"contracts/Twitter0.6.sol\":3951:3973  Tweet_info[msg.sender] */\n      0xffffffffffffffffffffffffffffffffffffffff\n      and\n      0xffffffffffffffffffffffffffffffffffffffff\n      and\n      dup2\n      mstore\n      0x20\n      add\n      swap1\n      dup2\n      mstore\n      0x20\n      add\n      0x00\n      keccak256\n        /* \"contracts/Twitter0.6.sol\":3951:3979  Tweet_info[msg.sender].pop() */\n      dup1\n      sload\n      dup1\n      tag_142\n      jumpi\n      tag_143\n      tag_144\n      jump\t// in\n    tag_143:\n    tag_142:\n      0x01\n      swap1\n      sub\n      dup2\n      dup2\n      swap1\n      0x00\n      mstore\n      keccak256(0x00, 0x20)\n      swap1\n      0x08\n      mul\n      add\n      0x00\n      dup1\n      dup3\n      add\n      0x00\n      swap1\n      sstore\n      0x01\n      dup3\n      add\n      0x00\n      tag_146\n      swap2\n      swap1\n      tag_147\n      jump\t// in\n    tag_146:\n      0x02\n      dup3\n      add\n      exp(0x0100, 0x00)\n      dup2\n      sload\n      swap1\n      0xffffffffffffffffffffffffffffffffffffffff\n      mul\n      not\n      and\n      swap1\n      sstore\n      0x03\n      dup3\n      add\n      0x00\n      swap1\n      sstore\n      0x04\n      dup3\n      add\n      0x00\n      tag_148\n      swap2\n      swap1\n      tag_149\n      jump\t// in\n    tag_148:\n      0x05\n      dup3\n      add\n      0x00\n      swap1\n      sstore\n      0x06\n      dup3\n      add\n      0x00\n      swap1\n      sstore\n      0x07\n      dup3\n      add\n      0x00\n      tag_150\n      swap2\n      swap1\n      tag_149\n      jump\t// in\n    tag_150:\n      pop\n      pop\n      swap1\n      sstore\n        /* \"contracts/Twitter0.6.sol\":3900:3987  function DeleteRecentTweet()public... */\n      jump\t// out\n        /* \"contracts/Twitter0.6.sol\":3995:4076  function DeleteAllTweets()public {... */\n    tag_28:\n        /* \"contracts/Twitter0.6.sol\":4046:4056  Tweet_info */\n      0x03\n        /* \"contracts/Twitter0.6.sol\":4046:4068  Tweet_info[msg.sender] */\n      0x00\n        /* \"contracts/Twitter0.6.sol\":4057:4067  msg.sender */\n      caller\n        /* \"contracts/Twitter0.6.sol\":4046:4068  Tweet_info[msg.sender] */\n      0xffffffffffffffffffffffffffffffffffffffff\n      and\n      0xffffffffffffffffffffffffffffffffffffffff\n      and\n      dup2\n      mstore\n      0x20\n      add\n      swap1\n      dup2\n      mstore\n      0x20\n      add\n      0x00\n      keccak256\n      0x00\n        /* \"contracts/Twitter0.6.sol\":4039:4068  delete Tweet_info[msg.sender] */\n      tag_152\n      swap2\n      swap1\n      tag_153\n      jump\t// in\n    tag_152:\n        /* \"contracts/Twitter0.6.sol\":3995:4076  function DeleteAllTweets()public {... */\n      jump\t// out\n        /* \"contracts/Twitter0.6.sol\":1356:2428  function createTweet(string memory _tweet) public {... */\n    tag_32:\n        /* \"contracts/Twitter0.6.sol\":1922:1933  TweetLength */\n      sload(0x01)\n        /* \"contracts/Twitter0.6.sol\":1904:1910  _tweet */\n      dup2\n        /* \"contracts/Twitter0.6.sol\":1898:1918  bytes(_tweet).length */\n      mload\n        /* \"contracts/Twitter0.6.sol\":1898:1933  bytes(_tweet).length <= TweetLength */\n      gt\n      iszero\n        /* \"contracts/Twitter0.6.sol\":1890:1961  require(bytes(_tweet).length <= TweetLength ,\"Tweet Length is Exceed!\") */\n      tag_155\n      jumpi\n      mload(0x40)\n      0x08c379a000000000000000000000000000000000000000000000000000000000\n      dup2\n      mstore\n      0x04\n      add\n      tag_156\n      swap1\n      tag_157\n      jump\t// in\n    tag_156:\n      mload(0x40)\n      dup1\n      swap2\n      sub\n      swap1\n      revert\n    tag_155:\n        /* \"contracts/Twitter0.6.sol\":1974:1995  Tweet memory NewTweet */\n      0x00\n        /* \"contracts/Twitter0.6.sol\":1998:2272  Tweet({... */\n      mload(0x40)\n      dup1\n      0x0100\n      add\n      0x40\n      mstore\n      dup1\n        /* \"contracts/Twitter0.6.sol\":2054:2055  1 */\n      0x01\n        /* \"contracts/Twitter0.6.sol\":2024:2034  Tweet_info */\n      0x03\n        /* \"contracts/Twitter0.6.sol\":2024:2046  Tweet_info[msg.sender] */\n      0x00\n        /* \"contracts/Twitter0.6.sol\":2035:2045  msg.sender */\n      caller\n        /* \"contracts/Twitter0.6.sol\":2024:2046  Tweet_info[msg.sender] */\n      0xffffffffffffffffffffffffffffffffffffffff\n      and\n      0xffffffffffffffffffffffffffffffffffffffff\n      and\n      dup2\n      mstore\n      0x20\n      add\n      swap1\n      dup2\n      mstore\n      0x20\n      add\n      0x00\n      keccak256\n        /* \"contracts/Twitter0.6.sol\":2024:2053  Tweet_info[msg.sender].length */\n      dup1\n      sload\n      swap1\n      pop\n        /* \"contracts/Twitter0.6.sol\":2024:2055  Tweet_info[msg.sender].length+1 */\n      tag_158\n      swap2\n      swap1\n      tag_159\n      jump\t// in\n    tag_158:\n        /* \"contracts/Twitter0.6.sol\":1998:2272  Tweet({... */\n      dup2\n      mstore\n      0x20\n      add\n        /* \"contracts/Twitter0.6.sol\":2078:2084  _tweet */\n      dup4\n        /* \"contracts/Twitter0.6.sol\":1998:2272  Tweet({... */\n      dup2\n      mstore\n      0x20\n      add\n        /* \"contracts/Twitter0.6.sol\":2106:2116  msg.sender */\n      caller\n        /* \"contracts/Twitter0.6.sol\":1998:2272  Tweet({... */\n      0xffffffffffffffffffffffffffffffffffffffff\n      and\n      dup2\n      mstore\n      0x20\n      add\n        /* \"contracts/Twitter0.6.sol\":2141:2156  block.timestamp */\n      timestamp\n        /* \"contracts/Twitter0.6.sol\":1998:2272  Tweet({... */\n      dup2\n      mstore\n      0x20\n      add\n        /* \"contracts/Twitter0.6.sol\":2177:2179  li */\n      0x02\n        /* \"contracts/Twitter0.6.sol\":1998:2272  Tweet({... */\n      dup1\n      sload\n      dup1\n      0x20\n      mul\n      0x20\n      add\n      mload(0x40)\n      swap1\n      dup2\n      add\n      0x40\n      mstore\n      dup1\n      swap3\n      swap2\n      swap1\n      dup2\n      dup2\n      mstore\n      0x20\n      add\n      dup3\n      dup1\n      sload\n      dup1\n      iszero\n      tag_160\n      jumpi\n      0x20\n      mul\n      dup3\n      add\n      swap2\n      swap1\n      0x00\n      mstore\n      keccak256(0x00, 0x20)\n      swap1\n    tag_161:\n      dup2\n      0x00\n      swap1\n      sload\n      swap1\n      0x0100\n      exp\n      swap1\n      div\n      0xffffffffffffffffffffffffffffffffffffffff\n      and\n      0xffffffffffffffffffffffffffffffffffffffff\n      and\n      dup2\n      mstore\n      0x20\n      add\n      swap1\n      0x01\n      add\n      swap1\n      dup1\n      dup4\n      gt\n      tag_161\n      jumpi\n    tag_160:\n      pop\n      pop\n      pop\n      pop\n      pop\n      dup2\n      mstore\n      0x20\n      add\n        /* \"contracts/Twitter0.6.sol\":2205:2206  0 */\n      0x00\n        /* \"contracts/Twitter0.6.sol\":1998:2272  Tweet({... */\n      dup2\n      mstore\n      0x20\n      add\n        /* \"contracts/Twitter0.6.sol\":2234:2235  0 */\n      0x00\n        /* \"contracts/Twitter0.6.sol\":1998:2272  Tweet({... */\n      dup2\n      mstore\n      0x20\n      add\n        /* \"contracts/Twitter0.6.sol\":2258:2260  li */\n      0x02\n        /* \"contracts/Twitter0.6.sol\":1998:2272  Tweet({... */\n      dup1\n      sload\n      dup1\n      0x20\n      mul\n      0x20\n      add\n      mload(0x40)\n      swap1\n      dup2\n      add\n      0x40\n      mstore\n      dup1\n      swap3\n      swap2\n      swap1\n      dup2\n      dup2\n      mstore\n      0x20\n      add\n      dup3\n      dup1\n      sload\n      dup1\n      iszero\n      tag_162\n      jumpi\n      0x20\n      mul\n      dup3\n      add\n      swap2\n      swap1\n      0x00\n      mstore\n      keccak256(0x00, 0x20)\n      swap1\n    tag_163:\n      dup2\n      0x00\n      swap1\n      sload\n      swap1\n      0x0100\n      exp\n      swap1\n      div\n      0xffffffffffffffffffffffffffffffffffffffff\n      and\n      0xffffffffffffffffffffffffffffffffffffffff\n      and\n      dup2\n      mstore\n      0x20\n      add\n      swap1\n      0x01\n      add\n      swap1\n      dup1\n      dup4\n      gt\n      tag_163\n      jumpi\n    tag_162:\n      pop\n      pop\n      pop\n      pop\n      pop\n      dup2\n      mstore\n      pop\n        /* \"contracts/Twitter0.6.sol\":1974:2272  Tweet memory NewTweet = Tweet({... */\n      swap1\n      pop\n        /* \"contracts/Twitter0.6.sol\":2285:2295  Tweet_info */\n      0x03\n        /* \"contracts/Twitter0.6.sol\":2285:2307  Tweet_info[msg.sender] */\n      0x00\n        /* \"contracts/Twitter0.6.sol\":2296:2306  msg.sender */\n      caller\n        /* \"contracts/Twitter0.6.sol\":2285:2307  Tweet_info[msg.sender] */\n      0xffffffffffffffffffffffffffffffffffffffff\n      and\n      0xffffffffffffffffffffffffffffffffffffffff\n      and\n      dup2\n      mstore\n      0x20\n      add\n      swap1\n      dup2\n      mstore\n      0x20\n      add\n      0x00\n      keccak256\n        /* \"contracts/Twitter0.6.sol\":2313:2321  NewTweet */\n      dup2\n        /* \"contracts/Twitter0.6.sol\":2285:2322  Tweet_info[msg.sender].push(NewTweet) */\n      swap1\n      dup1\n      0x01\n      dup2\n      sload\n      add\n      dup1\n      dup3\n      sstore\n      dup1\n      swap2\n      pop\n      pop\n      0x01\n      swap1\n      sub\n      swap1\n      0x00\n      mstore\n      keccak256(0x00, 0x20)\n      swap1\n      0x08\n      mul\n      add\n      0x00\n      swap1\n      swap2\n      swap1\n      swap2\n      swap1\n      swap2\n      pop\n      0x00\n      dup3\n      add\n      mload\n      dup2\n      0x00\n      add\n      sstore\n      0x20\n      dup3\n      add\n      mload\n      dup2\n      0x01\n      add\n      swap1\n      dup2\n      tag_165\n      swap2\n      swap1\n      tag_166\n      jump\t// in\n    tag_165:\n      pop\n      0x40\n      dup3\n      add\n      mload\n      dup2\n      0x02\n      add\n      exp(0x0100, 0x00)\n      dup2\n      sload\n      dup2\n      0xffffffffffffffffffffffffffffffffffffffff\n      mul\n      not\n      and\n      swap1\n      dup4\n      0xffffffffffffffffffffffffffffffffffffffff\n      and\n      mul\n      or\n      swap1\n      sstore\n      pop\n      0x60\n      dup3\n      add\n      mload\n      dup2\n      0x03\n      add\n      sstore\n      0x80\n      dup3\n      add\n      mload\n      dup2\n      0x04\n      add\n      swap1\n      dup1\n      mload\n      swap1\n      0x20\n      add\n      swap1\n      tag_167\n      swap3\n      swap2\n      swap1\n      tag_168\n      jump\t// in\n    tag_167:\n      pop\n      0xa0\n      dup3\n      add\n      mload\n      dup2\n      0x05\n      add\n      sstore\n      0xc0\n      dup3\n      add\n      mload\n      dup2\n      0x06\n      add\n      sstore\n      0xe0\n      dup3\n      add\n      mload\n      dup2\n      0x07\n      add\n      swap1\n      dup1\n      mload\n      swap1\n      0x20\n      add\n      swap1\n      tag_169\n      swap3\n      swap2\n      swap1\n      tag_168\n      jump\t// in\n    tag_169:\n      pop\n      pop\n      pop\n        /* \"contracts/Twitter0.6.sol\":2338:2420  TweetCreated(Tweet_info[msg.sender].length+1, msg.sender, _tweet, block.timestamp) */\n      0x16fd3c13e9d46923e0a8bce11c7b473ec508a72e6c96cd2404b29ce972afc29e\n        /* \"contracts/Twitter0.6.sol\":2381:2382  1 */\n      0x01\n        /* \"contracts/Twitter0.6.sol\":2351:2361  Tweet_info */\n      0x03\n        /* \"contracts/Twitter0.6.sol\":2351:2373  Tweet_info[msg.sender] */\n      0x00\n        /* \"contracts/Twitter0.6.sol\":2362:2372  msg.sender */\n      caller\n        /* \"contracts/Twitter0.6.sol\":2351:2373  Tweet_info[msg.sender] */\n      0xffffffffffffffffffffffffffffffffffffffff\n      and\n      0xffffffffffffffffffffffffffffffffffffffff\n      and\n      dup2\n      mstore\n      0x20\n      add\n      swap1\n      dup2\n      mstore\n      0x20\n      add\n      0x00\n      keccak256\n        /* \"contracts/Twitter0.6.sol\":2351:2380  Tweet_info[msg.sender].length */\n      dup1\n      sload\n      swap1\n      pop\n        /* \"contracts/Twitter0.6.sol\":2351:2382  Tweet_info[msg.sender].length+1 */\n      tag_170\n      swap2\n      swap1\n      tag_159\n      jump\t// in\n    tag_170:\n        /* \"contracts/Twitter0.6.sol\":2384:2394  msg.sender */\n      caller\n        /* \"contracts/Twitter0.6.sol\":2396:2402  _tweet */\n      dup5\n        /* \"contracts/Twitter0.6.sol\":2404:2419  block.timestamp */\n      timestamp\n        /* \"contracts/Twitter0.6.sol\":2338:2420  TweetCreated(Tweet_info[msg.sender].length+1, msg.sender, _tweet, block.timestamp) */\n      mload(0x40)\n      tag_171\n      swap5\n      swap4\n      swap3\n      swap2\n      swap1\n      tag_172\n      jump\t// in\n    tag_171:\n      mload(0x40)\n      dup1\n      swap2\n      sub\n      swap1\n      log1\n        /* \"contracts/Twitter0.6.sol\":1406:2428  {... */\n      pop\n        /* \"contracts/Twitter0.6.sol\":1356:2428  function createTweet(string memory _tweet) public {... */\n      pop\n      jump\t// out\n        /* \"contracts/Twitter0.6.sol\":4575:4947  function UnlikeTweet(address User,uint256 TweetIndex)external ... */\n    tag_35:\n        /* \"contracts/Twitter0.6.sol\":4661:4665  User */\n      dup2\n        /* \"contracts/Twitter0.6.sol\":4666:4676  TweetIndex */\n      dup2\n        /* \"contracts/Twitter0.6.sol\":2671:2673  id */\n      dup1\n        /* \"contracts/Twitter0.6.sol\":2644:2654  Tweet_info */\n      0x03\n        /* \"contracts/Twitter0.6.sol\":2644:2660  Tweet_info[User] */\n      0x00\n        /* \"contracts/Twitter0.6.sol\":2655:2659  User */\n      dup5\n        /* \"contracts/Twitter0.6.sol\":2644:2660  Tweet_info[User] */\n      0xffffffffffffffffffffffffffffffffffffffff\n      and\n      0xffffffffffffffffffffffffffffffffffffffff\n      and\n      dup2\n      mstore\n      0x20\n      add\n      swap1\n      dup2\n      mstore\n      0x20\n      add\n      0x00\n      keccak256\n        /* \"contracts/Twitter0.6.sol\":2644:2667  Tweet_info[User].length */\n      dup1\n      sload\n      swap1\n      pop\n        /* \"contracts/Twitter0.6.sol\":2644:2673  Tweet_info[User].length >= id */\n      lt\n      iszero\n        /* \"contracts/Twitter0.6.sol\":2636:2699  require(Tweet_info[User].length >= id,\"This Tweet Not Exist !\") */\n      tag_174\n      jumpi\n      mload(0x40)\n      0x08c379a000000000000000000000000000000000000000000000000000000000\n      dup2\n      mstore\n      0x04\n      add\n      tag_175\n      swap1\n      tag_43\n      jump\t// in\n    tag_175:\n      mload(0x40)\n      dup1\n      swap2\n      sub\n      swap1\n      revert\n    tag_174:\n        /* \"contracts/Twitter0.6.sol\":2710:2718  bool res */\n      0x00\n        /* \"contracts/Twitter0.6.sol\":2721:2725  true */\n      0x01\n        /* \"contracts/Twitter0.6.sol\":2710:2725  bool res = true */\n      swap1\n      pop\n        /* \"contracts/Twitter0.6.sol\":2736:2745  uint256 l */\n      0x00\n        /* \"contracts/Twitter0.6.sol\":2760:3025  while (l<Tweet_info[User][id-1].likes.length)... */\n    tag_176:\n        /* \"contracts/Twitter0.6.sol\":2769:2779  Tweet_info */\n      0x03\n        /* \"contracts/Twitter0.6.sol\":2769:2785  Tweet_info[User] */\n      0x00\n        /* \"contracts/Twitter0.6.sol\":2780:2784  User */\n      dup6\n        /* \"contracts/Twitter0.6.sol\":2769:2785  Tweet_info[User] */\n      0xffffffffffffffffffffffffffffffffffffffff\n      and\n      0xffffffffffffffffffffffffffffffffffffffff\n      and\n      dup2\n      mstore\n      0x20\n      add\n      swap1\n      dup2\n      mstore\n      0x20\n      add\n      0x00\n      keccak256\n        /* \"contracts/Twitter0.6.sol\":2789:2790  1 */\n      0x01\n        /* \"contracts/Twitter0.6.sol\":2786:2788  id */\n      dup5\n        /* \"contracts/Twitter0.6.sol\":2786:2790  id-1 */\n      tag_178\n      swap2\n      swap1\n      tag_47\n      jump\t// in\n    tag_178:\n        /* \"contracts/Twitter0.6.sol\":2769:2791  Tweet_info[User][id-1] */\n      dup2\n      sload\n      dup2\n      lt\n      tag_179\n      jumpi\n      tag_180\n      tag_50\n      jump\t// in\n    tag_180:\n    tag_179:\n      swap1\n      0x00\n      mstore\n      keccak256(0x00, 0x20)\n      swap1\n      0x08\n      mul\n      add\n        /* \"contracts/Twitter0.6.sol\":2769:2797  Tweet_info[User][id-1].likes */\n      0x04\n      add\n        /* \"contracts/Twitter0.6.sol\":2769:2804  Tweet_info[User][id-1].likes.length */\n      dup1\n      sload\n      swap1\n      pop\n        /* \"contracts/Twitter0.6.sol\":2767:2768  l */\n      dup2\n        /* \"contracts/Twitter0.6.sol\":2767:2804  l<Tweet_info[User][id-1].likes.length */\n      lt\n        /* \"contracts/Twitter0.6.sol\":2760:3025  while (l<Tweet_info[User][id-1].likes.length)... */\n      iszero\n      tag_177\n      jumpi\n        /* \"contracts/Twitter0.6.sol\":2868:2878  msg.sender */\n      caller\n        /* \"contracts/Twitter0.6.sol\":2833:2878  Tweet_info[User][id-1].likes[l] == msg.sender */\n      0xffffffffffffffffffffffffffffffffffffffff\n      and\n        /* \"contracts/Twitter0.6.sol\":2833:2843  Tweet_info */\n      0x03\n        /* \"contracts/Twitter0.6.sol\":2833:2849  Tweet_info[User] */\n      0x00\n        /* \"contracts/Twitter0.6.sol\":2844:2848  User */\n      dup7\n        /* \"contracts/Twitter0.6.sol\":2833:2849  Tweet_info[User] */\n      0xffffffffffffffffffffffffffffffffffffffff\n      and\n      0xffffffffffffffffffffffffffffffffffffffff\n      and\n      dup2\n      mstore\n      0x20\n      add\n      swap1\n      dup2\n      mstore\n      0x20\n      add\n      0x00\n      keccak256\n        /* \"contracts/Twitter0.6.sol\":2853:2854  1 */\n      0x01\n        /* \"contracts/Twitter0.6.sol\":2850:2852  id */\n      dup6\n        /* \"contracts/Twitter0.6.sol\":2850:2854  id-1 */\n      tag_182\n      swap2\n      swap1\n      tag_47\n      jump\t// in\n    tag_182:\n        /* \"contracts/Twitter0.6.sol\":2833:2855  Tweet_info[User][id-1] */\n      dup2\n      sload\n      dup2\n      lt\n      tag_183\n      jumpi\n      tag_184\n      tag_50\n      jump\t// in\n    tag_184:\n    tag_183:\n      swap1\n      0x00\n      mstore\n      keccak256(0x00, 0x20)\n      swap1\n      0x08\n      mul\n      add\n        /* \"contracts/Twitter0.6.sol\":2833:2861  Tweet_info[User][id-1].likes */\n      0x04\n      add\n        /* \"contracts/Twitter0.6.sol\":2862:2863  l */\n      dup3\n        /* \"contracts/Twitter0.6.sol\":2833:2864  Tweet_info[User][id-1].likes[l] */\n      dup2\n      sload\n      dup2\n      lt\n      tag_186\n      jumpi\n      tag_187\n      tag_50\n      jump\t// in\n    tag_187:\n    tag_186:\n      swap1\n      0x00\n      mstore\n      keccak256(0x00, 0x20)\n      add\n      0x00\n      swap1\n      sload\n      swap1\n      0x0100\n      exp\n      swap1\n      div\n      0xffffffffffffffffffffffffffffffffffffffff\n      and\n        /* \"contracts/Twitter0.6.sol\":2833:2878  Tweet_info[User][id-1].likes[l] == msg.sender */\n      0xffffffffffffffffffffffffffffffffffffffff\n      and\n      sub\n        /* \"contracts/Twitter0.6.sol\":2830:3014  if(Tweet_info[User][id-1].likes[l] == msg.sender)... */\n      tag_189\n      jumpi\n        /* \"contracts/Twitter0.6.sol\":2916:2921  false */\n      0x00\n        /* \"contracts/Twitter0.6.sol\":2912:2921  res=false */\n      swap2\n      pop\n        /* \"contracts/Twitter0.6.sol\":2940:2945  break */\n      jump(tag_177)\n        /* \"contracts/Twitter0.6.sol\":2830:3014  if(Tweet_info[User][id-1].likes[l] == msg.sender)... */\n    tag_189:\n        /* \"contracts/Twitter0.6.sol\":2995:2998  l++ */\n      dup1\n      dup1\n      tag_191\n      swap1\n      tag_62\n      jump\t// in\n    tag_191:\n      swap2\n      pop\n      pop\n        /* \"contracts/Twitter0.6.sol\":2760:3025  while (l<Tweet_info[User][id-1].likes.length)... */\n      jump(tag_176)\n    tag_177:\n        /* \"contracts/Twitter0.6.sol\":3052:3056  true */\n      0x01\n        /* \"contracts/Twitter0.6.sol\":3045:3056  res == true */\n      iszero\n      iszero\n        /* \"contracts/Twitter0.6.sol\":3045:3048  res */\n      dup3\n        /* \"contracts/Twitter0.6.sol\":3045:3056  res == true */\n      iszero\n      iszero\n      eq\n        /* \"contracts/Twitter0.6.sol\":3037:3089  require(res == true, \"You Already Liked the tweet!\") */\n      tag_192\n      jumpi\n      mload(0x40)\n      0x08c379a000000000000000000000000000000000000000000000000000000000\n      dup2\n      mstore\n      0x04\n      add\n      tag_193\n      swap1\n      tag_65\n      jump\t// in\n    tag_193:\n      mload(0x40)\n      dup1\n      swap2\n      sub\n      swap1\n      revert\n    tag_192:\n        /* \"contracts/Twitter0.6.sol\":4698:4702  User */\n      dup6\n        /* \"contracts/Twitter0.6.sol\":4703:4713  TweetIndex */\n      dup6\n        /* \"contracts/Twitter0.6.sol\":3223:3225  id */\n      dup1\n        /* \"contracts/Twitter0.6.sol\":3196:3206  Tweet_info */\n      0x03\n        /* \"contracts/Twitter0.6.sol\":3196:3212  Tweet_info[User] */\n      0x00\n        /* \"contracts/Twitter0.6.sol\":3207:3211  User */\n      dup5\n        /* \"contracts/Twitter0.6.sol\":3196:3212  Tweet_info[User] */\n      0xffffffffffffffffffffffffffffffffffffffff\n      and\n      0xffffffffffffffffffffffffffffffffffffffff\n      and\n      dup2\n      mstore\n      0x20\n      add\n      swap1\n      dup2\n      mstore\n      0x20\n      add\n      0x00\n      keccak256\n        /* \"contracts/Twitter0.6.sol\":3196:3219  Tweet_info[User].length */\n      dup1\n      sload\n      swap1\n      pop\n        /* \"contracts/Twitter0.6.sol\":3196:3225  Tweet_info[User].length >= id */\n      lt\n      iszero\n        /* \"contracts/Twitter0.6.sol\":3188:3251  require(Tweet_info[User].length >= id,\"This Tweet Not Exist !\") */\n      tag_195\n      jumpi\n      mload(0x40)\n      0x08c379a000000000000000000000000000000000000000000000000000000000\n      dup2\n      mstore\n      0x04\n      add\n      tag_196\n      swap1\n      tag_43\n      jump\t// in\n    tag_196:\n      mload(0x40)\n      dup1\n      swap2\n      sub\n      swap1\n      revert\n    tag_195:\n        /* \"contracts/Twitter0.6.sol\":3262:3270  bool res */\n      0x00\n        /* \"contracts/Twitter0.6.sol\":3273:3277  true */\n      0x01\n        /* \"contracts/Twitter0.6.sol\":3262:3277  bool res = true */\n      swap1\n      pop\n        /* \"contracts/Twitter0.6.sol\":3288:3297  uint256 l */\n      0x00\n        /* \"contracts/Twitter0.6.sol\":3311:3543  while (l<Tweet_info[User][id-1].likes.length)... */\n    tag_197:\n        /* \"contracts/Twitter0.6.sol\":3320:3330  Tweet_info */\n      0x03\n        /* \"contracts/Twitter0.6.sol\":3320:3336  Tweet_info[User] */\n      0x00\n        /* \"contracts/Twitter0.6.sol\":3331:3335  User */\n      dup6\n        /* \"contracts/Twitter0.6.sol\":3320:3336  Tweet_info[User] */\n      0xffffffffffffffffffffffffffffffffffffffff\n      and\n      0xffffffffffffffffffffffffffffffffffffffff\n      and\n      dup2\n      mstore\n      0x20\n      add\n      swap1\n      dup2\n      mstore\n      0x20\n      add\n      0x00\n      keccak256\n        /* \"contracts/Twitter0.6.sol\":3340:3341  1 */\n      0x01\n        /* \"contracts/Twitter0.6.sol\":3337:3339  id */\n      dup5\n        /* \"contracts/Twitter0.6.sol\":3337:3341  id-1 */\n      tag_199\n      swap2\n      swap1\n      tag_47\n      jump\t// in\n    tag_199:\n        /* \"contracts/Twitter0.6.sol\":3320:3342  Tweet_info[User][id-1] */\n      dup2\n      sload\n      dup2\n      lt\n      tag_200\n      jumpi\n      tag_201\n      tag_50\n      jump\t// in\n    tag_201:\n    tag_200:\n      swap1\n      0x00\n      mstore\n      keccak256(0x00, 0x20)\n      swap1\n      0x08\n      mul\n      add\n        /* \"contracts/Twitter0.6.sol\":3320:3348  Tweet_info[User][id-1].likes */\n      0x04\n      add\n        /* \"contracts/Twitter0.6.sol\":3320:3355  Tweet_info[User][id-1].likes.length */\n      dup1\n      sload\n      swap1\n      pop\n        /* \"contracts/Twitter0.6.sol\":3318:3319  l */\n      dup2\n        /* \"contracts/Twitter0.6.sol\":3318:3355  l<Tweet_info[User][id-1].likes.length */\n      lt\n        /* \"contracts/Twitter0.6.sol\":3311:3543  while (l<Tweet_info[User][id-1].likes.length)... */\n      iszero\n      tag_198\n      jumpi\n        /* \"contracts/Twitter0.6.sol\":3421:3431  msg.sender */\n      caller\n        /* \"contracts/Twitter0.6.sol\":3384:3431  Tweet_info[User][id-1].unlikes[l] == msg.sender */\n      0xffffffffffffffffffffffffffffffffffffffff\n      and\n        /* \"contracts/Twitter0.6.sol\":3384:3394  Tweet_info */\n      0x03\n        /* \"contracts/Twitter0.6.sol\":3384:3400  Tweet_info[User] */\n      0x00\n        /* \"contracts/Twitter0.6.sol\":3395:3399  User */\n      dup7\n        /* \"contracts/Twitter0.6.sol\":3384:3400  Tweet_info[User] */\n      0xffffffffffffffffffffffffffffffffffffffff\n      and\n      0xffffffffffffffffffffffffffffffffffffffff\n      and\n      dup2\n      mstore\n      0x20\n      add\n      swap1\n      dup2\n      mstore\n      0x20\n      add\n      0x00\n      keccak256\n        /* \"contracts/Twitter0.6.sol\":3404:3405  1 */\n      0x01\n        /* \"contracts/Twitter0.6.sol\":3401:3403  id */\n      dup6\n        /* \"contracts/Twitter0.6.sol\":3401:3405  id-1 */\n      tag_203\n      swap2\n      swap1\n      tag_47\n      jump\t// in\n    tag_203:\n        /* \"contracts/Twitter0.6.sol\":3384:3406  Tweet_info[User][id-1] */\n      dup2\n      sload\n      dup2\n      lt\n      tag_204\n      jumpi\n      tag_205\n      tag_50\n      jump\t// in\n    tag_205:\n    tag_204:\n      swap1\n      0x00\n      mstore\n      keccak256(0x00, 0x20)\n      swap1\n      0x08\n      mul\n      add\n        /* \"contracts/Twitter0.6.sol\":3384:3414  Tweet_info[User][id-1].unlikes */\n      0x07\n      add\n        /* \"contracts/Twitter0.6.sol\":3415:3416  l */\n      dup3\n        /* \"contracts/Twitter0.6.sol\":3384:3417  Tweet_info[User][id-1].unlikes[l] */\n      dup2\n      sload\n      dup2\n      lt\n      tag_207\n      jumpi\n      tag_208\n      tag_50\n      jump\t// in\n    tag_208:\n    tag_207:\n      swap1\n      0x00\n      mstore\n      keccak256(0x00, 0x20)\n      add\n      0x00\n      swap1\n      sload\n      swap1\n      0x0100\n      exp\n      swap1\n      div\n      0xffffffffffffffffffffffffffffffffffffffff\n      and\n        /* \"contracts/Twitter0.6.sol\":3384:3431  Tweet_info[User][id-1].unlikes[l] == msg.sender */\n      0xffffffffffffffffffffffffffffffffffffffff\n      and\n      sub\n        /* \"contracts/Twitter0.6.sol\":3381:3514  if(Tweet_info[User][id-1].unlikes[l] == msg.sender)... */\n      tag_210\n      jumpi\n        /* \"contracts/Twitter0.6.sol\":3469:3474  false */\n      0x00\n        /* \"contracts/Twitter0.6.sol\":3465:3474  res=false */\n      swap2\n      pop\n        /* \"contracts/Twitter0.6.sol\":3493:3498  break */\n      jump(tag_198)\n        /* \"contracts/Twitter0.6.sol\":3381:3514  if(Tweet_info[User][id-1].unlikes[l] == msg.sender)... */\n    tag_210:\n        /* \"contracts/Twitter0.6.sol\":3528:3531  l++ */\n      dup1\n      dup1\n      tag_211\n      swap1\n      tag_62\n      jump\t// in\n    tag_211:\n      swap2\n      pop\n      pop\n        /* \"contracts/Twitter0.6.sol\":3311:3543  while (l<Tweet_info[User][id-1].likes.length)... */\n      jump(tag_197)\n    tag_198:\n        /* \"contracts/Twitter0.6.sol\":3570:3574  true */\n      0x01\n        /* \"contracts/Twitter0.6.sol\":3563:3574  res == true */\n      iszero\n      iszero\n        /* \"contracts/Twitter0.6.sol\":3563:3566  res */\n      dup3\n        /* \"contracts/Twitter0.6.sol\":3563:3574  res == true */\n      iszero\n      iszero\n      eq\n        /* \"contracts/Twitter0.6.sol\":3555:3608  require(res == true,\"You Already UnLiked the tweet!\") */\n      tag_212\n      jumpi\n      mload(0x40)\n      0x08c379a000000000000000000000000000000000000000000000000000000000\n      dup2\n      mstore\n      0x04\n      add\n      tag_213\n      swap1\n      tag_86\n      jump\t// in\n    tag_213:\n      mload(0x40)\n      dup1\n      swap2\n      sub\n      swap1\n      revert\n    tag_212:\n        /* \"contracts/Twitter0.6.sol\":4747:4757  msg.sender */\n      caller\n        /* \"contracts/Twitter0.6.sol\":4739:4757  User != msg.sender */\n      0xffffffffffffffffffffffffffffffffffffffff\n      and\n        /* \"contracts/Twitter0.6.sol\":4739:4743  User */\n      dup11\n        /* \"contracts/Twitter0.6.sol\":4739:4757  User != msg.sender */\n      0xffffffffffffffffffffffffffffffffffffffff\n      and\n      sub\n        /* \"contracts/Twitter0.6.sol\":4731:4807  require(User != msg.sender,\"This is Your Tweet!You cann't Like Your Tweet!\") */\n      tag_215\n      jumpi\n      mload(0x40)\n      0x08c379a000000000000000000000000000000000000000000000000000000000\n      dup2\n      mstore\n      0x04\n      add\n      tag_216\n      swap1\n      tag_90\n      jump\t// in\n    tag_216:\n      mload(0x40)\n      dup1\n      swap2\n      sub\n      swap1\n      revert\n    tag_215:\n        /* \"contracts/Twitter0.6.sol\":4818:4828  Tweet_info */\n      0x03\n        /* \"contracts/Twitter0.6.sol\":4818:4834  Tweet_info[User] */\n      0x00\n        /* \"contracts/Twitter0.6.sol\":4829:4833  User */\n      dup12\n        /* \"contracts/Twitter0.6.sol\":4818:4834  Tweet_info[User] */\n      0xffffffffffffffffffffffffffffffffffffffff\n      and\n      0xffffffffffffffffffffffffffffffffffffffff\n      and\n      dup2\n      mstore\n      0x20\n      add\n      swap1\n      dup2\n      mstore\n      0x20\n      add\n      0x00\n      keccak256\n        /* \"contracts/Twitter0.6.sol\":4846:4847  1 */\n      0x01\n        /* \"contracts/Twitter0.6.sol\":4835:4845  TweetIndex */\n      dup11\n        /* \"contracts/Twitter0.6.sol\":4835:4847  TweetIndex-1 */\n      tag_217\n      swap2\n      swap1\n      tag_47\n      jump\t// in\n    tag_217:\n        /* \"contracts/Twitter0.6.sol\":4818:4848  Tweet_info[User][TweetIndex-1] */\n      dup2\n      sload\n      dup2\n      lt\n      tag_218\n      jumpi\n      tag_219\n      tag_50\n      jump\t// in\n    tag_219:\n    tag_218:\n      swap1\n      0x00\n      mstore\n      keccak256(0x00, 0x20)\n      swap1\n      0x08\n      mul\n      add\n        /* \"contracts/Twitter0.6.sol\":4818:4856  Tweet_info[User][TweetIndex-1].unlikes */\n      0x07\n      add\n        /* \"contracts/Twitter0.6.sol\":4862:4872  msg.sender */\n      caller\n        /* \"contracts/Twitter0.6.sol\":4818:4873  Tweet_info[User][TweetIndex-1].unlikes.push(msg.sender) */\n      swap1\n      dup1\n      0x01\n      dup2\n      sload\n      add\n      dup1\n      dup3\n      sstore\n      dup1\n      swap2\n      pop\n      pop\n      0x01\n      swap1\n      sub\n      swap1\n      0x00\n      mstore\n      keccak256(0x00, 0x20)\n      add\n      0x00\n      swap1\n      swap2\n      swap1\n      swap2\n      swap1\n      swap2\n      0x0100\n      exp\n      dup2\n      sload\n      dup2\n      0xffffffffffffffffffffffffffffffffffffffff\n      mul\n      not\n      and\n      swap1\n      dup4\n      0xffffffffffffffffffffffffffffffffffffffff\n      and\n      mul\n      or\n      swap1\n      sstore\n      pop\n        /* \"contracts/Twitter0.6.sol\":4884:4894  Tweet_info */\n      0x03\n        /* \"contracts/Twitter0.6.sol\":4884:4900  Tweet_info[User] */\n      0x00\n        /* \"contracts/Twitter0.6.sol\":4895:4899  User */\n      dup12\n        /* \"contracts/Twitter0.6.sol\":4884:4900  Tweet_info[User] */\n      0xffffffffffffffffffffffffffffffffffffffff\n      and\n      0xffffffffffffffffffffffffffffffffffffffff\n      and\n      dup2\n      mstore\n      0x20\n      add\n      swap1\n      dup2\n      mstore\n      0x20\n      add\n      0x00\n      keccak256\n        /* \"contracts/Twitter0.6.sol\":4912:4913  1 */\n      0x01\n        /* \"contracts/Twitter0.6.sol\":4901:4911  TweetIndex */\n      dup11\n        /* \"contracts/Twitter0.6.sol\":4901:4913  TweetIndex-1 */\n      tag_222\n      swap2\n      swap1\n      tag_47\n      jump\t// in\n    tag_222:\n        /* \"contracts/Twitter0.6.sol\":4884:4914  Tweet_info[User][TweetIndex-1] */\n      dup2\n      sload\n      dup2\n      lt\n      tag_223\n      jumpi\n      tag_224\n      tag_50\n      jump\t// in\n    tag_224:\n    tag_223:\n      swap1\n      0x00\n      mstore\n      keccak256(0x00, 0x20)\n      swap1\n      0x08\n      mul\n      add\n        /* \"contracts/Twitter0.6.sol\":4884:4927  Tweet_info[User][TweetIndex-1].unlikescount */\n      0x06\n      add\n      0x00\n        /* \"contracts/Twitter0.6.sol\":4884:4929  Tweet_info[User][TweetIndex-1].unlikescount++ */\n      dup2\n      sload\n      dup1\n      swap3\n      swap2\n      swap1\n      tag_226\n      swap1\n      tag_62\n      jump\t// in\n    tag_226:\n      swap2\n      swap1\n      pop\n      sstore\n      pop\n        /* \"contracts/Twitter0.6.sol\":3178:3630  {... */\n      pop\n      pop\n        /* \"contracts/Twitter0.6.sol\":3100:3101  _ */\n      pop\n      pop\n        /* \"contracts/Twitter0.6.sol\":2625:3111  {... */\n      pop\n      pop\n        /* \"contracts/Twitter0.6.sol\":4575:4947  function UnlikeTweet(address User,uint256 TweetIndex)external ... */\n      pop\n      pop\n      pop\n      pop\n      jump\t// out\n        /* \"contracts/Twitter0.6.sol\":1176:1281  function ChangeTweetLength(uint256 newTweetLen)public isOwner{... */\n    tag_39:\n        /* \"contracts/Twitter0.6.sol\":1096:1106  msg.sender */\n      caller\n        /* \"contracts/Twitter0.6.sol\":1087:1106  owner == msg.sender */\n      0xffffffffffffffffffffffffffffffffffffffff\n      and\n        /* \"contracts/Twitter0.6.sol\":1087:1092  owner */\n      0x00\n      dup1\n      sload\n      swap1\n      0x0100\n      exp\n      swap1\n      div\n      0xffffffffffffffffffffffffffffffffffffffff\n      and\n        /* \"contracts/Twitter0.6.sol\":1087:1106  owner == msg.sender */\n      0xffffffffffffffffffffffffffffffffffffffff\n      and\n      eq\n        /* \"contracts/Twitter0.6.sol\":1079:1148  require(owner == msg.sender,\"You are not a Owner!Permission Denied!\") */\n      tag_228\n      jumpi\n      mload(0x40)\n      0x08c379a000000000000000000000000000000000000000000000000000000000\n      dup2\n      mstore\n      0x04\n      add\n      tag_229\n      swap1\n      tag_230\n      jump\t// in\n    tag_229:\n      mload(0x40)\n      dup1\n      swap2\n      sub\n      swap1\n      revert\n    tag_228:\n        /* \"contracts/Twitter0.6.sol\":1262:1273  newTweetLen */\n      dup1\n        /* \"contracts/Twitter0.6.sol\":1248:1259  TweetLength */\n      0x01\n        /* \"contracts/Twitter0.6.sol\":1248:1273  TweetLength = newTweetLen */\n      dup2\n      swap1\n      sstore\n      pop\n        /* \"contracts/Twitter0.6.sol\":1176:1281  function ChangeTweetLength(uint256 newTweetLen)public isOwner{... */\n      pop\n      jump\t// out\n    tag_112:\n      mload(0x40)\n      dup1\n      0x0100\n      add\n      0x40\n      mstore\n      dup1\n      0x00\n      dup2\n      mstore\n      0x20\n      add\n      0x60\n      dup2\n      mstore\n      0x20\n      add\n      and(0xffffffffffffffffffffffffffffffffffffffff, 0x00)\n      dup2\n      mstore\n      0x20\n      add\n      0x00\n      dup2\n      mstore\n      0x20\n      add\n      0x60\n      dup2\n      mstore\n      0x20\n      add\n      0x00\n      dup2\n      mstore\n      0x20\n      add\n      0x00\n      dup2\n      mstore\n      0x20\n      add\n      0x60\n      dup2\n      mstore\n      pop\n      swap1\n      jump\t// out\n    tag_147:\n      pop\n      dup1\n      sload\n      tag_232\n      swap1\n      tag_119\n      jump\t// in\n    tag_232:\n      0x00\n      dup3\n      sstore\n      dup1\n      0x1f\n      lt\n      tag_234\n      jumpi\n      pop\n      jump(tag_233)\n    tag_234:\n      0x1f\n      add\n      0x20\n      swap1\n      div\n      swap1\n      0x00\n      mstore\n      keccak256(0x00, 0x20)\n      swap1\n      dup2\n      add\n      swap1\n      tag_235\n      swap2\n      swap1\n      tag_236\n      jump\t// in\n    tag_235:\n    tag_233:\n      pop\n      jump\t// out\n    tag_149:\n      pop\n      dup1\n      sload\n      0x00\n      dup3\n      sstore\n      swap1\n      0x00\n      mstore\n      keccak256(0x00, 0x20)\n      swap1\n      dup2\n      add\n      swap1\n      tag_238\n      swap2\n      swap1\n      tag_236\n      jump\t// in\n    tag_238:\n      pop\n      jump\t// out\n    tag_153:\n      pop\n      dup1\n      sload\n      0x00\n      dup3\n      sstore\n      0x08\n      mul\n      swap1\n      0x00\n      mstore\n      keccak256(0x00, 0x20)\n      swap1\n      dup2\n      add\n      swap1\n      tag_240\n      swap2\n      swap1\n      tag_241\n      jump\t// in\n    tag_240:\n      pop\n      jump\t// out\n    tag_168:\n      dup3\n      dup1\n      sload\n      dup3\n      dup3\n      sstore\n      swap1\n      0x00\n      mstore\n      keccak256(0x00, 0x20)\n      swap1\n      dup2\n      add\n      swap3\n      dup3\n      iszero\n      tag_242\n      jumpi\n      swap2\n      0x20\n      mul\n      dup3\n      add\n    tag_243:\n      dup3\n      dup2\n      gt\n      iszero\n      tag_244\n      jumpi\n      dup3\n      mload\n      dup3\n      exp(0x0100, 0x00)\n      dup2\n      sload\n      dup2\n      0xffffffffffffffffffffffffffffffffffffffff\n      mul\n      not\n      and\n      swap1\n      dup4\n      0xffffffffffffffffffffffffffffffffffffffff\n      and\n      mul\n      or\n      swap1\n      sstore\n      pop\n      swap2\n      0x20\n      add\n      swap2\n      swap1\n      0x01\n      add\n      swap1\n      jump(tag_243)\n    tag_244:\n    tag_242:\n      pop\n      swap1\n      pop\n      tag_245\n      swap2\n      swap1\n      tag_236\n      jump\t// in\n    tag_245:\n      pop\n      swap1\n      jump\t// out\n    tag_236:\n    tag_246:\n      dup1\n      dup3\n      gt\n      iszero\n      tag_247\n      jumpi\n      0x00\n      dup2\n      0x00\n      swap1\n      sstore\n      pop\n      0x01\n      add\n      jump(tag_246)\n    tag_247:\n      pop\n      swap1\n      jump\t// out\n    tag_241:\n    tag_248:\n      dup1\n      dup3\n      gt\n      iszero\n      tag_249\n      jumpi\n      0x00\n      dup1\n      dup3\n      add\n      0x00\n      swap1\n      sstore\n      0x01\n      dup3\n      add\n      0x00\n      tag_250\n      swap2\n      swap1\n      tag_147\n      jump\t// in\n    tag_250:\n      0x02\n      dup3\n      add\n      exp(0x0100, 0x00)\n      dup2\n      sload\n      swap1\n      0xffffffffffffffffffffffffffffffffffffffff\n      mul\n      not\n      and\n      swap1\n      sstore\n      0x03\n      dup3\n      add\n      0x00\n      swap1\n      sstore\n      0x04\n      dup3\n      add\n      0x00\n      tag_251\n      swap2\n      swap1\n      tag_149\n      jump\t// in\n    tag_251:\n      0x05\n      dup3\n      add\n      0x00\n      swap1\n      sstore\n      0x06\n      dup3\n      add\n      0x00\n      swap1\n      sstore\n      0x07\n      dup3\n      add\n      0x00\n      tag_252\n      swap2\n      swap1\n      tag_149\n      jump\t// in\n    tag_252:\n      pop\n      0x08\n      add\n      jump(tag_248)\n    tag_249:\n      pop\n      swap1\n      jump\t// out\n        /* \"#utility.yul\":7:82   */\n    tag_253:\n        /* \"#utility.yul\":40:46   */\n      0x00\n        /* \"#utility.yul\":73:75   */\n      0x40\n        /* \"#utility.yul\":67:76   */\n      mload\n        /* \"#utility.yul\":57:76   */\n      swap1\n      pop\n        /* \"#utility.yul\":7:82   */\n      swap1\n      jump\t// out\n        /* \"#utility.yul\":88:205   */\n    tag_254:\n        /* \"#utility.yul\":197:198   */\n      0x00\n        /* \"#utility.yul\":194:195   */\n      dup1\n        /* \"#utility.yul\":187:199   */\n      revert\n        /* \"#utility.yul\":211:328   */\n    tag_255:\n        /* \"#utility.yul\":320:321   */\n      0x00\n        /* \"#utility.yul\":317:318   */\n      dup1\n        /* \"#utility.yul\":310:322   */\n      revert\n        /* \"#utility.yul\":334:460   */\n    tag_256:\n        /* \"#utility.yul\":371:378   */\n      0x00\n        /* \"#utility.yul\":411:453   */\n      0xffffffffffffffffffffffffffffffffffffffff\n        /* \"#utility.yul\":404:409   */\n      dup3\n        /* \"#utility.yul\":400:454   */\n      and\n        /* \"#utility.yul\":389:454   */\n      swap1\n      pop\n        /* \"#utility.yul\":334:460   */\n      swap2\n      swap1\n      pop\n      jump\t// out\n        /* \"#utility.yul\":466:562   */\n    tag_257:\n        /* \"#utility.yul\":503:510   */\n      0x00\n        /* \"#utility.yul\":532:556   */\n      tag_332\n        /* \"#utility.yul\":550:555   */\n      dup3\n        /* \"#utility.yul\":532:556   */\n      tag_256\n      jump\t// in\n    tag_332:\n        /* \"#utility.yul\":521:556   */\n      swap1\n      pop\n        /* \"#utility.yul\":466:562   */\n      swap2\n      swap1\n      pop\n      jump\t// out\n        /* \"#utility.yul\":568:690   */\n    tag_258:\n        /* \"#utility.yul\":641:665   */\n      tag_334\n        /* \"#utility.yul\":659:664   */\n      dup2\n        /* \"#utility.yul\":641:665   */\n      tag_257\n      jump\t// in\n    tag_334:\n        /* \"#utility.yul\":634:639   */\n      dup2\n        /* \"#utility.yul\":631:666   */\n      eq\n        /* \"#utility.yul\":621:684   */\n      tag_335\n      jumpi\n        /* \"#utility.yul\":680:681   */\n      0x00\n        /* \"#utility.yul\":677:678   */\n      dup1\n        /* \"#utility.yul\":670:682   */\n      revert\n        /* \"#utility.yul\":621:684   */\n    tag_335:\n        /* \"#utility.yul\":568:690   */\n      pop\n      jump\t// out\n        /* \"#utility.yul\":696:835   */\n    tag_259:\n        /* \"#utility.yul\":742:747   */\n      0x00\n        /* \"#utility.yul\":780:786   */\n      dup2\n        /* \"#utility.yul\":767:787   */\n      calldataload\n        /* \"#utility.yul\":758:787   */\n      swap1\n      pop\n        /* \"#utility.yul\":796:829   */\n      tag_337\n        /* \"#utility.yul\":823:828   */\n      dup2\n        /* \"#utility.yul\":796:829   */\n      tag_258\n      jump\t// in\n    tag_337:\n        /* \"#utility.yul\":696:835   */\n      swap3\n      swap2\n      pop\n      pop\n      jump\t// out\n        /* \"#utility.yul\":841:918   */\n    tag_260:\n        /* \"#utility.yul\":878:885   */\n      0x00\n        /* \"#utility.yul\":907:912   */\n      dup2\n        /* \"#utility.yul\":896:912   */\n      swap1\n      pop\n        /* \"#utility.yul\":841:918   */\n      swap2\n      swap1\n      pop\n      jump\t// out\n        /* \"#utility.yul\":924:1046   */\n    tag_261:\n        /* \"#utility.yul\":997:1021   */\n      tag_340\n        /* \"#utility.yul\":1015:1020   */\n      dup2\n        /* \"#utility.yul\":997:1021   */\n      tag_260\n      jump\t// in\n    tag_340:\n        /* \"#utility.yul\":990:995   */\n      dup2\n        /* \"#utility.yul\":987:1022   */\n      eq\n        /* \"#utility.yul\":977:1040   */\n      tag_341\n      jumpi\n        /* \"#utility.yul\":1036:1037   */\n      0x00\n        /* \"#utility.yul\":1033:1034   */\n      dup1\n        /* \"#utility.yul\":1026:1038   */\n      revert\n        /* \"#utility.yul\":977:1040   */\n    tag_341:\n        /* \"#utility.yul\":924:1046   */\n      pop\n      jump\t// out\n        /* \"#utility.yul\":1052:1191   */\n    tag_262:\n        /* \"#utility.yul\":1098:1103   */\n      0x00\n        /* \"#utility.yul\":1136:1142   */\n      dup2\n        /* \"#utility.yul\":1123:1143   */\n      calldataload\n        /* \"#utility.yul\":1114:1143   */\n      swap1\n      pop\n        /* \"#utility.yul\":1152:1185   */\n      tag_343\n        /* \"#utility.yul\":1179:1184   */\n      dup2\n        /* \"#utility.yul\":1152:1185   */\n      tag_261\n      jump\t// in\n    tag_343:\n        /* \"#utility.yul\":1052:1191   */\n      swap3\n      swap2\n      pop\n      pop\n      jump\t// out\n        /* \"#utility.yul\":1197:1671   */\n    tag_14:\n        /* \"#utility.yul\":1265:1271   */\n      0x00\n        /* \"#utility.yul\":1273:1279   */\n      dup1\n        /* \"#utility.yul\":1322:1324   */\n      0x40\n        /* \"#utility.yul\":1310:1319   */\n      dup4\n        /* \"#utility.yul\":1301:1308   */\n      dup6\n        /* \"#utility.yul\":1297:1320   */\n      sub\n        /* \"#utility.yul\":1293:1325   */\n      slt\n        /* \"#utility.yul\":1290:1409   */\n      iszero\n      tag_345\n      jumpi\n        /* \"#utility.yul\":1328:1407   */\n      tag_346\n      tag_254\n      jump\t// in\n    tag_346:\n        /* \"#utility.yul\":1290:1409   */\n    tag_345:\n        /* \"#utility.yul\":1448:1449   */\n      0x00\n        /* \"#utility.yul\":1473:1526   */\n      tag_347\n        /* \"#utility.yul\":1518:1525   */\n      dup6\n        /* \"#utility.yul\":1509:1515   */\n      dup3\n        /* \"#utility.yul\":1498:1507   */\n      dup7\n        /* \"#utility.yul\":1494:1516   */\n      add\n        /* \"#utility.yul\":1473:1526   */\n      tag_259\n      jump\t// in\n    tag_347:\n        /* \"#utility.yul\":1463:1526   */\n      swap3\n      pop\n        /* \"#utility.yul\":1419:1536   */\n      pop\n        /* \"#utility.yul\":1575:1577   */\n      0x20\n        /* \"#utility.yul\":1601:1654   */\n      tag_348\n        /* \"#utility.yul\":1646:1653   */\n      dup6\n        /* \"#utility.yul\":1637:1643   */\n      dup3\n        /* \"#utility.yul\":1626:1635   */\n      dup7\n        /* \"#utility.yul\":1622:1644   */\n      add\n        /* \"#utility.yul\":1601:1654   */\n      tag_262\n      jump\t// in\n    tag_348:\n        /* \"#utility.yul\":1591:1654   */\n      swap2\n      pop\n        /* \"#utility.yul\":1546:1664   */\n      pop\n        /* \"#utility.yul\":1197:1671   */\n      swap3\n      pop\n      swap3\n      swap1\n      pop\n      jump\t// out\n        /* \"#utility.yul\":1677:1785   */\n    tag_263:\n        /* \"#utility.yul\":1754:1778   */\n      tag_350\n        /* \"#utility.yul\":1772:1777   */\n      dup2\n        /* \"#utility.yul\":1754:1778   */\n      tag_260\n      jump\t// in\n    tag_350:\n        /* \"#utility.yul\":1749:1752   */\n      dup3\n        /* \"#utility.yul\":1742:1779   */\n      mstore\n        /* \"#utility.yul\":1677:1785   */\n      pop\n      pop\n      jump\t// out\n        /* \"#utility.yul\":1791:1890   */\n    tag_264:\n        /* \"#utility.yul\":1843:1849   */\n      0x00\n        /* \"#utility.yul\":1877:1882   */\n      dup2\n        /* \"#utility.yul\":1871:1883   */\n      mload\n        /* \"#utility.yul\":1861:1883   */\n      swap1\n      pop\n        /* \"#utility.yul\":1791:1890   */\n      swap2\n      swap1\n      pop\n      jump\t// out\n        /* \"#utility.yul\":1896:2055   */\n    tag_265:\n        /* \"#utility.yul\":1970:1981   */\n      0x00\n        /* \"#utility.yul\":2004:2010   */\n      dup3\n        /* \"#utility.yul\":1999:2002   */\n      dup3\n        /* \"#utility.yul\":1992:2011   */\n      mstore\n        /* \"#utility.yul\":2044:2048   */\n      0x20\n        /* \"#utility.yul\":2039:2042   */\n      dup3\n        /* \"#utility.yul\":2035:2049   */\n      add\n        /* \"#utility.yul\":2020:2049   */\n      swap1\n      pop\n        /* \"#utility.yul\":1896:2055   */\n      swap3\n      swap2\n      pop\n      pop\n      jump\t// out\n        /* \"#utility.yul\":2061:2307   */\n    tag_266:\n        /* \"#utility.yul\":2142:2143   */\n      0x00\n        /* \"#utility.yul\":2152:2265   */\n    tag_354:\n        /* \"#utility.yul\":2166:2172   */\n      dup4\n        /* \"#utility.yul\":2163:2164   */\n      dup2\n        /* \"#utility.yul\":2160:2173   */\n      lt\n        /* \"#utility.yul\":2152:2265   */\n      iszero\n      tag_356\n      jumpi\n        /* \"#utility.yul\":2251:2252   */\n      dup1\n        /* \"#utility.yul\":2246:2249   */\n      dup3\n        /* \"#utility.yul\":2242:2253   */\n      add\n        /* \"#utility.yul\":2236:2254   */\n      mload\n        /* \"#utility.yul\":2232:2233   */\n      dup2\n        /* \"#utility.yul\":2227:2230   */\n      dup5\n        /* \"#utility.yul\":2223:2234   */\n      add\n        /* \"#utility.yul\":2216:2255   */\n      mstore\n        /* \"#utility.yul\":2188:2190   */\n      0x20\n        /* \"#utility.yul\":2185:2186   */\n      dup2\n        /* \"#utility.yul\":2181:2191   */\n      add\n        /* \"#utility.yul\":2176:2191   */\n      swap1\n      pop\n        /* \"#utility.yul\":2152:2265   */\n      jump(tag_354)\n    tag_356:\n        /* \"#utility.yul\":2299:2300   */\n      0x00\n        /* \"#utility.yul\":2290:2296   */\n      dup5\n        /* \"#utility.yul\":2285:2288   */\n      dup5\n        /* \"#utility.yul\":2281:2297   */\n      add\n        /* \"#utility.yul\":2274:2301   */\n      mstore\n        /* \"#utility.yul\":2123:2307   */\n      pop\n        /* \"#utility.yul\":2061:2307   */\n      pop\n      pop\n      pop\n      jump\t// out\n        /* \"#utility.yul\":2313:2415   */\n    tag_267:\n        /* \"#utility.yul\":2354:2360   */\n      0x00\n        /* \"#utility.yul\":2405:2407   */\n      0x1f\n        /* \"#utility.yul\":2401:2408   */\n      not\n        /* \"#utility.yul\":2396:2398   */\n      0x1f\n        /* \"#utility.yul\":2389:2394   */\n      dup4\n        /* \"#utility.yul\":2385:2399   */\n      add\n        /* \"#utility.yul\":2381:2409   */\n      and\n        /* \"#utility.yul\":2371:2409   */\n      swap1\n      pop\n        /* \"#utility.yul\":2313:2415   */\n      swap2\n      swap1\n      pop\n      jump\t// out\n        /* \"#utility.yul\":2421:2778   */\n    tag_268:\n        /* \"#utility.yul\":2499:2502   */\n      0x00\n        /* \"#utility.yul\":2527:2566   */\n      tag_359\n        /* \"#utility.yul\":2560:2565   */\n      dup3\n        /* \"#utility.yul\":2527:2566   */\n      tag_264\n      jump\t// in\n    tag_359:\n        /* \"#utility.yul\":2582:2643   */\n      tag_360\n        /* \"#utility.yul\":2636:2642   */\n      dup2\n        /* \"#utility.yul\":2631:2634   */\n      dup6\n        /* \"#utility.yul\":2582:2643   */\n      tag_265\n      jump\t// in\n    tag_360:\n        /* \"#utility.yul\":2575:2643   */\n      swap4\n      pop\n        /* \"#utility.yul\":2652:2717   */\n      tag_361\n        /* \"#utility.yul\":2710:2716   */\n      dup2\n        /* \"#utility.yul\":2705:2708   */\n      dup6\n        /* \"#utility.yul\":2698:2702   */\n      0x20\n        /* \"#utility.yul\":2691:2696   */\n      dup7\n        /* \"#utility.yul\":2687:2703   */\n      add\n        /* \"#utility.yul\":2652:2717   */\n      tag_266\n      jump\t// in\n    tag_361:\n        /* \"#utility.yul\":2742:2771   */\n      tag_362\n        /* \"#utility.yul\":2764:2770   */\n      dup2\n        /* \"#utility.yul\":2742:2771   */\n      tag_267\n      jump\t// in\n    tag_362:\n        /* \"#utility.yul\":2737:2740   */\n      dup5\n        /* \"#utility.yul\":2733:2772   */\n      add\n        /* \"#utility.yul\":2726:2772   */\n      swap2\n      pop\n        /* \"#utility.yul\":2503:2778   */\n      pop\n        /* \"#utility.yul\":2421:2778   */\n      swap3\n      swap2\n      pop\n      pop\n      jump\t// out\n        /* \"#utility.yul\":2784:2892   */\n    tag_269:\n        /* \"#utility.yul\":2861:2885   */\n      tag_364\n        /* \"#utility.yul\":2879:2884   */\n      dup2\n        /* \"#utility.yul\":2861:2885   */\n      tag_257\n      jump\t// in\n    tag_364:\n        /* \"#utility.yul\":2856:2859   */\n      dup3\n        /* \"#utility.yul\":2849:2886   */\n      mstore\n        /* \"#utility.yul\":2784:2892   */\n      pop\n      pop\n      jump\t// out\n        /* \"#utility.yul\":2898:3012   */\n    tag_270:\n        /* \"#utility.yul\":2965:2971   */\n      0x00\n        /* \"#utility.yul\":2999:3004   */\n      dup2\n        /* \"#utility.yul\":2993:3005   */\n      mload\n        /* \"#utility.yul\":2983:3005   */\n      swap1\n      pop\n        /* \"#utility.yul\":2898:3012   */\n      swap2\n      swap1\n      pop\n      jump\t// out\n        /* \"#utility.yul\":3018:3192   */\n    tag_271:\n        /* \"#utility.yul\":3107:3118   */\n      0x00\n        /* \"#utility.yul\":3141:3147   */\n      dup3\n        /* \"#utility.yul\":3136:3139   */\n      dup3\n        /* \"#utility.yul\":3129:3148   */\n      mstore\n        /* \"#utility.yul\":3181:3185   */\n      0x20\n        /* \"#utility.yul\":3176:3179   */\n      dup3\n        /* \"#utility.yul\":3172:3186   */\n      add\n        /* \"#utility.yul\":3157:3186   */\n      swap1\n      pop\n        /* \"#utility.yul\":3018:3192   */\n      swap3\n      swap2\n      pop\n      pop\n      jump\t// out\n        /* \"#utility.yul\":3198:3330   */\n    tag_272:\n        /* \"#utility.yul\":3265:3269   */\n      0x00\n        /* \"#utility.yul\":3288:3291   */\n      dup2\n        /* \"#utility.yul\":3280:3291   */\n      swap1\n      pop\n        /* \"#utility.yul\":3318:3322   */\n      0x20\n        /* \"#utility.yul\":3313:3316   */\n      dup3\n        /* \"#utility.yul\":3309:3323   */\n      add\n        /* \"#utility.yul\":3301:3323   */\n      swap1\n      pop\n        /* \"#utility.yul\":3198:3330   */\n      swap2\n      swap1\n      pop\n      jump\t// out\n        /* \"#utility.yul\":3336:3515   */\n    tag_273:\n        /* \"#utility.yul\":3405:3415   */\n      0x00\n        /* \"#utility.yul\":3426:3472   */\n      tag_369\n        /* \"#utility.yul\":3468:3471   */\n      dup4\n        /* \"#utility.yul\":3460:3466   */\n      dup4\n        /* \"#utility.yul\":3426:3472   */\n      tag_269\n      jump\t// in\n    tag_369:\n        /* \"#utility.yul\":3504:3508   */\n      0x20\n        /* \"#utility.yul\":3499:3502   */\n      dup4\n        /* \"#utility.yul\":3495:3509   */\n      add\n        /* \"#utility.yul\":3481:3509   */\n      swap1\n      pop\n        /* \"#utility.yul\":3336:3515   */\n      swap3\n      swap2\n      pop\n      pop\n      jump\t// out\n        /* \"#utility.yul\":3521:3634   */\n    tag_274:\n        /* \"#utility.yul\":3591:3595   */\n      0x00\n        /* \"#utility.yul\":3623:3627   */\n      0x20\n        /* \"#utility.yul\":3618:3621   */\n      dup3\n        /* \"#utility.yul\":3614:3628   */\n      add\n        /* \"#utility.yul\":3606:3628   */\n      swap1\n      pop\n        /* \"#utility.yul\":3521:3634   */\n      swap2\n      swap1\n      pop\n      jump\t// out\n        /* \"#utility.yul\":3670:4382   */\n    tag_275:\n        /* \"#utility.yul\":3779:3782   */\n      0x00\n        /* \"#utility.yul\":3808:3862   */\n      tag_372\n        /* \"#utility.yul\":3856:3861   */\n      dup3\n        /* \"#utility.yul\":3808:3862   */\n      tag_270\n      jump\t// in\n    tag_372:\n        /* \"#utility.yul\":3878:3954   */\n      tag_373\n        /* \"#utility.yul\":3947:3953   */\n      dup2\n        /* \"#utility.yul\":3942:3945   */\n      dup6\n        /* \"#utility.yul\":3878:3954   */\n      tag_271\n      jump\t// in\n    tag_373:\n        /* \"#utility.yul\":3871:3954   */\n      swap4\n      pop\n        /* \"#utility.yul\":3978:4034   */\n      tag_374\n        /* \"#utility.yul\":4028:4033   */\n      dup4\n        /* \"#utility.yul\":3978:4034   */\n      tag_272\n      jump\t// in\n    tag_374:\n        /* \"#utility.yul\":4057:4064   */\n      dup1\n        /* \"#utility.yul\":4088:4089   */\n      0x00\n        /* \"#utility.yul\":4073:4357   */\n    tag_375:\n        /* \"#utility.yul\":4098:4104   */\n      dup4\n        /* \"#utility.yul\":4095:4096   */\n      dup2\n        /* \"#utility.yul\":4092:4105   */\n      lt\n        /* \"#utility.yul\":4073:4357   */\n      iszero\n      tag_377\n      jumpi\n        /* \"#utility.yul\":4174:4180   */\n      dup2\n        /* \"#utility.yul\":4168:4181   */\n      mload\n        /* \"#utility.yul\":4201:4264   */\n      tag_378\n        /* \"#utility.yul\":4260:4263   */\n      dup9\n        /* \"#utility.yul\":4245:4258   */\n      dup3\n        /* \"#utility.yul\":4201:4264   */\n      tag_273\n      jump\t// in\n    tag_378:\n        /* \"#utility.yul\":4194:4264   */\n      swap8\n      pop\n        /* \"#utility.yul\":4287:4347   */\n      tag_379\n        /* \"#utility.yul\":4340:4346   */\n      dup4\n        /* \"#utility.yul\":4287:4347   */\n      tag_274\n      jump\t// in\n    tag_379:\n        /* \"#utility.yul\":4277:4347   */\n      swap3\n      pop\n        /* \"#utility.yul\":4133:4357   */\n      pop\n        /* \"#utility.yul\":4120:4121   */\n      0x01\n        /* \"#utility.yul\":4117:4118   */\n      dup2\n        /* \"#utility.yul\":4113:4122   */\n      add\n        /* \"#utility.yul\":4108:4122   */\n      swap1\n      pop\n        /* \"#utility.yul\":4073:4357   */\n      jump(tag_375)\n    tag_377:\n        /* \"#utility.yul\":4077:4091   */\n      pop\n        /* \"#utility.yul\":4373:4376   */\n      dup6\n        /* \"#utility.yul\":4366:4376   */\n      swap4\n      pop\n        /* \"#utility.yul\":3784:4382   */\n      pop\n      pop\n      pop\n        /* \"#utility.yul\":3670:4382   */\n      swap3\n      swap2\n      pop\n      pop\n      jump\t// out\n        /* \"#utility.yul\":4440:6312   */\n    tag_276:\n        /* \"#utility.yul\":4551:4554   */\n      0x00\n        /* \"#utility.yul\":4587:4593   */\n      0x0100\n        /* \"#utility.yul\":4582:4585   */\n      dup4\n        /* \"#utility.yul\":4578:4594   */\n      add\n        /* \"#utility.yul\":4674:4678   */\n      0x00\n        /* \"#utility.yul\":4667:4672   */\n      dup4\n        /* \"#utility.yul\":4663:4679   */\n      add\n        /* \"#utility.yul\":4657:4680   */\n      mload\n        /* \"#utility.yul\":4693:4756   */\n      tag_381\n        /* \"#utility.yul\":4750:4754   */\n      0x00\n        /* \"#utility.yul\":4745:4748   */\n      dup7\n        /* \"#utility.yul\":4741:4755   */\n      add\n        /* \"#utility.yul\":4727:4739   */\n      dup3\n        /* \"#utility.yul\":4693:4756   */\n      tag_263\n      jump\t// in\n    tag_381:\n        /* \"#utility.yul\":4604:4766   */\n      pop\n        /* \"#utility.yul\":4851:4855   */\n      0x20\n        /* \"#utility.yul\":4844:4849   */\n      dup4\n        /* \"#utility.yul\":4840:4856   */\n      add\n        /* \"#utility.yul\":4834:4857   */\n      mload\n        /* \"#utility.yul\":4904:4907   */\n      dup5\n        /* \"#utility.yul\":4898:4902   */\n      dup3\n        /* \"#utility.yul\":4894:4908   */\n      sub\n        /* \"#utility.yul\":4887:4891   */\n      0x20\n        /* \"#utility.yul\":4882:4885   */\n      dup7\n        /* \"#utility.yul\":4878:4892   */\n      add\n        /* \"#utility.yul\":4871:4909   */\n      mstore\n        /* \"#utility.yul\":4930:5003   */\n      tag_382\n        /* \"#utility.yul\":4998:5002   */\n      dup3\n        /* \"#utility.yul\":4984:4996   */\n      dup3\n        /* \"#utility.yul\":4930:5003   */\n      tag_268\n      jump\t// in\n    tag_382:\n        /* \"#utility.yul\":4922:5003   */\n      swap2\n      pop\n        /* \"#utility.yul\":4776:5014   */\n      pop\n        /* \"#utility.yul\":5098:5102   */\n      0x40\n        /* \"#utility.yul\":5091:5096   */\n      dup4\n        /* \"#utility.yul\":5087:5103   */\n      add\n        /* \"#utility.yul\":5081:5104   */\n      mload\n        /* \"#utility.yul\":5117:5180   */\n      tag_383\n        /* \"#utility.yul\":5174:5178   */\n      0x40\n        /* \"#utility.yul\":5169:5172   */\n      dup7\n        /* \"#utility.yul\":5165:5179   */\n      add\n        /* \"#utility.yul\":5151:5163   */\n      dup3\n        /* \"#utility.yul\":5117:5180   */\n      tag_269\n      jump\t// in\n    tag_383:\n        /* \"#utility.yul\":5024:5190   */\n      pop\n        /* \"#utility.yul\":5277:5281   */\n      0x60\n        /* \"#utility.yul\":5270:5275   */\n      dup4\n        /* \"#utility.yul\":5266:5282   */\n      add\n        /* \"#utility.yul\":5260:5283   */\n      mload\n        /* \"#utility.yul\":5296:5359   */\n      tag_384\n        /* \"#utility.yul\":5353:5357   */\n      0x60\n        /* \"#utility.yul\":5348:5351   */\n      dup7\n        /* \"#utility.yul\":5344:5358   */\n      add\n        /* \"#utility.yul\":5330:5342   */\n      dup3\n        /* \"#utility.yul\":5296:5359   */\n      tag_263\n      jump\t// in\n    tag_384:\n        /* \"#utility.yul\":5200:5369   */\n      pop\n        /* \"#utility.yul\":5452:5456   */\n      0x80\n        /* \"#utility.yul\":5445:5450   */\n      dup4\n        /* \"#utility.yul\":5441:5457   */\n      add\n        /* \"#utility.yul\":5435:5458   */\n      mload\n        /* \"#utility.yul\":5505:5508   */\n      dup5\n        /* \"#utility.yul\":5499:5503   */\n      dup3\n        /* \"#utility.yul\":5495:5509   */\n      sub\n        /* \"#utility.yul\":5488:5492   */\n      0x80\n        /* \"#utility.yul\":5483:5486   */\n      dup7\n        /* \"#utility.yul\":5479:5493   */\n      add\n        /* \"#utility.yul\":5472:5510   */\n      mstore\n        /* \"#utility.yul\":5531:5634   */\n      tag_385\n        /* \"#utility.yul\":5629:5633   */\n      dup3\n        /* \"#utility.yul\":5615:5627   */\n      dup3\n        /* \"#utility.yul\":5531:5634   */\n      tag_275\n      jump\t// in\n    tag_385:\n        /* \"#utility.yul\":5523:5634   */\n      swap2\n      pop\n        /* \"#utility.yul\":5379:5645   */\n      pop\n        /* \"#utility.yul\":5733:5737   */\n      0xa0\n        /* \"#utility.yul\":5726:5731   */\n      dup4\n        /* \"#utility.yul\":5722:5738   */\n      add\n        /* \"#utility.yul\":5716:5739   */\n      mload\n        /* \"#utility.yul\":5752:5815   */\n      tag_386\n        /* \"#utility.yul\":5809:5813   */\n      0xa0\n        /* \"#utility.yul\":5804:5807   */\n      dup7\n        /* \"#utility.yul\":5800:5814   */\n      add\n        /* \"#utility.yul\":5786:5798   */\n      dup3\n        /* \"#utility.yul\":5752:5815   */\n      tag_263\n      jump\t// in\n    tag_386:\n        /* \"#utility.yul\":5655:5825   */\n      pop\n        /* \"#utility.yul\":5915:5919   */\n      0xc0\n        /* \"#utility.yul\":5908:5913   */\n      dup4\n        /* \"#utility.yul\":5904:5920   */\n      add\n        /* \"#utility.yul\":5898:5921   */\n      mload\n        /* \"#utility.yul\":5934:5997   */\n      tag_387\n        /* \"#utility.yul\":5991:5995   */\n      0xc0\n        /* \"#utility.yul\":5986:5989   */\n      dup7\n        /* \"#utility.yul\":5982:5996   */\n      add\n        /* \"#utility.yul\":5968:5980   */\n      dup3\n        /* \"#utility.yul\":5934:5997   */\n      tag_263\n      jump\t// in\n    tag_387:\n        /* \"#utility.yul\":5835:6007   */\n      pop\n        /* \"#utility.yul\":6092:6096   */\n      0xe0\n        /* \"#utility.yul\":6085:6090   */\n      dup4\n        /* \"#utility.yul\":6081:6097   */\n      add\n        /* \"#utility.yul\":6075:6098   */\n      mload\n        /* \"#utility.yul\":6145:6148   */\n      dup5\n        /* \"#utility.yul\":6139:6143   */\n      dup3\n        /* \"#utility.yul\":6135:6149   */\n      sub\n        /* \"#utility.yul\":6128:6132   */\n      0xe0\n        /* \"#utility.yul\":6123:6126   */\n      dup7\n        /* \"#utility.yul\":6119:6133   */\n      add\n        /* \"#utility.yul\":6112:6150   */\n      mstore\n        /* \"#utility.yul\":6171:6274   */\n      tag_388\n        /* \"#utility.yul\":6269:6273   */\n      dup3\n        /* \"#utility.yul\":6255:6267   */\n      dup3\n        /* \"#utility.yul\":6171:6274   */\n      tag_275\n      jump\t// in\n    tag_388:\n        /* \"#utility.yul\":6163:6274   */\n      swap2\n      pop\n        /* \"#utility.yul\":6017:6285   */\n      pop\n        /* \"#utility.yul\":6302:6306   */\n      dup1\n        /* \"#utility.yul\":6295:6306   */\n      swap2\n      pop\n        /* \"#utility.yul\":4556:6312   */\n      pop\n        /* \"#utility.yul\":4440:6312   */\n      swap3\n      swap2\n      pop\n      pop\n      jump\t// out\n        /* \"#utility.yul\":6318:6675   */\n    tag_20:\n        /* \"#utility.yul\":6453:6457   */\n      0x00\n        /* \"#utility.yul\":6491:6493   */\n      0x20\n        /* \"#utility.yul\":6480:6489   */\n      dup3\n        /* \"#utility.yul\":6476:6494   */\n      add\n        /* \"#utility.yul\":6468:6494   */\n      swap1\n      pop\n        /* \"#utility.yul\":6540:6549   */\n      dup2\n        /* \"#utility.yul\":6534:6538   */\n      dup2\n        /* \"#utility.yul\":6530:6550   */\n      sub\n        /* \"#utility.yul\":6526:6527   */\n      0x00\n        /* \"#utility.yul\":6515:6524   */\n      dup4\n        /* \"#utility.yul\":6511:6528   */\n      add\n        /* \"#utility.yul\":6504:6551   */\n      mstore\n        /* \"#utility.yul\":6568:6668   */\n      tag_390\n        /* \"#utility.yul\":6663:6667   */\n      dup2\n        /* \"#utility.yul\":6654:6660   */\n      dup5\n        /* \"#utility.yul\":6568:6668   */\n      tag_276\n      jump\t// in\n    tag_390:\n        /* \"#utility.yul\":6560:6668   */\n      swap1\n      pop\n        /* \"#utility.yul\":6318:6675   */\n      swap3\n      swap2\n      pop\n      pop\n      jump\t// out\n        /* \"#utility.yul\":6681:6816   */\n    tag_277:\n        /* \"#utility.yul\":6769:6775   */\n      0x00\n        /* \"#utility.yul\":6803:6808   */\n      dup2\n        /* \"#utility.yul\":6797:6809   */\n      mload\n        /* \"#utility.yul\":6787:6809   */\n      swap1\n      pop\n        /* \"#utility.yul\":6681:6816   */\n      swap2\n      swap1\n      pop\n      jump\t// out\n        /* \"#utility.yul\":6822:7027   */\n    tag_278:\n        /* \"#utility.yul\":6942:6953   */\n      0x00\n        /* \"#utility.yul\":6976:6982   */\n      dup3\n        /* \"#utility.yul\":6971:6974   */\n      dup3\n        /* \"#utility.yul\":6964:6983   */\n      mstore\n        /* \"#utility.yul\":7016:7020   */\n      0x20\n        /* \"#utility.yul\":7011:7014   */\n      dup3\n        /* \"#utility.yul\":7007:7021   */\n      add\n        /* \"#utility.yul\":6992:7021   */\n      swap1\n      pop\n        /* \"#utility.yul\":6822:7027   */\n      swap3\n      swap2\n      pop\n      pop\n      jump\t// out\n        /* \"#utility.yul\":7033:7186   */\n    tag_279:\n        /* \"#utility.yul\":7121:7125   */\n      0x00\n        /* \"#utility.yul\":7144:7147   */\n      dup2\n        /* \"#utility.yul\":7136:7147   */\n      swap1\n      pop\n        /* \"#utility.yul\":7174:7178   */\n      0x20\n        /* \"#utility.yul\":7169:7172   */\n      dup3\n        /* \"#utility.yul\":7165:7179   */\n      add\n        /* \"#utility.yul\":7157:7179   */\n      swap1\n      pop\n        /* \"#utility.yul\":7033:7186   */\n      swap2\n      swap1\n      pop\n      jump\t// out\n        /* \"#utility.yul\":7244:9106   */\n    tag_280:\n        /* \"#utility.yul\":7345:7348   */\n      0x00\n        /* \"#utility.yul\":7381:7387   */\n      0x0100\n        /* \"#utility.yul\":7376:7379   */\n      dup4\n        /* \"#utility.yul\":7372:7388   */\n      add\n        /* \"#utility.yul\":7468:7472   */\n      0x00\n        /* \"#utility.yul\":7461:7466   */\n      dup4\n        /* \"#utility.yul\":7457:7473   */\n      add\n        /* \"#utility.yul\":7451:7474   */\n      mload\n        /* \"#utility.yul\":7487:7550   */\n      tag_395\n        /* \"#utility.yul\":7544:7548   */\n      0x00\n        /* \"#utility.yul\":7539:7542   */\n      dup7\n        /* \"#utility.yul\":7535:7549   */\n      add\n        /* \"#utility.yul\":7521:7533   */\n      dup3\n        /* \"#utility.yul\":7487:7550   */\n      tag_263\n      jump\t// in\n    tag_395:\n        /* \"#utility.yul\":7398:7560   */\n      pop\n        /* \"#utility.yul\":7645:7649   */\n      0x20\n        /* \"#utility.yul\":7638:7643   */\n      dup4\n        /* \"#utility.yul\":7634:7650   */\n      add\n        /* \"#utility.yul\":7628:7651   */\n      mload\n        /* \"#utility.yul\":7698:7701   */\n      dup5\n        /* \"#utility.yul\":7692:7696   */\n      dup3\n        /* \"#utility.yul\":7688:7702   */\n      sub\n        /* \"#utility.yul\":7681:7685   */\n      0x20\n        /* \"#utility.yul\":7676:7679   */\n      dup7\n        /* \"#utility.yul\":7672:7686   */\n      add\n        /* \"#utility.yul\":7665:7703   */\n      mstore\n        /* \"#utility.yul\":7724:7797   */\n      tag_396\n        /* \"#utility.yul\":7792:7796   */\n      dup3\n        /* \"#utility.yul\":7778:7790   */\n      dup3\n        /* \"#utility.yul\":7724:7797   */\n      tag_268\n      jump\t// in\n    tag_396:\n        /* \"#utility.yul\":7716:7797   */\n      swap2\n      pop\n        /* \"#utility.yul\":7570:7808   */\n      pop\n        /* \"#utility.yul\":7892:7896   */\n      0x40\n        /* \"#utility.yul\":7885:7890   */\n      dup4\n        /* \"#utility.yul\":7881:7897   */\n      add\n        /* \"#utility.yul\":7875:7898   */\n      mload\n        /* \"#utility.yul\":7911:7974   */\n      tag_397\n        /* \"#utility.yul\":7968:7972   */\n      0x40\n        /* \"#utility.yul\":7963:7966   */\n      dup7\n        /* \"#utility.yul\":7959:7973   */\n      add\n        /* \"#utility.yul\":7945:7957   */\n      dup3\n        /* \"#utility.yul\":7911:7974   */\n      tag_269\n      jump\t// in\n    tag_397:\n        /* \"#utility.yul\":7818:7984   */\n      pop\n        /* \"#utility.yul\":8071:8075   */\n      0x60\n        /* \"#utility.yul\":8064:8069   */\n      dup4\n        /* \"#utility.yul\":8060:8076   */\n      add\n        /* \"#utility.yul\":8054:8077   */\n      mload\n        /* \"#utility.yul\":8090:8153   */\n      tag_398\n        /* \"#utility.yul\":8147:8151   */\n      0x60\n        /* \"#utility.yul\":8142:8145   */\n      dup7\n        /* \"#utility.yul\":8138:8152   */\n      add\n        /* \"#utility.yul\":8124:8136   */\n      dup3\n        /* \"#utility.yul\":8090:8153   */\n      tag_263\n      jump\t// in\n    tag_398:\n        /* \"#utility.yul\":7994:8163   */\n      pop\n        /* \"#utility.yul\":8246:8250   */\n      0x80\n        /* \"#utility.yul\":8239:8244   */\n      dup4\n        /* \"#utility.yul\":8235:8251   */\n      add\n        /* \"#utility.yul\":8229:8252   */\n      mload\n        /* \"#utility.yul\":8299:8302   */\n      dup5\n        /* \"#utility.yul\":8293:8297   */\n      dup3\n        /* \"#utility.yul\":8289:8303   */\n      sub\n        /* \"#utility.yul\":8282:8286   */\n      0x80\n        /* \"#utility.yul\":8277:8280   */\n      dup7\n        /* \"#utility.yul\":8273:8287   */\n      add\n        /* \"#utility.yul\":8266:8304   */\n      mstore\n        /* \"#utility.yul\":8325:8428   */\n      tag_399\n        /* \"#utility.yul\":8423:8427   */\n      dup3\n        /* \"#utility.yul\":8409:8421   */\n      dup3\n        /* \"#utility.yul\":8325:8428   */\n      tag_275\n      jump\t// in\n    tag_399:\n        /* \"#utility.yul\":8317:8428   */\n      swap2\n      pop\n        /* \"#utility.yul\":8173:8439   */\n      pop\n        /* \"#utility.yul\":8527:8531   */\n      0xa0\n        /* \"#utility.yul\":8520:8525   */\n      dup4\n        /* \"#utility.yul\":8516:8532   */\n      add\n        /* \"#utility.yul\":8510:8533   */\n      mload\n        /* \"#utility.yul\":8546:8609   */\n      tag_400\n        /* \"#utility.yul\":8603:8607   */\n      0xa0\n        /* \"#utility.yul\":8598:8601   */\n      dup7\n        /* \"#utility.yul\":8594:8608   */\n      add\n        /* \"#utility.yul\":8580:8592   */\n      dup3\n        /* \"#utility.yul\":8546:8609   */\n      tag_263\n      jump\t// in\n    tag_400:\n        /* \"#utility.yul\":8449:8619   */\n      pop\n        /* \"#utility.yul\":8709:8713   */\n      0xc0\n        /* \"#utility.yul\":8702:8707   */\n      dup4\n        /* \"#utility.yul\":8698:8714   */\n      add\n        /* \"#utility.yul\":8692:8715   */\n      mload\n        /* \"#utility.yul\":8728:8791   */\n      tag_401\n        /* \"#utility.yul\":8785:8789   */\n      0xc0\n        /* \"#utility.yul\":8780:8783   */\n      dup7\n        /* \"#utility.yul\":8776:8790   */\n      add\n        /* \"#utility.yul\":8762:8774   */\n      dup3\n        /* \"#utility.yul\":8728:8791   */\n      tag_263\n      jump\t// in\n    tag_401:\n        /* \"#utility.yul\":8629:8801   */\n      pop\n        /* \"#utility.yul\":8886:8890   */\n      0xe0\n        /* \"#utility.yul\":8879:8884   */\n      dup4\n        /* \"#utility.yul\":8875:8891   */\n      add\n        /* \"#utility.yul\":8869:8892   */\n      mload\n        /* \"#utility.yul\":8939:8942   */\n      dup5\n        /* \"#utility.yul\":8933:8937   */\n      dup3\n        /* \"#utility.yul\":8929:8943   */\n      sub\n        /* \"#utility.yul\":8922:8926   */\n      0xe0\n        /* \"#utility.yul\":8917:8920   */\n      dup7\n        /* \"#utility.yul\":8913:8927   */\n      add\n        /* \"#utility.yul\":8906:8944   */\n      mstore\n        /* \"#utility.yul\":8965:9068   */\n      tag_402\n        /* \"#utility.yul\":9063:9067   */\n      dup3\n        /* \"#utility.yul\":9049:9061   */\n      dup3\n        /* \"#utility.yul\":8965:9068   */\n      tag_275\n      jump\t// in\n    tag_402:\n        /* \"#utility.yul\":8957:9068   */\n      swap2\n      pop\n        /* \"#utility.yul\":8811:9079   */\n      pop\n        /* \"#utility.yul\":9096:9100   */\n      dup1\n        /* \"#utility.yul\":9089:9100   */\n      swap2\n      pop\n        /* \"#utility.yul\":7350:9106   */\n      pop\n        /* \"#utility.yul\":7244:9106   */\n      swap3\n      swap2\n      pop\n      pop\n      jump\t// out\n        /* \"#utility.yul\":9112:9352   */\n    tag_281:\n        /* \"#utility.yul\":9223:9233   */\n      0x00\n        /* \"#utility.yul\":9258:9346   */\n      tag_404\n        /* \"#utility.yul\":9342:9345   */\n      dup4\n        /* \"#utility.yul\":9334:9340   */\n      dup4\n        /* \"#utility.yul\":9258:9346   */\n      tag_280\n      jump\t// in\n    tag_404:\n        /* \"#utility.yul\":9244:9346   */\n      swap1\n      pop\n        /* \"#utility.yul\":9112:9352   */\n      swap3\n      swap2\n      pop\n      pop\n      jump\t// out\n        /* \"#utility.yul\":9358:9492   */\n    tag_282:\n        /* \"#utility.yul\":9449:9453   */\n      0x00\n        /* \"#utility.yul\":9481:9485   */\n      0x20\n        /* \"#utility.yul\":9476:9479   */\n      dup3\n        /* \"#utility.yul\":9472:9486   */\n      add\n        /* \"#utility.yul\":9464:9486   */\n      swap1\n      pop\n        /* \"#utility.yul\":9358:9492   */\n      swap2\n      swap1\n      pop\n      jump\t// out\n        /* \"#utility.yul\":9554:10633   */\n    tag_283:\n        /* \"#utility.yul\":9715:9718   */\n      0x00\n        /* \"#utility.yul\":9744:9819   */\n      tag_407\n        /* \"#utility.yul\":9813:9818   */\n      dup3\n        /* \"#utility.yul\":9744:9819   */\n      tag_277\n      jump\t// in\n    tag_407:\n        /* \"#utility.yul\":9835:9942   */\n      tag_408\n        /* \"#utility.yul\":9935:9941   */\n      dup2\n        /* \"#utility.yul\":9930:9933   */\n      dup6\n        /* \"#utility.yul\":9835:9942   */\n      tag_278\n      jump\t// in\n    tag_408:\n        /* \"#utility.yul\":9828:9942   */\n      swap4\n      pop\n        /* \"#utility.yul\":9968:9971   */\n      dup4\n        /* \"#utility.yul\":10013:10017   */\n      0x20\n        /* \"#utility.yul\":10005:10011   */\n      dup3\n        /* \"#utility.yul\":10001:10018   */\n      mul\n        /* \"#utility.yul\":9996:9999   */\n      dup6\n        /* \"#utility.yul\":9992:10019   */\n      add\n        /* \"#utility.yul\":10043:10120   */\n      tag_409\n        /* \"#utility.yul\":10114:10119   */\n      dup6\n        /* \"#utility.yul\":10043:10120   */\n      tag_279\n      jump\t// in\n    tag_409:\n        /* \"#utility.yul\":10143:10150   */\n      dup1\n        /* \"#utility.yul\":10174:10175   */\n      0x00\n        /* \"#utility.yul\":10159:10588   */\n    tag_410:\n        /* \"#utility.yul\":10184:10190   */\n      dup6\n        /* \"#utility.yul\":10181:10182   */\n      dup2\n        /* \"#utility.yul\":10178:10191   */\n      lt\n        /* \"#utility.yul\":10159:10588   */\n      iszero\n      tag_412\n      jumpi\n        /* \"#utility.yul\":10255:10264   */\n      dup5\n        /* \"#utility.yul\":10249:10253   */\n      dup5\n        /* \"#utility.yul\":10245:10265   */\n      sub\n        /* \"#utility.yul\":10240:10243   */\n      dup10\n        /* \"#utility.yul\":10233:10266   */\n      mstore\n        /* \"#utility.yul\":10306:10312   */\n      dup2\n        /* \"#utility.yul\":10300:10313   */\n      mload\n        /* \"#utility.yul\":10334:10440   */\n      tag_413\n        /* \"#utility.yul\":10435:10439   */\n      dup6\n        /* \"#utility.yul\":10420:10433   */\n      dup3\n        /* \"#utility.yul\":10334:10440   */\n      tag_281\n      jump\t// in\n    tag_413:\n        /* \"#utility.yul\":10326:10440   */\n      swap5\n      pop\n        /* \"#utility.yul\":10463:10544   */\n      tag_414\n        /* \"#utility.yul\":10537:10543   */\n      dup4\n        /* \"#utility.yul\":10463:10544   */\n      tag_282\n      jump\t// in\n    tag_414:\n        /* \"#utility.yul\":10453:10544   */\n      swap3\n      pop\n        /* \"#utility.yul\":10573:10577   */\n      0x20\n        /* \"#utility.yul\":10568:10571   */\n      dup11\n        /* \"#utility.yul\":10564:10578   */\n      add\n        /* \"#utility.yul\":10557:10578   */\n      swap10\n      pop\n        /* \"#utility.yul\":10219:10588   */\n      pop\n        /* \"#utility.yul\":10206:10207   */\n      0x01\n        /* \"#utility.yul\":10203:10204   */\n      dup2\n        /* \"#utility.yul\":10199:10208   */\n      add\n        /* \"#utility.yul\":10194:10208   */\n      swap1\n      pop\n        /* \"#utility.yul\":10159:10588   */\n      jump(tag_410)\n    tag_412:\n        /* \"#utility.yul\":10163:10177   */\n      pop\n        /* \"#utility.yul\":10604:10608   */\n      dup3\n        /* \"#utility.yul\":10597:10608   */\n      swap8\n      pop\n        /* \"#utility.yul\":10624:10627   */\n      dup8\n        /* \"#utility.yul\":10617:10627   */\n      swap6\n      pop\n        /* \"#utility.yul\":9720:10633   */\n      pop\n      pop\n      pop\n      pop\n      pop\n        /* \"#utility.yul\":9554:10633   */\n      swap3\n      swap2\n      pop\n      pop\n      jump\t// out\n        /* \"#utility.yul\":10639:11096   */\n    tag_24:\n        /* \"#utility.yul\":10824:10828   */\n      0x00\n        /* \"#utility.yul\":10862:10864   */\n      0x20\n        /* \"#utility.yul\":10851:10860   */\n      dup3\n        /* \"#utility.yul\":10847:10865   */\n      add\n        /* \"#utility.yul\":10839:10865   */\n      swap1\n      pop\n        /* \"#utility.yul\":10911:10920   */\n      dup2\n        /* \"#utility.yul\":10905:10909   */\n      dup2\n        /* \"#utility.yul\":10901:10921   */\n      sub\n        /* \"#utility.yul\":10897:10898   */\n      0x00\n        /* \"#utility.yul\":10886:10895   */\n      dup4\n        /* \"#utility.yul\":10882:10899   */\n      add\n        /* \"#utility.yul\":10875:10922   */\n      mstore\n        /* \"#utility.yul\":10939:11089   */\n      tag_416\n        /* \"#utility.yul\":11084:11088   */\n      dup2\n        /* \"#utility.yul\":11075:11081   */\n      dup5\n        /* \"#utility.yul\":10939:11089   */\n      tag_283\n      jump\t// in\n    tag_416:\n        /* \"#utility.yul\":10931:11089   */\n      swap1\n      pop\n        /* \"#utility.yul\":10639:11096   */\n      swap3\n      swap2\n      pop\n      pop\n      jump\t// out\n        /* \"#utility.yul\":11102:11219   */\n    tag_284:\n        /* \"#utility.yul\":11211:11212   */\n      0x00\n        /* \"#utility.yul\":11208:11209   */\n      dup1\n        /* \"#utility.yul\":11201:11213   */\n      revert\n        /* \"#utility.yul\":11225:11342   */\n    tag_285:\n        /* \"#utility.yul\":11334:11335   */\n      0x00\n        /* \"#utility.yul\":11331:11332   */\n      dup1\n        /* \"#utility.yul\":11324:11336   */\n      revert\n        /* \"#utility.yul\":11348:11528   */\n    tag_286:\n        /* \"#utility.yul\":11396:11473   */\n      0x4e487b7100000000000000000000000000000000000000000000000000000000\n        /* \"#utility.yul\":11393:11394   */\n      0x00\n        /* \"#utility.yul\":11386:11474   */\n      mstore\n        /* \"#utility.yul\":11493:11497   */\n      0x41\n        /* \"#utility.yul\":11490:11491   */\n      0x04\n        /* \"#utility.yul\":11483:11498   */\n      mstore\n        /* \"#utility.yul\":11517:11521   */\n      0x24\n        /* \"#utility.yul\":11514:11515   */\n      0x00\n        /* \"#utility.yul\":11507:11522   */\n      revert\n        /* \"#utility.yul\":11534:11815   */\n    tag_287:\n        /* \"#utility.yul\":11617:11644   */\n      tag_421\n        /* \"#utility.yul\":11639:11643   */\n      dup3\n        /* \"#utility.yul\":11617:11644   */\n      tag_267\n      jump\t// in\n    tag_421:\n        /* \"#utility.yul\":11609:11615   */\n      dup2\n        /* \"#utility.yul\":11605:11645   */\n      add\n        /* \"#utility.yul\":11747:11753   */\n      dup2\n        /* \"#utility.yul\":11735:11745   */\n      dup2\n        /* \"#utility.yul\":11732:11754   */\n      lt\n        /* \"#utility.yul\":11711:11729   */\n      0xffffffffffffffff\n        /* \"#utility.yul\":11699:11709   */\n      dup3\n        /* \"#utility.yul\":11696:11730   */\n      gt\n        /* \"#utility.yul\":11693:11755   */\n      or\n        /* \"#utility.yul\":11690:11778   */\n      iszero\n      tag_422\n      jumpi\n        /* \"#utility.yul\":11758:11776   */\n      tag_423\n      tag_286\n      jump\t// in\n    tag_423:\n        /* \"#utility.yul\":11690:11778   */\n    tag_422:\n        /* \"#utility.yul\":11798:11808   */\n      dup1\n        /* \"#utility.yul\":11794:11796   */\n      0x40\n        /* \"#utility.yul\":11787:11809   */\n      mstore\n        /* \"#utility.yul\":11577:11815   */\n      pop\n        /* \"#utility.yul\":11534:11815   */\n      pop\n      pop\n      jump\t// out\n        /* \"#utility.yul\":11821:11950   */\n    tag_288:\n        /* \"#utility.yul\":11855:11861   */\n      0x00\n        /* \"#utility.yul\":11882:11902   */\n      tag_425\n      tag_253\n      jump\t// in\n    tag_425:\n        /* \"#utility.yul\":11872:11902   */\n      swap1\n      pop\n        /* \"#utility.yul\":11911:11944   */\n      tag_426\n        /* \"#utility.yul\":11939:11943   */\n      dup3\n        /* \"#utility.yul\":11931:11937   */\n      dup3\n        /* \"#utility.yul\":11911:11944   */\n      tag_287\n      jump\t// in\n    tag_426:\n        /* \"#utility.yul\":11821:11950   */\n      swap2\n      swap1\n      pop\n      jump\t// out\n        /* \"#utility.yul\":11956:12264   */\n    tag_289:\n        /* \"#utility.yul\":12018:12022   */\n      0x00\n        /* \"#utility.yul\":12108:12126   */\n      0xffffffffffffffff\n        /* \"#utility.yul\":12100:12106   */\n      dup3\n        /* \"#utility.yul\":12097:12127   */\n      gt\n        /* \"#utility.yul\":12094:12150   */\n      iszero\n      tag_428\n      jumpi\n        /* \"#utility.yul\":12130:12148   */\n      tag_429\n      tag_286\n      jump\t// in\n    tag_429:\n        /* \"#utility.yul\":12094:12150   */\n    tag_428:\n        /* \"#utility.yul\":12168:12197   */\n      tag_430\n        /* \"#utility.yul\":12190:12196   */\n      dup3\n        /* \"#utility.yul\":12168:12197   */\n      tag_267\n      jump\t// in\n    tag_430:\n        /* \"#utility.yul\":12160:12197   */\n      swap1\n      pop\n        /* \"#utility.yul\":12252:12256   */\n      0x20\n        /* \"#utility.yul\":12246:12250   */\n      dup2\n        /* \"#utility.yul\":12242:12257   */\n      add\n        /* \"#utility.yul\":12234:12257   */\n      swap1\n      pop\n        /* \"#utility.yul\":11956:12264   */\n      swap2\n      swap1\n      pop\n      jump\t// out\n        /* \"#utility.yul\":12270:12416   */\n    tag_290:\n        /* \"#utility.yul\":12367:12373   */\n      dup3\n        /* \"#utility.yul\":12362:12365   */\n      dup2\n        /* \"#utility.yul\":12357:12360   */\n      dup4\n        /* \"#utility.yul\":12344:12374   */\n      calldatacopy\n        /* \"#utility.yul\":12408:12409   */\n      0x00\n        /* \"#utility.yul\":12399:12405   */\n      dup4\n        /* \"#utility.yul\":12394:12397   */\n      dup4\n        /* \"#utility.yul\":12390:12406   */\n      add\n        /* \"#utility.yul\":12383:12410   */\n      mstore\n        /* \"#utility.yul\":12270:12416   */\n      pop\n      pop\n      pop\n      jump\t// out\n        /* \"#utility.yul\":12422:12847   */\n    tag_291:\n        /* \"#utility.yul\":12500:12505   */\n      0x00\n        /* \"#utility.yul\":12525:12591   */\n      tag_433\n        /* \"#utility.yul\":12541:12590   */\n      tag_434\n        /* \"#utility.yul\":12583:12589   */\n      dup5\n        /* \"#utility.yul\":12541:12590   */\n      tag_289\n      jump\t// in\n    tag_434:\n        /* \"#utility.yul\":12525:12591   */\n      tag_288\n      jump\t// in\n    tag_433:\n        /* \"#utility.yul\":12516:12591   */\n      swap1\n      pop\n        /* \"#utility.yul\":12614:12620   */\n      dup3\n        /* \"#utility.yul\":12607:12612   */\n      dup2\n        /* \"#utility.yul\":12600:12621   */\n      mstore\n        /* \"#utility.yul\":12652:12656   */\n      0x20\n        /* \"#utility.yul\":12645:12650   */\n      dup2\n        /* \"#utility.yul\":12641:12657   */\n      add\n        /* \"#utility.yul\":12690:12693   */\n      dup5\n        /* \"#utility.yul\":12681:12687   */\n      dup5\n        /* \"#utility.yul\":12676:12679   */\n      dup5\n        /* \"#utility.yul\":12672:12688   */\n      add\n        /* \"#utility.yul\":12669:12694   */\n      gt\n        /* \"#utility.yul\":12666:12778   */\n      iszero\n      tag_435\n      jumpi\n        /* \"#utility.yul\":12697:12776   */\n      tag_436\n      tag_285\n      jump\t// in\n    tag_436:\n        /* \"#utility.yul\":12666:12778   */\n    tag_435:\n        /* \"#utility.yul\":12787:12841   */\n      tag_437\n        /* \"#utility.yul\":12834:12840   */\n      dup5\n        /* \"#utility.yul\":12829:12832   */\n      dup3\n        /* \"#utility.yul\":12824:12827   */\n      dup6\n        /* \"#utility.yul\":12787:12841   */\n      tag_290\n      jump\t// in\n    tag_437:\n        /* \"#utility.yul\":12506:12847   */\n      pop\n        /* \"#utility.yul\":12422:12847   */\n      swap4\n      swap3\n      pop\n      pop\n      pop\n      jump\t// out\n        /* \"#utility.yul\":12867:13207   */\n    tag_292:\n        /* \"#utility.yul\":12923:12928   */\n      0x00\n        /* \"#utility.yul\":12972:12975   */\n      dup3\n        /* \"#utility.yul\":12965:12969   */\n      0x1f\n        /* \"#utility.yul\":12957:12963   */\n      dup4\n        /* \"#utility.yul\":12953:12970   */\n      add\n        /* \"#utility.yul\":12949:12976   */\n      slt\n        /* \"#utility.yul\":12939:13061   */\n      tag_439\n      jumpi\n        /* \"#utility.yul\":12980:13059   */\n      tag_440\n      tag_284\n      jump\t// in\n    tag_440:\n        /* \"#utility.yul\":12939:13061   */\n    tag_439:\n        /* \"#utility.yul\":13097:13103   */\n      dup2\n        /* \"#utility.yul\":13084:13104   */\n      calldataload\n        /* \"#utility.yul\":13122:13201   */\n      tag_441\n        /* \"#utility.yul\":13197:13200   */\n      dup5\n        /* \"#utility.yul\":13189:13195   */\n      dup3\n        /* \"#utility.yul\":13182:13186   */\n      0x20\n        /* \"#utility.yul\":13174:13180   */\n      dup7\n        /* \"#utility.yul\":13170:13187   */\n      add\n        /* \"#utility.yul\":13122:13201   */\n      tag_291\n      jump\t// in\n    tag_441:\n        /* \"#utility.yul\":13113:13201   */\n      swap2\n      pop\n        /* \"#utility.yul\":12929:13207   */\n      pop\n        /* \"#utility.yul\":12867:13207   */\n      swap3\n      swap2\n      pop\n      pop\n      jump\t// out\n        /* \"#utility.yul\":13213:13722   */\n    tag_31:\n        /* \"#utility.yul\":13282:13288   */\n      0x00\n        /* \"#utility.yul\":13331:13333   */\n      0x20\n        /* \"#utility.yul\":13319:13328   */\n      dup3\n        /* \"#utility.yul\":13310:13317   */\n      dup5\n        /* \"#utility.yul\":13306:13329   */\n      sub\n        /* \"#utility.yul\":13302:13334   */\n      slt\n        /* \"#utility.yul\":13299:13418   */\n      iszero\n      tag_443\n      jumpi\n        /* \"#utility.yul\":13337:13416   */\n      tag_444\n      tag_254\n      jump\t// in\n    tag_444:\n        /* \"#utility.yul\":13299:13418   */\n    tag_443:\n        /* \"#utility.yul\":13485:13486   */\n      0x00\n        /* \"#utility.yul\":13474:13483   */\n      dup3\n        /* \"#utility.yul\":13470:13487   */\n      add\n        /* \"#utility.yul\":13457:13488   */\n      calldataload\n        /* \"#utility.yul\":13515:13533   */\n      0xffffffffffffffff\n        /* \"#utility.yul\":13507:13513   */\n      dup2\n        /* \"#utility.yul\":13504:13534   */\n      gt\n        /* \"#utility.yul\":13501:13618   */\n      iszero\n      tag_445\n      jumpi\n        /* \"#utility.yul\":13537:13616   */\n      tag_446\n      tag_255\n      jump\t// in\n    tag_446:\n        /* \"#utility.yul\":13501:13618   */\n    tag_445:\n        /* \"#utility.yul\":13642:13705   */\n      tag_447\n        /* \"#utility.yul\":13697:13704   */\n      dup5\n        /* \"#utility.yul\":13688:13694   */\n      dup3\n        /* \"#utility.yul\":13677:13686   */\n      dup6\n        /* \"#utility.yul\":13673:13695   */\n      add\n        /* \"#utility.yul\":13642:13705   */\n      tag_292\n      jump\t// in\n    tag_447:\n        /* \"#utility.yul\":13632:13705   */\n      swap2\n      pop\n        /* \"#utility.yul\":13428:13715   */\n      pop\n        /* \"#utility.yul\":13213:13722   */\n      swap3\n      swap2\n      pop\n      pop\n      jump\t// out\n        /* \"#utility.yul\":13728:14057   */\n    tag_38:\n        /* \"#utility.yul\":13787:13793   */\n      0x00\n        /* \"#utility.yul\":13836:13838   */\n      0x20\n        /* \"#utility.yul\":13824:13833   */\n      dup3\n        /* \"#utility.yul\":13815:13822   */\n      dup5\n        /* \"#utility.yul\":13811:13834   */\n      sub\n        /* \"#utility.yul\":13807:13839   */\n      slt\n        /* \"#utility.yul\":13804:13923   */\n      iszero\n      tag_449\n      jumpi\n        /* \"#utility.yul\":13842:13921   */\n      tag_450\n      tag_254\n      jump\t// in\n    tag_450:\n        /* \"#utility.yul\":13804:13923   */\n    tag_449:\n        /* \"#utility.yul\":13962:13963   */\n      0x00\n        /* \"#utility.yul\":13987:14040   */\n      tag_451\n        /* \"#utility.yul\":14032:14039   */\n      dup5\n        /* \"#utility.yul\":14023:14029   */\n      dup3\n        /* \"#utility.yul\":14012:14021   */\n      dup6\n        /* \"#utility.yul\":14008:14030   */\n      add\n        /* \"#utility.yul\":13987:14040   */\n      tag_262\n      jump\t// in\n    tag_451:\n        /* \"#utility.yul\":13977:14040   */\n      swap2\n      pop\n        /* \"#utility.yul\":13933:14050   */\n      pop\n        /* \"#utility.yul\":13728:14057   */\n      swap3\n      swap2\n      pop\n      pop\n      jump\t// out\n        /* \"#utility.yul\":14063:14232   */\n    tag_293:\n        /* \"#utility.yul\":14147:14158   */\n      0x00\n        /* \"#utility.yul\":14181:14187   */\n      dup3\n        /* \"#utility.yul\":14176:14179   */\n      dup3\n        /* \"#utility.yul\":14169:14188   */\n      mstore\n        /* \"#utility.yul\":14221:14225   */\n      0x20\n        /* \"#utility.yul\":14216:14219   */\n      dup3\n        /* \"#utility.yul\":14212:14226   */\n      add\n        /* \"#utility.yul\":14197:14226   */\n      swap1\n      pop\n        /* \"#utility.yul\":14063:14232   */\n      swap3\n      swap2\n      pop\n      pop\n      jump\t// out\n        /* \"#utility.yul\":14238:14410   */\n    tag_294:\n        /* \"#utility.yul\":14378:14402   */\n      0x54686973205477656574204e6f74204578697374202100000000000000000000\n        /* \"#utility.yul\":14374:14375   */\n      0x00\n        /* \"#utility.yul\":14366:14372   */\n      dup3\n        /* \"#utility.yul\":14362:14376   */\n      add\n        /* \"#utility.yul\":14355:14403   */\n      mstore\n        /* \"#utility.yul\":14238:14410   */\n      pop\n      jump\t// out\n        /* \"#utility.yul\":14416:14782   */\n    tag_295:\n        /* \"#utility.yul\":14558:14561   */\n      0x00\n        /* \"#utility.yul\":14579:14646   */\n      tag_455\n        /* \"#utility.yul\":14643:14645   */\n      0x16\n        /* \"#utility.yul\":14638:14641   */\n      dup4\n        /* \"#utility.yul\":14579:14646   */\n      tag_293\n      jump\t// in\n    tag_455:\n        /* \"#utility.yul\":14572:14646   */\n      swap2\n      pop\n        /* \"#utility.yul\":14655:14748   */\n      tag_456\n        /* \"#utility.yul\":14744:14747   */\n      dup3\n        /* \"#utility.yul\":14655:14748   */\n      tag_294\n      jump\t// in\n    tag_456:\n        /* \"#utility.yul\":14773:14775   */\n      0x20\n        /* \"#utility.yul\":14768:14771   */\n      dup3\n        /* \"#utility.yul\":14764:14776   */\n      add\n        /* \"#utility.yul\":14757:14776   */\n      swap1\n      pop\n        /* \"#utility.yul\":14416:14782   */\n      swap2\n      swap1\n      pop\n      jump\t// out\n        /* \"#utility.yul\":14788:15207   */\n    tag_43:\n        /* \"#utility.yul\":14954:14958   */\n      0x00\n        /* \"#utility.yul\":14992:14994   */\n      0x20\n        /* \"#utility.yul\":14981:14990   */\n      dup3\n        /* \"#utility.yul\":14977:14995   */\n      add\n        /* \"#utility.yul\":14969:14995   */\n      swap1\n      pop\n        /* \"#utility.yul\":15041:15050   */\n      dup2\n        /* \"#utility.yul\":15035:15039   */\n      dup2\n        /* \"#utility.yul\":15031:15051   */\n      sub\n        /* \"#utility.yul\":15027:15028   */\n      0x00\n        /* \"#utility.yul\":15016:15025   */\n      dup4\n        /* \"#utility.yul\":15012:15029   */\n      add\n        /* \"#utility.yul\":15005:15052   */\n      mstore\n        /* \"#utility.yul\":15069:15200   */\n      tag_458\n        /* \"#utility.yul\":15195:15199   */\n      dup2\n        /* \"#utility.yul\":15069:15200   */\n      tag_295\n      jump\t// in\n    tag_458:\n        /* \"#utility.yul\":15061:15200   */\n      swap1\n      pop\n        /* \"#utility.yul\":14788:15207   */\n      swap2\n      swap1\n      pop\n      jump\t// out\n        /* \"#utility.yul\":15213:15393   */\n    tag_296:\n        /* \"#utility.yul\":15261:15338   */\n      0x4e487b7100000000000000000000000000000000000000000000000000000000\n        /* \"#utility.yul\":15258:15259   */\n      0x00\n        /* \"#utility.yul\":15251:15339   */\n      mstore\n        /* \"#utility.yul\":15358:15362   */\n      0x11\n        /* \"#utility.yul\":15355:15356   */\n      0x04\n        /* \"#utility.yul\":15348:15363   */\n      mstore\n        /* \"#utility.yul\":15382:15386   */\n      0x24\n        /* \"#utility.yul\":15379:15380   */\n      0x00\n        /* \"#utility.yul\":15372:15387   */\n      revert\n        /* \"#utility.yul\":15399:15593   */\n    tag_47:\n        /* \"#utility.yul\":15439:15443   */\n      0x00\n        /* \"#utility.yul\":15459:15479   */\n      tag_461\n        /* \"#utility.yul\":15477:15478   */\n      dup3\n        /* \"#utility.yul\":15459:15479   */\n      tag_260\n      jump\t// in\n    tag_461:\n        /* \"#utility.yul\":15454:15479   */\n      swap2\n      pop\n        /* \"#utility.yul\":15493:15513   */\n      tag_462\n        /* \"#utility.yul\":15511:15512   */\n      dup4\n        /* \"#utility.yul\":15493:15513   */\n      tag_260\n      jump\t// in\n    tag_462:\n        /* \"#utility.yul\":15488:15513   */\n      swap3\n      pop\n        /* \"#utility.yul\":15537:15538   */\n      dup3\n        /* \"#utility.yul\":15534:15535   */\n      dup3\n        /* \"#utility.yul\":15530:15539   */\n      sub\n        /* \"#utility.yul\":15522:15539   */\n      swap1\n      pop\n        /* \"#utility.yul\":15561:15562   */\n      dup2\n        /* \"#utility.yul\":15555:15559   */\n      dup2\n        /* \"#utility.yul\":15552:15563   */\n      gt\n        /* \"#utility.yul\":15549:15586   */\n      iszero\n      tag_463\n      jumpi\n        /* \"#utility.yul\":15566:15584   */\n      tag_464\n      tag_296\n      jump\t// in\n    tag_464:\n        /* \"#utility.yul\":15549:15586   */\n    tag_463:\n        /* \"#utility.yul\":15399:15593   */\n      swap3\n      swap2\n      pop\n      pop\n      jump\t// out\n        /* \"#utility.yul\":15599:15779   */\n    tag_50:\n        /* \"#utility.yul\":15647:15724   */\n      0x4e487b7100000000000000000000000000000000000000000000000000000000\n        /* \"#utility.yul\":15644:15645   */\n      0x00\n        /* \"#utility.yul\":15637:15725   */\n      mstore\n        /* \"#utility.yul\":15744:15748   */\n      0x32\n        /* \"#utility.yul\":15741:15742   */\n      0x04\n        /* \"#utility.yul\":15734:15749   */\n      mstore\n        /* \"#utility.yul\":15768:15772   */\n      0x24\n        /* \"#utility.yul\":15765:15766   */\n      0x00\n        /* \"#utility.yul\":15758:15773   */\n      revert\n        /* \"#utility.yul\":15785:16018   */\n    tag_62:\n        /* \"#utility.yul\":15824:15827   */\n      0x00\n        /* \"#utility.yul\":15847:15871   */\n      tag_467\n        /* \"#utility.yul\":15865:15870   */\n      dup3\n        /* \"#utility.yul\":15847:15871   */\n      tag_260\n      jump\t// in\n    tag_467:\n        /* \"#utility.yul\":15838:15871   */\n      swap2\n      pop\n        /* \"#utility.yul\":15893:15959   */\n      0xffffffffffffffffffffffffffffffffffffffffffffffffffffffffffffffff\n        /* \"#utility.yul\":15886:15891   */\n      dup3\n        /* \"#utility.yul\":15883:15960   */\n      sub\n        /* \"#utility.yul\":15880:15983   */\n      tag_468\n      jumpi\n        /* \"#utility.yul\":15963:15981   */\n      tag_469\n      tag_296\n      jump\t// in\n    tag_469:\n        /* \"#utility.yul\":15880:15983   */\n    tag_468:\n        /* \"#utility.yul\":16010:16011   */\n      0x01\n        /* \"#utility.yul\":16003:16008   */\n      dup3\n        /* \"#utility.yul\":15999:16012   */\n      add\n        /* \"#utility.yul\":15992:16012   */\n      swap1\n      pop\n        /* \"#utility.yul\":15785:16018   */\n      swap2\n      swap1\n      pop\n      jump\t// out\n        /* \"#utility.yul\":16024:16202   */\n    tag_297:\n        /* \"#utility.yul\":16164:16194   */\n      0x596f7520416c7265616479204c696b6564207468652074776565742100000000\n        /* \"#utility.yul\":16160:16161   */\n      0x00\n        /* \"#utility.yul\":16152:16158   */\n      dup3\n        /* \"#utility.yul\":16148:16162   */\n      add\n        /* \"#utility.yul\":16141:16195   */\n      mstore\n        /* \"#utility.yul\":16024:16202   */\n      pop\n      jump\t// out\n        /* \"#utility.yul\":16208:16574   */\n    tag_298:\n        /* \"#utility.yul\":16350:16353   */\n      0x00\n        /* \"#utility.yul\":16371:16438   */\n      tag_472\n        /* \"#utility.yul\":16435:16437   */\n      0x1c\n        /* \"#utility.yul\":16430:16433   */\n      dup4\n        /* \"#utility.yul\":16371:16438   */\n      tag_293\n      jump\t// in\n    tag_472:\n        /* \"#utility.yul\":16364:16438   */\n      swap2\n      pop\n        /* \"#utility.yul\":16447:16540   */\n      tag_473\n        /* \"#utility.yul\":16536:16539   */\n      dup3\n        /* \"#utility.yul\":16447:16540   */\n      tag_297\n      jump\t// in\n    tag_473:\n        /* \"#utility.yul\":16565:16567   */\n      0x20\n        /* \"#utility.yul\":16560:16563   */\n      dup3\n        /* \"#utility.yul\":16556:16568   */\n      add\n        /* \"#utility.yul\":16549:16568   */\n      swap1\n      pop\n        /* \"#utility.yul\":16208:16574   */\n      swap2\n      swap1\n      pop\n      jump\t// out\n        /* \"#utility.yul\":16580:16999   */\n    tag_65:\n        /* \"#utility.yul\":16746:16750   */\n      0x00\n        /* \"#utility.yul\":16784:16786   */\n      0x20\n        /* \"#utility.yul\":16773:16782   */\n      dup3\n        /* \"#utility.yul\":16769:16787   */\n      add\n        /* \"#utility.yul\":16761:16787   */\n      swap1\n      pop\n        /* \"#utility.yul\":16833:16842   */\n      dup2\n        /* \"#utility.yul\":16827:16831   */\n      dup2\n        /* \"#utility.yul\":16823:16843   */\n      sub\n        /* \"#utility.yul\":16819:16820   */\n      0x00\n        /* \"#utility.yul\":16808:16817   */\n      dup4\n        /* \"#utility.yul\":16804:16821   */\n      add\n        /* \"#utility.yul\":16797:16844   */\n      mstore\n        /* \"#utility.yul\":16861:16992   */\n      tag_475\n        /* \"#utility.yul\":16987:16991   */\n      dup2\n        /* \"#utility.yul\":16861:16992   */\n      tag_298\n      jump\t// in\n    tag_475:\n        /* \"#utility.yul\":16853:16992   */\n      swap1\n      pop\n        /* \"#utility.yul\":16580:16999   */\n      swap2\n      swap1\n      pop\n      jump\t// out\n        /* \"#utility.yul\":17005:17185   */\n    tag_299:\n        /* \"#utility.yul\":17145:17177   */\n      0x596f7520416c726561647920556e4c696b656420746865207477656574210000\n        /* \"#utility.yul\":17141:17142   */\n      0x00\n        /* \"#utility.yul\":17133:17139   */\n      dup3\n        /* \"#utility.yul\":17129:17143   */\n      add\n        /* \"#utility.yul\":17122:17178   */\n      mstore\n        /* \"#utility.yul\":17005:17185   */\n      pop\n      jump\t// out\n        /* \"#utility.yul\":17191:17557   */\n    tag_300:\n        /* \"#utility.yul\":17333:17336   */\n      0x00\n        /* \"#utility.yul\":17354:17421   */\n      tag_478\n        /* \"#utility.yul\":17418:17420   */\n      0x1e\n        /* \"#utility.yul\":17413:17416   */\n      dup4\n        /* \"#utility.yul\":17354:17421   */\n      tag_293\n      jump\t// in\n    tag_478:\n        /* \"#utility.yul\":17347:17421   */\n      swap2\n      pop\n        /* \"#utility.yul\":17430:17523   */\n      tag_479\n        /* \"#utility.yul\":17519:17522   */\n      dup3\n        /* \"#utility.yul\":17430:17523   */\n      tag_299\n      jump\t// in\n    tag_479:\n        /* \"#utility.yul\":17548:17550   */\n      0x20\n        /* \"#utility.yul\":17543:17546   */\n      dup3\n        /* \"#utility.yul\":17539:17551   */\n      add\n        /* \"#utility.yul\":17532:17551   */\n      swap1\n      pop\n        /* \"#utility.yul\":17191:17557   */\n      swap2\n      swap1\n      pop\n      jump\t// out\n        /* \"#utility.yul\":17563:17982   */\n    tag_86:\n        /* \"#utility.yul\":17729:17733   */\n      0x00\n        /* \"#utility.yul\":17767:17769   */\n      0x20\n        /* \"#utility.yul\":17756:17765   */\n      dup3\n        /* \"#utility.yul\":17752:17770   */\n      add\n        /* \"#utility.yul\":17744:17770   */\n      swap1\n      pop\n        /* \"#utility.yul\":17816:17825   */\n      dup2\n        /* \"#utility.yul\":17810:17814   */\n      dup2\n        /* \"#utility.yul\":17806:17826   */\n      sub\n        /* \"#utility.yul\":17802:17803   */\n      0x00\n        /* \"#utility.yul\":17791:17800   */\n      dup4\n        /* \"#utility.yul\":17787:17804   */\n      add\n        /* \"#utility.yul\":17780:17827   */\n      mstore\n        /* \"#utility.yul\":17844:17975   */\n      tag_481\n        /* \"#utility.yul\":17970:17974   */\n      dup2\n        /* \"#utility.yul\":17844:17975   */\n      tag_300\n      jump\t// in\n    tag_481:\n        /* \"#utility.yul\":17836:17975   */\n      swap1\n      pop\n        /* \"#utility.yul\":17563:17982   */\n      swap2\n      swap1\n      pop\n      jump\t// out\n        /* \"#utility.yul\":17988:18221   */\n    tag_301:\n        /* \"#utility.yul\":18128:18162   */\n      0x5468697320697320596f757220547765657421596f752063616e6e2774204c69\n        /* \"#utility.yul\":18124:18125   */\n      0x00\n        /* \"#utility.yul\":18116:18122   */\n      dup3\n        /* \"#utility.yul\":18112:18126   */\n      add\n        /* \"#utility.yul\":18105:18163   */\n      mstore\n        /* \"#utility.yul\":18197:18213   */\n      0x6b6520596f757220547765657421000000000000000000000000000000000000\n        /* \"#utility.yul\":18192:18194   */\n      0x20\n        /* \"#utility.yul\":18184:18190   */\n      dup3\n        /* \"#utility.yul\":18180:18195   */\n      add\n        /* \"#utility.yul\":18173:18214   */\n      mstore\n        /* \"#utility.yul\":17988:18221   */\n      pop\n      jump\t// out\n        /* \"#utility.yul\":18227:18593   */\n    tag_302:\n        /* \"#utility.yul\":18369:18372   */\n      0x00\n        /* \"#utility.yul\":18390:18457   */\n      tag_484\n        /* \"#utility.yul\":18454:18456   */\n      0x2e\n        /* \"#utility.yul\":18449:18452   */\n      dup4\n        /* \"#utility.yul\":18390:18457   */\n      tag_293\n      jump\t// in\n    tag_484:\n        /* \"#utility.yul\":18383:18457   */\n      swap2\n      pop\n        /* \"#utility.yul\":18466:18559   */\n      tag_485\n        /* \"#utility.yul\":18555:18558   */\n      dup3\n        /* \"#utility.yul\":18466:18559   */\n      tag_301\n      jump\t// in\n    tag_485:\n        /* \"#utility.yul\":18584:18586   */\n      0x40\n        /* \"#utility.yul\":18579:18582   */\n      dup3\n        /* \"#utility.yul\":18575:18587   */\n      add\n        /* \"#utility.yul\":18568:18587   */\n      swap1\n      pop\n        /* \"#utility.yul\":18227:18593   */\n      swap2\n      swap1\n      pop\n      jump\t// out\n        /* \"#utility.yul\":18599:19018   */\n    tag_90:\n        /* \"#utility.yul\":18765:18769   */\n      0x00\n        /* \"#utility.yul\":18803:18805   */\n      0x20\n        /* \"#utility.yul\":18792:18801   */\n      dup3\n        /* \"#utility.yul\":18788:18806   */\n      add\n        /* \"#utility.yul\":18780:18806   */\n      swap1\n      pop\n        /* \"#utility.yul\":18852:18861   */\n      dup2\n        /* \"#utility.yul\":18846:18850   */\n      dup2\n        /* \"#utility.yul\":18842:18862   */\n      sub\n        /* \"#utility.yul\":18838:18839   */\n      0x00\n        /* \"#utility.yul\":18827:18836   */\n      dup4\n        /* \"#utility.yul\":18823:18840   */\n      add\n        /* \"#utility.yul\":18816:18863   */\n      mstore\n        /* \"#utility.yul\":18880:19011   */\n      tag_487\n        /* \"#utility.yul\":19006:19010   */\n      dup2\n        /* \"#utility.yul\":18880:19011   */\n      tag_302\n      jump\t// in\n    tag_487:\n        /* \"#utility.yul\":18872:19011   */\n      swap1\n      pop\n        /* \"#utility.yul\":18599:19018   */\n      swap2\n      swap1\n      pop\n      jump\t// out\n        /* \"#utility.yul\":19024:19142   */\n    tag_303:\n        /* \"#utility.yul\":19111:19135   */\n      tag_489\n        /* \"#utility.yul\":19129:19134   */\n      dup2\n        /* \"#utility.yul\":19111:19135   */\n      tag_257\n      jump\t// in\n    tag_489:\n        /* \"#utility.yul\":19106:19109   */\n      dup3\n        /* \"#utility.yul\":19099:19136   */\n      mstore\n        /* \"#utility.yul\":19024:19142   */\n      pop\n      pop\n      jump\t// out\n        /* \"#utility.yul\":19148:19266   */\n    tag_304:\n        /* \"#utility.yul\":19235:19259   */\n      tag_491\n        /* \"#utility.yul\":19253:19258   */\n      dup2\n        /* \"#utility.yul\":19235:19259   */\n      tag_260\n      jump\t// in\n    tag_491:\n        /* \"#utility.yul\":19230:19233   */\n      dup3\n        /* \"#utility.yul\":19223:19260   */\n      mstore\n        /* \"#utility.yul\":19148:19266   */\n      pop\n      pop\n      jump\t// out\n        /* \"#utility.yul\":19272:19825   */\n    tag_110:\n        /* \"#utility.yul\":19449:19453   */\n      0x00\n        /* \"#utility.yul\":19487:19490   */\n      0x80\n        /* \"#utility.yul\":19476:19485   */\n      dup3\n        /* \"#utility.yul\":19472:19491   */\n      add\n        /* \"#utility.yul\":19464:19491   */\n      swap1\n      pop\n        /* \"#utility.yul\":19501:19572   */\n      tag_493\n        /* \"#utility.yul\":19569:19570   */\n      0x00\n        /* \"#utility.yul\":19558:19567   */\n      dup4\n        /* \"#utility.yul\":19554:19571   */\n      add\n        /* \"#utility.yul\":19545:19551   */\n      dup8\n        /* \"#utility.yul\":19501:19572   */\n      tag_303\n      jump\t// in\n    tag_493:\n        /* \"#utility.yul\":19582:19654   */\n      tag_494\n        /* \"#utility.yul\":19650:19652   */\n      0x20\n        /* \"#utility.yul\":19639:19648   */\n      dup4\n        /* \"#utility.yul\":19635:19653   */\n      add\n        /* \"#utility.yul\":19626:19632   */\n      dup7\n        /* \"#utility.yul\":19582:19654   */\n      tag_303\n      jump\t// in\n    tag_494:\n        /* \"#utility.yul\":19664:19736   */\n      tag_495\n        /* \"#utility.yul\":19732:19734   */\n      0x40\n        /* \"#utility.yul\":19721:19730   */\n      dup4\n        /* \"#utility.yul\":19717:19735   */\n      add\n        /* \"#utility.yul\":19708:19714   */\n      dup6\n        /* \"#utility.yul\":19664:19736   */\n      tag_304\n      jump\t// in\n    tag_495:\n        /* \"#utility.yul\":19746:19818   */\n      tag_496\n        /* \"#utility.yul\":19814:19816   */\n      0x60\n        /* \"#utility.yul\":19803:19812   */\n      dup4\n        /* \"#utility.yul\":19799:19817   */\n      add\n        /* \"#utility.yul\":19790:19796   */\n      dup5\n        /* \"#utility.yul\":19746:19818   */\n      tag_304\n      jump\t// in\n    tag_496:\n        /* \"#utility.yul\":19272:19825   */\n      swap6\n      swap5\n      pop\n      pop\n      pop\n      pop\n      pop\n      jump\t// out\n        /* \"#utility.yul\":19831:20011   */\n    tag_305:\n        /* \"#utility.yul\":19879:19956   */\n      0x4e487b7100000000000000000000000000000000000000000000000000000000\n        /* \"#utility.yul\":19876:19877   */\n      0x00\n        /* \"#utility.yul\":19869:19957   */\n      mstore\n        /* \"#utility.yul\":19976:19980   */\n      0x22\n        /* \"#utility.yul\":19973:19974   */\n      0x04\n        /* \"#utility.yul\":19966:19981   */\n      mstore\n        /* \"#utility.yul\":20000:20004   */\n      0x24\n        /* \"#utility.yul\":19997:19998   */\n      0x00\n        /* \"#utility.yul\":19990:20005   */\n      revert\n        /* \"#utility.yul\":20017:20337   */\n    tag_119:\n        /* \"#utility.yul\":20061:20067   */\n      0x00\n        /* \"#utility.yul\":20098:20099   */\n      0x02\n        /* \"#utility.yul\":20092:20096   */\n      dup3\n        /* \"#utility.yul\":20088:20100   */\n      div\n        /* \"#utility.yul\":20078:20100   */\n      swap1\n      pop\n        /* \"#utility.yul\":20145:20146   */\n      0x01\n        /* \"#utility.yul\":20139:20143   */\n      dup3\n        /* \"#utility.yul\":20135:20147   */\n      and\n        /* \"#utility.yul\":20166:20184   */\n      dup1\n        /* \"#utility.yul\":20156:20237   */\n      tag_499\n      jumpi\n        /* \"#utility.yul\":20222:20226   */\n      0x7f\n        /* \"#utility.yul\":20214:20220   */\n      dup3\n        /* \"#utility.yul\":20210:20227   */\n      and\n        /* \"#utility.yul\":20200:20227   */\n      swap2\n      pop\n        /* \"#utility.yul\":20156:20237   */\n    tag_499:\n        /* \"#utility.yul\":20284:20286   */\n      0x20\n        /* \"#utility.yul\":20276:20282   */\n      dup3\n        /* \"#utility.yul\":20273:20287   */\n      lt\n        /* \"#utility.yul\":20253:20271   */\n      dup2\n        /* \"#utility.yul\":20250:20288   */\n      sub\n        /* \"#utility.yul\":20247:20331   */\n      tag_500\n      jumpi\n        /* \"#utility.yul\":20303:20321   */\n      tag_501\n      tag_305\n      jump\t// in\n    tag_501:\n        /* \"#utility.yul\":20247:20331   */\n    tag_500:\n        /* \"#utility.yul\":20068:20337   */\n      pop\n        /* \"#utility.yul\":20017:20337   */\n      swap2\n      swap1\n      pop\n      jump\t// out\n        /* \"#utility.yul\":20343:20523   */\n    tag_144:\n        /* \"#utility.yul\":20391:20468   */\n      0x4e487b7100000000000000000000000000000000000000000000000000000000\n        /* \"#utility.yul\":20388:20389   */\n      0x00\n        /* \"#utility.yul\":20381:20469   */\n      mstore\n        /* \"#utility.yul\":20488:20492   */\n      0x31\n        /* \"#utility.yul\":20485:20486   */\n      0x04\n        /* \"#utility.yul\":20478:20493   */\n      mstore\n        /* \"#utility.yul\":20512:20516   */\n      0x24\n        /* \"#utility.yul\":20509:20510   */\n      0x00\n        /* \"#utility.yul\":20502:20517   */\n      revert\n        /* \"#utility.yul\":20529:20702   */\n    tag_306:\n        /* \"#utility.yul\":20669:20694   */\n      0x5477656574204c656e6774682069732045786365656421000000000000000000\n        /* \"#utility.yul\":20665:20666   */\n      0x00\n        /* \"#utility.yul\":20657:20663   */\n      dup3\n        /* \"#utility.yul\":20653:20667   */\n      add\n        /* \"#utility.yul\":20646:20695   */\n      mstore\n        /* \"#utility.yul\":20529:20702   */\n      pop\n      jump\t// out\n        /* \"#utility.yul\":20708:21074   */\n    tag_307:\n        /* \"#utility.yul\":20850:20853   */\n      0x00\n        /* \"#utility.yul\":20871:20938   */\n      tag_505\n        /* \"#utility.yul\":20935:20937   */\n      0x17\n        /* \"#utility.yul\":20930:20933   */\n      dup4\n        /* \"#utility.yul\":20871:20938   */\n      tag_293\n      jump\t// in\n    tag_505:\n        /* \"#utility.yul\":20864:20938   */\n      swap2\n      pop\n        /* \"#utility.yul\":20947:21040   */\n      tag_506\n        /* \"#utility.yul\":21036:21039   */\n      dup3\n        /* \"#utility.yul\":20947:21040   */\n      tag_306\n      jump\t// in\n    tag_506:\n        /* \"#utility.yul\":21065:21067   */\n      0x20\n        /* \"#utility.yul\":21060:21063   */\n      dup3\n        /* \"#utility.yul\":21056:21068   */\n      add\n        /* \"#utility.yul\":21049:21068   */\n      swap1\n      pop\n        /* \"#utility.yul\":20708:21074   */\n      swap2\n      swap1\n      pop\n      jump\t// out\n        /* \"#utility.yul\":21080:21499   */\n    tag_157:\n        /* \"#utility.yul\":21246:21250   */\n      0x00\n        /* \"#utility.yul\":21284:21286   */\n      0x20\n        /* \"#utility.yul\":21273:21282   */\n      dup3\n        /* \"#utility.yul\":21269:21287   */\n      add\n        /* \"#utility.yul\":21261:21287   */\n      swap1\n      pop\n        /* \"#utility.yul\":21333:21342   */\n      dup2\n        /* \"#utility.yul\":21327:21331   */\n      dup2\n        /* \"#utility.yul\":21323:21343   */\n      sub\n        /* \"#utility.yul\":21319:21320   */\n      0x00\n        /* \"#utility.yul\":21308:21317   */\n      dup4\n        /* \"#utility.yul\":21304:21321   */\n      add\n        /* \"#utility.yul\":21297:21344   */\n      mstore\n        /* \"#utility.yul\":21361:21492   */\n      tag_508\n        /* \"#utility.yul\":21487:21491   */\n      dup2\n        /* \"#utility.yul\":21361:21492   */\n      tag_307\n      jump\t// in\n    tag_508:\n        /* \"#utility.yul\":21353:21492   */\n      swap1\n      pop\n        /* \"#utility.yul\":21080:21499   */\n      swap2\n      swap1\n      pop\n      jump\t// out\n        /* \"#utility.yul\":21505:21696   */\n    tag_159:\n        /* \"#utility.yul\":21545:21548   */\n      0x00\n        /* \"#utility.yul\":21564:21584   */\n      tag_510\n        /* \"#utility.yul\":21582:21583   */\n      dup3\n        /* \"#utility.yul\":21564:21584   */\n      tag_260\n      jump\t// in\n    tag_510:\n        /* \"#utility.yul\":21559:21584   */\n      swap2\n      pop\n        /* \"#utility.yul\":21598:21618   */\n      tag_511\n        /* \"#utility.yul\":21616:21617   */\n      dup4\n        /* \"#utility.yul\":21598:21618   */\n      tag_260\n      jump\t// in\n    tag_511:\n        /* \"#utility.yul\":21593:21618   */\n      swap3\n      pop\n        /* \"#utility.yul\":21641:21642   */\n      dup3\n        /* \"#utility.yul\":21638:21639   */\n      dup3\n        /* \"#utility.yul\":21634:21643   */\n      add\n        /* \"#utility.yul\":21627:21643   */\n      swap1\n      pop\n        /* \"#utility.yul\":21662:21665   */\n      dup1\n        /* \"#utility.yul\":21659:21660   */\n      dup3\n        /* \"#utility.yul\":21656:21666   */\n      gt\n        /* \"#utility.yul\":21653:21689   */\n      iszero\n      tag_512\n      jumpi\n        /* \"#utility.yul\":21669:21687   */\n      tag_513\n      tag_296\n      jump\t// in\n    tag_513:\n        /* \"#utility.yul\":21653:21689   */\n    tag_512:\n        /* \"#utility.yul\":21505:21696   */\n      swap3\n      swap2\n      pop\n      pop\n      jump\t// out\n        /* \"#utility.yul\":21702:21843   */\n    tag_308:\n        /* \"#utility.yul\":21751:21755   */\n      0x00\n        /* \"#utility.yul\":21774:21777   */\n      dup2\n        /* \"#utility.yul\":21766:21777   */\n      swap1\n      pop\n        /* \"#utility.yul\":21797:21800   */\n      dup2\n        /* \"#utility.yul\":21794:21795   */\n      0x00\n        /* \"#utility.yul\":21787:21801   */\n      mstore\n        /* \"#utility.yul\":21831:21835   */\n      0x20\n        /* \"#utility.yul\":21828:21829   */\n      0x00\n        /* \"#utility.yul\":21818:21836   */\n      keccak256\n        /* \"#utility.yul\":21810:21836   */\n      swap1\n      pop\n        /* \"#utility.yul\":21702:21843   */\n      swap2\n      swap1\n      pop\n      jump\t// out\n        /* \"#utility.yul\":21849:21942   */\n    tag_309:\n        /* \"#utility.yul\":21886:21892   */\n      0x00\n        /* \"#utility.yul\":21933:21935   */\n      0x20\n        /* \"#utility.yul\":21928:21930   */\n      0x1f\n        /* \"#utility.yul\":21921:21926   */\n      dup4\n        /* \"#utility.yul\":21917:21931   */\n      add\n        /* \"#utility.yul\":21913:21936   */\n      div\n        /* \"#utility.yul\":21903:21936   */\n      swap1\n      pop\n        /* \"#utility.yul\":21849:21942   */\n      swap2\n      swap1\n      pop\n      jump\t// out\n        /* \"#utility.yul\":21948:22055   */\n    tag_310:\n        /* \"#utility.yul\":21992:22000   */\n      0x00\n        /* \"#utility.yul\":22042:22047   */\n      dup3\n        /* \"#utility.yul\":22036:22040   */\n      dup3\n        /* \"#utility.yul\":22032:22048   */\n      shl\n        /* \"#utility.yul\":22011:22048   */\n      swap1\n      pop\n        /* \"#utility.yul\":21948:22055   */\n      swap3\n      swap2\n      pop\n      pop\n      jump\t// out\n        /* \"#utility.yul\":22061:22454   */\n    tag_311:\n        /* \"#utility.yul\":22130:22136   */\n      0x00\n        /* \"#utility.yul\":22180:22181   */\n      0x08\n        /* \"#utility.yul\":22168:22178   */\n      dup4\n        /* \"#utility.yul\":22164:22182   */\n      mul\n        /* \"#utility.yul\":22203:22300   */\n      tag_518\n        /* \"#utility.yul\":22233:22299   */\n      0xffffffffffffffffffffffffffffffffffffffffffffffffffffffffffffffff\n        /* \"#utility.yul\":22222:22231   */\n      dup3\n        /* \"#utility.yul\":22203:22300   */\n      tag_310\n      jump\t// in\n    tag_518:\n        /* \"#utility.yul\":22321:22360   */\n      tag_519\n        /* \"#utility.yul\":22351:22359   */\n      dup7\n        /* \"#utility.yul\":22340:22349   */\n      dup4\n        /* \"#utility.yul\":22321:22360   */\n      tag_310\n      jump\t// in\n    tag_519:\n        /* \"#utility.yul\":22309:22360   */\n      swap6\n      pop\n        /* \"#utility.yul\":22393:22397   */\n      dup1\n        /* \"#utility.yul\":22389:22398   */\n      not\n        /* \"#utility.yul\":22382:22387   */\n      dup5\n        /* \"#utility.yul\":22378:22399   */\n      and\n        /* \"#utility.yul\":22369:22399   */\n      swap4\n      pop\n        /* \"#utility.yul\":22442:22446   */\n      dup1\n        /* \"#utility.yul\":22432:22440   */\n      dup7\n        /* \"#utility.yul\":22428:22447   */\n      and\n        /* \"#utility.yul\":22421:22426   */\n      dup5\n        /* \"#utility.yul\":22418:22448   */\n      or\n        /* \"#utility.yul\":22408:22448   */\n      swap3\n      pop\n        /* \"#utility.yul\":22137:22454   */\n      pop\n      pop\n        /* \"#utility.yul\":22061:22454   */\n      swap4\n      swap3\n      pop\n      pop\n      pop\n      jump\t// out\n        /* \"#utility.yul\":22460:22520   */\n    tag_312:\n        /* \"#utility.yul\":22488:22491   */\n      0x00\n        /* \"#utility.yul\":22509:22514   */\n      dup2\n        /* \"#utility.yul\":22502:22514   */\n      swap1\n      pop\n        /* \"#utility.yul\":22460:22520   */\n      swap2\n      swap1\n      pop\n      jump\t// out\n        /* \"#utility.yul\":22526:22668   */\n    tag_313:\n        /* \"#utility.yul\":22576:22585   */\n      0x00\n        /* \"#utility.yul\":22609:22662   */\n      tag_522\n        /* \"#utility.yul\":22627:22661   */\n      tag_523\n        /* \"#utility.yul\":22636:22660   */\n      tag_524\n        /* \"#utility.yul\":22654:22659   */\n      dup5\n        /* \"#utility.yul\":22636:22660   */\n      tag_260\n      jump\t// in\n    tag_524:\n        /* \"#utility.yul\":22627:22661   */\n      tag_312\n      jump\t// in\n    tag_523:\n        /* \"#utility.yul\":22609:22662   */\n      tag_260\n      jump\t// in\n    tag_522:\n        /* \"#utility.yul\":22596:22662   */\n      swap1\n      pop\n        /* \"#utility.yul\":22526:22668   */\n      swap2\n      swap1\n      pop\n      jump\t// out\n        /* \"#utility.yul\":22674:22749   */\n    tag_314:\n        /* \"#utility.yul\":22717:22720   */\n      0x00\n        /* \"#utility.yul\":22738:22743   */\n      dup2\n        /* \"#utility.yul\":22731:22743   */\n      swap1\n      pop\n        /* \"#utility.yul\":22674:22749   */\n      swap2\n      swap1\n      pop\n      jump\t// out\n        /* \"#utility.yul\":22755:23024   */\n    tag_315:\n        /* \"#utility.yul\":22865:22904   */\n      tag_527\n        /* \"#utility.yul\":22896:22903   */\n      dup4\n        /* \"#utility.yul\":22865:22904   */\n      tag_313\n      jump\t// in\n    tag_527:\n        /* \"#utility.yul\":22926:23017   */\n      tag_528\n        /* \"#utility.yul\":22975:23016   */\n      tag_529\n        /* \"#utility.yul\":22999:23015   */\n      dup3\n        /* \"#utility.yul\":22975:23016   */\n      tag_314\n      jump\t// in\n    tag_529:\n        /* \"#utility.yul\":22967:22973   */\n      dup5\n        /* \"#utility.yul\":22960:22964   */\n      dup5\n        /* \"#utility.yul\":22954:22965   */\n      sload\n        /* \"#utility.yul\":22926:23017   */\n      tag_311\n      jump\t// in\n    tag_528:\n        /* \"#utility.yul\":22920:22924   */\n      dup3\n        /* \"#utility.yul\":22913:23018   */\n      sstore\n        /* \"#utility.yul\":22831:23024   */\n      pop\n        /* \"#utility.yul\":22755:23024   */\n      pop\n      pop\n      pop\n      jump\t// out\n        /* \"#utility.yul\":23030:23103   */\n    tag_316:\n        /* \"#utility.yul\":23075:23078   */\n      0x00\n        /* \"#utility.yul\":23030:23103   */\n      swap1\n      jump\t// out\n        /* \"#utility.yul\":23109:23298   */\n    tag_317:\n        /* \"#utility.yul\":23186:23218   */\n      tag_532\n      tag_316\n      jump\t// in\n    tag_532:\n        /* \"#utility.yul\":23227:23292   */\n      tag_533\n        /* \"#utility.yul\":23285:23291   */\n      dup2\n        /* \"#utility.yul\":23277:23283   */\n      dup5\n        /* \"#utility.yul\":23271:23275   */\n      dup5\n        /* \"#utility.yul\":23227:23292   */\n      tag_315\n      jump\t// in\n    tag_533:\n        /* \"#utility.yul\":23162:23298   */\n      pop\n        /* \"#utility.yul\":23109:23298   */\n      pop\n      pop\n      jump\t// out\n        /* \"#utility.yul\":23304:23490   */\n    tag_318:\n        /* \"#utility.yul\":23364:23484   */\n    tag_535:\n        /* \"#utility.yul\":23381:23384   */\n      dup2\n        /* \"#utility.yul\":23374:23379   */\n      dup2\n        /* \"#utility.yul\":23371:23385   */\n      lt\n        /* \"#utility.yul\":23364:23484   */\n      iszero\n      tag_537\n      jumpi\n        /* \"#utility.yul\":23435:23474   */\n      tag_538\n        /* \"#utility.yul\":23472:23473   */\n      0x00\n        /* \"#utility.yul\":23465:23470   */\n      dup3\n        /* \"#utility.yul\":23435:23474   */\n      tag_317\n      jump\t// in\n    tag_538:\n        /* \"#utility.yul\":23408:23409   */\n      0x01\n        /* \"#utility.yul\":23401:23406   */\n      dup2\n        /* \"#utility.yul\":23397:23410   */\n      add\n        /* \"#utility.yul\":23388:23410   */\n      swap1\n      pop\n        /* \"#utility.yul\":23364:23484   */\n      jump(tag_535)\n    tag_537:\n        /* \"#utility.yul\":23304:23490   */\n      pop\n      pop\n      jump\t// out\n        /* \"#utility.yul\":23496:24039   */\n    tag_319:\n        /* \"#utility.yul\":23597:23599   */\n      0x1f\n        /* \"#utility.yul\":23592:23595   */\n      dup3\n        /* \"#utility.yul\":23589:23600   */\n      gt\n        /* \"#utility.yul\":23586:24032   */\n      iszero\n      tag_540\n      jumpi\n        /* \"#utility.yul\":23631:23669   */\n      tag_541\n        /* \"#utility.yul\":23663:23668   */\n      dup2\n        /* \"#utility.yul\":23631:23669   */\n      tag_308\n      jump\t// in\n    tag_541:\n        /* \"#utility.yul\":23715:23744   */\n      tag_542\n        /* \"#utility.yul\":23733:23743   */\n      dup5\n        /* \"#utility.yul\":23715:23744   */\n      tag_309\n      jump\t// in\n    tag_542:\n        /* \"#utility.yul\":23705:23713   */\n      dup2\n        /* \"#utility.yul\":23701:23745   */\n      add\n        /* \"#utility.yul\":23898:23900   */\n      0x20\n        /* \"#utility.yul\":23886:23896   */\n      dup6\n        /* \"#utility.yul\":23883:23901   */\n      lt\n        /* \"#utility.yul\":23880:23929   */\n      iszero\n      tag_543\n      jumpi\n        /* \"#utility.yul\":23919:23927   */\n      dup2\n        /* \"#utility.yul\":23904:23927   */\n      swap1\n      pop\n        /* \"#utility.yul\":23880:23929   */\n    tag_543:\n        /* \"#utility.yul\":23942:24022   */\n      tag_544\n        /* \"#utility.yul\":23998:24020   */\n      tag_545\n        /* \"#utility.yul\":24016:24019   */\n      dup6\n        /* \"#utility.yul\":23998:24020   */\n      tag_309\n      jump\t// in\n    tag_545:\n        /* \"#utility.yul\":23988:23996   */\n      dup4\n        /* \"#utility.yul\":23984:24021   */\n      add\n        /* \"#utility.yul\":23971:23982   */\n      dup3\n        /* \"#utility.yul\":23942:24022   */\n      tag_318\n      jump\t// in\n    tag_544:\n        /* \"#utility.yul\":23601:24032   */\n      pop\n      pop\n        /* \"#utility.yul\":23586:24032   */\n    tag_540:\n        /* \"#utility.yul\":23496:24039   */\n      pop\n      pop\n      pop\n      jump\t// out\n        /* \"#utility.yul\":24045:24162   */\n    tag_320:\n        /* \"#utility.yul\":24099:24107   */\n      0x00\n        /* \"#utility.yul\":24149:24154   */\n      dup3\n        /* \"#utility.yul\":24143:24147   */\n      dup3\n        /* \"#utility.yul\":24139:24155   */\n      shr\n        /* \"#utility.yul\":24118:24155   */\n      swap1\n      pop\n        /* \"#utility.yul\":24045:24162   */\n      swap3\n      swap2\n      pop\n      pop\n      jump\t// out\n        /* \"#utility.yul\":24168:24337   */\n    tag_321:\n        /* \"#utility.yul\":24212:24218   */\n      0x00\n        /* \"#utility.yul\":24245:24296   */\n      tag_548\n        /* \"#utility.yul\":24293:24294   */\n      0x00\n        /* \"#utility.yul\":24289:24295   */\n      not\n        /* \"#utility.yul\":24281:24286   */\n      dup5\n        /* \"#utility.yul\":24278:24279   */\n      0x08\n        /* \"#utility.yul\":24274:24287   */\n      mul\n        /* \"#utility.yul\":24245:24296   */\n      tag_320\n      jump\t// in\n    tag_548:\n        /* \"#utility.yul\":24241:24297   */\n      not\n        /* \"#utility.yul\":24326:24330   */\n      dup1\n        /* \"#utility.yul\":24320:24324   */\n      dup4\n        /* \"#utility.yul\":24316:24331   */\n      and\n        /* \"#utility.yul\":24306:24331   */\n      swap2\n      pop\n        /* \"#utility.yul\":24219:24337   */\n      pop\n        /* \"#utility.yul\":24168:24337   */\n      swap3\n      swap2\n      pop\n      pop\n      jump\t// out\n        /* \"#utility.yul\":24342:24637   */\n    tag_322:\n        /* \"#utility.yul\":24418:24422   */\n      0x00\n        /* \"#utility.yul\":24564:24593   */\n      tag_550\n        /* \"#utility.yul\":24589:24592   */\n      dup4\n        /* \"#utility.yul\":24583:24587   */\n      dup4\n        /* \"#utility.yul\":24564:24593   */\n      tag_321\n      jump\t// in\n    tag_550:\n        /* \"#utility.yul\":24556:24593   */\n      swap2\n      pop\n        /* \"#utility.yul\":24626:24629   */\n      dup3\n        /* \"#utility.yul\":24623:24624   */\n      0x02\n        /* \"#utility.yul\":24619:24630   */\n      mul\n        /* \"#utility.yul\":24613:24617   */\n      dup3\n        /* \"#utility.yul\":24610:24631   */\n      or\n        /* \"#utility.yul\":24602:24631   */\n      swap1\n      pop\n        /* \"#utility.yul\":24342:24637   */\n      swap3\n      swap2\n      pop\n      pop\n      jump\t// out\n        /* \"#utility.yul\":24642:26037   */\n    tag_166:\n        /* \"#utility.yul\":24759:24796   */\n      tag_552\n        /* \"#utility.yul\":24792:24795   */\n      dup3\n        /* \"#utility.yul\":24759:24796   */\n      tag_264\n      jump\t// in\n    tag_552:\n        /* \"#utility.yul\":24861:24879   */\n      0xffffffffffffffff\n        /* \"#utility.yul\":24853:24859   */\n      dup2\n        /* \"#utility.yul\":24850:24880   */\n      gt\n        /* \"#utility.yul\":24847:24903   */\n      iszero\n      tag_553\n      jumpi\n        /* \"#utility.yul\":24883:24901   */\n      tag_554\n      tag_286\n      jump\t// in\n    tag_554:\n        /* \"#utility.yul\":24847:24903   */\n    tag_553:\n        /* \"#utility.yul\":24927:24965   */\n      tag_555\n        /* \"#utility.yul\":24959:24963   */\n      dup3\n        /* \"#utility.yul\":24953:24964   */\n      sload\n        /* \"#utility.yul\":24927:24965   */\n      tag_119\n      jump\t// in\n    tag_555:\n        /* \"#utility.yul\":25012:25079   */\n      tag_556\n        /* \"#utility.yul\":25072:25078   */\n      dup3\n        /* \"#utility.yul\":25064:25070   */\n      dup3\n        /* \"#utility.yul\":25058:25062   */\n      dup6\n        /* \"#utility.yul\":25012:25079   */\n      tag_319\n      jump\t// in\n    tag_556:\n        /* \"#utility.yul\":25106:25107   */\n      0x00\n        /* \"#utility.yul\":25130:25134   */\n      0x20\n        /* \"#utility.yul\":25117:25134   */\n      swap1\n      pop\n        /* \"#utility.yul\":25162:25164   */\n      0x1f\n        /* \"#utility.yul\":25154:25160   */\n      dup4\n        /* \"#utility.yul\":25151:25165   */\n      gt\n        /* \"#utility.yul\":25179:25180   */\n      0x01\n        /* \"#utility.yul\":25174:25792   */\n      dup2\n      eq\n      tag_558\n      jumpi\n        /* \"#utility.yul\":25836:25837   */\n      0x00\n        /* \"#utility.yul\":25853:25859   */\n      dup5\n        /* \"#utility.yul\":25850:25927   */\n      iszero\n      tag_559\n      jumpi\n        /* \"#utility.yul\":25902:25911   */\n      dup3\n        /* \"#utility.yul\":25897:25900   */\n      dup8\n        /* \"#utility.yul\":25893:25912   */\n      add\n        /* \"#utility.yul\":25887:25913   */\n      mload\n        /* \"#utility.yul\":25878:25913   */\n      swap1\n      pop\n        /* \"#utility.yul\":25850:25927   */\n    tag_559:\n        /* \"#utility.yul\":25953:26020   */\n      tag_560\n        /* \"#utility.yul\":26013:26019   */\n      dup6\n        /* \"#utility.yul\":26006:26011   */\n      dup3\n        /* \"#utility.yul\":25953:26020   */\n      tag_322\n      jump\t// in\n    tag_560:\n        /* \"#utility.yul\":25947:25951   */\n      dup7\n        /* \"#utility.yul\":25940:26021   */\n      sstore\n        /* \"#utility.yul\":25809:26031   */\n      pop\n        /* \"#utility.yul\":25144:26031   */\n      jump(tag_557)\n        /* \"#utility.yul\":25174:25792   */\n    tag_558:\n        /* \"#utility.yul\":25226:25230   */\n      0x1f\n        /* \"#utility.yul\":25222:25231   */\n      not\n        /* \"#utility.yul\":25214:25220   */\n      dup5\n        /* \"#utility.yul\":25210:25232   */\n      and\n        /* \"#utility.yul\":25260:25297   */\n      tag_561\n        /* \"#utility.yul\":25292:25296   */\n      dup7\n        /* \"#utility.yul\":25260:25297   */\n      tag_308\n      jump\t// in\n    tag_561:\n        /* \"#utility.yul\":25319:25320   */\n      0x00\n        /* \"#utility.yul\":25333:25541   */\n    tag_562:\n        /* \"#utility.yul\":25347:25354   */\n      dup3\n        /* \"#utility.yul\":25344:25345   */\n      dup2\n        /* \"#utility.yul\":25341:25355   */\n      lt\n        /* \"#utility.yul\":25333:25541   */\n      iszero\n      tag_564\n      jumpi\n        /* \"#utility.yul\":25426:25435   */\n      dup5\n        /* \"#utility.yul\":25421:25424   */\n      dup10\n        /* \"#utility.yul\":25417:25436   */\n      add\n        /* \"#utility.yul\":25411:25437   */\n      mload\n        /* \"#utility.yul\":25403:25409   */\n      dup3\n        /* \"#utility.yul\":25396:25438   */\n      sstore\n        /* \"#utility.yul\":25477:25478   */\n      0x01\n        /* \"#utility.yul\":25469:25475   */\n      dup3\n        /* \"#utility.yul\":25465:25479   */\n      add\n        /* \"#utility.yul\":25455:25479   */\n      swap2\n      pop\n        /* \"#utility.yul\":25524:25526   */\n      0x20\n        /* \"#utility.yul\":25513:25522   */\n      dup6\n        /* \"#utility.yul\":25509:25527   */\n      add\n        /* \"#utility.yul\":25496:25527   */\n      swap5\n      pop\n        /* \"#utility.yul\":25370:25374   */\n      0x20\n        /* \"#utility.yul\":25367:25368   */\n      dup2\n        /* \"#utility.yul\":25363:25375   */\n      add\n        /* \"#utility.yul\":25358:25375   */\n      swap1\n      pop\n        /* \"#utility.yul\":25333:25541   */\n      jump(tag_562)\n    tag_564:\n        /* \"#utility.yul\":25569:25575   */\n      dup7\n        /* \"#utility.yul\":25560:25567   */\n      dup4\n        /* \"#utility.yul\":25557:25576   */\n      lt\n        /* \"#utility.yul\":25554:25733   */\n      iszero\n      tag_565\n      jumpi\n        /* \"#utility.yul\":25627:25636   */\n      dup5\n        /* \"#utility.yul\":25622:25625   */\n      dup10\n        /* \"#utility.yul\":25618:25637   */\n      add\n        /* \"#utility.yul\":25612:25638   */\n      mload\n        /* \"#utility.yul\":25670:25718   */\n      tag_566\n        /* \"#utility.yul\":25712:25716   */\n      0x1f\n        /* \"#utility.yul\":25704:25710   */\n      dup10\n        /* \"#utility.yul\":25700:25717   */\n      and\n        /* \"#utility.yul\":25689:25698   */\n      dup3\n        /* \"#utility.yul\":25670:25718   */\n      tag_321\n      jump\t// in\n    tag_566:\n        /* \"#utility.yul\":25662:25668   */\n      dup4\n        /* \"#utility.yul\":25655:25719   */\n      sstore\n        /* \"#utility.yul\":25577:25733   */\n      pop\n        /* \"#utility.yul\":25554:25733   */\n    tag_565:\n        /* \"#utility.yul\":25779:25780   */\n      0x01\n        /* \"#utility.yul\":25775:25776   */\n      0x02\n        /* \"#utility.yul\":25767:25773   */\n      dup9\n        /* \"#utility.yul\":25763:25777   */\n      mul\n        /* \"#utility.yul\":25759:25781   */\n      add\n        /* \"#utility.yul\":25753:25757   */\n      dup9\n        /* \"#utility.yul\":25746:25782   */\n      sstore\n        /* \"#utility.yul\":25181:25792   */\n      pop\n      pop\n      pop\n        /* \"#utility.yul\":25144:26031   */\n    tag_557:\n      pop\n        /* \"#utility.yul\":24734:26037   */\n      pop\n      pop\n      pop\n        /* \"#utility.yul\":24642:26037   */\n      pop\n      pop\n      jump\t// out\n        /* \"#utility.yul\":26043:26420   */\n    tag_323:\n        /* \"#utility.yul\":26131:26134   */\n      0x00\n        /* \"#utility.yul\":26159:26198   */\n      tag_568\n        /* \"#utility.yul\":26192:26197   */\n      dup3\n        /* \"#utility.yul\":26159:26198   */\n      tag_264\n      jump\t// in\n    tag_568:\n        /* \"#utility.yul\":26214:26285   */\n      tag_569\n        /* \"#utility.yul\":26278:26284   */\n      dup2\n        /* \"#utility.yul\":26273:26276   */\n      dup6\n        /* \"#utility.yul\":26214:26285   */\n      tag_293\n      jump\t// in\n    tag_569:\n        /* \"#utility.yul\":26207:26285   */\n      swap4\n      pop\n        /* \"#utility.yul\":26294:26359   */\n      tag_570\n        /* \"#utility.yul\":26352:26358   */\n      dup2\n        /* \"#utility.yul\":26347:26350   */\n      dup6\n        /* \"#utility.yul\":26340:26344   */\n      0x20\n        /* \"#utility.yul\":26333:26338   */\n      dup7\n        /* \"#utility.yul\":26329:26345   */\n      add\n        /* \"#utility.yul\":26294:26359   */\n      tag_266\n      jump\t// in\n    tag_570:\n        /* \"#utility.yul\":26384:26413   */\n      tag_571\n        /* \"#utility.yul\":26406:26412   */\n      dup2\n        /* \"#utility.yul\":26384:26413   */\n      tag_267\n      jump\t// in\n    tag_571:\n        /* \"#utility.yul\":26379:26382   */\n      dup5\n        /* \"#utility.yul\":26375:26414   */\n      add\n        /* \"#utility.yul\":26368:26414   */\n      swap2\n      pop\n        /* \"#utility.yul\":26135:26420   */\n      pop\n        /* \"#utility.yul\":26043:26420   */\n      swap3\n      swap2\n      pop\n      pop\n      jump\t// out\n        /* \"#utility.yul\":26426:27070   */\n    tag_172:\n        /* \"#utility.yul\":26623:26627   */\n      0x00\n        /* \"#utility.yul\":26661:26664   */\n      0x80\n        /* \"#utility.yul\":26650:26659   */\n      dup3\n        /* \"#utility.yul\":26646:26665   */\n      add\n        /* \"#utility.yul\":26638:26665   */\n      swap1\n      pop\n        /* \"#utility.yul\":26675:26746   */\n      tag_573\n        /* \"#utility.yul\":26743:26744   */\n      0x00\n        /* \"#utility.yul\":26732:26741   */\n      dup4\n        /* \"#utility.yul\":26728:26745   */\n      add\n        /* \"#utility.yul\":26719:26725   */\n      dup8\n        /* \"#utility.yul\":26675:26746   */\n      tag_304\n      jump\t// in\n    tag_573:\n        /* \"#utility.yul\":26756:26828   */\n      tag_574\n        /* \"#utility.yul\":26824:26826   */\n      0x20\n        /* \"#utility.yul\":26813:26822   */\n      dup4\n        /* \"#utility.yul\":26809:26827   */\n      add\n        /* \"#utility.yul\":26800:26806   */\n      dup7\n        /* \"#utility.yul\":26756:26828   */\n      tag_303\n      jump\t// in\n    tag_574:\n        /* \"#utility.yul\":26875:26884   */\n      dup2\n        /* \"#utility.yul\":26869:26873   */\n      dup2\n        /* \"#utility.yul\":26865:26885   */\n      sub\n        /* \"#utility.yul\":26860:26862   */\n      0x40\n        /* \"#utility.yul\":26849:26858   */\n      dup4\n        /* \"#utility.yul\":26845:26863   */\n      add\n        /* \"#utility.yul\":26838:26886   */\n      mstore\n        /* \"#utility.yul\":26903:26981   */\n      tag_575\n        /* \"#utility.yul\":26976:26980   */\n      dup2\n        /* \"#utility.yul\":26967:26973   */\n      dup6\n        /* \"#utility.yul\":26903:26981   */\n      tag_323\n      jump\t// in\n    tag_575:\n        /* \"#utility.yul\":26895:26981   */\n      swap1\n      pop\n        /* \"#utility.yul\":26991:27063   */\n      tag_576\n        /* \"#utility.yul\":27059:27061   */\n      0x60\n        /* \"#utility.yul\":27048:27057   */\n      dup4\n        /* \"#utility.yul\":27044:27062   */\n      add\n        /* \"#utility.yul\":27035:27041   */\n      dup5\n        /* \"#utility.yul\":26991:27063   */\n      tag_304\n      jump\t// in\n    tag_576:\n        /* \"#utility.yul\":26426:27070   */\n      swap6\n      swap5\n      pop\n      pop\n      pop\n      pop\n      pop\n      jump\t// out\n        /* \"#utility.yul\":27076:27301   */\n    tag_324:\n        /* \"#utility.yul\":27216:27250   */\n      0x596f7520617265206e6f742061204f776e6572215065726d697373696f6e2044\n        /* \"#utility.yul\":27212:27213   */\n      0x00\n        /* \"#utility.yul\":27204:27210   */\n      dup3\n        /* \"#utility.yul\":27200:27214   */\n      add\n        /* \"#utility.yul\":27193:27251   */\n      mstore\n        /* \"#utility.yul\":27285:27293   */\n      0x656e696564210000000000000000000000000000000000000000000000000000\n        /* \"#utility.yul\":27280:27282   */\n      0x20\n        /* \"#utility.yul\":27272:27278   */\n      dup3\n        /* \"#utility.yul\":27268:27283   */\n      add\n        /* \"#utility.yul\":27261:27294   */\n      mstore\n        /* \"#utility.yul\":27076:27301   */\n      pop\n      jump\t// out\n        /* \"#utility.yul\":27307:27673   */\n    tag_325:\n        /* \"#utility.yul\":27449:27452   */\n      0x00\n        /* \"#utility.yul\":27470:27537   */\n      tag_579\n        /* \"#utility.yul\":27534:27536   */\n      0x26\n        /* \"#utility.yul\":27529:27532   */\n      dup4\n        /* \"#utility.yul\":27470:27537   */\n      tag_293\n      jump\t// in\n    tag_579:\n        /* \"#utility.yul\":27463:27537   */\n      swap2\n      pop\n        /* \"#utility.yul\":27546:27639   */\n      tag_580\n        /* \"#utility.yul\":27635:27638   */\n      dup3\n        /* \"#utility.yul\":27546:27639   */\n      tag_324\n      jump\t// in\n    tag_580:\n        /* \"#utility.yul\":27664:27666   */\n      0x40\n        /* \"#utility.yul\":27659:27662   */\n      dup3\n        /* \"#utility.yul\":27655:27667   */\n      add\n        /* \"#utility.yul\":27648:27667   */\n      swap1\n      pop\n        /* \"#utility.yul\":27307:27673   */\n      swap2\n      swap1\n      pop\n      jump\t// out\n        /* \"#utility.yul\":27679:28098   */\n    tag_230:\n        /* \"#utility.yul\":27845:27849   */\n      0x00\n        /* \"#utility.yul\":27883:27885   */\n      0x20\n        /* \"#utility.yul\":27872:27881   */\n      dup3\n        /* \"#utility.yul\":27868:27886   */\n      add\n        /* \"#utility.yul\":27860:27886   */\n      swap1\n      pop\n        /* \"#utility.yul\":27932:27941   */\n      dup2\n        /* \"#utility.yul\":27926:27930   */\n      dup2\n        /* \"#utility.yul\":27922:27942   */\n      sub\n        /* \"#utility.yul\":27918:27919   */\n      0x00\n        /* \"#utility.yul\":27907:27916   */\n      dup4\n        /* \"#utility.yul\":27903:27920   */\n      add\n        /* \"#utility.yul\":27896:27943   */\n      mstore\n        /* \"#utility.yul\":27960:28091   */\n      tag_582\n        /* \"#utility.yul\":28086:28090   */\n      dup2\n        /* \"#utility.yul\":27960:28091   */\n      tag_325\n      jump\t// in\n    tag_582:\n        /* \"#utility.yul\":27952:28091   */\n      swap1\n      pop\n        /* \"#utility.yul\":27679:28098   */\n      swap2\n      swap1\n      pop\n      jump\t// out\n\n    auxdata: 0xa2646970667358221220657d5ca74d9206f7da49d7efb3c7471dcc5b319736173ddaad4e750505395bc864736f6c63430008120033\n}\n",
				"bytecode": {
					"linkReferences": {},
					"object": "6080604052600a60015534801561001557600080fd5b50336000806101000a81548173ffffffffffffffffffffffffffffffffffffffff021916908373ffffffffffffffffffffffffffffffffffffffff160217905550612acc806100656000396000f3fe608060405234801561001057600080fd5b50600436106100885760003560e01c8063765fab451161005b578063765fab45146101015780637c9cd2bc1461010b578063a110e72d14610127578063e479c2441461014357610088565b80631216cdc51461008d57806337f36a4c146100a957806342d7fbc0146100d957806371e7eb12146100f7575b600080fd5b6100a760048036038101906100a29190611ce4565b61015f565b005b6100c360048036038101906100be9190611ce4565b6108d7565b6040516100d09190611f3f565b60405180910390f35b6100e1610b8a565b6040516100ee91906120e1565b60405180910390f35b6100ff610e53565b005b610109610f34565b005b61012560048036038101906101209190612238565b610f81565b005b610141600480360381019061013c9190611ce4565b611330565b005b61015d60048036038101906101589190612281565b61198f565b005b818180600360008473ffffffffffffffffffffffffffffffffffffffff1673ffffffffffffffffffffffffffffffffffffffff1681526020019081526020016000208054905010156101e6576040517f08c379a00000000000000000000000000000000000000000000000000000000081526004016101dd9061230b565b60405180910390fd5b60006001905060005b600360008573ffffffffffffffffffffffffffffffffffffffff1673ffffffffffffffffffffffffffffffffffffffff16815260200190815260200160002060018461023b919061235a565b8154811061024c5761024b61238e565b5b906000526020600020906008020160040180549050811015610361573373ffffffffffffffffffffffffffffffffffffffff16600360008673ffffffffffffffffffffffffffffffffffffffff1673ffffffffffffffffffffffffffffffffffffffff1681526020019081526020016000206001856102cb919061235a565b815481106102dc576102db61238e565b5b906000526020600020906008020160040182815481106102ff576102fe61238e565b5b9060005260206000200160009054906101000a900473ffffffffffffffffffffffffffffffffffffffff1673ffffffffffffffffffffffffffffffffffffffff160361034e5760009150610361565b8080610359906123bd565b9150506101ef565b60011515821515146103a8576040517f08c379a000000000000000000000000000000000000000000000000000000000815260040161039f90612451565b60405180910390fd5b858580600360008473ffffffffffffffffffffffffffffffffffffffff1673ffffffffffffffffffffffffffffffffffffffff16815260200190815260200160002080549050101561042f576040517f08c379a00000000000000000000000000000000000000000000000000000000081526004016104269061230b565b60405180910390fd5b60006001905060005b600360008573ffffffffffffffffffffffffffffffffffffffff1673ffffffffffffffffffffffffffffffffffffffff168152602001908152602001600020600184610484919061235a565b815481106104955761049461238e565b5b9060005260206000209060080201600401805490508110156105aa573373ffffffffffffffffffffffffffffffffffffffff16600360008673ffffffffffffffffffffffffffffffffffffffff1673ffffffffffffffffffffffffffffffffffffffff168152602001908152602001600020600185610514919061235a565b815481106105255761052461238e565b5b906000526020600020906008020160070182815481106105485761054761238e565b5b9060005260206000200160009054906101000a900473ffffffffffffffffffffffffffffffffffffffff1673ffffffffffffffffffffffffffffffffffffffff160361059757600091506105aa565b80806105a2906123bd565b915050610438565b60011515821515146105f1576040517f08c379a00000000000000000000000000000000000000000000000000000000081526004016105e8906124bd565b60405180910390fd5b3373ffffffffffffffffffffffffffffffffffffffff168a73ffffffffffffffffffffffffffffffffffffffff160361065f576040517f08c379a00000000000000000000000000000000000000000000000000000000081526004016106569061254f565b60405180910390fd5b600360008b73ffffffffffffffffffffffffffffffffffffffff1673ffffffffffffffffffffffffffffffffffffffff16815260200190815260200160002060018a6106ab919061235a565b815481106106bc576106bb61238e565b5b9060005260206000209060080201600401339080600181540180825580915050600190039060005260206000200160009091909190916101000a81548173ffffffffffffffffffffffffffffffffffffffff021916908373ffffffffffffffffffffffffffffffffffffffff160217905550600360008b73ffffffffffffffffffffffffffffffffffffffff1673ffffffffffffffffffffffffffffffffffffffff16815260200190815260200160002060018a61077a919061235a565b8154811061078b5761078a61238e565b5b906000526020600020906008020160050160008154809291906107ad906123bd565b91905055507fe8a76fc0f16d11a00d1e93b689b63d76cf60af914dd3d915375dc41d01a0c3c8338b600360008e73ffffffffffffffffffffffffffffffffffffffff1673ffffffffffffffffffffffffffffffffffffffff16815260200190815260200160002060018d610821919061235a565b815481106108325761083161238e565b5b906000526020600020906008020160050154600360008f73ffffffffffffffffffffffffffffffffffffffff1673ffffffffffffffffffffffffffffffffffffffff16815260200190815260200160002060018e610890919061235a565b815481106108a1576108a061238e565b5b9060005260206000209060080201600001546040516108c3949392919061258d565b60405180910390a150505050505050505050565b6108df611a27565b600360008473ffffffffffffffffffffffffffffffffffffffff1673ffffffffffffffffffffffffffffffffffffffff16815260200190815260200160002060018361092b919061235a565b8154811061093c5761093b61238e565b5b9060005260206000209060080201604051806101000160405290816000820154815260200160018201805461097090612601565b80601f016020809104026020016040519081016040528092919081815260200182805461099c90612601565b80156109e95780601f106109be576101008083540402835291602001916109e9565b820191906000526020600020905b8154815290600101906020018083116109cc57829003601f168201915b505050505081526020016002820160009054906101000a900473ffffffffffffffffffffffffffffffffffffffff1673ffffffffffffffffffffffffffffffffffffffff1673ffffffffffffffffffffffffffffffffffffffff1681526020016003820154815260200160048201805480602002602001604051908101604052809291908181526020018280548015610ad757602002820191906000526020600020905b8160009054906101000a900473ffffffffffffffffffffffffffffffffffffffff1673ffffffffffffffffffffffffffffffffffffffff1681526020019060010190808311610a8d575b50505050508152602001600582015481526020016006820154815260200160078201805480602002602001604051908101604052809291908181526020018280548015610b7957602002820191906000526020600020905b8160009054906101000a900473ffffffffffffffffffffffffffffffffffffffff1673ffffffffffffffffffffffffffffffffffffffff1681526020019060010190808311610b2f575b505050505081525050905092915050565b6060600360003373ffffffffffffffffffffffffffffffffffffffff1673ffffffffffffffffffffffffffffffffffffffff168152602001908152602001600020805480602002602001604051908101604052809291908181526020016000905b82821015610e4a57838290600052602060002090600802016040518061010001604052908160008201548152602001600182018054610c2990612601565b80601f0160208091040260200160405190810160405280929190818152602001828054610c5590612601565b8015610ca25780601f10610c7757610100808354040283529160200191610ca2565b820191906000526020600020905b815481529060010190602001808311610c8557829003601f168201915b505050505081526020016002820160009054906101000a900473ffffffffffffffffffffffffffffffffffffffff1673ffffffffffffffffffffffffffffffffffffffff1673ffffffffffffffffffffffffffffffffffffffff1681526020016003820154815260200160048201805480602002602001604051908101604052809291908181526020018280548015610d9057602002820191906000526020600020905b8160009054906101000a900473ffffffffffffffffffffffffffffffffffffffff1673ffffffffffffffffffffffffffffffffffffffff1681526020019060010190808311610d46575b50505050508152602001600582015481526020016006820154815260200160078201805480602002602001604051908101604052809291908181526020018280548015610e3257602002820191906000526020600020905b8160009054906101000a900473ffffffffffffffffffffffffffffffffffffffff1673ffffffffffffffffffffffffffffffffffffffff1681526020019060010190808311610de8575b50505050508152505081526020019060010190610beb565b50505050905090565b600360003373ffffffffffffffffffffffffffffffffffffffff1673ffffffffffffffffffffffffffffffffffffffff168152602001908152602001600020805480610ea257610ea1612632565b5b6001900381819060005260206000209060080201600080820160009055600182016000610ecf9190611a82565b6002820160006101000a81549073ffffffffffffffffffffffffffffffffffffffff02191690556003820160009055600482016000610f0e9190611ac2565b60058201600090556006820160009055600782016000610f2e9190611ac2565b50509055565b600360003373ffffffffffffffffffffffffffffffffffffffff1673ffffffffffffffffffffffffffffffffffffffff1681526020019081526020016000206000610f7f9190611ae3565b565b60015481511115610fc7576040517f08c379a0000000000000000000000000000000000000000000000000000000008152600401610fbe906126ad565b60405180910390fd5b60006040518061010001604052806001600360003373ffffffffffffffffffffffffffffffffffffffff1673ffffffffffffffffffffffffffffffffffffffff1681526020019081526020016000208054905061102491906126cd565b81526020018381526020013373ffffffffffffffffffffffffffffffffffffffff16815260200142815260200160028054806020026020016040519081016040528092919081815260200182805480156110d357602002820191906000526020600020905b8160009054906101000a900473ffffffffffffffffffffffffffffffffffffffff1673ffffffffffffffffffffffffffffffffffffffff1681526020019060010190808311611089575b505050505081526020016000815260200160008152602001600280548060200260200160405190810160405280929190818152602001828054801561116d57602002820191906000526020600020905b8160009054906101000a900473ffffffffffffffffffffffffffffffffffffffff1673ffffffffffffffffffffffffffffffffffffffff1681526020019060010190808311611123575b50505050508152509050600360003373ffffffffffffffffffffffffffffffffffffffff1673ffffffffffffffffffffffffffffffffffffffff1681526020019081526020016000208190806001815401808255809150506001900390600052602060002090600802016000909190919091506000820151816000015560208201518160010190816111ff91906128ad565b5060408201518160020160006101000a81548173ffffffffffffffffffffffffffffffffffffffff021916908373ffffffffffffffffffffffffffffffffffffffff16021790555060608201518160030155608082015181600401908051906020019061126d929190611b07565b5060a0820151816005015560c0820151816006015560e082015181600701908051906020019061129e929190611b07565b5050507f16fd3c13e9d46923e0a8bce11c7b473ec508a72e6c96cd2404b29ce972afc29e6001600360003373ffffffffffffffffffffffffffffffffffffffff1673ffffffffffffffffffffffffffffffffffffffff1681526020019081526020016000208054905061131191906126cd565b33844260405161132494939291906129b8565b60405180910390a15050565b818180600360008473ffffffffffffffffffffffffffffffffffffffff1673ffffffffffffffffffffffffffffffffffffffff1681526020019081526020016000208054905010156113b7576040517f08c379a00000000000000000000000000000000000000000000000000000000081526004016113ae9061230b565b60405180910390fd5b60006001905060005b600360008573ffffffffffffffffffffffffffffffffffffffff1673ffffffffffffffffffffffffffffffffffffffff16815260200190815260200160002060018461140c919061235a565b8154811061141d5761141c61238e565b5b906000526020600020906008020160040180549050811015611532573373ffffffffffffffffffffffffffffffffffffffff16600360008673ffffffffffffffffffffffffffffffffffffffff1673ffffffffffffffffffffffffffffffffffffffff16815260200190815260200160002060018561149c919061235a565b815481106114ad576114ac61238e565b5b906000526020600020906008020160040182815481106114d0576114cf61238e565b5b9060005260206000200160009054906101000a900473ffffffffffffffffffffffffffffffffffffffff1673ffffffffffffffffffffffffffffffffffffffff160361151f5760009150611532565b808061152a906123bd565b9150506113c0565b6001151582151514611579576040517f08c379a000000000000000000000000000000000000000000000000000000000815260040161157090612451565b60405180910390fd5b858580600360008473ffffffffffffffffffffffffffffffffffffffff1673ffffffffffffffffffffffffffffffffffffffff168152602001908152602001600020805490501015611600576040517f08c379a00000000000000000000000000000000000000000000000000000000081526004016115f79061230b565b60405180910390fd5b60006001905060005b600360008573ffffffffffffffffffffffffffffffffffffffff1673ffffffffffffffffffffffffffffffffffffffff168152602001908152602001600020600184611655919061235a565b815481106116665761166561238e565b5b90600052602060002090600802016004018054905081101561177b573373ffffffffffffffffffffffffffffffffffffffff16600360008673ffffffffffffffffffffffffffffffffffffffff1673ffffffffffffffffffffffffffffffffffffffff1681526020019081526020016000206001856116e5919061235a565b815481106116f6576116f561238e565b5b906000526020600020906008020160070182815481106117195761171861238e565b5b9060005260206000200160009054906101000a900473ffffffffffffffffffffffffffffffffffffffff1673ffffffffffffffffffffffffffffffffffffffff1603611768576000915061177b565b8080611773906123bd565b915050611609565b60011515821515146117c2576040517f08c379a00000000000000000000000000000000000000000000000000000000081526004016117b9906124bd565b60405180910390fd5b3373ffffffffffffffffffffffffffffffffffffffff168a73ffffffffffffffffffffffffffffffffffffffff1603611830576040517f08c379a00000000000000000000000000000000000000000000000000000000081526004016118279061254f565b60405180910390fd5b600360008b73ffffffffffffffffffffffffffffffffffffffff1673ffffffffffffffffffffffffffffffffffffffff16815260200190815260200160002060018a61187c919061235a565b8154811061188d5761188c61238e565b5b9060005260206000209060080201600701339080600181540180825580915050600190039060005260206000200160009091909190916101000a81548173ffffffffffffffffffffffffffffffffffffffff021916908373ffffffffffffffffffffffffffffffffffffffff160217905550600360008b73ffffffffffffffffffffffffffffffffffffffff1673ffffffffffffffffffffffffffffffffffffffff16815260200190815260200160002060018a61194b919061235a565b8154811061195c5761195b61238e565b5b9060005260206000209060080201600601600081548092919061197e906123bd565b919050555050505050505050505050565b3373ffffffffffffffffffffffffffffffffffffffff1660008054906101000a900473ffffffffffffffffffffffffffffffffffffffff1673ffffffffffffffffffffffffffffffffffffffff1614611a1d576040517f08c379a0000000000000000000000000000000000000000000000000000000008152600401611a1490612a76565b60405180910390fd5b8060018190555050565b6040518061010001604052806000815260200160608152602001600073ffffffffffffffffffffffffffffffffffffffff16815260200160008152602001606081526020016000815260200160008152602001606081525090565b508054611a8e90612601565b6000825580601f10611aa05750611abf565b601f016020900490600052602060002090810190611abe9190611b91565b5b50565b5080546000825590600052602060002090810190611ae09190611b91565b50565b5080546000825560080290600052602060002090810190611b049190611bae565b50565b828054828255906000526020600020908101928215611b80579160200282015b82811115611b7f5782518260006101000a81548173ffffffffffffffffffffffffffffffffffffffff021916908373ffffffffffffffffffffffffffffffffffffffff16021790555091602001919060010190611b27565b5b509050611b8d9190611b91565b5090565b5b80821115611baa576000816000905550600101611b92565b5090565b5b80821115611c3857600080820160009055600182016000611bd09190611a82565b6002820160006101000a81549073ffffffffffffffffffffffffffffffffffffffff02191690556003820160009055600482016000611c0f9190611ac2565b60058201600090556006820160009055600782016000611c2f9190611ac2565b50600801611baf565b5090565b6000604051905090565b600080fd5b600080fd5b600073ffffffffffffffffffffffffffffffffffffffff82169050919050565b6000611c7b82611c50565b9050919050565b611c8b81611c70565b8114611c9657600080fd5b50565b600081359050611ca881611c82565b92915050565b6000819050919050565b611cc181611cae565b8114611ccc57600080fd5b50565b600081359050611cde81611cb8565b92915050565b60008060408385031215611cfb57611cfa611c46565b5b6000611d0985828601611c99565b9250506020611d1a85828601611ccf565b9150509250929050565b611d2d81611cae565b82525050565b600081519050919050565b600082825260208201905092915050565b60005b83811015611d6d578082015181840152602081019050611d52565b60008484015250505050565b6000601f19601f8301169050919050565b6000611d9582611d33565b611d9f8185611d3e565b9350611daf818560208601611d4f565b611db881611d79565b840191505092915050565b611dcc81611c70565b82525050565b600081519050919050565b600082825260208201905092915050565b6000819050602082019050919050565b6000611e0a8383611dc3565b60208301905092915050565b6000602082019050919050565b6000611e2e82611dd2565b611e388185611ddd565b9350611e4383611dee565b8060005b83811015611e74578151611e5b8882611dfe565b9750611e6683611e16565b925050600181019050611e47565b5085935050505092915050565b600061010083016000830151611e9a6000860182611d24565b5060208301518482036020860152611eb28282611d8a565b9150506040830151611ec76040860182611dc3565b506060830151611eda6060860182611d24565b5060808301518482036080860152611ef28282611e23565b91505060a0830151611f0760a0860182611d24565b5060c0830151611f1a60c0860182611d24565b5060e083015184820360e0860152611f328282611e23565b9150508091505092915050565b60006020820190508181036000830152611f598184611e81565b905092915050565b600081519050919050565b600082825260208201905092915050565b6000819050602082019050919050565b600061010083016000830151611fa66000860182611d24565b5060208301518482036020860152611fbe8282611d8a565b9150506040830151611fd36040860182611dc3565b506060830151611fe66060860182611d24565b5060808301518482036080860152611ffe8282611e23565b91505060a083015161201360a0860182611d24565b5060c083015161202660c0860182611d24565b5060e083015184820360e086015261203e8282611e23565b9150508091505092915050565b60006120578383611f8d565b905092915050565b6000602082019050919050565b600061207782611f61565b6120818185611f6c565b93508360208202850161209385611f7d565b8060005b858110156120cf57848403895281516120b0858261204b565b94506120bb8361205f565b925060208a01995050600181019050612097565b50829750879550505050505092915050565b600060208201905081810360008301526120fb818461206c565b905092915050565b600080fd5b600080fd5b7f4e487b7100000000000000000000000000000000000000000000000000000000600052604160045260246000fd5b61214582611d79565b810181811067ffffffffffffffff821117156121645761216361210d565b5b80604052505050565b6000612177611c3c565b9050612183828261213c565b919050565b600067ffffffffffffffff8211156121a3576121a261210d565b5b6121ac82611d79565b9050602081019050919050565b82818337600083830152505050565b60006121db6121d684612188565b61216d565b9050828152602081018484840111156121f7576121f6612108565b5b6122028482856121b9565b509392505050565b600082601f83011261221f5761221e612103565b5b813561222f8482602086016121c8565b91505092915050565b60006020828403121561224e5761224d611c46565b5b600082013567ffffffffffffffff81111561226c5761226b611c4b565b5b6122788482850161220a565b91505092915050565b60006020828403121561229757612296611c46565b5b60006122a584828501611ccf565b91505092915050565b600082825260208201905092915050565b7f54686973205477656574204e6f74204578697374202100000000000000000000600082015250565b60006122f56016836122ae565b9150612300826122bf565b602082019050919050565b60006020820190508181036000830152612324816122e8565b9050919050565b7f4e487b7100000000000000000000000000000000000000000000000000000000600052601160045260246000fd5b600061236582611cae565b915061237083611cae565b92508282039050818111156123885761238761232b565b5b92915050565b7f4e487b7100000000000000000000000000000000000000000000000000000000600052603260045260246000fd5b60006123c882611cae565b91507fffffffffffffffffffffffffffffffffffffffffffffffffffffffffffffffff82036123fa576123f961232b565b5b600182019050919050565b7f596f7520416c7265616479204c696b6564207468652074776565742100000000600082015250565b600061243b601c836122ae565b915061244682612405565b602082019050919050565b6000602082019050818103600083015261246a8161242e565b9050919050565b7f596f7520416c726561647920556e4c696b656420746865207477656574210000600082015250565b60006124a7601e836122ae565b91506124b282612471565b602082019050919050565b600060208201905081810360008301526124d68161249a565b9050919050565b7f5468697320697320596f757220547765657421596f752063616e6e2774204c6960008201527f6b6520596f757220547765657421000000000000000000000000000000000000602082015250565b6000612539602e836122ae565b9150612544826124dd565b604082019050919050565b600060208201905081810360008301526125688161252c565b9050919050565b61257881611c70565b82525050565b61258781611cae565b82525050565b60006080820190506125a2600083018761256f565b6125af602083018661256f565b6125bc604083018561257e565b6125c9606083018461257e565b95945050505050565b7f4e487b7100000000000000000000000000000000000000000000000000000000600052602260045260246000fd5b6000600282049050600182168061261957607f821691505b60208210810361262c5761262b6125d2565b5b50919050565b7f4e487b7100000000000000000000000000000000000000000000000000000000600052603160045260246000fd5b7f5477656574204c656e6774682069732045786365656421000000000000000000600082015250565b60006126976017836122ae565b91506126a282612661565b602082019050919050565b600060208201905081810360008301526126c68161268a565b9050919050565b60006126d882611cae565b91506126e383611cae565b92508282019050808211156126fb576126fa61232b565b5b92915050565b60008190508160005260206000209050919050565b60006020601f8301049050919050565b600082821b905092915050565b6000600883026127637fffffffffffffffffffffffffffffffffffffffffffffffffffffffffffffffff82612726565b61276d8683612726565b95508019841693508086168417925050509392505050565b6000819050919050565b60006127aa6127a56127a084611cae565b612785565b611cae565b9050919050565b6000819050919050565b6127c48361278f565b6127d86127d0826127b1565b848454612733565b825550505050565b600090565b6127ed6127e0565b6127f88184846127bb565b505050565b5b8181101561281c576128116000826127e5565b6001810190506127fe565b5050565b601f8211156128615761283281612701565b61283b84612716565b8101602085101561284a578190505b61285e61285685612716565b8301826127fd565b50505b505050565b600082821c905092915050565b600061288460001984600802612866565b1980831691505092915050565b600061289d8383612873565b9150826002028217905092915050565b6128b682611d33565b67ffffffffffffffff8111156128cf576128ce61210d565b5b6128d98254612601565b6128e4828285612820565b600060209050601f8311600181146129175760008415612905578287015190505b61290f8582612891565b865550612977565b601f19841661292586612701565b60005b8281101561294d57848901518255600182019150602085019450602081019050612928565b8683101561296a5784890151612966601f891682612873565b8355505b6001600288020188555050505b505050505050565b600061298a82611d33565b61299481856122ae565b93506129a4818560208601611d4f565b6129ad81611d79565b840191505092915050565b60006080820190506129cd600083018761257e565b6129da602083018661256f565b81810360408301526129ec818561297f565b90506129fb606083018461257e565b95945050505050565b7f596f7520617265206e6f742061204f776e6572215065726d697373696f6e204460008201527f656e696564210000000000000000000000000000000000000000000000000000602082015250565b6000612a606026836122ae565b9150612a6b82612a04565b604082019050919050565b60006020820190508181036000830152612a8f81612a53565b905091905056fea2646970667358221220657d5ca74d9206f7da49d7efb3c7471dcc5b319736173ddaad4e750505395bc864736f6c63430008120033",
					"opcodes": "PUSH1 0x80 PUSH1 0x40 MSTORE PUSH1 0xA PUSH1 0x1 SSTORE CALLVALUE DUP1 ISZERO PUSH2 0x15 JUMPI PUSH1 0x0 DUP1 REVERT JUMPDEST POP CALLER PUSH1 0x0 DUP1 PUSH2 0x100 EXP DUP2 SLOAD DUP2 PUSH20 0xFFFFFFFFFFFFFFFFFFFFFFFFFFFFFFFFFFFFFFFF MUL NOT AND SWAP1 DUP4 PUSH20 0xFFFFFFFFFFFFFFFFFFFFFFFFFFFFFFFFFFFFFFFF AND MUL OR SWAP1 SSTORE POP PUSH2 0x2ACC DUP1 PUSH2 0x65 PUSH1 0x0 CODECOPY PUSH1 0x0 RETURN INVALID PUSH1 0x80 PUSH1 0x40 MSTORE CALLVALUE DUP1 ISZERO PUSH2 0x10 JUMPI PUSH1 0x0 DUP1 REVERT JUMPDEST POP PUSH1 0x4 CALLDATASIZE LT PUSH2 0x88 JUMPI PUSH1 0x0 CALLDATALOAD PUSH1 0xE0 SHR DUP1 PUSH4 0x765FAB45 GT PUSH2 0x5B JUMPI DUP1 PUSH4 0x765FAB45 EQ PUSH2 0x101 JUMPI DUP1 PUSH4 0x7C9CD2BC EQ PUSH2 0x10B JUMPI DUP1 PUSH4 0xA110E72D EQ PUSH2 0x127 JUMPI DUP1 PUSH4 0xE479C244 EQ PUSH2 0x143 JUMPI PUSH2 0x88 JUMP JUMPDEST DUP1 PUSH4 0x1216CDC5 EQ PUSH2 0x8D JUMPI DUP1 PUSH4 0x37F36A4C EQ PUSH2 0xA9 JUMPI DUP1 PUSH4 0x42D7FBC0 EQ PUSH2 0xD9 JUMPI DUP1 PUSH4 0x71E7EB12 EQ PUSH2 0xF7 JUMPI JUMPDEST PUSH1 0x0 DUP1 REVERT JUMPDEST PUSH2 0xA7 PUSH1 0x4 DUP1 CALLDATASIZE SUB DUP2 ADD SWAP1 PUSH2 0xA2 SWAP2 SWAP1 PUSH2 0x1CE4 JUMP JUMPDEST PUSH2 0x15F JUMP JUMPDEST STOP JUMPDEST PUSH2 0xC3 PUSH1 0x4 DUP1 CALLDATASIZE SUB DUP2 ADD SWAP1 PUSH2 0xBE SWAP2 SWAP1 PUSH2 0x1CE4 JUMP JUMPDEST PUSH2 0x8D7 JUMP JUMPDEST PUSH1 0x40 MLOAD PUSH2 0xD0 SWAP2 SWAP1 PUSH2 0x1F3F JUMP JUMPDEST PUSH1 0x40 MLOAD DUP1 SWAP2 SUB SWAP1 RETURN JUMPDEST PUSH2 0xE1 PUSH2 0xB8A JUMP JUMPDEST PUSH1 0x40 MLOAD PUSH2 0xEE SWAP2 SWAP1 PUSH2 0x20E1 JUMP JUMPDEST PUSH1 0x40 MLOAD DUP1 SWAP2 SUB SWAP1 RETURN JUMPDEST PUSH2 0xFF PUSH2 0xE53 JUMP JUMPDEST STOP JUMPDEST PUSH2 0x109 PUSH2 0xF34 JUMP JUMPDEST STOP JUMPDEST PUSH2 0x125 PUSH1 0x4 DUP1 CALLDATASIZE SUB DUP2 ADD SWAP1 PUSH2 0x120 SWAP2 SWAP1 PUSH2 0x2238 JUMP JUMPDEST PUSH2 0xF81 JUMP JUMPDEST STOP JUMPDEST PUSH2 0x141 PUSH1 0x4 DUP1 CALLDATASIZE SUB DUP2 ADD SWAP1 PUSH2 0x13C SWAP2 SWAP1 PUSH2 0x1CE4 JUMP JUMPDEST PUSH2 0x1330 JUMP JUMPDEST STOP JUMPDEST PUSH2 0x15D PUSH1 0x4 DUP1 CALLDATASIZE SUB DUP2 ADD SWAP1 PUSH2 0x158 SWAP2 SWAP1 PUSH2 0x2281 JUMP JUMPDEST PUSH2 0x198F JUMP JUMPDEST STOP JUMPDEST DUP2 DUP2 DUP1 PUSH1 0x3 PUSH1 0x0 DUP5 PUSH20 0xFFFFFFFFFFFFFFFFFFFFFFFFFFFFFFFFFFFFFFFF AND PUSH20 0xFFFFFFFFFFFFFFFFFFFFFFFFFFFFFFFFFFFFFFFF AND DUP2 MSTORE PUSH1 0x20 ADD SWAP1 DUP2 MSTORE PUSH1 0x20 ADD PUSH1 0x0 KECCAK256 DUP1 SLOAD SWAP1 POP LT ISZERO PUSH2 0x1E6 JUMPI PUSH1 0x40 MLOAD PUSH32 0x8C379A000000000000000000000000000000000000000000000000000000000 DUP2 MSTORE PUSH1 0x4 ADD PUSH2 0x1DD SWAP1 PUSH2 0x230B JUMP JUMPDEST PUSH1 0x40 MLOAD DUP1 SWAP2 SUB SWAP1 REVERT JUMPDEST PUSH1 0x0 PUSH1 0x1 SWAP1 POP PUSH1 0x0 JUMPDEST PUSH1 0x3 PUSH1 0x0 DUP6 PUSH20 0xFFFFFFFFFFFFFFFFFFFFFFFFFFFFFFFFFFFFFFFF AND PUSH20 0xFFFFFFFFFFFFFFFFFFFFFFFFFFFFFFFFFFFFFFFF AND DUP2 MSTORE PUSH1 0x20 ADD SWAP1 DUP2 MSTORE PUSH1 0x20 ADD PUSH1 0x0 KECCAK256 PUSH1 0x1 DUP5 PUSH2 0x23B SWAP2 SWAP1 PUSH2 0x235A JUMP JUMPDEST DUP2 SLOAD DUP2 LT PUSH2 0x24C JUMPI PUSH2 0x24B PUSH2 0x238E JUMP JUMPDEST JUMPDEST SWAP1 PUSH1 0x0 MSTORE PUSH1 0x20 PUSH1 0x0 KECCAK256 SWAP1 PUSH1 0x8 MUL ADD PUSH1 0x4 ADD DUP1 SLOAD SWAP1 POP DUP2 LT ISZERO PUSH2 0x361 JUMPI CALLER PUSH20 0xFFFFFFFFFFFFFFFFFFFFFFFFFFFFFFFFFFFFFFFF AND PUSH1 0x3 PUSH1 0x0 DUP7 PUSH20 0xFFFFFFFFFFFFFFFFFFFFFFFFFFFFFFFFFFFFFFFF AND PUSH20 0xFFFFFFFFFFFFFFFFFFFFFFFFFFFFFFFFFFFFFFFF AND DUP2 MSTORE PUSH1 0x20 ADD SWAP1 DUP2 MSTORE PUSH1 0x20 ADD PUSH1 0x0 KECCAK256 PUSH1 0x1 DUP6 PUSH2 0x2CB SWAP2 SWAP1 PUSH2 0x235A JUMP JUMPDEST DUP2 SLOAD DUP2 LT PUSH2 0x2DC JUMPI PUSH2 0x2DB PUSH2 0x238E JUMP JUMPDEST JUMPDEST SWAP1 PUSH1 0x0 MSTORE PUSH1 0x20 PUSH1 0x0 KECCAK256 SWAP1 PUSH1 0x8 MUL ADD PUSH1 0x4 ADD DUP3 DUP2 SLOAD DUP2 LT PUSH2 0x2FF JUMPI PUSH2 0x2FE PUSH2 0x238E JUMP JUMPDEST JUMPDEST SWAP1 PUSH1 0x0 MSTORE PUSH1 0x20 PUSH1 0x0 KECCAK256 ADD PUSH1 0x0 SWAP1 SLOAD SWAP1 PUSH2 0x100 EXP SWAP1 DIV PUSH20 0xFFFFFFFFFFFFFFFFFFFFFFFFFFFFFFFFFFFFFFFF AND PUSH20 0xFFFFFFFFFFFFFFFFFFFFFFFFFFFFFFFFFFFFFFFF AND SUB PUSH2 0x34E JUMPI PUSH1 0x0 SWAP2 POP PUSH2 0x361 JUMP JUMPDEST DUP1 DUP1 PUSH2 0x359 SWAP1 PUSH2 0x23BD JUMP JUMPDEST SWAP2 POP POP PUSH2 0x1EF JUMP JUMPDEST PUSH1 0x1 ISZERO ISZERO DUP3 ISZERO ISZERO EQ PUSH2 0x3A8 JUMPI PUSH1 0x40 MLOAD PUSH32 0x8C379A000000000000000000000000000000000000000000000000000000000 DUP2 MSTORE PUSH1 0x4 ADD PUSH2 0x39F SWAP1 PUSH2 0x2451 JUMP JUMPDEST PUSH1 0x40 MLOAD DUP1 SWAP2 SUB SWAP1 REVERT JUMPDEST DUP6 DUP6 DUP1 PUSH1 0x3 PUSH1 0x0 DUP5 PUSH20 0xFFFFFFFFFFFFFFFFFFFFFFFFFFFFFFFFFFFFFFFF AND PUSH20 0xFFFFFFFFFFFFFFFFFFFFFFFFFFFFFFFFFFFFFFFF AND DUP2 MSTORE PUSH1 0x20 ADD SWAP1 DUP2 MSTORE PUSH1 0x20 ADD PUSH1 0x0 KECCAK256 DUP1 SLOAD SWAP1 POP LT ISZERO PUSH2 0x42F JUMPI PUSH1 0x40 MLOAD PUSH32 0x8C379A000000000000000000000000000000000000000000000000000000000 DUP2 MSTORE PUSH1 0x4 ADD PUSH2 0x426 SWAP1 PUSH2 0x230B JUMP JUMPDEST PUSH1 0x40 MLOAD DUP1 SWAP2 SUB SWAP1 REVERT JUMPDEST PUSH1 0x0 PUSH1 0x1 SWAP1 POP PUSH1 0x0 JUMPDEST PUSH1 0x3 PUSH1 0x0 DUP6 PUSH20 0xFFFFFFFFFFFFFFFFFFFFFFFFFFFFFFFFFFFFFFFF AND PUSH20 0xFFFFFFFFFFFFFFFFFFFFFFFFFFFFFFFFFFFFFFFF AND DUP2 MSTORE PUSH1 0x20 ADD SWAP1 DUP2 MSTORE PUSH1 0x20 ADD PUSH1 0x0 KECCAK256 PUSH1 0x1 DUP5 PUSH2 0x484 SWAP2 SWAP1 PUSH2 0x235A JUMP JUMPDEST DUP2 SLOAD DUP2 LT PUSH2 0x495 JUMPI PUSH2 0x494 PUSH2 0x238E JUMP JUMPDEST JUMPDEST SWAP1 PUSH1 0x0 MSTORE PUSH1 0x20 PUSH1 0x0 KECCAK256 SWAP1 PUSH1 0x8 MUL ADD PUSH1 0x4 ADD DUP1 SLOAD SWAP1 POP DUP2 LT ISZERO PUSH2 0x5AA JUMPI CALLER PUSH20 0xFFFFFFFFFFFFFFFFFFFFFFFFFFFFFFFFFFFFFFFF AND PUSH1 0x3 PUSH1 0x0 DUP7 PUSH20 0xFFFFFFFFFFFFFFFFFFFFFFFFFFFFFFFFFFFFFFFF AND PUSH20 0xFFFFFFFFFFFFFFFFFFFFFFFFFFFFFFFFFFFFFFFF AND DUP2 MSTORE PUSH1 0x20 ADD SWAP1 DUP2 MSTORE PUSH1 0x20 ADD PUSH1 0x0 KECCAK256 PUSH1 0x1 DUP6 PUSH2 0x514 SWAP2 SWAP1 PUSH2 0x235A JUMP JUMPDEST DUP2 SLOAD DUP2 LT PUSH2 0x525 JUMPI PUSH2 0x524 PUSH2 0x238E JUMP JUMPDEST JUMPDEST SWAP1 PUSH1 0x0 MSTORE PUSH1 0x20 PUSH1 0x0 KECCAK256 SWAP1 PUSH1 0x8 MUL ADD PUSH1 0x7 ADD DUP3 DUP2 SLOAD DUP2 LT PUSH2 0x548 JUMPI PUSH2 0x547 PUSH2 0x238E JUMP JUMPDEST JUMPDEST SWAP1 PUSH1 0x0 MSTORE PUSH1 0x20 PUSH1 0x0 KECCAK256 ADD PUSH1 0x0 SWAP1 SLOAD SWAP1 PUSH2 0x100 EXP SWAP1 DIV PUSH20 0xFFFFFFFFFFFFFFFFFFFFFFFFFFFFFFFFFFFFFFFF AND PUSH20 0xFFFFFFFFFFFFFFFFFFFFFFFFFFFFFFFFFFFFFFFF AND SUB PUSH2 0x597 JUMPI PUSH1 0x0 SWAP2 POP PUSH2 0x5AA JUMP JUMPDEST DUP1 DUP1 PUSH2 0x5A2 SWAP1 PUSH2 0x23BD JUMP JUMPDEST SWAP2 POP POP PUSH2 0x438 JUMP JUMPDEST PUSH1 0x1 ISZERO ISZERO DUP3 ISZERO ISZERO EQ PUSH2 0x5F1 JUMPI PUSH1 0x40 MLOAD PUSH32 0x8C379A000000000000000000000000000000000000000000000000000000000 DUP2 MSTORE PUSH1 0x4 ADD PUSH2 0x5E8 SWAP1 PUSH2 0x24BD JUMP JUMPDEST PUSH1 0x40 MLOAD DUP1 SWAP2 SUB SWAP1 REVERT JUMPDEST CALLER PUSH20 0xFFFFFFFFFFFFFFFFFFFFFFFFFFFFFFFFFFFFFFFF AND DUP11 PUSH20 0xFFFFFFFFFFFFFFFFFFFFFFFFFFFFFFFFFFFFFFFF AND SUB PUSH2 0x65F JUMPI PUSH1 0x40 MLOAD PUSH32 0x8C379A000000000000000000000000000000000000000000000000000000000 DUP2 MSTORE PUSH1 0x4 ADD PUSH2 0x656 SWAP1 PUSH2 0x254F JUMP JUMPDEST PUSH1 0x40 MLOAD DUP1 SWAP2 SUB SWAP1 REVERT JUMPDEST PUSH1 0x3 PUSH1 0x0 DUP12 PUSH20 0xFFFFFFFFFFFFFFFFFFFFFFFFFFFFFFFFFFFFFFFF AND PUSH20 0xFFFFFFFFFFFFFFFFFFFFFFFFFFFFFFFFFFFFFFFF AND DUP2 MSTORE PUSH1 0x20 ADD SWAP1 DUP2 MSTORE PUSH1 0x20 ADD PUSH1 0x0 KECCAK256 PUSH1 0x1 DUP11 PUSH2 0x6AB SWAP2 SWAP1 PUSH2 0x235A JUMP JUMPDEST DUP2 SLOAD DUP2 LT PUSH2 0x6BC JUMPI PUSH2 0x6BB PUSH2 0x238E JUMP JUMPDEST JUMPDEST SWAP1 PUSH1 0x0 MSTORE PUSH1 0x20 PUSH1 0x0 KECCAK256 SWAP1 PUSH1 0x8 MUL ADD PUSH1 0x4 ADD CALLER SWAP1 DUP1 PUSH1 0x1 DUP2 SLOAD ADD DUP1 DUP3 SSTORE DUP1 SWAP2 POP POP PUSH1 0x1 SWAP1 SUB SWAP1 PUSH1 0x0 MSTORE PUSH1 0x20 PUSH1 0x0 KECCAK256 ADD PUSH1 0x0 SWAP1 SWAP2 SWAP1 SWAP2 SWAP1 SWAP2 PUSH2 0x100 EXP DUP2 SLOAD DUP2 PUSH20 0xFFFFFFFFFFFFFFFFFFFFFFFFFFFFFFFFFFFFFFFF MUL NOT AND SWAP1 DUP4 PUSH20 0xFFFFFFFFFFFFFFFFFFFFFFFFFFFFFFFFFFFFFFFF AND MUL OR SWAP1 SSTORE POP PUSH1 0x3 PUSH1 0x0 DUP12 PUSH20 0xFFFFFFFFFFFFFFFFFFFFFFFFFFFFFFFFFFFFFFFF AND PUSH20 0xFFFFFFFFFFFFFFFFFFFFFFFFFFFFFFFFFFFFFFFF AND DUP2 MSTORE PUSH1 0x20 ADD SWAP1 DUP2 MSTORE PUSH1 0x20 ADD PUSH1 0x0 KECCAK256 PUSH1 0x1 DUP11 PUSH2 0x77A SWAP2 SWAP1 PUSH2 0x235A JUMP JUMPDEST DUP2 SLOAD DUP2 LT PUSH2 0x78B JUMPI PUSH2 0x78A PUSH2 0x238E JUMP JUMPDEST JUMPDEST SWAP1 PUSH1 0x0 MSTORE PUSH1 0x20 PUSH1 0x0 KECCAK256 SWAP1 PUSH1 0x8 MUL ADD PUSH1 0x5 ADD PUSH1 0x0 DUP2 SLOAD DUP1 SWAP3 SWAP2 SWAP1 PUSH2 0x7AD SWAP1 PUSH2 0x23BD JUMP JUMPDEST SWAP2 SWAP1 POP SSTORE POP PUSH32 0xE8A76FC0F16D11A00D1E93B689B63D76CF60AF914DD3D915375DC41D01A0C3C8 CALLER DUP12 PUSH1 0x3 PUSH1 0x0 DUP15 PUSH20 0xFFFFFFFFFFFFFFFFFFFFFFFFFFFFFFFFFFFFFFFF AND PUSH20 0xFFFFFFFFFFFFFFFFFFFFFFFFFFFFFFFFFFFFFFFF AND DUP2 MSTORE PUSH1 0x20 ADD SWAP1 DUP2 MSTORE PUSH1 0x20 ADD PUSH1 0x0 KECCAK256 PUSH1 0x1 DUP14 PUSH2 0x821 SWAP2 SWAP1 PUSH2 0x235A JUMP JUMPDEST DUP2 SLOAD DUP2 LT PUSH2 0x832 JUMPI PUSH2 0x831 PUSH2 0x238E JUMP JUMPDEST JUMPDEST SWAP1 PUSH1 0x0 MSTORE PUSH1 0x20 PUSH1 0x0 KECCAK256 SWAP1 PUSH1 0x8 MUL ADD PUSH1 0x5 ADD SLOAD PUSH1 0x3 PUSH1 0x0 DUP16 PUSH20 0xFFFFFFFFFFFFFFFFFFFFFFFFFFFFFFFFFFFFFFFF AND PUSH20 0xFFFFFFFFFFFFFFFFFFFFFFFFFFFFFFFFFFFFFFFF AND DUP2 MSTORE PUSH1 0x20 ADD SWAP1 DUP2 MSTORE PUSH1 0x20 ADD PUSH1 0x0 KECCAK256 PUSH1 0x1 DUP15 PUSH2 0x890 SWAP2 SWAP1 PUSH2 0x235A JUMP JUMPDEST DUP2 SLOAD DUP2 LT PUSH2 0x8A1 JUMPI PUSH2 0x8A0 PUSH2 0x238E JUMP JUMPDEST JUMPDEST SWAP1 PUSH1 0x0 MSTORE PUSH1 0x20 PUSH1 0x0 KECCAK256 SWAP1 PUSH1 0x8 MUL ADD PUSH1 0x0 ADD SLOAD PUSH1 0x40 MLOAD PUSH2 0x8C3 SWAP5 SWAP4 SWAP3 SWAP2 SWAP1 PUSH2 0x258D JUMP JUMPDEST PUSH1 0x40 MLOAD DUP1 SWAP2 SUB SWAP1 LOG1 POP POP POP POP POP POP POP POP POP POP JUMP JUMPDEST PUSH2 0x8DF PUSH2 0x1A27 JUMP JUMPDEST PUSH1 0x3 PUSH1 0x0 DUP5 PUSH20 0xFFFFFFFFFFFFFFFFFFFFFFFFFFFFFFFFFFFFFFFF AND PUSH20 0xFFFFFFFFFFFFFFFFFFFFFFFFFFFFFFFFFFFFFFFF AND DUP2 MSTORE PUSH1 0x20 ADD SWAP1 DUP2 MSTORE PUSH1 0x20 ADD PUSH1 0x0 KECCAK256 PUSH1 0x1 DUP4 PUSH2 0x92B SWAP2 SWAP1 PUSH2 0x235A JUMP JUMPDEST DUP2 SLOAD DUP2 LT PUSH2 0x93C JUMPI PUSH2 0x93B PUSH2 0x238E JUMP JUMPDEST JUMPDEST SWAP1 PUSH1 0x0 MSTORE PUSH1 0x20 PUSH1 0x0 KECCAK256 SWAP1 PUSH1 0x8 MUL ADD PUSH1 0x40 MLOAD DUP1 PUSH2 0x100 ADD PUSH1 0x40 MSTORE SWAP1 DUP2 PUSH1 0x0 DUP3 ADD SLOAD DUP2 MSTORE PUSH1 0x20 ADD PUSH1 0x1 DUP3 ADD DUP1 SLOAD PUSH2 0x970 SWAP1 PUSH2 0x2601 JUMP JUMPDEST DUP1 PUSH1 0x1F ADD PUSH1 0x20 DUP1 SWAP2 DIV MUL PUSH1 0x20 ADD PUSH1 0x40 MLOAD SWAP1 DUP2 ADD PUSH1 0x40 MSTORE DUP1 SWAP3 SWAP2 SWAP1 DUP2 DUP2 MSTORE PUSH1 0x20 ADD DUP3 DUP1 SLOAD PUSH2 0x99C SWAP1 PUSH2 0x2601 JUMP JUMPDEST DUP1 ISZERO PUSH2 0x9E9 JUMPI DUP1 PUSH1 0x1F LT PUSH2 0x9BE JUMPI PUSH2 0x100 DUP1 DUP4 SLOAD DIV MUL DUP4 MSTORE SWAP2 PUSH1 0x20 ADD SWAP2 PUSH2 0x9E9 JUMP JUMPDEST DUP3 ADD SWAP2 SWAP1 PUSH1 0x0 MSTORE PUSH1 0x20 PUSH1 0x0 KECCAK256 SWAP1 JUMPDEST DUP2 SLOAD DUP2 MSTORE SWAP1 PUSH1 0x1 ADD SWAP1 PUSH1 0x20 ADD DUP1 DUP4 GT PUSH2 0x9CC JUMPI DUP3 SWAP1 SUB PUSH1 0x1F AND DUP3 ADD SWAP2 JUMPDEST POP POP POP POP POP DUP2 MSTORE PUSH1 0x20 ADD PUSH1 0x2 DUP3 ADD PUSH1 0x0 SWAP1 SLOAD SWAP1 PUSH2 0x100 EXP SWAP1 DIV PUSH20 0xFFFFFFFFFFFFFFFFFFFFFFFFFFFFFFFFFFFFFFFF AND PUSH20 0xFFFFFFFFFFFFFFFFFFFFFFFFFFFFFFFFFFFFFFFF AND PUSH20 0xFFFFFFFFFFFFFFFFFFFFFFFFFFFFFFFFFFFFFFFF AND DUP2 MSTORE PUSH1 0x20 ADD PUSH1 0x3 DUP3 ADD SLOAD DUP2 MSTORE PUSH1 0x20 ADD PUSH1 0x4 DUP3 ADD DUP1 SLOAD DUP1 PUSH1 0x20 MUL PUSH1 0x20 ADD PUSH1 0x40 MLOAD SWAP1 DUP2 ADD PUSH1 0x40 MSTORE DUP1 SWAP3 SWAP2 SWAP1 DUP2 DUP2 MSTORE PUSH1 0x20 ADD DUP3 DUP1 SLOAD DUP1 ISZERO PUSH2 0xAD7 JUMPI PUSH1 0x20 MUL DUP3 ADD SWAP2 SWAP1 PUSH1 0x0 MSTORE PUSH1 0x20 PUSH1 0x0 KECCAK256 SWAP1 JUMPDEST DUP2 PUSH1 0x0 SWAP1 SLOAD SWAP1 PUSH2 0x100 EXP SWAP1 DIV PUSH20 0xFFFFFFFFFFFFFFFFFFFFFFFFFFFFFFFFFFFFFFFF AND PUSH20 0xFFFFFFFFFFFFFFFFFFFFFFFFFFFFFFFFFFFFFFFF AND DUP2 MSTORE PUSH1 0x20 ADD SWAP1 PUSH1 0x1 ADD SWAP1 DUP1 DUP4 GT PUSH2 0xA8D JUMPI JUMPDEST POP POP POP POP POP DUP2 MSTORE PUSH1 0x20 ADD PUSH1 0x5 DUP3 ADD SLOAD DUP2 MSTORE PUSH1 0x20 ADD PUSH1 0x6 DUP3 ADD SLOAD DUP2 MSTORE PUSH1 0x20 ADD PUSH1 0x7 DUP3 ADD DUP1 SLOAD DUP1 PUSH1 0x20 MUL PUSH1 0x20 ADD PUSH1 0x40 MLOAD SWAP1 DUP2 ADD PUSH1 0x40 MSTORE DUP1 SWAP3 SWAP2 SWAP1 DUP2 DUP2 MSTORE PUSH1 0x20 ADD DUP3 DUP1 SLOAD DUP1 ISZERO PUSH2 0xB79 JUMPI PUSH1 0x20 MUL DUP3 ADD SWAP2 SWAP1 PUSH1 0x0 MSTORE PUSH1 0x20 PUSH1 0x0 KECCAK256 SWAP1 JUMPDEST DUP2 PUSH1 0x0 SWAP1 SLOAD SWAP1 PUSH2 0x100 EXP SWAP1 DIV PUSH20 0xFFFFFFFFFFFFFFFFFFFFFFFFFFFFFFFFFFFFFFFF AND PUSH20 0xFFFFFFFFFFFFFFFFFFFFFFFFFFFFFFFFFFFFFFFF AND DUP2 MSTORE PUSH1 0x20 ADD SWAP1 PUSH1 0x1 ADD SWAP1 DUP1 DUP4 GT PUSH2 0xB2F JUMPI JUMPDEST POP POP POP POP POP DUP2 MSTORE POP POP SWAP1 POP SWAP3 SWAP2 POP POP JUMP JUMPDEST PUSH1 0x60 PUSH1 0x3 PUSH1 0x0 CALLER PUSH20 0xFFFFFFFFFFFFFFFFFFFFFFFFFFFFFFFFFFFFFFFF AND PUSH20 0xFFFFFFFFFFFFFFFFFFFFFFFFFFFFFFFFFFFFFFFF AND DUP2 MSTORE PUSH1 0x20 ADD SWAP1 DUP2 MSTORE PUSH1 0x20 ADD PUSH1 0x0 KECCAK256 DUP1 SLOAD DUP1 PUSH1 0x20 MUL PUSH1 0x20 ADD PUSH1 0x40 MLOAD SWAP1 DUP2 ADD PUSH1 0x40 MSTORE DUP1 SWAP3 SWAP2 SWAP1 DUP2 DUP2 MSTORE PUSH1 0x20 ADD PUSH1 0x0 SWAP1 JUMPDEST DUP3 DUP3 LT ISZERO PUSH2 0xE4A JUMPI DUP4 DUP3 SWAP1 PUSH1 0x0 MSTORE PUSH1 0x20 PUSH1 0x0 KECCAK256 SWAP1 PUSH1 0x8 MUL ADD PUSH1 0x40 MLOAD DUP1 PUSH2 0x100 ADD PUSH1 0x40 MSTORE SWAP1 DUP2 PUSH1 0x0 DUP3 ADD SLOAD DUP2 MSTORE PUSH1 0x20 ADD PUSH1 0x1 DUP3 ADD DUP1 SLOAD PUSH2 0xC29 SWAP1 PUSH2 0x2601 JUMP JUMPDEST DUP1 PUSH1 0x1F ADD PUSH1 0x20 DUP1 SWAP2 DIV MUL PUSH1 0x20 ADD PUSH1 0x40 MLOAD SWAP1 DUP2 ADD PUSH1 0x40 MSTORE DUP1 SWAP3 SWAP2 SWAP1 DUP2 DUP2 MSTORE PUSH1 0x20 ADD DUP3 DUP1 SLOAD PUSH2 0xC55 SWAP1 PUSH2 0x2601 JUMP JUMPDEST DUP1 ISZERO PUSH2 0xCA2 JUMPI DUP1 PUSH1 0x1F LT PUSH2 0xC77 JUMPI PUSH2 0x100 DUP1 DUP4 SLOAD DIV MUL DUP4 MSTORE SWAP2 PUSH1 0x20 ADD SWAP2 PUSH2 0xCA2 JUMP JUMPDEST DUP3 ADD SWAP2 SWAP1 PUSH1 0x0 MSTORE PUSH1 0x20 PUSH1 0x0 KECCAK256 SWAP1 JUMPDEST DUP2 SLOAD DUP2 MSTORE SWAP1 PUSH1 0x1 ADD SWAP1 PUSH1 0x20 ADD DUP1 DUP4 GT PUSH2 0xC85 JUMPI DUP3 SWAP1 SUB PUSH1 0x1F AND DUP3 ADD SWAP2 JUMPDEST POP POP POP POP POP DUP2 MSTORE PUSH1 0x20 ADD PUSH1 0x2 DUP3 ADD PUSH1 0x0 SWAP1 SLOAD SWAP1 PUSH2 0x100 EXP SWAP1 DIV PUSH20 0xFFFFFFFFFFFFFFFFFFFFFFFFFFFFFFFFFFFFFFFF AND PUSH20 0xFFFFFFFFFFFFFFFFFFFFFFFFFFFFFFFFFFFFFFFF AND PUSH20 0xFFFFFFFFFFFFFFFFFFFFFFFFFFFFFFFFFFFFFFFF AND DUP2 MSTORE PUSH1 0x20 ADD PUSH1 0x3 DUP3 ADD SLOAD DUP2 MSTORE PUSH1 0x20 ADD PUSH1 0x4 DUP3 ADD DUP1 SLOAD DUP1 PUSH1 0x20 MUL PUSH1 0x20 ADD PUSH1 0x40 MLOAD SWAP1 DUP2 ADD PUSH1 0x40 MSTORE DUP1 SWAP3 SWAP2 SWAP1 DUP2 DUP2 MSTORE PUSH1 0x20 ADD DUP3 DUP1 SLOAD DUP1 ISZERO PUSH2 0xD90 JUMPI PUSH1 0x20 MUL DUP3 ADD SWAP2 SWAP1 PUSH1 0x0 MSTORE PUSH1 0x20 PUSH1 0x0 KECCAK256 SWAP1 JUMPDEST DUP2 PUSH1 0x0 SWAP1 SLOAD SWAP1 PUSH2 0x100 EXP SWAP1 DIV PUSH20 0xFFFFFFFFFFFFFFFFFFFFFFFFFFFFFFFFFFFFFFFF AND PUSH20 0xFFFFFFFFFFFFFFFFFFFFFFFFFFFFFFFFFFFFFFFF AND DUP2 MSTORE PUSH1 0x20 ADD SWAP1 PUSH1 0x1 ADD SWAP1 DUP1 DUP4 GT PUSH2 0xD46 JUMPI JUMPDEST POP POP POP POP POP DUP2 MSTORE PUSH1 0x20 ADD PUSH1 0x5 DUP3 ADD SLOAD DUP2 MSTORE PUSH1 0x20 ADD PUSH1 0x6 DUP3 ADD SLOAD DUP2 MSTORE PUSH1 0x20 ADD PUSH1 0x7 DUP3 ADD DUP1 SLOAD DUP1 PUSH1 0x20 MUL PUSH1 0x20 ADD PUSH1 0x40 MLOAD SWAP1 DUP2 ADD PUSH1 0x40 MSTORE DUP1 SWAP3 SWAP2 SWAP1 DUP2 DUP2 MSTORE PUSH1 0x20 ADD DUP3 DUP1 SLOAD DUP1 ISZERO PUSH2 0xE32 JUMPI PUSH1 0x20 MUL DUP3 ADD SWAP2 SWAP1 PUSH1 0x0 MSTORE PUSH1 0x20 PUSH1 0x0 KECCAK256 SWAP1 JUMPDEST DUP2 PUSH1 0x0 SWAP1 SLOAD SWAP1 PUSH2 0x100 EXP SWAP1 DIV PUSH20 0xFFFFFFFFFFFFFFFFFFFFFFFFFFFFFFFFFFFFFFFF AND PUSH20 0xFFFFFFFFFFFFFFFFFFFFFFFFFFFFFFFFFFFFFFFF AND DUP2 MSTORE PUSH1 0x20 ADD SWAP1 PUSH1 0x1 ADD SWAP1 DUP1 DUP4 GT PUSH2 0xDE8 JUMPI JUMPDEST POP POP POP POP POP DUP2 MSTORE POP POP DUP2 MSTORE PUSH1 0x20 ADD SWAP1 PUSH1 0x1 ADD SWAP1 PUSH2 0xBEB JUMP JUMPDEST POP POP POP POP SWAP1 POP SWAP1 JUMP JUMPDEST PUSH1 0x3 PUSH1 0x0 CALLER PUSH20 0xFFFFFFFFFFFFFFFFFFFFFFFFFFFFFFFFFFFFFFFF AND PUSH20 0xFFFFFFFFFFFFFFFFFFFFFFFFFFFFFFFFFFFFFFFF AND DUP2 MSTORE PUSH1 0x20 ADD SWAP1 DUP2 MSTORE PUSH1 0x20 ADD PUSH1 0x0 KECCAK256 DUP1 SLOAD DUP1 PUSH2 0xEA2 JUMPI PUSH2 0xEA1 PUSH2 0x2632 JUMP JUMPDEST JUMPDEST PUSH1 0x1 SWAP1 SUB DUP2 DUP2 SWAP1 PUSH1 0x0 MSTORE PUSH1 0x20 PUSH1 0x0 KECCAK256 SWAP1 PUSH1 0x8 MUL ADD PUSH1 0x0 DUP1 DUP3 ADD PUSH1 0x0 SWAP1 SSTORE PUSH1 0x1 DUP3 ADD PUSH1 0x0 PUSH2 0xECF SWAP2 SWAP1 PUSH2 0x1A82 JUMP JUMPDEST PUSH1 0x2 DUP3 ADD PUSH1 0x0 PUSH2 0x100 EXP DUP2 SLOAD SWAP1 PUSH20 0xFFFFFFFFFFFFFFFFFFFFFFFFFFFFFFFFFFFFFFFF MUL NOT AND SWAP1 SSTORE PUSH1 0x3 DUP3 ADD PUSH1 0x0 SWAP1 SSTORE PUSH1 0x4 DUP3 ADD PUSH1 0x0 PUSH2 0xF0E SWAP2 SWAP1 PUSH2 0x1AC2 JUMP JUMPDEST PUSH1 0x5 DUP3 ADD PUSH1 0x0 SWAP1 SSTORE PUSH1 0x6 DUP3 ADD PUSH1 0x0 SWAP1 SSTORE PUSH1 0x7 DUP3 ADD PUSH1 0x0 PUSH2 0xF2E SWAP2 SWAP1 PUSH2 0x1AC2 JUMP JUMPDEST POP POP SWAP1 SSTORE JUMP JUMPDEST PUSH1 0x3 PUSH1 0x0 CALLER PUSH20 0xFFFFFFFFFFFFFFFFFFFFFFFFFFFFFFFFFFFFFFFF AND PUSH20 0xFFFFFFFFFFFFFFFFFFFFFFFFFFFFFFFFFFFFFFFF AND DUP2 MSTORE PUSH1 0x20 ADD SWAP1 DUP2 MSTORE PUSH1 0x20 ADD PUSH1 0x0 KECCAK256 PUSH1 0x0 PUSH2 0xF7F SWAP2 SWAP1 PUSH2 0x1AE3 JUMP JUMPDEST JUMP JUMPDEST PUSH1 0x1 SLOAD DUP2 MLOAD GT ISZERO PUSH2 0xFC7 JUMPI PUSH1 0x40 MLOAD PUSH32 0x8C379A000000000000000000000000000000000000000000000000000000000 DUP2 MSTORE PUSH1 0x4 ADD PUSH2 0xFBE SWAP1 PUSH2 0x26AD JUMP JUMPDEST PUSH1 0x40 MLOAD DUP1 SWAP2 SUB SWAP1 REVERT JUMPDEST PUSH1 0x0 PUSH1 0x40 MLOAD DUP1 PUSH2 0x100 ADD PUSH1 0x40 MSTORE DUP1 PUSH1 0x1 PUSH1 0x3 PUSH1 0x0 CALLER PUSH20 0xFFFFFFFFFFFFFFFFFFFFFFFFFFFFFFFFFFFFFFFF AND PUSH20 0xFFFFFFFFFFFFFFFFFFFFFFFFFFFFFFFFFFFFFFFF AND DUP2 MSTORE PUSH1 0x20 ADD SWAP1 DUP2 MSTORE PUSH1 0x20 ADD PUSH1 0x0 KECCAK256 DUP1 SLOAD SWAP1 POP PUSH2 0x1024 SWAP2 SWAP1 PUSH2 0x26CD JUMP JUMPDEST DUP2 MSTORE PUSH1 0x20 ADD DUP4 DUP2 MSTORE PUSH1 0x20 ADD CALLER PUSH20 0xFFFFFFFFFFFFFFFFFFFFFFFFFFFFFFFFFFFFFFFF AND DUP2 MSTORE PUSH1 0x20 ADD TIMESTAMP DUP2 MSTORE PUSH1 0x20 ADD PUSH1 0x2 DUP1 SLOAD DUP1 PUSH1 0x20 MUL PUSH1 0x20 ADD PUSH1 0x40 MLOAD SWAP1 DUP2 ADD PUSH1 0x40 MSTORE DUP1 SWAP3 SWAP2 SWAP1 DUP2 DUP2 MSTORE PUSH1 0x20 ADD DUP3 DUP1 SLOAD DUP1 ISZERO PUSH2 0x10D3 JUMPI PUSH1 0x20 MUL DUP3 ADD SWAP2 SWAP1 PUSH1 0x0 MSTORE PUSH1 0x20 PUSH1 0x0 KECCAK256 SWAP1 JUMPDEST DUP2 PUSH1 0x0 SWAP1 SLOAD SWAP1 PUSH2 0x100 EXP SWAP1 DIV PUSH20 0xFFFFFFFFFFFFFFFFFFFFFFFFFFFFFFFFFFFFFFFF AND PUSH20 0xFFFFFFFFFFFFFFFFFFFFFFFFFFFFFFFFFFFFFFFF AND DUP2 MSTORE PUSH1 0x20 ADD SWAP1 PUSH1 0x1 ADD SWAP1 DUP1 DUP4 GT PUSH2 0x1089 JUMPI JUMPDEST POP POP POP POP POP DUP2 MSTORE PUSH1 0x20 ADD PUSH1 0x0 DUP2 MSTORE PUSH1 0x20 ADD PUSH1 0x0 DUP2 MSTORE PUSH1 0x20 ADD PUSH1 0x2 DUP1 SLOAD DUP1 PUSH1 0x20 MUL PUSH1 0x20 ADD PUSH1 0x40 MLOAD SWAP1 DUP2 ADD PUSH1 0x40 MSTORE DUP1 SWAP3 SWAP2 SWAP1 DUP2 DUP2 MSTORE PUSH1 0x20 ADD DUP3 DUP1 SLOAD DUP1 ISZERO PUSH2 0x116D JUMPI PUSH1 0x20 MUL DUP3 ADD SWAP2 SWAP1 PUSH1 0x0 MSTORE PUSH1 0x20 PUSH1 0x0 KECCAK256 SWAP1 JUMPDEST DUP2 PUSH1 0x0 SWAP1 SLOAD SWAP1 PUSH2 0x100 EXP SWAP1 DIV PUSH20 0xFFFFFFFFFFFFFFFFFFFFFFFFFFFFFFFFFFFFFFFF AND PUSH20 0xFFFFFFFFFFFFFFFFFFFFFFFFFFFFFFFFFFFFFFFF AND DUP2 MSTORE PUSH1 0x20 ADD SWAP1 PUSH1 0x1 ADD SWAP1 DUP1 DUP4 GT PUSH2 0x1123 JUMPI JUMPDEST POP POP POP POP POP DUP2 MSTORE POP SWAP1 POP PUSH1 0x3 PUSH1 0x0 CALLER PUSH20 0xFFFFFFFFFFFFFFFFFFFFFFFFFFFFFFFFFFFFFFFF AND PUSH20 0xFFFFFFFFFFFFFFFFFFFFFFFFFFFFFFFFFFFFFFFF AND DUP2 MSTORE PUSH1 0x20 ADD SWAP1 DUP2 MSTORE PUSH1 0x20 ADD PUSH1 0x0 KECCAK256 DUP2 SWAP1 DUP1 PUSH1 0x1 DUP2 SLOAD ADD DUP1 DUP3 SSTORE DUP1 SWAP2 POP POP PUSH1 0x1 SWAP1 SUB SWAP1 PUSH1 0x0 MSTORE PUSH1 0x20 PUSH1 0x0 KECCAK256 SWAP1 PUSH1 0x8 MUL ADD PUSH1 0x0 SWAP1 SWAP2 SWAP1 SWAP2 SWAP1 SWAP2 POP PUSH1 0x0 DUP3 ADD MLOAD DUP2 PUSH1 0x0 ADD SSTORE PUSH1 0x20 DUP3 ADD MLOAD DUP2 PUSH1 0x1 ADD SWAP1 DUP2 PUSH2 0x11FF SWAP2 SWAP1 PUSH2 0x28AD JUMP JUMPDEST POP PUSH1 0x40 DUP3 ADD MLOAD DUP2 PUSH1 0x2 ADD PUSH1 0x0 PUSH2 0x100 EXP DUP2 SLOAD DUP2 PUSH20 0xFFFFFFFFFFFFFFFFFFFFFFFFFFFFFFFFFFFFFFFF MUL NOT AND SWAP1 DUP4 PUSH20 0xFFFFFFFFFFFFFFFFFFFFFFFFFFFFFFFFFFFFFFFF AND MUL OR SWAP1 SSTORE POP PUSH1 0x60 DUP3 ADD MLOAD DUP2 PUSH1 0x3 ADD SSTORE PUSH1 0x80 DUP3 ADD MLOAD DUP2 PUSH1 0x4 ADD SWAP1 DUP1 MLOAD SWAP1 PUSH1 0x20 ADD SWAP1 PUSH2 0x126D SWAP3 SWAP2 SWAP1 PUSH2 0x1B07 JUMP JUMPDEST POP PUSH1 0xA0 DUP3 ADD MLOAD DUP2 PUSH1 0x5 ADD SSTORE PUSH1 0xC0 DUP3 ADD MLOAD DUP2 PUSH1 0x6 ADD SSTORE PUSH1 0xE0 DUP3 ADD MLOAD DUP2 PUSH1 0x7 ADD SWAP1 DUP1 MLOAD SWAP1 PUSH1 0x20 ADD SWAP1 PUSH2 0x129E SWAP3 SWAP2 SWAP1 PUSH2 0x1B07 JUMP JUMPDEST POP POP POP PUSH32 0x16FD3C13E9D46923E0A8BCE11C7B473EC508A72E6C96CD2404B29CE972AFC29E PUSH1 0x1 PUSH1 0x3 PUSH1 0x0 CALLER PUSH20 0xFFFFFFFFFFFFFFFFFFFFFFFFFFFFFFFFFFFFFFFF AND PUSH20 0xFFFFFFFFFFFFFFFFFFFFFFFFFFFFFFFFFFFFFFFF AND DUP2 MSTORE PUSH1 0x20 ADD SWAP1 DUP2 MSTORE PUSH1 0x20 ADD PUSH1 0x0 KECCAK256 DUP1 SLOAD SWAP1 POP PUSH2 0x1311 SWAP2 SWAP1 PUSH2 0x26CD JUMP JUMPDEST CALLER DUP5 TIMESTAMP PUSH1 0x40 MLOAD PUSH2 0x1324 SWAP5 SWAP4 SWAP3 SWAP2 SWAP1 PUSH2 0x29B8 JUMP JUMPDEST PUSH1 0x40 MLOAD DUP1 SWAP2 SUB SWAP1 LOG1 POP POP JUMP JUMPDEST DUP2 DUP2 DUP1 PUSH1 0x3 PUSH1 0x0 DUP5 PUSH20 0xFFFFFFFFFFFFFFFFFFFFFFFFFFFFFFFFFFFFFFFF AND PUSH20 0xFFFFFFFFFFFFFFFFFFFFFFFFFFFFFFFFFFFFFFFF AND DUP2 MSTORE PUSH1 0x20 ADD SWAP1 DUP2 MSTORE PUSH1 0x20 ADD PUSH1 0x0 KECCAK256 DUP1 SLOAD SWAP1 POP LT ISZERO PUSH2 0x13B7 JUMPI PUSH1 0x40 MLOAD PUSH32 0x8C379A000000000000000000000000000000000000000000000000000000000 DUP2 MSTORE PUSH1 0x4 ADD PUSH2 0x13AE SWAP1 PUSH2 0x230B JUMP JUMPDEST PUSH1 0x40 MLOAD DUP1 SWAP2 SUB SWAP1 REVERT JUMPDEST PUSH1 0x0 PUSH1 0x1 SWAP1 POP PUSH1 0x0 JUMPDEST PUSH1 0x3 PUSH1 0x0 DUP6 PUSH20 0xFFFFFFFFFFFFFFFFFFFFFFFFFFFFFFFFFFFFFFFF AND PUSH20 0xFFFFFFFFFFFFFFFFFFFFFFFFFFFFFFFFFFFFFFFF AND DUP2 MSTORE PUSH1 0x20 ADD SWAP1 DUP2 MSTORE PUSH1 0x20 ADD PUSH1 0x0 KECCAK256 PUSH1 0x1 DUP5 PUSH2 0x140C SWAP2 SWAP1 PUSH2 0x235A JUMP JUMPDEST DUP2 SLOAD DUP2 LT PUSH2 0x141D JUMPI PUSH2 0x141C PUSH2 0x238E JUMP JUMPDEST JUMPDEST SWAP1 PUSH1 0x0 MSTORE PUSH1 0x20 PUSH1 0x0 KECCAK256 SWAP1 PUSH1 0x8 MUL ADD PUSH1 0x4 ADD DUP1 SLOAD SWAP1 POP DUP2 LT ISZERO PUSH2 0x1532 JUMPI CALLER PUSH20 0xFFFFFFFFFFFFFFFFFFFFFFFFFFFFFFFFFFFFFFFF AND PUSH1 0x3 PUSH1 0x0 DUP7 PUSH20 0xFFFFFFFFFFFFFFFFFFFFFFFFFFFFFFFFFFFFFFFF AND PUSH20 0xFFFFFFFFFFFFFFFFFFFFFFFFFFFFFFFFFFFFFFFF AND DUP2 MSTORE PUSH1 0x20 ADD SWAP1 DUP2 MSTORE PUSH1 0x20 ADD PUSH1 0x0 KECCAK256 PUSH1 0x1 DUP6 PUSH2 0x149C SWAP2 SWAP1 PUSH2 0x235A JUMP JUMPDEST DUP2 SLOAD DUP2 LT PUSH2 0x14AD JUMPI PUSH2 0x14AC PUSH2 0x238E JUMP JUMPDEST JUMPDEST SWAP1 PUSH1 0x0 MSTORE PUSH1 0x20 PUSH1 0x0 KECCAK256 SWAP1 PUSH1 0x8 MUL ADD PUSH1 0x4 ADD DUP3 DUP2 SLOAD DUP2 LT PUSH2 0x14D0 JUMPI PUSH2 0x14CF PUSH2 0x238E JUMP JUMPDEST JUMPDEST SWAP1 PUSH1 0x0 MSTORE PUSH1 0x20 PUSH1 0x0 KECCAK256 ADD PUSH1 0x0 SWAP1 SLOAD SWAP1 PUSH2 0x100 EXP SWAP1 DIV PUSH20 0xFFFFFFFFFFFFFFFFFFFFFFFFFFFFFFFFFFFFFFFF AND PUSH20 0xFFFFFFFFFFFFFFFFFFFFFFFFFFFFFFFFFFFFFFFF AND SUB PUSH2 0x151F JUMPI PUSH1 0x0 SWAP2 POP PUSH2 0x1532 JUMP JUMPDEST DUP1 DUP1 PUSH2 0x152A SWAP1 PUSH2 0x23BD JUMP JUMPDEST SWAP2 POP POP PUSH2 0x13C0 JUMP JUMPDEST PUSH1 0x1 ISZERO ISZERO DUP3 ISZERO ISZERO EQ PUSH2 0x1579 JUMPI PUSH1 0x40 MLOAD PUSH32 0x8C379A000000000000000000000000000000000000000000000000000000000 DUP2 MSTORE PUSH1 0x4 ADD PUSH2 0x1570 SWAP1 PUSH2 0x2451 JUMP JUMPDEST PUSH1 0x40 MLOAD DUP1 SWAP2 SUB SWAP1 REVERT JUMPDEST DUP6 DUP6 DUP1 PUSH1 0x3 PUSH1 0x0 DUP5 PUSH20 0xFFFFFFFFFFFFFFFFFFFFFFFFFFFFFFFFFFFFFFFF AND PUSH20 0xFFFFFFFFFFFFFFFFFFFFFFFFFFFFFFFFFFFFFFFF AND DUP2 MSTORE PUSH1 0x20 ADD SWAP1 DUP2 MSTORE PUSH1 0x20 ADD PUSH1 0x0 KECCAK256 DUP1 SLOAD SWAP1 POP LT ISZERO PUSH2 0x1600 JUMPI PUSH1 0x40 MLOAD PUSH32 0x8C379A000000000000000000000000000000000000000000000000000000000 DUP2 MSTORE PUSH1 0x4 ADD PUSH2 0x15F7 SWAP1 PUSH2 0x230B JUMP JUMPDEST PUSH1 0x40 MLOAD DUP1 SWAP2 SUB SWAP1 REVERT JUMPDEST PUSH1 0x0 PUSH1 0x1 SWAP1 POP PUSH1 0x0 JUMPDEST PUSH1 0x3 PUSH1 0x0 DUP6 PUSH20 0xFFFFFFFFFFFFFFFFFFFFFFFFFFFFFFFFFFFFFFFF AND PUSH20 0xFFFFFFFFFFFFFFFFFFFFFFFFFFFFFFFFFFFFFFFF AND DUP2 MSTORE PUSH1 0x20 ADD SWAP1 DUP2 MSTORE PUSH1 0x20 ADD PUSH1 0x0 KECCAK256 PUSH1 0x1 DUP5 PUSH2 0x1655 SWAP2 SWAP1 PUSH2 0x235A JUMP JUMPDEST DUP2 SLOAD DUP2 LT PUSH2 0x1666 JUMPI PUSH2 0x1665 PUSH2 0x238E JUMP JUMPDEST JUMPDEST SWAP1 PUSH1 0x0 MSTORE PUSH1 0x20 PUSH1 0x0 KECCAK256 SWAP1 PUSH1 0x8 MUL ADD PUSH1 0x4 ADD DUP1 SLOAD SWAP1 POP DUP2 LT ISZERO PUSH2 0x177B JUMPI CALLER PUSH20 0xFFFFFFFFFFFFFFFFFFFFFFFFFFFFFFFFFFFFFFFF AND PUSH1 0x3 PUSH1 0x0 DUP7 PUSH20 0xFFFFFFFFFFFFFFFFFFFFFFFFFFFFFFFFFFFFFFFF AND PUSH20 0xFFFFFFFFFFFFFFFFFFFFFFFFFFFFFFFFFFFFFFFF AND DUP2 MSTORE PUSH1 0x20 ADD SWAP1 DUP2 MSTORE PUSH1 0x20 ADD PUSH1 0x0 KECCAK256 PUSH1 0x1 DUP6 PUSH2 0x16E5 SWAP2 SWAP1 PUSH2 0x235A JUMP JUMPDEST DUP2 SLOAD DUP2 LT PUSH2 0x16F6 JUMPI PUSH2 0x16F5 PUSH2 0x238E JUMP JUMPDEST JUMPDEST SWAP1 PUSH1 0x0 MSTORE PUSH1 0x20 PUSH1 0x0 KECCAK256 SWAP1 PUSH1 0x8 MUL ADD PUSH1 0x7 ADD DUP3 DUP2 SLOAD DUP2 LT PUSH2 0x1719 JUMPI PUSH2 0x1718 PUSH2 0x238E JUMP JUMPDEST JUMPDEST SWAP1 PUSH1 0x0 MSTORE PUSH1 0x20 PUSH1 0x0 KECCAK256 ADD PUSH1 0x0 SWAP1 SLOAD SWAP1 PUSH2 0x100 EXP SWAP1 DIV PUSH20 0xFFFFFFFFFFFFFFFFFFFFFFFFFFFFFFFFFFFFFFFF AND PUSH20 0xFFFFFFFFFFFFFFFFFFFFFFFFFFFFFFFFFFFFFFFF AND SUB PUSH2 0x1768 JUMPI PUSH1 0x0 SWAP2 POP PUSH2 0x177B JUMP JUMPDEST DUP1 DUP1 PUSH2 0x1773 SWAP1 PUSH2 0x23BD JUMP JUMPDEST SWAP2 POP POP PUSH2 0x1609 JUMP JUMPDEST PUSH1 0x1 ISZERO ISZERO DUP3 ISZERO ISZERO EQ PUSH2 0x17C2 JUMPI PUSH1 0x40 MLOAD PUSH32 0x8C379A000000000000000000000000000000000000000000000000000000000 DUP2 MSTORE PUSH1 0x4 ADD PUSH2 0x17B9 SWAP1 PUSH2 0x24BD JUMP JUMPDEST PUSH1 0x40 MLOAD DUP1 SWAP2 SUB SWAP1 REVERT JUMPDEST CALLER PUSH20 0xFFFFFFFFFFFFFFFFFFFFFFFFFFFFFFFFFFFFFFFF AND DUP11 PUSH20 0xFFFFFFFFFFFFFFFFFFFFFFFFFFFFFFFFFFFFFFFF AND SUB PUSH2 0x1830 JUMPI PUSH1 0x40 MLOAD PUSH32 0x8C379A000000000000000000000000000000000000000000000000000000000 DUP2 MSTORE PUSH1 0x4 ADD PUSH2 0x1827 SWAP1 PUSH2 0x254F JUMP JUMPDEST PUSH1 0x40 MLOAD DUP1 SWAP2 SUB SWAP1 REVERT JUMPDEST PUSH1 0x3 PUSH1 0x0 DUP12 PUSH20 0xFFFFFFFFFFFFFFFFFFFFFFFFFFFFFFFFFFFFFFFF AND PUSH20 0xFFFFFFFFFFFFFFFFFFFFFFFFFFFFFFFFFFFFFFFF AND DUP2 MSTORE PUSH1 0x20 ADD SWAP1 DUP2 MSTORE PUSH1 0x20 ADD PUSH1 0x0 KECCAK256 PUSH1 0x1 DUP11 PUSH2 0x187C SWAP2 SWAP1 PUSH2 0x235A JUMP JUMPDEST DUP2 SLOAD DUP2 LT PUSH2 0x188D JUMPI PUSH2 0x188C PUSH2 0x238E JUMP JUMPDEST JUMPDEST SWAP1 PUSH1 0x0 MSTORE PUSH1 0x20 PUSH1 0x0 KECCAK256 SWAP1 PUSH1 0x8 MUL ADD PUSH1 0x7 ADD CALLER SWAP1 DUP1 PUSH1 0x1 DUP2 SLOAD ADD DUP1 DUP3 SSTORE DUP1 SWAP2 POP POP PUSH1 0x1 SWAP1 SUB SWAP1 PUSH1 0x0 MSTORE PUSH1 0x20 PUSH1 0x0 KECCAK256 ADD PUSH1 0x0 SWAP1 SWAP2 SWAP1 SWAP2 SWAP1 SWAP2 PUSH2 0x100 EXP DUP2 SLOAD DUP2 PUSH20 0xFFFFFFFFFFFFFFFFFFFFFFFFFFFFFFFFFFFFFFFF MUL NOT AND SWAP1 DUP4 PUSH20 0xFFFFFFFFFFFFFFFFFFFFFFFFFFFFFFFFFFFFFFFF AND MUL OR SWAP1 SSTORE POP PUSH1 0x3 PUSH1 0x0 DUP12 PUSH20 0xFFFFFFFFFFFFFFFFFFFFFFFFFFFFFFFFFFFFFFFF AND PUSH20 0xFFFFFFFFFFFFFFFFFFFFFFFFFFFFFFFFFFFFFFFF AND DUP2 MSTORE PUSH1 0x20 ADD SWAP1 DUP2 MSTORE PUSH1 0x20 ADD PUSH1 0x0 KECCAK256 PUSH1 0x1 DUP11 PUSH2 0x194B SWAP2 SWAP1 PUSH2 0x235A JUMP JUMPDEST DUP2 SLOAD DUP2 LT PUSH2 0x195C JUMPI PUSH2 0x195B PUSH2 0x238E JUMP JUMPDEST JUMPDEST SWAP1 PUSH1 0x0 MSTORE PUSH1 0x20 PUSH1 0x0 KECCAK256 SWAP1 PUSH1 0x8 MUL ADD PUSH1 0x6 ADD PUSH1 0x0 DUP2 SLOAD DUP1 SWAP3 SWAP2 SWAP1 PUSH2 0x197E SWAP1 PUSH2 0x23BD JUMP JUMPDEST SWAP2 SWAP1 POP SSTORE POP POP POP POP POP POP POP POP POP POP POP JUMP JUMPDEST CALLER PUSH20 0xFFFFFFFFFFFFFFFFFFFFFFFFFFFFFFFFFFFFFFFF AND PUSH1 0x0 DUP1 SLOAD SWAP1 PUSH2 0x100 EXP SWAP1 DIV PUSH20 0xFFFFFFFFFFFFFFFFFFFFFFFFFFFFFFFFFFFFFFFF AND PUSH20 0xFFFFFFFFFFFFFFFFFFFFFFFFFFFFFFFFFFFFFFFF AND EQ PUSH2 0x1A1D JUMPI PUSH1 0x40 MLOAD PUSH32 0x8C379A000000000000000000000000000000000000000000000000000000000 DUP2 MSTORE PUSH1 0x4 ADD PUSH2 0x1A14 SWAP1 PUSH2 0x2A76 JUMP JUMPDEST PUSH1 0x40 MLOAD DUP1 SWAP2 SUB SWAP1 REVERT JUMPDEST DUP1 PUSH1 0x1 DUP2 SWAP1 SSTORE POP POP JUMP JUMPDEST PUSH1 0x40 MLOAD DUP1 PUSH2 0x100 ADD PUSH1 0x40 MSTORE DUP1 PUSH1 0x0 DUP2 MSTORE PUSH1 0x20 ADD PUSH1 0x60 DUP2 MSTORE PUSH1 0x20 ADD PUSH1 0x0 PUSH20 0xFFFFFFFFFFFFFFFFFFFFFFFFFFFFFFFFFFFFFFFF AND DUP2 MSTORE PUSH1 0x20 ADD PUSH1 0x0 DUP2 MSTORE PUSH1 0x20 ADD PUSH1 0x60 DUP2 MSTORE PUSH1 0x20 ADD PUSH1 0x0 DUP2 MSTORE PUSH1 0x20 ADD PUSH1 0x0 DUP2 MSTORE PUSH1 0x20 ADD PUSH1 0x60 DUP2 MSTORE POP SWAP1 JUMP JUMPDEST POP DUP1 SLOAD PUSH2 0x1A8E SWAP1 PUSH2 0x2601 JUMP JUMPDEST PUSH1 0x0 DUP3 SSTORE DUP1 PUSH1 0x1F LT PUSH2 0x1AA0 JUMPI POP PUSH2 0x1ABF JUMP JUMPDEST PUSH1 0x1F ADD PUSH1 0x20 SWAP1 DIV SWAP1 PUSH1 0x0 MSTORE PUSH1 0x20 PUSH1 0x0 KECCAK256 SWAP1 DUP2 ADD SWAP1 PUSH2 0x1ABE SWAP2 SWAP1 PUSH2 0x1B91 JUMP JUMPDEST JUMPDEST POP JUMP JUMPDEST POP DUP1 SLOAD PUSH1 0x0 DUP3 SSTORE SWAP1 PUSH1 0x0 MSTORE PUSH1 0x20 PUSH1 0x0 KECCAK256 SWAP1 DUP2 ADD SWAP1 PUSH2 0x1AE0 SWAP2 SWAP1 PUSH2 0x1B91 JUMP JUMPDEST POP JUMP JUMPDEST POP DUP1 SLOAD PUSH1 0x0 DUP3 SSTORE PUSH1 0x8 MUL SWAP1 PUSH1 0x0 MSTORE PUSH1 0x20 PUSH1 0x0 KECCAK256 SWAP1 DUP2 ADD SWAP1 PUSH2 0x1B04 SWAP2 SWAP1 PUSH2 0x1BAE JUMP JUMPDEST POP JUMP JUMPDEST DUP3 DUP1 SLOAD DUP3 DUP3 SSTORE SWAP1 PUSH1 0x0 MSTORE PUSH1 0x20 PUSH1 0x0 KECCAK256 SWAP1 DUP2 ADD SWAP3 DUP3 ISZERO PUSH2 0x1B80 JUMPI SWAP2 PUSH1 0x20 MUL DUP3 ADD JUMPDEST DUP3 DUP2 GT ISZERO PUSH2 0x1B7F JUMPI DUP3 MLOAD DUP3 PUSH1 0x0 PUSH2 0x100 EXP DUP2 SLOAD DUP2 PUSH20 0xFFFFFFFFFFFFFFFFFFFFFFFFFFFFFFFFFFFFFFFF MUL NOT AND SWAP1 DUP4 PUSH20 0xFFFFFFFFFFFFFFFFFFFFFFFFFFFFFFFFFFFFFFFF AND MUL OR SWAP1 SSTORE POP SWAP2 PUSH1 0x20 ADD SWAP2 SWAP1 PUSH1 0x1 ADD SWAP1 PUSH2 0x1B27 JUMP JUMPDEST JUMPDEST POP SWAP1 POP PUSH2 0x1B8D SWAP2 SWAP1 PUSH2 0x1B91 JUMP JUMPDEST POP SWAP1 JUMP JUMPDEST JUMPDEST DUP1 DUP3 GT ISZERO PUSH2 0x1BAA JUMPI PUSH1 0x0 DUP2 PUSH1 0x0 SWAP1 SSTORE POP PUSH1 0x1 ADD PUSH2 0x1B92 JUMP JUMPDEST POP SWAP1 JUMP JUMPDEST JUMPDEST DUP1 DUP3 GT ISZERO PUSH2 0x1C38 JUMPI PUSH1 0x0 DUP1 DUP3 ADD PUSH1 0x0 SWAP1 SSTORE PUSH1 0x1 DUP3 ADD PUSH1 0x0 PUSH2 0x1BD0 SWAP2 SWAP1 PUSH2 0x1A82 JUMP JUMPDEST PUSH1 0x2 DUP3 ADD PUSH1 0x0 PUSH2 0x100 EXP DUP2 SLOAD SWAP1 PUSH20 0xFFFFFFFFFFFFFFFFFFFFFFFFFFFFFFFFFFFFFFFF MUL NOT AND SWAP1 SSTORE PUSH1 0x3 DUP3 ADD PUSH1 0x0 SWAP1 SSTORE PUSH1 0x4 DUP3 ADD PUSH1 0x0 PUSH2 0x1C0F SWAP2 SWAP1 PUSH2 0x1AC2 JUMP JUMPDEST PUSH1 0x5 DUP3 ADD PUSH1 0x0 SWAP1 SSTORE PUSH1 0x6 DUP3 ADD PUSH1 0x0 SWAP1 SSTORE PUSH1 0x7 DUP3 ADD PUSH1 0x0 PUSH2 0x1C2F SWAP2 SWAP1 PUSH2 0x1AC2 JUMP JUMPDEST POP PUSH1 0x8 ADD PUSH2 0x1BAF JUMP JUMPDEST POP SWAP1 JUMP JUMPDEST PUSH1 0x0 PUSH1 0x40 MLOAD SWAP1 POP SWAP1 JUMP JUMPDEST PUSH1 0x0 DUP1 REVERT JUMPDEST PUSH1 0x0 DUP1 REVERT JUMPDEST PUSH1 0x0 PUSH20 0xFFFFFFFFFFFFFFFFFFFFFFFFFFFFFFFFFFFFFFFF DUP3 AND SWAP1 POP SWAP2 SWAP1 POP JUMP JUMPDEST PUSH1 0x0 PUSH2 0x1C7B DUP3 PUSH2 0x1C50 JUMP JUMPDEST SWAP1 POP SWAP2 SWAP1 POP JUMP JUMPDEST PUSH2 0x1C8B DUP2 PUSH2 0x1C70 JUMP JUMPDEST DUP2 EQ PUSH2 0x1C96 JUMPI PUSH1 0x0 DUP1 REVERT JUMPDEST POP JUMP JUMPDEST PUSH1 0x0 DUP2 CALLDATALOAD SWAP1 POP PUSH2 0x1CA8 DUP2 PUSH2 0x1C82 JUMP JUMPDEST SWAP3 SWAP2 POP POP JUMP JUMPDEST PUSH1 0x0 DUP2 SWAP1 POP SWAP2 SWAP1 POP JUMP JUMPDEST PUSH2 0x1CC1 DUP2 PUSH2 0x1CAE JUMP JUMPDEST DUP2 EQ PUSH2 0x1CCC JUMPI PUSH1 0x0 DUP1 REVERT JUMPDEST POP JUMP JUMPDEST PUSH1 0x0 DUP2 CALLDATALOAD SWAP1 POP PUSH2 0x1CDE DUP2 PUSH2 0x1CB8 JUMP JUMPDEST SWAP3 SWAP2 POP POP JUMP JUMPDEST PUSH1 0x0 DUP1 PUSH1 0x40 DUP4 DUP6 SUB SLT ISZERO PUSH2 0x1CFB JUMPI PUSH2 0x1CFA PUSH2 0x1C46 JUMP JUMPDEST JUMPDEST PUSH1 0x0 PUSH2 0x1D09 DUP6 DUP3 DUP7 ADD PUSH2 0x1C99 JUMP JUMPDEST SWAP3 POP POP PUSH1 0x20 PUSH2 0x1D1A DUP6 DUP3 DUP7 ADD PUSH2 0x1CCF JUMP JUMPDEST SWAP2 POP POP SWAP3 POP SWAP3 SWAP1 POP JUMP JUMPDEST PUSH2 0x1D2D DUP2 PUSH2 0x1CAE JUMP JUMPDEST DUP3 MSTORE POP POP JUMP JUMPDEST PUSH1 0x0 DUP2 MLOAD SWAP1 POP SWAP2 SWAP1 POP JUMP JUMPDEST PUSH1 0x0 DUP3 DUP3 MSTORE PUSH1 0x20 DUP3 ADD SWAP1 POP SWAP3 SWAP2 POP POP JUMP JUMPDEST PUSH1 0x0 JUMPDEST DUP4 DUP2 LT ISZERO PUSH2 0x1D6D JUMPI DUP1 DUP3 ADD MLOAD DUP2 DUP5 ADD MSTORE PUSH1 0x20 DUP2 ADD SWAP1 POP PUSH2 0x1D52 JUMP JUMPDEST PUSH1 0x0 DUP5 DUP5 ADD MSTORE POP POP POP POP JUMP JUMPDEST PUSH1 0x0 PUSH1 0x1F NOT PUSH1 0x1F DUP4 ADD AND SWAP1 POP SWAP2 SWAP1 POP JUMP JUMPDEST PUSH1 0x0 PUSH2 0x1D95 DUP3 PUSH2 0x1D33 JUMP JUMPDEST PUSH2 0x1D9F DUP2 DUP6 PUSH2 0x1D3E JUMP JUMPDEST SWAP4 POP PUSH2 0x1DAF DUP2 DUP6 PUSH1 0x20 DUP7 ADD PUSH2 0x1D4F JUMP JUMPDEST PUSH2 0x1DB8 DUP2 PUSH2 0x1D79 JUMP JUMPDEST DUP5 ADD SWAP2 POP POP SWAP3 SWAP2 POP POP JUMP JUMPDEST PUSH2 0x1DCC DUP2 PUSH2 0x1C70 JUMP JUMPDEST DUP3 MSTORE POP POP JUMP JUMPDEST PUSH1 0x0 DUP2 MLOAD SWAP1 POP SWAP2 SWAP1 POP JUMP JUMPDEST PUSH1 0x0 DUP3 DUP3 MSTORE PUSH1 0x20 DUP3 ADD SWAP1 POP SWAP3 SWAP2 POP POP JUMP JUMPDEST PUSH1 0x0 DUP2 SWAP1 POP PUSH1 0x20 DUP3 ADD SWAP1 POP SWAP2 SWAP1 POP JUMP JUMPDEST PUSH1 0x0 PUSH2 0x1E0A DUP4 DUP4 PUSH2 0x1DC3 JUMP JUMPDEST PUSH1 0x20 DUP4 ADD SWAP1 POP SWAP3 SWAP2 POP POP JUMP JUMPDEST PUSH1 0x0 PUSH1 0x20 DUP3 ADD SWAP1 POP SWAP2 SWAP1 POP JUMP JUMPDEST PUSH1 0x0 PUSH2 0x1E2E DUP3 PUSH2 0x1DD2 JUMP JUMPDEST PUSH2 0x1E38 DUP2 DUP6 PUSH2 0x1DDD JUMP JUMPDEST SWAP4 POP PUSH2 0x1E43 DUP4 PUSH2 0x1DEE JUMP JUMPDEST DUP1 PUSH1 0x0 JUMPDEST DUP4 DUP2 LT ISZERO PUSH2 0x1E74 JUMPI DUP2 MLOAD PUSH2 0x1E5B DUP9 DUP3 PUSH2 0x1DFE JUMP JUMPDEST SWAP8 POP PUSH2 0x1E66 DUP4 PUSH2 0x1E16 JUMP JUMPDEST SWAP3 POP POP PUSH1 0x1 DUP2 ADD SWAP1 POP PUSH2 0x1E47 JUMP JUMPDEST POP DUP6 SWAP4 POP POP POP POP SWAP3 SWAP2 POP POP JUMP JUMPDEST PUSH1 0x0 PUSH2 0x100 DUP4 ADD PUSH1 0x0 DUP4 ADD MLOAD PUSH2 0x1E9A PUSH1 0x0 DUP7 ADD DUP3 PUSH2 0x1D24 JUMP JUMPDEST POP PUSH1 0x20 DUP4 ADD MLOAD DUP5 DUP3 SUB PUSH1 0x20 DUP7 ADD MSTORE PUSH2 0x1EB2 DUP3 DUP3 PUSH2 0x1D8A JUMP JUMPDEST SWAP2 POP POP PUSH1 0x40 DUP4 ADD MLOAD PUSH2 0x1EC7 PUSH1 0x40 DUP7 ADD DUP3 PUSH2 0x1DC3 JUMP JUMPDEST POP PUSH1 0x60 DUP4 ADD MLOAD PUSH2 0x1EDA PUSH1 0x60 DUP7 ADD DUP3 PUSH2 0x1D24 JUMP JUMPDEST POP PUSH1 0x80 DUP4 ADD MLOAD DUP5 DUP3 SUB PUSH1 0x80 DUP7 ADD MSTORE PUSH2 0x1EF2 DUP3 DUP3 PUSH2 0x1E23 JUMP JUMPDEST SWAP2 POP POP PUSH1 0xA0 DUP4 ADD MLOAD PUSH2 0x1F07 PUSH1 0xA0 DUP7 ADD DUP3 PUSH2 0x1D24 JUMP JUMPDEST POP PUSH1 0xC0 DUP4 ADD MLOAD PUSH2 0x1F1A PUSH1 0xC0 DUP7 ADD DUP3 PUSH2 0x1D24 JUMP JUMPDEST POP PUSH1 0xE0 DUP4 ADD MLOAD DUP5 DUP3 SUB PUSH1 0xE0 DUP7 ADD MSTORE PUSH2 0x1F32 DUP3 DUP3 PUSH2 0x1E23 JUMP JUMPDEST SWAP2 POP POP DUP1 SWAP2 POP POP SWAP3 SWAP2 POP POP JUMP JUMPDEST PUSH1 0x0 PUSH1 0x20 DUP3 ADD SWAP1 POP DUP2 DUP2 SUB PUSH1 0x0 DUP4 ADD MSTORE PUSH2 0x1F59 DUP2 DUP5 PUSH2 0x1E81 JUMP JUMPDEST SWAP1 POP SWAP3 SWAP2 POP POP JUMP JUMPDEST PUSH1 0x0 DUP2 MLOAD SWAP1 POP SWAP2 SWAP1 POP JUMP JUMPDEST PUSH1 0x0 DUP3 DUP3 MSTORE PUSH1 0x20 DUP3 ADD SWAP1 POP SWAP3 SWAP2 POP POP JUMP JUMPDEST PUSH1 0x0 DUP2 SWAP1 POP PUSH1 0x20 DUP3 ADD SWAP1 POP SWAP2 SWAP1 POP JUMP JUMPDEST PUSH1 0x0 PUSH2 0x100 DUP4 ADD PUSH1 0x0 DUP4 ADD MLOAD PUSH2 0x1FA6 PUSH1 0x0 DUP7 ADD DUP3 PUSH2 0x1D24 JUMP JUMPDEST POP PUSH1 0x20 DUP4 ADD MLOAD DUP5 DUP3 SUB PUSH1 0x20 DUP7 ADD MSTORE PUSH2 0x1FBE DUP3 DUP3 PUSH2 0x1D8A JUMP JUMPDEST SWAP2 POP POP PUSH1 0x40 DUP4 ADD MLOAD PUSH2 0x1FD3 PUSH1 0x40 DUP7 ADD DUP3 PUSH2 0x1DC3 JUMP JUMPDEST POP PUSH1 0x60 DUP4 ADD MLOAD PUSH2 0x1FE6 PUSH1 0x60 DUP7 ADD DUP3 PUSH2 0x1D24 JUMP JUMPDEST POP PUSH1 0x80 DUP4 ADD MLOAD DUP5 DUP3 SUB PUSH1 0x80 DUP7 ADD MSTORE PUSH2 0x1FFE DUP3 DUP3 PUSH2 0x1E23 JUMP JUMPDEST SWAP2 POP POP PUSH1 0xA0 DUP4 ADD MLOAD PUSH2 0x2013 PUSH1 0xA0 DUP7 ADD DUP3 PUSH2 0x1D24 JUMP JUMPDEST POP PUSH1 0xC0 DUP4 ADD MLOAD PUSH2 0x2026 PUSH1 0xC0 DUP7 ADD DUP3 PUSH2 0x1D24 JUMP JUMPDEST POP PUSH1 0xE0 DUP4 ADD MLOAD DUP5 DUP3 SUB PUSH1 0xE0 DUP7 ADD MSTORE PUSH2 0x203E DUP3 DUP3 PUSH2 0x1E23 JUMP JUMPDEST SWAP2 POP POP DUP1 SWAP2 POP POP SWAP3 SWAP2 POP POP JUMP JUMPDEST PUSH1 0x0 PUSH2 0x2057 DUP4 DUP4 PUSH2 0x1F8D JUMP JUMPDEST SWAP1 POP SWAP3 SWAP2 POP POP JUMP JUMPDEST PUSH1 0x0 PUSH1 0x20 DUP3 ADD SWAP1 POP SWAP2 SWAP1 POP JUMP JUMPDEST PUSH1 0x0 PUSH2 0x2077 DUP3 PUSH2 0x1F61 JUMP JUMPDEST PUSH2 0x2081 DUP2 DUP6 PUSH2 0x1F6C JUMP JUMPDEST SWAP4 POP DUP4 PUSH1 0x20 DUP3 MUL DUP6 ADD PUSH2 0x2093 DUP6 PUSH2 0x1F7D JUMP JUMPDEST DUP1 PUSH1 0x0 JUMPDEST DUP6 DUP2 LT ISZERO PUSH2 0x20CF JUMPI DUP5 DUP5 SUB DUP10 MSTORE DUP2 MLOAD PUSH2 0x20B0 DUP6 DUP3 PUSH2 0x204B JUMP JUMPDEST SWAP5 POP PUSH2 0x20BB DUP4 PUSH2 0x205F JUMP JUMPDEST SWAP3 POP PUSH1 0x20 DUP11 ADD SWAP10 POP POP PUSH1 0x1 DUP2 ADD SWAP1 POP PUSH2 0x2097 JUMP JUMPDEST POP DUP3 SWAP8 POP DUP8 SWAP6 POP POP POP POP POP POP SWAP3 SWAP2 POP POP JUMP JUMPDEST PUSH1 0x0 PUSH1 0x20 DUP3 ADD SWAP1 POP DUP2 DUP2 SUB PUSH1 0x0 DUP4 ADD MSTORE PUSH2 0x20FB DUP2 DUP5 PUSH2 0x206C JUMP JUMPDEST SWAP1 POP SWAP3 SWAP2 POP POP JUMP JUMPDEST PUSH1 0x0 DUP1 REVERT JUMPDEST PUSH1 0x0 DUP1 REVERT JUMPDEST PUSH32 0x4E487B7100000000000000000000000000000000000000000000000000000000 PUSH1 0x0 MSTORE PUSH1 0x41 PUSH1 0x4 MSTORE PUSH1 0x24 PUSH1 0x0 REVERT JUMPDEST PUSH2 0x2145 DUP3 PUSH2 0x1D79 JUMP JUMPDEST DUP2 ADD DUP2 DUP2 LT PUSH8 0xFFFFFFFFFFFFFFFF DUP3 GT OR ISZERO PUSH2 0x2164 JUMPI PUSH2 0x2163 PUSH2 0x210D JUMP JUMPDEST JUMPDEST DUP1 PUSH1 0x40 MSTORE POP POP POP JUMP JUMPDEST PUSH1 0x0 PUSH2 0x2177 PUSH2 0x1C3C JUMP JUMPDEST SWAP1 POP PUSH2 0x2183 DUP3 DUP3 PUSH2 0x213C JUMP JUMPDEST SWAP2 SWAP1 POP JUMP JUMPDEST PUSH1 0x0 PUSH8 0xFFFFFFFFFFFFFFFF DUP3 GT ISZERO PUSH2 0x21A3 JUMPI PUSH2 0x21A2 PUSH2 0x210D JUMP JUMPDEST JUMPDEST PUSH2 0x21AC DUP3 PUSH2 0x1D79 JUMP JUMPDEST SWAP1 POP PUSH1 0x20 DUP2 ADD SWAP1 POP SWAP2 SWAP1 POP JUMP JUMPDEST DUP3 DUP2 DUP4 CALLDATACOPY PUSH1 0x0 DUP4 DUP4 ADD MSTORE POP POP POP JUMP JUMPDEST PUSH1 0x0 PUSH2 0x21DB PUSH2 0x21D6 DUP5 PUSH2 0x2188 JUMP JUMPDEST PUSH2 0x216D JUMP JUMPDEST SWAP1 POP DUP3 DUP2 MSTORE PUSH1 0x20 DUP2 ADD DUP5 DUP5 DUP5 ADD GT ISZERO PUSH2 0x21F7 JUMPI PUSH2 0x21F6 PUSH2 0x2108 JUMP JUMPDEST JUMPDEST PUSH2 0x2202 DUP5 DUP3 DUP6 PUSH2 0x21B9 JUMP JUMPDEST POP SWAP4 SWAP3 POP POP POP JUMP JUMPDEST PUSH1 0x0 DUP3 PUSH1 0x1F DUP4 ADD SLT PUSH2 0x221F JUMPI PUSH2 0x221E PUSH2 0x2103 JUMP JUMPDEST JUMPDEST DUP2 CALLDATALOAD PUSH2 0x222F DUP5 DUP3 PUSH1 0x20 DUP7 ADD PUSH2 0x21C8 JUMP JUMPDEST SWAP2 POP POP SWAP3 SWAP2 POP POP JUMP JUMPDEST PUSH1 0x0 PUSH1 0x20 DUP3 DUP5 SUB SLT ISZERO PUSH2 0x224E JUMPI PUSH2 0x224D PUSH2 0x1C46 JUMP JUMPDEST JUMPDEST PUSH1 0x0 DUP3 ADD CALLDATALOAD PUSH8 0xFFFFFFFFFFFFFFFF DUP2 GT ISZERO PUSH2 0x226C JUMPI PUSH2 0x226B PUSH2 0x1C4B JUMP JUMPDEST JUMPDEST PUSH2 0x2278 DUP5 DUP3 DUP6 ADD PUSH2 0x220A JUMP JUMPDEST SWAP2 POP POP SWAP3 SWAP2 POP POP JUMP JUMPDEST PUSH1 0x0 PUSH1 0x20 DUP3 DUP5 SUB SLT ISZERO PUSH2 0x2297 JUMPI PUSH2 0x2296 PUSH2 0x1C46 JUMP JUMPDEST JUMPDEST PUSH1 0x0 PUSH2 0x22A5 DUP5 DUP3 DUP6 ADD PUSH2 0x1CCF JUMP JUMPDEST SWAP2 POP POP SWAP3 SWAP2 POP POP JUMP JUMPDEST PUSH1 0x0 DUP3 DUP3 MSTORE PUSH1 0x20 DUP3 ADD SWAP1 POP SWAP3 SWAP2 POP POP JUMP JUMPDEST PUSH32 0x54686973205477656574204E6F74204578697374202100000000000000000000 PUSH1 0x0 DUP3 ADD MSTORE POP JUMP JUMPDEST PUSH1 0x0 PUSH2 0x22F5 PUSH1 0x16 DUP4 PUSH2 0x22AE JUMP JUMPDEST SWAP2 POP PUSH2 0x2300 DUP3 PUSH2 0x22BF JUMP JUMPDEST PUSH1 0x20 DUP3 ADD SWAP1 POP SWAP2 SWAP1 POP JUMP JUMPDEST PUSH1 0x0 PUSH1 0x20 DUP3 ADD SWAP1 POP DUP2 DUP2 SUB PUSH1 0x0 DUP4 ADD MSTORE PUSH2 0x2324 DUP2 PUSH2 0x22E8 JUMP JUMPDEST SWAP1 POP SWAP2 SWAP1 POP JUMP JUMPDEST PUSH32 0x4E487B7100000000000000000000000000000000000000000000000000000000 PUSH1 0x0 MSTORE PUSH1 0x11 PUSH1 0x4 MSTORE PUSH1 0x24 PUSH1 0x0 REVERT JUMPDEST PUSH1 0x0 PUSH2 0x2365 DUP3 PUSH2 0x1CAE JUMP JUMPDEST SWAP2 POP PUSH2 0x2370 DUP4 PUSH2 0x1CAE JUMP JUMPDEST SWAP3 POP DUP3 DUP3 SUB SWAP1 POP DUP2 DUP2 GT ISZERO PUSH2 0x2388 JUMPI PUSH2 0x2387 PUSH2 0x232B JUMP JUMPDEST JUMPDEST SWAP3 SWAP2 POP POP JUMP JUMPDEST PUSH32 0x4E487B7100000000000000000000000000000000000000000000000000000000 PUSH1 0x0 MSTORE PUSH1 0x32 PUSH1 0x4 MSTORE PUSH1 0x24 PUSH1 0x0 REVERT JUMPDEST PUSH1 0x0 PUSH2 0x23C8 DUP3 PUSH2 0x1CAE JUMP JUMPDEST SWAP2 POP PUSH32 0xFFFFFFFFFFFFFFFFFFFFFFFFFFFFFFFFFFFFFFFFFFFFFFFFFFFFFFFFFFFFFFFF DUP3 SUB PUSH2 0x23FA JUMPI PUSH2 0x23F9 PUSH2 0x232B JUMP JUMPDEST JUMPDEST PUSH1 0x1 DUP3 ADD SWAP1 POP SWAP2 SWAP1 POP JUMP JUMPDEST PUSH32 0x596F7520416C7265616479204C696B6564207468652074776565742100000000 PUSH1 0x0 DUP3 ADD MSTORE POP JUMP JUMPDEST PUSH1 0x0 PUSH2 0x243B PUSH1 0x1C DUP4 PUSH2 0x22AE JUMP JUMPDEST SWAP2 POP PUSH2 0x2446 DUP3 PUSH2 0x2405 JUMP JUMPDEST PUSH1 0x20 DUP3 ADD SWAP1 POP SWAP2 SWAP1 POP JUMP JUMPDEST PUSH1 0x0 PUSH1 0x20 DUP3 ADD SWAP1 POP DUP2 DUP2 SUB PUSH1 0x0 DUP4 ADD MSTORE PUSH2 0x246A DUP2 PUSH2 0x242E JUMP JUMPDEST SWAP1 POP SWAP2 SWAP1 POP JUMP JUMPDEST PUSH32 0x596F7520416C726561647920556E4C696B656420746865207477656574210000 PUSH1 0x0 DUP3 ADD MSTORE POP JUMP JUMPDEST PUSH1 0x0 PUSH2 0x24A7 PUSH1 0x1E DUP4 PUSH2 0x22AE JUMP JUMPDEST SWAP2 POP PUSH2 0x24B2 DUP3 PUSH2 0x2471 JUMP JUMPDEST PUSH1 0x20 DUP3 ADD SWAP1 POP SWAP2 SWAP1 POP JUMP JUMPDEST PUSH1 0x0 PUSH1 0x20 DUP3 ADD SWAP1 POP DUP2 DUP2 SUB PUSH1 0x0 DUP4 ADD MSTORE PUSH2 0x24D6 DUP2 PUSH2 0x249A JUMP JUMPDEST SWAP1 POP SWAP2 SWAP1 POP JUMP JUMPDEST PUSH32 0x5468697320697320596F757220547765657421596F752063616E6E2774204C69 PUSH1 0x0 DUP3 ADD MSTORE PUSH32 0x6B6520596F757220547765657421000000000000000000000000000000000000 PUSH1 0x20 DUP3 ADD MSTORE POP JUMP JUMPDEST PUSH1 0x0 PUSH2 0x2539 PUSH1 0x2E DUP4 PUSH2 0x22AE JUMP JUMPDEST SWAP2 POP PUSH2 0x2544 DUP3 PUSH2 0x24DD JUMP JUMPDEST PUSH1 0x40 DUP3 ADD SWAP1 POP SWAP2 SWAP1 POP JUMP JUMPDEST PUSH1 0x0 PUSH1 0x20 DUP3 ADD SWAP1 POP DUP2 DUP2 SUB PUSH1 0x0 DUP4 ADD MSTORE PUSH2 0x2568 DUP2 PUSH2 0x252C JUMP JUMPDEST SWAP1 POP SWAP2 SWAP1 POP JUMP JUMPDEST PUSH2 0x2578 DUP2 PUSH2 0x1C70 JUMP JUMPDEST DUP3 MSTORE POP POP JUMP JUMPDEST PUSH2 0x2587 DUP2 PUSH2 0x1CAE JUMP JUMPDEST DUP3 MSTORE POP POP JUMP JUMPDEST PUSH1 0x0 PUSH1 0x80 DUP3 ADD SWAP1 POP PUSH2 0x25A2 PUSH1 0x0 DUP4 ADD DUP8 PUSH2 0x256F JUMP JUMPDEST PUSH2 0x25AF PUSH1 0x20 DUP4 ADD DUP7 PUSH2 0x256F JUMP JUMPDEST PUSH2 0x25BC PUSH1 0x40 DUP4 ADD DUP6 PUSH2 0x257E JUMP JUMPDEST PUSH2 0x25C9 PUSH1 0x60 DUP4 ADD DUP5 PUSH2 0x257E JUMP JUMPDEST SWAP6 SWAP5 POP POP POP POP POP JUMP JUMPDEST PUSH32 0x4E487B7100000000000000000000000000000000000000000000000000000000 PUSH1 0x0 MSTORE PUSH1 0x22 PUSH1 0x4 MSTORE PUSH1 0x24 PUSH1 0x0 REVERT JUMPDEST PUSH1 0x0 PUSH1 0x2 DUP3 DIV SWAP1 POP PUSH1 0x1 DUP3 AND DUP1 PUSH2 0x2619 JUMPI PUSH1 0x7F DUP3 AND SWAP2 POP JUMPDEST PUSH1 0x20 DUP3 LT DUP2 SUB PUSH2 0x262C JUMPI PUSH2 0x262B PUSH2 0x25D2 JUMP JUMPDEST JUMPDEST POP SWAP2 SWAP1 POP JUMP JUMPDEST PUSH32 0x4E487B7100000000000000000000000000000000000000000000000000000000 PUSH1 0x0 MSTORE PUSH1 0x31 PUSH1 0x4 MSTORE PUSH1 0x24 PUSH1 0x0 REVERT JUMPDEST PUSH32 0x5477656574204C656E6774682069732045786365656421000000000000000000 PUSH1 0x0 DUP3 ADD MSTORE POP JUMP JUMPDEST PUSH1 0x0 PUSH2 0x2697 PUSH1 0x17 DUP4 PUSH2 0x22AE JUMP JUMPDEST SWAP2 POP PUSH2 0x26A2 DUP3 PUSH2 0x2661 JUMP JUMPDEST PUSH1 0x20 DUP3 ADD SWAP1 POP SWAP2 SWAP1 POP JUMP JUMPDEST PUSH1 0x0 PUSH1 0x20 DUP3 ADD SWAP1 POP DUP2 DUP2 SUB PUSH1 0x0 DUP4 ADD MSTORE PUSH2 0x26C6 DUP2 PUSH2 0x268A JUMP JUMPDEST SWAP1 POP SWAP2 SWAP1 POP JUMP JUMPDEST PUSH1 0x0 PUSH2 0x26D8 DUP3 PUSH2 0x1CAE JUMP JUMPDEST SWAP2 POP PUSH2 0x26E3 DUP4 PUSH2 0x1CAE JUMP JUMPDEST SWAP3 POP DUP3 DUP3 ADD SWAP1 POP DUP1 DUP3 GT ISZERO PUSH2 0x26FB JUMPI PUSH2 0x26FA PUSH2 0x232B JUMP JUMPDEST JUMPDEST SWAP3 SWAP2 POP POP JUMP JUMPDEST PUSH1 0x0 DUP2 SWAP1 POP DUP2 PUSH1 0x0 MSTORE PUSH1 0x20 PUSH1 0x0 KECCAK256 SWAP1 POP SWAP2 SWAP1 POP JUMP JUMPDEST PUSH1 0x0 PUSH1 0x20 PUSH1 0x1F DUP4 ADD DIV SWAP1 POP SWAP2 SWAP1 POP JUMP JUMPDEST PUSH1 0x0 DUP3 DUP3 SHL SWAP1 POP SWAP3 SWAP2 POP POP JUMP JUMPDEST PUSH1 0x0 PUSH1 0x8 DUP4 MUL PUSH2 0x2763 PUSH32 0xFFFFFFFFFFFFFFFFFFFFFFFFFFFFFFFFFFFFFFFFFFFFFFFFFFFFFFFFFFFFFFFF DUP3 PUSH2 0x2726 JUMP JUMPDEST PUSH2 0x276D DUP7 DUP4 PUSH2 0x2726 JUMP JUMPDEST SWAP6 POP DUP1 NOT DUP5 AND SWAP4 POP DUP1 DUP7 AND DUP5 OR SWAP3 POP POP POP SWAP4 SWAP3 POP POP POP JUMP JUMPDEST PUSH1 0x0 DUP2 SWAP1 POP SWAP2 SWAP1 POP JUMP JUMPDEST PUSH1 0x0 PUSH2 0x27AA PUSH2 0x27A5 PUSH2 0x27A0 DUP5 PUSH2 0x1CAE JUMP JUMPDEST PUSH2 0x2785 JUMP JUMPDEST PUSH2 0x1CAE JUMP JUMPDEST SWAP1 POP SWAP2 SWAP1 POP JUMP JUMPDEST PUSH1 0x0 DUP2 SWAP1 POP SWAP2 SWAP1 POP JUMP JUMPDEST PUSH2 0x27C4 DUP4 PUSH2 0x278F JUMP JUMPDEST PUSH2 0x27D8 PUSH2 0x27D0 DUP3 PUSH2 0x27B1 JUMP JUMPDEST DUP5 DUP5 SLOAD PUSH2 0x2733 JUMP JUMPDEST DUP3 SSTORE POP POP POP POP JUMP JUMPDEST PUSH1 0x0 SWAP1 JUMP JUMPDEST PUSH2 0x27ED PUSH2 0x27E0 JUMP JUMPDEST PUSH2 0x27F8 DUP2 DUP5 DUP5 PUSH2 0x27BB JUMP JUMPDEST POP POP POP JUMP JUMPDEST JUMPDEST DUP2 DUP2 LT ISZERO PUSH2 0x281C JUMPI PUSH2 0x2811 PUSH1 0x0 DUP3 PUSH2 0x27E5 JUMP JUMPDEST PUSH1 0x1 DUP2 ADD SWAP1 POP PUSH2 0x27FE JUMP JUMPDEST POP POP JUMP JUMPDEST PUSH1 0x1F DUP3 GT ISZERO PUSH2 0x2861 JUMPI PUSH2 0x2832 DUP2 PUSH2 0x2701 JUMP JUMPDEST PUSH2 0x283B DUP5 PUSH2 0x2716 JUMP JUMPDEST DUP2 ADD PUSH1 0x20 DUP6 LT ISZERO PUSH2 0x284A JUMPI DUP2 SWAP1 POP JUMPDEST PUSH2 0x285E PUSH2 0x2856 DUP6 PUSH2 0x2716 JUMP JUMPDEST DUP4 ADD DUP3 PUSH2 0x27FD JUMP JUMPDEST POP POP JUMPDEST POP POP POP JUMP JUMPDEST PUSH1 0x0 DUP3 DUP3 SHR SWAP1 POP SWAP3 SWAP2 POP POP JUMP JUMPDEST PUSH1 0x0 PUSH2 0x2884 PUSH1 0x0 NOT DUP5 PUSH1 0x8 MUL PUSH2 0x2866 JUMP JUMPDEST NOT DUP1 DUP4 AND SWAP2 POP POP SWAP3 SWAP2 POP POP JUMP JUMPDEST PUSH1 0x0 PUSH2 0x289D DUP4 DUP4 PUSH2 0x2873 JUMP JUMPDEST SWAP2 POP DUP3 PUSH1 0x2 MUL DUP3 OR SWAP1 POP SWAP3 SWAP2 POP POP JUMP JUMPDEST PUSH2 0x28B6 DUP3 PUSH2 0x1D33 JUMP JUMPDEST PUSH8 0xFFFFFFFFFFFFFFFF DUP2 GT ISZERO PUSH2 0x28CF JUMPI PUSH2 0x28CE PUSH2 0x210D JUMP JUMPDEST JUMPDEST PUSH2 0x28D9 DUP3 SLOAD PUSH2 0x2601 JUMP JUMPDEST PUSH2 0x28E4 DUP3 DUP3 DUP6 PUSH2 0x2820 JUMP JUMPDEST PUSH1 0x0 PUSH1 0x20 SWAP1 POP PUSH1 0x1F DUP4 GT PUSH1 0x1 DUP2 EQ PUSH2 0x2917 JUMPI PUSH1 0x0 DUP5 ISZERO PUSH2 0x2905 JUMPI DUP3 DUP8 ADD MLOAD SWAP1 POP JUMPDEST PUSH2 0x290F DUP6 DUP3 PUSH2 0x2891 JUMP JUMPDEST DUP7 SSTORE POP PUSH2 0x2977 JUMP JUMPDEST PUSH1 0x1F NOT DUP5 AND PUSH2 0x2925 DUP7 PUSH2 0x2701 JUMP JUMPDEST PUSH1 0x0 JUMPDEST DUP3 DUP2 LT ISZERO PUSH2 0x294D JUMPI DUP5 DUP10 ADD MLOAD DUP3 SSTORE PUSH1 0x1 DUP3 ADD SWAP2 POP PUSH1 0x20 DUP6 ADD SWAP5 POP PUSH1 0x20 DUP2 ADD SWAP1 POP PUSH2 0x2928 JUMP JUMPDEST DUP7 DUP4 LT ISZERO PUSH2 0x296A JUMPI DUP5 DUP10 ADD MLOAD PUSH2 0x2966 PUSH1 0x1F DUP10 AND DUP3 PUSH2 0x2873 JUMP JUMPDEST DUP4 SSTORE POP JUMPDEST PUSH1 0x1 PUSH1 0x2 DUP9 MUL ADD DUP9 SSTORE POP POP POP JUMPDEST POP POP POP POP POP POP JUMP JUMPDEST PUSH1 0x0 PUSH2 0x298A DUP3 PUSH2 0x1D33 JUMP JUMPDEST PUSH2 0x2994 DUP2 DUP6 PUSH2 0x22AE JUMP JUMPDEST SWAP4 POP PUSH2 0x29A4 DUP2 DUP6 PUSH1 0x20 DUP7 ADD PUSH2 0x1D4F JUMP JUMPDEST PUSH2 0x29AD DUP2 PUSH2 0x1D79 JUMP JUMPDEST DUP5 ADD SWAP2 POP POP SWAP3 SWAP2 POP POP JUMP JUMPDEST PUSH1 0x0 PUSH1 0x80 DUP3 ADD SWAP1 POP PUSH2 0x29CD PUSH1 0x0 DUP4 ADD DUP8 PUSH2 0x257E JUMP JUMPDEST PUSH2 0x29DA PUSH1 0x20 DUP4 ADD DUP7 PUSH2 0x256F JUMP JUMPDEST DUP2 DUP2 SUB PUSH1 0x40 DUP4 ADD MSTORE PUSH2 0x29EC DUP2 DUP6 PUSH2 0x297F JUMP JUMPDEST SWAP1 POP PUSH2 0x29FB PUSH1 0x60 DUP4 ADD DUP5 PUSH2 0x257E JUMP JUMPDEST SWAP6 SWAP5 POP POP POP POP POP JUMP JUMPDEST PUSH32 0x596F7520617265206E6F742061204F776E6572215065726D697373696F6E2044 PUSH1 0x0 DUP3 ADD MSTORE PUSH32 0x656E696564210000000000000000000000000000000000000000000000000000 PUSH1 0x20 DUP3 ADD MSTORE POP JUMP JUMPDEST PUSH1 0x0 PUSH2 0x2A60 PUSH1 0x26 DUP4 PUSH2 0x22AE JUMP JUMPDEST SWAP2 POP PUSH2 0x2A6B DUP3 PUSH2 0x2A04 JUMP JUMPDEST PUSH1 0x40 DUP3 ADD SWAP1 POP SWAP2 SWAP1 POP JUMP JUMPDEST PUSH1 0x0 PUSH1 0x20 DUP3 ADD SWAP1 POP DUP2 DUP2 SUB PUSH1 0x0 DUP4 ADD MSTORE PUSH2 0x2A8F DUP2 PUSH2 0x2A53 JUMP JUMPDEST SWAP1 POP SWAP2 SWAP1 POP JUMP INVALID LOG2 PUSH5 0x6970667358 0x22 SLT KECCAK256 PUSH6 0x7D5CA74D9206 0xF7 0xDA 0x49 0xD7 0xEF 0xB3 0xC7 SELFBALANCE SAR 0xCC JUMPDEST BALANCE SWAP8 CALLDATASIZE OR RETURNDATASIZE 0xDA 0xAD 0x4E PUSH22 0x505395BC864736F6C63430008120033000000000000 "
				},
				"gasEstimates": {
					"creation": {
						"codeDepositCost": "2191200",
						"executionCost": "48710",
						"totalCost": "2239910"
					},
					"external": {
						"ChangeTweetLength(uint256)": "24753",
						"DeleteAllTweets()": "infinite",
						"DeleteRecentTweet()": "infinite",
						"GetAllTweets()": "infinite",
						"GetTweet(address,uint256)": "infinite",
						"LikesTweet(address,uint256)": "infinite",
						"UnlikeTweet(address,uint256)": "infinite",
						"createTweet(string)": "infinite"
					}
				},
				"methodIdentifiers": {
					"ChangeTweetLength(uint256)": "e479c244",
					"DeleteAllTweets()": "765fab45",
					"DeleteRecentTweet()": "71e7eb12",
					"GetAllTweets()": "42d7fbc0",
					"GetTweet(address,uint256)": "37f36a4c",
					"LikesTweet(address,uint256)": "1216cdc5",
					"UnlikeTweet(address,uint256)": "a110e72d",
					"createTweet(string)": "7c9cd2bc"
				}
			},
			"storageLayout": {
				"storage": [
					{
						"astId": 3,
						"contract": "contracts/Twitter0.6.sol:Twitter",
						"label": "owner",
						"offset": 0,
						"slot": "0",
						"type": "t_address"
					},
					{
						"astId": 54,
						"contract": "contracts/Twitter0.6.sol:Twitter",
						"label": "TweetLength",
						"offset": 0,
						"slot": "1",
						"type": "t_uint256"
					},
					{
						"astId": 81,
						"contract": "contracts/Twitter0.6.sol:Twitter",
						"label": "li",
						"offset": 0,
						"slot": "2",
						"type": "t_array(t_address)dyn_storage"
					},
					{
						"astId": 87,
						"contract": "contracts/Twitter0.6.sol:Twitter",
						"label": "Tweet_info",
						"offset": 0,
						"slot": "3",
						"type": "t_mapping(t_address,t_array(t_struct(Tweet)22_storage)dyn_storage)"
					}
				],
				"types": {
					"t_address": {
						"encoding": "inplace",
						"label": "address",
						"numberOfBytes": "20"
					},
					"t_array(t_address)dyn_storage": {
						"base": "t_address",
						"encoding": "dynamic_array",
						"label": "address[]",
						"numberOfBytes": "32"
					},
					"t_array(t_struct(Tweet)22_storage)dyn_storage": {
						"base": "t_struct(Tweet)22_storage",
						"encoding": "dynamic_array",
						"label": "struct Twitter.Tweet[]",
						"numberOfBytes": "32"
					},
					"t_mapping(t_address,t_array(t_struct(Tweet)22_storage)dyn_storage)": {
						"encoding": "mapping",
						"key": "t_address",
						"label": "mapping(address => struct Twitter.Tweet[])",
						"numberOfBytes": "32",
						"value": "t_array(t_struct(Tweet)22_storage)dyn_storage"
					},
					"t_string_storage": {
						"encoding": "bytes",
						"label": "string",
						"numberOfBytes": "32"
					},
					"t_struct(Tweet)22_storage": {
						"encoding": "inplace",
						"label": "struct Twitter.Tweet",
						"members": [
							{
								"astId": 5,
								"contract": "contracts/Twitter0.6.sol:Twitter",
								"label": "id",
								"offset": 0,
								"slot": "0",
								"type": "t_uint256"
							},
							{
								"astId": 7,
								"contract": "contracts/Twitter0.6.sol:Twitter",
								"label": "content",
								"offset": 0,
								"slot": "1",
								"type": "t_string_storage"
							},
							{
								"astId": 9,
								"contract": "contracts/Twitter0.6.sol:Twitter",
								"label": "author",
								"offset": 0,
								"slot": "2",
								"type": "t_address"
							},
							{
								"astId": 11,
								"contract": "contracts/Twitter0.6.sol:Twitter",
								"label": "timestamp",
								"offset": 0,
								"slot": "3",
								"type": "t_uint256"
							},
							{
								"astId": 14,
								"contract": "contracts/Twitter0.6.sol:Twitter",
								"label": "likes",
								"offset": 0,
								"slot": "4",
								"type": "t_array(t_address)dyn_storage"
							},
							{
								"astId": 16,
								"contract": "contracts/Twitter0.6.sol:Twitter",
								"label": "LikesCount",
								"offset": 0,
								"slot": "5",
								"type": "t_uint256"
							},
							{
								"astId": 18,
								"contract": "contracts/Twitter0.6.sol:Twitter",
								"label": "unlikescount",
								"offset": 0,
								"slot": "6",
								"type": "t_uint256"
							},
							{
								"astId": 21,
								"contract": "contracts/Twitter0.6.sol:Twitter",
								"label": "unlikes",
								"offset": 0,
								"slot": "7",
								"type": "t_array(t_address)dyn_storage"
							}
						],
						"numberOfBytes": "256"
					},
					"t_uint256": {
						"encoding": "inplace",
						"label": "uint256",
						"numberOfBytes": "32"
					}
				}
			},
			"userdoc": {
				"kind": "user",
				"methods": {},
				"version": 1
			}
		}
	}
}