{
	"contracts/Twitter0.9v(main).sol": {
		"Twitter": {
			"abi": [
				{
					"inputs": [
						{
							"internalType": "address",
							"name": "_profileContract",
							"type": "address"
						}
					],
					"stateMutability": "nonpayable",
					"type": "constructor"
				},
				{
					"inputs": [
						{
							"internalType": "address",
							"name": "owner",
							"type": "address"
						}
					],
					"name": "OwnableInvalidOwner",
					"type": "error"
				},
				{
					"inputs": [
						{
							"internalType": "address",
							"name": "account",
							"type": "address"
						}
					],
					"name": "OwnableUnauthorizedAccount",
					"type": "error"
				},
				{
					"anonymous": false,
					"inputs": [
						{
							"indexed": true,
							"internalType": "address",
							"name": "previousOwner",
							"type": "address"
						},
						{
							"indexed": true,
							"internalType": "address",
							"name": "newOwner",
							"type": "address"
						}
					],
					"name": "OwnershipTransferred",
					"type": "event"
				},
				{
					"anonymous": false,
					"inputs": [
						{
							"indexed": false,
							"internalType": "uint256",
							"name": "id",
							"type": "uint256"
						},
						{
							"indexed": false,
							"internalType": "address",
							"name": "author",
							"type": "address"
						},
						{
							"indexed": false,
							"internalType": "string",
							"name": "content",
							"type": "string"
						},
						{
							"indexed": false,
							"internalType": "uint256",
							"name": "timestamp",
							"type": "uint256"
						}
					],
					"name": "TweetCreated",
					"type": "event"
				},
				{
					"anonymous": false,
					"inputs": [
						{
							"indexed": false,
							"internalType": "address",
							"name": "liker",
							"type": "address"
						},
						{
							"indexed": false,
							"internalType": "address",
							"name": "author",
							"type": "address"
						},
						{
							"indexed": false,
							"internalType": "uint256",
							"name": "likecount",
							"type": "uint256"
						},
						{
							"indexed": false,
							"internalType": "uint256",
							"name": "id",
							"type": "uint256"
						}
					],
					"name": "TweetLiked",
					"type": "event"
				},
				{
					"inputs": [
						{
							"internalType": "uint256",
							"name": "newTweetLen",
							"type": "uint256"
						}
					],
					"name": "ChangeTweetLength",
					"outputs": [],
					"stateMutability": "nonpayable",
					"type": "function"
				},
				{
					"inputs": [],
					"name": "DeleteAllTweets",
					"outputs": [],
					"stateMutability": "nonpayable",
					"type": "function"
				},
				{
					"inputs": [],
					"name": "DeleteRecentTweet",
					"outputs": [],
					"stateMutability": "nonpayable",
					"type": "function"
				},
				{
					"inputs": [],
					"name": "GetAllTweets",
					"outputs": [
						{
							"components": [
								{
									"internalType": "uint256",
									"name": "id",
									"type": "uint256"
								},
								{
									"internalType": "string",
									"name": "content",
									"type": "string"
								},
								{
									"internalType": "address",
									"name": "author",
									"type": "address"
								},
								{
									"internalType": "uint256",
									"name": "timestamp",
									"type": "uint256"
								},
								{
									"internalType": "address[]",
									"name": "likes",
									"type": "address[]"
								},
								{
									"internalType": "uint256",
									"name": "LikesCount",
									"type": "uint256"
								},
								{
									"internalType": "uint256",
									"name": "unlikescount",
									"type": "uint256"
								},
								{
									"internalType": "address[]",
									"name": "unlikes",
									"type": "address[]"
								}
							],
							"internalType": "struct Twitter.Tweet[]",
							"name": "",
							"type": "tuple[]"
						}
					],
					"stateMutability": "view",
					"type": "function"
				},
				{
					"inputs": [
						{
							"internalType": "address",
							"name": "User",
							"type": "address"
						},
						{
							"internalType": "uint256",
							"name": "Index",
							"type": "uint256"
						}
					],
					"name": "GetTweet",
					"outputs": [
						{
							"components": [
								{
									"internalType": "uint256",
									"name": "id",
									"type": "uint256"
								},
								{
									"internalType": "string",
									"name": "content",
									"type": "string"
								},
								{
									"internalType": "address",
									"name": "author",
									"type": "address"
								},
								{
									"internalType": "uint256",
									"name": "timestamp",
									"type": "uint256"
								},
								{
									"internalType": "address[]",
									"name": "likes",
									"type": "address[]"
								},
								{
									"internalType": "uint256",
									"name": "LikesCount",
									"type": "uint256"
								},
								{
									"internalType": "uint256",
									"name": "unlikescount",
									"type": "uint256"
								},
								{
									"internalType": "address[]",
									"name": "unlikes",
									"type": "address[]"
								}
							],
							"internalType": "struct Twitter.Tweet",
							"name": "",
							"type": "tuple"
						}
					],
					"stateMutability": "view",
					"type": "function"
				},
				{
					"inputs": [
						{
							"internalType": "address",
							"name": "User",
							"type": "address"
						},
						{
							"internalType": "uint256",
							"name": "TweetIndex",
							"type": "uint256"
						}
					],
					"name": "LikesTweet",
					"outputs": [],
					"stateMutability": "nonpayable",
					"type": "function"
				},
				{
					"inputs": [
						{
							"internalType": "address",
							"name": "User",
							"type": "address"
						},
						{
							"internalType": "uint256",
							"name": "TweetIndex",
							"type": "uint256"
						}
					],
					"name": "UnlikeTweet",
					"outputs": [],
					"stateMutability": "nonpayable",
					"type": "function"
				},
				{
					"inputs": [
						{
							"internalType": "string",
							"name": "_tweet",
							"type": "string"
						}
					],
					"name": "createTweet",
					"outputs": [],
					"stateMutability": "nonpayable",
					"type": "function"
				},
				{
					"inputs": [
						{
							"internalType": "address",
							"name": "author",
							"type": "address"
						}
					],
					"name": "getTotalLikes",
					"outputs": [
						{
							"internalType": "uint256",
							"name": "",
							"type": "uint256"
						}
					],
					"stateMutability": "view",
					"type": "function"
				},
				{
					"inputs": [
						{
							"internalType": "address",
							"name": "author",
							"type": "address"
						}
					],
					"name": "getTotalUnLikes",
					"outputs": [
						{
							"internalType": "uint256",
							"name": "",
							"type": "uint256"
						}
					],
					"stateMutability": "view",
					"type": "function"
				},
				{
					"inputs": [],
					"name": "owner",
					"outputs": [
						{
							"internalType": "address",
							"name": "",
							"type": "address"
						}
					],
					"stateMutability": "view",
					"type": "function"
				},
				{
					"inputs": [],
					"name": "renounceOwnership",
					"outputs": [],
					"stateMutability": "nonpayable",
					"type": "function"
				},
				{
					"inputs": [
						{
							"internalType": "address",
							"name": "newOwner",
							"type": "address"
						}
					],
					"name": "transferOwnership",
					"outputs": [],
					"stateMutability": "nonpayable",
					"type": "function"
				}
			],
			"devdoc": {
				"errors": {
					"OwnableInvalidOwner(address)": [
						{
							"details": "The owner is not a valid owner account. (eg. `address(0)`)"
						}
					],
					"OwnableUnauthorizedAccount(address)": [
						{
							"details": "The caller account is not authorized to perform an operation."
						}
					]
				},
				"kind": "dev",
				"methods": {
					"owner()": {
						"details": "Returns the address of the current owner."
					},
					"renounceOwnership()": {
						"details": "Leaves the contract without owner. It will not be possible to call `onlyOwner` functions. Can only be called by the current owner. NOTE: Renouncing ownership will leave the contract without an owner, thereby disabling any functionality that is only available to the owner."
					},
					"transferOwnership(address)": {
						"details": "Transfers ownership of the contract to a new account (`newOwner`). Can only be called by the current owner."
					}
				},
				"version": 1
			},
			"evm": {
				"assembly": "    /* \"contracts/Twitter0.9v(main).sol\":608:6441  contract Twitter is Ownable {... */\n  mstore(0x40, 0x80)\n    /* \"contracts/Twitter0.9v(main).sol\":1771:1773  10 */\n  0x0a\n    /* \"contracts/Twitter0.9v(main).sol\":1749:1773  uint256 TweetLength = 10 */\n  0x02\n  sstore\n    /* \"contracts/Twitter0.9v(main).sol\":678:799  constructor(address _profileContract) Ownable(msg.sender) {... */\n  callvalue\n  dup1\n  iszero\n  tag_1\n  jumpi\n  0x00\n  dup1\n  revert\ntag_1:\n  pop\n  mload(0x40)\n  sub(codesize, bytecodeSize)\n  dup1\n  bytecodeSize\n  dup4\n  codecopy\n  dup2\n  dup2\n  add\n  0x40\n  mstore\n  dup2\n  add\n  swap1\n  tag_2\n  swap2\n  swap1\n  tag_3\n  jump\t// in\ntag_2:\n    /* \"contracts/Twitter0.9v(main).sol\":724:734  msg.sender */\n  caller\n    /* \"@openzeppelin/contracts/access/Ownable.sol\":1297:1298  0 */\n  0x00\n    /* \"@openzeppelin/contracts/access/Ownable.sol\":1273:1299  initialOwner == address(0) */\n  0xffffffffffffffffffffffffffffffffffffffff\n  and\n    /* \"@openzeppelin/contracts/access/Ownable.sol\":1273:1285  initialOwner */\n  dup2\n    /* \"@openzeppelin/contracts/access/Ownable.sol\":1273:1299  initialOwner == address(0) */\n  0xffffffffffffffffffffffffffffffffffffffff\n  and\n  sub\n    /* \"@openzeppelin/contracts/access/Ownable.sol\":1269:1364  if (initialOwner == address(0)) {... */\n  tag_7\n  jumpi\n    /* \"@openzeppelin/contracts/access/Ownable.sol\":1350:1351  0 */\n  0x00\n    /* \"@openzeppelin/contracts/access/Ownable.sol\":1322:1353  OwnableInvalidOwner(address(0)) */\n  mload(0x40)\n  0x1e4fbdf700000000000000000000000000000000000000000000000000000000\n  dup2\n  mstore\n  0x04\n  add\n  tag_8\n  swap2\n  swap1\n  tag_9\n  jump\t// in\ntag_8:\n  mload(0x40)\n  dup1\n  swap2\n  sub\n  swap1\n  revert\n    /* \"@openzeppelin/contracts/access/Ownable.sol\":1269:1364  if (initialOwner == address(0)) {... */\ntag_7:\n    /* \"@openzeppelin/contracts/access/Ownable.sol\":1373:1405  _transferOwnership(initialOwner) */\n  tag_10\n    /* \"@openzeppelin/contracts/access/Ownable.sol\":1392:1404  initialOwner */\n  dup2\n    /* \"@openzeppelin/contracts/access/Ownable.sol\":1373:1391  _transferOwnership */\n  shl(0x20, tag_11)\n    /* \"@openzeppelin/contracts/access/Ownable.sol\":1373:1405  _transferOwnership(initialOwner) */\n  0x20\n  shr\n  jump\t// in\ntag_10:\n    /* \"@openzeppelin/contracts/access/Ownable.sol\":1225:1412  constructor(address initialOwner) {... */\n  pop\n    /* \"contracts/Twitter0.9v(main).sol\":774:790  _profileContract */\n  dup1\n    /* \"contracts/Twitter0.9v(main).sol\":747:762  profileContract */\n  0x01\n  0x00\n    /* \"contracts/Twitter0.9v(main).sol\":747:791  profileContract = IProfile(_profileContract) */\n  0x0100\n  exp\n  dup2\n  sload\n  dup2\n  0xffffffffffffffffffffffffffffffffffffffff\n  mul\n  not\n  and\n  swap1\n  dup4\n  0xffffffffffffffffffffffffffffffffffffffff\n  and\n  mul\n  or\n  swap1\n  sstore\n  pop\n    /* \"contracts/Twitter0.9v(main).sol\":678:799  constructor(address _profileContract) Ownable(msg.sender) {... */\n  pop\n    /* \"contracts/Twitter0.9v(main).sol\":608:6441  contract Twitter is Ownable {... */\n  jump(tag_13)\n    /* \"@openzeppelin/contracts/access/Ownable.sol\":2912:3099  function _transferOwnership(address newOwner) internal virtual {... */\ntag_11:\n    /* \"@openzeppelin/contracts/access/Ownable.sol\":2985:3001  address oldOwner */\n  0x00\n    /* \"@openzeppelin/contracts/access/Ownable.sol\":3004:3010  _owner */\n  dup1\n  0x00\n  swap1\n  sload\n  swap1\n  0x0100\n  exp\n  swap1\n  div\n  0xffffffffffffffffffffffffffffffffffffffff\n  and\n    /* \"@openzeppelin/contracts/access/Ownable.sol\":2985:3010  address oldOwner = _owner */\n  swap1\n  pop\n    /* \"@openzeppelin/contracts/access/Ownable.sol\":3029:3037  newOwner */\n  dup2\n    /* \"@openzeppelin/contracts/access/Ownable.sol\":3020:3026  _owner */\n  0x00\n  dup1\n    /* \"@openzeppelin/contracts/access/Ownable.sol\":3020:3037  _owner = newOwner */\n  0x0100\n  exp\n  dup2\n  sload\n  dup2\n  0xffffffffffffffffffffffffffffffffffffffff\n  mul\n  not\n  and\n  swap1\n  dup4\n  0xffffffffffffffffffffffffffffffffffffffff\n  and\n  mul\n  or\n  swap1\n  sstore\n  pop\n    /* \"@openzeppelin/contracts/access/Ownable.sol\":3083:3091  newOwner */\n  dup2\n    /* \"@openzeppelin/contracts/access/Ownable.sol\":3052:3092  OwnershipTransferred(oldOwner, newOwner) */\n  0xffffffffffffffffffffffffffffffffffffffff\n  and\n    /* \"@openzeppelin/contracts/access/Ownable.sol\":3073:3081  oldOwner */\n  dup2\n    /* \"@openzeppelin/contracts/access/Ownable.sol\":3052:3092  OwnershipTransferred(oldOwner, newOwner) */\n  0xffffffffffffffffffffffffffffffffffffffff\n  and\n  0x8be0079c531659141344cd1fd0a4f28419497f9722a3daafe3b4186f6b6457e0\n  mload(0x40)\n  mload(0x40)\n  dup1\n  swap2\n  sub\n  swap1\n  log3\n    /* \"@openzeppelin/contracts/access/Ownable.sol\":2975:3099  {... */\n  pop\n    /* \"@openzeppelin/contracts/access/Ownable.sol\":2912:3099  function _transferOwnership(address newOwner) internal virtual {... */\n  pop\n  jump\t// out\n    /* \"#utility.yul\":88:205   */\ntag_16:\n    /* \"#utility.yul\":197:198   */\n  0x00\n    /* \"#utility.yul\":194:195   */\n  dup1\n    /* \"#utility.yul\":187:199   */\n  revert\n    /* \"#utility.yul\":334:460   */\ntag_18:\n    /* \"#utility.yul\":371:378   */\n  0x00\n    /* \"#utility.yul\":411:453   */\n  0xffffffffffffffffffffffffffffffffffffffff\n    /* \"#utility.yul\":404:409   */\n  dup3\n    /* \"#utility.yul\":400:454   */\n  and\n    /* \"#utility.yul\":389:454   */\n  swap1\n  pop\n    /* \"#utility.yul\":334:460   */\n  swap2\n  swap1\n  pop\n  jump\t// out\n    /* \"#utility.yul\":466:562   */\ntag_19:\n    /* \"#utility.yul\":503:510   */\n  0x00\n    /* \"#utility.yul\":532:556   */\n  tag_29\n    /* \"#utility.yul\":550:555   */\n  dup3\n    /* \"#utility.yul\":532:556   */\n  tag_18\n  jump\t// in\ntag_29:\n    /* \"#utility.yul\":521:556   */\n  swap1\n  pop\n    /* \"#utility.yul\":466:562   */\n  swap2\n  swap1\n  pop\n  jump\t// out\n    /* \"#utility.yul\":568:690   */\ntag_20:\n    /* \"#utility.yul\":641:665   */\n  tag_31\n    /* \"#utility.yul\":659:664   */\n  dup2\n    /* \"#utility.yul\":641:665   */\n  tag_19\n  jump\t// in\ntag_31:\n    /* \"#utility.yul\":634:639   */\n  dup2\n    /* \"#utility.yul\":631:666   */\n  eq\n    /* \"#utility.yul\":621:684   */\n  tag_32\n  jumpi\n    /* \"#utility.yul\":680:681   */\n  0x00\n    /* \"#utility.yul\":677:678   */\n  dup1\n    /* \"#utility.yul\":670:682   */\n  revert\n    /* \"#utility.yul\":621:684   */\ntag_32:\n    /* \"#utility.yul\":568:690   */\n  pop\n  jump\t// out\n    /* \"#utility.yul\":696:839   */\ntag_21:\n    /* \"#utility.yul\":753:758   */\n  0x00\n    /* \"#utility.yul\":784:790   */\n  dup2\n    /* \"#utility.yul\":778:791   */\n  mload\n    /* \"#utility.yul\":769:791   */\n  swap1\n  pop\n    /* \"#utility.yul\":800:833   */\n  tag_34\n    /* \"#utility.yul\":827:832   */\n  dup2\n    /* \"#utility.yul\":800:833   */\n  tag_20\n  jump\t// in\ntag_34:\n    /* \"#utility.yul\":696:839   */\n  swap3\n  swap2\n  pop\n  pop\n  jump\t// out\n    /* \"#utility.yul\":845:1196   */\ntag_3:\n    /* \"#utility.yul\":915:921   */\n  0x00\n    /* \"#utility.yul\":964:966   */\n  0x20\n    /* \"#utility.yul\":952:961   */\n  dup3\n    /* \"#utility.yul\":943:950   */\n  dup5\n    /* \"#utility.yul\":939:962   */\n  sub\n    /* \"#utility.yul\":935:967   */\n  slt\n    /* \"#utility.yul\":932:1051   */\n  iszero\n  tag_36\n  jumpi\n    /* \"#utility.yul\":970:1049   */\n  tag_37\n  tag_16\n  jump\t// in\ntag_37:\n    /* \"#utility.yul\":932:1051   */\ntag_36:\n    /* \"#utility.yul\":1090:1091   */\n  0x00\n    /* \"#utility.yul\":1115:1179   */\n  tag_38\n    /* \"#utility.yul\":1171:1178   */\n  dup5\n    /* \"#utility.yul\":1162:1168   */\n  dup3\n    /* \"#utility.yul\":1151:1160   */\n  dup6\n    /* \"#utility.yul\":1147:1169   */\n  add\n    /* \"#utility.yul\":1115:1179   */\n  tag_21\n  jump\t// in\ntag_38:\n    /* \"#utility.yul\":1105:1179   */\n  swap2\n  pop\n    /* \"#utility.yul\":1061:1189   */\n  pop\n    /* \"#utility.yul\":845:1196   */\n  swap3\n  swap2\n  pop\n  pop\n  jump\t// out\n    /* \"#utility.yul\":1202:1320   */\ntag_22:\n    /* \"#utility.yul\":1289:1313   */\n  tag_40\n    /* \"#utility.yul\":1307:1312   */\n  dup2\n    /* \"#utility.yul\":1289:1313   */\n  tag_19\n  jump\t// in\ntag_40:\n    /* \"#utility.yul\":1284:1287   */\n  dup3\n    /* \"#utility.yul\":1277:1314   */\n  mstore\n    /* \"#utility.yul\":1202:1320   */\n  pop\n  pop\n  jump\t// out\n    /* \"#utility.yul\":1326:1548   */\ntag_9:\n    /* \"#utility.yul\":1419:1423   */\n  0x00\n    /* \"#utility.yul\":1457:1459   */\n  0x20\n    /* \"#utility.yul\":1446:1455   */\n  dup3\n    /* \"#utility.yul\":1442:1460   */\n  add\n    /* \"#utility.yul\":1434:1460   */\n  swap1\n  pop\n    /* \"#utility.yul\":1470:1541   */\n  tag_42\n    /* \"#utility.yul\":1538:1539   */\n  0x00\n    /* \"#utility.yul\":1527:1536   */\n  dup4\n    /* \"#utility.yul\":1523:1540   */\n  add\n    /* \"#utility.yul\":1514:1520   */\n  dup5\n    /* \"#utility.yul\":1470:1541   */\n  tag_22\n  jump\t// in\ntag_42:\n    /* \"#utility.yul\":1326:1548   */\n  swap3\n  swap2\n  pop\n  pop\n  jump\t// out\n    /* \"contracts/Twitter0.9v(main).sol\":608:6441  contract Twitter is Ownable {... */\ntag_13:\n  dataSize(sub_0)\n  dup1\n  dataOffset(sub_0)\n  0x00\n  codecopy\n  0x00\n  return\nstop\n\nsub_0: assembly {\n        /* \"contracts/Twitter0.9v(main).sol\":608:6441  contract Twitter is Ownable {... */\n      mstore(0x40, 0x80)\n      callvalue\n      dup1\n      iszero\n      tag_1\n      jumpi\n      0x00\n      dup1\n      revert\n    tag_1:\n      pop\n      jumpi(tag_2, lt(calldatasize, 0x04))\n      shr(0xe0, calldataload(0x00))\n      dup1\n      0x7c9cd2bc\n      gt\n      tag_16\n      jumpi\n      dup1\n      0xa110e72d\n      gt\n      tag_17\n      jumpi\n      dup1\n      0xa110e72d\n      eq\n      tag_12\n      jumpi\n      dup1\n      0xa6156d77\n      eq\n      tag_13\n      jumpi\n      dup1\n      0xe479c244\n      eq\n      tag_14\n      jumpi\n      dup1\n      0xf2fde38b\n      eq\n      tag_15\n      jumpi\n      jump(tag_2)\n    tag_17:\n      dup1\n      0x7c9cd2bc\n      eq\n      tag_9\n      jumpi\n      dup1\n      0x820785cc\n      eq\n      tag_10\n      jumpi\n      dup1\n      0x8da5cb5b\n      eq\n      tag_11\n      jumpi\n      jump(tag_2)\n    tag_16:\n      dup1\n      0x1216cdc5\n      eq\n      tag_3\n      jumpi\n      dup1\n      0x37f36a4c\n      eq\n      tag_4\n      jumpi\n      dup1\n      0x42d7fbc0\n      eq\n      tag_5\n      jumpi\n      dup1\n      0x715018a6\n      eq\n      tag_6\n      jumpi\n      dup1\n      0x71e7eb12\n      eq\n      tag_7\n      jumpi\n      dup1\n      0x765fab45\n      eq\n      tag_8\n      jumpi\n    tag_2:\n      0x00\n      dup1\n      revert\n        /* \"contracts/Twitter0.9v(main).sol\":4740:5368  function LikesTweet(address User, uint256 TweetIndex)... */\n    tag_3:\n      tag_18\n      0x04\n      dup1\n      calldatasize\n      sub\n      dup2\n      add\n      swap1\n      tag_19\n      swap2\n      swap1\n      tag_20\n      jump\t// in\n    tag_19:\n      tag_21\n      jump\t// in\n    tag_18:\n      stop\n        /* \"contracts/Twitter0.9v(main).sol\":4384:4551  function GetTweet(address User, uint256 Index)... */\n    tag_4:\n      tag_22\n      0x04\n      dup1\n      calldatasize\n      sub\n      dup2\n      add\n      swap1\n      tag_23\n      swap2\n      swap1\n      tag_20\n      jump\t// in\n    tag_23:\n      tag_24\n      jump\t// in\n    tag_22:\n      mload(0x40)\n      tag_25\n      swap2\n      swap1\n      tag_26\n      jump\t// in\n    tag_25:\n      mload(0x40)\n      dup1\n      swap2\n      sub\n      swap1\n      return\n        /* \"contracts/Twitter0.9v(main).sol\":4267:4376  function GetAllTweets() public view returns (Tweet[] memory) {... */\n    tag_5:\n      tag_27\n      tag_28\n      jump\t// in\n    tag_27:\n      mload(0x40)\n      tag_29\n      swap2\n      swap1\n      tag_30\n      jump\t// in\n    tag_29:\n      mload(0x40)\n      dup1\n      swap2\n      sub\n      swap1\n      return\n        /* \"@openzeppelin/contracts/access/Ownable.sol\":2293:2394  function renounceOwnership() public virtual onlyOwner {... */\n    tag_6:\n      tag_31\n      tag_32\n      jump\t// in\n    tag_31:\n      stop\n        /* \"contracts/Twitter0.9v(main).sol\":4559:4642  function DeleteRecentTweet() public {... */\n    tag_7:\n      tag_33\n      tag_34\n      jump\t// in\n    tag_33:\n      stop\n        /* \"contracts/Twitter0.9v(main).sol\":4650:4732  function DeleteAllTweets() public {... */\n    tag_8:\n      tag_35\n      tag_36\n      jump\t// in\n    tag_35:\n      stop\n        /* \"contracts/Twitter0.9v(main).sol\":1966:3116  function createTweet(string memory _tweet) public onlyRegistered {... */\n    tag_9:\n      tag_37\n      0x04\n      dup1\n      calldatasize\n      sub\n      dup2\n      add\n      swap1\n      tag_38\n      swap2\n      swap1\n      tag_39\n      jump\t// in\n    tag_38:\n      tag_40\n      jump\t// in\n    tag_37:\n      stop\n        /* \"contracts/Twitter0.9v(main).sol\":5828:6123  function getTotalLikes(address author) external view returns (uint256) {... */\n    tag_10:\n      tag_41\n      0x04\n      dup1\n      calldatasize\n      sub\n      dup2\n      add\n      swap1\n      tag_42\n      swap2\n      swap1\n      tag_43\n      jump\t// in\n    tag_42:\n      tag_44\n      jump\t// in\n    tag_41:\n      mload(0x40)\n      tag_45\n      swap2\n      swap1\n      tag_46\n      jump\t// in\n    tag_45:\n      mload(0x40)\n      dup1\n      swap2\n      sub\n      swap1\n      return\n        /* \"@openzeppelin/contracts/access/Ownable.sol\":1638:1723  function owner() public view virtual returns (address) {... */\n    tag_11:\n      tag_47\n      tag_48\n      jump\t// in\n    tag_47:\n      mload(0x40)\n      tag_49\n      swap2\n      swap1\n      tag_50\n      jump\t// in\n    tag_49:\n      mload(0x40)\n      dup1\n      swap2\n      sub\n      swap1\n      return\n        /* \"contracts/Twitter0.9v(main).sol\":5376:5820  function UnlikeTweet(address User, uint256 TweetIndex)... */\n    tag_12:\n      tag_51\n      0x04\n      dup1\n      calldatasize\n      sub\n      dup2\n      add\n      swap1\n      tag_52\n      swap2\n      swap1\n      tag_20\n      jump\t// in\n    tag_52:\n      tag_53\n      jump\t// in\n    tag_51:\n      stop\n        /* \"contracts/Twitter0.9v(main).sol\":6131:6438  function getTotalUnLikes(address author) external view returns (uint256) {... */\n    tag_13:\n      tag_54\n      0x04\n      dup1\n      calldatasize\n      sub\n      dup2\n      add\n      swap1\n      tag_55\n      swap2\n      swap1\n      tag_43\n      jump\t// in\n    tag_55:\n      tag_56\n      jump\t// in\n    tag_54:\n      mload(0x40)\n      tag_57\n      swap2\n      swap1\n      tag_46\n      jump\t// in\n    tag_57:\n      mload(0x40)\n      dup1\n      swap2\n      sub\n      swap1\n      return\n        /* \"contracts/Twitter0.9v(main).sol\":1782:1890  function ChangeTweetLength(uint256 newTweetLen) public onlyOwner{... */\n    tag_14:\n      tag_58\n      0x04\n      dup1\n      calldatasize\n      sub\n      dup2\n      add\n      swap1\n      tag_59\n      swap2\n      swap1\n      tag_60\n      jump\t// in\n    tag_59:\n      tag_61\n      jump\t// in\n    tag_58:\n      stop\n        /* \"@openzeppelin/contracts/access/Ownable.sol\":2543:2758  function transferOwnership(address newOwner) public virtual onlyOwner {... */\n    tag_15:\n      tag_62\n      0x04\n      dup1\n      calldatasize\n      sub\n      dup2\n      add\n      swap1\n      tag_63\n      swap2\n      swap1\n      tag_43\n      jump\t// in\n    tag_63:\n      tag_64\n      jump\t// in\n    tag_62:\n      stop\n        /* \"contracts/Twitter0.9v(main).sol\":4740:5368  function LikesTweet(address User, uint256 TweetIndex)... */\n    tag_21:\n        /* \"contracts/Twitter0.9v(main).sol\":1542:1585  IProfile.UserProfile memory userProfileTemp */\n      0x00\n        /* \"contracts/Twitter0.9v(main).sol\":1588:1603  profileContract */\n      0x01\n      0x00\n      swap1\n      sload\n      swap1\n      0x0100\n      exp\n      swap1\n      div\n      0xffffffffffffffffffffffffffffffffffffffff\n      and\n        /* \"contracts/Twitter0.9v(main).sol\":1588:1614  profileContract.getProfile */\n      0xffffffffffffffffffffffffffffffffffffffff\n      and\n      0x0f53a470\n        /* \"contracts/Twitter0.9v(main).sol\":1615:1625  msg.sender */\n      caller\n        /* \"contracts/Twitter0.9v(main).sol\":1588:1626  profileContract.getProfile(msg.sender) */\n      mload(0x40)\n      dup3\n      0xffffffff\n      and\n      0xe0\n      shl\n      dup2\n      mstore\n      0x04\n      add\n      tag_66\n      swap2\n      swap1\n      tag_50\n      jump\t// in\n    tag_66:\n      0x00\n      mload(0x40)\n      dup1\n      dup4\n      sub\n      dup2\n      dup7\n      gas\n      staticcall\n      iszero\n      dup1\n      iszero\n      tag_68\n      jumpi\n      returndatasize\n      0x00\n      dup1\n      returndatacopy\n      revert(0x00, returndatasize)\n    tag_68:\n      pop\n      pop\n      pop\n      pop\n      mload(0x40)\n      returndatasize\n      0x00\n      dup3\n      returndatacopy\n      returndatasize\n      not(0x1f)\n      0x1f\n      dup3\n      add\n      and\n      dup3\n      add\n      dup1\n      0x40\n      mstore\n      pop\n      dup2\n      add\n      swap1\n      tag_69\n      swap2\n      swap1\n      tag_70\n      jump\t// in\n    tag_69:\n        /* \"contracts/Twitter0.9v(main).sol\":1542:1626  IProfile.UserProfile memory userProfileTemp = profileContract.getProfile(msg.sender) */\n      swap1\n      pop\n        /* \"contracts/Twitter0.9v(main).sol\":1689:1690  0 */\n      0x00\n        /* \"contracts/Twitter0.9v(main).sol\":1651:1666  userProfileTemp */\n      dup2\n        /* \"contracts/Twitter0.9v(main).sol\":1651:1678  userProfileTemp.displayName */\n      0x00\n      add\n      mload\n        /* \"contracts/Twitter0.9v(main).sol\":1645:1686  bytes(userProfileTemp.displayName).length */\n      mload\n        /* \"contracts/Twitter0.9v(main).sol\":1645:1690  bytes(userProfileTemp.displayName).length > 0 */\n      gt\n        /* \"contracts/Twitter0.9v(main).sol\":1637:1714  require(bytes(userProfileTemp.displayName).length > 0, \"USER NOT REGISTERED\") */\n      tag_71\n      jumpi\n      mload(0x40)\n      0x08c379a000000000000000000000000000000000000000000000000000000000\n      dup2\n      mstore\n      0x04\n      add\n      tag_72\n      swap1\n      tag_73\n      jump\t// in\n    tag_72:\n      mload(0x40)\n      dup1\n      swap2\n      sub\n      swap1\n      revert\n    tag_71:\n        /* \"contracts/Twitter0.9v(main).sol\":4854:4858  User */\n      dup3\n        /* \"contracts/Twitter0.9v(main).sol\":4860:4870  TweetIndex */\n      dup3\n        /* \"contracts/Twitter0.9v(main).sol\":3319:3327  bool res */\n      0x00\n        /* \"contracts/Twitter0.9v(main).sol\":3330:3334  true */\n      0x01\n        /* \"contracts/Twitter0.9v(main).sol\":3319:3334  bool res = true */\n      swap1\n      pop\n        /* \"contracts/Twitter0.9v(main).sol\":3406:3408  id */\n      dup2\n        /* \"contracts/Twitter0.9v(main).sol\":3379:3389  Tweet_info */\n      0x04\n        /* \"contracts/Twitter0.9v(main).sol\":3379:3395  Tweet_info[User] */\n      0x00\n        /* \"contracts/Twitter0.9v(main).sol\":3390:3394  User */\n      dup6\n        /* \"contracts/Twitter0.9v(main).sol\":3379:3395  Tweet_info[User] */\n      0xffffffffffffffffffffffffffffffffffffffff\n      and\n      0xffffffffffffffffffffffffffffffffffffffff\n      and\n      dup2\n      mstore\n      0x20\n      add\n      swap1\n      dup2\n      mstore\n      0x20\n      add\n      0x00\n      keccak256\n        /* \"contracts/Twitter0.9v(main).sol\":3379:3402  Tweet_info[User].length */\n      dup1\n      sload\n      swap1\n      pop\n        /* \"contracts/Twitter0.9v(main).sol\":3379:3408  Tweet_info[User].length >= id */\n      lt\n      iszero\n        /* \"contracts/Twitter0.9v(main).sol\":3371:3435  require(Tweet_info[User].length >= id, \"This Tweet Not Exist !\") */\n      tag_75\n      jumpi\n      mload(0x40)\n      0x08c379a000000000000000000000000000000000000000000000000000000000\n      dup2\n      mstore\n      0x04\n      add\n      tag_76\n      swap1\n      tag_77\n      jump\t// in\n    tag_76:\n      mload(0x40)\n      dup1\n      swap2\n      sub\n      swap1\n      revert\n    tag_75:\n        /* \"contracts/Twitter0.9v(main).sol\":3453:3462  uint256 l */\n      0x00\n        /* \"contracts/Twitter0.9v(main).sol\":3448:3665  for (uint256 l = 0; l < Tweet_info[User][id - 1].likes.length; l++) {... */\n    tag_78:\n        /* \"contracts/Twitter0.9v(main).sol\":3472:3482  Tweet_info */\n      0x04\n        /* \"contracts/Twitter0.9v(main).sol\":3472:3488  Tweet_info[User] */\n      0x00\n        /* \"contracts/Twitter0.9v(main).sol\":3483:3487  User */\n      dup6\n        /* \"contracts/Twitter0.9v(main).sol\":3472:3488  Tweet_info[User] */\n      0xffffffffffffffffffffffffffffffffffffffff\n      and\n      0xffffffffffffffffffffffffffffffffffffffff\n      and\n      dup2\n      mstore\n      0x20\n      add\n      swap1\n      dup2\n      mstore\n      0x20\n      add\n      0x00\n      keccak256\n        /* \"contracts/Twitter0.9v(main).sol\":3494:3495  1 */\n      0x01\n        /* \"contracts/Twitter0.9v(main).sol\":3489:3491  id */\n      dup5\n        /* \"contracts/Twitter0.9v(main).sol\":3489:3495  id - 1 */\n      tag_81\n      swap2\n      swap1\n      tag_82\n      jump\t// in\n    tag_81:\n        /* \"contracts/Twitter0.9v(main).sol\":3472:3496  Tweet_info[User][id - 1] */\n      dup2\n      sload\n      dup2\n      lt\n      tag_83\n      jumpi\n      tag_84\n      tag_85\n      jump\t// in\n    tag_84:\n    tag_83:\n      swap1\n      0x00\n      mstore\n      keccak256(0x00, 0x20)\n      swap1\n      0x08\n      mul\n      add\n        /* \"contracts/Twitter0.9v(main).sol\":3472:3502  Tweet_info[User][id - 1].likes */\n      0x04\n      add\n        /* \"contracts/Twitter0.9v(main).sol\":3472:3509  Tweet_info[User][id - 1].likes.length */\n      dup1\n      sload\n      swap1\n      pop\n        /* \"contracts/Twitter0.9v(main).sol\":3468:3469  l */\n      dup2\n        /* \"contracts/Twitter0.9v(main).sol\":3468:3509  l < Tweet_info[User][id - 1].likes.length */\n      lt\n        /* \"contracts/Twitter0.9v(main).sol\":3448:3665  for (uint256 l = 0; l < Tweet_info[User][id - 1].likes.length; l++) {... */\n      iszero\n      tag_79\n      jumpi\n        /* \"contracts/Twitter0.9v(main).sol\":3572:3582  msg.sender */\n      caller\n        /* \"contracts/Twitter0.9v(main).sol\":3535:3582  Tweet_info[User][id - 1].likes[l] == msg.sender */\n      0xffffffffffffffffffffffffffffffffffffffff\n      and\n        /* \"contracts/Twitter0.9v(main).sol\":3535:3545  Tweet_info */\n      0x04\n        /* \"contracts/Twitter0.9v(main).sol\":3535:3551  Tweet_info[User] */\n      0x00\n        /* \"contracts/Twitter0.9v(main).sol\":3546:3550  User */\n      dup7\n        /* \"contracts/Twitter0.9v(main).sol\":3535:3551  Tweet_info[User] */\n      0xffffffffffffffffffffffffffffffffffffffff\n      and\n      0xffffffffffffffffffffffffffffffffffffffff\n      and\n      dup2\n      mstore\n      0x20\n      add\n      swap1\n      dup2\n      mstore\n      0x20\n      add\n      0x00\n      keccak256\n        /* \"contracts/Twitter0.9v(main).sol\":3557:3558  1 */\n      0x01\n        /* \"contracts/Twitter0.9v(main).sol\":3552:3554  id */\n      dup6\n        /* \"contracts/Twitter0.9v(main).sol\":3552:3558  id - 1 */\n      tag_87\n      swap2\n      swap1\n      tag_82\n      jump\t// in\n    tag_87:\n        /* \"contracts/Twitter0.9v(main).sol\":3535:3559  Tweet_info[User][id - 1] */\n      dup2\n      sload\n      dup2\n      lt\n      tag_88\n      jumpi\n      tag_89\n      tag_85\n      jump\t// in\n    tag_89:\n    tag_88:\n      swap1\n      0x00\n      mstore\n      keccak256(0x00, 0x20)\n      swap1\n      0x08\n      mul\n      add\n        /* \"contracts/Twitter0.9v(main).sol\":3535:3565  Tweet_info[User][id - 1].likes */\n      0x04\n      add\n        /* \"contracts/Twitter0.9v(main).sol\":3566:3567  l */\n      dup3\n        /* \"contracts/Twitter0.9v(main).sol\":3535:3568  Tweet_info[User][id - 1].likes[l] */\n      dup2\n      sload\n      dup2\n      lt\n      tag_91\n      jumpi\n      tag_92\n      tag_85\n      jump\t// in\n    tag_92:\n    tag_91:\n      swap1\n      0x00\n      mstore\n      keccak256(0x00, 0x20)\n      add\n      0x00\n      swap1\n      sload\n      swap1\n      0x0100\n      exp\n      swap1\n      div\n      0xffffffffffffffffffffffffffffffffffffffff\n      and\n        /* \"contracts/Twitter0.9v(main).sol\":3535:3582  Tweet_info[User][id - 1].likes[l] == msg.sender */\n      0xffffffffffffffffffffffffffffffffffffffff\n      and\n      sub\n        /* \"contracts/Twitter0.9v(main).sol\":3531:3654  if (Tweet_info[User][id - 1].likes[l] == msg.sender) {... */\n      tag_94\n      jumpi\n        /* \"contracts/Twitter0.9v(main).sol\":3609:3614  false */\n      0x00\n        /* \"contracts/Twitter0.9v(main).sol\":3603:3614  res = false */\n      swap2\n      pop\n        /* \"contracts/Twitter0.9v(main).sol\":3633:3638  break */\n      jump(tag_79)\n        /* \"contracts/Twitter0.9v(main).sol\":3531:3654  if (Tweet_info[User][id - 1].likes[l] == msg.sender) {... */\n    tag_94:\n        /* \"contracts/Twitter0.9v(main).sol\":3511:3514  l++ */\n      dup1\n      dup1\n      0x01\n      add\n      swap2\n      pop\n      pop\n        /* \"contracts/Twitter0.9v(main).sol\":3448:3665  for (uint256 l = 0; l < Tweet_info[User][id - 1].likes.length; l++) {... */\n      jump(tag_78)\n    tag_79:\n      pop\n        /* \"contracts/Twitter0.9v(main).sol\":3692:3696  true */\n      0x01\n        /* \"contracts/Twitter0.9v(main).sol\":3685:3696  res == true */\n      iszero\n      iszero\n        /* \"contracts/Twitter0.9v(main).sol\":3685:3688  res */\n      dup2\n        /* \"contracts/Twitter0.9v(main).sol\":3685:3696  res == true */\n      iszero\n      iszero\n      eq\n        /* \"contracts/Twitter0.9v(main).sol\":3677:3729  require(res == true, \"You Already Liked the tweet!\") */\n      tag_95\n      jumpi\n      mload(0x40)\n      0x08c379a000000000000000000000000000000000000000000000000000000000\n      dup2\n      mstore\n      0x04\n      add\n      tag_96\n      swap1\n      tag_97\n      jump\t// in\n    tag_96:\n      mload(0x40)\n      dup1\n      swap2\n      sub\n      swap1\n      revert\n    tag_95:\n        /* \"contracts/Twitter0.9v(main).sol\":4901:4905  User */\n      dup6\n        /* \"contracts/Twitter0.9v(main).sol\":4907:4917  TweetIndex */\n      dup6\n        /* \"contracts/Twitter0.9v(main).sol\":3823:3831  bool res */\n      0x00\n        /* \"contracts/Twitter0.9v(main).sol\":3834:3838  true */\n      0x01\n        /* \"contracts/Twitter0.9v(main).sol\":3823:3838  bool res = true */\n      swap1\n      pop\n        /* \"contracts/Twitter0.9v(main).sol\":3910:3912  id */\n      dup2\n        /* \"contracts/Twitter0.9v(main).sol\":3883:3893  Tweet_info */\n      0x04\n        /* \"contracts/Twitter0.9v(main).sol\":3883:3899  Tweet_info[User] */\n      0x00\n        /* \"contracts/Twitter0.9v(main).sol\":3894:3898  User */\n      dup6\n        /* \"contracts/Twitter0.9v(main).sol\":3883:3899  Tweet_info[User] */\n      0xffffffffffffffffffffffffffffffffffffffff\n      and\n      0xffffffffffffffffffffffffffffffffffffffff\n      and\n      dup2\n      mstore\n      0x20\n      add\n      swap1\n      dup2\n      mstore\n      0x20\n      add\n      0x00\n      keccak256\n        /* \"contracts/Twitter0.9v(main).sol\":3883:3906  Tweet_info[User].length */\n      dup1\n      sload\n      swap1\n      pop\n        /* \"contracts/Twitter0.9v(main).sol\":3883:3912  Tweet_info[User].length >= id */\n      lt\n      iszero\n        /* \"contracts/Twitter0.9v(main).sol\":3875:3939  require(Tweet_info[User].length >= id, \"This Tweet Not Exist !\") */\n      tag_99\n      jumpi\n      mload(0x40)\n      0x08c379a000000000000000000000000000000000000000000000000000000000\n      dup2\n      mstore\n      0x04\n      add\n      tag_100\n      swap1\n      tag_77\n      jump\t// in\n    tag_100:\n      mload(0x40)\n      dup1\n      swap2\n      sub\n      swap1\n      revert\n    tag_99:\n        /* \"contracts/Twitter0.9v(main).sol\":3957:3966  uint256 l */\n      0x00\n        /* \"contracts/Twitter0.9v(main).sol\":3952:4173  for (uint256 l = 0; l < Tweet_info[User][id - 1].unlikes.length; l++) {... */\n    tag_101:\n        /* \"contracts/Twitter0.9v(main).sol\":3976:3986  Tweet_info */\n      0x04\n        /* \"contracts/Twitter0.9v(main).sol\":3976:3992  Tweet_info[User] */\n      0x00\n        /* \"contracts/Twitter0.9v(main).sol\":3987:3991  User */\n      dup6\n        /* \"contracts/Twitter0.9v(main).sol\":3976:3992  Tweet_info[User] */\n      0xffffffffffffffffffffffffffffffffffffffff\n      and\n      0xffffffffffffffffffffffffffffffffffffffff\n      and\n      dup2\n      mstore\n      0x20\n      add\n      swap1\n      dup2\n      mstore\n      0x20\n      add\n      0x00\n      keccak256\n        /* \"contracts/Twitter0.9v(main).sol\":3998:3999  1 */\n      0x01\n        /* \"contracts/Twitter0.9v(main).sol\":3993:3995  id */\n      dup5\n        /* \"contracts/Twitter0.9v(main).sol\":3993:3999  id - 1 */\n      tag_104\n      swap2\n      swap1\n      tag_82\n      jump\t// in\n    tag_104:\n        /* \"contracts/Twitter0.9v(main).sol\":3976:4000  Tweet_info[User][id - 1] */\n      dup2\n      sload\n      dup2\n      lt\n      tag_105\n      jumpi\n      tag_106\n      tag_85\n      jump\t// in\n    tag_106:\n    tag_105:\n      swap1\n      0x00\n      mstore\n      keccak256(0x00, 0x20)\n      swap1\n      0x08\n      mul\n      add\n        /* \"contracts/Twitter0.9v(main).sol\":3976:4008  Tweet_info[User][id - 1].unlikes */\n      0x07\n      add\n        /* \"contracts/Twitter0.9v(main).sol\":3976:4015  Tweet_info[User][id - 1].unlikes.length */\n      dup1\n      sload\n      swap1\n      pop\n        /* \"contracts/Twitter0.9v(main).sol\":3972:3973  l */\n      dup2\n        /* \"contracts/Twitter0.9v(main).sol\":3972:4015  l < Tweet_info[User][id - 1].unlikes.length */\n      lt\n        /* \"contracts/Twitter0.9v(main).sol\":3952:4173  for (uint256 l = 0; l < Tweet_info[User][id - 1].unlikes.length; l++) {... */\n      iszero\n      tag_102\n      jumpi\n        /* \"contracts/Twitter0.9v(main).sol\":4080:4090  msg.sender */\n      caller\n        /* \"contracts/Twitter0.9v(main).sol\":4041:4090  Tweet_info[User][id - 1].unlikes[l] == msg.sender */\n      0xffffffffffffffffffffffffffffffffffffffff\n      and\n        /* \"contracts/Twitter0.9v(main).sol\":4041:4051  Tweet_info */\n      0x04\n        /* \"contracts/Twitter0.9v(main).sol\":4041:4057  Tweet_info[User] */\n      0x00\n        /* \"contracts/Twitter0.9v(main).sol\":4052:4056  User */\n      dup7\n        /* \"contracts/Twitter0.9v(main).sol\":4041:4057  Tweet_info[User] */\n      0xffffffffffffffffffffffffffffffffffffffff\n      and\n      0xffffffffffffffffffffffffffffffffffffffff\n      and\n      dup2\n      mstore\n      0x20\n      add\n      swap1\n      dup2\n      mstore\n      0x20\n      add\n      0x00\n      keccak256\n        /* \"contracts/Twitter0.9v(main).sol\":4063:4064  1 */\n      0x01\n        /* \"contracts/Twitter0.9v(main).sol\":4058:4060  id */\n      dup6\n        /* \"contracts/Twitter0.9v(main).sol\":4058:4064  id - 1 */\n      tag_108\n      swap2\n      swap1\n      tag_82\n      jump\t// in\n    tag_108:\n        /* \"contracts/Twitter0.9v(main).sol\":4041:4065  Tweet_info[User][id - 1] */\n      dup2\n      sload\n      dup2\n      lt\n      tag_109\n      jumpi\n      tag_110\n      tag_85\n      jump\t// in\n    tag_110:\n    tag_109:\n      swap1\n      0x00\n      mstore\n      keccak256(0x00, 0x20)\n      swap1\n      0x08\n      mul\n      add\n        /* \"contracts/Twitter0.9v(main).sol\":4041:4073  Tweet_info[User][id - 1].unlikes */\n      0x07\n      add\n        /* \"contracts/Twitter0.9v(main).sol\":4074:4075  l */\n      dup3\n        /* \"contracts/Twitter0.9v(main).sol\":4041:4076  Tweet_info[User][id - 1].unlikes[l] */\n      dup2\n      sload\n      dup2\n      lt\n      tag_112\n      jumpi\n      tag_113\n      tag_85\n      jump\t// in\n    tag_113:\n    tag_112:\n      swap1\n      0x00\n      mstore\n      keccak256(0x00, 0x20)\n      add\n      0x00\n      swap1\n      sload\n      swap1\n      0x0100\n      exp\n      swap1\n      div\n      0xffffffffffffffffffffffffffffffffffffffff\n      and\n        /* \"contracts/Twitter0.9v(main).sol\":4041:4090  Tweet_info[User][id - 1].unlikes[l] == msg.sender */\n      0xffffffffffffffffffffffffffffffffffffffff\n      and\n      sub\n        /* \"contracts/Twitter0.9v(main).sol\":4037:4162  if (Tweet_info[User][id - 1].unlikes[l] == msg.sender) {... */\n      tag_115\n      jumpi\n        /* \"contracts/Twitter0.9v(main).sol\":4117:4122  false */\n      0x00\n        /* \"contracts/Twitter0.9v(main).sol\":4111:4122  res = false */\n      swap2\n      pop\n        /* \"contracts/Twitter0.9v(main).sol\":4141:4146  break */\n      jump(tag_102)\n        /* \"contracts/Twitter0.9v(main).sol\":4037:4162  if (Tweet_info[User][id - 1].unlikes[l] == msg.sender) {... */\n    tag_115:\n        /* \"contracts/Twitter0.9v(main).sol\":4017:4020  l++ */\n      dup1\n      dup1\n      0x01\n      add\n      swap2\n      pop\n      pop\n        /* \"contracts/Twitter0.9v(main).sol\":3952:4173  for (uint256 l = 0; l < Tweet_info[User][id - 1].unlikes.length; l++) {... */\n      jump(tag_101)\n    tag_102:\n      pop\n        /* \"contracts/Twitter0.9v(main).sol\":4200:4204  true */\n      0x01\n        /* \"contracts/Twitter0.9v(main).sol\":4193:4204  res == true */\n      iszero\n      iszero\n        /* \"contracts/Twitter0.9v(main).sol\":4193:4196  res */\n      dup2\n        /* \"contracts/Twitter0.9v(main).sol\":4193:4204  res == true */\n      iszero\n      iszero\n      eq\n        /* \"contracts/Twitter0.9v(main).sol\":4185:4239  require(res == true, \"You Already UnLiked the tweet!\") */\n      tag_116\n      jumpi\n      mload(0x40)\n      0x08c379a000000000000000000000000000000000000000000000000000000000\n      dup2\n      mstore\n      0x04\n      add\n      tag_117\n      swap1\n      tag_118\n      jump\t// in\n    tag_117:\n      mload(0x40)\n      dup1\n      swap2\n      sub\n      swap1\n      revert\n    tag_116:\n        /* \"contracts/Twitter0.9v(main).sol\":4965:4975  msg.sender */\n      caller\n        /* \"contracts/Twitter0.9v(main).sol\":4957:4975  User != msg.sender */\n      0xffffffffffffffffffffffffffffffffffffffff\n      and\n        /* \"contracts/Twitter0.9v(main).sol\":4957:4961  User */\n      dup10\n        /* \"contracts/Twitter0.9v(main).sol\":4957:4975  User != msg.sender */\n      0xffffffffffffffffffffffffffffffffffffffff\n      and\n      sub\n        /* \"contracts/Twitter0.9v(main).sol\":4935:5049  require(... */\n      tag_120\n      jumpi\n      mload(0x40)\n      0x08c379a000000000000000000000000000000000000000000000000000000000\n      dup2\n      mstore\n      0x04\n      add\n      tag_121\n      swap1\n      tag_122\n      jump\t// in\n    tag_121:\n      mload(0x40)\n      dup1\n      swap2\n      sub\n      swap1\n      revert\n    tag_120:\n        /* \"contracts/Twitter0.9v(main).sol\":5060:5070  Tweet_info */\n      0x04\n        /* \"contracts/Twitter0.9v(main).sol\":5060:5076  Tweet_info[User] */\n      0x00\n        /* \"contracts/Twitter0.9v(main).sol\":5071:5075  User */\n      dup11\n        /* \"contracts/Twitter0.9v(main).sol\":5060:5076  Tweet_info[User] */\n      0xffffffffffffffffffffffffffffffffffffffff\n      and\n      0xffffffffffffffffffffffffffffffffffffffff\n      and\n      dup2\n      mstore\n      0x20\n      add\n      swap1\n      dup2\n      mstore\n      0x20\n      add\n      0x00\n      keccak256\n        /* \"contracts/Twitter0.9v(main).sol\":5090:5091  1 */\n      0x01\n        /* \"contracts/Twitter0.9v(main).sol\":5077:5087  TweetIndex */\n      dup10\n        /* \"contracts/Twitter0.9v(main).sol\":5077:5091  TweetIndex - 1 */\n      tag_123\n      swap2\n      swap1\n      tag_82\n      jump\t// in\n    tag_123:\n        /* \"contracts/Twitter0.9v(main).sol\":5060:5092  Tweet_info[User][TweetIndex - 1] */\n      dup2\n      sload\n      dup2\n      lt\n      tag_124\n      jumpi\n      tag_125\n      tag_85\n      jump\t// in\n    tag_125:\n    tag_124:\n      swap1\n      0x00\n      mstore\n      keccak256(0x00, 0x20)\n      swap1\n      0x08\n      mul\n      add\n        /* \"contracts/Twitter0.9v(main).sol\":5060:5098  Tweet_info[User][TweetIndex - 1].likes */\n      0x04\n      add\n        /* \"contracts/Twitter0.9v(main).sol\":5104:5114  msg.sender */\n      caller\n        /* \"contracts/Twitter0.9v(main).sol\":5060:5115  Tweet_info[User][TweetIndex - 1].likes.push(msg.sender) */\n      swap1\n      dup1\n      0x01\n      dup2\n      sload\n      add\n      dup1\n      dup3\n      sstore\n      dup1\n      swap2\n      pop\n      pop\n      0x01\n      swap1\n      sub\n      swap1\n      0x00\n      mstore\n      keccak256(0x00, 0x20)\n      add\n      0x00\n      swap1\n      swap2\n      swap1\n      swap2\n      swap1\n      swap2\n      0x0100\n      exp\n      dup2\n      sload\n      dup2\n      0xffffffffffffffffffffffffffffffffffffffff\n      mul\n      not\n      and\n      swap1\n      dup4\n      0xffffffffffffffffffffffffffffffffffffffff\n      and\n      mul\n      or\n      swap1\n      sstore\n      pop\n        /* \"contracts/Twitter0.9v(main).sol\":5126:5136  Tweet_info */\n      0x04\n        /* \"contracts/Twitter0.9v(main).sol\":5126:5142  Tweet_info[User] */\n      0x00\n        /* \"contracts/Twitter0.9v(main).sol\":5137:5141  User */\n      dup11\n        /* \"contracts/Twitter0.9v(main).sol\":5126:5142  Tweet_info[User] */\n      0xffffffffffffffffffffffffffffffffffffffff\n      and\n      0xffffffffffffffffffffffffffffffffffffffff\n      and\n      dup2\n      mstore\n      0x20\n      add\n      swap1\n      dup2\n      mstore\n      0x20\n      add\n      0x00\n      keccak256\n        /* \"contracts/Twitter0.9v(main).sol\":5156:5157  1 */\n      0x01\n        /* \"contracts/Twitter0.9v(main).sol\":5143:5153  TweetIndex */\n      dup10\n        /* \"contracts/Twitter0.9v(main).sol\":5143:5157  TweetIndex - 1 */\n      tag_128\n      swap2\n      swap1\n      tag_82\n      jump\t// in\n    tag_128:\n        /* \"contracts/Twitter0.9v(main).sol\":5126:5158  Tweet_info[User][TweetIndex - 1] */\n      dup2\n      sload\n      dup2\n      lt\n      tag_129\n      jumpi\n      tag_130\n      tag_85\n      jump\t// in\n    tag_130:\n    tag_129:\n      swap1\n      0x00\n      mstore\n      keccak256(0x00, 0x20)\n      swap1\n      0x08\n      mul\n      add\n        /* \"contracts/Twitter0.9v(main).sol\":5126:5169  Tweet_info[User][TweetIndex - 1].LikesCount */\n      0x05\n      add\n      0x00\n        /* \"contracts/Twitter0.9v(main).sol\":5126:5171  Tweet_info[User][TweetIndex - 1].LikesCount++ */\n      dup2\n      sload\n      dup1\n      swap3\n      swap2\n      swap1\n      tag_132\n      swap1\n      tag_133\n      jump\t// in\n    tag_132:\n      swap2\n      swap1\n      pop\n      sstore\n      pop\n        /* \"contracts/Twitter0.9v(main).sol\":5187:5360  TweetLiked(... */\n      0xe8a76fc0f16d11a00d1e93b689b63d76cf60af914dd3d915375dc41d01a0c3c8\n        /* \"contracts/Twitter0.9v(main).sol\":5212:5222  msg.sender */\n      caller\n        /* \"contracts/Twitter0.9v(main).sol\":5237:5241  User */\n      dup11\n        /* \"contracts/Twitter0.9v(main).sol\":5256:5266  Tweet_info */\n      0x04\n        /* \"contracts/Twitter0.9v(main).sol\":5256:5272  Tweet_info[User] */\n      0x00\n        /* \"contracts/Twitter0.9v(main).sol\":5267:5271  User */\n      dup14\n        /* \"contracts/Twitter0.9v(main).sol\":5256:5272  Tweet_info[User] */\n      0xffffffffffffffffffffffffffffffffffffffff\n      and\n      0xffffffffffffffffffffffffffffffffffffffff\n      and\n      dup2\n      mstore\n      0x20\n      add\n      swap1\n      dup2\n      mstore\n      0x20\n      add\n      0x00\n      keccak256\n        /* \"contracts/Twitter0.9v(main).sol\":5286:5287  1 */\n      0x01\n        /* \"contracts/Twitter0.9v(main).sol\":5273:5283  TweetIndex */\n      dup13\n        /* \"contracts/Twitter0.9v(main).sol\":5273:5287  TweetIndex - 1 */\n      tag_134\n      swap2\n      swap1\n      tag_82\n      jump\t// in\n    tag_134:\n        /* \"contracts/Twitter0.9v(main).sol\":5256:5288  Tweet_info[User][TweetIndex - 1] */\n      dup2\n      sload\n      dup2\n      lt\n      tag_135\n      jumpi\n      tag_136\n      tag_85\n      jump\t// in\n    tag_136:\n    tag_135:\n      swap1\n      0x00\n      mstore\n      keccak256(0x00, 0x20)\n      swap1\n      0x08\n      mul\n      add\n        /* \"contracts/Twitter0.9v(main).sol\":5256:5299  Tweet_info[User][TweetIndex - 1].LikesCount */\n      0x05\n      add\n      sload\n        /* \"contracts/Twitter0.9v(main).sol\":5314:5324  Tweet_info */\n      0x04\n        /* \"contracts/Twitter0.9v(main).sol\":5314:5330  Tweet_info[User] */\n      0x00\n        /* \"contracts/Twitter0.9v(main).sol\":5325:5329  User */\n      dup15\n        /* \"contracts/Twitter0.9v(main).sol\":5314:5330  Tweet_info[User] */\n      0xffffffffffffffffffffffffffffffffffffffff\n      and\n      0xffffffffffffffffffffffffffffffffffffffff\n      and\n      dup2\n      mstore\n      0x20\n      add\n      swap1\n      dup2\n      mstore\n      0x20\n      add\n      0x00\n      keccak256\n        /* \"contracts/Twitter0.9v(main).sol\":5344:5345  1 */\n      0x01\n        /* \"contracts/Twitter0.9v(main).sol\":5331:5341  TweetIndex */\n      dup14\n        /* \"contracts/Twitter0.9v(main).sol\":5331:5345  TweetIndex - 1 */\n      tag_138\n      swap2\n      swap1\n      tag_82\n      jump\t// in\n    tag_138:\n        /* \"contracts/Twitter0.9v(main).sol\":5314:5346  Tweet_info[User][TweetIndex - 1] */\n      dup2\n      sload\n      dup2\n      lt\n      tag_139\n      jumpi\n      tag_140\n      tag_85\n      jump\t// in\n    tag_140:\n    tag_139:\n      swap1\n      0x00\n      mstore\n      keccak256(0x00, 0x20)\n      swap1\n      0x08\n      mul\n      add\n        /* \"contracts/Twitter0.9v(main).sol\":5314:5349  Tweet_info[User][TweetIndex - 1].id */\n      0x00\n      add\n      sload\n        /* \"contracts/Twitter0.9v(main).sol\":5187:5360  TweetLiked(... */\n      mload(0x40)\n      tag_142\n      swap5\n      swap4\n      swap3\n      swap2\n      swap1\n      tag_143\n      jump\t// in\n    tag_142:\n      mload(0x40)\n      dup1\n      swap2\n      sub\n      swap1\n      log1\n        /* \"contracts/Twitter0.9v(main).sol\":3812:4259  {... */\n      pop\n        /* \"contracts/Twitter0.9v(main).sol\":3740:3741  _ */\n      pop\n      pop\n        /* \"contracts/Twitter0.9v(main).sol\":3308:3749  {... */\n      pop\n        /* \"contracts/Twitter0.9v(main).sol\":1725:1726  _ */\n      pop\n      pop\n        /* \"contracts/Twitter0.9v(main).sol\":1531:1734  {... */\n      pop\n        /* \"contracts/Twitter0.9v(main).sol\":4740:5368  function LikesTweet(address User, uint256 TweetIndex)... */\n      pop\n      pop\n      jump\t// out\n        /* \"contracts/Twitter0.9v(main).sol\":4384:4551  function GetTweet(address User, uint256 Index)... */\n    tag_24:\n        /* \"contracts/Twitter0.9v(main).sol\":4479:4491  Tweet memory */\n      tag_144\n      tag_145\n      jump\t// in\n    tag_144:\n        /* \"contracts/Twitter0.9v(main).sol\":4516:4526  Tweet_info */\n      0x04\n        /* \"contracts/Twitter0.9v(main).sol\":4516:4532  Tweet_info[User] */\n      0x00\n        /* \"contracts/Twitter0.9v(main).sol\":4527:4531  User */\n      dup5\n        /* \"contracts/Twitter0.9v(main).sol\":4516:4532  Tweet_info[User] */\n      0xffffffffffffffffffffffffffffffffffffffff\n      and\n      0xffffffffffffffffffffffffffffffffffffffff\n      and\n      dup2\n      mstore\n      0x20\n      add\n      swap1\n      dup2\n      mstore\n      0x20\n      add\n      0x00\n      keccak256\n        /* \"contracts/Twitter0.9v(main).sol\":4541:4542  1 */\n      0x01\n        /* \"contracts/Twitter0.9v(main).sol\":4533:4538  Index */\n      dup4\n        /* \"contracts/Twitter0.9v(main).sol\":4533:4542  Index - 1 */\n      tag_147\n      swap2\n      swap1\n      tag_82\n      jump\t// in\n    tag_147:\n        /* \"contracts/Twitter0.9v(main).sol\":4516:4543  Tweet_info[User][Index - 1] */\n      dup2\n      sload\n      dup2\n      lt\n      tag_148\n      jumpi\n      tag_149\n      tag_85\n      jump\t// in\n    tag_149:\n    tag_148:\n      swap1\n      0x00\n      mstore\n      keccak256(0x00, 0x20)\n      swap1\n      0x08\n      mul\n      add\n        /* \"contracts/Twitter0.9v(main).sol\":4509:4543  return Tweet_info[User][Index - 1] */\n      mload(0x40)\n      dup1\n      0x0100\n      add\n      0x40\n      mstore\n      swap1\n      dup2\n      0x00\n      dup3\n      add\n      sload\n      dup2\n      mstore\n      0x20\n      add\n      0x01\n      dup3\n      add\n      dup1\n      sload\n      tag_151\n      swap1\n      tag_152\n      jump\t// in\n    tag_151:\n      dup1\n      0x1f\n      add\n      0x20\n      dup1\n      swap2\n      div\n      mul\n      0x20\n      add\n      mload(0x40)\n      swap1\n      dup2\n      add\n      0x40\n      mstore\n      dup1\n      swap3\n      swap2\n      swap1\n      dup2\n      dup2\n      mstore\n      0x20\n      add\n      dup3\n      dup1\n      sload\n      tag_153\n      swap1\n      tag_152\n      jump\t// in\n    tag_153:\n      dup1\n      iszero\n      tag_154\n      jumpi\n      dup1\n      0x1f\n      lt\n      tag_155\n      jumpi\n      0x0100\n      dup1\n      dup4\n      sload\n      div\n      mul\n      dup4\n      mstore\n      swap2\n      0x20\n      add\n      swap2\n      jump(tag_154)\n    tag_155:\n      dup3\n      add\n      swap2\n      swap1\n      0x00\n      mstore\n      keccak256(0x00, 0x20)\n      swap1\n    tag_156:\n      dup2\n      sload\n      dup2\n      mstore\n      swap1\n      0x01\n      add\n      swap1\n      0x20\n      add\n      dup1\n      dup4\n      gt\n      tag_156\n      jumpi\n      dup3\n      swap1\n      sub\n      0x1f\n      and\n      dup3\n      add\n      swap2\n    tag_154:\n      pop\n      pop\n      pop\n      pop\n      pop\n      dup2\n      mstore\n      0x20\n      add\n      0x02\n      dup3\n      add\n      0x00\n      swap1\n      sload\n      swap1\n      0x0100\n      exp\n      swap1\n      div\n      0xffffffffffffffffffffffffffffffffffffffff\n      and\n      0xffffffffffffffffffffffffffffffffffffffff\n      and\n      0xffffffffffffffffffffffffffffffffffffffff\n      and\n      dup2\n      mstore\n      0x20\n      add\n      0x03\n      dup3\n      add\n      sload\n      dup2\n      mstore\n      0x20\n      add\n      0x04\n      dup3\n      add\n      dup1\n      sload\n      dup1\n      0x20\n      mul\n      0x20\n      add\n      mload(0x40)\n      swap1\n      dup2\n      add\n      0x40\n      mstore\n      dup1\n      swap3\n      swap2\n      swap1\n      dup2\n      dup2\n      mstore\n      0x20\n      add\n      dup3\n      dup1\n      sload\n      dup1\n      iszero\n      tag_157\n      jumpi\n      0x20\n      mul\n      dup3\n      add\n      swap2\n      swap1\n      0x00\n      mstore\n      keccak256(0x00, 0x20)\n      swap1\n    tag_158:\n      dup2\n      0x00\n      swap1\n      sload\n      swap1\n      0x0100\n      exp\n      swap1\n      div\n      0xffffffffffffffffffffffffffffffffffffffff\n      and\n      0xffffffffffffffffffffffffffffffffffffffff\n      and\n      dup2\n      mstore\n      0x20\n      add\n      swap1\n      0x01\n      add\n      swap1\n      dup1\n      dup4\n      gt\n      tag_158\n      jumpi\n    tag_157:\n      pop\n      pop\n      pop\n      pop\n      pop\n      dup2\n      mstore\n      0x20\n      add\n      0x05\n      dup3\n      add\n      sload\n      dup2\n      mstore\n      0x20\n      add\n      0x06\n      dup3\n      add\n      sload\n      dup2\n      mstore\n      0x20\n      add\n      0x07\n      dup3\n      add\n      dup1\n      sload\n      dup1\n      0x20\n      mul\n      0x20\n      add\n      mload(0x40)\n      swap1\n      dup2\n      add\n      0x40\n      mstore\n      dup1\n      swap3\n      swap2\n      swap1\n      dup2\n      dup2\n      mstore\n      0x20\n      add\n      dup3\n      dup1\n      sload\n      dup1\n      iszero\n      tag_159\n      jumpi\n      0x20\n      mul\n      dup3\n      add\n      swap2\n      swap1\n      0x00\n      mstore\n      keccak256(0x00, 0x20)\n      swap1\n    tag_160:\n      dup2\n      0x00\n      swap1\n      sload\n      swap1\n      0x0100\n      exp\n      swap1\n      div\n      0xffffffffffffffffffffffffffffffffffffffff\n      and\n      0xffffffffffffffffffffffffffffffffffffffff\n      and\n      dup2\n      mstore\n      0x20\n      add\n      swap1\n      0x01\n      add\n      swap1\n      dup1\n      dup4\n      gt\n      tag_160\n      jumpi\n    tag_159:\n      pop\n      pop\n      pop\n      pop\n      pop\n      dup2\n      mstore\n      pop\n      pop\n      swap1\n      pop\n        /* \"contracts/Twitter0.9v(main).sol\":4384:4551  function GetTweet(address User, uint256 Index)... */\n      swap3\n      swap2\n      pop\n      pop\n      jump\t// out\n        /* \"contracts/Twitter0.9v(main).sol\":4267:4376  function GetAllTweets() public view returns (Tweet[] memory) {... */\n    tag_28:\n        /* \"contracts/Twitter0.9v(main).sol\":4312:4326  Tweet[] memory */\n      0x60\n        /* \"contracts/Twitter0.9v(main).sol\":4346:4356  Tweet_info */\n      0x04\n        /* \"contracts/Twitter0.9v(main).sol\":4346:4368  Tweet_info[msg.sender] */\n      0x00\n        /* \"contracts/Twitter0.9v(main).sol\":4357:4367  msg.sender */\n      caller\n        /* \"contracts/Twitter0.9v(main).sol\":4346:4368  Tweet_info[msg.sender] */\n      0xffffffffffffffffffffffffffffffffffffffff\n      and\n      0xffffffffffffffffffffffffffffffffffffffff\n      and\n      dup2\n      mstore\n      0x20\n      add\n      swap1\n      dup2\n      mstore\n      0x20\n      add\n      0x00\n      keccak256\n        /* \"contracts/Twitter0.9v(main).sol\":4339:4368  return Tweet_info[msg.sender] */\n      dup1\n      sload\n      dup1\n      0x20\n      mul\n      0x20\n      add\n      mload(0x40)\n      swap1\n      dup2\n      add\n      0x40\n      mstore\n      dup1\n      swap3\n      swap2\n      swap1\n      dup2\n      dup2\n      mstore\n      0x20\n      add\n      0x00\n      swap1\n    tag_162:\n      dup3\n      dup3\n      lt\n      iszero\n      tag_163\n      jumpi\n      dup4\n      dup3\n      swap1\n      0x00\n      mstore\n      keccak256(0x00, 0x20)\n      swap1\n      0x08\n      mul\n      add\n      mload(0x40)\n      dup1\n      0x0100\n      add\n      0x40\n      mstore\n      swap1\n      dup2\n      0x00\n      dup3\n      add\n      sload\n      dup2\n      mstore\n      0x20\n      add\n      0x01\n      dup3\n      add\n      dup1\n      sload\n      tag_165\n      swap1\n      tag_152\n      jump\t// in\n    tag_165:\n      dup1\n      0x1f\n      add\n      0x20\n      dup1\n      swap2\n      div\n      mul\n      0x20\n      add\n      mload(0x40)\n      swap1\n      dup2\n      add\n      0x40\n      mstore\n      dup1\n      swap3\n      swap2\n      swap1\n      dup2\n      dup2\n      mstore\n      0x20\n      add\n      dup3\n      dup1\n      sload\n      tag_166\n      swap1\n      tag_152\n      jump\t// in\n    tag_166:\n      dup1\n      iszero\n      tag_167\n      jumpi\n      dup1\n      0x1f\n      lt\n      tag_168\n      jumpi\n      0x0100\n      dup1\n      dup4\n      sload\n      div\n      mul\n      dup4\n      mstore\n      swap2\n      0x20\n      add\n      swap2\n      jump(tag_167)\n    tag_168:\n      dup3\n      add\n      swap2\n      swap1\n      0x00\n      mstore\n      keccak256(0x00, 0x20)\n      swap1\n    tag_169:\n      dup2\n      sload\n      dup2\n      mstore\n      swap1\n      0x01\n      add\n      swap1\n      0x20\n      add\n      dup1\n      dup4\n      gt\n      tag_169\n      jumpi\n      dup3\n      swap1\n      sub\n      0x1f\n      and\n      dup3\n      add\n      swap2\n    tag_167:\n      pop\n      pop\n      pop\n      pop\n      pop\n      dup2\n      mstore\n      0x20\n      add\n      0x02\n      dup3\n      add\n      0x00\n      swap1\n      sload\n      swap1\n      0x0100\n      exp\n      swap1\n      div\n      0xffffffffffffffffffffffffffffffffffffffff\n      and\n      0xffffffffffffffffffffffffffffffffffffffff\n      and\n      0xffffffffffffffffffffffffffffffffffffffff\n      and\n      dup2\n      mstore\n      0x20\n      add\n      0x03\n      dup3\n      add\n      sload\n      dup2\n      mstore\n      0x20\n      add\n      0x04\n      dup3\n      add\n      dup1\n      sload\n      dup1\n      0x20\n      mul\n      0x20\n      add\n      mload(0x40)\n      swap1\n      dup2\n      add\n      0x40\n      mstore\n      dup1\n      swap3\n      swap2\n      swap1\n      dup2\n      dup2\n      mstore\n      0x20\n      add\n      dup3\n      dup1\n      sload\n      dup1\n      iszero\n      tag_170\n      jumpi\n      0x20\n      mul\n      dup3\n      add\n      swap2\n      swap1\n      0x00\n      mstore\n      keccak256(0x00, 0x20)\n      swap1\n    tag_171:\n      dup2\n      0x00\n      swap1\n      sload\n      swap1\n      0x0100\n      exp\n      swap1\n      div\n      0xffffffffffffffffffffffffffffffffffffffff\n      and\n      0xffffffffffffffffffffffffffffffffffffffff\n      and\n      dup2\n      mstore\n      0x20\n      add\n      swap1\n      0x01\n      add\n      swap1\n      dup1\n      dup4\n      gt\n      tag_171\n      jumpi\n    tag_170:\n      pop\n      pop\n      pop\n      pop\n      pop\n      dup2\n      mstore\n      0x20\n      add\n      0x05\n      dup3\n      add\n      sload\n      dup2\n      mstore\n      0x20\n      add\n      0x06\n      dup3\n      add\n      sload\n      dup2\n      mstore\n      0x20\n      add\n      0x07\n      dup3\n      add\n      dup1\n      sload\n      dup1\n      0x20\n      mul\n      0x20\n      add\n      mload(0x40)\n      swap1\n      dup2\n      add\n      0x40\n      mstore\n      dup1\n      swap3\n      swap2\n      swap1\n      dup2\n      dup2\n      mstore\n      0x20\n      add\n      dup3\n      dup1\n      sload\n      dup1\n      iszero\n      tag_172\n      jumpi\n      0x20\n      mul\n      dup3\n      add\n      swap2\n      swap1\n      0x00\n      mstore\n      keccak256(0x00, 0x20)\n      swap1\n    tag_173:\n      dup2\n      0x00\n      swap1\n      sload\n      swap1\n      0x0100\n      exp\n      swap1\n      div\n      0xffffffffffffffffffffffffffffffffffffffff\n      and\n      0xffffffffffffffffffffffffffffffffffffffff\n      and\n      dup2\n      mstore\n      0x20\n      add\n      swap1\n      0x01\n      add\n      swap1\n      dup1\n      dup4\n      gt\n      tag_173\n      jumpi\n    tag_172:\n      pop\n      pop\n      pop\n      pop\n      pop\n      dup2\n      mstore\n      pop\n      pop\n      dup2\n      mstore\n      0x20\n      add\n      swap1\n      0x01\n      add\n      swap1\n      jump(tag_162)\n    tag_163:\n      pop\n      pop\n      pop\n      pop\n      swap1\n      pop\n        /* \"contracts/Twitter0.9v(main).sol\":4267:4376  function GetAllTweets() public view returns (Tweet[] memory) {... */\n      swap1\n      jump\t// out\n        /* \"@openzeppelin/contracts/access/Ownable.sol\":2293:2394  function renounceOwnership() public virtual onlyOwner {... */\n    tag_32:\n        /* \"@openzeppelin/contracts/access/Ownable.sol\":1531:1544  _checkOwner() */\n      tag_175\n        /* \"@openzeppelin/contracts/access/Ownable.sol\":1531:1542  _checkOwner */\n      tag_176\n        /* \"@openzeppelin/contracts/access/Ownable.sol\":1531:1544  _checkOwner() */\n      jump\t// in\n    tag_175:\n        /* \"@openzeppelin/contracts/access/Ownable.sol\":2357:2387  _transferOwnership(address(0)) */\n      tag_178\n        /* \"@openzeppelin/contracts/access/Ownable.sol\":2384:2385  0 */\n      0x00\n        /* \"@openzeppelin/contracts/access/Ownable.sol\":2357:2375  _transferOwnership */\n      tag_179\n        /* \"@openzeppelin/contracts/access/Ownable.sol\":2357:2387  _transferOwnership(address(0)) */\n      jump\t// in\n    tag_178:\n        /* \"@openzeppelin/contracts/access/Ownable.sol\":2293:2394  function renounceOwnership() public virtual onlyOwner {... */\n      jump\t// out\n        /* \"contracts/Twitter0.9v(main).sol\":4559:4642  function DeleteRecentTweet() public {... */\n    tag_34:\n        /* \"contracts/Twitter0.9v(main).sol\":4606:4616  Tweet_info */\n      0x04\n        /* \"contracts/Twitter0.9v(main).sol\":4606:4628  Tweet_info[msg.sender] */\n      0x00\n        /* \"contracts/Twitter0.9v(main).sol\":4617:4627  msg.sender */\n      caller\n        /* \"contracts/Twitter0.9v(main).sol\":4606:4628  Tweet_info[msg.sender] */\n      0xffffffffffffffffffffffffffffffffffffffff\n      and\n      0xffffffffffffffffffffffffffffffffffffffff\n      and\n      dup2\n      mstore\n      0x20\n      add\n      swap1\n      dup2\n      mstore\n      0x20\n      add\n      0x00\n      keccak256\n        /* \"contracts/Twitter0.9v(main).sol\":4606:4634  Tweet_info[msg.sender].pop() */\n      dup1\n      sload\n      dup1\n      tag_181\n      jumpi\n      tag_182\n      tag_183\n      jump\t// in\n    tag_182:\n    tag_181:\n      0x01\n      swap1\n      sub\n      dup2\n      dup2\n      swap1\n      0x00\n      mstore\n      keccak256(0x00, 0x20)\n      swap1\n      0x08\n      mul\n      add\n      0x00\n      dup1\n      dup3\n      add\n      0x00\n      swap1\n      sstore\n      0x01\n      dup3\n      add\n      0x00\n      tag_185\n      swap2\n      swap1\n      tag_186\n      jump\t// in\n    tag_185:\n      0x02\n      dup3\n      add\n      exp(0x0100, 0x00)\n      dup2\n      sload\n      swap1\n      0xffffffffffffffffffffffffffffffffffffffff\n      mul\n      not\n      and\n      swap1\n      sstore\n      0x03\n      dup3\n      add\n      0x00\n      swap1\n      sstore\n      0x04\n      dup3\n      add\n      0x00\n      tag_187\n      swap2\n      swap1\n      tag_188\n      jump\t// in\n    tag_187:\n      0x05\n      dup3\n      add\n      0x00\n      swap1\n      sstore\n      0x06\n      dup3\n      add\n      0x00\n      swap1\n      sstore\n      0x07\n      dup3\n      add\n      0x00\n      tag_189\n      swap2\n      swap1\n      tag_188\n      jump\t// in\n    tag_189:\n      pop\n      pop\n      swap1\n      sstore\n        /* \"contracts/Twitter0.9v(main).sol\":4559:4642  function DeleteRecentTweet() public {... */\n      jump\t// out\n        /* \"contracts/Twitter0.9v(main).sol\":4650:4732  function DeleteAllTweets() public {... */\n    tag_36:\n        /* \"contracts/Twitter0.9v(main).sol\":4702:4712  Tweet_info */\n      0x04\n        /* \"contracts/Twitter0.9v(main).sol\":4702:4724  Tweet_info[msg.sender] */\n      0x00\n        /* \"contracts/Twitter0.9v(main).sol\":4713:4723  msg.sender */\n      caller\n        /* \"contracts/Twitter0.9v(main).sol\":4702:4724  Tweet_info[msg.sender] */\n      0xffffffffffffffffffffffffffffffffffffffff\n      and\n      0xffffffffffffffffffffffffffffffffffffffff\n      and\n      dup2\n      mstore\n      0x20\n      add\n      swap1\n      dup2\n      mstore\n      0x20\n      add\n      0x00\n      keccak256\n      0x00\n        /* \"contracts/Twitter0.9v(main).sol\":4695:4724  delete Tweet_info[msg.sender] */\n      tag_191\n      swap2\n      swap1\n      tag_192\n      jump\t// in\n    tag_191:\n        /* \"contracts/Twitter0.9v(main).sol\":4650:4732  function DeleteAllTweets() public {... */\n      jump\t// out\n        /* \"contracts/Twitter0.9v(main).sol\":1966:3116  function createTweet(string memory _tweet) public onlyRegistered {... */\n    tag_40:\n        /* \"contracts/Twitter0.9v(main).sol\":1542:1585  IProfile.UserProfile memory userProfileTemp */\n      0x00\n        /* \"contracts/Twitter0.9v(main).sol\":1588:1603  profileContract */\n      0x01\n      0x00\n      swap1\n      sload\n      swap1\n      0x0100\n      exp\n      swap1\n      div\n      0xffffffffffffffffffffffffffffffffffffffff\n      and\n        /* \"contracts/Twitter0.9v(main).sol\":1588:1614  profileContract.getProfile */\n      0xffffffffffffffffffffffffffffffffffffffff\n      and\n      0x0f53a470\n        /* \"contracts/Twitter0.9v(main).sol\":1615:1625  msg.sender */\n      caller\n        /* \"contracts/Twitter0.9v(main).sol\":1588:1626  profileContract.getProfile(msg.sender) */\n      mload(0x40)\n      dup3\n      0xffffffff\n      and\n      0xe0\n      shl\n      dup2\n      mstore\n      0x04\n      add\n      tag_194\n      swap2\n      swap1\n      tag_50\n      jump\t// in\n    tag_194:\n      0x00\n      mload(0x40)\n      dup1\n      dup4\n      sub\n      dup2\n      dup7\n      gas\n      staticcall\n      iszero\n      dup1\n      iszero\n      tag_196\n      jumpi\n      returndatasize\n      0x00\n      dup1\n      returndatacopy\n      revert(0x00, returndatasize)\n    tag_196:\n      pop\n      pop\n      pop\n      pop\n      mload(0x40)\n      returndatasize\n      0x00\n      dup3\n      returndatacopy\n      returndatasize\n      not(0x1f)\n      0x1f\n      dup3\n      add\n      and\n      dup3\n      add\n      dup1\n      0x40\n      mstore\n      pop\n      dup2\n      add\n      swap1\n      tag_197\n      swap2\n      swap1\n      tag_70\n      jump\t// in\n    tag_197:\n        /* \"contracts/Twitter0.9v(main).sol\":1542:1626  IProfile.UserProfile memory userProfileTemp = profileContract.getProfile(msg.sender) */\n      swap1\n      pop\n        /* \"contracts/Twitter0.9v(main).sol\":1689:1690  0 */\n      0x00\n        /* \"contracts/Twitter0.9v(main).sol\":1651:1666  userProfileTemp */\n      dup2\n        /* \"contracts/Twitter0.9v(main).sol\":1651:1678  userProfileTemp.displayName */\n      0x00\n      add\n      mload\n        /* \"contracts/Twitter0.9v(main).sol\":1645:1686  bytes(userProfileTemp.displayName).length */\n      mload\n        /* \"contracts/Twitter0.9v(main).sol\":1645:1690  bytes(userProfileTemp.displayName).length > 0 */\n      gt\n        /* \"contracts/Twitter0.9v(main).sol\":1637:1714  require(bytes(userProfileTemp.displayName).length > 0, \"USER NOT REGISTERED\") */\n      tag_198\n      jumpi\n      mload(0x40)\n      0x08c379a000000000000000000000000000000000000000000000000000000000\n      dup2\n      mstore\n      0x04\n      add\n      tag_199\n      swap1\n      tag_73\n      jump\t// in\n    tag_199:\n      mload(0x40)\n      dup1\n      swap2\n      sub\n      swap1\n      revert\n    tag_198:\n        /* \"contracts/Twitter0.9v(main).sol\":2537:2548  TweetLength */\n      sload(0x02)\n        /* \"contracts/Twitter0.9v(main).sol\":2519:2525  _tweet */\n      dup3\n        /* \"contracts/Twitter0.9v(main).sol\":2513:2533  bytes(_tweet).length */\n      mload\n        /* \"contracts/Twitter0.9v(main).sol\":2513:2548  bytes(_tweet).length <= TweetLength */\n      gt\n      iszero\n        /* \"contracts/Twitter0.9v(main).sol\":2505:2576  require(bytes(_tweet).length <= TweetLength, \"Tweet Length is Exceed!\") */\n      tag_201\n      jumpi\n      mload(0x40)\n      0x08c379a000000000000000000000000000000000000000000000000000000000\n      dup2\n      mstore\n      0x04\n      add\n      tag_202\n      swap1\n      tag_203\n      jump\t// in\n    tag_202:\n      mload(0x40)\n      dup1\n      swap2\n      sub\n      swap1\n      revert\n    tag_201:\n        /* \"contracts/Twitter0.9v(main).sol\":2589:2610  Tweet memory NewTweet */\n      0x00\n        /* \"contracts/Twitter0.9v(main).sol\":2613:2895  Tweet({... */\n      mload(0x40)\n      dup1\n      0x0100\n      add\n      0x40\n      mstore\n      dup1\n        /* \"contracts/Twitter0.9v(main).sol\":2670:2671  1 */\n      0x01\n        /* \"contracts/Twitter0.9v(main).sol\":2638:2648  Tweet_info */\n      0x04\n        /* \"contracts/Twitter0.9v(main).sol\":2638:2660  Tweet_info[msg.sender] */\n      0x00\n        /* \"contracts/Twitter0.9v(main).sol\":2649:2659  msg.sender */\n      caller\n        /* \"contracts/Twitter0.9v(main).sol\":2638:2660  Tweet_info[msg.sender] */\n      0xffffffffffffffffffffffffffffffffffffffff\n      and\n      0xffffffffffffffffffffffffffffffffffffffff\n      and\n      dup2\n      mstore\n      0x20\n      add\n      swap1\n      dup2\n      mstore\n      0x20\n      add\n      0x00\n      keccak256\n        /* \"contracts/Twitter0.9v(main).sol\":2638:2667  Tweet_info[msg.sender].length */\n      dup1\n      sload\n      swap1\n      pop\n        /* \"contracts/Twitter0.9v(main).sol\":2638:2671  Tweet_info[msg.sender].length + 1 */\n      tag_204\n      swap2\n      swap1\n      tag_205\n      jump\t// in\n    tag_204:\n        /* \"contracts/Twitter0.9v(main).sol\":2613:2895  Tweet({... */\n      dup2\n      mstore\n      0x20\n      add\n        /* \"contracts/Twitter0.9v(main).sol\":2695:2701  _tweet */\n      dup5\n        /* \"contracts/Twitter0.9v(main).sol\":2613:2895  Tweet({... */\n      dup2\n      mstore\n      0x20\n      add\n        /* \"contracts/Twitter0.9v(main).sol\":2724:2734  msg.sender */\n      caller\n        /* \"contracts/Twitter0.9v(main).sol\":2613:2895  Tweet({... */\n      0xffffffffffffffffffffffffffffffffffffffff\n      and\n      dup2\n      mstore\n      0x20\n      add\n        /* \"contracts/Twitter0.9v(main).sol\":2760:2775  block.timestamp */\n      timestamp\n        /* \"contracts/Twitter0.9v(main).sol\":2613:2895  Tweet({... */\n      dup2\n      mstore\n      0x20\n      add\n        /* \"contracts/Twitter0.9v(main).sol\":2797:2799  li */\n      0x03\n        /* \"contracts/Twitter0.9v(main).sol\":2613:2895  Tweet({... */\n      dup1\n      sload\n      dup1\n      0x20\n      mul\n      0x20\n      add\n      mload(0x40)\n      swap1\n      dup2\n      add\n      0x40\n      mstore\n      dup1\n      swap3\n      swap2\n      swap1\n      dup2\n      dup2\n      mstore\n      0x20\n      add\n      dup3\n      dup1\n      sload\n      dup1\n      iszero\n      tag_206\n      jumpi\n      0x20\n      mul\n      dup3\n      add\n      swap2\n      swap1\n      0x00\n      mstore\n      keccak256(0x00, 0x20)\n      swap1\n    tag_207:\n      dup2\n      0x00\n      swap1\n      sload\n      swap1\n      0x0100\n      exp\n      swap1\n      div\n      0xffffffffffffffffffffffffffffffffffffffff\n      and\n      0xffffffffffffffffffffffffffffffffffffffff\n      and\n      dup2\n      mstore\n      0x20\n      add\n      swap1\n      0x01\n      add\n      swap1\n      dup1\n      dup4\n      gt\n      tag_207\n      jumpi\n    tag_206:\n      pop\n      pop\n      pop\n      pop\n      pop\n      dup2\n      mstore\n      0x20\n      add\n        /* \"contracts/Twitter0.9v(main).sol\":2826:2827  0 */\n      0x00\n        /* \"contracts/Twitter0.9v(main).sol\":2613:2895  Tweet({... */\n      dup2\n      mstore\n      0x20\n      add\n        /* \"contracts/Twitter0.9v(main).sol\":2856:2857  0 */\n      0x00\n        /* \"contracts/Twitter0.9v(main).sol\":2613:2895  Tweet({... */\n      dup2\n      mstore\n      0x20\n      add\n        /* \"contracts/Twitter0.9v(main).sol\":2881:2883  li */\n      0x03\n        /* \"contracts/Twitter0.9v(main).sol\":2613:2895  Tweet({... */\n      dup1\n      sload\n      dup1\n      0x20\n      mul\n      0x20\n      add\n      mload(0x40)\n      swap1\n      dup2\n      add\n      0x40\n      mstore\n      dup1\n      swap3\n      swap2\n      swap1\n      dup2\n      dup2\n      mstore\n      0x20\n      add\n      dup3\n      dup1\n      sload\n      dup1\n      iszero\n      tag_208\n      jumpi\n      0x20\n      mul\n      dup3\n      add\n      swap2\n      swap1\n      0x00\n      mstore\n      keccak256(0x00, 0x20)\n      swap1\n    tag_209:\n      dup2\n      0x00\n      swap1\n      sload\n      swap1\n      0x0100\n      exp\n      swap1\n      div\n      0xffffffffffffffffffffffffffffffffffffffff\n      and\n      0xffffffffffffffffffffffffffffffffffffffff\n      and\n      dup2\n      mstore\n      0x20\n      add\n      swap1\n      0x01\n      add\n      swap1\n      dup1\n      dup4\n      gt\n      tag_209\n      jumpi\n    tag_208:\n      pop\n      pop\n      pop\n      pop\n      pop\n      dup2\n      mstore\n      pop\n        /* \"contracts/Twitter0.9v(main).sol\":2589:2895  Tweet memory NewTweet = Tweet({... */\n      swap1\n      pop\n        /* \"contracts/Twitter0.9v(main).sol\":2908:2918  Tweet_info */\n      0x04\n        /* \"contracts/Twitter0.9v(main).sol\":2908:2930  Tweet_info[msg.sender] */\n      0x00\n        /* \"contracts/Twitter0.9v(main).sol\":2919:2929  msg.sender */\n      caller\n        /* \"contracts/Twitter0.9v(main).sol\":2908:2930  Tweet_info[msg.sender] */\n      0xffffffffffffffffffffffffffffffffffffffff\n      and\n      0xffffffffffffffffffffffffffffffffffffffff\n      and\n      dup2\n      mstore\n      0x20\n      add\n      swap1\n      dup2\n      mstore\n      0x20\n      add\n      0x00\n      keccak256\n        /* \"contracts/Twitter0.9v(main).sol\":2936:2944  NewTweet */\n      dup2\n        /* \"contracts/Twitter0.9v(main).sol\":2908:2945  Tweet_info[msg.sender].push(NewTweet) */\n      swap1\n      dup1\n      0x01\n      dup2\n      sload\n      add\n      dup1\n      dup3\n      sstore\n      dup1\n      swap2\n      pop\n      pop\n      0x01\n      swap1\n      sub\n      swap1\n      0x00\n      mstore\n      keccak256(0x00, 0x20)\n      swap1\n      0x08\n      mul\n      add\n      0x00\n      swap1\n      swap2\n      swap1\n      swap2\n      swap1\n      swap2\n      pop\n      0x00\n      dup3\n      add\n      mload\n      dup2\n      0x00\n      add\n      sstore\n      0x20\n      dup3\n      add\n      mload\n      dup2\n      0x01\n      add\n      swap1\n      dup2\n      tag_211\n      swap2\n      swap1\n      tag_212\n      jump\t// in\n    tag_211:\n      pop\n      0x40\n      dup3\n      add\n      mload\n      dup2\n      0x02\n      add\n      exp(0x0100, 0x00)\n      dup2\n      sload\n      dup2\n      0xffffffffffffffffffffffffffffffffffffffff\n      mul\n      not\n      and\n      swap1\n      dup4\n      0xffffffffffffffffffffffffffffffffffffffff\n      and\n      mul\n      or\n      swap1\n      sstore\n      pop\n      0x60\n      dup3\n      add\n      mload\n      dup2\n      0x03\n      add\n      sstore\n      0x80\n      dup3\n      add\n      mload\n      dup2\n      0x04\n      add\n      swap1\n      dup1\n      mload\n      swap1\n      0x20\n      add\n      swap1\n      tag_213\n      swap3\n      swap2\n      swap1\n      tag_214\n      jump\t// in\n    tag_213:\n      pop\n      0xa0\n      dup3\n      add\n      mload\n      dup2\n      0x05\n      add\n      sstore\n      0xc0\n      dup3\n      add\n      mload\n      dup2\n      0x06\n      add\n      sstore\n      0xe0\n      dup3\n      add\n      mload\n      dup2\n      0x07\n      add\n      swap1\n      dup1\n      mload\n      swap1\n      0x20\n      add\n      swap1\n      tag_215\n      swap3\n      swap2\n      swap1\n      tag_214\n      jump\t// in\n    tag_215:\n      pop\n      pop\n      pop\n        /* \"contracts/Twitter0.9v(main).sol\":2961:3108  TweetCreated(... */\n      0x16fd3c13e9d46923e0a8bce11c7b473ec508a72e6c96cd2404b29ce972afc29e\n        /* \"contracts/Twitter0.9v(main).sol\":3020:3021  1 */\n      0x01\n        /* \"contracts/Twitter0.9v(main).sol\":2988:2998  Tweet_info */\n      0x04\n        /* \"contracts/Twitter0.9v(main).sol\":2988:3010  Tweet_info[msg.sender] */\n      0x00\n        /* \"contracts/Twitter0.9v(main).sol\":2999:3009  msg.sender */\n      caller\n        /* \"contracts/Twitter0.9v(main).sol\":2988:3010  Tweet_info[msg.sender] */\n      0xffffffffffffffffffffffffffffffffffffffff\n      and\n      0xffffffffffffffffffffffffffffffffffffffff\n      and\n      dup2\n      mstore\n      0x20\n      add\n      swap1\n      dup2\n      mstore\n      0x20\n      add\n      0x00\n      keccak256\n        /* \"contracts/Twitter0.9v(main).sol\":2988:3017  Tweet_info[msg.sender].length */\n      dup1\n      sload\n      swap1\n      pop\n        /* \"contracts/Twitter0.9v(main).sol\":2988:3021  Tweet_info[msg.sender].length + 1 */\n      tag_216\n      swap2\n      swap1\n      tag_205\n      jump\t// in\n    tag_216:\n        /* \"contracts/Twitter0.9v(main).sol\":3036:3046  msg.sender */\n      caller\n        /* \"contracts/Twitter0.9v(main).sol\":3061:3067  _tweet */\n      dup6\n        /* \"contracts/Twitter0.9v(main).sol\":3082:3097  block.timestamp */\n      timestamp\n        /* \"contracts/Twitter0.9v(main).sol\":2961:3108  TweetCreated(... */\n      mload(0x40)\n      tag_217\n      swap5\n      swap4\n      swap3\n      swap2\n      swap1\n      tag_218\n      jump\t// in\n    tag_217:\n      mload(0x40)\n      dup1\n      swap2\n      sub\n      swap1\n      log1\n        /* \"contracts/Twitter0.9v(main).sol\":2031:3116  {... */\n      pop\n        /* \"contracts/Twitter0.9v(main).sol\":1531:1734  {... */\n      pop\n        /* \"contracts/Twitter0.9v(main).sol\":1966:3116  function createTweet(string memory _tweet) public onlyRegistered {... */\n      pop\n      jump\t// out\n        /* \"contracts/Twitter0.9v(main).sol\":5828:6123  function getTotalLikes(address author) external view returns (uint256) {... */\n    tag_44:\n        /* \"contracts/Twitter0.9v(main).sol\":5890:5897  uint256 */\n      0x00\n        /* \"contracts/Twitter0.9v(main).sol\":5910:5928  uint256 TotalLikes */\n      dup1\n        /* \"contracts/Twitter0.9v(main).sol\":5931:5932  0 */\n      0x00\n        /* \"contracts/Twitter0.9v(main).sol\":5910:5932  uint256 TotalLikes = 0 */\n      swap1\n      pop\n        /* \"contracts/Twitter0.9v(main).sol\":5950:5959  uint256 i */\n      0x00\n        /* \"contracts/Twitter0.9v(main).sol\":5945:6086  for (uint256 i = 0; i < Tweet_info[author].length; i++) {... */\n    tag_220:\n        /* \"contracts/Twitter0.9v(main).sol\":5969:5979  Tweet_info */\n      0x04\n        /* \"contracts/Twitter0.9v(main).sol\":5969:5987  Tweet_info[author] */\n      0x00\n        /* \"contracts/Twitter0.9v(main).sol\":5980:5986  author */\n      dup6\n        /* \"contracts/Twitter0.9v(main).sol\":5969:5987  Tweet_info[author] */\n      0xffffffffffffffffffffffffffffffffffffffff\n      and\n      0xffffffffffffffffffffffffffffffffffffffff\n      and\n      dup2\n      mstore\n      0x20\n      add\n      swap1\n      dup2\n      mstore\n      0x20\n      add\n      0x00\n      keccak256\n        /* \"contracts/Twitter0.9v(main).sol\":5969:5994  Tweet_info[author].length */\n      dup1\n      sload\n      swap1\n      pop\n        /* \"contracts/Twitter0.9v(main).sol\":5965:5966  i */\n      dup2\n        /* \"contracts/Twitter0.9v(main).sol\":5965:5994  i < Tweet_info[author].length */\n      lt\n        /* \"contracts/Twitter0.9v(main).sol\":5945:6086  for (uint256 i = 0; i < Tweet_info[author].length; i++) {... */\n      iszero\n      tag_221\n      jumpi\n        /* \"contracts/Twitter0.9v(main).sol\":6042:6052  Tweet_info */\n      0x04\n        /* \"contracts/Twitter0.9v(main).sol\":6042:6060  Tweet_info[author] */\n      0x00\n        /* \"contracts/Twitter0.9v(main).sol\":6053:6059  author */\n      dup6\n        /* \"contracts/Twitter0.9v(main).sol\":6042:6060  Tweet_info[author] */\n      0xffffffffffffffffffffffffffffffffffffffff\n      and\n      0xffffffffffffffffffffffffffffffffffffffff\n      and\n      dup2\n      mstore\n      0x20\n      add\n      swap1\n      dup2\n      mstore\n      0x20\n      add\n      0x00\n      keccak256\n        /* \"contracts/Twitter0.9v(main).sol\":6061:6062  i */\n      dup2\n        /* \"contracts/Twitter0.9v(main).sol\":6042:6063  Tweet_info[author][i] */\n      dup2\n      sload\n      dup2\n      lt\n      tag_223\n      jumpi\n      tag_224\n      tag_85\n      jump\t// in\n    tag_224:\n    tag_223:\n      swap1\n      0x00\n      mstore\n      keccak256(0x00, 0x20)\n      swap1\n      0x08\n      mul\n      add\n        /* \"contracts/Twitter0.9v(main).sol\":6042:6074  Tweet_info[author][i].LikesCount */\n      0x05\n      add\n      sload\n        /* \"contracts/Twitter0.9v(main).sol\":6029:6039  TotalLikes */\n      dup3\n        /* \"contracts/Twitter0.9v(main).sol\":6029:6074  TotalLikes + Tweet_info[author][i].LikesCount */\n      tag_226\n      swap2\n      swap1\n      tag_205\n      jump\t// in\n    tag_226:\n        /* \"contracts/Twitter0.9v(main).sol\":6016:6074  TotalLikes = TotalLikes + Tweet_info[author][i].LikesCount */\n      swap2\n      pop\n        /* \"contracts/Twitter0.9v(main).sol\":5996:5999  i++ */\n      dup1\n      dup1\n      0x01\n      add\n      swap2\n      pop\n      pop\n        /* \"contracts/Twitter0.9v(main).sol\":5945:6086  for (uint256 i = 0; i < Tweet_info[author].length; i++) {... */\n      jump(tag_220)\n    tag_221:\n      pop\n        /* \"contracts/Twitter0.9v(main).sol\":6105:6115  TotalLikes */\n      dup1\n        /* \"contracts/Twitter0.9v(main).sol\":6098:6115  return TotalLikes */\n      swap2\n      pop\n      pop\n        /* \"contracts/Twitter0.9v(main).sol\":5828:6123  function getTotalLikes(address author) external view returns (uint256) {... */\n      swap2\n      swap1\n      pop\n      jump\t// out\n        /* \"@openzeppelin/contracts/access/Ownable.sol\":1638:1723  function owner() public view virtual returns (address) {... */\n    tag_48:\n        /* \"@openzeppelin/contracts/access/Ownable.sol\":1684:1691  address */\n      0x00\n        /* \"@openzeppelin/contracts/access/Ownable.sol\":1710:1716  _owner */\n      dup1\n      0x00\n      swap1\n      sload\n      swap1\n      0x0100\n      exp\n      swap1\n      div\n      0xffffffffffffffffffffffffffffffffffffffff\n      and\n        /* \"@openzeppelin/contracts/access/Ownable.sol\":1703:1716  return _owner */\n      swap1\n      pop\n        /* \"@openzeppelin/contracts/access/Ownable.sol\":1638:1723  function owner() public view virtual returns (address) {... */\n      swap1\n      jump\t// out\n        /* \"contracts/Twitter0.9v(main).sol\":5376:5820  function UnlikeTweet(address User, uint256 TweetIndex)... */\n    tag_53:\n        /* \"contracts/Twitter0.9v(main).sol\":1542:1585  IProfile.UserProfile memory userProfileTemp */\n      0x00\n        /* \"contracts/Twitter0.9v(main).sol\":1588:1603  profileContract */\n      0x01\n      0x00\n      swap1\n      sload\n      swap1\n      0x0100\n      exp\n      swap1\n      div\n      0xffffffffffffffffffffffffffffffffffffffff\n      and\n        /* \"contracts/Twitter0.9v(main).sol\":1588:1614  profileContract.getProfile */\n      0xffffffffffffffffffffffffffffffffffffffff\n      and\n      0x0f53a470\n        /* \"contracts/Twitter0.9v(main).sol\":1615:1625  msg.sender */\n      caller\n        /* \"contracts/Twitter0.9v(main).sol\":1588:1626  profileContract.getProfile(msg.sender) */\n      mload(0x40)\n      dup3\n      0xffffffff\n      and\n      0xe0\n      shl\n      dup2\n      mstore\n      0x04\n      add\n      tag_229\n      swap2\n      swap1\n      tag_50\n      jump\t// in\n    tag_229:\n      0x00\n      mload(0x40)\n      dup1\n      dup4\n      sub\n      dup2\n      dup7\n      gas\n      staticcall\n      iszero\n      dup1\n      iszero\n      tag_231\n      jumpi\n      returndatasize\n      0x00\n      dup1\n      returndatacopy\n      revert(0x00, returndatasize)\n    tag_231:\n      pop\n      pop\n      pop\n      pop\n      mload(0x40)\n      returndatasize\n      0x00\n      dup3\n      returndatacopy\n      returndatasize\n      not(0x1f)\n      0x1f\n      dup3\n      add\n      and\n      dup3\n      add\n      dup1\n      0x40\n      mstore\n      pop\n      dup2\n      add\n      swap1\n      tag_232\n      swap2\n      swap1\n      tag_70\n      jump\t// in\n    tag_232:\n        /* \"contracts/Twitter0.9v(main).sol\":1542:1626  IProfile.UserProfile memory userProfileTemp = profileContract.getProfile(msg.sender) */\n      swap1\n      pop\n        /* \"contracts/Twitter0.9v(main).sol\":1689:1690  0 */\n      0x00\n        /* \"contracts/Twitter0.9v(main).sol\":1651:1666  userProfileTemp */\n      dup2\n        /* \"contracts/Twitter0.9v(main).sol\":1651:1678  userProfileTemp.displayName */\n      0x00\n      add\n      mload\n        /* \"contracts/Twitter0.9v(main).sol\":1645:1686  bytes(userProfileTemp.displayName).length */\n      mload\n        /* \"contracts/Twitter0.9v(main).sol\":1645:1690  bytes(userProfileTemp.displayName).length > 0 */\n      gt\n        /* \"contracts/Twitter0.9v(main).sol\":1637:1714  require(bytes(userProfileTemp.displayName).length > 0, \"USER NOT REGISTERED\") */\n      tag_233\n      jumpi\n      mload(0x40)\n      0x08c379a000000000000000000000000000000000000000000000000000000000\n      dup2\n      mstore\n      0x04\n      add\n      tag_234\n      swap1\n      tag_73\n      jump\t// in\n    tag_234:\n      mload(0x40)\n      dup1\n      swap2\n      sub\n      swap1\n      revert\n    tag_233:\n        /* \"contracts/Twitter0.9v(main).sol\":5491:5495  User */\n      dup3\n        /* \"contracts/Twitter0.9v(main).sol\":5497:5507  TweetIndex */\n      dup3\n        /* \"contracts/Twitter0.9v(main).sol\":3319:3327  bool res */\n      0x00\n        /* \"contracts/Twitter0.9v(main).sol\":3330:3334  true */\n      0x01\n        /* \"contracts/Twitter0.9v(main).sol\":3319:3334  bool res = true */\n      swap1\n      pop\n        /* \"contracts/Twitter0.9v(main).sol\":3406:3408  id */\n      dup2\n        /* \"contracts/Twitter0.9v(main).sol\":3379:3389  Tweet_info */\n      0x04\n        /* \"contracts/Twitter0.9v(main).sol\":3379:3395  Tweet_info[User] */\n      0x00\n        /* \"contracts/Twitter0.9v(main).sol\":3390:3394  User */\n      dup6\n        /* \"contracts/Twitter0.9v(main).sol\":3379:3395  Tweet_info[User] */\n      0xffffffffffffffffffffffffffffffffffffffff\n      and\n      0xffffffffffffffffffffffffffffffffffffffff\n      and\n      dup2\n      mstore\n      0x20\n      add\n      swap1\n      dup2\n      mstore\n      0x20\n      add\n      0x00\n      keccak256\n        /* \"contracts/Twitter0.9v(main).sol\":3379:3402  Tweet_info[User].length */\n      dup1\n      sload\n      swap1\n      pop\n        /* \"contracts/Twitter0.9v(main).sol\":3379:3408  Tweet_info[User].length >= id */\n      lt\n      iszero\n        /* \"contracts/Twitter0.9v(main).sol\":3371:3435  require(Tweet_info[User].length >= id, \"This Tweet Not Exist !\") */\n      tag_236\n      jumpi\n      mload(0x40)\n      0x08c379a000000000000000000000000000000000000000000000000000000000\n      dup2\n      mstore\n      0x04\n      add\n      tag_237\n      swap1\n      tag_77\n      jump\t// in\n    tag_237:\n      mload(0x40)\n      dup1\n      swap2\n      sub\n      swap1\n      revert\n    tag_236:\n        /* \"contracts/Twitter0.9v(main).sol\":3453:3462  uint256 l */\n      0x00\n        /* \"contracts/Twitter0.9v(main).sol\":3448:3665  for (uint256 l = 0; l < Tweet_info[User][id - 1].likes.length; l++) {... */\n    tag_238:\n        /* \"contracts/Twitter0.9v(main).sol\":3472:3482  Tweet_info */\n      0x04\n        /* \"contracts/Twitter0.9v(main).sol\":3472:3488  Tweet_info[User] */\n      0x00\n        /* \"contracts/Twitter0.9v(main).sol\":3483:3487  User */\n      dup6\n        /* \"contracts/Twitter0.9v(main).sol\":3472:3488  Tweet_info[User] */\n      0xffffffffffffffffffffffffffffffffffffffff\n      and\n      0xffffffffffffffffffffffffffffffffffffffff\n      and\n      dup2\n      mstore\n      0x20\n      add\n      swap1\n      dup2\n      mstore\n      0x20\n      add\n      0x00\n      keccak256\n        /* \"contracts/Twitter0.9v(main).sol\":3494:3495  1 */\n      0x01\n        /* \"contracts/Twitter0.9v(main).sol\":3489:3491  id */\n      dup5\n        /* \"contracts/Twitter0.9v(main).sol\":3489:3495  id - 1 */\n      tag_241\n      swap2\n      swap1\n      tag_82\n      jump\t// in\n    tag_241:\n        /* \"contracts/Twitter0.9v(main).sol\":3472:3496  Tweet_info[User][id - 1] */\n      dup2\n      sload\n      dup2\n      lt\n      tag_242\n      jumpi\n      tag_243\n      tag_85\n      jump\t// in\n    tag_243:\n    tag_242:\n      swap1\n      0x00\n      mstore\n      keccak256(0x00, 0x20)\n      swap1\n      0x08\n      mul\n      add\n        /* \"contracts/Twitter0.9v(main).sol\":3472:3502  Tweet_info[User][id - 1].likes */\n      0x04\n      add\n        /* \"contracts/Twitter0.9v(main).sol\":3472:3509  Tweet_info[User][id - 1].likes.length */\n      dup1\n      sload\n      swap1\n      pop\n        /* \"contracts/Twitter0.9v(main).sol\":3468:3469  l */\n      dup2\n        /* \"contracts/Twitter0.9v(main).sol\":3468:3509  l < Tweet_info[User][id - 1].likes.length */\n      lt\n        /* \"contracts/Twitter0.9v(main).sol\":3448:3665  for (uint256 l = 0; l < Tweet_info[User][id - 1].likes.length; l++) {... */\n      iszero\n      tag_239\n      jumpi\n        /* \"contracts/Twitter0.9v(main).sol\":3572:3582  msg.sender */\n      caller\n        /* \"contracts/Twitter0.9v(main).sol\":3535:3582  Tweet_info[User][id - 1].likes[l] == msg.sender */\n      0xffffffffffffffffffffffffffffffffffffffff\n      and\n        /* \"contracts/Twitter0.9v(main).sol\":3535:3545  Tweet_info */\n      0x04\n        /* \"contracts/Twitter0.9v(main).sol\":3535:3551  Tweet_info[User] */\n      0x00\n        /* \"contracts/Twitter0.9v(main).sol\":3546:3550  User */\n      dup7\n        /* \"contracts/Twitter0.9v(main).sol\":3535:3551  Tweet_info[User] */\n      0xffffffffffffffffffffffffffffffffffffffff\n      and\n      0xffffffffffffffffffffffffffffffffffffffff\n      and\n      dup2\n      mstore\n      0x20\n      add\n      swap1\n      dup2\n      mstore\n      0x20\n      add\n      0x00\n      keccak256\n        /* \"contracts/Twitter0.9v(main).sol\":3557:3558  1 */\n      0x01\n        /* \"contracts/Twitter0.9v(main).sol\":3552:3554  id */\n      dup6\n        /* \"contracts/Twitter0.9v(main).sol\":3552:3558  id - 1 */\n      tag_245\n      swap2\n      swap1\n      tag_82\n      jump\t// in\n    tag_245:\n        /* \"contracts/Twitter0.9v(main).sol\":3535:3559  Tweet_info[User][id - 1] */\n      dup2\n      sload\n      dup2\n      lt\n      tag_246\n      jumpi\n      tag_247\n      tag_85\n      jump\t// in\n    tag_247:\n    tag_246:\n      swap1\n      0x00\n      mstore\n      keccak256(0x00, 0x20)\n      swap1\n      0x08\n      mul\n      add\n        /* \"contracts/Twitter0.9v(main).sol\":3535:3565  Tweet_info[User][id - 1].likes */\n      0x04\n      add\n        /* \"contracts/Twitter0.9v(main).sol\":3566:3567  l */\n      dup3\n        /* \"contracts/Twitter0.9v(main).sol\":3535:3568  Tweet_info[User][id - 1].likes[l] */\n      dup2\n      sload\n      dup2\n      lt\n      tag_249\n      jumpi\n      tag_250\n      tag_85\n      jump\t// in\n    tag_250:\n    tag_249:\n      swap1\n      0x00\n      mstore\n      keccak256(0x00, 0x20)\n      add\n      0x00\n      swap1\n      sload\n      swap1\n      0x0100\n      exp\n      swap1\n      div\n      0xffffffffffffffffffffffffffffffffffffffff\n      and\n        /* \"contracts/Twitter0.9v(main).sol\":3535:3582  Tweet_info[User][id - 1].likes[l] == msg.sender */\n      0xffffffffffffffffffffffffffffffffffffffff\n      and\n      sub\n        /* \"contracts/Twitter0.9v(main).sol\":3531:3654  if (Tweet_info[User][id - 1].likes[l] == msg.sender) {... */\n      tag_252\n      jumpi\n        /* \"contracts/Twitter0.9v(main).sol\":3609:3614  false */\n      0x00\n        /* \"contracts/Twitter0.9v(main).sol\":3603:3614  res = false */\n      swap2\n      pop\n        /* \"contracts/Twitter0.9v(main).sol\":3633:3638  break */\n      jump(tag_239)\n        /* \"contracts/Twitter0.9v(main).sol\":3531:3654  if (Tweet_info[User][id - 1].likes[l] == msg.sender) {... */\n    tag_252:\n        /* \"contracts/Twitter0.9v(main).sol\":3511:3514  l++ */\n      dup1\n      dup1\n      0x01\n      add\n      swap2\n      pop\n      pop\n        /* \"contracts/Twitter0.9v(main).sol\":3448:3665  for (uint256 l = 0; l < Tweet_info[User][id - 1].likes.length; l++) {... */\n      jump(tag_238)\n    tag_239:\n      pop\n        /* \"contracts/Twitter0.9v(main).sol\":3692:3696  true */\n      0x01\n        /* \"contracts/Twitter0.9v(main).sol\":3685:3696  res == true */\n      iszero\n      iszero\n        /* \"contracts/Twitter0.9v(main).sol\":3685:3688  res */\n      dup2\n        /* \"contracts/Twitter0.9v(main).sol\":3685:3696  res == true */\n      iszero\n      iszero\n      eq\n        /* \"contracts/Twitter0.9v(main).sol\":3677:3729  require(res == true, \"You Already Liked the tweet!\") */\n      tag_253\n      jumpi\n      mload(0x40)\n      0x08c379a000000000000000000000000000000000000000000000000000000000\n      dup2\n      mstore\n      0x04\n      add\n      tag_254\n      swap1\n      tag_97\n      jump\t// in\n    tag_254:\n      mload(0x40)\n      dup1\n      swap2\n      sub\n      swap1\n      revert\n    tag_253:\n        /* \"contracts/Twitter0.9v(main).sol\":5538:5542  User */\n      dup6\n        /* \"contracts/Twitter0.9v(main).sol\":5544:5554  TweetIndex */\n      dup6\n        /* \"contracts/Twitter0.9v(main).sol\":3823:3831  bool res */\n      0x00\n        /* \"contracts/Twitter0.9v(main).sol\":3834:3838  true */\n      0x01\n        /* \"contracts/Twitter0.9v(main).sol\":3823:3838  bool res = true */\n      swap1\n      pop\n        /* \"contracts/Twitter0.9v(main).sol\":3910:3912  id */\n      dup2\n        /* \"contracts/Twitter0.9v(main).sol\":3883:3893  Tweet_info */\n      0x04\n        /* \"contracts/Twitter0.9v(main).sol\":3883:3899  Tweet_info[User] */\n      0x00\n        /* \"contracts/Twitter0.9v(main).sol\":3894:3898  User */\n      dup6\n        /* \"contracts/Twitter0.9v(main).sol\":3883:3899  Tweet_info[User] */\n      0xffffffffffffffffffffffffffffffffffffffff\n      and\n      0xffffffffffffffffffffffffffffffffffffffff\n      and\n      dup2\n      mstore\n      0x20\n      add\n      swap1\n      dup2\n      mstore\n      0x20\n      add\n      0x00\n      keccak256\n        /* \"contracts/Twitter0.9v(main).sol\":3883:3906  Tweet_info[User].length */\n      dup1\n      sload\n      swap1\n      pop\n        /* \"contracts/Twitter0.9v(main).sol\":3883:3912  Tweet_info[User].length >= id */\n      lt\n      iszero\n        /* \"contracts/Twitter0.9v(main).sol\":3875:3939  require(Tweet_info[User].length >= id, \"This Tweet Not Exist !\") */\n      tag_256\n      jumpi\n      mload(0x40)\n      0x08c379a000000000000000000000000000000000000000000000000000000000\n      dup2\n      mstore\n      0x04\n      add\n      tag_257\n      swap1\n      tag_77\n      jump\t// in\n    tag_257:\n      mload(0x40)\n      dup1\n      swap2\n      sub\n      swap1\n      revert\n    tag_256:\n        /* \"contracts/Twitter0.9v(main).sol\":3957:3966  uint256 l */\n      0x00\n        /* \"contracts/Twitter0.9v(main).sol\":3952:4173  for (uint256 l = 0; l < Tweet_info[User][id - 1].unlikes.length; l++) {... */\n    tag_258:\n        /* \"contracts/Twitter0.9v(main).sol\":3976:3986  Tweet_info */\n      0x04\n        /* \"contracts/Twitter0.9v(main).sol\":3976:3992  Tweet_info[User] */\n      0x00\n        /* \"contracts/Twitter0.9v(main).sol\":3987:3991  User */\n      dup6\n        /* \"contracts/Twitter0.9v(main).sol\":3976:3992  Tweet_info[User] */\n      0xffffffffffffffffffffffffffffffffffffffff\n      and\n      0xffffffffffffffffffffffffffffffffffffffff\n      and\n      dup2\n      mstore\n      0x20\n      add\n      swap1\n      dup2\n      mstore\n      0x20\n      add\n      0x00\n      keccak256\n        /* \"contracts/Twitter0.9v(main).sol\":3998:3999  1 */\n      0x01\n        /* \"contracts/Twitter0.9v(main).sol\":3993:3995  id */\n      dup5\n        /* \"contracts/Twitter0.9v(main).sol\":3993:3999  id - 1 */\n      tag_261\n      swap2\n      swap1\n      tag_82\n      jump\t// in\n    tag_261:\n        /* \"contracts/Twitter0.9v(main).sol\":3976:4000  Tweet_info[User][id - 1] */\n      dup2\n      sload\n      dup2\n      lt\n      tag_262\n      jumpi\n      tag_263\n      tag_85\n      jump\t// in\n    tag_263:\n    tag_262:\n      swap1\n      0x00\n      mstore\n      keccak256(0x00, 0x20)\n      swap1\n      0x08\n      mul\n      add\n        /* \"contracts/Twitter0.9v(main).sol\":3976:4008  Tweet_info[User][id - 1].unlikes */\n      0x07\n      add\n        /* \"contracts/Twitter0.9v(main).sol\":3976:4015  Tweet_info[User][id - 1].unlikes.length */\n      dup1\n      sload\n      swap1\n      pop\n        /* \"contracts/Twitter0.9v(main).sol\":3972:3973  l */\n      dup2\n        /* \"contracts/Twitter0.9v(main).sol\":3972:4015  l < Tweet_info[User][id - 1].unlikes.length */\n      lt\n        /* \"contracts/Twitter0.9v(main).sol\":3952:4173  for (uint256 l = 0; l < Tweet_info[User][id - 1].unlikes.length; l++) {... */\n      iszero\n      tag_259\n      jumpi\n        /* \"contracts/Twitter0.9v(main).sol\":4080:4090  msg.sender */\n      caller\n        /* \"contracts/Twitter0.9v(main).sol\":4041:4090  Tweet_info[User][id - 1].unlikes[l] == msg.sender */\n      0xffffffffffffffffffffffffffffffffffffffff\n      and\n        /* \"contracts/Twitter0.9v(main).sol\":4041:4051  Tweet_info */\n      0x04\n        /* \"contracts/Twitter0.9v(main).sol\":4041:4057  Tweet_info[User] */\n      0x00\n        /* \"contracts/Twitter0.9v(main).sol\":4052:4056  User */\n      dup7\n        /* \"contracts/Twitter0.9v(main).sol\":4041:4057  Tweet_info[User] */\n      0xffffffffffffffffffffffffffffffffffffffff\n      and\n      0xffffffffffffffffffffffffffffffffffffffff\n      and\n      dup2\n      mstore\n      0x20\n      add\n      swap1\n      dup2\n      mstore\n      0x20\n      add\n      0x00\n      keccak256\n        /* \"contracts/Twitter0.9v(main).sol\":4063:4064  1 */\n      0x01\n        /* \"contracts/Twitter0.9v(main).sol\":4058:4060  id */\n      dup6\n        /* \"contracts/Twitter0.9v(main).sol\":4058:4064  id - 1 */\n      tag_265\n      swap2\n      swap1\n      tag_82\n      jump\t// in\n    tag_265:\n        /* \"contracts/Twitter0.9v(main).sol\":4041:4065  Tweet_info[User][id - 1] */\n      dup2\n      sload\n      dup2\n      lt\n      tag_266\n      jumpi\n      tag_267\n      tag_85\n      jump\t// in\n    tag_267:\n    tag_266:\n      swap1\n      0x00\n      mstore\n      keccak256(0x00, 0x20)\n      swap1\n      0x08\n      mul\n      add\n        /* \"contracts/Twitter0.9v(main).sol\":4041:4073  Tweet_info[User][id - 1].unlikes */\n      0x07\n      add\n        /* \"contracts/Twitter0.9v(main).sol\":4074:4075  l */\n      dup3\n        /* \"contracts/Twitter0.9v(main).sol\":4041:4076  Tweet_info[User][id - 1].unlikes[l] */\n      dup2\n      sload\n      dup2\n      lt\n      tag_269\n      jumpi\n      tag_270\n      tag_85\n      jump\t// in\n    tag_270:\n    tag_269:\n      swap1\n      0x00\n      mstore\n      keccak256(0x00, 0x20)\n      add\n      0x00\n      swap1\n      sload\n      swap1\n      0x0100\n      exp\n      swap1\n      div\n      0xffffffffffffffffffffffffffffffffffffffff\n      and\n        /* \"contracts/Twitter0.9v(main).sol\":4041:4090  Tweet_info[User][id - 1].unlikes[l] == msg.sender */\n      0xffffffffffffffffffffffffffffffffffffffff\n      and\n      sub\n        /* \"contracts/Twitter0.9v(main).sol\":4037:4162  if (Tweet_info[User][id - 1].unlikes[l] == msg.sender) {... */\n      tag_272\n      jumpi\n        /* \"contracts/Twitter0.9v(main).sol\":4117:4122  false */\n      0x00\n        /* \"contracts/Twitter0.9v(main).sol\":4111:4122  res = false */\n      swap2\n      pop\n        /* \"contracts/Twitter0.9v(main).sol\":4141:4146  break */\n      jump(tag_259)\n        /* \"contracts/Twitter0.9v(main).sol\":4037:4162  if (Tweet_info[User][id - 1].unlikes[l] == msg.sender) {... */\n    tag_272:\n        /* \"contracts/Twitter0.9v(main).sol\":4017:4020  l++ */\n      dup1\n      dup1\n      0x01\n      add\n      swap2\n      pop\n      pop\n        /* \"contracts/Twitter0.9v(main).sol\":3952:4173  for (uint256 l = 0; l < Tweet_info[User][id - 1].unlikes.length; l++) {... */\n      jump(tag_258)\n    tag_259:\n      pop\n        /* \"contracts/Twitter0.9v(main).sol\":4200:4204  true */\n      0x01\n        /* \"contracts/Twitter0.9v(main).sol\":4193:4204  res == true */\n      iszero\n      iszero\n        /* \"contracts/Twitter0.9v(main).sol\":4193:4196  res */\n      dup2\n        /* \"contracts/Twitter0.9v(main).sol\":4193:4204  res == true */\n      iszero\n      iszero\n      eq\n        /* \"contracts/Twitter0.9v(main).sol\":4185:4239  require(res == true, \"You Already UnLiked the tweet!\") */\n      tag_273\n      jumpi\n      mload(0x40)\n      0x08c379a000000000000000000000000000000000000000000000000000000000\n      dup2\n      mstore\n      0x04\n      add\n      tag_274\n      swap1\n      tag_118\n      jump\t// in\n    tag_274:\n      mload(0x40)\n      dup1\n      swap2\n      sub\n      swap1\n      revert\n    tag_273:\n        /* \"contracts/Twitter0.9v(main).sol\":5602:5612  msg.sender */\n      caller\n        /* \"contracts/Twitter0.9v(main).sol\":5594:5612  User != msg.sender */\n      0xffffffffffffffffffffffffffffffffffffffff\n      and\n        /* \"contracts/Twitter0.9v(main).sol\":5594:5598  User */\n      dup10\n        /* \"contracts/Twitter0.9v(main).sol\":5594:5612  User != msg.sender */\n      0xffffffffffffffffffffffffffffffffffffffff\n      and\n      sub\n        /* \"contracts/Twitter0.9v(main).sol\":5572:5686  require(... */\n      tag_276\n      jumpi\n      mload(0x40)\n      0x08c379a000000000000000000000000000000000000000000000000000000000\n      dup2\n      mstore\n      0x04\n      add\n      tag_277\n      swap1\n      tag_122\n      jump\t// in\n    tag_277:\n      mload(0x40)\n      dup1\n      swap2\n      sub\n      swap1\n      revert\n    tag_276:\n        /* \"contracts/Twitter0.9v(main).sol\":5697:5707  Tweet_info */\n      0x04\n        /* \"contracts/Twitter0.9v(main).sol\":5697:5713  Tweet_info[User] */\n      0x00\n        /* \"contracts/Twitter0.9v(main).sol\":5708:5712  User */\n      dup11\n        /* \"contracts/Twitter0.9v(main).sol\":5697:5713  Tweet_info[User] */\n      0xffffffffffffffffffffffffffffffffffffffff\n      and\n      0xffffffffffffffffffffffffffffffffffffffff\n      and\n      dup2\n      mstore\n      0x20\n      add\n      swap1\n      dup2\n      mstore\n      0x20\n      add\n      0x00\n      keccak256\n        /* \"contracts/Twitter0.9v(main).sol\":5727:5728  1 */\n      0x01\n        /* \"contracts/Twitter0.9v(main).sol\":5714:5724  TweetIndex */\n      dup10\n        /* \"contracts/Twitter0.9v(main).sol\":5714:5728  TweetIndex - 1 */\n      tag_278\n      swap2\n      swap1\n      tag_82\n      jump\t// in\n    tag_278:\n        /* \"contracts/Twitter0.9v(main).sol\":5697:5729  Tweet_info[User][TweetIndex - 1] */\n      dup2\n      sload\n      dup2\n      lt\n      tag_279\n      jumpi\n      tag_280\n      tag_85\n      jump\t// in\n    tag_280:\n    tag_279:\n      swap1\n      0x00\n      mstore\n      keccak256(0x00, 0x20)\n      swap1\n      0x08\n      mul\n      add\n        /* \"contracts/Twitter0.9v(main).sol\":5697:5737  Tweet_info[User][TweetIndex - 1].unlikes */\n      0x07\n      add\n        /* \"contracts/Twitter0.9v(main).sol\":5743:5753  msg.sender */\n      caller\n        /* \"contracts/Twitter0.9v(main).sol\":5697:5754  Tweet_info[User][TweetIndex - 1].unlikes.push(msg.sender) */\n      swap1\n      dup1\n      0x01\n      dup2\n      sload\n      add\n      dup1\n      dup3\n      sstore\n      dup1\n      swap2\n      pop\n      pop\n      0x01\n      swap1\n      sub\n      swap1\n      0x00\n      mstore\n      keccak256(0x00, 0x20)\n      add\n      0x00\n      swap1\n      swap2\n      swap1\n      swap2\n      swap1\n      swap2\n      0x0100\n      exp\n      dup2\n      sload\n      dup2\n      0xffffffffffffffffffffffffffffffffffffffff\n      mul\n      not\n      and\n      swap1\n      dup4\n      0xffffffffffffffffffffffffffffffffffffffff\n      and\n      mul\n      or\n      swap1\n      sstore\n      pop\n        /* \"contracts/Twitter0.9v(main).sol\":5765:5775  Tweet_info */\n      0x04\n        /* \"contracts/Twitter0.9v(main).sol\":5765:5781  Tweet_info[User] */\n      0x00\n        /* \"contracts/Twitter0.9v(main).sol\":5776:5780  User */\n      dup11\n        /* \"contracts/Twitter0.9v(main).sol\":5765:5781  Tweet_info[User] */\n      0xffffffffffffffffffffffffffffffffffffffff\n      and\n      0xffffffffffffffffffffffffffffffffffffffff\n      and\n      dup2\n      mstore\n      0x20\n      add\n      swap1\n      dup2\n      mstore\n      0x20\n      add\n      0x00\n      keccak256\n        /* \"contracts/Twitter0.9v(main).sol\":5795:5796  1 */\n      0x01\n        /* \"contracts/Twitter0.9v(main).sol\":5782:5792  TweetIndex */\n      dup10\n        /* \"contracts/Twitter0.9v(main).sol\":5782:5796  TweetIndex - 1 */\n      tag_283\n      swap2\n      swap1\n      tag_82\n      jump\t// in\n    tag_283:\n        /* \"contracts/Twitter0.9v(main).sol\":5765:5797  Tweet_info[User][TweetIndex - 1] */\n      dup2\n      sload\n      dup2\n      lt\n      tag_284\n      jumpi\n      tag_285\n      tag_85\n      jump\t// in\n    tag_285:\n    tag_284:\n      swap1\n      0x00\n      mstore\n      keccak256(0x00, 0x20)\n      swap1\n      0x08\n      mul\n      add\n        /* \"contracts/Twitter0.9v(main).sol\":5765:5810  Tweet_info[User][TweetIndex - 1].unlikescount */\n      0x06\n      add\n      0x00\n        /* \"contracts/Twitter0.9v(main).sol\":5765:5812  Tweet_info[User][TweetIndex - 1].unlikescount++ */\n      dup2\n      sload\n      dup1\n      swap3\n      swap2\n      swap1\n      tag_287\n      swap1\n      tag_133\n      jump\t// in\n    tag_287:\n      swap2\n      swap1\n      pop\n      sstore\n      pop\n        /* \"contracts/Twitter0.9v(main).sol\":3812:4259  {... */\n      pop\n        /* \"contracts/Twitter0.9v(main).sol\":3740:3741  _ */\n      pop\n      pop\n        /* \"contracts/Twitter0.9v(main).sol\":3308:3749  {... */\n      pop\n        /* \"contracts/Twitter0.9v(main).sol\":1725:1726  _ */\n      pop\n      pop\n        /* \"contracts/Twitter0.9v(main).sol\":1531:1734  {... */\n      pop\n        /* \"contracts/Twitter0.9v(main).sol\":5376:5820  function UnlikeTweet(address User, uint256 TweetIndex)... */\n      pop\n      pop\n      jump\t// out\n        /* \"contracts/Twitter0.9v(main).sol\":6131:6438  function getTotalUnLikes(address author) external view returns (uint256) {... */\n    tag_56:\n        /* \"contracts/Twitter0.9v(main).sol\":6195:6202  uint256 */\n      0x00\n        /* \"contracts/Twitter0.9v(main).sol\":6215:6235  uint256 TotalUnlikes */\n      dup1\n        /* \"contracts/Twitter0.9v(main).sol\":6238:6239  0 */\n      0x00\n        /* \"contracts/Twitter0.9v(main).sol\":6215:6239  uint256 TotalUnlikes = 0 */\n      swap1\n      pop\n        /* \"contracts/Twitter0.9v(main).sol\":6257:6266  uint256 i */\n      0x00\n        /* \"contracts/Twitter0.9v(main).sol\":6252:6399  for (uint256 i = 0; i < Tweet_info[author].length; i++) {... */\n    tag_289:\n        /* \"contracts/Twitter0.9v(main).sol\":6276:6286  Tweet_info */\n      0x04\n        /* \"contracts/Twitter0.9v(main).sol\":6276:6294  Tweet_info[author] */\n      0x00\n        /* \"contracts/Twitter0.9v(main).sol\":6287:6293  author */\n      dup6\n        /* \"contracts/Twitter0.9v(main).sol\":6276:6294  Tweet_info[author] */\n      0xffffffffffffffffffffffffffffffffffffffff\n      and\n      0xffffffffffffffffffffffffffffffffffffffff\n      and\n      dup2\n      mstore\n      0x20\n      add\n      swap1\n      dup2\n      mstore\n      0x20\n      add\n      0x00\n      keccak256\n        /* \"contracts/Twitter0.9v(main).sol\":6276:6301  Tweet_info[author].length */\n      dup1\n      sload\n      swap1\n      pop\n        /* \"contracts/Twitter0.9v(main).sol\":6272:6273  i */\n      dup2\n        /* \"contracts/Twitter0.9v(main).sol\":6272:6301  i < Tweet_info[author].length */\n      lt\n        /* \"contracts/Twitter0.9v(main).sol\":6252:6399  for (uint256 i = 0; i < Tweet_info[author].length; i++) {... */\n      iszero\n      tag_290\n      jumpi\n        /* \"contracts/Twitter0.9v(main).sol\":6353:6363  Tweet_info */\n      0x04\n        /* \"contracts/Twitter0.9v(main).sol\":6353:6371  Tweet_info[author] */\n      0x00\n        /* \"contracts/Twitter0.9v(main).sol\":6364:6370  author */\n      dup6\n        /* \"contracts/Twitter0.9v(main).sol\":6353:6371  Tweet_info[author] */\n      0xffffffffffffffffffffffffffffffffffffffff\n      and\n      0xffffffffffffffffffffffffffffffffffffffff\n      and\n      dup2\n      mstore\n      0x20\n      add\n      swap1\n      dup2\n      mstore\n      0x20\n      add\n      0x00\n      keccak256\n        /* \"contracts/Twitter0.9v(main).sol\":6372:6373  i */\n      dup2\n        /* \"contracts/Twitter0.9v(main).sol\":6353:6374  Tweet_info[author][i] */\n      dup2\n      sload\n      dup2\n      lt\n      tag_292\n      jumpi\n      tag_293\n      tag_85\n      jump\t// in\n    tag_293:\n    tag_292:\n      swap1\n      0x00\n      mstore\n      keccak256(0x00, 0x20)\n      swap1\n      0x08\n      mul\n      add\n        /* \"contracts/Twitter0.9v(main).sol\":6353:6387  Tweet_info[author][i].unlikescount */\n      0x06\n      add\n      sload\n        /* \"contracts/Twitter0.9v(main).sol\":6338:6350  TotalUnlikes */\n      dup3\n        /* \"contracts/Twitter0.9v(main).sol\":6338:6387  TotalUnlikes + Tweet_info[author][i].unlikescount */\n      tag_295\n      swap2\n      swap1\n      tag_205\n      jump\t// in\n    tag_295:\n        /* \"contracts/Twitter0.9v(main).sol\":6323:6387  TotalUnlikes = TotalUnlikes + Tweet_info[author][i].unlikescount */\n      swap2\n      pop\n        /* \"contracts/Twitter0.9v(main).sol\":6303:6306  i++ */\n      dup1\n      dup1\n      0x01\n      add\n      swap2\n      pop\n      pop\n        /* \"contracts/Twitter0.9v(main).sol\":6252:6399  for (uint256 i = 0; i < Tweet_info[author].length; i++) {... */\n      jump(tag_289)\n    tag_290:\n      pop\n        /* \"contracts/Twitter0.9v(main).sol\":6418:6430  TotalUnlikes */\n      dup1\n        /* \"contracts/Twitter0.9v(main).sol\":6411:6430  return TotalUnlikes */\n      swap2\n      pop\n      pop\n        /* \"contracts/Twitter0.9v(main).sol\":6131:6438  function getTotalUnLikes(address author) external view returns (uint256) {... */\n      swap2\n      swap1\n      pop\n      jump\t// out\n        /* \"contracts/Twitter0.9v(main).sol\":1782:1890  function ChangeTweetLength(uint256 newTweetLen) public onlyOwner{... */\n    tag_61:\n        /* \"@openzeppelin/contracts/access/Ownable.sol\":1531:1544  _checkOwner() */\n      tag_297\n        /* \"@openzeppelin/contracts/access/Ownable.sol\":1531:1542  _checkOwner */\n      tag_176\n        /* \"@openzeppelin/contracts/access/Ownable.sol\":1531:1544  _checkOwner() */\n      jump\t// in\n    tag_297:\n        /* \"contracts/Twitter0.9v(main).sol\":1871:1882  newTweetLen */\n      dup1\n        /* \"contracts/Twitter0.9v(main).sol\":1857:1868  TweetLength */\n      0x02\n        /* \"contracts/Twitter0.9v(main).sol\":1857:1882  TweetLength = newTweetLen */\n      dup2\n      swap1\n      sstore\n      pop\n        /* \"contracts/Twitter0.9v(main).sol\":1782:1890  function ChangeTweetLength(uint256 newTweetLen) public onlyOwner{... */\n      pop\n      jump\t// out\n        /* \"@openzeppelin/contracts/access/Ownable.sol\":2543:2758  function transferOwnership(address newOwner) public virtual onlyOwner {... */\n    tag_64:\n        /* \"@openzeppelin/contracts/access/Ownable.sol\":1531:1544  _checkOwner() */\n      tag_300\n        /* \"@openzeppelin/contracts/access/Ownable.sol\":1531:1542  _checkOwner */\n      tag_176\n        /* \"@openzeppelin/contracts/access/Ownable.sol\":1531:1544  _checkOwner() */\n      jump\t// in\n    tag_300:\n        /* \"@openzeppelin/contracts/access/Ownable.sol\":2647:2648  0 */\n      0x00\n        /* \"@openzeppelin/contracts/access/Ownable.sol\":2627:2649  newOwner == address(0) */\n      0xffffffffffffffffffffffffffffffffffffffff\n      and\n        /* \"@openzeppelin/contracts/access/Ownable.sol\":2627:2635  newOwner */\n      dup2\n        /* \"@openzeppelin/contracts/access/Ownable.sol\":2627:2649  newOwner == address(0) */\n      0xffffffffffffffffffffffffffffffffffffffff\n      and\n      sub\n        /* \"@openzeppelin/contracts/access/Ownable.sol\":2623:2714  if (newOwner == address(0)) {... */\n      tag_302\n      jumpi\n        /* \"@openzeppelin/contracts/access/Ownable.sol\":2700:2701  0 */\n      0x00\n        /* \"@openzeppelin/contracts/access/Ownable.sol\":2672:2703  OwnableInvalidOwner(address(0)) */\n      mload(0x40)\n      0x1e4fbdf700000000000000000000000000000000000000000000000000000000\n      dup2\n      mstore\n      0x04\n      add\n      tag_303\n      swap2\n      swap1\n      tag_50\n      jump\t// in\n    tag_303:\n      mload(0x40)\n      dup1\n      swap2\n      sub\n      swap1\n      revert\n        /* \"@openzeppelin/contracts/access/Ownable.sol\":2623:2714  if (newOwner == address(0)) {... */\n    tag_302:\n        /* \"@openzeppelin/contracts/access/Ownable.sol\":2723:2751  _transferOwnership(newOwner) */\n      tag_304\n        /* \"@openzeppelin/contracts/access/Ownable.sol\":2742:2750  newOwner */\n      dup2\n        /* \"@openzeppelin/contracts/access/Ownable.sol\":2723:2741  _transferOwnership */\n      tag_179\n        /* \"@openzeppelin/contracts/access/Ownable.sol\":2723:2751  _transferOwnership(newOwner) */\n      jump\t// in\n    tag_304:\n        /* \"@openzeppelin/contracts/access/Ownable.sol\":2543:2758  function transferOwnership(address newOwner) public virtual onlyOwner {... */\n      pop\n      jump\t// out\n        /* \"@openzeppelin/contracts/access/Ownable.sol\":1796:1958  function _checkOwner() internal view virtual {... */\n    tag_176:\n        /* \"@openzeppelin/contracts/access/Ownable.sol\":1866:1878  _msgSender() */\n      tag_306\n        /* \"@openzeppelin/contracts/access/Ownable.sol\":1866:1876  _msgSender */\n      tag_307\n        /* \"@openzeppelin/contracts/access/Ownable.sol\":1866:1878  _msgSender() */\n      jump\t// in\n    tag_306:\n        /* \"@openzeppelin/contracts/access/Ownable.sol\":1855:1878  owner() != _msgSender() */\n      0xffffffffffffffffffffffffffffffffffffffff\n      and\n        /* \"@openzeppelin/contracts/access/Ownable.sol\":1855:1862  owner() */\n      tag_308\n        /* \"@openzeppelin/contracts/access/Ownable.sol\":1855:1860  owner */\n      tag_48\n        /* \"@openzeppelin/contracts/access/Ownable.sol\":1855:1862  owner() */\n      jump\t// in\n    tag_308:\n        /* \"@openzeppelin/contracts/access/Ownable.sol\":1855:1878  owner() != _msgSender() */\n      0xffffffffffffffffffffffffffffffffffffffff\n      and\n      eq\n        /* \"@openzeppelin/contracts/access/Ownable.sol\":1851:1952  if (owner() != _msgSender()) {... */\n      tag_309\n      jumpi\n        /* \"@openzeppelin/contracts/access/Ownable.sol\":1928:1940  _msgSender() */\n      tag_310\n        /* \"@openzeppelin/contracts/access/Ownable.sol\":1928:1938  _msgSender */\n      tag_307\n        /* \"@openzeppelin/contracts/access/Ownable.sol\":1928:1940  _msgSender() */\n      jump\t// in\n    tag_310:\n        /* \"@openzeppelin/contracts/access/Ownable.sol\":1901:1941  OwnableUnauthorizedAccount(_msgSender()) */\n      mload(0x40)\n      0x118cdaa700000000000000000000000000000000000000000000000000000000\n      dup2\n      mstore\n      0x04\n      add\n      tag_311\n      swap2\n      swap1\n      tag_50\n      jump\t// in\n    tag_311:\n      mload(0x40)\n      dup1\n      swap2\n      sub\n      swap1\n      revert\n        /* \"@openzeppelin/contracts/access/Ownable.sol\":1851:1952  if (owner() != _msgSender()) {... */\n    tag_309:\n        /* \"@openzeppelin/contracts/access/Ownable.sol\":1796:1958  function _checkOwner() internal view virtual {... */\n      jump\t// out\n        /* \"@openzeppelin/contracts/access/Ownable.sol\":2912:3099  function _transferOwnership(address newOwner) internal virtual {... */\n    tag_179:\n        /* \"@openzeppelin/contracts/access/Ownable.sol\":2985:3001  address oldOwner */\n      0x00\n        /* \"@openzeppelin/contracts/access/Ownable.sol\":3004:3010  _owner */\n      dup1\n      0x00\n      swap1\n      sload\n      swap1\n      0x0100\n      exp\n      swap1\n      div\n      0xffffffffffffffffffffffffffffffffffffffff\n      and\n        /* \"@openzeppelin/contracts/access/Ownable.sol\":2985:3010  address oldOwner = _owner */\n      swap1\n      pop\n        /* \"@openzeppelin/contracts/access/Ownable.sol\":3029:3037  newOwner */\n      dup2\n        /* \"@openzeppelin/contracts/access/Ownable.sol\":3020:3026  _owner */\n      0x00\n      dup1\n        /* \"@openzeppelin/contracts/access/Ownable.sol\":3020:3037  _owner = newOwner */\n      0x0100\n      exp\n      dup2\n      sload\n      dup2\n      0xffffffffffffffffffffffffffffffffffffffff\n      mul\n      not\n      and\n      swap1\n      dup4\n      0xffffffffffffffffffffffffffffffffffffffff\n      and\n      mul\n      or\n      swap1\n      sstore\n      pop\n        /* \"@openzeppelin/contracts/access/Ownable.sol\":3083:3091  newOwner */\n      dup2\n        /* \"@openzeppelin/contracts/access/Ownable.sol\":3052:3092  OwnershipTransferred(oldOwner, newOwner) */\n      0xffffffffffffffffffffffffffffffffffffffff\n      and\n        /* \"@openzeppelin/contracts/access/Ownable.sol\":3073:3081  oldOwner */\n      dup2\n        /* \"@openzeppelin/contracts/access/Ownable.sol\":3052:3092  OwnershipTransferred(oldOwner, newOwner) */\n      0xffffffffffffffffffffffffffffffffffffffff\n      and\n      0x8be0079c531659141344cd1fd0a4f28419497f9722a3daafe3b4186f6b6457e0\n      mload(0x40)\n      mload(0x40)\n      dup1\n      swap2\n      sub\n      swap1\n      log3\n        /* \"@openzeppelin/contracts/access/Ownable.sol\":2975:3099  {... */\n      pop\n        /* \"@openzeppelin/contracts/access/Ownable.sol\":2912:3099  function _transferOwnership(address newOwner) internal virtual {... */\n      pop\n      jump\t// out\n        /* \"@openzeppelin/contracts/utils/Context.sol\":656:752  function _msgSender() internal view virtual returns (address) {... */\n    tag_307:\n        /* \"@openzeppelin/contracts/utils/Context.sol\":709:716  address */\n      0x00\n        /* \"@openzeppelin/contracts/utils/Context.sol\":735:745  msg.sender */\n      caller\n        /* \"@openzeppelin/contracts/utils/Context.sol\":728:745  return msg.sender */\n      swap1\n      pop\n        /* \"@openzeppelin/contracts/utils/Context.sol\":656:752  function _msgSender() internal view virtual returns (address) {... */\n      swap1\n      jump\t// out\n    tag_145:\n      mload(0x40)\n      dup1\n      0x0100\n      add\n      0x40\n      mstore\n      dup1\n      0x00\n      dup2\n      mstore\n      0x20\n      add\n      0x60\n      dup2\n      mstore\n      0x20\n      add\n      and(0xffffffffffffffffffffffffffffffffffffffff, 0x00)\n      dup2\n      mstore\n      0x20\n      add\n      0x00\n      dup2\n      mstore\n      0x20\n      add\n      0x60\n      dup2\n      mstore\n      0x20\n      add\n      0x00\n      dup2\n      mstore\n      0x20\n      add\n      0x00\n      dup2\n      mstore\n      0x20\n      add\n      0x60\n      dup2\n      mstore\n      pop\n      swap1\n      jump\t// out\n    tag_186:\n      pop\n      dup1\n      sload\n      tag_314\n      swap1\n      tag_152\n      jump\t// in\n    tag_314:\n      0x00\n      dup3\n      sstore\n      dup1\n      0x1f\n      lt\n      tag_316\n      jumpi\n      pop\n      jump(tag_315)\n    tag_316:\n      0x1f\n      add\n      0x20\n      swap1\n      div\n      swap1\n      0x00\n      mstore\n      keccak256(0x00, 0x20)\n      swap1\n      dup2\n      add\n      swap1\n      tag_317\n      swap2\n      swap1\n      tag_318\n      jump\t// in\n    tag_317:\n    tag_315:\n      pop\n      jump\t// out\n    tag_188:\n      pop\n      dup1\n      sload\n      0x00\n      dup3\n      sstore\n      swap1\n      0x00\n      mstore\n      keccak256(0x00, 0x20)\n      swap1\n      dup2\n      add\n      swap1\n      tag_320\n      swap2\n      swap1\n      tag_318\n      jump\t// in\n    tag_320:\n      pop\n      jump\t// out\n    tag_192:\n      pop\n      dup1\n      sload\n      0x00\n      dup3\n      sstore\n      0x08\n      mul\n      swap1\n      0x00\n      mstore\n      keccak256(0x00, 0x20)\n      swap1\n      dup2\n      add\n      swap1\n      tag_322\n      swap2\n      swap1\n      tag_323\n      jump\t// in\n    tag_322:\n      pop\n      jump\t// out\n    tag_214:\n      dup3\n      dup1\n      sload\n      dup3\n      dup3\n      sstore\n      swap1\n      0x00\n      mstore\n      keccak256(0x00, 0x20)\n      swap1\n      dup2\n      add\n      swap3\n      dup3\n      iszero\n      tag_324\n      jumpi\n      swap2\n      0x20\n      mul\n      dup3\n      add\n    tag_325:\n      dup3\n      dup2\n      gt\n      iszero\n      tag_326\n      jumpi\n      dup3\n      mload\n      dup3\n      exp(0x0100, 0x00)\n      dup2\n      sload\n      dup2\n      0xffffffffffffffffffffffffffffffffffffffff\n      mul\n      not\n      and\n      swap1\n      dup4\n      0xffffffffffffffffffffffffffffffffffffffff\n      and\n      mul\n      or\n      swap1\n      sstore\n      pop\n      swap2\n      0x20\n      add\n      swap2\n      swap1\n      0x01\n      add\n      swap1\n      jump(tag_325)\n    tag_326:\n    tag_324:\n      pop\n      swap1\n      pop\n      tag_327\n      swap2\n      swap1\n      tag_318\n      jump\t// in\n    tag_327:\n      pop\n      swap1\n      jump\t// out\n    tag_318:\n    tag_328:\n      dup1\n      dup3\n      gt\n      iszero\n      tag_329\n      jumpi\n      0x00\n      dup2\n      0x00\n      swap1\n      sstore\n      pop\n      0x01\n      add\n      jump(tag_328)\n    tag_329:\n      pop\n      swap1\n      jump\t// out\n    tag_323:\n    tag_330:\n      dup1\n      dup3\n      gt\n      iszero\n      tag_331\n      jumpi\n      0x00\n      dup1\n      dup3\n      add\n      0x00\n      swap1\n      sstore\n      0x01\n      dup3\n      add\n      0x00\n      tag_332\n      swap2\n      swap1\n      tag_186\n      jump\t// in\n    tag_332:\n      0x02\n      dup3\n      add\n      exp(0x0100, 0x00)\n      dup2\n      sload\n      swap1\n      0xffffffffffffffffffffffffffffffffffffffff\n      mul\n      not\n      and\n      swap1\n      sstore\n      0x03\n      dup3\n      add\n      0x00\n      swap1\n      sstore\n      0x04\n      dup3\n      add\n      0x00\n      tag_333\n      swap2\n      swap1\n      tag_188\n      jump\t// in\n    tag_333:\n      0x05\n      dup3\n      add\n      0x00\n      swap1\n      sstore\n      0x06\n      dup3\n      add\n      0x00\n      swap1\n      sstore\n      0x07\n      dup3\n      add\n      0x00\n      tag_334\n      swap2\n      swap1\n      tag_188\n      jump\t// in\n    tag_334:\n      pop\n      0x08\n      add\n      jump(tag_330)\n    tag_331:\n      pop\n      swap1\n      jump\t// out\n        /* \"#utility.yul\":7:82   */\n    tag_335:\n        /* \"#utility.yul\":40:46   */\n      0x00\n        /* \"#utility.yul\":73:75   */\n      0x40\n        /* \"#utility.yul\":67:76   */\n      mload\n        /* \"#utility.yul\":57:76   */\n      swap1\n      pop\n        /* \"#utility.yul\":7:82   */\n      swap1\n      jump\t// out\n        /* \"#utility.yul\":88:205   */\n    tag_336:\n        /* \"#utility.yul\":197:198   */\n      0x00\n        /* \"#utility.yul\":194:195   */\n      dup1\n        /* \"#utility.yul\":187:199   */\n      revert\n        /* \"#utility.yul\":211:328   */\n    tag_337:\n        /* \"#utility.yul\":320:321   */\n      0x00\n        /* \"#utility.yul\":317:318   */\n      dup1\n        /* \"#utility.yul\":310:322   */\n      revert\n        /* \"#utility.yul\":334:460   */\n    tag_338:\n        /* \"#utility.yul\":371:378   */\n      0x00\n        /* \"#utility.yul\":411:453   */\n      0xffffffffffffffffffffffffffffffffffffffff\n        /* \"#utility.yul\":404:409   */\n      dup3\n        /* \"#utility.yul\":400:454   */\n      and\n        /* \"#utility.yul\":389:454   */\n      swap1\n      pop\n        /* \"#utility.yul\":334:460   */\n      swap2\n      swap1\n      pop\n      jump\t// out\n        /* \"#utility.yul\":466:562   */\n    tag_339:\n        /* \"#utility.yul\":503:510   */\n      0x00\n        /* \"#utility.yul\":532:556   */\n      tag_419\n        /* \"#utility.yul\":550:555   */\n      dup3\n        /* \"#utility.yul\":532:556   */\n      tag_338\n      jump\t// in\n    tag_419:\n        /* \"#utility.yul\":521:556   */\n      swap1\n      pop\n        /* \"#utility.yul\":466:562   */\n      swap2\n      swap1\n      pop\n      jump\t// out\n        /* \"#utility.yul\":568:690   */\n    tag_340:\n        /* \"#utility.yul\":641:665   */\n      tag_421\n        /* \"#utility.yul\":659:664   */\n      dup2\n        /* \"#utility.yul\":641:665   */\n      tag_339\n      jump\t// in\n    tag_421:\n        /* \"#utility.yul\":634:639   */\n      dup2\n        /* \"#utility.yul\":631:666   */\n      eq\n        /* \"#utility.yul\":621:684   */\n      tag_422\n      jumpi\n        /* \"#utility.yul\":680:681   */\n      0x00\n        /* \"#utility.yul\":677:678   */\n      dup1\n        /* \"#utility.yul\":670:682   */\n      revert\n        /* \"#utility.yul\":621:684   */\n    tag_422:\n        /* \"#utility.yul\":568:690   */\n      pop\n      jump\t// out\n        /* \"#utility.yul\":696:835   */\n    tag_341:\n        /* \"#utility.yul\":742:747   */\n      0x00\n        /* \"#utility.yul\":780:786   */\n      dup2\n        /* \"#utility.yul\":767:787   */\n      calldataload\n        /* \"#utility.yul\":758:787   */\n      swap1\n      pop\n        /* \"#utility.yul\":796:829   */\n      tag_424\n        /* \"#utility.yul\":823:828   */\n      dup2\n        /* \"#utility.yul\":796:829   */\n      tag_340\n      jump\t// in\n    tag_424:\n        /* \"#utility.yul\":696:835   */\n      swap3\n      swap2\n      pop\n      pop\n      jump\t// out\n        /* \"#utility.yul\":841:918   */\n    tag_342:\n        /* \"#utility.yul\":878:885   */\n      0x00\n        /* \"#utility.yul\":907:912   */\n      dup2\n        /* \"#utility.yul\":896:912   */\n      swap1\n      pop\n        /* \"#utility.yul\":841:918   */\n      swap2\n      swap1\n      pop\n      jump\t// out\n        /* \"#utility.yul\":924:1046   */\n    tag_343:\n        /* \"#utility.yul\":997:1021   */\n      tag_427\n        /* \"#utility.yul\":1015:1020   */\n      dup2\n        /* \"#utility.yul\":997:1021   */\n      tag_342\n      jump\t// in\n    tag_427:\n        /* \"#utility.yul\":990:995   */\n      dup2\n        /* \"#utility.yul\":987:1022   */\n      eq\n        /* \"#utility.yul\":977:1040   */\n      tag_428\n      jumpi\n        /* \"#utility.yul\":1036:1037   */\n      0x00\n        /* \"#utility.yul\":1033:1034   */\n      dup1\n        /* \"#utility.yul\":1026:1038   */\n      revert\n        /* \"#utility.yul\":977:1040   */\n    tag_428:\n        /* \"#utility.yul\":924:1046   */\n      pop\n      jump\t// out\n        /* \"#utility.yul\":1052:1191   */\n    tag_344:\n        /* \"#utility.yul\":1098:1103   */\n      0x00\n        /* \"#utility.yul\":1136:1142   */\n      dup2\n        /* \"#utility.yul\":1123:1143   */\n      calldataload\n        /* \"#utility.yul\":1114:1143   */\n      swap1\n      pop\n        /* \"#utility.yul\":1152:1185   */\n      tag_430\n        /* \"#utility.yul\":1179:1184   */\n      dup2\n        /* \"#utility.yul\":1152:1185   */\n      tag_343\n      jump\t// in\n    tag_430:\n        /* \"#utility.yul\":1052:1191   */\n      swap3\n      swap2\n      pop\n      pop\n      jump\t// out\n        /* \"#utility.yul\":1197:1671   */\n    tag_20:\n        /* \"#utility.yul\":1265:1271   */\n      0x00\n        /* \"#utility.yul\":1273:1279   */\n      dup1\n        /* \"#utility.yul\":1322:1324   */\n      0x40\n        /* \"#utility.yul\":1310:1319   */\n      dup4\n        /* \"#utility.yul\":1301:1308   */\n      dup6\n        /* \"#utility.yul\":1297:1320   */\n      sub\n        /* \"#utility.yul\":1293:1325   */\n      slt\n        /* \"#utility.yul\":1290:1409   */\n      iszero\n      tag_432\n      jumpi\n        /* \"#utility.yul\":1328:1407   */\n      tag_433\n      tag_336\n      jump\t// in\n    tag_433:\n        /* \"#utility.yul\":1290:1409   */\n    tag_432:\n        /* \"#utility.yul\":1448:1449   */\n      0x00\n        /* \"#utility.yul\":1473:1526   */\n      tag_434\n        /* \"#utility.yul\":1518:1525   */\n      dup6\n        /* \"#utility.yul\":1509:1515   */\n      dup3\n        /* \"#utility.yul\":1498:1507   */\n      dup7\n        /* \"#utility.yul\":1494:1516   */\n      add\n        /* \"#utility.yul\":1473:1526   */\n      tag_341\n      jump\t// in\n    tag_434:\n        /* \"#utility.yul\":1463:1526   */\n      swap3\n      pop\n        /* \"#utility.yul\":1419:1536   */\n      pop\n        /* \"#utility.yul\":1575:1577   */\n      0x20\n        /* \"#utility.yul\":1601:1654   */\n      tag_435\n        /* \"#utility.yul\":1646:1653   */\n      dup6\n        /* \"#utility.yul\":1637:1643   */\n      dup3\n        /* \"#utility.yul\":1626:1635   */\n      dup7\n        /* \"#utility.yul\":1622:1644   */\n      add\n        /* \"#utility.yul\":1601:1654   */\n      tag_344\n      jump\t// in\n    tag_435:\n        /* \"#utility.yul\":1591:1654   */\n      swap2\n      pop\n        /* \"#utility.yul\":1546:1664   */\n      pop\n        /* \"#utility.yul\":1197:1671   */\n      swap3\n      pop\n      swap3\n      swap1\n      pop\n      jump\t// out\n        /* \"#utility.yul\":1677:1785   */\n    tag_345:\n        /* \"#utility.yul\":1754:1778   */\n      tag_437\n        /* \"#utility.yul\":1772:1777   */\n      dup2\n        /* \"#utility.yul\":1754:1778   */\n      tag_342\n      jump\t// in\n    tag_437:\n        /* \"#utility.yul\":1749:1752   */\n      dup3\n        /* \"#utility.yul\":1742:1779   */\n      mstore\n        /* \"#utility.yul\":1677:1785   */\n      pop\n      pop\n      jump\t// out\n        /* \"#utility.yul\":1791:1890   */\n    tag_346:\n        /* \"#utility.yul\":1843:1849   */\n      0x00\n        /* \"#utility.yul\":1877:1882   */\n      dup2\n        /* \"#utility.yul\":1871:1883   */\n      mload\n        /* \"#utility.yul\":1861:1883   */\n      swap1\n      pop\n        /* \"#utility.yul\":1791:1890   */\n      swap2\n      swap1\n      pop\n      jump\t// out\n        /* \"#utility.yul\":1896:2055   */\n    tag_347:\n        /* \"#utility.yul\":1970:1981   */\n      0x00\n        /* \"#utility.yul\":2004:2010   */\n      dup3\n        /* \"#utility.yul\":1999:2002   */\n      dup3\n        /* \"#utility.yul\":1992:2011   */\n      mstore\n        /* \"#utility.yul\":2044:2048   */\n      0x20\n        /* \"#utility.yul\":2039:2042   */\n      dup3\n        /* \"#utility.yul\":2035:2049   */\n      add\n        /* \"#utility.yul\":2020:2049   */\n      swap1\n      pop\n        /* \"#utility.yul\":1896:2055   */\n      swap3\n      swap2\n      pop\n      pop\n      jump\t// out\n        /* \"#utility.yul\":2061:2307   */\n    tag_348:\n        /* \"#utility.yul\":2142:2143   */\n      0x00\n        /* \"#utility.yul\":2152:2265   */\n    tag_441:\n        /* \"#utility.yul\":2166:2172   */\n      dup4\n        /* \"#utility.yul\":2163:2164   */\n      dup2\n        /* \"#utility.yul\":2160:2173   */\n      lt\n        /* \"#utility.yul\":2152:2265   */\n      iszero\n      tag_443\n      jumpi\n        /* \"#utility.yul\":2251:2252   */\n      dup1\n        /* \"#utility.yul\":2246:2249   */\n      dup3\n        /* \"#utility.yul\":2242:2253   */\n      add\n        /* \"#utility.yul\":2236:2254   */\n      mload\n        /* \"#utility.yul\":2232:2233   */\n      dup2\n        /* \"#utility.yul\":2227:2230   */\n      dup5\n        /* \"#utility.yul\":2223:2234   */\n      add\n        /* \"#utility.yul\":2216:2255   */\n      mstore\n        /* \"#utility.yul\":2188:2190   */\n      0x20\n        /* \"#utility.yul\":2185:2186   */\n      dup2\n        /* \"#utility.yul\":2181:2191   */\n      add\n        /* \"#utility.yul\":2176:2191   */\n      swap1\n      pop\n        /* \"#utility.yul\":2152:2265   */\n      jump(tag_441)\n    tag_443:\n        /* \"#utility.yul\":2299:2300   */\n      0x00\n        /* \"#utility.yul\":2290:2296   */\n      dup5\n        /* \"#utility.yul\":2285:2288   */\n      dup5\n        /* \"#utility.yul\":2281:2297   */\n      add\n        /* \"#utility.yul\":2274:2301   */\n      mstore\n        /* \"#utility.yul\":2123:2307   */\n      pop\n        /* \"#utility.yul\":2061:2307   */\n      pop\n      pop\n      pop\n      jump\t// out\n        /* \"#utility.yul\":2313:2415   */\n    tag_349:\n        /* \"#utility.yul\":2354:2360   */\n      0x00\n        /* \"#utility.yul\":2405:2407   */\n      0x1f\n        /* \"#utility.yul\":2401:2408   */\n      not\n        /* \"#utility.yul\":2396:2398   */\n      0x1f\n        /* \"#utility.yul\":2389:2394   */\n      dup4\n        /* \"#utility.yul\":2385:2399   */\n      add\n        /* \"#utility.yul\":2381:2409   */\n      and\n        /* \"#utility.yul\":2371:2409   */\n      swap1\n      pop\n        /* \"#utility.yul\":2313:2415   */\n      swap2\n      swap1\n      pop\n      jump\t// out\n        /* \"#utility.yul\":2421:2778   */\n    tag_350:\n        /* \"#utility.yul\":2499:2502   */\n      0x00\n        /* \"#utility.yul\":2527:2566   */\n      tag_446\n        /* \"#utility.yul\":2560:2565   */\n      dup3\n        /* \"#utility.yul\":2527:2566   */\n      tag_346\n      jump\t// in\n    tag_446:\n        /* \"#utility.yul\":2582:2643   */\n      tag_447\n        /* \"#utility.yul\":2636:2642   */\n      dup2\n        /* \"#utility.yul\":2631:2634   */\n      dup6\n        /* \"#utility.yul\":2582:2643   */\n      tag_347\n      jump\t// in\n    tag_447:\n        /* \"#utility.yul\":2575:2643   */\n      swap4\n      pop\n        /* \"#utility.yul\":2652:2717   */\n      tag_448\n        /* \"#utility.yul\":2710:2716   */\n      dup2\n        /* \"#utility.yul\":2705:2708   */\n      dup6\n        /* \"#utility.yul\":2698:2702   */\n      0x20\n        /* \"#utility.yul\":2691:2696   */\n      dup7\n        /* \"#utility.yul\":2687:2703   */\n      add\n        /* \"#utility.yul\":2652:2717   */\n      tag_348\n      jump\t// in\n    tag_448:\n        /* \"#utility.yul\":2742:2771   */\n      tag_449\n        /* \"#utility.yul\":2764:2770   */\n      dup2\n        /* \"#utility.yul\":2742:2771   */\n      tag_349\n      jump\t// in\n    tag_449:\n        /* \"#utility.yul\":2737:2740   */\n      dup5\n        /* \"#utility.yul\":2733:2772   */\n      add\n        /* \"#utility.yul\":2726:2772   */\n      swap2\n      pop\n        /* \"#utility.yul\":2503:2778   */\n      pop\n        /* \"#utility.yul\":2421:2778   */\n      swap3\n      swap2\n      pop\n      pop\n      jump\t// out\n        /* \"#utility.yul\":2784:2892   */\n    tag_351:\n        /* \"#utility.yul\":2861:2885   */\n      tag_451\n        /* \"#utility.yul\":2879:2884   */\n      dup2\n        /* \"#utility.yul\":2861:2885   */\n      tag_339\n      jump\t// in\n    tag_451:\n        /* \"#utility.yul\":2856:2859   */\n      dup3\n        /* \"#utility.yul\":2849:2886   */\n      mstore\n        /* \"#utility.yul\":2784:2892   */\n      pop\n      pop\n      jump\t// out\n        /* \"#utility.yul\":2898:3012   */\n    tag_352:\n        /* \"#utility.yul\":2965:2971   */\n      0x00\n        /* \"#utility.yul\":2999:3004   */\n      dup2\n        /* \"#utility.yul\":2993:3005   */\n      mload\n        /* \"#utility.yul\":2983:3005   */\n      swap1\n      pop\n        /* \"#utility.yul\":2898:3012   */\n      swap2\n      swap1\n      pop\n      jump\t// out\n        /* \"#utility.yul\":3018:3192   */\n    tag_353:\n        /* \"#utility.yul\":3107:3118   */\n      0x00\n        /* \"#utility.yul\":3141:3147   */\n      dup3\n        /* \"#utility.yul\":3136:3139   */\n      dup3\n        /* \"#utility.yul\":3129:3148   */\n      mstore\n        /* \"#utility.yul\":3181:3185   */\n      0x20\n        /* \"#utility.yul\":3176:3179   */\n      dup3\n        /* \"#utility.yul\":3172:3186   */\n      add\n        /* \"#utility.yul\":3157:3186   */\n      swap1\n      pop\n        /* \"#utility.yul\":3018:3192   */\n      swap3\n      swap2\n      pop\n      pop\n      jump\t// out\n        /* \"#utility.yul\":3198:3330   */\n    tag_354:\n        /* \"#utility.yul\":3265:3269   */\n      0x00\n        /* \"#utility.yul\":3288:3291   */\n      dup2\n        /* \"#utility.yul\":3280:3291   */\n      swap1\n      pop\n        /* \"#utility.yul\":3318:3322   */\n      0x20\n        /* \"#utility.yul\":3313:3316   */\n      dup3\n        /* \"#utility.yul\":3309:3323   */\n      add\n        /* \"#utility.yul\":3301:3323   */\n      swap1\n      pop\n        /* \"#utility.yul\":3198:3330   */\n      swap2\n      swap1\n      pop\n      jump\t// out\n        /* \"#utility.yul\":3336:3515   */\n    tag_355:\n        /* \"#utility.yul\":3405:3415   */\n      0x00\n        /* \"#utility.yul\":3426:3472   */\n      tag_456\n        /* \"#utility.yul\":3468:3471   */\n      dup4\n        /* \"#utility.yul\":3460:3466   */\n      dup4\n        /* \"#utility.yul\":3426:3472   */\n      tag_351\n      jump\t// in\n    tag_456:\n        /* \"#utility.yul\":3504:3508   */\n      0x20\n        /* \"#utility.yul\":3499:3502   */\n      dup4\n        /* \"#utility.yul\":3495:3509   */\n      add\n        /* \"#utility.yul\":3481:3509   */\n      swap1\n      pop\n        /* \"#utility.yul\":3336:3515   */\n      swap3\n      swap2\n      pop\n      pop\n      jump\t// out\n        /* \"#utility.yul\":3521:3634   */\n    tag_356:\n        /* \"#utility.yul\":3591:3595   */\n      0x00\n        /* \"#utility.yul\":3623:3627   */\n      0x20\n        /* \"#utility.yul\":3618:3621   */\n      dup3\n        /* \"#utility.yul\":3614:3628   */\n      add\n        /* \"#utility.yul\":3606:3628   */\n      swap1\n      pop\n        /* \"#utility.yul\":3521:3634   */\n      swap2\n      swap1\n      pop\n      jump\t// out\n        /* \"#utility.yul\":3670:4382   */\n    tag_357:\n        /* \"#utility.yul\":3779:3782   */\n      0x00\n        /* \"#utility.yul\":3808:3862   */\n      tag_459\n        /* \"#utility.yul\":3856:3861   */\n      dup3\n        /* \"#utility.yul\":3808:3862   */\n      tag_352\n      jump\t// in\n    tag_459:\n        /* \"#utility.yul\":3878:3954   */\n      tag_460\n        /* \"#utility.yul\":3947:3953   */\n      dup2\n        /* \"#utility.yul\":3942:3945   */\n      dup6\n        /* \"#utility.yul\":3878:3954   */\n      tag_353\n      jump\t// in\n    tag_460:\n        /* \"#utility.yul\":3871:3954   */\n      swap4\n      pop\n        /* \"#utility.yul\":3978:4034   */\n      tag_461\n        /* \"#utility.yul\":4028:4033   */\n      dup4\n        /* \"#utility.yul\":3978:4034   */\n      tag_354\n      jump\t// in\n    tag_461:\n        /* \"#utility.yul\":4057:4064   */\n      dup1\n        /* \"#utility.yul\":4088:4089   */\n      0x00\n        /* \"#utility.yul\":4073:4357   */\n    tag_462:\n        /* \"#utility.yul\":4098:4104   */\n      dup4\n        /* \"#utility.yul\":4095:4096   */\n      dup2\n        /* \"#utility.yul\":4092:4105   */\n      lt\n        /* \"#utility.yul\":4073:4357   */\n      iszero\n      tag_464\n      jumpi\n        /* \"#utility.yul\":4174:4180   */\n      dup2\n        /* \"#utility.yul\":4168:4181   */\n      mload\n        /* \"#utility.yul\":4201:4264   */\n      tag_465\n        /* \"#utility.yul\":4260:4263   */\n      dup9\n        /* \"#utility.yul\":4245:4258   */\n      dup3\n        /* \"#utility.yul\":4201:4264   */\n      tag_355\n      jump\t// in\n    tag_465:\n        /* \"#utility.yul\":4194:4264   */\n      swap8\n      pop\n        /* \"#utility.yul\":4287:4347   */\n      tag_466\n        /* \"#utility.yul\":4340:4346   */\n      dup4\n        /* \"#utility.yul\":4287:4347   */\n      tag_356\n      jump\t// in\n    tag_466:\n        /* \"#utility.yul\":4277:4347   */\n      swap3\n      pop\n        /* \"#utility.yul\":4133:4357   */\n      pop\n        /* \"#utility.yul\":4120:4121   */\n      0x01\n        /* \"#utility.yul\":4117:4118   */\n      dup2\n        /* \"#utility.yul\":4113:4122   */\n      add\n        /* \"#utility.yul\":4108:4122   */\n      swap1\n      pop\n        /* \"#utility.yul\":4073:4357   */\n      jump(tag_462)\n    tag_464:\n        /* \"#utility.yul\":4077:4091   */\n      pop\n        /* \"#utility.yul\":4373:4376   */\n      dup6\n        /* \"#utility.yul\":4366:4376   */\n      swap4\n      pop\n        /* \"#utility.yul\":3784:4382   */\n      pop\n      pop\n      pop\n        /* \"#utility.yul\":3670:4382   */\n      swap3\n      swap2\n      pop\n      pop\n      jump\t// out\n        /* \"#utility.yul\":4440:6314   */\n    tag_358:\n        /* \"#utility.yul\":4553:4556   */\n      0x00\n        /* \"#utility.yul\":4589:4595   */\n      0x0100\n        /* \"#utility.yul\":4584:4587   */\n      dup4\n        /* \"#utility.yul\":4580:4596   */\n      add\n        /* \"#utility.yul\":4676:4680   */\n      0x00\n        /* \"#utility.yul\":4669:4674   */\n      dup4\n        /* \"#utility.yul\":4665:4681   */\n      add\n        /* \"#utility.yul\":4659:4682   */\n      mload\n        /* \"#utility.yul\":4695:4758   */\n      tag_468\n        /* \"#utility.yul\":4752:4756   */\n      0x00\n        /* \"#utility.yul\":4747:4750   */\n      dup7\n        /* \"#utility.yul\":4743:4757   */\n      add\n        /* \"#utility.yul\":4729:4741   */\n      dup3\n        /* \"#utility.yul\":4695:4758   */\n      tag_345\n      jump\t// in\n    tag_468:\n        /* \"#utility.yul\":4606:4768   */\n      pop\n        /* \"#utility.yul\":4853:4857   */\n      0x20\n        /* \"#utility.yul\":4846:4851   */\n      dup4\n        /* \"#utility.yul\":4842:4858   */\n      add\n        /* \"#utility.yul\":4836:4859   */\n      mload\n        /* \"#utility.yul\":4906:4909   */\n      dup5\n        /* \"#utility.yul\":4900:4904   */\n      dup3\n        /* \"#utility.yul\":4896:4910   */\n      sub\n        /* \"#utility.yul\":4889:4893   */\n      0x20\n        /* \"#utility.yul\":4884:4887   */\n      dup7\n        /* \"#utility.yul\":4880:4894   */\n      add\n        /* \"#utility.yul\":4873:4911   */\n      mstore\n        /* \"#utility.yul\":4932:5005   */\n      tag_469\n        /* \"#utility.yul\":5000:5004   */\n      dup3\n        /* \"#utility.yul\":4986:4998   */\n      dup3\n        /* \"#utility.yul\":4932:5005   */\n      tag_350\n      jump\t// in\n    tag_469:\n        /* \"#utility.yul\":4924:5005   */\n      swap2\n      pop\n        /* \"#utility.yul\":4778:5016   */\n      pop\n        /* \"#utility.yul\":5100:5104   */\n      0x40\n        /* \"#utility.yul\":5093:5098   */\n      dup4\n        /* \"#utility.yul\":5089:5105   */\n      add\n        /* \"#utility.yul\":5083:5106   */\n      mload\n        /* \"#utility.yul\":5119:5182   */\n      tag_470\n        /* \"#utility.yul\":5176:5180   */\n      0x40\n        /* \"#utility.yul\":5171:5174   */\n      dup7\n        /* \"#utility.yul\":5167:5181   */\n      add\n        /* \"#utility.yul\":5153:5165   */\n      dup3\n        /* \"#utility.yul\":5119:5182   */\n      tag_351\n      jump\t// in\n    tag_470:\n        /* \"#utility.yul\":5026:5192   */\n      pop\n        /* \"#utility.yul\":5279:5283   */\n      0x60\n        /* \"#utility.yul\":5272:5277   */\n      dup4\n        /* \"#utility.yul\":5268:5284   */\n      add\n        /* \"#utility.yul\":5262:5285   */\n      mload\n        /* \"#utility.yul\":5298:5361   */\n      tag_471\n        /* \"#utility.yul\":5355:5359   */\n      0x60\n        /* \"#utility.yul\":5350:5353   */\n      dup7\n        /* \"#utility.yul\":5346:5360   */\n      add\n        /* \"#utility.yul\":5332:5344   */\n      dup3\n        /* \"#utility.yul\":5298:5361   */\n      tag_345\n      jump\t// in\n    tag_471:\n        /* \"#utility.yul\":5202:5371   */\n      pop\n        /* \"#utility.yul\":5454:5458   */\n      0x80\n        /* \"#utility.yul\":5447:5452   */\n      dup4\n        /* \"#utility.yul\":5443:5459   */\n      add\n        /* \"#utility.yul\":5437:5460   */\n      mload\n        /* \"#utility.yul\":5507:5510   */\n      dup5\n        /* \"#utility.yul\":5501:5505   */\n      dup3\n        /* \"#utility.yul\":5497:5511   */\n      sub\n        /* \"#utility.yul\":5490:5494   */\n      0x80\n        /* \"#utility.yul\":5485:5488   */\n      dup7\n        /* \"#utility.yul\":5481:5495   */\n      add\n        /* \"#utility.yul\":5474:5512   */\n      mstore\n        /* \"#utility.yul\":5533:5636   */\n      tag_472\n        /* \"#utility.yul\":5631:5635   */\n      dup3\n        /* \"#utility.yul\":5617:5629   */\n      dup3\n        /* \"#utility.yul\":5533:5636   */\n      tag_357\n      jump\t// in\n    tag_472:\n        /* \"#utility.yul\":5525:5636   */\n      swap2\n      pop\n        /* \"#utility.yul\":5381:5647   */\n      pop\n        /* \"#utility.yul\":5735:5739   */\n      0xa0\n        /* \"#utility.yul\":5728:5733   */\n      dup4\n        /* \"#utility.yul\":5724:5740   */\n      add\n        /* \"#utility.yul\":5718:5741   */\n      mload\n        /* \"#utility.yul\":5754:5817   */\n      tag_473\n        /* \"#utility.yul\":5811:5815   */\n      0xa0\n        /* \"#utility.yul\":5806:5809   */\n      dup7\n        /* \"#utility.yul\":5802:5816   */\n      add\n        /* \"#utility.yul\":5788:5800   */\n      dup3\n        /* \"#utility.yul\":5754:5817   */\n      tag_345\n      jump\t// in\n    tag_473:\n        /* \"#utility.yul\":5657:5827   */\n      pop\n        /* \"#utility.yul\":5917:5921   */\n      0xc0\n        /* \"#utility.yul\":5910:5915   */\n      dup4\n        /* \"#utility.yul\":5906:5922   */\n      add\n        /* \"#utility.yul\":5900:5923   */\n      mload\n        /* \"#utility.yul\":5936:5999   */\n      tag_474\n        /* \"#utility.yul\":5993:5997   */\n      0xc0\n        /* \"#utility.yul\":5988:5991   */\n      dup7\n        /* \"#utility.yul\":5984:5998   */\n      add\n        /* \"#utility.yul\":5970:5982   */\n      dup3\n        /* \"#utility.yul\":5936:5999   */\n      tag_345\n      jump\t// in\n    tag_474:\n        /* \"#utility.yul\":5837:6009   */\n      pop\n        /* \"#utility.yul\":6094:6098   */\n      0xe0\n        /* \"#utility.yul\":6087:6092   */\n      dup4\n        /* \"#utility.yul\":6083:6099   */\n      add\n        /* \"#utility.yul\":6077:6100   */\n      mload\n        /* \"#utility.yul\":6147:6150   */\n      dup5\n        /* \"#utility.yul\":6141:6145   */\n      dup3\n        /* \"#utility.yul\":6137:6151   */\n      sub\n        /* \"#utility.yul\":6130:6134   */\n      0xe0\n        /* \"#utility.yul\":6125:6128   */\n      dup7\n        /* \"#utility.yul\":6121:6135   */\n      add\n        /* \"#utility.yul\":6114:6152   */\n      mstore\n        /* \"#utility.yul\":6173:6276   */\n      tag_475\n        /* \"#utility.yul\":6271:6275   */\n      dup3\n        /* \"#utility.yul\":6257:6269   */\n      dup3\n        /* \"#utility.yul\":6173:6276   */\n      tag_357\n      jump\t// in\n    tag_475:\n        /* \"#utility.yul\":6165:6276   */\n      swap2\n      pop\n        /* \"#utility.yul\":6019:6287   */\n      pop\n        /* \"#utility.yul\":6304:6308   */\n      dup1\n        /* \"#utility.yul\":6297:6308   */\n      swap2\n      pop\n        /* \"#utility.yul\":4558:6314   */\n      pop\n        /* \"#utility.yul\":4440:6314   */\n      swap3\n      swap2\n      pop\n      pop\n      jump\t// out\n        /* \"#utility.yul\":6320:6681   */\n    tag_26:\n        /* \"#utility.yul\":6457:6461   */\n      0x00\n        /* \"#utility.yul\":6495:6497   */\n      0x20\n        /* \"#utility.yul\":6484:6493   */\n      dup3\n        /* \"#utility.yul\":6480:6498   */\n      add\n        /* \"#utility.yul\":6472:6498   */\n      swap1\n      pop\n        /* \"#utility.yul\":6544:6553   */\n      dup2\n        /* \"#utility.yul\":6538:6542   */\n      dup2\n        /* \"#utility.yul\":6534:6554   */\n      sub\n        /* \"#utility.yul\":6530:6531   */\n      0x00\n        /* \"#utility.yul\":6519:6528   */\n      dup4\n        /* \"#utility.yul\":6515:6532   */\n      add\n        /* \"#utility.yul\":6508:6555   */\n      mstore\n        /* \"#utility.yul\":6572:6674   */\n      tag_477\n        /* \"#utility.yul\":6669:6673   */\n      dup2\n        /* \"#utility.yul\":6660:6666   */\n      dup5\n        /* \"#utility.yul\":6572:6674   */\n      tag_358\n      jump\t// in\n    tag_477:\n        /* \"#utility.yul\":6564:6674   */\n      swap1\n      pop\n        /* \"#utility.yul\":6320:6681   */\n      swap3\n      swap2\n      pop\n      pop\n      jump\t// out\n        /* \"#utility.yul\":6687:6823   */\n    tag_359:\n        /* \"#utility.yul\":6776:6782   */\n      0x00\n        /* \"#utility.yul\":6810:6815   */\n      dup2\n        /* \"#utility.yul\":6804:6816   */\n      mload\n        /* \"#utility.yul\":6794:6816   */\n      swap1\n      pop\n        /* \"#utility.yul\":6687:6823   */\n      swap2\n      swap1\n      pop\n      jump\t// out\n        /* \"#utility.yul\":6829:7035   */\n    tag_360:\n        /* \"#utility.yul\":6950:6961   */\n      0x00\n        /* \"#utility.yul\":6984:6990   */\n      dup3\n        /* \"#utility.yul\":6979:6982   */\n      dup3\n        /* \"#utility.yul\":6972:6991   */\n      mstore\n        /* \"#utility.yul\":7024:7028   */\n      0x20\n        /* \"#utility.yul\":7019:7022   */\n      dup3\n        /* \"#utility.yul\":7015:7029   */\n      add\n        /* \"#utility.yul\":7000:7029   */\n      swap1\n      pop\n        /* \"#utility.yul\":6829:7035   */\n      swap3\n      swap2\n      pop\n      pop\n      jump\t// out\n        /* \"#utility.yul\":7041:7195   */\n    tag_361:\n        /* \"#utility.yul\":7130:7134   */\n      0x00\n        /* \"#utility.yul\":7153:7156   */\n      dup2\n        /* \"#utility.yul\":7145:7156   */\n      swap1\n      pop\n        /* \"#utility.yul\":7183:7187   */\n      0x20\n        /* \"#utility.yul\":7178:7181   */\n      dup3\n        /* \"#utility.yul\":7174:7188   */\n      add\n        /* \"#utility.yul\":7166:7188   */\n      swap1\n      pop\n        /* \"#utility.yul\":7041:7195   */\n      swap2\n      swap1\n      pop\n      jump\t// out\n        /* \"#utility.yul\":7253:9117   */\n    tag_362:\n        /* \"#utility.yul\":7356:7359   */\n      0x00\n        /* \"#utility.yul\":7392:7398   */\n      0x0100\n        /* \"#utility.yul\":7387:7390   */\n      dup4\n        /* \"#utility.yul\":7383:7399   */\n      add\n        /* \"#utility.yul\":7479:7483   */\n      0x00\n        /* \"#utility.yul\":7472:7477   */\n      dup4\n        /* \"#utility.yul\":7468:7484   */\n      add\n        /* \"#utility.yul\":7462:7485   */\n      mload\n        /* \"#utility.yul\":7498:7561   */\n      tag_482\n        /* \"#utility.yul\":7555:7559   */\n      0x00\n        /* \"#utility.yul\":7550:7553   */\n      dup7\n        /* \"#utility.yul\":7546:7560   */\n      add\n        /* \"#utility.yul\":7532:7544   */\n      dup3\n        /* \"#utility.yul\":7498:7561   */\n      tag_345\n      jump\t// in\n    tag_482:\n        /* \"#utility.yul\":7409:7571   */\n      pop\n        /* \"#utility.yul\":7656:7660   */\n      0x20\n        /* \"#utility.yul\":7649:7654   */\n      dup4\n        /* \"#utility.yul\":7645:7661   */\n      add\n        /* \"#utility.yul\":7639:7662   */\n      mload\n        /* \"#utility.yul\":7709:7712   */\n      dup5\n        /* \"#utility.yul\":7703:7707   */\n      dup3\n        /* \"#utility.yul\":7699:7713   */\n      sub\n        /* \"#utility.yul\":7692:7696   */\n      0x20\n        /* \"#utility.yul\":7687:7690   */\n      dup7\n        /* \"#utility.yul\":7683:7697   */\n      add\n        /* \"#utility.yul\":7676:7714   */\n      mstore\n        /* \"#utility.yul\":7735:7808   */\n      tag_483\n        /* \"#utility.yul\":7803:7807   */\n      dup3\n        /* \"#utility.yul\":7789:7801   */\n      dup3\n        /* \"#utility.yul\":7735:7808   */\n      tag_350\n      jump\t// in\n    tag_483:\n        /* \"#utility.yul\":7727:7808   */\n      swap2\n      pop\n        /* \"#utility.yul\":7581:7819   */\n      pop\n        /* \"#utility.yul\":7903:7907   */\n      0x40\n        /* \"#utility.yul\":7896:7901   */\n      dup4\n        /* \"#utility.yul\":7892:7908   */\n      add\n        /* \"#utility.yul\":7886:7909   */\n      mload\n        /* \"#utility.yul\":7922:7985   */\n      tag_484\n        /* \"#utility.yul\":7979:7983   */\n      0x40\n        /* \"#utility.yul\":7974:7977   */\n      dup7\n        /* \"#utility.yul\":7970:7984   */\n      add\n        /* \"#utility.yul\":7956:7968   */\n      dup3\n        /* \"#utility.yul\":7922:7985   */\n      tag_351\n      jump\t// in\n    tag_484:\n        /* \"#utility.yul\":7829:7995   */\n      pop\n        /* \"#utility.yul\":8082:8086   */\n      0x60\n        /* \"#utility.yul\":8075:8080   */\n      dup4\n        /* \"#utility.yul\":8071:8087   */\n      add\n        /* \"#utility.yul\":8065:8088   */\n      mload\n        /* \"#utility.yul\":8101:8164   */\n      tag_485\n        /* \"#utility.yul\":8158:8162   */\n      0x60\n        /* \"#utility.yul\":8153:8156   */\n      dup7\n        /* \"#utility.yul\":8149:8163   */\n      add\n        /* \"#utility.yul\":8135:8147   */\n      dup3\n        /* \"#utility.yul\":8101:8164   */\n      tag_345\n      jump\t// in\n    tag_485:\n        /* \"#utility.yul\":8005:8174   */\n      pop\n        /* \"#utility.yul\":8257:8261   */\n      0x80\n        /* \"#utility.yul\":8250:8255   */\n      dup4\n        /* \"#utility.yul\":8246:8262   */\n      add\n        /* \"#utility.yul\":8240:8263   */\n      mload\n        /* \"#utility.yul\":8310:8313   */\n      dup5\n        /* \"#utility.yul\":8304:8308   */\n      dup3\n        /* \"#utility.yul\":8300:8314   */\n      sub\n        /* \"#utility.yul\":8293:8297   */\n      0x80\n        /* \"#utility.yul\":8288:8291   */\n      dup7\n        /* \"#utility.yul\":8284:8298   */\n      add\n        /* \"#utility.yul\":8277:8315   */\n      mstore\n        /* \"#utility.yul\":8336:8439   */\n      tag_486\n        /* \"#utility.yul\":8434:8438   */\n      dup3\n        /* \"#utility.yul\":8420:8432   */\n      dup3\n        /* \"#utility.yul\":8336:8439   */\n      tag_357\n      jump\t// in\n    tag_486:\n        /* \"#utility.yul\":8328:8439   */\n      swap2\n      pop\n        /* \"#utility.yul\":8184:8450   */\n      pop\n        /* \"#utility.yul\":8538:8542   */\n      0xa0\n        /* \"#utility.yul\":8531:8536   */\n      dup4\n        /* \"#utility.yul\":8527:8543   */\n      add\n        /* \"#utility.yul\":8521:8544   */\n      mload\n        /* \"#utility.yul\":8557:8620   */\n      tag_487\n        /* \"#utility.yul\":8614:8618   */\n      0xa0\n        /* \"#utility.yul\":8609:8612   */\n      dup7\n        /* \"#utility.yul\":8605:8619   */\n      add\n        /* \"#utility.yul\":8591:8603   */\n      dup3\n        /* \"#utility.yul\":8557:8620   */\n      tag_345\n      jump\t// in\n    tag_487:\n        /* \"#utility.yul\":8460:8630   */\n      pop\n        /* \"#utility.yul\":8720:8724   */\n      0xc0\n        /* \"#utility.yul\":8713:8718   */\n      dup4\n        /* \"#utility.yul\":8709:8725   */\n      add\n        /* \"#utility.yul\":8703:8726   */\n      mload\n        /* \"#utility.yul\":8739:8802   */\n      tag_488\n        /* \"#utility.yul\":8796:8800   */\n      0xc0\n        /* \"#utility.yul\":8791:8794   */\n      dup7\n        /* \"#utility.yul\":8787:8801   */\n      add\n        /* \"#utility.yul\":8773:8785   */\n      dup3\n        /* \"#utility.yul\":8739:8802   */\n      tag_345\n      jump\t// in\n    tag_488:\n        /* \"#utility.yul\":8640:8812   */\n      pop\n        /* \"#utility.yul\":8897:8901   */\n      0xe0\n        /* \"#utility.yul\":8890:8895   */\n      dup4\n        /* \"#utility.yul\":8886:8902   */\n      add\n        /* \"#utility.yul\":8880:8903   */\n      mload\n        /* \"#utility.yul\":8950:8953   */\n      dup5\n        /* \"#utility.yul\":8944:8948   */\n      dup3\n        /* \"#utility.yul\":8940:8954   */\n      sub\n        /* \"#utility.yul\":8933:8937   */\n      0xe0\n        /* \"#utility.yul\":8928:8931   */\n      dup7\n        /* \"#utility.yul\":8924:8938   */\n      add\n        /* \"#utility.yul\":8917:8955   */\n      mstore\n        /* \"#utility.yul\":8976:9079   */\n      tag_489\n        /* \"#utility.yul\":9074:9078   */\n      dup3\n        /* \"#utility.yul\":9060:9072   */\n      dup3\n        /* \"#utility.yul\":8976:9079   */\n      tag_357\n      jump\t// in\n    tag_489:\n        /* \"#utility.yul\":8968:9079   */\n      swap2\n      pop\n        /* \"#utility.yul\":8822:9090   */\n      pop\n        /* \"#utility.yul\":9107:9111   */\n      dup1\n        /* \"#utility.yul\":9100:9111   */\n      swap2\n      pop\n        /* \"#utility.yul\":7361:9117   */\n      pop\n        /* \"#utility.yul\":7253:9117   */\n      swap3\n      swap2\n      pop\n      pop\n      jump\t// out\n        /* \"#utility.yul\":9123:9367   */\n    tag_363:\n        /* \"#utility.yul\":9236:9246   */\n      0x00\n        /* \"#utility.yul\":9271:9361   */\n      tag_491\n        /* \"#utility.yul\":9357:9360   */\n      dup4\n        /* \"#utility.yul\":9349:9355   */\n      dup4\n        /* \"#utility.yul\":9271:9361   */\n      tag_362\n      jump\t// in\n    tag_491:\n        /* \"#utility.yul\":9257:9361   */\n      swap1\n      pop\n        /* \"#utility.yul\":9123:9367   */\n      swap3\n      swap2\n      pop\n      pop\n      jump\t// out\n        /* \"#utility.yul\":9373:9508   */\n    tag_364:\n        /* \"#utility.yul\":9465:9469   */\n      0x00\n        /* \"#utility.yul\":9497:9501   */\n      0x20\n        /* \"#utility.yul\":9492:9495   */\n      dup3\n        /* \"#utility.yul\":9488:9502   */\n      add\n        /* \"#utility.yul\":9480:9502   */\n      swap1\n      pop\n        /* \"#utility.yul\":9373:9508   */\n      swap2\n      swap1\n      pop\n      jump\t// out\n        /* \"#utility.yul\":9570:10657   */\n    tag_365:\n        /* \"#utility.yul\":9733:9736   */\n      0x00\n        /* \"#utility.yul\":9762:9838   */\n      tag_494\n        /* \"#utility.yul\":9832:9837   */\n      dup3\n        /* \"#utility.yul\":9762:9838   */\n      tag_359\n      jump\t// in\n    tag_494:\n        /* \"#utility.yul\":9854:9962   */\n      tag_495\n        /* \"#utility.yul\":9955:9961   */\n      dup2\n        /* \"#utility.yul\":9950:9953   */\n      dup6\n        /* \"#utility.yul\":9854:9962   */\n      tag_360\n      jump\t// in\n    tag_495:\n        /* \"#utility.yul\":9847:9962   */\n      swap4\n      pop\n        /* \"#utility.yul\":9988:9991   */\n      dup4\n        /* \"#utility.yul\":10033:10037   */\n      0x20\n        /* \"#utility.yul\":10025:10031   */\n      dup3\n        /* \"#utility.yul\":10021:10038   */\n      mul\n        /* \"#utility.yul\":10016:10019   */\n      dup6\n        /* \"#utility.yul\":10012:10039   */\n      add\n        /* \"#utility.yul\":10063:10141   */\n      tag_496\n        /* \"#utility.yul\":10135:10140   */\n      dup6\n        /* \"#utility.yul\":10063:10141   */\n      tag_361\n      jump\t// in\n    tag_496:\n        /* \"#utility.yul\":10164:10171   */\n      dup1\n        /* \"#utility.yul\":10195:10196   */\n      0x00\n        /* \"#utility.yul\":10180:10612   */\n    tag_497:\n        /* \"#utility.yul\":10205:10211   */\n      dup6\n        /* \"#utility.yul\":10202:10203   */\n      dup2\n        /* \"#utility.yul\":10199:10212   */\n      lt\n        /* \"#utility.yul\":10180:10612   */\n      iszero\n      tag_499\n      jumpi\n        /* \"#utility.yul\":10276:10285   */\n      dup5\n        /* \"#utility.yul\":10270:10274   */\n      dup5\n        /* \"#utility.yul\":10266:10286   */\n      sub\n        /* \"#utility.yul\":10261:10264   */\n      dup10\n        /* \"#utility.yul\":10254:10287   */\n      mstore\n        /* \"#utility.yul\":10327:10333   */\n      dup2\n        /* \"#utility.yul\":10321:10334   */\n      mload\n        /* \"#utility.yul\":10355:10463   */\n      tag_500\n        /* \"#utility.yul\":10458:10462   */\n      dup6\n        /* \"#utility.yul\":10443:10456   */\n      dup3\n        /* \"#utility.yul\":10355:10463   */\n      tag_363\n      jump\t// in\n    tag_500:\n        /* \"#utility.yul\":10347:10463   */\n      swap5\n      pop\n        /* \"#utility.yul\":10486:10568   */\n      tag_501\n        /* \"#utility.yul\":10561:10567   */\n      dup4\n        /* \"#utility.yul\":10486:10568   */\n      tag_364\n      jump\t// in\n    tag_501:\n        /* \"#utility.yul\":10476:10568   */\n      swap3\n      pop\n        /* \"#utility.yul\":10597:10601   */\n      0x20\n        /* \"#utility.yul\":10592:10595   */\n      dup11\n        /* \"#utility.yul\":10588:10602   */\n      add\n        /* \"#utility.yul\":10581:10602   */\n      swap10\n      pop\n        /* \"#utility.yul\":10240:10612   */\n      pop\n        /* \"#utility.yul\":10227:10228   */\n      0x01\n        /* \"#utility.yul\":10224:10225   */\n      dup2\n        /* \"#utility.yul\":10220:10229   */\n      add\n        /* \"#utility.yul\":10215:10229   */\n      swap1\n      pop\n        /* \"#utility.yul\":10180:10612   */\n      jump(tag_497)\n    tag_499:\n        /* \"#utility.yul\":10184:10198   */\n      pop\n        /* \"#utility.yul\":10628:10632   */\n      dup3\n        /* \"#utility.yul\":10621:10632   */\n      swap8\n      pop\n        /* \"#utility.yul\":10648:10651   */\n      dup8\n        /* \"#utility.yul\":10641:10651   */\n      swap6\n      pop\n        /* \"#utility.yul\":9738:10657   */\n      pop\n      pop\n      pop\n      pop\n      pop\n        /* \"#utility.yul\":9570:10657   */\n      swap3\n      swap2\n      pop\n      pop\n      jump\t// out\n        /* \"#utility.yul\":10663:11124   */\n    tag_30:\n        /* \"#utility.yul\":10850:10854   */\n      0x00\n        /* \"#utility.yul\":10888:10890   */\n      0x20\n        /* \"#utility.yul\":10877:10886   */\n      dup3\n        /* \"#utility.yul\":10873:10891   */\n      add\n        /* \"#utility.yul\":10865:10891   */\n      swap1\n      pop\n        /* \"#utility.yul\":10937:10946   */\n      dup2\n        /* \"#utility.yul\":10931:10935   */\n      dup2\n        /* \"#utility.yul\":10927:10947   */\n      sub\n        /* \"#utility.yul\":10923:10924   */\n      0x00\n        /* \"#utility.yul\":10912:10921   */\n      dup4\n        /* \"#utility.yul\":10908:10925   */\n      add\n        /* \"#utility.yul\":10901:10948   */\n      mstore\n        /* \"#utility.yul\":10965:11117   */\n      tag_503\n        /* \"#utility.yul\":11112:11116   */\n      dup2\n        /* \"#utility.yul\":11103:11109   */\n      dup5\n        /* \"#utility.yul\":10965:11117   */\n      tag_365\n      jump\t// in\n    tag_503:\n        /* \"#utility.yul\":10957:11117   */\n      swap1\n      pop\n        /* \"#utility.yul\":10663:11124   */\n      swap3\n      swap2\n      pop\n      pop\n      jump\t// out\n        /* \"#utility.yul\":11130:11247   */\n    tag_366:\n        /* \"#utility.yul\":11239:11240   */\n      0x00\n        /* \"#utility.yul\":11236:11237   */\n      dup1\n        /* \"#utility.yul\":11229:11241   */\n      revert\n        /* \"#utility.yul\":11253:11370   */\n    tag_367:\n        /* \"#utility.yul\":11362:11363   */\n      0x00\n        /* \"#utility.yul\":11359:11360   */\n      dup1\n        /* \"#utility.yul\":11352:11364   */\n      revert\n        /* \"#utility.yul\":11376:11556   */\n    tag_368:\n        /* \"#utility.yul\":11424:11501   */\n      0x4e487b7100000000000000000000000000000000000000000000000000000000\n        /* \"#utility.yul\":11421:11422   */\n      0x00\n        /* \"#utility.yul\":11414:11502   */\n      mstore\n        /* \"#utility.yul\":11521:11525   */\n      0x41\n        /* \"#utility.yul\":11518:11519   */\n      0x04\n        /* \"#utility.yul\":11511:11526   */\n      mstore\n        /* \"#utility.yul\":11545:11549   */\n      0x24\n        /* \"#utility.yul\":11542:11543   */\n      0x00\n        /* \"#utility.yul\":11535:11550   */\n      revert\n        /* \"#utility.yul\":11562:11843   */\n    tag_369:\n        /* \"#utility.yul\":11645:11672   */\n      tag_508\n        /* \"#utility.yul\":11667:11671   */\n      dup3\n        /* \"#utility.yul\":11645:11672   */\n      tag_349\n      jump\t// in\n    tag_508:\n        /* \"#utility.yul\":11637:11643   */\n      dup2\n        /* \"#utility.yul\":11633:11673   */\n      add\n        /* \"#utility.yul\":11775:11781   */\n      dup2\n        /* \"#utility.yul\":11763:11773   */\n      dup2\n        /* \"#utility.yul\":11760:11782   */\n      lt\n        /* \"#utility.yul\":11739:11757   */\n      0xffffffffffffffff\n        /* \"#utility.yul\":11727:11737   */\n      dup3\n        /* \"#utility.yul\":11724:11758   */\n      gt\n        /* \"#utility.yul\":11721:11783   */\n      or\n        /* \"#utility.yul\":11718:11806   */\n      iszero\n      tag_509\n      jumpi\n        /* \"#utility.yul\":11786:11804   */\n      tag_510\n      tag_368\n      jump\t// in\n    tag_510:\n        /* \"#utility.yul\":11718:11806   */\n    tag_509:\n        /* \"#utility.yul\":11826:11836   */\n      dup1\n        /* \"#utility.yul\":11822:11824   */\n      0x40\n        /* \"#utility.yul\":11815:11837   */\n      mstore\n        /* \"#utility.yul\":11605:11843   */\n      pop\n        /* \"#utility.yul\":11562:11843   */\n      pop\n      pop\n      jump\t// out\n        /* \"#utility.yul\":11849:11978   */\n    tag_370:\n        /* \"#utility.yul\":11883:11889   */\n      0x00\n        /* \"#utility.yul\":11910:11930   */\n      tag_512\n      tag_335\n      jump\t// in\n    tag_512:\n        /* \"#utility.yul\":11900:11930   */\n      swap1\n      pop\n        /* \"#utility.yul\":11939:11972   */\n      tag_513\n        /* \"#utility.yul\":11967:11971   */\n      dup3\n        /* \"#utility.yul\":11959:11965   */\n      dup3\n        /* \"#utility.yul\":11939:11972   */\n      tag_369\n      jump\t// in\n    tag_513:\n        /* \"#utility.yul\":11849:11978   */\n      swap2\n      swap1\n      pop\n      jump\t// out\n        /* \"#utility.yul\":11984:12292   */\n    tag_371:\n        /* \"#utility.yul\":12046:12050   */\n      0x00\n        /* \"#utility.yul\":12136:12154   */\n      0xffffffffffffffff\n        /* \"#utility.yul\":12128:12134   */\n      dup3\n        /* \"#utility.yul\":12125:12155   */\n      gt\n        /* \"#utility.yul\":12122:12178   */\n      iszero\n      tag_515\n      jumpi\n        /* \"#utility.yul\":12158:12176   */\n      tag_516\n      tag_368\n      jump\t// in\n    tag_516:\n        /* \"#utility.yul\":12122:12178   */\n    tag_515:\n        /* \"#utility.yul\":12196:12225   */\n      tag_517\n        /* \"#utility.yul\":12218:12224   */\n      dup3\n        /* \"#utility.yul\":12196:12225   */\n      tag_349\n      jump\t// in\n    tag_517:\n        /* \"#utility.yul\":12188:12225   */\n      swap1\n      pop\n        /* \"#utility.yul\":12280:12284   */\n      0x20\n        /* \"#utility.yul\":12274:12278   */\n      dup2\n        /* \"#utility.yul\":12270:12285   */\n      add\n        /* \"#utility.yul\":12262:12285   */\n      swap1\n      pop\n        /* \"#utility.yul\":11984:12292   */\n      swap2\n      swap1\n      pop\n      jump\t// out\n        /* \"#utility.yul\":12298:12444   */\n    tag_372:\n        /* \"#utility.yul\":12395:12401   */\n      dup3\n        /* \"#utility.yul\":12390:12393   */\n      dup2\n        /* \"#utility.yul\":12385:12388   */\n      dup4\n        /* \"#utility.yul\":12372:12402   */\n      calldatacopy\n        /* \"#utility.yul\":12436:12437   */\n      0x00\n        /* \"#utility.yul\":12427:12433   */\n      dup4\n        /* \"#utility.yul\":12422:12425   */\n      dup4\n        /* \"#utility.yul\":12418:12434   */\n      add\n        /* \"#utility.yul\":12411:12438   */\n      mstore\n        /* \"#utility.yul\":12298:12444   */\n      pop\n      pop\n      pop\n      jump\t// out\n        /* \"#utility.yul\":12450:12875   */\n    tag_373:\n        /* \"#utility.yul\":12528:12533   */\n      0x00\n        /* \"#utility.yul\":12553:12619   */\n      tag_520\n        /* \"#utility.yul\":12569:12618   */\n      tag_521\n        /* \"#utility.yul\":12611:12617   */\n      dup5\n        /* \"#utility.yul\":12569:12618   */\n      tag_371\n      jump\t// in\n    tag_521:\n        /* \"#utility.yul\":12553:12619   */\n      tag_370\n      jump\t// in\n    tag_520:\n        /* \"#utility.yul\":12544:12619   */\n      swap1\n      pop\n        /* \"#utility.yul\":12642:12648   */\n      dup3\n        /* \"#utility.yul\":12635:12640   */\n      dup2\n        /* \"#utility.yul\":12628:12649   */\n      mstore\n        /* \"#utility.yul\":12680:12684   */\n      0x20\n        /* \"#utility.yul\":12673:12678   */\n      dup2\n        /* \"#utility.yul\":12669:12685   */\n      add\n        /* \"#utility.yul\":12718:12721   */\n      dup5\n        /* \"#utility.yul\":12709:12715   */\n      dup5\n        /* \"#utility.yul\":12704:12707   */\n      dup5\n        /* \"#utility.yul\":12700:12716   */\n      add\n        /* \"#utility.yul\":12697:12722   */\n      gt\n        /* \"#utility.yul\":12694:12806   */\n      iszero\n      tag_522\n      jumpi\n        /* \"#utility.yul\":12725:12804   */\n      tag_523\n      tag_367\n      jump\t// in\n    tag_523:\n        /* \"#utility.yul\":12694:12806   */\n    tag_522:\n        /* \"#utility.yul\":12815:12869   */\n      tag_524\n        /* \"#utility.yul\":12862:12868   */\n      dup5\n        /* \"#utility.yul\":12857:12860   */\n      dup3\n        /* \"#utility.yul\":12852:12855   */\n      dup6\n        /* \"#utility.yul\":12815:12869   */\n      tag_372\n      jump\t// in\n    tag_524:\n        /* \"#utility.yul\":12534:12875   */\n      pop\n        /* \"#utility.yul\":12450:12875   */\n      swap4\n      swap3\n      pop\n      pop\n      pop\n      jump\t// out\n        /* \"#utility.yul\":12895:13235   */\n    tag_374:\n        /* \"#utility.yul\":12951:12956   */\n      0x00\n        /* \"#utility.yul\":13000:13003   */\n      dup3\n        /* \"#utility.yul\":12993:12997   */\n      0x1f\n        /* \"#utility.yul\":12985:12991   */\n      dup4\n        /* \"#utility.yul\":12981:12998   */\n      add\n        /* \"#utility.yul\":12977:13004   */\n      slt\n        /* \"#utility.yul\":12967:13089   */\n      tag_526\n      jumpi\n        /* \"#utility.yul\":13008:13087   */\n      tag_527\n      tag_366\n      jump\t// in\n    tag_527:\n        /* \"#utility.yul\":12967:13089   */\n    tag_526:\n        /* \"#utility.yul\":13125:13131   */\n      dup2\n        /* \"#utility.yul\":13112:13132   */\n      calldataload\n        /* \"#utility.yul\":13150:13229   */\n      tag_528\n        /* \"#utility.yul\":13225:13228   */\n      dup5\n        /* \"#utility.yul\":13217:13223   */\n      dup3\n        /* \"#utility.yul\":13210:13214   */\n      0x20\n        /* \"#utility.yul\":13202:13208   */\n      dup7\n        /* \"#utility.yul\":13198:13215   */\n      add\n        /* \"#utility.yul\":13150:13229   */\n      tag_373\n      jump\t// in\n    tag_528:\n        /* \"#utility.yul\":13141:13229   */\n      swap2\n      pop\n        /* \"#utility.yul\":12957:13235   */\n      pop\n        /* \"#utility.yul\":12895:13235   */\n      swap3\n      swap2\n      pop\n      pop\n      jump\t// out\n        /* \"#utility.yul\":13241:13750   */\n    tag_39:\n        /* \"#utility.yul\":13310:13316   */\n      0x00\n        /* \"#utility.yul\":13359:13361   */\n      0x20\n        /* \"#utility.yul\":13347:13356   */\n      dup3\n        /* \"#utility.yul\":13338:13345   */\n      dup5\n        /* \"#utility.yul\":13334:13357   */\n      sub\n        /* \"#utility.yul\":13330:13362   */\n      slt\n        /* \"#utility.yul\":13327:13446   */\n      iszero\n      tag_530\n      jumpi\n        /* \"#utility.yul\":13365:13444   */\n      tag_531\n      tag_336\n      jump\t// in\n    tag_531:\n        /* \"#utility.yul\":13327:13446   */\n    tag_530:\n        /* \"#utility.yul\":13513:13514   */\n      0x00\n        /* \"#utility.yul\":13502:13511   */\n      dup3\n        /* \"#utility.yul\":13498:13515   */\n      add\n        /* \"#utility.yul\":13485:13516   */\n      calldataload\n        /* \"#utility.yul\":13543:13561   */\n      0xffffffffffffffff\n        /* \"#utility.yul\":13535:13541   */\n      dup2\n        /* \"#utility.yul\":13532:13562   */\n      gt\n        /* \"#utility.yul\":13529:13646   */\n      iszero\n      tag_532\n      jumpi\n        /* \"#utility.yul\":13565:13644   */\n      tag_533\n      tag_337\n      jump\t// in\n    tag_533:\n        /* \"#utility.yul\":13529:13646   */\n    tag_532:\n        /* \"#utility.yul\":13670:13733   */\n      tag_534\n        /* \"#utility.yul\":13725:13732   */\n      dup5\n        /* \"#utility.yul\":13716:13722   */\n      dup3\n        /* \"#utility.yul\":13705:13714   */\n      dup6\n        /* \"#utility.yul\":13701:13723   */\n      add\n        /* \"#utility.yul\":13670:13733   */\n      tag_374\n      jump\t// in\n    tag_534:\n        /* \"#utility.yul\":13660:13733   */\n      swap2\n      pop\n        /* \"#utility.yul\":13456:13743   */\n      pop\n        /* \"#utility.yul\":13241:13750   */\n      swap3\n      swap2\n      pop\n      pop\n      jump\t// out\n        /* \"#utility.yul\":13756:14085   */\n    tag_43:\n        /* \"#utility.yul\":13815:13821   */\n      0x00\n        /* \"#utility.yul\":13864:13866   */\n      0x20\n        /* \"#utility.yul\":13852:13861   */\n      dup3\n        /* \"#utility.yul\":13843:13850   */\n      dup5\n        /* \"#utility.yul\":13839:13862   */\n      sub\n        /* \"#utility.yul\":13835:13867   */\n      slt\n        /* \"#utility.yul\":13832:13951   */\n      iszero\n      tag_536\n      jumpi\n        /* \"#utility.yul\":13870:13949   */\n      tag_537\n      tag_336\n      jump\t// in\n    tag_537:\n        /* \"#utility.yul\":13832:13951   */\n    tag_536:\n        /* \"#utility.yul\":13990:13991   */\n      0x00\n        /* \"#utility.yul\":14015:14068   */\n      tag_538\n        /* \"#utility.yul\":14060:14067   */\n      dup5\n        /* \"#utility.yul\":14051:14057   */\n      dup3\n        /* \"#utility.yul\":14040:14049   */\n      dup6\n        /* \"#utility.yul\":14036:14058   */\n      add\n        /* \"#utility.yul\":14015:14068   */\n      tag_341\n      jump\t// in\n    tag_538:\n        /* \"#utility.yul\":14005:14068   */\n      swap2\n      pop\n        /* \"#utility.yul\":13961:14078   */\n      pop\n        /* \"#utility.yul\":13756:14085   */\n      swap3\n      swap2\n      pop\n      pop\n      jump\t// out\n        /* \"#utility.yul\":14091:14209   */\n    tag_375:\n        /* \"#utility.yul\":14178:14202   */\n      tag_540\n        /* \"#utility.yul\":14196:14201   */\n      dup2\n        /* \"#utility.yul\":14178:14202   */\n      tag_342\n      jump\t// in\n    tag_540:\n        /* \"#utility.yul\":14173:14176   */\n      dup3\n        /* \"#utility.yul\":14166:14203   */\n      mstore\n        /* \"#utility.yul\":14091:14209   */\n      pop\n      pop\n      jump\t// out\n        /* \"#utility.yul\":14215:14437   */\n    tag_46:\n        /* \"#utility.yul\":14308:14312   */\n      0x00\n        /* \"#utility.yul\":14346:14348   */\n      0x20\n        /* \"#utility.yul\":14335:14344   */\n      dup3\n        /* \"#utility.yul\":14331:14349   */\n      add\n        /* \"#utility.yul\":14323:14349   */\n      swap1\n      pop\n        /* \"#utility.yul\":14359:14430   */\n      tag_542\n        /* \"#utility.yul\":14427:14428   */\n      0x00\n        /* \"#utility.yul\":14416:14425   */\n      dup4\n        /* \"#utility.yul\":14412:14429   */\n      add\n        /* \"#utility.yul\":14403:14409   */\n      dup5\n        /* \"#utility.yul\":14359:14430   */\n      tag_375\n      jump\t// in\n    tag_542:\n        /* \"#utility.yul\":14215:14437   */\n      swap3\n      swap2\n      pop\n      pop\n      jump\t// out\n        /* \"#utility.yul\":14443:14561   */\n    tag_376:\n        /* \"#utility.yul\":14530:14554   */\n      tag_544\n        /* \"#utility.yul\":14548:14553   */\n      dup2\n        /* \"#utility.yul\":14530:14554   */\n      tag_339\n      jump\t// in\n    tag_544:\n        /* \"#utility.yul\":14525:14528   */\n      dup3\n        /* \"#utility.yul\":14518:14555   */\n      mstore\n        /* \"#utility.yul\":14443:14561   */\n      pop\n      pop\n      jump\t// out\n        /* \"#utility.yul\":14567:14789   */\n    tag_50:\n        /* \"#utility.yul\":14660:14664   */\n      0x00\n        /* \"#utility.yul\":14698:14700   */\n      0x20\n        /* \"#utility.yul\":14687:14696   */\n      dup3\n        /* \"#utility.yul\":14683:14701   */\n      add\n        /* \"#utility.yul\":14675:14701   */\n      swap1\n      pop\n        /* \"#utility.yul\":14711:14782   */\n      tag_546\n        /* \"#utility.yul\":14779:14780   */\n      0x00\n        /* \"#utility.yul\":14768:14777   */\n      dup4\n        /* \"#utility.yul\":14764:14781   */\n      add\n        /* \"#utility.yul\":14755:14761   */\n      dup5\n        /* \"#utility.yul\":14711:14782   */\n      tag_376\n      jump\t// in\n    tag_546:\n        /* \"#utility.yul\":14567:14789   */\n      swap3\n      swap2\n      pop\n      pop\n      jump\t// out\n        /* \"#utility.yul\":14795:15124   */\n    tag_60:\n        /* \"#utility.yul\":14854:14860   */\n      0x00\n        /* \"#utility.yul\":14903:14905   */\n      0x20\n        /* \"#utility.yul\":14891:14900   */\n      dup3\n        /* \"#utility.yul\":14882:14889   */\n      dup5\n        /* \"#utility.yul\":14878:14901   */\n      sub\n        /* \"#utility.yul\":14874:14906   */\n      slt\n        /* \"#utility.yul\":14871:14990   */\n      iszero\n      tag_548\n      jumpi\n        /* \"#utility.yul\":14909:14988   */\n      tag_549\n      tag_336\n      jump\t// in\n    tag_549:\n        /* \"#utility.yul\":14871:14990   */\n    tag_548:\n        /* \"#utility.yul\":15029:15030   */\n      0x00\n        /* \"#utility.yul\":15054:15107   */\n      tag_550\n        /* \"#utility.yul\":15099:15106   */\n      dup5\n        /* \"#utility.yul\":15090:15096   */\n      dup3\n        /* \"#utility.yul\":15079:15088   */\n      dup6\n        /* \"#utility.yul\":15075:15097   */\n      add\n        /* \"#utility.yul\":15054:15107   */\n      tag_344\n      jump\t// in\n    tag_550:\n        /* \"#utility.yul\":15044:15107   */\n      swap2\n      pop\n        /* \"#utility.yul\":15000:15117   */\n      pop\n        /* \"#utility.yul\":14795:15124   */\n      swap3\n      swap2\n      pop\n      pop\n      jump\t// out\n        /* \"#utility.yul\":15130:15247   */\n    tag_377:\n        /* \"#utility.yul\":15239:15240   */\n      0x00\n        /* \"#utility.yul\":15236:15237   */\n      dup1\n        /* \"#utility.yul\":15229:15241   */\n      revert\n        /* \"#utility.yul\":15253:15370   */\n    tag_378:\n        /* \"#utility.yul\":15362:15363   */\n      0x00\n        /* \"#utility.yul\":15359:15360   */\n      dup1\n        /* \"#utility.yul\":15352:15364   */\n      revert\n        /* \"#utility.yul\":15376:15810   */\n    tag_379:\n        /* \"#utility.yul\":15465:15470   */\n      0x00\n        /* \"#utility.yul\":15490:15556   */\n      tag_554\n        /* \"#utility.yul\":15506:15555   */\n      tag_555\n        /* \"#utility.yul\":15548:15554   */\n      dup5\n        /* \"#utility.yul\":15506:15555   */\n      tag_371\n      jump\t// in\n    tag_555:\n        /* \"#utility.yul\":15490:15556   */\n      tag_370\n      jump\t// in\n    tag_554:\n        /* \"#utility.yul\":15481:15556   */\n      swap1\n      pop\n        /* \"#utility.yul\":15579:15585   */\n      dup3\n        /* \"#utility.yul\":15572:15577   */\n      dup2\n        /* \"#utility.yul\":15565:15586   */\n      mstore\n        /* \"#utility.yul\":15617:15621   */\n      0x20\n        /* \"#utility.yul\":15610:15615   */\n      dup2\n        /* \"#utility.yul\":15606:15622   */\n      add\n        /* \"#utility.yul\":15655:15658   */\n      dup5\n        /* \"#utility.yul\":15646:15652   */\n      dup5\n        /* \"#utility.yul\":15641:15644   */\n      dup5\n        /* \"#utility.yul\":15637:15653   */\n      add\n        /* \"#utility.yul\":15634:15659   */\n      gt\n        /* \"#utility.yul\":15631:15743   */\n      iszero\n      tag_556\n      jumpi\n        /* \"#utility.yul\":15662:15741   */\n      tag_557\n      tag_367\n      jump\t// in\n    tag_557:\n        /* \"#utility.yul\":15631:15743   */\n    tag_556:\n        /* \"#utility.yul\":15752:15804   */\n      tag_558\n        /* \"#utility.yul\":15797:15803   */\n      dup5\n        /* \"#utility.yul\":15792:15795   */\n      dup3\n        /* \"#utility.yul\":15787:15790   */\n      dup6\n        /* \"#utility.yul\":15752:15804   */\n      tag_348\n      jump\t// in\n    tag_558:\n        /* \"#utility.yul\":15471:15810   */\n      pop\n        /* \"#utility.yul\":15376:15810   */\n      swap4\n      swap3\n      pop\n      pop\n      pop\n      jump\t// out\n        /* \"#utility.yul\":15830:16185   */\n    tag_380:\n        /* \"#utility.yul\":15897:15902   */\n      0x00\n        /* \"#utility.yul\":15946:15949   */\n      dup3\n        /* \"#utility.yul\":15939:15943   */\n      0x1f\n        /* \"#utility.yul\":15931:15937   */\n      dup4\n        /* \"#utility.yul\":15927:15944   */\n      add\n        /* \"#utility.yul\":15923:15950   */\n      slt\n        /* \"#utility.yul\":15913:16035   */\n      tag_560\n      jumpi\n        /* \"#utility.yul\":15954:16033   */\n      tag_561\n      tag_366\n      jump\t// in\n    tag_561:\n        /* \"#utility.yul\":15913:16035   */\n    tag_560:\n        /* \"#utility.yul\":16064:16070   */\n      dup2\n        /* \"#utility.yul\":16058:16071   */\n      mload\n        /* \"#utility.yul\":16089:16179   */\n      tag_562\n        /* \"#utility.yul\":16175:16178   */\n      dup5\n        /* \"#utility.yul\":16167:16173   */\n      dup3\n        /* \"#utility.yul\":16160:16164   */\n      0x20\n        /* \"#utility.yul\":16152:16158   */\n      dup7\n        /* \"#utility.yul\":16148:16165   */\n      add\n        /* \"#utility.yul\":16089:16179   */\n      tag_379\n      jump\t// in\n    tag_562:\n        /* \"#utility.yul\":16080:16179   */\n      swap2\n      pop\n        /* \"#utility.yul\":15903:16185   */\n      pop\n        /* \"#utility.yul\":15830:16185   */\n      swap3\n      swap2\n      pop\n      pop\n      jump\t// out\n        /* \"#utility.yul\":16226:17168   */\n    tag_381:\n        /* \"#utility.yul\":16314:16319   */\n      0x00\n        /* \"#utility.yul\":16358:16362   */\n      0x40\n        /* \"#utility.yul\":16346:16355   */\n      dup3\n        /* \"#utility.yul\":16341:16344   */\n      dup5\n        /* \"#utility.yul\":16337:16356   */\n      sub\n        /* \"#utility.yul\":16333:16363   */\n      slt\n        /* \"#utility.yul\":16330:16447   */\n      iszero\n      tag_564\n      jumpi\n        /* \"#utility.yul\":16366:16445   */\n      tag_565\n      tag_377\n      jump\t// in\n    tag_565:\n        /* \"#utility.yul\":16330:16447   */\n    tag_564:\n        /* \"#utility.yul\":16465:16486   */\n      tag_566\n        /* \"#utility.yul\":16481:16485   */\n      0x40\n        /* \"#utility.yul\":16465:16486   */\n      tag_370\n      jump\t// in\n    tag_566:\n        /* \"#utility.yul\":16456:16486   */\n      swap1\n      pop\n        /* \"#utility.yul\":16573:16574   */\n      0x00\n        /* \"#utility.yul\":16562:16571   */\n      dup3\n        /* \"#utility.yul\":16558:16575   */\n      add\n        /* \"#utility.yul\":16552:16576   */\n      mload\n        /* \"#utility.yul\":16603:16621   */\n      0xffffffffffffffff\n        /* \"#utility.yul\":16595:16601   */\n      dup2\n        /* \"#utility.yul\":16592:16622   */\n      gt\n        /* \"#utility.yul\":16589:16706   */\n      iszero\n      tag_567\n      jumpi\n        /* \"#utility.yul\":16625:16704   */\n      tag_568\n      tag_378\n      jump\t// in\n    tag_568:\n        /* \"#utility.yul\":16589:16706   */\n    tag_567:\n        /* \"#utility.yul\":16745:16815   */\n      tag_569\n        /* \"#utility.yul\":16811:16814   */\n      dup5\n        /* \"#utility.yul\":16802:16808   */\n      dup3\n        /* \"#utility.yul\":16791:16800   */\n      dup6\n        /* \"#utility.yul\":16787:16809   */\n      add\n        /* \"#utility.yul\":16745:16815   */\n      tag_380\n      jump\t// in\n    tag_569:\n        /* \"#utility.yul\":16738:16742   */\n      0x00\n        /* \"#utility.yul\":16731:16736   */\n      dup4\n        /* \"#utility.yul\":16727:16743   */\n      add\n        /* \"#utility.yul\":16720:16816   */\n      mstore\n        /* \"#utility.yul\":16496:16827   */\n      pop\n        /* \"#utility.yul\":16906:16908   */\n      0x20\n        /* \"#utility.yul\":16895:16904   */\n      dup3\n        /* \"#utility.yul\":16891:16909   */\n      add\n        /* \"#utility.yul\":16885:16910   */\n      mload\n        /* \"#utility.yul\":16937:16955   */\n      0xffffffffffffffff\n        /* \"#utility.yul\":16929:16935   */\n      dup2\n        /* \"#utility.yul\":16926:16956   */\n      gt\n        /* \"#utility.yul\":16923:17040   */\n      iszero\n      tag_570\n      jumpi\n        /* \"#utility.yul\":16959:17038   */\n      tag_571\n      tag_378\n      jump\t// in\n    tag_571:\n        /* \"#utility.yul\":16923:17040   */\n    tag_570:\n        /* \"#utility.yul\":17079:17149   */\n      tag_572\n        /* \"#utility.yul\":17145:17148   */\n      dup5\n        /* \"#utility.yul\":17136:17142   */\n      dup3\n        /* \"#utility.yul\":17125:17134   */\n      dup6\n        /* \"#utility.yul\":17121:17143   */\n      add\n        /* \"#utility.yul\":17079:17149   */\n      tag_380\n      jump\t// in\n    tag_572:\n        /* \"#utility.yul\":17072:17076   */\n      0x20\n        /* \"#utility.yul\":17065:17070   */\n      dup4\n        /* \"#utility.yul\":17061:17077   */\n      add\n        /* \"#utility.yul\":17054:17150   */\n      mstore\n        /* \"#utility.yul\":16837:17161   */\n      pop\n        /* \"#utility.yul\":16226:17168   */\n      swap3\n      swap2\n      pop\n      pop\n      jump\t// out\n        /* \"#utility.yul\":17174:17734   */\n    tag_70:\n        /* \"#utility.yul\":17272:17278   */\n      0x00\n        /* \"#utility.yul\":17321:17323   */\n      0x20\n        /* \"#utility.yul\":17309:17318   */\n      dup3\n        /* \"#utility.yul\":17300:17307   */\n      dup5\n        /* \"#utility.yul\":17296:17319   */\n      sub\n        /* \"#utility.yul\":17292:17324   */\n      slt\n        /* \"#utility.yul\":17289:17408   */\n      iszero\n      tag_574\n      jumpi\n        /* \"#utility.yul\":17327:17406   */\n      tag_575\n      tag_336\n      jump\t// in\n    tag_575:\n        /* \"#utility.yul\":17289:17408   */\n    tag_574:\n        /* \"#utility.yul\":17468:17469   */\n      0x00\n        /* \"#utility.yul\":17457:17466   */\n      dup3\n        /* \"#utility.yul\":17453:17470   */\n      add\n        /* \"#utility.yul\":17447:17471   */\n      mload\n        /* \"#utility.yul\":17498:17516   */\n      0xffffffffffffffff\n        /* \"#utility.yul\":17490:17496   */\n      dup2\n        /* \"#utility.yul\":17487:17517   */\n      gt\n        /* \"#utility.yul\":17484:17601   */\n      iszero\n      tag_576\n      jumpi\n        /* \"#utility.yul\":17520:17599   */\n      tag_577\n      tag_337\n      jump\t// in\n    tag_577:\n        /* \"#utility.yul\":17484:17601   */\n    tag_576:\n        /* \"#utility.yul\":17625:17717   */\n      tag_578\n        /* \"#utility.yul\":17709:17716   */\n      dup5\n        /* \"#utility.yul\":17700:17706   */\n      dup3\n        /* \"#utility.yul\":17689:17698   */\n      dup6\n        /* \"#utility.yul\":17685:17707   */\n      add\n        /* \"#utility.yul\":17625:17717   */\n      tag_381\n      jump\t// in\n    tag_578:\n        /* \"#utility.yul\":17615:17717   */\n      swap2\n      pop\n        /* \"#utility.yul\":17418:17727   */\n      pop\n        /* \"#utility.yul\":17174:17734   */\n      swap3\n      swap2\n      pop\n      pop\n      jump\t// out\n        /* \"#utility.yul\":17740:17909   */\n    tag_382:\n        /* \"#utility.yul\":17824:17835   */\n      0x00\n        /* \"#utility.yul\":17858:17864   */\n      dup3\n        /* \"#utility.yul\":17853:17856   */\n      dup3\n        /* \"#utility.yul\":17846:17865   */\n      mstore\n        /* \"#utility.yul\":17898:17902   */\n      0x20\n        /* \"#utility.yul\":17893:17896   */\n      dup3\n        /* \"#utility.yul\":17889:17903   */\n      add\n        /* \"#utility.yul\":17874:17903   */\n      swap1\n      pop\n        /* \"#utility.yul\":17740:17909   */\n      swap3\n      swap2\n      pop\n      pop\n      jump\t// out\n        /* \"#utility.yul\":17915:18084   */\n    tag_383:\n        /* \"#utility.yul\":18055:18076   */\n      0x55534552204e4f54205245474953544552454400000000000000000000000000\n        /* \"#utility.yul\":18051:18052   */\n      0x00\n        /* \"#utility.yul\":18043:18049   */\n      dup3\n        /* \"#utility.yul\":18039:18053   */\n      add\n        /* \"#utility.yul\":18032:18077   */\n      mstore\n        /* \"#utility.yul\":17915:18084   */\n      pop\n      jump\t// out\n        /* \"#utility.yul\":18090:18456   */\n    tag_384:\n        /* \"#utility.yul\":18232:18235   */\n      0x00\n        /* \"#utility.yul\":18253:18320   */\n      tag_582\n        /* \"#utility.yul\":18317:18319   */\n      0x13\n        /* \"#utility.yul\":18312:18315   */\n      dup4\n        /* \"#utility.yul\":18253:18320   */\n      tag_382\n      jump\t// in\n    tag_582:\n        /* \"#utility.yul\":18246:18320   */\n      swap2\n      pop\n        /* \"#utility.yul\":18329:18422   */\n      tag_583\n        /* \"#utility.yul\":18418:18421   */\n      dup3\n        /* \"#utility.yul\":18329:18422   */\n      tag_383\n      jump\t// in\n    tag_583:\n        /* \"#utility.yul\":18447:18449   */\n      0x20\n        /* \"#utility.yul\":18442:18445   */\n      dup3\n        /* \"#utility.yul\":18438:18450   */\n      add\n        /* \"#utility.yul\":18431:18450   */\n      swap1\n      pop\n        /* \"#utility.yul\":18090:18456   */\n      swap2\n      swap1\n      pop\n      jump\t// out\n        /* \"#utility.yul\":18462:18881   */\n    tag_73:\n        /* \"#utility.yul\":18628:18632   */\n      0x00\n        /* \"#utility.yul\":18666:18668   */\n      0x20\n        /* \"#utility.yul\":18655:18664   */\n      dup3\n        /* \"#utility.yul\":18651:18669   */\n      add\n        /* \"#utility.yul\":18643:18669   */\n      swap1\n      pop\n        /* \"#utility.yul\":18715:18724   */\n      dup2\n        /* \"#utility.yul\":18709:18713   */\n      dup2\n        /* \"#utility.yul\":18705:18725   */\n      sub\n        /* \"#utility.yul\":18701:18702   */\n      0x00\n        /* \"#utility.yul\":18690:18699   */\n      dup4\n        /* \"#utility.yul\":18686:18703   */\n      add\n        /* \"#utility.yul\":18679:18726   */\n      mstore\n        /* \"#utility.yul\":18743:18874   */\n      tag_585\n        /* \"#utility.yul\":18869:18873   */\n      dup2\n        /* \"#utility.yul\":18743:18874   */\n      tag_384\n      jump\t// in\n    tag_585:\n        /* \"#utility.yul\":18735:18874   */\n      swap1\n      pop\n        /* \"#utility.yul\":18462:18881   */\n      swap2\n      swap1\n      pop\n      jump\t// out\n        /* \"#utility.yul\":18887:19059   */\n    tag_385:\n        /* \"#utility.yul\":19027:19051   */\n      0x54686973205477656574204e6f74204578697374202100000000000000000000\n        /* \"#utility.yul\":19023:19024   */\n      0x00\n        /* \"#utility.yul\":19015:19021   */\n      dup3\n        /* \"#utility.yul\":19011:19025   */\n      add\n        /* \"#utility.yul\":19004:19052   */\n      mstore\n        /* \"#utility.yul\":18887:19059   */\n      pop\n      jump\t// out\n        /* \"#utility.yul\":19065:19431   */\n    tag_386:\n        /* \"#utility.yul\":19207:19210   */\n      0x00\n        /* \"#utility.yul\":19228:19295   */\n      tag_588\n        /* \"#utility.yul\":19292:19294   */\n      0x16\n        /* \"#utility.yul\":19287:19290   */\n      dup4\n        /* \"#utility.yul\":19228:19295   */\n      tag_382\n      jump\t// in\n    tag_588:\n        /* \"#utility.yul\":19221:19295   */\n      swap2\n      pop\n        /* \"#utility.yul\":19304:19397   */\n      tag_589\n        /* \"#utility.yul\":19393:19396   */\n      dup3\n        /* \"#utility.yul\":19304:19397   */\n      tag_385\n      jump\t// in\n    tag_589:\n        /* \"#utility.yul\":19422:19424   */\n      0x20\n        /* \"#utility.yul\":19417:19420   */\n      dup3\n        /* \"#utility.yul\":19413:19425   */\n      add\n        /* \"#utility.yul\":19406:19425   */\n      swap1\n      pop\n        /* \"#utility.yul\":19065:19431   */\n      swap2\n      swap1\n      pop\n      jump\t// out\n        /* \"#utility.yul\":19437:19856   */\n    tag_77:\n        /* \"#utility.yul\":19603:19607   */\n      0x00\n        /* \"#utility.yul\":19641:19643   */\n      0x20\n        /* \"#utility.yul\":19630:19639   */\n      dup3\n        /* \"#utility.yul\":19626:19644   */\n      add\n        /* \"#utility.yul\":19618:19644   */\n      swap1\n      pop\n        /* \"#utility.yul\":19690:19699   */\n      dup2\n        /* \"#utility.yul\":19684:19688   */\n      dup2\n        /* \"#utility.yul\":19680:19700   */\n      sub\n        /* \"#utility.yul\":19676:19677   */\n      0x00\n        /* \"#utility.yul\":19665:19674   */\n      dup4\n        /* \"#utility.yul\":19661:19678   */\n      add\n        /* \"#utility.yul\":19654:19701   */\n      mstore\n        /* \"#utility.yul\":19718:19849   */\n      tag_591\n        /* \"#utility.yul\":19844:19848   */\n      dup2\n        /* \"#utility.yul\":19718:19849   */\n      tag_386\n      jump\t// in\n    tag_591:\n        /* \"#utility.yul\":19710:19849   */\n      swap1\n      pop\n        /* \"#utility.yul\":19437:19856   */\n      swap2\n      swap1\n      pop\n      jump\t// out\n        /* \"#utility.yul\":19862:20042   */\n    tag_387:\n        /* \"#utility.yul\":19910:19987   */\n      0x4e487b7100000000000000000000000000000000000000000000000000000000\n        /* \"#utility.yul\":19907:19908   */\n      0x00\n        /* \"#utility.yul\":19900:19988   */\n      mstore\n        /* \"#utility.yul\":20007:20011   */\n      0x11\n        /* \"#utility.yul\":20004:20005   */\n      0x04\n        /* \"#utility.yul\":19997:20012   */\n      mstore\n        /* \"#utility.yul\":20031:20035   */\n      0x24\n        /* \"#utility.yul\":20028:20029   */\n      0x00\n        /* \"#utility.yul\":20021:20036   */\n      revert\n        /* \"#utility.yul\":20048:20242   */\n    tag_82:\n        /* \"#utility.yul\":20088:20092   */\n      0x00\n        /* \"#utility.yul\":20108:20128   */\n      tag_594\n        /* \"#utility.yul\":20126:20127   */\n      dup3\n        /* \"#utility.yul\":20108:20128   */\n      tag_342\n      jump\t// in\n    tag_594:\n        /* \"#utility.yul\":20103:20128   */\n      swap2\n      pop\n        /* \"#utility.yul\":20142:20162   */\n      tag_595\n        /* \"#utility.yul\":20160:20161   */\n      dup4\n        /* \"#utility.yul\":20142:20162   */\n      tag_342\n      jump\t// in\n    tag_595:\n        /* \"#utility.yul\":20137:20162   */\n      swap3\n      pop\n        /* \"#utility.yul\":20186:20187   */\n      dup3\n        /* \"#utility.yul\":20183:20184   */\n      dup3\n        /* \"#utility.yul\":20179:20188   */\n      sub\n        /* \"#utility.yul\":20171:20188   */\n      swap1\n      pop\n        /* \"#utility.yul\":20210:20211   */\n      dup2\n        /* \"#utility.yul\":20204:20208   */\n      dup2\n        /* \"#utility.yul\":20201:20212   */\n      gt\n        /* \"#utility.yul\":20198:20235   */\n      iszero\n      tag_596\n      jumpi\n        /* \"#utility.yul\":20215:20233   */\n      tag_597\n      tag_387\n      jump\t// in\n    tag_597:\n        /* \"#utility.yul\":20198:20235   */\n    tag_596:\n        /* \"#utility.yul\":20048:20242   */\n      swap3\n      swap2\n      pop\n      pop\n      jump\t// out\n        /* \"#utility.yul\":20248:20428   */\n    tag_85:\n        /* \"#utility.yul\":20296:20373   */\n      0x4e487b7100000000000000000000000000000000000000000000000000000000\n        /* \"#utility.yul\":20293:20294   */\n      0x00\n        /* \"#utility.yul\":20286:20374   */\n      mstore\n        /* \"#utility.yul\":20393:20397   */\n      0x32\n        /* \"#utility.yul\":20390:20391   */\n      0x04\n        /* \"#utility.yul\":20383:20398   */\n      mstore\n        /* \"#utility.yul\":20417:20421   */\n      0x24\n        /* \"#utility.yul\":20414:20415   */\n      0x00\n        /* \"#utility.yul\":20407:20422   */\n      revert\n        /* \"#utility.yul\":20434:20612   */\n    tag_388:\n        /* \"#utility.yul\":20574:20604   */\n      0x596f7520416c7265616479204c696b6564207468652074776565742100000000\n        /* \"#utility.yul\":20570:20571   */\n      0x00\n        /* \"#utility.yul\":20562:20568   */\n      dup3\n        /* \"#utility.yul\":20558:20572   */\n      add\n        /* \"#utility.yul\":20551:20605   */\n      mstore\n        /* \"#utility.yul\":20434:20612   */\n      pop\n      jump\t// out\n        /* \"#utility.yul\":20618:20984   */\n    tag_389:\n        /* \"#utility.yul\":20760:20763   */\n      0x00\n        /* \"#utility.yul\":20781:20848   */\n      tag_601\n        /* \"#utility.yul\":20845:20847   */\n      0x1c\n        /* \"#utility.yul\":20840:20843   */\n      dup4\n        /* \"#utility.yul\":20781:20848   */\n      tag_382\n      jump\t// in\n    tag_601:\n        /* \"#utility.yul\":20774:20848   */\n      swap2\n      pop\n        /* \"#utility.yul\":20857:20950   */\n      tag_602\n        /* \"#utility.yul\":20946:20949   */\n      dup3\n        /* \"#utility.yul\":20857:20950   */\n      tag_388\n      jump\t// in\n    tag_602:\n        /* \"#utility.yul\":20975:20977   */\n      0x20\n        /* \"#utility.yul\":20970:20973   */\n      dup3\n        /* \"#utility.yul\":20966:20978   */\n      add\n        /* \"#utility.yul\":20959:20978   */\n      swap1\n      pop\n        /* \"#utility.yul\":20618:20984   */\n      swap2\n      swap1\n      pop\n      jump\t// out\n        /* \"#utility.yul\":20990:21409   */\n    tag_97:\n        /* \"#utility.yul\":21156:21160   */\n      0x00\n        /* \"#utility.yul\":21194:21196   */\n      0x20\n        /* \"#utility.yul\":21183:21192   */\n      dup3\n        /* \"#utility.yul\":21179:21197   */\n      add\n        /* \"#utility.yul\":21171:21197   */\n      swap1\n      pop\n        /* \"#utility.yul\":21243:21252   */\n      dup2\n        /* \"#utility.yul\":21237:21241   */\n      dup2\n        /* \"#utility.yul\":21233:21253   */\n      sub\n        /* \"#utility.yul\":21229:21230   */\n      0x00\n        /* \"#utility.yul\":21218:21227   */\n      dup4\n        /* \"#utility.yul\":21214:21231   */\n      add\n        /* \"#utility.yul\":21207:21254   */\n      mstore\n        /* \"#utility.yul\":21271:21402   */\n      tag_604\n        /* \"#utility.yul\":21397:21401   */\n      dup2\n        /* \"#utility.yul\":21271:21402   */\n      tag_389\n      jump\t// in\n    tag_604:\n        /* \"#utility.yul\":21263:21402   */\n      swap1\n      pop\n        /* \"#utility.yul\":20990:21409   */\n      swap2\n      swap1\n      pop\n      jump\t// out\n        /* \"#utility.yul\":21415:21595   */\n    tag_390:\n        /* \"#utility.yul\":21555:21587   */\n      0x596f7520416c726561647920556e4c696b656420746865207477656574210000\n        /* \"#utility.yul\":21551:21552   */\n      0x00\n        /* \"#utility.yul\":21543:21549   */\n      dup3\n        /* \"#utility.yul\":21539:21553   */\n      add\n        /* \"#utility.yul\":21532:21588   */\n      mstore\n        /* \"#utility.yul\":21415:21595   */\n      pop\n      jump\t// out\n        /* \"#utility.yul\":21601:21967   */\n    tag_391:\n        /* \"#utility.yul\":21743:21746   */\n      0x00\n        /* \"#utility.yul\":21764:21831   */\n      tag_607\n        /* \"#utility.yul\":21828:21830   */\n      0x1e\n        /* \"#utility.yul\":21823:21826   */\n      dup4\n        /* \"#utility.yul\":21764:21831   */\n      tag_382\n      jump\t// in\n    tag_607:\n        /* \"#utility.yul\":21757:21831   */\n      swap2\n      pop\n        /* \"#utility.yul\":21840:21933   */\n      tag_608\n        /* \"#utility.yul\":21929:21932   */\n      dup3\n        /* \"#utility.yul\":21840:21933   */\n      tag_390\n      jump\t// in\n    tag_608:\n        /* \"#utility.yul\":21958:21960   */\n      0x20\n        /* \"#utility.yul\":21953:21956   */\n      dup3\n        /* \"#utility.yul\":21949:21961   */\n      add\n        /* \"#utility.yul\":21942:21961   */\n      swap1\n      pop\n        /* \"#utility.yul\":21601:21967   */\n      swap2\n      swap1\n      pop\n      jump\t// out\n        /* \"#utility.yul\":21973:22392   */\n    tag_118:\n        /* \"#utility.yul\":22139:22143   */\n      0x00\n        /* \"#utility.yul\":22177:22179   */\n      0x20\n        /* \"#utility.yul\":22166:22175   */\n      dup3\n        /* \"#utility.yul\":22162:22180   */\n      add\n        /* \"#utility.yul\":22154:22180   */\n      swap1\n      pop\n        /* \"#utility.yul\":22226:22235   */\n      dup2\n        /* \"#utility.yul\":22220:22224   */\n      dup2\n        /* \"#utility.yul\":22216:22236   */\n      sub\n        /* \"#utility.yul\":22212:22213   */\n      0x00\n        /* \"#utility.yul\":22201:22210   */\n      dup4\n        /* \"#utility.yul\":22197:22214   */\n      add\n        /* \"#utility.yul\":22190:22237   */\n      mstore\n        /* \"#utility.yul\":22254:22385   */\n      tag_610\n        /* \"#utility.yul\":22380:22384   */\n      dup2\n        /* \"#utility.yul\":22254:22385   */\n      tag_391\n      jump\t// in\n    tag_610:\n        /* \"#utility.yul\":22246:22385   */\n      swap1\n      pop\n        /* \"#utility.yul\":21973:22392   */\n      swap2\n      swap1\n      pop\n      jump\t// out\n        /* \"#utility.yul\":22398:22631   */\n    tag_392:\n        /* \"#utility.yul\":22538:22572   */\n      0x5468697320697320596f757220547765657421596f752063616e6e2774204c69\n        /* \"#utility.yul\":22534:22535   */\n      0x00\n        /* \"#utility.yul\":22526:22532   */\n      dup3\n        /* \"#utility.yul\":22522:22536   */\n      add\n        /* \"#utility.yul\":22515:22573   */\n      mstore\n        /* \"#utility.yul\":22607:22623   */\n      0x6b6520596f757220547765657421000000000000000000000000000000000000\n        /* \"#utility.yul\":22602:22604   */\n      0x20\n        /* \"#utility.yul\":22594:22600   */\n      dup3\n        /* \"#utility.yul\":22590:22605   */\n      add\n        /* \"#utility.yul\":22583:22624   */\n      mstore\n        /* \"#utility.yul\":22398:22631   */\n      pop\n      jump\t// out\n        /* \"#utility.yul\":22637:23003   */\n    tag_393:\n        /* \"#utility.yul\":22779:22782   */\n      0x00\n        /* \"#utility.yul\":22800:22867   */\n      tag_613\n        /* \"#utility.yul\":22864:22866   */\n      0x2e\n        /* \"#utility.yul\":22859:22862   */\n      dup4\n        /* \"#utility.yul\":22800:22867   */\n      tag_382\n      jump\t// in\n    tag_613:\n        /* \"#utility.yul\":22793:22867   */\n      swap2\n      pop\n        /* \"#utility.yul\":22876:22969   */\n      tag_614\n        /* \"#utility.yul\":22965:22968   */\n      dup3\n        /* \"#utility.yul\":22876:22969   */\n      tag_392\n      jump\t// in\n    tag_614:\n        /* \"#utility.yul\":22994:22996   */\n      0x40\n        /* \"#utility.yul\":22989:22992   */\n      dup3\n        /* \"#utility.yul\":22985:22997   */\n      add\n        /* \"#utility.yul\":22978:22997   */\n      swap1\n      pop\n        /* \"#utility.yul\":22637:23003   */\n      swap2\n      swap1\n      pop\n      jump\t// out\n        /* \"#utility.yul\":23009:23428   */\n    tag_122:\n        /* \"#utility.yul\":23175:23179   */\n      0x00\n        /* \"#utility.yul\":23213:23215   */\n      0x20\n        /* \"#utility.yul\":23202:23211   */\n      dup3\n        /* \"#utility.yul\":23198:23216   */\n      add\n        /* \"#utility.yul\":23190:23216   */\n      swap1\n      pop\n        /* \"#utility.yul\":23262:23271   */\n      dup2\n        /* \"#utility.yul\":23256:23260   */\n      dup2\n        /* \"#utility.yul\":23252:23272   */\n      sub\n        /* \"#utility.yul\":23248:23249   */\n      0x00\n        /* \"#utility.yul\":23237:23246   */\n      dup4\n        /* \"#utility.yul\":23233:23250   */\n      add\n        /* \"#utility.yul\":23226:23273   */\n      mstore\n        /* \"#utility.yul\":23290:23421   */\n      tag_616\n        /* \"#utility.yul\":23416:23420   */\n      dup2\n        /* \"#utility.yul\":23290:23421   */\n      tag_393\n      jump\t// in\n    tag_616:\n        /* \"#utility.yul\":23282:23421   */\n      swap1\n      pop\n        /* \"#utility.yul\":23009:23428   */\n      swap2\n      swap1\n      pop\n      jump\t// out\n        /* \"#utility.yul\":23434:23667   */\n    tag_133:\n        /* \"#utility.yul\":23473:23476   */\n      0x00\n        /* \"#utility.yul\":23496:23520   */\n      tag_618\n        /* \"#utility.yul\":23514:23519   */\n      dup3\n        /* \"#utility.yul\":23496:23520   */\n      tag_342\n      jump\t// in\n    tag_618:\n        /* \"#utility.yul\":23487:23520   */\n      swap2\n      pop\n        /* \"#utility.yul\":23542:23608   */\n      0xffffffffffffffffffffffffffffffffffffffffffffffffffffffffffffffff\n        /* \"#utility.yul\":23535:23540   */\n      dup3\n        /* \"#utility.yul\":23532:23609   */\n      sub\n        /* \"#utility.yul\":23529:23632   */\n      tag_619\n      jumpi\n        /* \"#utility.yul\":23612:23630   */\n      tag_620\n      tag_387\n      jump\t// in\n    tag_620:\n        /* \"#utility.yul\":23529:23632   */\n    tag_619:\n        /* \"#utility.yul\":23659:23660   */\n      0x01\n        /* \"#utility.yul\":23652:23657   */\n      dup3\n        /* \"#utility.yul\":23648:23661   */\n      add\n        /* \"#utility.yul\":23641:23661   */\n      swap1\n      pop\n        /* \"#utility.yul\":23434:23667   */\n      swap2\n      swap1\n      pop\n      jump\t// out\n        /* \"#utility.yul\":23673:24226   */\n    tag_143:\n        /* \"#utility.yul\":23850:23854   */\n      0x00\n        /* \"#utility.yul\":23888:23891   */\n      0x80\n        /* \"#utility.yul\":23877:23886   */\n      dup3\n        /* \"#utility.yul\":23873:23892   */\n      add\n        /* \"#utility.yul\":23865:23892   */\n      swap1\n      pop\n        /* \"#utility.yul\":23902:23973   */\n      tag_622\n        /* \"#utility.yul\":23970:23971   */\n      0x00\n        /* \"#utility.yul\":23959:23968   */\n      dup4\n        /* \"#utility.yul\":23955:23972   */\n      add\n        /* \"#utility.yul\":23946:23952   */\n      dup8\n        /* \"#utility.yul\":23902:23973   */\n      tag_376\n      jump\t// in\n    tag_622:\n        /* \"#utility.yul\":23983:24055   */\n      tag_623\n        /* \"#utility.yul\":24051:24053   */\n      0x20\n        /* \"#utility.yul\":24040:24049   */\n      dup4\n        /* \"#utility.yul\":24036:24054   */\n      add\n        /* \"#utility.yul\":24027:24033   */\n      dup7\n        /* \"#utility.yul\":23983:24055   */\n      tag_376\n      jump\t// in\n    tag_623:\n        /* \"#utility.yul\":24065:24137   */\n      tag_624\n        /* \"#utility.yul\":24133:24135   */\n      0x40\n        /* \"#utility.yul\":24122:24131   */\n      dup4\n        /* \"#utility.yul\":24118:24136   */\n      add\n        /* \"#utility.yul\":24109:24115   */\n      dup6\n        /* \"#utility.yul\":24065:24137   */\n      tag_375\n      jump\t// in\n    tag_624:\n        /* \"#utility.yul\":24147:24219   */\n      tag_625\n        /* \"#utility.yul\":24215:24217   */\n      0x60\n        /* \"#utility.yul\":24204:24213   */\n      dup4\n        /* \"#utility.yul\":24200:24218   */\n      add\n        /* \"#utility.yul\":24191:24197   */\n      dup5\n        /* \"#utility.yul\":24147:24219   */\n      tag_375\n      jump\t// in\n    tag_625:\n        /* \"#utility.yul\":23673:24226   */\n      swap6\n      swap5\n      pop\n      pop\n      pop\n      pop\n      pop\n      jump\t// out\n        /* \"#utility.yul\":24232:24412   */\n    tag_394:\n        /* \"#utility.yul\":24280:24357   */\n      0x4e487b7100000000000000000000000000000000000000000000000000000000\n        /* \"#utility.yul\":24277:24278   */\n      0x00\n        /* \"#utility.yul\":24270:24358   */\n      mstore\n        /* \"#utility.yul\":24377:24381   */\n      0x22\n        /* \"#utility.yul\":24374:24375   */\n      0x04\n        /* \"#utility.yul\":24367:24382   */\n      mstore\n        /* \"#utility.yul\":24401:24405   */\n      0x24\n        /* \"#utility.yul\":24398:24399   */\n      0x00\n        /* \"#utility.yul\":24391:24406   */\n      revert\n        /* \"#utility.yul\":24418:24738   */\n    tag_152:\n        /* \"#utility.yul\":24462:24468   */\n      0x00\n        /* \"#utility.yul\":24499:24500   */\n      0x02\n        /* \"#utility.yul\":24493:24497   */\n      dup3\n        /* \"#utility.yul\":24489:24501   */\n      div\n        /* \"#utility.yul\":24479:24501   */\n      swap1\n      pop\n        /* \"#utility.yul\":24546:24547   */\n      0x01\n        /* \"#utility.yul\":24540:24544   */\n      dup3\n        /* \"#utility.yul\":24536:24548   */\n      and\n        /* \"#utility.yul\":24567:24585   */\n      dup1\n        /* \"#utility.yul\":24557:24638   */\n      tag_628\n      jumpi\n        /* \"#utility.yul\":24623:24627   */\n      0x7f\n        /* \"#utility.yul\":24615:24621   */\n      dup3\n        /* \"#utility.yul\":24611:24628   */\n      and\n        /* \"#utility.yul\":24601:24628   */\n      swap2\n      pop\n        /* \"#utility.yul\":24557:24638   */\n    tag_628:\n        /* \"#utility.yul\":24685:24687   */\n      0x20\n        /* \"#utility.yul\":24677:24683   */\n      dup3\n        /* \"#utility.yul\":24674:24688   */\n      lt\n        /* \"#utility.yul\":24654:24672   */\n      dup2\n        /* \"#utility.yul\":24651:24689   */\n      sub\n        /* \"#utility.yul\":24648:24732   */\n      tag_629\n      jumpi\n        /* \"#utility.yul\":24704:24722   */\n      tag_630\n      tag_394\n      jump\t// in\n    tag_630:\n        /* \"#utility.yul\":24648:24732   */\n    tag_629:\n        /* \"#utility.yul\":24469:24738   */\n      pop\n        /* \"#utility.yul\":24418:24738   */\n      swap2\n      swap1\n      pop\n      jump\t// out\n        /* \"#utility.yul\":24744:24924   */\n    tag_183:\n        /* \"#utility.yul\":24792:24869   */\n      0x4e487b7100000000000000000000000000000000000000000000000000000000\n        /* \"#utility.yul\":24789:24790   */\n      0x00\n        /* \"#utility.yul\":24782:24870   */\n      mstore\n        /* \"#utility.yul\":24889:24893   */\n      0x31\n        /* \"#utility.yul\":24886:24887   */\n      0x04\n        /* \"#utility.yul\":24879:24894   */\n      mstore\n        /* \"#utility.yul\":24913:24917   */\n      0x24\n        /* \"#utility.yul\":24910:24911   */\n      0x00\n        /* \"#utility.yul\":24903:24918   */\n      revert\n        /* \"#utility.yul\":24930:25103   */\n    tag_395:\n        /* \"#utility.yul\":25070:25095   */\n      0x5477656574204c656e6774682069732045786365656421000000000000000000\n        /* \"#utility.yul\":25066:25067   */\n      0x00\n        /* \"#utility.yul\":25058:25064   */\n      dup3\n        /* \"#utility.yul\":25054:25068   */\n      add\n        /* \"#utility.yul\":25047:25096   */\n      mstore\n        /* \"#utility.yul\":24930:25103   */\n      pop\n      jump\t// out\n        /* \"#utility.yul\":25109:25475   */\n    tag_396:\n        /* \"#utility.yul\":25251:25254   */\n      0x00\n        /* \"#utility.yul\":25272:25339   */\n      tag_634\n        /* \"#utility.yul\":25336:25338   */\n      0x17\n        /* \"#utility.yul\":25331:25334   */\n      dup4\n        /* \"#utility.yul\":25272:25339   */\n      tag_382\n      jump\t// in\n    tag_634:\n        /* \"#utility.yul\":25265:25339   */\n      swap2\n      pop\n        /* \"#utility.yul\":25348:25441   */\n      tag_635\n        /* \"#utility.yul\":25437:25440   */\n      dup3\n        /* \"#utility.yul\":25348:25441   */\n      tag_395\n      jump\t// in\n    tag_635:\n        /* \"#utility.yul\":25466:25468   */\n      0x20\n        /* \"#utility.yul\":25461:25464   */\n      dup3\n        /* \"#utility.yul\":25457:25469   */\n      add\n        /* \"#utility.yul\":25450:25469   */\n      swap1\n      pop\n        /* \"#utility.yul\":25109:25475   */\n      swap2\n      swap1\n      pop\n      jump\t// out\n        /* \"#utility.yul\":25481:25900   */\n    tag_203:\n        /* \"#utility.yul\":25647:25651   */\n      0x00\n        /* \"#utility.yul\":25685:25687   */\n      0x20\n        /* \"#utility.yul\":25674:25683   */\n      dup3\n        /* \"#utility.yul\":25670:25688   */\n      add\n        /* \"#utility.yul\":25662:25688   */\n      swap1\n      pop\n        /* \"#utility.yul\":25734:25743   */\n      dup2\n        /* \"#utility.yul\":25728:25732   */\n      dup2\n        /* \"#utility.yul\":25724:25744   */\n      sub\n        /* \"#utility.yul\":25720:25721   */\n      0x00\n        /* \"#utility.yul\":25709:25718   */\n      dup4\n        /* \"#utility.yul\":25705:25722   */\n      add\n        /* \"#utility.yul\":25698:25745   */\n      mstore\n        /* \"#utility.yul\":25762:25893   */\n      tag_637\n        /* \"#utility.yul\":25888:25892   */\n      dup2\n        /* \"#utility.yul\":25762:25893   */\n      tag_396\n      jump\t// in\n    tag_637:\n        /* \"#utility.yul\":25754:25893   */\n      swap1\n      pop\n        /* \"#utility.yul\":25481:25900   */\n      swap2\n      swap1\n      pop\n      jump\t// out\n        /* \"#utility.yul\":25906:26097   */\n    tag_205:\n        /* \"#utility.yul\":25946:25949   */\n      0x00\n        /* \"#utility.yul\":25965:25985   */\n      tag_639\n        /* \"#utility.yul\":25983:25984   */\n      dup3\n        /* \"#utility.yul\":25965:25985   */\n      tag_342\n      jump\t// in\n    tag_639:\n        /* \"#utility.yul\":25960:25985   */\n      swap2\n      pop\n        /* \"#utility.yul\":25999:26019   */\n      tag_640\n        /* \"#utility.yul\":26017:26018   */\n      dup4\n        /* \"#utility.yul\":25999:26019   */\n      tag_342\n      jump\t// in\n    tag_640:\n        /* \"#utility.yul\":25994:26019   */\n      swap3\n      pop\n        /* \"#utility.yul\":26042:26043   */\n      dup3\n        /* \"#utility.yul\":26039:26040   */\n      dup3\n        /* \"#utility.yul\":26035:26044   */\n      add\n        /* \"#utility.yul\":26028:26044   */\n      swap1\n      pop\n        /* \"#utility.yul\":26063:26066   */\n      dup1\n        /* \"#utility.yul\":26060:26061   */\n      dup3\n        /* \"#utility.yul\":26057:26067   */\n      gt\n        /* \"#utility.yul\":26054:26090   */\n      iszero\n      tag_641\n      jumpi\n        /* \"#utility.yul\":26070:26088   */\n      tag_642\n      tag_387\n      jump\t// in\n    tag_642:\n        /* \"#utility.yul\":26054:26090   */\n    tag_641:\n        /* \"#utility.yul\":25906:26097   */\n      swap3\n      swap2\n      pop\n      pop\n      jump\t// out\n        /* \"#utility.yul\":26103:26244   */\n    tag_397:\n        /* \"#utility.yul\":26152:26156   */\n      0x00\n        /* \"#utility.yul\":26175:26178   */\n      dup2\n        /* \"#utility.yul\":26167:26178   */\n      swap1\n      pop\n        /* \"#utility.yul\":26198:26201   */\n      dup2\n        /* \"#utility.yul\":26195:26196   */\n      0x00\n        /* \"#utility.yul\":26188:26202   */\n      mstore\n        /* \"#utility.yul\":26232:26236   */\n      0x20\n        /* \"#utility.yul\":26229:26230   */\n      0x00\n        /* \"#utility.yul\":26219:26237   */\n      keccak256\n        /* \"#utility.yul\":26211:26237   */\n      swap1\n      pop\n        /* \"#utility.yul\":26103:26244   */\n      swap2\n      swap1\n      pop\n      jump\t// out\n        /* \"#utility.yul\":26250:26343   */\n    tag_398:\n        /* \"#utility.yul\":26287:26293   */\n      0x00\n        /* \"#utility.yul\":26334:26336   */\n      0x20\n        /* \"#utility.yul\":26329:26331   */\n      0x1f\n        /* \"#utility.yul\":26322:26327   */\n      dup4\n        /* \"#utility.yul\":26318:26332   */\n      add\n        /* \"#utility.yul\":26314:26337   */\n      div\n        /* \"#utility.yul\":26304:26337   */\n      swap1\n      pop\n        /* \"#utility.yul\":26250:26343   */\n      swap2\n      swap1\n      pop\n      jump\t// out\n        /* \"#utility.yul\":26349:26456   */\n    tag_399:\n        /* \"#utility.yul\":26393:26401   */\n      0x00\n        /* \"#utility.yul\":26443:26448   */\n      dup3\n        /* \"#utility.yul\":26437:26441   */\n      dup3\n        /* \"#utility.yul\":26433:26449   */\n      shl\n        /* \"#utility.yul\":26412:26449   */\n      swap1\n      pop\n        /* \"#utility.yul\":26349:26456   */\n      swap3\n      swap2\n      pop\n      pop\n      jump\t// out\n        /* \"#utility.yul\":26462:26855   */\n    tag_400:\n        /* \"#utility.yul\":26531:26537   */\n      0x00\n        /* \"#utility.yul\":26581:26582   */\n      0x08\n        /* \"#utility.yul\":26569:26579   */\n      dup4\n        /* \"#utility.yul\":26565:26583   */\n      mul\n        /* \"#utility.yul\":26604:26701   */\n      tag_647\n        /* \"#utility.yul\":26634:26700   */\n      0xffffffffffffffffffffffffffffffffffffffffffffffffffffffffffffffff\n        /* \"#utility.yul\":26623:26632   */\n      dup3\n        /* \"#utility.yul\":26604:26701   */\n      tag_399\n      jump\t// in\n    tag_647:\n        /* \"#utility.yul\":26722:26761   */\n      tag_648\n        /* \"#utility.yul\":26752:26760   */\n      dup7\n        /* \"#utility.yul\":26741:26750   */\n      dup4\n        /* \"#utility.yul\":26722:26761   */\n      tag_399\n      jump\t// in\n    tag_648:\n        /* \"#utility.yul\":26710:26761   */\n      swap6\n      pop\n        /* \"#utility.yul\":26794:26798   */\n      dup1\n        /* \"#utility.yul\":26790:26799   */\n      not\n        /* \"#utility.yul\":26783:26788   */\n      dup5\n        /* \"#utility.yul\":26779:26800   */\n      and\n        /* \"#utility.yul\":26770:26800   */\n      swap4\n      pop\n        /* \"#utility.yul\":26843:26847   */\n      dup1\n        /* \"#utility.yul\":26833:26841   */\n      dup7\n        /* \"#utility.yul\":26829:26848   */\n      and\n        /* \"#utility.yul\":26822:26827   */\n      dup5\n        /* \"#utility.yul\":26819:26849   */\n      or\n        /* \"#utility.yul\":26809:26849   */\n      swap3\n      pop\n        /* \"#utility.yul\":26538:26855   */\n      pop\n      pop\n        /* \"#utility.yul\":26462:26855   */\n      swap4\n      swap3\n      pop\n      pop\n      pop\n      jump\t// out\n        /* \"#utility.yul\":26861:26921   */\n    tag_401:\n        /* \"#utility.yul\":26889:26892   */\n      0x00\n        /* \"#utility.yul\":26910:26915   */\n      dup2\n        /* \"#utility.yul\":26903:26915   */\n      swap1\n      pop\n        /* \"#utility.yul\":26861:26921   */\n      swap2\n      swap1\n      pop\n      jump\t// out\n        /* \"#utility.yul\":26927:27069   */\n    tag_402:\n        /* \"#utility.yul\":26977:26986   */\n      0x00\n        /* \"#utility.yul\":27010:27063   */\n      tag_651\n        /* \"#utility.yul\":27028:27062   */\n      tag_652\n        /* \"#utility.yul\":27037:27061   */\n      tag_653\n        /* \"#utility.yul\":27055:27060   */\n      dup5\n        /* \"#utility.yul\":27037:27061   */\n      tag_342\n      jump\t// in\n    tag_653:\n        /* \"#utility.yul\":27028:27062   */\n      tag_401\n      jump\t// in\n    tag_652:\n        /* \"#utility.yul\":27010:27063   */\n      tag_342\n      jump\t// in\n    tag_651:\n        /* \"#utility.yul\":26997:27063   */\n      swap1\n      pop\n        /* \"#utility.yul\":26927:27069   */\n      swap2\n      swap1\n      pop\n      jump\t// out\n        /* \"#utility.yul\":27075:27150   */\n    tag_403:\n        /* \"#utility.yul\":27118:27121   */\n      0x00\n        /* \"#utility.yul\":27139:27144   */\n      dup2\n        /* \"#utility.yul\":27132:27144   */\n      swap1\n      pop\n        /* \"#utility.yul\":27075:27150   */\n      swap2\n      swap1\n      pop\n      jump\t// out\n        /* \"#utility.yul\":27156:27425   */\n    tag_404:\n        /* \"#utility.yul\":27266:27305   */\n      tag_656\n        /* \"#utility.yul\":27297:27304   */\n      dup4\n        /* \"#utility.yul\":27266:27305   */\n      tag_402\n      jump\t// in\n    tag_656:\n        /* \"#utility.yul\":27327:27418   */\n      tag_657\n        /* \"#utility.yul\":27376:27417   */\n      tag_658\n        /* \"#utility.yul\":27400:27416   */\n      dup3\n        /* \"#utility.yul\":27376:27417   */\n      tag_403\n      jump\t// in\n    tag_658:\n        /* \"#utility.yul\":27368:27374   */\n      dup5\n        /* \"#utility.yul\":27361:27365   */\n      dup5\n        /* \"#utility.yul\":27355:27366   */\n      sload\n        /* \"#utility.yul\":27327:27418   */\n      tag_400\n      jump\t// in\n    tag_657:\n        /* \"#utility.yul\":27321:27325   */\n      dup3\n        /* \"#utility.yul\":27314:27419   */\n      sstore\n        /* \"#utility.yul\":27232:27425   */\n      pop\n        /* \"#utility.yul\":27156:27425   */\n      pop\n      pop\n      pop\n      jump\t// out\n        /* \"#utility.yul\":27431:27504   */\n    tag_405:\n        /* \"#utility.yul\":27476:27479   */\n      0x00\n        /* \"#utility.yul\":27431:27504   */\n      swap1\n      jump\t// out\n        /* \"#utility.yul\":27510:27699   */\n    tag_406:\n        /* \"#utility.yul\":27587:27619   */\n      tag_661\n      tag_405\n      jump\t// in\n    tag_661:\n        /* \"#utility.yul\":27628:27693   */\n      tag_662\n        /* \"#utility.yul\":27686:27692   */\n      dup2\n        /* \"#utility.yul\":27678:27684   */\n      dup5\n        /* \"#utility.yul\":27672:27676   */\n      dup5\n        /* \"#utility.yul\":27628:27693   */\n      tag_404\n      jump\t// in\n    tag_662:\n        /* \"#utility.yul\":27563:27699   */\n      pop\n        /* \"#utility.yul\":27510:27699   */\n      pop\n      pop\n      jump\t// out\n        /* \"#utility.yul\":27705:27891   */\n    tag_407:\n        /* \"#utility.yul\":27765:27885   */\n    tag_664:\n        /* \"#utility.yul\":27782:27785   */\n      dup2\n        /* \"#utility.yul\":27775:27780   */\n      dup2\n        /* \"#utility.yul\":27772:27786   */\n      lt\n        /* \"#utility.yul\":27765:27885   */\n      iszero\n      tag_666\n      jumpi\n        /* \"#utility.yul\":27836:27875   */\n      tag_667\n        /* \"#utility.yul\":27873:27874   */\n      0x00\n        /* \"#utility.yul\":27866:27871   */\n      dup3\n        /* \"#utility.yul\":27836:27875   */\n      tag_406\n      jump\t// in\n    tag_667:\n        /* \"#utility.yul\":27809:27810   */\n      0x01\n        /* \"#utility.yul\":27802:27807   */\n      dup2\n        /* \"#utility.yul\":27798:27811   */\n      add\n        /* \"#utility.yul\":27789:27811   */\n      swap1\n      pop\n        /* \"#utility.yul\":27765:27885   */\n      jump(tag_664)\n    tag_666:\n        /* \"#utility.yul\":27705:27891   */\n      pop\n      pop\n      jump\t// out\n        /* \"#utility.yul\":27897:28440   */\n    tag_408:\n        /* \"#utility.yul\":27998:28000   */\n      0x1f\n        /* \"#utility.yul\":27993:27996   */\n      dup3\n        /* \"#utility.yul\":27990:28001   */\n      gt\n        /* \"#utility.yul\":27987:28433   */\n      iszero\n      tag_669\n      jumpi\n        /* \"#utility.yul\":28032:28070   */\n      tag_670\n        /* \"#utility.yul\":28064:28069   */\n      dup2\n        /* \"#utility.yul\":28032:28070   */\n      tag_397\n      jump\t// in\n    tag_670:\n        /* \"#utility.yul\":28116:28145   */\n      tag_671\n        /* \"#utility.yul\":28134:28144   */\n      dup5\n        /* \"#utility.yul\":28116:28145   */\n      tag_398\n      jump\t// in\n    tag_671:\n        /* \"#utility.yul\":28106:28114   */\n      dup2\n        /* \"#utility.yul\":28102:28146   */\n      add\n        /* \"#utility.yul\":28299:28301   */\n      0x20\n        /* \"#utility.yul\":28287:28297   */\n      dup6\n        /* \"#utility.yul\":28284:28302   */\n      lt\n        /* \"#utility.yul\":28281:28330   */\n      iszero\n      tag_672\n      jumpi\n        /* \"#utility.yul\":28320:28328   */\n      dup2\n        /* \"#utility.yul\":28305:28328   */\n      swap1\n      pop\n        /* \"#utility.yul\":28281:28330   */\n    tag_672:\n        /* \"#utility.yul\":28343:28423   */\n      tag_673\n        /* \"#utility.yul\":28399:28421   */\n      tag_674\n        /* \"#utility.yul\":28417:28420   */\n      dup6\n        /* \"#utility.yul\":28399:28421   */\n      tag_398\n      jump\t// in\n    tag_674:\n        /* \"#utility.yul\":28389:28397   */\n      dup4\n        /* \"#utility.yul\":28385:28422   */\n      add\n        /* \"#utility.yul\":28372:28383   */\n      dup3\n        /* \"#utility.yul\":28343:28423   */\n      tag_407\n      jump\t// in\n    tag_673:\n        /* \"#utility.yul\":28002:28433   */\n      pop\n      pop\n        /* \"#utility.yul\":27987:28433   */\n    tag_669:\n        /* \"#utility.yul\":27897:28440   */\n      pop\n      pop\n      pop\n      jump\t// out\n        /* \"#utility.yul\":28446:28563   */\n    tag_409:\n        /* \"#utility.yul\":28500:28508   */\n      0x00\n        /* \"#utility.yul\":28550:28555   */\n      dup3\n        /* \"#utility.yul\":28544:28548   */\n      dup3\n        /* \"#utility.yul\":28540:28556   */\n      shr\n        /* \"#utility.yul\":28519:28556   */\n      swap1\n      pop\n        /* \"#utility.yul\":28446:28563   */\n      swap3\n      swap2\n      pop\n      pop\n      jump\t// out\n        /* \"#utility.yul\":28569:28738   */\n    tag_410:\n        /* \"#utility.yul\":28613:28619   */\n      0x00\n        /* \"#utility.yul\":28646:28697   */\n      tag_677\n        /* \"#utility.yul\":28694:28695   */\n      0x00\n        /* \"#utility.yul\":28690:28696   */\n      not\n        /* \"#utility.yul\":28682:28687   */\n      dup5\n        /* \"#utility.yul\":28679:28680   */\n      0x08\n        /* \"#utility.yul\":28675:28688   */\n      mul\n        /* \"#utility.yul\":28646:28697   */\n      tag_409\n      jump\t// in\n    tag_677:\n        /* \"#utility.yul\":28642:28698   */\n      not\n        /* \"#utility.yul\":28727:28731   */\n      dup1\n        /* \"#utility.yul\":28721:28725   */\n      dup4\n        /* \"#utility.yul\":28717:28732   */\n      and\n        /* \"#utility.yul\":28707:28732   */\n      swap2\n      pop\n        /* \"#utility.yul\":28620:28738   */\n      pop\n        /* \"#utility.yul\":28569:28738   */\n      swap3\n      swap2\n      pop\n      pop\n      jump\t// out\n        /* \"#utility.yul\":28743:29038   */\n    tag_411:\n        /* \"#utility.yul\":28819:28823   */\n      0x00\n        /* \"#utility.yul\":28965:28994   */\n      tag_679\n        /* \"#utility.yul\":28990:28993   */\n      dup4\n        /* \"#utility.yul\":28984:28988   */\n      dup4\n        /* \"#utility.yul\":28965:28994   */\n      tag_410\n      jump\t// in\n    tag_679:\n        /* \"#utility.yul\":28957:28994   */\n      swap2\n      pop\n        /* \"#utility.yul\":29027:29030   */\n      dup3\n        /* \"#utility.yul\":29024:29025   */\n      0x02\n        /* \"#utility.yul\":29020:29031   */\n      mul\n        /* \"#utility.yul\":29014:29018   */\n      dup3\n        /* \"#utility.yul\":29011:29032   */\n      or\n        /* \"#utility.yul\":29003:29032   */\n      swap1\n      pop\n        /* \"#utility.yul\":28743:29038   */\n      swap3\n      swap2\n      pop\n      pop\n      jump\t// out\n        /* \"#utility.yul\":29043:30438   */\n    tag_212:\n        /* \"#utility.yul\":29160:29197   */\n      tag_681\n        /* \"#utility.yul\":29193:29196   */\n      dup3\n        /* \"#utility.yul\":29160:29197   */\n      tag_346\n      jump\t// in\n    tag_681:\n        /* \"#utility.yul\":29262:29280   */\n      0xffffffffffffffff\n        /* \"#utility.yul\":29254:29260   */\n      dup2\n        /* \"#utility.yul\":29251:29281   */\n      gt\n        /* \"#utility.yul\":29248:29304   */\n      iszero\n      tag_682\n      jumpi\n        /* \"#utility.yul\":29284:29302   */\n      tag_683\n      tag_368\n      jump\t// in\n    tag_683:\n        /* \"#utility.yul\":29248:29304   */\n    tag_682:\n        /* \"#utility.yul\":29328:29366   */\n      tag_684\n        /* \"#utility.yul\":29360:29364   */\n      dup3\n        /* \"#utility.yul\":29354:29365   */\n      sload\n        /* \"#utility.yul\":29328:29366   */\n      tag_152\n      jump\t// in\n    tag_684:\n        /* \"#utility.yul\":29413:29480   */\n      tag_685\n        /* \"#utility.yul\":29473:29479   */\n      dup3\n        /* \"#utility.yul\":29465:29471   */\n      dup3\n        /* \"#utility.yul\":29459:29463   */\n      dup6\n        /* \"#utility.yul\":29413:29480   */\n      tag_408\n      jump\t// in\n    tag_685:\n        /* \"#utility.yul\":29507:29508   */\n      0x00\n        /* \"#utility.yul\":29531:29535   */\n      0x20\n        /* \"#utility.yul\":29518:29535   */\n      swap1\n      pop\n        /* \"#utility.yul\":29563:29565   */\n      0x1f\n        /* \"#utility.yul\":29555:29561   */\n      dup4\n        /* \"#utility.yul\":29552:29566   */\n      gt\n        /* \"#utility.yul\":29580:29581   */\n      0x01\n        /* \"#utility.yul\":29575:30193   */\n      dup2\n      eq\n      tag_687\n      jumpi\n        /* \"#utility.yul\":30237:30238   */\n      0x00\n        /* \"#utility.yul\":30254:30260   */\n      dup5\n        /* \"#utility.yul\":30251:30328   */\n      iszero\n      tag_688\n      jumpi\n        /* \"#utility.yul\":30303:30312   */\n      dup3\n        /* \"#utility.yul\":30298:30301   */\n      dup8\n        /* \"#utility.yul\":30294:30313   */\n      add\n        /* \"#utility.yul\":30288:30314   */\n      mload\n        /* \"#utility.yul\":30279:30314   */\n      swap1\n      pop\n        /* \"#utility.yul\":30251:30328   */\n    tag_688:\n        /* \"#utility.yul\":30354:30421   */\n      tag_689\n        /* \"#utility.yul\":30414:30420   */\n      dup6\n        /* \"#utility.yul\":30407:30412   */\n      dup3\n        /* \"#utility.yul\":30354:30421   */\n      tag_411\n      jump\t// in\n    tag_689:\n        /* \"#utility.yul\":30348:30352   */\n      dup7\n        /* \"#utility.yul\":30341:30422   */\n      sstore\n        /* \"#utility.yul\":30210:30432   */\n      pop\n        /* \"#utility.yul\":29545:30432   */\n      jump(tag_686)\n        /* \"#utility.yul\":29575:30193   */\n    tag_687:\n        /* \"#utility.yul\":29627:29631   */\n      0x1f\n        /* \"#utility.yul\":29623:29632   */\n      not\n        /* \"#utility.yul\":29615:29621   */\n      dup5\n        /* \"#utility.yul\":29611:29633   */\n      and\n        /* \"#utility.yul\":29661:29698   */\n      tag_690\n        /* \"#utility.yul\":29693:29697   */\n      dup7\n        /* \"#utility.yul\":29661:29698   */\n      tag_397\n      jump\t// in\n    tag_690:\n        /* \"#utility.yul\":29720:29721   */\n      0x00\n        /* \"#utility.yul\":29734:29942   */\n    tag_691:\n        /* \"#utility.yul\":29748:29755   */\n      dup3\n        /* \"#utility.yul\":29745:29746   */\n      dup2\n        /* \"#utility.yul\":29742:29756   */\n      lt\n        /* \"#utility.yul\":29734:29942   */\n      iszero\n      tag_693\n      jumpi\n        /* \"#utility.yul\":29827:29836   */\n      dup5\n        /* \"#utility.yul\":29822:29825   */\n      dup10\n        /* \"#utility.yul\":29818:29837   */\n      add\n        /* \"#utility.yul\":29812:29838   */\n      mload\n        /* \"#utility.yul\":29804:29810   */\n      dup3\n        /* \"#utility.yul\":29797:29839   */\n      sstore\n        /* \"#utility.yul\":29878:29879   */\n      0x01\n        /* \"#utility.yul\":29870:29876   */\n      dup3\n        /* \"#utility.yul\":29866:29880   */\n      add\n        /* \"#utility.yul\":29856:29880   */\n      swap2\n      pop\n        /* \"#utility.yul\":29925:29927   */\n      0x20\n        /* \"#utility.yul\":29914:29923   */\n      dup6\n        /* \"#utility.yul\":29910:29928   */\n      add\n        /* \"#utility.yul\":29897:29928   */\n      swap5\n      pop\n        /* \"#utility.yul\":29771:29775   */\n      0x20\n        /* \"#utility.yul\":29768:29769   */\n      dup2\n        /* \"#utility.yul\":29764:29776   */\n      add\n        /* \"#utility.yul\":29759:29776   */\n      swap1\n      pop\n        /* \"#utility.yul\":29734:29942   */\n      jump(tag_691)\n    tag_693:\n        /* \"#utility.yul\":29970:29976   */\n      dup7\n        /* \"#utility.yul\":29961:29968   */\n      dup4\n        /* \"#utility.yul\":29958:29977   */\n      lt\n        /* \"#utility.yul\":29955:30134   */\n      iszero\n      tag_694\n      jumpi\n        /* \"#utility.yul\":30028:30037   */\n      dup5\n        /* \"#utility.yul\":30023:30026   */\n      dup10\n        /* \"#utility.yul\":30019:30038   */\n      add\n        /* \"#utility.yul\":30013:30039   */\n      mload\n        /* \"#utility.yul\":30071:30119   */\n      tag_695\n        /* \"#utility.yul\":30113:30117   */\n      0x1f\n        /* \"#utility.yul\":30105:30111   */\n      dup10\n        /* \"#utility.yul\":30101:30118   */\n      and\n        /* \"#utility.yul\":30090:30099   */\n      dup3\n        /* \"#utility.yul\":30071:30119   */\n      tag_410\n      jump\t// in\n    tag_695:\n        /* \"#utility.yul\":30063:30069   */\n      dup4\n        /* \"#utility.yul\":30056:30120   */\n      sstore\n        /* \"#utility.yul\":29978:30134   */\n      pop\n        /* \"#utility.yul\":29955:30134   */\n    tag_694:\n        /* \"#utility.yul\":30180:30181   */\n      0x01\n        /* \"#utility.yul\":30176:30177   */\n      0x02\n        /* \"#utility.yul\":30168:30174   */\n      dup9\n        /* \"#utility.yul\":30164:30178   */\n      mul\n        /* \"#utility.yul\":30160:30182   */\n      add\n        /* \"#utility.yul\":30154:30158   */\n      dup9\n        /* \"#utility.yul\":30147:30183   */\n      sstore\n        /* \"#utility.yul\":29582:30193   */\n      pop\n      pop\n      pop\n        /* \"#utility.yul\":29545:30432   */\n    tag_686:\n      pop\n        /* \"#utility.yul\":29135:30438   */\n      pop\n      pop\n      pop\n        /* \"#utility.yul\":29043:30438   */\n      pop\n      pop\n      jump\t// out\n        /* \"#utility.yul\":30444:30821   */\n    tag_412:\n        /* \"#utility.yul\":30532:30535   */\n      0x00\n        /* \"#utility.yul\":30560:30599   */\n      tag_697\n        /* \"#utility.yul\":30593:30598   */\n      dup3\n        /* \"#utility.yul\":30560:30599   */\n      tag_346\n      jump\t// in\n    tag_697:\n        /* \"#utility.yul\":30615:30686   */\n      tag_698\n        /* \"#utility.yul\":30679:30685   */\n      dup2\n        /* \"#utility.yul\":30674:30677   */\n      dup6\n        /* \"#utility.yul\":30615:30686   */\n      tag_382\n      jump\t// in\n    tag_698:\n        /* \"#utility.yul\":30608:30686   */\n      swap4\n      pop\n        /* \"#utility.yul\":30695:30760   */\n      tag_699\n        /* \"#utility.yul\":30753:30759   */\n      dup2\n        /* \"#utility.yul\":30748:30751   */\n      dup6\n        /* \"#utility.yul\":30741:30745   */\n      0x20\n        /* \"#utility.yul\":30734:30739   */\n      dup7\n        /* \"#utility.yul\":30730:30746   */\n      add\n        /* \"#utility.yul\":30695:30760   */\n      tag_348\n      jump\t// in\n    tag_699:\n        /* \"#utility.yul\":30785:30814   */\n      tag_700\n        /* \"#utility.yul\":30807:30813   */\n      dup2\n        /* \"#utility.yul\":30785:30814   */\n      tag_349\n      jump\t// in\n    tag_700:\n        /* \"#utility.yul\":30780:30783   */\n      dup5\n        /* \"#utility.yul\":30776:30815   */\n      add\n        /* \"#utility.yul\":30769:30815   */\n      swap2\n      pop\n        /* \"#utility.yul\":30536:30821   */\n      pop\n        /* \"#utility.yul\":30444:30821   */\n      swap3\n      swap2\n      pop\n      pop\n      jump\t// out\n        /* \"#utility.yul\":30827:31471   */\n    tag_218:\n        /* \"#utility.yul\":31024:31028   */\n      0x00\n        /* \"#utility.yul\":31062:31065   */\n      0x80\n        /* \"#utility.yul\":31051:31060   */\n      dup3\n        /* \"#utility.yul\":31047:31066   */\n      add\n        /* \"#utility.yul\":31039:31066   */\n      swap1\n      pop\n        /* \"#utility.yul\":31076:31147   */\n      tag_702\n        /* \"#utility.yul\":31144:31145   */\n      0x00\n        /* \"#utility.yul\":31133:31142   */\n      dup4\n        /* \"#utility.yul\":31129:31146   */\n      add\n        /* \"#utility.yul\":31120:31126   */\n      dup8\n        /* \"#utility.yul\":31076:31147   */\n      tag_375\n      jump\t// in\n    tag_702:\n        /* \"#utility.yul\":31157:31229   */\n      tag_703\n        /* \"#utility.yul\":31225:31227   */\n      0x20\n        /* \"#utility.yul\":31214:31223   */\n      dup4\n        /* \"#utility.yul\":31210:31228   */\n      add\n        /* \"#utility.yul\":31201:31207   */\n      dup7\n        /* \"#utility.yul\":31157:31229   */\n      tag_376\n      jump\t// in\n    tag_703:\n        /* \"#utility.yul\":31276:31285   */\n      dup2\n        /* \"#utility.yul\":31270:31274   */\n      dup2\n        /* \"#utility.yul\":31266:31286   */\n      sub\n        /* \"#utility.yul\":31261:31263   */\n      0x40\n        /* \"#utility.yul\":31250:31259   */\n      dup4\n        /* \"#utility.yul\":31246:31264   */\n      add\n        /* \"#utility.yul\":31239:31287   */\n      mstore\n        /* \"#utility.yul\":31304:31382   */\n      tag_704\n        /* \"#utility.yul\":31377:31381   */\n      dup2\n        /* \"#utility.yul\":31368:31374   */\n      dup6\n        /* \"#utility.yul\":31304:31382   */\n      tag_412\n      jump\t// in\n    tag_704:\n        /* \"#utility.yul\":31296:31382   */\n      swap1\n      pop\n        /* \"#utility.yul\":31392:31464   */\n      tag_705\n        /* \"#utility.yul\":31460:31462   */\n      0x60\n        /* \"#utility.yul\":31449:31458   */\n      dup4\n        /* \"#utility.yul\":31445:31463   */\n      add\n        /* \"#utility.yul\":31436:31442   */\n      dup5\n        /* \"#utility.yul\":31392:31464   */\n      tag_375\n      jump\t// in\n    tag_705:\n        /* \"#utility.yul\":30827:31471   */\n      swap6\n      swap5\n      pop\n      pop\n      pop\n      pop\n      pop\n      jump\t// out\n\n    auxdata: 0xa26469706673582212208ab255d54dfd8b6f2f5090c85b2a160daf8732060bc89ca1f75e16bfad9cb8d264736f6c63430008170033\n}\n",
				"bytecode": {
					"linkReferences": {},
					"object": "6080604052600a60025534801562000015575f80fd5b50604051620034583803806200345883398181016040528101906200003b91906200022e565b335f73ffffffffffffffffffffffffffffffffffffffff168173ffffffffffffffffffffffffffffffffffffffff1603620000af575f6040517f1e4fbdf7000000000000000000000000000000000000000000000000000000008152600401620000a691906200026f565b60405180910390fd5b620000c0816200010860201b60201c565b508060015f6101000a81548173ffffffffffffffffffffffffffffffffffffffff021916908373ffffffffffffffffffffffffffffffffffffffff160217905550506200028a565b5f805f9054906101000a900473ffffffffffffffffffffffffffffffffffffffff169050815f806101000a81548173ffffffffffffffffffffffffffffffffffffffff021916908373ffffffffffffffffffffffffffffffffffffffff1602179055508173ffffffffffffffffffffffffffffffffffffffff168173ffffffffffffffffffffffffffffffffffffffff167f8be0079c531659141344cd1fd0a4f28419497f9722a3daafe3b4186f6b6457e060405160405180910390a35050565b5f80fd5b5f73ffffffffffffffffffffffffffffffffffffffff82169050919050565b5f620001f882620001cd565b9050919050565b6200020a81620001ec565b811462000215575f80fd5b50565b5f815190506200022881620001ff565b92915050565b5f60208284031215620002465762000245620001c9565b5b5f620002558482850162000218565b91505092915050565b6200026981620001ec565b82525050565b5f602082019050620002845f8301846200025e565b92915050565b6131c080620002985f395ff3fe608060405234801561000f575f80fd5b50600436106100cd575f3560e01c80637c9cd2bc1161008a578063a110e72d11610064578063a110e72d146101c3578063a6156d77146101df578063e479c2441461020f578063f2fde38b1461022b576100cd565b80637c9cd2bc14610159578063820785cc146101755780638da5cb5b146101a5576100cd565b80631216cdc5146100d157806337f36a4c146100ed57806342d7fbc01461011d578063715018a61461013b57806371e7eb1214610145578063765fab451461014f575b5f80fd5b6100eb60048036038101906100e691906122c8565b610247565b005b610107600480360381019061010291906122c8565b610a64565b6040516101149190612511565b60405180910390f35b610125610d09565b60405161013291906126a7565b60405180910390f35b610143610fc3565b005b61014d610fd6565b005b6101576110aa565b005b610173600480360381019061016e91906127f3565b6110f4565b005b61018f600480360381019061018a919061283a565b611574565b60405161019c9190612874565b60405180910390f35b6101ad611646565b6040516101ba919061289c565b60405180910390f35b6101dd60048036038101906101d891906122c8565b61166d565b005b6101f960048036038101906101f4919061283a565b611d7a565b6040516102069190612874565b60405180910390f35b610229600480360381019061022491906128b5565b611e4c565b005b6102456004803603810190610240919061283a565b611e5e565b005b5f60015f9054906101000a900473ffffffffffffffffffffffffffffffffffffffff1673ffffffffffffffffffffffffffffffffffffffff16630f53a470336040518263ffffffff1660e01b81526004016102a2919061289c565b5f60405180830381865afa1580156102bc573d5f803e3d5ffd5b505050506040513d5f823e3d601f19601f820116820180604052508101906102e491906129db565b90505f815f0151511161032c576040517f08c379a000000000000000000000000000000000000000000000000000000000815260040161032390612a7c565b60405180910390fd5b82825f600190508160045f8573ffffffffffffffffffffffffffffffffffffffff1673ffffffffffffffffffffffffffffffffffffffff1681526020019081526020015f208054905010156103b6576040517f08c379a00000000000000000000000000000000000000000000000000000000081526004016103ad90612ae4565b60405180910390fd5b5f5b60045f8573ffffffffffffffffffffffffffffffffffffffff1673ffffffffffffffffffffffffffffffffffffffff1681526020019081526020015f206001846104029190612b2f565b8154811061041357610412612b62565b5b905f5260205f20906008020160040180549050811015610518573373ffffffffffffffffffffffffffffffffffffffff1660045f8673ffffffffffffffffffffffffffffffffffffffff1673ffffffffffffffffffffffffffffffffffffffff1681526020019081526020015f2060018561048e9190612b2f565b8154811061049f5761049e612b62565b5b905f5260205f20906008020160040182815481106104c0576104bf612b62565b5b905f5260205f20015f9054906101000a900473ffffffffffffffffffffffffffffffffffffffff1673ffffffffffffffffffffffffffffffffffffffff160361050b575f9150610518565b80806001019150506103b8565b506001151581151514610560576040517f08c379a000000000000000000000000000000000000000000000000000000000815260040161055790612bd9565b60405180910390fd5b85855f600190508160045f8573ffffffffffffffffffffffffffffffffffffffff1673ffffffffffffffffffffffffffffffffffffffff1681526020019081526020015f208054905010156105ea576040517f08c379a00000000000000000000000000000000000000000000000000000000081526004016105e190612ae4565b60405180910390fd5b5f5b60045f8573ffffffffffffffffffffffffffffffffffffffff1673ffffffffffffffffffffffffffffffffffffffff1681526020019081526020015f206001846106369190612b2f565b8154811061064757610646612b62565b5b905f5260205f2090600802016007018054905081101561074c573373ffffffffffffffffffffffffffffffffffffffff1660045f8673ffffffffffffffffffffffffffffffffffffffff1673ffffffffffffffffffffffffffffffffffffffff1681526020019081526020015f206001856106c29190612b2f565b815481106106d3576106d2612b62565b5b905f5260205f20906008020160070182815481106106f4576106f3612b62565b5b905f5260205f20015f9054906101000a900473ffffffffffffffffffffffffffffffffffffffff1673ffffffffffffffffffffffffffffffffffffffff160361073f575f915061074c565b80806001019150506105ec565b506001151581151514610794576040517f08c379a000000000000000000000000000000000000000000000000000000000815260040161078b90612c41565b60405180910390fd5b3373ffffffffffffffffffffffffffffffffffffffff168973ffffffffffffffffffffffffffffffffffffffff1603610802576040517f08c379a00000000000000000000000000000000000000000000000000000000081526004016107f990612ccf565b60405180910390fd5b60045f8a73ffffffffffffffffffffffffffffffffffffffff1673ffffffffffffffffffffffffffffffffffffffff1681526020019081526020015f2060018961084c9190612b2f565b8154811061085d5761085c612b62565b5b905f5260205f20906008020160040133908060018154018082558091505060019003905f5260205f20015f9091909190916101000a81548173ffffffffffffffffffffffffffffffffffffffff021916908373ffffffffffffffffffffffffffffffffffffffff16021790555060045f8a73ffffffffffffffffffffffffffffffffffffffff1673ffffffffffffffffffffffffffffffffffffffff1681526020019081526020015f206001896109149190612b2f565b8154811061092557610924612b62565b5b905f5260205f2090600802016005015f81548092919061094490612ced565b91905055507fe8a76fc0f16d11a00d1e93b689b63d76cf60af914dd3d915375dc41d01a0c3c8338a60045f8d73ffffffffffffffffffffffffffffffffffffffff1673ffffffffffffffffffffffffffffffffffffffff1681526020019081526020015f2060018c6109b69190612b2f565b815481106109c7576109c6612b62565b5b905f5260205f2090600802016005015460045f8e73ffffffffffffffffffffffffffffffffffffffff1673ffffffffffffffffffffffffffffffffffffffff1681526020019081526020015f2060018d610a219190612b2f565b81548110610a3257610a31612b62565b5b905f5260205f2090600802015f0154604051610a519493929190612d34565b60405180910390a1505050505050505050565b610a6c612031565b60045f8473ffffffffffffffffffffffffffffffffffffffff1673ffffffffffffffffffffffffffffffffffffffff1681526020019081526020015f20600183610ab69190612b2f565b81548110610ac757610ac6612b62565b5b905f5260205f209060080201604051806101000160405290815f8201548152602001600182018054610af890612da4565b80601f0160208091040260200160405190810160405280929190818152602001828054610b2490612da4565b8015610b6f5780601f10610b4657610100808354040283529160200191610b6f565b820191905f5260205f20905b815481529060010190602001808311610b5257829003601f168201915b50505050508152602001600282015f9054906101000a900473ffffffffffffffffffffffffffffffffffffffff1673ffffffffffffffffffffffffffffffffffffffff1673ffffffffffffffffffffffffffffffffffffffff1681526020016003820154815260200160048201805480602002602001604051908101604052809291908181526020018280548015610c5957602002820191905f5260205f20905b815f9054906101000a900473ffffffffffffffffffffffffffffffffffffffff1673ffffffffffffffffffffffffffffffffffffffff1681526020019060010190808311610c10575b50505050508152602001600582015481526020016006820154815260200160078201805480602002602001604051908101604052809291908181526020018280548015610cf857602002820191905f5260205f20905b815f9054906101000a900473ffffffffffffffffffffffffffffffffffffffff1673ffffffffffffffffffffffffffffffffffffffff1681526020019060010190808311610caf575b505050505081525050905092915050565b606060045f3373ffffffffffffffffffffffffffffffffffffffff1673ffffffffffffffffffffffffffffffffffffffff1681526020019081526020015f20805480602002602001604051908101604052809291908181526020015f905b82821015610fba578382905f5260205f209060080201604051806101000160405290815f8201548152602001600182018054610da290612da4565b80601f0160208091040260200160405190810160405280929190818152602001828054610dce90612da4565b8015610e195780601f10610df057610100808354040283529160200191610e19565b820191905f5260205f20905b815481529060010190602001808311610dfc57829003601f168201915b50505050508152602001600282015f9054906101000a900473ffffffffffffffffffffffffffffffffffffffff1673ffffffffffffffffffffffffffffffffffffffff1673ffffffffffffffffffffffffffffffffffffffff1681526020016003820154815260200160048201805480602002602001604051908101604052809291908181526020018280548015610f0357602002820191905f5260205f20905b815f9054906101000a900473ffffffffffffffffffffffffffffffffffffffff1673ffffffffffffffffffffffffffffffffffffffff1681526020019060010190808311610eba575b50505050508152602001600582015481526020016006820154815260200160078201805480602002602001604051908101604052809291908181526020018280548015610fa257602002820191905f5260205f20905b815f9054906101000a900473ffffffffffffffffffffffffffffffffffffffff1673ffffffffffffffffffffffffffffffffffffffff1681526020019060010190808311610f59575b50505050508152505081526020019060010190610d67565b50505050905090565b610fcb611ee2565b610fd45f611f69565b565b60045f3373ffffffffffffffffffffffffffffffffffffffff1673ffffffffffffffffffffffffffffffffffffffff1681526020019081526020015f2080548061102357611022612dd4565b5b600190038181905f5260205f2090600802015f8082015f9055600182015f61104b9190612087565b600282015f6101000a81549073ffffffffffffffffffffffffffffffffffffffff0219169055600382015f9055600482015f61108791906120c4565b600582015f9055600682015f9055600782015f6110a491906120c4565b50509055565b60045f3373ffffffffffffffffffffffffffffffffffffffff1673ffffffffffffffffffffffffffffffffffffffff1681526020019081526020015f205f6110f291906120e2565b565b5f60015f9054906101000a900473ffffffffffffffffffffffffffffffffffffffff1673ffffffffffffffffffffffffffffffffffffffff16630f53a470336040518263ffffffff1660e01b815260040161114f919061289c565b5f60405180830381865afa158015611169573d5f803e3d5ffd5b505050506040513d5f823e3d601f19601f8201168201806040525081019061119191906129db565b90505f815f015151116111d9576040517f08c379a00000000000000000000000000000000000000000000000000000000081526004016111d090612a7c565b60405180910390fd5b6002548251111561121f576040517f08c379a000000000000000000000000000000000000000000000000000000000815260040161121690612e4b565b60405180910390fd5b5f604051806101000160405280600160045f3373ffffffffffffffffffffffffffffffffffffffff1673ffffffffffffffffffffffffffffffffffffffff1681526020019081526020015f20805490506112799190612e69565b81526020018481526020013373ffffffffffffffffffffffffffffffffffffffff168152602001428152602001600380548060200260200160405190810160405280929190818152602001828054801561132557602002820191905f5260205f20905b815f9054906101000a900473ffffffffffffffffffffffffffffffffffffffff1673ffffffffffffffffffffffffffffffffffffffff16815260200190600101908083116112dc575b505050505081526020015f81526020015f815260200160038054806020026020016040519081016040528092919081815260200182805480156113ba57602002820191905f5260205f20905b815f9054906101000a900473ffffffffffffffffffffffffffffffffffffffff1673ffffffffffffffffffffffffffffffffffffffff1681526020019060010190808311611371575b5050505050815250905060045f3373ffffffffffffffffffffffffffffffffffffffff1673ffffffffffffffffffffffffffffffffffffffff1681526020019081526020015f2081908060018154018082558091505060019003905f5260205f2090600802015f909190919091505f820151815f015560208201518160010190816114459190613039565b506040820151816002015f6101000a81548173ffffffffffffffffffffffffffffffffffffffff021916908373ffffffffffffffffffffffffffffffffffffffff1602179055506060820151816003015560808201518160040190805190602001906114b2929190612103565b5060a0820151816005015560c0820151816006015560e08201518160070190805190602001906114e3929190612103565b5050507f16fd3c13e9d46923e0a8bce11c7b473ec508a72e6c96cd2404b29ce972afc29e600160045f3373ffffffffffffffffffffffffffffffffffffffff1673ffffffffffffffffffffffffffffffffffffffff1681526020019081526020015f20805490506115549190612e69565b3385426040516115679493929190613140565b60405180910390a1505050565b5f805f90505f5b60045f8573ffffffffffffffffffffffffffffffffffffffff1673ffffffffffffffffffffffffffffffffffffffff1681526020019081526020015f208054905081101561163c5760045f8573ffffffffffffffffffffffffffffffffffffffff1673ffffffffffffffffffffffffffffffffffffffff1681526020019081526020015f20818154811061161257611611612b62565b5b905f5260205f209060080201600501548261162d9190612e69565b9150808060010191505061157b565b5080915050919050565b5f805f9054906101000a900473ffffffffffffffffffffffffffffffffffffffff16905090565b5f60015f9054906101000a900473ffffffffffffffffffffffffffffffffffffffff1673ffffffffffffffffffffffffffffffffffffffff16630f53a470336040518263ffffffff1660e01b81526004016116c8919061289c565b5f60405180830381865afa1580156116e2573d5f803e3d5ffd5b505050506040513d5f823e3d601f19601f8201168201806040525081019061170a91906129db565b90505f815f01515111611752576040517f08c379a000000000000000000000000000000000000000000000000000000000815260040161174990612a7c565b60405180910390fd5b82825f600190508160045f8573ffffffffffffffffffffffffffffffffffffffff1673ffffffffffffffffffffffffffffffffffffffff1681526020019081526020015f208054905010156117dc576040517f08c379a00000000000000000000000000000000000000000000000000000000081526004016117d390612ae4565b60405180910390fd5b5f5b60045f8573ffffffffffffffffffffffffffffffffffffffff1673ffffffffffffffffffffffffffffffffffffffff1681526020019081526020015f206001846118289190612b2f565b8154811061183957611838612b62565b5b905f5260205f2090600802016004018054905081101561193e573373ffffffffffffffffffffffffffffffffffffffff1660045f8673ffffffffffffffffffffffffffffffffffffffff1673ffffffffffffffffffffffffffffffffffffffff1681526020019081526020015f206001856118b49190612b2f565b815481106118c5576118c4612b62565b5b905f5260205f20906008020160040182815481106118e6576118e5612b62565b5b905f5260205f20015f9054906101000a900473ffffffffffffffffffffffffffffffffffffffff1673ffffffffffffffffffffffffffffffffffffffff1603611931575f915061193e565b80806001019150506117de565b506001151581151514611986576040517f08c379a000000000000000000000000000000000000000000000000000000000815260040161197d90612bd9565b60405180910390fd5b85855f600190508160045f8573ffffffffffffffffffffffffffffffffffffffff1673ffffffffffffffffffffffffffffffffffffffff1681526020019081526020015f20805490501015611a10576040517f08c379a0000000000000000000000000000000000000000000000000000000008152600401611a0790612ae4565b60405180910390fd5b5f5b60045f8573ffffffffffffffffffffffffffffffffffffffff1673ffffffffffffffffffffffffffffffffffffffff1681526020019081526020015f20600184611a5c9190612b2f565b81548110611a6d57611a6c612b62565b5b905f5260205f20906008020160070180549050811015611b72573373ffffffffffffffffffffffffffffffffffffffff1660045f8673ffffffffffffffffffffffffffffffffffffffff1673ffffffffffffffffffffffffffffffffffffffff1681526020019081526020015f20600185611ae89190612b2f565b81548110611af957611af8612b62565b5b905f5260205f2090600802016007018281548110611b1a57611b19612b62565b5b905f5260205f20015f9054906101000a900473ffffffffffffffffffffffffffffffffffffffff1673ffffffffffffffffffffffffffffffffffffffff1603611b65575f9150611b72565b8080600101915050611a12565b506001151581151514611bba576040517f08c379a0000000000000000000000000000000000000000000000000000000008152600401611bb190612c41565b60405180910390fd5b3373ffffffffffffffffffffffffffffffffffffffff168973ffffffffffffffffffffffffffffffffffffffff1603611c28576040517f08c379a0000000000000000000000000000000000000000000000000000000008152600401611c1f90612ccf565b60405180910390fd5b60045f8a73ffffffffffffffffffffffffffffffffffffffff1673ffffffffffffffffffffffffffffffffffffffff1681526020019081526020015f20600189611c729190612b2f565b81548110611c8357611c82612b62565b5b905f5260205f20906008020160070133908060018154018082558091505060019003905f5260205f20015f9091909190916101000a81548173ffffffffffffffffffffffffffffffffffffffff021916908373ffffffffffffffffffffffffffffffffffffffff16021790555060045f8a73ffffffffffffffffffffffffffffffffffffffff1673ffffffffffffffffffffffffffffffffffffffff1681526020019081526020015f20600189611d3a9190612b2f565b81548110611d4b57611d4a612b62565b5b905f5260205f2090600802016006015f815480929190611d6a90612ced565b9190505550505050505050505050565b5f805f90505f5b60045f8573ffffffffffffffffffffffffffffffffffffffff1673ffffffffffffffffffffffffffffffffffffffff1681526020019081526020015f2080549050811015611e425760045f8573ffffffffffffffffffffffffffffffffffffffff1673ffffffffffffffffffffffffffffffffffffffff1681526020019081526020015f208181548110611e1857611e17612b62565b5b905f5260205f2090600802016006015482611e339190612e69565b91508080600101915050611d81565b5080915050919050565b611e54611ee2565b8060028190555050565b611e66611ee2565b5f73ffffffffffffffffffffffffffffffffffffffff168173ffffffffffffffffffffffffffffffffffffffff1603611ed6575f6040517f1e4fbdf7000000000000000000000000000000000000000000000000000000008152600401611ecd919061289c565b60405180910390fd5b611edf81611f69565b50565b611eea61202a565b73ffffffffffffffffffffffffffffffffffffffff16611f08611646565b73ffffffffffffffffffffffffffffffffffffffff1614611f6757611f2b61202a565b6040517f118cdaa7000000000000000000000000000000000000000000000000000000008152600401611f5e919061289c565b60405180910390fd5b565b5f805f9054906101000a900473ffffffffffffffffffffffffffffffffffffffff169050815f806101000a81548173ffffffffffffffffffffffffffffffffffffffff021916908373ffffffffffffffffffffffffffffffffffffffff1602179055508173ffffffffffffffffffffffffffffffffffffffff168173ffffffffffffffffffffffffffffffffffffffff167f8be0079c531659141344cd1fd0a4f28419497f9722a3daafe3b4186f6b6457e060405160405180910390a35050565b5f33905090565b6040518061010001604052805f8152602001606081526020015f73ffffffffffffffffffffffffffffffffffffffff1681526020015f8152602001606081526020015f81526020015f8152602001606081525090565b50805461209390612da4565b5f825580601f106120a457506120c1565b601f0160209004905f5260205f20908101906120c0919061218a565b5b50565b5080545f8255905f5260205f20908101906120df919061218a565b50565b5080545f8255600802905f5260205f209081019061210091906121a5565b50565b828054828255905f5260205f20908101928215612179579160200282015b82811115612178578251825f6101000a81548173ffffffffffffffffffffffffffffffffffffffff021916908373ffffffffffffffffffffffffffffffffffffffff16021790555091602001919060010190612121565b5b509050612186919061218a565b5090565b5b808211156121a1575f815f90555060010161218b565b5090565b5b80821115612226575f8082015f9055600182015f6121c49190612087565b600282015f6101000a81549073ffffffffffffffffffffffffffffffffffffffff0219169055600382015f9055600482015f61220091906120c4565b600582015f9055600682015f9055600782015f61221d91906120c4565b506008016121a6565b5090565b5f604051905090565b5f80fd5b5f80fd5b5f73ffffffffffffffffffffffffffffffffffffffff82169050919050565b5f6122648261223b565b9050919050565b6122748161225a565b811461227e575f80fd5b50565b5f8135905061228f8161226b565b92915050565b5f819050919050565b6122a781612295565b81146122b1575f80fd5b50565b5f813590506122c28161229e565b92915050565b5f80604083850312156122de576122dd612233565b5b5f6122eb85828601612281565b92505060206122fc858286016122b4565b9150509250929050565b61230f81612295565b82525050565b5f81519050919050565b5f82825260208201905092915050565b5f5b8381101561234c578082015181840152602081019050612331565b5f8484015250505050565b5f601f19601f8301169050919050565b5f61237182612315565b61237b818561231f565b935061238b81856020860161232f565b61239481612357565b840191505092915050565b6123a88161225a565b82525050565b5f81519050919050565b5f82825260208201905092915050565b5f819050602082019050919050565b5f6123e2838361239f565b60208301905092915050565b5f602082019050919050565b5f612404826123ae565b61240e81856123b8565b9350612419836123c8565b805f5b8381101561244957815161243088826123d7565b975061243b836123ee565b92505060018101905061241c565b5085935050505092915050565b5f61010083015f83015161246c5f860182612306565b50602083015184820360208601526124848282612367565b9150506040830151612499604086018261239f565b5060608301516124ac6060860182612306565b50608083015184820360808601526124c482826123fa565b91505060a08301516124d960a0860182612306565b5060c08301516124ec60c0860182612306565b5060e083015184820360e086015261250482826123fa565b9150508091505092915050565b5f6020820190508181035f8301526125298184612456565b905092915050565b5f81519050919050565b5f82825260208201905092915050565b5f819050602082019050919050565b5f61010083015f8301516125705f860182612306565b50602083015184820360208601526125888282612367565b915050604083015161259d604086018261239f565b5060608301516125b06060860182612306565b50608083015184820360808601526125c882826123fa565b91505060a08301516125dd60a0860182612306565b5060c08301516125f060c0860182612306565b5060e083015184820360e086015261260882826123fa565b9150508091505092915050565b5f612620838361255a565b905092915050565b5f602082019050919050565b5f61263e82612531565b612648818561253b565b93508360208202850161265a8561254b565b805f5b8581101561269557848403895281516126768582612615565b945061268183612628565b925060208a0199505060018101905061265d565b50829750879550505050505092915050565b5f6020820190508181035f8301526126bf8184612634565b905092915050565b5f80fd5b5f80fd5b7f4e487b71000000000000000000000000000000000000000000000000000000005f52604160045260245ffd5b61270582612357565b810181811067ffffffffffffffff82111715612724576127236126cf565b5b80604052505050565b5f61273661222a565b905061274282826126fc565b919050565b5f67ffffffffffffffff821115612761576127606126cf565b5b61276a82612357565b9050602081019050919050565b828183375f83830152505050565b5f61279761279284612747565b61272d565b9050828152602081018484840111156127b3576127b26126cb565b5b6127be848285612777565b509392505050565b5f82601f8301126127da576127d96126c7565b5b81356127ea848260208601612785565b91505092915050565b5f6020828403121561280857612807612233565b5b5f82013567ffffffffffffffff81111561282557612824612237565b5b612831848285016127c6565b91505092915050565b5f6020828403121561284f5761284e612233565b5b5f61285c84828501612281565b91505092915050565b61286e81612295565b82525050565b5f6020820190506128875f830184612865565b92915050565b6128968161225a565b82525050565b5f6020820190506128af5f83018461288d565b92915050565b5f602082840312156128ca576128c9612233565b5b5f6128d7848285016122b4565b91505092915050565b5f80fd5b5f80fd5b5f6128fa6128f584612747565b61272d565b905082815260208101848484011115612916576129156126cb565b5b61292184828561232f565b509392505050565b5f82601f83011261293d5761293c6126c7565b5b815161294d8482602086016128e8565b91505092915050565b5f6040828403121561296b5761296a6128e0565b5b612975604061272d565b90505f82015167ffffffffffffffff811115612994576129936128e4565b5b6129a084828501612929565b5f83015250602082015167ffffffffffffffff8111156129c3576129c26128e4565b5b6129cf84828501612929565b60208301525092915050565b5f602082840312156129f0576129ef612233565b5b5f82015167ffffffffffffffff811115612a0d57612a0c612237565b5b612a1984828501612956565b91505092915050565b5f82825260208201905092915050565b7f55534552204e4f542052454749535445524544000000000000000000000000005f82015250565b5f612a66601383612a22565b9150612a7182612a32565b602082019050919050565b5f6020820190508181035f830152612a9381612a5a565b9050919050565b7f54686973205477656574204e6f742045786973742021000000000000000000005f82015250565b5f612ace601683612a22565b9150612ad982612a9a565b602082019050919050565b5f6020820190508181035f830152612afb81612ac2565b9050919050565b7f4e487b71000000000000000000000000000000000000000000000000000000005f52601160045260245ffd5b5f612b3982612295565b9150612b4483612295565b9250828203905081811115612b5c57612b5b612b02565b5b92915050565b7f4e487b71000000000000000000000000000000000000000000000000000000005f52603260045260245ffd5b7f596f7520416c7265616479204c696b65642074686520747765657421000000005f82015250565b5f612bc3601c83612a22565b9150612bce82612b8f565b602082019050919050565b5f6020820190508181035f830152612bf081612bb7565b9050919050565b7f596f7520416c726561647920556e4c696b6564207468652074776565742100005f82015250565b5f612c2b601e83612a22565b9150612c3682612bf7565b602082019050919050565b5f6020820190508181035f830152612c5881612c1f565b9050919050565b7f5468697320697320596f757220547765657421596f752063616e6e2774204c695f8201527f6b6520596f757220547765657421000000000000000000000000000000000000602082015250565b5f612cb9602e83612a22565b9150612cc482612c5f565b604082019050919050565b5f6020820190508181035f830152612ce681612cad565b9050919050565b5f612cf782612295565b91507fffffffffffffffffffffffffffffffffffffffffffffffffffffffffffffffff8203612d2957612d28612b02565b5b600182019050919050565b5f608082019050612d475f83018761288d565b612d54602083018661288d565b612d616040830185612865565b612d6e6060830184612865565b95945050505050565b7f4e487b71000000000000000000000000000000000000000000000000000000005f52602260045260245ffd5b5f6002820490506001821680612dbb57607f821691505b602082108103612dce57612dcd612d77565b5b50919050565b7f4e487b71000000000000000000000000000000000000000000000000000000005f52603160045260245ffd5b7f5477656574204c656e67746820697320457863656564210000000000000000005f82015250565b5f612e35601783612a22565b9150612e4082612e01565b602082019050919050565b5f6020820190508181035f830152612e6281612e29565b9050919050565b5f612e7382612295565b9150612e7e83612295565b9250828201905080821115612e9657612e95612b02565b5b92915050565b5f819050815f5260205f209050919050565b5f6020601f8301049050919050565b5f82821b905092915050565b5f60088302612ef87fffffffffffffffffffffffffffffffffffffffffffffffffffffffffffffffff82612ebd565b612f028683612ebd565b95508019841693508086168417925050509392505050565b5f819050919050565b5f612f3d612f38612f3384612295565b612f1a565b612295565b9050919050565b5f819050919050565b612f5683612f23565b612f6a612f6282612f44565b848454612ec9565b825550505050565b5f90565b612f7e612f72565b612f89818484612f4d565b505050565b5b81811015612fac57612fa15f82612f76565b600181019050612f8f565b5050565b601f821115612ff157612fc281612e9c565b612fcb84612eae565b81016020851015612fda578190505b612fee612fe685612eae565b830182612f8e565b50505b505050565b5f82821c905092915050565b5f6130115f1984600802612ff6565b1980831691505092915050565b5f6130298383613002565b9150826002028217905092915050565b61304282612315565b67ffffffffffffffff81111561305b5761305a6126cf565b5b6130658254612da4565b613070828285612fb0565b5f60209050601f8311600181146130a1575f841561308f578287015190505b613099858261301e565b865550613100565b601f1984166130af86612e9c565b5f5b828110156130d6578489015182556001820191506020850194506020810190506130b1565b868310156130f357848901516130ef601f891682613002565b8355505b6001600288020188555050505b505050505050565b5f61311282612315565b61311c8185612a22565b935061312c81856020860161232f565b61313581612357565b840191505092915050565b5f6080820190506131535f830187612865565b613160602083018661288d565b81810360408301526131728185613108565b90506131816060830184612865565b9594505050505056fea26469706673582212208ab255d54dfd8b6f2f5090c85b2a160daf8732060bc89ca1f75e16bfad9cb8d264736f6c63430008170033",
					"opcodes": "PUSH1 0x80 PUSH1 0x40 MSTORE PUSH1 0xA PUSH1 0x2 SSTORE CALLVALUE DUP1 ISZERO PUSH3 0x15 JUMPI PUSH0 DUP1 REVERT JUMPDEST POP PUSH1 0x40 MLOAD PUSH3 0x3458 CODESIZE SUB DUP1 PUSH3 0x3458 DUP4 CODECOPY DUP2 DUP2 ADD PUSH1 0x40 MSTORE DUP2 ADD SWAP1 PUSH3 0x3B SWAP2 SWAP1 PUSH3 0x22E JUMP JUMPDEST CALLER PUSH0 PUSH20 0xFFFFFFFFFFFFFFFFFFFFFFFFFFFFFFFFFFFFFFFF AND DUP2 PUSH20 0xFFFFFFFFFFFFFFFFFFFFFFFFFFFFFFFFFFFFFFFF AND SUB PUSH3 0xAF JUMPI PUSH0 PUSH1 0x40 MLOAD PUSH32 0x1E4FBDF700000000000000000000000000000000000000000000000000000000 DUP2 MSTORE PUSH1 0x4 ADD PUSH3 0xA6 SWAP2 SWAP1 PUSH3 0x26F JUMP JUMPDEST PUSH1 0x40 MLOAD DUP1 SWAP2 SUB SWAP1 REVERT JUMPDEST PUSH3 0xC0 DUP2 PUSH3 0x108 PUSH1 0x20 SHL PUSH1 0x20 SHR JUMP JUMPDEST POP DUP1 PUSH1 0x1 PUSH0 PUSH2 0x100 EXP DUP2 SLOAD DUP2 PUSH20 0xFFFFFFFFFFFFFFFFFFFFFFFFFFFFFFFFFFFFFFFF MUL NOT AND SWAP1 DUP4 PUSH20 0xFFFFFFFFFFFFFFFFFFFFFFFFFFFFFFFFFFFFFFFF AND MUL OR SWAP1 SSTORE POP POP PUSH3 0x28A JUMP JUMPDEST PUSH0 DUP1 PUSH0 SWAP1 SLOAD SWAP1 PUSH2 0x100 EXP SWAP1 DIV PUSH20 0xFFFFFFFFFFFFFFFFFFFFFFFFFFFFFFFFFFFFFFFF AND SWAP1 POP DUP2 PUSH0 DUP1 PUSH2 0x100 EXP DUP2 SLOAD DUP2 PUSH20 0xFFFFFFFFFFFFFFFFFFFFFFFFFFFFFFFFFFFFFFFF MUL NOT AND SWAP1 DUP4 PUSH20 0xFFFFFFFFFFFFFFFFFFFFFFFFFFFFFFFFFFFFFFFF AND MUL OR SWAP1 SSTORE POP DUP2 PUSH20 0xFFFFFFFFFFFFFFFFFFFFFFFFFFFFFFFFFFFFFFFF AND DUP2 PUSH20 0xFFFFFFFFFFFFFFFFFFFFFFFFFFFFFFFFFFFFFFFF AND PUSH32 0x8BE0079C531659141344CD1FD0A4F28419497F9722A3DAAFE3B4186F6B6457E0 PUSH1 0x40 MLOAD PUSH1 0x40 MLOAD DUP1 SWAP2 SUB SWAP1 LOG3 POP POP JUMP JUMPDEST PUSH0 DUP1 REVERT JUMPDEST PUSH0 PUSH20 0xFFFFFFFFFFFFFFFFFFFFFFFFFFFFFFFFFFFFFFFF DUP3 AND SWAP1 POP SWAP2 SWAP1 POP JUMP JUMPDEST PUSH0 PUSH3 0x1F8 DUP3 PUSH3 0x1CD JUMP JUMPDEST SWAP1 POP SWAP2 SWAP1 POP JUMP JUMPDEST PUSH3 0x20A DUP2 PUSH3 0x1EC JUMP JUMPDEST DUP2 EQ PUSH3 0x215 JUMPI PUSH0 DUP1 REVERT JUMPDEST POP JUMP JUMPDEST PUSH0 DUP2 MLOAD SWAP1 POP PUSH3 0x228 DUP2 PUSH3 0x1FF JUMP JUMPDEST SWAP3 SWAP2 POP POP JUMP JUMPDEST PUSH0 PUSH1 0x20 DUP3 DUP5 SUB SLT ISZERO PUSH3 0x246 JUMPI PUSH3 0x245 PUSH3 0x1C9 JUMP JUMPDEST JUMPDEST PUSH0 PUSH3 0x255 DUP5 DUP3 DUP6 ADD PUSH3 0x218 JUMP JUMPDEST SWAP2 POP POP SWAP3 SWAP2 POP POP JUMP JUMPDEST PUSH3 0x269 DUP2 PUSH3 0x1EC JUMP JUMPDEST DUP3 MSTORE POP POP JUMP JUMPDEST PUSH0 PUSH1 0x20 DUP3 ADD SWAP1 POP PUSH3 0x284 PUSH0 DUP4 ADD DUP5 PUSH3 0x25E JUMP JUMPDEST SWAP3 SWAP2 POP POP JUMP JUMPDEST PUSH2 0x31C0 DUP1 PUSH3 0x298 PUSH0 CODECOPY PUSH0 RETURN INVALID PUSH1 0x80 PUSH1 0x40 MSTORE CALLVALUE DUP1 ISZERO PUSH2 0xF JUMPI PUSH0 DUP1 REVERT JUMPDEST POP PUSH1 0x4 CALLDATASIZE LT PUSH2 0xCD JUMPI PUSH0 CALLDATALOAD PUSH1 0xE0 SHR DUP1 PUSH4 0x7C9CD2BC GT PUSH2 0x8A JUMPI DUP1 PUSH4 0xA110E72D GT PUSH2 0x64 JUMPI DUP1 PUSH4 0xA110E72D EQ PUSH2 0x1C3 JUMPI DUP1 PUSH4 0xA6156D77 EQ PUSH2 0x1DF JUMPI DUP1 PUSH4 0xE479C244 EQ PUSH2 0x20F JUMPI DUP1 PUSH4 0xF2FDE38B EQ PUSH2 0x22B JUMPI PUSH2 0xCD JUMP JUMPDEST DUP1 PUSH4 0x7C9CD2BC EQ PUSH2 0x159 JUMPI DUP1 PUSH4 0x820785CC EQ PUSH2 0x175 JUMPI DUP1 PUSH4 0x8DA5CB5B EQ PUSH2 0x1A5 JUMPI PUSH2 0xCD JUMP JUMPDEST DUP1 PUSH4 0x1216CDC5 EQ PUSH2 0xD1 JUMPI DUP1 PUSH4 0x37F36A4C EQ PUSH2 0xED JUMPI DUP1 PUSH4 0x42D7FBC0 EQ PUSH2 0x11D JUMPI DUP1 PUSH4 0x715018A6 EQ PUSH2 0x13B JUMPI DUP1 PUSH4 0x71E7EB12 EQ PUSH2 0x145 JUMPI DUP1 PUSH4 0x765FAB45 EQ PUSH2 0x14F JUMPI JUMPDEST PUSH0 DUP1 REVERT JUMPDEST PUSH2 0xEB PUSH1 0x4 DUP1 CALLDATASIZE SUB DUP2 ADD SWAP1 PUSH2 0xE6 SWAP2 SWAP1 PUSH2 0x22C8 JUMP JUMPDEST PUSH2 0x247 JUMP JUMPDEST STOP JUMPDEST PUSH2 0x107 PUSH1 0x4 DUP1 CALLDATASIZE SUB DUP2 ADD SWAP1 PUSH2 0x102 SWAP2 SWAP1 PUSH2 0x22C8 JUMP JUMPDEST PUSH2 0xA64 JUMP JUMPDEST PUSH1 0x40 MLOAD PUSH2 0x114 SWAP2 SWAP1 PUSH2 0x2511 JUMP JUMPDEST PUSH1 0x40 MLOAD DUP1 SWAP2 SUB SWAP1 RETURN JUMPDEST PUSH2 0x125 PUSH2 0xD09 JUMP JUMPDEST PUSH1 0x40 MLOAD PUSH2 0x132 SWAP2 SWAP1 PUSH2 0x26A7 JUMP JUMPDEST PUSH1 0x40 MLOAD DUP1 SWAP2 SUB SWAP1 RETURN JUMPDEST PUSH2 0x143 PUSH2 0xFC3 JUMP JUMPDEST STOP JUMPDEST PUSH2 0x14D PUSH2 0xFD6 JUMP JUMPDEST STOP JUMPDEST PUSH2 0x157 PUSH2 0x10AA JUMP JUMPDEST STOP JUMPDEST PUSH2 0x173 PUSH1 0x4 DUP1 CALLDATASIZE SUB DUP2 ADD SWAP1 PUSH2 0x16E SWAP2 SWAP1 PUSH2 0x27F3 JUMP JUMPDEST PUSH2 0x10F4 JUMP JUMPDEST STOP JUMPDEST PUSH2 0x18F PUSH1 0x4 DUP1 CALLDATASIZE SUB DUP2 ADD SWAP1 PUSH2 0x18A SWAP2 SWAP1 PUSH2 0x283A JUMP JUMPDEST PUSH2 0x1574 JUMP JUMPDEST PUSH1 0x40 MLOAD PUSH2 0x19C SWAP2 SWAP1 PUSH2 0x2874 JUMP JUMPDEST PUSH1 0x40 MLOAD DUP1 SWAP2 SUB SWAP1 RETURN JUMPDEST PUSH2 0x1AD PUSH2 0x1646 JUMP JUMPDEST PUSH1 0x40 MLOAD PUSH2 0x1BA SWAP2 SWAP1 PUSH2 0x289C JUMP JUMPDEST PUSH1 0x40 MLOAD DUP1 SWAP2 SUB SWAP1 RETURN JUMPDEST PUSH2 0x1DD PUSH1 0x4 DUP1 CALLDATASIZE SUB DUP2 ADD SWAP1 PUSH2 0x1D8 SWAP2 SWAP1 PUSH2 0x22C8 JUMP JUMPDEST PUSH2 0x166D JUMP JUMPDEST STOP JUMPDEST PUSH2 0x1F9 PUSH1 0x4 DUP1 CALLDATASIZE SUB DUP2 ADD SWAP1 PUSH2 0x1F4 SWAP2 SWAP1 PUSH2 0x283A JUMP JUMPDEST PUSH2 0x1D7A JUMP JUMPDEST PUSH1 0x40 MLOAD PUSH2 0x206 SWAP2 SWAP1 PUSH2 0x2874 JUMP JUMPDEST PUSH1 0x40 MLOAD DUP1 SWAP2 SUB SWAP1 RETURN JUMPDEST PUSH2 0x229 PUSH1 0x4 DUP1 CALLDATASIZE SUB DUP2 ADD SWAP1 PUSH2 0x224 SWAP2 SWAP1 PUSH2 0x28B5 JUMP JUMPDEST PUSH2 0x1E4C JUMP JUMPDEST STOP JUMPDEST PUSH2 0x245 PUSH1 0x4 DUP1 CALLDATASIZE SUB DUP2 ADD SWAP1 PUSH2 0x240 SWAP2 SWAP1 PUSH2 0x283A JUMP JUMPDEST PUSH2 0x1E5E JUMP JUMPDEST STOP JUMPDEST PUSH0 PUSH1 0x1 PUSH0 SWAP1 SLOAD SWAP1 PUSH2 0x100 EXP SWAP1 DIV PUSH20 0xFFFFFFFFFFFFFFFFFFFFFFFFFFFFFFFFFFFFFFFF AND PUSH20 0xFFFFFFFFFFFFFFFFFFFFFFFFFFFFFFFFFFFFFFFF AND PUSH4 0xF53A470 CALLER PUSH1 0x40 MLOAD DUP3 PUSH4 0xFFFFFFFF AND PUSH1 0xE0 SHL DUP2 MSTORE PUSH1 0x4 ADD PUSH2 0x2A2 SWAP2 SWAP1 PUSH2 0x289C JUMP JUMPDEST PUSH0 PUSH1 0x40 MLOAD DUP1 DUP4 SUB DUP2 DUP7 GAS STATICCALL ISZERO DUP1 ISZERO PUSH2 0x2BC JUMPI RETURNDATASIZE PUSH0 DUP1 RETURNDATACOPY RETURNDATASIZE PUSH0 REVERT JUMPDEST POP POP POP POP PUSH1 0x40 MLOAD RETURNDATASIZE PUSH0 DUP3 RETURNDATACOPY RETURNDATASIZE PUSH1 0x1F NOT PUSH1 0x1F DUP3 ADD AND DUP3 ADD DUP1 PUSH1 0x40 MSTORE POP DUP2 ADD SWAP1 PUSH2 0x2E4 SWAP2 SWAP1 PUSH2 0x29DB JUMP JUMPDEST SWAP1 POP PUSH0 DUP2 PUSH0 ADD MLOAD MLOAD GT PUSH2 0x32C JUMPI PUSH1 0x40 MLOAD PUSH32 0x8C379A000000000000000000000000000000000000000000000000000000000 DUP2 MSTORE PUSH1 0x4 ADD PUSH2 0x323 SWAP1 PUSH2 0x2A7C JUMP JUMPDEST PUSH1 0x40 MLOAD DUP1 SWAP2 SUB SWAP1 REVERT JUMPDEST DUP3 DUP3 PUSH0 PUSH1 0x1 SWAP1 POP DUP2 PUSH1 0x4 PUSH0 DUP6 PUSH20 0xFFFFFFFFFFFFFFFFFFFFFFFFFFFFFFFFFFFFFFFF AND PUSH20 0xFFFFFFFFFFFFFFFFFFFFFFFFFFFFFFFFFFFFFFFF AND DUP2 MSTORE PUSH1 0x20 ADD SWAP1 DUP2 MSTORE PUSH1 0x20 ADD PUSH0 KECCAK256 DUP1 SLOAD SWAP1 POP LT ISZERO PUSH2 0x3B6 JUMPI PUSH1 0x40 MLOAD PUSH32 0x8C379A000000000000000000000000000000000000000000000000000000000 DUP2 MSTORE PUSH1 0x4 ADD PUSH2 0x3AD SWAP1 PUSH2 0x2AE4 JUMP JUMPDEST PUSH1 0x40 MLOAD DUP1 SWAP2 SUB SWAP1 REVERT JUMPDEST PUSH0 JUMPDEST PUSH1 0x4 PUSH0 DUP6 PUSH20 0xFFFFFFFFFFFFFFFFFFFFFFFFFFFFFFFFFFFFFFFF AND PUSH20 0xFFFFFFFFFFFFFFFFFFFFFFFFFFFFFFFFFFFFFFFF AND DUP2 MSTORE PUSH1 0x20 ADD SWAP1 DUP2 MSTORE PUSH1 0x20 ADD PUSH0 KECCAK256 PUSH1 0x1 DUP5 PUSH2 0x402 SWAP2 SWAP1 PUSH2 0x2B2F JUMP JUMPDEST DUP2 SLOAD DUP2 LT PUSH2 0x413 JUMPI PUSH2 0x412 PUSH2 0x2B62 JUMP JUMPDEST JUMPDEST SWAP1 PUSH0 MSTORE PUSH1 0x20 PUSH0 KECCAK256 SWAP1 PUSH1 0x8 MUL ADD PUSH1 0x4 ADD DUP1 SLOAD SWAP1 POP DUP2 LT ISZERO PUSH2 0x518 JUMPI CALLER PUSH20 0xFFFFFFFFFFFFFFFFFFFFFFFFFFFFFFFFFFFFFFFF AND PUSH1 0x4 PUSH0 DUP7 PUSH20 0xFFFFFFFFFFFFFFFFFFFFFFFFFFFFFFFFFFFFFFFF AND PUSH20 0xFFFFFFFFFFFFFFFFFFFFFFFFFFFFFFFFFFFFFFFF AND DUP2 MSTORE PUSH1 0x20 ADD SWAP1 DUP2 MSTORE PUSH1 0x20 ADD PUSH0 KECCAK256 PUSH1 0x1 DUP6 PUSH2 0x48E SWAP2 SWAP1 PUSH2 0x2B2F JUMP JUMPDEST DUP2 SLOAD DUP2 LT PUSH2 0x49F JUMPI PUSH2 0x49E PUSH2 0x2B62 JUMP JUMPDEST JUMPDEST SWAP1 PUSH0 MSTORE PUSH1 0x20 PUSH0 KECCAK256 SWAP1 PUSH1 0x8 MUL ADD PUSH1 0x4 ADD DUP3 DUP2 SLOAD DUP2 LT PUSH2 0x4C0 JUMPI PUSH2 0x4BF PUSH2 0x2B62 JUMP JUMPDEST JUMPDEST SWAP1 PUSH0 MSTORE PUSH1 0x20 PUSH0 KECCAK256 ADD PUSH0 SWAP1 SLOAD SWAP1 PUSH2 0x100 EXP SWAP1 DIV PUSH20 0xFFFFFFFFFFFFFFFFFFFFFFFFFFFFFFFFFFFFFFFF AND PUSH20 0xFFFFFFFFFFFFFFFFFFFFFFFFFFFFFFFFFFFFFFFF AND SUB PUSH2 0x50B JUMPI PUSH0 SWAP2 POP PUSH2 0x518 JUMP JUMPDEST DUP1 DUP1 PUSH1 0x1 ADD SWAP2 POP POP PUSH2 0x3B8 JUMP JUMPDEST POP PUSH1 0x1 ISZERO ISZERO DUP2 ISZERO ISZERO EQ PUSH2 0x560 JUMPI PUSH1 0x40 MLOAD PUSH32 0x8C379A000000000000000000000000000000000000000000000000000000000 DUP2 MSTORE PUSH1 0x4 ADD PUSH2 0x557 SWAP1 PUSH2 0x2BD9 JUMP JUMPDEST PUSH1 0x40 MLOAD DUP1 SWAP2 SUB SWAP1 REVERT JUMPDEST DUP6 DUP6 PUSH0 PUSH1 0x1 SWAP1 POP DUP2 PUSH1 0x4 PUSH0 DUP6 PUSH20 0xFFFFFFFFFFFFFFFFFFFFFFFFFFFFFFFFFFFFFFFF AND PUSH20 0xFFFFFFFFFFFFFFFFFFFFFFFFFFFFFFFFFFFFFFFF AND DUP2 MSTORE PUSH1 0x20 ADD SWAP1 DUP2 MSTORE PUSH1 0x20 ADD PUSH0 KECCAK256 DUP1 SLOAD SWAP1 POP LT ISZERO PUSH2 0x5EA JUMPI PUSH1 0x40 MLOAD PUSH32 0x8C379A000000000000000000000000000000000000000000000000000000000 DUP2 MSTORE PUSH1 0x4 ADD PUSH2 0x5E1 SWAP1 PUSH2 0x2AE4 JUMP JUMPDEST PUSH1 0x40 MLOAD DUP1 SWAP2 SUB SWAP1 REVERT JUMPDEST PUSH0 JUMPDEST PUSH1 0x4 PUSH0 DUP6 PUSH20 0xFFFFFFFFFFFFFFFFFFFFFFFFFFFFFFFFFFFFFFFF AND PUSH20 0xFFFFFFFFFFFFFFFFFFFFFFFFFFFFFFFFFFFFFFFF AND DUP2 MSTORE PUSH1 0x20 ADD SWAP1 DUP2 MSTORE PUSH1 0x20 ADD PUSH0 KECCAK256 PUSH1 0x1 DUP5 PUSH2 0x636 SWAP2 SWAP1 PUSH2 0x2B2F JUMP JUMPDEST DUP2 SLOAD DUP2 LT PUSH2 0x647 JUMPI PUSH2 0x646 PUSH2 0x2B62 JUMP JUMPDEST JUMPDEST SWAP1 PUSH0 MSTORE PUSH1 0x20 PUSH0 KECCAK256 SWAP1 PUSH1 0x8 MUL ADD PUSH1 0x7 ADD DUP1 SLOAD SWAP1 POP DUP2 LT ISZERO PUSH2 0x74C JUMPI CALLER PUSH20 0xFFFFFFFFFFFFFFFFFFFFFFFFFFFFFFFFFFFFFFFF AND PUSH1 0x4 PUSH0 DUP7 PUSH20 0xFFFFFFFFFFFFFFFFFFFFFFFFFFFFFFFFFFFFFFFF AND PUSH20 0xFFFFFFFFFFFFFFFFFFFFFFFFFFFFFFFFFFFFFFFF AND DUP2 MSTORE PUSH1 0x20 ADD SWAP1 DUP2 MSTORE PUSH1 0x20 ADD PUSH0 KECCAK256 PUSH1 0x1 DUP6 PUSH2 0x6C2 SWAP2 SWAP1 PUSH2 0x2B2F JUMP JUMPDEST DUP2 SLOAD DUP2 LT PUSH2 0x6D3 JUMPI PUSH2 0x6D2 PUSH2 0x2B62 JUMP JUMPDEST JUMPDEST SWAP1 PUSH0 MSTORE PUSH1 0x20 PUSH0 KECCAK256 SWAP1 PUSH1 0x8 MUL ADD PUSH1 0x7 ADD DUP3 DUP2 SLOAD DUP2 LT PUSH2 0x6F4 JUMPI PUSH2 0x6F3 PUSH2 0x2B62 JUMP JUMPDEST JUMPDEST SWAP1 PUSH0 MSTORE PUSH1 0x20 PUSH0 KECCAK256 ADD PUSH0 SWAP1 SLOAD SWAP1 PUSH2 0x100 EXP SWAP1 DIV PUSH20 0xFFFFFFFFFFFFFFFFFFFFFFFFFFFFFFFFFFFFFFFF AND PUSH20 0xFFFFFFFFFFFFFFFFFFFFFFFFFFFFFFFFFFFFFFFF AND SUB PUSH2 0x73F JUMPI PUSH0 SWAP2 POP PUSH2 0x74C JUMP JUMPDEST DUP1 DUP1 PUSH1 0x1 ADD SWAP2 POP POP PUSH2 0x5EC JUMP JUMPDEST POP PUSH1 0x1 ISZERO ISZERO DUP2 ISZERO ISZERO EQ PUSH2 0x794 JUMPI PUSH1 0x40 MLOAD PUSH32 0x8C379A000000000000000000000000000000000000000000000000000000000 DUP2 MSTORE PUSH1 0x4 ADD PUSH2 0x78B SWAP1 PUSH2 0x2C41 JUMP JUMPDEST PUSH1 0x40 MLOAD DUP1 SWAP2 SUB SWAP1 REVERT JUMPDEST CALLER PUSH20 0xFFFFFFFFFFFFFFFFFFFFFFFFFFFFFFFFFFFFFFFF AND DUP10 PUSH20 0xFFFFFFFFFFFFFFFFFFFFFFFFFFFFFFFFFFFFFFFF AND SUB PUSH2 0x802 JUMPI PUSH1 0x40 MLOAD PUSH32 0x8C379A000000000000000000000000000000000000000000000000000000000 DUP2 MSTORE PUSH1 0x4 ADD PUSH2 0x7F9 SWAP1 PUSH2 0x2CCF JUMP JUMPDEST PUSH1 0x40 MLOAD DUP1 SWAP2 SUB SWAP1 REVERT JUMPDEST PUSH1 0x4 PUSH0 DUP11 PUSH20 0xFFFFFFFFFFFFFFFFFFFFFFFFFFFFFFFFFFFFFFFF AND PUSH20 0xFFFFFFFFFFFFFFFFFFFFFFFFFFFFFFFFFFFFFFFF AND DUP2 MSTORE PUSH1 0x20 ADD SWAP1 DUP2 MSTORE PUSH1 0x20 ADD PUSH0 KECCAK256 PUSH1 0x1 DUP10 PUSH2 0x84C SWAP2 SWAP1 PUSH2 0x2B2F JUMP JUMPDEST DUP2 SLOAD DUP2 LT PUSH2 0x85D JUMPI PUSH2 0x85C PUSH2 0x2B62 JUMP JUMPDEST JUMPDEST SWAP1 PUSH0 MSTORE PUSH1 0x20 PUSH0 KECCAK256 SWAP1 PUSH1 0x8 MUL ADD PUSH1 0x4 ADD CALLER SWAP1 DUP1 PUSH1 0x1 DUP2 SLOAD ADD DUP1 DUP3 SSTORE DUP1 SWAP2 POP POP PUSH1 0x1 SWAP1 SUB SWAP1 PUSH0 MSTORE PUSH1 0x20 PUSH0 KECCAK256 ADD PUSH0 SWAP1 SWAP2 SWAP1 SWAP2 SWAP1 SWAP2 PUSH2 0x100 EXP DUP2 SLOAD DUP2 PUSH20 0xFFFFFFFFFFFFFFFFFFFFFFFFFFFFFFFFFFFFFFFF MUL NOT AND SWAP1 DUP4 PUSH20 0xFFFFFFFFFFFFFFFFFFFFFFFFFFFFFFFFFFFFFFFF AND MUL OR SWAP1 SSTORE POP PUSH1 0x4 PUSH0 DUP11 PUSH20 0xFFFFFFFFFFFFFFFFFFFFFFFFFFFFFFFFFFFFFFFF AND PUSH20 0xFFFFFFFFFFFFFFFFFFFFFFFFFFFFFFFFFFFFFFFF AND DUP2 MSTORE PUSH1 0x20 ADD SWAP1 DUP2 MSTORE PUSH1 0x20 ADD PUSH0 KECCAK256 PUSH1 0x1 DUP10 PUSH2 0x914 SWAP2 SWAP1 PUSH2 0x2B2F JUMP JUMPDEST DUP2 SLOAD DUP2 LT PUSH2 0x925 JUMPI PUSH2 0x924 PUSH2 0x2B62 JUMP JUMPDEST JUMPDEST SWAP1 PUSH0 MSTORE PUSH1 0x20 PUSH0 KECCAK256 SWAP1 PUSH1 0x8 MUL ADD PUSH1 0x5 ADD PUSH0 DUP2 SLOAD DUP1 SWAP3 SWAP2 SWAP1 PUSH2 0x944 SWAP1 PUSH2 0x2CED JUMP JUMPDEST SWAP2 SWAP1 POP SSTORE POP PUSH32 0xE8A76FC0F16D11A00D1E93B689B63D76CF60AF914DD3D915375DC41D01A0C3C8 CALLER DUP11 PUSH1 0x4 PUSH0 DUP14 PUSH20 0xFFFFFFFFFFFFFFFFFFFFFFFFFFFFFFFFFFFFFFFF AND PUSH20 0xFFFFFFFFFFFFFFFFFFFFFFFFFFFFFFFFFFFFFFFF AND DUP2 MSTORE PUSH1 0x20 ADD SWAP1 DUP2 MSTORE PUSH1 0x20 ADD PUSH0 KECCAK256 PUSH1 0x1 DUP13 PUSH2 0x9B6 SWAP2 SWAP1 PUSH2 0x2B2F JUMP JUMPDEST DUP2 SLOAD DUP2 LT PUSH2 0x9C7 JUMPI PUSH2 0x9C6 PUSH2 0x2B62 JUMP JUMPDEST JUMPDEST SWAP1 PUSH0 MSTORE PUSH1 0x20 PUSH0 KECCAK256 SWAP1 PUSH1 0x8 MUL ADD PUSH1 0x5 ADD SLOAD PUSH1 0x4 PUSH0 DUP15 PUSH20 0xFFFFFFFFFFFFFFFFFFFFFFFFFFFFFFFFFFFFFFFF AND PUSH20 0xFFFFFFFFFFFFFFFFFFFFFFFFFFFFFFFFFFFFFFFF AND DUP2 MSTORE PUSH1 0x20 ADD SWAP1 DUP2 MSTORE PUSH1 0x20 ADD PUSH0 KECCAK256 PUSH1 0x1 DUP14 PUSH2 0xA21 SWAP2 SWAP1 PUSH2 0x2B2F JUMP JUMPDEST DUP2 SLOAD DUP2 LT PUSH2 0xA32 JUMPI PUSH2 0xA31 PUSH2 0x2B62 JUMP JUMPDEST JUMPDEST SWAP1 PUSH0 MSTORE PUSH1 0x20 PUSH0 KECCAK256 SWAP1 PUSH1 0x8 MUL ADD PUSH0 ADD SLOAD PUSH1 0x40 MLOAD PUSH2 0xA51 SWAP5 SWAP4 SWAP3 SWAP2 SWAP1 PUSH2 0x2D34 JUMP JUMPDEST PUSH1 0x40 MLOAD DUP1 SWAP2 SUB SWAP1 LOG1 POP POP POP POP POP POP POP POP POP JUMP JUMPDEST PUSH2 0xA6C PUSH2 0x2031 JUMP JUMPDEST PUSH1 0x4 PUSH0 DUP5 PUSH20 0xFFFFFFFFFFFFFFFFFFFFFFFFFFFFFFFFFFFFFFFF AND PUSH20 0xFFFFFFFFFFFFFFFFFFFFFFFFFFFFFFFFFFFFFFFF AND DUP2 MSTORE PUSH1 0x20 ADD SWAP1 DUP2 MSTORE PUSH1 0x20 ADD PUSH0 KECCAK256 PUSH1 0x1 DUP4 PUSH2 0xAB6 SWAP2 SWAP1 PUSH2 0x2B2F JUMP JUMPDEST DUP2 SLOAD DUP2 LT PUSH2 0xAC7 JUMPI PUSH2 0xAC6 PUSH2 0x2B62 JUMP JUMPDEST JUMPDEST SWAP1 PUSH0 MSTORE PUSH1 0x20 PUSH0 KECCAK256 SWAP1 PUSH1 0x8 MUL ADD PUSH1 0x40 MLOAD DUP1 PUSH2 0x100 ADD PUSH1 0x40 MSTORE SWAP1 DUP2 PUSH0 DUP3 ADD SLOAD DUP2 MSTORE PUSH1 0x20 ADD PUSH1 0x1 DUP3 ADD DUP1 SLOAD PUSH2 0xAF8 SWAP1 PUSH2 0x2DA4 JUMP JUMPDEST DUP1 PUSH1 0x1F ADD PUSH1 0x20 DUP1 SWAP2 DIV MUL PUSH1 0x20 ADD PUSH1 0x40 MLOAD SWAP1 DUP2 ADD PUSH1 0x40 MSTORE DUP1 SWAP3 SWAP2 SWAP1 DUP2 DUP2 MSTORE PUSH1 0x20 ADD DUP3 DUP1 SLOAD PUSH2 0xB24 SWAP1 PUSH2 0x2DA4 JUMP JUMPDEST DUP1 ISZERO PUSH2 0xB6F JUMPI DUP1 PUSH1 0x1F LT PUSH2 0xB46 JUMPI PUSH2 0x100 DUP1 DUP4 SLOAD DIV MUL DUP4 MSTORE SWAP2 PUSH1 0x20 ADD SWAP2 PUSH2 0xB6F JUMP JUMPDEST DUP3 ADD SWAP2 SWAP1 PUSH0 MSTORE PUSH1 0x20 PUSH0 KECCAK256 SWAP1 JUMPDEST DUP2 SLOAD DUP2 MSTORE SWAP1 PUSH1 0x1 ADD SWAP1 PUSH1 0x20 ADD DUP1 DUP4 GT PUSH2 0xB52 JUMPI DUP3 SWAP1 SUB PUSH1 0x1F AND DUP3 ADD SWAP2 JUMPDEST POP POP POP POP POP DUP2 MSTORE PUSH1 0x20 ADD PUSH1 0x2 DUP3 ADD PUSH0 SWAP1 SLOAD SWAP1 PUSH2 0x100 EXP SWAP1 DIV PUSH20 0xFFFFFFFFFFFFFFFFFFFFFFFFFFFFFFFFFFFFFFFF AND PUSH20 0xFFFFFFFFFFFFFFFFFFFFFFFFFFFFFFFFFFFFFFFF AND PUSH20 0xFFFFFFFFFFFFFFFFFFFFFFFFFFFFFFFFFFFFFFFF AND DUP2 MSTORE PUSH1 0x20 ADD PUSH1 0x3 DUP3 ADD SLOAD DUP2 MSTORE PUSH1 0x20 ADD PUSH1 0x4 DUP3 ADD DUP1 SLOAD DUP1 PUSH1 0x20 MUL PUSH1 0x20 ADD PUSH1 0x40 MLOAD SWAP1 DUP2 ADD PUSH1 0x40 MSTORE DUP1 SWAP3 SWAP2 SWAP1 DUP2 DUP2 MSTORE PUSH1 0x20 ADD DUP3 DUP1 SLOAD DUP1 ISZERO PUSH2 0xC59 JUMPI PUSH1 0x20 MUL DUP3 ADD SWAP2 SWAP1 PUSH0 MSTORE PUSH1 0x20 PUSH0 KECCAK256 SWAP1 JUMPDEST DUP2 PUSH0 SWAP1 SLOAD SWAP1 PUSH2 0x100 EXP SWAP1 DIV PUSH20 0xFFFFFFFFFFFFFFFFFFFFFFFFFFFFFFFFFFFFFFFF AND PUSH20 0xFFFFFFFFFFFFFFFFFFFFFFFFFFFFFFFFFFFFFFFF AND DUP2 MSTORE PUSH1 0x20 ADD SWAP1 PUSH1 0x1 ADD SWAP1 DUP1 DUP4 GT PUSH2 0xC10 JUMPI JUMPDEST POP POP POP POP POP DUP2 MSTORE PUSH1 0x20 ADD PUSH1 0x5 DUP3 ADD SLOAD DUP2 MSTORE PUSH1 0x20 ADD PUSH1 0x6 DUP3 ADD SLOAD DUP2 MSTORE PUSH1 0x20 ADD PUSH1 0x7 DUP3 ADD DUP1 SLOAD DUP1 PUSH1 0x20 MUL PUSH1 0x20 ADD PUSH1 0x40 MLOAD SWAP1 DUP2 ADD PUSH1 0x40 MSTORE DUP1 SWAP3 SWAP2 SWAP1 DUP2 DUP2 MSTORE PUSH1 0x20 ADD DUP3 DUP1 SLOAD DUP1 ISZERO PUSH2 0xCF8 JUMPI PUSH1 0x20 MUL DUP3 ADD SWAP2 SWAP1 PUSH0 MSTORE PUSH1 0x20 PUSH0 KECCAK256 SWAP1 JUMPDEST DUP2 PUSH0 SWAP1 SLOAD SWAP1 PUSH2 0x100 EXP SWAP1 DIV PUSH20 0xFFFFFFFFFFFFFFFFFFFFFFFFFFFFFFFFFFFFFFFF AND PUSH20 0xFFFFFFFFFFFFFFFFFFFFFFFFFFFFFFFFFFFFFFFF AND DUP2 MSTORE PUSH1 0x20 ADD SWAP1 PUSH1 0x1 ADD SWAP1 DUP1 DUP4 GT PUSH2 0xCAF JUMPI JUMPDEST POP POP POP POP POP DUP2 MSTORE POP POP SWAP1 POP SWAP3 SWAP2 POP POP JUMP JUMPDEST PUSH1 0x60 PUSH1 0x4 PUSH0 CALLER PUSH20 0xFFFFFFFFFFFFFFFFFFFFFFFFFFFFFFFFFFFFFFFF AND PUSH20 0xFFFFFFFFFFFFFFFFFFFFFFFFFFFFFFFFFFFFFFFF AND DUP2 MSTORE PUSH1 0x20 ADD SWAP1 DUP2 MSTORE PUSH1 0x20 ADD PUSH0 KECCAK256 DUP1 SLOAD DUP1 PUSH1 0x20 MUL PUSH1 0x20 ADD PUSH1 0x40 MLOAD SWAP1 DUP2 ADD PUSH1 0x40 MSTORE DUP1 SWAP3 SWAP2 SWAP1 DUP2 DUP2 MSTORE PUSH1 0x20 ADD PUSH0 SWAP1 JUMPDEST DUP3 DUP3 LT ISZERO PUSH2 0xFBA JUMPI DUP4 DUP3 SWAP1 PUSH0 MSTORE PUSH1 0x20 PUSH0 KECCAK256 SWAP1 PUSH1 0x8 MUL ADD PUSH1 0x40 MLOAD DUP1 PUSH2 0x100 ADD PUSH1 0x40 MSTORE SWAP1 DUP2 PUSH0 DUP3 ADD SLOAD DUP2 MSTORE PUSH1 0x20 ADD PUSH1 0x1 DUP3 ADD DUP1 SLOAD PUSH2 0xDA2 SWAP1 PUSH2 0x2DA4 JUMP JUMPDEST DUP1 PUSH1 0x1F ADD PUSH1 0x20 DUP1 SWAP2 DIV MUL PUSH1 0x20 ADD PUSH1 0x40 MLOAD SWAP1 DUP2 ADD PUSH1 0x40 MSTORE DUP1 SWAP3 SWAP2 SWAP1 DUP2 DUP2 MSTORE PUSH1 0x20 ADD DUP3 DUP1 SLOAD PUSH2 0xDCE SWAP1 PUSH2 0x2DA4 JUMP JUMPDEST DUP1 ISZERO PUSH2 0xE19 JUMPI DUP1 PUSH1 0x1F LT PUSH2 0xDF0 JUMPI PUSH2 0x100 DUP1 DUP4 SLOAD DIV MUL DUP4 MSTORE SWAP2 PUSH1 0x20 ADD SWAP2 PUSH2 0xE19 JUMP JUMPDEST DUP3 ADD SWAP2 SWAP1 PUSH0 MSTORE PUSH1 0x20 PUSH0 KECCAK256 SWAP1 JUMPDEST DUP2 SLOAD DUP2 MSTORE SWAP1 PUSH1 0x1 ADD SWAP1 PUSH1 0x20 ADD DUP1 DUP4 GT PUSH2 0xDFC JUMPI DUP3 SWAP1 SUB PUSH1 0x1F AND DUP3 ADD SWAP2 JUMPDEST POP POP POP POP POP DUP2 MSTORE PUSH1 0x20 ADD PUSH1 0x2 DUP3 ADD PUSH0 SWAP1 SLOAD SWAP1 PUSH2 0x100 EXP SWAP1 DIV PUSH20 0xFFFFFFFFFFFFFFFFFFFFFFFFFFFFFFFFFFFFFFFF AND PUSH20 0xFFFFFFFFFFFFFFFFFFFFFFFFFFFFFFFFFFFFFFFF AND PUSH20 0xFFFFFFFFFFFFFFFFFFFFFFFFFFFFFFFFFFFFFFFF AND DUP2 MSTORE PUSH1 0x20 ADD PUSH1 0x3 DUP3 ADD SLOAD DUP2 MSTORE PUSH1 0x20 ADD PUSH1 0x4 DUP3 ADD DUP1 SLOAD DUP1 PUSH1 0x20 MUL PUSH1 0x20 ADD PUSH1 0x40 MLOAD SWAP1 DUP2 ADD PUSH1 0x40 MSTORE DUP1 SWAP3 SWAP2 SWAP1 DUP2 DUP2 MSTORE PUSH1 0x20 ADD DUP3 DUP1 SLOAD DUP1 ISZERO PUSH2 0xF03 JUMPI PUSH1 0x20 MUL DUP3 ADD SWAP2 SWAP1 PUSH0 MSTORE PUSH1 0x20 PUSH0 KECCAK256 SWAP1 JUMPDEST DUP2 PUSH0 SWAP1 SLOAD SWAP1 PUSH2 0x100 EXP SWAP1 DIV PUSH20 0xFFFFFFFFFFFFFFFFFFFFFFFFFFFFFFFFFFFFFFFF AND PUSH20 0xFFFFFFFFFFFFFFFFFFFFFFFFFFFFFFFFFFFFFFFF AND DUP2 MSTORE PUSH1 0x20 ADD SWAP1 PUSH1 0x1 ADD SWAP1 DUP1 DUP4 GT PUSH2 0xEBA JUMPI JUMPDEST POP POP POP POP POP DUP2 MSTORE PUSH1 0x20 ADD PUSH1 0x5 DUP3 ADD SLOAD DUP2 MSTORE PUSH1 0x20 ADD PUSH1 0x6 DUP3 ADD SLOAD DUP2 MSTORE PUSH1 0x20 ADD PUSH1 0x7 DUP3 ADD DUP1 SLOAD DUP1 PUSH1 0x20 MUL PUSH1 0x20 ADD PUSH1 0x40 MLOAD SWAP1 DUP2 ADD PUSH1 0x40 MSTORE DUP1 SWAP3 SWAP2 SWAP1 DUP2 DUP2 MSTORE PUSH1 0x20 ADD DUP3 DUP1 SLOAD DUP1 ISZERO PUSH2 0xFA2 JUMPI PUSH1 0x20 MUL DUP3 ADD SWAP2 SWAP1 PUSH0 MSTORE PUSH1 0x20 PUSH0 KECCAK256 SWAP1 JUMPDEST DUP2 PUSH0 SWAP1 SLOAD SWAP1 PUSH2 0x100 EXP SWAP1 DIV PUSH20 0xFFFFFFFFFFFFFFFFFFFFFFFFFFFFFFFFFFFFFFFF AND PUSH20 0xFFFFFFFFFFFFFFFFFFFFFFFFFFFFFFFFFFFFFFFF AND DUP2 MSTORE PUSH1 0x20 ADD SWAP1 PUSH1 0x1 ADD SWAP1 DUP1 DUP4 GT PUSH2 0xF59 JUMPI JUMPDEST POP POP POP POP POP DUP2 MSTORE POP POP DUP2 MSTORE PUSH1 0x20 ADD SWAP1 PUSH1 0x1 ADD SWAP1 PUSH2 0xD67 JUMP JUMPDEST POP POP POP POP SWAP1 POP SWAP1 JUMP JUMPDEST PUSH2 0xFCB PUSH2 0x1EE2 JUMP JUMPDEST PUSH2 0xFD4 PUSH0 PUSH2 0x1F69 JUMP JUMPDEST JUMP JUMPDEST PUSH1 0x4 PUSH0 CALLER PUSH20 0xFFFFFFFFFFFFFFFFFFFFFFFFFFFFFFFFFFFFFFFF AND PUSH20 0xFFFFFFFFFFFFFFFFFFFFFFFFFFFFFFFFFFFFFFFF AND DUP2 MSTORE PUSH1 0x20 ADD SWAP1 DUP2 MSTORE PUSH1 0x20 ADD PUSH0 KECCAK256 DUP1 SLOAD DUP1 PUSH2 0x1023 JUMPI PUSH2 0x1022 PUSH2 0x2DD4 JUMP JUMPDEST JUMPDEST PUSH1 0x1 SWAP1 SUB DUP2 DUP2 SWAP1 PUSH0 MSTORE PUSH1 0x20 PUSH0 KECCAK256 SWAP1 PUSH1 0x8 MUL ADD PUSH0 DUP1 DUP3 ADD PUSH0 SWAP1 SSTORE PUSH1 0x1 DUP3 ADD PUSH0 PUSH2 0x104B SWAP2 SWAP1 PUSH2 0x2087 JUMP JUMPDEST PUSH1 0x2 DUP3 ADD PUSH0 PUSH2 0x100 EXP DUP2 SLOAD SWAP1 PUSH20 0xFFFFFFFFFFFFFFFFFFFFFFFFFFFFFFFFFFFFFFFF MUL NOT AND SWAP1 SSTORE PUSH1 0x3 DUP3 ADD PUSH0 SWAP1 SSTORE PUSH1 0x4 DUP3 ADD PUSH0 PUSH2 0x1087 SWAP2 SWAP1 PUSH2 0x20C4 JUMP JUMPDEST PUSH1 0x5 DUP3 ADD PUSH0 SWAP1 SSTORE PUSH1 0x6 DUP3 ADD PUSH0 SWAP1 SSTORE PUSH1 0x7 DUP3 ADD PUSH0 PUSH2 0x10A4 SWAP2 SWAP1 PUSH2 0x20C4 JUMP JUMPDEST POP POP SWAP1 SSTORE JUMP JUMPDEST PUSH1 0x4 PUSH0 CALLER PUSH20 0xFFFFFFFFFFFFFFFFFFFFFFFFFFFFFFFFFFFFFFFF AND PUSH20 0xFFFFFFFFFFFFFFFFFFFFFFFFFFFFFFFFFFFFFFFF AND DUP2 MSTORE PUSH1 0x20 ADD SWAP1 DUP2 MSTORE PUSH1 0x20 ADD PUSH0 KECCAK256 PUSH0 PUSH2 0x10F2 SWAP2 SWAP1 PUSH2 0x20E2 JUMP JUMPDEST JUMP JUMPDEST PUSH0 PUSH1 0x1 PUSH0 SWAP1 SLOAD SWAP1 PUSH2 0x100 EXP SWAP1 DIV PUSH20 0xFFFFFFFFFFFFFFFFFFFFFFFFFFFFFFFFFFFFFFFF AND PUSH20 0xFFFFFFFFFFFFFFFFFFFFFFFFFFFFFFFFFFFFFFFF AND PUSH4 0xF53A470 CALLER PUSH1 0x40 MLOAD DUP3 PUSH4 0xFFFFFFFF AND PUSH1 0xE0 SHL DUP2 MSTORE PUSH1 0x4 ADD PUSH2 0x114F SWAP2 SWAP1 PUSH2 0x289C JUMP JUMPDEST PUSH0 PUSH1 0x40 MLOAD DUP1 DUP4 SUB DUP2 DUP7 GAS STATICCALL ISZERO DUP1 ISZERO PUSH2 0x1169 JUMPI RETURNDATASIZE PUSH0 DUP1 RETURNDATACOPY RETURNDATASIZE PUSH0 REVERT JUMPDEST POP POP POP POP PUSH1 0x40 MLOAD RETURNDATASIZE PUSH0 DUP3 RETURNDATACOPY RETURNDATASIZE PUSH1 0x1F NOT PUSH1 0x1F DUP3 ADD AND DUP3 ADD DUP1 PUSH1 0x40 MSTORE POP DUP2 ADD SWAP1 PUSH2 0x1191 SWAP2 SWAP1 PUSH2 0x29DB JUMP JUMPDEST SWAP1 POP PUSH0 DUP2 PUSH0 ADD MLOAD MLOAD GT PUSH2 0x11D9 JUMPI PUSH1 0x40 MLOAD PUSH32 0x8C379A000000000000000000000000000000000000000000000000000000000 DUP2 MSTORE PUSH1 0x4 ADD PUSH2 0x11D0 SWAP1 PUSH2 0x2A7C JUMP JUMPDEST PUSH1 0x40 MLOAD DUP1 SWAP2 SUB SWAP1 REVERT JUMPDEST PUSH1 0x2 SLOAD DUP3 MLOAD GT ISZERO PUSH2 0x121F JUMPI PUSH1 0x40 MLOAD PUSH32 0x8C379A000000000000000000000000000000000000000000000000000000000 DUP2 MSTORE PUSH1 0x4 ADD PUSH2 0x1216 SWAP1 PUSH2 0x2E4B JUMP JUMPDEST PUSH1 0x40 MLOAD DUP1 SWAP2 SUB SWAP1 REVERT JUMPDEST PUSH0 PUSH1 0x40 MLOAD DUP1 PUSH2 0x100 ADD PUSH1 0x40 MSTORE DUP1 PUSH1 0x1 PUSH1 0x4 PUSH0 CALLER PUSH20 0xFFFFFFFFFFFFFFFFFFFFFFFFFFFFFFFFFFFFFFFF AND PUSH20 0xFFFFFFFFFFFFFFFFFFFFFFFFFFFFFFFFFFFFFFFF AND DUP2 MSTORE PUSH1 0x20 ADD SWAP1 DUP2 MSTORE PUSH1 0x20 ADD PUSH0 KECCAK256 DUP1 SLOAD SWAP1 POP PUSH2 0x1279 SWAP2 SWAP1 PUSH2 0x2E69 JUMP JUMPDEST DUP2 MSTORE PUSH1 0x20 ADD DUP5 DUP2 MSTORE PUSH1 0x20 ADD CALLER PUSH20 0xFFFFFFFFFFFFFFFFFFFFFFFFFFFFFFFFFFFFFFFF AND DUP2 MSTORE PUSH1 0x20 ADD TIMESTAMP DUP2 MSTORE PUSH1 0x20 ADD PUSH1 0x3 DUP1 SLOAD DUP1 PUSH1 0x20 MUL PUSH1 0x20 ADD PUSH1 0x40 MLOAD SWAP1 DUP2 ADD PUSH1 0x40 MSTORE DUP1 SWAP3 SWAP2 SWAP1 DUP2 DUP2 MSTORE PUSH1 0x20 ADD DUP3 DUP1 SLOAD DUP1 ISZERO PUSH2 0x1325 JUMPI PUSH1 0x20 MUL DUP3 ADD SWAP2 SWAP1 PUSH0 MSTORE PUSH1 0x20 PUSH0 KECCAK256 SWAP1 JUMPDEST DUP2 PUSH0 SWAP1 SLOAD SWAP1 PUSH2 0x100 EXP SWAP1 DIV PUSH20 0xFFFFFFFFFFFFFFFFFFFFFFFFFFFFFFFFFFFFFFFF AND PUSH20 0xFFFFFFFFFFFFFFFFFFFFFFFFFFFFFFFFFFFFFFFF AND DUP2 MSTORE PUSH1 0x20 ADD SWAP1 PUSH1 0x1 ADD SWAP1 DUP1 DUP4 GT PUSH2 0x12DC JUMPI JUMPDEST POP POP POP POP POP DUP2 MSTORE PUSH1 0x20 ADD PUSH0 DUP2 MSTORE PUSH1 0x20 ADD PUSH0 DUP2 MSTORE PUSH1 0x20 ADD PUSH1 0x3 DUP1 SLOAD DUP1 PUSH1 0x20 MUL PUSH1 0x20 ADD PUSH1 0x40 MLOAD SWAP1 DUP2 ADD PUSH1 0x40 MSTORE DUP1 SWAP3 SWAP2 SWAP1 DUP2 DUP2 MSTORE PUSH1 0x20 ADD DUP3 DUP1 SLOAD DUP1 ISZERO PUSH2 0x13BA JUMPI PUSH1 0x20 MUL DUP3 ADD SWAP2 SWAP1 PUSH0 MSTORE PUSH1 0x20 PUSH0 KECCAK256 SWAP1 JUMPDEST DUP2 PUSH0 SWAP1 SLOAD SWAP1 PUSH2 0x100 EXP SWAP1 DIV PUSH20 0xFFFFFFFFFFFFFFFFFFFFFFFFFFFFFFFFFFFFFFFF AND PUSH20 0xFFFFFFFFFFFFFFFFFFFFFFFFFFFFFFFFFFFFFFFF AND DUP2 MSTORE PUSH1 0x20 ADD SWAP1 PUSH1 0x1 ADD SWAP1 DUP1 DUP4 GT PUSH2 0x1371 JUMPI JUMPDEST POP POP POP POP POP DUP2 MSTORE POP SWAP1 POP PUSH1 0x4 PUSH0 CALLER PUSH20 0xFFFFFFFFFFFFFFFFFFFFFFFFFFFFFFFFFFFFFFFF AND PUSH20 0xFFFFFFFFFFFFFFFFFFFFFFFFFFFFFFFFFFFFFFFF AND DUP2 MSTORE PUSH1 0x20 ADD SWAP1 DUP2 MSTORE PUSH1 0x20 ADD PUSH0 KECCAK256 DUP2 SWAP1 DUP1 PUSH1 0x1 DUP2 SLOAD ADD DUP1 DUP3 SSTORE DUP1 SWAP2 POP POP PUSH1 0x1 SWAP1 SUB SWAP1 PUSH0 MSTORE PUSH1 0x20 PUSH0 KECCAK256 SWAP1 PUSH1 0x8 MUL ADD PUSH0 SWAP1 SWAP2 SWAP1 SWAP2 SWAP1 SWAP2 POP PUSH0 DUP3 ADD MLOAD DUP2 PUSH0 ADD SSTORE PUSH1 0x20 DUP3 ADD MLOAD DUP2 PUSH1 0x1 ADD SWAP1 DUP2 PUSH2 0x1445 SWAP2 SWAP1 PUSH2 0x3039 JUMP JUMPDEST POP PUSH1 0x40 DUP3 ADD MLOAD DUP2 PUSH1 0x2 ADD PUSH0 PUSH2 0x100 EXP DUP2 SLOAD DUP2 PUSH20 0xFFFFFFFFFFFFFFFFFFFFFFFFFFFFFFFFFFFFFFFF MUL NOT AND SWAP1 DUP4 PUSH20 0xFFFFFFFFFFFFFFFFFFFFFFFFFFFFFFFFFFFFFFFF AND MUL OR SWAP1 SSTORE POP PUSH1 0x60 DUP3 ADD MLOAD DUP2 PUSH1 0x3 ADD SSTORE PUSH1 0x80 DUP3 ADD MLOAD DUP2 PUSH1 0x4 ADD SWAP1 DUP1 MLOAD SWAP1 PUSH1 0x20 ADD SWAP1 PUSH2 0x14B2 SWAP3 SWAP2 SWAP1 PUSH2 0x2103 JUMP JUMPDEST POP PUSH1 0xA0 DUP3 ADD MLOAD DUP2 PUSH1 0x5 ADD SSTORE PUSH1 0xC0 DUP3 ADD MLOAD DUP2 PUSH1 0x6 ADD SSTORE PUSH1 0xE0 DUP3 ADD MLOAD DUP2 PUSH1 0x7 ADD SWAP1 DUP1 MLOAD SWAP1 PUSH1 0x20 ADD SWAP1 PUSH2 0x14E3 SWAP3 SWAP2 SWAP1 PUSH2 0x2103 JUMP JUMPDEST POP POP POP PUSH32 0x16FD3C13E9D46923E0A8BCE11C7B473EC508A72E6C96CD2404B29CE972AFC29E PUSH1 0x1 PUSH1 0x4 PUSH0 CALLER PUSH20 0xFFFFFFFFFFFFFFFFFFFFFFFFFFFFFFFFFFFFFFFF AND PUSH20 0xFFFFFFFFFFFFFFFFFFFFFFFFFFFFFFFFFFFFFFFF AND DUP2 MSTORE PUSH1 0x20 ADD SWAP1 DUP2 MSTORE PUSH1 0x20 ADD PUSH0 KECCAK256 DUP1 SLOAD SWAP1 POP PUSH2 0x1554 SWAP2 SWAP1 PUSH2 0x2E69 JUMP JUMPDEST CALLER DUP6 TIMESTAMP PUSH1 0x40 MLOAD PUSH2 0x1567 SWAP5 SWAP4 SWAP3 SWAP2 SWAP1 PUSH2 0x3140 JUMP JUMPDEST PUSH1 0x40 MLOAD DUP1 SWAP2 SUB SWAP1 LOG1 POP POP POP JUMP JUMPDEST PUSH0 DUP1 PUSH0 SWAP1 POP PUSH0 JUMPDEST PUSH1 0x4 PUSH0 DUP6 PUSH20 0xFFFFFFFFFFFFFFFFFFFFFFFFFFFFFFFFFFFFFFFF AND PUSH20 0xFFFFFFFFFFFFFFFFFFFFFFFFFFFFFFFFFFFFFFFF AND DUP2 MSTORE PUSH1 0x20 ADD SWAP1 DUP2 MSTORE PUSH1 0x20 ADD PUSH0 KECCAK256 DUP1 SLOAD SWAP1 POP DUP2 LT ISZERO PUSH2 0x163C JUMPI PUSH1 0x4 PUSH0 DUP6 PUSH20 0xFFFFFFFFFFFFFFFFFFFFFFFFFFFFFFFFFFFFFFFF AND PUSH20 0xFFFFFFFFFFFFFFFFFFFFFFFFFFFFFFFFFFFFFFFF AND DUP2 MSTORE PUSH1 0x20 ADD SWAP1 DUP2 MSTORE PUSH1 0x20 ADD PUSH0 KECCAK256 DUP2 DUP2 SLOAD DUP2 LT PUSH2 0x1612 JUMPI PUSH2 0x1611 PUSH2 0x2B62 JUMP JUMPDEST JUMPDEST SWAP1 PUSH0 MSTORE PUSH1 0x20 PUSH0 KECCAK256 SWAP1 PUSH1 0x8 MUL ADD PUSH1 0x5 ADD SLOAD DUP3 PUSH2 0x162D SWAP2 SWAP1 PUSH2 0x2E69 JUMP JUMPDEST SWAP2 POP DUP1 DUP1 PUSH1 0x1 ADD SWAP2 POP POP PUSH2 0x157B JUMP JUMPDEST POP DUP1 SWAP2 POP POP SWAP2 SWAP1 POP JUMP JUMPDEST PUSH0 DUP1 PUSH0 SWAP1 SLOAD SWAP1 PUSH2 0x100 EXP SWAP1 DIV PUSH20 0xFFFFFFFFFFFFFFFFFFFFFFFFFFFFFFFFFFFFFFFF AND SWAP1 POP SWAP1 JUMP JUMPDEST PUSH0 PUSH1 0x1 PUSH0 SWAP1 SLOAD SWAP1 PUSH2 0x100 EXP SWAP1 DIV PUSH20 0xFFFFFFFFFFFFFFFFFFFFFFFFFFFFFFFFFFFFFFFF AND PUSH20 0xFFFFFFFFFFFFFFFFFFFFFFFFFFFFFFFFFFFFFFFF AND PUSH4 0xF53A470 CALLER PUSH1 0x40 MLOAD DUP3 PUSH4 0xFFFFFFFF AND PUSH1 0xE0 SHL DUP2 MSTORE PUSH1 0x4 ADD PUSH2 0x16C8 SWAP2 SWAP1 PUSH2 0x289C JUMP JUMPDEST PUSH0 PUSH1 0x40 MLOAD DUP1 DUP4 SUB DUP2 DUP7 GAS STATICCALL ISZERO DUP1 ISZERO PUSH2 0x16E2 JUMPI RETURNDATASIZE PUSH0 DUP1 RETURNDATACOPY RETURNDATASIZE PUSH0 REVERT JUMPDEST POP POP POP POP PUSH1 0x40 MLOAD RETURNDATASIZE PUSH0 DUP3 RETURNDATACOPY RETURNDATASIZE PUSH1 0x1F NOT PUSH1 0x1F DUP3 ADD AND DUP3 ADD DUP1 PUSH1 0x40 MSTORE POP DUP2 ADD SWAP1 PUSH2 0x170A SWAP2 SWAP1 PUSH2 0x29DB JUMP JUMPDEST SWAP1 POP PUSH0 DUP2 PUSH0 ADD MLOAD MLOAD GT PUSH2 0x1752 JUMPI PUSH1 0x40 MLOAD PUSH32 0x8C379A000000000000000000000000000000000000000000000000000000000 DUP2 MSTORE PUSH1 0x4 ADD PUSH2 0x1749 SWAP1 PUSH2 0x2A7C JUMP JUMPDEST PUSH1 0x40 MLOAD DUP1 SWAP2 SUB SWAP1 REVERT JUMPDEST DUP3 DUP3 PUSH0 PUSH1 0x1 SWAP1 POP DUP2 PUSH1 0x4 PUSH0 DUP6 PUSH20 0xFFFFFFFFFFFFFFFFFFFFFFFFFFFFFFFFFFFFFFFF AND PUSH20 0xFFFFFFFFFFFFFFFFFFFFFFFFFFFFFFFFFFFFFFFF AND DUP2 MSTORE PUSH1 0x20 ADD SWAP1 DUP2 MSTORE PUSH1 0x20 ADD PUSH0 KECCAK256 DUP1 SLOAD SWAP1 POP LT ISZERO PUSH2 0x17DC JUMPI PUSH1 0x40 MLOAD PUSH32 0x8C379A000000000000000000000000000000000000000000000000000000000 DUP2 MSTORE PUSH1 0x4 ADD PUSH2 0x17D3 SWAP1 PUSH2 0x2AE4 JUMP JUMPDEST PUSH1 0x40 MLOAD DUP1 SWAP2 SUB SWAP1 REVERT JUMPDEST PUSH0 JUMPDEST PUSH1 0x4 PUSH0 DUP6 PUSH20 0xFFFFFFFFFFFFFFFFFFFFFFFFFFFFFFFFFFFFFFFF AND PUSH20 0xFFFFFFFFFFFFFFFFFFFFFFFFFFFFFFFFFFFFFFFF AND DUP2 MSTORE PUSH1 0x20 ADD SWAP1 DUP2 MSTORE PUSH1 0x20 ADD PUSH0 KECCAK256 PUSH1 0x1 DUP5 PUSH2 0x1828 SWAP2 SWAP1 PUSH2 0x2B2F JUMP JUMPDEST DUP2 SLOAD DUP2 LT PUSH2 0x1839 JUMPI PUSH2 0x1838 PUSH2 0x2B62 JUMP JUMPDEST JUMPDEST SWAP1 PUSH0 MSTORE PUSH1 0x20 PUSH0 KECCAK256 SWAP1 PUSH1 0x8 MUL ADD PUSH1 0x4 ADD DUP1 SLOAD SWAP1 POP DUP2 LT ISZERO PUSH2 0x193E JUMPI CALLER PUSH20 0xFFFFFFFFFFFFFFFFFFFFFFFFFFFFFFFFFFFFFFFF AND PUSH1 0x4 PUSH0 DUP7 PUSH20 0xFFFFFFFFFFFFFFFFFFFFFFFFFFFFFFFFFFFFFFFF AND PUSH20 0xFFFFFFFFFFFFFFFFFFFFFFFFFFFFFFFFFFFFFFFF AND DUP2 MSTORE PUSH1 0x20 ADD SWAP1 DUP2 MSTORE PUSH1 0x20 ADD PUSH0 KECCAK256 PUSH1 0x1 DUP6 PUSH2 0x18B4 SWAP2 SWAP1 PUSH2 0x2B2F JUMP JUMPDEST DUP2 SLOAD DUP2 LT PUSH2 0x18C5 JUMPI PUSH2 0x18C4 PUSH2 0x2B62 JUMP JUMPDEST JUMPDEST SWAP1 PUSH0 MSTORE PUSH1 0x20 PUSH0 KECCAK256 SWAP1 PUSH1 0x8 MUL ADD PUSH1 0x4 ADD DUP3 DUP2 SLOAD DUP2 LT PUSH2 0x18E6 JUMPI PUSH2 0x18E5 PUSH2 0x2B62 JUMP JUMPDEST JUMPDEST SWAP1 PUSH0 MSTORE PUSH1 0x20 PUSH0 KECCAK256 ADD PUSH0 SWAP1 SLOAD SWAP1 PUSH2 0x100 EXP SWAP1 DIV PUSH20 0xFFFFFFFFFFFFFFFFFFFFFFFFFFFFFFFFFFFFFFFF AND PUSH20 0xFFFFFFFFFFFFFFFFFFFFFFFFFFFFFFFFFFFFFFFF AND SUB PUSH2 0x1931 JUMPI PUSH0 SWAP2 POP PUSH2 0x193E JUMP JUMPDEST DUP1 DUP1 PUSH1 0x1 ADD SWAP2 POP POP PUSH2 0x17DE JUMP JUMPDEST POP PUSH1 0x1 ISZERO ISZERO DUP2 ISZERO ISZERO EQ PUSH2 0x1986 JUMPI PUSH1 0x40 MLOAD PUSH32 0x8C379A000000000000000000000000000000000000000000000000000000000 DUP2 MSTORE PUSH1 0x4 ADD PUSH2 0x197D SWAP1 PUSH2 0x2BD9 JUMP JUMPDEST PUSH1 0x40 MLOAD DUP1 SWAP2 SUB SWAP1 REVERT JUMPDEST DUP6 DUP6 PUSH0 PUSH1 0x1 SWAP1 POP DUP2 PUSH1 0x4 PUSH0 DUP6 PUSH20 0xFFFFFFFFFFFFFFFFFFFFFFFFFFFFFFFFFFFFFFFF AND PUSH20 0xFFFFFFFFFFFFFFFFFFFFFFFFFFFFFFFFFFFFFFFF AND DUP2 MSTORE PUSH1 0x20 ADD SWAP1 DUP2 MSTORE PUSH1 0x20 ADD PUSH0 KECCAK256 DUP1 SLOAD SWAP1 POP LT ISZERO PUSH2 0x1A10 JUMPI PUSH1 0x40 MLOAD PUSH32 0x8C379A000000000000000000000000000000000000000000000000000000000 DUP2 MSTORE PUSH1 0x4 ADD PUSH2 0x1A07 SWAP1 PUSH2 0x2AE4 JUMP JUMPDEST PUSH1 0x40 MLOAD DUP1 SWAP2 SUB SWAP1 REVERT JUMPDEST PUSH0 JUMPDEST PUSH1 0x4 PUSH0 DUP6 PUSH20 0xFFFFFFFFFFFFFFFFFFFFFFFFFFFFFFFFFFFFFFFF AND PUSH20 0xFFFFFFFFFFFFFFFFFFFFFFFFFFFFFFFFFFFFFFFF AND DUP2 MSTORE PUSH1 0x20 ADD SWAP1 DUP2 MSTORE PUSH1 0x20 ADD PUSH0 KECCAK256 PUSH1 0x1 DUP5 PUSH2 0x1A5C SWAP2 SWAP1 PUSH2 0x2B2F JUMP JUMPDEST DUP2 SLOAD DUP2 LT PUSH2 0x1A6D JUMPI PUSH2 0x1A6C PUSH2 0x2B62 JUMP JUMPDEST JUMPDEST SWAP1 PUSH0 MSTORE PUSH1 0x20 PUSH0 KECCAK256 SWAP1 PUSH1 0x8 MUL ADD PUSH1 0x7 ADD DUP1 SLOAD SWAP1 POP DUP2 LT ISZERO PUSH2 0x1B72 JUMPI CALLER PUSH20 0xFFFFFFFFFFFFFFFFFFFFFFFFFFFFFFFFFFFFFFFF AND PUSH1 0x4 PUSH0 DUP7 PUSH20 0xFFFFFFFFFFFFFFFFFFFFFFFFFFFFFFFFFFFFFFFF AND PUSH20 0xFFFFFFFFFFFFFFFFFFFFFFFFFFFFFFFFFFFFFFFF AND DUP2 MSTORE PUSH1 0x20 ADD SWAP1 DUP2 MSTORE PUSH1 0x20 ADD PUSH0 KECCAK256 PUSH1 0x1 DUP6 PUSH2 0x1AE8 SWAP2 SWAP1 PUSH2 0x2B2F JUMP JUMPDEST DUP2 SLOAD DUP2 LT PUSH2 0x1AF9 JUMPI PUSH2 0x1AF8 PUSH2 0x2B62 JUMP JUMPDEST JUMPDEST SWAP1 PUSH0 MSTORE PUSH1 0x20 PUSH0 KECCAK256 SWAP1 PUSH1 0x8 MUL ADD PUSH1 0x7 ADD DUP3 DUP2 SLOAD DUP2 LT PUSH2 0x1B1A JUMPI PUSH2 0x1B19 PUSH2 0x2B62 JUMP JUMPDEST JUMPDEST SWAP1 PUSH0 MSTORE PUSH1 0x20 PUSH0 KECCAK256 ADD PUSH0 SWAP1 SLOAD SWAP1 PUSH2 0x100 EXP SWAP1 DIV PUSH20 0xFFFFFFFFFFFFFFFFFFFFFFFFFFFFFFFFFFFFFFFF AND PUSH20 0xFFFFFFFFFFFFFFFFFFFFFFFFFFFFFFFFFFFFFFFF AND SUB PUSH2 0x1B65 JUMPI PUSH0 SWAP2 POP PUSH2 0x1B72 JUMP JUMPDEST DUP1 DUP1 PUSH1 0x1 ADD SWAP2 POP POP PUSH2 0x1A12 JUMP JUMPDEST POP PUSH1 0x1 ISZERO ISZERO DUP2 ISZERO ISZERO EQ PUSH2 0x1BBA JUMPI PUSH1 0x40 MLOAD PUSH32 0x8C379A000000000000000000000000000000000000000000000000000000000 DUP2 MSTORE PUSH1 0x4 ADD PUSH2 0x1BB1 SWAP1 PUSH2 0x2C41 JUMP JUMPDEST PUSH1 0x40 MLOAD DUP1 SWAP2 SUB SWAP1 REVERT JUMPDEST CALLER PUSH20 0xFFFFFFFFFFFFFFFFFFFFFFFFFFFFFFFFFFFFFFFF AND DUP10 PUSH20 0xFFFFFFFFFFFFFFFFFFFFFFFFFFFFFFFFFFFFFFFF AND SUB PUSH2 0x1C28 JUMPI PUSH1 0x40 MLOAD PUSH32 0x8C379A000000000000000000000000000000000000000000000000000000000 DUP2 MSTORE PUSH1 0x4 ADD PUSH2 0x1C1F SWAP1 PUSH2 0x2CCF JUMP JUMPDEST PUSH1 0x40 MLOAD DUP1 SWAP2 SUB SWAP1 REVERT JUMPDEST PUSH1 0x4 PUSH0 DUP11 PUSH20 0xFFFFFFFFFFFFFFFFFFFFFFFFFFFFFFFFFFFFFFFF AND PUSH20 0xFFFFFFFFFFFFFFFFFFFFFFFFFFFFFFFFFFFFFFFF AND DUP2 MSTORE PUSH1 0x20 ADD SWAP1 DUP2 MSTORE PUSH1 0x20 ADD PUSH0 KECCAK256 PUSH1 0x1 DUP10 PUSH2 0x1C72 SWAP2 SWAP1 PUSH2 0x2B2F JUMP JUMPDEST DUP2 SLOAD DUP2 LT PUSH2 0x1C83 JUMPI PUSH2 0x1C82 PUSH2 0x2B62 JUMP JUMPDEST JUMPDEST SWAP1 PUSH0 MSTORE PUSH1 0x20 PUSH0 KECCAK256 SWAP1 PUSH1 0x8 MUL ADD PUSH1 0x7 ADD CALLER SWAP1 DUP1 PUSH1 0x1 DUP2 SLOAD ADD DUP1 DUP3 SSTORE DUP1 SWAP2 POP POP PUSH1 0x1 SWAP1 SUB SWAP1 PUSH0 MSTORE PUSH1 0x20 PUSH0 KECCAK256 ADD PUSH0 SWAP1 SWAP2 SWAP1 SWAP2 SWAP1 SWAP2 PUSH2 0x100 EXP DUP2 SLOAD DUP2 PUSH20 0xFFFFFFFFFFFFFFFFFFFFFFFFFFFFFFFFFFFFFFFF MUL NOT AND SWAP1 DUP4 PUSH20 0xFFFFFFFFFFFFFFFFFFFFFFFFFFFFFFFFFFFFFFFF AND MUL OR SWAP1 SSTORE POP PUSH1 0x4 PUSH0 DUP11 PUSH20 0xFFFFFFFFFFFFFFFFFFFFFFFFFFFFFFFFFFFFFFFF AND PUSH20 0xFFFFFFFFFFFFFFFFFFFFFFFFFFFFFFFFFFFFFFFF AND DUP2 MSTORE PUSH1 0x20 ADD SWAP1 DUP2 MSTORE PUSH1 0x20 ADD PUSH0 KECCAK256 PUSH1 0x1 DUP10 PUSH2 0x1D3A SWAP2 SWAP1 PUSH2 0x2B2F JUMP JUMPDEST DUP2 SLOAD DUP2 LT PUSH2 0x1D4B JUMPI PUSH2 0x1D4A PUSH2 0x2B62 JUMP JUMPDEST JUMPDEST SWAP1 PUSH0 MSTORE PUSH1 0x20 PUSH0 KECCAK256 SWAP1 PUSH1 0x8 MUL ADD PUSH1 0x6 ADD PUSH0 DUP2 SLOAD DUP1 SWAP3 SWAP2 SWAP1 PUSH2 0x1D6A SWAP1 PUSH2 0x2CED JUMP JUMPDEST SWAP2 SWAP1 POP SSTORE POP POP POP POP POP POP POP POP POP POP JUMP JUMPDEST PUSH0 DUP1 PUSH0 SWAP1 POP PUSH0 JUMPDEST PUSH1 0x4 PUSH0 DUP6 PUSH20 0xFFFFFFFFFFFFFFFFFFFFFFFFFFFFFFFFFFFFFFFF AND PUSH20 0xFFFFFFFFFFFFFFFFFFFFFFFFFFFFFFFFFFFFFFFF AND DUP2 MSTORE PUSH1 0x20 ADD SWAP1 DUP2 MSTORE PUSH1 0x20 ADD PUSH0 KECCAK256 DUP1 SLOAD SWAP1 POP DUP2 LT ISZERO PUSH2 0x1E42 JUMPI PUSH1 0x4 PUSH0 DUP6 PUSH20 0xFFFFFFFFFFFFFFFFFFFFFFFFFFFFFFFFFFFFFFFF AND PUSH20 0xFFFFFFFFFFFFFFFFFFFFFFFFFFFFFFFFFFFFFFFF AND DUP2 MSTORE PUSH1 0x20 ADD SWAP1 DUP2 MSTORE PUSH1 0x20 ADD PUSH0 KECCAK256 DUP2 DUP2 SLOAD DUP2 LT PUSH2 0x1E18 JUMPI PUSH2 0x1E17 PUSH2 0x2B62 JUMP JUMPDEST JUMPDEST SWAP1 PUSH0 MSTORE PUSH1 0x20 PUSH0 KECCAK256 SWAP1 PUSH1 0x8 MUL ADD PUSH1 0x6 ADD SLOAD DUP3 PUSH2 0x1E33 SWAP2 SWAP1 PUSH2 0x2E69 JUMP JUMPDEST SWAP2 POP DUP1 DUP1 PUSH1 0x1 ADD SWAP2 POP POP PUSH2 0x1D81 JUMP JUMPDEST POP DUP1 SWAP2 POP POP SWAP2 SWAP1 POP JUMP JUMPDEST PUSH2 0x1E54 PUSH2 0x1EE2 JUMP JUMPDEST DUP1 PUSH1 0x2 DUP2 SWAP1 SSTORE POP POP JUMP JUMPDEST PUSH2 0x1E66 PUSH2 0x1EE2 JUMP JUMPDEST PUSH0 PUSH20 0xFFFFFFFFFFFFFFFFFFFFFFFFFFFFFFFFFFFFFFFF AND DUP2 PUSH20 0xFFFFFFFFFFFFFFFFFFFFFFFFFFFFFFFFFFFFFFFF AND SUB PUSH2 0x1ED6 JUMPI PUSH0 PUSH1 0x40 MLOAD PUSH32 0x1E4FBDF700000000000000000000000000000000000000000000000000000000 DUP2 MSTORE PUSH1 0x4 ADD PUSH2 0x1ECD SWAP2 SWAP1 PUSH2 0x289C JUMP JUMPDEST PUSH1 0x40 MLOAD DUP1 SWAP2 SUB SWAP1 REVERT JUMPDEST PUSH2 0x1EDF DUP2 PUSH2 0x1F69 JUMP JUMPDEST POP JUMP JUMPDEST PUSH2 0x1EEA PUSH2 0x202A JUMP JUMPDEST PUSH20 0xFFFFFFFFFFFFFFFFFFFFFFFFFFFFFFFFFFFFFFFF AND PUSH2 0x1F08 PUSH2 0x1646 JUMP JUMPDEST PUSH20 0xFFFFFFFFFFFFFFFFFFFFFFFFFFFFFFFFFFFFFFFF AND EQ PUSH2 0x1F67 JUMPI PUSH2 0x1F2B PUSH2 0x202A JUMP JUMPDEST PUSH1 0x40 MLOAD PUSH32 0x118CDAA700000000000000000000000000000000000000000000000000000000 DUP2 MSTORE PUSH1 0x4 ADD PUSH2 0x1F5E SWAP2 SWAP1 PUSH2 0x289C JUMP JUMPDEST PUSH1 0x40 MLOAD DUP1 SWAP2 SUB SWAP1 REVERT JUMPDEST JUMP JUMPDEST PUSH0 DUP1 PUSH0 SWAP1 SLOAD SWAP1 PUSH2 0x100 EXP SWAP1 DIV PUSH20 0xFFFFFFFFFFFFFFFFFFFFFFFFFFFFFFFFFFFFFFFF AND SWAP1 POP DUP2 PUSH0 DUP1 PUSH2 0x100 EXP DUP2 SLOAD DUP2 PUSH20 0xFFFFFFFFFFFFFFFFFFFFFFFFFFFFFFFFFFFFFFFF MUL NOT AND SWAP1 DUP4 PUSH20 0xFFFFFFFFFFFFFFFFFFFFFFFFFFFFFFFFFFFFFFFF AND MUL OR SWAP1 SSTORE POP DUP2 PUSH20 0xFFFFFFFFFFFFFFFFFFFFFFFFFFFFFFFFFFFFFFFF AND DUP2 PUSH20 0xFFFFFFFFFFFFFFFFFFFFFFFFFFFFFFFFFFFFFFFF AND PUSH32 0x8BE0079C531659141344CD1FD0A4F28419497F9722A3DAAFE3B4186F6B6457E0 PUSH1 0x40 MLOAD PUSH1 0x40 MLOAD DUP1 SWAP2 SUB SWAP1 LOG3 POP POP JUMP JUMPDEST PUSH0 CALLER SWAP1 POP SWAP1 JUMP JUMPDEST PUSH1 0x40 MLOAD DUP1 PUSH2 0x100 ADD PUSH1 0x40 MSTORE DUP1 PUSH0 DUP2 MSTORE PUSH1 0x20 ADD PUSH1 0x60 DUP2 MSTORE PUSH1 0x20 ADD PUSH0 PUSH20 0xFFFFFFFFFFFFFFFFFFFFFFFFFFFFFFFFFFFFFFFF AND DUP2 MSTORE PUSH1 0x20 ADD PUSH0 DUP2 MSTORE PUSH1 0x20 ADD PUSH1 0x60 DUP2 MSTORE PUSH1 0x20 ADD PUSH0 DUP2 MSTORE PUSH1 0x20 ADD PUSH0 DUP2 MSTORE PUSH1 0x20 ADD PUSH1 0x60 DUP2 MSTORE POP SWAP1 JUMP JUMPDEST POP DUP1 SLOAD PUSH2 0x2093 SWAP1 PUSH2 0x2DA4 JUMP JUMPDEST PUSH0 DUP3 SSTORE DUP1 PUSH1 0x1F LT PUSH2 0x20A4 JUMPI POP PUSH2 0x20C1 JUMP JUMPDEST PUSH1 0x1F ADD PUSH1 0x20 SWAP1 DIV SWAP1 PUSH0 MSTORE PUSH1 0x20 PUSH0 KECCAK256 SWAP1 DUP2 ADD SWAP1 PUSH2 0x20C0 SWAP2 SWAP1 PUSH2 0x218A JUMP JUMPDEST JUMPDEST POP JUMP JUMPDEST POP DUP1 SLOAD PUSH0 DUP3 SSTORE SWAP1 PUSH0 MSTORE PUSH1 0x20 PUSH0 KECCAK256 SWAP1 DUP2 ADD SWAP1 PUSH2 0x20DF SWAP2 SWAP1 PUSH2 0x218A JUMP JUMPDEST POP JUMP JUMPDEST POP DUP1 SLOAD PUSH0 DUP3 SSTORE PUSH1 0x8 MUL SWAP1 PUSH0 MSTORE PUSH1 0x20 PUSH0 KECCAK256 SWAP1 DUP2 ADD SWAP1 PUSH2 0x2100 SWAP2 SWAP1 PUSH2 0x21A5 JUMP JUMPDEST POP JUMP JUMPDEST DUP3 DUP1 SLOAD DUP3 DUP3 SSTORE SWAP1 PUSH0 MSTORE PUSH1 0x20 PUSH0 KECCAK256 SWAP1 DUP2 ADD SWAP3 DUP3 ISZERO PUSH2 0x2179 JUMPI SWAP2 PUSH1 0x20 MUL DUP3 ADD JUMPDEST DUP3 DUP2 GT ISZERO PUSH2 0x2178 JUMPI DUP3 MLOAD DUP3 PUSH0 PUSH2 0x100 EXP DUP2 SLOAD DUP2 PUSH20 0xFFFFFFFFFFFFFFFFFFFFFFFFFFFFFFFFFFFFFFFF MUL NOT AND SWAP1 DUP4 PUSH20 0xFFFFFFFFFFFFFFFFFFFFFFFFFFFFFFFFFFFFFFFF AND MUL OR SWAP1 SSTORE POP SWAP2 PUSH1 0x20 ADD SWAP2 SWAP1 PUSH1 0x1 ADD SWAP1 PUSH2 0x2121 JUMP JUMPDEST JUMPDEST POP SWAP1 POP PUSH2 0x2186 SWAP2 SWAP1 PUSH2 0x218A JUMP JUMPDEST POP SWAP1 JUMP JUMPDEST JUMPDEST DUP1 DUP3 GT ISZERO PUSH2 0x21A1 JUMPI PUSH0 DUP2 PUSH0 SWAP1 SSTORE POP PUSH1 0x1 ADD PUSH2 0x218B JUMP JUMPDEST POP SWAP1 JUMP JUMPDEST JUMPDEST DUP1 DUP3 GT ISZERO PUSH2 0x2226 JUMPI PUSH0 DUP1 DUP3 ADD PUSH0 SWAP1 SSTORE PUSH1 0x1 DUP3 ADD PUSH0 PUSH2 0x21C4 SWAP2 SWAP1 PUSH2 0x2087 JUMP JUMPDEST PUSH1 0x2 DUP3 ADD PUSH0 PUSH2 0x100 EXP DUP2 SLOAD SWAP1 PUSH20 0xFFFFFFFFFFFFFFFFFFFFFFFFFFFFFFFFFFFFFFFF MUL NOT AND SWAP1 SSTORE PUSH1 0x3 DUP3 ADD PUSH0 SWAP1 SSTORE PUSH1 0x4 DUP3 ADD PUSH0 PUSH2 0x2200 SWAP2 SWAP1 PUSH2 0x20C4 JUMP JUMPDEST PUSH1 0x5 DUP3 ADD PUSH0 SWAP1 SSTORE PUSH1 0x6 DUP3 ADD PUSH0 SWAP1 SSTORE PUSH1 0x7 DUP3 ADD PUSH0 PUSH2 0x221D SWAP2 SWAP1 PUSH2 0x20C4 JUMP JUMPDEST POP PUSH1 0x8 ADD PUSH2 0x21A6 JUMP JUMPDEST POP SWAP1 JUMP JUMPDEST PUSH0 PUSH1 0x40 MLOAD SWAP1 POP SWAP1 JUMP JUMPDEST PUSH0 DUP1 REVERT JUMPDEST PUSH0 DUP1 REVERT JUMPDEST PUSH0 PUSH20 0xFFFFFFFFFFFFFFFFFFFFFFFFFFFFFFFFFFFFFFFF DUP3 AND SWAP1 POP SWAP2 SWAP1 POP JUMP JUMPDEST PUSH0 PUSH2 0x2264 DUP3 PUSH2 0x223B JUMP JUMPDEST SWAP1 POP SWAP2 SWAP1 POP JUMP JUMPDEST PUSH2 0x2274 DUP2 PUSH2 0x225A JUMP JUMPDEST DUP2 EQ PUSH2 0x227E JUMPI PUSH0 DUP1 REVERT JUMPDEST POP JUMP JUMPDEST PUSH0 DUP2 CALLDATALOAD SWAP1 POP PUSH2 0x228F DUP2 PUSH2 0x226B JUMP JUMPDEST SWAP3 SWAP2 POP POP JUMP JUMPDEST PUSH0 DUP2 SWAP1 POP SWAP2 SWAP1 POP JUMP JUMPDEST PUSH2 0x22A7 DUP2 PUSH2 0x2295 JUMP JUMPDEST DUP2 EQ PUSH2 0x22B1 JUMPI PUSH0 DUP1 REVERT JUMPDEST POP JUMP JUMPDEST PUSH0 DUP2 CALLDATALOAD SWAP1 POP PUSH2 0x22C2 DUP2 PUSH2 0x229E JUMP JUMPDEST SWAP3 SWAP2 POP POP JUMP JUMPDEST PUSH0 DUP1 PUSH1 0x40 DUP4 DUP6 SUB SLT ISZERO PUSH2 0x22DE JUMPI PUSH2 0x22DD PUSH2 0x2233 JUMP JUMPDEST JUMPDEST PUSH0 PUSH2 0x22EB DUP6 DUP3 DUP7 ADD PUSH2 0x2281 JUMP JUMPDEST SWAP3 POP POP PUSH1 0x20 PUSH2 0x22FC DUP6 DUP3 DUP7 ADD PUSH2 0x22B4 JUMP JUMPDEST SWAP2 POP POP SWAP3 POP SWAP3 SWAP1 POP JUMP JUMPDEST PUSH2 0x230F DUP2 PUSH2 0x2295 JUMP JUMPDEST DUP3 MSTORE POP POP JUMP JUMPDEST PUSH0 DUP2 MLOAD SWAP1 POP SWAP2 SWAP1 POP JUMP JUMPDEST PUSH0 DUP3 DUP3 MSTORE PUSH1 0x20 DUP3 ADD SWAP1 POP SWAP3 SWAP2 POP POP JUMP JUMPDEST PUSH0 JUMPDEST DUP4 DUP2 LT ISZERO PUSH2 0x234C JUMPI DUP1 DUP3 ADD MLOAD DUP2 DUP5 ADD MSTORE PUSH1 0x20 DUP2 ADD SWAP1 POP PUSH2 0x2331 JUMP JUMPDEST PUSH0 DUP5 DUP5 ADD MSTORE POP POP POP POP JUMP JUMPDEST PUSH0 PUSH1 0x1F NOT PUSH1 0x1F DUP4 ADD AND SWAP1 POP SWAP2 SWAP1 POP JUMP JUMPDEST PUSH0 PUSH2 0x2371 DUP3 PUSH2 0x2315 JUMP JUMPDEST PUSH2 0x237B DUP2 DUP6 PUSH2 0x231F JUMP JUMPDEST SWAP4 POP PUSH2 0x238B DUP2 DUP6 PUSH1 0x20 DUP7 ADD PUSH2 0x232F JUMP JUMPDEST PUSH2 0x2394 DUP2 PUSH2 0x2357 JUMP JUMPDEST DUP5 ADD SWAP2 POP POP SWAP3 SWAP2 POP POP JUMP JUMPDEST PUSH2 0x23A8 DUP2 PUSH2 0x225A JUMP JUMPDEST DUP3 MSTORE POP POP JUMP JUMPDEST PUSH0 DUP2 MLOAD SWAP1 POP SWAP2 SWAP1 POP JUMP JUMPDEST PUSH0 DUP3 DUP3 MSTORE PUSH1 0x20 DUP3 ADD SWAP1 POP SWAP3 SWAP2 POP POP JUMP JUMPDEST PUSH0 DUP2 SWAP1 POP PUSH1 0x20 DUP3 ADD SWAP1 POP SWAP2 SWAP1 POP JUMP JUMPDEST PUSH0 PUSH2 0x23E2 DUP4 DUP4 PUSH2 0x239F JUMP JUMPDEST PUSH1 0x20 DUP4 ADD SWAP1 POP SWAP3 SWAP2 POP POP JUMP JUMPDEST PUSH0 PUSH1 0x20 DUP3 ADD SWAP1 POP SWAP2 SWAP1 POP JUMP JUMPDEST PUSH0 PUSH2 0x2404 DUP3 PUSH2 0x23AE JUMP JUMPDEST PUSH2 0x240E DUP2 DUP6 PUSH2 0x23B8 JUMP JUMPDEST SWAP4 POP PUSH2 0x2419 DUP4 PUSH2 0x23C8 JUMP JUMPDEST DUP1 PUSH0 JUMPDEST DUP4 DUP2 LT ISZERO PUSH2 0x2449 JUMPI DUP2 MLOAD PUSH2 0x2430 DUP9 DUP3 PUSH2 0x23D7 JUMP JUMPDEST SWAP8 POP PUSH2 0x243B DUP4 PUSH2 0x23EE JUMP JUMPDEST SWAP3 POP POP PUSH1 0x1 DUP2 ADD SWAP1 POP PUSH2 0x241C JUMP JUMPDEST POP DUP6 SWAP4 POP POP POP POP SWAP3 SWAP2 POP POP JUMP JUMPDEST PUSH0 PUSH2 0x100 DUP4 ADD PUSH0 DUP4 ADD MLOAD PUSH2 0x246C PUSH0 DUP7 ADD DUP3 PUSH2 0x2306 JUMP JUMPDEST POP PUSH1 0x20 DUP4 ADD MLOAD DUP5 DUP3 SUB PUSH1 0x20 DUP7 ADD MSTORE PUSH2 0x2484 DUP3 DUP3 PUSH2 0x2367 JUMP JUMPDEST SWAP2 POP POP PUSH1 0x40 DUP4 ADD MLOAD PUSH2 0x2499 PUSH1 0x40 DUP7 ADD DUP3 PUSH2 0x239F JUMP JUMPDEST POP PUSH1 0x60 DUP4 ADD MLOAD PUSH2 0x24AC PUSH1 0x60 DUP7 ADD DUP3 PUSH2 0x2306 JUMP JUMPDEST POP PUSH1 0x80 DUP4 ADD MLOAD DUP5 DUP3 SUB PUSH1 0x80 DUP7 ADD MSTORE PUSH2 0x24C4 DUP3 DUP3 PUSH2 0x23FA JUMP JUMPDEST SWAP2 POP POP PUSH1 0xA0 DUP4 ADD MLOAD PUSH2 0x24D9 PUSH1 0xA0 DUP7 ADD DUP3 PUSH2 0x2306 JUMP JUMPDEST POP PUSH1 0xC0 DUP4 ADD MLOAD PUSH2 0x24EC PUSH1 0xC0 DUP7 ADD DUP3 PUSH2 0x2306 JUMP JUMPDEST POP PUSH1 0xE0 DUP4 ADD MLOAD DUP5 DUP3 SUB PUSH1 0xE0 DUP7 ADD MSTORE PUSH2 0x2504 DUP3 DUP3 PUSH2 0x23FA JUMP JUMPDEST SWAP2 POP POP DUP1 SWAP2 POP POP SWAP3 SWAP2 POP POP JUMP JUMPDEST PUSH0 PUSH1 0x20 DUP3 ADD SWAP1 POP DUP2 DUP2 SUB PUSH0 DUP4 ADD MSTORE PUSH2 0x2529 DUP2 DUP5 PUSH2 0x2456 JUMP JUMPDEST SWAP1 POP SWAP3 SWAP2 POP POP JUMP JUMPDEST PUSH0 DUP2 MLOAD SWAP1 POP SWAP2 SWAP1 POP JUMP JUMPDEST PUSH0 DUP3 DUP3 MSTORE PUSH1 0x20 DUP3 ADD SWAP1 POP SWAP3 SWAP2 POP POP JUMP JUMPDEST PUSH0 DUP2 SWAP1 POP PUSH1 0x20 DUP3 ADD SWAP1 POP SWAP2 SWAP1 POP JUMP JUMPDEST PUSH0 PUSH2 0x100 DUP4 ADD PUSH0 DUP4 ADD MLOAD PUSH2 0x2570 PUSH0 DUP7 ADD DUP3 PUSH2 0x2306 JUMP JUMPDEST POP PUSH1 0x20 DUP4 ADD MLOAD DUP5 DUP3 SUB PUSH1 0x20 DUP7 ADD MSTORE PUSH2 0x2588 DUP3 DUP3 PUSH2 0x2367 JUMP JUMPDEST SWAP2 POP POP PUSH1 0x40 DUP4 ADD MLOAD PUSH2 0x259D PUSH1 0x40 DUP7 ADD DUP3 PUSH2 0x239F JUMP JUMPDEST POP PUSH1 0x60 DUP4 ADD MLOAD PUSH2 0x25B0 PUSH1 0x60 DUP7 ADD DUP3 PUSH2 0x2306 JUMP JUMPDEST POP PUSH1 0x80 DUP4 ADD MLOAD DUP5 DUP3 SUB PUSH1 0x80 DUP7 ADD MSTORE PUSH2 0x25C8 DUP3 DUP3 PUSH2 0x23FA JUMP JUMPDEST SWAP2 POP POP PUSH1 0xA0 DUP4 ADD MLOAD PUSH2 0x25DD PUSH1 0xA0 DUP7 ADD DUP3 PUSH2 0x2306 JUMP JUMPDEST POP PUSH1 0xC0 DUP4 ADD MLOAD PUSH2 0x25F0 PUSH1 0xC0 DUP7 ADD DUP3 PUSH2 0x2306 JUMP JUMPDEST POP PUSH1 0xE0 DUP4 ADD MLOAD DUP5 DUP3 SUB PUSH1 0xE0 DUP7 ADD MSTORE PUSH2 0x2608 DUP3 DUP3 PUSH2 0x23FA JUMP JUMPDEST SWAP2 POP POP DUP1 SWAP2 POP POP SWAP3 SWAP2 POP POP JUMP JUMPDEST PUSH0 PUSH2 0x2620 DUP4 DUP4 PUSH2 0x255A JUMP JUMPDEST SWAP1 POP SWAP3 SWAP2 POP POP JUMP JUMPDEST PUSH0 PUSH1 0x20 DUP3 ADD SWAP1 POP SWAP2 SWAP1 POP JUMP JUMPDEST PUSH0 PUSH2 0x263E DUP3 PUSH2 0x2531 JUMP JUMPDEST PUSH2 0x2648 DUP2 DUP6 PUSH2 0x253B JUMP JUMPDEST SWAP4 POP DUP4 PUSH1 0x20 DUP3 MUL DUP6 ADD PUSH2 0x265A DUP6 PUSH2 0x254B JUMP JUMPDEST DUP1 PUSH0 JUMPDEST DUP6 DUP2 LT ISZERO PUSH2 0x2695 JUMPI DUP5 DUP5 SUB DUP10 MSTORE DUP2 MLOAD PUSH2 0x2676 DUP6 DUP3 PUSH2 0x2615 JUMP JUMPDEST SWAP5 POP PUSH2 0x2681 DUP4 PUSH2 0x2628 JUMP JUMPDEST SWAP3 POP PUSH1 0x20 DUP11 ADD SWAP10 POP POP PUSH1 0x1 DUP2 ADD SWAP1 POP PUSH2 0x265D JUMP JUMPDEST POP DUP3 SWAP8 POP DUP8 SWAP6 POP POP POP POP POP POP SWAP3 SWAP2 POP POP JUMP JUMPDEST PUSH0 PUSH1 0x20 DUP3 ADD SWAP1 POP DUP2 DUP2 SUB PUSH0 DUP4 ADD MSTORE PUSH2 0x26BF DUP2 DUP5 PUSH2 0x2634 JUMP JUMPDEST SWAP1 POP SWAP3 SWAP2 POP POP JUMP JUMPDEST PUSH0 DUP1 REVERT JUMPDEST PUSH0 DUP1 REVERT JUMPDEST PUSH32 0x4E487B7100000000000000000000000000000000000000000000000000000000 PUSH0 MSTORE PUSH1 0x41 PUSH1 0x4 MSTORE PUSH1 0x24 PUSH0 REVERT JUMPDEST PUSH2 0x2705 DUP3 PUSH2 0x2357 JUMP JUMPDEST DUP2 ADD DUP2 DUP2 LT PUSH8 0xFFFFFFFFFFFFFFFF DUP3 GT OR ISZERO PUSH2 0x2724 JUMPI PUSH2 0x2723 PUSH2 0x26CF JUMP JUMPDEST JUMPDEST DUP1 PUSH1 0x40 MSTORE POP POP POP JUMP JUMPDEST PUSH0 PUSH2 0x2736 PUSH2 0x222A JUMP JUMPDEST SWAP1 POP PUSH2 0x2742 DUP3 DUP3 PUSH2 0x26FC JUMP JUMPDEST SWAP2 SWAP1 POP JUMP JUMPDEST PUSH0 PUSH8 0xFFFFFFFFFFFFFFFF DUP3 GT ISZERO PUSH2 0x2761 JUMPI PUSH2 0x2760 PUSH2 0x26CF JUMP JUMPDEST JUMPDEST PUSH2 0x276A DUP3 PUSH2 0x2357 JUMP JUMPDEST SWAP1 POP PUSH1 0x20 DUP2 ADD SWAP1 POP SWAP2 SWAP1 POP JUMP JUMPDEST DUP3 DUP2 DUP4 CALLDATACOPY PUSH0 DUP4 DUP4 ADD MSTORE POP POP POP JUMP JUMPDEST PUSH0 PUSH2 0x2797 PUSH2 0x2792 DUP5 PUSH2 0x2747 JUMP JUMPDEST PUSH2 0x272D JUMP JUMPDEST SWAP1 POP DUP3 DUP2 MSTORE PUSH1 0x20 DUP2 ADD DUP5 DUP5 DUP5 ADD GT ISZERO PUSH2 0x27B3 JUMPI PUSH2 0x27B2 PUSH2 0x26CB JUMP JUMPDEST JUMPDEST PUSH2 0x27BE DUP5 DUP3 DUP6 PUSH2 0x2777 JUMP JUMPDEST POP SWAP4 SWAP3 POP POP POP JUMP JUMPDEST PUSH0 DUP3 PUSH1 0x1F DUP4 ADD SLT PUSH2 0x27DA JUMPI PUSH2 0x27D9 PUSH2 0x26C7 JUMP JUMPDEST JUMPDEST DUP2 CALLDATALOAD PUSH2 0x27EA DUP5 DUP3 PUSH1 0x20 DUP7 ADD PUSH2 0x2785 JUMP JUMPDEST SWAP2 POP POP SWAP3 SWAP2 POP POP JUMP JUMPDEST PUSH0 PUSH1 0x20 DUP3 DUP5 SUB SLT ISZERO PUSH2 0x2808 JUMPI PUSH2 0x2807 PUSH2 0x2233 JUMP JUMPDEST JUMPDEST PUSH0 DUP3 ADD CALLDATALOAD PUSH8 0xFFFFFFFFFFFFFFFF DUP2 GT ISZERO PUSH2 0x2825 JUMPI PUSH2 0x2824 PUSH2 0x2237 JUMP JUMPDEST JUMPDEST PUSH2 0x2831 DUP5 DUP3 DUP6 ADD PUSH2 0x27C6 JUMP JUMPDEST SWAP2 POP POP SWAP3 SWAP2 POP POP JUMP JUMPDEST PUSH0 PUSH1 0x20 DUP3 DUP5 SUB SLT ISZERO PUSH2 0x284F JUMPI PUSH2 0x284E PUSH2 0x2233 JUMP JUMPDEST JUMPDEST PUSH0 PUSH2 0x285C DUP5 DUP3 DUP6 ADD PUSH2 0x2281 JUMP JUMPDEST SWAP2 POP POP SWAP3 SWAP2 POP POP JUMP JUMPDEST PUSH2 0x286E DUP2 PUSH2 0x2295 JUMP JUMPDEST DUP3 MSTORE POP POP JUMP JUMPDEST PUSH0 PUSH1 0x20 DUP3 ADD SWAP1 POP PUSH2 0x2887 PUSH0 DUP4 ADD DUP5 PUSH2 0x2865 JUMP JUMPDEST SWAP3 SWAP2 POP POP JUMP JUMPDEST PUSH2 0x2896 DUP2 PUSH2 0x225A JUMP JUMPDEST DUP3 MSTORE POP POP JUMP JUMPDEST PUSH0 PUSH1 0x20 DUP3 ADD SWAP1 POP PUSH2 0x28AF PUSH0 DUP4 ADD DUP5 PUSH2 0x288D JUMP JUMPDEST SWAP3 SWAP2 POP POP JUMP JUMPDEST PUSH0 PUSH1 0x20 DUP3 DUP5 SUB SLT ISZERO PUSH2 0x28CA JUMPI PUSH2 0x28C9 PUSH2 0x2233 JUMP JUMPDEST JUMPDEST PUSH0 PUSH2 0x28D7 DUP5 DUP3 DUP6 ADD PUSH2 0x22B4 JUMP JUMPDEST SWAP2 POP POP SWAP3 SWAP2 POP POP JUMP JUMPDEST PUSH0 DUP1 REVERT JUMPDEST PUSH0 DUP1 REVERT JUMPDEST PUSH0 PUSH2 0x28FA PUSH2 0x28F5 DUP5 PUSH2 0x2747 JUMP JUMPDEST PUSH2 0x272D JUMP JUMPDEST SWAP1 POP DUP3 DUP2 MSTORE PUSH1 0x20 DUP2 ADD DUP5 DUP5 DUP5 ADD GT ISZERO PUSH2 0x2916 JUMPI PUSH2 0x2915 PUSH2 0x26CB JUMP JUMPDEST JUMPDEST PUSH2 0x2921 DUP5 DUP3 DUP6 PUSH2 0x232F JUMP JUMPDEST POP SWAP4 SWAP3 POP POP POP JUMP JUMPDEST PUSH0 DUP3 PUSH1 0x1F DUP4 ADD SLT PUSH2 0x293D JUMPI PUSH2 0x293C PUSH2 0x26C7 JUMP JUMPDEST JUMPDEST DUP2 MLOAD PUSH2 0x294D DUP5 DUP3 PUSH1 0x20 DUP7 ADD PUSH2 0x28E8 JUMP JUMPDEST SWAP2 POP POP SWAP3 SWAP2 POP POP JUMP JUMPDEST PUSH0 PUSH1 0x40 DUP3 DUP5 SUB SLT ISZERO PUSH2 0x296B JUMPI PUSH2 0x296A PUSH2 0x28E0 JUMP JUMPDEST JUMPDEST PUSH2 0x2975 PUSH1 0x40 PUSH2 0x272D JUMP JUMPDEST SWAP1 POP PUSH0 DUP3 ADD MLOAD PUSH8 0xFFFFFFFFFFFFFFFF DUP2 GT ISZERO PUSH2 0x2994 JUMPI PUSH2 0x2993 PUSH2 0x28E4 JUMP JUMPDEST JUMPDEST PUSH2 0x29A0 DUP5 DUP3 DUP6 ADD PUSH2 0x2929 JUMP JUMPDEST PUSH0 DUP4 ADD MSTORE POP PUSH1 0x20 DUP3 ADD MLOAD PUSH8 0xFFFFFFFFFFFFFFFF DUP2 GT ISZERO PUSH2 0x29C3 JUMPI PUSH2 0x29C2 PUSH2 0x28E4 JUMP JUMPDEST JUMPDEST PUSH2 0x29CF DUP5 DUP3 DUP6 ADD PUSH2 0x2929 JUMP JUMPDEST PUSH1 0x20 DUP4 ADD MSTORE POP SWAP3 SWAP2 POP POP JUMP JUMPDEST PUSH0 PUSH1 0x20 DUP3 DUP5 SUB SLT ISZERO PUSH2 0x29F0 JUMPI PUSH2 0x29EF PUSH2 0x2233 JUMP JUMPDEST JUMPDEST PUSH0 DUP3 ADD MLOAD PUSH8 0xFFFFFFFFFFFFFFFF DUP2 GT ISZERO PUSH2 0x2A0D JUMPI PUSH2 0x2A0C PUSH2 0x2237 JUMP JUMPDEST JUMPDEST PUSH2 0x2A19 DUP5 DUP3 DUP6 ADD PUSH2 0x2956 JUMP JUMPDEST SWAP2 POP POP SWAP3 SWAP2 POP POP JUMP JUMPDEST PUSH0 DUP3 DUP3 MSTORE PUSH1 0x20 DUP3 ADD SWAP1 POP SWAP3 SWAP2 POP POP JUMP JUMPDEST PUSH32 0x55534552204E4F54205245474953544552454400000000000000000000000000 PUSH0 DUP3 ADD MSTORE POP JUMP JUMPDEST PUSH0 PUSH2 0x2A66 PUSH1 0x13 DUP4 PUSH2 0x2A22 JUMP JUMPDEST SWAP2 POP PUSH2 0x2A71 DUP3 PUSH2 0x2A32 JUMP JUMPDEST PUSH1 0x20 DUP3 ADD SWAP1 POP SWAP2 SWAP1 POP JUMP JUMPDEST PUSH0 PUSH1 0x20 DUP3 ADD SWAP1 POP DUP2 DUP2 SUB PUSH0 DUP4 ADD MSTORE PUSH2 0x2A93 DUP2 PUSH2 0x2A5A JUMP JUMPDEST SWAP1 POP SWAP2 SWAP1 POP JUMP JUMPDEST PUSH32 0x54686973205477656574204E6F74204578697374202100000000000000000000 PUSH0 DUP3 ADD MSTORE POP JUMP JUMPDEST PUSH0 PUSH2 0x2ACE PUSH1 0x16 DUP4 PUSH2 0x2A22 JUMP JUMPDEST SWAP2 POP PUSH2 0x2AD9 DUP3 PUSH2 0x2A9A JUMP JUMPDEST PUSH1 0x20 DUP3 ADD SWAP1 POP SWAP2 SWAP1 POP JUMP JUMPDEST PUSH0 PUSH1 0x20 DUP3 ADD SWAP1 POP DUP2 DUP2 SUB PUSH0 DUP4 ADD MSTORE PUSH2 0x2AFB DUP2 PUSH2 0x2AC2 JUMP JUMPDEST SWAP1 POP SWAP2 SWAP1 POP JUMP JUMPDEST PUSH32 0x4E487B7100000000000000000000000000000000000000000000000000000000 PUSH0 MSTORE PUSH1 0x11 PUSH1 0x4 MSTORE PUSH1 0x24 PUSH0 REVERT JUMPDEST PUSH0 PUSH2 0x2B39 DUP3 PUSH2 0x2295 JUMP JUMPDEST SWAP2 POP PUSH2 0x2B44 DUP4 PUSH2 0x2295 JUMP JUMPDEST SWAP3 POP DUP3 DUP3 SUB SWAP1 POP DUP2 DUP2 GT ISZERO PUSH2 0x2B5C JUMPI PUSH2 0x2B5B PUSH2 0x2B02 JUMP JUMPDEST JUMPDEST SWAP3 SWAP2 POP POP JUMP JUMPDEST PUSH32 0x4E487B7100000000000000000000000000000000000000000000000000000000 PUSH0 MSTORE PUSH1 0x32 PUSH1 0x4 MSTORE PUSH1 0x24 PUSH0 REVERT JUMPDEST PUSH32 0x596F7520416C7265616479204C696B6564207468652074776565742100000000 PUSH0 DUP3 ADD MSTORE POP JUMP JUMPDEST PUSH0 PUSH2 0x2BC3 PUSH1 0x1C DUP4 PUSH2 0x2A22 JUMP JUMPDEST SWAP2 POP PUSH2 0x2BCE DUP3 PUSH2 0x2B8F JUMP JUMPDEST PUSH1 0x20 DUP3 ADD SWAP1 POP SWAP2 SWAP1 POP JUMP JUMPDEST PUSH0 PUSH1 0x20 DUP3 ADD SWAP1 POP DUP2 DUP2 SUB PUSH0 DUP4 ADD MSTORE PUSH2 0x2BF0 DUP2 PUSH2 0x2BB7 JUMP JUMPDEST SWAP1 POP SWAP2 SWAP1 POP JUMP JUMPDEST PUSH32 0x596F7520416C726561647920556E4C696B656420746865207477656574210000 PUSH0 DUP3 ADD MSTORE POP JUMP JUMPDEST PUSH0 PUSH2 0x2C2B PUSH1 0x1E DUP4 PUSH2 0x2A22 JUMP JUMPDEST SWAP2 POP PUSH2 0x2C36 DUP3 PUSH2 0x2BF7 JUMP JUMPDEST PUSH1 0x20 DUP3 ADD SWAP1 POP SWAP2 SWAP1 POP JUMP JUMPDEST PUSH0 PUSH1 0x20 DUP3 ADD SWAP1 POP DUP2 DUP2 SUB PUSH0 DUP4 ADD MSTORE PUSH2 0x2C58 DUP2 PUSH2 0x2C1F JUMP JUMPDEST SWAP1 POP SWAP2 SWAP1 POP JUMP JUMPDEST PUSH32 0x5468697320697320596F757220547765657421596F752063616E6E2774204C69 PUSH0 DUP3 ADD MSTORE PUSH32 0x6B6520596F757220547765657421000000000000000000000000000000000000 PUSH1 0x20 DUP3 ADD MSTORE POP JUMP JUMPDEST PUSH0 PUSH2 0x2CB9 PUSH1 0x2E DUP4 PUSH2 0x2A22 JUMP JUMPDEST SWAP2 POP PUSH2 0x2CC4 DUP3 PUSH2 0x2C5F JUMP JUMPDEST PUSH1 0x40 DUP3 ADD SWAP1 POP SWAP2 SWAP1 POP JUMP JUMPDEST PUSH0 PUSH1 0x20 DUP3 ADD SWAP1 POP DUP2 DUP2 SUB PUSH0 DUP4 ADD MSTORE PUSH2 0x2CE6 DUP2 PUSH2 0x2CAD JUMP JUMPDEST SWAP1 POP SWAP2 SWAP1 POP JUMP JUMPDEST PUSH0 PUSH2 0x2CF7 DUP3 PUSH2 0x2295 JUMP JUMPDEST SWAP2 POP PUSH32 0xFFFFFFFFFFFFFFFFFFFFFFFFFFFFFFFFFFFFFFFFFFFFFFFFFFFFFFFFFFFFFFFF DUP3 SUB PUSH2 0x2D29 JUMPI PUSH2 0x2D28 PUSH2 0x2B02 JUMP JUMPDEST JUMPDEST PUSH1 0x1 DUP3 ADD SWAP1 POP SWAP2 SWAP1 POP JUMP JUMPDEST PUSH0 PUSH1 0x80 DUP3 ADD SWAP1 POP PUSH2 0x2D47 PUSH0 DUP4 ADD DUP8 PUSH2 0x288D JUMP JUMPDEST PUSH2 0x2D54 PUSH1 0x20 DUP4 ADD DUP7 PUSH2 0x288D JUMP JUMPDEST PUSH2 0x2D61 PUSH1 0x40 DUP4 ADD DUP6 PUSH2 0x2865 JUMP JUMPDEST PUSH2 0x2D6E PUSH1 0x60 DUP4 ADD DUP5 PUSH2 0x2865 JUMP JUMPDEST SWAP6 SWAP5 POP POP POP POP POP JUMP JUMPDEST PUSH32 0x4E487B7100000000000000000000000000000000000000000000000000000000 PUSH0 MSTORE PUSH1 0x22 PUSH1 0x4 MSTORE PUSH1 0x24 PUSH0 REVERT JUMPDEST PUSH0 PUSH1 0x2 DUP3 DIV SWAP1 POP PUSH1 0x1 DUP3 AND DUP1 PUSH2 0x2DBB JUMPI PUSH1 0x7F DUP3 AND SWAP2 POP JUMPDEST PUSH1 0x20 DUP3 LT DUP2 SUB PUSH2 0x2DCE JUMPI PUSH2 0x2DCD PUSH2 0x2D77 JUMP JUMPDEST JUMPDEST POP SWAP2 SWAP1 POP JUMP JUMPDEST PUSH32 0x4E487B7100000000000000000000000000000000000000000000000000000000 PUSH0 MSTORE PUSH1 0x31 PUSH1 0x4 MSTORE PUSH1 0x24 PUSH0 REVERT JUMPDEST PUSH32 0x5477656574204C656E6774682069732045786365656421000000000000000000 PUSH0 DUP3 ADD MSTORE POP JUMP JUMPDEST PUSH0 PUSH2 0x2E35 PUSH1 0x17 DUP4 PUSH2 0x2A22 JUMP JUMPDEST SWAP2 POP PUSH2 0x2E40 DUP3 PUSH2 0x2E01 JUMP JUMPDEST PUSH1 0x20 DUP3 ADD SWAP1 POP SWAP2 SWAP1 POP JUMP JUMPDEST PUSH0 PUSH1 0x20 DUP3 ADD SWAP1 POP DUP2 DUP2 SUB PUSH0 DUP4 ADD MSTORE PUSH2 0x2E62 DUP2 PUSH2 0x2E29 JUMP JUMPDEST SWAP1 POP SWAP2 SWAP1 POP JUMP JUMPDEST PUSH0 PUSH2 0x2E73 DUP3 PUSH2 0x2295 JUMP JUMPDEST SWAP2 POP PUSH2 0x2E7E DUP4 PUSH2 0x2295 JUMP JUMPDEST SWAP3 POP DUP3 DUP3 ADD SWAP1 POP DUP1 DUP3 GT ISZERO PUSH2 0x2E96 JUMPI PUSH2 0x2E95 PUSH2 0x2B02 JUMP JUMPDEST JUMPDEST SWAP3 SWAP2 POP POP JUMP JUMPDEST PUSH0 DUP2 SWAP1 POP DUP2 PUSH0 MSTORE PUSH1 0x20 PUSH0 KECCAK256 SWAP1 POP SWAP2 SWAP1 POP JUMP JUMPDEST PUSH0 PUSH1 0x20 PUSH1 0x1F DUP4 ADD DIV SWAP1 POP SWAP2 SWAP1 POP JUMP JUMPDEST PUSH0 DUP3 DUP3 SHL SWAP1 POP SWAP3 SWAP2 POP POP JUMP JUMPDEST PUSH0 PUSH1 0x8 DUP4 MUL PUSH2 0x2EF8 PUSH32 0xFFFFFFFFFFFFFFFFFFFFFFFFFFFFFFFFFFFFFFFFFFFFFFFFFFFFFFFFFFFFFFFF DUP3 PUSH2 0x2EBD JUMP JUMPDEST PUSH2 0x2F02 DUP7 DUP4 PUSH2 0x2EBD JUMP JUMPDEST SWAP6 POP DUP1 NOT DUP5 AND SWAP4 POP DUP1 DUP7 AND DUP5 OR SWAP3 POP POP POP SWAP4 SWAP3 POP POP POP JUMP JUMPDEST PUSH0 DUP2 SWAP1 POP SWAP2 SWAP1 POP JUMP JUMPDEST PUSH0 PUSH2 0x2F3D PUSH2 0x2F38 PUSH2 0x2F33 DUP5 PUSH2 0x2295 JUMP JUMPDEST PUSH2 0x2F1A JUMP JUMPDEST PUSH2 0x2295 JUMP JUMPDEST SWAP1 POP SWAP2 SWAP1 POP JUMP JUMPDEST PUSH0 DUP2 SWAP1 POP SWAP2 SWAP1 POP JUMP JUMPDEST PUSH2 0x2F56 DUP4 PUSH2 0x2F23 JUMP JUMPDEST PUSH2 0x2F6A PUSH2 0x2F62 DUP3 PUSH2 0x2F44 JUMP JUMPDEST DUP5 DUP5 SLOAD PUSH2 0x2EC9 JUMP JUMPDEST DUP3 SSTORE POP POP POP POP JUMP JUMPDEST PUSH0 SWAP1 JUMP JUMPDEST PUSH2 0x2F7E PUSH2 0x2F72 JUMP JUMPDEST PUSH2 0x2F89 DUP2 DUP5 DUP5 PUSH2 0x2F4D JUMP JUMPDEST POP POP POP JUMP JUMPDEST JUMPDEST DUP2 DUP2 LT ISZERO PUSH2 0x2FAC JUMPI PUSH2 0x2FA1 PUSH0 DUP3 PUSH2 0x2F76 JUMP JUMPDEST PUSH1 0x1 DUP2 ADD SWAP1 POP PUSH2 0x2F8F JUMP JUMPDEST POP POP JUMP JUMPDEST PUSH1 0x1F DUP3 GT ISZERO PUSH2 0x2FF1 JUMPI PUSH2 0x2FC2 DUP2 PUSH2 0x2E9C JUMP JUMPDEST PUSH2 0x2FCB DUP5 PUSH2 0x2EAE JUMP JUMPDEST DUP2 ADD PUSH1 0x20 DUP6 LT ISZERO PUSH2 0x2FDA JUMPI DUP2 SWAP1 POP JUMPDEST PUSH2 0x2FEE PUSH2 0x2FE6 DUP6 PUSH2 0x2EAE JUMP JUMPDEST DUP4 ADD DUP3 PUSH2 0x2F8E JUMP JUMPDEST POP POP JUMPDEST POP POP POP JUMP JUMPDEST PUSH0 DUP3 DUP3 SHR SWAP1 POP SWAP3 SWAP2 POP POP JUMP JUMPDEST PUSH0 PUSH2 0x3011 PUSH0 NOT DUP5 PUSH1 0x8 MUL PUSH2 0x2FF6 JUMP JUMPDEST NOT DUP1 DUP4 AND SWAP2 POP POP SWAP3 SWAP2 POP POP JUMP JUMPDEST PUSH0 PUSH2 0x3029 DUP4 DUP4 PUSH2 0x3002 JUMP JUMPDEST SWAP2 POP DUP3 PUSH1 0x2 MUL DUP3 OR SWAP1 POP SWAP3 SWAP2 POP POP JUMP JUMPDEST PUSH2 0x3042 DUP3 PUSH2 0x2315 JUMP JUMPDEST PUSH8 0xFFFFFFFFFFFFFFFF DUP2 GT ISZERO PUSH2 0x305B JUMPI PUSH2 0x305A PUSH2 0x26CF JUMP JUMPDEST JUMPDEST PUSH2 0x3065 DUP3 SLOAD PUSH2 0x2DA4 JUMP JUMPDEST PUSH2 0x3070 DUP3 DUP3 DUP6 PUSH2 0x2FB0 JUMP JUMPDEST PUSH0 PUSH1 0x20 SWAP1 POP PUSH1 0x1F DUP4 GT PUSH1 0x1 DUP2 EQ PUSH2 0x30A1 JUMPI PUSH0 DUP5 ISZERO PUSH2 0x308F JUMPI DUP3 DUP8 ADD MLOAD SWAP1 POP JUMPDEST PUSH2 0x3099 DUP6 DUP3 PUSH2 0x301E JUMP JUMPDEST DUP7 SSTORE POP PUSH2 0x3100 JUMP JUMPDEST PUSH1 0x1F NOT DUP5 AND PUSH2 0x30AF DUP7 PUSH2 0x2E9C JUMP JUMPDEST PUSH0 JUMPDEST DUP3 DUP2 LT ISZERO PUSH2 0x30D6 JUMPI DUP5 DUP10 ADD MLOAD DUP3 SSTORE PUSH1 0x1 DUP3 ADD SWAP2 POP PUSH1 0x20 DUP6 ADD SWAP5 POP PUSH1 0x20 DUP2 ADD SWAP1 POP PUSH2 0x30B1 JUMP JUMPDEST DUP7 DUP4 LT ISZERO PUSH2 0x30F3 JUMPI DUP5 DUP10 ADD MLOAD PUSH2 0x30EF PUSH1 0x1F DUP10 AND DUP3 PUSH2 0x3002 JUMP JUMPDEST DUP4 SSTORE POP JUMPDEST PUSH1 0x1 PUSH1 0x2 DUP9 MUL ADD DUP9 SSTORE POP POP POP JUMPDEST POP POP POP POP POP POP JUMP JUMPDEST PUSH0 PUSH2 0x3112 DUP3 PUSH2 0x2315 JUMP JUMPDEST PUSH2 0x311C DUP2 DUP6 PUSH2 0x2A22 JUMP JUMPDEST SWAP4 POP PUSH2 0x312C DUP2 DUP6 PUSH1 0x20 DUP7 ADD PUSH2 0x232F JUMP JUMPDEST PUSH2 0x3135 DUP2 PUSH2 0x2357 JUMP JUMPDEST DUP5 ADD SWAP2 POP POP SWAP3 SWAP2 POP POP JUMP JUMPDEST PUSH0 PUSH1 0x80 DUP3 ADD SWAP1 POP PUSH2 0x3153 PUSH0 DUP4 ADD DUP8 PUSH2 0x2865 JUMP JUMPDEST PUSH2 0x3160 PUSH1 0x20 DUP4 ADD DUP7 PUSH2 0x288D JUMP JUMPDEST DUP2 DUP2 SUB PUSH1 0x40 DUP4 ADD MSTORE PUSH2 0x3172 DUP2 DUP6 PUSH2 0x3108 JUMP JUMPDEST SWAP1 POP PUSH2 0x3181 PUSH1 0x60 DUP4 ADD DUP5 PUSH2 0x2865 JUMP JUMPDEST SWAP6 SWAP5 POP POP POP POP POP JUMP INVALID LOG2 PUSH5 0x6970667358 0x22 SLT KECCAK256 DUP11 0xB2 SSTORE 0xD5 0x4D REVERT DUP12 PUSH16 0x2F5090C85B2A160DAF8732060BC89CA1 0xF7 0x5E AND 0xBF 0xAD SWAP13 0xB8 0xD2 PUSH5 0x736F6C6343 STOP ADDMOD OR STOP CALLER "
				},
				"gasEstimates": {
					"creation": {
						"codeDepositCost": "2547200",
						"executionCost": "infinite",
						"totalCost": "infinite"
					},
					"external": {
						"ChangeTweetLength(uint256)": "infinite",
						"DeleteAllTweets()": "infinite",
						"DeleteRecentTweet()": "infinite",
						"GetAllTweets()": "infinite",
						"GetTweet(address,uint256)": "infinite",
						"LikesTweet(address,uint256)": "infinite",
						"UnlikeTweet(address,uint256)": "infinite",
						"createTweet(string)": "infinite",
						"getTotalLikes(address)": "infinite",
						"getTotalUnLikes(address)": "infinite",
						"owner()": "2582",
						"renounceOwnership()": "infinite",
						"transferOwnership(address)": "infinite"
					}
				},
				"methodIdentifiers": {
					"ChangeTweetLength(uint256)": "e479c244",
					"DeleteAllTweets()": "765fab45",
					"DeleteRecentTweet()": "71e7eb12",
					"GetAllTweets()": "42d7fbc0",
					"GetTweet(address,uint256)": "37f36a4c",
					"LikesTweet(address,uint256)": "1216cdc5",
					"UnlikeTweet(address,uint256)": "a110e72d",
					"createTweet(string)": "7c9cd2bc",
					"getTotalLikes(address)": "820785cc",
					"getTotalUnLikes(address)": "a6156d77",
					"owner()": "8da5cb5b",
					"renounceOwnership()": "715018a6",
					"transferOwnership(address)": "f2fde38b"
				}
			},
			"storageLayout": {
				"storage": [
					{
						"astId": 8,
						"contract": "contracts/Twitter0.9v(main).sol:Twitter",
						"label": "_owner",
						"offset": 0,
						"slot": "0",
						"type": "t_address"
					},
					{
						"astId": 191,
						"contract": "contracts/Twitter0.9v(main).sol:Twitter",
						"label": "profileContract",
						"offset": 0,
						"slot": "1",
						"type": "t_contract(IProfile)186"
					},
					{
						"astId": 276,
						"contract": "contracts/Twitter0.9v(main).sol:Twitter",
						"label": "TweetLength",
						"offset": 0,
						"slot": "2",
						"type": "t_uint256"
					},
					{
						"astId": 291,
						"contract": "contracts/Twitter0.9v(main).sol:Twitter",
						"label": "li",
						"offset": 0,
						"slot": "3",
						"type": "t_array(t_address)dyn_storage"
					},
					{
						"astId": 297,
						"contract": "contracts/Twitter0.9v(main).sol:Twitter",
						"label": "Tweet_info",
						"offset": 0,
						"slot": "4",
						"type": "t_mapping(t_address,t_array(t_struct(Tweet)226_storage)dyn_storage)"
					}
				],
				"types": {
					"t_address": {
						"encoding": "inplace",
						"label": "address",
						"numberOfBytes": "20"
					},
					"t_array(t_address)dyn_storage": {
						"base": "t_address",
						"encoding": "dynamic_array",
						"label": "address[]",
						"numberOfBytes": "32"
					},
					"t_array(t_struct(Tweet)226_storage)dyn_storage": {
						"base": "t_struct(Tweet)226_storage",
						"encoding": "dynamic_array",
						"label": "struct Twitter.Tweet[]",
						"numberOfBytes": "32"
					},
					"t_contract(IProfile)186": {
						"encoding": "inplace",
						"label": "contract IProfile",
						"numberOfBytes": "20"
					},
					"t_mapping(t_address,t_array(t_struct(Tweet)226_storage)dyn_storage)": {
						"encoding": "mapping",
						"key": "t_address",
						"label": "mapping(address => struct Twitter.Tweet[])",
						"numberOfBytes": "32",
						"value": "t_array(t_struct(Tweet)226_storage)dyn_storage"
					},
					"t_string_storage": {
						"encoding": "bytes",
						"label": "string",
						"numberOfBytes": "32"
					},
					"t_struct(Tweet)226_storage": {
						"encoding": "inplace",
						"label": "struct Twitter.Tweet",
						"members": [
							{
								"astId": 209,
								"contract": "contracts/Twitter0.9v(main).sol:Twitter",
								"label": "id",
								"offset": 0,
								"slot": "0",
								"type": "t_uint256"
							},
							{
								"astId": 211,
								"contract": "contracts/Twitter0.9v(main).sol:Twitter",
								"label": "content",
								"offset": 0,
								"slot": "1",
								"type": "t_string_storage"
							},
							{
								"astId": 213,
								"contract": "contracts/Twitter0.9v(main).sol:Twitter",
								"label": "author",
								"offset": 0,
								"slot": "2",
								"type": "t_address"
							},
							{
								"astId": 215,
								"contract": "contracts/Twitter0.9v(main).sol:Twitter",
								"label": "timestamp",
								"offset": 0,
								"slot": "3",
								"type": "t_uint256"
							},
							{
								"astId": 218,
								"contract": "contracts/Twitter0.9v(main).sol:Twitter",
								"label": "likes",
								"offset": 0,
								"slot": "4",
								"type": "t_array(t_address)dyn_storage"
							},
							{
								"astId": 220,
								"contract": "contracts/Twitter0.9v(main).sol:Twitter",
								"label": "LikesCount",
								"offset": 0,
								"slot": "5",
								"type": "t_uint256"
							},
							{
								"astId": 222,
								"contract": "contracts/Twitter0.9v(main).sol:Twitter",
								"label": "unlikescount",
								"offset": 0,
								"slot": "6",
								"type": "t_uint256"
							},
							{
								"astId": 225,
								"contract": "contracts/Twitter0.9v(main).sol:Twitter",
								"label": "unlikes",
								"offset": 0,
								"slot": "7",
								"type": "t_array(t_address)dyn_storage"
							}
						],
						"numberOfBytes": "256"
					},
					"t_uint256": {
						"encoding": "inplace",
						"label": "uint256",
						"numberOfBytes": "32"
					}
				}
			},
			"userdoc": {
				"kind": "user",
				"methods": {},
				"version": 1
			}
		}
	}
}