{
	"contracts/Twitter0.2v.sol": {
		"Twitter": {
			"abi": [
				{
					"inputs": [],
					"name": "DeleteAllTweets",
					"outputs": [],
					"stateMutability": "nonpayable",
					"type": "function"
				},
				{
					"inputs": [],
					"name": "DeleteRecentTweet",
					"outputs": [],
					"stateMutability": "nonpayable",
					"type": "function"
				},
				{
					"inputs": [],
					"name": "GetAllTweets",
					"outputs": [
						{
							"components": [
								{
									"internalType": "string",
									"name": "content",
									"type": "string"
								},
								{
									"internalType": "address",
									"name": "author",
									"type": "address"
								},
								{
									"internalType": "uint256",
									"name": "timestamp",
									"type": "uint256"
								},
								{
									"internalType": "address[]",
									"name": "likes",
									"type": "address[]"
								},
								{
									"internalType": "uint256",
									"name": "LikesCount",
									"type": "uint256"
								}
							],
							"internalType": "struct Twitter.Tweet[]",
							"name": "",
							"type": "tuple[]"
						}
					],
					"stateMutability": "view",
					"type": "function"
				},
				{
					"inputs": [
						{
							"internalType": "address",
							"name": "User",
							"type": "address"
						},
						{
							"internalType": "uint256",
							"name": "Index",
							"type": "uint256"
						}
					],
					"name": "GetTweet",
					"outputs": [
						{
							"components": [
								{
									"internalType": "string",
									"name": "content",
									"type": "string"
								},
								{
									"internalType": "address",
									"name": "author",
									"type": "address"
								},
								{
									"internalType": "uint256",
									"name": "timestamp",
									"type": "uint256"
								},
								{
									"internalType": "address[]",
									"name": "likes",
									"type": "address[]"
								},
								{
									"internalType": "uint256",
									"name": "LikesCount",
									"type": "uint256"
								}
							],
							"internalType": "struct Twitter.Tweet",
							"name": "",
							"type": "tuple"
						}
					],
					"stateMutability": "view",
					"type": "function"
				},
				{
					"inputs": [
						{
							"internalType": "address",
							"name": "User",
							"type": "address"
						},
						{
							"internalType": "uint256",
							"name": "TweetIndex",
							"type": "uint256"
						}
					],
					"name": "GiveLikes",
					"outputs": [],
					"stateMutability": "nonpayable",
					"type": "function"
				},
				{
					"inputs": [
						{
							"internalType": "string",
							"name": "_tweet",
							"type": "string"
						}
					],
					"name": "createTweet",
					"outputs": [],
					"stateMutability": "nonpayable",
					"type": "function"
				}
			],
			"devdoc": {
				"kind": "dev",
				"methods": {},
				"version": 1
			},
			"evm": {
				"assembly": "    /* \"contracts/Twitter0.2v.sol\":319:1743  contract Twitter... */\n  mstore(0x40, 0x80)\n  callvalue\n  dup1\n  iszero\n  tag_1\n  jumpi\n  0x00\n  dup1\n  revert\ntag_1:\n  pop\n  dataSize(sub_0)\n  dup1\n  dataOffset(sub_0)\n  0x00\n  codecopy\n  0x00\n  return\nstop\n\nsub_0: assembly {\n        /* \"contracts/Twitter0.2v.sol\":319:1743  contract Twitter... */\n      mstore(0x40, 0x80)\n      callvalue\n      dup1\n      iszero\n      tag_1\n      jumpi\n      0x00\n      dup1\n      revert\n    tag_1:\n      pop\n      jumpi(tag_2, lt(calldatasize, 0x04))\n      shr(0xe0, calldataload(0x00))\n      dup1\n      0x0362d52e\n      eq\n      tag_3\n      jumpi\n      dup1\n      0x37f36a4c\n      eq\n      tag_4\n      jumpi\n      dup1\n      0x42d7fbc0\n      eq\n      tag_5\n      jumpi\n      dup1\n      0x71e7eb12\n      eq\n      tag_6\n      jumpi\n      dup1\n      0x765fab45\n      eq\n      tag_7\n      jumpi\n      dup1\n      0x7c9cd2bc\n      eq\n      tag_8\n      jumpi\n    tag_2:\n      0x00\n      dup1\n      revert\n        /* \"contracts/Twitter0.2v.sol\":1542:1732  function GiveLikes(address User,uint256 TweetIndex)public ... */\n    tag_3:\n      tag_9\n      0x04\n      dup1\n      calldatasize\n      sub\n      dup2\n      add\n      swap1\n      tag_10\n      swap2\n      swap1\n      tag_11\n      jump\t// in\n    tag_10:\n      tag_12\n      jump\t// in\n    tag_9:\n      stop\n        /* \"contracts/Twitter0.2v.sol\":1217:1350  function GetTweet(address User,uint Index)public view returns (Tweet memory)... */\n    tag_4:\n      tag_13\n      0x04\n      dup1\n      calldatasize\n      sub\n      dup2\n      add\n      swap1\n      tag_14\n      swap2\n      swap1\n      tag_11\n      jump\t// in\n    tag_14:\n      tag_15\n      jump\t// in\n    tag_13:\n      mload(0x40)\n      tag_16\n      swap2\n      swap1\n      tag_17\n      jump\t// in\n    tag_16:\n      mload(0x40)\n      dup1\n      swap2\n      sub\n      swap1\n      return\n        /* \"contracts/Twitter0.2v.sol\":1096:1209  function GetAllTweets() public view returns(Tweet[] memory)... */\n    tag_5:\n      tag_18\n      tag_19\n      jump\t// in\n    tag_18:\n      mload(0x40)\n      tag_20\n      swap2\n      swap1\n      tag_21\n      jump\t// in\n    tag_20:\n      mload(0x40)\n      dup1\n      swap2\n      sub\n      swap1\n      return\n        /* \"contracts/Twitter0.2v.sol\":1358:1445  function DeleteRecentTweet()public... */\n    tag_6:\n      tag_22\n      tag_23\n      jump\t// in\n    tag_22:\n      stop\n        /* \"contracts/Twitter0.2v.sol\":1453:1534  function DeleteAllTweets()public {... */\n    tag_7:\n      tag_24\n      tag_25\n      jump\t// in\n    tag_24:\n      stop\n        /* \"contracts/Twitter0.2v.sol\":601:1088  function createTweet(string memory _tweet) public {... */\n    tag_8:\n      tag_26\n      0x04\n      dup1\n      calldatasize\n      sub\n      dup2\n      add\n      swap1\n      tag_27\n      swap2\n      swap1\n      tag_28\n      jump\t// in\n    tag_27:\n      tag_29\n      jump\t// in\n    tag_26:\n      stop\n        /* \"contracts/Twitter0.2v.sol\":1542:1732  function GiveLikes(address User,uint256 TweetIndex)public ... */\n    tag_12:\n        /* \"contracts/Twitter0.2v.sol\":1617:1627  Tweet_info */\n      0x01\n        /* \"contracts/Twitter0.2v.sol\":1617:1633  Tweet_info[User] */\n      0x00\n        /* \"contracts/Twitter0.2v.sol\":1628:1632  User */\n      dup4\n        /* \"contracts/Twitter0.2v.sol\":1617:1633  Tweet_info[User] */\n      0xffffffffffffffffffffffffffffffffffffffff\n      and\n      0xffffffffffffffffffffffffffffffffffffffff\n      and\n      dup2\n      mstore\n      0x20\n      add\n      swap1\n      dup2\n      mstore\n      0x20\n      add\n      0x00\n      keccak256\n        /* \"contracts/Twitter0.2v.sol\":1645:1646  1 */\n      0x01\n        /* \"contracts/Twitter0.2v.sol\":1634:1644  TweetIndex */\n      dup3\n        /* \"contracts/Twitter0.2v.sol\":1634:1646  TweetIndex-1 */\n      tag_31\n      swap2\n      swap1\n      tag_32\n      jump\t// in\n    tag_31:\n        /* \"contracts/Twitter0.2v.sol\":1617:1647  Tweet_info[User][TweetIndex-1] */\n      dup2\n      sload\n      dup2\n      lt\n      tag_33\n      jumpi\n      tag_34\n      tag_35\n      jump\t// in\n    tag_34:\n    tag_33:\n      swap1\n      0x00\n      mstore\n      keccak256(0x00, 0x20)\n      swap1\n      0x05\n      mul\n      add\n        /* \"contracts/Twitter0.2v.sol\":1617:1653  Tweet_info[User][TweetIndex-1].likes */\n      0x03\n      add\n        /* \"contracts/Twitter0.2v.sol\":1659:1669  msg.sender */\n      caller\n        /* \"contracts/Twitter0.2v.sol\":1617:1670  Tweet_info[User][TweetIndex-1].likes.push(msg.sender) */\n      swap1\n      dup1\n      0x01\n      dup2\n      sload\n      add\n      dup1\n      dup3\n      sstore\n      dup1\n      swap2\n      pop\n      pop\n      0x01\n      swap1\n      sub\n      swap1\n      0x00\n      mstore\n      keccak256(0x00, 0x20)\n      add\n      0x00\n      swap1\n      swap2\n      swap1\n      swap2\n      swap1\n      swap2\n      0x0100\n      exp\n      dup2\n      sload\n      dup2\n      0xffffffffffffffffffffffffffffffffffffffff\n      mul\n      not\n      and\n      swap1\n      dup4\n      0xffffffffffffffffffffffffffffffffffffffff\n      and\n      mul\n      or\n      swap1\n      sstore\n      pop\n        /* \"contracts/Twitter0.2v.sol\":1681:1691  Tweet_info */\n      0x01\n        /* \"contracts/Twitter0.2v.sol\":1681:1697  Tweet_info[User] */\n      0x00\n        /* \"contracts/Twitter0.2v.sol\":1692:1696  User */\n      dup4\n        /* \"contracts/Twitter0.2v.sol\":1681:1697  Tweet_info[User] */\n      0xffffffffffffffffffffffffffffffffffffffff\n      and\n      0xffffffffffffffffffffffffffffffffffffffff\n      and\n      dup2\n      mstore\n      0x20\n      add\n      swap1\n      dup2\n      mstore\n      0x20\n      add\n      0x00\n      keccak256\n        /* \"contracts/Twitter0.2v.sol\":1709:1710  1 */\n      0x01\n        /* \"contracts/Twitter0.2v.sol\":1698:1708  TweetIndex */\n      dup3\n        /* \"contracts/Twitter0.2v.sol\":1698:1710  TweetIndex-1 */\n      tag_38\n      swap2\n      swap1\n      tag_32\n      jump\t// in\n    tag_38:\n        /* \"contracts/Twitter0.2v.sol\":1681:1711  Tweet_info[User][TweetIndex-1] */\n      dup2\n      sload\n      dup2\n      lt\n      tag_39\n      jumpi\n      tag_40\n      tag_35\n      jump\t// in\n    tag_40:\n    tag_39:\n      swap1\n      0x00\n      mstore\n      keccak256(0x00, 0x20)\n      swap1\n      0x05\n      mul\n      add\n        /* \"contracts/Twitter0.2v.sol\":1681:1722  Tweet_info[User][TweetIndex-1].LikesCount */\n      0x04\n      add\n      0x00\n        /* \"contracts/Twitter0.2v.sol\":1681:1724  Tweet_info[User][TweetIndex-1].LikesCount++ */\n      dup2\n      sload\n      dup1\n      swap3\n      swap2\n      swap1\n      tag_42\n      swap1\n      tag_43\n      jump\t// in\n    tag_42:\n      swap2\n      swap1\n      pop\n      sstore\n      pop\n        /* \"contracts/Twitter0.2v.sol\":1542:1732  function GiveLikes(address User,uint256 TweetIndex)public ... */\n      pop\n      pop\n      jump\t// out\n        /* \"contracts/Twitter0.2v.sol\":1217:1350  function GetTweet(address User,uint Index)public view returns (Tweet memory)... */\n    tag_15:\n        /* \"contracts/Twitter0.2v.sol\":1280:1292  Tweet memory */\n      tag_44\n      tag_45\n      jump\t// in\n    tag_44:\n        /* \"contracts/Twitter0.2v.sol\":1317:1327  Tweet_info */\n      0x01\n        /* \"contracts/Twitter0.2v.sol\":1317:1333  Tweet_info[User] */\n      0x00\n        /* \"contracts/Twitter0.2v.sol\":1328:1332  User */\n      dup5\n        /* \"contracts/Twitter0.2v.sol\":1317:1333  Tweet_info[User] */\n      0xffffffffffffffffffffffffffffffffffffffff\n      and\n      0xffffffffffffffffffffffffffffffffffffffff\n      and\n      dup2\n      mstore\n      0x20\n      add\n      swap1\n      dup2\n      mstore\n      0x20\n      add\n      0x00\n      keccak256\n        /* \"contracts/Twitter0.2v.sol\":1340:1341  1 */\n      0x01\n        /* \"contracts/Twitter0.2v.sol\":1334:1339  Index */\n      dup4\n        /* \"contracts/Twitter0.2v.sol\":1334:1341  Index-1 */\n      tag_47\n      swap2\n      swap1\n      tag_32\n      jump\t// in\n    tag_47:\n        /* \"contracts/Twitter0.2v.sol\":1317:1342  Tweet_info[User][Index-1] */\n      dup2\n      sload\n      dup2\n      lt\n      tag_48\n      jumpi\n      tag_49\n      tag_35\n      jump\t// in\n    tag_49:\n    tag_48:\n      swap1\n      0x00\n      mstore\n      keccak256(0x00, 0x20)\n      swap1\n      0x05\n      mul\n      add\n        /* \"contracts/Twitter0.2v.sol\":1310:1342  return Tweet_info[User][Index-1] */\n      mload(0x40)\n      dup1\n      0xa0\n      add\n      0x40\n      mstore\n      swap1\n      dup2\n      0x00\n      dup3\n      add\n      dup1\n      sload\n      tag_51\n      swap1\n      tag_52\n      jump\t// in\n    tag_51:\n      dup1\n      0x1f\n      add\n      0x20\n      dup1\n      swap2\n      div\n      mul\n      0x20\n      add\n      mload(0x40)\n      swap1\n      dup2\n      add\n      0x40\n      mstore\n      dup1\n      swap3\n      swap2\n      swap1\n      dup2\n      dup2\n      mstore\n      0x20\n      add\n      dup3\n      dup1\n      sload\n      tag_53\n      swap1\n      tag_52\n      jump\t// in\n    tag_53:\n      dup1\n      iszero\n      tag_54\n      jumpi\n      dup1\n      0x1f\n      lt\n      tag_55\n      jumpi\n      0x0100\n      dup1\n      dup4\n      sload\n      div\n      mul\n      dup4\n      mstore\n      swap2\n      0x20\n      add\n      swap2\n      jump(tag_54)\n    tag_55:\n      dup3\n      add\n      swap2\n      swap1\n      0x00\n      mstore\n      keccak256(0x00, 0x20)\n      swap1\n    tag_56:\n      dup2\n      sload\n      dup2\n      mstore\n      swap1\n      0x01\n      add\n      swap1\n      0x20\n      add\n      dup1\n      dup4\n      gt\n      tag_56\n      jumpi\n      dup3\n      swap1\n      sub\n      0x1f\n      and\n      dup3\n      add\n      swap2\n    tag_54:\n      pop\n      pop\n      pop\n      pop\n      pop\n      dup2\n      mstore\n      0x20\n      add\n      0x01\n      dup3\n      add\n      0x00\n      swap1\n      sload\n      swap1\n      0x0100\n      exp\n      swap1\n      div\n      0xffffffffffffffffffffffffffffffffffffffff\n      and\n      0xffffffffffffffffffffffffffffffffffffffff\n      and\n      0xffffffffffffffffffffffffffffffffffffffff\n      and\n      dup2\n      mstore\n      0x20\n      add\n      0x02\n      dup3\n      add\n      sload\n      dup2\n      mstore\n      0x20\n      add\n      0x03\n      dup3\n      add\n      dup1\n      sload\n      dup1\n      0x20\n      mul\n      0x20\n      add\n      mload(0x40)\n      swap1\n      dup2\n      add\n      0x40\n      mstore\n      dup1\n      swap3\n      swap2\n      swap1\n      dup2\n      dup2\n      mstore\n      0x20\n      add\n      dup3\n      dup1\n      sload\n      dup1\n      iszero\n      tag_57\n      jumpi\n      0x20\n      mul\n      dup3\n      add\n      swap2\n      swap1\n      0x00\n      mstore\n      keccak256(0x00, 0x20)\n      swap1\n    tag_58:\n      dup2\n      0x00\n      swap1\n      sload\n      swap1\n      0x0100\n      exp\n      swap1\n      div\n      0xffffffffffffffffffffffffffffffffffffffff\n      and\n      0xffffffffffffffffffffffffffffffffffffffff\n      and\n      dup2\n      mstore\n      0x20\n      add\n      swap1\n      0x01\n      add\n      swap1\n      dup1\n      dup4\n      gt\n      tag_58\n      jumpi\n    tag_57:\n      pop\n      pop\n      pop\n      pop\n      pop\n      dup2\n      mstore\n      0x20\n      add\n      0x04\n      dup3\n      add\n      sload\n      dup2\n      mstore\n      pop\n      pop\n      swap1\n      pop\n        /* \"contracts/Twitter0.2v.sol\":1217:1350  function GetTweet(address User,uint Index)public view returns (Tweet memory)... */\n      swap3\n      swap2\n      pop\n      pop\n      jump\t// out\n        /* \"contracts/Twitter0.2v.sol\":1096:1209  function GetAllTweets() public view returns(Tweet[] memory)... */\n    tag_19:\n        /* \"contracts/Twitter0.2v.sol\":1140:1154  Tweet[] memory */\n      0x60\n        /* \"contracts/Twitter0.2v.sol\":1179:1189  Tweet_info */\n      0x01\n        /* \"contracts/Twitter0.2v.sol\":1179:1201  Tweet_info[msg.sender] */\n      0x00\n        /* \"contracts/Twitter0.2v.sol\":1190:1200  msg.sender */\n      caller\n        /* \"contracts/Twitter0.2v.sol\":1179:1201  Tweet_info[msg.sender] */\n      0xffffffffffffffffffffffffffffffffffffffff\n      and\n      0xffffffffffffffffffffffffffffffffffffffff\n      and\n      dup2\n      mstore\n      0x20\n      add\n      swap1\n      dup2\n      mstore\n      0x20\n      add\n      0x00\n      keccak256\n        /* \"contracts/Twitter0.2v.sol\":1172:1201  return Tweet_info[msg.sender] */\n      dup1\n      sload\n      dup1\n      0x20\n      mul\n      0x20\n      add\n      mload(0x40)\n      swap1\n      dup2\n      add\n      0x40\n      mstore\n      dup1\n      swap3\n      swap2\n      swap1\n      dup2\n      dup2\n      mstore\n      0x20\n      add\n      0x00\n      swap1\n    tag_60:\n      dup3\n      dup3\n      lt\n      iszero\n      tag_61\n      jumpi\n      dup4\n      dup3\n      swap1\n      0x00\n      mstore\n      keccak256(0x00, 0x20)\n      swap1\n      0x05\n      mul\n      add\n      mload(0x40)\n      dup1\n      0xa0\n      add\n      0x40\n      mstore\n      swap1\n      dup2\n      0x00\n      dup3\n      add\n      dup1\n      sload\n      tag_63\n      swap1\n      tag_52\n      jump\t// in\n    tag_63:\n      dup1\n      0x1f\n      add\n      0x20\n      dup1\n      swap2\n      div\n      mul\n      0x20\n      add\n      mload(0x40)\n      swap1\n      dup2\n      add\n      0x40\n      mstore\n      dup1\n      swap3\n      swap2\n      swap1\n      dup2\n      dup2\n      mstore\n      0x20\n      add\n      dup3\n      dup1\n      sload\n      tag_64\n      swap1\n      tag_52\n      jump\t// in\n    tag_64:\n      dup1\n      iszero\n      tag_65\n      jumpi\n      dup1\n      0x1f\n      lt\n      tag_66\n      jumpi\n      0x0100\n      dup1\n      dup4\n      sload\n      div\n      mul\n      dup4\n      mstore\n      swap2\n      0x20\n      add\n      swap2\n      jump(tag_65)\n    tag_66:\n      dup3\n      add\n      swap2\n      swap1\n      0x00\n      mstore\n      keccak256(0x00, 0x20)\n      swap1\n    tag_67:\n      dup2\n      sload\n      dup2\n      mstore\n      swap1\n      0x01\n      add\n      swap1\n      0x20\n      add\n      dup1\n      dup4\n      gt\n      tag_67\n      jumpi\n      dup3\n      swap1\n      sub\n      0x1f\n      and\n      dup3\n      add\n      swap2\n    tag_65:\n      pop\n      pop\n      pop\n      pop\n      pop\n      dup2\n      mstore\n      0x20\n      add\n      0x01\n      dup3\n      add\n      0x00\n      swap1\n      sload\n      swap1\n      0x0100\n      exp\n      swap1\n      div\n      0xffffffffffffffffffffffffffffffffffffffff\n      and\n      0xffffffffffffffffffffffffffffffffffffffff\n      and\n      0xffffffffffffffffffffffffffffffffffffffff\n      and\n      dup2\n      mstore\n      0x20\n      add\n      0x02\n      dup3\n      add\n      sload\n      dup2\n      mstore\n      0x20\n      add\n      0x03\n      dup3\n      add\n      dup1\n      sload\n      dup1\n      0x20\n      mul\n      0x20\n      add\n      mload(0x40)\n      swap1\n      dup2\n      add\n      0x40\n      mstore\n      dup1\n      swap3\n      swap2\n      swap1\n      dup2\n      dup2\n      mstore\n      0x20\n      add\n      dup3\n      dup1\n      sload\n      dup1\n      iszero\n      tag_68\n      jumpi\n      0x20\n      mul\n      dup3\n      add\n      swap2\n      swap1\n      0x00\n      mstore\n      keccak256(0x00, 0x20)\n      swap1\n    tag_69:\n      dup2\n      0x00\n      swap1\n      sload\n      swap1\n      0x0100\n      exp\n      swap1\n      div\n      0xffffffffffffffffffffffffffffffffffffffff\n      and\n      0xffffffffffffffffffffffffffffffffffffffff\n      and\n      dup2\n      mstore\n      0x20\n      add\n      swap1\n      0x01\n      add\n      swap1\n      dup1\n      dup4\n      gt\n      tag_69\n      jumpi\n    tag_68:\n      pop\n      pop\n      pop\n      pop\n      pop\n      dup2\n      mstore\n      0x20\n      add\n      0x04\n      dup3\n      add\n      sload\n      dup2\n      mstore\n      pop\n      pop\n      dup2\n      mstore\n      0x20\n      add\n      swap1\n      0x01\n      add\n      swap1\n      jump(tag_60)\n    tag_61:\n      pop\n      pop\n      pop\n      pop\n      swap1\n      pop\n        /* \"contracts/Twitter0.2v.sol\":1096:1209  function GetAllTweets() public view returns(Tweet[] memory)... */\n      swap1\n      jump\t// out\n        /* \"contracts/Twitter0.2v.sol\":1358:1445  function DeleteRecentTweet()public... */\n    tag_23:\n        /* \"contracts/Twitter0.2v.sol\":1409:1419  Tweet_info */\n      0x01\n        /* \"contracts/Twitter0.2v.sol\":1409:1431  Tweet_info[msg.sender] */\n      0x00\n        /* \"contracts/Twitter0.2v.sol\":1420:1430  msg.sender */\n      caller\n        /* \"contracts/Twitter0.2v.sol\":1409:1431  Tweet_info[msg.sender] */\n      0xffffffffffffffffffffffffffffffffffffffff\n      and\n      0xffffffffffffffffffffffffffffffffffffffff\n      and\n      dup2\n      mstore\n      0x20\n      add\n      swap1\n      dup2\n      mstore\n      0x20\n      add\n      0x00\n      keccak256\n        /* \"contracts/Twitter0.2v.sol\":1409:1437  Tweet_info[msg.sender].pop() */\n      dup1\n      sload\n      dup1\n      tag_71\n      jumpi\n      tag_72\n      tag_73\n      jump\t// in\n    tag_72:\n    tag_71:\n      0x01\n      swap1\n      sub\n      dup2\n      dup2\n      swap1\n      0x00\n      mstore\n      keccak256(0x00, 0x20)\n      swap1\n      0x05\n      mul\n      add\n      0x00\n      dup1\n      dup3\n      add\n      0x00\n      tag_75\n      swap2\n      swap1\n      tag_76\n      jump\t// in\n    tag_75:\n      0x01\n      dup3\n      add\n      exp(0x0100, 0x00)\n      dup2\n      sload\n      swap1\n      0xffffffffffffffffffffffffffffffffffffffff\n      mul\n      not\n      and\n      swap1\n      sstore\n      0x02\n      dup3\n      add\n      0x00\n      swap1\n      sstore\n      0x03\n      dup3\n      add\n      0x00\n      tag_77\n      swap2\n      swap1\n      tag_78\n      jump\t// in\n    tag_77:\n      0x04\n      dup3\n      add\n      0x00\n      swap1\n      sstore\n      pop\n      pop\n      swap1\n      sstore\n        /* \"contracts/Twitter0.2v.sol\":1358:1445  function DeleteRecentTweet()public... */\n      jump\t// out\n        /* \"contracts/Twitter0.2v.sol\":1453:1534  function DeleteAllTweets()public {... */\n    tag_25:\n        /* \"contracts/Twitter0.2v.sol\":1504:1514  Tweet_info */\n      0x01\n        /* \"contracts/Twitter0.2v.sol\":1504:1526  Tweet_info[msg.sender] */\n      0x00\n        /* \"contracts/Twitter0.2v.sol\":1515:1525  msg.sender */\n      caller\n        /* \"contracts/Twitter0.2v.sol\":1504:1526  Tweet_info[msg.sender] */\n      0xffffffffffffffffffffffffffffffffffffffff\n      and\n      0xffffffffffffffffffffffffffffffffffffffff\n      and\n      dup2\n      mstore\n      0x20\n      add\n      swap1\n      dup2\n      mstore\n      0x20\n      add\n      0x00\n      keccak256\n      0x00\n        /* \"contracts/Twitter0.2v.sol\":1497:1526  delete Tweet_info[msg.sender] */\n      tag_80\n      swap2\n      swap1\n      tag_81\n      jump\t// in\n    tag_80:\n        /* \"contracts/Twitter0.2v.sol\":1453:1534  function DeleteAllTweets()public {... */\n      jump\t// out\n        /* \"contracts/Twitter0.2v.sol\":601:1088  function createTweet(string memory _tweet) public {... */\n    tag_29:\n        /* \"contracts/Twitter0.2v.sol\":837:858  Tweet memory NewTweet */\n      0x00\n        /* \"contracts/Twitter0.2v.sol\":861:1030  Tweet({... */\n      mload(0x40)\n      dup1\n      0xa0\n      add\n      0x40\n      mstore\n      dup1\n        /* \"contracts/Twitter0.2v.sol\":890:896  _tweet */\n      dup4\n        /* \"contracts/Twitter0.2v.sol\":861:1030  Tweet({... */\n      dup2\n      mstore\n      0x20\n      add\n        /* \"contracts/Twitter0.2v.sol\":918:928  msg.sender */\n      caller\n        /* \"contracts/Twitter0.2v.sol\":861:1030  Tweet({... */\n      0xffffffffffffffffffffffffffffffffffffffff\n      and\n      dup2\n      mstore\n      0x20\n      add\n        /* \"contracts/Twitter0.2v.sol\":953:968  block.timestamp */\n      timestamp\n        /* \"contracts/Twitter0.2v.sol\":861:1030  Tweet({... */\n      dup2\n      mstore\n      0x20\n      add\n        /* \"contracts/Twitter0.2v.sol\":989:991  li */\n      0x00\n        /* \"contracts/Twitter0.2v.sol\":861:1030  Tweet({... */\n      dup1\n      sload\n      dup1\n      0x20\n      mul\n      0x20\n      add\n      mload(0x40)\n      swap1\n      dup2\n      add\n      0x40\n      mstore\n      dup1\n      swap3\n      swap2\n      swap1\n      dup2\n      dup2\n      mstore\n      0x20\n      add\n      dup3\n      dup1\n      sload\n      dup1\n      iszero\n      tag_83\n      jumpi\n      0x20\n      mul\n      dup3\n      add\n      swap2\n      swap1\n      0x00\n      mstore\n      keccak256(0x00, 0x20)\n      swap1\n    tag_84:\n      dup2\n      0x00\n      swap1\n      sload\n      swap1\n      0x0100\n      exp\n      swap1\n      div\n      0xffffffffffffffffffffffffffffffffffffffff\n      and\n      0xffffffffffffffffffffffffffffffffffffffff\n      and\n      dup2\n      mstore\n      0x20\n      add\n      swap1\n      0x01\n      add\n      swap1\n      dup1\n      dup4\n      gt\n      tag_84\n      jumpi\n    tag_83:\n      pop\n      pop\n      pop\n      pop\n      pop\n      dup2\n      mstore\n      0x20\n      add\n        /* \"contracts/Twitter0.2v.sol\":1017:1018  0 */\n      0x00\n        /* \"contracts/Twitter0.2v.sol\":861:1030  Tweet({... */\n      dup2\n      mstore\n      pop\n        /* \"contracts/Twitter0.2v.sol\":837:1030  Tweet memory NewTweet = Tweet({... */\n      swap1\n      pop\n        /* \"contracts/Twitter0.2v.sol\":1043:1053  Tweet_info */\n      0x01\n        /* \"contracts/Twitter0.2v.sol\":1043:1065  Tweet_info[msg.sender] */\n      0x00\n        /* \"contracts/Twitter0.2v.sol\":1054:1064  msg.sender */\n      caller\n        /* \"contracts/Twitter0.2v.sol\":1043:1065  Tweet_info[msg.sender] */\n      0xffffffffffffffffffffffffffffffffffffffff\n      and\n      0xffffffffffffffffffffffffffffffffffffffff\n      and\n      dup2\n      mstore\n      0x20\n      add\n      swap1\n      dup2\n      mstore\n      0x20\n      add\n      0x00\n      keccak256\n        /* \"contracts/Twitter0.2v.sol\":1071:1079  NewTweet */\n      dup2\n        /* \"contracts/Twitter0.2v.sol\":1043:1080  Tweet_info[msg.sender].push(NewTweet) */\n      swap1\n      dup1\n      0x01\n      dup2\n      sload\n      add\n      dup1\n      dup3\n      sstore\n      dup1\n      swap2\n      pop\n      pop\n      0x01\n      swap1\n      sub\n      swap1\n      0x00\n      mstore\n      keccak256(0x00, 0x20)\n      swap1\n      0x05\n      mul\n      add\n      0x00\n      swap1\n      swap2\n      swap1\n      swap2\n      swap1\n      swap2\n      pop\n      0x00\n      dup3\n      add\n      mload\n      dup2\n      0x00\n      add\n      swap1\n      dup2\n      tag_86\n      swap2\n      swap1\n      tag_87\n      jump\t// in\n    tag_86:\n      pop\n      0x20\n      dup3\n      add\n      mload\n      dup2\n      0x01\n      add\n      exp(0x0100, 0x00)\n      dup2\n      sload\n      dup2\n      0xffffffffffffffffffffffffffffffffffffffff\n      mul\n      not\n      and\n      swap1\n      dup4\n      0xffffffffffffffffffffffffffffffffffffffff\n      and\n      mul\n      or\n      swap1\n      sstore\n      pop\n      0x40\n      dup3\n      add\n      mload\n      dup2\n      0x02\n      add\n      sstore\n      0x60\n      dup3\n      add\n      mload\n      dup2\n      0x03\n      add\n      swap1\n      dup1\n      mload\n      swap1\n      0x20\n      add\n      swap1\n      tag_88\n      swap3\n      swap2\n      swap1\n      tag_89\n      jump\t// in\n    tag_88:\n      pop\n      0x80\n      dup3\n      add\n      mload\n      dup2\n      0x04\n      add\n      sstore\n      pop\n      pop\n        /* \"contracts/Twitter0.2v.sol\":651:1088  {... */\n      pop\n        /* \"contracts/Twitter0.2v.sol\":601:1088  function createTweet(string memory _tweet) public {... */\n      pop\n      jump\t// out\n    tag_45:\n      mload(0x40)\n      dup1\n      0xa0\n      add\n      0x40\n      mstore\n      dup1\n      0x60\n      dup2\n      mstore\n      0x20\n      add\n      and(0xffffffffffffffffffffffffffffffffffffffff, 0x00)\n      dup2\n      mstore\n      0x20\n      add\n      0x00\n      dup2\n      mstore\n      0x20\n      add\n      0x60\n      dup2\n      mstore\n      0x20\n      add\n      0x00\n      dup2\n      mstore\n      pop\n      swap1\n      jump\t// out\n    tag_76:\n      pop\n      dup1\n      sload\n      tag_90\n      swap1\n      tag_52\n      jump\t// in\n    tag_90:\n      0x00\n      dup3\n      sstore\n      dup1\n      0x1f\n      lt\n      tag_92\n      jumpi\n      pop\n      jump(tag_91)\n    tag_92:\n      0x1f\n      add\n      0x20\n      swap1\n      div\n      swap1\n      0x00\n      mstore\n      keccak256(0x00, 0x20)\n      swap1\n      dup2\n      add\n      swap1\n      tag_93\n      swap2\n      swap1\n      tag_94\n      jump\t// in\n    tag_93:\n    tag_91:\n      pop\n      jump\t// out\n    tag_78:\n      pop\n      dup1\n      sload\n      0x00\n      dup3\n      sstore\n      swap1\n      0x00\n      mstore\n      keccak256(0x00, 0x20)\n      swap1\n      dup2\n      add\n      swap1\n      tag_96\n      swap2\n      swap1\n      tag_94\n      jump\t// in\n    tag_96:\n      pop\n      jump\t// out\n    tag_81:\n      pop\n      dup1\n      sload\n      0x00\n      dup3\n      sstore\n      0x05\n      mul\n      swap1\n      0x00\n      mstore\n      keccak256(0x00, 0x20)\n      swap1\n      dup2\n      add\n      swap1\n      tag_98\n      swap2\n      swap1\n      tag_99\n      jump\t// in\n    tag_98:\n      pop\n      jump\t// out\n    tag_89:\n      dup3\n      dup1\n      sload\n      dup3\n      dup3\n      sstore\n      swap1\n      0x00\n      mstore\n      keccak256(0x00, 0x20)\n      swap1\n      dup2\n      add\n      swap3\n      dup3\n      iszero\n      tag_100\n      jumpi\n      swap2\n      0x20\n      mul\n      dup3\n      add\n    tag_101:\n      dup3\n      dup2\n      gt\n      iszero\n      tag_102\n      jumpi\n      dup3\n      mload\n      dup3\n      exp(0x0100, 0x00)\n      dup2\n      sload\n      dup2\n      0xffffffffffffffffffffffffffffffffffffffff\n      mul\n      not\n      and\n      swap1\n      dup4\n      0xffffffffffffffffffffffffffffffffffffffff\n      and\n      mul\n      or\n      swap1\n      sstore\n      pop\n      swap2\n      0x20\n      add\n      swap2\n      swap1\n      0x01\n      add\n      swap1\n      jump(tag_101)\n    tag_102:\n    tag_100:\n      pop\n      swap1\n      pop\n      tag_103\n      swap2\n      swap1\n      tag_94\n      jump\t// in\n    tag_103:\n      pop\n      swap1\n      jump\t// out\n    tag_94:\n    tag_104:\n      dup1\n      dup3\n      gt\n      iszero\n      tag_105\n      jumpi\n      0x00\n      dup2\n      0x00\n      swap1\n      sstore\n      pop\n      0x01\n      add\n      jump(tag_104)\n    tag_105:\n      pop\n      swap1\n      jump\t// out\n    tag_99:\n    tag_106:\n      dup1\n      dup3\n      gt\n      iszero\n      tag_107\n      jumpi\n      0x00\n      dup1\n      dup3\n      add\n      0x00\n      tag_108\n      swap2\n      swap1\n      tag_76\n      jump\t// in\n    tag_108:\n      0x01\n      dup3\n      add\n      exp(0x0100, 0x00)\n      dup2\n      sload\n      swap1\n      0xffffffffffffffffffffffffffffffffffffffff\n      mul\n      not\n      and\n      swap1\n      sstore\n      0x02\n      dup3\n      add\n      0x00\n      swap1\n      sstore\n      0x03\n      dup3\n      add\n      0x00\n      tag_109\n      swap2\n      swap1\n      tag_78\n      jump\t// in\n    tag_109:\n      0x04\n      dup3\n      add\n      0x00\n      swap1\n      sstore\n      pop\n      0x05\n      add\n      jump(tag_106)\n    tag_107:\n      pop\n      swap1\n      jump\t// out\n        /* \"#utility.yul\":7:82   */\n    tag_110:\n        /* \"#utility.yul\":40:46   */\n      0x00\n        /* \"#utility.yul\":73:75   */\n      0x40\n        /* \"#utility.yul\":67:76   */\n      mload\n        /* \"#utility.yul\":57:76   */\n      swap1\n      pop\n        /* \"#utility.yul\":7:82   */\n      swap1\n      jump\t// out\n        /* \"#utility.yul\":88:205   */\n    tag_111:\n        /* \"#utility.yul\":197:198   */\n      0x00\n        /* \"#utility.yul\":194:195   */\n      dup1\n        /* \"#utility.yul\":187:199   */\n      revert\n        /* \"#utility.yul\":211:328   */\n    tag_112:\n        /* \"#utility.yul\":320:321   */\n      0x00\n        /* \"#utility.yul\":317:318   */\n      dup1\n        /* \"#utility.yul\":310:322   */\n      revert\n        /* \"#utility.yul\":334:460   */\n    tag_113:\n        /* \"#utility.yul\":371:378   */\n      0x00\n        /* \"#utility.yul\":411:453   */\n      0xffffffffffffffffffffffffffffffffffffffff\n        /* \"#utility.yul\":404:409   */\n      dup3\n        /* \"#utility.yul\":400:454   */\n      and\n        /* \"#utility.yul\":389:454   */\n      swap1\n      pop\n        /* \"#utility.yul\":334:460   */\n      swap2\n      swap1\n      pop\n      jump\t// out\n        /* \"#utility.yul\":466:562   */\n    tag_114:\n        /* \"#utility.yul\":503:510   */\n      0x00\n        /* \"#utility.yul\":532:556   */\n      tag_173\n        /* \"#utility.yul\":550:555   */\n      dup3\n        /* \"#utility.yul\":532:556   */\n      tag_113\n      jump\t// in\n    tag_173:\n        /* \"#utility.yul\":521:556   */\n      swap1\n      pop\n        /* \"#utility.yul\":466:562   */\n      swap2\n      swap1\n      pop\n      jump\t// out\n        /* \"#utility.yul\":568:690   */\n    tag_115:\n        /* \"#utility.yul\":641:665   */\n      tag_175\n        /* \"#utility.yul\":659:664   */\n      dup2\n        /* \"#utility.yul\":641:665   */\n      tag_114\n      jump\t// in\n    tag_175:\n        /* \"#utility.yul\":634:639   */\n      dup2\n        /* \"#utility.yul\":631:666   */\n      eq\n        /* \"#utility.yul\":621:684   */\n      tag_176\n      jumpi\n        /* \"#utility.yul\":680:681   */\n      0x00\n        /* \"#utility.yul\":677:678   */\n      dup1\n        /* \"#utility.yul\":670:682   */\n      revert\n        /* \"#utility.yul\":621:684   */\n    tag_176:\n        /* \"#utility.yul\":568:690   */\n      pop\n      jump\t// out\n        /* \"#utility.yul\":696:835   */\n    tag_116:\n        /* \"#utility.yul\":742:747   */\n      0x00\n        /* \"#utility.yul\":780:786   */\n      dup2\n        /* \"#utility.yul\":767:787   */\n      calldataload\n        /* \"#utility.yul\":758:787   */\n      swap1\n      pop\n        /* \"#utility.yul\":796:829   */\n      tag_178\n        /* \"#utility.yul\":823:828   */\n      dup2\n        /* \"#utility.yul\":796:829   */\n      tag_115\n      jump\t// in\n    tag_178:\n        /* \"#utility.yul\":696:835   */\n      swap3\n      swap2\n      pop\n      pop\n      jump\t// out\n        /* \"#utility.yul\":841:918   */\n    tag_117:\n        /* \"#utility.yul\":878:885   */\n      0x00\n        /* \"#utility.yul\":907:912   */\n      dup2\n        /* \"#utility.yul\":896:912   */\n      swap1\n      pop\n        /* \"#utility.yul\":841:918   */\n      swap2\n      swap1\n      pop\n      jump\t// out\n        /* \"#utility.yul\":924:1046   */\n    tag_118:\n        /* \"#utility.yul\":997:1021   */\n      tag_181\n        /* \"#utility.yul\":1015:1020   */\n      dup2\n        /* \"#utility.yul\":997:1021   */\n      tag_117\n      jump\t// in\n    tag_181:\n        /* \"#utility.yul\":990:995   */\n      dup2\n        /* \"#utility.yul\":987:1022   */\n      eq\n        /* \"#utility.yul\":977:1040   */\n      tag_182\n      jumpi\n        /* \"#utility.yul\":1036:1037   */\n      0x00\n        /* \"#utility.yul\":1033:1034   */\n      dup1\n        /* \"#utility.yul\":1026:1038   */\n      revert\n        /* \"#utility.yul\":977:1040   */\n    tag_182:\n        /* \"#utility.yul\":924:1046   */\n      pop\n      jump\t// out\n        /* \"#utility.yul\":1052:1191   */\n    tag_119:\n        /* \"#utility.yul\":1098:1103   */\n      0x00\n        /* \"#utility.yul\":1136:1142   */\n      dup2\n        /* \"#utility.yul\":1123:1143   */\n      calldataload\n        /* \"#utility.yul\":1114:1143   */\n      swap1\n      pop\n        /* \"#utility.yul\":1152:1185   */\n      tag_184\n        /* \"#utility.yul\":1179:1184   */\n      dup2\n        /* \"#utility.yul\":1152:1185   */\n      tag_118\n      jump\t// in\n    tag_184:\n        /* \"#utility.yul\":1052:1191   */\n      swap3\n      swap2\n      pop\n      pop\n      jump\t// out\n        /* \"#utility.yul\":1197:1671   */\n    tag_11:\n        /* \"#utility.yul\":1265:1271   */\n      0x00\n        /* \"#utility.yul\":1273:1279   */\n      dup1\n        /* \"#utility.yul\":1322:1324   */\n      0x40\n        /* \"#utility.yul\":1310:1319   */\n      dup4\n        /* \"#utility.yul\":1301:1308   */\n      dup6\n        /* \"#utility.yul\":1297:1320   */\n      sub\n        /* \"#utility.yul\":1293:1325   */\n      slt\n        /* \"#utility.yul\":1290:1409   */\n      iszero\n      tag_186\n      jumpi\n        /* \"#utility.yul\":1328:1407   */\n      tag_187\n      tag_111\n      jump\t// in\n    tag_187:\n        /* \"#utility.yul\":1290:1409   */\n    tag_186:\n        /* \"#utility.yul\":1448:1449   */\n      0x00\n        /* \"#utility.yul\":1473:1526   */\n      tag_188\n        /* \"#utility.yul\":1518:1525   */\n      dup6\n        /* \"#utility.yul\":1509:1515   */\n      dup3\n        /* \"#utility.yul\":1498:1507   */\n      dup7\n        /* \"#utility.yul\":1494:1516   */\n      add\n        /* \"#utility.yul\":1473:1526   */\n      tag_116\n      jump\t// in\n    tag_188:\n        /* \"#utility.yul\":1463:1526   */\n      swap3\n      pop\n        /* \"#utility.yul\":1419:1536   */\n      pop\n        /* \"#utility.yul\":1575:1577   */\n      0x20\n        /* \"#utility.yul\":1601:1654   */\n      tag_189\n        /* \"#utility.yul\":1646:1653   */\n      dup6\n        /* \"#utility.yul\":1637:1643   */\n      dup3\n        /* \"#utility.yul\":1626:1635   */\n      dup7\n        /* \"#utility.yul\":1622:1644   */\n      add\n        /* \"#utility.yul\":1601:1654   */\n      tag_119\n      jump\t// in\n    tag_189:\n        /* \"#utility.yul\":1591:1654   */\n      swap2\n      pop\n        /* \"#utility.yul\":1546:1664   */\n      pop\n        /* \"#utility.yul\":1197:1671   */\n      swap3\n      pop\n      swap3\n      swap1\n      pop\n      jump\t// out\n        /* \"#utility.yul\":1677:1776   */\n    tag_120:\n        /* \"#utility.yul\":1729:1735   */\n      0x00\n        /* \"#utility.yul\":1763:1768   */\n      dup2\n        /* \"#utility.yul\":1757:1769   */\n      mload\n        /* \"#utility.yul\":1747:1769   */\n      swap1\n      pop\n        /* \"#utility.yul\":1677:1776   */\n      swap2\n      swap1\n      pop\n      jump\t// out\n        /* \"#utility.yul\":1782:1941   */\n    tag_121:\n        /* \"#utility.yul\":1856:1867   */\n      0x00\n        /* \"#utility.yul\":1890:1896   */\n      dup3\n        /* \"#utility.yul\":1885:1888   */\n      dup3\n        /* \"#utility.yul\":1878:1897   */\n      mstore\n        /* \"#utility.yul\":1930:1934   */\n      0x20\n        /* \"#utility.yul\":1925:1928   */\n      dup3\n        /* \"#utility.yul\":1921:1935   */\n      add\n        /* \"#utility.yul\":1906:1935   */\n      swap1\n      pop\n        /* \"#utility.yul\":1782:1941   */\n      swap3\n      swap2\n      pop\n      pop\n      jump\t// out\n        /* \"#utility.yul\":1947:2193   */\n    tag_122:\n        /* \"#utility.yul\":2028:2029   */\n      0x00\n        /* \"#utility.yul\":2038:2151   */\n    tag_193:\n        /* \"#utility.yul\":2052:2058   */\n      dup4\n        /* \"#utility.yul\":2049:2050   */\n      dup2\n        /* \"#utility.yul\":2046:2059   */\n      lt\n        /* \"#utility.yul\":2038:2151   */\n      iszero\n      tag_195\n      jumpi\n        /* \"#utility.yul\":2137:2138   */\n      dup1\n        /* \"#utility.yul\":2132:2135   */\n      dup3\n        /* \"#utility.yul\":2128:2139   */\n      add\n        /* \"#utility.yul\":2122:2140   */\n      mload\n        /* \"#utility.yul\":2118:2119   */\n      dup2\n        /* \"#utility.yul\":2113:2116   */\n      dup5\n        /* \"#utility.yul\":2109:2120   */\n      add\n        /* \"#utility.yul\":2102:2141   */\n      mstore\n        /* \"#utility.yul\":2074:2076   */\n      0x20\n        /* \"#utility.yul\":2071:2072   */\n      dup2\n        /* \"#utility.yul\":2067:2077   */\n      add\n        /* \"#utility.yul\":2062:2077   */\n      swap1\n      pop\n        /* \"#utility.yul\":2038:2151   */\n      jump(tag_193)\n    tag_195:\n        /* \"#utility.yul\":2185:2186   */\n      0x00\n        /* \"#utility.yul\":2176:2182   */\n      dup5\n        /* \"#utility.yul\":2171:2174   */\n      dup5\n        /* \"#utility.yul\":2167:2183   */\n      add\n        /* \"#utility.yul\":2160:2187   */\n      mstore\n        /* \"#utility.yul\":2009:2193   */\n      pop\n        /* \"#utility.yul\":1947:2193   */\n      pop\n      pop\n      pop\n      jump\t// out\n        /* \"#utility.yul\":2199:2301   */\n    tag_123:\n        /* \"#utility.yul\":2240:2246   */\n      0x00\n        /* \"#utility.yul\":2291:2293   */\n      0x1f\n        /* \"#utility.yul\":2287:2294   */\n      not\n        /* \"#utility.yul\":2282:2284   */\n      0x1f\n        /* \"#utility.yul\":2275:2280   */\n      dup4\n        /* \"#utility.yul\":2271:2285   */\n      add\n        /* \"#utility.yul\":2267:2295   */\n      and\n        /* \"#utility.yul\":2257:2295   */\n      swap1\n      pop\n        /* \"#utility.yul\":2199:2301   */\n      swap2\n      swap1\n      pop\n      jump\t// out\n        /* \"#utility.yul\":2307:2664   */\n    tag_124:\n        /* \"#utility.yul\":2385:2388   */\n      0x00\n        /* \"#utility.yul\":2413:2452   */\n      tag_198\n        /* \"#utility.yul\":2446:2451   */\n      dup3\n        /* \"#utility.yul\":2413:2452   */\n      tag_120\n      jump\t// in\n    tag_198:\n        /* \"#utility.yul\":2468:2529   */\n      tag_199\n        /* \"#utility.yul\":2522:2528   */\n      dup2\n        /* \"#utility.yul\":2517:2520   */\n      dup6\n        /* \"#utility.yul\":2468:2529   */\n      tag_121\n      jump\t// in\n    tag_199:\n        /* \"#utility.yul\":2461:2529   */\n      swap4\n      pop\n        /* \"#utility.yul\":2538:2603   */\n      tag_200\n        /* \"#utility.yul\":2596:2602   */\n      dup2\n        /* \"#utility.yul\":2591:2594   */\n      dup6\n        /* \"#utility.yul\":2584:2588   */\n      0x20\n        /* \"#utility.yul\":2577:2582   */\n      dup7\n        /* \"#utility.yul\":2573:2589   */\n      add\n        /* \"#utility.yul\":2538:2603   */\n      tag_122\n      jump\t// in\n    tag_200:\n        /* \"#utility.yul\":2628:2657   */\n      tag_201\n        /* \"#utility.yul\":2650:2656   */\n      dup2\n        /* \"#utility.yul\":2628:2657   */\n      tag_123\n      jump\t// in\n    tag_201:\n        /* \"#utility.yul\":2623:2626   */\n      dup5\n        /* \"#utility.yul\":2619:2658   */\n      add\n        /* \"#utility.yul\":2612:2658   */\n      swap2\n      pop\n        /* \"#utility.yul\":2389:2664   */\n      pop\n        /* \"#utility.yul\":2307:2664   */\n      swap3\n      swap2\n      pop\n      pop\n      jump\t// out\n        /* \"#utility.yul\":2670:2778   */\n    tag_125:\n        /* \"#utility.yul\":2747:2771   */\n      tag_203\n        /* \"#utility.yul\":2765:2770   */\n      dup2\n        /* \"#utility.yul\":2747:2771   */\n      tag_114\n      jump\t// in\n    tag_203:\n        /* \"#utility.yul\":2742:2745   */\n      dup3\n        /* \"#utility.yul\":2735:2772   */\n      mstore\n        /* \"#utility.yul\":2670:2778   */\n      pop\n      pop\n      jump\t// out\n        /* \"#utility.yul\":2784:2892   */\n    tag_126:\n        /* \"#utility.yul\":2861:2885   */\n      tag_205\n        /* \"#utility.yul\":2879:2884   */\n      dup2\n        /* \"#utility.yul\":2861:2885   */\n      tag_117\n      jump\t// in\n    tag_205:\n        /* \"#utility.yul\":2856:2859   */\n      dup3\n        /* \"#utility.yul\":2849:2886   */\n      mstore\n        /* \"#utility.yul\":2784:2892   */\n      pop\n      pop\n      jump\t// out\n        /* \"#utility.yul\":2898:3012   */\n    tag_127:\n        /* \"#utility.yul\":2965:2971   */\n      0x00\n        /* \"#utility.yul\":2999:3004   */\n      dup2\n        /* \"#utility.yul\":2993:3005   */\n      mload\n        /* \"#utility.yul\":2983:3005   */\n      swap1\n      pop\n        /* \"#utility.yul\":2898:3012   */\n      swap2\n      swap1\n      pop\n      jump\t// out\n        /* \"#utility.yul\":3018:3192   */\n    tag_128:\n        /* \"#utility.yul\":3107:3118   */\n      0x00\n        /* \"#utility.yul\":3141:3147   */\n      dup3\n        /* \"#utility.yul\":3136:3139   */\n      dup3\n        /* \"#utility.yul\":3129:3148   */\n      mstore\n        /* \"#utility.yul\":3181:3185   */\n      0x20\n        /* \"#utility.yul\":3176:3179   */\n      dup3\n        /* \"#utility.yul\":3172:3186   */\n      add\n        /* \"#utility.yul\":3157:3186   */\n      swap1\n      pop\n        /* \"#utility.yul\":3018:3192   */\n      swap3\n      swap2\n      pop\n      pop\n      jump\t// out\n        /* \"#utility.yul\":3198:3330   */\n    tag_129:\n        /* \"#utility.yul\":3265:3269   */\n      0x00\n        /* \"#utility.yul\":3288:3291   */\n      dup2\n        /* \"#utility.yul\":3280:3291   */\n      swap1\n      pop\n        /* \"#utility.yul\":3318:3322   */\n      0x20\n        /* \"#utility.yul\":3313:3316   */\n      dup3\n        /* \"#utility.yul\":3309:3323   */\n      add\n        /* \"#utility.yul\":3301:3323   */\n      swap1\n      pop\n        /* \"#utility.yul\":3198:3330   */\n      swap2\n      swap1\n      pop\n      jump\t// out\n        /* \"#utility.yul\":3336:3515   */\n    tag_130:\n        /* \"#utility.yul\":3405:3415   */\n      0x00\n        /* \"#utility.yul\":3426:3472   */\n      tag_210\n        /* \"#utility.yul\":3468:3471   */\n      dup4\n        /* \"#utility.yul\":3460:3466   */\n      dup4\n        /* \"#utility.yul\":3426:3472   */\n      tag_125\n      jump\t// in\n    tag_210:\n        /* \"#utility.yul\":3504:3508   */\n      0x20\n        /* \"#utility.yul\":3499:3502   */\n      dup4\n        /* \"#utility.yul\":3495:3509   */\n      add\n        /* \"#utility.yul\":3481:3509   */\n      swap1\n      pop\n        /* \"#utility.yul\":3336:3515   */\n      swap3\n      swap2\n      pop\n      pop\n      jump\t// out\n        /* \"#utility.yul\":3521:3634   */\n    tag_131:\n        /* \"#utility.yul\":3591:3595   */\n      0x00\n        /* \"#utility.yul\":3623:3627   */\n      0x20\n        /* \"#utility.yul\":3618:3621   */\n      dup3\n        /* \"#utility.yul\":3614:3628   */\n      add\n        /* \"#utility.yul\":3606:3628   */\n      swap1\n      pop\n        /* \"#utility.yul\":3521:3634   */\n      swap2\n      swap1\n      pop\n      jump\t// out\n        /* \"#utility.yul\":3670:4382   */\n    tag_132:\n        /* \"#utility.yul\":3779:3782   */\n      0x00\n        /* \"#utility.yul\":3808:3862   */\n      tag_213\n        /* \"#utility.yul\":3856:3861   */\n      dup3\n        /* \"#utility.yul\":3808:3862   */\n      tag_127\n      jump\t// in\n    tag_213:\n        /* \"#utility.yul\":3878:3954   */\n      tag_214\n        /* \"#utility.yul\":3947:3953   */\n      dup2\n        /* \"#utility.yul\":3942:3945   */\n      dup6\n        /* \"#utility.yul\":3878:3954   */\n      tag_128\n      jump\t// in\n    tag_214:\n        /* \"#utility.yul\":3871:3954   */\n      swap4\n      pop\n        /* \"#utility.yul\":3978:4034   */\n      tag_215\n        /* \"#utility.yul\":4028:4033   */\n      dup4\n        /* \"#utility.yul\":3978:4034   */\n      tag_129\n      jump\t// in\n    tag_215:\n        /* \"#utility.yul\":4057:4064   */\n      dup1\n        /* \"#utility.yul\":4088:4089   */\n      0x00\n        /* \"#utility.yul\":4073:4357   */\n    tag_216:\n        /* \"#utility.yul\":4098:4104   */\n      dup4\n        /* \"#utility.yul\":4095:4096   */\n      dup2\n        /* \"#utility.yul\":4092:4105   */\n      lt\n        /* \"#utility.yul\":4073:4357   */\n      iszero\n      tag_218\n      jumpi\n        /* \"#utility.yul\":4174:4180   */\n      dup2\n        /* \"#utility.yul\":4168:4181   */\n      mload\n        /* \"#utility.yul\":4201:4264   */\n      tag_219\n        /* \"#utility.yul\":4260:4263   */\n      dup9\n        /* \"#utility.yul\":4245:4258   */\n      dup3\n        /* \"#utility.yul\":4201:4264   */\n      tag_130\n      jump\t// in\n    tag_219:\n        /* \"#utility.yul\":4194:4264   */\n      swap8\n      pop\n        /* \"#utility.yul\":4287:4347   */\n      tag_220\n        /* \"#utility.yul\":4340:4346   */\n      dup4\n        /* \"#utility.yul\":4287:4347   */\n      tag_131\n      jump\t// in\n    tag_220:\n        /* \"#utility.yul\":4277:4347   */\n      swap3\n      pop\n        /* \"#utility.yul\":4133:4357   */\n      pop\n        /* \"#utility.yul\":4120:4121   */\n      0x01\n        /* \"#utility.yul\":4117:4118   */\n      dup2\n        /* \"#utility.yul\":4113:4122   */\n      add\n        /* \"#utility.yul\":4108:4122   */\n      swap1\n      pop\n        /* \"#utility.yul\":4073:4357   */\n      jump(tag_216)\n    tag_218:\n        /* \"#utility.yul\":4077:4091   */\n      pop\n        /* \"#utility.yul\":4373:4376   */\n      dup6\n        /* \"#utility.yul\":4366:4376   */\n      swap4\n      pop\n        /* \"#utility.yul\":3784:4382   */\n      pop\n      pop\n      pop\n        /* \"#utility.yul\":3670:4382   */\n      swap3\n      swap2\n      pop\n      pop\n      jump\t// out\n        /* \"#utility.yul\":4440:5678   */\n    tag_133:\n        /* \"#utility.yul\":4551:4554   */\n      0x00\n        /* \"#utility.yul\":4587:4591   */\n      0xa0\n        /* \"#utility.yul\":4582:4585   */\n      dup4\n        /* \"#utility.yul\":4578:4592   */\n      add\n        /* \"#utility.yul\":4677:4681   */\n      0x00\n        /* \"#utility.yul\":4670:4675   */\n      dup4\n        /* \"#utility.yul\":4666:4682   */\n      add\n        /* \"#utility.yul\":4660:4683   */\n      mload\n        /* \"#utility.yul\":4730:4733   */\n      dup5\n        /* \"#utility.yul\":4724:4728   */\n      dup3\n        /* \"#utility.yul\":4720:4734   */\n      sub\n        /* \"#utility.yul\":4713:4717   */\n      0x00\n        /* \"#utility.yul\":4708:4711   */\n      dup7\n        /* \"#utility.yul\":4704:4718   */\n      add\n        /* \"#utility.yul\":4697:4735   */\n      mstore\n        /* \"#utility.yul\":4756:4829   */\n      tag_222\n        /* \"#utility.yul\":4824:4828   */\n      dup3\n        /* \"#utility.yul\":4810:4822   */\n      dup3\n        /* \"#utility.yul\":4756:4829   */\n      tag_124\n      jump\t// in\n    tag_222:\n        /* \"#utility.yul\":4748:4829   */\n      swap2\n      pop\n        /* \"#utility.yul\":4602:4840   */\n      pop\n        /* \"#utility.yul\":4924:4928   */\n      0x20\n        /* \"#utility.yul\":4917:4922   */\n      dup4\n        /* \"#utility.yul\":4913:4929   */\n      add\n        /* \"#utility.yul\":4907:4930   */\n      mload\n        /* \"#utility.yul\":4943:5006   */\n      tag_223\n        /* \"#utility.yul\":5000:5004   */\n      0x20\n        /* \"#utility.yul\":4995:4998   */\n      dup7\n        /* \"#utility.yul\":4991:5005   */\n      add\n        /* \"#utility.yul\":4977:4989   */\n      dup3\n        /* \"#utility.yul\":4943:5006   */\n      tag_125\n      jump\t// in\n    tag_223:\n        /* \"#utility.yul\":4850:5016   */\n      pop\n        /* \"#utility.yul\":5103:5107   */\n      0x40\n        /* \"#utility.yul\":5096:5101   */\n      dup4\n        /* \"#utility.yul\":5092:5108   */\n      add\n        /* \"#utility.yul\":5086:5109   */\n      mload\n        /* \"#utility.yul\":5122:5185   */\n      tag_224\n        /* \"#utility.yul\":5179:5183   */\n      0x40\n        /* \"#utility.yul\":5174:5177   */\n      dup7\n        /* \"#utility.yul\":5170:5184   */\n      add\n        /* \"#utility.yul\":5156:5168   */\n      dup3\n        /* \"#utility.yul\":5122:5185   */\n      tag_126\n      jump\t// in\n    tag_224:\n        /* \"#utility.yul\":5026:5195   */\n      pop\n        /* \"#utility.yul\":5278:5282   */\n      0x60\n        /* \"#utility.yul\":5271:5276   */\n      dup4\n        /* \"#utility.yul\":5267:5283   */\n      add\n        /* \"#utility.yul\":5261:5284   */\n      mload\n        /* \"#utility.yul\":5331:5334   */\n      dup5\n        /* \"#utility.yul\":5325:5329   */\n      dup3\n        /* \"#utility.yul\":5321:5335   */\n      sub\n        /* \"#utility.yul\":5314:5318   */\n      0x60\n        /* \"#utility.yul\":5309:5312   */\n      dup7\n        /* \"#utility.yul\":5305:5319   */\n      add\n        /* \"#utility.yul\":5298:5336   */\n      mstore\n        /* \"#utility.yul\":5357:5460   */\n      tag_225\n        /* \"#utility.yul\":5455:5459   */\n      dup3\n        /* \"#utility.yul\":5441:5453   */\n      dup3\n        /* \"#utility.yul\":5357:5460   */\n      tag_132\n      jump\t// in\n    tag_225:\n        /* \"#utility.yul\":5349:5460   */\n      swap2\n      pop\n        /* \"#utility.yul\":5205:5471   */\n      pop\n        /* \"#utility.yul\":5559:5563   */\n      0x80\n        /* \"#utility.yul\":5552:5557   */\n      dup4\n        /* \"#utility.yul\":5548:5564   */\n      add\n        /* \"#utility.yul\":5542:5565   */\n      mload\n        /* \"#utility.yul\":5578:5641   */\n      tag_226\n        /* \"#utility.yul\":5635:5639   */\n      0x80\n        /* \"#utility.yul\":5630:5633   */\n      dup7\n        /* \"#utility.yul\":5626:5640   */\n      add\n        /* \"#utility.yul\":5612:5624   */\n      dup3\n        /* \"#utility.yul\":5578:5641   */\n      tag_126\n      jump\t// in\n    tag_226:\n        /* \"#utility.yul\":5481:5651   */\n      pop\n        /* \"#utility.yul\":5668:5672   */\n      dup1\n        /* \"#utility.yul\":5661:5672   */\n      swap2\n      pop\n        /* \"#utility.yul\":4556:5678   */\n      pop\n        /* \"#utility.yul\":4440:5678   */\n      swap3\n      swap2\n      pop\n      pop\n      jump\t// out\n        /* \"#utility.yul\":5684:6041   */\n    tag_17:\n        /* \"#utility.yul\":5819:5823   */\n      0x00\n        /* \"#utility.yul\":5857:5859   */\n      0x20\n        /* \"#utility.yul\":5846:5855   */\n      dup3\n        /* \"#utility.yul\":5842:5860   */\n      add\n        /* \"#utility.yul\":5834:5860   */\n      swap1\n      pop\n        /* \"#utility.yul\":5906:5915   */\n      dup2\n        /* \"#utility.yul\":5900:5904   */\n      dup2\n        /* \"#utility.yul\":5896:5916   */\n      sub\n        /* \"#utility.yul\":5892:5893   */\n      0x00\n        /* \"#utility.yul\":5881:5890   */\n      dup4\n        /* \"#utility.yul\":5877:5894   */\n      add\n        /* \"#utility.yul\":5870:5917   */\n      mstore\n        /* \"#utility.yul\":5934:6034   */\n      tag_228\n        /* \"#utility.yul\":6029:6033   */\n      dup2\n        /* \"#utility.yul\":6020:6026   */\n      dup5\n        /* \"#utility.yul\":5934:6034   */\n      tag_133\n      jump\t// in\n    tag_228:\n        /* \"#utility.yul\":5926:6034   */\n      swap1\n      pop\n        /* \"#utility.yul\":5684:6041   */\n      swap3\n      swap2\n      pop\n      pop\n      jump\t// out\n        /* \"#utility.yul\":6047:6182   */\n    tag_134:\n        /* \"#utility.yul\":6135:6141   */\n      0x00\n        /* \"#utility.yul\":6169:6174   */\n      dup2\n        /* \"#utility.yul\":6163:6175   */\n      mload\n        /* \"#utility.yul\":6153:6175   */\n      swap1\n      pop\n        /* \"#utility.yul\":6047:6182   */\n      swap2\n      swap1\n      pop\n      jump\t// out\n        /* \"#utility.yul\":6188:6393   */\n    tag_135:\n        /* \"#utility.yul\":6308:6319   */\n      0x00\n        /* \"#utility.yul\":6342:6348   */\n      dup3\n        /* \"#utility.yul\":6337:6340   */\n      dup3\n        /* \"#utility.yul\":6330:6349   */\n      mstore\n        /* \"#utility.yul\":6382:6386   */\n      0x20\n        /* \"#utility.yul\":6377:6380   */\n      dup3\n        /* \"#utility.yul\":6373:6387   */\n      add\n        /* \"#utility.yul\":6358:6387   */\n      swap1\n      pop\n        /* \"#utility.yul\":6188:6393   */\n      swap3\n      swap2\n      pop\n      pop\n      jump\t// out\n        /* \"#utility.yul\":6399:6552   */\n    tag_136:\n        /* \"#utility.yul\":6487:6491   */\n      0x00\n        /* \"#utility.yul\":6510:6513   */\n      dup2\n        /* \"#utility.yul\":6502:6513   */\n      swap1\n      pop\n        /* \"#utility.yul\":6540:6544   */\n      0x20\n        /* \"#utility.yul\":6535:6538   */\n      dup3\n        /* \"#utility.yul\":6531:6545   */\n      add\n        /* \"#utility.yul\":6523:6545   */\n      swap1\n      pop\n        /* \"#utility.yul\":6399:6552   */\n      swap2\n      swap1\n      pop\n      jump\t// out\n        /* \"#utility.yul\":6610:7838   */\n    tag_137:\n        /* \"#utility.yul\":6711:6714   */\n      0x00\n        /* \"#utility.yul\":6747:6751   */\n      0xa0\n        /* \"#utility.yul\":6742:6745   */\n      dup4\n        /* \"#utility.yul\":6738:6752   */\n      add\n        /* \"#utility.yul\":6837:6841   */\n      0x00\n        /* \"#utility.yul\":6830:6835   */\n      dup4\n        /* \"#utility.yul\":6826:6842   */\n      add\n        /* \"#utility.yul\":6820:6843   */\n      mload\n        /* \"#utility.yul\":6890:6893   */\n      dup5\n        /* \"#utility.yul\":6884:6888   */\n      dup3\n        /* \"#utility.yul\":6880:6894   */\n      sub\n        /* \"#utility.yul\":6873:6877   */\n      0x00\n        /* \"#utility.yul\":6868:6871   */\n      dup7\n        /* \"#utility.yul\":6864:6878   */\n      add\n        /* \"#utility.yul\":6857:6895   */\n      mstore\n        /* \"#utility.yul\":6916:6989   */\n      tag_233\n        /* \"#utility.yul\":6984:6988   */\n      dup3\n        /* \"#utility.yul\":6970:6982   */\n      dup3\n        /* \"#utility.yul\":6916:6989   */\n      tag_124\n      jump\t// in\n    tag_233:\n        /* \"#utility.yul\":6908:6989   */\n      swap2\n      pop\n        /* \"#utility.yul\":6762:7000   */\n      pop\n        /* \"#utility.yul\":7084:7088   */\n      0x20\n        /* \"#utility.yul\":7077:7082   */\n      dup4\n        /* \"#utility.yul\":7073:7089   */\n      add\n        /* \"#utility.yul\":7067:7090   */\n      mload\n        /* \"#utility.yul\":7103:7166   */\n      tag_234\n        /* \"#utility.yul\":7160:7164   */\n      0x20\n        /* \"#utility.yul\":7155:7158   */\n      dup7\n        /* \"#utility.yul\":7151:7165   */\n      add\n        /* \"#utility.yul\":7137:7149   */\n      dup3\n        /* \"#utility.yul\":7103:7166   */\n      tag_125\n      jump\t// in\n    tag_234:\n        /* \"#utility.yul\":7010:7176   */\n      pop\n        /* \"#utility.yul\":7263:7267   */\n      0x40\n        /* \"#utility.yul\":7256:7261   */\n      dup4\n        /* \"#utility.yul\":7252:7268   */\n      add\n        /* \"#utility.yul\":7246:7269   */\n      mload\n        /* \"#utility.yul\":7282:7345   */\n      tag_235\n        /* \"#utility.yul\":7339:7343   */\n      0x40\n        /* \"#utility.yul\":7334:7337   */\n      dup7\n        /* \"#utility.yul\":7330:7344   */\n      add\n        /* \"#utility.yul\":7316:7328   */\n      dup3\n        /* \"#utility.yul\":7282:7345   */\n      tag_126\n      jump\t// in\n    tag_235:\n        /* \"#utility.yul\":7186:7355   */\n      pop\n        /* \"#utility.yul\":7438:7442   */\n      0x60\n        /* \"#utility.yul\":7431:7436   */\n      dup4\n        /* \"#utility.yul\":7427:7443   */\n      add\n        /* \"#utility.yul\":7421:7444   */\n      mload\n        /* \"#utility.yul\":7491:7494   */\n      dup5\n        /* \"#utility.yul\":7485:7489   */\n      dup3\n        /* \"#utility.yul\":7481:7495   */\n      sub\n        /* \"#utility.yul\":7474:7478   */\n      0x60\n        /* \"#utility.yul\":7469:7472   */\n      dup7\n        /* \"#utility.yul\":7465:7479   */\n      add\n        /* \"#utility.yul\":7458:7496   */\n      mstore\n        /* \"#utility.yul\":7517:7620   */\n      tag_236\n        /* \"#utility.yul\":7615:7619   */\n      dup3\n        /* \"#utility.yul\":7601:7613   */\n      dup3\n        /* \"#utility.yul\":7517:7620   */\n      tag_132\n      jump\t// in\n    tag_236:\n        /* \"#utility.yul\":7509:7620   */\n      swap2\n      pop\n        /* \"#utility.yul\":7365:7631   */\n      pop\n        /* \"#utility.yul\":7719:7723   */\n      0x80\n        /* \"#utility.yul\":7712:7717   */\n      dup4\n        /* \"#utility.yul\":7708:7724   */\n      add\n        /* \"#utility.yul\":7702:7725   */\n      mload\n        /* \"#utility.yul\":7738:7801   */\n      tag_237\n        /* \"#utility.yul\":7795:7799   */\n      0x80\n        /* \"#utility.yul\":7790:7793   */\n      dup7\n        /* \"#utility.yul\":7786:7800   */\n      add\n        /* \"#utility.yul\":7772:7784   */\n      dup3\n        /* \"#utility.yul\":7738:7801   */\n      tag_126\n      jump\t// in\n    tag_237:\n        /* \"#utility.yul\":7641:7811   */\n      pop\n        /* \"#utility.yul\":7828:7832   */\n      dup1\n        /* \"#utility.yul\":7821:7832   */\n      swap2\n      pop\n        /* \"#utility.yul\":6716:7838   */\n      pop\n        /* \"#utility.yul\":6610:7838   */\n      swap3\n      swap2\n      pop\n      pop\n      jump\t// out\n        /* \"#utility.yul\":7844:8084   */\n    tag_138:\n        /* \"#utility.yul\":7955:7965   */\n      0x00\n        /* \"#utility.yul\":7990:8078   */\n      tag_239\n        /* \"#utility.yul\":8074:8077   */\n      dup4\n        /* \"#utility.yul\":8066:8072   */\n      dup4\n        /* \"#utility.yul\":7990:8078   */\n      tag_137\n      jump\t// in\n    tag_239:\n        /* \"#utility.yul\":7976:8078   */\n      swap1\n      pop\n        /* \"#utility.yul\":7844:8084   */\n      swap3\n      swap2\n      pop\n      pop\n      jump\t// out\n        /* \"#utility.yul\":8090:8224   */\n    tag_139:\n        /* \"#utility.yul\":8181:8185   */\n      0x00\n        /* \"#utility.yul\":8213:8217   */\n      0x20\n        /* \"#utility.yul\":8208:8211   */\n      dup3\n        /* \"#utility.yul\":8204:8218   */\n      add\n        /* \"#utility.yul\":8196:8218   */\n      swap1\n      pop\n        /* \"#utility.yul\":8090:8224   */\n      swap2\n      swap1\n      pop\n      jump\t// out\n        /* \"#utility.yul\":8286:9365   */\n    tag_140:\n        /* \"#utility.yul\":8447:8450   */\n      0x00\n        /* \"#utility.yul\":8476:8551   */\n      tag_242\n        /* \"#utility.yul\":8545:8550   */\n      dup3\n        /* \"#utility.yul\":8476:8551   */\n      tag_134\n      jump\t// in\n    tag_242:\n        /* \"#utility.yul\":8567:8674   */\n      tag_243\n        /* \"#utility.yul\":8667:8673   */\n      dup2\n        /* \"#utility.yul\":8662:8665   */\n      dup6\n        /* \"#utility.yul\":8567:8674   */\n      tag_135\n      jump\t// in\n    tag_243:\n        /* \"#utility.yul\":8560:8674   */\n      swap4\n      pop\n        /* \"#utility.yul\":8700:8703   */\n      dup4\n        /* \"#utility.yul\":8745:8749   */\n      0x20\n        /* \"#utility.yul\":8737:8743   */\n      dup3\n        /* \"#utility.yul\":8733:8750   */\n      mul\n        /* \"#utility.yul\":8728:8731   */\n      dup6\n        /* \"#utility.yul\":8724:8751   */\n      add\n        /* \"#utility.yul\":8775:8852   */\n      tag_244\n        /* \"#utility.yul\":8846:8851   */\n      dup6\n        /* \"#utility.yul\":8775:8852   */\n      tag_136\n      jump\t// in\n    tag_244:\n        /* \"#utility.yul\":8875:8882   */\n      dup1\n        /* \"#utility.yul\":8906:8907   */\n      0x00\n        /* \"#utility.yul\":8891:9320   */\n    tag_245:\n        /* \"#utility.yul\":8916:8922   */\n      dup6\n        /* \"#utility.yul\":8913:8914   */\n      dup2\n        /* \"#utility.yul\":8910:8923   */\n      lt\n        /* \"#utility.yul\":8891:9320   */\n      iszero\n      tag_247\n      jumpi\n        /* \"#utility.yul\":8987:8996   */\n      dup5\n        /* \"#utility.yul\":8981:8985   */\n      dup5\n        /* \"#utility.yul\":8977:8997   */\n      sub\n        /* \"#utility.yul\":8972:8975   */\n      dup10\n        /* \"#utility.yul\":8965:8998   */\n      mstore\n        /* \"#utility.yul\":9038:9044   */\n      dup2\n        /* \"#utility.yul\":9032:9045   */\n      mload\n        /* \"#utility.yul\":9066:9172   */\n      tag_248\n        /* \"#utility.yul\":9167:9171   */\n      dup6\n        /* \"#utility.yul\":9152:9165   */\n      dup3\n        /* \"#utility.yul\":9066:9172   */\n      tag_138\n      jump\t// in\n    tag_248:\n        /* \"#utility.yul\":9058:9172   */\n      swap5\n      pop\n        /* \"#utility.yul\":9195:9276   */\n      tag_249\n        /* \"#utility.yul\":9269:9275   */\n      dup4\n        /* \"#utility.yul\":9195:9276   */\n      tag_139\n      jump\t// in\n    tag_249:\n        /* \"#utility.yul\":9185:9276   */\n      swap3\n      pop\n        /* \"#utility.yul\":9305:9309   */\n      0x20\n        /* \"#utility.yul\":9300:9303   */\n      dup11\n        /* \"#utility.yul\":9296:9310   */\n      add\n        /* \"#utility.yul\":9289:9310   */\n      swap10\n      pop\n        /* \"#utility.yul\":8951:9320   */\n      pop\n        /* \"#utility.yul\":8938:8939   */\n      0x01\n        /* \"#utility.yul\":8935:8936   */\n      dup2\n        /* \"#utility.yul\":8931:8940   */\n      add\n        /* \"#utility.yul\":8926:8940   */\n      swap1\n      pop\n        /* \"#utility.yul\":8891:9320   */\n      jump(tag_245)\n    tag_247:\n        /* \"#utility.yul\":8895:8909   */\n      pop\n        /* \"#utility.yul\":9336:9340   */\n      dup3\n        /* \"#utility.yul\":9329:9340   */\n      swap8\n      pop\n        /* \"#utility.yul\":9356:9359   */\n      dup8\n        /* \"#utility.yul\":9349:9359   */\n      swap6\n      pop\n        /* \"#utility.yul\":8452:9365   */\n      pop\n      pop\n      pop\n      pop\n      pop\n        /* \"#utility.yul\":8286:9365   */\n      swap3\n      swap2\n      pop\n      pop\n      jump\t// out\n        /* \"#utility.yul\":9371:9828   */\n    tag_21:\n        /* \"#utility.yul\":9556:9560   */\n      0x00\n        /* \"#utility.yul\":9594:9596   */\n      0x20\n        /* \"#utility.yul\":9583:9592   */\n      dup3\n        /* \"#utility.yul\":9579:9597   */\n      add\n        /* \"#utility.yul\":9571:9597   */\n      swap1\n      pop\n        /* \"#utility.yul\":9643:9652   */\n      dup2\n        /* \"#utility.yul\":9637:9641   */\n      dup2\n        /* \"#utility.yul\":9633:9653   */\n      sub\n        /* \"#utility.yul\":9629:9630   */\n      0x00\n        /* \"#utility.yul\":9618:9627   */\n      dup4\n        /* \"#utility.yul\":9614:9631   */\n      add\n        /* \"#utility.yul\":9607:9654   */\n      mstore\n        /* \"#utility.yul\":9671:9821   */\n      tag_251\n        /* \"#utility.yul\":9816:9820   */\n      dup2\n        /* \"#utility.yul\":9807:9813   */\n      dup5\n        /* \"#utility.yul\":9671:9821   */\n      tag_140\n      jump\t// in\n    tag_251:\n        /* \"#utility.yul\":9663:9821   */\n      swap1\n      pop\n        /* \"#utility.yul\":9371:9828   */\n      swap3\n      swap2\n      pop\n      pop\n      jump\t// out\n        /* \"#utility.yul\":9834:9951   */\n    tag_141:\n        /* \"#utility.yul\":9943:9944   */\n      0x00\n        /* \"#utility.yul\":9940:9941   */\n      dup1\n        /* \"#utility.yul\":9933:9945   */\n      revert\n        /* \"#utility.yul\":9957:10074   */\n    tag_142:\n        /* \"#utility.yul\":10066:10067   */\n      0x00\n        /* \"#utility.yul\":10063:10064   */\n      dup1\n        /* \"#utility.yul\":10056:10068   */\n      revert\n        /* \"#utility.yul\":10080:10260   */\n    tag_143:\n        /* \"#utility.yul\":10128:10205   */\n      0x4e487b7100000000000000000000000000000000000000000000000000000000\n        /* \"#utility.yul\":10125:10126   */\n      0x00\n        /* \"#utility.yul\":10118:10206   */\n      mstore\n        /* \"#utility.yul\":10225:10229   */\n      0x41\n        /* \"#utility.yul\":10222:10223   */\n      0x04\n        /* \"#utility.yul\":10215:10230   */\n      mstore\n        /* \"#utility.yul\":10249:10253   */\n      0x24\n        /* \"#utility.yul\":10246:10247   */\n      0x00\n        /* \"#utility.yul\":10239:10254   */\n      revert\n        /* \"#utility.yul\":10266:10547   */\n    tag_144:\n        /* \"#utility.yul\":10349:10376   */\n      tag_256\n        /* \"#utility.yul\":10371:10375   */\n      dup3\n        /* \"#utility.yul\":10349:10376   */\n      tag_123\n      jump\t// in\n    tag_256:\n        /* \"#utility.yul\":10341:10347   */\n      dup2\n        /* \"#utility.yul\":10337:10377   */\n      add\n        /* \"#utility.yul\":10479:10485   */\n      dup2\n        /* \"#utility.yul\":10467:10477   */\n      dup2\n        /* \"#utility.yul\":10464:10486   */\n      lt\n        /* \"#utility.yul\":10443:10461   */\n      0xffffffffffffffff\n        /* \"#utility.yul\":10431:10441   */\n      dup3\n        /* \"#utility.yul\":10428:10462   */\n      gt\n        /* \"#utility.yul\":10425:10487   */\n      or\n        /* \"#utility.yul\":10422:10510   */\n      iszero\n      tag_257\n      jumpi\n        /* \"#utility.yul\":10490:10508   */\n      tag_258\n      tag_143\n      jump\t// in\n    tag_258:\n        /* \"#utility.yul\":10422:10510   */\n    tag_257:\n        /* \"#utility.yul\":10530:10540   */\n      dup1\n        /* \"#utility.yul\":10526:10528   */\n      0x40\n        /* \"#utility.yul\":10519:10541   */\n      mstore\n        /* \"#utility.yul\":10309:10547   */\n      pop\n        /* \"#utility.yul\":10266:10547   */\n      pop\n      pop\n      jump\t// out\n        /* \"#utility.yul\":10553:10682   */\n    tag_145:\n        /* \"#utility.yul\":10587:10593   */\n      0x00\n        /* \"#utility.yul\":10614:10634   */\n      tag_260\n      tag_110\n      jump\t// in\n    tag_260:\n        /* \"#utility.yul\":10604:10634   */\n      swap1\n      pop\n        /* \"#utility.yul\":10643:10676   */\n      tag_261\n        /* \"#utility.yul\":10671:10675   */\n      dup3\n        /* \"#utility.yul\":10663:10669   */\n      dup3\n        /* \"#utility.yul\":10643:10676   */\n      tag_144\n      jump\t// in\n    tag_261:\n        /* \"#utility.yul\":10553:10682   */\n      swap2\n      swap1\n      pop\n      jump\t// out\n        /* \"#utility.yul\":10688:10996   */\n    tag_146:\n        /* \"#utility.yul\":10750:10754   */\n      0x00\n        /* \"#utility.yul\":10840:10858   */\n      0xffffffffffffffff\n        /* \"#utility.yul\":10832:10838   */\n      dup3\n        /* \"#utility.yul\":10829:10859   */\n      gt\n        /* \"#utility.yul\":10826:10882   */\n      iszero\n      tag_263\n      jumpi\n        /* \"#utility.yul\":10862:10880   */\n      tag_264\n      tag_143\n      jump\t// in\n    tag_264:\n        /* \"#utility.yul\":10826:10882   */\n    tag_263:\n        /* \"#utility.yul\":10900:10929   */\n      tag_265\n        /* \"#utility.yul\":10922:10928   */\n      dup3\n        /* \"#utility.yul\":10900:10929   */\n      tag_123\n      jump\t// in\n    tag_265:\n        /* \"#utility.yul\":10892:10929   */\n      swap1\n      pop\n        /* \"#utility.yul\":10984:10988   */\n      0x20\n        /* \"#utility.yul\":10978:10982   */\n      dup2\n        /* \"#utility.yul\":10974:10989   */\n      add\n        /* \"#utility.yul\":10966:10989   */\n      swap1\n      pop\n        /* \"#utility.yul\":10688:10996   */\n      swap2\n      swap1\n      pop\n      jump\t// out\n        /* \"#utility.yul\":11002:11148   */\n    tag_147:\n        /* \"#utility.yul\":11099:11105   */\n      dup3\n        /* \"#utility.yul\":11094:11097   */\n      dup2\n        /* \"#utility.yul\":11089:11092   */\n      dup4\n        /* \"#utility.yul\":11076:11106   */\n      calldatacopy\n        /* \"#utility.yul\":11140:11141   */\n      0x00\n        /* \"#utility.yul\":11131:11137   */\n      dup4\n        /* \"#utility.yul\":11126:11129   */\n      dup4\n        /* \"#utility.yul\":11122:11138   */\n      add\n        /* \"#utility.yul\":11115:11142   */\n      mstore\n        /* \"#utility.yul\":11002:11148   */\n      pop\n      pop\n      pop\n      jump\t// out\n        /* \"#utility.yul\":11154:11579   */\n    tag_148:\n        /* \"#utility.yul\":11232:11237   */\n      0x00\n        /* \"#utility.yul\":11257:11323   */\n      tag_268\n        /* \"#utility.yul\":11273:11322   */\n      tag_269\n        /* \"#utility.yul\":11315:11321   */\n      dup5\n        /* \"#utility.yul\":11273:11322   */\n      tag_146\n      jump\t// in\n    tag_269:\n        /* \"#utility.yul\":11257:11323   */\n      tag_145\n      jump\t// in\n    tag_268:\n        /* \"#utility.yul\":11248:11323   */\n      swap1\n      pop\n        /* \"#utility.yul\":11346:11352   */\n      dup3\n        /* \"#utility.yul\":11339:11344   */\n      dup2\n        /* \"#utility.yul\":11332:11353   */\n      mstore\n        /* \"#utility.yul\":11384:11388   */\n      0x20\n        /* \"#utility.yul\":11377:11382   */\n      dup2\n        /* \"#utility.yul\":11373:11389   */\n      add\n        /* \"#utility.yul\":11422:11425   */\n      dup5\n        /* \"#utility.yul\":11413:11419   */\n      dup5\n        /* \"#utility.yul\":11408:11411   */\n      dup5\n        /* \"#utility.yul\":11404:11420   */\n      add\n        /* \"#utility.yul\":11401:11426   */\n      gt\n        /* \"#utility.yul\":11398:11510   */\n      iszero\n      tag_270\n      jumpi\n        /* \"#utility.yul\":11429:11508   */\n      tag_271\n      tag_142\n      jump\t// in\n    tag_271:\n        /* \"#utility.yul\":11398:11510   */\n    tag_270:\n        /* \"#utility.yul\":11519:11573   */\n      tag_272\n        /* \"#utility.yul\":11566:11572   */\n      dup5\n        /* \"#utility.yul\":11561:11564   */\n      dup3\n        /* \"#utility.yul\":11556:11559   */\n      dup6\n        /* \"#utility.yul\":11519:11573   */\n      tag_147\n      jump\t// in\n    tag_272:\n        /* \"#utility.yul\":11238:11579   */\n      pop\n        /* \"#utility.yul\":11154:11579   */\n      swap4\n      swap3\n      pop\n      pop\n      pop\n      jump\t// out\n        /* \"#utility.yul\":11599:11939   */\n    tag_149:\n        /* \"#utility.yul\":11655:11660   */\n      0x00\n        /* \"#utility.yul\":11704:11707   */\n      dup3\n        /* \"#utility.yul\":11697:11701   */\n      0x1f\n        /* \"#utility.yul\":11689:11695   */\n      dup4\n        /* \"#utility.yul\":11685:11702   */\n      add\n        /* \"#utility.yul\":11681:11708   */\n      slt\n        /* \"#utility.yul\":11671:11793   */\n      tag_274\n      jumpi\n        /* \"#utility.yul\":11712:11791   */\n      tag_275\n      tag_141\n      jump\t// in\n    tag_275:\n        /* \"#utility.yul\":11671:11793   */\n    tag_274:\n        /* \"#utility.yul\":11829:11835   */\n      dup2\n        /* \"#utility.yul\":11816:11836   */\n      calldataload\n        /* \"#utility.yul\":11854:11933   */\n      tag_276\n        /* \"#utility.yul\":11929:11932   */\n      dup5\n        /* \"#utility.yul\":11921:11927   */\n      dup3\n        /* \"#utility.yul\":11914:11918   */\n      0x20\n        /* \"#utility.yul\":11906:11912   */\n      dup7\n        /* \"#utility.yul\":11902:11919   */\n      add\n        /* \"#utility.yul\":11854:11933   */\n      tag_148\n      jump\t// in\n    tag_276:\n        /* \"#utility.yul\":11845:11933   */\n      swap2\n      pop\n        /* \"#utility.yul\":11661:11939   */\n      pop\n        /* \"#utility.yul\":11599:11939   */\n      swap3\n      swap2\n      pop\n      pop\n      jump\t// out\n        /* \"#utility.yul\":11945:12454   */\n    tag_28:\n        /* \"#utility.yul\":12014:12020   */\n      0x00\n        /* \"#utility.yul\":12063:12065   */\n      0x20\n        /* \"#utility.yul\":12051:12060   */\n      dup3\n        /* \"#utility.yul\":12042:12049   */\n      dup5\n        /* \"#utility.yul\":12038:12061   */\n      sub\n        /* \"#utility.yul\":12034:12066   */\n      slt\n        /* \"#utility.yul\":12031:12150   */\n      iszero\n      tag_278\n      jumpi\n        /* \"#utility.yul\":12069:12148   */\n      tag_279\n      tag_111\n      jump\t// in\n    tag_279:\n        /* \"#utility.yul\":12031:12150   */\n    tag_278:\n        /* \"#utility.yul\":12217:12218   */\n      0x00\n        /* \"#utility.yul\":12206:12215   */\n      dup3\n        /* \"#utility.yul\":12202:12219   */\n      add\n        /* \"#utility.yul\":12189:12220   */\n      calldataload\n        /* \"#utility.yul\":12247:12265   */\n      0xffffffffffffffff\n        /* \"#utility.yul\":12239:12245   */\n      dup2\n        /* \"#utility.yul\":12236:12266   */\n      gt\n        /* \"#utility.yul\":12233:12350   */\n      iszero\n      tag_280\n      jumpi\n        /* \"#utility.yul\":12269:12348   */\n      tag_281\n      tag_112\n      jump\t// in\n    tag_281:\n        /* \"#utility.yul\":12233:12350   */\n    tag_280:\n        /* \"#utility.yul\":12374:12437   */\n      tag_282\n        /* \"#utility.yul\":12429:12436   */\n      dup5\n        /* \"#utility.yul\":12420:12426   */\n      dup3\n        /* \"#utility.yul\":12409:12418   */\n      dup6\n        /* \"#utility.yul\":12405:12427   */\n      add\n        /* \"#utility.yul\":12374:12437   */\n      tag_149\n      jump\t// in\n    tag_282:\n        /* \"#utility.yul\":12364:12437   */\n      swap2\n      pop\n        /* \"#utility.yul\":12160:12447   */\n      pop\n        /* \"#utility.yul\":11945:12454   */\n      swap3\n      swap2\n      pop\n      pop\n      jump\t// out\n        /* \"#utility.yul\":12460:12640   */\n    tag_150:\n        /* \"#utility.yul\":12508:12585   */\n      0x4e487b7100000000000000000000000000000000000000000000000000000000\n        /* \"#utility.yul\":12505:12506   */\n      0x00\n        /* \"#utility.yul\":12498:12586   */\n      mstore\n        /* \"#utility.yul\":12605:12609   */\n      0x11\n        /* \"#utility.yul\":12602:12603   */\n      0x04\n        /* \"#utility.yul\":12595:12610   */\n      mstore\n        /* \"#utility.yul\":12629:12633   */\n      0x24\n        /* \"#utility.yul\":12626:12627   */\n      0x00\n        /* \"#utility.yul\":12619:12634   */\n      revert\n        /* \"#utility.yul\":12646:12840   */\n    tag_32:\n        /* \"#utility.yul\":12686:12690   */\n      0x00\n        /* \"#utility.yul\":12706:12726   */\n      tag_285\n        /* \"#utility.yul\":12724:12725   */\n      dup3\n        /* \"#utility.yul\":12706:12726   */\n      tag_117\n      jump\t// in\n    tag_285:\n        /* \"#utility.yul\":12701:12726   */\n      swap2\n      pop\n        /* \"#utility.yul\":12740:12760   */\n      tag_286\n        /* \"#utility.yul\":12758:12759   */\n      dup4\n        /* \"#utility.yul\":12740:12760   */\n      tag_117\n      jump\t// in\n    tag_286:\n        /* \"#utility.yul\":12735:12760   */\n      swap3\n      pop\n        /* \"#utility.yul\":12784:12785   */\n      dup3\n        /* \"#utility.yul\":12781:12782   */\n      dup3\n        /* \"#utility.yul\":12777:12786   */\n      sub\n        /* \"#utility.yul\":12769:12786   */\n      swap1\n      pop\n        /* \"#utility.yul\":12808:12809   */\n      dup2\n        /* \"#utility.yul\":12802:12806   */\n      dup2\n        /* \"#utility.yul\":12799:12810   */\n      gt\n        /* \"#utility.yul\":12796:12833   */\n      iszero\n      tag_287\n      jumpi\n        /* \"#utility.yul\":12813:12831   */\n      tag_288\n      tag_150\n      jump\t// in\n    tag_288:\n        /* \"#utility.yul\":12796:12833   */\n    tag_287:\n        /* \"#utility.yul\":12646:12840   */\n      swap3\n      swap2\n      pop\n      pop\n      jump\t// out\n        /* \"#utility.yul\":12846:13026   */\n    tag_35:\n        /* \"#utility.yul\":12894:12971   */\n      0x4e487b7100000000000000000000000000000000000000000000000000000000\n        /* \"#utility.yul\":12891:12892   */\n      0x00\n        /* \"#utility.yul\":12884:12972   */\n      mstore\n        /* \"#utility.yul\":12991:12995   */\n      0x32\n        /* \"#utility.yul\":12988:12989   */\n      0x04\n        /* \"#utility.yul\":12981:12996   */\n      mstore\n        /* \"#utility.yul\":13015:13019   */\n      0x24\n        /* \"#utility.yul\":13012:13013   */\n      0x00\n        /* \"#utility.yul\":13005:13020   */\n      revert\n        /* \"#utility.yul\":13032:13265   */\n    tag_43:\n        /* \"#utility.yul\":13071:13074   */\n      0x00\n        /* \"#utility.yul\":13094:13118   */\n      tag_291\n        /* \"#utility.yul\":13112:13117   */\n      dup3\n        /* \"#utility.yul\":13094:13118   */\n      tag_117\n      jump\t// in\n    tag_291:\n        /* \"#utility.yul\":13085:13118   */\n      swap2\n      pop\n        /* \"#utility.yul\":13140:13206   */\n      0xffffffffffffffffffffffffffffffffffffffffffffffffffffffffffffffff\n        /* \"#utility.yul\":13133:13138   */\n      dup3\n        /* \"#utility.yul\":13130:13207   */\n      sub\n        /* \"#utility.yul\":13127:13230   */\n      tag_292\n      jumpi\n        /* \"#utility.yul\":13210:13228   */\n      tag_293\n      tag_150\n      jump\t// in\n    tag_293:\n        /* \"#utility.yul\":13127:13230   */\n    tag_292:\n        /* \"#utility.yul\":13257:13258   */\n      0x01\n        /* \"#utility.yul\":13250:13255   */\n      dup3\n        /* \"#utility.yul\":13246:13259   */\n      add\n        /* \"#utility.yul\":13239:13259   */\n      swap1\n      pop\n        /* \"#utility.yul\":13032:13265   */\n      swap2\n      swap1\n      pop\n      jump\t// out\n        /* \"#utility.yul\":13271:13451   */\n    tag_151:\n        /* \"#utility.yul\":13319:13396   */\n      0x4e487b7100000000000000000000000000000000000000000000000000000000\n        /* \"#utility.yul\":13316:13317   */\n      0x00\n        /* \"#utility.yul\":13309:13397   */\n      mstore\n        /* \"#utility.yul\":13416:13420   */\n      0x22\n        /* \"#utility.yul\":13413:13414   */\n      0x04\n        /* \"#utility.yul\":13406:13421   */\n      mstore\n        /* \"#utility.yul\":13440:13444   */\n      0x24\n        /* \"#utility.yul\":13437:13438   */\n      0x00\n        /* \"#utility.yul\":13430:13445   */\n      revert\n        /* \"#utility.yul\":13457:13777   */\n    tag_52:\n        /* \"#utility.yul\":13501:13507   */\n      0x00\n        /* \"#utility.yul\":13538:13539   */\n      0x02\n        /* \"#utility.yul\":13532:13536   */\n      dup3\n        /* \"#utility.yul\":13528:13540   */\n      div\n        /* \"#utility.yul\":13518:13540   */\n      swap1\n      pop\n        /* \"#utility.yul\":13585:13586   */\n      0x01\n        /* \"#utility.yul\":13579:13583   */\n      dup3\n        /* \"#utility.yul\":13575:13587   */\n      and\n        /* \"#utility.yul\":13606:13624   */\n      dup1\n        /* \"#utility.yul\":13596:13677   */\n      tag_296\n      jumpi\n        /* \"#utility.yul\":13662:13666   */\n      0x7f\n        /* \"#utility.yul\":13654:13660   */\n      dup3\n        /* \"#utility.yul\":13650:13667   */\n      and\n        /* \"#utility.yul\":13640:13667   */\n      swap2\n      pop\n        /* \"#utility.yul\":13596:13677   */\n    tag_296:\n        /* \"#utility.yul\":13724:13726   */\n      0x20\n        /* \"#utility.yul\":13716:13722   */\n      dup3\n        /* \"#utility.yul\":13713:13727   */\n      lt\n        /* \"#utility.yul\":13693:13711   */\n      dup2\n        /* \"#utility.yul\":13690:13728   */\n      sub\n        /* \"#utility.yul\":13687:13771   */\n      tag_297\n      jumpi\n        /* \"#utility.yul\":13743:13761   */\n      tag_298\n      tag_151\n      jump\t// in\n    tag_298:\n        /* \"#utility.yul\":13687:13771   */\n    tag_297:\n        /* \"#utility.yul\":13508:13777   */\n      pop\n        /* \"#utility.yul\":13457:13777   */\n      swap2\n      swap1\n      pop\n      jump\t// out\n        /* \"#utility.yul\":13783:13963   */\n    tag_73:\n        /* \"#utility.yul\":13831:13908   */\n      0x4e487b7100000000000000000000000000000000000000000000000000000000\n        /* \"#utility.yul\":13828:13829   */\n      0x00\n        /* \"#utility.yul\":13821:13909   */\n      mstore\n        /* \"#utility.yul\":13928:13932   */\n      0x31\n        /* \"#utility.yul\":13925:13926   */\n      0x04\n        /* \"#utility.yul\":13918:13933   */\n      mstore\n        /* \"#utility.yul\":13952:13956   */\n      0x24\n        /* \"#utility.yul\":13949:13950   */\n      0x00\n        /* \"#utility.yul\":13942:13957   */\n      revert\n        /* \"#utility.yul\":13969:14110   */\n    tag_152:\n        /* \"#utility.yul\":14018:14022   */\n      0x00\n        /* \"#utility.yul\":14041:14044   */\n      dup2\n        /* \"#utility.yul\":14033:14044   */\n      swap1\n      pop\n        /* \"#utility.yul\":14064:14067   */\n      dup2\n        /* \"#utility.yul\":14061:14062   */\n      0x00\n        /* \"#utility.yul\":14054:14068   */\n      mstore\n        /* \"#utility.yul\":14098:14102   */\n      0x20\n        /* \"#utility.yul\":14095:14096   */\n      0x00\n        /* \"#utility.yul\":14085:14103   */\n      keccak256\n        /* \"#utility.yul\":14077:14103   */\n      swap1\n      pop\n        /* \"#utility.yul\":13969:14110   */\n      swap2\n      swap1\n      pop\n      jump\t// out\n        /* \"#utility.yul\":14116:14209   */\n    tag_153:\n        /* \"#utility.yul\":14153:14159   */\n      0x00\n        /* \"#utility.yul\":14200:14202   */\n      0x20\n        /* \"#utility.yul\":14195:14197   */\n      0x1f\n        /* \"#utility.yul\":14188:14193   */\n      dup4\n        /* \"#utility.yul\":14184:14198   */\n      add\n        /* \"#utility.yul\":14180:14203   */\n      div\n        /* \"#utility.yul\":14170:14203   */\n      swap1\n      pop\n        /* \"#utility.yul\":14116:14209   */\n      swap2\n      swap1\n      pop\n      jump\t// out\n        /* \"#utility.yul\":14215:14322   */\n    tag_154:\n        /* \"#utility.yul\":14259:14267   */\n      0x00\n        /* \"#utility.yul\":14309:14314   */\n      dup3\n        /* \"#utility.yul\":14303:14307   */\n      dup3\n        /* \"#utility.yul\":14299:14315   */\n      shl\n        /* \"#utility.yul\":14278:14315   */\n      swap1\n      pop\n        /* \"#utility.yul\":14215:14322   */\n      swap3\n      swap2\n      pop\n      pop\n      jump\t// out\n        /* \"#utility.yul\":14328:14721   */\n    tag_155:\n        /* \"#utility.yul\":14397:14403   */\n      0x00\n        /* \"#utility.yul\":14447:14448   */\n      0x08\n        /* \"#utility.yul\":14435:14445   */\n      dup4\n        /* \"#utility.yul\":14431:14449   */\n      mul\n        /* \"#utility.yul\":14470:14567   */\n      tag_304\n        /* \"#utility.yul\":14500:14566   */\n      0xffffffffffffffffffffffffffffffffffffffffffffffffffffffffffffffff\n        /* \"#utility.yul\":14489:14498   */\n      dup3\n        /* \"#utility.yul\":14470:14567   */\n      tag_154\n      jump\t// in\n    tag_304:\n        /* \"#utility.yul\":14588:14627   */\n      tag_305\n        /* \"#utility.yul\":14618:14626   */\n      dup7\n        /* \"#utility.yul\":14607:14616   */\n      dup4\n        /* \"#utility.yul\":14588:14627   */\n      tag_154\n      jump\t// in\n    tag_305:\n        /* \"#utility.yul\":14576:14627   */\n      swap6\n      pop\n        /* \"#utility.yul\":14660:14664   */\n      dup1\n        /* \"#utility.yul\":14656:14665   */\n      not\n        /* \"#utility.yul\":14649:14654   */\n      dup5\n        /* \"#utility.yul\":14645:14666   */\n      and\n        /* \"#utility.yul\":14636:14666   */\n      swap4\n      pop\n        /* \"#utility.yul\":14709:14713   */\n      dup1\n        /* \"#utility.yul\":14699:14707   */\n      dup7\n        /* \"#utility.yul\":14695:14714   */\n      and\n        /* \"#utility.yul\":14688:14693   */\n      dup5\n        /* \"#utility.yul\":14685:14715   */\n      or\n        /* \"#utility.yul\":14675:14715   */\n      swap3\n      pop\n        /* \"#utility.yul\":14404:14721   */\n      pop\n      pop\n        /* \"#utility.yul\":14328:14721   */\n      swap4\n      swap3\n      pop\n      pop\n      pop\n      jump\t// out\n        /* \"#utility.yul\":14727:14787   */\n    tag_156:\n        /* \"#utility.yul\":14755:14758   */\n      0x00\n        /* \"#utility.yul\":14776:14781   */\n      dup2\n        /* \"#utility.yul\":14769:14781   */\n      swap1\n      pop\n        /* \"#utility.yul\":14727:14787   */\n      swap2\n      swap1\n      pop\n      jump\t// out\n        /* \"#utility.yul\":14793:14935   */\n    tag_157:\n        /* \"#utility.yul\":14843:14852   */\n      0x00\n        /* \"#utility.yul\":14876:14929   */\n      tag_308\n        /* \"#utility.yul\":14894:14928   */\n      tag_309\n        /* \"#utility.yul\":14903:14927   */\n      tag_310\n        /* \"#utility.yul\":14921:14926   */\n      dup5\n        /* \"#utility.yul\":14903:14927   */\n      tag_117\n      jump\t// in\n    tag_310:\n        /* \"#utility.yul\":14894:14928   */\n      tag_156\n      jump\t// in\n    tag_309:\n        /* \"#utility.yul\":14876:14929   */\n      tag_117\n      jump\t// in\n    tag_308:\n        /* \"#utility.yul\":14863:14929   */\n      swap1\n      pop\n        /* \"#utility.yul\":14793:14935   */\n      swap2\n      swap1\n      pop\n      jump\t// out\n        /* \"#utility.yul\":14941:15016   */\n    tag_158:\n        /* \"#utility.yul\":14984:14987   */\n      0x00\n        /* \"#utility.yul\":15005:15010   */\n      dup2\n        /* \"#utility.yul\":14998:15010   */\n      swap1\n      pop\n        /* \"#utility.yul\":14941:15016   */\n      swap2\n      swap1\n      pop\n      jump\t// out\n        /* \"#utility.yul\":15022:15291   */\n    tag_159:\n        /* \"#utility.yul\":15132:15171   */\n      tag_313\n        /* \"#utility.yul\":15163:15170   */\n      dup4\n        /* \"#utility.yul\":15132:15171   */\n      tag_157\n      jump\t// in\n    tag_313:\n        /* \"#utility.yul\":15193:15284   */\n      tag_314\n        /* \"#utility.yul\":15242:15283   */\n      tag_315\n        /* \"#utility.yul\":15266:15282   */\n      dup3\n        /* \"#utility.yul\":15242:15283   */\n      tag_158\n      jump\t// in\n    tag_315:\n        /* \"#utility.yul\":15234:15240   */\n      dup5\n        /* \"#utility.yul\":15227:15231   */\n      dup5\n        /* \"#utility.yul\":15221:15232   */\n      sload\n        /* \"#utility.yul\":15193:15284   */\n      tag_155\n      jump\t// in\n    tag_314:\n        /* \"#utility.yul\":15187:15191   */\n      dup3\n        /* \"#utility.yul\":15180:15285   */\n      sstore\n        /* \"#utility.yul\":15098:15291   */\n      pop\n        /* \"#utility.yul\":15022:15291   */\n      pop\n      pop\n      pop\n      jump\t// out\n        /* \"#utility.yul\":15297:15370   */\n    tag_160:\n        /* \"#utility.yul\":15342:15345   */\n      0x00\n        /* \"#utility.yul\":15297:15370   */\n      swap1\n      jump\t// out\n        /* \"#utility.yul\":15376:15565   */\n    tag_161:\n        /* \"#utility.yul\":15453:15485   */\n      tag_318\n      tag_160\n      jump\t// in\n    tag_318:\n        /* \"#utility.yul\":15494:15559   */\n      tag_319\n        /* \"#utility.yul\":15552:15558   */\n      dup2\n        /* \"#utility.yul\":15544:15550   */\n      dup5\n        /* \"#utility.yul\":15538:15542   */\n      dup5\n        /* \"#utility.yul\":15494:15559   */\n      tag_159\n      jump\t// in\n    tag_319:\n        /* \"#utility.yul\":15429:15565   */\n      pop\n        /* \"#utility.yul\":15376:15565   */\n      pop\n      pop\n      jump\t// out\n        /* \"#utility.yul\":15571:15757   */\n    tag_162:\n        /* \"#utility.yul\":15631:15751   */\n    tag_321:\n        /* \"#utility.yul\":15648:15651   */\n      dup2\n        /* \"#utility.yul\":15641:15646   */\n      dup2\n        /* \"#utility.yul\":15638:15652   */\n      lt\n        /* \"#utility.yul\":15631:15751   */\n      iszero\n      tag_323\n      jumpi\n        /* \"#utility.yul\":15702:15741   */\n      tag_324\n        /* \"#utility.yul\":15739:15740   */\n      0x00\n        /* \"#utility.yul\":15732:15737   */\n      dup3\n        /* \"#utility.yul\":15702:15741   */\n      tag_161\n      jump\t// in\n    tag_324:\n        /* \"#utility.yul\":15675:15676   */\n      0x01\n        /* \"#utility.yul\":15668:15673   */\n      dup2\n        /* \"#utility.yul\":15664:15677   */\n      add\n        /* \"#utility.yul\":15655:15677   */\n      swap1\n      pop\n        /* \"#utility.yul\":15631:15751   */\n      jump(tag_321)\n    tag_323:\n        /* \"#utility.yul\":15571:15757   */\n      pop\n      pop\n      jump\t// out\n        /* \"#utility.yul\":15763:16306   */\n    tag_163:\n        /* \"#utility.yul\":15864:15866   */\n      0x1f\n        /* \"#utility.yul\":15859:15862   */\n      dup3\n        /* \"#utility.yul\":15856:15867   */\n      gt\n        /* \"#utility.yul\":15853:16299   */\n      iszero\n      tag_326\n      jumpi\n        /* \"#utility.yul\":15898:15936   */\n      tag_327\n        /* \"#utility.yul\":15930:15935   */\n      dup2\n        /* \"#utility.yul\":15898:15936   */\n      tag_152\n      jump\t// in\n    tag_327:\n        /* \"#utility.yul\":15982:16011   */\n      tag_328\n        /* \"#utility.yul\":16000:16010   */\n      dup5\n        /* \"#utility.yul\":15982:16011   */\n      tag_153\n      jump\t// in\n    tag_328:\n        /* \"#utility.yul\":15972:15980   */\n      dup2\n        /* \"#utility.yul\":15968:16012   */\n      add\n        /* \"#utility.yul\":16165:16167   */\n      0x20\n        /* \"#utility.yul\":16153:16163   */\n      dup6\n        /* \"#utility.yul\":16150:16168   */\n      lt\n        /* \"#utility.yul\":16147:16196   */\n      iszero\n      tag_329\n      jumpi\n        /* \"#utility.yul\":16186:16194   */\n      dup2\n        /* \"#utility.yul\":16171:16194   */\n      swap1\n      pop\n        /* \"#utility.yul\":16147:16196   */\n    tag_329:\n        /* \"#utility.yul\":16209:16289   */\n      tag_330\n        /* \"#utility.yul\":16265:16287   */\n      tag_331\n        /* \"#utility.yul\":16283:16286   */\n      dup6\n        /* \"#utility.yul\":16265:16287   */\n      tag_153\n      jump\t// in\n    tag_331:\n        /* \"#utility.yul\":16255:16263   */\n      dup4\n        /* \"#utility.yul\":16251:16288   */\n      add\n        /* \"#utility.yul\":16238:16249   */\n      dup3\n        /* \"#utility.yul\":16209:16289   */\n      tag_162\n      jump\t// in\n    tag_330:\n        /* \"#utility.yul\":15868:16299   */\n      pop\n      pop\n        /* \"#utility.yul\":15853:16299   */\n    tag_326:\n        /* \"#utility.yul\":15763:16306   */\n      pop\n      pop\n      pop\n      jump\t// out\n        /* \"#utility.yul\":16312:16429   */\n    tag_164:\n        /* \"#utility.yul\":16366:16374   */\n      0x00\n        /* \"#utility.yul\":16416:16421   */\n      dup3\n        /* \"#utility.yul\":16410:16414   */\n      dup3\n        /* \"#utility.yul\":16406:16422   */\n      shr\n        /* \"#utility.yul\":16385:16422   */\n      swap1\n      pop\n        /* \"#utility.yul\":16312:16429   */\n      swap3\n      swap2\n      pop\n      pop\n      jump\t// out\n        /* \"#utility.yul\":16435:16604   */\n    tag_165:\n        /* \"#utility.yul\":16479:16485   */\n      0x00\n        /* \"#utility.yul\":16512:16563   */\n      tag_334\n        /* \"#utility.yul\":16560:16561   */\n      0x00\n        /* \"#utility.yul\":16556:16562   */\n      not\n        /* \"#utility.yul\":16548:16553   */\n      dup5\n        /* \"#utility.yul\":16545:16546   */\n      0x08\n        /* \"#utility.yul\":16541:16554   */\n      mul\n        /* \"#utility.yul\":16512:16563   */\n      tag_164\n      jump\t// in\n    tag_334:\n        /* \"#utility.yul\":16508:16564   */\n      not\n        /* \"#utility.yul\":16593:16597   */\n      dup1\n        /* \"#utility.yul\":16587:16591   */\n      dup4\n        /* \"#utility.yul\":16583:16598   */\n      and\n        /* \"#utility.yul\":16573:16598   */\n      swap2\n      pop\n        /* \"#utility.yul\":16486:16604   */\n      pop\n        /* \"#utility.yul\":16435:16604   */\n      swap3\n      swap2\n      pop\n      pop\n      jump\t// out\n        /* \"#utility.yul\":16609:16904   */\n    tag_166:\n        /* \"#utility.yul\":16685:16689   */\n      0x00\n        /* \"#utility.yul\":16831:16860   */\n      tag_336\n        /* \"#utility.yul\":16856:16859   */\n      dup4\n        /* \"#utility.yul\":16850:16854   */\n      dup4\n        /* \"#utility.yul\":16831:16860   */\n      tag_165\n      jump\t// in\n    tag_336:\n        /* \"#utility.yul\":16823:16860   */\n      swap2\n      pop\n        /* \"#utility.yul\":16893:16896   */\n      dup3\n        /* \"#utility.yul\":16890:16891   */\n      0x02\n        /* \"#utility.yul\":16886:16897   */\n      mul\n        /* \"#utility.yul\":16880:16884   */\n      dup3\n        /* \"#utility.yul\":16877:16898   */\n      or\n        /* \"#utility.yul\":16869:16898   */\n      swap1\n      pop\n        /* \"#utility.yul\":16609:16904   */\n      swap3\n      swap2\n      pop\n      pop\n      jump\t// out\n        /* \"#utility.yul\":16909:18304   */\n    tag_87:\n        /* \"#utility.yul\":17026:17063   */\n      tag_338\n        /* \"#utility.yul\":17059:17062   */\n      dup3\n        /* \"#utility.yul\":17026:17063   */\n      tag_120\n      jump\t// in\n    tag_338:\n        /* \"#utility.yul\":17128:17146   */\n      0xffffffffffffffff\n        /* \"#utility.yul\":17120:17126   */\n      dup2\n        /* \"#utility.yul\":17117:17147   */\n      gt\n        /* \"#utility.yul\":17114:17170   */\n      iszero\n      tag_339\n      jumpi\n        /* \"#utility.yul\":17150:17168   */\n      tag_340\n      tag_143\n      jump\t// in\n    tag_340:\n        /* \"#utility.yul\":17114:17170   */\n    tag_339:\n        /* \"#utility.yul\":17194:17232   */\n      tag_341\n        /* \"#utility.yul\":17226:17230   */\n      dup3\n        /* \"#utility.yul\":17220:17231   */\n      sload\n        /* \"#utility.yul\":17194:17232   */\n      tag_52\n      jump\t// in\n    tag_341:\n        /* \"#utility.yul\":17279:17346   */\n      tag_342\n        /* \"#utility.yul\":17339:17345   */\n      dup3\n        /* \"#utility.yul\":17331:17337   */\n      dup3\n        /* \"#utility.yul\":17325:17329   */\n      dup6\n        /* \"#utility.yul\":17279:17346   */\n      tag_163\n      jump\t// in\n    tag_342:\n        /* \"#utility.yul\":17373:17374   */\n      0x00\n        /* \"#utility.yul\":17397:17401   */\n      0x20\n        /* \"#utility.yul\":17384:17401   */\n      swap1\n      pop\n        /* \"#utility.yul\":17429:17431   */\n      0x1f\n        /* \"#utility.yul\":17421:17427   */\n      dup4\n        /* \"#utility.yul\":17418:17432   */\n      gt\n        /* \"#utility.yul\":17446:17447   */\n      0x01\n        /* \"#utility.yul\":17441:18059   */\n      dup2\n      eq\n      tag_344\n      jumpi\n        /* \"#utility.yul\":18103:18104   */\n      0x00\n        /* \"#utility.yul\":18120:18126   */\n      dup5\n        /* \"#utility.yul\":18117:18194   */\n      iszero\n      tag_345\n      jumpi\n        /* \"#utility.yul\":18169:18178   */\n      dup3\n        /* \"#utility.yul\":18164:18167   */\n      dup8\n        /* \"#utility.yul\":18160:18179   */\n      add\n        /* \"#utility.yul\":18154:18180   */\n      mload\n        /* \"#utility.yul\":18145:18180   */\n      swap1\n      pop\n        /* \"#utility.yul\":18117:18194   */\n    tag_345:\n        /* \"#utility.yul\":18220:18287   */\n      tag_346\n        /* \"#utility.yul\":18280:18286   */\n      dup6\n        /* \"#utility.yul\":18273:18278   */\n      dup3\n        /* \"#utility.yul\":18220:18287   */\n      tag_166\n      jump\t// in\n    tag_346:\n        /* \"#utility.yul\":18214:18218   */\n      dup7\n        /* \"#utility.yul\":18207:18288   */\n      sstore\n        /* \"#utility.yul\":18076:18298   */\n      pop\n        /* \"#utility.yul\":17411:18298   */\n      jump(tag_343)\n        /* \"#utility.yul\":17441:18059   */\n    tag_344:\n        /* \"#utility.yul\":17493:17497   */\n      0x1f\n        /* \"#utility.yul\":17489:17498   */\n      not\n        /* \"#utility.yul\":17481:17487   */\n      dup5\n        /* \"#utility.yul\":17477:17499   */\n      and\n        /* \"#utility.yul\":17527:17564   */\n      tag_347\n        /* \"#utility.yul\":17559:17563   */\n      dup7\n        /* \"#utility.yul\":17527:17564   */\n      tag_152\n      jump\t// in\n    tag_347:\n        /* \"#utility.yul\":17586:17587   */\n      0x00\n        /* \"#utility.yul\":17600:17808   */\n    tag_348:\n        /* \"#utility.yul\":17614:17621   */\n      dup3\n        /* \"#utility.yul\":17611:17612   */\n      dup2\n        /* \"#utility.yul\":17608:17622   */\n      lt\n        /* \"#utility.yul\":17600:17808   */\n      iszero\n      tag_350\n      jumpi\n        /* \"#utility.yul\":17693:17702   */\n      dup5\n        /* \"#utility.yul\":17688:17691   */\n      dup10\n        /* \"#utility.yul\":17684:17703   */\n      add\n        /* \"#utility.yul\":17678:17704   */\n      mload\n        /* \"#utility.yul\":17670:17676   */\n      dup3\n        /* \"#utility.yul\":17663:17705   */\n      sstore\n        /* \"#utility.yul\":17744:17745   */\n      0x01\n        /* \"#utility.yul\":17736:17742   */\n      dup3\n        /* \"#utility.yul\":17732:17746   */\n      add\n        /* \"#utility.yul\":17722:17746   */\n      swap2\n      pop\n        /* \"#utility.yul\":17791:17793   */\n      0x20\n        /* \"#utility.yul\":17780:17789   */\n      dup6\n        /* \"#utility.yul\":17776:17794   */\n      add\n        /* \"#utility.yul\":17763:17794   */\n      swap5\n      pop\n        /* \"#utility.yul\":17637:17641   */\n      0x20\n        /* \"#utility.yul\":17634:17635   */\n      dup2\n        /* \"#utility.yul\":17630:17642   */\n      add\n        /* \"#utility.yul\":17625:17642   */\n      swap1\n      pop\n        /* \"#utility.yul\":17600:17808   */\n      jump(tag_348)\n    tag_350:\n        /* \"#utility.yul\":17836:17842   */\n      dup7\n        /* \"#utility.yul\":17827:17834   */\n      dup4\n        /* \"#utility.yul\":17824:17843   */\n      lt\n        /* \"#utility.yul\":17821:18000   */\n      iszero\n      tag_351\n      jumpi\n        /* \"#utility.yul\":17894:17903   */\n      dup5\n        /* \"#utility.yul\":17889:17892   */\n      dup10\n        /* \"#utility.yul\":17885:17904   */\n      add\n        /* \"#utility.yul\":17879:17905   */\n      mload\n        /* \"#utility.yul\":17937:17985   */\n      tag_352\n        /* \"#utility.yul\":17979:17983   */\n      0x1f\n        /* \"#utility.yul\":17971:17977   */\n      dup10\n        /* \"#utility.yul\":17967:17984   */\n      and\n        /* \"#utility.yul\":17956:17965   */\n      dup3\n        /* \"#utility.yul\":17937:17985   */\n      tag_165\n      jump\t// in\n    tag_352:\n        /* \"#utility.yul\":17929:17935   */\n      dup4\n        /* \"#utility.yul\":17922:17986   */\n      sstore\n        /* \"#utility.yul\":17844:18000   */\n      pop\n        /* \"#utility.yul\":17821:18000   */\n    tag_351:\n        /* \"#utility.yul\":18046:18047   */\n      0x01\n        /* \"#utility.yul\":18042:18043   */\n      0x02\n        /* \"#utility.yul\":18034:18040   */\n      dup9\n        /* \"#utility.yul\":18030:18044   */\n      mul\n        /* \"#utility.yul\":18026:18048   */\n      add\n        /* \"#utility.yul\":18020:18024   */\n      dup9\n        /* \"#utility.yul\":18013:18049   */\n      sstore\n        /* \"#utility.yul\":17448:18059   */\n      pop\n      pop\n      pop\n        /* \"#utility.yul\":17411:18298   */\n    tag_343:\n      pop\n        /* \"#utility.yul\":17001:18304   */\n      pop\n      pop\n      pop\n        /* \"#utility.yul\":16909:18304   */\n      pop\n      pop\n      jump\t// out\n\n    auxdata: 0xa26469706673582212206475a3f528005d335e9a04f81e855f48d8046c270685ebb8c18fa182d38558b764736f6c63430008120033\n}\n",
				"bytecode": {
					"linkReferences": {},
					"object": "608060405234801561001057600080fd5b50611520806100206000396000f3fe608060405234801561001057600080fd5b50600436106100625760003560e01c80630362d52e1461006757806337f36a4c1461008357806342d7fbc0146100b357806371e7eb12146100d1578063765fab45146100db5780637c9cd2bc146100e5575b600080fd5b610081600480360381019061007c9190610be8565b610101565b005b61009d60048036038101906100989190610be8565b610258565b6040516100aa9190610e02565b60405180910390f35b6100bb610468565b6040516100c89190610f63565b60405180910390f35b6100d961068e565b005b6100e361074f565b005b6100ff60048036038101906100fa91906110ba565b61079c565b005b600160008373ffffffffffffffffffffffffffffffffffffffff1673ffffffffffffffffffffffffffffffffffffffff16815260200190815260200160002060018261014d9190611132565b8154811061015e5761015d611166565b5b9060005260206000209060050201600301339080600181540180825580915050600190039060005260206000200160009091909190916101000a81548173ffffffffffffffffffffffffffffffffffffffff021916908373ffffffffffffffffffffffffffffffffffffffff160217905550600160008373ffffffffffffffffffffffffffffffffffffffff1673ffffffffffffffffffffffffffffffffffffffff16815260200190815260200160002060018261021c9190611132565b8154811061022d5761022c611166565b5b9060005260206000209060050201600401600081548092919061024f90611195565b91905055505050565b610260610961565b600160008473ffffffffffffffffffffffffffffffffffffffff1673ffffffffffffffffffffffffffffffffffffffff1681526020019081526020016000206001836102ac9190611132565b815481106102bd576102bc611166565b5b90600052602060002090600502016040518060a00160405290816000820180546102e69061120c565b80601f01602080910402602001604051908101604052809291908181526020018280546103129061120c565b801561035f5780601f106103345761010080835404028352916020019161035f565b820191906000526020600020905b81548152906001019060200180831161034257829003601f168201915b505050505081526020016001820160009054906101000a900473ffffffffffffffffffffffffffffffffffffffff1673ffffffffffffffffffffffffffffffffffffffff1673ffffffffffffffffffffffffffffffffffffffff168152602001600282015481526020016003820180548060200260200160405190810160405280929190818152602001828054801561044d57602002820191906000526020600020905b8160009054906101000a900473ffffffffffffffffffffffffffffffffffffffff1673ffffffffffffffffffffffffffffffffffffffff1681526020019060010190808311610403575b50505050508152602001600482015481525050905092915050565b6060600160003373ffffffffffffffffffffffffffffffffffffffff1673ffffffffffffffffffffffffffffffffffffffff168152602001908152602001600020805480602002602001604051908101604052809291908181526020016000905b8282101561068557838290600052602060002090600502016040518060a00160405290816000820180546104fc9061120c565b80601f01602080910402602001604051908101604052809291908181526020018280546105289061120c565b80156105755780601f1061054a57610100808354040283529160200191610575565b820191906000526020600020905b81548152906001019060200180831161055857829003601f168201915b505050505081526020016001820160009054906101000a900473ffffffffffffffffffffffffffffffffffffffff1673ffffffffffffffffffffffffffffffffffffffff1673ffffffffffffffffffffffffffffffffffffffff168152602001600282015481526020016003820180548060200260200160405190810160405280929190818152602001828054801561066357602002820191906000526020600020905b8160009054906101000a900473ffffffffffffffffffffffffffffffffffffffff1673ffffffffffffffffffffffffffffffffffffffff1681526020019060010190808311610619575b50505050508152602001600482015481525050815260200190600101906104c9565b50505050905090565b600160003373ffffffffffffffffffffffffffffffffffffffff1673ffffffffffffffffffffffffffffffffffffffff1681526020019081526020016000208054806106dd576106dc61123d565b5b60019003818190600052602060002090600502016000808201600061070291906109a6565b6001820160006101000a81549073ffffffffffffffffffffffffffffffffffffffff0219169055600282016000905560038201600061074191906109e6565b600482016000905550509055565b600160003373ffffffffffffffffffffffffffffffffffffffff1673ffffffffffffffffffffffffffffffffffffffff168152602001908152602001600020600061079a9190610a07565b565b60006040518060a001604052808381526020013373ffffffffffffffffffffffffffffffffffffffff168152602001428152602001600080548060200260200160405190810160405280929190818152602001828054801561085357602002820191906000526020600020905b8160009054906101000a900473ffffffffffffffffffffffffffffffffffffffff1673ffffffffffffffffffffffffffffffffffffffff1681526020019060010190808311610809575b5050505050815260200160008152509050600160003373ffffffffffffffffffffffffffffffffffffffff1673ffffffffffffffffffffffffffffffffffffffff16815260200190815260200160002081908060018154018082558091505060019003906000526020600020906005020160009091909190915060008201518160000190816108e29190611418565b5060208201518160010160006101000a81548173ffffffffffffffffffffffffffffffffffffffff021916908373ffffffffffffffffffffffffffffffffffffffff160217905550604082015181600201556060820151816003019080519060200190610950929190610a2b565b506080820151816004015550505050565b6040518060a0016040528060608152602001600073ffffffffffffffffffffffffffffffffffffffff1681526020016000815260200160608152602001600081525090565b5080546109b29061120c565b6000825580601f106109c457506109e3565b601f0160209004906000526020600020908101906109e29190610ab5565b5b50565b5080546000825590600052602060002090810190610a049190610ab5565b50565b5080546000825560050290600052602060002090810190610a289190610ad2565b50565b828054828255906000526020600020908101928215610aa4579160200282015b82811115610aa35782518260006101000a81548173ffffffffffffffffffffffffffffffffffffffff021916908373ffffffffffffffffffffffffffffffffffffffff16021790555091602001919060010190610a4b565b5b509050610ab19190610ab5565b5090565b5b80821115610ace576000816000905550600101610ab6565b5090565b5b80821115610b3c5760008082016000610aec91906109a6565b6001820160006101000a81549073ffffffffffffffffffffffffffffffffffffffff02191690556002820160009055600382016000610b2b91906109e6565b600482016000905550600501610ad3565b5090565b6000604051905090565b600080fd5b600080fd5b600073ffffffffffffffffffffffffffffffffffffffff82169050919050565b6000610b7f82610b54565b9050919050565b610b8f81610b74565b8114610b9a57600080fd5b50565b600081359050610bac81610b86565b92915050565b6000819050919050565b610bc581610bb2565b8114610bd057600080fd5b50565b600081359050610be281610bbc565b92915050565b60008060408385031215610bff57610bfe610b4a565b5b6000610c0d85828601610b9d565b9250506020610c1e85828601610bd3565b9150509250929050565b600081519050919050565b600082825260208201905092915050565b60005b83811015610c62578082015181840152602081019050610c47565b60008484015250505050565b6000601f19601f8301169050919050565b6000610c8a82610c28565b610c948185610c33565b9350610ca4818560208601610c44565b610cad81610c6e565b840191505092915050565b610cc181610b74565b82525050565b610cd081610bb2565b82525050565b600081519050919050565b600082825260208201905092915050565b6000819050602082019050919050565b6000610d0e8383610cb8565b60208301905092915050565b6000602082019050919050565b6000610d3282610cd6565b610d3c8185610ce1565b9350610d4783610cf2565b8060005b83811015610d78578151610d5f8882610d02565b9750610d6a83610d1a565b925050600181019050610d4b565b5085935050505092915050565b600060a0830160008301518482036000860152610da28282610c7f565b9150506020830151610db76020860182610cb8565b506040830151610dca6040860182610cc7565b5060608301518482036060860152610de28282610d27565b9150506080830151610df76080860182610cc7565b508091505092915050565b60006020820190508181036000830152610e1c8184610d85565b905092915050565b600081519050919050565b600082825260208201905092915050565b6000819050602082019050919050565b600060a0830160008301518482036000860152610e6d8282610c7f565b9150506020830151610e826020860182610cb8565b506040830151610e956040860182610cc7565b5060608301518482036060860152610ead8282610d27565b9150506080830151610ec26080860182610cc7565b508091505092915050565b6000610ed98383610e50565b905092915050565b6000602082019050919050565b6000610ef982610e24565b610f038185610e2f565b935083602082028501610f1585610e40565b8060005b85811015610f515784840389528151610f328582610ecd565b9450610f3d83610ee1565b925060208a01995050600181019050610f19565b50829750879550505050505092915050565b60006020820190508181036000830152610f7d8184610eee565b905092915050565b600080fd5b600080fd5b7f4e487b7100000000000000000000000000000000000000000000000000000000600052604160045260246000fd5b610fc782610c6e565b810181811067ffffffffffffffff82111715610fe657610fe5610f8f565b5b80604052505050565b6000610ff9610b40565b90506110058282610fbe565b919050565b600067ffffffffffffffff82111561102557611024610f8f565b5b61102e82610c6e565b9050602081019050919050565b82818337600083830152505050565b600061105d6110588461100a565b610fef565b90508281526020810184848401111561107957611078610f8a565b5b61108484828561103b565b509392505050565b600082601f8301126110a1576110a0610f85565b5b81356110b184826020860161104a565b91505092915050565b6000602082840312156110d0576110cf610b4a565b5b600082013567ffffffffffffffff8111156110ee576110ed610b4f565b5b6110fa8482850161108c565b91505092915050565b7f4e487b7100000000000000000000000000000000000000000000000000000000600052601160045260246000fd5b600061113d82610bb2565b915061114883610bb2565b92508282039050818111156111605761115f611103565b5b92915050565b7f4e487b7100000000000000000000000000000000000000000000000000000000600052603260045260246000fd5b60006111a082610bb2565b91507fffffffffffffffffffffffffffffffffffffffffffffffffffffffffffffffff82036111d2576111d1611103565b5b600182019050919050565b7f4e487b7100000000000000000000000000000000000000000000000000000000600052602260045260246000fd5b6000600282049050600182168061122457607f821691505b602082108103611237576112366111dd565b5b50919050565b7f4e487b7100000000000000000000000000000000000000000000000000000000600052603160045260246000fd5b60008190508160005260206000209050919050565b60006020601f8301049050919050565b600082821b905092915050565b6000600883026112ce7fffffffffffffffffffffffffffffffffffffffffffffffffffffffffffffffff82611291565b6112d88683611291565b95508019841693508086168417925050509392505050565b6000819050919050565b600061131561131061130b84610bb2565b6112f0565b610bb2565b9050919050565b6000819050919050565b61132f836112fa565b61134361133b8261131c565b84845461129e565b825550505050565b600090565b61135861134b565b611363818484611326565b505050565b5b818110156113875761137c600082611350565b600181019050611369565b5050565b601f8211156113cc5761139d8161126c565b6113a684611281565b810160208510156113b5578190505b6113c96113c185611281565b830182611368565b50505b505050565b600082821c905092915050565b60006113ef600019846008026113d1565b1980831691505092915050565b600061140883836113de565b9150826002028217905092915050565b61142182610c28565b67ffffffffffffffff81111561143a57611439610f8f565b5b611444825461120c565b61144f82828561138b565b600060209050601f8311600181146114825760008415611470578287015190505b61147a85826113fc565b8655506114e2565b601f1984166114908661126c565b60005b828110156114b857848901518255600182019150602085019450602081019050611493565b868310156114d557848901516114d1601f8916826113de565b8355505b6001600288020188555050505b50505050505056fea26469706673582212206475a3f528005d335e9a04f81e855f48d8046c270685ebb8c18fa182d38558b764736f6c63430008120033",
					"opcodes": "PUSH1 0x80 PUSH1 0x40 MSTORE CALLVALUE DUP1 ISZERO PUSH2 0x10 JUMPI PUSH1 0x0 DUP1 REVERT JUMPDEST POP PUSH2 0x1520 DUP1 PUSH2 0x20 PUSH1 0x0 CODECOPY PUSH1 0x0 RETURN INVALID PUSH1 0x80 PUSH1 0x40 MSTORE CALLVALUE DUP1 ISZERO PUSH2 0x10 JUMPI PUSH1 0x0 DUP1 REVERT JUMPDEST POP PUSH1 0x4 CALLDATASIZE LT PUSH2 0x62 JUMPI PUSH1 0x0 CALLDATALOAD PUSH1 0xE0 SHR DUP1 PUSH4 0x362D52E EQ PUSH2 0x67 JUMPI DUP1 PUSH4 0x37F36A4C EQ PUSH2 0x83 JUMPI DUP1 PUSH4 0x42D7FBC0 EQ PUSH2 0xB3 JUMPI DUP1 PUSH4 0x71E7EB12 EQ PUSH2 0xD1 JUMPI DUP1 PUSH4 0x765FAB45 EQ PUSH2 0xDB JUMPI DUP1 PUSH4 0x7C9CD2BC EQ PUSH2 0xE5 JUMPI JUMPDEST PUSH1 0x0 DUP1 REVERT JUMPDEST PUSH2 0x81 PUSH1 0x4 DUP1 CALLDATASIZE SUB DUP2 ADD SWAP1 PUSH2 0x7C SWAP2 SWAP1 PUSH2 0xBE8 JUMP JUMPDEST PUSH2 0x101 JUMP JUMPDEST STOP JUMPDEST PUSH2 0x9D PUSH1 0x4 DUP1 CALLDATASIZE SUB DUP2 ADD SWAP1 PUSH2 0x98 SWAP2 SWAP1 PUSH2 0xBE8 JUMP JUMPDEST PUSH2 0x258 JUMP JUMPDEST PUSH1 0x40 MLOAD PUSH2 0xAA SWAP2 SWAP1 PUSH2 0xE02 JUMP JUMPDEST PUSH1 0x40 MLOAD DUP1 SWAP2 SUB SWAP1 RETURN JUMPDEST PUSH2 0xBB PUSH2 0x468 JUMP JUMPDEST PUSH1 0x40 MLOAD PUSH2 0xC8 SWAP2 SWAP1 PUSH2 0xF63 JUMP JUMPDEST PUSH1 0x40 MLOAD DUP1 SWAP2 SUB SWAP1 RETURN JUMPDEST PUSH2 0xD9 PUSH2 0x68E JUMP JUMPDEST STOP JUMPDEST PUSH2 0xE3 PUSH2 0x74F JUMP JUMPDEST STOP JUMPDEST PUSH2 0xFF PUSH1 0x4 DUP1 CALLDATASIZE SUB DUP2 ADD SWAP1 PUSH2 0xFA SWAP2 SWAP1 PUSH2 0x10BA JUMP JUMPDEST PUSH2 0x79C JUMP JUMPDEST STOP JUMPDEST PUSH1 0x1 PUSH1 0x0 DUP4 PUSH20 0xFFFFFFFFFFFFFFFFFFFFFFFFFFFFFFFFFFFFFFFF AND PUSH20 0xFFFFFFFFFFFFFFFFFFFFFFFFFFFFFFFFFFFFFFFF AND DUP2 MSTORE PUSH1 0x20 ADD SWAP1 DUP2 MSTORE PUSH1 0x20 ADD PUSH1 0x0 KECCAK256 PUSH1 0x1 DUP3 PUSH2 0x14D SWAP2 SWAP1 PUSH2 0x1132 JUMP JUMPDEST DUP2 SLOAD DUP2 LT PUSH2 0x15E JUMPI PUSH2 0x15D PUSH2 0x1166 JUMP JUMPDEST JUMPDEST SWAP1 PUSH1 0x0 MSTORE PUSH1 0x20 PUSH1 0x0 KECCAK256 SWAP1 PUSH1 0x5 MUL ADD PUSH1 0x3 ADD CALLER SWAP1 DUP1 PUSH1 0x1 DUP2 SLOAD ADD DUP1 DUP3 SSTORE DUP1 SWAP2 POP POP PUSH1 0x1 SWAP1 SUB SWAP1 PUSH1 0x0 MSTORE PUSH1 0x20 PUSH1 0x0 KECCAK256 ADD PUSH1 0x0 SWAP1 SWAP2 SWAP1 SWAP2 SWAP1 SWAP2 PUSH2 0x100 EXP DUP2 SLOAD DUP2 PUSH20 0xFFFFFFFFFFFFFFFFFFFFFFFFFFFFFFFFFFFFFFFF MUL NOT AND SWAP1 DUP4 PUSH20 0xFFFFFFFFFFFFFFFFFFFFFFFFFFFFFFFFFFFFFFFF AND MUL OR SWAP1 SSTORE POP PUSH1 0x1 PUSH1 0x0 DUP4 PUSH20 0xFFFFFFFFFFFFFFFFFFFFFFFFFFFFFFFFFFFFFFFF AND PUSH20 0xFFFFFFFFFFFFFFFFFFFFFFFFFFFFFFFFFFFFFFFF AND DUP2 MSTORE PUSH1 0x20 ADD SWAP1 DUP2 MSTORE PUSH1 0x20 ADD PUSH1 0x0 KECCAK256 PUSH1 0x1 DUP3 PUSH2 0x21C SWAP2 SWAP1 PUSH2 0x1132 JUMP JUMPDEST DUP2 SLOAD DUP2 LT PUSH2 0x22D JUMPI PUSH2 0x22C PUSH2 0x1166 JUMP JUMPDEST JUMPDEST SWAP1 PUSH1 0x0 MSTORE PUSH1 0x20 PUSH1 0x0 KECCAK256 SWAP1 PUSH1 0x5 MUL ADD PUSH1 0x4 ADD PUSH1 0x0 DUP2 SLOAD DUP1 SWAP3 SWAP2 SWAP1 PUSH2 0x24F SWAP1 PUSH2 0x1195 JUMP JUMPDEST SWAP2 SWAP1 POP SSTORE POP POP POP JUMP JUMPDEST PUSH2 0x260 PUSH2 0x961 JUMP JUMPDEST PUSH1 0x1 PUSH1 0x0 DUP5 PUSH20 0xFFFFFFFFFFFFFFFFFFFFFFFFFFFFFFFFFFFFFFFF AND PUSH20 0xFFFFFFFFFFFFFFFFFFFFFFFFFFFFFFFFFFFFFFFF AND DUP2 MSTORE PUSH1 0x20 ADD SWAP1 DUP2 MSTORE PUSH1 0x20 ADD PUSH1 0x0 KECCAK256 PUSH1 0x1 DUP4 PUSH2 0x2AC SWAP2 SWAP1 PUSH2 0x1132 JUMP JUMPDEST DUP2 SLOAD DUP2 LT PUSH2 0x2BD JUMPI PUSH2 0x2BC PUSH2 0x1166 JUMP JUMPDEST JUMPDEST SWAP1 PUSH1 0x0 MSTORE PUSH1 0x20 PUSH1 0x0 KECCAK256 SWAP1 PUSH1 0x5 MUL ADD PUSH1 0x40 MLOAD DUP1 PUSH1 0xA0 ADD PUSH1 0x40 MSTORE SWAP1 DUP2 PUSH1 0x0 DUP3 ADD DUP1 SLOAD PUSH2 0x2E6 SWAP1 PUSH2 0x120C JUMP JUMPDEST DUP1 PUSH1 0x1F ADD PUSH1 0x20 DUP1 SWAP2 DIV MUL PUSH1 0x20 ADD PUSH1 0x40 MLOAD SWAP1 DUP2 ADD PUSH1 0x40 MSTORE DUP1 SWAP3 SWAP2 SWAP1 DUP2 DUP2 MSTORE PUSH1 0x20 ADD DUP3 DUP1 SLOAD PUSH2 0x312 SWAP1 PUSH2 0x120C JUMP JUMPDEST DUP1 ISZERO PUSH2 0x35F JUMPI DUP1 PUSH1 0x1F LT PUSH2 0x334 JUMPI PUSH2 0x100 DUP1 DUP4 SLOAD DIV MUL DUP4 MSTORE SWAP2 PUSH1 0x20 ADD SWAP2 PUSH2 0x35F JUMP JUMPDEST DUP3 ADD SWAP2 SWAP1 PUSH1 0x0 MSTORE PUSH1 0x20 PUSH1 0x0 KECCAK256 SWAP1 JUMPDEST DUP2 SLOAD DUP2 MSTORE SWAP1 PUSH1 0x1 ADD SWAP1 PUSH1 0x20 ADD DUP1 DUP4 GT PUSH2 0x342 JUMPI DUP3 SWAP1 SUB PUSH1 0x1F AND DUP3 ADD SWAP2 JUMPDEST POP POP POP POP POP DUP2 MSTORE PUSH1 0x20 ADD PUSH1 0x1 DUP3 ADD PUSH1 0x0 SWAP1 SLOAD SWAP1 PUSH2 0x100 EXP SWAP1 DIV PUSH20 0xFFFFFFFFFFFFFFFFFFFFFFFFFFFFFFFFFFFFFFFF AND PUSH20 0xFFFFFFFFFFFFFFFFFFFFFFFFFFFFFFFFFFFFFFFF AND PUSH20 0xFFFFFFFFFFFFFFFFFFFFFFFFFFFFFFFFFFFFFFFF AND DUP2 MSTORE PUSH1 0x20 ADD PUSH1 0x2 DUP3 ADD SLOAD DUP2 MSTORE PUSH1 0x20 ADD PUSH1 0x3 DUP3 ADD DUP1 SLOAD DUP1 PUSH1 0x20 MUL PUSH1 0x20 ADD PUSH1 0x40 MLOAD SWAP1 DUP2 ADD PUSH1 0x40 MSTORE DUP1 SWAP3 SWAP2 SWAP1 DUP2 DUP2 MSTORE PUSH1 0x20 ADD DUP3 DUP1 SLOAD DUP1 ISZERO PUSH2 0x44D JUMPI PUSH1 0x20 MUL DUP3 ADD SWAP2 SWAP1 PUSH1 0x0 MSTORE PUSH1 0x20 PUSH1 0x0 KECCAK256 SWAP1 JUMPDEST DUP2 PUSH1 0x0 SWAP1 SLOAD SWAP1 PUSH2 0x100 EXP SWAP1 DIV PUSH20 0xFFFFFFFFFFFFFFFFFFFFFFFFFFFFFFFFFFFFFFFF AND PUSH20 0xFFFFFFFFFFFFFFFFFFFFFFFFFFFFFFFFFFFFFFFF AND DUP2 MSTORE PUSH1 0x20 ADD SWAP1 PUSH1 0x1 ADD SWAP1 DUP1 DUP4 GT PUSH2 0x403 JUMPI JUMPDEST POP POP POP POP POP DUP2 MSTORE PUSH1 0x20 ADD PUSH1 0x4 DUP3 ADD SLOAD DUP2 MSTORE POP POP SWAP1 POP SWAP3 SWAP2 POP POP JUMP JUMPDEST PUSH1 0x60 PUSH1 0x1 PUSH1 0x0 CALLER PUSH20 0xFFFFFFFFFFFFFFFFFFFFFFFFFFFFFFFFFFFFFFFF AND PUSH20 0xFFFFFFFFFFFFFFFFFFFFFFFFFFFFFFFFFFFFFFFF AND DUP2 MSTORE PUSH1 0x20 ADD SWAP1 DUP2 MSTORE PUSH1 0x20 ADD PUSH1 0x0 KECCAK256 DUP1 SLOAD DUP1 PUSH1 0x20 MUL PUSH1 0x20 ADD PUSH1 0x40 MLOAD SWAP1 DUP2 ADD PUSH1 0x40 MSTORE DUP1 SWAP3 SWAP2 SWAP1 DUP2 DUP2 MSTORE PUSH1 0x20 ADD PUSH1 0x0 SWAP1 JUMPDEST DUP3 DUP3 LT ISZERO PUSH2 0x685 JUMPI DUP4 DUP3 SWAP1 PUSH1 0x0 MSTORE PUSH1 0x20 PUSH1 0x0 KECCAK256 SWAP1 PUSH1 0x5 MUL ADD PUSH1 0x40 MLOAD DUP1 PUSH1 0xA0 ADD PUSH1 0x40 MSTORE SWAP1 DUP2 PUSH1 0x0 DUP3 ADD DUP1 SLOAD PUSH2 0x4FC SWAP1 PUSH2 0x120C JUMP JUMPDEST DUP1 PUSH1 0x1F ADD PUSH1 0x20 DUP1 SWAP2 DIV MUL PUSH1 0x20 ADD PUSH1 0x40 MLOAD SWAP1 DUP2 ADD PUSH1 0x40 MSTORE DUP1 SWAP3 SWAP2 SWAP1 DUP2 DUP2 MSTORE PUSH1 0x20 ADD DUP3 DUP1 SLOAD PUSH2 0x528 SWAP1 PUSH2 0x120C JUMP JUMPDEST DUP1 ISZERO PUSH2 0x575 JUMPI DUP1 PUSH1 0x1F LT PUSH2 0x54A JUMPI PUSH2 0x100 DUP1 DUP4 SLOAD DIV MUL DUP4 MSTORE SWAP2 PUSH1 0x20 ADD SWAP2 PUSH2 0x575 JUMP JUMPDEST DUP3 ADD SWAP2 SWAP1 PUSH1 0x0 MSTORE PUSH1 0x20 PUSH1 0x0 KECCAK256 SWAP1 JUMPDEST DUP2 SLOAD DUP2 MSTORE SWAP1 PUSH1 0x1 ADD SWAP1 PUSH1 0x20 ADD DUP1 DUP4 GT PUSH2 0x558 JUMPI DUP3 SWAP1 SUB PUSH1 0x1F AND DUP3 ADD SWAP2 JUMPDEST POP POP POP POP POP DUP2 MSTORE PUSH1 0x20 ADD PUSH1 0x1 DUP3 ADD PUSH1 0x0 SWAP1 SLOAD SWAP1 PUSH2 0x100 EXP SWAP1 DIV PUSH20 0xFFFFFFFFFFFFFFFFFFFFFFFFFFFFFFFFFFFFFFFF AND PUSH20 0xFFFFFFFFFFFFFFFFFFFFFFFFFFFFFFFFFFFFFFFF AND PUSH20 0xFFFFFFFFFFFFFFFFFFFFFFFFFFFFFFFFFFFFFFFF AND DUP2 MSTORE PUSH1 0x20 ADD PUSH1 0x2 DUP3 ADD SLOAD DUP2 MSTORE PUSH1 0x20 ADD PUSH1 0x3 DUP3 ADD DUP1 SLOAD DUP1 PUSH1 0x20 MUL PUSH1 0x20 ADD PUSH1 0x40 MLOAD SWAP1 DUP2 ADD PUSH1 0x40 MSTORE DUP1 SWAP3 SWAP2 SWAP1 DUP2 DUP2 MSTORE PUSH1 0x20 ADD DUP3 DUP1 SLOAD DUP1 ISZERO PUSH2 0x663 JUMPI PUSH1 0x20 MUL DUP3 ADD SWAP2 SWAP1 PUSH1 0x0 MSTORE PUSH1 0x20 PUSH1 0x0 KECCAK256 SWAP1 JUMPDEST DUP2 PUSH1 0x0 SWAP1 SLOAD SWAP1 PUSH2 0x100 EXP SWAP1 DIV PUSH20 0xFFFFFFFFFFFFFFFFFFFFFFFFFFFFFFFFFFFFFFFF AND PUSH20 0xFFFFFFFFFFFFFFFFFFFFFFFFFFFFFFFFFFFFFFFF AND DUP2 MSTORE PUSH1 0x20 ADD SWAP1 PUSH1 0x1 ADD SWAP1 DUP1 DUP4 GT PUSH2 0x619 JUMPI JUMPDEST POP POP POP POP POP DUP2 MSTORE PUSH1 0x20 ADD PUSH1 0x4 DUP3 ADD SLOAD DUP2 MSTORE POP POP DUP2 MSTORE PUSH1 0x20 ADD SWAP1 PUSH1 0x1 ADD SWAP1 PUSH2 0x4C9 JUMP JUMPDEST POP POP POP POP SWAP1 POP SWAP1 JUMP JUMPDEST PUSH1 0x1 PUSH1 0x0 CALLER PUSH20 0xFFFFFFFFFFFFFFFFFFFFFFFFFFFFFFFFFFFFFFFF AND PUSH20 0xFFFFFFFFFFFFFFFFFFFFFFFFFFFFFFFFFFFFFFFF AND DUP2 MSTORE PUSH1 0x20 ADD SWAP1 DUP2 MSTORE PUSH1 0x20 ADD PUSH1 0x0 KECCAK256 DUP1 SLOAD DUP1 PUSH2 0x6DD JUMPI PUSH2 0x6DC PUSH2 0x123D JUMP JUMPDEST JUMPDEST PUSH1 0x1 SWAP1 SUB DUP2 DUP2 SWAP1 PUSH1 0x0 MSTORE PUSH1 0x20 PUSH1 0x0 KECCAK256 SWAP1 PUSH1 0x5 MUL ADD PUSH1 0x0 DUP1 DUP3 ADD PUSH1 0x0 PUSH2 0x702 SWAP2 SWAP1 PUSH2 0x9A6 JUMP JUMPDEST PUSH1 0x1 DUP3 ADD PUSH1 0x0 PUSH2 0x100 EXP DUP2 SLOAD SWAP1 PUSH20 0xFFFFFFFFFFFFFFFFFFFFFFFFFFFFFFFFFFFFFFFF MUL NOT AND SWAP1 SSTORE PUSH1 0x2 DUP3 ADD PUSH1 0x0 SWAP1 SSTORE PUSH1 0x3 DUP3 ADD PUSH1 0x0 PUSH2 0x741 SWAP2 SWAP1 PUSH2 0x9E6 JUMP JUMPDEST PUSH1 0x4 DUP3 ADD PUSH1 0x0 SWAP1 SSTORE POP POP SWAP1 SSTORE JUMP JUMPDEST PUSH1 0x1 PUSH1 0x0 CALLER PUSH20 0xFFFFFFFFFFFFFFFFFFFFFFFFFFFFFFFFFFFFFFFF AND PUSH20 0xFFFFFFFFFFFFFFFFFFFFFFFFFFFFFFFFFFFFFFFF AND DUP2 MSTORE PUSH1 0x20 ADD SWAP1 DUP2 MSTORE PUSH1 0x20 ADD PUSH1 0x0 KECCAK256 PUSH1 0x0 PUSH2 0x79A SWAP2 SWAP1 PUSH2 0xA07 JUMP JUMPDEST JUMP JUMPDEST PUSH1 0x0 PUSH1 0x40 MLOAD DUP1 PUSH1 0xA0 ADD PUSH1 0x40 MSTORE DUP1 DUP4 DUP2 MSTORE PUSH1 0x20 ADD CALLER PUSH20 0xFFFFFFFFFFFFFFFFFFFFFFFFFFFFFFFFFFFFFFFF AND DUP2 MSTORE PUSH1 0x20 ADD TIMESTAMP DUP2 MSTORE PUSH1 0x20 ADD PUSH1 0x0 DUP1 SLOAD DUP1 PUSH1 0x20 MUL PUSH1 0x20 ADD PUSH1 0x40 MLOAD SWAP1 DUP2 ADD PUSH1 0x40 MSTORE DUP1 SWAP3 SWAP2 SWAP1 DUP2 DUP2 MSTORE PUSH1 0x20 ADD DUP3 DUP1 SLOAD DUP1 ISZERO PUSH2 0x853 JUMPI PUSH1 0x20 MUL DUP3 ADD SWAP2 SWAP1 PUSH1 0x0 MSTORE PUSH1 0x20 PUSH1 0x0 KECCAK256 SWAP1 JUMPDEST DUP2 PUSH1 0x0 SWAP1 SLOAD SWAP1 PUSH2 0x100 EXP SWAP1 DIV PUSH20 0xFFFFFFFFFFFFFFFFFFFFFFFFFFFFFFFFFFFFFFFF AND PUSH20 0xFFFFFFFFFFFFFFFFFFFFFFFFFFFFFFFFFFFFFFFF AND DUP2 MSTORE PUSH1 0x20 ADD SWAP1 PUSH1 0x1 ADD SWAP1 DUP1 DUP4 GT PUSH2 0x809 JUMPI JUMPDEST POP POP POP POP POP DUP2 MSTORE PUSH1 0x20 ADD PUSH1 0x0 DUP2 MSTORE POP SWAP1 POP PUSH1 0x1 PUSH1 0x0 CALLER PUSH20 0xFFFFFFFFFFFFFFFFFFFFFFFFFFFFFFFFFFFFFFFF AND PUSH20 0xFFFFFFFFFFFFFFFFFFFFFFFFFFFFFFFFFFFFFFFF AND DUP2 MSTORE PUSH1 0x20 ADD SWAP1 DUP2 MSTORE PUSH1 0x20 ADD PUSH1 0x0 KECCAK256 DUP2 SWAP1 DUP1 PUSH1 0x1 DUP2 SLOAD ADD DUP1 DUP3 SSTORE DUP1 SWAP2 POP POP PUSH1 0x1 SWAP1 SUB SWAP1 PUSH1 0x0 MSTORE PUSH1 0x20 PUSH1 0x0 KECCAK256 SWAP1 PUSH1 0x5 MUL ADD PUSH1 0x0 SWAP1 SWAP2 SWAP1 SWAP2 SWAP1 SWAP2 POP PUSH1 0x0 DUP3 ADD MLOAD DUP2 PUSH1 0x0 ADD SWAP1 DUP2 PUSH2 0x8E2 SWAP2 SWAP1 PUSH2 0x1418 JUMP JUMPDEST POP PUSH1 0x20 DUP3 ADD MLOAD DUP2 PUSH1 0x1 ADD PUSH1 0x0 PUSH2 0x100 EXP DUP2 SLOAD DUP2 PUSH20 0xFFFFFFFFFFFFFFFFFFFFFFFFFFFFFFFFFFFFFFFF MUL NOT AND SWAP1 DUP4 PUSH20 0xFFFFFFFFFFFFFFFFFFFFFFFFFFFFFFFFFFFFFFFF AND MUL OR SWAP1 SSTORE POP PUSH1 0x40 DUP3 ADD MLOAD DUP2 PUSH1 0x2 ADD SSTORE PUSH1 0x60 DUP3 ADD MLOAD DUP2 PUSH1 0x3 ADD SWAP1 DUP1 MLOAD SWAP1 PUSH1 0x20 ADD SWAP1 PUSH2 0x950 SWAP3 SWAP2 SWAP1 PUSH2 0xA2B JUMP JUMPDEST POP PUSH1 0x80 DUP3 ADD MLOAD DUP2 PUSH1 0x4 ADD SSTORE POP POP POP POP JUMP JUMPDEST PUSH1 0x40 MLOAD DUP1 PUSH1 0xA0 ADD PUSH1 0x40 MSTORE DUP1 PUSH1 0x60 DUP2 MSTORE PUSH1 0x20 ADD PUSH1 0x0 PUSH20 0xFFFFFFFFFFFFFFFFFFFFFFFFFFFFFFFFFFFFFFFF AND DUP2 MSTORE PUSH1 0x20 ADD PUSH1 0x0 DUP2 MSTORE PUSH1 0x20 ADD PUSH1 0x60 DUP2 MSTORE PUSH1 0x20 ADD PUSH1 0x0 DUP2 MSTORE POP SWAP1 JUMP JUMPDEST POP DUP1 SLOAD PUSH2 0x9B2 SWAP1 PUSH2 0x120C JUMP JUMPDEST PUSH1 0x0 DUP3 SSTORE DUP1 PUSH1 0x1F LT PUSH2 0x9C4 JUMPI POP PUSH2 0x9E3 JUMP JUMPDEST PUSH1 0x1F ADD PUSH1 0x20 SWAP1 DIV SWAP1 PUSH1 0x0 MSTORE PUSH1 0x20 PUSH1 0x0 KECCAK256 SWAP1 DUP2 ADD SWAP1 PUSH2 0x9E2 SWAP2 SWAP1 PUSH2 0xAB5 JUMP JUMPDEST JUMPDEST POP JUMP JUMPDEST POP DUP1 SLOAD PUSH1 0x0 DUP3 SSTORE SWAP1 PUSH1 0x0 MSTORE PUSH1 0x20 PUSH1 0x0 KECCAK256 SWAP1 DUP2 ADD SWAP1 PUSH2 0xA04 SWAP2 SWAP1 PUSH2 0xAB5 JUMP JUMPDEST POP JUMP JUMPDEST POP DUP1 SLOAD PUSH1 0x0 DUP3 SSTORE PUSH1 0x5 MUL SWAP1 PUSH1 0x0 MSTORE PUSH1 0x20 PUSH1 0x0 KECCAK256 SWAP1 DUP2 ADD SWAP1 PUSH2 0xA28 SWAP2 SWAP1 PUSH2 0xAD2 JUMP JUMPDEST POP JUMP JUMPDEST DUP3 DUP1 SLOAD DUP3 DUP3 SSTORE SWAP1 PUSH1 0x0 MSTORE PUSH1 0x20 PUSH1 0x0 KECCAK256 SWAP1 DUP2 ADD SWAP3 DUP3 ISZERO PUSH2 0xAA4 JUMPI SWAP2 PUSH1 0x20 MUL DUP3 ADD JUMPDEST DUP3 DUP2 GT ISZERO PUSH2 0xAA3 JUMPI DUP3 MLOAD DUP3 PUSH1 0x0 PUSH2 0x100 EXP DUP2 SLOAD DUP2 PUSH20 0xFFFFFFFFFFFFFFFFFFFFFFFFFFFFFFFFFFFFFFFF MUL NOT AND SWAP1 DUP4 PUSH20 0xFFFFFFFFFFFFFFFFFFFFFFFFFFFFFFFFFFFFFFFF AND MUL OR SWAP1 SSTORE POP SWAP2 PUSH1 0x20 ADD SWAP2 SWAP1 PUSH1 0x1 ADD SWAP1 PUSH2 0xA4B JUMP JUMPDEST JUMPDEST POP SWAP1 POP PUSH2 0xAB1 SWAP2 SWAP1 PUSH2 0xAB5 JUMP JUMPDEST POP SWAP1 JUMP JUMPDEST JUMPDEST DUP1 DUP3 GT ISZERO PUSH2 0xACE JUMPI PUSH1 0x0 DUP2 PUSH1 0x0 SWAP1 SSTORE POP PUSH1 0x1 ADD PUSH2 0xAB6 JUMP JUMPDEST POP SWAP1 JUMP JUMPDEST JUMPDEST DUP1 DUP3 GT ISZERO PUSH2 0xB3C JUMPI PUSH1 0x0 DUP1 DUP3 ADD PUSH1 0x0 PUSH2 0xAEC SWAP2 SWAP1 PUSH2 0x9A6 JUMP JUMPDEST PUSH1 0x1 DUP3 ADD PUSH1 0x0 PUSH2 0x100 EXP DUP2 SLOAD SWAP1 PUSH20 0xFFFFFFFFFFFFFFFFFFFFFFFFFFFFFFFFFFFFFFFF MUL NOT AND SWAP1 SSTORE PUSH1 0x2 DUP3 ADD PUSH1 0x0 SWAP1 SSTORE PUSH1 0x3 DUP3 ADD PUSH1 0x0 PUSH2 0xB2B SWAP2 SWAP1 PUSH2 0x9E6 JUMP JUMPDEST PUSH1 0x4 DUP3 ADD PUSH1 0x0 SWAP1 SSTORE POP PUSH1 0x5 ADD PUSH2 0xAD3 JUMP JUMPDEST POP SWAP1 JUMP JUMPDEST PUSH1 0x0 PUSH1 0x40 MLOAD SWAP1 POP SWAP1 JUMP JUMPDEST PUSH1 0x0 DUP1 REVERT JUMPDEST PUSH1 0x0 DUP1 REVERT JUMPDEST PUSH1 0x0 PUSH20 0xFFFFFFFFFFFFFFFFFFFFFFFFFFFFFFFFFFFFFFFF DUP3 AND SWAP1 POP SWAP2 SWAP1 POP JUMP JUMPDEST PUSH1 0x0 PUSH2 0xB7F DUP3 PUSH2 0xB54 JUMP JUMPDEST SWAP1 POP SWAP2 SWAP1 POP JUMP JUMPDEST PUSH2 0xB8F DUP2 PUSH2 0xB74 JUMP JUMPDEST DUP2 EQ PUSH2 0xB9A JUMPI PUSH1 0x0 DUP1 REVERT JUMPDEST POP JUMP JUMPDEST PUSH1 0x0 DUP2 CALLDATALOAD SWAP1 POP PUSH2 0xBAC DUP2 PUSH2 0xB86 JUMP JUMPDEST SWAP3 SWAP2 POP POP JUMP JUMPDEST PUSH1 0x0 DUP2 SWAP1 POP SWAP2 SWAP1 POP JUMP JUMPDEST PUSH2 0xBC5 DUP2 PUSH2 0xBB2 JUMP JUMPDEST DUP2 EQ PUSH2 0xBD0 JUMPI PUSH1 0x0 DUP1 REVERT JUMPDEST POP JUMP JUMPDEST PUSH1 0x0 DUP2 CALLDATALOAD SWAP1 POP PUSH2 0xBE2 DUP2 PUSH2 0xBBC JUMP JUMPDEST SWAP3 SWAP2 POP POP JUMP JUMPDEST PUSH1 0x0 DUP1 PUSH1 0x40 DUP4 DUP6 SUB SLT ISZERO PUSH2 0xBFF JUMPI PUSH2 0xBFE PUSH2 0xB4A JUMP JUMPDEST JUMPDEST PUSH1 0x0 PUSH2 0xC0D DUP6 DUP3 DUP7 ADD PUSH2 0xB9D JUMP JUMPDEST SWAP3 POP POP PUSH1 0x20 PUSH2 0xC1E DUP6 DUP3 DUP7 ADD PUSH2 0xBD3 JUMP JUMPDEST SWAP2 POP POP SWAP3 POP SWAP3 SWAP1 POP JUMP JUMPDEST PUSH1 0x0 DUP2 MLOAD SWAP1 POP SWAP2 SWAP1 POP JUMP JUMPDEST PUSH1 0x0 DUP3 DUP3 MSTORE PUSH1 0x20 DUP3 ADD SWAP1 POP SWAP3 SWAP2 POP POP JUMP JUMPDEST PUSH1 0x0 JUMPDEST DUP4 DUP2 LT ISZERO PUSH2 0xC62 JUMPI DUP1 DUP3 ADD MLOAD DUP2 DUP5 ADD MSTORE PUSH1 0x20 DUP2 ADD SWAP1 POP PUSH2 0xC47 JUMP JUMPDEST PUSH1 0x0 DUP5 DUP5 ADD MSTORE POP POP POP POP JUMP JUMPDEST PUSH1 0x0 PUSH1 0x1F NOT PUSH1 0x1F DUP4 ADD AND SWAP1 POP SWAP2 SWAP1 POP JUMP JUMPDEST PUSH1 0x0 PUSH2 0xC8A DUP3 PUSH2 0xC28 JUMP JUMPDEST PUSH2 0xC94 DUP2 DUP6 PUSH2 0xC33 JUMP JUMPDEST SWAP4 POP PUSH2 0xCA4 DUP2 DUP6 PUSH1 0x20 DUP7 ADD PUSH2 0xC44 JUMP JUMPDEST PUSH2 0xCAD DUP2 PUSH2 0xC6E JUMP JUMPDEST DUP5 ADD SWAP2 POP POP SWAP3 SWAP2 POP POP JUMP JUMPDEST PUSH2 0xCC1 DUP2 PUSH2 0xB74 JUMP JUMPDEST DUP3 MSTORE POP POP JUMP JUMPDEST PUSH2 0xCD0 DUP2 PUSH2 0xBB2 JUMP JUMPDEST DUP3 MSTORE POP POP JUMP JUMPDEST PUSH1 0x0 DUP2 MLOAD SWAP1 POP SWAP2 SWAP1 POP JUMP JUMPDEST PUSH1 0x0 DUP3 DUP3 MSTORE PUSH1 0x20 DUP3 ADD SWAP1 POP SWAP3 SWAP2 POP POP JUMP JUMPDEST PUSH1 0x0 DUP2 SWAP1 POP PUSH1 0x20 DUP3 ADD SWAP1 POP SWAP2 SWAP1 POP JUMP JUMPDEST PUSH1 0x0 PUSH2 0xD0E DUP4 DUP4 PUSH2 0xCB8 JUMP JUMPDEST PUSH1 0x20 DUP4 ADD SWAP1 POP SWAP3 SWAP2 POP POP JUMP JUMPDEST PUSH1 0x0 PUSH1 0x20 DUP3 ADD SWAP1 POP SWAP2 SWAP1 POP JUMP JUMPDEST PUSH1 0x0 PUSH2 0xD32 DUP3 PUSH2 0xCD6 JUMP JUMPDEST PUSH2 0xD3C DUP2 DUP6 PUSH2 0xCE1 JUMP JUMPDEST SWAP4 POP PUSH2 0xD47 DUP4 PUSH2 0xCF2 JUMP JUMPDEST DUP1 PUSH1 0x0 JUMPDEST DUP4 DUP2 LT ISZERO PUSH2 0xD78 JUMPI DUP2 MLOAD PUSH2 0xD5F DUP9 DUP3 PUSH2 0xD02 JUMP JUMPDEST SWAP8 POP PUSH2 0xD6A DUP4 PUSH2 0xD1A JUMP JUMPDEST SWAP3 POP POP PUSH1 0x1 DUP2 ADD SWAP1 POP PUSH2 0xD4B JUMP JUMPDEST POP DUP6 SWAP4 POP POP POP POP SWAP3 SWAP2 POP POP JUMP JUMPDEST PUSH1 0x0 PUSH1 0xA0 DUP4 ADD PUSH1 0x0 DUP4 ADD MLOAD DUP5 DUP3 SUB PUSH1 0x0 DUP7 ADD MSTORE PUSH2 0xDA2 DUP3 DUP3 PUSH2 0xC7F JUMP JUMPDEST SWAP2 POP POP PUSH1 0x20 DUP4 ADD MLOAD PUSH2 0xDB7 PUSH1 0x20 DUP7 ADD DUP3 PUSH2 0xCB8 JUMP JUMPDEST POP PUSH1 0x40 DUP4 ADD MLOAD PUSH2 0xDCA PUSH1 0x40 DUP7 ADD DUP3 PUSH2 0xCC7 JUMP JUMPDEST POP PUSH1 0x60 DUP4 ADD MLOAD DUP5 DUP3 SUB PUSH1 0x60 DUP7 ADD MSTORE PUSH2 0xDE2 DUP3 DUP3 PUSH2 0xD27 JUMP JUMPDEST SWAP2 POP POP PUSH1 0x80 DUP4 ADD MLOAD PUSH2 0xDF7 PUSH1 0x80 DUP7 ADD DUP3 PUSH2 0xCC7 JUMP JUMPDEST POP DUP1 SWAP2 POP POP SWAP3 SWAP2 POP POP JUMP JUMPDEST PUSH1 0x0 PUSH1 0x20 DUP3 ADD SWAP1 POP DUP2 DUP2 SUB PUSH1 0x0 DUP4 ADD MSTORE PUSH2 0xE1C DUP2 DUP5 PUSH2 0xD85 JUMP JUMPDEST SWAP1 POP SWAP3 SWAP2 POP POP JUMP JUMPDEST PUSH1 0x0 DUP2 MLOAD SWAP1 POP SWAP2 SWAP1 POP JUMP JUMPDEST PUSH1 0x0 DUP3 DUP3 MSTORE PUSH1 0x20 DUP3 ADD SWAP1 POP SWAP3 SWAP2 POP POP JUMP JUMPDEST PUSH1 0x0 DUP2 SWAP1 POP PUSH1 0x20 DUP3 ADD SWAP1 POP SWAP2 SWAP1 POP JUMP JUMPDEST PUSH1 0x0 PUSH1 0xA0 DUP4 ADD PUSH1 0x0 DUP4 ADD MLOAD DUP5 DUP3 SUB PUSH1 0x0 DUP7 ADD MSTORE PUSH2 0xE6D DUP3 DUP3 PUSH2 0xC7F JUMP JUMPDEST SWAP2 POP POP PUSH1 0x20 DUP4 ADD MLOAD PUSH2 0xE82 PUSH1 0x20 DUP7 ADD DUP3 PUSH2 0xCB8 JUMP JUMPDEST POP PUSH1 0x40 DUP4 ADD MLOAD PUSH2 0xE95 PUSH1 0x40 DUP7 ADD DUP3 PUSH2 0xCC7 JUMP JUMPDEST POP PUSH1 0x60 DUP4 ADD MLOAD DUP5 DUP3 SUB PUSH1 0x60 DUP7 ADD MSTORE PUSH2 0xEAD DUP3 DUP3 PUSH2 0xD27 JUMP JUMPDEST SWAP2 POP POP PUSH1 0x80 DUP4 ADD MLOAD PUSH2 0xEC2 PUSH1 0x80 DUP7 ADD DUP3 PUSH2 0xCC7 JUMP JUMPDEST POP DUP1 SWAP2 POP POP SWAP3 SWAP2 POP POP JUMP JUMPDEST PUSH1 0x0 PUSH2 0xED9 DUP4 DUP4 PUSH2 0xE50 JUMP JUMPDEST SWAP1 POP SWAP3 SWAP2 POP POP JUMP JUMPDEST PUSH1 0x0 PUSH1 0x20 DUP3 ADD SWAP1 POP SWAP2 SWAP1 POP JUMP JUMPDEST PUSH1 0x0 PUSH2 0xEF9 DUP3 PUSH2 0xE24 JUMP JUMPDEST PUSH2 0xF03 DUP2 DUP6 PUSH2 0xE2F JUMP JUMPDEST SWAP4 POP DUP4 PUSH1 0x20 DUP3 MUL DUP6 ADD PUSH2 0xF15 DUP6 PUSH2 0xE40 JUMP JUMPDEST DUP1 PUSH1 0x0 JUMPDEST DUP6 DUP2 LT ISZERO PUSH2 0xF51 JUMPI DUP5 DUP5 SUB DUP10 MSTORE DUP2 MLOAD PUSH2 0xF32 DUP6 DUP3 PUSH2 0xECD JUMP JUMPDEST SWAP5 POP PUSH2 0xF3D DUP4 PUSH2 0xEE1 JUMP JUMPDEST SWAP3 POP PUSH1 0x20 DUP11 ADD SWAP10 POP POP PUSH1 0x1 DUP2 ADD SWAP1 POP PUSH2 0xF19 JUMP JUMPDEST POP DUP3 SWAP8 POP DUP8 SWAP6 POP POP POP POP POP POP SWAP3 SWAP2 POP POP JUMP JUMPDEST PUSH1 0x0 PUSH1 0x20 DUP3 ADD SWAP1 POP DUP2 DUP2 SUB PUSH1 0x0 DUP4 ADD MSTORE PUSH2 0xF7D DUP2 DUP5 PUSH2 0xEEE JUMP JUMPDEST SWAP1 POP SWAP3 SWAP2 POP POP JUMP JUMPDEST PUSH1 0x0 DUP1 REVERT JUMPDEST PUSH1 0x0 DUP1 REVERT JUMPDEST PUSH32 0x4E487B7100000000000000000000000000000000000000000000000000000000 PUSH1 0x0 MSTORE PUSH1 0x41 PUSH1 0x4 MSTORE PUSH1 0x24 PUSH1 0x0 REVERT JUMPDEST PUSH2 0xFC7 DUP3 PUSH2 0xC6E JUMP JUMPDEST DUP2 ADD DUP2 DUP2 LT PUSH8 0xFFFFFFFFFFFFFFFF DUP3 GT OR ISZERO PUSH2 0xFE6 JUMPI PUSH2 0xFE5 PUSH2 0xF8F JUMP JUMPDEST JUMPDEST DUP1 PUSH1 0x40 MSTORE POP POP POP JUMP JUMPDEST PUSH1 0x0 PUSH2 0xFF9 PUSH2 0xB40 JUMP JUMPDEST SWAP1 POP PUSH2 0x1005 DUP3 DUP3 PUSH2 0xFBE JUMP JUMPDEST SWAP2 SWAP1 POP JUMP JUMPDEST PUSH1 0x0 PUSH8 0xFFFFFFFFFFFFFFFF DUP3 GT ISZERO PUSH2 0x1025 JUMPI PUSH2 0x1024 PUSH2 0xF8F JUMP JUMPDEST JUMPDEST PUSH2 0x102E DUP3 PUSH2 0xC6E JUMP JUMPDEST SWAP1 POP PUSH1 0x20 DUP2 ADD SWAP1 POP SWAP2 SWAP1 POP JUMP JUMPDEST DUP3 DUP2 DUP4 CALLDATACOPY PUSH1 0x0 DUP4 DUP4 ADD MSTORE POP POP POP JUMP JUMPDEST PUSH1 0x0 PUSH2 0x105D PUSH2 0x1058 DUP5 PUSH2 0x100A JUMP JUMPDEST PUSH2 0xFEF JUMP JUMPDEST SWAP1 POP DUP3 DUP2 MSTORE PUSH1 0x20 DUP2 ADD DUP5 DUP5 DUP5 ADD GT ISZERO PUSH2 0x1079 JUMPI PUSH2 0x1078 PUSH2 0xF8A JUMP JUMPDEST JUMPDEST PUSH2 0x1084 DUP5 DUP3 DUP6 PUSH2 0x103B JUMP JUMPDEST POP SWAP4 SWAP3 POP POP POP JUMP JUMPDEST PUSH1 0x0 DUP3 PUSH1 0x1F DUP4 ADD SLT PUSH2 0x10A1 JUMPI PUSH2 0x10A0 PUSH2 0xF85 JUMP JUMPDEST JUMPDEST DUP2 CALLDATALOAD PUSH2 0x10B1 DUP5 DUP3 PUSH1 0x20 DUP7 ADD PUSH2 0x104A JUMP JUMPDEST SWAP2 POP POP SWAP3 SWAP2 POP POP JUMP JUMPDEST PUSH1 0x0 PUSH1 0x20 DUP3 DUP5 SUB SLT ISZERO PUSH2 0x10D0 JUMPI PUSH2 0x10CF PUSH2 0xB4A JUMP JUMPDEST JUMPDEST PUSH1 0x0 DUP3 ADD CALLDATALOAD PUSH8 0xFFFFFFFFFFFFFFFF DUP2 GT ISZERO PUSH2 0x10EE JUMPI PUSH2 0x10ED PUSH2 0xB4F JUMP JUMPDEST JUMPDEST PUSH2 0x10FA DUP5 DUP3 DUP6 ADD PUSH2 0x108C JUMP JUMPDEST SWAP2 POP POP SWAP3 SWAP2 POP POP JUMP JUMPDEST PUSH32 0x4E487B7100000000000000000000000000000000000000000000000000000000 PUSH1 0x0 MSTORE PUSH1 0x11 PUSH1 0x4 MSTORE PUSH1 0x24 PUSH1 0x0 REVERT JUMPDEST PUSH1 0x0 PUSH2 0x113D DUP3 PUSH2 0xBB2 JUMP JUMPDEST SWAP2 POP PUSH2 0x1148 DUP4 PUSH2 0xBB2 JUMP JUMPDEST SWAP3 POP DUP3 DUP3 SUB SWAP1 POP DUP2 DUP2 GT ISZERO PUSH2 0x1160 JUMPI PUSH2 0x115F PUSH2 0x1103 JUMP JUMPDEST JUMPDEST SWAP3 SWAP2 POP POP JUMP JUMPDEST PUSH32 0x4E487B7100000000000000000000000000000000000000000000000000000000 PUSH1 0x0 MSTORE PUSH1 0x32 PUSH1 0x4 MSTORE PUSH1 0x24 PUSH1 0x0 REVERT JUMPDEST PUSH1 0x0 PUSH2 0x11A0 DUP3 PUSH2 0xBB2 JUMP JUMPDEST SWAP2 POP PUSH32 0xFFFFFFFFFFFFFFFFFFFFFFFFFFFFFFFFFFFFFFFFFFFFFFFFFFFFFFFFFFFFFFFF DUP3 SUB PUSH2 0x11D2 JUMPI PUSH2 0x11D1 PUSH2 0x1103 JUMP JUMPDEST JUMPDEST PUSH1 0x1 DUP3 ADD SWAP1 POP SWAP2 SWAP1 POP JUMP JUMPDEST PUSH32 0x4E487B7100000000000000000000000000000000000000000000000000000000 PUSH1 0x0 MSTORE PUSH1 0x22 PUSH1 0x4 MSTORE PUSH1 0x24 PUSH1 0x0 REVERT JUMPDEST PUSH1 0x0 PUSH1 0x2 DUP3 DIV SWAP1 POP PUSH1 0x1 DUP3 AND DUP1 PUSH2 0x1224 JUMPI PUSH1 0x7F DUP3 AND SWAP2 POP JUMPDEST PUSH1 0x20 DUP3 LT DUP2 SUB PUSH2 0x1237 JUMPI PUSH2 0x1236 PUSH2 0x11DD JUMP JUMPDEST JUMPDEST POP SWAP2 SWAP1 POP JUMP JUMPDEST PUSH32 0x4E487B7100000000000000000000000000000000000000000000000000000000 PUSH1 0x0 MSTORE PUSH1 0x31 PUSH1 0x4 MSTORE PUSH1 0x24 PUSH1 0x0 REVERT JUMPDEST PUSH1 0x0 DUP2 SWAP1 POP DUP2 PUSH1 0x0 MSTORE PUSH1 0x20 PUSH1 0x0 KECCAK256 SWAP1 POP SWAP2 SWAP1 POP JUMP JUMPDEST PUSH1 0x0 PUSH1 0x20 PUSH1 0x1F DUP4 ADD DIV SWAP1 POP SWAP2 SWAP1 POP JUMP JUMPDEST PUSH1 0x0 DUP3 DUP3 SHL SWAP1 POP SWAP3 SWAP2 POP POP JUMP JUMPDEST PUSH1 0x0 PUSH1 0x8 DUP4 MUL PUSH2 0x12CE PUSH32 0xFFFFFFFFFFFFFFFFFFFFFFFFFFFFFFFFFFFFFFFFFFFFFFFFFFFFFFFFFFFFFFFF DUP3 PUSH2 0x1291 JUMP JUMPDEST PUSH2 0x12D8 DUP7 DUP4 PUSH2 0x1291 JUMP JUMPDEST SWAP6 POP DUP1 NOT DUP5 AND SWAP4 POP DUP1 DUP7 AND DUP5 OR SWAP3 POP POP POP SWAP4 SWAP3 POP POP POP JUMP JUMPDEST PUSH1 0x0 DUP2 SWAP1 POP SWAP2 SWAP1 POP JUMP JUMPDEST PUSH1 0x0 PUSH2 0x1315 PUSH2 0x1310 PUSH2 0x130B DUP5 PUSH2 0xBB2 JUMP JUMPDEST PUSH2 0x12F0 JUMP JUMPDEST PUSH2 0xBB2 JUMP JUMPDEST SWAP1 POP SWAP2 SWAP1 POP JUMP JUMPDEST PUSH1 0x0 DUP2 SWAP1 POP SWAP2 SWAP1 POP JUMP JUMPDEST PUSH2 0x132F DUP4 PUSH2 0x12FA JUMP JUMPDEST PUSH2 0x1343 PUSH2 0x133B DUP3 PUSH2 0x131C JUMP JUMPDEST DUP5 DUP5 SLOAD PUSH2 0x129E JUMP JUMPDEST DUP3 SSTORE POP POP POP POP JUMP JUMPDEST PUSH1 0x0 SWAP1 JUMP JUMPDEST PUSH2 0x1358 PUSH2 0x134B JUMP JUMPDEST PUSH2 0x1363 DUP2 DUP5 DUP5 PUSH2 0x1326 JUMP JUMPDEST POP POP POP JUMP JUMPDEST JUMPDEST DUP2 DUP2 LT ISZERO PUSH2 0x1387 JUMPI PUSH2 0x137C PUSH1 0x0 DUP3 PUSH2 0x1350 JUMP JUMPDEST PUSH1 0x1 DUP2 ADD SWAP1 POP PUSH2 0x1369 JUMP JUMPDEST POP POP JUMP JUMPDEST PUSH1 0x1F DUP3 GT ISZERO PUSH2 0x13CC JUMPI PUSH2 0x139D DUP2 PUSH2 0x126C JUMP JUMPDEST PUSH2 0x13A6 DUP5 PUSH2 0x1281 JUMP JUMPDEST DUP2 ADD PUSH1 0x20 DUP6 LT ISZERO PUSH2 0x13B5 JUMPI DUP2 SWAP1 POP JUMPDEST PUSH2 0x13C9 PUSH2 0x13C1 DUP6 PUSH2 0x1281 JUMP JUMPDEST DUP4 ADD DUP3 PUSH2 0x1368 JUMP JUMPDEST POP POP JUMPDEST POP POP POP JUMP JUMPDEST PUSH1 0x0 DUP3 DUP3 SHR SWAP1 POP SWAP3 SWAP2 POP POP JUMP JUMPDEST PUSH1 0x0 PUSH2 0x13EF PUSH1 0x0 NOT DUP5 PUSH1 0x8 MUL PUSH2 0x13D1 JUMP JUMPDEST NOT DUP1 DUP4 AND SWAP2 POP POP SWAP3 SWAP2 POP POP JUMP JUMPDEST PUSH1 0x0 PUSH2 0x1408 DUP4 DUP4 PUSH2 0x13DE JUMP JUMPDEST SWAP2 POP DUP3 PUSH1 0x2 MUL DUP3 OR SWAP1 POP SWAP3 SWAP2 POP POP JUMP JUMPDEST PUSH2 0x1421 DUP3 PUSH2 0xC28 JUMP JUMPDEST PUSH8 0xFFFFFFFFFFFFFFFF DUP2 GT ISZERO PUSH2 0x143A JUMPI PUSH2 0x1439 PUSH2 0xF8F JUMP JUMPDEST JUMPDEST PUSH2 0x1444 DUP3 SLOAD PUSH2 0x120C JUMP JUMPDEST PUSH2 0x144F DUP3 DUP3 DUP6 PUSH2 0x138B JUMP JUMPDEST PUSH1 0x0 PUSH1 0x20 SWAP1 POP PUSH1 0x1F DUP4 GT PUSH1 0x1 DUP2 EQ PUSH2 0x1482 JUMPI PUSH1 0x0 DUP5 ISZERO PUSH2 0x1470 JUMPI DUP3 DUP8 ADD MLOAD SWAP1 POP JUMPDEST PUSH2 0x147A DUP6 DUP3 PUSH2 0x13FC JUMP JUMPDEST DUP7 SSTORE POP PUSH2 0x14E2 JUMP JUMPDEST PUSH1 0x1F NOT DUP5 AND PUSH2 0x1490 DUP7 PUSH2 0x126C JUMP JUMPDEST PUSH1 0x0 JUMPDEST DUP3 DUP2 LT ISZERO PUSH2 0x14B8 JUMPI DUP5 DUP10 ADD MLOAD DUP3 SSTORE PUSH1 0x1 DUP3 ADD SWAP2 POP PUSH1 0x20 DUP6 ADD SWAP5 POP PUSH1 0x20 DUP2 ADD SWAP1 POP PUSH2 0x1493 JUMP JUMPDEST DUP7 DUP4 LT ISZERO PUSH2 0x14D5 JUMPI DUP5 DUP10 ADD MLOAD PUSH2 0x14D1 PUSH1 0x1F DUP10 AND DUP3 PUSH2 0x13DE JUMP JUMPDEST DUP4 SSTORE POP JUMPDEST PUSH1 0x1 PUSH1 0x2 DUP9 MUL ADD DUP9 SSTORE POP POP POP JUMPDEST POP POP POP POP POP POP JUMP INVALID LOG2 PUSH5 0x6970667358 0x22 SLT KECCAK256 PUSH5 0x75A3F52800 0x5D CALLER 0x5E SWAP11 DIV 0xF8 0x1E DUP6 0x5F BASEFEE 0xD8 DIV PUSH13 0x270685EBB8C18FA182D38558B7 PUSH5 0x736F6C6343 STOP ADDMOD SLT STOP CALLER "
				},
				"gasEstimates": {
					"creation": {
						"codeDepositCost": "1081600",
						"executionCost": "1120",
						"totalCost": "1082720"
					},
					"external": {
						"DeleteAllTweets()": "infinite",
						"DeleteRecentTweet()": "infinite",
						"GetAllTweets()": "infinite",
						"GetTweet(address,uint256)": "infinite",
						"GiveLikes(address,uint256)": "infinite",
						"createTweet(string)": "infinite"
					}
				},
				"methodIdentifiers": {
					"DeleteAllTweets()": "765fab45",
					"DeleteRecentTweet()": "71e7eb12",
					"GetAllTweets()": "42d7fbc0",
					"GetTweet(address,uint256)": "37f36a4c",
					"GiveLikes(address,uint256)": "0362d52e",
					"createTweet(string)": "7c9cd2bc"
				}
			},
			"storageLayout": {
				"storage": [
					{
						"astId": 16,
						"contract": "contracts/Twitter0.2v.sol:Twitter",
						"label": "li",
						"offset": 0,
						"slot": "0",
						"type": "t_array(t_address)dyn_storage"
					},
					{
						"astId": 22,
						"contract": "contracts/Twitter0.2v.sol:Twitter",
						"label": "Tweet_info",
						"offset": 0,
						"slot": "1",
						"type": "t_mapping(t_address,t_array(t_struct(Tweet)13_storage)dyn_storage)"
					}
				],
				"types": {
					"t_address": {
						"encoding": "inplace",
						"label": "address",
						"numberOfBytes": "20"
					},
					"t_array(t_address)dyn_storage": {
						"base": "t_address",
						"encoding": "dynamic_array",
						"label": "address[]",
						"numberOfBytes": "32"
					},
					"t_array(t_struct(Tweet)13_storage)dyn_storage": {
						"base": "t_struct(Tweet)13_storage",
						"encoding": "dynamic_array",
						"label": "struct Twitter.Tweet[]",
						"numberOfBytes": "32"
					},
					"t_mapping(t_address,t_array(t_struct(Tweet)13_storage)dyn_storage)": {
						"encoding": "mapping",
						"key": "t_address",
						"label": "mapping(address => struct Twitter.Tweet[])",
						"numberOfBytes": "32",
						"value": "t_array(t_struct(Tweet)13_storage)dyn_storage"
					},
					"t_string_storage": {
						"encoding": "bytes",
						"label": "string",
						"numberOfBytes": "32"
					},
					"t_struct(Tweet)13_storage": {
						"encoding": "inplace",
						"label": "struct Twitter.Tweet",
						"members": [
							{
								"astId": 3,
								"contract": "contracts/Twitter0.2v.sol:Twitter",
								"label": "content",
								"offset": 0,
								"slot": "0",
								"type": "t_string_storage"
							},
							{
								"astId": 5,
								"contract": "contracts/Twitter0.2v.sol:Twitter",
								"label": "author",
								"offset": 0,
								"slot": "1",
								"type": "t_address"
							},
							{
								"astId": 7,
								"contract": "contracts/Twitter0.2v.sol:Twitter",
								"label": "timestamp",
								"offset": 0,
								"slot": "2",
								"type": "t_uint256"
							},
							{
								"astId": 10,
								"contract": "contracts/Twitter0.2v.sol:Twitter",
								"label": "likes",
								"offset": 0,
								"slot": "3",
								"type": "t_array(t_address)dyn_storage"
							},
							{
								"astId": 12,
								"contract": "contracts/Twitter0.2v.sol:Twitter",
								"label": "LikesCount",
								"offset": 0,
								"slot": "4",
								"type": "t_uint256"
							}
						],
						"numberOfBytes": "160"
					},
					"t_uint256": {
						"encoding": "inplace",
						"label": "uint256",
						"numberOfBytes": "32"
					}
				}
			},
			"userdoc": {
				"kind": "user",
				"methods": {},
				"version": 1
			}
		}
	}
}