{
	"contracts/Twitter0.1v.sol": {
		"Twitter": {
			"abi": [
				{
					"inputs": [
						{
							"internalType": "string",
							"name": "Content",
							"type": "string"
						}
					],
					"name": "CreateTweet",
					"outputs": [],
					"stateMutability": "nonpayable",
					"type": "function"
				},
				{
					"inputs": [],
					"name": "DeleteMyTweets",
					"outputs": [],
					"stateMutability": "nonpayable",
					"type": "function"
				},
				{
					"inputs": [],
					"name": "DeleteRecentTweet",
					"outputs": [],
					"stateMutability": "nonpayable",
					"type": "function"
				},
				{
					"inputs": [
						{
							"internalType": "address",
							"name": "user",
							"type": "address"
						},
						{
							"internalType": "uint256",
							"name": "index",
							"type": "uint256"
						}
					],
					"name": "GetTweetByInd",
					"outputs": [
						{
							"internalType": "string",
							"name": "",
							"type": "string"
						}
					],
					"stateMutability": "view",
					"type": "function"
				},
				{
					"inputs": [],
					"name": "ShowMyTweets",
					"outputs": [
						{
							"internalType": "string[]",
							"name": "",
							"type": "string[]"
						}
					],
					"stateMutability": "view",
					"type": "function"
				}
			],
			"devdoc": {
				"kind": "dev",
				"methods": {},
				"version": 1
			},
			"evm": {
				"assembly": "    /* \"contracts/Twitter0.1v.sol\":329:938  contract Twitter {... */\n  mstore(0x40, 0x80)\n  callvalue\n  dup1\n  iszero\n  tag_1\n  jumpi\n  0x00\n  dup1\n  revert\ntag_1:\n  pop\n  dataSize(sub_0)\n  dup1\n  dataOffset(sub_0)\n  0x00\n  codecopy\n  0x00\n  return\nstop\n\nsub_0: assembly {\n        /* \"contracts/Twitter0.1v.sol\":329:938  contract Twitter {... */\n      mstore(0x40, 0x80)\n      callvalue\n      dup1\n      iszero\n      tag_1\n      jumpi\n      0x00\n      dup1\n      revert\n    tag_1:\n      pop\n      jumpi(tag_2, lt(calldatasize, 0x04))\n      shr(0xe0, calldataload(0x00))\n      dup1\n      0x2a1f1d06\n      eq\n      tag_3\n      jumpi\n      dup1\n      0x71e7eb12\n      eq\n      tag_4\n      jumpi\n      dup1\n      0x8a4dd9e0\n      eq\n      tag_5\n      jumpi\n      dup1\n      0xcf7d628a\n      eq\n      tag_6\n      jumpi\n      dup1\n      0xf67d225f\n      eq\n      tag_7\n      jumpi\n    tag_2:\n      0x00\n      dup1\n      revert\n        /* \"contracts/Twitter0.1v.sol\":402:503  function CreateTweet(string memory Content) public {... */\n    tag_3:\n      tag_8\n      0x04\n      dup1\n      calldatasize\n      sub\n      dup2\n      add\n      swap1\n      tag_9\n      swap2\n      swap1\n      tag_10\n      jump\t// in\n    tag_9:\n      tag_11\n      jump\t// in\n    tag_8:\n      stop\n        /* \"contracts/Twitter0.1v.sol\":624:702  function DeleteRecentTweet() public {... */\n    tag_4:\n      tag_12\n      tag_13\n      jump\t// in\n    tag_12:\n      stop\n        /* \"contracts/Twitter0.1v.sol\":851:927  function DeleteMyTweets() public {... */\n    tag_5:\n      tag_14\n      tag_15\n      jump\t// in\n    tag_14:\n      stop\n        /* \"contracts/Twitter0.1v.sol\":511:616  function ShowMyTweets() public view returns (string[] memory) {... */\n    tag_6:\n      tag_16\n      tag_17\n      jump\t// in\n    tag_16:\n      mload(0x40)\n      tag_18\n      swap2\n      swap1\n      tag_19\n      jump\t// in\n    tag_18:\n      mload(0x40)\n      dup1\n      swap2\n      sub\n      swap1\n      return\n        /* \"contracts/Twitter0.1v.sol\":708:843  function GetTweetByInd(address user,uint256 index)public view returns (string memory)... */\n    tag_7:\n      tag_20\n      0x04\n      dup1\n      calldatasize\n      sub\n      dup2\n      add\n      swap1\n      tag_21\n      swap2\n      swap1\n      tag_22\n      jump\t// in\n    tag_21:\n      tag_23\n      jump\t// in\n    tag_20:\n      mload(0x40)\n      tag_24\n      swap2\n      swap1\n      tag_25\n      jump\t// in\n    tag_24:\n      mload(0x40)\n      dup1\n      swap2\n      sub\n      swap1\n      return\n        /* \"contracts/Twitter0.1v.sol\":402:503  function CreateTweet(string memory Content) public {... */\n    tag_11:\n        /* \"contracts/Twitter0.1v.sol\":464:469  Tweet */\n      0x00\n        /* \"contracts/Twitter0.1v.sol\":464:481  Tweet[msg.sender] */\n      dup1\n        /* \"contracts/Twitter0.1v.sol\":470:480  msg.sender */\n      caller\n        /* \"contracts/Twitter0.1v.sol\":464:481  Tweet[msg.sender] */\n      0xffffffffffffffffffffffffffffffffffffffff\n      and\n      0xffffffffffffffffffffffffffffffffffffffff\n      and\n      dup2\n      mstore\n      0x20\n      add\n      swap1\n      dup2\n      mstore\n      0x20\n      add\n      0x00\n      keccak256\n        /* \"contracts/Twitter0.1v.sol\":487:494  Content */\n      dup2\n        /* \"contracts/Twitter0.1v.sol\":464:495  Tweet[msg.sender].push(Content) */\n      swap1\n      dup1\n      0x01\n      dup2\n      sload\n      add\n      dup1\n      dup3\n      sstore\n      dup1\n      swap2\n      pop\n      pop\n      0x01\n      swap1\n      sub\n      swap1\n      0x00\n      mstore\n      keccak256(0x00, 0x20)\n      add\n      0x00\n      swap1\n      swap2\n      swap1\n      swap2\n      swap1\n      swap2\n      pop\n      swap1\n      dup2\n      tag_28\n      swap2\n      swap1\n      tag_29\n      jump\t// in\n    tag_28:\n      pop\n        /* \"contracts/Twitter0.1v.sol\":402:503  function CreateTweet(string memory Content) public {... */\n      pop\n      jump\t// out\n        /* \"contracts/Twitter0.1v.sol\":624:702  function DeleteRecentTweet() public {... */\n    tag_13:\n        /* \"contracts/Twitter0.1v.sol\":671:676  Tweet */\n      0x00\n        /* \"contracts/Twitter0.1v.sol\":671:688  Tweet[msg.sender] */\n      dup1\n        /* \"contracts/Twitter0.1v.sol\":677:687  msg.sender */\n      caller\n        /* \"contracts/Twitter0.1v.sol\":671:688  Tweet[msg.sender] */\n      0xffffffffffffffffffffffffffffffffffffffff\n      and\n      0xffffffffffffffffffffffffffffffffffffffff\n      and\n      dup2\n      mstore\n      0x20\n      add\n      swap1\n      dup2\n      mstore\n      0x20\n      add\n      0x00\n      keccak256\n        /* \"contracts/Twitter0.1v.sol\":671:694  Tweet[msg.sender].pop() */\n      dup1\n      sload\n      dup1\n      tag_31\n      jumpi\n      tag_32\n      tag_33\n      jump\t// in\n    tag_32:\n    tag_31:\n      0x01\n      swap1\n      sub\n      dup2\n      dup2\n      swap1\n      0x00\n      mstore\n      keccak256(0x00, 0x20)\n      add\n      0x00\n      tag_35\n      swap2\n      swap1\n      tag_36\n      jump\t// in\n    tag_35:\n      swap1\n      sstore\n        /* \"contracts/Twitter0.1v.sol\":624:702  function DeleteRecentTweet() public {... */\n      jump\t// out\n        /* \"contracts/Twitter0.1v.sol\":851:927  function DeleteMyTweets() public {... */\n    tag_15:\n        /* \"contracts/Twitter0.1v.sol\":902:907  Tweet */\n      0x00\n        /* \"contracts/Twitter0.1v.sol\":902:919  Tweet[msg.sender] */\n      dup1\n        /* \"contracts/Twitter0.1v.sol\":908:918  msg.sender */\n      caller\n        /* \"contracts/Twitter0.1v.sol\":902:919  Tweet[msg.sender] */\n      0xffffffffffffffffffffffffffffffffffffffff\n      and\n      0xffffffffffffffffffffffffffffffffffffffff\n      and\n      dup2\n      mstore\n      0x20\n      add\n      swap1\n      dup2\n      mstore\n      0x20\n      add\n      0x00\n      keccak256\n      0x00\n        /* \"contracts/Twitter0.1v.sol\":895:919  delete Tweet[msg.sender] */\n      tag_38\n      swap2\n      swap1\n      tag_39\n      jump\t// in\n    tag_38:\n        /* \"contracts/Twitter0.1v.sol\":851:927  function DeleteMyTweets() public {... */\n      jump\t// out\n        /* \"contracts/Twitter0.1v.sol\":511:616  function ShowMyTweets() public view returns (string[] memory) {... */\n    tag_17:\n        /* \"contracts/Twitter0.1v.sol\":556:571  string[] memory */\n      0x60\n        /* \"contracts/Twitter0.1v.sol\":591:596  Tweet */\n      0x00\n        /* \"contracts/Twitter0.1v.sol\":591:608  Tweet[msg.sender] */\n      dup1\n        /* \"contracts/Twitter0.1v.sol\":597:607  msg.sender */\n      caller\n        /* \"contracts/Twitter0.1v.sol\":591:608  Tweet[msg.sender] */\n      0xffffffffffffffffffffffffffffffffffffffff\n      and\n      0xffffffffffffffffffffffffffffffffffffffff\n      and\n      dup2\n      mstore\n      0x20\n      add\n      swap1\n      dup2\n      mstore\n      0x20\n      add\n      0x00\n      keccak256\n        /* \"contracts/Twitter0.1v.sol\":584:608  return Tweet[msg.sender] */\n      dup1\n      sload\n      dup1\n      0x20\n      mul\n      0x20\n      add\n      mload(0x40)\n      swap1\n      dup2\n      add\n      0x40\n      mstore\n      dup1\n      swap3\n      swap2\n      swap1\n      dup2\n      dup2\n      mstore\n      0x20\n      add\n      0x00\n      swap1\n    tag_41:\n      dup3\n      dup3\n      lt\n      iszero\n      tag_42\n      jumpi\n      dup4\n      dup3\n      swap1\n      0x00\n      mstore\n      keccak256(0x00, 0x20)\n      add\n      dup1\n      sload\n      tag_44\n      swap1\n      tag_45\n      jump\t// in\n    tag_44:\n      dup1\n      0x1f\n      add\n      0x20\n      dup1\n      swap2\n      div\n      mul\n      0x20\n      add\n      mload(0x40)\n      swap1\n      dup2\n      add\n      0x40\n      mstore\n      dup1\n      swap3\n      swap2\n      swap1\n      dup2\n      dup2\n      mstore\n      0x20\n      add\n      dup3\n      dup1\n      sload\n      tag_46\n      swap1\n      tag_45\n      jump\t// in\n    tag_46:\n      dup1\n      iszero\n      tag_47\n      jumpi\n      dup1\n      0x1f\n      lt\n      tag_48\n      jumpi\n      0x0100\n      dup1\n      dup4\n      sload\n      div\n      mul\n      dup4\n      mstore\n      swap2\n      0x20\n      add\n      swap2\n      jump(tag_47)\n    tag_48:\n      dup3\n      add\n      swap2\n      swap1\n      0x00\n      mstore\n      keccak256(0x00, 0x20)\n      swap1\n    tag_49:\n      dup2\n      sload\n      dup2\n      mstore\n      swap1\n      0x01\n      add\n      swap1\n      0x20\n      add\n      dup1\n      dup4\n      gt\n      tag_49\n      jumpi\n      dup3\n      swap1\n      sub\n      0x1f\n      and\n      dup3\n      add\n      swap2\n    tag_47:\n      pop\n      pop\n      pop\n      pop\n      pop\n      dup2\n      mstore\n      0x20\n      add\n      swap1\n      0x01\n      add\n      swap1\n      jump(tag_41)\n    tag_42:\n      pop\n      pop\n      pop\n      pop\n      swap1\n      pop\n        /* \"contracts/Twitter0.1v.sol\":511:616  function ShowMyTweets() public view returns (string[] memory) {... */\n      swap1\n      jump\t// out\n        /* \"contracts/Twitter0.1v.sol\":708:843  function GetTweetByInd(address user,uint256 index)public view returns (string memory)... */\n    tag_23:\n        /* \"contracts/Twitter0.1v.sol\":779:792  string memory */\n      0x60\n        /* \"contracts/Twitter0.1v.sol\":817:822  Tweet */\n      0x00\n        /* \"contracts/Twitter0.1v.sol\":817:828  Tweet[user] */\n      dup1\n        /* \"contracts/Twitter0.1v.sol\":823:827  user */\n      dup5\n        /* \"contracts/Twitter0.1v.sol\":817:828  Tweet[user] */\n      0xffffffffffffffffffffffffffffffffffffffff\n      and\n      0xffffffffffffffffffffffffffffffffffffffff\n      and\n      dup2\n      mstore\n      0x20\n      add\n      swap1\n      dup2\n      mstore\n      0x20\n      add\n      0x00\n      keccak256\n        /* \"contracts/Twitter0.1v.sol\":829:834  index */\n      dup3\n        /* \"contracts/Twitter0.1v.sol\":817:835  Tweet[user][index] */\n      dup2\n      sload\n      dup2\n      lt\n      tag_51\n      jumpi\n      tag_52\n      tag_53\n      jump\t// in\n    tag_52:\n    tag_51:\n      swap1\n      0x00\n      mstore\n      keccak256(0x00, 0x20)\n      add\n        /* \"contracts/Twitter0.1v.sol\":810:835  return Tweet[user][index] */\n      dup1\n      sload\n      tag_55\n      swap1\n      tag_45\n      jump\t// in\n    tag_55:\n      dup1\n      0x1f\n      add\n      0x20\n      dup1\n      swap2\n      div\n      mul\n      0x20\n      add\n      mload(0x40)\n      swap1\n      dup2\n      add\n      0x40\n      mstore\n      dup1\n      swap3\n      swap2\n      swap1\n      dup2\n      dup2\n      mstore\n      0x20\n      add\n      dup3\n      dup1\n      sload\n      tag_56\n      swap1\n      tag_45\n      jump\t// in\n    tag_56:\n      dup1\n      iszero\n      tag_57\n      jumpi\n      dup1\n      0x1f\n      lt\n      tag_58\n      jumpi\n      0x0100\n      dup1\n      dup4\n      sload\n      div\n      mul\n      dup4\n      mstore\n      swap2\n      0x20\n      add\n      swap2\n      jump(tag_57)\n    tag_58:\n      dup3\n      add\n      swap2\n      swap1\n      0x00\n      mstore\n      keccak256(0x00, 0x20)\n      swap1\n    tag_59:\n      dup2\n      sload\n      dup2\n      mstore\n      swap1\n      0x01\n      add\n      swap1\n      0x20\n      add\n      dup1\n      dup4\n      gt\n      tag_59\n      jumpi\n      dup3\n      swap1\n      sub\n      0x1f\n      and\n      dup3\n      add\n      swap2\n    tag_57:\n      pop\n      pop\n      pop\n      pop\n      pop\n      swap1\n      pop\n        /* \"contracts/Twitter0.1v.sol\":708:843  function GetTweetByInd(address user,uint256 index)public view returns (string memory)... */\n      swap3\n      swap2\n      pop\n      pop\n      jump\t// out\n    tag_36:\n      pop\n      dup1\n      sload\n      tag_60\n      swap1\n      tag_45\n      jump\t// in\n    tag_60:\n      0x00\n      dup3\n      sstore\n      dup1\n      0x1f\n      lt\n      tag_62\n      jumpi\n      pop\n      jump(tag_61)\n    tag_62:\n      0x1f\n      add\n      0x20\n      swap1\n      div\n      swap1\n      0x00\n      mstore\n      keccak256(0x00, 0x20)\n      swap1\n      dup2\n      add\n      swap1\n      tag_63\n      swap2\n      swap1\n      tag_64\n      jump\t// in\n    tag_63:\n    tag_61:\n      pop\n      jump\t// out\n    tag_39:\n      pop\n      dup1\n      sload\n      0x00\n      dup3\n      sstore\n      swap1\n      0x00\n      mstore\n      keccak256(0x00, 0x20)\n      swap1\n      dup2\n      add\n      swap1\n      tag_66\n      swap2\n      swap1\n      tag_67\n      jump\t// in\n    tag_66:\n      pop\n      jump\t// out\n    tag_64:\n    tag_68:\n      dup1\n      dup3\n      gt\n      iszero\n      tag_69\n      jumpi\n      0x00\n      dup2\n      0x00\n      swap1\n      sstore\n      pop\n      0x01\n      add\n      jump(tag_68)\n    tag_69:\n      pop\n      swap1\n      jump\t// out\n    tag_67:\n    tag_70:\n      dup1\n      dup3\n      gt\n      iszero\n      tag_71\n      jumpi\n      0x00\n      dup2\n      dup2\n      tag_72\n      swap2\n      swap1\n      tag_36\n      jump\t// in\n    tag_72:\n      pop\n      0x01\n      add\n      jump(tag_70)\n    tag_71:\n      pop\n      swap1\n      jump\t// out\n        /* \"#utility.yul\":7:82   */\n    tag_73:\n        /* \"#utility.yul\":40:46   */\n      0x00\n        /* \"#utility.yul\":73:75   */\n      0x40\n        /* \"#utility.yul\":67:76   */\n      mload\n        /* \"#utility.yul\":57:76   */\n      swap1\n      pop\n        /* \"#utility.yul\":7:82   */\n      swap1\n      jump\t// out\n        /* \"#utility.yul\":88:205   */\n    tag_74:\n        /* \"#utility.yul\":197:198   */\n      0x00\n        /* \"#utility.yul\":194:195   */\n      dup1\n        /* \"#utility.yul\":187:199   */\n      revert\n        /* \"#utility.yul\":211:328   */\n    tag_75:\n        /* \"#utility.yul\":320:321   */\n      0x00\n        /* \"#utility.yul\":317:318   */\n      dup1\n        /* \"#utility.yul\":310:322   */\n      revert\n        /* \"#utility.yul\":334:451   */\n    tag_76:\n        /* \"#utility.yul\":443:444   */\n      0x00\n        /* \"#utility.yul\":440:441   */\n      dup1\n        /* \"#utility.yul\":433:445   */\n      revert\n        /* \"#utility.yul\":457:574   */\n    tag_77:\n        /* \"#utility.yul\":566:567   */\n      0x00\n        /* \"#utility.yul\":563:564   */\n      dup1\n        /* \"#utility.yul\":556:568   */\n      revert\n        /* \"#utility.yul\":580:682   */\n    tag_78:\n        /* \"#utility.yul\":621:627   */\n      0x00\n        /* \"#utility.yul\":672:674   */\n      0x1f\n        /* \"#utility.yul\":668:675   */\n      not\n        /* \"#utility.yul\":663:665   */\n      0x1f\n        /* \"#utility.yul\":656:661   */\n      dup4\n        /* \"#utility.yul\":652:666   */\n      add\n        /* \"#utility.yul\":648:676   */\n      and\n        /* \"#utility.yul\":638:676   */\n      swap1\n      pop\n        /* \"#utility.yul\":580:682   */\n      swap2\n      swap1\n      pop\n      jump\t// out\n        /* \"#utility.yul\":688:868   */\n    tag_79:\n        /* \"#utility.yul\":736:813   */\n      0x4e487b7100000000000000000000000000000000000000000000000000000000\n        /* \"#utility.yul\":733:734   */\n      0x00\n        /* \"#utility.yul\":726:814   */\n      mstore\n        /* \"#utility.yul\":833:837   */\n      0x41\n        /* \"#utility.yul\":830:831   */\n      0x04\n        /* \"#utility.yul\":823:838   */\n      mstore\n        /* \"#utility.yul\":857:861   */\n      0x24\n        /* \"#utility.yul\":854:855   */\n      0x00\n        /* \"#utility.yul\":847:862   */\n      revert\n        /* \"#utility.yul\":874:1155   */\n    tag_80:\n        /* \"#utility.yul\":957:984   */\n      tag_130\n        /* \"#utility.yul\":979:983   */\n      dup3\n        /* \"#utility.yul\":957:984   */\n      tag_78\n      jump\t// in\n    tag_130:\n        /* \"#utility.yul\":949:955   */\n      dup2\n        /* \"#utility.yul\":945:985   */\n      add\n        /* \"#utility.yul\":1087:1093   */\n      dup2\n        /* \"#utility.yul\":1075:1085   */\n      dup2\n        /* \"#utility.yul\":1072:1094   */\n      lt\n        /* \"#utility.yul\":1051:1069   */\n      0xffffffffffffffff\n        /* \"#utility.yul\":1039:1049   */\n      dup3\n        /* \"#utility.yul\":1036:1070   */\n      gt\n        /* \"#utility.yul\":1033:1095   */\n      or\n        /* \"#utility.yul\":1030:1118   */\n      iszero\n      tag_131\n      jumpi\n        /* \"#utility.yul\":1098:1116   */\n      tag_132\n      tag_79\n      jump\t// in\n    tag_132:\n        /* \"#utility.yul\":1030:1118   */\n    tag_131:\n        /* \"#utility.yul\":1138:1148   */\n      dup1\n        /* \"#utility.yul\":1134:1136   */\n      0x40\n        /* \"#utility.yul\":1127:1149   */\n      mstore\n        /* \"#utility.yul\":917:1155   */\n      pop\n        /* \"#utility.yul\":874:1155   */\n      pop\n      pop\n      jump\t// out\n        /* \"#utility.yul\":1161:1290   */\n    tag_81:\n        /* \"#utility.yul\":1195:1201   */\n      0x00\n        /* \"#utility.yul\":1222:1242   */\n      tag_134\n      tag_73\n      jump\t// in\n    tag_134:\n        /* \"#utility.yul\":1212:1242   */\n      swap1\n      pop\n        /* \"#utility.yul\":1251:1284   */\n      tag_135\n        /* \"#utility.yul\":1279:1283   */\n      dup3\n        /* \"#utility.yul\":1271:1277   */\n      dup3\n        /* \"#utility.yul\":1251:1284   */\n      tag_80\n      jump\t// in\n    tag_135:\n        /* \"#utility.yul\":1161:1290   */\n      swap2\n      swap1\n      pop\n      jump\t// out\n        /* \"#utility.yul\":1296:1604   */\n    tag_82:\n        /* \"#utility.yul\":1358:1362   */\n      0x00\n        /* \"#utility.yul\":1448:1466   */\n      0xffffffffffffffff\n        /* \"#utility.yul\":1440:1446   */\n      dup3\n        /* \"#utility.yul\":1437:1467   */\n      gt\n        /* \"#utility.yul\":1434:1490   */\n      iszero\n      tag_137\n      jumpi\n        /* \"#utility.yul\":1470:1488   */\n      tag_138\n      tag_79\n      jump\t// in\n    tag_138:\n        /* \"#utility.yul\":1434:1490   */\n    tag_137:\n        /* \"#utility.yul\":1508:1537   */\n      tag_139\n        /* \"#utility.yul\":1530:1536   */\n      dup3\n        /* \"#utility.yul\":1508:1537   */\n      tag_78\n      jump\t// in\n    tag_139:\n        /* \"#utility.yul\":1500:1537   */\n      swap1\n      pop\n        /* \"#utility.yul\":1592:1596   */\n      0x20\n        /* \"#utility.yul\":1586:1590   */\n      dup2\n        /* \"#utility.yul\":1582:1597   */\n      add\n        /* \"#utility.yul\":1574:1597   */\n      swap1\n      pop\n        /* \"#utility.yul\":1296:1604   */\n      swap2\n      swap1\n      pop\n      jump\t// out\n        /* \"#utility.yul\":1610:1756   */\n    tag_83:\n        /* \"#utility.yul\":1707:1713   */\n      dup3\n        /* \"#utility.yul\":1702:1705   */\n      dup2\n        /* \"#utility.yul\":1697:1700   */\n      dup4\n        /* \"#utility.yul\":1684:1714   */\n      calldatacopy\n        /* \"#utility.yul\":1748:1749   */\n      0x00\n        /* \"#utility.yul\":1739:1745   */\n      dup4\n        /* \"#utility.yul\":1734:1737   */\n      dup4\n        /* \"#utility.yul\":1730:1746   */\n      add\n        /* \"#utility.yul\":1723:1750   */\n      mstore\n        /* \"#utility.yul\":1610:1756   */\n      pop\n      pop\n      pop\n      jump\t// out\n        /* \"#utility.yul\":1762:2187   */\n    tag_84:\n        /* \"#utility.yul\":1840:1845   */\n      0x00\n        /* \"#utility.yul\":1865:1931   */\n      tag_142\n        /* \"#utility.yul\":1881:1930   */\n      tag_143\n        /* \"#utility.yul\":1923:1929   */\n      dup5\n        /* \"#utility.yul\":1881:1930   */\n      tag_82\n      jump\t// in\n    tag_143:\n        /* \"#utility.yul\":1865:1931   */\n      tag_81\n      jump\t// in\n    tag_142:\n        /* \"#utility.yul\":1856:1931   */\n      swap1\n      pop\n        /* \"#utility.yul\":1954:1960   */\n      dup3\n        /* \"#utility.yul\":1947:1952   */\n      dup2\n        /* \"#utility.yul\":1940:1961   */\n      mstore\n        /* \"#utility.yul\":1992:1996   */\n      0x20\n        /* \"#utility.yul\":1985:1990   */\n      dup2\n        /* \"#utility.yul\":1981:1997   */\n      add\n        /* \"#utility.yul\":2030:2033   */\n      dup5\n        /* \"#utility.yul\":2021:2027   */\n      dup5\n        /* \"#utility.yul\":2016:2019   */\n      dup5\n        /* \"#utility.yul\":2012:2028   */\n      add\n        /* \"#utility.yul\":2009:2034   */\n      gt\n        /* \"#utility.yul\":2006:2118   */\n      iszero\n      tag_144\n      jumpi\n        /* \"#utility.yul\":2037:2116   */\n      tag_145\n      tag_77\n      jump\t// in\n    tag_145:\n        /* \"#utility.yul\":2006:2118   */\n    tag_144:\n        /* \"#utility.yul\":2127:2181   */\n      tag_146\n        /* \"#utility.yul\":2174:2180   */\n      dup5\n        /* \"#utility.yul\":2169:2172   */\n      dup3\n        /* \"#utility.yul\":2164:2167   */\n      dup6\n        /* \"#utility.yul\":2127:2181   */\n      tag_83\n      jump\t// in\n    tag_146:\n        /* \"#utility.yul\":1846:2187   */\n      pop\n        /* \"#utility.yul\":1762:2187   */\n      swap4\n      swap3\n      pop\n      pop\n      pop\n      jump\t// out\n        /* \"#utility.yul\":2207:2547   */\n    tag_85:\n        /* \"#utility.yul\":2263:2268   */\n      0x00\n        /* \"#utility.yul\":2312:2315   */\n      dup3\n        /* \"#utility.yul\":2305:2309   */\n      0x1f\n        /* \"#utility.yul\":2297:2303   */\n      dup4\n        /* \"#utility.yul\":2293:2310   */\n      add\n        /* \"#utility.yul\":2289:2316   */\n      slt\n        /* \"#utility.yul\":2279:2401   */\n      tag_148\n      jumpi\n        /* \"#utility.yul\":2320:2399   */\n      tag_149\n      tag_76\n      jump\t// in\n    tag_149:\n        /* \"#utility.yul\":2279:2401   */\n    tag_148:\n        /* \"#utility.yul\":2437:2443   */\n      dup2\n        /* \"#utility.yul\":2424:2444   */\n      calldataload\n        /* \"#utility.yul\":2462:2541   */\n      tag_150\n        /* \"#utility.yul\":2537:2540   */\n      dup5\n        /* \"#utility.yul\":2529:2535   */\n      dup3\n        /* \"#utility.yul\":2522:2526   */\n      0x20\n        /* \"#utility.yul\":2514:2520   */\n      dup7\n        /* \"#utility.yul\":2510:2527   */\n      add\n        /* \"#utility.yul\":2462:2541   */\n      tag_84\n      jump\t// in\n    tag_150:\n        /* \"#utility.yul\":2453:2541   */\n      swap2\n      pop\n        /* \"#utility.yul\":2269:2547   */\n      pop\n        /* \"#utility.yul\":2207:2547   */\n      swap3\n      swap2\n      pop\n      pop\n      jump\t// out\n        /* \"#utility.yul\":2553:3062   */\n    tag_10:\n        /* \"#utility.yul\":2622:2628   */\n      0x00\n        /* \"#utility.yul\":2671:2673   */\n      0x20\n        /* \"#utility.yul\":2659:2668   */\n      dup3\n        /* \"#utility.yul\":2650:2657   */\n      dup5\n        /* \"#utility.yul\":2646:2669   */\n      sub\n        /* \"#utility.yul\":2642:2674   */\n      slt\n        /* \"#utility.yul\":2639:2758   */\n      iszero\n      tag_152\n      jumpi\n        /* \"#utility.yul\":2677:2756   */\n      tag_153\n      tag_74\n      jump\t// in\n    tag_153:\n        /* \"#utility.yul\":2639:2758   */\n    tag_152:\n        /* \"#utility.yul\":2825:2826   */\n      0x00\n        /* \"#utility.yul\":2814:2823   */\n      dup3\n        /* \"#utility.yul\":2810:2827   */\n      add\n        /* \"#utility.yul\":2797:2828   */\n      calldataload\n        /* \"#utility.yul\":2855:2873   */\n      0xffffffffffffffff\n        /* \"#utility.yul\":2847:2853   */\n      dup2\n        /* \"#utility.yul\":2844:2874   */\n      gt\n        /* \"#utility.yul\":2841:2958   */\n      iszero\n      tag_154\n      jumpi\n        /* \"#utility.yul\":2877:2956   */\n      tag_155\n      tag_75\n      jump\t// in\n    tag_155:\n        /* \"#utility.yul\":2841:2958   */\n    tag_154:\n        /* \"#utility.yul\":2982:3045   */\n      tag_156\n        /* \"#utility.yul\":3037:3044   */\n      dup5\n        /* \"#utility.yul\":3028:3034   */\n      dup3\n        /* \"#utility.yul\":3017:3026   */\n      dup6\n        /* \"#utility.yul\":3013:3035   */\n      add\n        /* \"#utility.yul\":2982:3045   */\n      tag_85\n      jump\t// in\n    tag_156:\n        /* \"#utility.yul\":2972:3045   */\n      swap2\n      pop\n        /* \"#utility.yul\":2768:3055   */\n      pop\n        /* \"#utility.yul\":2553:3062   */\n      swap3\n      swap2\n      pop\n      pop\n      jump\t// out\n        /* \"#utility.yul\":3068:3192   */\n    tag_86:\n        /* \"#utility.yul\":3145:3151   */\n      0x00\n        /* \"#utility.yul\":3179:3184   */\n      dup2\n        /* \"#utility.yul\":3173:3185   */\n      mload\n        /* \"#utility.yul\":3163:3185   */\n      swap1\n      pop\n        /* \"#utility.yul\":3068:3192   */\n      swap2\n      swap1\n      pop\n      jump\t// out\n        /* \"#utility.yul\":3198:3392   */\n    tag_87:\n        /* \"#utility.yul\":3307:3318   */\n      0x00\n        /* \"#utility.yul\":3341:3347   */\n      dup3\n        /* \"#utility.yul\":3336:3339   */\n      dup3\n        /* \"#utility.yul\":3329:3348   */\n      mstore\n        /* \"#utility.yul\":3381:3385   */\n      0x20\n        /* \"#utility.yul\":3376:3379   */\n      dup3\n        /* \"#utility.yul\":3372:3386   */\n      add\n        /* \"#utility.yul\":3357:3386   */\n      swap1\n      pop\n        /* \"#utility.yul\":3198:3392   */\n      swap3\n      swap2\n      pop\n      pop\n      jump\t// out\n        /* \"#utility.yul\":3398:3540   */\n    tag_88:\n        /* \"#utility.yul\":3475:3479   */\n      0x00\n        /* \"#utility.yul\":3498:3501   */\n      dup2\n        /* \"#utility.yul\":3490:3501   */\n      swap1\n      pop\n        /* \"#utility.yul\":3528:3532   */\n      0x20\n        /* \"#utility.yul\":3523:3526   */\n      dup3\n        /* \"#utility.yul\":3519:3533   */\n      add\n        /* \"#utility.yul\":3511:3533   */\n      swap1\n      pop\n        /* \"#utility.yul\":3398:3540   */\n      swap2\n      swap1\n      pop\n      jump\t// out\n        /* \"#utility.yul\":3546:3645   */\n    tag_89:\n        /* \"#utility.yul\":3598:3604   */\n      0x00\n        /* \"#utility.yul\":3632:3637   */\n      dup2\n        /* \"#utility.yul\":3626:3638   */\n      mload\n        /* \"#utility.yul\":3616:3638   */\n      swap1\n      pop\n        /* \"#utility.yul\":3546:3645   */\n      swap2\n      swap1\n      pop\n      jump\t// out\n        /* \"#utility.yul\":3651:3810   */\n    tag_90:\n        /* \"#utility.yul\":3725:3736   */\n      0x00\n        /* \"#utility.yul\":3759:3765   */\n      dup3\n        /* \"#utility.yul\":3754:3757   */\n      dup3\n        /* \"#utility.yul\":3747:3766   */\n      mstore\n        /* \"#utility.yul\":3799:3803   */\n      0x20\n        /* \"#utility.yul\":3794:3797   */\n      dup3\n        /* \"#utility.yul\":3790:3804   */\n      add\n        /* \"#utility.yul\":3775:3804   */\n      swap1\n      pop\n        /* \"#utility.yul\":3651:3810   */\n      swap3\n      swap2\n      pop\n      pop\n      jump\t// out\n        /* \"#utility.yul\":3816:4062   */\n    tag_91:\n        /* \"#utility.yul\":3897:3898   */\n      0x00\n        /* \"#utility.yul\":3907:4020   */\n    tag_163:\n        /* \"#utility.yul\":3921:3927   */\n      dup4\n        /* \"#utility.yul\":3918:3919   */\n      dup2\n        /* \"#utility.yul\":3915:3928   */\n      lt\n        /* \"#utility.yul\":3907:4020   */\n      iszero\n      tag_165\n      jumpi\n        /* \"#utility.yul\":4006:4007   */\n      dup1\n        /* \"#utility.yul\":4001:4004   */\n      dup3\n        /* \"#utility.yul\":3997:4008   */\n      add\n        /* \"#utility.yul\":3991:4009   */\n      mload\n        /* \"#utility.yul\":3987:3988   */\n      dup2\n        /* \"#utility.yul\":3982:3985   */\n      dup5\n        /* \"#utility.yul\":3978:3989   */\n      add\n        /* \"#utility.yul\":3971:4010   */\n      mstore\n        /* \"#utility.yul\":3943:3945   */\n      0x20\n        /* \"#utility.yul\":3940:3941   */\n      dup2\n        /* \"#utility.yul\":3936:3946   */\n      add\n        /* \"#utility.yul\":3931:3946   */\n      swap1\n      pop\n        /* \"#utility.yul\":3907:4020   */\n      jump(tag_163)\n    tag_165:\n        /* \"#utility.yul\":4054:4055   */\n      0x00\n        /* \"#utility.yul\":4045:4051   */\n      dup5\n        /* \"#utility.yul\":4040:4043   */\n      dup5\n        /* \"#utility.yul\":4036:4052   */\n      add\n        /* \"#utility.yul\":4029:4056   */\n      mstore\n        /* \"#utility.yul\":3878:4062   */\n      pop\n        /* \"#utility.yul\":3816:4062   */\n      pop\n      pop\n      pop\n      jump\t// out\n        /* \"#utility.yul\":4068:4425   */\n    tag_92:\n        /* \"#utility.yul\":4146:4149   */\n      0x00\n        /* \"#utility.yul\":4174:4213   */\n      tag_167\n        /* \"#utility.yul\":4207:4212   */\n      dup3\n        /* \"#utility.yul\":4174:4213   */\n      tag_89\n      jump\t// in\n    tag_167:\n        /* \"#utility.yul\":4229:4290   */\n      tag_168\n        /* \"#utility.yul\":4283:4289   */\n      dup2\n        /* \"#utility.yul\":4278:4281   */\n      dup6\n        /* \"#utility.yul\":4229:4290   */\n      tag_90\n      jump\t// in\n    tag_168:\n        /* \"#utility.yul\":4222:4290   */\n      swap4\n      pop\n        /* \"#utility.yul\":4299:4364   */\n      tag_169\n        /* \"#utility.yul\":4357:4363   */\n      dup2\n        /* \"#utility.yul\":4352:4355   */\n      dup6\n        /* \"#utility.yul\":4345:4349   */\n      0x20\n        /* \"#utility.yul\":4338:4343   */\n      dup7\n        /* \"#utility.yul\":4334:4350   */\n      add\n        /* \"#utility.yul\":4299:4364   */\n      tag_91\n      jump\t// in\n    tag_169:\n        /* \"#utility.yul\":4389:4418   */\n      tag_170\n        /* \"#utility.yul\":4411:4417   */\n      dup2\n        /* \"#utility.yul\":4389:4418   */\n      tag_78\n      jump\t// in\n    tag_170:\n        /* \"#utility.yul\":4384:4387   */\n      dup5\n        /* \"#utility.yul\":4380:4419   */\n      add\n        /* \"#utility.yul\":4373:4419   */\n      swap2\n      pop\n        /* \"#utility.yul\":4150:4425   */\n      pop\n        /* \"#utility.yul\":4068:4425   */\n      swap3\n      swap2\n      pop\n      pop\n      jump\t// out\n        /* \"#utility.yul\":4431:4627   */\n    tag_93:\n        /* \"#utility.yul\":4520:4530   */\n      0x00\n        /* \"#utility.yul\":4555:4621   */\n      tag_172\n        /* \"#utility.yul\":4617:4620   */\n      dup4\n        /* \"#utility.yul\":4609:4615   */\n      dup4\n        /* \"#utility.yul\":4555:4621   */\n      tag_92\n      jump\t// in\n    tag_172:\n        /* \"#utility.yul\":4541:4621   */\n      swap1\n      pop\n        /* \"#utility.yul\":4431:4627   */\n      swap3\n      swap2\n      pop\n      pop\n      jump\t// out\n        /* \"#utility.yul\":4633:4756   */\n    tag_94:\n        /* \"#utility.yul\":4713:4717   */\n      0x00\n        /* \"#utility.yul\":4745:4749   */\n      0x20\n        /* \"#utility.yul\":4740:4743   */\n      dup3\n        /* \"#utility.yul\":4736:4750   */\n      add\n        /* \"#utility.yul\":4728:4750   */\n      swap1\n      pop\n        /* \"#utility.yul\":4633:4756   */\n      swap2\n      swap1\n      pop\n      jump\t// out\n        /* \"#utility.yul\":4790:5781   */\n    tag_95:\n        /* \"#utility.yul\":4929:4932   */\n      0x00\n        /* \"#utility.yul\":4958:5022   */\n      tag_175\n        /* \"#utility.yul\":5016:5021   */\n      dup3\n        /* \"#utility.yul\":4958:5022   */\n      tag_86\n      jump\t// in\n    tag_175:\n        /* \"#utility.yul\":5038:5134   */\n      tag_176\n        /* \"#utility.yul\":5127:5133   */\n      dup2\n        /* \"#utility.yul\":5122:5125   */\n      dup6\n        /* \"#utility.yul\":5038:5134   */\n      tag_87\n      jump\t// in\n    tag_176:\n        /* \"#utility.yul\":5031:5134   */\n      swap4\n      pop\n        /* \"#utility.yul\":5160:5163   */\n      dup4\n        /* \"#utility.yul\":5205:5209   */\n      0x20\n        /* \"#utility.yul\":5197:5203   */\n      dup3\n        /* \"#utility.yul\":5193:5210   */\n      mul\n        /* \"#utility.yul\":5188:5191   */\n      dup6\n        /* \"#utility.yul\":5184:5211   */\n      add\n        /* \"#utility.yul\":5235:5301   */\n      tag_177\n        /* \"#utility.yul\":5295:5300   */\n      dup6\n        /* \"#utility.yul\":5235:5301   */\n      tag_88\n      jump\t// in\n    tag_177:\n        /* \"#utility.yul\":5324:5331   */\n      dup1\n        /* \"#utility.yul\":5355:5356   */\n      0x00\n        /* \"#utility.yul\":5340:5736   */\n    tag_178:\n        /* \"#utility.yul\":5365:5371   */\n      dup6\n        /* \"#utility.yul\":5362:5363   */\n      dup2\n        /* \"#utility.yul\":5359:5372   */\n      lt\n        /* \"#utility.yul\":5340:5736   */\n      iszero\n      tag_180\n      jumpi\n        /* \"#utility.yul\":5436:5445   */\n      dup5\n        /* \"#utility.yul\":5430:5434   */\n      dup5\n        /* \"#utility.yul\":5426:5446   */\n      sub\n        /* \"#utility.yul\":5421:5424   */\n      dup10\n        /* \"#utility.yul\":5414:5447   */\n      mstore\n        /* \"#utility.yul\":5487:5493   */\n      dup2\n        /* \"#utility.yul\":5481:5494   */\n      mload\n        /* \"#utility.yul\":5515:5599   */\n      tag_181\n        /* \"#utility.yul\":5594:5598   */\n      dup6\n        /* \"#utility.yul\":5579:5592   */\n      dup3\n        /* \"#utility.yul\":5515:5599   */\n      tag_93\n      jump\t// in\n    tag_181:\n        /* \"#utility.yul\":5507:5599   */\n      swap5\n      pop\n        /* \"#utility.yul\":5622:5692   */\n      tag_182\n        /* \"#utility.yul\":5685:5691   */\n      dup4\n        /* \"#utility.yul\":5622:5692   */\n      tag_94\n      jump\t// in\n    tag_182:\n        /* \"#utility.yul\":5612:5692   */\n      swap3\n      pop\n        /* \"#utility.yul\":5721:5725   */\n      0x20\n        /* \"#utility.yul\":5716:5719   */\n      dup11\n        /* \"#utility.yul\":5712:5726   */\n      add\n        /* \"#utility.yul\":5705:5726   */\n      swap10\n      pop\n        /* \"#utility.yul\":5400:5736   */\n      pop\n        /* \"#utility.yul\":5387:5388   */\n      0x01\n        /* \"#utility.yul\":5384:5385   */\n      dup2\n        /* \"#utility.yul\":5380:5389   */\n      add\n        /* \"#utility.yul\":5375:5389   */\n      swap1\n      pop\n        /* \"#utility.yul\":5340:5736   */\n      jump(tag_178)\n    tag_180:\n        /* \"#utility.yul\":5344:5358   */\n      pop\n        /* \"#utility.yul\":5752:5756   */\n      dup3\n        /* \"#utility.yul\":5745:5756   */\n      swap8\n      pop\n        /* \"#utility.yul\":5772:5775   */\n      dup8\n        /* \"#utility.yul\":5765:5775   */\n      swap6\n      pop\n        /* \"#utility.yul\":4934:5781   */\n      pop\n      pop\n      pop\n      pop\n      pop\n        /* \"#utility.yul\":4790:5781   */\n      swap3\n      swap2\n      pop\n      pop\n      jump\t// out\n        /* \"#utility.yul\":5787:6200   */\n    tag_19:\n        /* \"#utility.yul\":5950:5954   */\n      0x00\n        /* \"#utility.yul\":5988:5990   */\n      0x20\n        /* \"#utility.yul\":5977:5986   */\n      dup3\n        /* \"#utility.yul\":5973:5991   */\n      add\n        /* \"#utility.yul\":5965:5991   */\n      swap1\n      pop\n        /* \"#utility.yul\":6037:6046   */\n      dup2\n        /* \"#utility.yul\":6031:6035   */\n      dup2\n        /* \"#utility.yul\":6027:6047   */\n      sub\n        /* \"#utility.yul\":6023:6024   */\n      0x00\n        /* \"#utility.yul\":6012:6021   */\n      dup4\n        /* \"#utility.yul\":6008:6025   */\n      add\n        /* \"#utility.yul\":6001:6048   */\n      mstore\n        /* \"#utility.yul\":6065:6193   */\n      tag_184\n        /* \"#utility.yul\":6188:6192   */\n      dup2\n        /* \"#utility.yul\":6179:6185   */\n      dup5\n        /* \"#utility.yul\":6065:6193   */\n      tag_95\n      jump\t// in\n    tag_184:\n        /* \"#utility.yul\":6057:6193   */\n      swap1\n      pop\n        /* \"#utility.yul\":5787:6200   */\n      swap3\n      swap2\n      pop\n      pop\n      jump\t// out\n        /* \"#utility.yul\":6206:6332   */\n    tag_96:\n        /* \"#utility.yul\":6243:6250   */\n      0x00\n        /* \"#utility.yul\":6283:6325   */\n      0xffffffffffffffffffffffffffffffffffffffff\n        /* \"#utility.yul\":6276:6281   */\n      dup3\n        /* \"#utility.yul\":6272:6326   */\n      and\n        /* \"#utility.yul\":6261:6326   */\n      swap1\n      pop\n        /* \"#utility.yul\":6206:6332   */\n      swap2\n      swap1\n      pop\n      jump\t// out\n        /* \"#utility.yul\":6338:6434   */\n    tag_97:\n        /* \"#utility.yul\":6375:6382   */\n      0x00\n        /* \"#utility.yul\":6404:6428   */\n      tag_187\n        /* \"#utility.yul\":6422:6427   */\n      dup3\n        /* \"#utility.yul\":6404:6428   */\n      tag_96\n      jump\t// in\n    tag_187:\n        /* \"#utility.yul\":6393:6428   */\n      swap1\n      pop\n        /* \"#utility.yul\":6338:6434   */\n      swap2\n      swap1\n      pop\n      jump\t// out\n        /* \"#utility.yul\":6440:6562   */\n    tag_98:\n        /* \"#utility.yul\":6513:6537   */\n      tag_189\n        /* \"#utility.yul\":6531:6536   */\n      dup2\n        /* \"#utility.yul\":6513:6537   */\n      tag_97\n      jump\t// in\n    tag_189:\n        /* \"#utility.yul\":6506:6511   */\n      dup2\n        /* \"#utility.yul\":6503:6538   */\n      eq\n        /* \"#utility.yul\":6493:6556   */\n      tag_190\n      jumpi\n        /* \"#utility.yul\":6552:6553   */\n      0x00\n        /* \"#utility.yul\":6549:6550   */\n      dup1\n        /* \"#utility.yul\":6542:6554   */\n      revert\n        /* \"#utility.yul\":6493:6556   */\n    tag_190:\n        /* \"#utility.yul\":6440:6562   */\n      pop\n      jump\t// out\n        /* \"#utility.yul\":6568:6707   */\n    tag_99:\n        /* \"#utility.yul\":6614:6619   */\n      0x00\n        /* \"#utility.yul\":6652:6658   */\n      dup2\n        /* \"#utility.yul\":6639:6659   */\n      calldataload\n        /* \"#utility.yul\":6630:6659   */\n      swap1\n      pop\n        /* \"#utility.yul\":6668:6701   */\n      tag_192\n        /* \"#utility.yul\":6695:6700   */\n      dup2\n        /* \"#utility.yul\":6668:6701   */\n      tag_98\n      jump\t// in\n    tag_192:\n        /* \"#utility.yul\":6568:6707   */\n      swap3\n      swap2\n      pop\n      pop\n      jump\t// out\n        /* \"#utility.yul\":6713:6790   */\n    tag_100:\n        /* \"#utility.yul\":6750:6757   */\n      0x00\n        /* \"#utility.yul\":6779:6784   */\n      dup2\n        /* \"#utility.yul\":6768:6784   */\n      swap1\n      pop\n        /* \"#utility.yul\":6713:6790   */\n      swap2\n      swap1\n      pop\n      jump\t// out\n        /* \"#utility.yul\":6796:6918   */\n    tag_101:\n        /* \"#utility.yul\":6869:6893   */\n      tag_195\n        /* \"#utility.yul\":6887:6892   */\n      dup2\n        /* \"#utility.yul\":6869:6893   */\n      tag_100\n      jump\t// in\n    tag_195:\n        /* \"#utility.yul\":6862:6867   */\n      dup2\n        /* \"#utility.yul\":6859:6894   */\n      eq\n        /* \"#utility.yul\":6849:6912   */\n      tag_196\n      jumpi\n        /* \"#utility.yul\":6908:6909   */\n      0x00\n        /* \"#utility.yul\":6905:6906   */\n      dup1\n        /* \"#utility.yul\":6898:6910   */\n      revert\n        /* \"#utility.yul\":6849:6912   */\n    tag_196:\n        /* \"#utility.yul\":6796:6918   */\n      pop\n      jump\t// out\n        /* \"#utility.yul\":6924:7063   */\n    tag_102:\n        /* \"#utility.yul\":6970:6975   */\n      0x00\n        /* \"#utility.yul\":7008:7014   */\n      dup2\n        /* \"#utility.yul\":6995:7015   */\n      calldataload\n        /* \"#utility.yul\":6986:7015   */\n      swap1\n      pop\n        /* \"#utility.yul\":7024:7057   */\n      tag_198\n        /* \"#utility.yul\":7051:7056   */\n      dup2\n        /* \"#utility.yul\":7024:7057   */\n      tag_101\n      jump\t// in\n    tag_198:\n        /* \"#utility.yul\":6924:7063   */\n      swap3\n      swap2\n      pop\n      pop\n      jump\t// out\n        /* \"#utility.yul\":7069:7543   */\n    tag_22:\n        /* \"#utility.yul\":7137:7143   */\n      0x00\n        /* \"#utility.yul\":7145:7151   */\n      dup1\n        /* \"#utility.yul\":7194:7196   */\n      0x40\n        /* \"#utility.yul\":7182:7191   */\n      dup4\n        /* \"#utility.yul\":7173:7180   */\n      dup6\n        /* \"#utility.yul\":7169:7192   */\n      sub\n        /* \"#utility.yul\":7165:7197   */\n      slt\n        /* \"#utility.yul\":7162:7281   */\n      iszero\n      tag_200\n      jumpi\n        /* \"#utility.yul\":7200:7279   */\n      tag_201\n      tag_74\n      jump\t// in\n    tag_201:\n        /* \"#utility.yul\":7162:7281   */\n    tag_200:\n        /* \"#utility.yul\":7320:7321   */\n      0x00\n        /* \"#utility.yul\":7345:7398   */\n      tag_202\n        /* \"#utility.yul\":7390:7397   */\n      dup6\n        /* \"#utility.yul\":7381:7387   */\n      dup3\n        /* \"#utility.yul\":7370:7379   */\n      dup7\n        /* \"#utility.yul\":7366:7388   */\n      add\n        /* \"#utility.yul\":7345:7398   */\n      tag_99\n      jump\t// in\n    tag_202:\n        /* \"#utility.yul\":7335:7398   */\n      swap3\n      pop\n        /* \"#utility.yul\":7291:7408   */\n      pop\n        /* \"#utility.yul\":7447:7449   */\n      0x20\n        /* \"#utility.yul\":7473:7526   */\n      tag_203\n        /* \"#utility.yul\":7518:7525   */\n      dup6\n        /* \"#utility.yul\":7509:7515   */\n      dup3\n        /* \"#utility.yul\":7498:7507   */\n      dup7\n        /* \"#utility.yul\":7494:7516   */\n      add\n        /* \"#utility.yul\":7473:7526   */\n      tag_102\n      jump\t// in\n    tag_203:\n        /* \"#utility.yul\":7463:7526   */\n      swap2\n      pop\n        /* \"#utility.yul\":7418:7536   */\n      pop\n        /* \"#utility.yul\":7069:7543   */\n      swap3\n      pop\n      swap3\n      swap1\n      pop\n      jump\t// out\n        /* \"#utility.yul\":7549:7718   */\n    tag_103:\n        /* \"#utility.yul\":7633:7644   */\n      0x00\n        /* \"#utility.yul\":7667:7673   */\n      dup3\n        /* \"#utility.yul\":7662:7665   */\n      dup3\n        /* \"#utility.yul\":7655:7674   */\n      mstore\n        /* \"#utility.yul\":7707:7711   */\n      0x20\n        /* \"#utility.yul\":7702:7705   */\n      dup3\n        /* \"#utility.yul\":7698:7712   */\n      add\n        /* \"#utility.yul\":7683:7712   */\n      swap1\n      pop\n        /* \"#utility.yul\":7549:7718   */\n      swap3\n      swap2\n      pop\n      pop\n      jump\t// out\n        /* \"#utility.yul\":7724:8101   */\n    tag_104:\n        /* \"#utility.yul\":7812:7815   */\n      0x00\n        /* \"#utility.yul\":7840:7879   */\n      tag_206\n        /* \"#utility.yul\":7873:7878   */\n      dup3\n        /* \"#utility.yul\":7840:7879   */\n      tag_89\n      jump\t// in\n    tag_206:\n        /* \"#utility.yul\":7895:7966   */\n      tag_207\n        /* \"#utility.yul\":7959:7965   */\n      dup2\n        /* \"#utility.yul\":7954:7957   */\n      dup6\n        /* \"#utility.yul\":7895:7966   */\n      tag_103\n      jump\t// in\n    tag_207:\n        /* \"#utility.yul\":7888:7966   */\n      swap4\n      pop\n        /* \"#utility.yul\":7975:8040   */\n      tag_208\n        /* \"#utility.yul\":8033:8039   */\n      dup2\n        /* \"#utility.yul\":8028:8031   */\n      dup6\n        /* \"#utility.yul\":8021:8025   */\n      0x20\n        /* \"#utility.yul\":8014:8019   */\n      dup7\n        /* \"#utility.yul\":8010:8026   */\n      add\n        /* \"#utility.yul\":7975:8040   */\n      tag_91\n      jump\t// in\n    tag_208:\n        /* \"#utility.yul\":8065:8094   */\n      tag_209\n        /* \"#utility.yul\":8087:8093   */\n      dup2\n        /* \"#utility.yul\":8065:8094   */\n      tag_78\n      jump\t// in\n    tag_209:\n        /* \"#utility.yul\":8060:8063   */\n      dup5\n        /* \"#utility.yul\":8056:8095   */\n      add\n        /* \"#utility.yul\":8049:8095   */\n      swap2\n      pop\n        /* \"#utility.yul\":7816:8101   */\n      pop\n        /* \"#utility.yul\":7724:8101   */\n      swap3\n      swap2\n      pop\n      pop\n      jump\t// out\n        /* \"#utility.yul\":8107:8420   */\n    tag_25:\n        /* \"#utility.yul\":8220:8224   */\n      0x00\n        /* \"#utility.yul\":8258:8260   */\n      0x20\n        /* \"#utility.yul\":8247:8256   */\n      dup3\n        /* \"#utility.yul\":8243:8261   */\n      add\n        /* \"#utility.yul\":8235:8261   */\n      swap1\n      pop\n        /* \"#utility.yul\":8307:8316   */\n      dup2\n        /* \"#utility.yul\":8301:8305   */\n      dup2\n        /* \"#utility.yul\":8297:8317   */\n      sub\n        /* \"#utility.yul\":8293:8294   */\n      0x00\n        /* \"#utility.yul\":8282:8291   */\n      dup4\n        /* \"#utility.yul\":8278:8295   */\n      add\n        /* \"#utility.yul\":8271:8318   */\n      mstore\n        /* \"#utility.yul\":8335:8413   */\n      tag_211\n        /* \"#utility.yul\":8408:8412   */\n      dup2\n        /* \"#utility.yul\":8399:8405   */\n      dup5\n        /* \"#utility.yul\":8335:8413   */\n      tag_104\n      jump\t// in\n    tag_211:\n        /* \"#utility.yul\":8327:8413   */\n      swap1\n      pop\n        /* \"#utility.yul\":8107:8420   */\n      swap3\n      swap2\n      pop\n      pop\n      jump\t// out\n        /* \"#utility.yul\":8426:8606   */\n    tag_105:\n        /* \"#utility.yul\":8474:8551   */\n      0x4e487b7100000000000000000000000000000000000000000000000000000000\n        /* \"#utility.yul\":8471:8472   */\n      0x00\n        /* \"#utility.yul\":8464:8552   */\n      mstore\n        /* \"#utility.yul\":8571:8575   */\n      0x22\n        /* \"#utility.yul\":8568:8569   */\n      0x04\n        /* \"#utility.yul\":8561:8576   */\n      mstore\n        /* \"#utility.yul\":8595:8599   */\n      0x24\n        /* \"#utility.yul\":8592:8593   */\n      0x00\n        /* \"#utility.yul\":8585:8600   */\n      revert\n        /* \"#utility.yul\":8612:8932   */\n    tag_45:\n        /* \"#utility.yul\":8656:8662   */\n      0x00\n        /* \"#utility.yul\":8693:8694   */\n      0x02\n        /* \"#utility.yul\":8687:8691   */\n      dup3\n        /* \"#utility.yul\":8683:8695   */\n      div\n        /* \"#utility.yul\":8673:8695   */\n      swap1\n      pop\n        /* \"#utility.yul\":8740:8741   */\n      0x01\n        /* \"#utility.yul\":8734:8738   */\n      dup3\n        /* \"#utility.yul\":8730:8742   */\n      and\n        /* \"#utility.yul\":8761:8779   */\n      dup1\n        /* \"#utility.yul\":8751:8832   */\n      tag_214\n      jumpi\n        /* \"#utility.yul\":8817:8821   */\n      0x7f\n        /* \"#utility.yul\":8809:8815   */\n      dup3\n        /* \"#utility.yul\":8805:8822   */\n      and\n        /* \"#utility.yul\":8795:8822   */\n      swap2\n      pop\n        /* \"#utility.yul\":8751:8832   */\n    tag_214:\n        /* \"#utility.yul\":8879:8881   */\n      0x20\n        /* \"#utility.yul\":8871:8877   */\n      dup3\n        /* \"#utility.yul\":8868:8882   */\n      lt\n        /* \"#utility.yul\":8848:8866   */\n      dup2\n        /* \"#utility.yul\":8845:8883   */\n      sub\n        /* \"#utility.yul\":8842:8926   */\n      tag_215\n      jumpi\n        /* \"#utility.yul\":8898:8916   */\n      tag_216\n      tag_105\n      jump\t// in\n    tag_216:\n        /* \"#utility.yul\":8842:8926   */\n    tag_215:\n        /* \"#utility.yul\":8663:8932   */\n      pop\n        /* \"#utility.yul\":8612:8932   */\n      swap2\n      swap1\n      pop\n      jump\t// out\n        /* \"#utility.yul\":8938:9079   */\n    tag_106:\n        /* \"#utility.yul\":8987:8991   */\n      0x00\n        /* \"#utility.yul\":9010:9013   */\n      dup2\n        /* \"#utility.yul\":9002:9013   */\n      swap1\n      pop\n        /* \"#utility.yul\":9033:9036   */\n      dup2\n        /* \"#utility.yul\":9030:9031   */\n      0x00\n        /* \"#utility.yul\":9023:9037   */\n      mstore\n        /* \"#utility.yul\":9067:9071   */\n      0x20\n        /* \"#utility.yul\":9064:9065   */\n      0x00\n        /* \"#utility.yul\":9054:9072   */\n      keccak256\n        /* \"#utility.yul\":9046:9072   */\n      swap1\n      pop\n        /* \"#utility.yul\":8938:9079   */\n      swap2\n      swap1\n      pop\n      jump\t// out\n        /* \"#utility.yul\":9085:9178   */\n    tag_107:\n        /* \"#utility.yul\":9122:9128   */\n      0x00\n        /* \"#utility.yul\":9169:9171   */\n      0x20\n        /* \"#utility.yul\":9164:9166   */\n      0x1f\n        /* \"#utility.yul\":9157:9162   */\n      dup4\n        /* \"#utility.yul\":9153:9167   */\n      add\n        /* \"#utility.yul\":9149:9172   */\n      div\n        /* \"#utility.yul\":9139:9172   */\n      swap1\n      pop\n        /* \"#utility.yul\":9085:9178   */\n      swap2\n      swap1\n      pop\n      jump\t// out\n        /* \"#utility.yul\":9184:9291   */\n    tag_108:\n        /* \"#utility.yul\":9228:9236   */\n      0x00\n        /* \"#utility.yul\":9278:9283   */\n      dup3\n        /* \"#utility.yul\":9272:9276   */\n      dup3\n        /* \"#utility.yul\":9268:9284   */\n      shl\n        /* \"#utility.yul\":9247:9284   */\n      swap1\n      pop\n        /* \"#utility.yul\":9184:9291   */\n      swap3\n      swap2\n      pop\n      pop\n      jump\t// out\n        /* \"#utility.yul\":9297:9690   */\n    tag_109:\n        /* \"#utility.yul\":9366:9372   */\n      0x00\n        /* \"#utility.yul\":9416:9417   */\n      0x08\n        /* \"#utility.yul\":9404:9414   */\n      dup4\n        /* \"#utility.yul\":9400:9418   */\n      mul\n        /* \"#utility.yul\":9439:9536   */\n      tag_221\n        /* \"#utility.yul\":9469:9535   */\n      0xffffffffffffffffffffffffffffffffffffffffffffffffffffffffffffffff\n        /* \"#utility.yul\":9458:9467   */\n      dup3\n        /* \"#utility.yul\":9439:9536   */\n      tag_108\n      jump\t// in\n    tag_221:\n        /* \"#utility.yul\":9557:9596   */\n      tag_222\n        /* \"#utility.yul\":9587:9595   */\n      dup7\n        /* \"#utility.yul\":9576:9585   */\n      dup4\n        /* \"#utility.yul\":9557:9596   */\n      tag_108\n      jump\t// in\n    tag_222:\n        /* \"#utility.yul\":9545:9596   */\n      swap6\n      pop\n        /* \"#utility.yul\":9629:9633   */\n      dup1\n        /* \"#utility.yul\":9625:9634   */\n      not\n        /* \"#utility.yul\":9618:9623   */\n      dup5\n        /* \"#utility.yul\":9614:9635   */\n      and\n        /* \"#utility.yul\":9605:9635   */\n      swap4\n      pop\n        /* \"#utility.yul\":9678:9682   */\n      dup1\n        /* \"#utility.yul\":9668:9676   */\n      dup7\n        /* \"#utility.yul\":9664:9683   */\n      and\n        /* \"#utility.yul\":9657:9662   */\n      dup5\n        /* \"#utility.yul\":9654:9684   */\n      or\n        /* \"#utility.yul\":9644:9684   */\n      swap3\n      pop\n        /* \"#utility.yul\":9373:9690   */\n      pop\n      pop\n        /* \"#utility.yul\":9297:9690   */\n      swap4\n      swap3\n      pop\n      pop\n      pop\n      jump\t// out\n        /* \"#utility.yul\":9696:9756   */\n    tag_110:\n        /* \"#utility.yul\":9724:9727   */\n      0x00\n        /* \"#utility.yul\":9745:9750   */\n      dup2\n        /* \"#utility.yul\":9738:9750   */\n      swap1\n      pop\n        /* \"#utility.yul\":9696:9756   */\n      swap2\n      swap1\n      pop\n      jump\t// out\n        /* \"#utility.yul\":9762:9904   */\n    tag_111:\n        /* \"#utility.yul\":9812:9821   */\n      0x00\n        /* \"#utility.yul\":9845:9898   */\n      tag_225\n        /* \"#utility.yul\":9863:9897   */\n      tag_226\n        /* \"#utility.yul\":9872:9896   */\n      tag_227\n        /* \"#utility.yul\":9890:9895   */\n      dup5\n        /* \"#utility.yul\":9872:9896   */\n      tag_100\n      jump\t// in\n    tag_227:\n        /* \"#utility.yul\":9863:9897   */\n      tag_110\n      jump\t// in\n    tag_226:\n        /* \"#utility.yul\":9845:9898   */\n      tag_100\n      jump\t// in\n    tag_225:\n        /* \"#utility.yul\":9832:9898   */\n      swap1\n      pop\n        /* \"#utility.yul\":9762:9904   */\n      swap2\n      swap1\n      pop\n      jump\t// out\n        /* \"#utility.yul\":9910:9985   */\n    tag_112:\n        /* \"#utility.yul\":9953:9956   */\n      0x00\n        /* \"#utility.yul\":9974:9979   */\n      dup2\n        /* \"#utility.yul\":9967:9979   */\n      swap1\n      pop\n        /* \"#utility.yul\":9910:9985   */\n      swap2\n      swap1\n      pop\n      jump\t// out\n        /* \"#utility.yul\":9991:10260   */\n    tag_113:\n        /* \"#utility.yul\":10101:10140   */\n      tag_230\n        /* \"#utility.yul\":10132:10139   */\n      dup4\n        /* \"#utility.yul\":10101:10140   */\n      tag_111\n      jump\t// in\n    tag_230:\n        /* \"#utility.yul\":10162:10253   */\n      tag_231\n        /* \"#utility.yul\":10211:10252   */\n      tag_232\n        /* \"#utility.yul\":10235:10251   */\n      dup3\n        /* \"#utility.yul\":10211:10252   */\n      tag_112\n      jump\t// in\n    tag_232:\n        /* \"#utility.yul\":10203:10209   */\n      dup5\n        /* \"#utility.yul\":10196:10200   */\n      dup5\n        /* \"#utility.yul\":10190:10201   */\n      sload\n        /* \"#utility.yul\":10162:10253   */\n      tag_109\n      jump\t// in\n    tag_231:\n        /* \"#utility.yul\":10156:10160   */\n      dup3\n        /* \"#utility.yul\":10149:10254   */\n      sstore\n        /* \"#utility.yul\":10067:10260   */\n      pop\n        /* \"#utility.yul\":9991:10260   */\n      pop\n      pop\n      pop\n      jump\t// out\n        /* \"#utility.yul\":10266:10339   */\n    tag_114:\n        /* \"#utility.yul\":10311:10314   */\n      0x00\n        /* \"#utility.yul\":10266:10339   */\n      swap1\n      jump\t// out\n        /* \"#utility.yul\":10345:10534   */\n    tag_115:\n        /* \"#utility.yul\":10422:10454   */\n      tag_235\n      tag_114\n      jump\t// in\n    tag_235:\n        /* \"#utility.yul\":10463:10528   */\n      tag_236\n        /* \"#utility.yul\":10521:10527   */\n      dup2\n        /* \"#utility.yul\":10513:10519   */\n      dup5\n        /* \"#utility.yul\":10507:10511   */\n      dup5\n        /* \"#utility.yul\":10463:10528   */\n      tag_113\n      jump\t// in\n    tag_236:\n        /* \"#utility.yul\":10398:10534   */\n      pop\n        /* \"#utility.yul\":10345:10534   */\n      pop\n      pop\n      jump\t// out\n        /* \"#utility.yul\":10540:10726   */\n    tag_116:\n        /* \"#utility.yul\":10600:10720   */\n    tag_238:\n        /* \"#utility.yul\":10617:10620   */\n      dup2\n        /* \"#utility.yul\":10610:10615   */\n      dup2\n        /* \"#utility.yul\":10607:10621   */\n      lt\n        /* \"#utility.yul\":10600:10720   */\n      iszero\n      tag_240\n      jumpi\n        /* \"#utility.yul\":10671:10710   */\n      tag_241\n        /* \"#utility.yul\":10708:10709   */\n      0x00\n        /* \"#utility.yul\":10701:10706   */\n      dup3\n        /* \"#utility.yul\":10671:10710   */\n      tag_115\n      jump\t// in\n    tag_241:\n        /* \"#utility.yul\":10644:10645   */\n      0x01\n        /* \"#utility.yul\":10637:10642   */\n      dup2\n        /* \"#utility.yul\":10633:10646   */\n      add\n        /* \"#utility.yul\":10624:10646   */\n      swap1\n      pop\n        /* \"#utility.yul\":10600:10720   */\n      jump(tag_238)\n    tag_240:\n        /* \"#utility.yul\":10540:10726   */\n      pop\n      pop\n      jump\t// out\n        /* \"#utility.yul\":10732:11275   */\n    tag_117:\n        /* \"#utility.yul\":10833:10835   */\n      0x1f\n        /* \"#utility.yul\":10828:10831   */\n      dup3\n        /* \"#utility.yul\":10825:10836   */\n      gt\n        /* \"#utility.yul\":10822:11268   */\n      iszero\n      tag_243\n      jumpi\n        /* \"#utility.yul\":10867:10905   */\n      tag_244\n        /* \"#utility.yul\":10899:10904   */\n      dup2\n        /* \"#utility.yul\":10867:10905   */\n      tag_106\n      jump\t// in\n    tag_244:\n        /* \"#utility.yul\":10951:10980   */\n      tag_245\n        /* \"#utility.yul\":10969:10979   */\n      dup5\n        /* \"#utility.yul\":10951:10980   */\n      tag_107\n      jump\t// in\n    tag_245:\n        /* \"#utility.yul\":10941:10949   */\n      dup2\n        /* \"#utility.yul\":10937:10981   */\n      add\n        /* \"#utility.yul\":11134:11136   */\n      0x20\n        /* \"#utility.yul\":11122:11132   */\n      dup6\n        /* \"#utility.yul\":11119:11137   */\n      lt\n        /* \"#utility.yul\":11116:11165   */\n      iszero\n      tag_246\n      jumpi\n        /* \"#utility.yul\":11155:11163   */\n      dup2\n        /* \"#utility.yul\":11140:11163   */\n      swap1\n      pop\n        /* \"#utility.yul\":11116:11165   */\n    tag_246:\n        /* \"#utility.yul\":11178:11258   */\n      tag_247\n        /* \"#utility.yul\":11234:11256   */\n      tag_248\n        /* \"#utility.yul\":11252:11255   */\n      dup6\n        /* \"#utility.yul\":11234:11256   */\n      tag_107\n      jump\t// in\n    tag_248:\n        /* \"#utility.yul\":11224:11232   */\n      dup4\n        /* \"#utility.yul\":11220:11257   */\n      add\n        /* \"#utility.yul\":11207:11218   */\n      dup3\n        /* \"#utility.yul\":11178:11258   */\n      tag_116\n      jump\t// in\n    tag_247:\n        /* \"#utility.yul\":10837:11268   */\n      pop\n      pop\n        /* \"#utility.yul\":10822:11268   */\n    tag_243:\n        /* \"#utility.yul\":10732:11275   */\n      pop\n      pop\n      pop\n      jump\t// out\n        /* \"#utility.yul\":11281:11398   */\n    tag_118:\n        /* \"#utility.yul\":11335:11343   */\n      0x00\n        /* \"#utility.yul\":11385:11390   */\n      dup3\n        /* \"#utility.yul\":11379:11383   */\n      dup3\n        /* \"#utility.yul\":11375:11391   */\n      shr\n        /* \"#utility.yul\":11354:11391   */\n      swap1\n      pop\n        /* \"#utility.yul\":11281:11398   */\n      swap3\n      swap2\n      pop\n      pop\n      jump\t// out\n        /* \"#utility.yul\":11404:11573   */\n    tag_119:\n        /* \"#utility.yul\":11448:11454   */\n      0x00\n        /* \"#utility.yul\":11481:11532   */\n      tag_251\n        /* \"#utility.yul\":11529:11530   */\n      0x00\n        /* \"#utility.yul\":11525:11531   */\n      not\n        /* \"#utility.yul\":11517:11522   */\n      dup5\n        /* \"#utility.yul\":11514:11515   */\n      0x08\n        /* \"#utility.yul\":11510:11523   */\n      mul\n        /* \"#utility.yul\":11481:11532   */\n      tag_118\n      jump\t// in\n    tag_251:\n        /* \"#utility.yul\":11477:11533   */\n      not\n        /* \"#utility.yul\":11562:11566   */\n      dup1\n        /* \"#utility.yul\":11556:11560   */\n      dup4\n        /* \"#utility.yul\":11552:11567   */\n      and\n        /* \"#utility.yul\":11542:11567   */\n      swap2\n      pop\n        /* \"#utility.yul\":11455:11573   */\n      pop\n        /* \"#utility.yul\":11404:11573   */\n      swap3\n      swap2\n      pop\n      pop\n      jump\t// out\n        /* \"#utility.yul\":11578:11873   */\n    tag_120:\n        /* \"#utility.yul\":11654:11658   */\n      0x00\n        /* \"#utility.yul\":11800:11829   */\n      tag_253\n        /* \"#utility.yul\":11825:11828   */\n      dup4\n        /* \"#utility.yul\":11819:11823   */\n      dup4\n        /* \"#utility.yul\":11800:11829   */\n      tag_119\n      jump\t// in\n    tag_253:\n        /* \"#utility.yul\":11792:11829   */\n      swap2\n      pop\n        /* \"#utility.yul\":11862:11865   */\n      dup3\n        /* \"#utility.yul\":11859:11860   */\n      0x02\n        /* \"#utility.yul\":11855:11866   */\n      mul\n        /* \"#utility.yul\":11849:11853   */\n      dup3\n        /* \"#utility.yul\":11846:11867   */\n      or\n        /* \"#utility.yul\":11838:11867   */\n      swap1\n      pop\n        /* \"#utility.yul\":11578:11873   */\n      swap3\n      swap2\n      pop\n      pop\n      jump\t// out\n        /* \"#utility.yul\":11878:13273   */\n    tag_29:\n        /* \"#utility.yul\":11995:12032   */\n      tag_255\n        /* \"#utility.yul\":12028:12031   */\n      dup3\n        /* \"#utility.yul\":11995:12032   */\n      tag_89\n      jump\t// in\n    tag_255:\n        /* \"#utility.yul\":12097:12115   */\n      0xffffffffffffffff\n        /* \"#utility.yul\":12089:12095   */\n      dup2\n        /* \"#utility.yul\":12086:12116   */\n      gt\n        /* \"#utility.yul\":12083:12139   */\n      iszero\n      tag_256\n      jumpi\n        /* \"#utility.yul\":12119:12137   */\n      tag_257\n      tag_79\n      jump\t// in\n    tag_257:\n        /* \"#utility.yul\":12083:12139   */\n    tag_256:\n        /* \"#utility.yul\":12163:12201   */\n      tag_258\n        /* \"#utility.yul\":12195:12199   */\n      dup3\n        /* \"#utility.yul\":12189:12200   */\n      sload\n        /* \"#utility.yul\":12163:12201   */\n      tag_45\n      jump\t// in\n    tag_258:\n        /* \"#utility.yul\":12248:12315   */\n      tag_259\n        /* \"#utility.yul\":12308:12314   */\n      dup3\n        /* \"#utility.yul\":12300:12306   */\n      dup3\n        /* \"#utility.yul\":12294:12298   */\n      dup6\n        /* \"#utility.yul\":12248:12315   */\n      tag_117\n      jump\t// in\n    tag_259:\n        /* \"#utility.yul\":12342:12343   */\n      0x00\n        /* \"#utility.yul\":12366:12370   */\n      0x20\n        /* \"#utility.yul\":12353:12370   */\n      swap1\n      pop\n        /* \"#utility.yul\":12398:12400   */\n      0x1f\n        /* \"#utility.yul\":12390:12396   */\n      dup4\n        /* \"#utility.yul\":12387:12401   */\n      gt\n        /* \"#utility.yul\":12415:12416   */\n      0x01\n        /* \"#utility.yul\":12410:13028   */\n      dup2\n      eq\n      tag_261\n      jumpi\n        /* \"#utility.yul\":13072:13073   */\n      0x00\n        /* \"#utility.yul\":13089:13095   */\n      dup5\n        /* \"#utility.yul\":13086:13163   */\n      iszero\n      tag_262\n      jumpi\n        /* \"#utility.yul\":13138:13147   */\n      dup3\n        /* \"#utility.yul\":13133:13136   */\n      dup8\n        /* \"#utility.yul\":13129:13148   */\n      add\n        /* \"#utility.yul\":13123:13149   */\n      mload\n        /* \"#utility.yul\":13114:13149   */\n      swap1\n      pop\n        /* \"#utility.yul\":13086:13163   */\n    tag_262:\n        /* \"#utility.yul\":13189:13256   */\n      tag_263\n        /* \"#utility.yul\":13249:13255   */\n      dup6\n        /* \"#utility.yul\":13242:13247   */\n      dup3\n        /* \"#utility.yul\":13189:13256   */\n      tag_120\n      jump\t// in\n    tag_263:\n        /* \"#utility.yul\":13183:13187   */\n      dup7\n        /* \"#utility.yul\":13176:13257   */\n      sstore\n        /* \"#utility.yul\":13045:13267   */\n      pop\n        /* \"#utility.yul\":12380:13267   */\n      jump(tag_260)\n        /* \"#utility.yul\":12410:13028   */\n    tag_261:\n        /* \"#utility.yul\":12462:12466   */\n      0x1f\n        /* \"#utility.yul\":12458:12467   */\n      not\n        /* \"#utility.yul\":12450:12456   */\n      dup5\n        /* \"#utility.yul\":12446:12468   */\n      and\n        /* \"#utility.yul\":12496:12533   */\n      tag_264\n        /* \"#utility.yul\":12528:12532   */\n      dup7\n        /* \"#utility.yul\":12496:12533   */\n      tag_106\n      jump\t// in\n    tag_264:\n        /* \"#utility.yul\":12555:12556   */\n      0x00\n        /* \"#utility.yul\":12569:12777   */\n    tag_265:\n        /* \"#utility.yul\":12583:12590   */\n      dup3\n        /* \"#utility.yul\":12580:12581   */\n      dup2\n        /* \"#utility.yul\":12577:12591   */\n      lt\n        /* \"#utility.yul\":12569:12777   */\n      iszero\n      tag_267\n      jumpi\n        /* \"#utility.yul\":12662:12671   */\n      dup5\n        /* \"#utility.yul\":12657:12660   */\n      dup10\n        /* \"#utility.yul\":12653:12672   */\n      add\n        /* \"#utility.yul\":12647:12673   */\n      mload\n        /* \"#utility.yul\":12639:12645   */\n      dup3\n        /* \"#utility.yul\":12632:12674   */\n      sstore\n        /* \"#utility.yul\":12713:12714   */\n      0x01\n        /* \"#utility.yul\":12705:12711   */\n      dup3\n        /* \"#utility.yul\":12701:12715   */\n      add\n        /* \"#utility.yul\":12691:12715   */\n      swap2\n      pop\n        /* \"#utility.yul\":12760:12762   */\n      0x20\n        /* \"#utility.yul\":12749:12758   */\n      dup6\n        /* \"#utility.yul\":12745:12763   */\n      add\n        /* \"#utility.yul\":12732:12763   */\n      swap5\n      pop\n        /* \"#utility.yul\":12606:12610   */\n      0x20\n        /* \"#utility.yul\":12603:12604   */\n      dup2\n        /* \"#utility.yul\":12599:12611   */\n      add\n        /* \"#utility.yul\":12594:12611   */\n      swap1\n      pop\n        /* \"#utility.yul\":12569:12777   */\n      jump(tag_265)\n    tag_267:\n        /* \"#utility.yul\":12805:12811   */\n      dup7\n        /* \"#utility.yul\":12796:12803   */\n      dup4\n        /* \"#utility.yul\":12793:12812   */\n      lt\n        /* \"#utility.yul\":12790:12969   */\n      iszero\n      tag_268\n      jumpi\n        /* \"#utility.yul\":12863:12872   */\n      dup5\n        /* \"#utility.yul\":12858:12861   */\n      dup10\n        /* \"#utility.yul\":12854:12873   */\n      add\n        /* \"#utility.yul\":12848:12874   */\n      mload\n        /* \"#utility.yul\":12906:12954   */\n      tag_269\n        /* \"#utility.yul\":12948:12952   */\n      0x1f\n        /* \"#utility.yul\":12940:12946   */\n      dup10\n        /* \"#utility.yul\":12936:12953   */\n      and\n        /* \"#utility.yul\":12925:12934   */\n      dup3\n        /* \"#utility.yul\":12906:12954   */\n      tag_119\n      jump\t// in\n    tag_269:\n        /* \"#utility.yul\":12898:12904   */\n      dup4\n        /* \"#utility.yul\":12891:12955   */\n      sstore\n        /* \"#utility.yul\":12813:12969   */\n      pop\n        /* \"#utility.yul\":12790:12969   */\n    tag_268:\n        /* \"#utility.yul\":13015:13016   */\n      0x01\n        /* \"#utility.yul\":13011:13012   */\n      0x02\n        /* \"#utility.yul\":13003:13009   */\n      dup9\n        /* \"#utility.yul\":12999:13013   */\n      mul\n        /* \"#utility.yul\":12995:13017   */\n      add\n        /* \"#utility.yul\":12989:12993   */\n      dup9\n        /* \"#utility.yul\":12982:13018   */\n      sstore\n        /* \"#utility.yul\":12417:13028   */\n      pop\n      pop\n      pop\n        /* \"#utility.yul\":12380:13267   */\n    tag_260:\n      pop\n        /* \"#utility.yul\":11970:13273   */\n      pop\n      pop\n      pop\n        /* \"#utility.yul\":11878:13273   */\n      pop\n      pop\n      jump\t// out\n        /* \"#utility.yul\":13279:13459   */\n    tag_33:\n        /* \"#utility.yul\":13327:13404   */\n      0x4e487b7100000000000000000000000000000000000000000000000000000000\n        /* \"#utility.yul\":13324:13325   */\n      0x00\n        /* \"#utility.yul\":13317:13405   */\n      mstore\n        /* \"#utility.yul\":13424:13428   */\n      0x31\n        /* \"#utility.yul\":13421:13422   */\n      0x04\n        /* \"#utility.yul\":13414:13429   */\n      mstore\n        /* \"#utility.yul\":13448:13452   */\n      0x24\n        /* \"#utility.yul\":13445:13446   */\n      0x00\n        /* \"#utility.yul\":13438:13453   */\n      revert\n        /* \"#utility.yul\":13465:13645   */\n    tag_53:\n        /* \"#utility.yul\":13513:13590   */\n      0x4e487b7100000000000000000000000000000000000000000000000000000000\n        /* \"#utility.yul\":13510:13511   */\n      0x00\n        /* \"#utility.yul\":13503:13591   */\n      mstore\n        /* \"#utility.yul\":13610:13614   */\n      0x32\n        /* \"#utility.yul\":13607:13608   */\n      0x04\n        /* \"#utility.yul\":13600:13615   */\n      mstore\n        /* \"#utility.yul\":13634:13638   */\n      0x24\n        /* \"#utility.yul\":13631:13632   */\n      0x00\n        /* \"#utility.yul\":13624:13639   */\n      revert\n\n    auxdata: 0xa2646970667358221220c8a87f5802f658cdfdba00c9ebba24abe45378e46fb80a45b868824d2fa80f5b64736f6c63430008170033\n}\n",
				"bytecode": {
					"linkReferences": {},
					"object": "608060405234801561000f575f80fd5b50610bfb8061001d5f395ff3fe608060405234801561000f575f80fd5b5060043610610055575f3560e01c80632a1f1d061461005957806371e7eb12146100755780638a4dd9e01461007f578063cf7d628a14610089578063f67d225f146100a7575b5f80fd5b610073600480360381019061006e91906105d3565b6100d7565b005b61007d610146565b005b6100876101af565b005b6100916101f8565b60405161009e919061074f565b60405180910390f35b6100c160048036038101906100bc91906107fc565b610306565b6040516100ce9190610882565b60405180910390f35b5f803373ffffffffffffffffffffffffffffffffffffffff1673ffffffffffffffffffffffffffffffffffffffff1681526020019081526020015f2081908060018154018082558091505060019003905f5260205f20015f9091909190915090816101429190610a9c565b5050565b5f803373ffffffffffffffffffffffffffffffffffffffff1673ffffffffffffffffffffffffffffffffffffffff1681526020019081526020015f2080548061019257610191610b6b565b5b600190038181905f5260205f20015f6101ab91906103ed565b9055565b5f803373ffffffffffffffffffffffffffffffffffffffff1673ffffffffffffffffffffffffffffffffffffffff1681526020019081526020015f205f6101f6919061042a565b565b60605f803373ffffffffffffffffffffffffffffffffffffffff1673ffffffffffffffffffffffffffffffffffffffff1681526020019081526020015f20805480602002602001604051908101604052809291908181526020015f905b828210156102fd578382905f5260205f20018054610272906108cf565b80601f016020809104026020016040519081016040528092919081815260200182805461029e906108cf565b80156102e95780601f106102c0576101008083540402835291602001916102e9565b820191905f5260205f20905b8154815290600101906020018083116102cc57829003601f168201915b505050505081526020019060010190610255565b50505050905090565b60605f808473ffffffffffffffffffffffffffffffffffffffff1673ffffffffffffffffffffffffffffffffffffffff1681526020019081526020015f20828154811061035657610355610b98565b5b905f5260205f20018054610369906108cf565b80601f0160208091040260200160405190810160405280929190818152602001828054610395906108cf565b80156103e05780601f106103b7576101008083540402835291602001916103e0565b820191905f5260205f20905b8154815290600101906020018083116103c357829003601f168201915b5050505050905092915050565b5080546103f9906108cf565b5f825580601f1061040a5750610427565b601f0160209004905f5260205f20908101906104269190610448565b5b50565b5080545f8255905f5260205f20908101906104459190610463565b50565b5b8082111561045f575f815f905550600101610449565b5090565b5b80821115610482575f818161047991906103ed565b50600101610464565b5090565b5f604051905090565b5f80fd5b5f80fd5b5f80fd5b5f80fd5b5f601f19601f8301169050919050565b7f4e487b71000000000000000000000000000000000000000000000000000000005f52604160045260245ffd5b6104e58261049f565b810181811067ffffffffffffffff82111715610504576105036104af565b5b80604052505050565b5f610516610486565b905061052282826104dc565b919050565b5f67ffffffffffffffff821115610541576105406104af565b5b61054a8261049f565b9050602081019050919050565b828183375f83830152505050565b5f61057761057284610527565b61050d565b9050828152602081018484840111156105935761059261049b565b5b61059e848285610557565b509392505050565b5f82601f8301126105ba576105b9610497565b5b81356105ca848260208601610565565b91505092915050565b5f602082840312156105e8576105e761048f565b5b5f82013567ffffffffffffffff81111561060557610604610493565b5b610611848285016105a6565b91505092915050565b5f81519050919050565b5f82825260208201905092915050565b5f819050602082019050919050565b5f81519050919050565b5f82825260208201905092915050565b5f5b8381101561067a57808201518184015260208101905061065f565b5f8484015250505050565b5f61068f82610643565b610699818561064d565b93506106a981856020860161065d565b6106b28161049f565b840191505092915050565b5f6106c88383610685565b905092915050565b5f602082019050919050565b5f6106e68261061a565b6106f08185610624565b93508360208202850161070285610634565b805f5b8581101561073d578484038952815161071e85826106bd565b9450610729836106d0565b925060208a01995050600181019050610705565b50829750879550505050505092915050565b5f6020820190508181035f83015261076781846106dc565b905092915050565b5f73ffffffffffffffffffffffffffffffffffffffff82169050919050565b5f6107988261076f565b9050919050565b6107a88161078e565b81146107b2575f80fd5b50565b5f813590506107c38161079f565b92915050565b5f819050919050565b6107db816107c9565b81146107e5575f80fd5b50565b5f813590506107f6816107d2565b92915050565b5f80604083850312156108125761081161048f565b5b5f61081f858286016107b5565b9250506020610830858286016107e8565b9150509250929050565b5f82825260208201905092915050565b5f61085482610643565b61085e818561083a565b935061086e81856020860161065d565b6108778161049f565b840191505092915050565b5f6020820190508181035f83015261089a818461084a565b905092915050565b7f4e487b71000000000000000000000000000000000000000000000000000000005f52602260045260245ffd5b5f60028204905060018216806108e657607f821691505b6020821081036108f9576108f86108a2565b5b50919050565b5f819050815f5260205f209050919050565b5f6020601f8301049050919050565b5f82821b905092915050565b5f6008830261095b7fffffffffffffffffffffffffffffffffffffffffffffffffffffffffffffffff82610920565b6109658683610920565b95508019841693508086168417925050509392505050565b5f819050919050565b5f6109a061099b610996846107c9565b61097d565b6107c9565b9050919050565b5f819050919050565b6109b983610986565b6109cd6109c5826109a7565b84845461092c565b825550505050565b5f90565b6109e16109d5565b6109ec8184846109b0565b505050565b5b81811015610a0f57610a045f826109d9565b6001810190506109f2565b5050565b601f821115610a5457610a25816108ff565b610a2e84610911565b81016020851015610a3d578190505b610a51610a4985610911565b8301826109f1565b50505b505050565b5f82821c905092915050565b5f610a745f1984600802610a59565b1980831691505092915050565b5f610a8c8383610a65565b9150826002028217905092915050565b610aa582610643565b67ffffffffffffffff811115610abe57610abd6104af565b5b610ac882546108cf565b610ad3828285610a13565b5f60209050601f831160018114610b04575f8415610af2578287015190505b610afc8582610a81565b865550610b63565b601f198416610b12866108ff565b5f5b82811015610b3957848901518255600182019150602085019450602081019050610b14565b86831015610b565784890151610b52601f891682610a65565b8355505b6001600288020188555050505b505050505050565b7f4e487b71000000000000000000000000000000000000000000000000000000005f52603160045260245ffd5b7f4e487b71000000000000000000000000000000000000000000000000000000005f52603260045260245ffdfea2646970667358221220c8a87f5802f658cdfdba00c9ebba24abe45378e46fb80a45b868824d2fa80f5b64736f6c63430008170033",
					"opcodes": "PUSH1 0x80 PUSH1 0x40 MSTORE CALLVALUE DUP1 ISZERO PUSH2 0xF JUMPI PUSH0 DUP1 REVERT JUMPDEST POP PUSH2 0xBFB DUP1 PUSH2 0x1D PUSH0 CODECOPY PUSH0 RETURN INVALID PUSH1 0x80 PUSH1 0x40 MSTORE CALLVALUE DUP1 ISZERO PUSH2 0xF JUMPI PUSH0 DUP1 REVERT JUMPDEST POP PUSH1 0x4 CALLDATASIZE LT PUSH2 0x55 JUMPI PUSH0 CALLDATALOAD PUSH1 0xE0 SHR DUP1 PUSH4 0x2A1F1D06 EQ PUSH2 0x59 JUMPI DUP1 PUSH4 0x71E7EB12 EQ PUSH2 0x75 JUMPI DUP1 PUSH4 0x8A4DD9E0 EQ PUSH2 0x7F JUMPI DUP1 PUSH4 0xCF7D628A EQ PUSH2 0x89 JUMPI DUP1 PUSH4 0xF67D225F EQ PUSH2 0xA7 JUMPI JUMPDEST PUSH0 DUP1 REVERT JUMPDEST PUSH2 0x73 PUSH1 0x4 DUP1 CALLDATASIZE SUB DUP2 ADD SWAP1 PUSH2 0x6E SWAP2 SWAP1 PUSH2 0x5D3 JUMP JUMPDEST PUSH2 0xD7 JUMP JUMPDEST STOP JUMPDEST PUSH2 0x7D PUSH2 0x146 JUMP JUMPDEST STOP JUMPDEST PUSH2 0x87 PUSH2 0x1AF JUMP JUMPDEST STOP JUMPDEST PUSH2 0x91 PUSH2 0x1F8 JUMP JUMPDEST PUSH1 0x40 MLOAD PUSH2 0x9E SWAP2 SWAP1 PUSH2 0x74F JUMP JUMPDEST PUSH1 0x40 MLOAD DUP1 SWAP2 SUB SWAP1 RETURN JUMPDEST PUSH2 0xC1 PUSH1 0x4 DUP1 CALLDATASIZE SUB DUP2 ADD SWAP1 PUSH2 0xBC SWAP2 SWAP1 PUSH2 0x7FC JUMP JUMPDEST PUSH2 0x306 JUMP JUMPDEST PUSH1 0x40 MLOAD PUSH2 0xCE SWAP2 SWAP1 PUSH2 0x882 JUMP JUMPDEST PUSH1 0x40 MLOAD DUP1 SWAP2 SUB SWAP1 RETURN JUMPDEST PUSH0 DUP1 CALLER PUSH20 0xFFFFFFFFFFFFFFFFFFFFFFFFFFFFFFFFFFFFFFFF AND PUSH20 0xFFFFFFFFFFFFFFFFFFFFFFFFFFFFFFFFFFFFFFFF AND DUP2 MSTORE PUSH1 0x20 ADD SWAP1 DUP2 MSTORE PUSH1 0x20 ADD PUSH0 KECCAK256 DUP2 SWAP1 DUP1 PUSH1 0x1 DUP2 SLOAD ADD DUP1 DUP3 SSTORE DUP1 SWAP2 POP POP PUSH1 0x1 SWAP1 SUB SWAP1 PUSH0 MSTORE PUSH1 0x20 PUSH0 KECCAK256 ADD PUSH0 SWAP1 SWAP2 SWAP1 SWAP2 SWAP1 SWAP2 POP SWAP1 DUP2 PUSH2 0x142 SWAP2 SWAP1 PUSH2 0xA9C JUMP JUMPDEST POP POP JUMP JUMPDEST PUSH0 DUP1 CALLER PUSH20 0xFFFFFFFFFFFFFFFFFFFFFFFFFFFFFFFFFFFFFFFF AND PUSH20 0xFFFFFFFFFFFFFFFFFFFFFFFFFFFFFFFFFFFFFFFF AND DUP2 MSTORE PUSH1 0x20 ADD SWAP1 DUP2 MSTORE PUSH1 0x20 ADD PUSH0 KECCAK256 DUP1 SLOAD DUP1 PUSH2 0x192 JUMPI PUSH2 0x191 PUSH2 0xB6B JUMP JUMPDEST JUMPDEST PUSH1 0x1 SWAP1 SUB DUP2 DUP2 SWAP1 PUSH0 MSTORE PUSH1 0x20 PUSH0 KECCAK256 ADD PUSH0 PUSH2 0x1AB SWAP2 SWAP1 PUSH2 0x3ED JUMP JUMPDEST SWAP1 SSTORE JUMP JUMPDEST PUSH0 DUP1 CALLER PUSH20 0xFFFFFFFFFFFFFFFFFFFFFFFFFFFFFFFFFFFFFFFF AND PUSH20 0xFFFFFFFFFFFFFFFFFFFFFFFFFFFFFFFFFFFFFFFF AND DUP2 MSTORE PUSH1 0x20 ADD SWAP1 DUP2 MSTORE PUSH1 0x20 ADD PUSH0 KECCAK256 PUSH0 PUSH2 0x1F6 SWAP2 SWAP1 PUSH2 0x42A JUMP JUMPDEST JUMP JUMPDEST PUSH1 0x60 PUSH0 DUP1 CALLER PUSH20 0xFFFFFFFFFFFFFFFFFFFFFFFFFFFFFFFFFFFFFFFF AND PUSH20 0xFFFFFFFFFFFFFFFFFFFFFFFFFFFFFFFFFFFFFFFF AND DUP2 MSTORE PUSH1 0x20 ADD SWAP1 DUP2 MSTORE PUSH1 0x20 ADD PUSH0 KECCAK256 DUP1 SLOAD DUP1 PUSH1 0x20 MUL PUSH1 0x20 ADD PUSH1 0x40 MLOAD SWAP1 DUP2 ADD PUSH1 0x40 MSTORE DUP1 SWAP3 SWAP2 SWAP1 DUP2 DUP2 MSTORE PUSH1 0x20 ADD PUSH0 SWAP1 JUMPDEST DUP3 DUP3 LT ISZERO PUSH2 0x2FD JUMPI DUP4 DUP3 SWAP1 PUSH0 MSTORE PUSH1 0x20 PUSH0 KECCAK256 ADD DUP1 SLOAD PUSH2 0x272 SWAP1 PUSH2 0x8CF JUMP JUMPDEST DUP1 PUSH1 0x1F ADD PUSH1 0x20 DUP1 SWAP2 DIV MUL PUSH1 0x20 ADD PUSH1 0x40 MLOAD SWAP1 DUP2 ADD PUSH1 0x40 MSTORE DUP1 SWAP3 SWAP2 SWAP1 DUP2 DUP2 MSTORE PUSH1 0x20 ADD DUP3 DUP1 SLOAD PUSH2 0x29E SWAP1 PUSH2 0x8CF JUMP JUMPDEST DUP1 ISZERO PUSH2 0x2E9 JUMPI DUP1 PUSH1 0x1F LT PUSH2 0x2C0 JUMPI PUSH2 0x100 DUP1 DUP4 SLOAD DIV MUL DUP4 MSTORE SWAP2 PUSH1 0x20 ADD SWAP2 PUSH2 0x2E9 JUMP JUMPDEST DUP3 ADD SWAP2 SWAP1 PUSH0 MSTORE PUSH1 0x20 PUSH0 KECCAK256 SWAP1 JUMPDEST DUP2 SLOAD DUP2 MSTORE SWAP1 PUSH1 0x1 ADD SWAP1 PUSH1 0x20 ADD DUP1 DUP4 GT PUSH2 0x2CC JUMPI DUP3 SWAP1 SUB PUSH1 0x1F AND DUP3 ADD SWAP2 JUMPDEST POP POP POP POP POP DUP2 MSTORE PUSH1 0x20 ADD SWAP1 PUSH1 0x1 ADD SWAP1 PUSH2 0x255 JUMP JUMPDEST POP POP POP POP SWAP1 POP SWAP1 JUMP JUMPDEST PUSH1 0x60 PUSH0 DUP1 DUP5 PUSH20 0xFFFFFFFFFFFFFFFFFFFFFFFFFFFFFFFFFFFFFFFF AND PUSH20 0xFFFFFFFFFFFFFFFFFFFFFFFFFFFFFFFFFFFFFFFF AND DUP2 MSTORE PUSH1 0x20 ADD SWAP1 DUP2 MSTORE PUSH1 0x20 ADD PUSH0 KECCAK256 DUP3 DUP2 SLOAD DUP2 LT PUSH2 0x356 JUMPI PUSH2 0x355 PUSH2 0xB98 JUMP JUMPDEST JUMPDEST SWAP1 PUSH0 MSTORE PUSH1 0x20 PUSH0 KECCAK256 ADD DUP1 SLOAD PUSH2 0x369 SWAP1 PUSH2 0x8CF JUMP JUMPDEST DUP1 PUSH1 0x1F ADD PUSH1 0x20 DUP1 SWAP2 DIV MUL PUSH1 0x20 ADD PUSH1 0x40 MLOAD SWAP1 DUP2 ADD PUSH1 0x40 MSTORE DUP1 SWAP3 SWAP2 SWAP1 DUP2 DUP2 MSTORE PUSH1 0x20 ADD DUP3 DUP1 SLOAD PUSH2 0x395 SWAP1 PUSH2 0x8CF JUMP JUMPDEST DUP1 ISZERO PUSH2 0x3E0 JUMPI DUP1 PUSH1 0x1F LT PUSH2 0x3B7 JUMPI PUSH2 0x100 DUP1 DUP4 SLOAD DIV MUL DUP4 MSTORE SWAP2 PUSH1 0x20 ADD SWAP2 PUSH2 0x3E0 JUMP JUMPDEST DUP3 ADD SWAP2 SWAP1 PUSH0 MSTORE PUSH1 0x20 PUSH0 KECCAK256 SWAP1 JUMPDEST DUP2 SLOAD DUP2 MSTORE SWAP1 PUSH1 0x1 ADD SWAP1 PUSH1 0x20 ADD DUP1 DUP4 GT PUSH2 0x3C3 JUMPI DUP3 SWAP1 SUB PUSH1 0x1F AND DUP3 ADD SWAP2 JUMPDEST POP POP POP POP POP SWAP1 POP SWAP3 SWAP2 POP POP JUMP JUMPDEST POP DUP1 SLOAD PUSH2 0x3F9 SWAP1 PUSH2 0x8CF JUMP JUMPDEST PUSH0 DUP3 SSTORE DUP1 PUSH1 0x1F LT PUSH2 0x40A JUMPI POP PUSH2 0x427 JUMP JUMPDEST PUSH1 0x1F ADD PUSH1 0x20 SWAP1 DIV SWAP1 PUSH0 MSTORE PUSH1 0x20 PUSH0 KECCAK256 SWAP1 DUP2 ADD SWAP1 PUSH2 0x426 SWAP2 SWAP1 PUSH2 0x448 JUMP JUMPDEST JUMPDEST POP JUMP JUMPDEST POP DUP1 SLOAD PUSH0 DUP3 SSTORE SWAP1 PUSH0 MSTORE PUSH1 0x20 PUSH0 KECCAK256 SWAP1 DUP2 ADD SWAP1 PUSH2 0x445 SWAP2 SWAP1 PUSH2 0x463 JUMP JUMPDEST POP JUMP JUMPDEST JUMPDEST DUP1 DUP3 GT ISZERO PUSH2 0x45F JUMPI PUSH0 DUP2 PUSH0 SWAP1 SSTORE POP PUSH1 0x1 ADD PUSH2 0x449 JUMP JUMPDEST POP SWAP1 JUMP JUMPDEST JUMPDEST DUP1 DUP3 GT ISZERO PUSH2 0x482 JUMPI PUSH0 DUP2 DUP2 PUSH2 0x479 SWAP2 SWAP1 PUSH2 0x3ED JUMP JUMPDEST POP PUSH1 0x1 ADD PUSH2 0x464 JUMP JUMPDEST POP SWAP1 JUMP JUMPDEST PUSH0 PUSH1 0x40 MLOAD SWAP1 POP SWAP1 JUMP JUMPDEST PUSH0 DUP1 REVERT JUMPDEST PUSH0 DUP1 REVERT JUMPDEST PUSH0 DUP1 REVERT JUMPDEST PUSH0 DUP1 REVERT JUMPDEST PUSH0 PUSH1 0x1F NOT PUSH1 0x1F DUP4 ADD AND SWAP1 POP SWAP2 SWAP1 POP JUMP JUMPDEST PUSH32 0x4E487B7100000000000000000000000000000000000000000000000000000000 PUSH0 MSTORE PUSH1 0x41 PUSH1 0x4 MSTORE PUSH1 0x24 PUSH0 REVERT JUMPDEST PUSH2 0x4E5 DUP3 PUSH2 0x49F JUMP JUMPDEST DUP2 ADD DUP2 DUP2 LT PUSH8 0xFFFFFFFFFFFFFFFF DUP3 GT OR ISZERO PUSH2 0x504 JUMPI PUSH2 0x503 PUSH2 0x4AF JUMP JUMPDEST JUMPDEST DUP1 PUSH1 0x40 MSTORE POP POP POP JUMP JUMPDEST PUSH0 PUSH2 0x516 PUSH2 0x486 JUMP JUMPDEST SWAP1 POP PUSH2 0x522 DUP3 DUP3 PUSH2 0x4DC JUMP JUMPDEST SWAP2 SWAP1 POP JUMP JUMPDEST PUSH0 PUSH8 0xFFFFFFFFFFFFFFFF DUP3 GT ISZERO PUSH2 0x541 JUMPI PUSH2 0x540 PUSH2 0x4AF JUMP JUMPDEST JUMPDEST PUSH2 0x54A DUP3 PUSH2 0x49F JUMP JUMPDEST SWAP1 POP PUSH1 0x20 DUP2 ADD SWAP1 POP SWAP2 SWAP1 POP JUMP JUMPDEST DUP3 DUP2 DUP4 CALLDATACOPY PUSH0 DUP4 DUP4 ADD MSTORE POP POP POP JUMP JUMPDEST PUSH0 PUSH2 0x577 PUSH2 0x572 DUP5 PUSH2 0x527 JUMP JUMPDEST PUSH2 0x50D JUMP JUMPDEST SWAP1 POP DUP3 DUP2 MSTORE PUSH1 0x20 DUP2 ADD DUP5 DUP5 DUP5 ADD GT ISZERO PUSH2 0x593 JUMPI PUSH2 0x592 PUSH2 0x49B JUMP JUMPDEST JUMPDEST PUSH2 0x59E DUP5 DUP3 DUP6 PUSH2 0x557 JUMP JUMPDEST POP SWAP4 SWAP3 POP POP POP JUMP JUMPDEST PUSH0 DUP3 PUSH1 0x1F DUP4 ADD SLT PUSH2 0x5BA JUMPI PUSH2 0x5B9 PUSH2 0x497 JUMP JUMPDEST JUMPDEST DUP2 CALLDATALOAD PUSH2 0x5CA DUP5 DUP3 PUSH1 0x20 DUP7 ADD PUSH2 0x565 JUMP JUMPDEST SWAP2 POP POP SWAP3 SWAP2 POP POP JUMP JUMPDEST PUSH0 PUSH1 0x20 DUP3 DUP5 SUB SLT ISZERO PUSH2 0x5E8 JUMPI PUSH2 0x5E7 PUSH2 0x48F JUMP JUMPDEST JUMPDEST PUSH0 DUP3 ADD CALLDATALOAD PUSH8 0xFFFFFFFFFFFFFFFF DUP2 GT ISZERO PUSH2 0x605 JUMPI PUSH2 0x604 PUSH2 0x493 JUMP JUMPDEST JUMPDEST PUSH2 0x611 DUP5 DUP3 DUP6 ADD PUSH2 0x5A6 JUMP JUMPDEST SWAP2 POP POP SWAP3 SWAP2 POP POP JUMP JUMPDEST PUSH0 DUP2 MLOAD SWAP1 POP SWAP2 SWAP1 POP JUMP JUMPDEST PUSH0 DUP3 DUP3 MSTORE PUSH1 0x20 DUP3 ADD SWAP1 POP SWAP3 SWAP2 POP POP JUMP JUMPDEST PUSH0 DUP2 SWAP1 POP PUSH1 0x20 DUP3 ADD SWAP1 POP SWAP2 SWAP1 POP JUMP JUMPDEST PUSH0 DUP2 MLOAD SWAP1 POP SWAP2 SWAP1 POP JUMP JUMPDEST PUSH0 DUP3 DUP3 MSTORE PUSH1 0x20 DUP3 ADD SWAP1 POP SWAP3 SWAP2 POP POP JUMP JUMPDEST PUSH0 JUMPDEST DUP4 DUP2 LT ISZERO PUSH2 0x67A JUMPI DUP1 DUP3 ADD MLOAD DUP2 DUP5 ADD MSTORE PUSH1 0x20 DUP2 ADD SWAP1 POP PUSH2 0x65F JUMP JUMPDEST PUSH0 DUP5 DUP5 ADD MSTORE POP POP POP POP JUMP JUMPDEST PUSH0 PUSH2 0x68F DUP3 PUSH2 0x643 JUMP JUMPDEST PUSH2 0x699 DUP2 DUP6 PUSH2 0x64D JUMP JUMPDEST SWAP4 POP PUSH2 0x6A9 DUP2 DUP6 PUSH1 0x20 DUP7 ADD PUSH2 0x65D JUMP JUMPDEST PUSH2 0x6B2 DUP2 PUSH2 0x49F JUMP JUMPDEST DUP5 ADD SWAP2 POP POP SWAP3 SWAP2 POP POP JUMP JUMPDEST PUSH0 PUSH2 0x6C8 DUP4 DUP4 PUSH2 0x685 JUMP JUMPDEST SWAP1 POP SWAP3 SWAP2 POP POP JUMP JUMPDEST PUSH0 PUSH1 0x20 DUP3 ADD SWAP1 POP SWAP2 SWAP1 POP JUMP JUMPDEST PUSH0 PUSH2 0x6E6 DUP3 PUSH2 0x61A JUMP JUMPDEST PUSH2 0x6F0 DUP2 DUP6 PUSH2 0x624 JUMP JUMPDEST SWAP4 POP DUP4 PUSH1 0x20 DUP3 MUL DUP6 ADD PUSH2 0x702 DUP6 PUSH2 0x634 JUMP JUMPDEST DUP1 PUSH0 JUMPDEST DUP6 DUP2 LT ISZERO PUSH2 0x73D JUMPI DUP5 DUP5 SUB DUP10 MSTORE DUP2 MLOAD PUSH2 0x71E DUP6 DUP3 PUSH2 0x6BD JUMP JUMPDEST SWAP5 POP PUSH2 0x729 DUP4 PUSH2 0x6D0 JUMP JUMPDEST SWAP3 POP PUSH1 0x20 DUP11 ADD SWAP10 POP POP PUSH1 0x1 DUP2 ADD SWAP1 POP PUSH2 0x705 JUMP JUMPDEST POP DUP3 SWAP8 POP DUP8 SWAP6 POP POP POP POP POP POP SWAP3 SWAP2 POP POP JUMP JUMPDEST PUSH0 PUSH1 0x20 DUP3 ADD SWAP1 POP DUP2 DUP2 SUB PUSH0 DUP4 ADD MSTORE PUSH2 0x767 DUP2 DUP5 PUSH2 0x6DC JUMP JUMPDEST SWAP1 POP SWAP3 SWAP2 POP POP JUMP JUMPDEST PUSH0 PUSH20 0xFFFFFFFFFFFFFFFFFFFFFFFFFFFFFFFFFFFFFFFF DUP3 AND SWAP1 POP SWAP2 SWAP1 POP JUMP JUMPDEST PUSH0 PUSH2 0x798 DUP3 PUSH2 0x76F JUMP JUMPDEST SWAP1 POP SWAP2 SWAP1 POP JUMP JUMPDEST PUSH2 0x7A8 DUP2 PUSH2 0x78E JUMP JUMPDEST DUP2 EQ PUSH2 0x7B2 JUMPI PUSH0 DUP1 REVERT JUMPDEST POP JUMP JUMPDEST PUSH0 DUP2 CALLDATALOAD SWAP1 POP PUSH2 0x7C3 DUP2 PUSH2 0x79F JUMP JUMPDEST SWAP3 SWAP2 POP POP JUMP JUMPDEST PUSH0 DUP2 SWAP1 POP SWAP2 SWAP1 POP JUMP JUMPDEST PUSH2 0x7DB DUP2 PUSH2 0x7C9 JUMP JUMPDEST DUP2 EQ PUSH2 0x7E5 JUMPI PUSH0 DUP1 REVERT JUMPDEST POP JUMP JUMPDEST PUSH0 DUP2 CALLDATALOAD SWAP1 POP PUSH2 0x7F6 DUP2 PUSH2 0x7D2 JUMP JUMPDEST SWAP3 SWAP2 POP POP JUMP JUMPDEST PUSH0 DUP1 PUSH1 0x40 DUP4 DUP6 SUB SLT ISZERO PUSH2 0x812 JUMPI PUSH2 0x811 PUSH2 0x48F JUMP JUMPDEST JUMPDEST PUSH0 PUSH2 0x81F DUP6 DUP3 DUP7 ADD PUSH2 0x7B5 JUMP JUMPDEST SWAP3 POP POP PUSH1 0x20 PUSH2 0x830 DUP6 DUP3 DUP7 ADD PUSH2 0x7E8 JUMP JUMPDEST SWAP2 POP POP SWAP3 POP SWAP3 SWAP1 POP JUMP JUMPDEST PUSH0 DUP3 DUP3 MSTORE PUSH1 0x20 DUP3 ADD SWAP1 POP SWAP3 SWAP2 POP POP JUMP JUMPDEST PUSH0 PUSH2 0x854 DUP3 PUSH2 0x643 JUMP JUMPDEST PUSH2 0x85E DUP2 DUP6 PUSH2 0x83A JUMP JUMPDEST SWAP4 POP PUSH2 0x86E DUP2 DUP6 PUSH1 0x20 DUP7 ADD PUSH2 0x65D JUMP JUMPDEST PUSH2 0x877 DUP2 PUSH2 0x49F JUMP JUMPDEST DUP5 ADD SWAP2 POP POP SWAP3 SWAP2 POP POP JUMP JUMPDEST PUSH0 PUSH1 0x20 DUP3 ADD SWAP1 POP DUP2 DUP2 SUB PUSH0 DUP4 ADD MSTORE PUSH2 0x89A DUP2 DUP5 PUSH2 0x84A JUMP JUMPDEST SWAP1 POP SWAP3 SWAP2 POP POP JUMP JUMPDEST PUSH32 0x4E487B7100000000000000000000000000000000000000000000000000000000 PUSH0 MSTORE PUSH1 0x22 PUSH1 0x4 MSTORE PUSH1 0x24 PUSH0 REVERT JUMPDEST PUSH0 PUSH1 0x2 DUP3 DIV SWAP1 POP PUSH1 0x1 DUP3 AND DUP1 PUSH2 0x8E6 JUMPI PUSH1 0x7F DUP3 AND SWAP2 POP JUMPDEST PUSH1 0x20 DUP3 LT DUP2 SUB PUSH2 0x8F9 JUMPI PUSH2 0x8F8 PUSH2 0x8A2 JUMP JUMPDEST JUMPDEST POP SWAP2 SWAP1 POP JUMP JUMPDEST PUSH0 DUP2 SWAP1 POP DUP2 PUSH0 MSTORE PUSH1 0x20 PUSH0 KECCAK256 SWAP1 POP SWAP2 SWAP1 POP JUMP JUMPDEST PUSH0 PUSH1 0x20 PUSH1 0x1F DUP4 ADD DIV SWAP1 POP SWAP2 SWAP1 POP JUMP JUMPDEST PUSH0 DUP3 DUP3 SHL SWAP1 POP SWAP3 SWAP2 POP POP JUMP JUMPDEST PUSH0 PUSH1 0x8 DUP4 MUL PUSH2 0x95B PUSH32 0xFFFFFFFFFFFFFFFFFFFFFFFFFFFFFFFFFFFFFFFFFFFFFFFFFFFFFFFFFFFFFFFF DUP3 PUSH2 0x920 JUMP JUMPDEST PUSH2 0x965 DUP7 DUP4 PUSH2 0x920 JUMP JUMPDEST SWAP6 POP DUP1 NOT DUP5 AND SWAP4 POP DUP1 DUP7 AND DUP5 OR SWAP3 POP POP POP SWAP4 SWAP3 POP POP POP JUMP JUMPDEST PUSH0 DUP2 SWAP1 POP SWAP2 SWAP1 POP JUMP JUMPDEST PUSH0 PUSH2 0x9A0 PUSH2 0x99B PUSH2 0x996 DUP5 PUSH2 0x7C9 JUMP JUMPDEST PUSH2 0x97D JUMP JUMPDEST PUSH2 0x7C9 JUMP JUMPDEST SWAP1 POP SWAP2 SWAP1 POP JUMP JUMPDEST PUSH0 DUP2 SWAP1 POP SWAP2 SWAP1 POP JUMP JUMPDEST PUSH2 0x9B9 DUP4 PUSH2 0x986 JUMP JUMPDEST PUSH2 0x9CD PUSH2 0x9C5 DUP3 PUSH2 0x9A7 JUMP JUMPDEST DUP5 DUP5 SLOAD PUSH2 0x92C JUMP JUMPDEST DUP3 SSTORE POP POP POP POP JUMP JUMPDEST PUSH0 SWAP1 JUMP JUMPDEST PUSH2 0x9E1 PUSH2 0x9D5 JUMP JUMPDEST PUSH2 0x9EC DUP2 DUP5 DUP5 PUSH2 0x9B0 JUMP JUMPDEST POP POP POP JUMP JUMPDEST JUMPDEST DUP2 DUP2 LT ISZERO PUSH2 0xA0F JUMPI PUSH2 0xA04 PUSH0 DUP3 PUSH2 0x9D9 JUMP JUMPDEST PUSH1 0x1 DUP2 ADD SWAP1 POP PUSH2 0x9F2 JUMP JUMPDEST POP POP JUMP JUMPDEST PUSH1 0x1F DUP3 GT ISZERO PUSH2 0xA54 JUMPI PUSH2 0xA25 DUP2 PUSH2 0x8FF JUMP JUMPDEST PUSH2 0xA2E DUP5 PUSH2 0x911 JUMP JUMPDEST DUP2 ADD PUSH1 0x20 DUP6 LT ISZERO PUSH2 0xA3D JUMPI DUP2 SWAP1 POP JUMPDEST PUSH2 0xA51 PUSH2 0xA49 DUP6 PUSH2 0x911 JUMP JUMPDEST DUP4 ADD DUP3 PUSH2 0x9F1 JUMP JUMPDEST POP POP JUMPDEST POP POP POP JUMP JUMPDEST PUSH0 DUP3 DUP3 SHR SWAP1 POP SWAP3 SWAP2 POP POP JUMP JUMPDEST PUSH0 PUSH2 0xA74 PUSH0 NOT DUP5 PUSH1 0x8 MUL PUSH2 0xA59 JUMP JUMPDEST NOT DUP1 DUP4 AND SWAP2 POP POP SWAP3 SWAP2 POP POP JUMP JUMPDEST PUSH0 PUSH2 0xA8C DUP4 DUP4 PUSH2 0xA65 JUMP JUMPDEST SWAP2 POP DUP3 PUSH1 0x2 MUL DUP3 OR SWAP1 POP SWAP3 SWAP2 POP POP JUMP JUMPDEST PUSH2 0xAA5 DUP3 PUSH2 0x643 JUMP JUMPDEST PUSH8 0xFFFFFFFFFFFFFFFF DUP2 GT ISZERO PUSH2 0xABE JUMPI PUSH2 0xABD PUSH2 0x4AF JUMP JUMPDEST JUMPDEST PUSH2 0xAC8 DUP3 SLOAD PUSH2 0x8CF JUMP JUMPDEST PUSH2 0xAD3 DUP3 DUP3 DUP6 PUSH2 0xA13 JUMP JUMPDEST PUSH0 PUSH1 0x20 SWAP1 POP PUSH1 0x1F DUP4 GT PUSH1 0x1 DUP2 EQ PUSH2 0xB04 JUMPI PUSH0 DUP5 ISZERO PUSH2 0xAF2 JUMPI DUP3 DUP8 ADD MLOAD SWAP1 POP JUMPDEST PUSH2 0xAFC DUP6 DUP3 PUSH2 0xA81 JUMP JUMPDEST DUP7 SSTORE POP PUSH2 0xB63 JUMP JUMPDEST PUSH1 0x1F NOT DUP5 AND PUSH2 0xB12 DUP7 PUSH2 0x8FF JUMP JUMPDEST PUSH0 JUMPDEST DUP3 DUP2 LT ISZERO PUSH2 0xB39 JUMPI DUP5 DUP10 ADD MLOAD DUP3 SSTORE PUSH1 0x1 DUP3 ADD SWAP2 POP PUSH1 0x20 DUP6 ADD SWAP5 POP PUSH1 0x20 DUP2 ADD SWAP1 POP PUSH2 0xB14 JUMP JUMPDEST DUP7 DUP4 LT ISZERO PUSH2 0xB56 JUMPI DUP5 DUP10 ADD MLOAD PUSH2 0xB52 PUSH1 0x1F DUP10 AND DUP3 PUSH2 0xA65 JUMP JUMPDEST DUP4 SSTORE POP JUMPDEST PUSH1 0x1 PUSH1 0x2 DUP9 MUL ADD DUP9 SSTORE POP POP POP JUMPDEST POP POP POP POP POP POP JUMP JUMPDEST PUSH32 0x4E487B7100000000000000000000000000000000000000000000000000000000 PUSH0 MSTORE PUSH1 0x31 PUSH1 0x4 MSTORE PUSH1 0x24 PUSH0 REVERT JUMPDEST PUSH32 0x4E487B7100000000000000000000000000000000000000000000000000000000 PUSH0 MSTORE PUSH1 0x32 PUSH1 0x4 MSTORE PUSH1 0x24 PUSH0 REVERT INVALID LOG2 PUSH5 0x6970667358 0x22 SLT KECCAK256 0xC8 0xA8 PUSH32 0x5802F658CDFDBA00C9EBBA24ABE45378E46FB80A45B868824D2FA80F5B64736F PUSH13 0x63430008170033000000000000 "
				},
				"gasEstimates": {
					"creation": {
						"codeDepositCost": "613400",
						"executionCost": "643",
						"totalCost": "614043"
					},
					"external": {
						"CreateTweet(string)": "infinite",
						"DeleteMyTweets()": "infinite",
						"DeleteRecentTweet()": "infinite",
						"GetTweetByInd(address,uint256)": "infinite",
						"ShowMyTweets()": "infinite"
					}
				},
				"methodIdentifiers": {
					"CreateTweet(string)": "2a1f1d06",
					"DeleteMyTweets()": "8a4dd9e0",
					"DeleteRecentTweet()": "71e7eb12",
					"GetTweetByInd(address,uint256)": "f67d225f",
					"ShowMyTweets()": "cf7d628a"
				}
			},
			"storageLayout": {
				"storage": [
					{
						"astId": 6,
						"contract": "contracts/Twitter0.1v.sol:Twitter",
						"label": "Tweet",
						"offset": 0,
						"slot": "0",
						"type": "t_mapping(t_address,t_array(t_string_storage)dyn_storage)"
					}
				],
				"types": {
					"t_address": {
						"encoding": "inplace",
						"label": "address",
						"numberOfBytes": "20"
					},
					"t_array(t_string_storage)dyn_storage": {
						"base": "t_string_storage",
						"encoding": "dynamic_array",
						"label": "string[]",
						"numberOfBytes": "32"
					},
					"t_mapping(t_address,t_array(t_string_storage)dyn_storage)": {
						"encoding": "mapping",
						"key": "t_address",
						"label": "mapping(address => string[])",
						"numberOfBytes": "32",
						"value": "t_array(t_string_storage)dyn_storage"
					},
					"t_string_storage": {
						"encoding": "bytes",
						"label": "string",
						"numberOfBytes": "32"
					}
				}
			},
			"userdoc": {
				"kind": "user",
				"methods": {},
				"version": 1
			}
		}
	}
}