{
	"contracts/Twitter0.4v.sol": {
		"Twitter": {
			"abi": [
				{
					"inputs": [],
					"stateMutability": "nonpayable",
					"type": "constructor"
				},
				{
					"inputs": [
						{
							"internalType": "uint256",
							"name": "newTweetLen",
							"type": "uint256"
						}
					],
					"name": "ChangeTweetLength",
					"outputs": [],
					"stateMutability": "nonpayable",
					"type": "function"
				},
				{
					"inputs": [],
					"name": "DeleteAllTweets",
					"outputs": [],
					"stateMutability": "nonpayable",
					"type": "function"
				},
				{
					"inputs": [],
					"name": "DeleteRecentTweet",
					"outputs": [],
					"stateMutability": "nonpayable",
					"type": "function"
				},
				{
					"inputs": [],
					"name": "GetAllTweets",
					"outputs": [
						{
							"components": [
								{
									"internalType": "string",
									"name": "content",
									"type": "string"
								},
								{
									"internalType": "address",
									"name": "author",
									"type": "address"
								},
								{
									"internalType": "uint256",
									"name": "timestamp",
									"type": "uint256"
								},
								{
									"internalType": "address[]",
									"name": "likes",
									"type": "address[]"
								},
								{
									"internalType": "uint256",
									"name": "LikesCount",
									"type": "uint256"
								}
							],
							"internalType": "struct Twitter.Tweet[]",
							"name": "",
							"type": "tuple[]"
						}
					],
					"stateMutability": "view",
					"type": "function"
				},
				{
					"inputs": [
						{
							"internalType": "address",
							"name": "User",
							"type": "address"
						},
						{
							"internalType": "uint256",
							"name": "Index",
							"type": "uint256"
						}
					],
					"name": "GetTweet",
					"outputs": [
						{
							"components": [
								{
									"internalType": "string",
									"name": "content",
									"type": "string"
								},
								{
									"internalType": "address",
									"name": "author",
									"type": "address"
								},
								{
									"internalType": "uint256",
									"name": "timestamp",
									"type": "uint256"
								},
								{
									"internalType": "address[]",
									"name": "likes",
									"type": "address[]"
								},
								{
									"internalType": "uint256",
									"name": "LikesCount",
									"type": "uint256"
								}
							],
							"internalType": "struct Twitter.Tweet",
							"name": "",
							"type": "tuple"
						}
					],
					"stateMutability": "view",
					"type": "function"
				},
				{
					"inputs": [
						{
							"internalType": "address",
							"name": "User",
							"type": "address"
						},
						{
							"internalType": "uint256",
							"name": "TweetIndex",
							"type": "uint256"
						}
					],
					"name": "GiveLikes",
					"outputs": [],
					"stateMutability": "nonpayable",
					"type": "function"
				},
				{
					"inputs": [
						{
							"internalType": "string",
							"name": "_tweet",
							"type": "string"
						}
					],
					"name": "createTweet",
					"outputs": [],
					"stateMutability": "nonpayable",
					"type": "function"
				}
			],
			"devdoc": {
				"kind": "dev",
				"methods": {},
				"version": 1
			},
			"evm": {
				"assembly": "    /* \"contracts/Twitter0.4v.sol\":367:2540  contract Twitter... */\n  mstore(0x40, 0x80)\n    /* \"contracts/Twitter0.4v.sol\":693:695  10 */\n  0x0a\n    /* \"contracts/Twitter0.4v.sol\":671:695  uint256 TweetLength = 10 */\n  0x01\n  sstore\n    /* \"contracts/Twitter0.4v.sol\":607:663  constructor()... */\n  callvalue\n  dup1\n  iszero\n  tag_1\n  jumpi\n  0x00\n  dup1\n  revert\ntag_1:\n  pop\n    /* \"contracts/Twitter0.4v.sol\":645:655  msg.sender */\n  caller\n    /* \"contracts/Twitter0.4v.sol\":637:642  owner */\n  0x00\n  dup1\n    /* \"contracts/Twitter0.4v.sol\":637:655  owner = msg.sender */\n  0x0100\n  exp\n  dup2\n  sload\n  dup2\n  0xffffffffffffffffffffffffffffffffffffffff\n  mul\n  not\n  and\n  swap1\n  dup4\n  0xffffffffffffffffffffffffffffffffffffffff\n  and\n  mul\n  or\n  swap1\n  sstore\n  pop\n    /* \"contracts/Twitter0.4v.sol\":367:2540  contract Twitter... */\n  dataSize(sub_0)\n  dup1\n  dataOffset(sub_0)\n  0x00\n  codecopy\n  0x00\n  return\nstop\n\nsub_0: assembly {\n        /* \"contracts/Twitter0.4v.sol\":367:2540  contract Twitter... */\n      mstore(0x40, 0x80)\n      callvalue\n      dup1\n      iszero\n      tag_1\n      jumpi\n      0x00\n      dup1\n      revert\n    tag_1:\n      pop\n      jumpi(tag_2, lt(calldatasize, 0x04))\n      shr(0xe0, calldataload(0x00))\n      dup1\n      0x71e7eb12\n      gt\n      tag_10\n      jumpi\n      dup1\n      0x71e7eb12\n      eq\n      tag_6\n      jumpi\n      dup1\n      0x765fab45\n      eq\n      tag_7\n      jumpi\n      dup1\n      0x7c9cd2bc\n      eq\n      tag_8\n      jumpi\n      dup1\n      0xe479c244\n      eq\n      tag_9\n      jumpi\n      jump(tag_2)\n    tag_10:\n      dup1\n      0x0362d52e\n      eq\n      tag_3\n      jumpi\n      dup1\n      0x37f36a4c\n      eq\n      tag_4\n      jumpi\n      dup1\n      0x42d7fbc0\n      eq\n      tag_5\n      jumpi\n    tag_2:\n      0x00\n      dup1\n      revert\n        /* \"contracts/Twitter0.4v.sol\":2339:2529  function GiveLikes(address User,uint256 TweetIndex)public ... */\n    tag_3:\n      tag_11\n      0x04\n      dup1\n      calldatasize\n      sub\n      dup2\n      add\n      swap1\n      tag_12\n      swap2\n      swap1\n      tag_13\n      jump\t// in\n    tag_12:\n      tag_14\n      jump\t// in\n    tag_11:\n      stop\n        /* \"contracts/Twitter0.4v.sol\":2014:2147  function GetTweet(address User,uint Index)public view returns (Tweet memory)... */\n    tag_4:\n      tag_15\n      0x04\n      dup1\n      calldatasize\n      sub\n      dup2\n      add\n      swap1\n      tag_16\n      swap2\n      swap1\n      tag_13\n      jump\t// in\n    tag_16:\n      tag_17\n      jump\t// in\n    tag_15:\n      mload(0x40)\n      tag_18\n      swap2\n      swap1\n      tag_19\n      jump\t// in\n    tag_18:\n      mload(0x40)\n      dup1\n      swap2\n      sub\n      swap1\n      return\n        /* \"contracts/Twitter0.4v.sol\":1893:2006  function GetAllTweets() public view returns(Tweet[] memory)... */\n    tag_5:\n      tag_20\n      tag_21\n      jump\t// in\n    tag_20:\n      mload(0x40)\n      tag_22\n      swap2\n      swap1\n      tag_23\n      jump\t// in\n    tag_22:\n      mload(0x40)\n      dup1\n      swap2\n      sub\n      swap1\n      return\n        /* \"contracts/Twitter0.4v.sol\":2155:2242  function DeleteRecentTweet()public... */\n    tag_6:\n      tag_24\n      tag_25\n      jump\t// in\n    tag_24:\n      stop\n        /* \"contracts/Twitter0.4v.sol\":2250:2331  function DeleteAllTweets()public {... */\n    tag_7:\n      tag_26\n      tag_27\n      jump\t// in\n    tag_26:\n      stop\n        /* \"contracts/Twitter0.4v.sol\":1016:1885  function createTweet(string memory _tweet) public {... */\n    tag_8:\n      tag_28\n      0x04\n      dup1\n      calldatasize\n      sub\n      dup2\n      add\n      swap1\n      tag_29\n      swap2\n      swap1\n      tag_30\n      jump\t// in\n    tag_29:\n      tag_31\n      jump\t// in\n    tag_28:\n      stop\n        /* \"contracts/Twitter0.4v.sol\":836:941  function ChangeTweetLength(uint256 newTweetLen)public isOwner{... */\n    tag_9:\n      tag_32\n      0x04\n      dup1\n      calldatasize\n      sub\n      dup2\n      add\n      swap1\n      tag_33\n      swap2\n      swap1\n      tag_34\n      jump\t// in\n    tag_33:\n      tag_35\n      jump\t// in\n    tag_32:\n      stop\n        /* \"contracts/Twitter0.4v.sol\":2339:2529  function GiveLikes(address User,uint256 TweetIndex)public ... */\n    tag_14:\n        /* \"contracts/Twitter0.4v.sol\":2414:2424  Tweet_info */\n      0x03\n        /* \"contracts/Twitter0.4v.sol\":2414:2430  Tweet_info[User] */\n      0x00\n        /* \"contracts/Twitter0.4v.sol\":2425:2429  User */\n      dup4\n        /* \"contracts/Twitter0.4v.sol\":2414:2430  Tweet_info[User] */\n      0xffffffffffffffffffffffffffffffffffffffff\n      and\n      0xffffffffffffffffffffffffffffffffffffffff\n      and\n      dup2\n      mstore\n      0x20\n      add\n      swap1\n      dup2\n      mstore\n      0x20\n      add\n      0x00\n      keccak256\n        /* \"contracts/Twitter0.4v.sol\":2442:2443  1 */\n      0x01\n        /* \"contracts/Twitter0.4v.sol\":2431:2441  TweetIndex */\n      dup3\n        /* \"contracts/Twitter0.4v.sol\":2431:2443  TweetIndex-1 */\n      tag_37\n      swap2\n      swap1\n      tag_38\n      jump\t// in\n    tag_37:\n        /* \"contracts/Twitter0.4v.sol\":2414:2444  Tweet_info[User][TweetIndex-1] */\n      dup2\n      sload\n      dup2\n      lt\n      tag_39\n      jumpi\n      tag_40\n      tag_41\n      jump\t// in\n    tag_40:\n    tag_39:\n      swap1\n      0x00\n      mstore\n      keccak256(0x00, 0x20)\n      swap1\n      0x05\n      mul\n      add\n        /* \"contracts/Twitter0.4v.sol\":2414:2450  Tweet_info[User][TweetIndex-1].likes */\n      0x03\n      add\n        /* \"contracts/Twitter0.4v.sol\":2456:2466  msg.sender */\n      caller\n        /* \"contracts/Twitter0.4v.sol\":2414:2467  Tweet_info[User][TweetIndex-1].likes.push(msg.sender) */\n      swap1\n      dup1\n      0x01\n      dup2\n      sload\n      add\n      dup1\n      dup3\n      sstore\n      dup1\n      swap2\n      pop\n      pop\n      0x01\n      swap1\n      sub\n      swap1\n      0x00\n      mstore\n      keccak256(0x00, 0x20)\n      add\n      0x00\n      swap1\n      swap2\n      swap1\n      swap2\n      swap1\n      swap2\n      0x0100\n      exp\n      dup2\n      sload\n      dup2\n      0xffffffffffffffffffffffffffffffffffffffff\n      mul\n      not\n      and\n      swap1\n      dup4\n      0xffffffffffffffffffffffffffffffffffffffff\n      and\n      mul\n      or\n      swap1\n      sstore\n      pop\n        /* \"contracts/Twitter0.4v.sol\":2478:2488  Tweet_info */\n      0x03\n        /* \"contracts/Twitter0.4v.sol\":2478:2494  Tweet_info[User] */\n      0x00\n        /* \"contracts/Twitter0.4v.sol\":2489:2493  User */\n      dup4\n        /* \"contracts/Twitter0.4v.sol\":2478:2494  Tweet_info[User] */\n      0xffffffffffffffffffffffffffffffffffffffff\n      and\n      0xffffffffffffffffffffffffffffffffffffffff\n      and\n      dup2\n      mstore\n      0x20\n      add\n      swap1\n      dup2\n      mstore\n      0x20\n      add\n      0x00\n      keccak256\n        /* \"contracts/Twitter0.4v.sol\":2506:2507  1 */\n      0x01\n        /* \"contracts/Twitter0.4v.sol\":2495:2505  TweetIndex */\n      dup3\n        /* \"contracts/Twitter0.4v.sol\":2495:2507  TweetIndex-1 */\n      tag_44\n      swap2\n      swap1\n      tag_38\n      jump\t// in\n    tag_44:\n        /* \"contracts/Twitter0.4v.sol\":2478:2508  Tweet_info[User][TweetIndex-1] */\n      dup2\n      sload\n      dup2\n      lt\n      tag_45\n      jumpi\n      tag_46\n      tag_41\n      jump\t// in\n    tag_46:\n    tag_45:\n      swap1\n      0x00\n      mstore\n      keccak256(0x00, 0x20)\n      swap1\n      0x05\n      mul\n      add\n        /* \"contracts/Twitter0.4v.sol\":2478:2519  Tweet_info[User][TweetIndex-1].LikesCount */\n      0x04\n      add\n      0x00\n        /* \"contracts/Twitter0.4v.sol\":2478:2521  Tweet_info[User][TweetIndex-1].LikesCount++ */\n      dup2\n      sload\n      dup1\n      swap3\n      swap2\n      swap1\n      tag_48\n      swap1\n      tag_49\n      jump\t// in\n    tag_48:\n      swap2\n      swap1\n      pop\n      sstore\n      pop\n        /* \"contracts/Twitter0.4v.sol\":2339:2529  function GiveLikes(address User,uint256 TweetIndex)public ... */\n      pop\n      pop\n      jump\t// out\n        /* \"contracts/Twitter0.4v.sol\":2014:2147  function GetTweet(address User,uint Index)public view returns (Tweet memory)... */\n    tag_17:\n        /* \"contracts/Twitter0.4v.sol\":2077:2089  Tweet memory */\n      tag_50\n      tag_51\n      jump\t// in\n    tag_50:\n        /* \"contracts/Twitter0.4v.sol\":2114:2124  Tweet_info */\n      0x03\n        /* \"contracts/Twitter0.4v.sol\":2114:2130  Tweet_info[User] */\n      0x00\n        /* \"contracts/Twitter0.4v.sol\":2125:2129  User */\n      dup5\n        /* \"contracts/Twitter0.4v.sol\":2114:2130  Tweet_info[User] */\n      0xffffffffffffffffffffffffffffffffffffffff\n      and\n      0xffffffffffffffffffffffffffffffffffffffff\n      and\n      dup2\n      mstore\n      0x20\n      add\n      swap1\n      dup2\n      mstore\n      0x20\n      add\n      0x00\n      keccak256\n        /* \"contracts/Twitter0.4v.sol\":2137:2138  1 */\n      0x01\n        /* \"contracts/Twitter0.4v.sol\":2131:2136  Index */\n      dup4\n        /* \"contracts/Twitter0.4v.sol\":2131:2138  Index-1 */\n      tag_53\n      swap2\n      swap1\n      tag_38\n      jump\t// in\n    tag_53:\n        /* \"contracts/Twitter0.4v.sol\":2114:2139  Tweet_info[User][Index-1] */\n      dup2\n      sload\n      dup2\n      lt\n      tag_54\n      jumpi\n      tag_55\n      tag_41\n      jump\t// in\n    tag_55:\n    tag_54:\n      swap1\n      0x00\n      mstore\n      keccak256(0x00, 0x20)\n      swap1\n      0x05\n      mul\n      add\n        /* \"contracts/Twitter0.4v.sol\":2107:2139  return Tweet_info[User][Index-1] */\n      mload(0x40)\n      dup1\n      0xa0\n      add\n      0x40\n      mstore\n      swap1\n      dup2\n      0x00\n      dup3\n      add\n      dup1\n      sload\n      tag_57\n      swap1\n      tag_58\n      jump\t// in\n    tag_57:\n      dup1\n      0x1f\n      add\n      0x20\n      dup1\n      swap2\n      div\n      mul\n      0x20\n      add\n      mload(0x40)\n      swap1\n      dup2\n      add\n      0x40\n      mstore\n      dup1\n      swap3\n      swap2\n      swap1\n      dup2\n      dup2\n      mstore\n      0x20\n      add\n      dup3\n      dup1\n      sload\n      tag_59\n      swap1\n      tag_58\n      jump\t// in\n    tag_59:\n      dup1\n      iszero\n      tag_60\n      jumpi\n      dup1\n      0x1f\n      lt\n      tag_61\n      jumpi\n      0x0100\n      dup1\n      dup4\n      sload\n      div\n      mul\n      dup4\n      mstore\n      swap2\n      0x20\n      add\n      swap2\n      jump(tag_60)\n    tag_61:\n      dup3\n      add\n      swap2\n      swap1\n      0x00\n      mstore\n      keccak256(0x00, 0x20)\n      swap1\n    tag_62:\n      dup2\n      sload\n      dup2\n      mstore\n      swap1\n      0x01\n      add\n      swap1\n      0x20\n      add\n      dup1\n      dup4\n      gt\n      tag_62\n      jumpi\n      dup3\n      swap1\n      sub\n      0x1f\n      and\n      dup3\n      add\n      swap2\n    tag_60:\n      pop\n      pop\n      pop\n      pop\n      pop\n      dup2\n      mstore\n      0x20\n      add\n      0x01\n      dup3\n      add\n      0x00\n      swap1\n      sload\n      swap1\n      0x0100\n      exp\n      swap1\n      div\n      0xffffffffffffffffffffffffffffffffffffffff\n      and\n      0xffffffffffffffffffffffffffffffffffffffff\n      and\n      0xffffffffffffffffffffffffffffffffffffffff\n      and\n      dup2\n      mstore\n      0x20\n      add\n      0x02\n      dup3\n      add\n      sload\n      dup2\n      mstore\n      0x20\n      add\n      0x03\n      dup3\n      add\n      dup1\n      sload\n      dup1\n      0x20\n      mul\n      0x20\n      add\n      mload(0x40)\n      swap1\n      dup2\n      add\n      0x40\n      mstore\n      dup1\n      swap3\n      swap2\n      swap1\n      dup2\n      dup2\n      mstore\n      0x20\n      add\n      dup3\n      dup1\n      sload\n      dup1\n      iszero\n      tag_63\n      jumpi\n      0x20\n      mul\n      dup3\n      add\n      swap2\n      swap1\n      0x00\n      mstore\n      keccak256(0x00, 0x20)\n      swap1\n    tag_64:\n      dup2\n      0x00\n      swap1\n      sload\n      swap1\n      0x0100\n      exp\n      swap1\n      div\n      0xffffffffffffffffffffffffffffffffffffffff\n      and\n      0xffffffffffffffffffffffffffffffffffffffff\n      and\n      dup2\n      mstore\n      0x20\n      add\n      swap1\n      0x01\n      add\n      swap1\n      dup1\n      dup4\n      gt\n      tag_64\n      jumpi\n    tag_63:\n      pop\n      pop\n      pop\n      pop\n      pop\n      dup2\n      mstore\n      0x20\n      add\n      0x04\n      dup3\n      add\n      sload\n      dup2\n      mstore\n      pop\n      pop\n      swap1\n      pop\n        /* \"contracts/Twitter0.4v.sol\":2014:2147  function GetTweet(address User,uint Index)public view returns (Tweet memory)... */\n      swap3\n      swap2\n      pop\n      pop\n      jump\t// out\n        /* \"contracts/Twitter0.4v.sol\":1893:2006  function GetAllTweets() public view returns(Tweet[] memory)... */\n    tag_21:\n        /* \"contracts/Twitter0.4v.sol\":1937:1951  Tweet[] memory */\n      0x60\n        /* \"contracts/Twitter0.4v.sol\":1976:1986  Tweet_info */\n      0x03\n        /* \"contracts/Twitter0.4v.sol\":1976:1998  Tweet_info[msg.sender] */\n      0x00\n        /* \"contracts/Twitter0.4v.sol\":1987:1997  msg.sender */\n      caller\n        /* \"contracts/Twitter0.4v.sol\":1976:1998  Tweet_info[msg.sender] */\n      0xffffffffffffffffffffffffffffffffffffffff\n      and\n      0xffffffffffffffffffffffffffffffffffffffff\n      and\n      dup2\n      mstore\n      0x20\n      add\n      swap1\n      dup2\n      mstore\n      0x20\n      add\n      0x00\n      keccak256\n        /* \"contracts/Twitter0.4v.sol\":1969:1998  return Tweet_info[msg.sender] */\n      dup1\n      sload\n      dup1\n      0x20\n      mul\n      0x20\n      add\n      mload(0x40)\n      swap1\n      dup2\n      add\n      0x40\n      mstore\n      dup1\n      swap3\n      swap2\n      swap1\n      dup2\n      dup2\n      mstore\n      0x20\n      add\n      0x00\n      swap1\n    tag_66:\n      dup3\n      dup3\n      lt\n      iszero\n      tag_67\n      jumpi\n      dup4\n      dup3\n      swap1\n      0x00\n      mstore\n      keccak256(0x00, 0x20)\n      swap1\n      0x05\n      mul\n      add\n      mload(0x40)\n      dup1\n      0xa0\n      add\n      0x40\n      mstore\n      swap1\n      dup2\n      0x00\n      dup3\n      add\n      dup1\n      sload\n      tag_69\n      swap1\n      tag_58\n      jump\t// in\n    tag_69:\n      dup1\n      0x1f\n      add\n      0x20\n      dup1\n      swap2\n      div\n      mul\n      0x20\n      add\n      mload(0x40)\n      swap1\n      dup2\n      add\n      0x40\n      mstore\n      dup1\n      swap3\n      swap2\n      swap1\n      dup2\n      dup2\n      mstore\n      0x20\n      add\n      dup3\n      dup1\n      sload\n      tag_70\n      swap1\n      tag_58\n      jump\t// in\n    tag_70:\n      dup1\n      iszero\n      tag_71\n      jumpi\n      dup1\n      0x1f\n      lt\n      tag_72\n      jumpi\n      0x0100\n      dup1\n      dup4\n      sload\n      div\n      mul\n      dup4\n      mstore\n      swap2\n      0x20\n      add\n      swap2\n      jump(tag_71)\n    tag_72:\n      dup3\n      add\n      swap2\n      swap1\n      0x00\n      mstore\n      keccak256(0x00, 0x20)\n      swap1\n    tag_73:\n      dup2\n      sload\n      dup2\n      mstore\n      swap1\n      0x01\n      add\n      swap1\n      0x20\n      add\n      dup1\n      dup4\n      gt\n      tag_73\n      jumpi\n      dup3\n      swap1\n      sub\n      0x1f\n      and\n      dup3\n      add\n      swap2\n    tag_71:\n      pop\n      pop\n      pop\n      pop\n      pop\n      dup2\n      mstore\n      0x20\n      add\n      0x01\n      dup3\n      add\n      0x00\n      swap1\n      sload\n      swap1\n      0x0100\n      exp\n      swap1\n      div\n      0xffffffffffffffffffffffffffffffffffffffff\n      and\n      0xffffffffffffffffffffffffffffffffffffffff\n      and\n      0xffffffffffffffffffffffffffffffffffffffff\n      and\n      dup2\n      mstore\n      0x20\n      add\n      0x02\n      dup3\n      add\n      sload\n      dup2\n      mstore\n      0x20\n      add\n      0x03\n      dup3\n      add\n      dup1\n      sload\n      dup1\n      0x20\n      mul\n      0x20\n      add\n      mload(0x40)\n      swap1\n      dup2\n      add\n      0x40\n      mstore\n      dup1\n      swap3\n      swap2\n      swap1\n      dup2\n      dup2\n      mstore\n      0x20\n      add\n      dup3\n      dup1\n      sload\n      dup1\n      iszero\n      tag_74\n      jumpi\n      0x20\n      mul\n      dup3\n      add\n      swap2\n      swap1\n      0x00\n      mstore\n      keccak256(0x00, 0x20)\n      swap1\n    tag_75:\n      dup2\n      0x00\n      swap1\n      sload\n      swap1\n      0x0100\n      exp\n      swap1\n      div\n      0xffffffffffffffffffffffffffffffffffffffff\n      and\n      0xffffffffffffffffffffffffffffffffffffffff\n      and\n      dup2\n      mstore\n      0x20\n      add\n      swap1\n      0x01\n      add\n      swap1\n      dup1\n      dup4\n      gt\n      tag_75\n      jumpi\n    tag_74:\n      pop\n      pop\n      pop\n      pop\n      pop\n      dup2\n      mstore\n      0x20\n      add\n      0x04\n      dup3\n      add\n      sload\n      dup2\n      mstore\n      pop\n      pop\n      dup2\n      mstore\n      0x20\n      add\n      swap1\n      0x01\n      add\n      swap1\n      jump(tag_66)\n    tag_67:\n      pop\n      pop\n      pop\n      pop\n      swap1\n      pop\n        /* \"contracts/Twitter0.4v.sol\":1893:2006  function GetAllTweets() public view returns(Tweet[] memory)... */\n      swap1\n      jump\t// out\n        /* \"contracts/Twitter0.4v.sol\":2155:2242  function DeleteRecentTweet()public... */\n    tag_25:\n        /* \"contracts/Twitter0.4v.sol\":2206:2216  Tweet_info */\n      0x03\n        /* \"contracts/Twitter0.4v.sol\":2206:2228  Tweet_info[msg.sender] */\n      0x00\n        /* \"contracts/Twitter0.4v.sol\":2217:2227  msg.sender */\n      caller\n        /* \"contracts/Twitter0.4v.sol\":2206:2228  Tweet_info[msg.sender] */\n      0xffffffffffffffffffffffffffffffffffffffff\n      and\n      0xffffffffffffffffffffffffffffffffffffffff\n      and\n      dup2\n      mstore\n      0x20\n      add\n      swap1\n      dup2\n      mstore\n      0x20\n      add\n      0x00\n      keccak256\n        /* \"contracts/Twitter0.4v.sol\":2206:2234  Tweet_info[msg.sender].pop() */\n      dup1\n      sload\n      dup1\n      tag_77\n      jumpi\n      tag_78\n      tag_79\n      jump\t// in\n    tag_78:\n    tag_77:\n      0x01\n      swap1\n      sub\n      dup2\n      dup2\n      swap1\n      0x00\n      mstore\n      keccak256(0x00, 0x20)\n      swap1\n      0x05\n      mul\n      add\n      0x00\n      dup1\n      dup3\n      add\n      0x00\n      tag_81\n      swap2\n      swap1\n      tag_82\n      jump\t// in\n    tag_81:\n      0x01\n      dup3\n      add\n      exp(0x0100, 0x00)\n      dup2\n      sload\n      swap1\n      0xffffffffffffffffffffffffffffffffffffffff\n      mul\n      not\n      and\n      swap1\n      sstore\n      0x02\n      dup3\n      add\n      0x00\n      swap1\n      sstore\n      0x03\n      dup3\n      add\n      0x00\n      tag_83\n      swap2\n      swap1\n      tag_84\n      jump\t// in\n    tag_83:\n      0x04\n      dup3\n      add\n      0x00\n      swap1\n      sstore\n      pop\n      pop\n      swap1\n      sstore\n        /* \"contracts/Twitter0.4v.sol\":2155:2242  function DeleteRecentTweet()public... */\n      jump\t// out\n        /* \"contracts/Twitter0.4v.sol\":2250:2331  function DeleteAllTweets()public {... */\n    tag_27:\n        /* \"contracts/Twitter0.4v.sol\":2301:2311  Tweet_info */\n      0x03\n        /* \"contracts/Twitter0.4v.sol\":2301:2323  Tweet_info[msg.sender] */\n      0x00\n        /* \"contracts/Twitter0.4v.sol\":2312:2322  msg.sender */\n      caller\n        /* \"contracts/Twitter0.4v.sol\":2301:2323  Tweet_info[msg.sender] */\n      0xffffffffffffffffffffffffffffffffffffffff\n      and\n      0xffffffffffffffffffffffffffffffffffffffff\n      and\n      dup2\n      mstore\n      0x20\n      add\n      swap1\n      dup2\n      mstore\n      0x20\n      add\n      0x00\n      keccak256\n      0x00\n        /* \"contracts/Twitter0.4v.sol\":2294:2323  delete Tweet_info[msg.sender] */\n      tag_86\n      swap2\n      swap1\n      tag_87\n      jump\t// in\n    tag_86:\n        /* \"contracts/Twitter0.4v.sol\":2250:2331  function DeleteAllTweets()public {... */\n      jump\t// out\n        /* \"contracts/Twitter0.4v.sol\":1016:1885  function createTweet(string memory _tweet) public {... */\n    tag_31:\n        /* \"contracts/Twitter0.4v.sol\":1582:1593  TweetLength */\n      sload(0x01)\n        /* \"contracts/Twitter0.4v.sol\":1564:1570  _tweet */\n      dup2\n        /* \"contracts/Twitter0.4v.sol\":1558:1578  bytes(_tweet).length */\n      mload\n        /* \"contracts/Twitter0.4v.sol\":1558:1593  bytes(_tweet).length <= TweetLength */\n      gt\n      iszero\n        /* \"contracts/Twitter0.4v.sol\":1550:1621  require(bytes(_tweet).length <= TweetLength ,\"Tweet Length is Exceed!\") */\n      tag_89\n      jumpi\n      mload(0x40)\n      0x08c379a000000000000000000000000000000000000000000000000000000000\n      dup2\n      mstore\n      0x04\n      add\n      tag_90\n      swap1\n      tag_91\n      jump\t// in\n    tag_90:\n      mload(0x40)\n      dup1\n      swap2\n      sub\n      swap1\n      revert\n    tag_89:\n        /* \"contracts/Twitter0.4v.sol\":1634:1655  Tweet memory NewTweet */\n      0x00\n        /* \"contracts/Twitter0.4v.sol\":1658:1827  Tweet({... */\n      mload(0x40)\n      dup1\n      0xa0\n      add\n      0x40\n      mstore\n      dup1\n        /* \"contracts/Twitter0.4v.sol\":1687:1693  _tweet */\n      dup4\n        /* \"contracts/Twitter0.4v.sol\":1658:1827  Tweet({... */\n      dup2\n      mstore\n      0x20\n      add\n        /* \"contracts/Twitter0.4v.sol\":1715:1725  msg.sender */\n      caller\n        /* \"contracts/Twitter0.4v.sol\":1658:1827  Tweet({... */\n      0xffffffffffffffffffffffffffffffffffffffff\n      and\n      dup2\n      mstore\n      0x20\n      add\n        /* \"contracts/Twitter0.4v.sol\":1750:1765  block.timestamp */\n      timestamp\n        /* \"contracts/Twitter0.4v.sol\":1658:1827  Tweet({... */\n      dup2\n      mstore\n      0x20\n      add\n        /* \"contracts/Twitter0.4v.sol\":1786:1788  li */\n      0x02\n        /* \"contracts/Twitter0.4v.sol\":1658:1827  Tweet({... */\n      dup1\n      sload\n      dup1\n      0x20\n      mul\n      0x20\n      add\n      mload(0x40)\n      swap1\n      dup2\n      add\n      0x40\n      mstore\n      dup1\n      swap3\n      swap2\n      swap1\n      dup2\n      dup2\n      mstore\n      0x20\n      add\n      dup3\n      dup1\n      sload\n      dup1\n      iszero\n      tag_92\n      jumpi\n      0x20\n      mul\n      dup3\n      add\n      swap2\n      swap1\n      0x00\n      mstore\n      keccak256(0x00, 0x20)\n      swap1\n    tag_93:\n      dup2\n      0x00\n      swap1\n      sload\n      swap1\n      0x0100\n      exp\n      swap1\n      div\n      0xffffffffffffffffffffffffffffffffffffffff\n      and\n      0xffffffffffffffffffffffffffffffffffffffff\n      and\n      dup2\n      mstore\n      0x20\n      add\n      swap1\n      0x01\n      add\n      swap1\n      dup1\n      dup4\n      gt\n      tag_93\n      jumpi\n    tag_92:\n      pop\n      pop\n      pop\n      pop\n      pop\n      dup2\n      mstore\n      0x20\n      add\n        /* \"contracts/Twitter0.4v.sol\":1814:1815  0 */\n      0x00\n        /* \"contracts/Twitter0.4v.sol\":1658:1827  Tweet({... */\n      dup2\n      mstore\n      pop\n        /* \"contracts/Twitter0.4v.sol\":1634:1827  Tweet memory NewTweet = Tweet({... */\n      swap1\n      pop\n        /* \"contracts/Twitter0.4v.sol\":1840:1850  Tweet_info */\n      0x03\n        /* \"contracts/Twitter0.4v.sol\":1840:1862  Tweet_info[msg.sender] */\n      0x00\n        /* \"contracts/Twitter0.4v.sol\":1851:1861  msg.sender */\n      caller\n        /* \"contracts/Twitter0.4v.sol\":1840:1862  Tweet_info[msg.sender] */\n      0xffffffffffffffffffffffffffffffffffffffff\n      and\n      0xffffffffffffffffffffffffffffffffffffffff\n      and\n      dup2\n      mstore\n      0x20\n      add\n      swap1\n      dup2\n      mstore\n      0x20\n      add\n      0x00\n      keccak256\n        /* \"contracts/Twitter0.4v.sol\":1868:1876  NewTweet */\n      dup2\n        /* \"contracts/Twitter0.4v.sol\":1840:1877  Tweet_info[msg.sender].push(NewTweet) */\n      swap1\n      dup1\n      0x01\n      dup2\n      sload\n      add\n      dup1\n      dup3\n      sstore\n      dup1\n      swap2\n      pop\n      pop\n      0x01\n      swap1\n      sub\n      swap1\n      0x00\n      mstore\n      keccak256(0x00, 0x20)\n      swap1\n      0x05\n      mul\n      add\n      0x00\n      swap1\n      swap2\n      swap1\n      swap2\n      swap1\n      swap2\n      pop\n      0x00\n      dup3\n      add\n      mload\n      dup2\n      0x00\n      add\n      swap1\n      dup2\n      tag_95\n      swap2\n      swap1\n      tag_96\n      jump\t// in\n    tag_95:\n      pop\n      0x20\n      dup3\n      add\n      mload\n      dup2\n      0x01\n      add\n      exp(0x0100, 0x00)\n      dup2\n      sload\n      dup2\n      0xffffffffffffffffffffffffffffffffffffffff\n      mul\n      not\n      and\n      swap1\n      dup4\n      0xffffffffffffffffffffffffffffffffffffffff\n      and\n      mul\n      or\n      swap1\n      sstore\n      pop\n      0x40\n      dup3\n      add\n      mload\n      dup2\n      0x02\n      add\n      sstore\n      0x60\n      dup3\n      add\n      mload\n      dup2\n      0x03\n      add\n      swap1\n      dup1\n      mload\n      swap1\n      0x20\n      add\n      swap1\n      tag_97\n      swap3\n      swap2\n      swap1\n      tag_98\n      jump\t// in\n    tag_97:\n      pop\n      0x80\n      dup3\n      add\n      mload\n      dup2\n      0x04\n      add\n      sstore\n      pop\n      pop\n        /* \"contracts/Twitter0.4v.sol\":1066:1885  {... */\n      pop\n        /* \"contracts/Twitter0.4v.sol\":1016:1885  function createTweet(string memory _tweet) public {... */\n      pop\n      jump\t// out\n        /* \"contracts/Twitter0.4v.sol\":836:941  function ChangeTweetLength(uint256 newTweetLen)public isOwner{... */\n    tag_35:\n        /* \"contracts/Twitter0.4v.sol\":756:766  msg.sender */\n      caller\n        /* \"contracts/Twitter0.4v.sol\":747:766  owner == msg.sender */\n      0xffffffffffffffffffffffffffffffffffffffff\n      and\n        /* \"contracts/Twitter0.4v.sol\":747:752  owner */\n      0x00\n      dup1\n      sload\n      swap1\n      0x0100\n      exp\n      swap1\n      div\n      0xffffffffffffffffffffffffffffffffffffffff\n      and\n        /* \"contracts/Twitter0.4v.sol\":747:766  owner == msg.sender */\n      0xffffffffffffffffffffffffffffffffffffffff\n      and\n      eq\n        /* \"contracts/Twitter0.4v.sol\":739:808  require(owner == msg.sender,\"You are not a Owner!Permission Denied!\") */\n      tag_100\n      jumpi\n      mload(0x40)\n      0x08c379a000000000000000000000000000000000000000000000000000000000\n      dup2\n      mstore\n      0x04\n      add\n      tag_101\n      swap1\n      tag_102\n      jump\t// in\n    tag_101:\n      mload(0x40)\n      dup1\n      swap2\n      sub\n      swap1\n      revert\n    tag_100:\n        /* \"contracts/Twitter0.4v.sol\":922:933  newTweetLen */\n      dup1\n        /* \"contracts/Twitter0.4v.sol\":908:919  TweetLength */\n      0x01\n        /* \"contracts/Twitter0.4v.sol\":908:933  TweetLength = newTweetLen */\n      dup2\n      swap1\n      sstore\n      pop\n        /* \"contracts/Twitter0.4v.sol\":836:941  function ChangeTweetLength(uint256 newTweetLen)public isOwner{... */\n      pop\n      jump\t// out\n    tag_51:\n      mload(0x40)\n      dup1\n      0xa0\n      add\n      0x40\n      mstore\n      dup1\n      0x60\n      dup2\n      mstore\n      0x20\n      add\n      and(0xffffffffffffffffffffffffffffffffffffffff, 0x00)\n      dup2\n      mstore\n      0x20\n      add\n      0x00\n      dup2\n      mstore\n      0x20\n      add\n      0x60\n      dup2\n      mstore\n      0x20\n      add\n      0x00\n      dup2\n      mstore\n      pop\n      swap1\n      jump\t// out\n    tag_82:\n      pop\n      dup1\n      sload\n      tag_104\n      swap1\n      tag_58\n      jump\t// in\n    tag_104:\n      0x00\n      dup3\n      sstore\n      dup1\n      0x1f\n      lt\n      tag_106\n      jumpi\n      pop\n      jump(tag_105)\n    tag_106:\n      0x1f\n      add\n      0x20\n      swap1\n      div\n      swap1\n      0x00\n      mstore\n      keccak256(0x00, 0x20)\n      swap1\n      dup2\n      add\n      swap1\n      tag_107\n      swap2\n      swap1\n      tag_108\n      jump\t// in\n    tag_107:\n    tag_105:\n      pop\n      jump\t// out\n    tag_84:\n      pop\n      dup1\n      sload\n      0x00\n      dup3\n      sstore\n      swap1\n      0x00\n      mstore\n      keccak256(0x00, 0x20)\n      swap1\n      dup2\n      add\n      swap1\n      tag_110\n      swap2\n      swap1\n      tag_108\n      jump\t// in\n    tag_110:\n      pop\n      jump\t// out\n    tag_87:\n      pop\n      dup1\n      sload\n      0x00\n      dup3\n      sstore\n      0x05\n      mul\n      swap1\n      0x00\n      mstore\n      keccak256(0x00, 0x20)\n      swap1\n      dup2\n      add\n      swap1\n      tag_112\n      swap2\n      swap1\n      tag_113\n      jump\t// in\n    tag_112:\n      pop\n      jump\t// out\n    tag_98:\n      dup3\n      dup1\n      sload\n      dup3\n      dup3\n      sstore\n      swap1\n      0x00\n      mstore\n      keccak256(0x00, 0x20)\n      swap1\n      dup2\n      add\n      swap3\n      dup3\n      iszero\n      tag_114\n      jumpi\n      swap2\n      0x20\n      mul\n      dup3\n      add\n    tag_115:\n      dup3\n      dup2\n      gt\n      iszero\n      tag_116\n      jumpi\n      dup3\n      mload\n      dup3\n      exp(0x0100, 0x00)\n      dup2\n      sload\n      dup2\n      0xffffffffffffffffffffffffffffffffffffffff\n      mul\n      not\n      and\n      swap1\n      dup4\n      0xffffffffffffffffffffffffffffffffffffffff\n      and\n      mul\n      or\n      swap1\n      sstore\n      pop\n      swap2\n      0x20\n      add\n      swap2\n      swap1\n      0x01\n      add\n      swap1\n      jump(tag_115)\n    tag_116:\n    tag_114:\n      pop\n      swap1\n      pop\n      tag_117\n      swap2\n      swap1\n      tag_108\n      jump\t// in\n    tag_117:\n      pop\n      swap1\n      jump\t// out\n    tag_108:\n    tag_118:\n      dup1\n      dup3\n      gt\n      iszero\n      tag_119\n      jumpi\n      0x00\n      dup2\n      0x00\n      swap1\n      sstore\n      pop\n      0x01\n      add\n      jump(tag_118)\n    tag_119:\n      pop\n      swap1\n      jump\t// out\n    tag_113:\n    tag_120:\n      dup1\n      dup3\n      gt\n      iszero\n      tag_121\n      jumpi\n      0x00\n      dup1\n      dup3\n      add\n      0x00\n      tag_122\n      swap2\n      swap1\n      tag_82\n      jump\t// in\n    tag_122:\n      0x01\n      dup3\n      add\n      exp(0x0100, 0x00)\n      dup2\n      sload\n      swap1\n      0xffffffffffffffffffffffffffffffffffffffff\n      mul\n      not\n      and\n      swap1\n      sstore\n      0x02\n      dup3\n      add\n      0x00\n      swap1\n      sstore\n      0x03\n      dup3\n      add\n      0x00\n      tag_123\n      swap2\n      swap1\n      tag_84\n      jump\t// in\n    tag_123:\n      0x04\n      dup3\n      add\n      0x00\n      swap1\n      sstore\n      pop\n      0x05\n      add\n      jump(tag_120)\n    tag_121:\n      pop\n      swap1\n      jump\t// out\n        /* \"#utility.yul\":7:82   */\n    tag_124:\n        /* \"#utility.yul\":40:46   */\n      0x00\n        /* \"#utility.yul\":73:75   */\n      0x40\n        /* \"#utility.yul\":67:76   */\n      mload\n        /* \"#utility.yul\":57:76   */\n      swap1\n      pop\n        /* \"#utility.yul\":7:82   */\n      swap1\n      jump\t// out\n        /* \"#utility.yul\":88:205   */\n    tag_125:\n        /* \"#utility.yul\":197:198   */\n      0x00\n        /* \"#utility.yul\":194:195   */\n      dup1\n        /* \"#utility.yul\":187:199   */\n      revert\n        /* \"#utility.yul\":211:328   */\n    tag_126:\n        /* \"#utility.yul\":320:321   */\n      0x00\n        /* \"#utility.yul\":317:318   */\n      dup1\n        /* \"#utility.yul\":310:322   */\n      revert\n        /* \"#utility.yul\":334:460   */\n    tag_127:\n        /* \"#utility.yul\":371:378   */\n      0x00\n        /* \"#utility.yul\":411:453   */\n      0xffffffffffffffffffffffffffffffffffffffff\n        /* \"#utility.yul\":404:409   */\n      dup3\n        /* \"#utility.yul\":400:454   */\n      and\n        /* \"#utility.yul\":389:454   */\n      swap1\n      pop\n        /* \"#utility.yul\":334:460   */\n      swap2\n      swap1\n      pop\n      jump\t// out\n        /* \"#utility.yul\":466:562   */\n    tag_128:\n        /* \"#utility.yul\":503:510   */\n      0x00\n        /* \"#utility.yul\":532:556   */\n      tag_192\n        /* \"#utility.yul\":550:555   */\n      dup3\n        /* \"#utility.yul\":532:556   */\n      tag_127\n      jump\t// in\n    tag_192:\n        /* \"#utility.yul\":521:556   */\n      swap1\n      pop\n        /* \"#utility.yul\":466:562   */\n      swap2\n      swap1\n      pop\n      jump\t// out\n        /* \"#utility.yul\":568:690   */\n    tag_129:\n        /* \"#utility.yul\":641:665   */\n      tag_194\n        /* \"#utility.yul\":659:664   */\n      dup2\n        /* \"#utility.yul\":641:665   */\n      tag_128\n      jump\t// in\n    tag_194:\n        /* \"#utility.yul\":634:639   */\n      dup2\n        /* \"#utility.yul\":631:666   */\n      eq\n        /* \"#utility.yul\":621:684   */\n      tag_195\n      jumpi\n        /* \"#utility.yul\":680:681   */\n      0x00\n        /* \"#utility.yul\":677:678   */\n      dup1\n        /* \"#utility.yul\":670:682   */\n      revert\n        /* \"#utility.yul\":621:684   */\n    tag_195:\n        /* \"#utility.yul\":568:690   */\n      pop\n      jump\t// out\n        /* \"#utility.yul\":696:835   */\n    tag_130:\n        /* \"#utility.yul\":742:747   */\n      0x00\n        /* \"#utility.yul\":780:786   */\n      dup2\n        /* \"#utility.yul\":767:787   */\n      calldataload\n        /* \"#utility.yul\":758:787   */\n      swap1\n      pop\n        /* \"#utility.yul\":796:829   */\n      tag_197\n        /* \"#utility.yul\":823:828   */\n      dup2\n        /* \"#utility.yul\":796:829   */\n      tag_129\n      jump\t// in\n    tag_197:\n        /* \"#utility.yul\":696:835   */\n      swap3\n      swap2\n      pop\n      pop\n      jump\t// out\n        /* \"#utility.yul\":841:918   */\n    tag_131:\n        /* \"#utility.yul\":878:885   */\n      0x00\n        /* \"#utility.yul\":907:912   */\n      dup2\n        /* \"#utility.yul\":896:912   */\n      swap1\n      pop\n        /* \"#utility.yul\":841:918   */\n      swap2\n      swap1\n      pop\n      jump\t// out\n        /* \"#utility.yul\":924:1046   */\n    tag_132:\n        /* \"#utility.yul\":997:1021   */\n      tag_200\n        /* \"#utility.yul\":1015:1020   */\n      dup2\n        /* \"#utility.yul\":997:1021   */\n      tag_131\n      jump\t// in\n    tag_200:\n        /* \"#utility.yul\":990:995   */\n      dup2\n        /* \"#utility.yul\":987:1022   */\n      eq\n        /* \"#utility.yul\":977:1040   */\n      tag_201\n      jumpi\n        /* \"#utility.yul\":1036:1037   */\n      0x00\n        /* \"#utility.yul\":1033:1034   */\n      dup1\n        /* \"#utility.yul\":1026:1038   */\n      revert\n        /* \"#utility.yul\":977:1040   */\n    tag_201:\n        /* \"#utility.yul\":924:1046   */\n      pop\n      jump\t// out\n        /* \"#utility.yul\":1052:1191   */\n    tag_133:\n        /* \"#utility.yul\":1098:1103   */\n      0x00\n        /* \"#utility.yul\":1136:1142   */\n      dup2\n        /* \"#utility.yul\":1123:1143   */\n      calldataload\n        /* \"#utility.yul\":1114:1143   */\n      swap1\n      pop\n        /* \"#utility.yul\":1152:1185   */\n      tag_203\n        /* \"#utility.yul\":1179:1184   */\n      dup2\n        /* \"#utility.yul\":1152:1185   */\n      tag_132\n      jump\t// in\n    tag_203:\n        /* \"#utility.yul\":1052:1191   */\n      swap3\n      swap2\n      pop\n      pop\n      jump\t// out\n        /* \"#utility.yul\":1197:1671   */\n    tag_13:\n        /* \"#utility.yul\":1265:1271   */\n      0x00\n        /* \"#utility.yul\":1273:1279   */\n      dup1\n        /* \"#utility.yul\":1322:1324   */\n      0x40\n        /* \"#utility.yul\":1310:1319   */\n      dup4\n        /* \"#utility.yul\":1301:1308   */\n      dup6\n        /* \"#utility.yul\":1297:1320   */\n      sub\n        /* \"#utility.yul\":1293:1325   */\n      slt\n        /* \"#utility.yul\":1290:1409   */\n      iszero\n      tag_205\n      jumpi\n        /* \"#utility.yul\":1328:1407   */\n      tag_206\n      tag_125\n      jump\t// in\n    tag_206:\n        /* \"#utility.yul\":1290:1409   */\n    tag_205:\n        /* \"#utility.yul\":1448:1449   */\n      0x00\n        /* \"#utility.yul\":1473:1526   */\n      tag_207\n        /* \"#utility.yul\":1518:1525   */\n      dup6\n        /* \"#utility.yul\":1509:1515   */\n      dup3\n        /* \"#utility.yul\":1498:1507   */\n      dup7\n        /* \"#utility.yul\":1494:1516   */\n      add\n        /* \"#utility.yul\":1473:1526   */\n      tag_130\n      jump\t// in\n    tag_207:\n        /* \"#utility.yul\":1463:1526   */\n      swap3\n      pop\n        /* \"#utility.yul\":1419:1536   */\n      pop\n        /* \"#utility.yul\":1575:1577   */\n      0x20\n        /* \"#utility.yul\":1601:1654   */\n      tag_208\n        /* \"#utility.yul\":1646:1653   */\n      dup6\n        /* \"#utility.yul\":1637:1643   */\n      dup3\n        /* \"#utility.yul\":1626:1635   */\n      dup7\n        /* \"#utility.yul\":1622:1644   */\n      add\n        /* \"#utility.yul\":1601:1654   */\n      tag_133\n      jump\t// in\n    tag_208:\n        /* \"#utility.yul\":1591:1654   */\n      swap2\n      pop\n        /* \"#utility.yul\":1546:1664   */\n      pop\n        /* \"#utility.yul\":1197:1671   */\n      swap3\n      pop\n      swap3\n      swap1\n      pop\n      jump\t// out\n        /* \"#utility.yul\":1677:1776   */\n    tag_134:\n        /* \"#utility.yul\":1729:1735   */\n      0x00\n        /* \"#utility.yul\":1763:1768   */\n      dup2\n        /* \"#utility.yul\":1757:1769   */\n      mload\n        /* \"#utility.yul\":1747:1769   */\n      swap1\n      pop\n        /* \"#utility.yul\":1677:1776   */\n      swap2\n      swap1\n      pop\n      jump\t// out\n        /* \"#utility.yul\":1782:1941   */\n    tag_135:\n        /* \"#utility.yul\":1856:1867   */\n      0x00\n        /* \"#utility.yul\":1890:1896   */\n      dup3\n        /* \"#utility.yul\":1885:1888   */\n      dup3\n        /* \"#utility.yul\":1878:1897   */\n      mstore\n        /* \"#utility.yul\":1930:1934   */\n      0x20\n        /* \"#utility.yul\":1925:1928   */\n      dup3\n        /* \"#utility.yul\":1921:1935   */\n      add\n        /* \"#utility.yul\":1906:1935   */\n      swap1\n      pop\n        /* \"#utility.yul\":1782:1941   */\n      swap3\n      swap2\n      pop\n      pop\n      jump\t// out\n        /* \"#utility.yul\":1947:2193   */\n    tag_136:\n        /* \"#utility.yul\":2028:2029   */\n      0x00\n        /* \"#utility.yul\":2038:2151   */\n    tag_212:\n        /* \"#utility.yul\":2052:2058   */\n      dup4\n        /* \"#utility.yul\":2049:2050   */\n      dup2\n        /* \"#utility.yul\":2046:2059   */\n      lt\n        /* \"#utility.yul\":2038:2151   */\n      iszero\n      tag_214\n      jumpi\n        /* \"#utility.yul\":2137:2138   */\n      dup1\n        /* \"#utility.yul\":2132:2135   */\n      dup3\n        /* \"#utility.yul\":2128:2139   */\n      add\n        /* \"#utility.yul\":2122:2140   */\n      mload\n        /* \"#utility.yul\":2118:2119   */\n      dup2\n        /* \"#utility.yul\":2113:2116   */\n      dup5\n        /* \"#utility.yul\":2109:2120   */\n      add\n        /* \"#utility.yul\":2102:2141   */\n      mstore\n        /* \"#utility.yul\":2074:2076   */\n      0x20\n        /* \"#utility.yul\":2071:2072   */\n      dup2\n        /* \"#utility.yul\":2067:2077   */\n      add\n        /* \"#utility.yul\":2062:2077   */\n      swap1\n      pop\n        /* \"#utility.yul\":2038:2151   */\n      jump(tag_212)\n    tag_214:\n        /* \"#utility.yul\":2185:2186   */\n      0x00\n        /* \"#utility.yul\":2176:2182   */\n      dup5\n        /* \"#utility.yul\":2171:2174   */\n      dup5\n        /* \"#utility.yul\":2167:2183   */\n      add\n        /* \"#utility.yul\":2160:2187   */\n      mstore\n        /* \"#utility.yul\":2009:2193   */\n      pop\n        /* \"#utility.yul\":1947:2193   */\n      pop\n      pop\n      pop\n      jump\t// out\n        /* \"#utility.yul\":2199:2301   */\n    tag_137:\n        /* \"#utility.yul\":2240:2246   */\n      0x00\n        /* \"#utility.yul\":2291:2293   */\n      0x1f\n        /* \"#utility.yul\":2287:2294   */\n      not\n        /* \"#utility.yul\":2282:2284   */\n      0x1f\n        /* \"#utility.yul\":2275:2280   */\n      dup4\n        /* \"#utility.yul\":2271:2285   */\n      add\n        /* \"#utility.yul\":2267:2295   */\n      and\n        /* \"#utility.yul\":2257:2295   */\n      swap1\n      pop\n        /* \"#utility.yul\":2199:2301   */\n      swap2\n      swap1\n      pop\n      jump\t// out\n        /* \"#utility.yul\":2307:2664   */\n    tag_138:\n        /* \"#utility.yul\":2385:2388   */\n      0x00\n        /* \"#utility.yul\":2413:2452   */\n      tag_217\n        /* \"#utility.yul\":2446:2451   */\n      dup3\n        /* \"#utility.yul\":2413:2452   */\n      tag_134\n      jump\t// in\n    tag_217:\n        /* \"#utility.yul\":2468:2529   */\n      tag_218\n        /* \"#utility.yul\":2522:2528   */\n      dup2\n        /* \"#utility.yul\":2517:2520   */\n      dup6\n        /* \"#utility.yul\":2468:2529   */\n      tag_135\n      jump\t// in\n    tag_218:\n        /* \"#utility.yul\":2461:2529   */\n      swap4\n      pop\n        /* \"#utility.yul\":2538:2603   */\n      tag_219\n        /* \"#utility.yul\":2596:2602   */\n      dup2\n        /* \"#utility.yul\":2591:2594   */\n      dup6\n        /* \"#utility.yul\":2584:2588   */\n      0x20\n        /* \"#utility.yul\":2577:2582   */\n      dup7\n        /* \"#utility.yul\":2573:2589   */\n      add\n        /* \"#utility.yul\":2538:2603   */\n      tag_136\n      jump\t// in\n    tag_219:\n        /* \"#utility.yul\":2628:2657   */\n      tag_220\n        /* \"#utility.yul\":2650:2656   */\n      dup2\n        /* \"#utility.yul\":2628:2657   */\n      tag_137\n      jump\t// in\n    tag_220:\n        /* \"#utility.yul\":2623:2626   */\n      dup5\n        /* \"#utility.yul\":2619:2658   */\n      add\n        /* \"#utility.yul\":2612:2658   */\n      swap2\n      pop\n        /* \"#utility.yul\":2389:2664   */\n      pop\n        /* \"#utility.yul\":2307:2664   */\n      swap3\n      swap2\n      pop\n      pop\n      jump\t// out\n        /* \"#utility.yul\":2670:2778   */\n    tag_139:\n        /* \"#utility.yul\":2747:2771   */\n      tag_222\n        /* \"#utility.yul\":2765:2770   */\n      dup2\n        /* \"#utility.yul\":2747:2771   */\n      tag_128\n      jump\t// in\n    tag_222:\n        /* \"#utility.yul\":2742:2745   */\n      dup3\n        /* \"#utility.yul\":2735:2772   */\n      mstore\n        /* \"#utility.yul\":2670:2778   */\n      pop\n      pop\n      jump\t// out\n        /* \"#utility.yul\":2784:2892   */\n    tag_140:\n        /* \"#utility.yul\":2861:2885   */\n      tag_224\n        /* \"#utility.yul\":2879:2884   */\n      dup2\n        /* \"#utility.yul\":2861:2885   */\n      tag_131\n      jump\t// in\n    tag_224:\n        /* \"#utility.yul\":2856:2859   */\n      dup3\n        /* \"#utility.yul\":2849:2886   */\n      mstore\n        /* \"#utility.yul\":2784:2892   */\n      pop\n      pop\n      jump\t// out\n        /* \"#utility.yul\":2898:3012   */\n    tag_141:\n        /* \"#utility.yul\":2965:2971   */\n      0x00\n        /* \"#utility.yul\":2999:3004   */\n      dup2\n        /* \"#utility.yul\":2993:3005   */\n      mload\n        /* \"#utility.yul\":2983:3005   */\n      swap1\n      pop\n        /* \"#utility.yul\":2898:3012   */\n      swap2\n      swap1\n      pop\n      jump\t// out\n        /* \"#utility.yul\":3018:3192   */\n    tag_142:\n        /* \"#utility.yul\":3107:3118   */\n      0x00\n        /* \"#utility.yul\":3141:3147   */\n      dup3\n        /* \"#utility.yul\":3136:3139   */\n      dup3\n        /* \"#utility.yul\":3129:3148   */\n      mstore\n        /* \"#utility.yul\":3181:3185   */\n      0x20\n        /* \"#utility.yul\":3176:3179   */\n      dup3\n        /* \"#utility.yul\":3172:3186   */\n      add\n        /* \"#utility.yul\":3157:3186   */\n      swap1\n      pop\n        /* \"#utility.yul\":3018:3192   */\n      swap3\n      swap2\n      pop\n      pop\n      jump\t// out\n        /* \"#utility.yul\":3198:3330   */\n    tag_143:\n        /* \"#utility.yul\":3265:3269   */\n      0x00\n        /* \"#utility.yul\":3288:3291   */\n      dup2\n        /* \"#utility.yul\":3280:3291   */\n      swap1\n      pop\n        /* \"#utility.yul\":3318:3322   */\n      0x20\n        /* \"#utility.yul\":3313:3316   */\n      dup3\n        /* \"#utility.yul\":3309:3323   */\n      add\n        /* \"#utility.yul\":3301:3323   */\n      swap1\n      pop\n        /* \"#utility.yul\":3198:3330   */\n      swap2\n      swap1\n      pop\n      jump\t// out\n        /* \"#utility.yul\":3336:3515   */\n    tag_144:\n        /* \"#utility.yul\":3405:3415   */\n      0x00\n        /* \"#utility.yul\":3426:3472   */\n      tag_229\n        /* \"#utility.yul\":3468:3471   */\n      dup4\n        /* \"#utility.yul\":3460:3466   */\n      dup4\n        /* \"#utility.yul\":3426:3472   */\n      tag_139\n      jump\t// in\n    tag_229:\n        /* \"#utility.yul\":3504:3508   */\n      0x20\n        /* \"#utility.yul\":3499:3502   */\n      dup4\n        /* \"#utility.yul\":3495:3509   */\n      add\n        /* \"#utility.yul\":3481:3509   */\n      swap1\n      pop\n        /* \"#utility.yul\":3336:3515   */\n      swap3\n      swap2\n      pop\n      pop\n      jump\t// out\n        /* \"#utility.yul\":3521:3634   */\n    tag_145:\n        /* \"#utility.yul\":3591:3595   */\n      0x00\n        /* \"#utility.yul\":3623:3627   */\n      0x20\n        /* \"#utility.yul\":3618:3621   */\n      dup3\n        /* \"#utility.yul\":3614:3628   */\n      add\n        /* \"#utility.yul\":3606:3628   */\n      swap1\n      pop\n        /* \"#utility.yul\":3521:3634   */\n      swap2\n      swap1\n      pop\n      jump\t// out\n        /* \"#utility.yul\":3670:4382   */\n    tag_146:\n        /* \"#utility.yul\":3779:3782   */\n      0x00\n        /* \"#utility.yul\":3808:3862   */\n      tag_232\n        /* \"#utility.yul\":3856:3861   */\n      dup3\n        /* \"#utility.yul\":3808:3862   */\n      tag_141\n      jump\t// in\n    tag_232:\n        /* \"#utility.yul\":3878:3954   */\n      tag_233\n        /* \"#utility.yul\":3947:3953   */\n      dup2\n        /* \"#utility.yul\":3942:3945   */\n      dup6\n        /* \"#utility.yul\":3878:3954   */\n      tag_142\n      jump\t// in\n    tag_233:\n        /* \"#utility.yul\":3871:3954   */\n      swap4\n      pop\n        /* \"#utility.yul\":3978:4034   */\n      tag_234\n        /* \"#utility.yul\":4028:4033   */\n      dup4\n        /* \"#utility.yul\":3978:4034   */\n      tag_143\n      jump\t// in\n    tag_234:\n        /* \"#utility.yul\":4057:4064   */\n      dup1\n        /* \"#utility.yul\":4088:4089   */\n      0x00\n        /* \"#utility.yul\":4073:4357   */\n    tag_235:\n        /* \"#utility.yul\":4098:4104   */\n      dup4\n        /* \"#utility.yul\":4095:4096   */\n      dup2\n        /* \"#utility.yul\":4092:4105   */\n      lt\n        /* \"#utility.yul\":4073:4357   */\n      iszero\n      tag_237\n      jumpi\n        /* \"#utility.yul\":4174:4180   */\n      dup2\n        /* \"#utility.yul\":4168:4181   */\n      mload\n        /* \"#utility.yul\":4201:4264   */\n      tag_238\n        /* \"#utility.yul\":4260:4263   */\n      dup9\n        /* \"#utility.yul\":4245:4258   */\n      dup3\n        /* \"#utility.yul\":4201:4264   */\n      tag_144\n      jump\t// in\n    tag_238:\n        /* \"#utility.yul\":4194:4264   */\n      swap8\n      pop\n        /* \"#utility.yul\":4287:4347   */\n      tag_239\n        /* \"#utility.yul\":4340:4346   */\n      dup4\n        /* \"#utility.yul\":4287:4347   */\n      tag_145\n      jump\t// in\n    tag_239:\n        /* \"#utility.yul\":4277:4347   */\n      swap3\n      pop\n        /* \"#utility.yul\":4133:4357   */\n      pop\n        /* \"#utility.yul\":4120:4121   */\n      0x01\n        /* \"#utility.yul\":4117:4118   */\n      dup2\n        /* \"#utility.yul\":4113:4122   */\n      add\n        /* \"#utility.yul\":4108:4122   */\n      swap1\n      pop\n        /* \"#utility.yul\":4073:4357   */\n      jump(tag_235)\n    tag_237:\n        /* \"#utility.yul\":4077:4091   */\n      pop\n        /* \"#utility.yul\":4373:4376   */\n      dup6\n        /* \"#utility.yul\":4366:4376   */\n      swap4\n      pop\n        /* \"#utility.yul\":3784:4382   */\n      pop\n      pop\n      pop\n        /* \"#utility.yul\":3670:4382   */\n      swap3\n      swap2\n      pop\n      pop\n      jump\t// out\n        /* \"#utility.yul\":4440:5678   */\n    tag_147:\n        /* \"#utility.yul\":4551:4554   */\n      0x00\n        /* \"#utility.yul\":4587:4591   */\n      0xa0\n        /* \"#utility.yul\":4582:4585   */\n      dup4\n        /* \"#utility.yul\":4578:4592   */\n      add\n        /* \"#utility.yul\":4677:4681   */\n      0x00\n        /* \"#utility.yul\":4670:4675   */\n      dup4\n        /* \"#utility.yul\":4666:4682   */\n      add\n        /* \"#utility.yul\":4660:4683   */\n      mload\n        /* \"#utility.yul\":4730:4733   */\n      dup5\n        /* \"#utility.yul\":4724:4728   */\n      dup3\n        /* \"#utility.yul\":4720:4734   */\n      sub\n        /* \"#utility.yul\":4713:4717   */\n      0x00\n        /* \"#utility.yul\":4708:4711   */\n      dup7\n        /* \"#utility.yul\":4704:4718   */\n      add\n        /* \"#utility.yul\":4697:4735   */\n      mstore\n        /* \"#utility.yul\":4756:4829   */\n      tag_241\n        /* \"#utility.yul\":4824:4828   */\n      dup3\n        /* \"#utility.yul\":4810:4822   */\n      dup3\n        /* \"#utility.yul\":4756:4829   */\n      tag_138\n      jump\t// in\n    tag_241:\n        /* \"#utility.yul\":4748:4829   */\n      swap2\n      pop\n        /* \"#utility.yul\":4602:4840   */\n      pop\n        /* \"#utility.yul\":4924:4928   */\n      0x20\n        /* \"#utility.yul\":4917:4922   */\n      dup4\n        /* \"#utility.yul\":4913:4929   */\n      add\n        /* \"#utility.yul\":4907:4930   */\n      mload\n        /* \"#utility.yul\":4943:5006   */\n      tag_242\n        /* \"#utility.yul\":5000:5004   */\n      0x20\n        /* \"#utility.yul\":4995:4998   */\n      dup7\n        /* \"#utility.yul\":4991:5005   */\n      add\n        /* \"#utility.yul\":4977:4989   */\n      dup3\n        /* \"#utility.yul\":4943:5006   */\n      tag_139\n      jump\t// in\n    tag_242:\n        /* \"#utility.yul\":4850:5016   */\n      pop\n        /* \"#utility.yul\":5103:5107   */\n      0x40\n        /* \"#utility.yul\":5096:5101   */\n      dup4\n        /* \"#utility.yul\":5092:5108   */\n      add\n        /* \"#utility.yul\":5086:5109   */\n      mload\n        /* \"#utility.yul\":5122:5185   */\n      tag_243\n        /* \"#utility.yul\":5179:5183   */\n      0x40\n        /* \"#utility.yul\":5174:5177   */\n      dup7\n        /* \"#utility.yul\":5170:5184   */\n      add\n        /* \"#utility.yul\":5156:5168   */\n      dup3\n        /* \"#utility.yul\":5122:5185   */\n      tag_140\n      jump\t// in\n    tag_243:\n        /* \"#utility.yul\":5026:5195   */\n      pop\n        /* \"#utility.yul\":5278:5282   */\n      0x60\n        /* \"#utility.yul\":5271:5276   */\n      dup4\n        /* \"#utility.yul\":5267:5283   */\n      add\n        /* \"#utility.yul\":5261:5284   */\n      mload\n        /* \"#utility.yul\":5331:5334   */\n      dup5\n        /* \"#utility.yul\":5325:5329   */\n      dup3\n        /* \"#utility.yul\":5321:5335   */\n      sub\n        /* \"#utility.yul\":5314:5318   */\n      0x60\n        /* \"#utility.yul\":5309:5312   */\n      dup7\n        /* \"#utility.yul\":5305:5319   */\n      add\n        /* \"#utility.yul\":5298:5336   */\n      mstore\n        /* \"#utility.yul\":5357:5460   */\n      tag_244\n        /* \"#utility.yul\":5455:5459   */\n      dup3\n        /* \"#utility.yul\":5441:5453   */\n      dup3\n        /* \"#utility.yul\":5357:5460   */\n      tag_146\n      jump\t// in\n    tag_244:\n        /* \"#utility.yul\":5349:5460   */\n      swap2\n      pop\n        /* \"#utility.yul\":5205:5471   */\n      pop\n        /* \"#utility.yul\":5559:5563   */\n      0x80\n        /* \"#utility.yul\":5552:5557   */\n      dup4\n        /* \"#utility.yul\":5548:5564   */\n      add\n        /* \"#utility.yul\":5542:5565   */\n      mload\n        /* \"#utility.yul\":5578:5641   */\n      tag_245\n        /* \"#utility.yul\":5635:5639   */\n      0x80\n        /* \"#utility.yul\":5630:5633   */\n      dup7\n        /* \"#utility.yul\":5626:5640   */\n      add\n        /* \"#utility.yul\":5612:5624   */\n      dup3\n        /* \"#utility.yul\":5578:5641   */\n      tag_140\n      jump\t// in\n    tag_245:\n        /* \"#utility.yul\":5481:5651   */\n      pop\n        /* \"#utility.yul\":5668:5672   */\n      dup1\n        /* \"#utility.yul\":5661:5672   */\n      swap2\n      pop\n        /* \"#utility.yul\":4556:5678   */\n      pop\n        /* \"#utility.yul\":4440:5678   */\n      swap3\n      swap2\n      pop\n      pop\n      jump\t// out\n        /* \"#utility.yul\":5684:6041   */\n    tag_19:\n        /* \"#utility.yul\":5819:5823   */\n      0x00\n        /* \"#utility.yul\":5857:5859   */\n      0x20\n        /* \"#utility.yul\":5846:5855   */\n      dup3\n        /* \"#utility.yul\":5842:5860   */\n      add\n        /* \"#utility.yul\":5834:5860   */\n      swap1\n      pop\n        /* \"#utility.yul\":5906:5915   */\n      dup2\n        /* \"#utility.yul\":5900:5904   */\n      dup2\n        /* \"#utility.yul\":5896:5916   */\n      sub\n        /* \"#utility.yul\":5892:5893   */\n      0x00\n        /* \"#utility.yul\":5881:5890   */\n      dup4\n        /* \"#utility.yul\":5877:5894   */\n      add\n        /* \"#utility.yul\":5870:5917   */\n      mstore\n        /* \"#utility.yul\":5934:6034   */\n      tag_247\n        /* \"#utility.yul\":6029:6033   */\n      dup2\n        /* \"#utility.yul\":6020:6026   */\n      dup5\n        /* \"#utility.yul\":5934:6034   */\n      tag_147\n      jump\t// in\n    tag_247:\n        /* \"#utility.yul\":5926:6034   */\n      swap1\n      pop\n        /* \"#utility.yul\":5684:6041   */\n      swap3\n      swap2\n      pop\n      pop\n      jump\t// out\n        /* \"#utility.yul\":6047:6182   */\n    tag_148:\n        /* \"#utility.yul\":6135:6141   */\n      0x00\n        /* \"#utility.yul\":6169:6174   */\n      dup2\n        /* \"#utility.yul\":6163:6175   */\n      mload\n        /* \"#utility.yul\":6153:6175   */\n      swap1\n      pop\n        /* \"#utility.yul\":6047:6182   */\n      swap2\n      swap1\n      pop\n      jump\t// out\n        /* \"#utility.yul\":6188:6393   */\n    tag_149:\n        /* \"#utility.yul\":6308:6319   */\n      0x00\n        /* \"#utility.yul\":6342:6348   */\n      dup3\n        /* \"#utility.yul\":6337:6340   */\n      dup3\n        /* \"#utility.yul\":6330:6349   */\n      mstore\n        /* \"#utility.yul\":6382:6386   */\n      0x20\n        /* \"#utility.yul\":6377:6380   */\n      dup3\n        /* \"#utility.yul\":6373:6387   */\n      add\n        /* \"#utility.yul\":6358:6387   */\n      swap1\n      pop\n        /* \"#utility.yul\":6188:6393   */\n      swap3\n      swap2\n      pop\n      pop\n      jump\t// out\n        /* \"#utility.yul\":6399:6552   */\n    tag_150:\n        /* \"#utility.yul\":6487:6491   */\n      0x00\n        /* \"#utility.yul\":6510:6513   */\n      dup2\n        /* \"#utility.yul\":6502:6513   */\n      swap1\n      pop\n        /* \"#utility.yul\":6540:6544   */\n      0x20\n        /* \"#utility.yul\":6535:6538   */\n      dup3\n        /* \"#utility.yul\":6531:6545   */\n      add\n        /* \"#utility.yul\":6523:6545   */\n      swap1\n      pop\n        /* \"#utility.yul\":6399:6552   */\n      swap2\n      swap1\n      pop\n      jump\t// out\n        /* \"#utility.yul\":6610:7838   */\n    tag_151:\n        /* \"#utility.yul\":6711:6714   */\n      0x00\n        /* \"#utility.yul\":6747:6751   */\n      0xa0\n        /* \"#utility.yul\":6742:6745   */\n      dup4\n        /* \"#utility.yul\":6738:6752   */\n      add\n        /* \"#utility.yul\":6837:6841   */\n      0x00\n        /* \"#utility.yul\":6830:6835   */\n      dup4\n        /* \"#utility.yul\":6826:6842   */\n      add\n        /* \"#utility.yul\":6820:6843   */\n      mload\n        /* \"#utility.yul\":6890:6893   */\n      dup5\n        /* \"#utility.yul\":6884:6888   */\n      dup3\n        /* \"#utility.yul\":6880:6894   */\n      sub\n        /* \"#utility.yul\":6873:6877   */\n      0x00\n        /* \"#utility.yul\":6868:6871   */\n      dup7\n        /* \"#utility.yul\":6864:6878   */\n      add\n        /* \"#utility.yul\":6857:6895   */\n      mstore\n        /* \"#utility.yul\":6916:6989   */\n      tag_252\n        /* \"#utility.yul\":6984:6988   */\n      dup3\n        /* \"#utility.yul\":6970:6982   */\n      dup3\n        /* \"#utility.yul\":6916:6989   */\n      tag_138\n      jump\t// in\n    tag_252:\n        /* \"#utility.yul\":6908:6989   */\n      swap2\n      pop\n        /* \"#utility.yul\":6762:7000   */\n      pop\n        /* \"#utility.yul\":7084:7088   */\n      0x20\n        /* \"#utility.yul\":7077:7082   */\n      dup4\n        /* \"#utility.yul\":7073:7089   */\n      add\n        /* \"#utility.yul\":7067:7090   */\n      mload\n        /* \"#utility.yul\":7103:7166   */\n      tag_253\n        /* \"#utility.yul\":7160:7164   */\n      0x20\n        /* \"#utility.yul\":7155:7158   */\n      dup7\n        /* \"#utility.yul\":7151:7165   */\n      add\n        /* \"#utility.yul\":7137:7149   */\n      dup3\n        /* \"#utility.yul\":7103:7166   */\n      tag_139\n      jump\t// in\n    tag_253:\n        /* \"#utility.yul\":7010:7176   */\n      pop\n        /* \"#utility.yul\":7263:7267   */\n      0x40\n        /* \"#utility.yul\":7256:7261   */\n      dup4\n        /* \"#utility.yul\":7252:7268   */\n      add\n        /* \"#utility.yul\":7246:7269   */\n      mload\n        /* \"#utility.yul\":7282:7345   */\n      tag_254\n        /* \"#utility.yul\":7339:7343   */\n      0x40\n        /* \"#utility.yul\":7334:7337   */\n      dup7\n        /* \"#utility.yul\":7330:7344   */\n      add\n        /* \"#utility.yul\":7316:7328   */\n      dup3\n        /* \"#utility.yul\":7282:7345   */\n      tag_140\n      jump\t// in\n    tag_254:\n        /* \"#utility.yul\":7186:7355   */\n      pop\n        /* \"#utility.yul\":7438:7442   */\n      0x60\n        /* \"#utility.yul\":7431:7436   */\n      dup4\n        /* \"#utility.yul\":7427:7443   */\n      add\n        /* \"#utility.yul\":7421:7444   */\n      mload\n        /* \"#utility.yul\":7491:7494   */\n      dup5\n        /* \"#utility.yul\":7485:7489   */\n      dup3\n        /* \"#utility.yul\":7481:7495   */\n      sub\n        /* \"#utility.yul\":7474:7478   */\n      0x60\n        /* \"#utility.yul\":7469:7472   */\n      dup7\n        /* \"#utility.yul\":7465:7479   */\n      add\n        /* \"#utility.yul\":7458:7496   */\n      mstore\n        /* \"#utility.yul\":7517:7620   */\n      tag_255\n        /* \"#utility.yul\":7615:7619   */\n      dup3\n        /* \"#utility.yul\":7601:7613   */\n      dup3\n        /* \"#utility.yul\":7517:7620   */\n      tag_146\n      jump\t// in\n    tag_255:\n        /* \"#utility.yul\":7509:7620   */\n      swap2\n      pop\n        /* \"#utility.yul\":7365:7631   */\n      pop\n        /* \"#utility.yul\":7719:7723   */\n      0x80\n        /* \"#utility.yul\":7712:7717   */\n      dup4\n        /* \"#utility.yul\":7708:7724   */\n      add\n        /* \"#utility.yul\":7702:7725   */\n      mload\n        /* \"#utility.yul\":7738:7801   */\n      tag_256\n        /* \"#utility.yul\":7795:7799   */\n      0x80\n        /* \"#utility.yul\":7790:7793   */\n      dup7\n        /* \"#utility.yul\":7786:7800   */\n      add\n        /* \"#utility.yul\":7772:7784   */\n      dup3\n        /* \"#utility.yul\":7738:7801   */\n      tag_140\n      jump\t// in\n    tag_256:\n        /* \"#utility.yul\":7641:7811   */\n      pop\n        /* \"#utility.yul\":7828:7832   */\n      dup1\n        /* \"#utility.yul\":7821:7832   */\n      swap2\n      pop\n        /* \"#utility.yul\":6716:7838   */\n      pop\n        /* \"#utility.yul\":6610:7838   */\n      swap3\n      swap2\n      pop\n      pop\n      jump\t// out\n        /* \"#utility.yul\":7844:8084   */\n    tag_152:\n        /* \"#utility.yul\":7955:7965   */\n      0x00\n        /* \"#utility.yul\":7990:8078   */\n      tag_258\n        /* \"#utility.yul\":8074:8077   */\n      dup4\n        /* \"#utility.yul\":8066:8072   */\n      dup4\n        /* \"#utility.yul\":7990:8078   */\n      tag_151\n      jump\t// in\n    tag_258:\n        /* \"#utility.yul\":7976:8078   */\n      swap1\n      pop\n        /* \"#utility.yul\":7844:8084   */\n      swap3\n      swap2\n      pop\n      pop\n      jump\t// out\n        /* \"#utility.yul\":8090:8224   */\n    tag_153:\n        /* \"#utility.yul\":8181:8185   */\n      0x00\n        /* \"#utility.yul\":8213:8217   */\n      0x20\n        /* \"#utility.yul\":8208:8211   */\n      dup3\n        /* \"#utility.yul\":8204:8218   */\n      add\n        /* \"#utility.yul\":8196:8218   */\n      swap1\n      pop\n        /* \"#utility.yul\":8090:8224   */\n      swap2\n      swap1\n      pop\n      jump\t// out\n        /* \"#utility.yul\":8286:9365   */\n    tag_154:\n        /* \"#utility.yul\":8447:8450   */\n      0x00\n        /* \"#utility.yul\":8476:8551   */\n      tag_261\n        /* \"#utility.yul\":8545:8550   */\n      dup3\n        /* \"#utility.yul\":8476:8551   */\n      tag_148\n      jump\t// in\n    tag_261:\n        /* \"#utility.yul\":8567:8674   */\n      tag_262\n        /* \"#utility.yul\":8667:8673   */\n      dup2\n        /* \"#utility.yul\":8662:8665   */\n      dup6\n        /* \"#utility.yul\":8567:8674   */\n      tag_149\n      jump\t// in\n    tag_262:\n        /* \"#utility.yul\":8560:8674   */\n      swap4\n      pop\n        /* \"#utility.yul\":8700:8703   */\n      dup4\n        /* \"#utility.yul\":8745:8749   */\n      0x20\n        /* \"#utility.yul\":8737:8743   */\n      dup3\n        /* \"#utility.yul\":8733:8750   */\n      mul\n        /* \"#utility.yul\":8728:8731   */\n      dup6\n        /* \"#utility.yul\":8724:8751   */\n      add\n        /* \"#utility.yul\":8775:8852   */\n      tag_263\n        /* \"#utility.yul\":8846:8851   */\n      dup6\n        /* \"#utility.yul\":8775:8852   */\n      tag_150\n      jump\t// in\n    tag_263:\n        /* \"#utility.yul\":8875:8882   */\n      dup1\n        /* \"#utility.yul\":8906:8907   */\n      0x00\n        /* \"#utility.yul\":8891:9320   */\n    tag_264:\n        /* \"#utility.yul\":8916:8922   */\n      dup6\n        /* \"#utility.yul\":8913:8914   */\n      dup2\n        /* \"#utility.yul\":8910:8923   */\n      lt\n        /* \"#utility.yul\":8891:9320   */\n      iszero\n      tag_266\n      jumpi\n        /* \"#utility.yul\":8987:8996   */\n      dup5\n        /* \"#utility.yul\":8981:8985   */\n      dup5\n        /* \"#utility.yul\":8977:8997   */\n      sub\n        /* \"#utility.yul\":8972:8975   */\n      dup10\n        /* \"#utility.yul\":8965:8998   */\n      mstore\n        /* \"#utility.yul\":9038:9044   */\n      dup2\n        /* \"#utility.yul\":9032:9045   */\n      mload\n        /* \"#utility.yul\":9066:9172   */\n      tag_267\n        /* \"#utility.yul\":9167:9171   */\n      dup6\n        /* \"#utility.yul\":9152:9165   */\n      dup3\n        /* \"#utility.yul\":9066:9172   */\n      tag_152\n      jump\t// in\n    tag_267:\n        /* \"#utility.yul\":9058:9172   */\n      swap5\n      pop\n        /* \"#utility.yul\":9195:9276   */\n      tag_268\n        /* \"#utility.yul\":9269:9275   */\n      dup4\n        /* \"#utility.yul\":9195:9276   */\n      tag_153\n      jump\t// in\n    tag_268:\n        /* \"#utility.yul\":9185:9276   */\n      swap3\n      pop\n        /* \"#utility.yul\":9305:9309   */\n      0x20\n        /* \"#utility.yul\":9300:9303   */\n      dup11\n        /* \"#utility.yul\":9296:9310   */\n      add\n        /* \"#utility.yul\":9289:9310   */\n      swap10\n      pop\n        /* \"#utility.yul\":8951:9320   */\n      pop\n        /* \"#utility.yul\":8938:8939   */\n      0x01\n        /* \"#utility.yul\":8935:8936   */\n      dup2\n        /* \"#utility.yul\":8931:8940   */\n      add\n        /* \"#utility.yul\":8926:8940   */\n      swap1\n      pop\n        /* \"#utility.yul\":8891:9320   */\n      jump(tag_264)\n    tag_266:\n        /* \"#utility.yul\":8895:8909   */\n      pop\n        /* \"#utility.yul\":9336:9340   */\n      dup3\n        /* \"#utility.yul\":9329:9340   */\n      swap8\n      pop\n        /* \"#utility.yul\":9356:9359   */\n      dup8\n        /* \"#utility.yul\":9349:9359   */\n      swap6\n      pop\n        /* \"#utility.yul\":8452:9365   */\n      pop\n      pop\n      pop\n      pop\n      pop\n        /* \"#utility.yul\":8286:9365   */\n      swap3\n      swap2\n      pop\n      pop\n      jump\t// out\n        /* \"#utility.yul\":9371:9828   */\n    tag_23:\n        /* \"#utility.yul\":9556:9560   */\n      0x00\n        /* \"#utility.yul\":9594:9596   */\n      0x20\n        /* \"#utility.yul\":9583:9592   */\n      dup3\n        /* \"#utility.yul\":9579:9597   */\n      add\n        /* \"#utility.yul\":9571:9597   */\n      swap1\n      pop\n        /* \"#utility.yul\":9643:9652   */\n      dup2\n        /* \"#utility.yul\":9637:9641   */\n      dup2\n        /* \"#utility.yul\":9633:9653   */\n      sub\n        /* \"#utility.yul\":9629:9630   */\n      0x00\n        /* \"#utility.yul\":9618:9627   */\n      dup4\n        /* \"#utility.yul\":9614:9631   */\n      add\n        /* \"#utility.yul\":9607:9654   */\n      mstore\n        /* \"#utility.yul\":9671:9821   */\n      tag_270\n        /* \"#utility.yul\":9816:9820   */\n      dup2\n        /* \"#utility.yul\":9807:9813   */\n      dup5\n        /* \"#utility.yul\":9671:9821   */\n      tag_154\n      jump\t// in\n    tag_270:\n        /* \"#utility.yul\":9663:9821   */\n      swap1\n      pop\n        /* \"#utility.yul\":9371:9828   */\n      swap3\n      swap2\n      pop\n      pop\n      jump\t// out\n        /* \"#utility.yul\":9834:9951   */\n    tag_155:\n        /* \"#utility.yul\":9943:9944   */\n      0x00\n        /* \"#utility.yul\":9940:9941   */\n      dup1\n        /* \"#utility.yul\":9933:9945   */\n      revert\n        /* \"#utility.yul\":9957:10074   */\n    tag_156:\n        /* \"#utility.yul\":10066:10067   */\n      0x00\n        /* \"#utility.yul\":10063:10064   */\n      dup1\n        /* \"#utility.yul\":10056:10068   */\n      revert\n        /* \"#utility.yul\":10080:10260   */\n    tag_157:\n        /* \"#utility.yul\":10128:10205   */\n      0x4e487b7100000000000000000000000000000000000000000000000000000000\n        /* \"#utility.yul\":10125:10126   */\n      0x00\n        /* \"#utility.yul\":10118:10206   */\n      mstore\n        /* \"#utility.yul\":10225:10229   */\n      0x41\n        /* \"#utility.yul\":10222:10223   */\n      0x04\n        /* \"#utility.yul\":10215:10230   */\n      mstore\n        /* \"#utility.yul\":10249:10253   */\n      0x24\n        /* \"#utility.yul\":10246:10247   */\n      0x00\n        /* \"#utility.yul\":10239:10254   */\n      revert\n        /* \"#utility.yul\":10266:10547   */\n    tag_158:\n        /* \"#utility.yul\":10349:10376   */\n      tag_275\n        /* \"#utility.yul\":10371:10375   */\n      dup3\n        /* \"#utility.yul\":10349:10376   */\n      tag_137\n      jump\t// in\n    tag_275:\n        /* \"#utility.yul\":10341:10347   */\n      dup2\n        /* \"#utility.yul\":10337:10377   */\n      add\n        /* \"#utility.yul\":10479:10485   */\n      dup2\n        /* \"#utility.yul\":10467:10477   */\n      dup2\n        /* \"#utility.yul\":10464:10486   */\n      lt\n        /* \"#utility.yul\":10443:10461   */\n      0xffffffffffffffff\n        /* \"#utility.yul\":10431:10441   */\n      dup3\n        /* \"#utility.yul\":10428:10462   */\n      gt\n        /* \"#utility.yul\":10425:10487   */\n      or\n        /* \"#utility.yul\":10422:10510   */\n      iszero\n      tag_276\n      jumpi\n        /* \"#utility.yul\":10490:10508   */\n      tag_277\n      tag_157\n      jump\t// in\n    tag_277:\n        /* \"#utility.yul\":10422:10510   */\n    tag_276:\n        /* \"#utility.yul\":10530:10540   */\n      dup1\n        /* \"#utility.yul\":10526:10528   */\n      0x40\n        /* \"#utility.yul\":10519:10541   */\n      mstore\n        /* \"#utility.yul\":10309:10547   */\n      pop\n        /* \"#utility.yul\":10266:10547   */\n      pop\n      pop\n      jump\t// out\n        /* \"#utility.yul\":10553:10682   */\n    tag_159:\n        /* \"#utility.yul\":10587:10593   */\n      0x00\n        /* \"#utility.yul\":10614:10634   */\n      tag_279\n      tag_124\n      jump\t// in\n    tag_279:\n        /* \"#utility.yul\":10604:10634   */\n      swap1\n      pop\n        /* \"#utility.yul\":10643:10676   */\n      tag_280\n        /* \"#utility.yul\":10671:10675   */\n      dup3\n        /* \"#utility.yul\":10663:10669   */\n      dup3\n        /* \"#utility.yul\":10643:10676   */\n      tag_158\n      jump\t// in\n    tag_280:\n        /* \"#utility.yul\":10553:10682   */\n      swap2\n      swap1\n      pop\n      jump\t// out\n        /* \"#utility.yul\":10688:10996   */\n    tag_160:\n        /* \"#utility.yul\":10750:10754   */\n      0x00\n        /* \"#utility.yul\":10840:10858   */\n      0xffffffffffffffff\n        /* \"#utility.yul\":10832:10838   */\n      dup3\n        /* \"#utility.yul\":10829:10859   */\n      gt\n        /* \"#utility.yul\":10826:10882   */\n      iszero\n      tag_282\n      jumpi\n        /* \"#utility.yul\":10862:10880   */\n      tag_283\n      tag_157\n      jump\t// in\n    tag_283:\n        /* \"#utility.yul\":10826:10882   */\n    tag_282:\n        /* \"#utility.yul\":10900:10929   */\n      tag_284\n        /* \"#utility.yul\":10922:10928   */\n      dup3\n        /* \"#utility.yul\":10900:10929   */\n      tag_137\n      jump\t// in\n    tag_284:\n        /* \"#utility.yul\":10892:10929   */\n      swap1\n      pop\n        /* \"#utility.yul\":10984:10988   */\n      0x20\n        /* \"#utility.yul\":10978:10982   */\n      dup2\n        /* \"#utility.yul\":10974:10989   */\n      add\n        /* \"#utility.yul\":10966:10989   */\n      swap1\n      pop\n        /* \"#utility.yul\":10688:10996   */\n      swap2\n      swap1\n      pop\n      jump\t// out\n        /* \"#utility.yul\":11002:11148   */\n    tag_161:\n        /* \"#utility.yul\":11099:11105   */\n      dup3\n        /* \"#utility.yul\":11094:11097   */\n      dup2\n        /* \"#utility.yul\":11089:11092   */\n      dup4\n        /* \"#utility.yul\":11076:11106   */\n      calldatacopy\n        /* \"#utility.yul\":11140:11141   */\n      0x00\n        /* \"#utility.yul\":11131:11137   */\n      dup4\n        /* \"#utility.yul\":11126:11129   */\n      dup4\n        /* \"#utility.yul\":11122:11138   */\n      add\n        /* \"#utility.yul\":11115:11142   */\n      mstore\n        /* \"#utility.yul\":11002:11148   */\n      pop\n      pop\n      pop\n      jump\t// out\n        /* \"#utility.yul\":11154:11579   */\n    tag_162:\n        /* \"#utility.yul\":11232:11237   */\n      0x00\n        /* \"#utility.yul\":11257:11323   */\n      tag_287\n        /* \"#utility.yul\":11273:11322   */\n      tag_288\n        /* \"#utility.yul\":11315:11321   */\n      dup5\n        /* \"#utility.yul\":11273:11322   */\n      tag_160\n      jump\t// in\n    tag_288:\n        /* \"#utility.yul\":11257:11323   */\n      tag_159\n      jump\t// in\n    tag_287:\n        /* \"#utility.yul\":11248:11323   */\n      swap1\n      pop\n        /* \"#utility.yul\":11346:11352   */\n      dup3\n        /* \"#utility.yul\":11339:11344   */\n      dup2\n        /* \"#utility.yul\":11332:11353   */\n      mstore\n        /* \"#utility.yul\":11384:11388   */\n      0x20\n        /* \"#utility.yul\":11377:11382   */\n      dup2\n        /* \"#utility.yul\":11373:11389   */\n      add\n        /* \"#utility.yul\":11422:11425   */\n      dup5\n        /* \"#utility.yul\":11413:11419   */\n      dup5\n        /* \"#utility.yul\":11408:11411   */\n      dup5\n        /* \"#utility.yul\":11404:11420   */\n      add\n        /* \"#utility.yul\":11401:11426   */\n      gt\n        /* \"#utility.yul\":11398:11510   */\n      iszero\n      tag_289\n      jumpi\n        /* \"#utility.yul\":11429:11508   */\n      tag_290\n      tag_156\n      jump\t// in\n    tag_290:\n        /* \"#utility.yul\":11398:11510   */\n    tag_289:\n        /* \"#utility.yul\":11519:11573   */\n      tag_291\n        /* \"#utility.yul\":11566:11572   */\n      dup5\n        /* \"#utility.yul\":11561:11564   */\n      dup3\n        /* \"#utility.yul\":11556:11559   */\n      dup6\n        /* \"#utility.yul\":11519:11573   */\n      tag_161\n      jump\t// in\n    tag_291:\n        /* \"#utility.yul\":11238:11579   */\n      pop\n        /* \"#utility.yul\":11154:11579   */\n      swap4\n      swap3\n      pop\n      pop\n      pop\n      jump\t// out\n        /* \"#utility.yul\":11599:11939   */\n    tag_163:\n        /* \"#utility.yul\":11655:11660   */\n      0x00\n        /* \"#utility.yul\":11704:11707   */\n      dup3\n        /* \"#utility.yul\":11697:11701   */\n      0x1f\n        /* \"#utility.yul\":11689:11695   */\n      dup4\n        /* \"#utility.yul\":11685:11702   */\n      add\n        /* \"#utility.yul\":11681:11708   */\n      slt\n        /* \"#utility.yul\":11671:11793   */\n      tag_293\n      jumpi\n        /* \"#utility.yul\":11712:11791   */\n      tag_294\n      tag_155\n      jump\t// in\n    tag_294:\n        /* \"#utility.yul\":11671:11793   */\n    tag_293:\n        /* \"#utility.yul\":11829:11835   */\n      dup2\n        /* \"#utility.yul\":11816:11836   */\n      calldataload\n        /* \"#utility.yul\":11854:11933   */\n      tag_295\n        /* \"#utility.yul\":11929:11932   */\n      dup5\n        /* \"#utility.yul\":11921:11927   */\n      dup3\n        /* \"#utility.yul\":11914:11918   */\n      0x20\n        /* \"#utility.yul\":11906:11912   */\n      dup7\n        /* \"#utility.yul\":11902:11919   */\n      add\n        /* \"#utility.yul\":11854:11933   */\n      tag_162\n      jump\t// in\n    tag_295:\n        /* \"#utility.yul\":11845:11933   */\n      swap2\n      pop\n        /* \"#utility.yul\":11661:11939   */\n      pop\n        /* \"#utility.yul\":11599:11939   */\n      swap3\n      swap2\n      pop\n      pop\n      jump\t// out\n        /* \"#utility.yul\":11945:12454   */\n    tag_30:\n        /* \"#utility.yul\":12014:12020   */\n      0x00\n        /* \"#utility.yul\":12063:12065   */\n      0x20\n        /* \"#utility.yul\":12051:12060   */\n      dup3\n        /* \"#utility.yul\":12042:12049   */\n      dup5\n        /* \"#utility.yul\":12038:12061   */\n      sub\n        /* \"#utility.yul\":12034:12066   */\n      slt\n        /* \"#utility.yul\":12031:12150   */\n      iszero\n      tag_297\n      jumpi\n        /* \"#utility.yul\":12069:12148   */\n      tag_298\n      tag_125\n      jump\t// in\n    tag_298:\n        /* \"#utility.yul\":12031:12150   */\n    tag_297:\n        /* \"#utility.yul\":12217:12218   */\n      0x00\n        /* \"#utility.yul\":12206:12215   */\n      dup3\n        /* \"#utility.yul\":12202:12219   */\n      add\n        /* \"#utility.yul\":12189:12220   */\n      calldataload\n        /* \"#utility.yul\":12247:12265   */\n      0xffffffffffffffff\n        /* \"#utility.yul\":12239:12245   */\n      dup2\n        /* \"#utility.yul\":12236:12266   */\n      gt\n        /* \"#utility.yul\":12233:12350   */\n      iszero\n      tag_299\n      jumpi\n        /* \"#utility.yul\":12269:12348   */\n      tag_300\n      tag_126\n      jump\t// in\n    tag_300:\n        /* \"#utility.yul\":12233:12350   */\n    tag_299:\n        /* \"#utility.yul\":12374:12437   */\n      tag_301\n        /* \"#utility.yul\":12429:12436   */\n      dup5\n        /* \"#utility.yul\":12420:12426   */\n      dup3\n        /* \"#utility.yul\":12409:12418   */\n      dup6\n        /* \"#utility.yul\":12405:12427   */\n      add\n        /* \"#utility.yul\":12374:12437   */\n      tag_163\n      jump\t// in\n    tag_301:\n        /* \"#utility.yul\":12364:12437   */\n      swap2\n      pop\n        /* \"#utility.yul\":12160:12447   */\n      pop\n        /* \"#utility.yul\":11945:12454   */\n      swap3\n      swap2\n      pop\n      pop\n      jump\t// out\n        /* \"#utility.yul\":12460:12789   */\n    tag_34:\n        /* \"#utility.yul\":12519:12525   */\n      0x00\n        /* \"#utility.yul\":12568:12570   */\n      0x20\n        /* \"#utility.yul\":12556:12565   */\n      dup3\n        /* \"#utility.yul\":12547:12554   */\n      dup5\n        /* \"#utility.yul\":12543:12566   */\n      sub\n        /* \"#utility.yul\":12539:12571   */\n      slt\n        /* \"#utility.yul\":12536:12655   */\n      iszero\n      tag_303\n      jumpi\n        /* \"#utility.yul\":12574:12653   */\n      tag_304\n      tag_125\n      jump\t// in\n    tag_304:\n        /* \"#utility.yul\":12536:12655   */\n    tag_303:\n        /* \"#utility.yul\":12694:12695   */\n      0x00\n        /* \"#utility.yul\":12719:12772   */\n      tag_305\n        /* \"#utility.yul\":12764:12771   */\n      dup5\n        /* \"#utility.yul\":12755:12761   */\n      dup3\n        /* \"#utility.yul\":12744:12753   */\n      dup6\n        /* \"#utility.yul\":12740:12762   */\n      add\n        /* \"#utility.yul\":12719:12772   */\n      tag_133\n      jump\t// in\n    tag_305:\n        /* \"#utility.yul\":12709:12772   */\n      swap2\n      pop\n        /* \"#utility.yul\":12665:12782   */\n      pop\n        /* \"#utility.yul\":12460:12789   */\n      swap3\n      swap2\n      pop\n      pop\n      jump\t// out\n        /* \"#utility.yul\":12795:12975   */\n    tag_164:\n        /* \"#utility.yul\":12843:12920   */\n      0x4e487b7100000000000000000000000000000000000000000000000000000000\n        /* \"#utility.yul\":12840:12841   */\n      0x00\n        /* \"#utility.yul\":12833:12921   */\n      mstore\n        /* \"#utility.yul\":12940:12944   */\n      0x11\n        /* \"#utility.yul\":12937:12938   */\n      0x04\n        /* \"#utility.yul\":12930:12945   */\n      mstore\n        /* \"#utility.yul\":12964:12968   */\n      0x24\n        /* \"#utility.yul\":12961:12962   */\n      0x00\n        /* \"#utility.yul\":12954:12969   */\n      revert\n        /* \"#utility.yul\":12981:13175   */\n    tag_38:\n        /* \"#utility.yul\":13021:13025   */\n      0x00\n        /* \"#utility.yul\":13041:13061   */\n      tag_308\n        /* \"#utility.yul\":13059:13060   */\n      dup3\n        /* \"#utility.yul\":13041:13061   */\n      tag_131\n      jump\t// in\n    tag_308:\n        /* \"#utility.yul\":13036:13061   */\n      swap2\n      pop\n        /* \"#utility.yul\":13075:13095   */\n      tag_309\n        /* \"#utility.yul\":13093:13094   */\n      dup4\n        /* \"#utility.yul\":13075:13095   */\n      tag_131\n      jump\t// in\n    tag_309:\n        /* \"#utility.yul\":13070:13095   */\n      swap3\n      pop\n        /* \"#utility.yul\":13119:13120   */\n      dup3\n        /* \"#utility.yul\":13116:13117   */\n      dup3\n        /* \"#utility.yul\":13112:13121   */\n      sub\n        /* \"#utility.yul\":13104:13121   */\n      swap1\n      pop\n        /* \"#utility.yul\":13143:13144   */\n      dup2\n        /* \"#utility.yul\":13137:13141   */\n      dup2\n        /* \"#utility.yul\":13134:13145   */\n      gt\n        /* \"#utility.yul\":13131:13168   */\n      iszero\n      tag_310\n      jumpi\n        /* \"#utility.yul\":13148:13166   */\n      tag_311\n      tag_164\n      jump\t// in\n    tag_311:\n        /* \"#utility.yul\":13131:13168   */\n    tag_310:\n        /* \"#utility.yul\":12981:13175   */\n      swap3\n      swap2\n      pop\n      pop\n      jump\t// out\n        /* \"#utility.yul\":13181:13361   */\n    tag_41:\n        /* \"#utility.yul\":13229:13306   */\n      0x4e487b7100000000000000000000000000000000000000000000000000000000\n        /* \"#utility.yul\":13226:13227   */\n      0x00\n        /* \"#utility.yul\":13219:13307   */\n      mstore\n        /* \"#utility.yul\":13326:13330   */\n      0x32\n        /* \"#utility.yul\":13323:13324   */\n      0x04\n        /* \"#utility.yul\":13316:13331   */\n      mstore\n        /* \"#utility.yul\":13350:13354   */\n      0x24\n        /* \"#utility.yul\":13347:13348   */\n      0x00\n        /* \"#utility.yul\":13340:13355   */\n      revert\n        /* \"#utility.yul\":13367:13600   */\n    tag_49:\n        /* \"#utility.yul\":13406:13409   */\n      0x00\n        /* \"#utility.yul\":13429:13453   */\n      tag_314\n        /* \"#utility.yul\":13447:13452   */\n      dup3\n        /* \"#utility.yul\":13429:13453   */\n      tag_131\n      jump\t// in\n    tag_314:\n        /* \"#utility.yul\":13420:13453   */\n      swap2\n      pop\n        /* \"#utility.yul\":13475:13541   */\n      0xffffffffffffffffffffffffffffffffffffffffffffffffffffffffffffffff\n        /* \"#utility.yul\":13468:13473   */\n      dup3\n        /* \"#utility.yul\":13465:13542   */\n      sub\n        /* \"#utility.yul\":13462:13565   */\n      tag_315\n      jumpi\n        /* \"#utility.yul\":13545:13563   */\n      tag_316\n      tag_164\n      jump\t// in\n    tag_316:\n        /* \"#utility.yul\":13462:13565   */\n    tag_315:\n        /* \"#utility.yul\":13592:13593   */\n      0x01\n        /* \"#utility.yul\":13585:13590   */\n      dup3\n        /* \"#utility.yul\":13581:13594   */\n      add\n        /* \"#utility.yul\":13574:13594   */\n      swap1\n      pop\n        /* \"#utility.yul\":13367:13600   */\n      swap2\n      swap1\n      pop\n      jump\t// out\n        /* \"#utility.yul\":13606:13786   */\n    tag_165:\n        /* \"#utility.yul\":13654:13731   */\n      0x4e487b7100000000000000000000000000000000000000000000000000000000\n        /* \"#utility.yul\":13651:13652   */\n      0x00\n        /* \"#utility.yul\":13644:13732   */\n      mstore\n        /* \"#utility.yul\":13751:13755   */\n      0x22\n        /* \"#utility.yul\":13748:13749   */\n      0x04\n        /* \"#utility.yul\":13741:13756   */\n      mstore\n        /* \"#utility.yul\":13775:13779   */\n      0x24\n        /* \"#utility.yul\":13772:13773   */\n      0x00\n        /* \"#utility.yul\":13765:13780   */\n      revert\n        /* \"#utility.yul\":13792:14112   */\n    tag_58:\n        /* \"#utility.yul\":13836:13842   */\n      0x00\n        /* \"#utility.yul\":13873:13874   */\n      0x02\n        /* \"#utility.yul\":13867:13871   */\n      dup3\n        /* \"#utility.yul\":13863:13875   */\n      div\n        /* \"#utility.yul\":13853:13875   */\n      swap1\n      pop\n        /* \"#utility.yul\":13920:13921   */\n      0x01\n        /* \"#utility.yul\":13914:13918   */\n      dup3\n        /* \"#utility.yul\":13910:13922   */\n      and\n        /* \"#utility.yul\":13941:13959   */\n      dup1\n        /* \"#utility.yul\":13931:14012   */\n      tag_319\n      jumpi\n        /* \"#utility.yul\":13997:14001   */\n      0x7f\n        /* \"#utility.yul\":13989:13995   */\n      dup3\n        /* \"#utility.yul\":13985:14002   */\n      and\n        /* \"#utility.yul\":13975:14002   */\n      swap2\n      pop\n        /* \"#utility.yul\":13931:14012   */\n    tag_319:\n        /* \"#utility.yul\":14059:14061   */\n      0x20\n        /* \"#utility.yul\":14051:14057   */\n      dup3\n        /* \"#utility.yul\":14048:14062   */\n      lt\n        /* \"#utility.yul\":14028:14046   */\n      dup2\n        /* \"#utility.yul\":14025:14063   */\n      sub\n        /* \"#utility.yul\":14022:14106   */\n      tag_320\n      jumpi\n        /* \"#utility.yul\":14078:14096   */\n      tag_321\n      tag_165\n      jump\t// in\n    tag_321:\n        /* \"#utility.yul\":14022:14106   */\n    tag_320:\n        /* \"#utility.yul\":13843:14112   */\n      pop\n        /* \"#utility.yul\":13792:14112   */\n      swap2\n      swap1\n      pop\n      jump\t// out\n        /* \"#utility.yul\":14118:14298   */\n    tag_79:\n        /* \"#utility.yul\":14166:14243   */\n      0x4e487b7100000000000000000000000000000000000000000000000000000000\n        /* \"#utility.yul\":14163:14164   */\n      0x00\n        /* \"#utility.yul\":14156:14244   */\n      mstore\n        /* \"#utility.yul\":14263:14267   */\n      0x31\n        /* \"#utility.yul\":14260:14261   */\n      0x04\n        /* \"#utility.yul\":14253:14268   */\n      mstore\n        /* \"#utility.yul\":14287:14291   */\n      0x24\n        /* \"#utility.yul\":14284:14285   */\n      0x00\n        /* \"#utility.yul\":14277:14292   */\n      revert\n        /* \"#utility.yul\":14304:14473   */\n    tag_166:\n        /* \"#utility.yul\":14388:14399   */\n      0x00\n        /* \"#utility.yul\":14422:14428   */\n      dup3\n        /* \"#utility.yul\":14417:14420   */\n      dup3\n        /* \"#utility.yul\":14410:14429   */\n      mstore\n        /* \"#utility.yul\":14462:14466   */\n      0x20\n        /* \"#utility.yul\":14457:14460   */\n      dup3\n        /* \"#utility.yul\":14453:14467   */\n      add\n        /* \"#utility.yul\":14438:14467   */\n      swap1\n      pop\n        /* \"#utility.yul\":14304:14473   */\n      swap3\n      swap2\n      pop\n      pop\n      jump\t// out\n        /* \"#utility.yul\":14479:14652   */\n    tag_167:\n        /* \"#utility.yul\":14619:14644   */\n      0x5477656574204c656e6774682069732045786365656421000000000000000000\n        /* \"#utility.yul\":14615:14616   */\n      0x00\n        /* \"#utility.yul\":14607:14613   */\n      dup3\n        /* \"#utility.yul\":14603:14617   */\n      add\n        /* \"#utility.yul\":14596:14645   */\n      mstore\n        /* \"#utility.yul\":14479:14652   */\n      pop\n      jump\t// out\n        /* \"#utility.yul\":14658:15024   */\n    tag_168:\n        /* \"#utility.yul\":14800:14803   */\n      0x00\n        /* \"#utility.yul\":14821:14888   */\n      tag_326\n        /* \"#utility.yul\":14885:14887   */\n      0x17\n        /* \"#utility.yul\":14880:14883   */\n      dup4\n        /* \"#utility.yul\":14821:14888   */\n      tag_166\n      jump\t// in\n    tag_326:\n        /* \"#utility.yul\":14814:14888   */\n      swap2\n      pop\n        /* \"#utility.yul\":14897:14990   */\n      tag_327\n        /* \"#utility.yul\":14986:14989   */\n      dup3\n        /* \"#utility.yul\":14897:14990   */\n      tag_167\n      jump\t// in\n    tag_327:\n        /* \"#utility.yul\":15015:15017   */\n      0x20\n        /* \"#utility.yul\":15010:15013   */\n      dup3\n        /* \"#utility.yul\":15006:15018   */\n      add\n        /* \"#utility.yul\":14999:15018   */\n      swap1\n      pop\n        /* \"#utility.yul\":14658:15024   */\n      swap2\n      swap1\n      pop\n      jump\t// out\n        /* \"#utility.yul\":15030:15449   */\n    tag_91:\n        /* \"#utility.yul\":15196:15200   */\n      0x00\n        /* \"#utility.yul\":15234:15236   */\n      0x20\n        /* \"#utility.yul\":15223:15232   */\n      dup3\n        /* \"#utility.yul\":15219:15237   */\n      add\n        /* \"#utility.yul\":15211:15237   */\n      swap1\n      pop\n        /* \"#utility.yul\":15283:15292   */\n      dup2\n        /* \"#utility.yul\":15277:15281   */\n      dup2\n        /* \"#utility.yul\":15273:15293   */\n      sub\n        /* \"#utility.yul\":15269:15270   */\n      0x00\n        /* \"#utility.yul\":15258:15267   */\n      dup4\n        /* \"#utility.yul\":15254:15271   */\n      add\n        /* \"#utility.yul\":15247:15294   */\n      mstore\n        /* \"#utility.yul\":15311:15442   */\n      tag_329\n        /* \"#utility.yul\":15437:15441   */\n      dup2\n        /* \"#utility.yul\":15311:15442   */\n      tag_168\n      jump\t// in\n    tag_329:\n        /* \"#utility.yul\":15303:15442   */\n      swap1\n      pop\n        /* \"#utility.yul\":15030:15449   */\n      swap2\n      swap1\n      pop\n      jump\t// out\n        /* \"#utility.yul\":15455:15596   */\n    tag_169:\n        /* \"#utility.yul\":15504:15508   */\n      0x00\n        /* \"#utility.yul\":15527:15530   */\n      dup2\n        /* \"#utility.yul\":15519:15530   */\n      swap1\n      pop\n        /* \"#utility.yul\":15550:15553   */\n      dup2\n        /* \"#utility.yul\":15547:15548   */\n      0x00\n        /* \"#utility.yul\":15540:15554   */\n      mstore\n        /* \"#utility.yul\":15584:15588   */\n      0x20\n        /* \"#utility.yul\":15581:15582   */\n      0x00\n        /* \"#utility.yul\":15571:15589   */\n      keccak256\n        /* \"#utility.yul\":15563:15589   */\n      swap1\n      pop\n        /* \"#utility.yul\":15455:15596   */\n      swap2\n      swap1\n      pop\n      jump\t// out\n        /* \"#utility.yul\":15602:15695   */\n    tag_170:\n        /* \"#utility.yul\":15639:15645   */\n      0x00\n        /* \"#utility.yul\":15686:15688   */\n      0x20\n        /* \"#utility.yul\":15681:15683   */\n      0x1f\n        /* \"#utility.yul\":15674:15679   */\n      dup4\n        /* \"#utility.yul\":15670:15684   */\n      add\n        /* \"#utility.yul\":15666:15689   */\n      div\n        /* \"#utility.yul\":15656:15689   */\n      swap1\n      pop\n        /* \"#utility.yul\":15602:15695   */\n      swap2\n      swap1\n      pop\n      jump\t// out\n        /* \"#utility.yul\":15701:15808   */\n    tag_171:\n        /* \"#utility.yul\":15745:15753   */\n      0x00\n        /* \"#utility.yul\":15795:15800   */\n      dup3\n        /* \"#utility.yul\":15789:15793   */\n      dup3\n        /* \"#utility.yul\":15785:15801   */\n      shl\n        /* \"#utility.yul\":15764:15801   */\n      swap1\n      pop\n        /* \"#utility.yul\":15701:15808   */\n      swap3\n      swap2\n      pop\n      pop\n      jump\t// out\n        /* \"#utility.yul\":15814:16207   */\n    tag_172:\n        /* \"#utility.yul\":15883:15889   */\n      0x00\n        /* \"#utility.yul\":15933:15934   */\n      0x08\n        /* \"#utility.yul\":15921:15931   */\n      dup4\n        /* \"#utility.yul\":15917:15935   */\n      mul\n        /* \"#utility.yul\":15956:16053   */\n      tag_334\n        /* \"#utility.yul\":15986:16052   */\n      0xffffffffffffffffffffffffffffffffffffffffffffffffffffffffffffffff\n        /* \"#utility.yul\":15975:15984   */\n      dup3\n        /* \"#utility.yul\":15956:16053   */\n      tag_171\n      jump\t// in\n    tag_334:\n        /* \"#utility.yul\":16074:16113   */\n      tag_335\n        /* \"#utility.yul\":16104:16112   */\n      dup7\n        /* \"#utility.yul\":16093:16102   */\n      dup4\n        /* \"#utility.yul\":16074:16113   */\n      tag_171\n      jump\t// in\n    tag_335:\n        /* \"#utility.yul\":16062:16113   */\n      swap6\n      pop\n        /* \"#utility.yul\":16146:16150   */\n      dup1\n        /* \"#utility.yul\":16142:16151   */\n      not\n        /* \"#utility.yul\":16135:16140   */\n      dup5\n        /* \"#utility.yul\":16131:16152   */\n      and\n        /* \"#utility.yul\":16122:16152   */\n      swap4\n      pop\n        /* \"#utility.yul\":16195:16199   */\n      dup1\n        /* \"#utility.yul\":16185:16193   */\n      dup7\n        /* \"#utility.yul\":16181:16200   */\n      and\n        /* \"#utility.yul\":16174:16179   */\n      dup5\n        /* \"#utility.yul\":16171:16201   */\n      or\n        /* \"#utility.yul\":16161:16201   */\n      swap3\n      pop\n        /* \"#utility.yul\":15890:16207   */\n      pop\n      pop\n        /* \"#utility.yul\":15814:16207   */\n      swap4\n      swap3\n      pop\n      pop\n      pop\n      jump\t// out\n        /* \"#utility.yul\":16213:16273   */\n    tag_173:\n        /* \"#utility.yul\":16241:16244   */\n      0x00\n        /* \"#utility.yul\":16262:16267   */\n      dup2\n        /* \"#utility.yul\":16255:16267   */\n      swap1\n      pop\n        /* \"#utility.yul\":16213:16273   */\n      swap2\n      swap1\n      pop\n      jump\t// out\n        /* \"#utility.yul\":16279:16421   */\n    tag_174:\n        /* \"#utility.yul\":16329:16338   */\n      0x00\n        /* \"#utility.yul\":16362:16415   */\n      tag_338\n        /* \"#utility.yul\":16380:16414   */\n      tag_339\n        /* \"#utility.yul\":16389:16413   */\n      tag_340\n        /* \"#utility.yul\":16407:16412   */\n      dup5\n        /* \"#utility.yul\":16389:16413   */\n      tag_131\n      jump\t// in\n    tag_340:\n        /* \"#utility.yul\":16380:16414   */\n      tag_173\n      jump\t// in\n    tag_339:\n        /* \"#utility.yul\":16362:16415   */\n      tag_131\n      jump\t// in\n    tag_338:\n        /* \"#utility.yul\":16349:16415   */\n      swap1\n      pop\n        /* \"#utility.yul\":16279:16421   */\n      swap2\n      swap1\n      pop\n      jump\t// out\n        /* \"#utility.yul\":16427:16502   */\n    tag_175:\n        /* \"#utility.yul\":16470:16473   */\n      0x00\n        /* \"#utility.yul\":16491:16496   */\n      dup2\n        /* \"#utility.yul\":16484:16496   */\n      swap1\n      pop\n        /* \"#utility.yul\":16427:16502   */\n      swap2\n      swap1\n      pop\n      jump\t// out\n        /* \"#utility.yul\":16508:16777   */\n    tag_176:\n        /* \"#utility.yul\":16618:16657   */\n      tag_343\n        /* \"#utility.yul\":16649:16656   */\n      dup4\n        /* \"#utility.yul\":16618:16657   */\n      tag_174\n      jump\t// in\n    tag_343:\n        /* \"#utility.yul\":16679:16770   */\n      tag_344\n        /* \"#utility.yul\":16728:16769   */\n      tag_345\n        /* \"#utility.yul\":16752:16768   */\n      dup3\n        /* \"#utility.yul\":16728:16769   */\n      tag_175\n      jump\t// in\n    tag_345:\n        /* \"#utility.yul\":16720:16726   */\n      dup5\n        /* \"#utility.yul\":16713:16717   */\n      dup5\n        /* \"#utility.yul\":16707:16718   */\n      sload\n        /* \"#utility.yul\":16679:16770   */\n      tag_172\n      jump\t// in\n    tag_344:\n        /* \"#utility.yul\":16673:16677   */\n      dup3\n        /* \"#utility.yul\":16666:16771   */\n      sstore\n        /* \"#utility.yul\":16584:16777   */\n      pop\n        /* \"#utility.yul\":16508:16777   */\n      pop\n      pop\n      pop\n      jump\t// out\n        /* \"#utility.yul\":16783:16856   */\n    tag_177:\n        /* \"#utility.yul\":16828:16831   */\n      0x00\n        /* \"#utility.yul\":16783:16856   */\n      swap1\n      jump\t// out\n        /* \"#utility.yul\":16862:17051   */\n    tag_178:\n        /* \"#utility.yul\":16939:16971   */\n      tag_348\n      tag_177\n      jump\t// in\n    tag_348:\n        /* \"#utility.yul\":16980:17045   */\n      tag_349\n        /* \"#utility.yul\":17038:17044   */\n      dup2\n        /* \"#utility.yul\":17030:17036   */\n      dup5\n        /* \"#utility.yul\":17024:17028   */\n      dup5\n        /* \"#utility.yul\":16980:17045   */\n      tag_176\n      jump\t// in\n    tag_349:\n        /* \"#utility.yul\":16915:17051   */\n      pop\n        /* \"#utility.yul\":16862:17051   */\n      pop\n      pop\n      jump\t// out\n        /* \"#utility.yul\":17057:17243   */\n    tag_179:\n        /* \"#utility.yul\":17117:17237   */\n    tag_351:\n        /* \"#utility.yul\":17134:17137   */\n      dup2\n        /* \"#utility.yul\":17127:17132   */\n      dup2\n        /* \"#utility.yul\":17124:17138   */\n      lt\n        /* \"#utility.yul\":17117:17237   */\n      iszero\n      tag_353\n      jumpi\n        /* \"#utility.yul\":17188:17227   */\n      tag_354\n        /* \"#utility.yul\":17225:17226   */\n      0x00\n        /* \"#utility.yul\":17218:17223   */\n      dup3\n        /* \"#utility.yul\":17188:17227   */\n      tag_178\n      jump\t// in\n    tag_354:\n        /* \"#utility.yul\":17161:17162   */\n      0x01\n        /* \"#utility.yul\":17154:17159   */\n      dup2\n        /* \"#utility.yul\":17150:17163   */\n      add\n        /* \"#utility.yul\":17141:17163   */\n      swap1\n      pop\n        /* \"#utility.yul\":17117:17237   */\n      jump(tag_351)\n    tag_353:\n        /* \"#utility.yul\":17057:17243   */\n      pop\n      pop\n      jump\t// out\n        /* \"#utility.yul\":17249:17792   */\n    tag_180:\n        /* \"#utility.yul\":17350:17352   */\n      0x1f\n        /* \"#utility.yul\":17345:17348   */\n      dup3\n        /* \"#utility.yul\":17342:17353   */\n      gt\n        /* \"#utility.yul\":17339:17785   */\n      iszero\n      tag_356\n      jumpi\n        /* \"#utility.yul\":17384:17422   */\n      tag_357\n        /* \"#utility.yul\":17416:17421   */\n      dup2\n        /* \"#utility.yul\":17384:17422   */\n      tag_169\n      jump\t// in\n    tag_357:\n        /* \"#utility.yul\":17468:17497   */\n      tag_358\n        /* \"#utility.yul\":17486:17496   */\n      dup5\n        /* \"#utility.yul\":17468:17497   */\n      tag_170\n      jump\t// in\n    tag_358:\n        /* \"#utility.yul\":17458:17466   */\n      dup2\n        /* \"#utility.yul\":17454:17498   */\n      add\n        /* \"#utility.yul\":17651:17653   */\n      0x20\n        /* \"#utility.yul\":17639:17649   */\n      dup6\n        /* \"#utility.yul\":17636:17654   */\n      lt\n        /* \"#utility.yul\":17633:17682   */\n      iszero\n      tag_359\n      jumpi\n        /* \"#utility.yul\":17672:17680   */\n      dup2\n        /* \"#utility.yul\":17657:17680   */\n      swap1\n      pop\n        /* \"#utility.yul\":17633:17682   */\n    tag_359:\n        /* \"#utility.yul\":17695:17775   */\n      tag_360\n        /* \"#utility.yul\":17751:17773   */\n      tag_361\n        /* \"#utility.yul\":17769:17772   */\n      dup6\n        /* \"#utility.yul\":17751:17773   */\n      tag_170\n      jump\t// in\n    tag_361:\n        /* \"#utility.yul\":17741:17749   */\n      dup4\n        /* \"#utility.yul\":17737:17774   */\n      add\n        /* \"#utility.yul\":17724:17735   */\n      dup3\n        /* \"#utility.yul\":17695:17775   */\n      tag_179\n      jump\t// in\n    tag_360:\n        /* \"#utility.yul\":17354:17785   */\n      pop\n      pop\n        /* \"#utility.yul\":17339:17785   */\n    tag_356:\n        /* \"#utility.yul\":17249:17792   */\n      pop\n      pop\n      pop\n      jump\t// out\n        /* \"#utility.yul\":17798:17915   */\n    tag_181:\n        /* \"#utility.yul\":17852:17860   */\n      0x00\n        /* \"#utility.yul\":17902:17907   */\n      dup3\n        /* \"#utility.yul\":17896:17900   */\n      dup3\n        /* \"#utility.yul\":17892:17908   */\n      shr\n        /* \"#utility.yul\":17871:17908   */\n      swap1\n      pop\n        /* \"#utility.yul\":17798:17915   */\n      swap3\n      swap2\n      pop\n      pop\n      jump\t// out\n        /* \"#utility.yul\":17921:18090   */\n    tag_182:\n        /* \"#utility.yul\":17965:17971   */\n      0x00\n        /* \"#utility.yul\":17998:18049   */\n      tag_364\n        /* \"#utility.yul\":18046:18047   */\n      0x00\n        /* \"#utility.yul\":18042:18048   */\n      not\n        /* \"#utility.yul\":18034:18039   */\n      dup5\n        /* \"#utility.yul\":18031:18032   */\n      0x08\n        /* \"#utility.yul\":18027:18040   */\n      mul\n        /* \"#utility.yul\":17998:18049   */\n      tag_181\n      jump\t// in\n    tag_364:\n        /* \"#utility.yul\":17994:18050   */\n      not\n        /* \"#utility.yul\":18079:18083   */\n      dup1\n        /* \"#utility.yul\":18073:18077   */\n      dup4\n        /* \"#utility.yul\":18069:18084   */\n      and\n        /* \"#utility.yul\":18059:18084   */\n      swap2\n      pop\n        /* \"#utility.yul\":17972:18090   */\n      pop\n        /* \"#utility.yul\":17921:18090   */\n      swap3\n      swap2\n      pop\n      pop\n      jump\t// out\n        /* \"#utility.yul\":18095:18390   */\n    tag_183:\n        /* \"#utility.yul\":18171:18175   */\n      0x00\n        /* \"#utility.yul\":18317:18346   */\n      tag_366\n        /* \"#utility.yul\":18342:18345   */\n      dup4\n        /* \"#utility.yul\":18336:18340   */\n      dup4\n        /* \"#utility.yul\":18317:18346   */\n      tag_182\n      jump\t// in\n    tag_366:\n        /* \"#utility.yul\":18309:18346   */\n      swap2\n      pop\n        /* \"#utility.yul\":18379:18382   */\n      dup3\n        /* \"#utility.yul\":18376:18377   */\n      0x02\n        /* \"#utility.yul\":18372:18383   */\n      mul\n        /* \"#utility.yul\":18366:18370   */\n      dup3\n        /* \"#utility.yul\":18363:18384   */\n      or\n        /* \"#utility.yul\":18355:18384   */\n      swap1\n      pop\n        /* \"#utility.yul\":18095:18390   */\n      swap3\n      swap2\n      pop\n      pop\n      jump\t// out\n        /* \"#utility.yul\":18395:19790   */\n    tag_96:\n        /* \"#utility.yul\":18512:18549   */\n      tag_368\n        /* \"#utility.yul\":18545:18548   */\n      dup3\n        /* \"#utility.yul\":18512:18549   */\n      tag_134\n      jump\t// in\n    tag_368:\n        /* \"#utility.yul\":18614:18632   */\n      0xffffffffffffffff\n        /* \"#utility.yul\":18606:18612   */\n      dup2\n        /* \"#utility.yul\":18603:18633   */\n      gt\n        /* \"#utility.yul\":18600:18656   */\n      iszero\n      tag_369\n      jumpi\n        /* \"#utility.yul\":18636:18654   */\n      tag_370\n      tag_157\n      jump\t// in\n    tag_370:\n        /* \"#utility.yul\":18600:18656   */\n    tag_369:\n        /* \"#utility.yul\":18680:18718   */\n      tag_371\n        /* \"#utility.yul\":18712:18716   */\n      dup3\n        /* \"#utility.yul\":18706:18717   */\n      sload\n        /* \"#utility.yul\":18680:18718   */\n      tag_58\n      jump\t// in\n    tag_371:\n        /* \"#utility.yul\":18765:18832   */\n      tag_372\n        /* \"#utility.yul\":18825:18831   */\n      dup3\n        /* \"#utility.yul\":18817:18823   */\n      dup3\n        /* \"#utility.yul\":18811:18815   */\n      dup6\n        /* \"#utility.yul\":18765:18832   */\n      tag_180\n      jump\t// in\n    tag_372:\n        /* \"#utility.yul\":18859:18860   */\n      0x00\n        /* \"#utility.yul\":18883:18887   */\n      0x20\n        /* \"#utility.yul\":18870:18887   */\n      swap1\n      pop\n        /* \"#utility.yul\":18915:18917   */\n      0x1f\n        /* \"#utility.yul\":18907:18913   */\n      dup4\n        /* \"#utility.yul\":18904:18918   */\n      gt\n        /* \"#utility.yul\":18932:18933   */\n      0x01\n        /* \"#utility.yul\":18927:19545   */\n      dup2\n      eq\n      tag_374\n      jumpi\n        /* \"#utility.yul\":19589:19590   */\n      0x00\n        /* \"#utility.yul\":19606:19612   */\n      dup5\n        /* \"#utility.yul\":19603:19680   */\n      iszero\n      tag_375\n      jumpi\n        /* \"#utility.yul\":19655:19664   */\n      dup3\n        /* \"#utility.yul\":19650:19653   */\n      dup8\n        /* \"#utility.yul\":19646:19665   */\n      add\n        /* \"#utility.yul\":19640:19666   */\n      mload\n        /* \"#utility.yul\":19631:19666   */\n      swap1\n      pop\n        /* \"#utility.yul\":19603:19680   */\n    tag_375:\n        /* \"#utility.yul\":19706:19773   */\n      tag_376\n        /* \"#utility.yul\":19766:19772   */\n      dup6\n        /* \"#utility.yul\":19759:19764   */\n      dup3\n        /* \"#utility.yul\":19706:19773   */\n      tag_183\n      jump\t// in\n    tag_376:\n        /* \"#utility.yul\":19700:19704   */\n      dup7\n        /* \"#utility.yul\":19693:19774   */\n      sstore\n        /* \"#utility.yul\":19562:19784   */\n      pop\n        /* \"#utility.yul\":18897:19784   */\n      jump(tag_373)\n        /* \"#utility.yul\":18927:19545   */\n    tag_374:\n        /* \"#utility.yul\":18979:18983   */\n      0x1f\n        /* \"#utility.yul\":18975:18984   */\n      not\n        /* \"#utility.yul\":18967:18973   */\n      dup5\n        /* \"#utility.yul\":18963:18985   */\n      and\n        /* \"#utility.yul\":19013:19050   */\n      tag_377\n        /* \"#utility.yul\":19045:19049   */\n      dup7\n        /* \"#utility.yul\":19013:19050   */\n      tag_169\n      jump\t// in\n    tag_377:\n        /* \"#utility.yul\":19072:19073   */\n      0x00\n        /* \"#utility.yul\":19086:19294   */\n    tag_378:\n        /* \"#utility.yul\":19100:19107   */\n      dup3\n        /* \"#utility.yul\":19097:19098   */\n      dup2\n        /* \"#utility.yul\":19094:19108   */\n      lt\n        /* \"#utility.yul\":19086:19294   */\n      iszero\n      tag_380\n      jumpi\n        /* \"#utility.yul\":19179:19188   */\n      dup5\n        /* \"#utility.yul\":19174:19177   */\n      dup10\n        /* \"#utility.yul\":19170:19189   */\n      add\n        /* \"#utility.yul\":19164:19190   */\n      mload\n        /* \"#utility.yul\":19156:19162   */\n      dup3\n        /* \"#utility.yul\":19149:19191   */\n      sstore\n        /* \"#utility.yul\":19230:19231   */\n      0x01\n        /* \"#utility.yul\":19222:19228   */\n      dup3\n        /* \"#utility.yul\":19218:19232   */\n      add\n        /* \"#utility.yul\":19208:19232   */\n      swap2\n      pop\n        /* \"#utility.yul\":19277:19279   */\n      0x20\n        /* \"#utility.yul\":19266:19275   */\n      dup6\n        /* \"#utility.yul\":19262:19280   */\n      add\n        /* \"#utility.yul\":19249:19280   */\n      swap5\n      pop\n        /* \"#utility.yul\":19123:19127   */\n      0x20\n        /* \"#utility.yul\":19120:19121   */\n      dup2\n        /* \"#utility.yul\":19116:19128   */\n      add\n        /* \"#utility.yul\":19111:19128   */\n      swap1\n      pop\n        /* \"#utility.yul\":19086:19294   */\n      jump(tag_378)\n    tag_380:\n        /* \"#utility.yul\":19322:19328   */\n      dup7\n        /* \"#utility.yul\":19313:19320   */\n      dup4\n        /* \"#utility.yul\":19310:19329   */\n      lt\n        /* \"#utility.yul\":19307:19486   */\n      iszero\n      tag_381\n      jumpi\n        /* \"#utility.yul\":19380:19389   */\n      dup5\n        /* \"#utility.yul\":19375:19378   */\n      dup10\n        /* \"#utility.yul\":19371:19390   */\n      add\n        /* \"#utility.yul\":19365:19391   */\n      mload\n        /* \"#utility.yul\":19423:19471   */\n      tag_382\n        /* \"#utility.yul\":19465:19469   */\n      0x1f\n        /* \"#utility.yul\":19457:19463   */\n      dup10\n        /* \"#utility.yul\":19453:19470   */\n      and\n        /* \"#utility.yul\":19442:19451   */\n      dup3\n        /* \"#utility.yul\":19423:19471   */\n      tag_182\n      jump\t// in\n    tag_382:\n        /* \"#utility.yul\":19415:19421   */\n      dup4\n        /* \"#utility.yul\":19408:19472   */\n      sstore\n        /* \"#utility.yul\":19330:19486   */\n      pop\n        /* \"#utility.yul\":19307:19486   */\n    tag_381:\n        /* \"#utility.yul\":19532:19533   */\n      0x01\n        /* \"#utility.yul\":19528:19529   */\n      0x02\n        /* \"#utility.yul\":19520:19526   */\n      dup9\n        /* \"#utility.yul\":19516:19530   */\n      mul\n        /* \"#utility.yul\":19512:19534   */\n      add\n        /* \"#utility.yul\":19506:19510   */\n      dup9\n        /* \"#utility.yul\":19499:19535   */\n      sstore\n        /* \"#utility.yul\":18934:19545   */\n      pop\n      pop\n      pop\n        /* \"#utility.yul\":18897:19784   */\n    tag_373:\n      pop\n        /* \"#utility.yul\":18487:19790   */\n      pop\n      pop\n      pop\n        /* \"#utility.yul\":18395:19790   */\n      pop\n      pop\n      jump\t// out\n        /* \"#utility.yul\":19796:20021   */\n    tag_184:\n        /* \"#utility.yul\":19936:19970   */\n      0x596f7520617265206e6f742061204f776e6572215065726d697373696f6e2044\n        /* \"#utility.yul\":19932:19933   */\n      0x00\n        /* \"#utility.yul\":19924:19930   */\n      dup3\n        /* \"#utility.yul\":19920:19934   */\n      add\n        /* \"#utility.yul\":19913:19971   */\n      mstore\n        /* \"#utility.yul\":20005:20013   */\n      0x656e696564210000000000000000000000000000000000000000000000000000\n        /* \"#utility.yul\":20000:20002   */\n      0x20\n        /* \"#utility.yul\":19992:19998   */\n      dup3\n        /* \"#utility.yul\":19988:20003   */\n      add\n        /* \"#utility.yul\":19981:20014   */\n      mstore\n        /* \"#utility.yul\":19796:20021   */\n      pop\n      jump\t// out\n        /* \"#utility.yul\":20027:20393   */\n    tag_185:\n        /* \"#utility.yul\":20169:20172   */\n      0x00\n        /* \"#utility.yul\":20190:20257   */\n      tag_385\n        /* \"#utility.yul\":20254:20256   */\n      0x26\n        /* \"#utility.yul\":20249:20252   */\n      dup4\n        /* \"#utility.yul\":20190:20257   */\n      tag_166\n      jump\t// in\n    tag_385:\n        /* \"#utility.yul\":20183:20257   */\n      swap2\n      pop\n        /* \"#utility.yul\":20266:20359   */\n      tag_386\n        /* \"#utility.yul\":20355:20358   */\n      dup3\n        /* \"#utility.yul\":20266:20359   */\n      tag_184\n      jump\t// in\n    tag_386:\n        /* \"#utility.yul\":20384:20386   */\n      0x40\n        /* \"#utility.yul\":20379:20382   */\n      dup3\n        /* \"#utility.yul\":20375:20387   */\n      add\n        /* \"#utility.yul\":20368:20387   */\n      swap1\n      pop\n        /* \"#utility.yul\":20027:20393   */\n      swap2\n      swap1\n      pop\n      jump\t// out\n        /* \"#utility.yul\":20399:20818   */\n    tag_102:\n        /* \"#utility.yul\":20565:20569   */\n      0x00\n        /* \"#utility.yul\":20603:20605   */\n      0x20\n        /* \"#utility.yul\":20592:20601   */\n      dup3\n        /* \"#utility.yul\":20588:20606   */\n      add\n        /* \"#utility.yul\":20580:20606   */\n      swap1\n      pop\n        /* \"#utility.yul\":20652:20661   */\n      dup2\n        /* \"#utility.yul\":20646:20650   */\n      dup2\n        /* \"#utility.yul\":20642:20662   */\n      sub\n        /* \"#utility.yul\":20638:20639   */\n      0x00\n        /* \"#utility.yul\":20627:20636   */\n      dup4\n        /* \"#utility.yul\":20623:20640   */\n      add\n        /* \"#utility.yul\":20616:20663   */\n      mstore\n        /* \"#utility.yul\":20680:20811   */\n      tag_388\n        /* \"#utility.yul\":20806:20810   */\n      dup2\n        /* \"#utility.yul\":20680:20811   */\n      tag_185\n      jump\t// in\n    tag_388:\n        /* \"#utility.yul\":20672:20811   */\n      swap1\n      pop\n        /* \"#utility.yul\":20399:20818   */\n      swap2\n      swap1\n      pop\n      jump\t// out\n\n    auxdata: 0xa26469706673582212209ca47327093db34c92ce89a6fa9c172e23c8f792634beabe88aaf4d378681b2d64736f6c63430008120033\n}\n",
				"bytecode": {
					"linkReferences": {},
					"object": "6080604052600a60015534801561001557600080fd5b50336000806101000a81548173ffffffffffffffffffffffffffffffffffffffff021916908373ffffffffffffffffffffffffffffffffffffffff160217905550611771806100656000396000f3fe608060405234801561001057600080fd5b506004361061007d5760003560e01c806371e7eb121161005b57806371e7eb12146100ec578063765fab45146100f65780637c9cd2bc14610100578063e479c2441461011c5761007d565b80630362d52e1461008257806337f36a4c1461009e57806342d7fbc0146100ce575b600080fd5b61009c60048036038101906100979190610cfd565b610138565b005b6100b860048036038101906100b39190610cfd565b61028f565b6040516100c59190610f17565b60405180910390f35b6100d661049f565b6040516100e39190611078565b60405180910390f35b6100f46106c5565b005b6100fe610786565b005b61011a600480360381019061011591906111cf565b6107d3565b005b61013660048036038101906101319190611218565b6109de565b005b600360008373ffffffffffffffffffffffffffffffffffffffff1673ffffffffffffffffffffffffffffffffffffffff1681526020019081526020016000206001826101849190611274565b81548110610195576101946112a8565b5b9060005260206000209060050201600301339080600181540180825580915050600190039060005260206000200160009091909190916101000a81548173ffffffffffffffffffffffffffffffffffffffff021916908373ffffffffffffffffffffffffffffffffffffffff160217905550600360008373ffffffffffffffffffffffffffffffffffffffff1673ffffffffffffffffffffffffffffffffffffffff1681526020019081526020016000206001826102539190611274565b81548110610264576102636112a8565b5b90600052602060002090600502016004016000815480929190610286906112d7565b91905055505050565b610297610a76565b600360008473ffffffffffffffffffffffffffffffffffffffff1673ffffffffffffffffffffffffffffffffffffffff1681526020019081526020016000206001836102e39190611274565b815481106102f4576102f36112a8565b5b90600052602060002090600502016040518060a001604052908160008201805461031d9061134e565b80601f01602080910402602001604051908101604052809291908181526020018280546103499061134e565b80156103965780601f1061036b57610100808354040283529160200191610396565b820191906000526020600020905b81548152906001019060200180831161037957829003601f168201915b505050505081526020016001820160009054906101000a900473ffffffffffffffffffffffffffffffffffffffff1673ffffffffffffffffffffffffffffffffffffffff1673ffffffffffffffffffffffffffffffffffffffff168152602001600282015481526020016003820180548060200260200160405190810160405280929190818152602001828054801561048457602002820191906000526020600020905b8160009054906101000a900473ffffffffffffffffffffffffffffffffffffffff1673ffffffffffffffffffffffffffffffffffffffff168152602001906001019080831161043a575b50505050508152602001600482015481525050905092915050565b6060600360003373ffffffffffffffffffffffffffffffffffffffff1673ffffffffffffffffffffffffffffffffffffffff168152602001908152602001600020805480602002602001604051908101604052809291908181526020016000905b828210156106bc57838290600052602060002090600502016040518060a00160405290816000820180546105339061134e565b80601f016020809104026020016040519081016040528092919081815260200182805461055f9061134e565b80156105ac5780601f10610581576101008083540402835291602001916105ac565b820191906000526020600020905b81548152906001019060200180831161058f57829003601f168201915b505050505081526020016001820160009054906101000a900473ffffffffffffffffffffffffffffffffffffffff1673ffffffffffffffffffffffffffffffffffffffff1673ffffffffffffffffffffffffffffffffffffffff168152602001600282015481526020016003820180548060200260200160405190810160405280929190818152602001828054801561069a57602002820191906000526020600020905b8160009054906101000a900473ffffffffffffffffffffffffffffffffffffffff1673ffffffffffffffffffffffffffffffffffffffff1681526020019060010190808311610650575b5050505050815260200160048201548152505081526020019060010190610500565b50505050905090565b600360003373ffffffffffffffffffffffffffffffffffffffff1673ffffffffffffffffffffffffffffffffffffffff1681526020019081526020016000208054806107145761071361137f565b5b6001900381819060005260206000209060050201600080820160006107399190610abb565b6001820160006101000a81549073ffffffffffffffffffffffffffffffffffffffff021916905560028201600090556003820160006107789190610afb565b600482016000905550509055565b600360003373ffffffffffffffffffffffffffffffffffffffff1673ffffffffffffffffffffffffffffffffffffffff16815260200190815260200160002060006107d19190610b1c565b565b60015481511115610819576040517f08c379a00000000000000000000000000000000000000000000000000000000081526004016108109061140b565b60405180910390fd5b60006040518060a001604052808381526020013373ffffffffffffffffffffffffffffffffffffffff16815260200142815260200160028054806020026020016040519081016040528092919081815260200182805480156108d057602002820191906000526020600020905b8160009054906101000a900473ffffffffffffffffffffffffffffffffffffffff1673ffffffffffffffffffffffffffffffffffffffff1681526020019060010190808311610886575b5050505050815260200160008152509050600360003373ffffffffffffffffffffffffffffffffffffffff1673ffffffffffffffffffffffffffffffffffffffff168152602001908152602001600020819080600181540180825580915050600190039060005260206000209060050201600090919091909150600082015181600001908161095f91906115d7565b5060208201518160010160006101000a81548173ffffffffffffffffffffffffffffffffffffffff021916908373ffffffffffffffffffffffffffffffffffffffff1602179055506040820151816002015560608201518160030190805190602001906109cd929190610b40565b506080820151816004015550505050565b3373ffffffffffffffffffffffffffffffffffffffff1660008054906101000a900473ffffffffffffffffffffffffffffffffffffffff1673ffffffffffffffffffffffffffffffffffffffff1614610a6c576040517f08c379a0000000000000000000000000000000000000000000000000000000008152600401610a639061171b565b60405180910390fd5b8060018190555050565b6040518060a0016040528060608152602001600073ffffffffffffffffffffffffffffffffffffffff1681526020016000815260200160608152602001600081525090565b508054610ac79061134e565b6000825580601f10610ad95750610af8565b601f016020900490600052602060002090810190610af79190610bca565b5b50565b5080546000825590600052602060002090810190610b199190610bca565b50565b5080546000825560050290600052602060002090810190610b3d9190610be7565b50565b828054828255906000526020600020908101928215610bb9579160200282015b82811115610bb85782518260006101000a81548173ffffffffffffffffffffffffffffffffffffffff021916908373ffffffffffffffffffffffffffffffffffffffff16021790555091602001919060010190610b60565b5b509050610bc69190610bca565b5090565b5b80821115610be3576000816000905550600101610bcb565b5090565b5b80821115610c515760008082016000610c019190610abb565b6001820160006101000a81549073ffffffffffffffffffffffffffffffffffffffff02191690556002820160009055600382016000610c409190610afb565b600482016000905550600501610be8565b5090565b6000604051905090565b600080fd5b600080fd5b600073ffffffffffffffffffffffffffffffffffffffff82169050919050565b6000610c9482610c69565b9050919050565b610ca481610c89565b8114610caf57600080fd5b50565b600081359050610cc181610c9b565b92915050565b6000819050919050565b610cda81610cc7565b8114610ce557600080fd5b50565b600081359050610cf781610cd1565b92915050565b60008060408385031215610d1457610d13610c5f565b5b6000610d2285828601610cb2565b9250506020610d3385828601610ce8565b9150509250929050565b600081519050919050565b600082825260208201905092915050565b60005b83811015610d77578082015181840152602081019050610d5c565b60008484015250505050565b6000601f19601f8301169050919050565b6000610d9f82610d3d565b610da98185610d48565b9350610db9818560208601610d59565b610dc281610d83565b840191505092915050565b610dd681610c89565b82525050565b610de581610cc7565b82525050565b600081519050919050565b600082825260208201905092915050565b6000819050602082019050919050565b6000610e238383610dcd565b60208301905092915050565b6000602082019050919050565b6000610e4782610deb565b610e518185610df6565b9350610e5c83610e07565b8060005b83811015610e8d578151610e748882610e17565b9750610e7f83610e2f565b925050600181019050610e60565b5085935050505092915050565b600060a0830160008301518482036000860152610eb78282610d94565b9150506020830151610ecc6020860182610dcd565b506040830151610edf6040860182610ddc565b5060608301518482036060860152610ef78282610e3c565b9150506080830151610f0c6080860182610ddc565b508091505092915050565b60006020820190508181036000830152610f318184610e9a565b905092915050565b600081519050919050565b600082825260208201905092915050565b6000819050602082019050919050565b600060a0830160008301518482036000860152610f828282610d94565b9150506020830151610f976020860182610dcd565b506040830151610faa6040860182610ddc565b5060608301518482036060860152610fc28282610e3c565b9150506080830151610fd76080860182610ddc565b508091505092915050565b6000610fee8383610f65565b905092915050565b6000602082019050919050565b600061100e82610f39565b6110188185610f44565b93508360208202850161102a85610f55565b8060005b8581101561106657848403895281516110478582610fe2565b945061105283610ff6565b925060208a0199505060018101905061102e565b50829750879550505050505092915050565b600060208201905081810360008301526110928184611003565b905092915050565b600080fd5b600080fd5b7f4e487b7100000000000000000000000000000000000000000000000000000000600052604160045260246000fd5b6110dc82610d83565b810181811067ffffffffffffffff821117156110fb576110fa6110a4565b5b80604052505050565b600061110e610c55565b905061111a82826110d3565b919050565b600067ffffffffffffffff82111561113a576111396110a4565b5b61114382610d83565b9050602081019050919050565b82818337600083830152505050565b600061117261116d8461111f565b611104565b90508281526020810184848401111561118e5761118d61109f565b5b611199848285611150565b509392505050565b600082601f8301126111b6576111b561109a565b5b81356111c684826020860161115f565b91505092915050565b6000602082840312156111e5576111e4610c5f565b5b600082013567ffffffffffffffff81111561120357611202610c64565b5b61120f848285016111a1565b91505092915050565b60006020828403121561122e5761122d610c5f565b5b600061123c84828501610ce8565b91505092915050565b7f4e487b7100000000000000000000000000000000000000000000000000000000600052601160045260246000fd5b600061127f82610cc7565b915061128a83610cc7565b92508282039050818111156112a2576112a1611245565b5b92915050565b7f4e487b7100000000000000000000000000000000000000000000000000000000600052603260045260246000fd5b60006112e282610cc7565b91507fffffffffffffffffffffffffffffffffffffffffffffffffffffffffffffffff820361131457611313611245565b5b600182019050919050565b7f4e487b7100000000000000000000000000000000000000000000000000000000600052602260045260246000fd5b6000600282049050600182168061136657607f821691505b6020821081036113795761137861131f565b5b50919050565b7f4e487b7100000000000000000000000000000000000000000000000000000000600052603160045260246000fd5b600082825260208201905092915050565b7f5477656574204c656e6774682069732045786365656421000000000000000000600082015250565b60006113f56017836113ae565b9150611400826113bf565b602082019050919050565b60006020820190508181036000830152611424816113e8565b9050919050565b60008190508160005260206000209050919050565b60006020601f8301049050919050565b600082821b905092915050565b60006008830261148d7fffffffffffffffffffffffffffffffffffffffffffffffffffffffffffffffff82611450565b6114978683611450565b95508019841693508086168417925050509392505050565b6000819050919050565b60006114d46114cf6114ca84610cc7565b6114af565b610cc7565b9050919050565b6000819050919050565b6114ee836114b9565b6115026114fa826114db565b84845461145d565b825550505050565b600090565b61151761150a565b6115228184846114e5565b505050565b5b818110156115465761153b60008261150f565b600181019050611528565b5050565b601f82111561158b5761155c8161142b565b61156584611440565b81016020851015611574578190505b61158861158085611440565b830182611527565b50505b505050565b600082821c905092915050565b60006115ae60001984600802611590565b1980831691505092915050565b60006115c7838361159d565b9150826002028217905092915050565b6115e082610d3d565b67ffffffffffffffff8111156115f9576115f86110a4565b5b611603825461134e565b61160e82828561154a565b600060209050601f831160018114611641576000841561162f578287015190505b61163985826115bb565b8655506116a1565b601f19841661164f8661142b565b60005b8281101561167757848901518255600182019150602085019450602081019050611652565b868310156116945784890151611690601f89168261159d565b8355505b6001600288020188555050505b505050505050565b7f596f7520617265206e6f742061204f776e6572215065726d697373696f6e204460008201527f656e696564210000000000000000000000000000000000000000000000000000602082015250565b60006117056026836113ae565b9150611710826116a9565b604082019050919050565b60006020820190508181036000830152611734816116f8565b905091905056fea26469706673582212209ca47327093db34c92ce89a6fa9c172e23c8f792634beabe88aaf4d378681b2d64736f6c63430008120033",
					"opcodes": "PUSH1 0x80 PUSH1 0x40 MSTORE PUSH1 0xA PUSH1 0x1 SSTORE CALLVALUE DUP1 ISZERO PUSH2 0x15 JUMPI PUSH1 0x0 DUP1 REVERT JUMPDEST POP CALLER PUSH1 0x0 DUP1 PUSH2 0x100 EXP DUP2 SLOAD DUP2 PUSH20 0xFFFFFFFFFFFFFFFFFFFFFFFFFFFFFFFFFFFFFFFF MUL NOT AND SWAP1 DUP4 PUSH20 0xFFFFFFFFFFFFFFFFFFFFFFFFFFFFFFFFFFFFFFFF AND MUL OR SWAP1 SSTORE POP PUSH2 0x1771 DUP1 PUSH2 0x65 PUSH1 0x0 CODECOPY PUSH1 0x0 RETURN INVALID PUSH1 0x80 PUSH1 0x40 MSTORE CALLVALUE DUP1 ISZERO PUSH2 0x10 JUMPI PUSH1 0x0 DUP1 REVERT JUMPDEST POP PUSH1 0x4 CALLDATASIZE LT PUSH2 0x7D JUMPI PUSH1 0x0 CALLDATALOAD PUSH1 0xE0 SHR DUP1 PUSH4 0x71E7EB12 GT PUSH2 0x5B JUMPI DUP1 PUSH4 0x71E7EB12 EQ PUSH2 0xEC JUMPI DUP1 PUSH4 0x765FAB45 EQ PUSH2 0xF6 JUMPI DUP1 PUSH4 0x7C9CD2BC EQ PUSH2 0x100 JUMPI DUP1 PUSH4 0xE479C244 EQ PUSH2 0x11C JUMPI PUSH2 0x7D JUMP JUMPDEST DUP1 PUSH4 0x362D52E EQ PUSH2 0x82 JUMPI DUP1 PUSH4 0x37F36A4C EQ PUSH2 0x9E JUMPI DUP1 PUSH4 0x42D7FBC0 EQ PUSH2 0xCE JUMPI JUMPDEST PUSH1 0x0 DUP1 REVERT JUMPDEST PUSH2 0x9C PUSH1 0x4 DUP1 CALLDATASIZE SUB DUP2 ADD SWAP1 PUSH2 0x97 SWAP2 SWAP1 PUSH2 0xCFD JUMP JUMPDEST PUSH2 0x138 JUMP JUMPDEST STOP JUMPDEST PUSH2 0xB8 PUSH1 0x4 DUP1 CALLDATASIZE SUB DUP2 ADD SWAP1 PUSH2 0xB3 SWAP2 SWAP1 PUSH2 0xCFD JUMP JUMPDEST PUSH2 0x28F JUMP JUMPDEST PUSH1 0x40 MLOAD PUSH2 0xC5 SWAP2 SWAP1 PUSH2 0xF17 JUMP JUMPDEST PUSH1 0x40 MLOAD DUP1 SWAP2 SUB SWAP1 RETURN JUMPDEST PUSH2 0xD6 PUSH2 0x49F JUMP JUMPDEST PUSH1 0x40 MLOAD PUSH2 0xE3 SWAP2 SWAP1 PUSH2 0x1078 JUMP JUMPDEST PUSH1 0x40 MLOAD DUP1 SWAP2 SUB SWAP1 RETURN JUMPDEST PUSH2 0xF4 PUSH2 0x6C5 JUMP JUMPDEST STOP JUMPDEST PUSH2 0xFE PUSH2 0x786 JUMP JUMPDEST STOP JUMPDEST PUSH2 0x11A PUSH1 0x4 DUP1 CALLDATASIZE SUB DUP2 ADD SWAP1 PUSH2 0x115 SWAP2 SWAP1 PUSH2 0x11CF JUMP JUMPDEST PUSH2 0x7D3 JUMP JUMPDEST STOP JUMPDEST PUSH2 0x136 PUSH1 0x4 DUP1 CALLDATASIZE SUB DUP2 ADD SWAP1 PUSH2 0x131 SWAP2 SWAP1 PUSH2 0x1218 JUMP JUMPDEST PUSH2 0x9DE JUMP JUMPDEST STOP JUMPDEST PUSH1 0x3 PUSH1 0x0 DUP4 PUSH20 0xFFFFFFFFFFFFFFFFFFFFFFFFFFFFFFFFFFFFFFFF AND PUSH20 0xFFFFFFFFFFFFFFFFFFFFFFFFFFFFFFFFFFFFFFFF AND DUP2 MSTORE PUSH1 0x20 ADD SWAP1 DUP2 MSTORE PUSH1 0x20 ADD PUSH1 0x0 KECCAK256 PUSH1 0x1 DUP3 PUSH2 0x184 SWAP2 SWAP1 PUSH2 0x1274 JUMP JUMPDEST DUP2 SLOAD DUP2 LT PUSH2 0x195 JUMPI PUSH2 0x194 PUSH2 0x12A8 JUMP JUMPDEST JUMPDEST SWAP1 PUSH1 0x0 MSTORE PUSH1 0x20 PUSH1 0x0 KECCAK256 SWAP1 PUSH1 0x5 MUL ADD PUSH1 0x3 ADD CALLER SWAP1 DUP1 PUSH1 0x1 DUP2 SLOAD ADD DUP1 DUP3 SSTORE DUP1 SWAP2 POP POP PUSH1 0x1 SWAP1 SUB SWAP1 PUSH1 0x0 MSTORE PUSH1 0x20 PUSH1 0x0 KECCAK256 ADD PUSH1 0x0 SWAP1 SWAP2 SWAP1 SWAP2 SWAP1 SWAP2 PUSH2 0x100 EXP DUP2 SLOAD DUP2 PUSH20 0xFFFFFFFFFFFFFFFFFFFFFFFFFFFFFFFFFFFFFFFF MUL NOT AND SWAP1 DUP4 PUSH20 0xFFFFFFFFFFFFFFFFFFFFFFFFFFFFFFFFFFFFFFFF AND MUL OR SWAP1 SSTORE POP PUSH1 0x3 PUSH1 0x0 DUP4 PUSH20 0xFFFFFFFFFFFFFFFFFFFFFFFFFFFFFFFFFFFFFFFF AND PUSH20 0xFFFFFFFFFFFFFFFFFFFFFFFFFFFFFFFFFFFFFFFF AND DUP2 MSTORE PUSH1 0x20 ADD SWAP1 DUP2 MSTORE PUSH1 0x20 ADD PUSH1 0x0 KECCAK256 PUSH1 0x1 DUP3 PUSH2 0x253 SWAP2 SWAP1 PUSH2 0x1274 JUMP JUMPDEST DUP2 SLOAD DUP2 LT PUSH2 0x264 JUMPI PUSH2 0x263 PUSH2 0x12A8 JUMP JUMPDEST JUMPDEST SWAP1 PUSH1 0x0 MSTORE PUSH1 0x20 PUSH1 0x0 KECCAK256 SWAP1 PUSH1 0x5 MUL ADD PUSH1 0x4 ADD PUSH1 0x0 DUP2 SLOAD DUP1 SWAP3 SWAP2 SWAP1 PUSH2 0x286 SWAP1 PUSH2 0x12D7 JUMP JUMPDEST SWAP2 SWAP1 POP SSTORE POP POP POP JUMP JUMPDEST PUSH2 0x297 PUSH2 0xA76 JUMP JUMPDEST PUSH1 0x3 PUSH1 0x0 DUP5 PUSH20 0xFFFFFFFFFFFFFFFFFFFFFFFFFFFFFFFFFFFFFFFF AND PUSH20 0xFFFFFFFFFFFFFFFFFFFFFFFFFFFFFFFFFFFFFFFF AND DUP2 MSTORE PUSH1 0x20 ADD SWAP1 DUP2 MSTORE PUSH1 0x20 ADD PUSH1 0x0 KECCAK256 PUSH1 0x1 DUP4 PUSH2 0x2E3 SWAP2 SWAP1 PUSH2 0x1274 JUMP JUMPDEST DUP2 SLOAD DUP2 LT PUSH2 0x2F4 JUMPI PUSH2 0x2F3 PUSH2 0x12A8 JUMP JUMPDEST JUMPDEST SWAP1 PUSH1 0x0 MSTORE PUSH1 0x20 PUSH1 0x0 KECCAK256 SWAP1 PUSH1 0x5 MUL ADD PUSH1 0x40 MLOAD DUP1 PUSH1 0xA0 ADD PUSH1 0x40 MSTORE SWAP1 DUP2 PUSH1 0x0 DUP3 ADD DUP1 SLOAD PUSH2 0x31D SWAP1 PUSH2 0x134E JUMP JUMPDEST DUP1 PUSH1 0x1F ADD PUSH1 0x20 DUP1 SWAP2 DIV MUL PUSH1 0x20 ADD PUSH1 0x40 MLOAD SWAP1 DUP2 ADD PUSH1 0x40 MSTORE DUP1 SWAP3 SWAP2 SWAP1 DUP2 DUP2 MSTORE PUSH1 0x20 ADD DUP3 DUP1 SLOAD PUSH2 0x349 SWAP1 PUSH2 0x134E JUMP JUMPDEST DUP1 ISZERO PUSH2 0x396 JUMPI DUP1 PUSH1 0x1F LT PUSH2 0x36B JUMPI PUSH2 0x100 DUP1 DUP4 SLOAD DIV MUL DUP4 MSTORE SWAP2 PUSH1 0x20 ADD SWAP2 PUSH2 0x396 JUMP JUMPDEST DUP3 ADD SWAP2 SWAP1 PUSH1 0x0 MSTORE PUSH1 0x20 PUSH1 0x0 KECCAK256 SWAP1 JUMPDEST DUP2 SLOAD DUP2 MSTORE SWAP1 PUSH1 0x1 ADD SWAP1 PUSH1 0x20 ADD DUP1 DUP4 GT PUSH2 0x379 JUMPI DUP3 SWAP1 SUB PUSH1 0x1F AND DUP3 ADD SWAP2 JUMPDEST POP POP POP POP POP DUP2 MSTORE PUSH1 0x20 ADD PUSH1 0x1 DUP3 ADD PUSH1 0x0 SWAP1 SLOAD SWAP1 PUSH2 0x100 EXP SWAP1 DIV PUSH20 0xFFFFFFFFFFFFFFFFFFFFFFFFFFFFFFFFFFFFFFFF AND PUSH20 0xFFFFFFFFFFFFFFFFFFFFFFFFFFFFFFFFFFFFFFFF AND PUSH20 0xFFFFFFFFFFFFFFFFFFFFFFFFFFFFFFFFFFFFFFFF AND DUP2 MSTORE PUSH1 0x20 ADD PUSH1 0x2 DUP3 ADD SLOAD DUP2 MSTORE PUSH1 0x20 ADD PUSH1 0x3 DUP3 ADD DUP1 SLOAD DUP1 PUSH1 0x20 MUL PUSH1 0x20 ADD PUSH1 0x40 MLOAD SWAP1 DUP2 ADD PUSH1 0x40 MSTORE DUP1 SWAP3 SWAP2 SWAP1 DUP2 DUP2 MSTORE PUSH1 0x20 ADD DUP3 DUP1 SLOAD DUP1 ISZERO PUSH2 0x484 JUMPI PUSH1 0x20 MUL DUP3 ADD SWAP2 SWAP1 PUSH1 0x0 MSTORE PUSH1 0x20 PUSH1 0x0 KECCAK256 SWAP1 JUMPDEST DUP2 PUSH1 0x0 SWAP1 SLOAD SWAP1 PUSH2 0x100 EXP SWAP1 DIV PUSH20 0xFFFFFFFFFFFFFFFFFFFFFFFFFFFFFFFFFFFFFFFF AND PUSH20 0xFFFFFFFFFFFFFFFFFFFFFFFFFFFFFFFFFFFFFFFF AND DUP2 MSTORE PUSH1 0x20 ADD SWAP1 PUSH1 0x1 ADD SWAP1 DUP1 DUP4 GT PUSH2 0x43A JUMPI JUMPDEST POP POP POP POP POP DUP2 MSTORE PUSH1 0x20 ADD PUSH1 0x4 DUP3 ADD SLOAD DUP2 MSTORE POP POP SWAP1 POP SWAP3 SWAP2 POP POP JUMP JUMPDEST PUSH1 0x60 PUSH1 0x3 PUSH1 0x0 CALLER PUSH20 0xFFFFFFFFFFFFFFFFFFFFFFFFFFFFFFFFFFFFFFFF AND PUSH20 0xFFFFFFFFFFFFFFFFFFFFFFFFFFFFFFFFFFFFFFFF AND DUP2 MSTORE PUSH1 0x20 ADD SWAP1 DUP2 MSTORE PUSH1 0x20 ADD PUSH1 0x0 KECCAK256 DUP1 SLOAD DUP1 PUSH1 0x20 MUL PUSH1 0x20 ADD PUSH1 0x40 MLOAD SWAP1 DUP2 ADD PUSH1 0x40 MSTORE DUP1 SWAP3 SWAP2 SWAP1 DUP2 DUP2 MSTORE PUSH1 0x20 ADD PUSH1 0x0 SWAP1 JUMPDEST DUP3 DUP3 LT ISZERO PUSH2 0x6BC JUMPI DUP4 DUP3 SWAP1 PUSH1 0x0 MSTORE PUSH1 0x20 PUSH1 0x0 KECCAK256 SWAP1 PUSH1 0x5 MUL ADD PUSH1 0x40 MLOAD DUP1 PUSH1 0xA0 ADD PUSH1 0x40 MSTORE SWAP1 DUP2 PUSH1 0x0 DUP3 ADD DUP1 SLOAD PUSH2 0x533 SWAP1 PUSH2 0x134E JUMP JUMPDEST DUP1 PUSH1 0x1F ADD PUSH1 0x20 DUP1 SWAP2 DIV MUL PUSH1 0x20 ADD PUSH1 0x40 MLOAD SWAP1 DUP2 ADD PUSH1 0x40 MSTORE DUP1 SWAP3 SWAP2 SWAP1 DUP2 DUP2 MSTORE PUSH1 0x20 ADD DUP3 DUP1 SLOAD PUSH2 0x55F SWAP1 PUSH2 0x134E JUMP JUMPDEST DUP1 ISZERO PUSH2 0x5AC JUMPI DUP1 PUSH1 0x1F LT PUSH2 0x581 JUMPI PUSH2 0x100 DUP1 DUP4 SLOAD DIV MUL DUP4 MSTORE SWAP2 PUSH1 0x20 ADD SWAP2 PUSH2 0x5AC JUMP JUMPDEST DUP3 ADD SWAP2 SWAP1 PUSH1 0x0 MSTORE PUSH1 0x20 PUSH1 0x0 KECCAK256 SWAP1 JUMPDEST DUP2 SLOAD DUP2 MSTORE SWAP1 PUSH1 0x1 ADD SWAP1 PUSH1 0x20 ADD DUP1 DUP4 GT PUSH2 0x58F JUMPI DUP3 SWAP1 SUB PUSH1 0x1F AND DUP3 ADD SWAP2 JUMPDEST POP POP POP POP POP DUP2 MSTORE PUSH1 0x20 ADD PUSH1 0x1 DUP3 ADD PUSH1 0x0 SWAP1 SLOAD SWAP1 PUSH2 0x100 EXP SWAP1 DIV PUSH20 0xFFFFFFFFFFFFFFFFFFFFFFFFFFFFFFFFFFFFFFFF AND PUSH20 0xFFFFFFFFFFFFFFFFFFFFFFFFFFFFFFFFFFFFFFFF AND PUSH20 0xFFFFFFFFFFFFFFFFFFFFFFFFFFFFFFFFFFFFFFFF AND DUP2 MSTORE PUSH1 0x20 ADD PUSH1 0x2 DUP3 ADD SLOAD DUP2 MSTORE PUSH1 0x20 ADD PUSH1 0x3 DUP3 ADD DUP1 SLOAD DUP1 PUSH1 0x20 MUL PUSH1 0x20 ADD PUSH1 0x40 MLOAD SWAP1 DUP2 ADD PUSH1 0x40 MSTORE DUP1 SWAP3 SWAP2 SWAP1 DUP2 DUP2 MSTORE PUSH1 0x20 ADD DUP3 DUP1 SLOAD DUP1 ISZERO PUSH2 0x69A JUMPI PUSH1 0x20 MUL DUP3 ADD SWAP2 SWAP1 PUSH1 0x0 MSTORE PUSH1 0x20 PUSH1 0x0 KECCAK256 SWAP1 JUMPDEST DUP2 PUSH1 0x0 SWAP1 SLOAD SWAP1 PUSH2 0x100 EXP SWAP1 DIV PUSH20 0xFFFFFFFFFFFFFFFFFFFFFFFFFFFFFFFFFFFFFFFF AND PUSH20 0xFFFFFFFFFFFFFFFFFFFFFFFFFFFFFFFFFFFFFFFF AND DUP2 MSTORE PUSH1 0x20 ADD SWAP1 PUSH1 0x1 ADD SWAP1 DUP1 DUP4 GT PUSH2 0x650 JUMPI JUMPDEST POP POP POP POP POP DUP2 MSTORE PUSH1 0x20 ADD PUSH1 0x4 DUP3 ADD SLOAD DUP2 MSTORE POP POP DUP2 MSTORE PUSH1 0x20 ADD SWAP1 PUSH1 0x1 ADD SWAP1 PUSH2 0x500 JUMP JUMPDEST POP POP POP POP SWAP1 POP SWAP1 JUMP JUMPDEST PUSH1 0x3 PUSH1 0x0 CALLER PUSH20 0xFFFFFFFFFFFFFFFFFFFFFFFFFFFFFFFFFFFFFFFF AND PUSH20 0xFFFFFFFFFFFFFFFFFFFFFFFFFFFFFFFFFFFFFFFF AND DUP2 MSTORE PUSH1 0x20 ADD SWAP1 DUP2 MSTORE PUSH1 0x20 ADD PUSH1 0x0 KECCAK256 DUP1 SLOAD DUP1 PUSH2 0x714 JUMPI PUSH2 0x713 PUSH2 0x137F JUMP JUMPDEST JUMPDEST PUSH1 0x1 SWAP1 SUB DUP2 DUP2 SWAP1 PUSH1 0x0 MSTORE PUSH1 0x20 PUSH1 0x0 KECCAK256 SWAP1 PUSH1 0x5 MUL ADD PUSH1 0x0 DUP1 DUP3 ADD PUSH1 0x0 PUSH2 0x739 SWAP2 SWAP1 PUSH2 0xABB JUMP JUMPDEST PUSH1 0x1 DUP3 ADD PUSH1 0x0 PUSH2 0x100 EXP DUP2 SLOAD SWAP1 PUSH20 0xFFFFFFFFFFFFFFFFFFFFFFFFFFFFFFFFFFFFFFFF MUL NOT AND SWAP1 SSTORE PUSH1 0x2 DUP3 ADD PUSH1 0x0 SWAP1 SSTORE PUSH1 0x3 DUP3 ADD PUSH1 0x0 PUSH2 0x778 SWAP2 SWAP1 PUSH2 0xAFB JUMP JUMPDEST PUSH1 0x4 DUP3 ADD PUSH1 0x0 SWAP1 SSTORE POP POP SWAP1 SSTORE JUMP JUMPDEST PUSH1 0x3 PUSH1 0x0 CALLER PUSH20 0xFFFFFFFFFFFFFFFFFFFFFFFFFFFFFFFFFFFFFFFF AND PUSH20 0xFFFFFFFFFFFFFFFFFFFFFFFFFFFFFFFFFFFFFFFF AND DUP2 MSTORE PUSH1 0x20 ADD SWAP1 DUP2 MSTORE PUSH1 0x20 ADD PUSH1 0x0 KECCAK256 PUSH1 0x0 PUSH2 0x7D1 SWAP2 SWAP1 PUSH2 0xB1C JUMP JUMPDEST JUMP JUMPDEST PUSH1 0x1 SLOAD DUP2 MLOAD GT ISZERO PUSH2 0x819 JUMPI PUSH1 0x40 MLOAD PUSH32 0x8C379A000000000000000000000000000000000000000000000000000000000 DUP2 MSTORE PUSH1 0x4 ADD PUSH2 0x810 SWAP1 PUSH2 0x140B JUMP JUMPDEST PUSH1 0x40 MLOAD DUP1 SWAP2 SUB SWAP1 REVERT JUMPDEST PUSH1 0x0 PUSH1 0x40 MLOAD DUP1 PUSH1 0xA0 ADD PUSH1 0x40 MSTORE DUP1 DUP4 DUP2 MSTORE PUSH1 0x20 ADD CALLER PUSH20 0xFFFFFFFFFFFFFFFFFFFFFFFFFFFFFFFFFFFFFFFF AND DUP2 MSTORE PUSH1 0x20 ADD TIMESTAMP DUP2 MSTORE PUSH1 0x20 ADD PUSH1 0x2 DUP1 SLOAD DUP1 PUSH1 0x20 MUL PUSH1 0x20 ADD PUSH1 0x40 MLOAD SWAP1 DUP2 ADD PUSH1 0x40 MSTORE DUP1 SWAP3 SWAP2 SWAP1 DUP2 DUP2 MSTORE PUSH1 0x20 ADD DUP3 DUP1 SLOAD DUP1 ISZERO PUSH2 0x8D0 JUMPI PUSH1 0x20 MUL DUP3 ADD SWAP2 SWAP1 PUSH1 0x0 MSTORE PUSH1 0x20 PUSH1 0x0 KECCAK256 SWAP1 JUMPDEST DUP2 PUSH1 0x0 SWAP1 SLOAD SWAP1 PUSH2 0x100 EXP SWAP1 DIV PUSH20 0xFFFFFFFFFFFFFFFFFFFFFFFFFFFFFFFFFFFFFFFF AND PUSH20 0xFFFFFFFFFFFFFFFFFFFFFFFFFFFFFFFFFFFFFFFF AND DUP2 MSTORE PUSH1 0x20 ADD SWAP1 PUSH1 0x1 ADD SWAP1 DUP1 DUP4 GT PUSH2 0x886 JUMPI JUMPDEST POP POP POP POP POP DUP2 MSTORE PUSH1 0x20 ADD PUSH1 0x0 DUP2 MSTORE POP SWAP1 POP PUSH1 0x3 PUSH1 0x0 CALLER PUSH20 0xFFFFFFFFFFFFFFFFFFFFFFFFFFFFFFFFFFFFFFFF AND PUSH20 0xFFFFFFFFFFFFFFFFFFFFFFFFFFFFFFFFFFFFFFFF AND DUP2 MSTORE PUSH1 0x20 ADD SWAP1 DUP2 MSTORE PUSH1 0x20 ADD PUSH1 0x0 KECCAK256 DUP2 SWAP1 DUP1 PUSH1 0x1 DUP2 SLOAD ADD DUP1 DUP3 SSTORE DUP1 SWAP2 POP POP PUSH1 0x1 SWAP1 SUB SWAP1 PUSH1 0x0 MSTORE PUSH1 0x20 PUSH1 0x0 KECCAK256 SWAP1 PUSH1 0x5 MUL ADD PUSH1 0x0 SWAP1 SWAP2 SWAP1 SWAP2 SWAP1 SWAP2 POP PUSH1 0x0 DUP3 ADD MLOAD DUP2 PUSH1 0x0 ADD SWAP1 DUP2 PUSH2 0x95F SWAP2 SWAP1 PUSH2 0x15D7 JUMP JUMPDEST POP PUSH1 0x20 DUP3 ADD MLOAD DUP2 PUSH1 0x1 ADD PUSH1 0x0 PUSH2 0x100 EXP DUP2 SLOAD DUP2 PUSH20 0xFFFFFFFFFFFFFFFFFFFFFFFFFFFFFFFFFFFFFFFF MUL NOT AND SWAP1 DUP4 PUSH20 0xFFFFFFFFFFFFFFFFFFFFFFFFFFFFFFFFFFFFFFFF AND MUL OR SWAP1 SSTORE POP PUSH1 0x40 DUP3 ADD MLOAD DUP2 PUSH1 0x2 ADD SSTORE PUSH1 0x60 DUP3 ADD MLOAD DUP2 PUSH1 0x3 ADD SWAP1 DUP1 MLOAD SWAP1 PUSH1 0x20 ADD SWAP1 PUSH2 0x9CD SWAP3 SWAP2 SWAP1 PUSH2 0xB40 JUMP JUMPDEST POP PUSH1 0x80 DUP3 ADD MLOAD DUP2 PUSH1 0x4 ADD SSTORE POP POP POP POP JUMP JUMPDEST CALLER PUSH20 0xFFFFFFFFFFFFFFFFFFFFFFFFFFFFFFFFFFFFFFFF AND PUSH1 0x0 DUP1 SLOAD SWAP1 PUSH2 0x100 EXP SWAP1 DIV PUSH20 0xFFFFFFFFFFFFFFFFFFFFFFFFFFFFFFFFFFFFFFFF AND PUSH20 0xFFFFFFFFFFFFFFFFFFFFFFFFFFFFFFFFFFFFFFFF AND EQ PUSH2 0xA6C JUMPI PUSH1 0x40 MLOAD PUSH32 0x8C379A000000000000000000000000000000000000000000000000000000000 DUP2 MSTORE PUSH1 0x4 ADD PUSH2 0xA63 SWAP1 PUSH2 0x171B JUMP JUMPDEST PUSH1 0x40 MLOAD DUP1 SWAP2 SUB SWAP1 REVERT JUMPDEST DUP1 PUSH1 0x1 DUP2 SWAP1 SSTORE POP POP JUMP JUMPDEST PUSH1 0x40 MLOAD DUP1 PUSH1 0xA0 ADD PUSH1 0x40 MSTORE DUP1 PUSH1 0x60 DUP2 MSTORE PUSH1 0x20 ADD PUSH1 0x0 PUSH20 0xFFFFFFFFFFFFFFFFFFFFFFFFFFFFFFFFFFFFFFFF AND DUP2 MSTORE PUSH1 0x20 ADD PUSH1 0x0 DUP2 MSTORE PUSH1 0x20 ADD PUSH1 0x60 DUP2 MSTORE PUSH1 0x20 ADD PUSH1 0x0 DUP2 MSTORE POP SWAP1 JUMP JUMPDEST POP DUP1 SLOAD PUSH2 0xAC7 SWAP1 PUSH2 0x134E JUMP JUMPDEST PUSH1 0x0 DUP3 SSTORE DUP1 PUSH1 0x1F LT PUSH2 0xAD9 JUMPI POP PUSH2 0xAF8 JUMP JUMPDEST PUSH1 0x1F ADD PUSH1 0x20 SWAP1 DIV SWAP1 PUSH1 0x0 MSTORE PUSH1 0x20 PUSH1 0x0 KECCAK256 SWAP1 DUP2 ADD SWAP1 PUSH2 0xAF7 SWAP2 SWAP1 PUSH2 0xBCA JUMP JUMPDEST JUMPDEST POP JUMP JUMPDEST POP DUP1 SLOAD PUSH1 0x0 DUP3 SSTORE SWAP1 PUSH1 0x0 MSTORE PUSH1 0x20 PUSH1 0x0 KECCAK256 SWAP1 DUP2 ADD SWAP1 PUSH2 0xB19 SWAP2 SWAP1 PUSH2 0xBCA JUMP JUMPDEST POP JUMP JUMPDEST POP DUP1 SLOAD PUSH1 0x0 DUP3 SSTORE PUSH1 0x5 MUL SWAP1 PUSH1 0x0 MSTORE PUSH1 0x20 PUSH1 0x0 KECCAK256 SWAP1 DUP2 ADD SWAP1 PUSH2 0xB3D SWAP2 SWAP1 PUSH2 0xBE7 JUMP JUMPDEST POP JUMP JUMPDEST DUP3 DUP1 SLOAD DUP3 DUP3 SSTORE SWAP1 PUSH1 0x0 MSTORE PUSH1 0x20 PUSH1 0x0 KECCAK256 SWAP1 DUP2 ADD SWAP3 DUP3 ISZERO PUSH2 0xBB9 JUMPI SWAP2 PUSH1 0x20 MUL DUP3 ADD JUMPDEST DUP3 DUP2 GT ISZERO PUSH2 0xBB8 JUMPI DUP3 MLOAD DUP3 PUSH1 0x0 PUSH2 0x100 EXP DUP2 SLOAD DUP2 PUSH20 0xFFFFFFFFFFFFFFFFFFFFFFFFFFFFFFFFFFFFFFFF MUL NOT AND SWAP1 DUP4 PUSH20 0xFFFFFFFFFFFFFFFFFFFFFFFFFFFFFFFFFFFFFFFF AND MUL OR SWAP1 SSTORE POP SWAP2 PUSH1 0x20 ADD SWAP2 SWAP1 PUSH1 0x1 ADD SWAP1 PUSH2 0xB60 JUMP JUMPDEST JUMPDEST POP SWAP1 POP PUSH2 0xBC6 SWAP2 SWAP1 PUSH2 0xBCA JUMP JUMPDEST POP SWAP1 JUMP JUMPDEST JUMPDEST DUP1 DUP3 GT ISZERO PUSH2 0xBE3 JUMPI PUSH1 0x0 DUP2 PUSH1 0x0 SWAP1 SSTORE POP PUSH1 0x1 ADD PUSH2 0xBCB JUMP JUMPDEST POP SWAP1 JUMP JUMPDEST JUMPDEST DUP1 DUP3 GT ISZERO PUSH2 0xC51 JUMPI PUSH1 0x0 DUP1 DUP3 ADD PUSH1 0x0 PUSH2 0xC01 SWAP2 SWAP1 PUSH2 0xABB JUMP JUMPDEST PUSH1 0x1 DUP3 ADD PUSH1 0x0 PUSH2 0x100 EXP DUP2 SLOAD SWAP1 PUSH20 0xFFFFFFFFFFFFFFFFFFFFFFFFFFFFFFFFFFFFFFFF MUL NOT AND SWAP1 SSTORE PUSH1 0x2 DUP3 ADD PUSH1 0x0 SWAP1 SSTORE PUSH1 0x3 DUP3 ADD PUSH1 0x0 PUSH2 0xC40 SWAP2 SWAP1 PUSH2 0xAFB JUMP JUMPDEST PUSH1 0x4 DUP3 ADD PUSH1 0x0 SWAP1 SSTORE POP PUSH1 0x5 ADD PUSH2 0xBE8 JUMP JUMPDEST POP SWAP1 JUMP JUMPDEST PUSH1 0x0 PUSH1 0x40 MLOAD SWAP1 POP SWAP1 JUMP JUMPDEST PUSH1 0x0 DUP1 REVERT JUMPDEST PUSH1 0x0 DUP1 REVERT JUMPDEST PUSH1 0x0 PUSH20 0xFFFFFFFFFFFFFFFFFFFFFFFFFFFFFFFFFFFFFFFF DUP3 AND SWAP1 POP SWAP2 SWAP1 POP JUMP JUMPDEST PUSH1 0x0 PUSH2 0xC94 DUP3 PUSH2 0xC69 JUMP JUMPDEST SWAP1 POP SWAP2 SWAP1 POP JUMP JUMPDEST PUSH2 0xCA4 DUP2 PUSH2 0xC89 JUMP JUMPDEST DUP2 EQ PUSH2 0xCAF JUMPI PUSH1 0x0 DUP1 REVERT JUMPDEST POP JUMP JUMPDEST PUSH1 0x0 DUP2 CALLDATALOAD SWAP1 POP PUSH2 0xCC1 DUP2 PUSH2 0xC9B JUMP JUMPDEST SWAP3 SWAP2 POP POP JUMP JUMPDEST PUSH1 0x0 DUP2 SWAP1 POP SWAP2 SWAP1 POP JUMP JUMPDEST PUSH2 0xCDA DUP2 PUSH2 0xCC7 JUMP JUMPDEST DUP2 EQ PUSH2 0xCE5 JUMPI PUSH1 0x0 DUP1 REVERT JUMPDEST POP JUMP JUMPDEST PUSH1 0x0 DUP2 CALLDATALOAD SWAP1 POP PUSH2 0xCF7 DUP2 PUSH2 0xCD1 JUMP JUMPDEST SWAP3 SWAP2 POP POP JUMP JUMPDEST PUSH1 0x0 DUP1 PUSH1 0x40 DUP4 DUP6 SUB SLT ISZERO PUSH2 0xD14 JUMPI PUSH2 0xD13 PUSH2 0xC5F JUMP JUMPDEST JUMPDEST PUSH1 0x0 PUSH2 0xD22 DUP6 DUP3 DUP7 ADD PUSH2 0xCB2 JUMP JUMPDEST SWAP3 POP POP PUSH1 0x20 PUSH2 0xD33 DUP6 DUP3 DUP7 ADD PUSH2 0xCE8 JUMP JUMPDEST SWAP2 POP POP SWAP3 POP SWAP3 SWAP1 POP JUMP JUMPDEST PUSH1 0x0 DUP2 MLOAD SWAP1 POP SWAP2 SWAP1 POP JUMP JUMPDEST PUSH1 0x0 DUP3 DUP3 MSTORE PUSH1 0x20 DUP3 ADD SWAP1 POP SWAP3 SWAP2 POP POP JUMP JUMPDEST PUSH1 0x0 JUMPDEST DUP4 DUP2 LT ISZERO PUSH2 0xD77 JUMPI DUP1 DUP3 ADD MLOAD DUP2 DUP5 ADD MSTORE PUSH1 0x20 DUP2 ADD SWAP1 POP PUSH2 0xD5C JUMP JUMPDEST PUSH1 0x0 DUP5 DUP5 ADD MSTORE POP POP POP POP JUMP JUMPDEST PUSH1 0x0 PUSH1 0x1F NOT PUSH1 0x1F DUP4 ADD AND SWAP1 POP SWAP2 SWAP1 POP JUMP JUMPDEST PUSH1 0x0 PUSH2 0xD9F DUP3 PUSH2 0xD3D JUMP JUMPDEST PUSH2 0xDA9 DUP2 DUP6 PUSH2 0xD48 JUMP JUMPDEST SWAP4 POP PUSH2 0xDB9 DUP2 DUP6 PUSH1 0x20 DUP7 ADD PUSH2 0xD59 JUMP JUMPDEST PUSH2 0xDC2 DUP2 PUSH2 0xD83 JUMP JUMPDEST DUP5 ADD SWAP2 POP POP SWAP3 SWAP2 POP POP JUMP JUMPDEST PUSH2 0xDD6 DUP2 PUSH2 0xC89 JUMP JUMPDEST DUP3 MSTORE POP POP JUMP JUMPDEST PUSH2 0xDE5 DUP2 PUSH2 0xCC7 JUMP JUMPDEST DUP3 MSTORE POP POP JUMP JUMPDEST PUSH1 0x0 DUP2 MLOAD SWAP1 POP SWAP2 SWAP1 POP JUMP JUMPDEST PUSH1 0x0 DUP3 DUP3 MSTORE PUSH1 0x20 DUP3 ADD SWAP1 POP SWAP3 SWAP2 POP POP JUMP JUMPDEST PUSH1 0x0 DUP2 SWAP1 POP PUSH1 0x20 DUP3 ADD SWAP1 POP SWAP2 SWAP1 POP JUMP JUMPDEST PUSH1 0x0 PUSH2 0xE23 DUP4 DUP4 PUSH2 0xDCD JUMP JUMPDEST PUSH1 0x20 DUP4 ADD SWAP1 POP SWAP3 SWAP2 POP POP JUMP JUMPDEST PUSH1 0x0 PUSH1 0x20 DUP3 ADD SWAP1 POP SWAP2 SWAP1 POP JUMP JUMPDEST PUSH1 0x0 PUSH2 0xE47 DUP3 PUSH2 0xDEB JUMP JUMPDEST PUSH2 0xE51 DUP2 DUP6 PUSH2 0xDF6 JUMP JUMPDEST SWAP4 POP PUSH2 0xE5C DUP4 PUSH2 0xE07 JUMP JUMPDEST DUP1 PUSH1 0x0 JUMPDEST DUP4 DUP2 LT ISZERO PUSH2 0xE8D JUMPI DUP2 MLOAD PUSH2 0xE74 DUP9 DUP3 PUSH2 0xE17 JUMP JUMPDEST SWAP8 POP PUSH2 0xE7F DUP4 PUSH2 0xE2F JUMP JUMPDEST SWAP3 POP POP PUSH1 0x1 DUP2 ADD SWAP1 POP PUSH2 0xE60 JUMP JUMPDEST POP DUP6 SWAP4 POP POP POP POP SWAP3 SWAP2 POP POP JUMP JUMPDEST PUSH1 0x0 PUSH1 0xA0 DUP4 ADD PUSH1 0x0 DUP4 ADD MLOAD DUP5 DUP3 SUB PUSH1 0x0 DUP7 ADD MSTORE PUSH2 0xEB7 DUP3 DUP3 PUSH2 0xD94 JUMP JUMPDEST SWAP2 POP POP PUSH1 0x20 DUP4 ADD MLOAD PUSH2 0xECC PUSH1 0x20 DUP7 ADD DUP3 PUSH2 0xDCD JUMP JUMPDEST POP PUSH1 0x40 DUP4 ADD MLOAD PUSH2 0xEDF PUSH1 0x40 DUP7 ADD DUP3 PUSH2 0xDDC JUMP JUMPDEST POP PUSH1 0x60 DUP4 ADD MLOAD DUP5 DUP3 SUB PUSH1 0x60 DUP7 ADD MSTORE PUSH2 0xEF7 DUP3 DUP3 PUSH2 0xE3C JUMP JUMPDEST SWAP2 POP POP PUSH1 0x80 DUP4 ADD MLOAD PUSH2 0xF0C PUSH1 0x80 DUP7 ADD DUP3 PUSH2 0xDDC JUMP JUMPDEST POP DUP1 SWAP2 POP POP SWAP3 SWAP2 POP POP JUMP JUMPDEST PUSH1 0x0 PUSH1 0x20 DUP3 ADD SWAP1 POP DUP2 DUP2 SUB PUSH1 0x0 DUP4 ADD MSTORE PUSH2 0xF31 DUP2 DUP5 PUSH2 0xE9A JUMP JUMPDEST SWAP1 POP SWAP3 SWAP2 POP POP JUMP JUMPDEST PUSH1 0x0 DUP2 MLOAD SWAP1 POP SWAP2 SWAP1 POP JUMP JUMPDEST PUSH1 0x0 DUP3 DUP3 MSTORE PUSH1 0x20 DUP3 ADD SWAP1 POP SWAP3 SWAP2 POP POP JUMP JUMPDEST PUSH1 0x0 DUP2 SWAP1 POP PUSH1 0x20 DUP3 ADD SWAP1 POP SWAP2 SWAP1 POP JUMP JUMPDEST PUSH1 0x0 PUSH1 0xA0 DUP4 ADD PUSH1 0x0 DUP4 ADD MLOAD DUP5 DUP3 SUB PUSH1 0x0 DUP7 ADD MSTORE PUSH2 0xF82 DUP3 DUP3 PUSH2 0xD94 JUMP JUMPDEST SWAP2 POP POP PUSH1 0x20 DUP4 ADD MLOAD PUSH2 0xF97 PUSH1 0x20 DUP7 ADD DUP3 PUSH2 0xDCD JUMP JUMPDEST POP PUSH1 0x40 DUP4 ADD MLOAD PUSH2 0xFAA PUSH1 0x40 DUP7 ADD DUP3 PUSH2 0xDDC JUMP JUMPDEST POP PUSH1 0x60 DUP4 ADD MLOAD DUP5 DUP3 SUB PUSH1 0x60 DUP7 ADD MSTORE PUSH2 0xFC2 DUP3 DUP3 PUSH2 0xE3C JUMP JUMPDEST SWAP2 POP POP PUSH1 0x80 DUP4 ADD MLOAD PUSH2 0xFD7 PUSH1 0x80 DUP7 ADD DUP3 PUSH2 0xDDC JUMP JUMPDEST POP DUP1 SWAP2 POP POP SWAP3 SWAP2 POP POP JUMP JUMPDEST PUSH1 0x0 PUSH2 0xFEE DUP4 DUP4 PUSH2 0xF65 JUMP JUMPDEST SWAP1 POP SWAP3 SWAP2 POP POP JUMP JUMPDEST PUSH1 0x0 PUSH1 0x20 DUP3 ADD SWAP1 POP SWAP2 SWAP1 POP JUMP JUMPDEST PUSH1 0x0 PUSH2 0x100E DUP3 PUSH2 0xF39 JUMP JUMPDEST PUSH2 0x1018 DUP2 DUP6 PUSH2 0xF44 JUMP JUMPDEST SWAP4 POP DUP4 PUSH1 0x20 DUP3 MUL DUP6 ADD PUSH2 0x102A DUP6 PUSH2 0xF55 JUMP JUMPDEST DUP1 PUSH1 0x0 JUMPDEST DUP6 DUP2 LT ISZERO PUSH2 0x1066 JUMPI DUP5 DUP5 SUB DUP10 MSTORE DUP2 MLOAD PUSH2 0x1047 DUP6 DUP3 PUSH2 0xFE2 JUMP JUMPDEST SWAP5 POP PUSH2 0x1052 DUP4 PUSH2 0xFF6 JUMP JUMPDEST SWAP3 POP PUSH1 0x20 DUP11 ADD SWAP10 POP POP PUSH1 0x1 DUP2 ADD SWAP1 POP PUSH2 0x102E JUMP JUMPDEST POP DUP3 SWAP8 POP DUP8 SWAP6 POP POP POP POP POP POP SWAP3 SWAP2 POP POP JUMP JUMPDEST PUSH1 0x0 PUSH1 0x20 DUP3 ADD SWAP1 POP DUP2 DUP2 SUB PUSH1 0x0 DUP4 ADD MSTORE PUSH2 0x1092 DUP2 DUP5 PUSH2 0x1003 JUMP JUMPDEST SWAP1 POP SWAP3 SWAP2 POP POP JUMP JUMPDEST PUSH1 0x0 DUP1 REVERT JUMPDEST PUSH1 0x0 DUP1 REVERT JUMPDEST PUSH32 0x4E487B7100000000000000000000000000000000000000000000000000000000 PUSH1 0x0 MSTORE PUSH1 0x41 PUSH1 0x4 MSTORE PUSH1 0x24 PUSH1 0x0 REVERT JUMPDEST PUSH2 0x10DC DUP3 PUSH2 0xD83 JUMP JUMPDEST DUP2 ADD DUP2 DUP2 LT PUSH8 0xFFFFFFFFFFFFFFFF DUP3 GT OR ISZERO PUSH2 0x10FB JUMPI PUSH2 0x10FA PUSH2 0x10A4 JUMP JUMPDEST JUMPDEST DUP1 PUSH1 0x40 MSTORE POP POP POP JUMP JUMPDEST PUSH1 0x0 PUSH2 0x110E PUSH2 0xC55 JUMP JUMPDEST SWAP1 POP PUSH2 0x111A DUP3 DUP3 PUSH2 0x10D3 JUMP JUMPDEST SWAP2 SWAP1 POP JUMP JUMPDEST PUSH1 0x0 PUSH8 0xFFFFFFFFFFFFFFFF DUP3 GT ISZERO PUSH2 0x113A JUMPI PUSH2 0x1139 PUSH2 0x10A4 JUMP JUMPDEST JUMPDEST PUSH2 0x1143 DUP3 PUSH2 0xD83 JUMP JUMPDEST SWAP1 POP PUSH1 0x20 DUP2 ADD SWAP1 POP SWAP2 SWAP1 POP JUMP JUMPDEST DUP3 DUP2 DUP4 CALLDATACOPY PUSH1 0x0 DUP4 DUP4 ADD MSTORE POP POP POP JUMP JUMPDEST PUSH1 0x0 PUSH2 0x1172 PUSH2 0x116D DUP5 PUSH2 0x111F JUMP JUMPDEST PUSH2 0x1104 JUMP JUMPDEST SWAP1 POP DUP3 DUP2 MSTORE PUSH1 0x20 DUP2 ADD DUP5 DUP5 DUP5 ADD GT ISZERO PUSH2 0x118E JUMPI PUSH2 0x118D PUSH2 0x109F JUMP JUMPDEST JUMPDEST PUSH2 0x1199 DUP5 DUP3 DUP6 PUSH2 0x1150 JUMP JUMPDEST POP SWAP4 SWAP3 POP POP POP JUMP JUMPDEST PUSH1 0x0 DUP3 PUSH1 0x1F DUP4 ADD SLT PUSH2 0x11B6 JUMPI PUSH2 0x11B5 PUSH2 0x109A JUMP JUMPDEST JUMPDEST DUP2 CALLDATALOAD PUSH2 0x11C6 DUP5 DUP3 PUSH1 0x20 DUP7 ADD PUSH2 0x115F JUMP JUMPDEST SWAP2 POP POP SWAP3 SWAP2 POP POP JUMP JUMPDEST PUSH1 0x0 PUSH1 0x20 DUP3 DUP5 SUB SLT ISZERO PUSH2 0x11E5 JUMPI PUSH2 0x11E4 PUSH2 0xC5F JUMP JUMPDEST JUMPDEST PUSH1 0x0 DUP3 ADD CALLDATALOAD PUSH8 0xFFFFFFFFFFFFFFFF DUP2 GT ISZERO PUSH2 0x1203 JUMPI PUSH2 0x1202 PUSH2 0xC64 JUMP JUMPDEST JUMPDEST PUSH2 0x120F DUP5 DUP3 DUP6 ADD PUSH2 0x11A1 JUMP JUMPDEST SWAP2 POP POP SWAP3 SWAP2 POP POP JUMP JUMPDEST PUSH1 0x0 PUSH1 0x20 DUP3 DUP5 SUB SLT ISZERO PUSH2 0x122E JUMPI PUSH2 0x122D PUSH2 0xC5F JUMP JUMPDEST JUMPDEST PUSH1 0x0 PUSH2 0x123C DUP5 DUP3 DUP6 ADD PUSH2 0xCE8 JUMP JUMPDEST SWAP2 POP POP SWAP3 SWAP2 POP POP JUMP JUMPDEST PUSH32 0x4E487B7100000000000000000000000000000000000000000000000000000000 PUSH1 0x0 MSTORE PUSH1 0x11 PUSH1 0x4 MSTORE PUSH1 0x24 PUSH1 0x0 REVERT JUMPDEST PUSH1 0x0 PUSH2 0x127F DUP3 PUSH2 0xCC7 JUMP JUMPDEST SWAP2 POP PUSH2 0x128A DUP4 PUSH2 0xCC7 JUMP JUMPDEST SWAP3 POP DUP3 DUP3 SUB SWAP1 POP DUP2 DUP2 GT ISZERO PUSH2 0x12A2 JUMPI PUSH2 0x12A1 PUSH2 0x1245 JUMP JUMPDEST JUMPDEST SWAP3 SWAP2 POP POP JUMP JUMPDEST PUSH32 0x4E487B7100000000000000000000000000000000000000000000000000000000 PUSH1 0x0 MSTORE PUSH1 0x32 PUSH1 0x4 MSTORE PUSH1 0x24 PUSH1 0x0 REVERT JUMPDEST PUSH1 0x0 PUSH2 0x12E2 DUP3 PUSH2 0xCC7 JUMP JUMPDEST SWAP2 POP PUSH32 0xFFFFFFFFFFFFFFFFFFFFFFFFFFFFFFFFFFFFFFFFFFFFFFFFFFFFFFFFFFFFFFFF DUP3 SUB PUSH2 0x1314 JUMPI PUSH2 0x1313 PUSH2 0x1245 JUMP JUMPDEST JUMPDEST PUSH1 0x1 DUP3 ADD SWAP1 POP SWAP2 SWAP1 POP JUMP JUMPDEST PUSH32 0x4E487B7100000000000000000000000000000000000000000000000000000000 PUSH1 0x0 MSTORE PUSH1 0x22 PUSH1 0x4 MSTORE PUSH1 0x24 PUSH1 0x0 REVERT JUMPDEST PUSH1 0x0 PUSH1 0x2 DUP3 DIV SWAP1 POP PUSH1 0x1 DUP3 AND DUP1 PUSH2 0x1366 JUMPI PUSH1 0x7F DUP3 AND SWAP2 POP JUMPDEST PUSH1 0x20 DUP3 LT DUP2 SUB PUSH2 0x1379 JUMPI PUSH2 0x1378 PUSH2 0x131F JUMP JUMPDEST JUMPDEST POP SWAP2 SWAP1 POP JUMP JUMPDEST PUSH32 0x4E487B7100000000000000000000000000000000000000000000000000000000 PUSH1 0x0 MSTORE PUSH1 0x31 PUSH1 0x4 MSTORE PUSH1 0x24 PUSH1 0x0 REVERT JUMPDEST PUSH1 0x0 DUP3 DUP3 MSTORE PUSH1 0x20 DUP3 ADD SWAP1 POP SWAP3 SWAP2 POP POP JUMP JUMPDEST PUSH32 0x5477656574204C656E6774682069732045786365656421000000000000000000 PUSH1 0x0 DUP3 ADD MSTORE POP JUMP JUMPDEST PUSH1 0x0 PUSH2 0x13F5 PUSH1 0x17 DUP4 PUSH2 0x13AE JUMP JUMPDEST SWAP2 POP PUSH2 0x1400 DUP3 PUSH2 0x13BF JUMP JUMPDEST PUSH1 0x20 DUP3 ADD SWAP1 POP SWAP2 SWAP1 POP JUMP JUMPDEST PUSH1 0x0 PUSH1 0x20 DUP3 ADD SWAP1 POP DUP2 DUP2 SUB PUSH1 0x0 DUP4 ADD MSTORE PUSH2 0x1424 DUP2 PUSH2 0x13E8 JUMP JUMPDEST SWAP1 POP SWAP2 SWAP1 POP JUMP JUMPDEST PUSH1 0x0 DUP2 SWAP1 POP DUP2 PUSH1 0x0 MSTORE PUSH1 0x20 PUSH1 0x0 KECCAK256 SWAP1 POP SWAP2 SWAP1 POP JUMP JUMPDEST PUSH1 0x0 PUSH1 0x20 PUSH1 0x1F DUP4 ADD DIV SWAP1 POP SWAP2 SWAP1 POP JUMP JUMPDEST PUSH1 0x0 DUP3 DUP3 SHL SWAP1 POP SWAP3 SWAP2 POP POP JUMP JUMPDEST PUSH1 0x0 PUSH1 0x8 DUP4 MUL PUSH2 0x148D PUSH32 0xFFFFFFFFFFFFFFFFFFFFFFFFFFFFFFFFFFFFFFFFFFFFFFFFFFFFFFFFFFFFFFFF DUP3 PUSH2 0x1450 JUMP JUMPDEST PUSH2 0x1497 DUP7 DUP4 PUSH2 0x1450 JUMP JUMPDEST SWAP6 POP DUP1 NOT DUP5 AND SWAP4 POP DUP1 DUP7 AND DUP5 OR SWAP3 POP POP POP SWAP4 SWAP3 POP POP POP JUMP JUMPDEST PUSH1 0x0 DUP2 SWAP1 POP SWAP2 SWAP1 POP JUMP JUMPDEST PUSH1 0x0 PUSH2 0x14D4 PUSH2 0x14CF PUSH2 0x14CA DUP5 PUSH2 0xCC7 JUMP JUMPDEST PUSH2 0x14AF JUMP JUMPDEST PUSH2 0xCC7 JUMP JUMPDEST SWAP1 POP SWAP2 SWAP1 POP JUMP JUMPDEST PUSH1 0x0 DUP2 SWAP1 POP SWAP2 SWAP1 POP JUMP JUMPDEST PUSH2 0x14EE DUP4 PUSH2 0x14B9 JUMP JUMPDEST PUSH2 0x1502 PUSH2 0x14FA DUP3 PUSH2 0x14DB JUMP JUMPDEST DUP5 DUP5 SLOAD PUSH2 0x145D JUMP JUMPDEST DUP3 SSTORE POP POP POP POP JUMP JUMPDEST PUSH1 0x0 SWAP1 JUMP JUMPDEST PUSH2 0x1517 PUSH2 0x150A JUMP JUMPDEST PUSH2 0x1522 DUP2 DUP5 DUP5 PUSH2 0x14E5 JUMP JUMPDEST POP POP POP JUMP JUMPDEST JUMPDEST DUP2 DUP2 LT ISZERO PUSH2 0x1546 JUMPI PUSH2 0x153B PUSH1 0x0 DUP3 PUSH2 0x150F JUMP JUMPDEST PUSH1 0x1 DUP2 ADD SWAP1 POP PUSH2 0x1528 JUMP JUMPDEST POP POP JUMP JUMPDEST PUSH1 0x1F DUP3 GT ISZERO PUSH2 0x158B JUMPI PUSH2 0x155C DUP2 PUSH2 0x142B JUMP JUMPDEST PUSH2 0x1565 DUP5 PUSH2 0x1440 JUMP JUMPDEST DUP2 ADD PUSH1 0x20 DUP6 LT ISZERO PUSH2 0x1574 JUMPI DUP2 SWAP1 POP JUMPDEST PUSH2 0x1588 PUSH2 0x1580 DUP6 PUSH2 0x1440 JUMP JUMPDEST DUP4 ADD DUP3 PUSH2 0x1527 JUMP JUMPDEST POP POP JUMPDEST POP POP POP JUMP JUMPDEST PUSH1 0x0 DUP3 DUP3 SHR SWAP1 POP SWAP3 SWAP2 POP POP JUMP JUMPDEST PUSH1 0x0 PUSH2 0x15AE PUSH1 0x0 NOT DUP5 PUSH1 0x8 MUL PUSH2 0x1590 JUMP JUMPDEST NOT DUP1 DUP4 AND SWAP2 POP POP SWAP3 SWAP2 POP POP JUMP JUMPDEST PUSH1 0x0 PUSH2 0x15C7 DUP4 DUP4 PUSH2 0x159D JUMP JUMPDEST SWAP2 POP DUP3 PUSH1 0x2 MUL DUP3 OR SWAP1 POP SWAP3 SWAP2 POP POP JUMP JUMPDEST PUSH2 0x15E0 DUP3 PUSH2 0xD3D JUMP JUMPDEST PUSH8 0xFFFFFFFFFFFFFFFF DUP2 GT ISZERO PUSH2 0x15F9 JUMPI PUSH2 0x15F8 PUSH2 0x10A4 JUMP JUMPDEST JUMPDEST PUSH2 0x1603 DUP3 SLOAD PUSH2 0x134E JUMP JUMPDEST PUSH2 0x160E DUP3 DUP3 DUP6 PUSH2 0x154A JUMP JUMPDEST PUSH1 0x0 PUSH1 0x20 SWAP1 POP PUSH1 0x1F DUP4 GT PUSH1 0x1 DUP2 EQ PUSH2 0x1641 JUMPI PUSH1 0x0 DUP5 ISZERO PUSH2 0x162F JUMPI DUP3 DUP8 ADD MLOAD SWAP1 POP JUMPDEST PUSH2 0x1639 DUP6 DUP3 PUSH2 0x15BB JUMP JUMPDEST DUP7 SSTORE POP PUSH2 0x16A1 JUMP JUMPDEST PUSH1 0x1F NOT DUP5 AND PUSH2 0x164F DUP7 PUSH2 0x142B JUMP JUMPDEST PUSH1 0x0 JUMPDEST DUP3 DUP2 LT ISZERO PUSH2 0x1677 JUMPI DUP5 DUP10 ADD MLOAD DUP3 SSTORE PUSH1 0x1 DUP3 ADD SWAP2 POP PUSH1 0x20 DUP6 ADD SWAP5 POP PUSH1 0x20 DUP2 ADD SWAP1 POP PUSH2 0x1652 JUMP JUMPDEST DUP7 DUP4 LT ISZERO PUSH2 0x1694 JUMPI DUP5 DUP10 ADD MLOAD PUSH2 0x1690 PUSH1 0x1F DUP10 AND DUP3 PUSH2 0x159D JUMP JUMPDEST DUP4 SSTORE POP JUMPDEST PUSH1 0x1 PUSH1 0x2 DUP9 MUL ADD DUP9 SSTORE POP POP POP JUMPDEST POP POP POP POP POP POP JUMP JUMPDEST PUSH32 0x596F7520617265206E6F742061204F776E6572215065726D697373696F6E2044 PUSH1 0x0 DUP3 ADD MSTORE PUSH32 0x656E696564210000000000000000000000000000000000000000000000000000 PUSH1 0x20 DUP3 ADD MSTORE POP JUMP JUMPDEST PUSH1 0x0 PUSH2 0x1705 PUSH1 0x26 DUP4 PUSH2 0x13AE JUMP JUMPDEST SWAP2 POP PUSH2 0x1710 DUP3 PUSH2 0x16A9 JUMP JUMPDEST PUSH1 0x40 DUP3 ADD SWAP1 POP SWAP2 SWAP1 POP JUMP JUMPDEST PUSH1 0x0 PUSH1 0x20 DUP3 ADD SWAP1 POP DUP2 DUP2 SUB PUSH1 0x0 DUP4 ADD MSTORE PUSH2 0x1734 DUP2 PUSH2 0x16F8 JUMP JUMPDEST SWAP1 POP SWAP2 SWAP1 POP JUMP INVALID LOG2 PUSH5 0x6970667358 0x22 SLT KECCAK256 SWAP13 LOG4 PUSH20 0x27093DB34C92CE89A6FA9C172E23C8F792634BEA 0xBE DUP9 0xAA DELEGATECALL 0xD3 PUSH25 0x681B2D64736F6C634300081200330000000000000000000000 "
				},
				"gasEstimates": {
					"creation": {
						"codeDepositCost": "1200200",
						"executionCost": "47620",
						"totalCost": "1247820"
					},
					"external": {
						"ChangeTweetLength(uint256)": "24753",
						"DeleteAllTweets()": "infinite",
						"DeleteRecentTweet()": "infinite",
						"GetAllTweets()": "infinite",
						"GetTweet(address,uint256)": "infinite",
						"GiveLikes(address,uint256)": "infinite",
						"createTweet(string)": "infinite"
					}
				},
				"methodIdentifiers": {
					"ChangeTweetLength(uint256)": "e479c244",
					"DeleteAllTweets()": "765fab45",
					"DeleteRecentTweet()": "71e7eb12",
					"GetAllTweets()": "42d7fbc0",
					"GetTweet(address,uint256)": "37f36a4c",
					"GiveLikes(address,uint256)": "0362d52e",
					"createTweet(string)": "7c9cd2bc"
				}
			},
			"storageLayout": {
				"storage": [
					{
						"astId": 3,
						"contract": "contracts/Twitter0.4v.sol:Twitter",
						"label": "owner",
						"offset": 0,
						"slot": "0",
						"type": "t_address"
					},
					{
						"astId": 27,
						"contract": "contracts/Twitter0.4v.sol:Twitter",
						"label": "TweetLength",
						"offset": 0,
						"slot": "1",
						"type": "t_uint256"
					},
					{
						"astId": 54,
						"contract": "contracts/Twitter0.4v.sol:Twitter",
						"label": "li",
						"offset": 0,
						"slot": "2",
						"type": "t_array(t_address)dyn_storage"
					},
					{
						"astId": 60,
						"contract": "contracts/Twitter0.4v.sol:Twitter",
						"label": "Tweet_info",
						"offset": 0,
						"slot": "3",
						"type": "t_mapping(t_address,t_array(t_struct(Tweet)15_storage)dyn_storage)"
					}
				],
				"types": {
					"t_address": {
						"encoding": "inplace",
						"label": "address",
						"numberOfBytes": "20"
					},
					"t_array(t_address)dyn_storage": {
						"base": "t_address",
						"encoding": "dynamic_array",
						"label": "address[]",
						"numberOfBytes": "32"
					},
					"t_array(t_struct(Tweet)15_storage)dyn_storage": {
						"base": "t_struct(Tweet)15_storage",
						"encoding": "dynamic_array",
						"label": "struct Twitter.Tweet[]",
						"numberOfBytes": "32"
					},
					"t_mapping(t_address,t_array(t_struct(Tweet)15_storage)dyn_storage)": {
						"encoding": "mapping",
						"key": "t_address",
						"label": "mapping(address => struct Twitter.Tweet[])",
						"numberOfBytes": "32",
						"value": "t_array(t_struct(Tweet)15_storage)dyn_storage"
					},
					"t_string_storage": {
						"encoding": "bytes",
						"label": "string",
						"numberOfBytes": "32"
					},
					"t_struct(Tweet)15_storage": {
						"encoding": "inplace",
						"label": "struct Twitter.Tweet",
						"members": [
							{
								"astId": 5,
								"contract": "contracts/Twitter0.4v.sol:Twitter",
								"label": "content",
								"offset": 0,
								"slot": "0",
								"type": "t_string_storage"
							},
							{
								"astId": 7,
								"contract": "contracts/Twitter0.4v.sol:Twitter",
								"label": "author",
								"offset": 0,
								"slot": "1",
								"type": "t_address"
							},
							{
								"astId": 9,
								"contract": "contracts/Twitter0.4v.sol:Twitter",
								"label": "timestamp",
								"offset": 0,
								"slot": "2",
								"type": "t_uint256"
							},
							{
								"astId": 12,
								"contract": "contracts/Twitter0.4v.sol:Twitter",
								"label": "likes",
								"offset": 0,
								"slot": "3",
								"type": "t_array(t_address)dyn_storage"
							},
							{
								"astId": 14,
								"contract": "contracts/Twitter0.4v.sol:Twitter",
								"label": "LikesCount",
								"offset": 0,
								"slot": "4",
								"type": "t_uint256"
							}
						],
						"numberOfBytes": "160"
					},
					"t_uint256": {
						"encoding": "inplace",
						"label": "uint256",
						"numberOfBytes": "32"
					}
				}
			},
			"userdoc": {
				"kind": "user",
				"methods": {},
				"version": 1
			}
		}
	}
}