{
	"contracts/Twitter0.3v.sol": {
		"Twitter": {
			"abi": [
				{
					"inputs": [],
					"name": "DeleteAllTweets",
					"outputs": [],
					"stateMutability": "nonpayable",
					"type": "function"
				},
				{
					"inputs": [],
					"name": "DeleteRecentTweet",
					"outputs": [],
					"stateMutability": "nonpayable",
					"type": "function"
				},
				{
					"inputs": [],
					"name": "GetAllTweets",
					"outputs": [
						{
							"components": [
								{
									"internalType": "string",
									"name": "content",
									"type": "string"
								},
								{
									"internalType": "address",
									"name": "author",
									"type": "address"
								},
								{
									"internalType": "uint256",
									"name": "timestamp",
									"type": "uint256"
								},
								{
									"internalType": "address[]",
									"name": "likes",
									"type": "address[]"
								},
								{
									"internalType": "uint256",
									"name": "LikesCount",
									"type": "uint256"
								}
							],
							"internalType": "struct Twitter.Tweet[]",
							"name": "",
							"type": "tuple[]"
						}
					],
					"stateMutability": "view",
					"type": "function"
				},
				{
					"inputs": [
						{
							"internalType": "address",
							"name": "User",
							"type": "address"
						},
						{
							"internalType": "uint256",
							"name": "Index",
							"type": "uint256"
						}
					],
					"name": "GetTweet",
					"outputs": [
						{
							"components": [
								{
									"internalType": "string",
									"name": "content",
									"type": "string"
								},
								{
									"internalType": "address",
									"name": "author",
									"type": "address"
								},
								{
									"internalType": "uint256",
									"name": "timestamp",
									"type": "uint256"
								},
								{
									"internalType": "address[]",
									"name": "likes",
									"type": "address[]"
								},
								{
									"internalType": "uint256",
									"name": "LikesCount",
									"type": "uint256"
								}
							],
							"internalType": "struct Twitter.Tweet",
							"name": "",
							"type": "tuple"
						}
					],
					"stateMutability": "view",
					"type": "function"
				},
				{
					"inputs": [
						{
							"internalType": "address",
							"name": "User",
							"type": "address"
						},
						{
							"internalType": "uint256",
							"name": "TweetIndex",
							"type": "uint256"
						}
					],
					"name": "GiveLikes",
					"outputs": [],
					"stateMutability": "nonpayable",
					"type": "function"
				},
				{
					"inputs": [
						{
							"internalType": "string",
							"name": "_tweet",
							"type": "string"
						}
					],
					"name": "createTweet",
					"outputs": [],
					"stateMutability": "nonpayable",
					"type": "function"
				}
			],
			"devdoc": {
				"kind": "dev",
				"methods": {},
				"version": 1
			},
			"evm": {
				"assembly": "    /* \"contracts/Twitter0.3v.sol\":155:2007  contract Twitter... */\n  mstore(0x40, 0x80)\n  callvalue\n  dup1\n  iszero\n  tag_1\n  jumpi\n  0x00\n  dup1\n  revert\ntag_1:\n  pop\n  dataSize(sub_0)\n  dup1\n  dataOffset(sub_0)\n  0x00\n  codecopy\n  0x00\n  return\nstop\n\nsub_0: assembly {\n        /* \"contracts/Twitter0.3v.sol\":155:2007  contract Twitter... */\n      mstore(0x40, 0x80)\n      callvalue\n      dup1\n      iszero\n      tag_1\n      jumpi\n      0x00\n      dup1\n      revert\n    tag_1:\n      pop\n      jumpi(tag_2, lt(calldatasize, 0x04))\n      shr(0xe0, calldataload(0x00))\n      dup1\n      0x0362d52e\n      eq\n      tag_3\n      jumpi\n      dup1\n      0x37f36a4c\n      eq\n      tag_4\n      jumpi\n      dup1\n      0x42d7fbc0\n      eq\n      tag_5\n      jumpi\n      dup1\n      0x71e7eb12\n      eq\n      tag_6\n      jumpi\n      dup1\n      0x765fab45\n      eq\n      tag_7\n      jumpi\n      dup1\n      0x7c9cd2bc\n      eq\n      tag_8\n      jumpi\n    tag_2:\n      0x00\n      dup1\n      revert\n        /* \"contracts/Twitter0.3v.sol\":1806:1996  function GiveLikes(address User,uint256 TweetIndex)public ... */\n    tag_3:\n      tag_9\n      0x04\n      dup1\n      calldatasize\n      sub\n      dup2\n      add\n      swap1\n      tag_10\n      swap2\n      swap1\n      tag_11\n      jump\t// in\n    tag_10:\n      tag_12\n      jump\t// in\n    tag_9:\n      stop\n        /* \"contracts/Twitter0.3v.sol\":1481:1614  function GetTweet(address User,uint Index)public view returns (Tweet memory)... */\n    tag_4:\n      tag_13\n      0x04\n      dup1\n      calldatasize\n      sub\n      dup2\n      add\n      swap1\n      tag_14\n      swap2\n      swap1\n      tag_11\n      jump\t// in\n    tag_14:\n      tag_15\n      jump\t// in\n    tag_13:\n      mload(0x40)\n      tag_16\n      swap2\n      swap1\n      tag_17\n      jump\t// in\n    tag_16:\n      mload(0x40)\n      dup1\n      swap2\n      sub\n      swap1\n      return\n        /* \"contracts/Twitter0.3v.sol\":1360:1473  function GetAllTweets() public view returns(Tweet[] memory)... */\n    tag_5:\n      tag_18\n      tag_19\n      jump\t// in\n    tag_18:\n      mload(0x40)\n      tag_20\n      swap2\n      swap1\n      tag_21\n      jump\t// in\n    tag_20:\n      mload(0x40)\n      dup1\n      swap2\n      sub\n      swap1\n      return\n        /* \"contracts/Twitter0.3v.sol\":1622:1709  function DeleteRecentTweet()public... */\n    tag_6:\n      tag_22\n      tag_23\n      jump\t// in\n    tag_22:\n      stop\n        /* \"contracts/Twitter0.3v.sol\":1717:1798  function DeleteAllTweets()public {... */\n    tag_7:\n      tag_24\n      tag_25\n      jump\t// in\n    tag_24:\n      stop\n        /* \"contracts/Twitter0.3v.sol\":483:1352  function createTweet(string memory _tweet) public {... */\n    tag_8:\n      tag_26\n      0x04\n      dup1\n      calldatasize\n      sub\n      dup2\n      add\n      swap1\n      tag_27\n      swap2\n      swap1\n      tag_28\n      jump\t// in\n    tag_27:\n      tag_29\n      jump\t// in\n    tag_26:\n      stop\n        /* \"contracts/Twitter0.3v.sol\":1806:1996  function GiveLikes(address User,uint256 TweetIndex)public ... */\n    tag_12:\n        /* \"contracts/Twitter0.3v.sol\":1881:1891  Tweet_info */\n      0x01\n        /* \"contracts/Twitter0.3v.sol\":1881:1897  Tweet_info[User] */\n      0x00\n        /* \"contracts/Twitter0.3v.sol\":1892:1896  User */\n      dup4\n        /* \"contracts/Twitter0.3v.sol\":1881:1897  Tweet_info[User] */\n      0xffffffffffffffffffffffffffffffffffffffff\n      and\n      0xffffffffffffffffffffffffffffffffffffffff\n      and\n      dup2\n      mstore\n      0x20\n      add\n      swap1\n      dup2\n      mstore\n      0x20\n      add\n      0x00\n      keccak256\n        /* \"contracts/Twitter0.3v.sol\":1909:1910  1 */\n      0x01\n        /* \"contracts/Twitter0.3v.sol\":1898:1908  TweetIndex */\n      dup3\n        /* \"contracts/Twitter0.3v.sol\":1898:1910  TweetIndex-1 */\n      tag_31\n      swap2\n      swap1\n      tag_32\n      jump\t// in\n    tag_31:\n        /* \"contracts/Twitter0.3v.sol\":1881:1911  Tweet_info[User][TweetIndex-1] */\n      dup2\n      sload\n      dup2\n      lt\n      tag_33\n      jumpi\n      tag_34\n      tag_35\n      jump\t// in\n    tag_34:\n    tag_33:\n      swap1\n      0x00\n      mstore\n      keccak256(0x00, 0x20)\n      swap1\n      0x05\n      mul\n      add\n        /* \"contracts/Twitter0.3v.sol\":1881:1917  Tweet_info[User][TweetIndex-1].likes */\n      0x03\n      add\n        /* \"contracts/Twitter0.3v.sol\":1923:1933  msg.sender */\n      caller\n        /* \"contracts/Twitter0.3v.sol\":1881:1934  Tweet_info[User][TweetIndex-1].likes.push(msg.sender) */\n      swap1\n      dup1\n      0x01\n      dup2\n      sload\n      add\n      dup1\n      dup3\n      sstore\n      dup1\n      swap2\n      pop\n      pop\n      0x01\n      swap1\n      sub\n      swap1\n      0x00\n      mstore\n      keccak256(0x00, 0x20)\n      add\n      0x00\n      swap1\n      swap2\n      swap1\n      swap2\n      swap1\n      swap2\n      0x0100\n      exp\n      dup2\n      sload\n      dup2\n      0xffffffffffffffffffffffffffffffffffffffff\n      mul\n      not\n      and\n      swap1\n      dup4\n      0xffffffffffffffffffffffffffffffffffffffff\n      and\n      mul\n      or\n      swap1\n      sstore\n      pop\n        /* \"contracts/Twitter0.3v.sol\":1945:1955  Tweet_info */\n      0x01\n        /* \"contracts/Twitter0.3v.sol\":1945:1961  Tweet_info[User] */\n      0x00\n        /* \"contracts/Twitter0.3v.sol\":1956:1960  User */\n      dup4\n        /* \"contracts/Twitter0.3v.sol\":1945:1961  Tweet_info[User] */\n      0xffffffffffffffffffffffffffffffffffffffff\n      and\n      0xffffffffffffffffffffffffffffffffffffffff\n      and\n      dup2\n      mstore\n      0x20\n      add\n      swap1\n      dup2\n      mstore\n      0x20\n      add\n      0x00\n      keccak256\n        /* \"contracts/Twitter0.3v.sol\":1973:1974  1 */\n      0x01\n        /* \"contracts/Twitter0.3v.sol\":1962:1972  TweetIndex */\n      dup3\n        /* \"contracts/Twitter0.3v.sol\":1962:1974  TweetIndex-1 */\n      tag_38\n      swap2\n      swap1\n      tag_32\n      jump\t// in\n    tag_38:\n        /* \"contracts/Twitter0.3v.sol\":1945:1975  Tweet_info[User][TweetIndex-1] */\n      dup2\n      sload\n      dup2\n      lt\n      tag_39\n      jumpi\n      tag_40\n      tag_35\n      jump\t// in\n    tag_40:\n    tag_39:\n      swap1\n      0x00\n      mstore\n      keccak256(0x00, 0x20)\n      swap1\n      0x05\n      mul\n      add\n        /* \"contracts/Twitter0.3v.sol\":1945:1986  Tweet_info[User][TweetIndex-1].LikesCount */\n      0x04\n      add\n      0x00\n        /* \"contracts/Twitter0.3v.sol\":1945:1988  Tweet_info[User][TweetIndex-1].LikesCount++ */\n      dup2\n      sload\n      dup1\n      swap3\n      swap2\n      swap1\n      tag_42\n      swap1\n      tag_43\n      jump\t// in\n    tag_42:\n      swap2\n      swap1\n      pop\n      sstore\n      pop\n        /* \"contracts/Twitter0.3v.sol\":1806:1996  function GiveLikes(address User,uint256 TweetIndex)public ... */\n      pop\n      pop\n      jump\t// out\n        /* \"contracts/Twitter0.3v.sol\":1481:1614  function GetTweet(address User,uint Index)public view returns (Tweet memory)... */\n    tag_15:\n        /* \"contracts/Twitter0.3v.sol\":1544:1556  Tweet memory */\n      tag_44\n      tag_45\n      jump\t// in\n    tag_44:\n        /* \"contracts/Twitter0.3v.sol\":1581:1591  Tweet_info */\n      0x01\n        /* \"contracts/Twitter0.3v.sol\":1581:1597  Tweet_info[User] */\n      0x00\n        /* \"contracts/Twitter0.3v.sol\":1592:1596  User */\n      dup5\n        /* \"contracts/Twitter0.3v.sol\":1581:1597  Tweet_info[User] */\n      0xffffffffffffffffffffffffffffffffffffffff\n      and\n      0xffffffffffffffffffffffffffffffffffffffff\n      and\n      dup2\n      mstore\n      0x20\n      add\n      swap1\n      dup2\n      mstore\n      0x20\n      add\n      0x00\n      keccak256\n        /* \"contracts/Twitter0.3v.sol\":1604:1605  1 */\n      0x01\n        /* \"contracts/Twitter0.3v.sol\":1598:1603  Index */\n      dup4\n        /* \"contracts/Twitter0.3v.sol\":1598:1605  Index-1 */\n      tag_47\n      swap2\n      swap1\n      tag_32\n      jump\t// in\n    tag_47:\n        /* \"contracts/Twitter0.3v.sol\":1581:1606  Tweet_info[User][Index-1] */\n      dup2\n      sload\n      dup2\n      lt\n      tag_48\n      jumpi\n      tag_49\n      tag_35\n      jump\t// in\n    tag_49:\n    tag_48:\n      swap1\n      0x00\n      mstore\n      keccak256(0x00, 0x20)\n      swap1\n      0x05\n      mul\n      add\n        /* \"contracts/Twitter0.3v.sol\":1574:1606  return Tweet_info[User][Index-1] */\n      mload(0x40)\n      dup1\n      0xa0\n      add\n      0x40\n      mstore\n      swap1\n      dup2\n      0x00\n      dup3\n      add\n      dup1\n      sload\n      tag_51\n      swap1\n      tag_52\n      jump\t// in\n    tag_51:\n      dup1\n      0x1f\n      add\n      0x20\n      dup1\n      swap2\n      div\n      mul\n      0x20\n      add\n      mload(0x40)\n      swap1\n      dup2\n      add\n      0x40\n      mstore\n      dup1\n      swap3\n      swap2\n      swap1\n      dup2\n      dup2\n      mstore\n      0x20\n      add\n      dup3\n      dup1\n      sload\n      tag_53\n      swap1\n      tag_52\n      jump\t// in\n    tag_53:\n      dup1\n      iszero\n      tag_54\n      jumpi\n      dup1\n      0x1f\n      lt\n      tag_55\n      jumpi\n      0x0100\n      dup1\n      dup4\n      sload\n      div\n      mul\n      dup4\n      mstore\n      swap2\n      0x20\n      add\n      swap2\n      jump(tag_54)\n    tag_55:\n      dup3\n      add\n      swap2\n      swap1\n      0x00\n      mstore\n      keccak256(0x00, 0x20)\n      swap1\n    tag_56:\n      dup2\n      sload\n      dup2\n      mstore\n      swap1\n      0x01\n      add\n      swap1\n      0x20\n      add\n      dup1\n      dup4\n      gt\n      tag_56\n      jumpi\n      dup3\n      swap1\n      sub\n      0x1f\n      and\n      dup3\n      add\n      swap2\n    tag_54:\n      pop\n      pop\n      pop\n      pop\n      pop\n      dup2\n      mstore\n      0x20\n      add\n      0x01\n      dup3\n      add\n      0x00\n      swap1\n      sload\n      swap1\n      0x0100\n      exp\n      swap1\n      div\n      0xffffffffffffffffffffffffffffffffffffffff\n      and\n      0xffffffffffffffffffffffffffffffffffffffff\n      and\n      0xffffffffffffffffffffffffffffffffffffffff\n      and\n      dup2\n      mstore\n      0x20\n      add\n      0x02\n      dup3\n      add\n      sload\n      dup2\n      mstore\n      0x20\n      add\n      0x03\n      dup3\n      add\n      dup1\n      sload\n      dup1\n      0x20\n      mul\n      0x20\n      add\n      mload(0x40)\n      swap1\n      dup2\n      add\n      0x40\n      mstore\n      dup1\n      swap3\n      swap2\n      swap1\n      dup2\n      dup2\n      mstore\n      0x20\n      add\n      dup3\n      dup1\n      sload\n      dup1\n      iszero\n      tag_57\n      jumpi\n      0x20\n      mul\n      dup3\n      add\n      swap2\n      swap1\n      0x00\n      mstore\n      keccak256(0x00, 0x20)\n      swap1\n    tag_58:\n      dup2\n      0x00\n      swap1\n      sload\n      swap1\n      0x0100\n      exp\n      swap1\n      div\n      0xffffffffffffffffffffffffffffffffffffffff\n      and\n      0xffffffffffffffffffffffffffffffffffffffff\n      and\n      dup2\n      mstore\n      0x20\n      add\n      swap1\n      0x01\n      add\n      swap1\n      dup1\n      dup4\n      gt\n      tag_58\n      jumpi\n    tag_57:\n      pop\n      pop\n      pop\n      pop\n      pop\n      dup2\n      mstore\n      0x20\n      add\n      0x04\n      dup3\n      add\n      sload\n      dup2\n      mstore\n      pop\n      pop\n      swap1\n      pop\n        /* \"contracts/Twitter0.3v.sol\":1481:1614  function GetTweet(address User,uint Index)public view returns (Tweet memory)... */\n      swap3\n      swap2\n      pop\n      pop\n      jump\t// out\n        /* \"contracts/Twitter0.3v.sol\":1360:1473  function GetAllTweets() public view returns(Tweet[] memory)... */\n    tag_19:\n        /* \"contracts/Twitter0.3v.sol\":1404:1418  Tweet[] memory */\n      0x60\n        /* \"contracts/Twitter0.3v.sol\":1443:1453  Tweet_info */\n      0x01\n        /* \"contracts/Twitter0.3v.sol\":1443:1465  Tweet_info[msg.sender] */\n      0x00\n        /* \"contracts/Twitter0.3v.sol\":1454:1464  msg.sender */\n      caller\n        /* \"contracts/Twitter0.3v.sol\":1443:1465  Tweet_info[msg.sender] */\n      0xffffffffffffffffffffffffffffffffffffffff\n      and\n      0xffffffffffffffffffffffffffffffffffffffff\n      and\n      dup2\n      mstore\n      0x20\n      add\n      swap1\n      dup2\n      mstore\n      0x20\n      add\n      0x00\n      keccak256\n        /* \"contracts/Twitter0.3v.sol\":1436:1465  return Tweet_info[msg.sender] */\n      dup1\n      sload\n      dup1\n      0x20\n      mul\n      0x20\n      add\n      mload(0x40)\n      swap1\n      dup2\n      add\n      0x40\n      mstore\n      dup1\n      swap3\n      swap2\n      swap1\n      dup2\n      dup2\n      mstore\n      0x20\n      add\n      0x00\n      swap1\n    tag_60:\n      dup3\n      dup3\n      lt\n      iszero\n      tag_61\n      jumpi\n      dup4\n      dup3\n      swap1\n      0x00\n      mstore\n      keccak256(0x00, 0x20)\n      swap1\n      0x05\n      mul\n      add\n      mload(0x40)\n      dup1\n      0xa0\n      add\n      0x40\n      mstore\n      swap1\n      dup2\n      0x00\n      dup3\n      add\n      dup1\n      sload\n      tag_63\n      swap1\n      tag_52\n      jump\t// in\n    tag_63:\n      dup1\n      0x1f\n      add\n      0x20\n      dup1\n      swap2\n      div\n      mul\n      0x20\n      add\n      mload(0x40)\n      swap1\n      dup2\n      add\n      0x40\n      mstore\n      dup1\n      swap3\n      swap2\n      swap1\n      dup2\n      dup2\n      mstore\n      0x20\n      add\n      dup3\n      dup1\n      sload\n      tag_64\n      swap1\n      tag_52\n      jump\t// in\n    tag_64:\n      dup1\n      iszero\n      tag_65\n      jumpi\n      dup1\n      0x1f\n      lt\n      tag_66\n      jumpi\n      0x0100\n      dup1\n      dup4\n      sload\n      div\n      mul\n      dup4\n      mstore\n      swap2\n      0x20\n      add\n      swap2\n      jump(tag_65)\n    tag_66:\n      dup3\n      add\n      swap2\n      swap1\n      0x00\n      mstore\n      keccak256(0x00, 0x20)\n      swap1\n    tag_67:\n      dup2\n      sload\n      dup2\n      mstore\n      swap1\n      0x01\n      add\n      swap1\n      0x20\n      add\n      dup1\n      dup4\n      gt\n      tag_67\n      jumpi\n      dup3\n      swap1\n      sub\n      0x1f\n      and\n      dup3\n      add\n      swap2\n    tag_65:\n      pop\n      pop\n      pop\n      pop\n      pop\n      dup2\n      mstore\n      0x20\n      add\n      0x01\n      dup3\n      add\n      0x00\n      swap1\n      sload\n      swap1\n      0x0100\n      exp\n      swap1\n      div\n      0xffffffffffffffffffffffffffffffffffffffff\n      and\n      0xffffffffffffffffffffffffffffffffffffffff\n      and\n      0xffffffffffffffffffffffffffffffffffffffff\n      and\n      dup2\n      mstore\n      0x20\n      add\n      0x02\n      dup3\n      add\n      sload\n      dup2\n      mstore\n      0x20\n      add\n      0x03\n      dup3\n      add\n      dup1\n      sload\n      dup1\n      0x20\n      mul\n      0x20\n      add\n      mload(0x40)\n      swap1\n      dup2\n      add\n      0x40\n      mstore\n      dup1\n      swap3\n      swap2\n      swap1\n      dup2\n      dup2\n      mstore\n      0x20\n      add\n      dup3\n      dup1\n      sload\n      dup1\n      iszero\n      tag_68\n      jumpi\n      0x20\n      mul\n      dup3\n      add\n      swap2\n      swap1\n      0x00\n      mstore\n      keccak256(0x00, 0x20)\n      swap1\n    tag_69:\n      dup2\n      0x00\n      swap1\n      sload\n      swap1\n      0x0100\n      exp\n      swap1\n      div\n      0xffffffffffffffffffffffffffffffffffffffff\n      and\n      0xffffffffffffffffffffffffffffffffffffffff\n      and\n      dup2\n      mstore\n      0x20\n      add\n      swap1\n      0x01\n      add\n      swap1\n      dup1\n      dup4\n      gt\n      tag_69\n      jumpi\n    tag_68:\n      pop\n      pop\n      pop\n      pop\n      pop\n      dup2\n      mstore\n      0x20\n      add\n      0x04\n      dup3\n      add\n      sload\n      dup2\n      mstore\n      pop\n      pop\n      dup2\n      mstore\n      0x20\n      add\n      swap1\n      0x01\n      add\n      swap1\n      jump(tag_60)\n    tag_61:\n      pop\n      pop\n      pop\n      pop\n      swap1\n      pop\n        /* \"contracts/Twitter0.3v.sol\":1360:1473  function GetAllTweets() public view returns(Tweet[] memory)... */\n      swap1\n      jump\t// out\n        /* \"contracts/Twitter0.3v.sol\":1622:1709  function DeleteRecentTweet()public... */\n    tag_23:\n        /* \"contracts/Twitter0.3v.sol\":1673:1683  Tweet_info */\n      0x01\n        /* \"contracts/Twitter0.3v.sol\":1673:1695  Tweet_info[msg.sender] */\n      0x00\n        /* \"contracts/Twitter0.3v.sol\":1684:1694  msg.sender */\n      caller\n        /* \"contracts/Twitter0.3v.sol\":1673:1695  Tweet_info[msg.sender] */\n      0xffffffffffffffffffffffffffffffffffffffff\n      and\n      0xffffffffffffffffffffffffffffffffffffffff\n      and\n      dup2\n      mstore\n      0x20\n      add\n      swap1\n      dup2\n      mstore\n      0x20\n      add\n      0x00\n      keccak256\n        /* \"contracts/Twitter0.3v.sol\":1673:1701  Tweet_info[msg.sender].pop() */\n      dup1\n      sload\n      dup1\n      tag_71\n      jumpi\n      tag_72\n      tag_73\n      jump\t// in\n    tag_72:\n    tag_71:\n      0x01\n      swap1\n      sub\n      dup2\n      dup2\n      swap1\n      0x00\n      mstore\n      keccak256(0x00, 0x20)\n      swap1\n      0x05\n      mul\n      add\n      0x00\n      dup1\n      dup3\n      add\n      0x00\n      tag_75\n      swap2\n      swap1\n      tag_76\n      jump\t// in\n    tag_75:\n      0x01\n      dup3\n      add\n      exp(0x0100, 0x00)\n      dup2\n      sload\n      swap1\n      0xffffffffffffffffffffffffffffffffffffffff\n      mul\n      not\n      and\n      swap1\n      sstore\n      0x02\n      dup3\n      add\n      0x00\n      swap1\n      sstore\n      0x03\n      dup3\n      add\n      0x00\n      tag_77\n      swap2\n      swap1\n      tag_78\n      jump\t// in\n    tag_77:\n      0x04\n      dup3\n      add\n      0x00\n      swap1\n      sstore\n      pop\n      pop\n      swap1\n      sstore\n        /* \"contracts/Twitter0.3v.sol\":1622:1709  function DeleteRecentTweet()public... */\n      jump\t// out\n        /* \"contracts/Twitter0.3v.sol\":1717:1798  function DeleteAllTweets()public {... */\n    tag_25:\n        /* \"contracts/Twitter0.3v.sol\":1768:1778  Tweet_info */\n      0x01\n        /* \"contracts/Twitter0.3v.sol\":1768:1790  Tweet_info[msg.sender] */\n      0x00\n        /* \"contracts/Twitter0.3v.sol\":1779:1789  msg.sender */\n      caller\n        /* \"contracts/Twitter0.3v.sol\":1768:1790  Tweet_info[msg.sender] */\n      0xffffffffffffffffffffffffffffffffffffffff\n      and\n      0xffffffffffffffffffffffffffffffffffffffff\n      and\n      dup2\n      mstore\n      0x20\n      add\n      swap1\n      dup2\n      mstore\n      0x20\n      add\n      0x00\n      keccak256\n      0x00\n        /* \"contracts/Twitter0.3v.sol\":1761:1790  delete Tweet_info[msg.sender] */\n      tag_80\n      swap2\n      swap1\n      tag_81\n      jump\t// in\n    tag_80:\n        /* \"contracts/Twitter0.3v.sol\":1717:1798  function DeleteAllTweets()public {... */\n      jump\t// out\n        /* \"contracts/Twitter0.3v.sol\":483:1352  function createTweet(string memory _tweet) public {... */\n    tag_29:\n        /* \"contracts/Twitter0.3v.sol\":405:407  10 */\n      0x0a\n        /* \"contracts/Twitter0.3v.sol\":1031:1037  _tweet */\n      dup2\n        /* \"contracts/Twitter0.3v.sol\":1025:1045  bytes(_tweet).length */\n      mload\n        /* \"contracts/Twitter0.3v.sol\":1025:1060  bytes(_tweet).length <= TweetLength */\n      gt\n      iszero\n        /* \"contracts/Twitter0.3v.sol\":1017:1088  require(bytes(_tweet).length <= TweetLength ,\"Tweet Length is Exceed!\") */\n      tag_83\n      jumpi\n      mload(0x40)\n      0x08c379a000000000000000000000000000000000000000000000000000000000\n      dup2\n      mstore\n      0x04\n      add\n      tag_84\n      swap1\n      tag_85\n      jump\t// in\n    tag_84:\n      mload(0x40)\n      dup1\n      swap2\n      sub\n      swap1\n      revert\n    tag_83:\n        /* \"contracts/Twitter0.3v.sol\":1101:1122  Tweet memory NewTweet */\n      0x00\n        /* \"contracts/Twitter0.3v.sol\":1125:1294  Tweet({... */\n      mload(0x40)\n      dup1\n      0xa0\n      add\n      0x40\n      mstore\n      dup1\n        /* \"contracts/Twitter0.3v.sol\":1154:1160  _tweet */\n      dup4\n        /* \"contracts/Twitter0.3v.sol\":1125:1294  Tweet({... */\n      dup2\n      mstore\n      0x20\n      add\n        /* \"contracts/Twitter0.3v.sol\":1182:1192  msg.sender */\n      caller\n        /* \"contracts/Twitter0.3v.sol\":1125:1294  Tweet({... */\n      0xffffffffffffffffffffffffffffffffffffffff\n      and\n      dup2\n      mstore\n      0x20\n      add\n        /* \"contracts/Twitter0.3v.sol\":1217:1232  block.timestamp */\n      timestamp\n        /* \"contracts/Twitter0.3v.sol\":1125:1294  Tweet({... */\n      dup2\n      mstore\n      0x20\n      add\n        /* \"contracts/Twitter0.3v.sol\":1253:1255  li */\n      0x00\n        /* \"contracts/Twitter0.3v.sol\":1125:1294  Tweet({... */\n      dup1\n      sload\n      dup1\n      0x20\n      mul\n      0x20\n      add\n      mload(0x40)\n      swap1\n      dup2\n      add\n      0x40\n      mstore\n      dup1\n      swap3\n      swap2\n      swap1\n      dup2\n      dup2\n      mstore\n      0x20\n      add\n      dup3\n      dup1\n      sload\n      dup1\n      iszero\n      tag_86\n      jumpi\n      0x20\n      mul\n      dup3\n      add\n      swap2\n      swap1\n      0x00\n      mstore\n      keccak256(0x00, 0x20)\n      swap1\n    tag_87:\n      dup2\n      0x00\n      swap1\n      sload\n      swap1\n      0x0100\n      exp\n      swap1\n      div\n      0xffffffffffffffffffffffffffffffffffffffff\n      and\n      0xffffffffffffffffffffffffffffffffffffffff\n      and\n      dup2\n      mstore\n      0x20\n      add\n      swap1\n      0x01\n      add\n      swap1\n      dup1\n      dup4\n      gt\n      tag_87\n      jumpi\n    tag_86:\n      pop\n      pop\n      pop\n      pop\n      pop\n      dup2\n      mstore\n      0x20\n      add\n        /* \"contracts/Twitter0.3v.sol\":1281:1282  0 */\n      0x00\n        /* \"contracts/Twitter0.3v.sol\":1125:1294  Tweet({... */\n      dup2\n      mstore\n      pop\n        /* \"contracts/Twitter0.3v.sol\":1101:1294  Tweet memory NewTweet = Tweet({... */\n      swap1\n      pop\n        /* \"contracts/Twitter0.3v.sol\":1307:1317  Tweet_info */\n      0x01\n        /* \"contracts/Twitter0.3v.sol\":1307:1329  Tweet_info[msg.sender] */\n      0x00\n        /* \"contracts/Twitter0.3v.sol\":1318:1328  msg.sender */\n      caller\n        /* \"contracts/Twitter0.3v.sol\":1307:1329  Tweet_info[msg.sender] */\n      0xffffffffffffffffffffffffffffffffffffffff\n      and\n      0xffffffffffffffffffffffffffffffffffffffff\n      and\n      dup2\n      mstore\n      0x20\n      add\n      swap1\n      dup2\n      mstore\n      0x20\n      add\n      0x00\n      keccak256\n        /* \"contracts/Twitter0.3v.sol\":1335:1343  NewTweet */\n      dup2\n        /* \"contracts/Twitter0.3v.sol\":1307:1344  Tweet_info[msg.sender].push(NewTweet) */\n      swap1\n      dup1\n      0x01\n      dup2\n      sload\n      add\n      dup1\n      dup3\n      sstore\n      dup1\n      swap2\n      pop\n      pop\n      0x01\n      swap1\n      sub\n      swap1\n      0x00\n      mstore\n      keccak256(0x00, 0x20)\n      swap1\n      0x05\n      mul\n      add\n      0x00\n      swap1\n      swap2\n      swap1\n      swap2\n      swap1\n      swap2\n      pop\n      0x00\n      dup3\n      add\n      mload\n      dup2\n      0x00\n      add\n      swap1\n      dup2\n      tag_89\n      swap2\n      swap1\n      tag_90\n      jump\t// in\n    tag_89:\n      pop\n      0x20\n      dup3\n      add\n      mload\n      dup2\n      0x01\n      add\n      exp(0x0100, 0x00)\n      dup2\n      sload\n      dup2\n      0xffffffffffffffffffffffffffffffffffffffff\n      mul\n      not\n      and\n      swap1\n      dup4\n      0xffffffffffffffffffffffffffffffffffffffff\n      and\n      mul\n      or\n      swap1\n      sstore\n      pop\n      0x40\n      dup3\n      add\n      mload\n      dup2\n      0x02\n      add\n      sstore\n      0x60\n      dup3\n      add\n      mload\n      dup2\n      0x03\n      add\n      swap1\n      dup1\n      mload\n      swap1\n      0x20\n      add\n      swap1\n      tag_91\n      swap3\n      swap2\n      swap1\n      tag_92\n      jump\t// in\n    tag_91:\n      pop\n      0x80\n      dup3\n      add\n      mload\n      dup2\n      0x04\n      add\n      sstore\n      pop\n      pop\n        /* \"contracts/Twitter0.3v.sol\":533:1352  {... */\n      pop\n        /* \"contracts/Twitter0.3v.sol\":483:1352  function createTweet(string memory _tweet) public {... */\n      pop\n      jump\t// out\n    tag_45:\n      mload(0x40)\n      dup1\n      0xa0\n      add\n      0x40\n      mstore\n      dup1\n      0x60\n      dup2\n      mstore\n      0x20\n      add\n      and(0xffffffffffffffffffffffffffffffffffffffff, 0x00)\n      dup2\n      mstore\n      0x20\n      add\n      0x00\n      dup2\n      mstore\n      0x20\n      add\n      0x60\n      dup2\n      mstore\n      0x20\n      add\n      0x00\n      dup2\n      mstore\n      pop\n      swap1\n      jump\t// out\n    tag_76:\n      pop\n      dup1\n      sload\n      tag_93\n      swap1\n      tag_52\n      jump\t// in\n    tag_93:\n      0x00\n      dup3\n      sstore\n      dup1\n      0x1f\n      lt\n      tag_95\n      jumpi\n      pop\n      jump(tag_94)\n    tag_95:\n      0x1f\n      add\n      0x20\n      swap1\n      div\n      swap1\n      0x00\n      mstore\n      keccak256(0x00, 0x20)\n      swap1\n      dup2\n      add\n      swap1\n      tag_96\n      swap2\n      swap1\n      tag_97\n      jump\t// in\n    tag_96:\n    tag_94:\n      pop\n      jump\t// out\n    tag_78:\n      pop\n      dup1\n      sload\n      0x00\n      dup3\n      sstore\n      swap1\n      0x00\n      mstore\n      keccak256(0x00, 0x20)\n      swap1\n      dup2\n      add\n      swap1\n      tag_99\n      swap2\n      swap1\n      tag_97\n      jump\t// in\n    tag_99:\n      pop\n      jump\t// out\n    tag_81:\n      pop\n      dup1\n      sload\n      0x00\n      dup3\n      sstore\n      0x05\n      mul\n      swap1\n      0x00\n      mstore\n      keccak256(0x00, 0x20)\n      swap1\n      dup2\n      add\n      swap1\n      tag_101\n      swap2\n      swap1\n      tag_102\n      jump\t// in\n    tag_101:\n      pop\n      jump\t// out\n    tag_92:\n      dup3\n      dup1\n      sload\n      dup3\n      dup3\n      sstore\n      swap1\n      0x00\n      mstore\n      keccak256(0x00, 0x20)\n      swap1\n      dup2\n      add\n      swap3\n      dup3\n      iszero\n      tag_103\n      jumpi\n      swap2\n      0x20\n      mul\n      dup3\n      add\n    tag_104:\n      dup3\n      dup2\n      gt\n      iszero\n      tag_105\n      jumpi\n      dup3\n      mload\n      dup3\n      exp(0x0100, 0x00)\n      dup2\n      sload\n      dup2\n      0xffffffffffffffffffffffffffffffffffffffff\n      mul\n      not\n      and\n      swap1\n      dup4\n      0xffffffffffffffffffffffffffffffffffffffff\n      and\n      mul\n      or\n      swap1\n      sstore\n      pop\n      swap2\n      0x20\n      add\n      swap2\n      swap1\n      0x01\n      add\n      swap1\n      jump(tag_104)\n    tag_105:\n    tag_103:\n      pop\n      swap1\n      pop\n      tag_106\n      swap2\n      swap1\n      tag_97\n      jump\t// in\n    tag_106:\n      pop\n      swap1\n      jump\t// out\n    tag_97:\n    tag_107:\n      dup1\n      dup3\n      gt\n      iszero\n      tag_108\n      jumpi\n      0x00\n      dup2\n      0x00\n      swap1\n      sstore\n      pop\n      0x01\n      add\n      jump(tag_107)\n    tag_108:\n      pop\n      swap1\n      jump\t// out\n    tag_102:\n    tag_109:\n      dup1\n      dup3\n      gt\n      iszero\n      tag_110\n      jumpi\n      0x00\n      dup1\n      dup3\n      add\n      0x00\n      tag_111\n      swap2\n      swap1\n      tag_76\n      jump\t// in\n    tag_111:\n      0x01\n      dup3\n      add\n      exp(0x0100, 0x00)\n      dup2\n      sload\n      swap1\n      0xffffffffffffffffffffffffffffffffffffffff\n      mul\n      not\n      and\n      swap1\n      sstore\n      0x02\n      dup3\n      add\n      0x00\n      swap1\n      sstore\n      0x03\n      dup3\n      add\n      0x00\n      tag_112\n      swap2\n      swap1\n      tag_78\n      jump\t// in\n    tag_112:\n      0x04\n      dup3\n      add\n      0x00\n      swap1\n      sstore\n      pop\n      0x05\n      add\n      jump(tag_109)\n    tag_110:\n      pop\n      swap1\n      jump\t// out\n        /* \"#utility.yul\":7:82   */\n    tag_113:\n        /* \"#utility.yul\":40:46   */\n      0x00\n        /* \"#utility.yul\":73:75   */\n      0x40\n        /* \"#utility.yul\":67:76   */\n      mload\n        /* \"#utility.yul\":57:76   */\n      swap1\n      pop\n        /* \"#utility.yul\":7:82   */\n      swap1\n      jump\t// out\n        /* \"#utility.yul\":88:205   */\n    tag_114:\n        /* \"#utility.yul\":197:198   */\n      0x00\n        /* \"#utility.yul\":194:195   */\n      dup1\n        /* \"#utility.yul\":187:199   */\n      revert\n        /* \"#utility.yul\":211:328   */\n    tag_115:\n        /* \"#utility.yul\":320:321   */\n      0x00\n        /* \"#utility.yul\":317:318   */\n      dup1\n        /* \"#utility.yul\":310:322   */\n      revert\n        /* \"#utility.yul\":334:460   */\n    tag_116:\n        /* \"#utility.yul\":371:378   */\n      0x00\n        /* \"#utility.yul\":411:453   */\n      0xffffffffffffffffffffffffffffffffffffffff\n        /* \"#utility.yul\":404:409   */\n      dup3\n        /* \"#utility.yul\":400:454   */\n      and\n        /* \"#utility.yul\":389:454   */\n      swap1\n      pop\n        /* \"#utility.yul\":334:460   */\n      swap2\n      swap1\n      pop\n      jump\t// out\n        /* \"#utility.yul\":466:562   */\n    tag_117:\n        /* \"#utility.yul\":503:510   */\n      0x00\n        /* \"#utility.yul\":532:556   */\n      tag_179\n        /* \"#utility.yul\":550:555   */\n      dup3\n        /* \"#utility.yul\":532:556   */\n      tag_116\n      jump\t// in\n    tag_179:\n        /* \"#utility.yul\":521:556   */\n      swap1\n      pop\n        /* \"#utility.yul\":466:562   */\n      swap2\n      swap1\n      pop\n      jump\t// out\n        /* \"#utility.yul\":568:690   */\n    tag_118:\n        /* \"#utility.yul\":641:665   */\n      tag_181\n        /* \"#utility.yul\":659:664   */\n      dup2\n        /* \"#utility.yul\":641:665   */\n      tag_117\n      jump\t// in\n    tag_181:\n        /* \"#utility.yul\":634:639   */\n      dup2\n        /* \"#utility.yul\":631:666   */\n      eq\n        /* \"#utility.yul\":621:684   */\n      tag_182\n      jumpi\n        /* \"#utility.yul\":680:681   */\n      0x00\n        /* \"#utility.yul\":677:678   */\n      dup1\n        /* \"#utility.yul\":670:682   */\n      revert\n        /* \"#utility.yul\":621:684   */\n    tag_182:\n        /* \"#utility.yul\":568:690   */\n      pop\n      jump\t// out\n        /* \"#utility.yul\":696:835   */\n    tag_119:\n        /* \"#utility.yul\":742:747   */\n      0x00\n        /* \"#utility.yul\":780:786   */\n      dup2\n        /* \"#utility.yul\":767:787   */\n      calldataload\n        /* \"#utility.yul\":758:787   */\n      swap1\n      pop\n        /* \"#utility.yul\":796:829   */\n      tag_184\n        /* \"#utility.yul\":823:828   */\n      dup2\n        /* \"#utility.yul\":796:829   */\n      tag_118\n      jump\t// in\n    tag_184:\n        /* \"#utility.yul\":696:835   */\n      swap3\n      swap2\n      pop\n      pop\n      jump\t// out\n        /* \"#utility.yul\":841:918   */\n    tag_120:\n        /* \"#utility.yul\":878:885   */\n      0x00\n        /* \"#utility.yul\":907:912   */\n      dup2\n        /* \"#utility.yul\":896:912   */\n      swap1\n      pop\n        /* \"#utility.yul\":841:918   */\n      swap2\n      swap1\n      pop\n      jump\t// out\n        /* \"#utility.yul\":924:1046   */\n    tag_121:\n        /* \"#utility.yul\":997:1021   */\n      tag_187\n        /* \"#utility.yul\":1015:1020   */\n      dup2\n        /* \"#utility.yul\":997:1021   */\n      tag_120\n      jump\t// in\n    tag_187:\n        /* \"#utility.yul\":990:995   */\n      dup2\n        /* \"#utility.yul\":987:1022   */\n      eq\n        /* \"#utility.yul\":977:1040   */\n      tag_188\n      jumpi\n        /* \"#utility.yul\":1036:1037   */\n      0x00\n        /* \"#utility.yul\":1033:1034   */\n      dup1\n        /* \"#utility.yul\":1026:1038   */\n      revert\n        /* \"#utility.yul\":977:1040   */\n    tag_188:\n        /* \"#utility.yul\":924:1046   */\n      pop\n      jump\t// out\n        /* \"#utility.yul\":1052:1191   */\n    tag_122:\n        /* \"#utility.yul\":1098:1103   */\n      0x00\n        /* \"#utility.yul\":1136:1142   */\n      dup2\n        /* \"#utility.yul\":1123:1143   */\n      calldataload\n        /* \"#utility.yul\":1114:1143   */\n      swap1\n      pop\n        /* \"#utility.yul\":1152:1185   */\n      tag_190\n        /* \"#utility.yul\":1179:1184   */\n      dup2\n        /* \"#utility.yul\":1152:1185   */\n      tag_121\n      jump\t// in\n    tag_190:\n        /* \"#utility.yul\":1052:1191   */\n      swap3\n      swap2\n      pop\n      pop\n      jump\t// out\n        /* \"#utility.yul\":1197:1671   */\n    tag_11:\n        /* \"#utility.yul\":1265:1271   */\n      0x00\n        /* \"#utility.yul\":1273:1279   */\n      dup1\n        /* \"#utility.yul\":1322:1324   */\n      0x40\n        /* \"#utility.yul\":1310:1319   */\n      dup4\n        /* \"#utility.yul\":1301:1308   */\n      dup6\n        /* \"#utility.yul\":1297:1320   */\n      sub\n        /* \"#utility.yul\":1293:1325   */\n      slt\n        /* \"#utility.yul\":1290:1409   */\n      iszero\n      tag_192\n      jumpi\n        /* \"#utility.yul\":1328:1407   */\n      tag_193\n      tag_114\n      jump\t// in\n    tag_193:\n        /* \"#utility.yul\":1290:1409   */\n    tag_192:\n        /* \"#utility.yul\":1448:1449   */\n      0x00\n        /* \"#utility.yul\":1473:1526   */\n      tag_194\n        /* \"#utility.yul\":1518:1525   */\n      dup6\n        /* \"#utility.yul\":1509:1515   */\n      dup3\n        /* \"#utility.yul\":1498:1507   */\n      dup7\n        /* \"#utility.yul\":1494:1516   */\n      add\n        /* \"#utility.yul\":1473:1526   */\n      tag_119\n      jump\t// in\n    tag_194:\n        /* \"#utility.yul\":1463:1526   */\n      swap3\n      pop\n        /* \"#utility.yul\":1419:1536   */\n      pop\n        /* \"#utility.yul\":1575:1577   */\n      0x20\n        /* \"#utility.yul\":1601:1654   */\n      tag_195\n        /* \"#utility.yul\":1646:1653   */\n      dup6\n        /* \"#utility.yul\":1637:1643   */\n      dup3\n        /* \"#utility.yul\":1626:1635   */\n      dup7\n        /* \"#utility.yul\":1622:1644   */\n      add\n        /* \"#utility.yul\":1601:1654   */\n      tag_122\n      jump\t// in\n    tag_195:\n        /* \"#utility.yul\":1591:1654   */\n      swap2\n      pop\n        /* \"#utility.yul\":1546:1664   */\n      pop\n        /* \"#utility.yul\":1197:1671   */\n      swap3\n      pop\n      swap3\n      swap1\n      pop\n      jump\t// out\n        /* \"#utility.yul\":1677:1776   */\n    tag_123:\n        /* \"#utility.yul\":1729:1735   */\n      0x00\n        /* \"#utility.yul\":1763:1768   */\n      dup2\n        /* \"#utility.yul\":1757:1769   */\n      mload\n        /* \"#utility.yul\":1747:1769   */\n      swap1\n      pop\n        /* \"#utility.yul\":1677:1776   */\n      swap2\n      swap1\n      pop\n      jump\t// out\n        /* \"#utility.yul\":1782:1941   */\n    tag_124:\n        /* \"#utility.yul\":1856:1867   */\n      0x00\n        /* \"#utility.yul\":1890:1896   */\n      dup3\n        /* \"#utility.yul\":1885:1888   */\n      dup3\n        /* \"#utility.yul\":1878:1897   */\n      mstore\n        /* \"#utility.yul\":1930:1934   */\n      0x20\n        /* \"#utility.yul\":1925:1928   */\n      dup3\n        /* \"#utility.yul\":1921:1935   */\n      add\n        /* \"#utility.yul\":1906:1935   */\n      swap1\n      pop\n        /* \"#utility.yul\":1782:1941   */\n      swap3\n      swap2\n      pop\n      pop\n      jump\t// out\n        /* \"#utility.yul\":1947:2193   */\n    tag_125:\n        /* \"#utility.yul\":2028:2029   */\n      0x00\n        /* \"#utility.yul\":2038:2151   */\n    tag_199:\n        /* \"#utility.yul\":2052:2058   */\n      dup4\n        /* \"#utility.yul\":2049:2050   */\n      dup2\n        /* \"#utility.yul\":2046:2059   */\n      lt\n        /* \"#utility.yul\":2038:2151   */\n      iszero\n      tag_201\n      jumpi\n        /* \"#utility.yul\":2137:2138   */\n      dup1\n        /* \"#utility.yul\":2132:2135   */\n      dup3\n        /* \"#utility.yul\":2128:2139   */\n      add\n        /* \"#utility.yul\":2122:2140   */\n      mload\n        /* \"#utility.yul\":2118:2119   */\n      dup2\n        /* \"#utility.yul\":2113:2116   */\n      dup5\n        /* \"#utility.yul\":2109:2120   */\n      add\n        /* \"#utility.yul\":2102:2141   */\n      mstore\n        /* \"#utility.yul\":2074:2076   */\n      0x20\n        /* \"#utility.yul\":2071:2072   */\n      dup2\n        /* \"#utility.yul\":2067:2077   */\n      add\n        /* \"#utility.yul\":2062:2077   */\n      swap1\n      pop\n        /* \"#utility.yul\":2038:2151   */\n      jump(tag_199)\n    tag_201:\n        /* \"#utility.yul\":2185:2186   */\n      0x00\n        /* \"#utility.yul\":2176:2182   */\n      dup5\n        /* \"#utility.yul\":2171:2174   */\n      dup5\n        /* \"#utility.yul\":2167:2183   */\n      add\n        /* \"#utility.yul\":2160:2187   */\n      mstore\n        /* \"#utility.yul\":2009:2193   */\n      pop\n        /* \"#utility.yul\":1947:2193   */\n      pop\n      pop\n      pop\n      jump\t// out\n        /* \"#utility.yul\":2199:2301   */\n    tag_126:\n        /* \"#utility.yul\":2240:2246   */\n      0x00\n        /* \"#utility.yul\":2291:2293   */\n      0x1f\n        /* \"#utility.yul\":2287:2294   */\n      not\n        /* \"#utility.yul\":2282:2284   */\n      0x1f\n        /* \"#utility.yul\":2275:2280   */\n      dup4\n        /* \"#utility.yul\":2271:2285   */\n      add\n        /* \"#utility.yul\":2267:2295   */\n      and\n        /* \"#utility.yul\":2257:2295   */\n      swap1\n      pop\n        /* \"#utility.yul\":2199:2301   */\n      swap2\n      swap1\n      pop\n      jump\t// out\n        /* \"#utility.yul\":2307:2664   */\n    tag_127:\n        /* \"#utility.yul\":2385:2388   */\n      0x00\n        /* \"#utility.yul\":2413:2452   */\n      tag_204\n        /* \"#utility.yul\":2446:2451   */\n      dup3\n        /* \"#utility.yul\":2413:2452   */\n      tag_123\n      jump\t// in\n    tag_204:\n        /* \"#utility.yul\":2468:2529   */\n      tag_205\n        /* \"#utility.yul\":2522:2528   */\n      dup2\n        /* \"#utility.yul\":2517:2520   */\n      dup6\n        /* \"#utility.yul\":2468:2529   */\n      tag_124\n      jump\t// in\n    tag_205:\n        /* \"#utility.yul\":2461:2529   */\n      swap4\n      pop\n        /* \"#utility.yul\":2538:2603   */\n      tag_206\n        /* \"#utility.yul\":2596:2602   */\n      dup2\n        /* \"#utility.yul\":2591:2594   */\n      dup6\n        /* \"#utility.yul\":2584:2588   */\n      0x20\n        /* \"#utility.yul\":2577:2582   */\n      dup7\n        /* \"#utility.yul\":2573:2589   */\n      add\n        /* \"#utility.yul\":2538:2603   */\n      tag_125\n      jump\t// in\n    tag_206:\n        /* \"#utility.yul\":2628:2657   */\n      tag_207\n        /* \"#utility.yul\":2650:2656   */\n      dup2\n        /* \"#utility.yul\":2628:2657   */\n      tag_126\n      jump\t// in\n    tag_207:\n        /* \"#utility.yul\":2623:2626   */\n      dup5\n        /* \"#utility.yul\":2619:2658   */\n      add\n        /* \"#utility.yul\":2612:2658   */\n      swap2\n      pop\n        /* \"#utility.yul\":2389:2664   */\n      pop\n        /* \"#utility.yul\":2307:2664   */\n      swap3\n      swap2\n      pop\n      pop\n      jump\t// out\n        /* \"#utility.yul\":2670:2778   */\n    tag_128:\n        /* \"#utility.yul\":2747:2771   */\n      tag_209\n        /* \"#utility.yul\":2765:2770   */\n      dup2\n        /* \"#utility.yul\":2747:2771   */\n      tag_117\n      jump\t// in\n    tag_209:\n        /* \"#utility.yul\":2742:2745   */\n      dup3\n        /* \"#utility.yul\":2735:2772   */\n      mstore\n        /* \"#utility.yul\":2670:2778   */\n      pop\n      pop\n      jump\t// out\n        /* \"#utility.yul\":2784:2892   */\n    tag_129:\n        /* \"#utility.yul\":2861:2885   */\n      tag_211\n        /* \"#utility.yul\":2879:2884   */\n      dup2\n        /* \"#utility.yul\":2861:2885   */\n      tag_120\n      jump\t// in\n    tag_211:\n        /* \"#utility.yul\":2856:2859   */\n      dup3\n        /* \"#utility.yul\":2849:2886   */\n      mstore\n        /* \"#utility.yul\":2784:2892   */\n      pop\n      pop\n      jump\t// out\n        /* \"#utility.yul\":2898:3012   */\n    tag_130:\n        /* \"#utility.yul\":2965:2971   */\n      0x00\n        /* \"#utility.yul\":2999:3004   */\n      dup2\n        /* \"#utility.yul\":2993:3005   */\n      mload\n        /* \"#utility.yul\":2983:3005   */\n      swap1\n      pop\n        /* \"#utility.yul\":2898:3012   */\n      swap2\n      swap1\n      pop\n      jump\t// out\n        /* \"#utility.yul\":3018:3192   */\n    tag_131:\n        /* \"#utility.yul\":3107:3118   */\n      0x00\n        /* \"#utility.yul\":3141:3147   */\n      dup3\n        /* \"#utility.yul\":3136:3139   */\n      dup3\n        /* \"#utility.yul\":3129:3148   */\n      mstore\n        /* \"#utility.yul\":3181:3185   */\n      0x20\n        /* \"#utility.yul\":3176:3179   */\n      dup3\n        /* \"#utility.yul\":3172:3186   */\n      add\n        /* \"#utility.yul\":3157:3186   */\n      swap1\n      pop\n        /* \"#utility.yul\":3018:3192   */\n      swap3\n      swap2\n      pop\n      pop\n      jump\t// out\n        /* \"#utility.yul\":3198:3330   */\n    tag_132:\n        /* \"#utility.yul\":3265:3269   */\n      0x00\n        /* \"#utility.yul\":3288:3291   */\n      dup2\n        /* \"#utility.yul\":3280:3291   */\n      swap1\n      pop\n        /* \"#utility.yul\":3318:3322   */\n      0x20\n        /* \"#utility.yul\":3313:3316   */\n      dup3\n        /* \"#utility.yul\":3309:3323   */\n      add\n        /* \"#utility.yul\":3301:3323   */\n      swap1\n      pop\n        /* \"#utility.yul\":3198:3330   */\n      swap2\n      swap1\n      pop\n      jump\t// out\n        /* \"#utility.yul\":3336:3515   */\n    tag_133:\n        /* \"#utility.yul\":3405:3415   */\n      0x00\n        /* \"#utility.yul\":3426:3472   */\n      tag_216\n        /* \"#utility.yul\":3468:3471   */\n      dup4\n        /* \"#utility.yul\":3460:3466   */\n      dup4\n        /* \"#utility.yul\":3426:3472   */\n      tag_128\n      jump\t// in\n    tag_216:\n        /* \"#utility.yul\":3504:3508   */\n      0x20\n        /* \"#utility.yul\":3499:3502   */\n      dup4\n        /* \"#utility.yul\":3495:3509   */\n      add\n        /* \"#utility.yul\":3481:3509   */\n      swap1\n      pop\n        /* \"#utility.yul\":3336:3515   */\n      swap3\n      swap2\n      pop\n      pop\n      jump\t// out\n        /* \"#utility.yul\":3521:3634   */\n    tag_134:\n        /* \"#utility.yul\":3591:3595   */\n      0x00\n        /* \"#utility.yul\":3623:3627   */\n      0x20\n        /* \"#utility.yul\":3618:3621   */\n      dup3\n        /* \"#utility.yul\":3614:3628   */\n      add\n        /* \"#utility.yul\":3606:3628   */\n      swap1\n      pop\n        /* \"#utility.yul\":3521:3634   */\n      swap2\n      swap1\n      pop\n      jump\t// out\n        /* \"#utility.yul\":3670:4382   */\n    tag_135:\n        /* \"#utility.yul\":3779:3782   */\n      0x00\n        /* \"#utility.yul\":3808:3862   */\n      tag_219\n        /* \"#utility.yul\":3856:3861   */\n      dup3\n        /* \"#utility.yul\":3808:3862   */\n      tag_130\n      jump\t// in\n    tag_219:\n        /* \"#utility.yul\":3878:3954   */\n      tag_220\n        /* \"#utility.yul\":3947:3953   */\n      dup2\n        /* \"#utility.yul\":3942:3945   */\n      dup6\n        /* \"#utility.yul\":3878:3954   */\n      tag_131\n      jump\t// in\n    tag_220:\n        /* \"#utility.yul\":3871:3954   */\n      swap4\n      pop\n        /* \"#utility.yul\":3978:4034   */\n      tag_221\n        /* \"#utility.yul\":4028:4033   */\n      dup4\n        /* \"#utility.yul\":3978:4034   */\n      tag_132\n      jump\t// in\n    tag_221:\n        /* \"#utility.yul\":4057:4064   */\n      dup1\n        /* \"#utility.yul\":4088:4089   */\n      0x00\n        /* \"#utility.yul\":4073:4357   */\n    tag_222:\n        /* \"#utility.yul\":4098:4104   */\n      dup4\n        /* \"#utility.yul\":4095:4096   */\n      dup2\n        /* \"#utility.yul\":4092:4105   */\n      lt\n        /* \"#utility.yul\":4073:4357   */\n      iszero\n      tag_224\n      jumpi\n        /* \"#utility.yul\":4174:4180   */\n      dup2\n        /* \"#utility.yul\":4168:4181   */\n      mload\n        /* \"#utility.yul\":4201:4264   */\n      tag_225\n        /* \"#utility.yul\":4260:4263   */\n      dup9\n        /* \"#utility.yul\":4245:4258   */\n      dup3\n        /* \"#utility.yul\":4201:4264   */\n      tag_133\n      jump\t// in\n    tag_225:\n        /* \"#utility.yul\":4194:4264   */\n      swap8\n      pop\n        /* \"#utility.yul\":4287:4347   */\n      tag_226\n        /* \"#utility.yul\":4340:4346   */\n      dup4\n        /* \"#utility.yul\":4287:4347   */\n      tag_134\n      jump\t// in\n    tag_226:\n        /* \"#utility.yul\":4277:4347   */\n      swap3\n      pop\n        /* \"#utility.yul\":4133:4357   */\n      pop\n        /* \"#utility.yul\":4120:4121   */\n      0x01\n        /* \"#utility.yul\":4117:4118   */\n      dup2\n        /* \"#utility.yul\":4113:4122   */\n      add\n        /* \"#utility.yul\":4108:4122   */\n      swap1\n      pop\n        /* \"#utility.yul\":4073:4357   */\n      jump(tag_222)\n    tag_224:\n        /* \"#utility.yul\":4077:4091   */\n      pop\n        /* \"#utility.yul\":4373:4376   */\n      dup6\n        /* \"#utility.yul\":4366:4376   */\n      swap4\n      pop\n        /* \"#utility.yul\":3784:4382   */\n      pop\n      pop\n      pop\n        /* \"#utility.yul\":3670:4382   */\n      swap3\n      swap2\n      pop\n      pop\n      jump\t// out\n        /* \"#utility.yul\":4440:5678   */\n    tag_136:\n        /* \"#utility.yul\":4551:4554   */\n      0x00\n        /* \"#utility.yul\":4587:4591   */\n      0xa0\n        /* \"#utility.yul\":4582:4585   */\n      dup4\n        /* \"#utility.yul\":4578:4592   */\n      add\n        /* \"#utility.yul\":4677:4681   */\n      0x00\n        /* \"#utility.yul\":4670:4675   */\n      dup4\n        /* \"#utility.yul\":4666:4682   */\n      add\n        /* \"#utility.yul\":4660:4683   */\n      mload\n        /* \"#utility.yul\":4730:4733   */\n      dup5\n        /* \"#utility.yul\":4724:4728   */\n      dup3\n        /* \"#utility.yul\":4720:4734   */\n      sub\n        /* \"#utility.yul\":4713:4717   */\n      0x00\n        /* \"#utility.yul\":4708:4711   */\n      dup7\n        /* \"#utility.yul\":4704:4718   */\n      add\n        /* \"#utility.yul\":4697:4735   */\n      mstore\n        /* \"#utility.yul\":4756:4829   */\n      tag_228\n        /* \"#utility.yul\":4824:4828   */\n      dup3\n        /* \"#utility.yul\":4810:4822   */\n      dup3\n        /* \"#utility.yul\":4756:4829   */\n      tag_127\n      jump\t// in\n    tag_228:\n        /* \"#utility.yul\":4748:4829   */\n      swap2\n      pop\n        /* \"#utility.yul\":4602:4840   */\n      pop\n        /* \"#utility.yul\":4924:4928   */\n      0x20\n        /* \"#utility.yul\":4917:4922   */\n      dup4\n        /* \"#utility.yul\":4913:4929   */\n      add\n        /* \"#utility.yul\":4907:4930   */\n      mload\n        /* \"#utility.yul\":4943:5006   */\n      tag_229\n        /* \"#utility.yul\":5000:5004   */\n      0x20\n        /* \"#utility.yul\":4995:4998   */\n      dup7\n        /* \"#utility.yul\":4991:5005   */\n      add\n        /* \"#utility.yul\":4977:4989   */\n      dup3\n        /* \"#utility.yul\":4943:5006   */\n      tag_128\n      jump\t// in\n    tag_229:\n        /* \"#utility.yul\":4850:5016   */\n      pop\n        /* \"#utility.yul\":5103:5107   */\n      0x40\n        /* \"#utility.yul\":5096:5101   */\n      dup4\n        /* \"#utility.yul\":5092:5108   */\n      add\n        /* \"#utility.yul\":5086:5109   */\n      mload\n        /* \"#utility.yul\":5122:5185   */\n      tag_230\n        /* \"#utility.yul\":5179:5183   */\n      0x40\n        /* \"#utility.yul\":5174:5177   */\n      dup7\n        /* \"#utility.yul\":5170:5184   */\n      add\n        /* \"#utility.yul\":5156:5168   */\n      dup3\n        /* \"#utility.yul\":5122:5185   */\n      tag_129\n      jump\t// in\n    tag_230:\n        /* \"#utility.yul\":5026:5195   */\n      pop\n        /* \"#utility.yul\":5278:5282   */\n      0x60\n        /* \"#utility.yul\":5271:5276   */\n      dup4\n        /* \"#utility.yul\":5267:5283   */\n      add\n        /* \"#utility.yul\":5261:5284   */\n      mload\n        /* \"#utility.yul\":5331:5334   */\n      dup5\n        /* \"#utility.yul\":5325:5329   */\n      dup3\n        /* \"#utility.yul\":5321:5335   */\n      sub\n        /* \"#utility.yul\":5314:5318   */\n      0x60\n        /* \"#utility.yul\":5309:5312   */\n      dup7\n        /* \"#utility.yul\":5305:5319   */\n      add\n        /* \"#utility.yul\":5298:5336   */\n      mstore\n        /* \"#utility.yul\":5357:5460   */\n      tag_231\n        /* \"#utility.yul\":5455:5459   */\n      dup3\n        /* \"#utility.yul\":5441:5453   */\n      dup3\n        /* \"#utility.yul\":5357:5460   */\n      tag_135\n      jump\t// in\n    tag_231:\n        /* \"#utility.yul\":5349:5460   */\n      swap2\n      pop\n        /* \"#utility.yul\":5205:5471   */\n      pop\n        /* \"#utility.yul\":5559:5563   */\n      0x80\n        /* \"#utility.yul\":5552:5557   */\n      dup4\n        /* \"#utility.yul\":5548:5564   */\n      add\n        /* \"#utility.yul\":5542:5565   */\n      mload\n        /* \"#utility.yul\":5578:5641   */\n      tag_232\n        /* \"#utility.yul\":5635:5639   */\n      0x80\n        /* \"#utility.yul\":5630:5633   */\n      dup7\n        /* \"#utility.yul\":5626:5640   */\n      add\n        /* \"#utility.yul\":5612:5624   */\n      dup3\n        /* \"#utility.yul\":5578:5641   */\n      tag_129\n      jump\t// in\n    tag_232:\n        /* \"#utility.yul\":5481:5651   */\n      pop\n        /* \"#utility.yul\":5668:5672   */\n      dup1\n        /* \"#utility.yul\":5661:5672   */\n      swap2\n      pop\n        /* \"#utility.yul\":4556:5678   */\n      pop\n        /* \"#utility.yul\":4440:5678   */\n      swap3\n      swap2\n      pop\n      pop\n      jump\t// out\n        /* \"#utility.yul\":5684:6041   */\n    tag_17:\n        /* \"#utility.yul\":5819:5823   */\n      0x00\n        /* \"#utility.yul\":5857:5859   */\n      0x20\n        /* \"#utility.yul\":5846:5855   */\n      dup3\n        /* \"#utility.yul\":5842:5860   */\n      add\n        /* \"#utility.yul\":5834:5860   */\n      swap1\n      pop\n        /* \"#utility.yul\":5906:5915   */\n      dup2\n        /* \"#utility.yul\":5900:5904   */\n      dup2\n        /* \"#utility.yul\":5896:5916   */\n      sub\n        /* \"#utility.yul\":5892:5893   */\n      0x00\n        /* \"#utility.yul\":5881:5890   */\n      dup4\n        /* \"#utility.yul\":5877:5894   */\n      add\n        /* \"#utility.yul\":5870:5917   */\n      mstore\n        /* \"#utility.yul\":5934:6034   */\n      tag_234\n        /* \"#utility.yul\":6029:6033   */\n      dup2\n        /* \"#utility.yul\":6020:6026   */\n      dup5\n        /* \"#utility.yul\":5934:6034   */\n      tag_136\n      jump\t// in\n    tag_234:\n        /* \"#utility.yul\":5926:6034   */\n      swap1\n      pop\n        /* \"#utility.yul\":5684:6041   */\n      swap3\n      swap2\n      pop\n      pop\n      jump\t// out\n        /* \"#utility.yul\":6047:6182   */\n    tag_137:\n        /* \"#utility.yul\":6135:6141   */\n      0x00\n        /* \"#utility.yul\":6169:6174   */\n      dup2\n        /* \"#utility.yul\":6163:6175   */\n      mload\n        /* \"#utility.yul\":6153:6175   */\n      swap1\n      pop\n        /* \"#utility.yul\":6047:6182   */\n      swap2\n      swap1\n      pop\n      jump\t// out\n        /* \"#utility.yul\":6188:6393   */\n    tag_138:\n        /* \"#utility.yul\":6308:6319   */\n      0x00\n        /* \"#utility.yul\":6342:6348   */\n      dup3\n        /* \"#utility.yul\":6337:6340   */\n      dup3\n        /* \"#utility.yul\":6330:6349   */\n      mstore\n        /* \"#utility.yul\":6382:6386   */\n      0x20\n        /* \"#utility.yul\":6377:6380   */\n      dup3\n        /* \"#utility.yul\":6373:6387   */\n      add\n        /* \"#utility.yul\":6358:6387   */\n      swap1\n      pop\n        /* \"#utility.yul\":6188:6393   */\n      swap3\n      swap2\n      pop\n      pop\n      jump\t// out\n        /* \"#utility.yul\":6399:6552   */\n    tag_139:\n        /* \"#utility.yul\":6487:6491   */\n      0x00\n        /* \"#utility.yul\":6510:6513   */\n      dup2\n        /* \"#utility.yul\":6502:6513   */\n      swap1\n      pop\n        /* \"#utility.yul\":6540:6544   */\n      0x20\n        /* \"#utility.yul\":6535:6538   */\n      dup3\n        /* \"#utility.yul\":6531:6545   */\n      add\n        /* \"#utility.yul\":6523:6545   */\n      swap1\n      pop\n        /* \"#utility.yul\":6399:6552   */\n      swap2\n      swap1\n      pop\n      jump\t// out\n        /* \"#utility.yul\":6610:7838   */\n    tag_140:\n        /* \"#utility.yul\":6711:6714   */\n      0x00\n        /* \"#utility.yul\":6747:6751   */\n      0xa0\n        /* \"#utility.yul\":6742:6745   */\n      dup4\n        /* \"#utility.yul\":6738:6752   */\n      add\n        /* \"#utility.yul\":6837:6841   */\n      0x00\n        /* \"#utility.yul\":6830:6835   */\n      dup4\n        /* \"#utility.yul\":6826:6842   */\n      add\n        /* \"#utility.yul\":6820:6843   */\n      mload\n        /* \"#utility.yul\":6890:6893   */\n      dup5\n        /* \"#utility.yul\":6884:6888   */\n      dup3\n        /* \"#utility.yul\":6880:6894   */\n      sub\n        /* \"#utility.yul\":6873:6877   */\n      0x00\n        /* \"#utility.yul\":6868:6871   */\n      dup7\n        /* \"#utility.yul\":6864:6878   */\n      add\n        /* \"#utility.yul\":6857:6895   */\n      mstore\n        /* \"#utility.yul\":6916:6989   */\n      tag_239\n        /* \"#utility.yul\":6984:6988   */\n      dup3\n        /* \"#utility.yul\":6970:6982   */\n      dup3\n        /* \"#utility.yul\":6916:6989   */\n      tag_127\n      jump\t// in\n    tag_239:\n        /* \"#utility.yul\":6908:6989   */\n      swap2\n      pop\n        /* \"#utility.yul\":6762:7000   */\n      pop\n        /* \"#utility.yul\":7084:7088   */\n      0x20\n        /* \"#utility.yul\":7077:7082   */\n      dup4\n        /* \"#utility.yul\":7073:7089   */\n      add\n        /* \"#utility.yul\":7067:7090   */\n      mload\n        /* \"#utility.yul\":7103:7166   */\n      tag_240\n        /* \"#utility.yul\":7160:7164   */\n      0x20\n        /* \"#utility.yul\":7155:7158   */\n      dup7\n        /* \"#utility.yul\":7151:7165   */\n      add\n        /* \"#utility.yul\":7137:7149   */\n      dup3\n        /* \"#utility.yul\":7103:7166   */\n      tag_128\n      jump\t// in\n    tag_240:\n        /* \"#utility.yul\":7010:7176   */\n      pop\n        /* \"#utility.yul\":7263:7267   */\n      0x40\n        /* \"#utility.yul\":7256:7261   */\n      dup4\n        /* \"#utility.yul\":7252:7268   */\n      add\n        /* \"#utility.yul\":7246:7269   */\n      mload\n        /* \"#utility.yul\":7282:7345   */\n      tag_241\n        /* \"#utility.yul\":7339:7343   */\n      0x40\n        /* \"#utility.yul\":7334:7337   */\n      dup7\n        /* \"#utility.yul\":7330:7344   */\n      add\n        /* \"#utility.yul\":7316:7328   */\n      dup3\n        /* \"#utility.yul\":7282:7345   */\n      tag_129\n      jump\t// in\n    tag_241:\n        /* \"#utility.yul\":7186:7355   */\n      pop\n        /* \"#utility.yul\":7438:7442   */\n      0x60\n        /* \"#utility.yul\":7431:7436   */\n      dup4\n        /* \"#utility.yul\":7427:7443   */\n      add\n        /* \"#utility.yul\":7421:7444   */\n      mload\n        /* \"#utility.yul\":7491:7494   */\n      dup5\n        /* \"#utility.yul\":7485:7489   */\n      dup3\n        /* \"#utility.yul\":7481:7495   */\n      sub\n        /* \"#utility.yul\":7474:7478   */\n      0x60\n        /* \"#utility.yul\":7469:7472   */\n      dup7\n        /* \"#utility.yul\":7465:7479   */\n      add\n        /* \"#utility.yul\":7458:7496   */\n      mstore\n        /* \"#utility.yul\":7517:7620   */\n      tag_242\n        /* \"#utility.yul\":7615:7619   */\n      dup3\n        /* \"#utility.yul\":7601:7613   */\n      dup3\n        /* \"#utility.yul\":7517:7620   */\n      tag_135\n      jump\t// in\n    tag_242:\n        /* \"#utility.yul\":7509:7620   */\n      swap2\n      pop\n        /* \"#utility.yul\":7365:7631   */\n      pop\n        /* \"#utility.yul\":7719:7723   */\n      0x80\n        /* \"#utility.yul\":7712:7717   */\n      dup4\n        /* \"#utility.yul\":7708:7724   */\n      add\n        /* \"#utility.yul\":7702:7725   */\n      mload\n        /* \"#utility.yul\":7738:7801   */\n      tag_243\n        /* \"#utility.yul\":7795:7799   */\n      0x80\n        /* \"#utility.yul\":7790:7793   */\n      dup7\n        /* \"#utility.yul\":7786:7800   */\n      add\n        /* \"#utility.yul\":7772:7784   */\n      dup3\n        /* \"#utility.yul\":7738:7801   */\n      tag_129\n      jump\t// in\n    tag_243:\n        /* \"#utility.yul\":7641:7811   */\n      pop\n        /* \"#utility.yul\":7828:7832   */\n      dup1\n        /* \"#utility.yul\":7821:7832   */\n      swap2\n      pop\n        /* \"#utility.yul\":6716:7838   */\n      pop\n        /* \"#utility.yul\":6610:7838   */\n      swap3\n      swap2\n      pop\n      pop\n      jump\t// out\n        /* \"#utility.yul\":7844:8084   */\n    tag_141:\n        /* \"#utility.yul\":7955:7965   */\n      0x00\n        /* \"#utility.yul\":7990:8078   */\n      tag_245\n        /* \"#utility.yul\":8074:8077   */\n      dup4\n        /* \"#utility.yul\":8066:8072   */\n      dup4\n        /* \"#utility.yul\":7990:8078   */\n      tag_140\n      jump\t// in\n    tag_245:\n        /* \"#utility.yul\":7976:8078   */\n      swap1\n      pop\n        /* \"#utility.yul\":7844:8084   */\n      swap3\n      swap2\n      pop\n      pop\n      jump\t// out\n        /* \"#utility.yul\":8090:8224   */\n    tag_142:\n        /* \"#utility.yul\":8181:8185   */\n      0x00\n        /* \"#utility.yul\":8213:8217   */\n      0x20\n        /* \"#utility.yul\":8208:8211   */\n      dup3\n        /* \"#utility.yul\":8204:8218   */\n      add\n        /* \"#utility.yul\":8196:8218   */\n      swap1\n      pop\n        /* \"#utility.yul\":8090:8224   */\n      swap2\n      swap1\n      pop\n      jump\t// out\n        /* \"#utility.yul\":8286:9365   */\n    tag_143:\n        /* \"#utility.yul\":8447:8450   */\n      0x00\n        /* \"#utility.yul\":8476:8551   */\n      tag_248\n        /* \"#utility.yul\":8545:8550   */\n      dup3\n        /* \"#utility.yul\":8476:8551   */\n      tag_137\n      jump\t// in\n    tag_248:\n        /* \"#utility.yul\":8567:8674   */\n      tag_249\n        /* \"#utility.yul\":8667:8673   */\n      dup2\n        /* \"#utility.yul\":8662:8665   */\n      dup6\n        /* \"#utility.yul\":8567:8674   */\n      tag_138\n      jump\t// in\n    tag_249:\n        /* \"#utility.yul\":8560:8674   */\n      swap4\n      pop\n        /* \"#utility.yul\":8700:8703   */\n      dup4\n        /* \"#utility.yul\":8745:8749   */\n      0x20\n        /* \"#utility.yul\":8737:8743   */\n      dup3\n        /* \"#utility.yul\":8733:8750   */\n      mul\n        /* \"#utility.yul\":8728:8731   */\n      dup6\n        /* \"#utility.yul\":8724:8751   */\n      add\n        /* \"#utility.yul\":8775:8852   */\n      tag_250\n        /* \"#utility.yul\":8846:8851   */\n      dup6\n        /* \"#utility.yul\":8775:8852   */\n      tag_139\n      jump\t// in\n    tag_250:\n        /* \"#utility.yul\":8875:8882   */\n      dup1\n        /* \"#utility.yul\":8906:8907   */\n      0x00\n        /* \"#utility.yul\":8891:9320   */\n    tag_251:\n        /* \"#utility.yul\":8916:8922   */\n      dup6\n        /* \"#utility.yul\":8913:8914   */\n      dup2\n        /* \"#utility.yul\":8910:8923   */\n      lt\n        /* \"#utility.yul\":8891:9320   */\n      iszero\n      tag_253\n      jumpi\n        /* \"#utility.yul\":8987:8996   */\n      dup5\n        /* \"#utility.yul\":8981:8985   */\n      dup5\n        /* \"#utility.yul\":8977:8997   */\n      sub\n        /* \"#utility.yul\":8972:8975   */\n      dup10\n        /* \"#utility.yul\":8965:8998   */\n      mstore\n        /* \"#utility.yul\":9038:9044   */\n      dup2\n        /* \"#utility.yul\":9032:9045   */\n      mload\n        /* \"#utility.yul\":9066:9172   */\n      tag_254\n        /* \"#utility.yul\":9167:9171   */\n      dup6\n        /* \"#utility.yul\":9152:9165   */\n      dup3\n        /* \"#utility.yul\":9066:9172   */\n      tag_141\n      jump\t// in\n    tag_254:\n        /* \"#utility.yul\":9058:9172   */\n      swap5\n      pop\n        /* \"#utility.yul\":9195:9276   */\n      tag_255\n        /* \"#utility.yul\":9269:9275   */\n      dup4\n        /* \"#utility.yul\":9195:9276   */\n      tag_142\n      jump\t// in\n    tag_255:\n        /* \"#utility.yul\":9185:9276   */\n      swap3\n      pop\n        /* \"#utility.yul\":9305:9309   */\n      0x20\n        /* \"#utility.yul\":9300:9303   */\n      dup11\n        /* \"#utility.yul\":9296:9310   */\n      add\n        /* \"#utility.yul\":9289:9310   */\n      swap10\n      pop\n        /* \"#utility.yul\":8951:9320   */\n      pop\n        /* \"#utility.yul\":8938:8939   */\n      0x01\n        /* \"#utility.yul\":8935:8936   */\n      dup2\n        /* \"#utility.yul\":8931:8940   */\n      add\n        /* \"#utility.yul\":8926:8940   */\n      swap1\n      pop\n        /* \"#utility.yul\":8891:9320   */\n      jump(tag_251)\n    tag_253:\n        /* \"#utility.yul\":8895:8909   */\n      pop\n        /* \"#utility.yul\":9336:9340   */\n      dup3\n        /* \"#utility.yul\":9329:9340   */\n      swap8\n      pop\n        /* \"#utility.yul\":9356:9359   */\n      dup8\n        /* \"#utility.yul\":9349:9359   */\n      swap6\n      pop\n        /* \"#utility.yul\":8452:9365   */\n      pop\n      pop\n      pop\n      pop\n      pop\n        /* \"#utility.yul\":8286:9365   */\n      swap3\n      swap2\n      pop\n      pop\n      jump\t// out\n        /* \"#utility.yul\":9371:9828   */\n    tag_21:\n        /* \"#utility.yul\":9556:9560   */\n      0x00\n        /* \"#utility.yul\":9594:9596   */\n      0x20\n        /* \"#utility.yul\":9583:9592   */\n      dup3\n        /* \"#utility.yul\":9579:9597   */\n      add\n        /* \"#utility.yul\":9571:9597   */\n      swap1\n      pop\n        /* \"#utility.yul\":9643:9652   */\n      dup2\n        /* \"#utility.yul\":9637:9641   */\n      dup2\n        /* \"#utility.yul\":9633:9653   */\n      sub\n        /* \"#utility.yul\":9629:9630   */\n      0x00\n        /* \"#utility.yul\":9618:9627   */\n      dup4\n        /* \"#utility.yul\":9614:9631   */\n      add\n        /* \"#utility.yul\":9607:9654   */\n      mstore\n        /* \"#utility.yul\":9671:9821   */\n      tag_257\n        /* \"#utility.yul\":9816:9820   */\n      dup2\n        /* \"#utility.yul\":9807:9813   */\n      dup5\n        /* \"#utility.yul\":9671:9821   */\n      tag_143\n      jump\t// in\n    tag_257:\n        /* \"#utility.yul\":9663:9821   */\n      swap1\n      pop\n        /* \"#utility.yul\":9371:9828   */\n      swap3\n      swap2\n      pop\n      pop\n      jump\t// out\n        /* \"#utility.yul\":9834:9951   */\n    tag_144:\n        /* \"#utility.yul\":9943:9944   */\n      0x00\n        /* \"#utility.yul\":9940:9941   */\n      dup1\n        /* \"#utility.yul\":9933:9945   */\n      revert\n        /* \"#utility.yul\":9957:10074   */\n    tag_145:\n        /* \"#utility.yul\":10066:10067   */\n      0x00\n        /* \"#utility.yul\":10063:10064   */\n      dup1\n        /* \"#utility.yul\":10056:10068   */\n      revert\n        /* \"#utility.yul\":10080:10260   */\n    tag_146:\n        /* \"#utility.yul\":10128:10205   */\n      0x4e487b7100000000000000000000000000000000000000000000000000000000\n        /* \"#utility.yul\":10125:10126   */\n      0x00\n        /* \"#utility.yul\":10118:10206   */\n      mstore\n        /* \"#utility.yul\":10225:10229   */\n      0x41\n        /* \"#utility.yul\":10222:10223   */\n      0x04\n        /* \"#utility.yul\":10215:10230   */\n      mstore\n        /* \"#utility.yul\":10249:10253   */\n      0x24\n        /* \"#utility.yul\":10246:10247   */\n      0x00\n        /* \"#utility.yul\":10239:10254   */\n      revert\n        /* \"#utility.yul\":10266:10547   */\n    tag_147:\n        /* \"#utility.yul\":10349:10376   */\n      tag_262\n        /* \"#utility.yul\":10371:10375   */\n      dup3\n        /* \"#utility.yul\":10349:10376   */\n      tag_126\n      jump\t// in\n    tag_262:\n        /* \"#utility.yul\":10341:10347   */\n      dup2\n        /* \"#utility.yul\":10337:10377   */\n      add\n        /* \"#utility.yul\":10479:10485   */\n      dup2\n        /* \"#utility.yul\":10467:10477   */\n      dup2\n        /* \"#utility.yul\":10464:10486   */\n      lt\n        /* \"#utility.yul\":10443:10461   */\n      0xffffffffffffffff\n        /* \"#utility.yul\":10431:10441   */\n      dup3\n        /* \"#utility.yul\":10428:10462   */\n      gt\n        /* \"#utility.yul\":10425:10487   */\n      or\n        /* \"#utility.yul\":10422:10510   */\n      iszero\n      tag_263\n      jumpi\n        /* \"#utility.yul\":10490:10508   */\n      tag_264\n      tag_146\n      jump\t// in\n    tag_264:\n        /* \"#utility.yul\":10422:10510   */\n    tag_263:\n        /* \"#utility.yul\":10530:10540   */\n      dup1\n        /* \"#utility.yul\":10526:10528   */\n      0x40\n        /* \"#utility.yul\":10519:10541   */\n      mstore\n        /* \"#utility.yul\":10309:10547   */\n      pop\n        /* \"#utility.yul\":10266:10547   */\n      pop\n      pop\n      jump\t// out\n        /* \"#utility.yul\":10553:10682   */\n    tag_148:\n        /* \"#utility.yul\":10587:10593   */\n      0x00\n        /* \"#utility.yul\":10614:10634   */\n      tag_266\n      tag_113\n      jump\t// in\n    tag_266:\n        /* \"#utility.yul\":10604:10634   */\n      swap1\n      pop\n        /* \"#utility.yul\":10643:10676   */\n      tag_267\n        /* \"#utility.yul\":10671:10675   */\n      dup3\n        /* \"#utility.yul\":10663:10669   */\n      dup3\n        /* \"#utility.yul\":10643:10676   */\n      tag_147\n      jump\t// in\n    tag_267:\n        /* \"#utility.yul\":10553:10682   */\n      swap2\n      swap1\n      pop\n      jump\t// out\n        /* \"#utility.yul\":10688:10996   */\n    tag_149:\n        /* \"#utility.yul\":10750:10754   */\n      0x00\n        /* \"#utility.yul\":10840:10858   */\n      0xffffffffffffffff\n        /* \"#utility.yul\":10832:10838   */\n      dup3\n        /* \"#utility.yul\":10829:10859   */\n      gt\n        /* \"#utility.yul\":10826:10882   */\n      iszero\n      tag_269\n      jumpi\n        /* \"#utility.yul\":10862:10880   */\n      tag_270\n      tag_146\n      jump\t// in\n    tag_270:\n        /* \"#utility.yul\":10826:10882   */\n    tag_269:\n        /* \"#utility.yul\":10900:10929   */\n      tag_271\n        /* \"#utility.yul\":10922:10928   */\n      dup3\n        /* \"#utility.yul\":10900:10929   */\n      tag_126\n      jump\t// in\n    tag_271:\n        /* \"#utility.yul\":10892:10929   */\n      swap1\n      pop\n        /* \"#utility.yul\":10984:10988   */\n      0x20\n        /* \"#utility.yul\":10978:10982   */\n      dup2\n        /* \"#utility.yul\":10974:10989   */\n      add\n        /* \"#utility.yul\":10966:10989   */\n      swap1\n      pop\n        /* \"#utility.yul\":10688:10996   */\n      swap2\n      swap1\n      pop\n      jump\t// out\n        /* \"#utility.yul\":11002:11148   */\n    tag_150:\n        /* \"#utility.yul\":11099:11105   */\n      dup3\n        /* \"#utility.yul\":11094:11097   */\n      dup2\n        /* \"#utility.yul\":11089:11092   */\n      dup4\n        /* \"#utility.yul\":11076:11106   */\n      calldatacopy\n        /* \"#utility.yul\":11140:11141   */\n      0x00\n        /* \"#utility.yul\":11131:11137   */\n      dup4\n        /* \"#utility.yul\":11126:11129   */\n      dup4\n        /* \"#utility.yul\":11122:11138   */\n      add\n        /* \"#utility.yul\":11115:11142   */\n      mstore\n        /* \"#utility.yul\":11002:11148   */\n      pop\n      pop\n      pop\n      jump\t// out\n        /* \"#utility.yul\":11154:11579   */\n    tag_151:\n        /* \"#utility.yul\":11232:11237   */\n      0x00\n        /* \"#utility.yul\":11257:11323   */\n      tag_274\n        /* \"#utility.yul\":11273:11322   */\n      tag_275\n        /* \"#utility.yul\":11315:11321   */\n      dup5\n        /* \"#utility.yul\":11273:11322   */\n      tag_149\n      jump\t// in\n    tag_275:\n        /* \"#utility.yul\":11257:11323   */\n      tag_148\n      jump\t// in\n    tag_274:\n        /* \"#utility.yul\":11248:11323   */\n      swap1\n      pop\n        /* \"#utility.yul\":11346:11352   */\n      dup3\n        /* \"#utility.yul\":11339:11344   */\n      dup2\n        /* \"#utility.yul\":11332:11353   */\n      mstore\n        /* \"#utility.yul\":11384:11388   */\n      0x20\n        /* \"#utility.yul\":11377:11382   */\n      dup2\n        /* \"#utility.yul\":11373:11389   */\n      add\n        /* \"#utility.yul\":11422:11425   */\n      dup5\n        /* \"#utility.yul\":11413:11419   */\n      dup5\n        /* \"#utility.yul\":11408:11411   */\n      dup5\n        /* \"#utility.yul\":11404:11420   */\n      add\n        /* \"#utility.yul\":11401:11426   */\n      gt\n        /* \"#utility.yul\":11398:11510   */\n      iszero\n      tag_276\n      jumpi\n        /* \"#utility.yul\":11429:11508   */\n      tag_277\n      tag_145\n      jump\t// in\n    tag_277:\n        /* \"#utility.yul\":11398:11510   */\n    tag_276:\n        /* \"#utility.yul\":11519:11573   */\n      tag_278\n        /* \"#utility.yul\":11566:11572   */\n      dup5\n        /* \"#utility.yul\":11561:11564   */\n      dup3\n        /* \"#utility.yul\":11556:11559   */\n      dup6\n        /* \"#utility.yul\":11519:11573   */\n      tag_150\n      jump\t// in\n    tag_278:\n        /* \"#utility.yul\":11238:11579   */\n      pop\n        /* \"#utility.yul\":11154:11579   */\n      swap4\n      swap3\n      pop\n      pop\n      pop\n      jump\t// out\n        /* \"#utility.yul\":11599:11939   */\n    tag_152:\n        /* \"#utility.yul\":11655:11660   */\n      0x00\n        /* \"#utility.yul\":11704:11707   */\n      dup3\n        /* \"#utility.yul\":11697:11701   */\n      0x1f\n        /* \"#utility.yul\":11689:11695   */\n      dup4\n        /* \"#utility.yul\":11685:11702   */\n      add\n        /* \"#utility.yul\":11681:11708   */\n      slt\n        /* \"#utility.yul\":11671:11793   */\n      tag_280\n      jumpi\n        /* \"#utility.yul\":11712:11791   */\n      tag_281\n      tag_144\n      jump\t// in\n    tag_281:\n        /* \"#utility.yul\":11671:11793   */\n    tag_280:\n        /* \"#utility.yul\":11829:11835   */\n      dup2\n        /* \"#utility.yul\":11816:11836   */\n      calldataload\n        /* \"#utility.yul\":11854:11933   */\n      tag_282\n        /* \"#utility.yul\":11929:11932   */\n      dup5\n        /* \"#utility.yul\":11921:11927   */\n      dup3\n        /* \"#utility.yul\":11914:11918   */\n      0x20\n        /* \"#utility.yul\":11906:11912   */\n      dup7\n        /* \"#utility.yul\":11902:11919   */\n      add\n        /* \"#utility.yul\":11854:11933   */\n      tag_151\n      jump\t// in\n    tag_282:\n        /* \"#utility.yul\":11845:11933   */\n      swap2\n      pop\n        /* \"#utility.yul\":11661:11939   */\n      pop\n        /* \"#utility.yul\":11599:11939   */\n      swap3\n      swap2\n      pop\n      pop\n      jump\t// out\n        /* \"#utility.yul\":11945:12454   */\n    tag_28:\n        /* \"#utility.yul\":12014:12020   */\n      0x00\n        /* \"#utility.yul\":12063:12065   */\n      0x20\n        /* \"#utility.yul\":12051:12060   */\n      dup3\n        /* \"#utility.yul\":12042:12049   */\n      dup5\n        /* \"#utility.yul\":12038:12061   */\n      sub\n        /* \"#utility.yul\":12034:12066   */\n      slt\n        /* \"#utility.yul\":12031:12150   */\n      iszero\n      tag_284\n      jumpi\n        /* \"#utility.yul\":12069:12148   */\n      tag_285\n      tag_114\n      jump\t// in\n    tag_285:\n        /* \"#utility.yul\":12031:12150   */\n    tag_284:\n        /* \"#utility.yul\":12217:12218   */\n      0x00\n        /* \"#utility.yul\":12206:12215   */\n      dup3\n        /* \"#utility.yul\":12202:12219   */\n      add\n        /* \"#utility.yul\":12189:12220   */\n      calldataload\n        /* \"#utility.yul\":12247:12265   */\n      0xffffffffffffffff\n        /* \"#utility.yul\":12239:12245   */\n      dup2\n        /* \"#utility.yul\":12236:12266   */\n      gt\n        /* \"#utility.yul\":12233:12350   */\n      iszero\n      tag_286\n      jumpi\n        /* \"#utility.yul\":12269:12348   */\n      tag_287\n      tag_115\n      jump\t// in\n    tag_287:\n        /* \"#utility.yul\":12233:12350   */\n    tag_286:\n        /* \"#utility.yul\":12374:12437   */\n      tag_288\n        /* \"#utility.yul\":12429:12436   */\n      dup5\n        /* \"#utility.yul\":12420:12426   */\n      dup3\n        /* \"#utility.yul\":12409:12418   */\n      dup6\n        /* \"#utility.yul\":12405:12427   */\n      add\n        /* \"#utility.yul\":12374:12437   */\n      tag_152\n      jump\t// in\n    tag_288:\n        /* \"#utility.yul\":12364:12437   */\n      swap2\n      pop\n        /* \"#utility.yul\":12160:12447   */\n      pop\n        /* \"#utility.yul\":11945:12454   */\n      swap3\n      swap2\n      pop\n      pop\n      jump\t// out\n        /* \"#utility.yul\":12460:12640   */\n    tag_153:\n        /* \"#utility.yul\":12508:12585   */\n      0x4e487b7100000000000000000000000000000000000000000000000000000000\n        /* \"#utility.yul\":12505:12506   */\n      0x00\n        /* \"#utility.yul\":12498:12586   */\n      mstore\n        /* \"#utility.yul\":12605:12609   */\n      0x11\n        /* \"#utility.yul\":12602:12603   */\n      0x04\n        /* \"#utility.yul\":12595:12610   */\n      mstore\n        /* \"#utility.yul\":12629:12633   */\n      0x24\n        /* \"#utility.yul\":12626:12627   */\n      0x00\n        /* \"#utility.yul\":12619:12634   */\n      revert\n        /* \"#utility.yul\":12646:12840   */\n    tag_32:\n        /* \"#utility.yul\":12686:12690   */\n      0x00\n        /* \"#utility.yul\":12706:12726   */\n      tag_291\n        /* \"#utility.yul\":12724:12725   */\n      dup3\n        /* \"#utility.yul\":12706:12726   */\n      tag_120\n      jump\t// in\n    tag_291:\n        /* \"#utility.yul\":12701:12726   */\n      swap2\n      pop\n        /* \"#utility.yul\":12740:12760   */\n      tag_292\n        /* \"#utility.yul\":12758:12759   */\n      dup4\n        /* \"#utility.yul\":12740:12760   */\n      tag_120\n      jump\t// in\n    tag_292:\n        /* \"#utility.yul\":12735:12760   */\n      swap3\n      pop\n        /* \"#utility.yul\":12784:12785   */\n      dup3\n        /* \"#utility.yul\":12781:12782   */\n      dup3\n        /* \"#utility.yul\":12777:12786   */\n      sub\n        /* \"#utility.yul\":12769:12786   */\n      swap1\n      pop\n        /* \"#utility.yul\":12808:12809   */\n      dup2\n        /* \"#utility.yul\":12802:12806   */\n      dup2\n        /* \"#utility.yul\":12799:12810   */\n      gt\n        /* \"#utility.yul\":12796:12833   */\n      iszero\n      tag_293\n      jumpi\n        /* \"#utility.yul\":12813:12831   */\n      tag_294\n      tag_153\n      jump\t// in\n    tag_294:\n        /* \"#utility.yul\":12796:12833   */\n    tag_293:\n        /* \"#utility.yul\":12646:12840   */\n      swap3\n      swap2\n      pop\n      pop\n      jump\t// out\n        /* \"#utility.yul\":12846:13026   */\n    tag_35:\n        /* \"#utility.yul\":12894:12971   */\n      0x4e487b7100000000000000000000000000000000000000000000000000000000\n        /* \"#utility.yul\":12891:12892   */\n      0x00\n        /* \"#utility.yul\":12884:12972   */\n      mstore\n        /* \"#utility.yul\":12991:12995   */\n      0x32\n        /* \"#utility.yul\":12988:12989   */\n      0x04\n        /* \"#utility.yul\":12981:12996   */\n      mstore\n        /* \"#utility.yul\":13015:13019   */\n      0x24\n        /* \"#utility.yul\":13012:13013   */\n      0x00\n        /* \"#utility.yul\":13005:13020   */\n      revert\n        /* \"#utility.yul\":13032:13265   */\n    tag_43:\n        /* \"#utility.yul\":13071:13074   */\n      0x00\n        /* \"#utility.yul\":13094:13118   */\n      tag_297\n        /* \"#utility.yul\":13112:13117   */\n      dup3\n        /* \"#utility.yul\":13094:13118   */\n      tag_120\n      jump\t// in\n    tag_297:\n        /* \"#utility.yul\":13085:13118   */\n      swap2\n      pop\n        /* \"#utility.yul\":13140:13206   */\n      0xffffffffffffffffffffffffffffffffffffffffffffffffffffffffffffffff\n        /* \"#utility.yul\":13133:13138   */\n      dup3\n        /* \"#utility.yul\":13130:13207   */\n      sub\n        /* \"#utility.yul\":13127:13230   */\n      tag_298\n      jumpi\n        /* \"#utility.yul\":13210:13228   */\n      tag_299\n      tag_153\n      jump\t// in\n    tag_299:\n        /* \"#utility.yul\":13127:13230   */\n    tag_298:\n        /* \"#utility.yul\":13257:13258   */\n      0x01\n        /* \"#utility.yul\":13250:13255   */\n      dup3\n        /* \"#utility.yul\":13246:13259   */\n      add\n        /* \"#utility.yul\":13239:13259   */\n      swap1\n      pop\n        /* \"#utility.yul\":13032:13265   */\n      swap2\n      swap1\n      pop\n      jump\t// out\n        /* \"#utility.yul\":13271:13451   */\n    tag_154:\n        /* \"#utility.yul\":13319:13396   */\n      0x4e487b7100000000000000000000000000000000000000000000000000000000\n        /* \"#utility.yul\":13316:13317   */\n      0x00\n        /* \"#utility.yul\":13309:13397   */\n      mstore\n        /* \"#utility.yul\":13416:13420   */\n      0x22\n        /* \"#utility.yul\":13413:13414   */\n      0x04\n        /* \"#utility.yul\":13406:13421   */\n      mstore\n        /* \"#utility.yul\":13440:13444   */\n      0x24\n        /* \"#utility.yul\":13437:13438   */\n      0x00\n        /* \"#utility.yul\":13430:13445   */\n      revert\n        /* \"#utility.yul\":13457:13777   */\n    tag_52:\n        /* \"#utility.yul\":13501:13507   */\n      0x00\n        /* \"#utility.yul\":13538:13539   */\n      0x02\n        /* \"#utility.yul\":13532:13536   */\n      dup3\n        /* \"#utility.yul\":13528:13540   */\n      div\n        /* \"#utility.yul\":13518:13540   */\n      swap1\n      pop\n        /* \"#utility.yul\":13585:13586   */\n      0x01\n        /* \"#utility.yul\":13579:13583   */\n      dup3\n        /* \"#utility.yul\":13575:13587   */\n      and\n        /* \"#utility.yul\":13606:13624   */\n      dup1\n        /* \"#utility.yul\":13596:13677   */\n      tag_302\n      jumpi\n        /* \"#utility.yul\":13662:13666   */\n      0x7f\n        /* \"#utility.yul\":13654:13660   */\n      dup3\n        /* \"#utility.yul\":13650:13667   */\n      and\n        /* \"#utility.yul\":13640:13667   */\n      swap2\n      pop\n        /* \"#utility.yul\":13596:13677   */\n    tag_302:\n        /* \"#utility.yul\":13724:13726   */\n      0x20\n        /* \"#utility.yul\":13716:13722   */\n      dup3\n        /* \"#utility.yul\":13713:13727   */\n      lt\n        /* \"#utility.yul\":13693:13711   */\n      dup2\n        /* \"#utility.yul\":13690:13728   */\n      sub\n        /* \"#utility.yul\":13687:13771   */\n      tag_303\n      jumpi\n        /* \"#utility.yul\":13743:13761   */\n      tag_304\n      tag_154\n      jump\t// in\n    tag_304:\n        /* \"#utility.yul\":13687:13771   */\n    tag_303:\n        /* \"#utility.yul\":13508:13777   */\n      pop\n        /* \"#utility.yul\":13457:13777   */\n      swap2\n      swap1\n      pop\n      jump\t// out\n        /* \"#utility.yul\":13783:13963   */\n    tag_73:\n        /* \"#utility.yul\":13831:13908   */\n      0x4e487b7100000000000000000000000000000000000000000000000000000000\n        /* \"#utility.yul\":13828:13829   */\n      0x00\n        /* \"#utility.yul\":13821:13909   */\n      mstore\n        /* \"#utility.yul\":13928:13932   */\n      0x31\n        /* \"#utility.yul\":13925:13926   */\n      0x04\n        /* \"#utility.yul\":13918:13933   */\n      mstore\n        /* \"#utility.yul\":13952:13956   */\n      0x24\n        /* \"#utility.yul\":13949:13950   */\n      0x00\n        /* \"#utility.yul\":13942:13957   */\n      revert\n        /* \"#utility.yul\":13969:14138   */\n    tag_155:\n        /* \"#utility.yul\":14053:14064   */\n      0x00\n        /* \"#utility.yul\":14087:14093   */\n      dup3\n        /* \"#utility.yul\":14082:14085   */\n      dup3\n        /* \"#utility.yul\":14075:14094   */\n      mstore\n        /* \"#utility.yul\":14127:14131   */\n      0x20\n        /* \"#utility.yul\":14122:14125   */\n      dup3\n        /* \"#utility.yul\":14118:14132   */\n      add\n        /* \"#utility.yul\":14103:14132   */\n      swap1\n      pop\n        /* \"#utility.yul\":13969:14138   */\n      swap3\n      swap2\n      pop\n      pop\n      jump\t// out\n        /* \"#utility.yul\":14144:14317   */\n    tag_156:\n        /* \"#utility.yul\":14284:14309   */\n      0x5477656574204c656e6774682069732045786365656421000000000000000000\n        /* \"#utility.yul\":14280:14281   */\n      0x00\n        /* \"#utility.yul\":14272:14278   */\n      dup3\n        /* \"#utility.yul\":14268:14282   */\n      add\n        /* \"#utility.yul\":14261:14310   */\n      mstore\n        /* \"#utility.yul\":14144:14317   */\n      pop\n      jump\t// out\n        /* \"#utility.yul\":14323:14689   */\n    tag_157:\n        /* \"#utility.yul\":14465:14468   */\n      0x00\n        /* \"#utility.yul\":14486:14553   */\n      tag_309\n        /* \"#utility.yul\":14550:14552   */\n      0x17\n        /* \"#utility.yul\":14545:14548   */\n      dup4\n        /* \"#utility.yul\":14486:14553   */\n      tag_155\n      jump\t// in\n    tag_309:\n        /* \"#utility.yul\":14479:14553   */\n      swap2\n      pop\n        /* \"#utility.yul\":14562:14655   */\n      tag_310\n        /* \"#utility.yul\":14651:14654   */\n      dup3\n        /* \"#utility.yul\":14562:14655   */\n      tag_156\n      jump\t// in\n    tag_310:\n        /* \"#utility.yul\":14680:14682   */\n      0x20\n        /* \"#utility.yul\":14675:14678   */\n      dup3\n        /* \"#utility.yul\":14671:14683   */\n      add\n        /* \"#utility.yul\":14664:14683   */\n      swap1\n      pop\n        /* \"#utility.yul\":14323:14689   */\n      swap2\n      swap1\n      pop\n      jump\t// out\n        /* \"#utility.yul\":14695:15114   */\n    tag_85:\n        /* \"#utility.yul\":14861:14865   */\n      0x00\n        /* \"#utility.yul\":14899:14901   */\n      0x20\n        /* \"#utility.yul\":14888:14897   */\n      dup3\n        /* \"#utility.yul\":14884:14902   */\n      add\n        /* \"#utility.yul\":14876:14902   */\n      swap1\n      pop\n        /* \"#utility.yul\":14948:14957   */\n      dup2\n        /* \"#utility.yul\":14942:14946   */\n      dup2\n        /* \"#utility.yul\":14938:14958   */\n      sub\n        /* \"#utility.yul\":14934:14935   */\n      0x00\n        /* \"#utility.yul\":14923:14932   */\n      dup4\n        /* \"#utility.yul\":14919:14936   */\n      add\n        /* \"#utility.yul\":14912:14959   */\n      mstore\n        /* \"#utility.yul\":14976:15107   */\n      tag_312\n        /* \"#utility.yul\":15102:15106   */\n      dup2\n        /* \"#utility.yul\":14976:15107   */\n      tag_157\n      jump\t// in\n    tag_312:\n        /* \"#utility.yul\":14968:15107   */\n      swap1\n      pop\n        /* \"#utility.yul\":14695:15114   */\n      swap2\n      swap1\n      pop\n      jump\t// out\n        /* \"#utility.yul\":15120:15261   */\n    tag_158:\n        /* \"#utility.yul\":15169:15173   */\n      0x00\n        /* \"#utility.yul\":15192:15195   */\n      dup2\n        /* \"#utility.yul\":15184:15195   */\n      swap1\n      pop\n        /* \"#utility.yul\":15215:15218   */\n      dup2\n        /* \"#utility.yul\":15212:15213   */\n      0x00\n        /* \"#utility.yul\":15205:15219   */\n      mstore\n        /* \"#utility.yul\":15249:15253   */\n      0x20\n        /* \"#utility.yul\":15246:15247   */\n      0x00\n        /* \"#utility.yul\":15236:15254   */\n      keccak256\n        /* \"#utility.yul\":15228:15254   */\n      swap1\n      pop\n        /* \"#utility.yul\":15120:15261   */\n      swap2\n      swap1\n      pop\n      jump\t// out\n        /* \"#utility.yul\":15267:15360   */\n    tag_159:\n        /* \"#utility.yul\":15304:15310   */\n      0x00\n        /* \"#utility.yul\":15351:15353   */\n      0x20\n        /* \"#utility.yul\":15346:15348   */\n      0x1f\n        /* \"#utility.yul\":15339:15344   */\n      dup4\n        /* \"#utility.yul\":15335:15349   */\n      add\n        /* \"#utility.yul\":15331:15354   */\n      div\n        /* \"#utility.yul\":15321:15354   */\n      swap1\n      pop\n        /* \"#utility.yul\":15267:15360   */\n      swap2\n      swap1\n      pop\n      jump\t// out\n        /* \"#utility.yul\":15366:15473   */\n    tag_160:\n        /* \"#utility.yul\":15410:15418   */\n      0x00\n        /* \"#utility.yul\":15460:15465   */\n      dup3\n        /* \"#utility.yul\":15454:15458   */\n      dup3\n        /* \"#utility.yul\":15450:15466   */\n      shl\n        /* \"#utility.yul\":15429:15466   */\n      swap1\n      pop\n        /* \"#utility.yul\":15366:15473   */\n      swap3\n      swap2\n      pop\n      pop\n      jump\t// out\n        /* \"#utility.yul\":15479:15872   */\n    tag_161:\n        /* \"#utility.yul\":15548:15554   */\n      0x00\n        /* \"#utility.yul\":15598:15599   */\n      0x08\n        /* \"#utility.yul\":15586:15596   */\n      dup4\n        /* \"#utility.yul\":15582:15600   */\n      mul\n        /* \"#utility.yul\":15621:15718   */\n      tag_317\n        /* \"#utility.yul\":15651:15717   */\n      0xffffffffffffffffffffffffffffffffffffffffffffffffffffffffffffffff\n        /* \"#utility.yul\":15640:15649   */\n      dup3\n        /* \"#utility.yul\":15621:15718   */\n      tag_160\n      jump\t// in\n    tag_317:\n        /* \"#utility.yul\":15739:15778   */\n      tag_318\n        /* \"#utility.yul\":15769:15777   */\n      dup7\n        /* \"#utility.yul\":15758:15767   */\n      dup4\n        /* \"#utility.yul\":15739:15778   */\n      tag_160\n      jump\t// in\n    tag_318:\n        /* \"#utility.yul\":15727:15778   */\n      swap6\n      pop\n        /* \"#utility.yul\":15811:15815   */\n      dup1\n        /* \"#utility.yul\":15807:15816   */\n      not\n        /* \"#utility.yul\":15800:15805   */\n      dup5\n        /* \"#utility.yul\":15796:15817   */\n      and\n        /* \"#utility.yul\":15787:15817   */\n      swap4\n      pop\n        /* \"#utility.yul\":15860:15864   */\n      dup1\n        /* \"#utility.yul\":15850:15858   */\n      dup7\n        /* \"#utility.yul\":15846:15865   */\n      and\n        /* \"#utility.yul\":15839:15844   */\n      dup5\n        /* \"#utility.yul\":15836:15866   */\n      or\n        /* \"#utility.yul\":15826:15866   */\n      swap3\n      pop\n        /* \"#utility.yul\":15555:15872   */\n      pop\n      pop\n        /* \"#utility.yul\":15479:15872   */\n      swap4\n      swap3\n      pop\n      pop\n      pop\n      jump\t// out\n        /* \"#utility.yul\":15878:15938   */\n    tag_162:\n        /* \"#utility.yul\":15906:15909   */\n      0x00\n        /* \"#utility.yul\":15927:15932   */\n      dup2\n        /* \"#utility.yul\":15920:15932   */\n      swap1\n      pop\n        /* \"#utility.yul\":15878:15938   */\n      swap2\n      swap1\n      pop\n      jump\t// out\n        /* \"#utility.yul\":15944:16086   */\n    tag_163:\n        /* \"#utility.yul\":15994:16003   */\n      0x00\n        /* \"#utility.yul\":16027:16080   */\n      tag_321\n        /* \"#utility.yul\":16045:16079   */\n      tag_322\n        /* \"#utility.yul\":16054:16078   */\n      tag_323\n        /* \"#utility.yul\":16072:16077   */\n      dup5\n        /* \"#utility.yul\":16054:16078   */\n      tag_120\n      jump\t// in\n    tag_323:\n        /* \"#utility.yul\":16045:16079   */\n      tag_162\n      jump\t// in\n    tag_322:\n        /* \"#utility.yul\":16027:16080   */\n      tag_120\n      jump\t// in\n    tag_321:\n        /* \"#utility.yul\":16014:16080   */\n      swap1\n      pop\n        /* \"#utility.yul\":15944:16086   */\n      swap2\n      swap1\n      pop\n      jump\t// out\n        /* \"#utility.yul\":16092:16167   */\n    tag_164:\n        /* \"#utility.yul\":16135:16138   */\n      0x00\n        /* \"#utility.yul\":16156:16161   */\n      dup2\n        /* \"#utility.yul\":16149:16161   */\n      swap1\n      pop\n        /* \"#utility.yul\":16092:16167   */\n      swap2\n      swap1\n      pop\n      jump\t// out\n        /* \"#utility.yul\":16173:16442   */\n    tag_165:\n        /* \"#utility.yul\":16283:16322   */\n      tag_326\n        /* \"#utility.yul\":16314:16321   */\n      dup4\n        /* \"#utility.yul\":16283:16322   */\n      tag_163\n      jump\t// in\n    tag_326:\n        /* \"#utility.yul\":16344:16435   */\n      tag_327\n        /* \"#utility.yul\":16393:16434   */\n      tag_328\n        /* \"#utility.yul\":16417:16433   */\n      dup3\n        /* \"#utility.yul\":16393:16434   */\n      tag_164\n      jump\t// in\n    tag_328:\n        /* \"#utility.yul\":16385:16391   */\n      dup5\n        /* \"#utility.yul\":16378:16382   */\n      dup5\n        /* \"#utility.yul\":16372:16383   */\n      sload\n        /* \"#utility.yul\":16344:16435   */\n      tag_161\n      jump\t// in\n    tag_327:\n        /* \"#utility.yul\":16338:16342   */\n      dup3\n        /* \"#utility.yul\":16331:16436   */\n      sstore\n        /* \"#utility.yul\":16249:16442   */\n      pop\n        /* \"#utility.yul\":16173:16442   */\n      pop\n      pop\n      pop\n      jump\t// out\n        /* \"#utility.yul\":16448:16521   */\n    tag_166:\n        /* \"#utility.yul\":16493:16496   */\n      0x00\n        /* \"#utility.yul\":16448:16521   */\n      swap1\n      jump\t// out\n        /* \"#utility.yul\":16527:16716   */\n    tag_167:\n        /* \"#utility.yul\":16604:16636   */\n      tag_331\n      tag_166\n      jump\t// in\n    tag_331:\n        /* \"#utility.yul\":16645:16710   */\n      tag_332\n        /* \"#utility.yul\":16703:16709   */\n      dup2\n        /* \"#utility.yul\":16695:16701   */\n      dup5\n        /* \"#utility.yul\":16689:16693   */\n      dup5\n        /* \"#utility.yul\":16645:16710   */\n      tag_165\n      jump\t// in\n    tag_332:\n        /* \"#utility.yul\":16580:16716   */\n      pop\n        /* \"#utility.yul\":16527:16716   */\n      pop\n      pop\n      jump\t// out\n        /* \"#utility.yul\":16722:16908   */\n    tag_168:\n        /* \"#utility.yul\":16782:16902   */\n    tag_334:\n        /* \"#utility.yul\":16799:16802   */\n      dup2\n        /* \"#utility.yul\":16792:16797   */\n      dup2\n        /* \"#utility.yul\":16789:16803   */\n      lt\n        /* \"#utility.yul\":16782:16902   */\n      iszero\n      tag_336\n      jumpi\n        /* \"#utility.yul\":16853:16892   */\n      tag_337\n        /* \"#utility.yul\":16890:16891   */\n      0x00\n        /* \"#utility.yul\":16883:16888   */\n      dup3\n        /* \"#utility.yul\":16853:16892   */\n      tag_167\n      jump\t// in\n    tag_337:\n        /* \"#utility.yul\":16826:16827   */\n      0x01\n        /* \"#utility.yul\":16819:16824   */\n      dup2\n        /* \"#utility.yul\":16815:16828   */\n      add\n        /* \"#utility.yul\":16806:16828   */\n      swap1\n      pop\n        /* \"#utility.yul\":16782:16902   */\n      jump(tag_334)\n    tag_336:\n        /* \"#utility.yul\":16722:16908   */\n      pop\n      pop\n      jump\t// out\n        /* \"#utility.yul\":16914:17457   */\n    tag_169:\n        /* \"#utility.yul\":17015:17017   */\n      0x1f\n        /* \"#utility.yul\":17010:17013   */\n      dup3\n        /* \"#utility.yul\":17007:17018   */\n      gt\n        /* \"#utility.yul\":17004:17450   */\n      iszero\n      tag_339\n      jumpi\n        /* \"#utility.yul\":17049:17087   */\n      tag_340\n        /* \"#utility.yul\":17081:17086   */\n      dup2\n        /* \"#utility.yul\":17049:17087   */\n      tag_158\n      jump\t// in\n    tag_340:\n        /* \"#utility.yul\":17133:17162   */\n      tag_341\n        /* \"#utility.yul\":17151:17161   */\n      dup5\n        /* \"#utility.yul\":17133:17162   */\n      tag_159\n      jump\t// in\n    tag_341:\n        /* \"#utility.yul\":17123:17131   */\n      dup2\n        /* \"#utility.yul\":17119:17163   */\n      add\n        /* \"#utility.yul\":17316:17318   */\n      0x20\n        /* \"#utility.yul\":17304:17314   */\n      dup6\n        /* \"#utility.yul\":17301:17319   */\n      lt\n        /* \"#utility.yul\":17298:17347   */\n      iszero\n      tag_342\n      jumpi\n        /* \"#utility.yul\":17337:17345   */\n      dup2\n        /* \"#utility.yul\":17322:17345   */\n      swap1\n      pop\n        /* \"#utility.yul\":17298:17347   */\n    tag_342:\n        /* \"#utility.yul\":17360:17440   */\n      tag_343\n        /* \"#utility.yul\":17416:17438   */\n      tag_344\n        /* \"#utility.yul\":17434:17437   */\n      dup6\n        /* \"#utility.yul\":17416:17438   */\n      tag_159\n      jump\t// in\n    tag_344:\n        /* \"#utility.yul\":17406:17414   */\n      dup4\n        /* \"#utility.yul\":17402:17439   */\n      add\n        /* \"#utility.yul\":17389:17400   */\n      dup3\n        /* \"#utility.yul\":17360:17440   */\n      tag_168\n      jump\t// in\n    tag_343:\n        /* \"#utility.yul\":17019:17450   */\n      pop\n      pop\n        /* \"#utility.yul\":17004:17450   */\n    tag_339:\n        /* \"#utility.yul\":16914:17457   */\n      pop\n      pop\n      pop\n      jump\t// out\n        /* \"#utility.yul\":17463:17580   */\n    tag_170:\n        /* \"#utility.yul\":17517:17525   */\n      0x00\n        /* \"#utility.yul\":17567:17572   */\n      dup3\n        /* \"#utility.yul\":17561:17565   */\n      dup3\n        /* \"#utility.yul\":17557:17573   */\n      shr\n        /* \"#utility.yul\":17536:17573   */\n      swap1\n      pop\n        /* \"#utility.yul\":17463:17580   */\n      swap3\n      swap2\n      pop\n      pop\n      jump\t// out\n        /* \"#utility.yul\":17586:17755   */\n    tag_171:\n        /* \"#utility.yul\":17630:17636   */\n      0x00\n        /* \"#utility.yul\":17663:17714   */\n      tag_347\n        /* \"#utility.yul\":17711:17712   */\n      0x00\n        /* \"#utility.yul\":17707:17713   */\n      not\n        /* \"#utility.yul\":17699:17704   */\n      dup5\n        /* \"#utility.yul\":17696:17697   */\n      0x08\n        /* \"#utility.yul\":17692:17705   */\n      mul\n        /* \"#utility.yul\":17663:17714   */\n      tag_170\n      jump\t// in\n    tag_347:\n        /* \"#utility.yul\":17659:17715   */\n      not\n        /* \"#utility.yul\":17744:17748   */\n      dup1\n        /* \"#utility.yul\":17738:17742   */\n      dup4\n        /* \"#utility.yul\":17734:17749   */\n      and\n        /* \"#utility.yul\":17724:17749   */\n      swap2\n      pop\n        /* \"#utility.yul\":17637:17755   */\n      pop\n        /* \"#utility.yul\":17586:17755   */\n      swap3\n      swap2\n      pop\n      pop\n      jump\t// out\n        /* \"#utility.yul\":17760:18055   */\n    tag_172:\n        /* \"#utility.yul\":17836:17840   */\n      0x00\n        /* \"#utility.yul\":17982:18011   */\n      tag_349\n        /* \"#utility.yul\":18007:18010   */\n      dup4\n        /* \"#utility.yul\":18001:18005   */\n      dup4\n        /* \"#utility.yul\":17982:18011   */\n      tag_171\n      jump\t// in\n    tag_349:\n        /* \"#utility.yul\":17974:18011   */\n      swap2\n      pop\n        /* \"#utility.yul\":18044:18047   */\n      dup3\n        /* \"#utility.yul\":18041:18042   */\n      0x02\n        /* \"#utility.yul\":18037:18048   */\n      mul\n        /* \"#utility.yul\":18031:18035   */\n      dup3\n        /* \"#utility.yul\":18028:18049   */\n      or\n        /* \"#utility.yul\":18020:18049   */\n      swap1\n      pop\n        /* \"#utility.yul\":17760:18055   */\n      swap3\n      swap2\n      pop\n      pop\n      jump\t// out\n        /* \"#utility.yul\":18060:19455   */\n    tag_90:\n        /* \"#utility.yul\":18177:18214   */\n      tag_351\n        /* \"#utility.yul\":18210:18213   */\n      dup3\n        /* \"#utility.yul\":18177:18214   */\n      tag_123\n      jump\t// in\n    tag_351:\n        /* \"#utility.yul\":18279:18297   */\n      0xffffffffffffffff\n        /* \"#utility.yul\":18271:18277   */\n      dup2\n        /* \"#utility.yul\":18268:18298   */\n      gt\n        /* \"#utility.yul\":18265:18321   */\n      iszero\n      tag_352\n      jumpi\n        /* \"#utility.yul\":18301:18319   */\n      tag_353\n      tag_146\n      jump\t// in\n    tag_353:\n        /* \"#utility.yul\":18265:18321   */\n    tag_352:\n        /* \"#utility.yul\":18345:18383   */\n      tag_354\n        /* \"#utility.yul\":18377:18381   */\n      dup3\n        /* \"#utility.yul\":18371:18382   */\n      sload\n        /* \"#utility.yul\":18345:18383   */\n      tag_52\n      jump\t// in\n    tag_354:\n        /* \"#utility.yul\":18430:18497   */\n      tag_355\n        /* \"#utility.yul\":18490:18496   */\n      dup3\n        /* \"#utility.yul\":18482:18488   */\n      dup3\n        /* \"#utility.yul\":18476:18480   */\n      dup6\n        /* \"#utility.yul\":18430:18497   */\n      tag_169\n      jump\t// in\n    tag_355:\n        /* \"#utility.yul\":18524:18525   */\n      0x00\n        /* \"#utility.yul\":18548:18552   */\n      0x20\n        /* \"#utility.yul\":18535:18552   */\n      swap1\n      pop\n        /* \"#utility.yul\":18580:18582   */\n      0x1f\n        /* \"#utility.yul\":18572:18578   */\n      dup4\n        /* \"#utility.yul\":18569:18583   */\n      gt\n        /* \"#utility.yul\":18597:18598   */\n      0x01\n        /* \"#utility.yul\":18592:19210   */\n      dup2\n      eq\n      tag_357\n      jumpi\n        /* \"#utility.yul\":19254:19255   */\n      0x00\n        /* \"#utility.yul\":19271:19277   */\n      dup5\n        /* \"#utility.yul\":19268:19345   */\n      iszero\n      tag_358\n      jumpi\n        /* \"#utility.yul\":19320:19329   */\n      dup3\n        /* \"#utility.yul\":19315:19318   */\n      dup8\n        /* \"#utility.yul\":19311:19330   */\n      add\n        /* \"#utility.yul\":19305:19331   */\n      mload\n        /* \"#utility.yul\":19296:19331   */\n      swap1\n      pop\n        /* \"#utility.yul\":19268:19345   */\n    tag_358:\n        /* \"#utility.yul\":19371:19438   */\n      tag_359\n        /* \"#utility.yul\":19431:19437   */\n      dup6\n        /* \"#utility.yul\":19424:19429   */\n      dup3\n        /* \"#utility.yul\":19371:19438   */\n      tag_172\n      jump\t// in\n    tag_359:\n        /* \"#utility.yul\":19365:19369   */\n      dup7\n        /* \"#utility.yul\":19358:19439   */\n      sstore\n        /* \"#utility.yul\":19227:19449   */\n      pop\n        /* \"#utility.yul\":18562:19449   */\n      jump(tag_356)\n        /* \"#utility.yul\":18592:19210   */\n    tag_357:\n        /* \"#utility.yul\":18644:18648   */\n      0x1f\n        /* \"#utility.yul\":18640:18649   */\n      not\n        /* \"#utility.yul\":18632:18638   */\n      dup5\n        /* \"#utility.yul\":18628:18650   */\n      and\n        /* \"#utility.yul\":18678:18715   */\n      tag_360\n        /* \"#utility.yul\":18710:18714   */\n      dup7\n        /* \"#utility.yul\":18678:18715   */\n      tag_158\n      jump\t// in\n    tag_360:\n        /* \"#utility.yul\":18737:18738   */\n      0x00\n        /* \"#utility.yul\":18751:18959   */\n    tag_361:\n        /* \"#utility.yul\":18765:18772   */\n      dup3\n        /* \"#utility.yul\":18762:18763   */\n      dup2\n        /* \"#utility.yul\":18759:18773   */\n      lt\n        /* \"#utility.yul\":18751:18959   */\n      iszero\n      tag_363\n      jumpi\n        /* \"#utility.yul\":18844:18853   */\n      dup5\n        /* \"#utility.yul\":18839:18842   */\n      dup10\n        /* \"#utility.yul\":18835:18854   */\n      add\n        /* \"#utility.yul\":18829:18855   */\n      mload\n        /* \"#utility.yul\":18821:18827   */\n      dup3\n        /* \"#utility.yul\":18814:18856   */\n      sstore\n        /* \"#utility.yul\":18895:18896   */\n      0x01\n        /* \"#utility.yul\":18887:18893   */\n      dup3\n        /* \"#utility.yul\":18883:18897   */\n      add\n        /* \"#utility.yul\":18873:18897   */\n      swap2\n      pop\n        /* \"#utility.yul\":18942:18944   */\n      0x20\n        /* \"#utility.yul\":18931:18940   */\n      dup6\n        /* \"#utility.yul\":18927:18945   */\n      add\n        /* \"#utility.yul\":18914:18945   */\n      swap5\n      pop\n        /* \"#utility.yul\":18788:18792   */\n      0x20\n        /* \"#utility.yul\":18785:18786   */\n      dup2\n        /* \"#utility.yul\":18781:18793   */\n      add\n        /* \"#utility.yul\":18776:18793   */\n      swap1\n      pop\n        /* \"#utility.yul\":18751:18959   */\n      jump(tag_361)\n    tag_363:\n        /* \"#utility.yul\":18987:18993   */\n      dup7\n        /* \"#utility.yul\":18978:18985   */\n      dup4\n        /* \"#utility.yul\":18975:18994   */\n      lt\n        /* \"#utility.yul\":18972:19151   */\n      iszero\n      tag_364\n      jumpi\n        /* \"#utility.yul\":19045:19054   */\n      dup5\n        /* \"#utility.yul\":19040:19043   */\n      dup10\n        /* \"#utility.yul\":19036:19055   */\n      add\n        /* \"#utility.yul\":19030:19056   */\n      mload\n        /* \"#utility.yul\":19088:19136   */\n      tag_365\n        /* \"#utility.yul\":19130:19134   */\n      0x1f\n        /* \"#utility.yul\":19122:19128   */\n      dup10\n        /* \"#utility.yul\":19118:19135   */\n      and\n        /* \"#utility.yul\":19107:19116   */\n      dup3\n        /* \"#utility.yul\":19088:19136   */\n      tag_171\n      jump\t// in\n    tag_365:\n        /* \"#utility.yul\":19080:19086   */\n      dup4\n        /* \"#utility.yul\":19073:19137   */\n      sstore\n        /* \"#utility.yul\":18995:19151   */\n      pop\n        /* \"#utility.yul\":18972:19151   */\n    tag_364:\n        /* \"#utility.yul\":19197:19198   */\n      0x01\n        /* \"#utility.yul\":19193:19194   */\n      0x02\n        /* \"#utility.yul\":19185:19191   */\n      dup9\n        /* \"#utility.yul\":19181:19195   */\n      mul\n        /* \"#utility.yul\":19177:19199   */\n      add\n        /* \"#utility.yul\":19171:19175   */\n      dup9\n        /* \"#utility.yul\":19164:19200   */\n      sstore\n        /* \"#utility.yul\":18599:19210   */\n      pop\n      pop\n      pop\n        /* \"#utility.yul\":18562:19449   */\n    tag_356:\n      pop\n        /* \"#utility.yul\":18152:19455   */\n      pop\n      pop\n      pop\n        /* \"#utility.yul\":18060:19455   */\n      pop\n      pop\n      jump\t// out\n\n    auxdata: 0xa264697066735822122044a282d6c405996a68f0dfa3895145053b3653999fa27b181d5ef0db6e2363cc64736f6c63430008120033\n}\n",
				"bytecode": {
					"linkReferences": {},
					"object": "608060405234801561001057600080fd5b506115e2806100206000396000f3fe608060405234801561001057600080fd5b50600436106100625760003560e01c80630362d52e1461006757806337f36a4c1461008357806342d7fbc0146100b357806371e7eb12146100d1578063765fab45146100db5780637c9cd2bc146100e5575b600080fd5b610081600480360381019061007c9190610c2d565b610101565b005b61009d60048036038101906100989190610c2d565b610258565b6040516100aa9190610e47565b60405180910390f35b6100bb610468565b6040516100c89190610fa8565b60405180910390f35b6100d961068e565b005b6100e361074f565b005b6100ff60048036038101906100fa91906110ff565b61079c565b005b600160008373ffffffffffffffffffffffffffffffffffffffff1673ffffffffffffffffffffffffffffffffffffffff16815260200190815260200160002060018261014d9190611177565b8154811061015e5761015d6111ab565b5b9060005260206000209060050201600301339080600181540180825580915050600190039060005260206000200160009091909190916101000a81548173ffffffffffffffffffffffffffffffffffffffff021916908373ffffffffffffffffffffffffffffffffffffffff160217905550600160008373ffffffffffffffffffffffffffffffffffffffff1673ffffffffffffffffffffffffffffffffffffffff16815260200190815260200160002060018261021c9190611177565b8154811061022d5761022c6111ab565b5b9060005260206000209060050201600401600081548092919061024f906111da565b91905055505050565b6102606109a6565b600160008473ffffffffffffffffffffffffffffffffffffffff1673ffffffffffffffffffffffffffffffffffffffff1681526020019081526020016000206001836102ac9190611177565b815481106102bd576102bc6111ab565b5b90600052602060002090600502016040518060a00160405290816000820180546102e690611251565b80601f016020809104026020016040519081016040528092919081815260200182805461031290611251565b801561035f5780601f106103345761010080835404028352916020019161035f565b820191906000526020600020905b81548152906001019060200180831161034257829003601f168201915b505050505081526020016001820160009054906101000a900473ffffffffffffffffffffffffffffffffffffffff1673ffffffffffffffffffffffffffffffffffffffff1673ffffffffffffffffffffffffffffffffffffffff168152602001600282015481526020016003820180548060200260200160405190810160405280929190818152602001828054801561044d57602002820191906000526020600020905b8160009054906101000a900473ffffffffffffffffffffffffffffffffffffffff1673ffffffffffffffffffffffffffffffffffffffff1681526020019060010190808311610403575b50505050508152602001600482015481525050905092915050565b6060600160003373ffffffffffffffffffffffffffffffffffffffff1673ffffffffffffffffffffffffffffffffffffffff168152602001908152602001600020805480602002602001604051908101604052809291908181526020016000905b8282101561068557838290600052602060002090600502016040518060a00160405290816000820180546104fc90611251565b80601f016020809104026020016040519081016040528092919081815260200182805461052890611251565b80156105755780601f1061054a57610100808354040283529160200191610575565b820191906000526020600020905b81548152906001019060200180831161055857829003601f168201915b505050505081526020016001820160009054906101000a900473ffffffffffffffffffffffffffffffffffffffff1673ffffffffffffffffffffffffffffffffffffffff1673ffffffffffffffffffffffffffffffffffffffff168152602001600282015481526020016003820180548060200260200160405190810160405280929190818152602001828054801561066357602002820191906000526020600020905b8160009054906101000a900473ffffffffffffffffffffffffffffffffffffffff1673ffffffffffffffffffffffffffffffffffffffff1681526020019060010190808311610619575b50505050508152602001600482015481525050815260200190600101906104c9565b50505050905090565b600160003373ffffffffffffffffffffffffffffffffffffffff1673ffffffffffffffffffffffffffffffffffffffff1681526020019081526020016000208054806106dd576106dc611282565b5b60019003818190600052602060002090600502016000808201600061070291906109eb565b6001820160006101000a81549073ffffffffffffffffffffffffffffffffffffffff021916905560028201600090556003820160006107419190610a2b565b600482016000905550509055565b600160003373ffffffffffffffffffffffffffffffffffffffff1673ffffffffffffffffffffffffffffffffffffffff168152602001908152602001600020600061079a9190610a4c565b565b600a815111156107e1576040517f08c379a00000000000000000000000000000000000000000000000000000000081526004016107d89061130e565b60405180910390fd5b60006040518060a001604052808381526020013373ffffffffffffffffffffffffffffffffffffffff168152602001428152602001600080548060200260200160405190810160405280929190818152602001828054801561089857602002820191906000526020600020905b8160009054906101000a900473ffffffffffffffffffffffffffffffffffffffff1673ffffffffffffffffffffffffffffffffffffffff168152602001906001019080831161084e575b5050505050815260200160008152509050600160003373ffffffffffffffffffffffffffffffffffffffff1673ffffffffffffffffffffffffffffffffffffffff168152602001908152602001600020819080600181540180825580915050600190039060005260206000209060050201600090919091909150600082015181600001908161092791906114da565b5060208201518160010160006101000a81548173ffffffffffffffffffffffffffffffffffffffff021916908373ffffffffffffffffffffffffffffffffffffffff160217905550604082015181600201556060820151816003019080519060200190610995929190610a70565b506080820151816004015550505050565b6040518060a0016040528060608152602001600073ffffffffffffffffffffffffffffffffffffffff1681526020016000815260200160608152602001600081525090565b5080546109f790611251565b6000825580601f10610a095750610a28565b601f016020900490600052602060002090810190610a279190610afa565b5b50565b5080546000825590600052602060002090810190610a499190610afa565b50565b5080546000825560050290600052602060002090810190610a6d9190610b17565b50565b828054828255906000526020600020908101928215610ae9579160200282015b82811115610ae85782518260006101000a81548173ffffffffffffffffffffffffffffffffffffffff021916908373ffffffffffffffffffffffffffffffffffffffff16021790555091602001919060010190610a90565b5b509050610af69190610afa565b5090565b5b80821115610b13576000816000905550600101610afb565b5090565b5b80821115610b815760008082016000610b3191906109eb565b6001820160006101000a81549073ffffffffffffffffffffffffffffffffffffffff02191690556002820160009055600382016000610b709190610a2b565b600482016000905550600501610b18565b5090565b6000604051905090565b600080fd5b600080fd5b600073ffffffffffffffffffffffffffffffffffffffff82169050919050565b6000610bc482610b99565b9050919050565b610bd481610bb9565b8114610bdf57600080fd5b50565b600081359050610bf181610bcb565b92915050565b6000819050919050565b610c0a81610bf7565b8114610c1557600080fd5b50565b600081359050610c2781610c01565b92915050565b60008060408385031215610c4457610c43610b8f565b5b6000610c5285828601610be2565b9250506020610c6385828601610c18565b9150509250929050565b600081519050919050565b600082825260208201905092915050565b60005b83811015610ca7578082015181840152602081019050610c8c565b60008484015250505050565b6000601f19601f8301169050919050565b6000610ccf82610c6d565b610cd98185610c78565b9350610ce9818560208601610c89565b610cf281610cb3565b840191505092915050565b610d0681610bb9565b82525050565b610d1581610bf7565b82525050565b600081519050919050565b600082825260208201905092915050565b6000819050602082019050919050565b6000610d538383610cfd565b60208301905092915050565b6000602082019050919050565b6000610d7782610d1b565b610d818185610d26565b9350610d8c83610d37565b8060005b83811015610dbd578151610da48882610d47565b9750610daf83610d5f565b925050600181019050610d90565b5085935050505092915050565b600060a0830160008301518482036000860152610de78282610cc4565b9150506020830151610dfc6020860182610cfd565b506040830151610e0f6040860182610d0c565b5060608301518482036060860152610e278282610d6c565b9150506080830151610e3c6080860182610d0c565b508091505092915050565b60006020820190508181036000830152610e618184610dca565b905092915050565b600081519050919050565b600082825260208201905092915050565b6000819050602082019050919050565b600060a0830160008301518482036000860152610eb28282610cc4565b9150506020830151610ec76020860182610cfd565b506040830151610eda6040860182610d0c565b5060608301518482036060860152610ef28282610d6c565b9150506080830151610f076080860182610d0c565b508091505092915050565b6000610f1e8383610e95565b905092915050565b6000602082019050919050565b6000610f3e82610e69565b610f488185610e74565b935083602082028501610f5a85610e85565b8060005b85811015610f965784840389528151610f778582610f12565b9450610f8283610f26565b925060208a01995050600181019050610f5e565b50829750879550505050505092915050565b60006020820190508181036000830152610fc28184610f33565b905092915050565b600080fd5b600080fd5b7f4e487b7100000000000000000000000000000000000000000000000000000000600052604160045260246000fd5b61100c82610cb3565b810181811067ffffffffffffffff8211171561102b5761102a610fd4565b5b80604052505050565b600061103e610b85565b905061104a8282611003565b919050565b600067ffffffffffffffff82111561106a57611069610fd4565b5b61107382610cb3565b9050602081019050919050565b82818337600083830152505050565b60006110a261109d8461104f565b611034565b9050828152602081018484840111156110be576110bd610fcf565b5b6110c9848285611080565b509392505050565b600082601f8301126110e6576110e5610fca565b5b81356110f684826020860161108f565b91505092915050565b60006020828403121561111557611114610b8f565b5b600082013567ffffffffffffffff81111561113357611132610b94565b5b61113f848285016110d1565b91505092915050565b7f4e487b7100000000000000000000000000000000000000000000000000000000600052601160045260246000fd5b600061118282610bf7565b915061118d83610bf7565b92508282039050818111156111a5576111a4611148565b5b92915050565b7f4e487b7100000000000000000000000000000000000000000000000000000000600052603260045260246000fd5b60006111e582610bf7565b91507fffffffffffffffffffffffffffffffffffffffffffffffffffffffffffffffff820361121757611216611148565b5b600182019050919050565b7f4e487b7100000000000000000000000000000000000000000000000000000000600052602260045260246000fd5b6000600282049050600182168061126957607f821691505b60208210810361127c5761127b611222565b5b50919050565b7f4e487b7100000000000000000000000000000000000000000000000000000000600052603160045260246000fd5b600082825260208201905092915050565b7f5477656574204c656e6774682069732045786365656421000000000000000000600082015250565b60006112f86017836112b1565b9150611303826112c2565b602082019050919050565b60006020820190508181036000830152611327816112eb565b9050919050565b60008190508160005260206000209050919050565b60006020601f8301049050919050565b600082821b905092915050565b6000600883026113907fffffffffffffffffffffffffffffffffffffffffffffffffffffffffffffffff82611353565b61139a8683611353565b95508019841693508086168417925050509392505050565b6000819050919050565b60006113d76113d26113cd84610bf7565b6113b2565b610bf7565b9050919050565b6000819050919050565b6113f1836113bc565b6114056113fd826113de565b848454611360565b825550505050565b600090565b61141a61140d565b6114258184846113e8565b505050565b5b818110156114495761143e600082611412565b60018101905061142b565b5050565b601f82111561148e5761145f8161132e565b61146884611343565b81016020851015611477578190505b61148b61148385611343565b83018261142a565b50505b505050565b600082821c905092915050565b60006114b160001984600802611493565b1980831691505092915050565b60006114ca83836114a0565b9150826002028217905092915050565b6114e382610c6d565b67ffffffffffffffff8111156114fc576114fb610fd4565b5b6115068254611251565b61151182828561144d565b600060209050601f8311600181146115445760008415611532578287015190505b61153c85826114be565b8655506115a4565b601f1984166115528661132e565b60005b8281101561157a57848901518255600182019150602085019450602081019050611555565b868310156115975784890151611593601f8916826114a0565b8355505b6001600288020188555050505b50505050505056fea264697066735822122044a282d6c405996a68f0dfa3895145053b3653999fa27b181d5ef0db6e2363cc64736f6c63430008120033",
					"opcodes": "PUSH1 0x80 PUSH1 0x40 MSTORE CALLVALUE DUP1 ISZERO PUSH2 0x10 JUMPI PUSH1 0x0 DUP1 REVERT JUMPDEST POP PUSH2 0x15E2 DUP1 PUSH2 0x20 PUSH1 0x0 CODECOPY PUSH1 0x0 RETURN INVALID PUSH1 0x80 PUSH1 0x40 MSTORE CALLVALUE DUP1 ISZERO PUSH2 0x10 JUMPI PUSH1 0x0 DUP1 REVERT JUMPDEST POP PUSH1 0x4 CALLDATASIZE LT PUSH2 0x62 JUMPI PUSH1 0x0 CALLDATALOAD PUSH1 0xE0 SHR DUP1 PUSH4 0x362D52E EQ PUSH2 0x67 JUMPI DUP1 PUSH4 0x37F36A4C EQ PUSH2 0x83 JUMPI DUP1 PUSH4 0x42D7FBC0 EQ PUSH2 0xB3 JUMPI DUP1 PUSH4 0x71E7EB12 EQ PUSH2 0xD1 JUMPI DUP1 PUSH4 0x765FAB45 EQ PUSH2 0xDB JUMPI DUP1 PUSH4 0x7C9CD2BC EQ PUSH2 0xE5 JUMPI JUMPDEST PUSH1 0x0 DUP1 REVERT JUMPDEST PUSH2 0x81 PUSH1 0x4 DUP1 CALLDATASIZE SUB DUP2 ADD SWAP1 PUSH2 0x7C SWAP2 SWAP1 PUSH2 0xC2D JUMP JUMPDEST PUSH2 0x101 JUMP JUMPDEST STOP JUMPDEST PUSH2 0x9D PUSH1 0x4 DUP1 CALLDATASIZE SUB DUP2 ADD SWAP1 PUSH2 0x98 SWAP2 SWAP1 PUSH2 0xC2D JUMP JUMPDEST PUSH2 0x258 JUMP JUMPDEST PUSH1 0x40 MLOAD PUSH2 0xAA SWAP2 SWAP1 PUSH2 0xE47 JUMP JUMPDEST PUSH1 0x40 MLOAD DUP1 SWAP2 SUB SWAP1 RETURN JUMPDEST PUSH2 0xBB PUSH2 0x468 JUMP JUMPDEST PUSH1 0x40 MLOAD PUSH2 0xC8 SWAP2 SWAP1 PUSH2 0xFA8 JUMP JUMPDEST PUSH1 0x40 MLOAD DUP1 SWAP2 SUB SWAP1 RETURN JUMPDEST PUSH2 0xD9 PUSH2 0x68E JUMP JUMPDEST STOP JUMPDEST PUSH2 0xE3 PUSH2 0x74F JUMP JUMPDEST STOP JUMPDEST PUSH2 0xFF PUSH1 0x4 DUP1 CALLDATASIZE SUB DUP2 ADD SWAP1 PUSH2 0xFA SWAP2 SWAP1 PUSH2 0x10FF JUMP JUMPDEST PUSH2 0x79C JUMP JUMPDEST STOP JUMPDEST PUSH1 0x1 PUSH1 0x0 DUP4 PUSH20 0xFFFFFFFFFFFFFFFFFFFFFFFFFFFFFFFFFFFFFFFF AND PUSH20 0xFFFFFFFFFFFFFFFFFFFFFFFFFFFFFFFFFFFFFFFF AND DUP2 MSTORE PUSH1 0x20 ADD SWAP1 DUP2 MSTORE PUSH1 0x20 ADD PUSH1 0x0 KECCAK256 PUSH1 0x1 DUP3 PUSH2 0x14D SWAP2 SWAP1 PUSH2 0x1177 JUMP JUMPDEST DUP2 SLOAD DUP2 LT PUSH2 0x15E JUMPI PUSH2 0x15D PUSH2 0x11AB JUMP JUMPDEST JUMPDEST SWAP1 PUSH1 0x0 MSTORE PUSH1 0x20 PUSH1 0x0 KECCAK256 SWAP1 PUSH1 0x5 MUL ADD PUSH1 0x3 ADD CALLER SWAP1 DUP1 PUSH1 0x1 DUP2 SLOAD ADD DUP1 DUP3 SSTORE DUP1 SWAP2 POP POP PUSH1 0x1 SWAP1 SUB SWAP1 PUSH1 0x0 MSTORE PUSH1 0x20 PUSH1 0x0 KECCAK256 ADD PUSH1 0x0 SWAP1 SWAP2 SWAP1 SWAP2 SWAP1 SWAP2 PUSH2 0x100 EXP DUP2 SLOAD DUP2 PUSH20 0xFFFFFFFFFFFFFFFFFFFFFFFFFFFFFFFFFFFFFFFF MUL NOT AND SWAP1 DUP4 PUSH20 0xFFFFFFFFFFFFFFFFFFFFFFFFFFFFFFFFFFFFFFFF AND MUL OR SWAP1 SSTORE POP PUSH1 0x1 PUSH1 0x0 DUP4 PUSH20 0xFFFFFFFFFFFFFFFFFFFFFFFFFFFFFFFFFFFFFFFF AND PUSH20 0xFFFFFFFFFFFFFFFFFFFFFFFFFFFFFFFFFFFFFFFF AND DUP2 MSTORE PUSH1 0x20 ADD SWAP1 DUP2 MSTORE PUSH1 0x20 ADD PUSH1 0x0 KECCAK256 PUSH1 0x1 DUP3 PUSH2 0x21C SWAP2 SWAP1 PUSH2 0x1177 JUMP JUMPDEST DUP2 SLOAD DUP2 LT PUSH2 0x22D JUMPI PUSH2 0x22C PUSH2 0x11AB JUMP JUMPDEST JUMPDEST SWAP1 PUSH1 0x0 MSTORE PUSH1 0x20 PUSH1 0x0 KECCAK256 SWAP1 PUSH1 0x5 MUL ADD PUSH1 0x4 ADD PUSH1 0x0 DUP2 SLOAD DUP1 SWAP3 SWAP2 SWAP1 PUSH2 0x24F SWAP1 PUSH2 0x11DA JUMP JUMPDEST SWAP2 SWAP1 POP SSTORE POP POP POP JUMP JUMPDEST PUSH2 0x260 PUSH2 0x9A6 JUMP JUMPDEST PUSH1 0x1 PUSH1 0x0 DUP5 PUSH20 0xFFFFFFFFFFFFFFFFFFFFFFFFFFFFFFFFFFFFFFFF AND PUSH20 0xFFFFFFFFFFFFFFFFFFFFFFFFFFFFFFFFFFFFFFFF AND DUP2 MSTORE PUSH1 0x20 ADD SWAP1 DUP2 MSTORE PUSH1 0x20 ADD PUSH1 0x0 KECCAK256 PUSH1 0x1 DUP4 PUSH2 0x2AC SWAP2 SWAP1 PUSH2 0x1177 JUMP JUMPDEST DUP2 SLOAD DUP2 LT PUSH2 0x2BD JUMPI PUSH2 0x2BC PUSH2 0x11AB JUMP JUMPDEST JUMPDEST SWAP1 PUSH1 0x0 MSTORE PUSH1 0x20 PUSH1 0x0 KECCAK256 SWAP1 PUSH1 0x5 MUL ADD PUSH1 0x40 MLOAD DUP1 PUSH1 0xA0 ADD PUSH1 0x40 MSTORE SWAP1 DUP2 PUSH1 0x0 DUP3 ADD DUP1 SLOAD PUSH2 0x2E6 SWAP1 PUSH2 0x1251 JUMP JUMPDEST DUP1 PUSH1 0x1F ADD PUSH1 0x20 DUP1 SWAP2 DIV MUL PUSH1 0x20 ADD PUSH1 0x40 MLOAD SWAP1 DUP2 ADD PUSH1 0x40 MSTORE DUP1 SWAP3 SWAP2 SWAP1 DUP2 DUP2 MSTORE PUSH1 0x20 ADD DUP3 DUP1 SLOAD PUSH2 0x312 SWAP1 PUSH2 0x1251 JUMP JUMPDEST DUP1 ISZERO PUSH2 0x35F JUMPI DUP1 PUSH1 0x1F LT PUSH2 0x334 JUMPI PUSH2 0x100 DUP1 DUP4 SLOAD DIV MUL DUP4 MSTORE SWAP2 PUSH1 0x20 ADD SWAP2 PUSH2 0x35F JUMP JUMPDEST DUP3 ADD SWAP2 SWAP1 PUSH1 0x0 MSTORE PUSH1 0x20 PUSH1 0x0 KECCAK256 SWAP1 JUMPDEST DUP2 SLOAD DUP2 MSTORE SWAP1 PUSH1 0x1 ADD SWAP1 PUSH1 0x20 ADD DUP1 DUP4 GT PUSH2 0x342 JUMPI DUP3 SWAP1 SUB PUSH1 0x1F AND DUP3 ADD SWAP2 JUMPDEST POP POP POP POP POP DUP2 MSTORE PUSH1 0x20 ADD PUSH1 0x1 DUP3 ADD PUSH1 0x0 SWAP1 SLOAD SWAP1 PUSH2 0x100 EXP SWAP1 DIV PUSH20 0xFFFFFFFFFFFFFFFFFFFFFFFFFFFFFFFFFFFFFFFF AND PUSH20 0xFFFFFFFFFFFFFFFFFFFFFFFFFFFFFFFFFFFFFFFF AND PUSH20 0xFFFFFFFFFFFFFFFFFFFFFFFFFFFFFFFFFFFFFFFF AND DUP2 MSTORE PUSH1 0x20 ADD PUSH1 0x2 DUP3 ADD SLOAD DUP2 MSTORE PUSH1 0x20 ADD PUSH1 0x3 DUP3 ADD DUP1 SLOAD DUP1 PUSH1 0x20 MUL PUSH1 0x20 ADD PUSH1 0x40 MLOAD SWAP1 DUP2 ADD PUSH1 0x40 MSTORE DUP1 SWAP3 SWAP2 SWAP1 DUP2 DUP2 MSTORE PUSH1 0x20 ADD DUP3 DUP1 SLOAD DUP1 ISZERO PUSH2 0x44D JUMPI PUSH1 0x20 MUL DUP3 ADD SWAP2 SWAP1 PUSH1 0x0 MSTORE PUSH1 0x20 PUSH1 0x0 KECCAK256 SWAP1 JUMPDEST DUP2 PUSH1 0x0 SWAP1 SLOAD SWAP1 PUSH2 0x100 EXP SWAP1 DIV PUSH20 0xFFFFFFFFFFFFFFFFFFFFFFFFFFFFFFFFFFFFFFFF AND PUSH20 0xFFFFFFFFFFFFFFFFFFFFFFFFFFFFFFFFFFFFFFFF AND DUP2 MSTORE PUSH1 0x20 ADD SWAP1 PUSH1 0x1 ADD SWAP1 DUP1 DUP4 GT PUSH2 0x403 JUMPI JUMPDEST POP POP POP POP POP DUP2 MSTORE PUSH1 0x20 ADD PUSH1 0x4 DUP3 ADD SLOAD DUP2 MSTORE POP POP SWAP1 POP SWAP3 SWAP2 POP POP JUMP JUMPDEST PUSH1 0x60 PUSH1 0x1 PUSH1 0x0 CALLER PUSH20 0xFFFFFFFFFFFFFFFFFFFFFFFFFFFFFFFFFFFFFFFF AND PUSH20 0xFFFFFFFFFFFFFFFFFFFFFFFFFFFFFFFFFFFFFFFF AND DUP2 MSTORE PUSH1 0x20 ADD SWAP1 DUP2 MSTORE PUSH1 0x20 ADD PUSH1 0x0 KECCAK256 DUP1 SLOAD DUP1 PUSH1 0x20 MUL PUSH1 0x20 ADD PUSH1 0x40 MLOAD SWAP1 DUP2 ADD PUSH1 0x40 MSTORE DUP1 SWAP3 SWAP2 SWAP1 DUP2 DUP2 MSTORE PUSH1 0x20 ADD PUSH1 0x0 SWAP1 JUMPDEST DUP3 DUP3 LT ISZERO PUSH2 0x685 JUMPI DUP4 DUP3 SWAP1 PUSH1 0x0 MSTORE PUSH1 0x20 PUSH1 0x0 KECCAK256 SWAP1 PUSH1 0x5 MUL ADD PUSH1 0x40 MLOAD DUP1 PUSH1 0xA0 ADD PUSH1 0x40 MSTORE SWAP1 DUP2 PUSH1 0x0 DUP3 ADD DUP1 SLOAD PUSH2 0x4FC SWAP1 PUSH2 0x1251 JUMP JUMPDEST DUP1 PUSH1 0x1F ADD PUSH1 0x20 DUP1 SWAP2 DIV MUL PUSH1 0x20 ADD PUSH1 0x40 MLOAD SWAP1 DUP2 ADD PUSH1 0x40 MSTORE DUP1 SWAP3 SWAP2 SWAP1 DUP2 DUP2 MSTORE PUSH1 0x20 ADD DUP3 DUP1 SLOAD PUSH2 0x528 SWAP1 PUSH2 0x1251 JUMP JUMPDEST DUP1 ISZERO PUSH2 0x575 JUMPI DUP1 PUSH1 0x1F LT PUSH2 0x54A JUMPI PUSH2 0x100 DUP1 DUP4 SLOAD DIV MUL DUP4 MSTORE SWAP2 PUSH1 0x20 ADD SWAP2 PUSH2 0x575 JUMP JUMPDEST DUP3 ADD SWAP2 SWAP1 PUSH1 0x0 MSTORE PUSH1 0x20 PUSH1 0x0 KECCAK256 SWAP1 JUMPDEST DUP2 SLOAD DUP2 MSTORE SWAP1 PUSH1 0x1 ADD SWAP1 PUSH1 0x20 ADD DUP1 DUP4 GT PUSH2 0x558 JUMPI DUP3 SWAP1 SUB PUSH1 0x1F AND DUP3 ADD SWAP2 JUMPDEST POP POP POP POP POP DUP2 MSTORE PUSH1 0x20 ADD PUSH1 0x1 DUP3 ADD PUSH1 0x0 SWAP1 SLOAD SWAP1 PUSH2 0x100 EXP SWAP1 DIV PUSH20 0xFFFFFFFFFFFFFFFFFFFFFFFFFFFFFFFFFFFFFFFF AND PUSH20 0xFFFFFFFFFFFFFFFFFFFFFFFFFFFFFFFFFFFFFFFF AND PUSH20 0xFFFFFFFFFFFFFFFFFFFFFFFFFFFFFFFFFFFFFFFF AND DUP2 MSTORE PUSH1 0x20 ADD PUSH1 0x2 DUP3 ADD SLOAD DUP2 MSTORE PUSH1 0x20 ADD PUSH1 0x3 DUP3 ADD DUP1 SLOAD DUP1 PUSH1 0x20 MUL PUSH1 0x20 ADD PUSH1 0x40 MLOAD SWAP1 DUP2 ADD PUSH1 0x40 MSTORE DUP1 SWAP3 SWAP2 SWAP1 DUP2 DUP2 MSTORE PUSH1 0x20 ADD DUP3 DUP1 SLOAD DUP1 ISZERO PUSH2 0x663 JUMPI PUSH1 0x20 MUL DUP3 ADD SWAP2 SWAP1 PUSH1 0x0 MSTORE PUSH1 0x20 PUSH1 0x0 KECCAK256 SWAP1 JUMPDEST DUP2 PUSH1 0x0 SWAP1 SLOAD SWAP1 PUSH2 0x100 EXP SWAP1 DIV PUSH20 0xFFFFFFFFFFFFFFFFFFFFFFFFFFFFFFFFFFFFFFFF AND PUSH20 0xFFFFFFFFFFFFFFFFFFFFFFFFFFFFFFFFFFFFFFFF AND DUP2 MSTORE PUSH1 0x20 ADD SWAP1 PUSH1 0x1 ADD SWAP1 DUP1 DUP4 GT PUSH2 0x619 JUMPI JUMPDEST POP POP POP POP POP DUP2 MSTORE PUSH1 0x20 ADD PUSH1 0x4 DUP3 ADD SLOAD DUP2 MSTORE POP POP DUP2 MSTORE PUSH1 0x20 ADD SWAP1 PUSH1 0x1 ADD SWAP1 PUSH2 0x4C9 JUMP JUMPDEST POP POP POP POP SWAP1 POP SWAP1 JUMP JUMPDEST PUSH1 0x1 PUSH1 0x0 CALLER PUSH20 0xFFFFFFFFFFFFFFFFFFFFFFFFFFFFFFFFFFFFFFFF AND PUSH20 0xFFFFFFFFFFFFFFFFFFFFFFFFFFFFFFFFFFFFFFFF AND DUP2 MSTORE PUSH1 0x20 ADD SWAP1 DUP2 MSTORE PUSH1 0x20 ADD PUSH1 0x0 KECCAK256 DUP1 SLOAD DUP1 PUSH2 0x6DD JUMPI PUSH2 0x6DC PUSH2 0x1282 JUMP JUMPDEST JUMPDEST PUSH1 0x1 SWAP1 SUB DUP2 DUP2 SWAP1 PUSH1 0x0 MSTORE PUSH1 0x20 PUSH1 0x0 KECCAK256 SWAP1 PUSH1 0x5 MUL ADD PUSH1 0x0 DUP1 DUP3 ADD PUSH1 0x0 PUSH2 0x702 SWAP2 SWAP1 PUSH2 0x9EB JUMP JUMPDEST PUSH1 0x1 DUP3 ADD PUSH1 0x0 PUSH2 0x100 EXP DUP2 SLOAD SWAP1 PUSH20 0xFFFFFFFFFFFFFFFFFFFFFFFFFFFFFFFFFFFFFFFF MUL NOT AND SWAP1 SSTORE PUSH1 0x2 DUP3 ADD PUSH1 0x0 SWAP1 SSTORE PUSH1 0x3 DUP3 ADD PUSH1 0x0 PUSH2 0x741 SWAP2 SWAP1 PUSH2 0xA2B JUMP JUMPDEST PUSH1 0x4 DUP3 ADD PUSH1 0x0 SWAP1 SSTORE POP POP SWAP1 SSTORE JUMP JUMPDEST PUSH1 0x1 PUSH1 0x0 CALLER PUSH20 0xFFFFFFFFFFFFFFFFFFFFFFFFFFFFFFFFFFFFFFFF AND PUSH20 0xFFFFFFFFFFFFFFFFFFFFFFFFFFFFFFFFFFFFFFFF AND DUP2 MSTORE PUSH1 0x20 ADD SWAP1 DUP2 MSTORE PUSH1 0x20 ADD PUSH1 0x0 KECCAK256 PUSH1 0x0 PUSH2 0x79A SWAP2 SWAP1 PUSH2 0xA4C JUMP JUMPDEST JUMP JUMPDEST PUSH1 0xA DUP2 MLOAD GT ISZERO PUSH2 0x7E1 JUMPI PUSH1 0x40 MLOAD PUSH32 0x8C379A000000000000000000000000000000000000000000000000000000000 DUP2 MSTORE PUSH1 0x4 ADD PUSH2 0x7D8 SWAP1 PUSH2 0x130E JUMP JUMPDEST PUSH1 0x40 MLOAD DUP1 SWAP2 SUB SWAP1 REVERT JUMPDEST PUSH1 0x0 PUSH1 0x40 MLOAD DUP1 PUSH1 0xA0 ADD PUSH1 0x40 MSTORE DUP1 DUP4 DUP2 MSTORE PUSH1 0x20 ADD CALLER PUSH20 0xFFFFFFFFFFFFFFFFFFFFFFFFFFFFFFFFFFFFFFFF AND DUP2 MSTORE PUSH1 0x20 ADD TIMESTAMP DUP2 MSTORE PUSH1 0x20 ADD PUSH1 0x0 DUP1 SLOAD DUP1 PUSH1 0x20 MUL PUSH1 0x20 ADD PUSH1 0x40 MLOAD SWAP1 DUP2 ADD PUSH1 0x40 MSTORE DUP1 SWAP3 SWAP2 SWAP1 DUP2 DUP2 MSTORE PUSH1 0x20 ADD DUP3 DUP1 SLOAD DUP1 ISZERO PUSH2 0x898 JUMPI PUSH1 0x20 MUL DUP3 ADD SWAP2 SWAP1 PUSH1 0x0 MSTORE PUSH1 0x20 PUSH1 0x0 KECCAK256 SWAP1 JUMPDEST DUP2 PUSH1 0x0 SWAP1 SLOAD SWAP1 PUSH2 0x100 EXP SWAP1 DIV PUSH20 0xFFFFFFFFFFFFFFFFFFFFFFFFFFFFFFFFFFFFFFFF AND PUSH20 0xFFFFFFFFFFFFFFFFFFFFFFFFFFFFFFFFFFFFFFFF AND DUP2 MSTORE PUSH1 0x20 ADD SWAP1 PUSH1 0x1 ADD SWAP1 DUP1 DUP4 GT PUSH2 0x84E JUMPI JUMPDEST POP POP POP POP POP DUP2 MSTORE PUSH1 0x20 ADD PUSH1 0x0 DUP2 MSTORE POP SWAP1 POP PUSH1 0x1 PUSH1 0x0 CALLER PUSH20 0xFFFFFFFFFFFFFFFFFFFFFFFFFFFFFFFFFFFFFFFF AND PUSH20 0xFFFFFFFFFFFFFFFFFFFFFFFFFFFFFFFFFFFFFFFF AND DUP2 MSTORE PUSH1 0x20 ADD SWAP1 DUP2 MSTORE PUSH1 0x20 ADD PUSH1 0x0 KECCAK256 DUP2 SWAP1 DUP1 PUSH1 0x1 DUP2 SLOAD ADD DUP1 DUP3 SSTORE DUP1 SWAP2 POP POP PUSH1 0x1 SWAP1 SUB SWAP1 PUSH1 0x0 MSTORE PUSH1 0x20 PUSH1 0x0 KECCAK256 SWAP1 PUSH1 0x5 MUL ADD PUSH1 0x0 SWAP1 SWAP2 SWAP1 SWAP2 SWAP1 SWAP2 POP PUSH1 0x0 DUP3 ADD MLOAD DUP2 PUSH1 0x0 ADD SWAP1 DUP2 PUSH2 0x927 SWAP2 SWAP1 PUSH2 0x14DA JUMP JUMPDEST POP PUSH1 0x20 DUP3 ADD MLOAD DUP2 PUSH1 0x1 ADD PUSH1 0x0 PUSH2 0x100 EXP DUP2 SLOAD DUP2 PUSH20 0xFFFFFFFFFFFFFFFFFFFFFFFFFFFFFFFFFFFFFFFF MUL NOT AND SWAP1 DUP4 PUSH20 0xFFFFFFFFFFFFFFFFFFFFFFFFFFFFFFFFFFFFFFFF AND MUL OR SWAP1 SSTORE POP PUSH1 0x40 DUP3 ADD MLOAD DUP2 PUSH1 0x2 ADD SSTORE PUSH1 0x60 DUP3 ADD MLOAD DUP2 PUSH1 0x3 ADD SWAP1 DUP1 MLOAD SWAP1 PUSH1 0x20 ADD SWAP1 PUSH2 0x995 SWAP3 SWAP2 SWAP1 PUSH2 0xA70 JUMP JUMPDEST POP PUSH1 0x80 DUP3 ADD MLOAD DUP2 PUSH1 0x4 ADD SSTORE POP POP POP POP JUMP JUMPDEST PUSH1 0x40 MLOAD DUP1 PUSH1 0xA0 ADD PUSH1 0x40 MSTORE DUP1 PUSH1 0x60 DUP2 MSTORE PUSH1 0x20 ADD PUSH1 0x0 PUSH20 0xFFFFFFFFFFFFFFFFFFFFFFFFFFFFFFFFFFFFFFFF AND DUP2 MSTORE PUSH1 0x20 ADD PUSH1 0x0 DUP2 MSTORE PUSH1 0x20 ADD PUSH1 0x60 DUP2 MSTORE PUSH1 0x20 ADD PUSH1 0x0 DUP2 MSTORE POP SWAP1 JUMP JUMPDEST POP DUP1 SLOAD PUSH2 0x9F7 SWAP1 PUSH2 0x1251 JUMP JUMPDEST PUSH1 0x0 DUP3 SSTORE DUP1 PUSH1 0x1F LT PUSH2 0xA09 JUMPI POP PUSH2 0xA28 JUMP JUMPDEST PUSH1 0x1F ADD PUSH1 0x20 SWAP1 DIV SWAP1 PUSH1 0x0 MSTORE PUSH1 0x20 PUSH1 0x0 KECCAK256 SWAP1 DUP2 ADD SWAP1 PUSH2 0xA27 SWAP2 SWAP1 PUSH2 0xAFA JUMP JUMPDEST JUMPDEST POP JUMP JUMPDEST POP DUP1 SLOAD PUSH1 0x0 DUP3 SSTORE SWAP1 PUSH1 0x0 MSTORE PUSH1 0x20 PUSH1 0x0 KECCAK256 SWAP1 DUP2 ADD SWAP1 PUSH2 0xA49 SWAP2 SWAP1 PUSH2 0xAFA JUMP JUMPDEST POP JUMP JUMPDEST POP DUP1 SLOAD PUSH1 0x0 DUP3 SSTORE PUSH1 0x5 MUL SWAP1 PUSH1 0x0 MSTORE PUSH1 0x20 PUSH1 0x0 KECCAK256 SWAP1 DUP2 ADD SWAP1 PUSH2 0xA6D SWAP2 SWAP1 PUSH2 0xB17 JUMP JUMPDEST POP JUMP JUMPDEST DUP3 DUP1 SLOAD DUP3 DUP3 SSTORE SWAP1 PUSH1 0x0 MSTORE PUSH1 0x20 PUSH1 0x0 KECCAK256 SWAP1 DUP2 ADD SWAP3 DUP3 ISZERO PUSH2 0xAE9 JUMPI SWAP2 PUSH1 0x20 MUL DUP3 ADD JUMPDEST DUP3 DUP2 GT ISZERO PUSH2 0xAE8 JUMPI DUP3 MLOAD DUP3 PUSH1 0x0 PUSH2 0x100 EXP DUP2 SLOAD DUP2 PUSH20 0xFFFFFFFFFFFFFFFFFFFFFFFFFFFFFFFFFFFFFFFF MUL NOT AND SWAP1 DUP4 PUSH20 0xFFFFFFFFFFFFFFFFFFFFFFFFFFFFFFFFFFFFFFFF AND MUL OR SWAP1 SSTORE POP SWAP2 PUSH1 0x20 ADD SWAP2 SWAP1 PUSH1 0x1 ADD SWAP1 PUSH2 0xA90 JUMP JUMPDEST JUMPDEST POP SWAP1 POP PUSH2 0xAF6 SWAP2 SWAP1 PUSH2 0xAFA JUMP JUMPDEST POP SWAP1 JUMP JUMPDEST JUMPDEST DUP1 DUP3 GT ISZERO PUSH2 0xB13 JUMPI PUSH1 0x0 DUP2 PUSH1 0x0 SWAP1 SSTORE POP PUSH1 0x1 ADD PUSH2 0xAFB JUMP JUMPDEST POP SWAP1 JUMP JUMPDEST JUMPDEST DUP1 DUP3 GT ISZERO PUSH2 0xB81 JUMPI PUSH1 0x0 DUP1 DUP3 ADD PUSH1 0x0 PUSH2 0xB31 SWAP2 SWAP1 PUSH2 0x9EB JUMP JUMPDEST PUSH1 0x1 DUP3 ADD PUSH1 0x0 PUSH2 0x100 EXP DUP2 SLOAD SWAP1 PUSH20 0xFFFFFFFFFFFFFFFFFFFFFFFFFFFFFFFFFFFFFFFF MUL NOT AND SWAP1 SSTORE PUSH1 0x2 DUP3 ADD PUSH1 0x0 SWAP1 SSTORE PUSH1 0x3 DUP3 ADD PUSH1 0x0 PUSH2 0xB70 SWAP2 SWAP1 PUSH2 0xA2B JUMP JUMPDEST PUSH1 0x4 DUP3 ADD PUSH1 0x0 SWAP1 SSTORE POP PUSH1 0x5 ADD PUSH2 0xB18 JUMP JUMPDEST POP SWAP1 JUMP JUMPDEST PUSH1 0x0 PUSH1 0x40 MLOAD SWAP1 POP SWAP1 JUMP JUMPDEST PUSH1 0x0 DUP1 REVERT JUMPDEST PUSH1 0x0 DUP1 REVERT JUMPDEST PUSH1 0x0 PUSH20 0xFFFFFFFFFFFFFFFFFFFFFFFFFFFFFFFFFFFFFFFF DUP3 AND SWAP1 POP SWAP2 SWAP1 POP JUMP JUMPDEST PUSH1 0x0 PUSH2 0xBC4 DUP3 PUSH2 0xB99 JUMP JUMPDEST SWAP1 POP SWAP2 SWAP1 POP JUMP JUMPDEST PUSH2 0xBD4 DUP2 PUSH2 0xBB9 JUMP JUMPDEST DUP2 EQ PUSH2 0xBDF JUMPI PUSH1 0x0 DUP1 REVERT JUMPDEST POP JUMP JUMPDEST PUSH1 0x0 DUP2 CALLDATALOAD SWAP1 POP PUSH2 0xBF1 DUP2 PUSH2 0xBCB JUMP JUMPDEST SWAP3 SWAP2 POP POP JUMP JUMPDEST PUSH1 0x0 DUP2 SWAP1 POP SWAP2 SWAP1 POP JUMP JUMPDEST PUSH2 0xC0A DUP2 PUSH2 0xBF7 JUMP JUMPDEST DUP2 EQ PUSH2 0xC15 JUMPI PUSH1 0x0 DUP1 REVERT JUMPDEST POP JUMP JUMPDEST PUSH1 0x0 DUP2 CALLDATALOAD SWAP1 POP PUSH2 0xC27 DUP2 PUSH2 0xC01 JUMP JUMPDEST SWAP3 SWAP2 POP POP JUMP JUMPDEST PUSH1 0x0 DUP1 PUSH1 0x40 DUP4 DUP6 SUB SLT ISZERO PUSH2 0xC44 JUMPI PUSH2 0xC43 PUSH2 0xB8F JUMP JUMPDEST JUMPDEST PUSH1 0x0 PUSH2 0xC52 DUP6 DUP3 DUP7 ADD PUSH2 0xBE2 JUMP JUMPDEST SWAP3 POP POP PUSH1 0x20 PUSH2 0xC63 DUP6 DUP3 DUP7 ADD PUSH2 0xC18 JUMP JUMPDEST SWAP2 POP POP SWAP3 POP SWAP3 SWAP1 POP JUMP JUMPDEST PUSH1 0x0 DUP2 MLOAD SWAP1 POP SWAP2 SWAP1 POP JUMP JUMPDEST PUSH1 0x0 DUP3 DUP3 MSTORE PUSH1 0x20 DUP3 ADD SWAP1 POP SWAP3 SWAP2 POP POP JUMP JUMPDEST PUSH1 0x0 JUMPDEST DUP4 DUP2 LT ISZERO PUSH2 0xCA7 JUMPI DUP1 DUP3 ADD MLOAD DUP2 DUP5 ADD MSTORE PUSH1 0x20 DUP2 ADD SWAP1 POP PUSH2 0xC8C JUMP JUMPDEST PUSH1 0x0 DUP5 DUP5 ADD MSTORE POP POP POP POP JUMP JUMPDEST PUSH1 0x0 PUSH1 0x1F NOT PUSH1 0x1F DUP4 ADD AND SWAP1 POP SWAP2 SWAP1 POP JUMP JUMPDEST PUSH1 0x0 PUSH2 0xCCF DUP3 PUSH2 0xC6D JUMP JUMPDEST PUSH2 0xCD9 DUP2 DUP6 PUSH2 0xC78 JUMP JUMPDEST SWAP4 POP PUSH2 0xCE9 DUP2 DUP6 PUSH1 0x20 DUP7 ADD PUSH2 0xC89 JUMP JUMPDEST PUSH2 0xCF2 DUP2 PUSH2 0xCB3 JUMP JUMPDEST DUP5 ADD SWAP2 POP POP SWAP3 SWAP2 POP POP JUMP JUMPDEST PUSH2 0xD06 DUP2 PUSH2 0xBB9 JUMP JUMPDEST DUP3 MSTORE POP POP JUMP JUMPDEST PUSH2 0xD15 DUP2 PUSH2 0xBF7 JUMP JUMPDEST DUP3 MSTORE POP POP JUMP JUMPDEST PUSH1 0x0 DUP2 MLOAD SWAP1 POP SWAP2 SWAP1 POP JUMP JUMPDEST PUSH1 0x0 DUP3 DUP3 MSTORE PUSH1 0x20 DUP3 ADD SWAP1 POP SWAP3 SWAP2 POP POP JUMP JUMPDEST PUSH1 0x0 DUP2 SWAP1 POP PUSH1 0x20 DUP3 ADD SWAP1 POP SWAP2 SWAP1 POP JUMP JUMPDEST PUSH1 0x0 PUSH2 0xD53 DUP4 DUP4 PUSH2 0xCFD JUMP JUMPDEST PUSH1 0x20 DUP4 ADD SWAP1 POP SWAP3 SWAP2 POP POP JUMP JUMPDEST PUSH1 0x0 PUSH1 0x20 DUP3 ADD SWAP1 POP SWAP2 SWAP1 POP JUMP JUMPDEST PUSH1 0x0 PUSH2 0xD77 DUP3 PUSH2 0xD1B JUMP JUMPDEST PUSH2 0xD81 DUP2 DUP6 PUSH2 0xD26 JUMP JUMPDEST SWAP4 POP PUSH2 0xD8C DUP4 PUSH2 0xD37 JUMP JUMPDEST DUP1 PUSH1 0x0 JUMPDEST DUP4 DUP2 LT ISZERO PUSH2 0xDBD JUMPI DUP2 MLOAD PUSH2 0xDA4 DUP9 DUP3 PUSH2 0xD47 JUMP JUMPDEST SWAP8 POP PUSH2 0xDAF DUP4 PUSH2 0xD5F JUMP JUMPDEST SWAP3 POP POP PUSH1 0x1 DUP2 ADD SWAP1 POP PUSH2 0xD90 JUMP JUMPDEST POP DUP6 SWAP4 POP POP POP POP SWAP3 SWAP2 POP POP JUMP JUMPDEST PUSH1 0x0 PUSH1 0xA0 DUP4 ADD PUSH1 0x0 DUP4 ADD MLOAD DUP5 DUP3 SUB PUSH1 0x0 DUP7 ADD MSTORE PUSH2 0xDE7 DUP3 DUP3 PUSH2 0xCC4 JUMP JUMPDEST SWAP2 POP POP PUSH1 0x20 DUP4 ADD MLOAD PUSH2 0xDFC PUSH1 0x20 DUP7 ADD DUP3 PUSH2 0xCFD JUMP JUMPDEST POP PUSH1 0x40 DUP4 ADD MLOAD PUSH2 0xE0F PUSH1 0x40 DUP7 ADD DUP3 PUSH2 0xD0C JUMP JUMPDEST POP PUSH1 0x60 DUP4 ADD MLOAD DUP5 DUP3 SUB PUSH1 0x60 DUP7 ADD MSTORE PUSH2 0xE27 DUP3 DUP3 PUSH2 0xD6C JUMP JUMPDEST SWAP2 POP POP PUSH1 0x80 DUP4 ADD MLOAD PUSH2 0xE3C PUSH1 0x80 DUP7 ADD DUP3 PUSH2 0xD0C JUMP JUMPDEST POP DUP1 SWAP2 POP POP SWAP3 SWAP2 POP POP JUMP JUMPDEST PUSH1 0x0 PUSH1 0x20 DUP3 ADD SWAP1 POP DUP2 DUP2 SUB PUSH1 0x0 DUP4 ADD MSTORE PUSH2 0xE61 DUP2 DUP5 PUSH2 0xDCA JUMP JUMPDEST SWAP1 POP SWAP3 SWAP2 POP POP JUMP JUMPDEST PUSH1 0x0 DUP2 MLOAD SWAP1 POP SWAP2 SWAP1 POP JUMP JUMPDEST PUSH1 0x0 DUP3 DUP3 MSTORE PUSH1 0x20 DUP3 ADD SWAP1 POP SWAP3 SWAP2 POP POP JUMP JUMPDEST PUSH1 0x0 DUP2 SWAP1 POP PUSH1 0x20 DUP3 ADD SWAP1 POP SWAP2 SWAP1 POP JUMP JUMPDEST PUSH1 0x0 PUSH1 0xA0 DUP4 ADD PUSH1 0x0 DUP4 ADD MLOAD DUP5 DUP3 SUB PUSH1 0x0 DUP7 ADD MSTORE PUSH2 0xEB2 DUP3 DUP3 PUSH2 0xCC4 JUMP JUMPDEST SWAP2 POP POP PUSH1 0x20 DUP4 ADD MLOAD PUSH2 0xEC7 PUSH1 0x20 DUP7 ADD DUP3 PUSH2 0xCFD JUMP JUMPDEST POP PUSH1 0x40 DUP4 ADD MLOAD PUSH2 0xEDA PUSH1 0x40 DUP7 ADD DUP3 PUSH2 0xD0C JUMP JUMPDEST POP PUSH1 0x60 DUP4 ADD MLOAD DUP5 DUP3 SUB PUSH1 0x60 DUP7 ADD MSTORE PUSH2 0xEF2 DUP3 DUP3 PUSH2 0xD6C JUMP JUMPDEST SWAP2 POP POP PUSH1 0x80 DUP4 ADD MLOAD PUSH2 0xF07 PUSH1 0x80 DUP7 ADD DUP3 PUSH2 0xD0C JUMP JUMPDEST POP DUP1 SWAP2 POP POP SWAP3 SWAP2 POP POP JUMP JUMPDEST PUSH1 0x0 PUSH2 0xF1E DUP4 DUP4 PUSH2 0xE95 JUMP JUMPDEST SWAP1 POP SWAP3 SWAP2 POP POP JUMP JUMPDEST PUSH1 0x0 PUSH1 0x20 DUP3 ADD SWAP1 POP SWAP2 SWAP1 POP JUMP JUMPDEST PUSH1 0x0 PUSH2 0xF3E DUP3 PUSH2 0xE69 JUMP JUMPDEST PUSH2 0xF48 DUP2 DUP6 PUSH2 0xE74 JUMP JUMPDEST SWAP4 POP DUP4 PUSH1 0x20 DUP3 MUL DUP6 ADD PUSH2 0xF5A DUP6 PUSH2 0xE85 JUMP JUMPDEST DUP1 PUSH1 0x0 JUMPDEST DUP6 DUP2 LT ISZERO PUSH2 0xF96 JUMPI DUP5 DUP5 SUB DUP10 MSTORE DUP2 MLOAD PUSH2 0xF77 DUP6 DUP3 PUSH2 0xF12 JUMP JUMPDEST SWAP5 POP PUSH2 0xF82 DUP4 PUSH2 0xF26 JUMP JUMPDEST SWAP3 POP PUSH1 0x20 DUP11 ADD SWAP10 POP POP PUSH1 0x1 DUP2 ADD SWAP1 POP PUSH2 0xF5E JUMP JUMPDEST POP DUP3 SWAP8 POP DUP8 SWAP6 POP POP POP POP POP POP SWAP3 SWAP2 POP POP JUMP JUMPDEST PUSH1 0x0 PUSH1 0x20 DUP3 ADD SWAP1 POP DUP2 DUP2 SUB PUSH1 0x0 DUP4 ADD MSTORE PUSH2 0xFC2 DUP2 DUP5 PUSH2 0xF33 JUMP JUMPDEST SWAP1 POP SWAP3 SWAP2 POP POP JUMP JUMPDEST PUSH1 0x0 DUP1 REVERT JUMPDEST PUSH1 0x0 DUP1 REVERT JUMPDEST PUSH32 0x4E487B7100000000000000000000000000000000000000000000000000000000 PUSH1 0x0 MSTORE PUSH1 0x41 PUSH1 0x4 MSTORE PUSH1 0x24 PUSH1 0x0 REVERT JUMPDEST PUSH2 0x100C DUP3 PUSH2 0xCB3 JUMP JUMPDEST DUP2 ADD DUP2 DUP2 LT PUSH8 0xFFFFFFFFFFFFFFFF DUP3 GT OR ISZERO PUSH2 0x102B JUMPI PUSH2 0x102A PUSH2 0xFD4 JUMP JUMPDEST JUMPDEST DUP1 PUSH1 0x40 MSTORE POP POP POP JUMP JUMPDEST PUSH1 0x0 PUSH2 0x103E PUSH2 0xB85 JUMP JUMPDEST SWAP1 POP PUSH2 0x104A DUP3 DUP3 PUSH2 0x1003 JUMP JUMPDEST SWAP2 SWAP1 POP JUMP JUMPDEST PUSH1 0x0 PUSH8 0xFFFFFFFFFFFFFFFF DUP3 GT ISZERO PUSH2 0x106A JUMPI PUSH2 0x1069 PUSH2 0xFD4 JUMP JUMPDEST JUMPDEST PUSH2 0x1073 DUP3 PUSH2 0xCB3 JUMP JUMPDEST SWAP1 POP PUSH1 0x20 DUP2 ADD SWAP1 POP SWAP2 SWAP1 POP JUMP JUMPDEST DUP3 DUP2 DUP4 CALLDATACOPY PUSH1 0x0 DUP4 DUP4 ADD MSTORE POP POP POP JUMP JUMPDEST PUSH1 0x0 PUSH2 0x10A2 PUSH2 0x109D DUP5 PUSH2 0x104F JUMP JUMPDEST PUSH2 0x1034 JUMP JUMPDEST SWAP1 POP DUP3 DUP2 MSTORE PUSH1 0x20 DUP2 ADD DUP5 DUP5 DUP5 ADD GT ISZERO PUSH2 0x10BE JUMPI PUSH2 0x10BD PUSH2 0xFCF JUMP JUMPDEST JUMPDEST PUSH2 0x10C9 DUP5 DUP3 DUP6 PUSH2 0x1080 JUMP JUMPDEST POP SWAP4 SWAP3 POP POP POP JUMP JUMPDEST PUSH1 0x0 DUP3 PUSH1 0x1F DUP4 ADD SLT PUSH2 0x10E6 JUMPI PUSH2 0x10E5 PUSH2 0xFCA JUMP JUMPDEST JUMPDEST DUP2 CALLDATALOAD PUSH2 0x10F6 DUP5 DUP3 PUSH1 0x20 DUP7 ADD PUSH2 0x108F JUMP JUMPDEST SWAP2 POP POP SWAP3 SWAP2 POP POP JUMP JUMPDEST PUSH1 0x0 PUSH1 0x20 DUP3 DUP5 SUB SLT ISZERO PUSH2 0x1115 JUMPI PUSH2 0x1114 PUSH2 0xB8F JUMP JUMPDEST JUMPDEST PUSH1 0x0 DUP3 ADD CALLDATALOAD PUSH8 0xFFFFFFFFFFFFFFFF DUP2 GT ISZERO PUSH2 0x1133 JUMPI PUSH2 0x1132 PUSH2 0xB94 JUMP JUMPDEST JUMPDEST PUSH2 0x113F DUP5 DUP3 DUP6 ADD PUSH2 0x10D1 JUMP JUMPDEST SWAP2 POP POP SWAP3 SWAP2 POP POP JUMP JUMPDEST PUSH32 0x4E487B7100000000000000000000000000000000000000000000000000000000 PUSH1 0x0 MSTORE PUSH1 0x11 PUSH1 0x4 MSTORE PUSH1 0x24 PUSH1 0x0 REVERT JUMPDEST PUSH1 0x0 PUSH2 0x1182 DUP3 PUSH2 0xBF7 JUMP JUMPDEST SWAP2 POP PUSH2 0x118D DUP4 PUSH2 0xBF7 JUMP JUMPDEST SWAP3 POP DUP3 DUP3 SUB SWAP1 POP DUP2 DUP2 GT ISZERO PUSH2 0x11A5 JUMPI PUSH2 0x11A4 PUSH2 0x1148 JUMP JUMPDEST JUMPDEST SWAP3 SWAP2 POP POP JUMP JUMPDEST PUSH32 0x4E487B7100000000000000000000000000000000000000000000000000000000 PUSH1 0x0 MSTORE PUSH1 0x32 PUSH1 0x4 MSTORE PUSH1 0x24 PUSH1 0x0 REVERT JUMPDEST PUSH1 0x0 PUSH2 0x11E5 DUP3 PUSH2 0xBF7 JUMP JUMPDEST SWAP2 POP PUSH32 0xFFFFFFFFFFFFFFFFFFFFFFFFFFFFFFFFFFFFFFFFFFFFFFFFFFFFFFFFFFFFFFFF DUP3 SUB PUSH2 0x1217 JUMPI PUSH2 0x1216 PUSH2 0x1148 JUMP JUMPDEST JUMPDEST PUSH1 0x1 DUP3 ADD SWAP1 POP SWAP2 SWAP1 POP JUMP JUMPDEST PUSH32 0x4E487B7100000000000000000000000000000000000000000000000000000000 PUSH1 0x0 MSTORE PUSH1 0x22 PUSH1 0x4 MSTORE PUSH1 0x24 PUSH1 0x0 REVERT JUMPDEST PUSH1 0x0 PUSH1 0x2 DUP3 DIV SWAP1 POP PUSH1 0x1 DUP3 AND DUP1 PUSH2 0x1269 JUMPI PUSH1 0x7F DUP3 AND SWAP2 POP JUMPDEST PUSH1 0x20 DUP3 LT DUP2 SUB PUSH2 0x127C JUMPI PUSH2 0x127B PUSH2 0x1222 JUMP JUMPDEST JUMPDEST POP SWAP2 SWAP1 POP JUMP JUMPDEST PUSH32 0x4E487B7100000000000000000000000000000000000000000000000000000000 PUSH1 0x0 MSTORE PUSH1 0x31 PUSH1 0x4 MSTORE PUSH1 0x24 PUSH1 0x0 REVERT JUMPDEST PUSH1 0x0 DUP3 DUP3 MSTORE PUSH1 0x20 DUP3 ADD SWAP1 POP SWAP3 SWAP2 POP POP JUMP JUMPDEST PUSH32 0x5477656574204C656E6774682069732045786365656421000000000000000000 PUSH1 0x0 DUP3 ADD MSTORE POP JUMP JUMPDEST PUSH1 0x0 PUSH2 0x12F8 PUSH1 0x17 DUP4 PUSH2 0x12B1 JUMP JUMPDEST SWAP2 POP PUSH2 0x1303 DUP3 PUSH2 0x12C2 JUMP JUMPDEST PUSH1 0x20 DUP3 ADD SWAP1 POP SWAP2 SWAP1 POP JUMP JUMPDEST PUSH1 0x0 PUSH1 0x20 DUP3 ADD SWAP1 POP DUP2 DUP2 SUB PUSH1 0x0 DUP4 ADD MSTORE PUSH2 0x1327 DUP2 PUSH2 0x12EB JUMP JUMPDEST SWAP1 POP SWAP2 SWAP1 POP JUMP JUMPDEST PUSH1 0x0 DUP2 SWAP1 POP DUP2 PUSH1 0x0 MSTORE PUSH1 0x20 PUSH1 0x0 KECCAK256 SWAP1 POP SWAP2 SWAP1 POP JUMP JUMPDEST PUSH1 0x0 PUSH1 0x20 PUSH1 0x1F DUP4 ADD DIV SWAP1 POP SWAP2 SWAP1 POP JUMP JUMPDEST PUSH1 0x0 DUP3 DUP3 SHL SWAP1 POP SWAP3 SWAP2 POP POP JUMP JUMPDEST PUSH1 0x0 PUSH1 0x8 DUP4 MUL PUSH2 0x1390 PUSH32 0xFFFFFFFFFFFFFFFFFFFFFFFFFFFFFFFFFFFFFFFFFFFFFFFFFFFFFFFFFFFFFFFF DUP3 PUSH2 0x1353 JUMP JUMPDEST PUSH2 0x139A DUP7 DUP4 PUSH2 0x1353 JUMP JUMPDEST SWAP6 POP DUP1 NOT DUP5 AND SWAP4 POP DUP1 DUP7 AND DUP5 OR SWAP3 POP POP POP SWAP4 SWAP3 POP POP POP JUMP JUMPDEST PUSH1 0x0 DUP2 SWAP1 POP SWAP2 SWAP1 POP JUMP JUMPDEST PUSH1 0x0 PUSH2 0x13D7 PUSH2 0x13D2 PUSH2 0x13CD DUP5 PUSH2 0xBF7 JUMP JUMPDEST PUSH2 0x13B2 JUMP JUMPDEST PUSH2 0xBF7 JUMP JUMPDEST SWAP1 POP SWAP2 SWAP1 POP JUMP JUMPDEST PUSH1 0x0 DUP2 SWAP1 POP SWAP2 SWAP1 POP JUMP JUMPDEST PUSH2 0x13F1 DUP4 PUSH2 0x13BC JUMP JUMPDEST PUSH2 0x1405 PUSH2 0x13FD DUP3 PUSH2 0x13DE JUMP JUMPDEST DUP5 DUP5 SLOAD PUSH2 0x1360 JUMP JUMPDEST DUP3 SSTORE POP POP POP POP JUMP JUMPDEST PUSH1 0x0 SWAP1 JUMP JUMPDEST PUSH2 0x141A PUSH2 0x140D JUMP JUMPDEST PUSH2 0x1425 DUP2 DUP5 DUP5 PUSH2 0x13E8 JUMP JUMPDEST POP POP POP JUMP JUMPDEST JUMPDEST DUP2 DUP2 LT ISZERO PUSH2 0x1449 JUMPI PUSH2 0x143E PUSH1 0x0 DUP3 PUSH2 0x1412 JUMP JUMPDEST PUSH1 0x1 DUP2 ADD SWAP1 POP PUSH2 0x142B JUMP JUMPDEST POP POP JUMP JUMPDEST PUSH1 0x1F DUP3 GT ISZERO PUSH2 0x148E JUMPI PUSH2 0x145F DUP2 PUSH2 0x132E JUMP JUMPDEST PUSH2 0x1468 DUP5 PUSH2 0x1343 JUMP JUMPDEST DUP2 ADD PUSH1 0x20 DUP6 LT ISZERO PUSH2 0x1477 JUMPI DUP2 SWAP1 POP JUMPDEST PUSH2 0x148B PUSH2 0x1483 DUP6 PUSH2 0x1343 JUMP JUMPDEST DUP4 ADD DUP3 PUSH2 0x142A JUMP JUMPDEST POP POP JUMPDEST POP POP POP JUMP JUMPDEST PUSH1 0x0 DUP3 DUP3 SHR SWAP1 POP SWAP3 SWAP2 POP POP JUMP JUMPDEST PUSH1 0x0 PUSH2 0x14B1 PUSH1 0x0 NOT DUP5 PUSH1 0x8 MUL PUSH2 0x1493 JUMP JUMPDEST NOT DUP1 DUP4 AND SWAP2 POP POP SWAP3 SWAP2 POP POP JUMP JUMPDEST PUSH1 0x0 PUSH2 0x14CA DUP4 DUP4 PUSH2 0x14A0 JUMP JUMPDEST SWAP2 POP DUP3 PUSH1 0x2 MUL DUP3 OR SWAP1 POP SWAP3 SWAP2 POP POP JUMP JUMPDEST PUSH2 0x14E3 DUP3 PUSH2 0xC6D JUMP JUMPDEST PUSH8 0xFFFFFFFFFFFFFFFF DUP2 GT ISZERO PUSH2 0x14FC JUMPI PUSH2 0x14FB PUSH2 0xFD4 JUMP JUMPDEST JUMPDEST PUSH2 0x1506 DUP3 SLOAD PUSH2 0x1251 JUMP JUMPDEST PUSH2 0x1511 DUP3 DUP3 DUP6 PUSH2 0x144D JUMP JUMPDEST PUSH1 0x0 PUSH1 0x20 SWAP1 POP PUSH1 0x1F DUP4 GT PUSH1 0x1 DUP2 EQ PUSH2 0x1544 JUMPI PUSH1 0x0 DUP5 ISZERO PUSH2 0x1532 JUMPI DUP3 DUP8 ADD MLOAD SWAP1 POP JUMPDEST PUSH2 0x153C DUP6 DUP3 PUSH2 0x14BE JUMP JUMPDEST DUP7 SSTORE POP PUSH2 0x15A4 JUMP JUMPDEST PUSH1 0x1F NOT DUP5 AND PUSH2 0x1552 DUP7 PUSH2 0x132E JUMP JUMPDEST PUSH1 0x0 JUMPDEST DUP3 DUP2 LT ISZERO PUSH2 0x157A JUMPI DUP5 DUP10 ADD MLOAD DUP3 SSTORE PUSH1 0x1 DUP3 ADD SWAP2 POP PUSH1 0x20 DUP6 ADD SWAP5 POP PUSH1 0x20 DUP2 ADD SWAP1 POP PUSH2 0x1555 JUMP JUMPDEST DUP7 DUP4 LT ISZERO PUSH2 0x1597 JUMPI DUP5 DUP10 ADD MLOAD PUSH2 0x1593 PUSH1 0x1F DUP10 AND DUP3 PUSH2 0x14A0 JUMP JUMPDEST DUP4 SSTORE POP JUMPDEST PUSH1 0x1 PUSH1 0x2 DUP9 MUL ADD DUP9 SSTORE POP POP POP JUMPDEST POP POP POP POP POP POP JUMP INVALID LOG2 PUSH5 0x6970667358 0x22 SLT KECCAK256 PREVRANDAO LOG2 DUP3 0xD6 0xC4 SDIV SWAP10 PUSH11 0x68F0DFA3895145053B3653 SWAP10 SWAP16 LOG2 PUSH28 0x181D5EF0DB6E2363CC64736F6C634300081200330000000000000000 "
				},
				"gasEstimates": {
					"creation": {
						"codeDepositCost": "1120400",
						"executionCost": "1167",
						"totalCost": "1121567"
					},
					"external": {
						"DeleteAllTweets()": "infinite",
						"DeleteRecentTweet()": "infinite",
						"GetAllTweets()": "infinite",
						"GetTweet(address,uint256)": "infinite",
						"GiveLikes(address,uint256)": "infinite",
						"createTweet(string)": "infinite"
					}
				},
				"methodIdentifiers": {
					"DeleteAllTweets()": "765fab45",
					"DeleteRecentTweet()": "71e7eb12",
					"GetAllTweets()": "42d7fbc0",
					"GetTweet(address,uint256)": "37f36a4c",
					"GiveLikes(address,uint256)": "0362d52e",
					"createTweet(string)": "7c9cd2bc"
				}
			},
			"storageLayout": {
				"storage": [
					{
						"astId": 19,
						"contract": "contracts/Twitter0.3v.sol:Twitter",
						"label": "li",
						"offset": 0,
						"slot": "0",
						"type": "t_array(t_address)dyn_storage"
					},
					{
						"astId": 25,
						"contract": "contracts/Twitter0.3v.sol:Twitter",
						"label": "Tweet_info",
						"offset": 0,
						"slot": "1",
						"type": "t_mapping(t_address,t_array(t_struct(Tweet)13_storage)dyn_storage)"
					}
				],
				"types": {
					"t_address": {
						"encoding": "inplace",
						"label": "address",
						"numberOfBytes": "20"
					},
					"t_array(t_address)dyn_storage": {
						"base": "t_address",
						"encoding": "dynamic_array",
						"label": "address[]",
						"numberOfBytes": "32"
					},
					"t_array(t_struct(Tweet)13_storage)dyn_storage": {
						"base": "t_struct(Tweet)13_storage",
						"encoding": "dynamic_array",
						"label": "struct Twitter.Tweet[]",
						"numberOfBytes": "32"
					},
					"t_mapping(t_address,t_array(t_struct(Tweet)13_storage)dyn_storage)": {
						"encoding": "mapping",
						"key": "t_address",
						"label": "mapping(address => struct Twitter.Tweet[])",
						"numberOfBytes": "32",
						"value": "t_array(t_struct(Tweet)13_storage)dyn_storage"
					},
					"t_string_storage": {
						"encoding": "bytes",
						"label": "string",
						"numberOfBytes": "32"
					},
					"t_struct(Tweet)13_storage": {
						"encoding": "inplace",
						"label": "struct Twitter.Tweet",
						"members": [
							{
								"astId": 3,
								"contract": "contracts/Twitter0.3v.sol:Twitter",
								"label": "content",
								"offset": 0,
								"slot": "0",
								"type": "t_string_storage"
							},
							{
								"astId": 5,
								"contract": "contracts/Twitter0.3v.sol:Twitter",
								"label": "author",
								"offset": 0,
								"slot": "1",
								"type": "t_address"
							},
							{
								"astId": 7,
								"contract": "contracts/Twitter0.3v.sol:Twitter",
								"label": "timestamp",
								"offset": 0,
								"slot": "2",
								"type": "t_uint256"
							},
							{
								"astId": 10,
								"contract": "contracts/Twitter0.3v.sol:Twitter",
								"label": "likes",
								"offset": 0,
								"slot": "3",
								"type": "t_array(t_address)dyn_storage"
							},
							{
								"astId": 12,
								"contract": "contracts/Twitter0.3v.sol:Twitter",
								"label": "LikesCount",
								"offset": 0,
								"slot": "4",
								"type": "t_uint256"
							}
						],
						"numberOfBytes": "160"
					},
					"t_uint256": {
						"encoding": "inplace",
						"label": "uint256",
						"numberOfBytes": "32"
					}
				}
			},
			"userdoc": {
				"kind": "user",
				"methods": {},
				"version": 1
			}
		}
	}
}