{
	"contracts/Structure.sol": {
		"structure": {
			"abi": [
				{
					"inputs": [
						{
							"internalType": "string",
							"name": "name",
							"type": "string"
						},
						{
							"internalType": "uint8",
							"name": "Age",
							"type": "uint8"
						},
						{
							"internalType": "string",
							"name": "loc",
							"type": "string"
						}
					],
					"name": "AddStudent",
					"outputs": [],
					"stateMutability": "nonpayable",
					"type": "function"
				},
				{
					"inputs": [],
					"name": "DeleteMyData",
					"outputs": [],
					"stateMutability": "nonpayable",
					"type": "function"
				},
				{
					"inputs": [],
					"name": "ShowMyData",
					"outputs": [
						{
							"components": [
								{
									"internalType": "string",
									"name": "Name",
									"type": "string"
								},
								{
									"internalType": "address",
									"name": "Account",
									"type": "address"
								},
								{
									"internalType": "uint8",
									"name": "age",
									"type": "uint8"
								},
								{
									"internalType": "string",
									"name": "Location",
									"type": "string"
								}
							],
							"internalType": "struct structure.student",
							"name": "",
							"type": "tuple"
						}
					],
					"stateMutability": "view",
					"type": "function"
				}
			],
			"devdoc": {
				"kind": "dev",
				"methods": {},
				"version": 1
			},
			"evm": {
				"assembly": "    /* \"contracts/Structure.sol\":285:995  contract structure {... */\n  mstore(0x40, 0x80)\n  callvalue\n  dup1\n  iszero\n  tag_1\n  jumpi\n  0x00\n  dup1\n  revert\ntag_1:\n  pop\n  dataSize(sub_0)\n  dup1\n  dataOffset(sub_0)\n  0x00\n  codecopy\n  0x00\n  return\nstop\n\nsub_0: assembly {\n        /* \"contracts/Structure.sol\":285:995  contract structure {... */\n      mstore(0x40, 0x80)\n      callvalue\n      dup1\n      iszero\n      tag_1\n      jumpi\n      0x00\n      dup1\n      revert\n    tag_1:\n      pop\n      jumpi(tag_2, lt(calldatasize, 0x04))\n      shr(0xe0, calldataload(0x00))\n      dup1\n      0x0910677c\n      eq\n      tag_3\n      jumpi\n      dup1\n      0x8053b80b\n      eq\n      tag_4\n      jumpi\n      dup1\n      0xb9b11bd2\n      eq\n      tag_5\n      jumpi\n    tag_2:\n      0x00\n      dup1\n      revert\n        /* \"contracts/Structure.sol\":886:993  function ShowMyData() public view returns (student memory) {... */\n    tag_3:\n      tag_6\n      tag_7\n      jump\t// in\n    tag_6:\n      mload(0x40)\n      tag_8\n      swap2\n      swap1\n      tag_9\n      jump\t// in\n    tag_8:\n      mload(0x40)\n      dup1\n      swap2\n      sub\n      swap1\n      return\n        /* \"contracts/Structure.sol\":475:795  function AddStudent(... */\n    tag_4:\n      tag_10\n      0x04\n      dup1\n      calldatasize\n      sub\n      dup2\n      add\n      swap1\n      tag_11\n      swap2\n      swap1\n      tag_12\n      jump\t// in\n    tag_11:\n      tag_13\n      jump\t// in\n    tag_10:\n      stop\n        /* \"contracts/Structure.sol\":801:880  function DeleteMyData() public {... */\n    tag_5:\n      tag_14\n      tag_15\n      jump\t// in\n    tag_14:\n      stop\n        /* \"contracts/Structure.sol\":886:993  function ShowMyData() public view returns (student memory) {... */\n    tag_7:\n        /* \"contracts/Structure.sol\":929:943  student memory */\n      tag_16\n      tag_17\n      jump\t// in\n    tag_16:\n        /* \"contracts/Structure.sol\":962:974  Student_data */\n      0x00\n        /* \"contracts/Structure.sol\":962:986  Student_data[msg.sender] */\n      dup1\n        /* \"contracts/Structure.sol\":975:985  msg.sender */\n      caller\n        /* \"contracts/Structure.sol\":962:986  Student_data[msg.sender] */\n      0xffffffffffffffffffffffffffffffffffffffff\n      and\n      0xffffffffffffffffffffffffffffffffffffffff\n      and\n      dup2\n      mstore\n      0x20\n      add\n      swap1\n      dup2\n      mstore\n      0x20\n      add\n      0x00\n      keccak256\n        /* \"contracts/Structure.sol\":955:986  return Student_data[msg.sender] */\n      mload(0x40)\n      dup1\n      0x80\n      add\n      0x40\n      mstore\n      swap1\n      dup2\n      0x00\n      dup3\n      add\n      dup1\n      sload\n      tag_19\n      swap1\n      tag_20\n      jump\t// in\n    tag_19:\n      dup1\n      0x1f\n      add\n      0x20\n      dup1\n      swap2\n      div\n      mul\n      0x20\n      add\n      mload(0x40)\n      swap1\n      dup2\n      add\n      0x40\n      mstore\n      dup1\n      swap3\n      swap2\n      swap1\n      dup2\n      dup2\n      mstore\n      0x20\n      add\n      dup3\n      dup1\n      sload\n      tag_21\n      swap1\n      tag_20\n      jump\t// in\n    tag_21:\n      dup1\n      iszero\n      tag_22\n      jumpi\n      dup1\n      0x1f\n      lt\n      tag_23\n      jumpi\n      0x0100\n      dup1\n      dup4\n      sload\n      div\n      mul\n      dup4\n      mstore\n      swap2\n      0x20\n      add\n      swap2\n      jump(tag_22)\n    tag_23:\n      dup3\n      add\n      swap2\n      swap1\n      0x00\n      mstore\n      keccak256(0x00, 0x20)\n      swap1\n    tag_24:\n      dup2\n      sload\n      dup2\n      mstore\n      swap1\n      0x01\n      add\n      swap1\n      0x20\n      add\n      dup1\n      dup4\n      gt\n      tag_24\n      jumpi\n      dup3\n      swap1\n      sub\n      0x1f\n      and\n      dup3\n      add\n      swap2\n    tag_22:\n      pop\n      pop\n      pop\n      pop\n      pop\n      dup2\n      mstore\n      0x20\n      add\n      0x01\n      dup3\n      add\n      0x00\n      swap1\n      sload\n      swap1\n      0x0100\n      exp\n      swap1\n      div\n      0xffffffffffffffffffffffffffffffffffffffff\n      and\n      0xffffffffffffffffffffffffffffffffffffffff\n      and\n      0xffffffffffffffffffffffffffffffffffffffff\n      and\n      dup2\n      mstore\n      0x20\n      add\n      0x01\n      dup3\n      add\n      0x14\n      swap1\n      sload\n      swap1\n      0x0100\n      exp\n      swap1\n      div\n      0xff\n      and\n      0xff\n      and\n      0xff\n      and\n      dup2\n      mstore\n      0x20\n      add\n      0x02\n      dup3\n      add\n      dup1\n      sload\n      tag_25\n      swap1\n      tag_20\n      jump\t// in\n    tag_25:\n      dup1\n      0x1f\n      add\n      0x20\n      dup1\n      swap2\n      div\n      mul\n      0x20\n      add\n      mload(0x40)\n      swap1\n      dup2\n      add\n      0x40\n      mstore\n      dup1\n      swap3\n      swap2\n      swap1\n      dup2\n      dup2\n      mstore\n      0x20\n      add\n      dup3\n      dup1\n      sload\n      tag_26\n      swap1\n      tag_20\n      jump\t// in\n    tag_26:\n      dup1\n      iszero\n      tag_27\n      jumpi\n      dup1\n      0x1f\n      lt\n      tag_28\n      jumpi\n      0x0100\n      dup1\n      dup4\n      sload\n      div\n      mul\n      dup4\n      mstore\n      swap2\n      0x20\n      add\n      swap2\n      jump(tag_27)\n    tag_28:\n      dup3\n      add\n      swap2\n      swap1\n      0x00\n      mstore\n      keccak256(0x00, 0x20)\n      swap1\n    tag_29:\n      dup2\n      sload\n      dup2\n      mstore\n      swap1\n      0x01\n      add\n      swap1\n      0x20\n      add\n      dup1\n      dup4\n      gt\n      tag_29\n      jumpi\n      dup3\n      swap1\n      sub\n      0x1f\n      and\n      dup3\n      add\n      swap2\n    tag_27:\n      pop\n      pop\n      pop\n      pop\n      pop\n      dup2\n      mstore\n      pop\n      pop\n      swap1\n      pop\n        /* \"contracts/Structure.sol\":886:993  function ShowMyData() public view returns (student memory) {... */\n      swap1\n      jump\t// out\n        /* \"contracts/Structure.sol\":475:795  function AddStudent(... */\n    tag_13:\n        /* \"contracts/Structure.sol\":592:614  student memory NewStud */\n      0x00\n        /* \"contracts/Structure.sol\":617:743  student({... */\n      mload(0x40)\n      dup1\n      0x80\n      add\n      0x40\n      mstore\n      dup1\n        /* \"contracts/Structure.sol\":645:649  name */\n      dup6\n        /* \"contracts/Structure.sol\":617:743  student({... */\n      dup2\n      mstore\n      0x20\n      add\n        /* \"contracts/Structure.sol\":672:682  msg.sender */\n      caller\n        /* \"contracts/Structure.sol\":617:743  student({... */\n      0xffffffffffffffffffffffffffffffffffffffff\n      and\n      dup2\n      mstore\n      0x20\n      add\n        /* \"contracts/Structure.sol\":701:704  Age */\n      dup5\n        /* \"contracts/Structure.sol\":617:743  student({... */\n      0xff\n      and\n      dup2\n      mstore\n      0x20\n      add\n        /* \"contracts/Structure.sol\":729:732  loc */\n      dup4\n        /* \"contracts/Structure.sol\":617:743  student({... */\n      dup2\n      mstore\n      pop\n        /* \"contracts/Structure.sol\":592:743  student memory NewStud = student({... */\n      swap1\n      pop\n        /* \"contracts/Structure.sol\":781:788  NewStud */\n      dup1\n        /* \"contracts/Structure.sol\":754:766  Student_data */\n      0x00\n        /* \"contracts/Structure.sol\":754:778  Student_data[msg.sender] */\n      dup1\n        /* \"contracts/Structure.sol\":767:777  msg.sender */\n      caller\n        /* \"contracts/Structure.sol\":754:778  Student_data[msg.sender] */\n      0xffffffffffffffffffffffffffffffffffffffff\n      and\n      0xffffffffffffffffffffffffffffffffffffffff\n      and\n      dup2\n      mstore\n      0x20\n      add\n      swap1\n      dup2\n      mstore\n      0x20\n      add\n      0x00\n      keccak256\n        /* \"contracts/Structure.sol\":754:788  Student_data[msg.sender] = NewStud */\n      0x00\n      dup3\n      add\n      mload\n      dup2\n      0x00\n      add\n      swap1\n      dup2\n      tag_31\n      swap2\n      swap1\n      tag_32\n      jump\t// in\n    tag_31:\n      pop\n      0x20\n      dup3\n      add\n      mload\n      dup2\n      0x01\n      add\n      exp(0x0100, 0x00)\n      dup2\n      sload\n      dup2\n      0xffffffffffffffffffffffffffffffffffffffff\n      mul\n      not\n      and\n      swap1\n      dup4\n      0xffffffffffffffffffffffffffffffffffffffff\n      and\n      mul\n      or\n      swap1\n      sstore\n      pop\n      0x40\n      dup3\n      add\n      mload\n      dup2\n      0x01\n      add\n      exp(0x0100, 0x14)\n      dup2\n      sload\n      dup2\n      0xff\n      mul\n      not\n      and\n      swap1\n      dup4\n      0xff\n      and\n      mul\n      or\n      swap1\n      sstore\n      pop\n      0x60\n      dup3\n      add\n      mload\n      dup2\n      0x02\n      add\n      swap1\n      dup2\n      tag_33\n      swap2\n      swap1\n      tag_32\n      jump\t// in\n    tag_33:\n      pop\n      swap1\n      pop\n      pop\n        /* \"contracts/Structure.sol\":582:795  {... */\n      pop\n        /* \"contracts/Structure.sol\":475:795  function AddStudent(... */\n      pop\n      pop\n      pop\n      jump\t// out\n        /* \"contracts/Structure.sol\":801:880  function DeleteMyData() public {... */\n    tag_15:\n        /* \"contracts/Structure.sol\":849:861  Student_data */\n      0x00\n        /* \"contracts/Structure.sol\":849:873  Student_data[msg.sender] */\n      dup1\n        /* \"contracts/Structure.sol\":862:872  msg.sender */\n      caller\n        /* \"contracts/Structure.sol\":849:873  Student_data[msg.sender] */\n      0xffffffffffffffffffffffffffffffffffffffff\n      and\n      0xffffffffffffffffffffffffffffffffffffffff\n      and\n      dup2\n      mstore\n      0x20\n      add\n      swap1\n      dup2\n      mstore\n      0x20\n      add\n      0x00\n      keccak256\n      0x00\n        /* \"contracts/Structure.sol\":842:873  delete Student_data[msg.sender] */\n      dup1\n      dup3\n      add\n      0x00\n      tag_35\n      swap2\n      swap1\n      tag_36\n      jump\t// in\n    tag_35:\n      0x01\n      dup3\n      add\n      exp(0x0100, 0x00)\n      dup2\n      sload\n      swap1\n      0xffffffffffffffffffffffffffffffffffffffff\n      mul\n      not\n      and\n      swap1\n      sstore\n      0x01\n      dup3\n      add\n      exp(0x0100, 0x14)\n      dup2\n      sload\n      swap1\n      0xff\n      mul\n      not\n      and\n      swap1\n      sstore\n      0x02\n      dup3\n      add\n      0x00\n      tag_37\n      swap2\n      swap1\n      tag_36\n      jump\t// in\n    tag_37:\n      pop\n      pop\n        /* \"contracts/Structure.sol\":801:880  function DeleteMyData() public {... */\n      jump\t// out\n    tag_17:\n      mload(0x40)\n      dup1\n      0x80\n      add\n      0x40\n      mstore\n      dup1\n      0x60\n      dup2\n      mstore\n      0x20\n      add\n      and(0xffffffffffffffffffffffffffffffffffffffff, 0x00)\n      dup2\n      mstore\n      0x20\n      add\n      and(0xff, 0x00)\n      dup2\n      mstore\n      0x20\n      add\n      0x60\n      dup2\n      mstore\n      pop\n      swap1\n      jump\t// out\n    tag_36:\n      pop\n      dup1\n      sload\n      tag_38\n      swap1\n      tag_20\n      jump\t// in\n    tag_38:\n      0x00\n      dup3\n      sstore\n      dup1\n      0x1f\n      lt\n      tag_40\n      jumpi\n      pop\n      jump(tag_39)\n    tag_40:\n      0x1f\n      add\n      0x20\n      swap1\n      div\n      swap1\n      0x00\n      mstore\n      keccak256(0x00, 0x20)\n      swap1\n      dup2\n      add\n      swap1\n      tag_41\n      swap2\n      swap1\n      tag_42\n      jump\t// in\n    tag_41:\n    tag_39:\n      pop\n      jump\t// out\n    tag_42:\n    tag_43:\n      dup1\n      dup3\n      gt\n      iszero\n      tag_44\n      jumpi\n      0x00\n      dup2\n      0x00\n      swap1\n      sstore\n      pop\n      0x01\n      add\n      jump(tag_43)\n    tag_44:\n      pop\n      swap1\n      jump\t// out\n        /* \"#utility.yul\":7:106   */\n    tag_45:\n        /* \"#utility.yul\":59:65   */\n      0x00\n        /* \"#utility.yul\":93:98   */\n      dup2\n        /* \"#utility.yul\":87:99   */\n      mload\n        /* \"#utility.yul\":77:99   */\n      swap1\n      pop\n        /* \"#utility.yul\":7:106   */\n      swap2\n      swap1\n      pop\n      jump\t// out\n        /* \"#utility.yul\":112:271   */\n    tag_46:\n        /* \"#utility.yul\":186:197   */\n      0x00\n        /* \"#utility.yul\":220:226   */\n      dup3\n        /* \"#utility.yul\":215:218   */\n      dup3\n        /* \"#utility.yul\":208:227   */\n      mstore\n        /* \"#utility.yul\":260:264   */\n      0x20\n        /* \"#utility.yul\":255:258   */\n      dup3\n        /* \"#utility.yul\":251:265   */\n      add\n        /* \"#utility.yul\":236:265   */\n      swap1\n      pop\n        /* \"#utility.yul\":112:271   */\n      swap3\n      swap2\n      pop\n      pop\n      jump\t// out\n        /* \"#utility.yul\":277:523   */\n    tag_47:\n        /* \"#utility.yul\":358:359   */\n      0x00\n        /* \"#utility.yul\":368:481   */\n    tag_91:\n        /* \"#utility.yul\":382:388   */\n      dup4\n        /* \"#utility.yul\":379:380   */\n      dup2\n        /* \"#utility.yul\":376:389   */\n      lt\n        /* \"#utility.yul\":368:481   */\n      iszero\n      tag_93\n      jumpi\n        /* \"#utility.yul\":467:468   */\n      dup1\n        /* \"#utility.yul\":462:465   */\n      dup3\n        /* \"#utility.yul\":458:469   */\n      add\n        /* \"#utility.yul\":452:470   */\n      mload\n        /* \"#utility.yul\":448:449   */\n      dup2\n        /* \"#utility.yul\":443:446   */\n      dup5\n        /* \"#utility.yul\":439:450   */\n      add\n        /* \"#utility.yul\":432:471   */\n      mstore\n        /* \"#utility.yul\":404:406   */\n      0x20\n        /* \"#utility.yul\":401:402   */\n      dup2\n        /* \"#utility.yul\":397:407   */\n      add\n        /* \"#utility.yul\":392:407   */\n      swap1\n      pop\n        /* \"#utility.yul\":368:481   */\n      jump(tag_91)\n    tag_93:\n        /* \"#utility.yul\":515:516   */\n      0x00\n        /* \"#utility.yul\":506:512   */\n      dup5\n        /* \"#utility.yul\":501:504   */\n      dup5\n        /* \"#utility.yul\":497:513   */\n      add\n        /* \"#utility.yul\":490:517   */\n      mstore\n        /* \"#utility.yul\":339:523   */\n      pop\n        /* \"#utility.yul\":277:523   */\n      pop\n      pop\n      pop\n      jump\t// out\n        /* \"#utility.yul\":529:631   */\n    tag_48:\n        /* \"#utility.yul\":570:576   */\n      0x00\n        /* \"#utility.yul\":621:623   */\n      0x1f\n        /* \"#utility.yul\":617:624   */\n      not\n        /* \"#utility.yul\":612:614   */\n      0x1f\n        /* \"#utility.yul\":605:610   */\n      dup4\n        /* \"#utility.yul\":601:615   */\n      add\n        /* \"#utility.yul\":597:625   */\n      and\n        /* \"#utility.yul\":587:625   */\n      swap1\n      pop\n        /* \"#utility.yul\":529:631   */\n      swap2\n      swap1\n      pop\n      jump\t// out\n        /* \"#utility.yul\":637:994   */\n    tag_49:\n        /* \"#utility.yul\":715:718   */\n      0x00\n        /* \"#utility.yul\":743:782   */\n      tag_96\n        /* \"#utility.yul\":776:781   */\n      dup3\n        /* \"#utility.yul\":743:782   */\n      tag_45\n      jump\t// in\n    tag_96:\n        /* \"#utility.yul\":798:859   */\n      tag_97\n        /* \"#utility.yul\":852:858   */\n      dup2\n        /* \"#utility.yul\":847:850   */\n      dup6\n        /* \"#utility.yul\":798:859   */\n      tag_46\n      jump\t// in\n    tag_97:\n        /* \"#utility.yul\":791:859   */\n      swap4\n      pop\n        /* \"#utility.yul\":868:933   */\n      tag_98\n        /* \"#utility.yul\":926:932   */\n      dup2\n        /* \"#utility.yul\":921:924   */\n      dup6\n        /* \"#utility.yul\":914:918   */\n      0x20\n        /* \"#utility.yul\":907:912   */\n      dup7\n        /* \"#utility.yul\":903:919   */\n      add\n        /* \"#utility.yul\":868:933   */\n      tag_47\n      jump\t// in\n    tag_98:\n        /* \"#utility.yul\":958:987   */\n      tag_99\n        /* \"#utility.yul\":980:986   */\n      dup2\n        /* \"#utility.yul\":958:987   */\n      tag_48\n      jump\t// in\n    tag_99:\n        /* \"#utility.yul\":953:956   */\n      dup5\n        /* \"#utility.yul\":949:988   */\n      add\n        /* \"#utility.yul\":942:988   */\n      swap2\n      pop\n        /* \"#utility.yul\":719:994   */\n      pop\n        /* \"#utility.yul\":637:994   */\n      swap3\n      swap2\n      pop\n      pop\n      jump\t// out\n        /* \"#utility.yul\":1000:1126   */\n    tag_50:\n        /* \"#utility.yul\":1037:1044   */\n      0x00\n        /* \"#utility.yul\":1077:1119   */\n      0xffffffffffffffffffffffffffffffffffffffff\n        /* \"#utility.yul\":1070:1075   */\n      dup3\n        /* \"#utility.yul\":1066:1120   */\n      and\n        /* \"#utility.yul\":1055:1120   */\n      swap1\n      pop\n        /* \"#utility.yul\":1000:1126   */\n      swap2\n      swap1\n      pop\n      jump\t// out\n        /* \"#utility.yul\":1132:1228   */\n    tag_51:\n        /* \"#utility.yul\":1169:1176   */\n      0x00\n        /* \"#utility.yul\":1198:1222   */\n      tag_102\n        /* \"#utility.yul\":1216:1221   */\n      dup3\n        /* \"#utility.yul\":1198:1222   */\n      tag_50\n      jump\t// in\n    tag_102:\n        /* \"#utility.yul\":1187:1222   */\n      swap1\n      pop\n        /* \"#utility.yul\":1132:1228   */\n      swap2\n      swap1\n      pop\n      jump\t// out\n        /* \"#utility.yul\":1234:1342   */\n    tag_52:\n        /* \"#utility.yul\":1311:1335   */\n      tag_104\n        /* \"#utility.yul\":1329:1334   */\n      dup2\n        /* \"#utility.yul\":1311:1335   */\n      tag_51\n      jump\t// in\n    tag_104:\n        /* \"#utility.yul\":1306:1309   */\n      dup3\n        /* \"#utility.yul\":1299:1336   */\n      mstore\n        /* \"#utility.yul\":1234:1342   */\n      pop\n      pop\n      jump\t// out\n        /* \"#utility.yul\":1348:1434   */\n    tag_53:\n        /* \"#utility.yul\":1383:1390   */\n      0x00\n        /* \"#utility.yul\":1423:1427   */\n      0xff\n        /* \"#utility.yul\":1416:1421   */\n      dup3\n        /* \"#utility.yul\":1412:1428   */\n      and\n        /* \"#utility.yul\":1401:1428   */\n      swap1\n      pop\n        /* \"#utility.yul\":1348:1434   */\n      swap2\n      swap1\n      pop\n      jump\t// out\n        /* \"#utility.yul\":1440:1542   */\n    tag_54:\n        /* \"#utility.yul\":1513:1535   */\n      tag_107\n        /* \"#utility.yul\":1529:1534   */\n      dup2\n        /* \"#utility.yul\":1513:1535   */\n      tag_53\n      jump\t// in\n    tag_107:\n        /* \"#utility.yul\":1508:1511   */\n      dup3\n        /* \"#utility.yul\":1501:1536   */\n      mstore\n        /* \"#utility.yul\":1440:1542   */\n      pop\n      pop\n      jump\t// out\n        /* \"#utility.yul\":1608:2631   */\n    tag_55:\n        /* \"#utility.yul\":1723:1726   */\n      0x00\n        /* \"#utility.yul\":1759:1763   */\n      0x80\n        /* \"#utility.yul\":1754:1757   */\n      dup4\n        /* \"#utility.yul\":1750:1764   */\n      add\n        /* \"#utility.yul\":1846:1850   */\n      0x00\n        /* \"#utility.yul\":1839:1844   */\n      dup4\n        /* \"#utility.yul\":1835:1851   */\n      add\n        /* \"#utility.yul\":1829:1852   */\n      mload\n        /* \"#utility.yul\":1899:1902   */\n      dup5\n        /* \"#utility.yul\":1893:1897   */\n      dup3\n        /* \"#utility.yul\":1889:1903   */\n      sub\n        /* \"#utility.yul\":1882:1886   */\n      0x00\n        /* \"#utility.yul\":1877:1880   */\n      dup7\n        /* \"#utility.yul\":1873:1887   */\n      add\n        /* \"#utility.yul\":1866:1904   */\n      mstore\n        /* \"#utility.yul\":1925:1998   */\n      tag_109\n        /* \"#utility.yul\":1993:1997   */\n      dup3\n        /* \"#utility.yul\":1979:1991   */\n      dup3\n        /* \"#utility.yul\":1925:1998   */\n      tag_49\n      jump\t// in\n    tag_109:\n        /* \"#utility.yul\":1917:1998   */\n      swap2\n      pop\n        /* \"#utility.yul\":1774:2009   */\n      pop\n        /* \"#utility.yul\":2094:2098   */\n      0x20\n        /* \"#utility.yul\":2087:2092   */\n      dup4\n        /* \"#utility.yul\":2083:2099   */\n      add\n        /* \"#utility.yul\":2077:2100   */\n      mload\n        /* \"#utility.yul\":2113:2176   */\n      tag_110\n        /* \"#utility.yul\":2170:2174   */\n      0x20\n        /* \"#utility.yul\":2165:2168   */\n      dup7\n        /* \"#utility.yul\":2161:2175   */\n      add\n        /* \"#utility.yul\":2147:2159   */\n      dup3\n        /* \"#utility.yul\":2113:2176   */\n      tag_52\n      jump\t// in\n    tag_110:\n        /* \"#utility.yul\":2019:2186   */\n      pop\n        /* \"#utility.yul\":2267:2271   */\n      0x40\n        /* \"#utility.yul\":2260:2265   */\n      dup4\n        /* \"#utility.yul\":2256:2272   */\n      add\n        /* \"#utility.yul\":2250:2273   */\n      mload\n        /* \"#utility.yul\":2286:2345   */\n      tag_111\n        /* \"#utility.yul\":2339:2343   */\n      0x40\n        /* \"#utility.yul\":2334:2337   */\n      dup7\n        /* \"#utility.yul\":2330:2344   */\n      add\n        /* \"#utility.yul\":2316:2328   */\n      dup3\n        /* \"#utility.yul\":2286:2345   */\n      tag_54\n      jump\t// in\n    tag_111:\n        /* \"#utility.yul\":2196:2355   */\n      pop\n        /* \"#utility.yul\":2441:2445   */\n      0x60\n        /* \"#utility.yul\":2434:2439   */\n      dup4\n        /* \"#utility.yul\":2430:2446   */\n      add\n        /* \"#utility.yul\":2424:2447   */\n      mload\n        /* \"#utility.yul\":2494:2497   */\n      dup5\n        /* \"#utility.yul\":2488:2492   */\n      dup3\n        /* \"#utility.yul\":2484:2498   */\n      sub\n        /* \"#utility.yul\":2477:2481   */\n      0x60\n        /* \"#utility.yul\":2472:2475   */\n      dup7\n        /* \"#utility.yul\":2468:2482   */\n      add\n        /* \"#utility.yul\":2461:2499   */\n      mstore\n        /* \"#utility.yul\":2520:2593   */\n      tag_112\n        /* \"#utility.yul\":2588:2592   */\n      dup3\n        /* \"#utility.yul\":2574:2586   */\n      dup3\n        /* \"#utility.yul\":2520:2593   */\n      tag_49\n      jump\t// in\n    tag_112:\n        /* \"#utility.yul\":2512:2593   */\n      swap2\n      pop\n        /* \"#utility.yul\":2365:2604   */\n      pop\n        /* \"#utility.yul\":2621:2625   */\n      dup1\n        /* \"#utility.yul\":2614:2625   */\n      swap2\n      pop\n        /* \"#utility.yul\":1728:2631   */\n      pop\n        /* \"#utility.yul\":1608:2631   */\n      swap3\n      swap2\n      pop\n      pop\n      jump\t// out\n        /* \"#utility.yul\":2637:3002   */\n    tag_9:\n        /* \"#utility.yul\":2776:2780   */\n      0x00\n        /* \"#utility.yul\":2814:2816   */\n      0x20\n        /* \"#utility.yul\":2803:2812   */\n      dup3\n        /* \"#utility.yul\":2799:2817   */\n      add\n        /* \"#utility.yul\":2791:2817   */\n      swap1\n      pop\n        /* \"#utility.yul\":2863:2872   */\n      dup2\n        /* \"#utility.yul\":2857:2861   */\n      dup2\n        /* \"#utility.yul\":2853:2873   */\n      sub\n        /* \"#utility.yul\":2849:2850   */\n      0x00\n        /* \"#utility.yul\":2838:2847   */\n      dup4\n        /* \"#utility.yul\":2834:2851   */\n      add\n        /* \"#utility.yul\":2827:2874   */\n      mstore\n        /* \"#utility.yul\":2891:2995   */\n      tag_114\n        /* \"#utility.yul\":2990:2994   */\n      dup2\n        /* \"#utility.yul\":2981:2987   */\n      dup5\n        /* \"#utility.yul\":2891:2995   */\n      tag_55\n      jump\t// in\n    tag_114:\n        /* \"#utility.yul\":2883:2995   */\n      swap1\n      pop\n        /* \"#utility.yul\":2637:3002   */\n      swap3\n      swap2\n      pop\n      pop\n      jump\t// out\n        /* \"#utility.yul\":3008:3083   */\n    tag_56:\n        /* \"#utility.yul\":3041:3047   */\n      0x00\n        /* \"#utility.yul\":3074:3076   */\n      0x40\n        /* \"#utility.yul\":3068:3077   */\n      mload\n        /* \"#utility.yul\":3058:3077   */\n      swap1\n      pop\n        /* \"#utility.yul\":3008:3083   */\n      swap1\n      jump\t// out\n        /* \"#utility.yul\":3089:3206   */\n    tag_57:\n        /* \"#utility.yul\":3198:3199   */\n      0x00\n        /* \"#utility.yul\":3195:3196   */\n      dup1\n        /* \"#utility.yul\":3188:3200   */\n      revert\n        /* \"#utility.yul\":3212:3329   */\n    tag_58:\n        /* \"#utility.yul\":3321:3322   */\n      0x00\n        /* \"#utility.yul\":3318:3319   */\n      dup1\n        /* \"#utility.yul\":3311:3323   */\n      revert\n        /* \"#utility.yul\":3335:3452   */\n    tag_59:\n        /* \"#utility.yul\":3444:3445   */\n      0x00\n        /* \"#utility.yul\":3441:3442   */\n      dup1\n        /* \"#utility.yul\":3434:3446   */\n      revert\n        /* \"#utility.yul\":3458:3575   */\n    tag_60:\n        /* \"#utility.yul\":3567:3568   */\n      0x00\n        /* \"#utility.yul\":3564:3565   */\n      dup1\n        /* \"#utility.yul\":3557:3569   */\n      revert\n        /* \"#utility.yul\":3581:3761   */\n    tag_61:\n        /* \"#utility.yul\":3629:3706   */\n      0x4e487b7100000000000000000000000000000000000000000000000000000000\n        /* \"#utility.yul\":3626:3627   */\n      0x00\n        /* \"#utility.yul\":3619:3707   */\n      mstore\n        /* \"#utility.yul\":3726:3730   */\n      0x41\n        /* \"#utility.yul\":3723:3724   */\n      0x04\n        /* \"#utility.yul\":3716:3731   */\n      mstore\n        /* \"#utility.yul\":3750:3754   */\n      0x24\n        /* \"#utility.yul\":3747:3748   */\n      0x00\n        /* \"#utility.yul\":3740:3755   */\n      revert\n        /* \"#utility.yul\":3767:4048   */\n    tag_62:\n        /* \"#utility.yul\":3850:3877   */\n      tag_122\n        /* \"#utility.yul\":3872:3876   */\n      dup3\n        /* \"#utility.yul\":3850:3877   */\n      tag_48\n      jump\t// in\n    tag_122:\n        /* \"#utility.yul\":3842:3848   */\n      dup2\n        /* \"#utility.yul\":3838:3878   */\n      add\n        /* \"#utility.yul\":3980:3986   */\n      dup2\n        /* \"#utility.yul\":3968:3978   */\n      dup2\n        /* \"#utility.yul\":3965:3987   */\n      lt\n        /* \"#utility.yul\":3944:3962   */\n      0xffffffffffffffff\n        /* \"#utility.yul\":3932:3942   */\n      dup3\n        /* \"#utility.yul\":3929:3963   */\n      gt\n        /* \"#utility.yul\":3926:3988   */\n      or\n        /* \"#utility.yul\":3923:4011   */\n      iszero\n      tag_123\n      jumpi\n        /* \"#utility.yul\":3991:4009   */\n      tag_124\n      tag_61\n      jump\t// in\n    tag_124:\n        /* \"#utility.yul\":3923:4011   */\n    tag_123:\n        /* \"#utility.yul\":4031:4041   */\n      dup1\n        /* \"#utility.yul\":4027:4029   */\n      0x40\n        /* \"#utility.yul\":4020:4042   */\n      mstore\n        /* \"#utility.yul\":3810:4048   */\n      pop\n        /* \"#utility.yul\":3767:4048   */\n      pop\n      pop\n      jump\t// out\n        /* \"#utility.yul\":4054:4183   */\n    tag_63:\n        /* \"#utility.yul\":4088:4094   */\n      0x00\n        /* \"#utility.yul\":4115:4135   */\n      tag_126\n      tag_56\n      jump\t// in\n    tag_126:\n        /* \"#utility.yul\":4105:4135   */\n      swap1\n      pop\n        /* \"#utility.yul\":4144:4177   */\n      tag_127\n        /* \"#utility.yul\":4172:4176   */\n      dup3\n        /* \"#utility.yul\":4164:4170   */\n      dup3\n        /* \"#utility.yul\":4144:4177   */\n      tag_62\n      jump\t// in\n    tag_127:\n        /* \"#utility.yul\":4054:4183   */\n      swap2\n      swap1\n      pop\n      jump\t// out\n        /* \"#utility.yul\":4189:4497   */\n    tag_64:\n        /* \"#utility.yul\":4251:4255   */\n      0x00\n        /* \"#utility.yul\":4341:4359   */\n      0xffffffffffffffff\n        /* \"#utility.yul\":4333:4339   */\n      dup3\n        /* \"#utility.yul\":4330:4360   */\n      gt\n        /* \"#utility.yul\":4327:4383   */\n      iszero\n      tag_129\n      jumpi\n        /* \"#utility.yul\":4363:4381   */\n      tag_130\n      tag_61\n      jump\t// in\n    tag_130:\n        /* \"#utility.yul\":4327:4383   */\n    tag_129:\n        /* \"#utility.yul\":4401:4430   */\n      tag_131\n        /* \"#utility.yul\":4423:4429   */\n      dup3\n        /* \"#utility.yul\":4401:4430   */\n      tag_48\n      jump\t// in\n    tag_131:\n        /* \"#utility.yul\":4393:4430   */\n      swap1\n      pop\n        /* \"#utility.yul\":4485:4489   */\n      0x20\n        /* \"#utility.yul\":4479:4483   */\n      dup2\n        /* \"#utility.yul\":4475:4490   */\n      add\n        /* \"#utility.yul\":4467:4490   */\n      swap1\n      pop\n        /* \"#utility.yul\":4189:4497   */\n      swap2\n      swap1\n      pop\n      jump\t// out\n        /* \"#utility.yul\":4503:4649   */\n    tag_65:\n        /* \"#utility.yul\":4600:4606   */\n      dup3\n        /* \"#utility.yul\":4595:4598   */\n      dup2\n        /* \"#utility.yul\":4590:4593   */\n      dup4\n        /* \"#utility.yul\":4577:4607   */\n      calldatacopy\n        /* \"#utility.yul\":4641:4642   */\n      0x00\n        /* \"#utility.yul\":4632:4638   */\n      dup4\n        /* \"#utility.yul\":4627:4630   */\n      dup4\n        /* \"#utility.yul\":4623:4639   */\n      add\n        /* \"#utility.yul\":4616:4643   */\n      mstore\n        /* \"#utility.yul\":4503:4649   */\n      pop\n      pop\n      pop\n      jump\t// out\n        /* \"#utility.yul\":4655:5080   */\n    tag_66:\n        /* \"#utility.yul\":4733:4738   */\n      0x00\n        /* \"#utility.yul\":4758:4824   */\n      tag_134\n        /* \"#utility.yul\":4774:4823   */\n      tag_135\n        /* \"#utility.yul\":4816:4822   */\n      dup5\n        /* \"#utility.yul\":4774:4823   */\n      tag_64\n      jump\t// in\n    tag_135:\n        /* \"#utility.yul\":4758:4824   */\n      tag_63\n      jump\t// in\n    tag_134:\n        /* \"#utility.yul\":4749:4824   */\n      swap1\n      pop\n        /* \"#utility.yul\":4847:4853   */\n      dup3\n        /* \"#utility.yul\":4840:4845   */\n      dup2\n        /* \"#utility.yul\":4833:4854   */\n      mstore\n        /* \"#utility.yul\":4885:4889   */\n      0x20\n        /* \"#utility.yul\":4878:4883   */\n      dup2\n        /* \"#utility.yul\":4874:4890   */\n      add\n        /* \"#utility.yul\":4923:4926   */\n      dup5\n        /* \"#utility.yul\":4914:4920   */\n      dup5\n        /* \"#utility.yul\":4909:4912   */\n      dup5\n        /* \"#utility.yul\":4905:4921   */\n      add\n        /* \"#utility.yul\":4902:4927   */\n      gt\n        /* \"#utility.yul\":4899:5011   */\n      iszero\n      tag_136\n      jumpi\n        /* \"#utility.yul\":4930:5009   */\n      tag_137\n      tag_60\n      jump\t// in\n    tag_137:\n        /* \"#utility.yul\":4899:5011   */\n    tag_136:\n        /* \"#utility.yul\":5020:5074   */\n      tag_138\n        /* \"#utility.yul\":5067:5073   */\n      dup5\n        /* \"#utility.yul\":5062:5065   */\n      dup3\n        /* \"#utility.yul\":5057:5060   */\n      dup6\n        /* \"#utility.yul\":5020:5074   */\n      tag_65\n      jump\t// in\n    tag_138:\n        /* \"#utility.yul\":4739:5080   */\n      pop\n        /* \"#utility.yul\":4655:5080   */\n      swap4\n      swap3\n      pop\n      pop\n      pop\n      jump\t// out\n        /* \"#utility.yul\":5100:5440   */\n    tag_67:\n        /* \"#utility.yul\":5156:5161   */\n      0x00\n        /* \"#utility.yul\":5205:5208   */\n      dup3\n        /* \"#utility.yul\":5198:5202   */\n      0x1f\n        /* \"#utility.yul\":5190:5196   */\n      dup4\n        /* \"#utility.yul\":5186:5203   */\n      add\n        /* \"#utility.yul\":5182:5209   */\n      slt\n        /* \"#utility.yul\":5172:5294   */\n      tag_140\n      jumpi\n        /* \"#utility.yul\":5213:5292   */\n      tag_141\n      tag_59\n      jump\t// in\n    tag_141:\n        /* \"#utility.yul\":5172:5294   */\n    tag_140:\n        /* \"#utility.yul\":5330:5336   */\n      dup2\n        /* \"#utility.yul\":5317:5337   */\n      calldataload\n        /* \"#utility.yul\":5355:5434   */\n      tag_142\n        /* \"#utility.yul\":5430:5433   */\n      dup5\n        /* \"#utility.yul\":5422:5428   */\n      dup3\n        /* \"#utility.yul\":5415:5419   */\n      0x20\n        /* \"#utility.yul\":5407:5413   */\n      dup7\n        /* \"#utility.yul\":5403:5420   */\n      add\n        /* \"#utility.yul\":5355:5434   */\n      tag_66\n      jump\t// in\n    tag_142:\n        /* \"#utility.yul\":5346:5434   */\n      swap2\n      pop\n        /* \"#utility.yul\":5162:5440   */\n      pop\n        /* \"#utility.yul\":5100:5440   */\n      swap3\n      swap2\n      pop\n      pop\n      jump\t// out\n        /* \"#utility.yul\":5446:5564   */\n    tag_68:\n        /* \"#utility.yul\":5517:5539   */\n      tag_144\n        /* \"#utility.yul\":5533:5538   */\n      dup2\n        /* \"#utility.yul\":5517:5539   */\n      tag_53\n      jump\t// in\n    tag_144:\n        /* \"#utility.yul\":5510:5515   */\n      dup2\n        /* \"#utility.yul\":5507:5540   */\n      eq\n        /* \"#utility.yul\":5497:5558   */\n      tag_145\n      jumpi\n        /* \"#utility.yul\":5554:5555   */\n      0x00\n        /* \"#utility.yul\":5551:5552   */\n      dup1\n        /* \"#utility.yul\":5544:5556   */\n      revert\n        /* \"#utility.yul\":5497:5558   */\n    tag_145:\n        /* \"#utility.yul\":5446:5564   */\n      pop\n      jump\t// out\n        /* \"#utility.yul\":5570:5705   */\n    tag_69:\n        /* \"#utility.yul\":5614:5619   */\n      0x00\n        /* \"#utility.yul\":5652:5658   */\n      dup2\n        /* \"#utility.yul\":5639:5659   */\n      calldataload\n        /* \"#utility.yul\":5630:5659   */\n      swap1\n      pop\n        /* \"#utility.yul\":5668:5699   */\n      tag_147\n        /* \"#utility.yul\":5693:5698   */\n      dup2\n        /* \"#utility.yul\":5668:5699   */\n      tag_68\n      jump\t// in\n    tag_147:\n        /* \"#utility.yul\":5570:5705   */\n      swap3\n      swap2\n      pop\n      pop\n      jump\t// out\n        /* \"#utility.yul\":5711:6686   */\n    tag_12:\n        /* \"#utility.yul\":5806:5812   */\n      0x00\n        /* \"#utility.yul\":5814:5820   */\n      dup1\n        /* \"#utility.yul\":5822:5828   */\n      0x00\n        /* \"#utility.yul\":5871:5873   */\n      0x60\n        /* \"#utility.yul\":5859:5868   */\n      dup5\n        /* \"#utility.yul\":5850:5857   */\n      dup7\n        /* \"#utility.yul\":5846:5869   */\n      sub\n        /* \"#utility.yul\":5842:5874   */\n      slt\n        /* \"#utility.yul\":5839:5958   */\n      iszero\n      tag_149\n      jumpi\n        /* \"#utility.yul\":5877:5956   */\n      tag_150\n      tag_57\n      jump\t// in\n    tag_150:\n        /* \"#utility.yul\":5839:5958   */\n    tag_149:\n        /* \"#utility.yul\":6025:6026   */\n      0x00\n        /* \"#utility.yul\":6014:6023   */\n      dup5\n        /* \"#utility.yul\":6010:6027   */\n      add\n        /* \"#utility.yul\":5997:6028   */\n      calldataload\n        /* \"#utility.yul\":6055:6073   */\n      0xffffffffffffffff\n        /* \"#utility.yul\":6047:6053   */\n      dup2\n        /* \"#utility.yul\":6044:6074   */\n      gt\n        /* \"#utility.yul\":6041:6158   */\n      iszero\n      tag_151\n      jumpi\n        /* \"#utility.yul\":6077:6156   */\n      tag_152\n      tag_58\n      jump\t// in\n    tag_152:\n        /* \"#utility.yul\":6041:6158   */\n    tag_151:\n        /* \"#utility.yul\":6182:6245   */\n      tag_153\n        /* \"#utility.yul\":6237:6244   */\n      dup7\n        /* \"#utility.yul\":6228:6234   */\n      dup3\n        /* \"#utility.yul\":6217:6226   */\n      dup8\n        /* \"#utility.yul\":6213:6235   */\n      add\n        /* \"#utility.yul\":6182:6245   */\n      tag_67\n      jump\t// in\n    tag_153:\n        /* \"#utility.yul\":6172:6245   */\n      swap4\n      pop\n        /* \"#utility.yul\":5968:6255   */\n      pop\n        /* \"#utility.yul\":6294:6296   */\n      0x20\n        /* \"#utility.yul\":6320:6371   */\n      tag_154\n        /* \"#utility.yul\":6363:6370   */\n      dup7\n        /* \"#utility.yul\":6354:6360   */\n      dup3\n        /* \"#utility.yul\":6343:6352   */\n      dup8\n        /* \"#utility.yul\":6339:6361   */\n      add\n        /* \"#utility.yul\":6320:6371   */\n      tag_69\n      jump\t// in\n    tag_154:\n        /* \"#utility.yul\":6310:6371   */\n      swap3\n      pop\n        /* \"#utility.yul\":6265:6381   */\n      pop\n        /* \"#utility.yul\":6448:6450   */\n      0x40\n        /* \"#utility.yul\":6437:6446   */\n      dup5\n        /* \"#utility.yul\":6433:6451   */\n      add\n        /* \"#utility.yul\":6420:6452   */\n      calldataload\n        /* \"#utility.yul\":6479:6497   */\n      0xffffffffffffffff\n        /* \"#utility.yul\":6471:6477   */\n      dup2\n        /* \"#utility.yul\":6468:6498   */\n      gt\n        /* \"#utility.yul\":6465:6582   */\n      iszero\n      tag_155\n      jumpi\n        /* \"#utility.yul\":6501:6580   */\n      tag_156\n      tag_58\n      jump\t// in\n    tag_156:\n        /* \"#utility.yul\":6465:6582   */\n    tag_155:\n        /* \"#utility.yul\":6606:6669   */\n      tag_157\n        /* \"#utility.yul\":6661:6668   */\n      dup7\n        /* \"#utility.yul\":6652:6658   */\n      dup3\n        /* \"#utility.yul\":6641:6650   */\n      dup8\n        /* \"#utility.yul\":6637:6659   */\n      add\n        /* \"#utility.yul\":6606:6669   */\n      tag_67\n      jump\t// in\n    tag_157:\n        /* \"#utility.yul\":6596:6669   */\n      swap2\n      pop\n        /* \"#utility.yul\":6391:6679   */\n      pop\n        /* \"#utility.yul\":5711:6686   */\n      swap3\n      pop\n      swap3\n      pop\n      swap3\n      jump\t// out\n        /* \"#utility.yul\":6692:6872   */\n    tag_70:\n        /* \"#utility.yul\":6740:6817   */\n      0x4e487b7100000000000000000000000000000000000000000000000000000000\n        /* \"#utility.yul\":6737:6738   */\n      0x00\n        /* \"#utility.yul\":6730:6818   */\n      mstore\n        /* \"#utility.yul\":6837:6841   */\n      0x22\n        /* \"#utility.yul\":6834:6835   */\n      0x04\n        /* \"#utility.yul\":6827:6842   */\n      mstore\n        /* \"#utility.yul\":6861:6865   */\n      0x24\n        /* \"#utility.yul\":6858:6859   */\n      0x00\n        /* \"#utility.yul\":6851:6866   */\n      revert\n        /* \"#utility.yul\":6878:7198   */\n    tag_20:\n        /* \"#utility.yul\":6922:6928   */\n      0x00\n        /* \"#utility.yul\":6959:6960   */\n      0x02\n        /* \"#utility.yul\":6953:6957   */\n      dup3\n        /* \"#utility.yul\":6949:6961   */\n      div\n        /* \"#utility.yul\":6939:6961   */\n      swap1\n      pop\n        /* \"#utility.yul\":7006:7007   */\n      0x01\n        /* \"#utility.yul\":7000:7004   */\n      dup3\n        /* \"#utility.yul\":6996:7008   */\n      and\n        /* \"#utility.yul\":7027:7045   */\n      dup1\n        /* \"#utility.yul\":7017:7098   */\n      tag_160\n      jumpi\n        /* \"#utility.yul\":7083:7087   */\n      0x7f\n        /* \"#utility.yul\":7075:7081   */\n      dup3\n        /* \"#utility.yul\":7071:7088   */\n      and\n        /* \"#utility.yul\":7061:7088   */\n      swap2\n      pop\n        /* \"#utility.yul\":7017:7098   */\n    tag_160:\n        /* \"#utility.yul\":7145:7147   */\n      0x20\n        /* \"#utility.yul\":7137:7143   */\n      dup3\n        /* \"#utility.yul\":7134:7148   */\n      lt\n        /* \"#utility.yul\":7114:7132   */\n      dup2\n        /* \"#utility.yul\":7111:7149   */\n      sub\n        /* \"#utility.yul\":7108:7192   */\n      tag_161\n      jumpi\n        /* \"#utility.yul\":7164:7182   */\n      tag_162\n      tag_70\n      jump\t// in\n    tag_162:\n        /* \"#utility.yul\":7108:7192   */\n    tag_161:\n        /* \"#utility.yul\":6929:7198   */\n      pop\n        /* \"#utility.yul\":6878:7198   */\n      swap2\n      swap1\n      pop\n      jump\t// out\n        /* \"#utility.yul\":7204:7345   */\n    tag_71:\n        /* \"#utility.yul\":7253:7257   */\n      0x00\n        /* \"#utility.yul\":7276:7279   */\n      dup2\n        /* \"#utility.yul\":7268:7279   */\n      swap1\n      pop\n        /* \"#utility.yul\":7299:7302   */\n      dup2\n        /* \"#utility.yul\":7296:7297   */\n      0x00\n        /* \"#utility.yul\":7289:7303   */\n      mstore\n        /* \"#utility.yul\":7333:7337   */\n      0x20\n        /* \"#utility.yul\":7330:7331   */\n      0x00\n        /* \"#utility.yul\":7320:7338   */\n      keccak256\n        /* \"#utility.yul\":7312:7338   */\n      swap1\n      pop\n        /* \"#utility.yul\":7204:7345   */\n      swap2\n      swap1\n      pop\n      jump\t// out\n        /* \"#utility.yul\":7351:7444   */\n    tag_72:\n        /* \"#utility.yul\":7388:7394   */\n      0x00\n        /* \"#utility.yul\":7435:7437   */\n      0x20\n        /* \"#utility.yul\":7430:7432   */\n      0x1f\n        /* \"#utility.yul\":7423:7428   */\n      dup4\n        /* \"#utility.yul\":7419:7433   */\n      add\n        /* \"#utility.yul\":7415:7438   */\n      div\n        /* \"#utility.yul\":7405:7438   */\n      swap1\n      pop\n        /* \"#utility.yul\":7351:7444   */\n      swap2\n      swap1\n      pop\n      jump\t// out\n        /* \"#utility.yul\":7450:7557   */\n    tag_73:\n        /* \"#utility.yul\":7494:7502   */\n      0x00\n        /* \"#utility.yul\":7544:7549   */\n      dup3\n        /* \"#utility.yul\":7538:7542   */\n      dup3\n        /* \"#utility.yul\":7534:7550   */\n      shl\n        /* \"#utility.yul\":7513:7550   */\n      swap1\n      pop\n        /* \"#utility.yul\":7450:7557   */\n      swap3\n      swap2\n      pop\n      pop\n      jump\t// out\n        /* \"#utility.yul\":7563:7956   */\n    tag_74:\n        /* \"#utility.yul\":7632:7638   */\n      0x00\n        /* \"#utility.yul\":7682:7683   */\n      0x08\n        /* \"#utility.yul\":7670:7680   */\n      dup4\n        /* \"#utility.yul\":7666:7684   */\n      mul\n        /* \"#utility.yul\":7705:7802   */\n      tag_167\n        /* \"#utility.yul\":7735:7801   */\n      0xffffffffffffffffffffffffffffffffffffffffffffffffffffffffffffffff\n        /* \"#utility.yul\":7724:7733   */\n      dup3\n        /* \"#utility.yul\":7705:7802   */\n      tag_73\n      jump\t// in\n    tag_167:\n        /* \"#utility.yul\":7823:7862   */\n      tag_168\n        /* \"#utility.yul\":7853:7861   */\n      dup7\n        /* \"#utility.yul\":7842:7851   */\n      dup4\n        /* \"#utility.yul\":7823:7862   */\n      tag_73\n      jump\t// in\n    tag_168:\n        /* \"#utility.yul\":7811:7862   */\n      swap6\n      pop\n        /* \"#utility.yul\":7895:7899   */\n      dup1\n        /* \"#utility.yul\":7891:7900   */\n      not\n        /* \"#utility.yul\":7884:7889   */\n      dup5\n        /* \"#utility.yul\":7880:7901   */\n      and\n        /* \"#utility.yul\":7871:7901   */\n      swap4\n      pop\n        /* \"#utility.yul\":7944:7948   */\n      dup1\n        /* \"#utility.yul\":7934:7942   */\n      dup7\n        /* \"#utility.yul\":7930:7949   */\n      and\n        /* \"#utility.yul\":7923:7928   */\n      dup5\n        /* \"#utility.yul\":7920:7950   */\n      or\n        /* \"#utility.yul\":7910:7950   */\n      swap3\n      pop\n        /* \"#utility.yul\":7639:7956   */\n      pop\n      pop\n        /* \"#utility.yul\":7563:7956   */\n      swap4\n      swap3\n      pop\n      pop\n      pop\n      jump\t// out\n        /* \"#utility.yul\":7962:8039   */\n    tag_75:\n        /* \"#utility.yul\":7999:8006   */\n      0x00\n        /* \"#utility.yul\":8028:8033   */\n      dup2\n        /* \"#utility.yul\":8017:8033   */\n      swap1\n      pop\n        /* \"#utility.yul\":7962:8039   */\n      swap2\n      swap1\n      pop\n      jump\t// out\n        /* \"#utility.yul\":8045:8105   */\n    tag_76:\n        /* \"#utility.yul\":8073:8076   */\n      0x00\n        /* \"#utility.yul\":8094:8099   */\n      dup2\n        /* \"#utility.yul\":8087:8099   */\n      swap1\n      pop\n        /* \"#utility.yul\":8045:8105   */\n      swap2\n      swap1\n      pop\n      jump\t// out\n        /* \"#utility.yul\":8111:8253   */\n    tag_77:\n        /* \"#utility.yul\":8161:8170   */\n      0x00\n        /* \"#utility.yul\":8194:8247   */\n      tag_172\n        /* \"#utility.yul\":8212:8246   */\n      tag_173\n        /* \"#utility.yul\":8221:8245   */\n      tag_174\n        /* \"#utility.yul\":8239:8244   */\n      dup5\n        /* \"#utility.yul\":8221:8245   */\n      tag_75\n      jump\t// in\n    tag_174:\n        /* \"#utility.yul\":8212:8246   */\n      tag_76\n      jump\t// in\n    tag_173:\n        /* \"#utility.yul\":8194:8247   */\n      tag_75\n      jump\t// in\n    tag_172:\n        /* \"#utility.yul\":8181:8247   */\n      swap1\n      pop\n        /* \"#utility.yul\":8111:8253   */\n      swap2\n      swap1\n      pop\n      jump\t// out\n        /* \"#utility.yul\":8259:8334   */\n    tag_78:\n        /* \"#utility.yul\":8302:8305   */\n      0x00\n        /* \"#utility.yul\":8323:8328   */\n      dup2\n        /* \"#utility.yul\":8316:8328   */\n      swap1\n      pop\n        /* \"#utility.yul\":8259:8334   */\n      swap2\n      swap1\n      pop\n      jump\t// out\n        /* \"#utility.yul\":8340:8609   */\n    tag_79:\n        /* \"#utility.yul\":8450:8489   */\n      tag_177\n        /* \"#utility.yul\":8481:8488   */\n      dup4\n        /* \"#utility.yul\":8450:8489   */\n      tag_77\n      jump\t// in\n    tag_177:\n        /* \"#utility.yul\":8511:8602   */\n      tag_178\n        /* \"#utility.yul\":8560:8601   */\n      tag_179\n        /* \"#utility.yul\":8584:8600   */\n      dup3\n        /* \"#utility.yul\":8560:8601   */\n      tag_78\n      jump\t// in\n    tag_179:\n        /* \"#utility.yul\":8552:8558   */\n      dup5\n        /* \"#utility.yul\":8545:8549   */\n      dup5\n        /* \"#utility.yul\":8539:8550   */\n      sload\n        /* \"#utility.yul\":8511:8602   */\n      tag_74\n      jump\t// in\n    tag_178:\n        /* \"#utility.yul\":8505:8509   */\n      dup3\n        /* \"#utility.yul\":8498:8603   */\n      sstore\n        /* \"#utility.yul\":8416:8609   */\n      pop\n        /* \"#utility.yul\":8340:8609   */\n      pop\n      pop\n      pop\n      jump\t// out\n        /* \"#utility.yul\":8615:8688   */\n    tag_80:\n        /* \"#utility.yul\":8660:8663   */\n      0x00\n        /* \"#utility.yul\":8615:8688   */\n      swap1\n      jump\t// out\n        /* \"#utility.yul\":8694:8883   */\n    tag_81:\n        /* \"#utility.yul\":8771:8803   */\n      tag_182\n      tag_80\n      jump\t// in\n    tag_182:\n        /* \"#utility.yul\":8812:8877   */\n      tag_183\n        /* \"#utility.yul\":8870:8876   */\n      dup2\n        /* \"#utility.yul\":8862:8868   */\n      dup5\n        /* \"#utility.yul\":8856:8860   */\n      dup5\n        /* \"#utility.yul\":8812:8877   */\n      tag_79\n      jump\t// in\n    tag_183:\n        /* \"#utility.yul\":8747:8883   */\n      pop\n        /* \"#utility.yul\":8694:8883   */\n      pop\n      pop\n      jump\t// out\n        /* \"#utility.yul\":8889:9075   */\n    tag_82:\n        /* \"#utility.yul\":8949:9069   */\n    tag_185:\n        /* \"#utility.yul\":8966:8969   */\n      dup2\n        /* \"#utility.yul\":8959:8964   */\n      dup2\n        /* \"#utility.yul\":8956:8970   */\n      lt\n        /* \"#utility.yul\":8949:9069   */\n      iszero\n      tag_187\n      jumpi\n        /* \"#utility.yul\":9020:9059   */\n      tag_188\n        /* \"#utility.yul\":9057:9058   */\n      0x00\n        /* \"#utility.yul\":9050:9055   */\n      dup3\n        /* \"#utility.yul\":9020:9059   */\n      tag_81\n      jump\t// in\n    tag_188:\n        /* \"#utility.yul\":8993:8994   */\n      0x01\n        /* \"#utility.yul\":8986:8991   */\n      dup2\n        /* \"#utility.yul\":8982:8995   */\n      add\n        /* \"#utility.yul\":8973:8995   */\n      swap1\n      pop\n        /* \"#utility.yul\":8949:9069   */\n      jump(tag_185)\n    tag_187:\n        /* \"#utility.yul\":8889:9075   */\n      pop\n      pop\n      jump\t// out\n        /* \"#utility.yul\":9081:9624   */\n    tag_83:\n        /* \"#utility.yul\":9182:9184   */\n      0x1f\n        /* \"#utility.yul\":9177:9180   */\n      dup3\n        /* \"#utility.yul\":9174:9185   */\n      gt\n        /* \"#utility.yul\":9171:9617   */\n      iszero\n      tag_190\n      jumpi\n        /* \"#utility.yul\":9216:9254   */\n      tag_191\n        /* \"#utility.yul\":9248:9253   */\n      dup2\n        /* \"#utility.yul\":9216:9254   */\n      tag_71\n      jump\t// in\n    tag_191:\n        /* \"#utility.yul\":9300:9329   */\n      tag_192\n        /* \"#utility.yul\":9318:9328   */\n      dup5\n        /* \"#utility.yul\":9300:9329   */\n      tag_72\n      jump\t// in\n    tag_192:\n        /* \"#utility.yul\":9290:9298   */\n      dup2\n        /* \"#utility.yul\":9286:9330   */\n      add\n        /* \"#utility.yul\":9483:9485   */\n      0x20\n        /* \"#utility.yul\":9471:9481   */\n      dup6\n        /* \"#utility.yul\":9468:9486   */\n      lt\n        /* \"#utility.yul\":9465:9514   */\n      iszero\n      tag_193\n      jumpi\n        /* \"#utility.yul\":9504:9512   */\n      dup2\n        /* \"#utility.yul\":9489:9512   */\n      swap1\n      pop\n        /* \"#utility.yul\":9465:9514   */\n    tag_193:\n        /* \"#utility.yul\":9527:9607   */\n      tag_194\n        /* \"#utility.yul\":9583:9605   */\n      tag_195\n        /* \"#utility.yul\":9601:9604   */\n      dup6\n        /* \"#utility.yul\":9583:9605   */\n      tag_72\n      jump\t// in\n    tag_195:\n        /* \"#utility.yul\":9573:9581   */\n      dup4\n        /* \"#utility.yul\":9569:9606   */\n      add\n        /* \"#utility.yul\":9556:9567   */\n      dup3\n        /* \"#utility.yul\":9527:9607   */\n      tag_82\n      jump\t// in\n    tag_194:\n        /* \"#utility.yul\":9186:9617   */\n      pop\n      pop\n        /* \"#utility.yul\":9171:9617   */\n    tag_190:\n        /* \"#utility.yul\":9081:9624   */\n      pop\n      pop\n      pop\n      jump\t// out\n        /* \"#utility.yul\":9630:9747   */\n    tag_84:\n        /* \"#utility.yul\":9684:9692   */\n      0x00\n        /* \"#utility.yul\":9734:9739   */\n      dup3\n        /* \"#utility.yul\":9728:9732   */\n      dup3\n        /* \"#utility.yul\":9724:9740   */\n      shr\n        /* \"#utility.yul\":9703:9740   */\n      swap1\n      pop\n        /* \"#utility.yul\":9630:9747   */\n      swap3\n      swap2\n      pop\n      pop\n      jump\t// out\n        /* \"#utility.yul\":9753:9922   */\n    tag_85:\n        /* \"#utility.yul\":9797:9803   */\n      0x00\n        /* \"#utility.yul\":9830:9881   */\n      tag_198\n        /* \"#utility.yul\":9878:9879   */\n      0x00\n        /* \"#utility.yul\":9874:9880   */\n      not\n        /* \"#utility.yul\":9866:9871   */\n      dup5\n        /* \"#utility.yul\":9863:9864   */\n      0x08\n        /* \"#utility.yul\":9859:9872   */\n      mul\n        /* \"#utility.yul\":9830:9881   */\n      tag_84\n      jump\t// in\n    tag_198:\n        /* \"#utility.yul\":9826:9882   */\n      not\n        /* \"#utility.yul\":9911:9915   */\n      dup1\n        /* \"#utility.yul\":9905:9909   */\n      dup4\n        /* \"#utility.yul\":9901:9916   */\n      and\n        /* \"#utility.yul\":9891:9916   */\n      swap2\n      pop\n        /* \"#utility.yul\":9804:9922   */\n      pop\n        /* \"#utility.yul\":9753:9922   */\n      swap3\n      swap2\n      pop\n      pop\n      jump\t// out\n        /* \"#utility.yul\":9927:10222   */\n    tag_86:\n        /* \"#utility.yul\":10003:10007   */\n      0x00\n        /* \"#utility.yul\":10149:10178   */\n      tag_200\n        /* \"#utility.yul\":10174:10177   */\n      dup4\n        /* \"#utility.yul\":10168:10172   */\n      dup4\n        /* \"#utility.yul\":10149:10178   */\n      tag_85\n      jump\t// in\n    tag_200:\n        /* \"#utility.yul\":10141:10178   */\n      swap2\n      pop\n        /* \"#utility.yul\":10211:10214   */\n      dup3\n        /* \"#utility.yul\":10208:10209   */\n      0x02\n        /* \"#utility.yul\":10204:10215   */\n      mul\n        /* \"#utility.yul\":10198:10202   */\n      dup3\n        /* \"#utility.yul\":10195:10216   */\n      or\n        /* \"#utility.yul\":10187:10216   */\n      swap1\n      pop\n        /* \"#utility.yul\":9927:10222   */\n      swap3\n      swap2\n      pop\n      pop\n      jump\t// out\n        /* \"#utility.yul\":10227:11622   */\n    tag_32:\n        /* \"#utility.yul\":10344:10381   */\n      tag_202\n        /* \"#utility.yul\":10377:10380   */\n      dup3\n        /* \"#utility.yul\":10344:10381   */\n      tag_45\n      jump\t// in\n    tag_202:\n        /* \"#utility.yul\":10446:10464   */\n      0xffffffffffffffff\n        /* \"#utility.yul\":10438:10444   */\n      dup2\n        /* \"#utility.yul\":10435:10465   */\n      gt\n        /* \"#utility.yul\":10432:10488   */\n      iszero\n      tag_203\n      jumpi\n        /* \"#utility.yul\":10468:10486   */\n      tag_204\n      tag_61\n      jump\t// in\n    tag_204:\n        /* \"#utility.yul\":10432:10488   */\n    tag_203:\n        /* \"#utility.yul\":10512:10550   */\n      tag_205\n        /* \"#utility.yul\":10544:10548   */\n      dup3\n        /* \"#utility.yul\":10538:10549   */\n      sload\n        /* \"#utility.yul\":10512:10550   */\n      tag_20\n      jump\t// in\n    tag_205:\n        /* \"#utility.yul\":10597:10664   */\n      tag_206\n        /* \"#utility.yul\":10657:10663   */\n      dup3\n        /* \"#utility.yul\":10649:10655   */\n      dup3\n        /* \"#utility.yul\":10643:10647   */\n      dup6\n        /* \"#utility.yul\":10597:10664   */\n      tag_83\n      jump\t// in\n    tag_206:\n        /* \"#utility.yul\":10691:10692   */\n      0x00\n        /* \"#utility.yul\":10715:10719   */\n      0x20\n        /* \"#utility.yul\":10702:10719   */\n      swap1\n      pop\n        /* \"#utility.yul\":10747:10749   */\n      0x1f\n        /* \"#utility.yul\":10739:10745   */\n      dup4\n        /* \"#utility.yul\":10736:10750   */\n      gt\n        /* \"#utility.yul\":10764:10765   */\n      0x01\n        /* \"#utility.yul\":10759:11377   */\n      dup2\n      eq\n      tag_208\n      jumpi\n        /* \"#utility.yul\":11421:11422   */\n      0x00\n        /* \"#utility.yul\":11438:11444   */\n      dup5\n        /* \"#utility.yul\":11435:11512   */\n      iszero\n      tag_209\n      jumpi\n        /* \"#utility.yul\":11487:11496   */\n      dup3\n        /* \"#utility.yul\":11482:11485   */\n      dup8\n        /* \"#utility.yul\":11478:11497   */\n      add\n        /* \"#utility.yul\":11472:11498   */\n      mload\n        /* \"#utility.yul\":11463:11498   */\n      swap1\n      pop\n        /* \"#utility.yul\":11435:11512   */\n    tag_209:\n        /* \"#utility.yul\":11538:11605   */\n      tag_210\n        /* \"#utility.yul\":11598:11604   */\n      dup6\n        /* \"#utility.yul\":11591:11596   */\n      dup3\n        /* \"#utility.yul\":11538:11605   */\n      tag_86\n      jump\t// in\n    tag_210:\n        /* \"#utility.yul\":11532:11536   */\n      dup7\n        /* \"#utility.yul\":11525:11606   */\n      sstore\n        /* \"#utility.yul\":11394:11616   */\n      pop\n        /* \"#utility.yul\":10729:11616   */\n      jump(tag_207)\n        /* \"#utility.yul\":10759:11377   */\n    tag_208:\n        /* \"#utility.yul\":10811:10815   */\n      0x1f\n        /* \"#utility.yul\":10807:10816   */\n      not\n        /* \"#utility.yul\":10799:10805   */\n      dup5\n        /* \"#utility.yul\":10795:10817   */\n      and\n        /* \"#utility.yul\":10845:10882   */\n      tag_211\n        /* \"#utility.yul\":10877:10881   */\n      dup7\n        /* \"#utility.yul\":10845:10882   */\n      tag_71\n      jump\t// in\n    tag_211:\n        /* \"#utility.yul\":10904:10905   */\n      0x00\n        /* \"#utility.yul\":10918:11126   */\n    tag_212:\n        /* \"#utility.yul\":10932:10939   */\n      dup3\n        /* \"#utility.yul\":10929:10930   */\n      dup2\n        /* \"#utility.yul\":10926:10940   */\n      lt\n        /* \"#utility.yul\":10918:11126   */\n      iszero\n      tag_214\n      jumpi\n        /* \"#utility.yul\":11011:11020   */\n      dup5\n        /* \"#utility.yul\":11006:11009   */\n      dup10\n        /* \"#utility.yul\":11002:11021   */\n      add\n        /* \"#utility.yul\":10996:11022   */\n      mload\n        /* \"#utility.yul\":10988:10994   */\n      dup3\n        /* \"#utility.yul\":10981:11023   */\n      sstore\n        /* \"#utility.yul\":11062:11063   */\n      0x01\n        /* \"#utility.yul\":11054:11060   */\n      dup3\n        /* \"#utility.yul\":11050:11064   */\n      add\n        /* \"#utility.yul\":11040:11064   */\n      swap2\n      pop\n        /* \"#utility.yul\":11109:11111   */\n      0x20\n        /* \"#utility.yul\":11098:11107   */\n      dup6\n        /* \"#utility.yul\":11094:11112   */\n      add\n        /* \"#utility.yul\":11081:11112   */\n      swap5\n      pop\n        /* \"#utility.yul\":10955:10959   */\n      0x20\n        /* \"#utility.yul\":10952:10953   */\n      dup2\n        /* \"#utility.yul\":10948:10960   */\n      add\n        /* \"#utility.yul\":10943:10960   */\n      swap1\n      pop\n        /* \"#utility.yul\":10918:11126   */\n      jump(tag_212)\n    tag_214:\n        /* \"#utility.yul\":11154:11160   */\n      dup7\n        /* \"#utility.yul\":11145:11152   */\n      dup4\n        /* \"#utility.yul\":11142:11161   */\n      lt\n        /* \"#utility.yul\":11139:11318   */\n      iszero\n      tag_215\n      jumpi\n        /* \"#utility.yul\":11212:11221   */\n      dup5\n        /* \"#utility.yul\":11207:11210   */\n      dup10\n        /* \"#utility.yul\":11203:11222   */\n      add\n        /* \"#utility.yul\":11197:11223   */\n      mload\n        /* \"#utility.yul\":11255:11303   */\n      tag_216\n        /* \"#utility.yul\":11297:11301   */\n      0x1f\n        /* \"#utility.yul\":11289:11295   */\n      dup10\n        /* \"#utility.yul\":11285:11302   */\n      and\n        /* \"#utility.yul\":11274:11283   */\n      dup3\n        /* \"#utility.yul\":11255:11303   */\n      tag_85\n      jump\t// in\n    tag_216:\n        /* \"#utility.yul\":11247:11253   */\n      dup4\n        /* \"#utility.yul\":11240:11304   */\n      sstore\n        /* \"#utility.yul\":11162:11318   */\n      pop\n        /* \"#utility.yul\":11139:11318   */\n    tag_215:\n        /* \"#utility.yul\":11364:11365   */\n      0x01\n        /* \"#utility.yul\":11360:11361   */\n      0x02\n        /* \"#utility.yul\":11352:11358   */\n      dup9\n        /* \"#utility.yul\":11348:11362   */\n      mul\n        /* \"#utility.yul\":11344:11366   */\n      add\n        /* \"#utility.yul\":11338:11342   */\n      dup9\n        /* \"#utility.yul\":11331:11367   */\n      sstore\n        /* \"#utility.yul\":10766:11377   */\n      pop\n      pop\n      pop\n        /* \"#utility.yul\":10729:11616   */\n    tag_207:\n      pop\n        /* \"#utility.yul\":10319:11622   */\n      pop\n      pop\n      pop\n        /* \"#utility.yul\":10227:11622   */\n      pop\n      pop\n      jump\t// out\n\n    auxdata: 0xa2646970667358221220ed6ba1dfc57a8214bdb4ec9e22db9b240c52ae71eaa90119cf7d5da3461b068f64736f6c63430008170033\n}\n",
				"bytecode": {
					"linkReferences": {},
					"object": "608060405234801561000f575f80fd5b50610b118061001d5f395ff3fe608060405234801561000f575f80fd5b506004361061003f575f3560e01c80630910677c146100435780638053b80b14610061578063b9b11bd21461007d575b5f80fd5b61004b610087565b60405161005891906105fa565b60405180910390f35b61007b60048036038101906100769190610781565b61026c565b005b610085610380565b005b61008f610418565b5f803373ffffffffffffffffffffffffffffffffffffffff1673ffffffffffffffffffffffffffffffffffffffff1681526020019081526020015f206040518060800160405290815f820180546100e590610836565b80601f016020809104026020016040519081016040528092919081815260200182805461011190610836565b801561015c5780601f106101335761010080835404028352916020019161015c565b820191905f5260205f20905b81548152906001019060200180831161013f57829003601f168201915b50505050508152602001600182015f9054906101000a900473ffffffffffffffffffffffffffffffffffffffff1673ffffffffffffffffffffffffffffffffffffffff1673ffffffffffffffffffffffffffffffffffffffff1681526020016001820160149054906101000a900460ff1660ff1660ff1681526020016002820180546101e790610836565b80601f016020809104026020016040519081016040528092919081815260200182805461021390610836565b801561025e5780601f106102355761010080835404028352916020019161025e565b820191905f5260205f20905b81548152906001019060200180831161024157829003601f168201915b505050505081525050905090565b5f60405180608001604052808581526020013373ffffffffffffffffffffffffffffffffffffffff1681526020018460ff168152602001838152509050805f803373ffffffffffffffffffffffffffffffffffffffff1673ffffffffffffffffffffffffffffffffffffffff1681526020019081526020015f205f820151815f0190816102f99190610a0c565b506020820151816001015f6101000a81548173ffffffffffffffffffffffffffffffffffffffff021916908373ffffffffffffffffffffffffffffffffffffffff16021790555060408201518160010160146101000a81548160ff021916908360ff16021790555060608201518160020190816103769190610a0c565b5090505050505050565b5f803373ffffffffffffffffffffffffffffffffffffffff1673ffffffffffffffffffffffffffffffffffffffff1681526020019081526020015f205f8082015f6103cb9190610457565b600182015f6101000a81549073ffffffffffffffffffffffffffffffffffffffff02191690556001820160146101000a81549060ff0219169055600282015f6104149190610457565b5050565b6040518060800160405280606081526020015f73ffffffffffffffffffffffffffffffffffffffff1681526020015f60ff168152602001606081525090565b50805461046390610836565b5f825580601f106104745750610491565b601f0160209004905f5260205f20908101906104909190610494565b5b50565b5b808211156104ab575f815f905550600101610495565b5090565b5f81519050919050565b5f82825260208201905092915050565b5f5b838110156104e65780820151818401526020810190506104cb565b5f8484015250505050565b5f601f19601f8301169050919050565b5f61050b826104af565b61051581856104b9565b93506105258185602086016104c9565b61052e816104f1565b840191505092915050565b5f73ffffffffffffffffffffffffffffffffffffffff82169050919050565b5f61056282610539565b9050919050565b61057281610558565b82525050565b5f60ff82169050919050565b61058d81610578565b82525050565b5f608083015f8301518482035f8601526105ad8282610501565b91505060208301516105c26020860182610569565b5060408301516105d56040860182610584565b50606083015184820360608601526105ed8282610501565b9150508091505092915050565b5f6020820190508181035f8301526106128184610593565b905092915050565b5f604051905090565b5f80fd5b5f80fd5b5f80fd5b5f80fd5b7f4e487b71000000000000000000000000000000000000000000000000000000005f52604160045260245ffd5b610669826104f1565b810181811067ffffffffffffffff8211171561068857610687610633565b5b80604052505050565b5f61069a61061a565b90506106a68282610660565b919050565b5f67ffffffffffffffff8211156106c5576106c4610633565b5b6106ce826104f1565b9050602081019050919050565b828183375f83830152505050565b5f6106fb6106f6846106ab565b610691565b9050828152602081018484840111156107175761071661062f565b5b6107228482856106db565b509392505050565b5f82601f83011261073e5761073d61062b565b5b813561074e8482602086016106e9565b91505092915050565b61076081610578565b811461076a575f80fd5b50565b5f8135905061077b81610757565b92915050565b5f805f6060848603121561079857610797610623565b5b5f84013567ffffffffffffffff8111156107b5576107b4610627565b5b6107c18682870161072a565b93505060206107d28682870161076d565b925050604084013567ffffffffffffffff8111156107f3576107f2610627565b5b6107ff8682870161072a565b9150509250925092565b7f4e487b71000000000000000000000000000000000000000000000000000000005f52602260045260245ffd5b5f600282049050600182168061084d57607f821691505b6020821081036108605761085f610809565b5b50919050565b5f819050815f5260205f209050919050565b5f6020601f8301049050919050565b5f82821b905092915050565b5f600883026108c27fffffffffffffffffffffffffffffffffffffffffffffffffffffffffffffffff82610887565b6108cc8683610887565b95508019841693508086168417925050509392505050565b5f819050919050565b5f819050919050565b5f61091061090b610906846108e4565b6108ed565b6108e4565b9050919050565b5f819050919050565b610929836108f6565b61093d61093582610917565b848454610893565b825550505050565b5f90565b610951610945565b61095c818484610920565b505050565b5b8181101561097f576109745f82610949565b600181019050610962565b5050565b601f8211156109c45761099581610866565b61099e84610878565b810160208510156109ad578190505b6109c16109b985610878565b830182610961565b50505b505050565b5f82821c905092915050565b5f6109e45f19846008026109c9565b1980831691505092915050565b5f6109fc83836109d5565b9150826002028217905092915050565b610a15826104af565b67ffffffffffffffff811115610a2e57610a2d610633565b5b610a388254610836565b610a43828285610983565b5f60209050601f831160018114610a74575f8415610a62578287015190505b610a6c85826109f1565b865550610ad3565b601f198416610a8286610866565b5f5b82811015610aa957848901518255600182019150602085019450602081019050610a84565b86831015610ac65784890151610ac2601f8916826109d5565b8355505b6001600288020188555050505b50505050505056fea2646970667358221220ed6ba1dfc57a8214bdb4ec9e22db9b240c52ae71eaa90119cf7d5da3461b068f64736f6c63430008170033",
					"opcodes": "PUSH1 0x80 PUSH1 0x40 MSTORE CALLVALUE DUP1 ISZERO PUSH2 0xF JUMPI PUSH0 DUP1 REVERT JUMPDEST POP PUSH2 0xB11 DUP1 PUSH2 0x1D PUSH0 CODECOPY PUSH0 RETURN INVALID PUSH1 0x80 PUSH1 0x40 MSTORE CALLVALUE DUP1 ISZERO PUSH2 0xF JUMPI PUSH0 DUP1 REVERT JUMPDEST POP PUSH1 0x4 CALLDATASIZE LT PUSH2 0x3F JUMPI PUSH0 CALLDATALOAD PUSH1 0xE0 SHR DUP1 PUSH4 0x910677C EQ PUSH2 0x43 JUMPI DUP1 PUSH4 0x8053B80B EQ PUSH2 0x61 JUMPI DUP1 PUSH4 0xB9B11BD2 EQ PUSH2 0x7D JUMPI JUMPDEST PUSH0 DUP1 REVERT JUMPDEST PUSH2 0x4B PUSH2 0x87 JUMP JUMPDEST PUSH1 0x40 MLOAD PUSH2 0x58 SWAP2 SWAP1 PUSH2 0x5FA JUMP JUMPDEST PUSH1 0x40 MLOAD DUP1 SWAP2 SUB SWAP1 RETURN JUMPDEST PUSH2 0x7B PUSH1 0x4 DUP1 CALLDATASIZE SUB DUP2 ADD SWAP1 PUSH2 0x76 SWAP2 SWAP1 PUSH2 0x781 JUMP JUMPDEST PUSH2 0x26C JUMP JUMPDEST STOP JUMPDEST PUSH2 0x85 PUSH2 0x380 JUMP JUMPDEST STOP JUMPDEST PUSH2 0x8F PUSH2 0x418 JUMP JUMPDEST PUSH0 DUP1 CALLER PUSH20 0xFFFFFFFFFFFFFFFFFFFFFFFFFFFFFFFFFFFFFFFF AND PUSH20 0xFFFFFFFFFFFFFFFFFFFFFFFFFFFFFFFFFFFFFFFF AND DUP2 MSTORE PUSH1 0x20 ADD SWAP1 DUP2 MSTORE PUSH1 0x20 ADD PUSH0 KECCAK256 PUSH1 0x40 MLOAD DUP1 PUSH1 0x80 ADD PUSH1 0x40 MSTORE SWAP1 DUP2 PUSH0 DUP3 ADD DUP1 SLOAD PUSH2 0xE5 SWAP1 PUSH2 0x836 JUMP JUMPDEST DUP1 PUSH1 0x1F ADD PUSH1 0x20 DUP1 SWAP2 DIV MUL PUSH1 0x20 ADD PUSH1 0x40 MLOAD SWAP1 DUP2 ADD PUSH1 0x40 MSTORE DUP1 SWAP3 SWAP2 SWAP1 DUP2 DUP2 MSTORE PUSH1 0x20 ADD DUP3 DUP1 SLOAD PUSH2 0x111 SWAP1 PUSH2 0x836 JUMP JUMPDEST DUP1 ISZERO PUSH2 0x15C JUMPI DUP1 PUSH1 0x1F LT PUSH2 0x133 JUMPI PUSH2 0x100 DUP1 DUP4 SLOAD DIV MUL DUP4 MSTORE SWAP2 PUSH1 0x20 ADD SWAP2 PUSH2 0x15C JUMP JUMPDEST DUP3 ADD SWAP2 SWAP1 PUSH0 MSTORE PUSH1 0x20 PUSH0 KECCAK256 SWAP1 JUMPDEST DUP2 SLOAD DUP2 MSTORE SWAP1 PUSH1 0x1 ADD SWAP1 PUSH1 0x20 ADD DUP1 DUP4 GT PUSH2 0x13F JUMPI DUP3 SWAP1 SUB PUSH1 0x1F AND DUP3 ADD SWAP2 JUMPDEST POP POP POP POP POP DUP2 MSTORE PUSH1 0x20 ADD PUSH1 0x1 DUP3 ADD PUSH0 SWAP1 SLOAD SWAP1 PUSH2 0x100 EXP SWAP1 DIV PUSH20 0xFFFFFFFFFFFFFFFFFFFFFFFFFFFFFFFFFFFFFFFF AND PUSH20 0xFFFFFFFFFFFFFFFFFFFFFFFFFFFFFFFFFFFFFFFF AND PUSH20 0xFFFFFFFFFFFFFFFFFFFFFFFFFFFFFFFFFFFFFFFF AND DUP2 MSTORE PUSH1 0x20 ADD PUSH1 0x1 DUP3 ADD PUSH1 0x14 SWAP1 SLOAD SWAP1 PUSH2 0x100 EXP SWAP1 DIV PUSH1 0xFF AND PUSH1 0xFF AND PUSH1 0xFF AND DUP2 MSTORE PUSH1 0x20 ADD PUSH1 0x2 DUP3 ADD DUP1 SLOAD PUSH2 0x1E7 SWAP1 PUSH2 0x836 JUMP JUMPDEST DUP1 PUSH1 0x1F ADD PUSH1 0x20 DUP1 SWAP2 DIV MUL PUSH1 0x20 ADD PUSH1 0x40 MLOAD SWAP1 DUP2 ADD PUSH1 0x40 MSTORE DUP1 SWAP3 SWAP2 SWAP1 DUP2 DUP2 MSTORE PUSH1 0x20 ADD DUP3 DUP1 SLOAD PUSH2 0x213 SWAP1 PUSH2 0x836 JUMP JUMPDEST DUP1 ISZERO PUSH2 0x25E JUMPI DUP1 PUSH1 0x1F LT PUSH2 0x235 JUMPI PUSH2 0x100 DUP1 DUP4 SLOAD DIV MUL DUP4 MSTORE SWAP2 PUSH1 0x20 ADD SWAP2 PUSH2 0x25E JUMP JUMPDEST DUP3 ADD SWAP2 SWAP1 PUSH0 MSTORE PUSH1 0x20 PUSH0 KECCAK256 SWAP1 JUMPDEST DUP2 SLOAD DUP2 MSTORE SWAP1 PUSH1 0x1 ADD SWAP1 PUSH1 0x20 ADD DUP1 DUP4 GT PUSH2 0x241 JUMPI DUP3 SWAP1 SUB PUSH1 0x1F AND DUP3 ADD SWAP2 JUMPDEST POP POP POP POP POP DUP2 MSTORE POP POP SWAP1 POP SWAP1 JUMP JUMPDEST PUSH0 PUSH1 0x40 MLOAD DUP1 PUSH1 0x80 ADD PUSH1 0x40 MSTORE DUP1 DUP6 DUP2 MSTORE PUSH1 0x20 ADD CALLER PUSH20 0xFFFFFFFFFFFFFFFFFFFFFFFFFFFFFFFFFFFFFFFF AND DUP2 MSTORE PUSH1 0x20 ADD DUP5 PUSH1 0xFF AND DUP2 MSTORE PUSH1 0x20 ADD DUP4 DUP2 MSTORE POP SWAP1 POP DUP1 PUSH0 DUP1 CALLER PUSH20 0xFFFFFFFFFFFFFFFFFFFFFFFFFFFFFFFFFFFFFFFF AND PUSH20 0xFFFFFFFFFFFFFFFFFFFFFFFFFFFFFFFFFFFFFFFF AND DUP2 MSTORE PUSH1 0x20 ADD SWAP1 DUP2 MSTORE PUSH1 0x20 ADD PUSH0 KECCAK256 PUSH0 DUP3 ADD MLOAD DUP2 PUSH0 ADD SWAP1 DUP2 PUSH2 0x2F9 SWAP2 SWAP1 PUSH2 0xA0C JUMP JUMPDEST POP PUSH1 0x20 DUP3 ADD MLOAD DUP2 PUSH1 0x1 ADD PUSH0 PUSH2 0x100 EXP DUP2 SLOAD DUP2 PUSH20 0xFFFFFFFFFFFFFFFFFFFFFFFFFFFFFFFFFFFFFFFF MUL NOT AND SWAP1 DUP4 PUSH20 0xFFFFFFFFFFFFFFFFFFFFFFFFFFFFFFFFFFFFFFFF AND MUL OR SWAP1 SSTORE POP PUSH1 0x40 DUP3 ADD MLOAD DUP2 PUSH1 0x1 ADD PUSH1 0x14 PUSH2 0x100 EXP DUP2 SLOAD DUP2 PUSH1 0xFF MUL NOT AND SWAP1 DUP4 PUSH1 0xFF AND MUL OR SWAP1 SSTORE POP PUSH1 0x60 DUP3 ADD MLOAD DUP2 PUSH1 0x2 ADD SWAP1 DUP2 PUSH2 0x376 SWAP2 SWAP1 PUSH2 0xA0C JUMP JUMPDEST POP SWAP1 POP POP POP POP POP POP JUMP JUMPDEST PUSH0 DUP1 CALLER PUSH20 0xFFFFFFFFFFFFFFFFFFFFFFFFFFFFFFFFFFFFFFFF AND PUSH20 0xFFFFFFFFFFFFFFFFFFFFFFFFFFFFFFFFFFFFFFFF AND DUP2 MSTORE PUSH1 0x20 ADD SWAP1 DUP2 MSTORE PUSH1 0x20 ADD PUSH0 KECCAK256 PUSH0 DUP1 DUP3 ADD PUSH0 PUSH2 0x3CB SWAP2 SWAP1 PUSH2 0x457 JUMP JUMPDEST PUSH1 0x1 DUP3 ADD PUSH0 PUSH2 0x100 EXP DUP2 SLOAD SWAP1 PUSH20 0xFFFFFFFFFFFFFFFFFFFFFFFFFFFFFFFFFFFFFFFF MUL NOT AND SWAP1 SSTORE PUSH1 0x1 DUP3 ADD PUSH1 0x14 PUSH2 0x100 EXP DUP2 SLOAD SWAP1 PUSH1 0xFF MUL NOT AND SWAP1 SSTORE PUSH1 0x2 DUP3 ADD PUSH0 PUSH2 0x414 SWAP2 SWAP1 PUSH2 0x457 JUMP JUMPDEST POP POP JUMP JUMPDEST PUSH1 0x40 MLOAD DUP1 PUSH1 0x80 ADD PUSH1 0x40 MSTORE DUP1 PUSH1 0x60 DUP2 MSTORE PUSH1 0x20 ADD PUSH0 PUSH20 0xFFFFFFFFFFFFFFFFFFFFFFFFFFFFFFFFFFFFFFFF AND DUP2 MSTORE PUSH1 0x20 ADD PUSH0 PUSH1 0xFF AND DUP2 MSTORE PUSH1 0x20 ADD PUSH1 0x60 DUP2 MSTORE POP SWAP1 JUMP JUMPDEST POP DUP1 SLOAD PUSH2 0x463 SWAP1 PUSH2 0x836 JUMP JUMPDEST PUSH0 DUP3 SSTORE DUP1 PUSH1 0x1F LT PUSH2 0x474 JUMPI POP PUSH2 0x491 JUMP JUMPDEST PUSH1 0x1F ADD PUSH1 0x20 SWAP1 DIV SWAP1 PUSH0 MSTORE PUSH1 0x20 PUSH0 KECCAK256 SWAP1 DUP2 ADD SWAP1 PUSH2 0x490 SWAP2 SWAP1 PUSH2 0x494 JUMP JUMPDEST JUMPDEST POP JUMP JUMPDEST JUMPDEST DUP1 DUP3 GT ISZERO PUSH2 0x4AB JUMPI PUSH0 DUP2 PUSH0 SWAP1 SSTORE POP PUSH1 0x1 ADD PUSH2 0x495 JUMP JUMPDEST POP SWAP1 JUMP JUMPDEST PUSH0 DUP2 MLOAD SWAP1 POP SWAP2 SWAP1 POP JUMP JUMPDEST PUSH0 DUP3 DUP3 MSTORE PUSH1 0x20 DUP3 ADD SWAP1 POP SWAP3 SWAP2 POP POP JUMP JUMPDEST PUSH0 JUMPDEST DUP4 DUP2 LT ISZERO PUSH2 0x4E6 JUMPI DUP1 DUP3 ADD MLOAD DUP2 DUP5 ADD MSTORE PUSH1 0x20 DUP2 ADD SWAP1 POP PUSH2 0x4CB JUMP JUMPDEST PUSH0 DUP5 DUP5 ADD MSTORE POP POP POP POP JUMP JUMPDEST PUSH0 PUSH1 0x1F NOT PUSH1 0x1F DUP4 ADD AND SWAP1 POP SWAP2 SWAP1 POP JUMP JUMPDEST PUSH0 PUSH2 0x50B DUP3 PUSH2 0x4AF JUMP JUMPDEST PUSH2 0x515 DUP2 DUP6 PUSH2 0x4B9 JUMP JUMPDEST SWAP4 POP PUSH2 0x525 DUP2 DUP6 PUSH1 0x20 DUP7 ADD PUSH2 0x4C9 JUMP JUMPDEST PUSH2 0x52E DUP2 PUSH2 0x4F1 JUMP JUMPDEST DUP5 ADD SWAP2 POP POP SWAP3 SWAP2 POP POP JUMP JUMPDEST PUSH0 PUSH20 0xFFFFFFFFFFFFFFFFFFFFFFFFFFFFFFFFFFFFFFFF DUP3 AND SWAP1 POP SWAP2 SWAP1 POP JUMP JUMPDEST PUSH0 PUSH2 0x562 DUP3 PUSH2 0x539 JUMP JUMPDEST SWAP1 POP SWAP2 SWAP1 POP JUMP JUMPDEST PUSH2 0x572 DUP2 PUSH2 0x558 JUMP JUMPDEST DUP3 MSTORE POP POP JUMP JUMPDEST PUSH0 PUSH1 0xFF DUP3 AND SWAP1 POP SWAP2 SWAP1 POP JUMP JUMPDEST PUSH2 0x58D DUP2 PUSH2 0x578 JUMP JUMPDEST DUP3 MSTORE POP POP JUMP JUMPDEST PUSH0 PUSH1 0x80 DUP4 ADD PUSH0 DUP4 ADD MLOAD DUP5 DUP3 SUB PUSH0 DUP7 ADD MSTORE PUSH2 0x5AD DUP3 DUP3 PUSH2 0x501 JUMP JUMPDEST SWAP2 POP POP PUSH1 0x20 DUP4 ADD MLOAD PUSH2 0x5C2 PUSH1 0x20 DUP7 ADD DUP3 PUSH2 0x569 JUMP JUMPDEST POP PUSH1 0x40 DUP4 ADD MLOAD PUSH2 0x5D5 PUSH1 0x40 DUP7 ADD DUP3 PUSH2 0x584 JUMP JUMPDEST POP PUSH1 0x60 DUP4 ADD MLOAD DUP5 DUP3 SUB PUSH1 0x60 DUP7 ADD MSTORE PUSH2 0x5ED DUP3 DUP3 PUSH2 0x501 JUMP JUMPDEST SWAP2 POP POP DUP1 SWAP2 POP POP SWAP3 SWAP2 POP POP JUMP JUMPDEST PUSH0 PUSH1 0x20 DUP3 ADD SWAP1 POP DUP2 DUP2 SUB PUSH0 DUP4 ADD MSTORE PUSH2 0x612 DUP2 DUP5 PUSH2 0x593 JUMP JUMPDEST SWAP1 POP SWAP3 SWAP2 POP POP JUMP JUMPDEST PUSH0 PUSH1 0x40 MLOAD SWAP1 POP SWAP1 JUMP JUMPDEST PUSH0 DUP1 REVERT JUMPDEST PUSH0 DUP1 REVERT JUMPDEST PUSH0 DUP1 REVERT JUMPDEST PUSH0 DUP1 REVERT JUMPDEST PUSH32 0x4E487B7100000000000000000000000000000000000000000000000000000000 PUSH0 MSTORE PUSH1 0x41 PUSH1 0x4 MSTORE PUSH1 0x24 PUSH0 REVERT JUMPDEST PUSH2 0x669 DUP3 PUSH2 0x4F1 JUMP JUMPDEST DUP2 ADD DUP2 DUP2 LT PUSH8 0xFFFFFFFFFFFFFFFF DUP3 GT OR ISZERO PUSH2 0x688 JUMPI PUSH2 0x687 PUSH2 0x633 JUMP JUMPDEST JUMPDEST DUP1 PUSH1 0x40 MSTORE POP POP POP JUMP JUMPDEST PUSH0 PUSH2 0x69A PUSH2 0x61A JUMP JUMPDEST SWAP1 POP PUSH2 0x6A6 DUP3 DUP3 PUSH2 0x660 JUMP JUMPDEST SWAP2 SWAP1 POP JUMP JUMPDEST PUSH0 PUSH8 0xFFFFFFFFFFFFFFFF DUP3 GT ISZERO PUSH2 0x6C5 JUMPI PUSH2 0x6C4 PUSH2 0x633 JUMP JUMPDEST JUMPDEST PUSH2 0x6CE DUP3 PUSH2 0x4F1 JUMP JUMPDEST SWAP1 POP PUSH1 0x20 DUP2 ADD SWAP1 POP SWAP2 SWAP1 POP JUMP JUMPDEST DUP3 DUP2 DUP4 CALLDATACOPY PUSH0 DUP4 DUP4 ADD MSTORE POP POP POP JUMP JUMPDEST PUSH0 PUSH2 0x6FB PUSH2 0x6F6 DUP5 PUSH2 0x6AB JUMP JUMPDEST PUSH2 0x691 JUMP JUMPDEST SWAP1 POP DUP3 DUP2 MSTORE PUSH1 0x20 DUP2 ADD DUP5 DUP5 DUP5 ADD GT ISZERO PUSH2 0x717 JUMPI PUSH2 0x716 PUSH2 0x62F JUMP JUMPDEST JUMPDEST PUSH2 0x722 DUP5 DUP3 DUP6 PUSH2 0x6DB JUMP JUMPDEST POP SWAP4 SWAP3 POP POP POP JUMP JUMPDEST PUSH0 DUP3 PUSH1 0x1F DUP4 ADD SLT PUSH2 0x73E JUMPI PUSH2 0x73D PUSH2 0x62B JUMP JUMPDEST JUMPDEST DUP2 CALLDATALOAD PUSH2 0x74E DUP5 DUP3 PUSH1 0x20 DUP7 ADD PUSH2 0x6E9 JUMP JUMPDEST SWAP2 POP POP SWAP3 SWAP2 POP POP JUMP JUMPDEST PUSH2 0x760 DUP2 PUSH2 0x578 JUMP JUMPDEST DUP2 EQ PUSH2 0x76A JUMPI PUSH0 DUP1 REVERT JUMPDEST POP JUMP JUMPDEST PUSH0 DUP2 CALLDATALOAD SWAP1 POP PUSH2 0x77B DUP2 PUSH2 0x757 JUMP JUMPDEST SWAP3 SWAP2 POP POP JUMP JUMPDEST PUSH0 DUP1 PUSH0 PUSH1 0x60 DUP5 DUP7 SUB SLT ISZERO PUSH2 0x798 JUMPI PUSH2 0x797 PUSH2 0x623 JUMP JUMPDEST JUMPDEST PUSH0 DUP5 ADD CALLDATALOAD PUSH8 0xFFFFFFFFFFFFFFFF DUP2 GT ISZERO PUSH2 0x7B5 JUMPI PUSH2 0x7B4 PUSH2 0x627 JUMP JUMPDEST JUMPDEST PUSH2 0x7C1 DUP7 DUP3 DUP8 ADD PUSH2 0x72A JUMP JUMPDEST SWAP4 POP POP PUSH1 0x20 PUSH2 0x7D2 DUP7 DUP3 DUP8 ADD PUSH2 0x76D JUMP JUMPDEST SWAP3 POP POP PUSH1 0x40 DUP5 ADD CALLDATALOAD PUSH8 0xFFFFFFFFFFFFFFFF DUP2 GT ISZERO PUSH2 0x7F3 JUMPI PUSH2 0x7F2 PUSH2 0x627 JUMP JUMPDEST JUMPDEST PUSH2 0x7FF DUP7 DUP3 DUP8 ADD PUSH2 0x72A JUMP JUMPDEST SWAP2 POP POP SWAP3 POP SWAP3 POP SWAP3 JUMP JUMPDEST PUSH32 0x4E487B7100000000000000000000000000000000000000000000000000000000 PUSH0 MSTORE PUSH1 0x22 PUSH1 0x4 MSTORE PUSH1 0x24 PUSH0 REVERT JUMPDEST PUSH0 PUSH1 0x2 DUP3 DIV SWAP1 POP PUSH1 0x1 DUP3 AND DUP1 PUSH2 0x84D JUMPI PUSH1 0x7F DUP3 AND SWAP2 POP JUMPDEST PUSH1 0x20 DUP3 LT DUP2 SUB PUSH2 0x860 JUMPI PUSH2 0x85F PUSH2 0x809 JUMP JUMPDEST JUMPDEST POP SWAP2 SWAP1 POP JUMP JUMPDEST PUSH0 DUP2 SWAP1 POP DUP2 PUSH0 MSTORE PUSH1 0x20 PUSH0 KECCAK256 SWAP1 POP SWAP2 SWAP1 POP JUMP JUMPDEST PUSH0 PUSH1 0x20 PUSH1 0x1F DUP4 ADD DIV SWAP1 POP SWAP2 SWAP1 POP JUMP JUMPDEST PUSH0 DUP3 DUP3 SHL SWAP1 POP SWAP3 SWAP2 POP POP JUMP JUMPDEST PUSH0 PUSH1 0x8 DUP4 MUL PUSH2 0x8C2 PUSH32 0xFFFFFFFFFFFFFFFFFFFFFFFFFFFFFFFFFFFFFFFFFFFFFFFFFFFFFFFFFFFFFFFF DUP3 PUSH2 0x887 JUMP JUMPDEST PUSH2 0x8CC DUP7 DUP4 PUSH2 0x887 JUMP JUMPDEST SWAP6 POP DUP1 NOT DUP5 AND SWAP4 POP DUP1 DUP7 AND DUP5 OR SWAP3 POP POP POP SWAP4 SWAP3 POP POP POP JUMP JUMPDEST PUSH0 DUP2 SWAP1 POP SWAP2 SWAP1 POP JUMP JUMPDEST PUSH0 DUP2 SWAP1 POP SWAP2 SWAP1 POP JUMP JUMPDEST PUSH0 PUSH2 0x910 PUSH2 0x90B PUSH2 0x906 DUP5 PUSH2 0x8E4 JUMP JUMPDEST PUSH2 0x8ED JUMP JUMPDEST PUSH2 0x8E4 JUMP JUMPDEST SWAP1 POP SWAP2 SWAP1 POP JUMP JUMPDEST PUSH0 DUP2 SWAP1 POP SWAP2 SWAP1 POP JUMP JUMPDEST PUSH2 0x929 DUP4 PUSH2 0x8F6 JUMP JUMPDEST PUSH2 0x93D PUSH2 0x935 DUP3 PUSH2 0x917 JUMP JUMPDEST DUP5 DUP5 SLOAD PUSH2 0x893 JUMP JUMPDEST DUP3 SSTORE POP POP POP POP JUMP JUMPDEST PUSH0 SWAP1 JUMP JUMPDEST PUSH2 0x951 PUSH2 0x945 JUMP JUMPDEST PUSH2 0x95C DUP2 DUP5 DUP5 PUSH2 0x920 JUMP JUMPDEST POP POP POP JUMP JUMPDEST JUMPDEST DUP2 DUP2 LT ISZERO PUSH2 0x97F JUMPI PUSH2 0x974 PUSH0 DUP3 PUSH2 0x949 JUMP JUMPDEST PUSH1 0x1 DUP2 ADD SWAP1 POP PUSH2 0x962 JUMP JUMPDEST POP POP JUMP JUMPDEST PUSH1 0x1F DUP3 GT ISZERO PUSH2 0x9C4 JUMPI PUSH2 0x995 DUP2 PUSH2 0x866 JUMP JUMPDEST PUSH2 0x99E DUP5 PUSH2 0x878 JUMP JUMPDEST DUP2 ADD PUSH1 0x20 DUP6 LT ISZERO PUSH2 0x9AD JUMPI DUP2 SWAP1 POP JUMPDEST PUSH2 0x9C1 PUSH2 0x9B9 DUP6 PUSH2 0x878 JUMP JUMPDEST DUP4 ADD DUP3 PUSH2 0x961 JUMP JUMPDEST POP POP JUMPDEST POP POP POP JUMP JUMPDEST PUSH0 DUP3 DUP3 SHR SWAP1 POP SWAP3 SWAP2 POP POP JUMP JUMPDEST PUSH0 PUSH2 0x9E4 PUSH0 NOT DUP5 PUSH1 0x8 MUL PUSH2 0x9C9 JUMP JUMPDEST NOT DUP1 DUP4 AND SWAP2 POP POP SWAP3 SWAP2 POP POP JUMP JUMPDEST PUSH0 PUSH2 0x9FC DUP4 DUP4 PUSH2 0x9D5 JUMP JUMPDEST SWAP2 POP DUP3 PUSH1 0x2 MUL DUP3 OR SWAP1 POP SWAP3 SWAP2 POP POP JUMP JUMPDEST PUSH2 0xA15 DUP3 PUSH2 0x4AF JUMP JUMPDEST PUSH8 0xFFFFFFFFFFFFFFFF DUP2 GT ISZERO PUSH2 0xA2E JUMPI PUSH2 0xA2D PUSH2 0x633 JUMP JUMPDEST JUMPDEST PUSH2 0xA38 DUP3 SLOAD PUSH2 0x836 JUMP JUMPDEST PUSH2 0xA43 DUP3 DUP3 DUP6 PUSH2 0x983 JUMP JUMPDEST PUSH0 PUSH1 0x20 SWAP1 POP PUSH1 0x1F DUP4 GT PUSH1 0x1 DUP2 EQ PUSH2 0xA74 JUMPI PUSH0 DUP5 ISZERO PUSH2 0xA62 JUMPI DUP3 DUP8 ADD MLOAD SWAP1 POP JUMPDEST PUSH2 0xA6C DUP6 DUP3 PUSH2 0x9F1 JUMP JUMPDEST DUP7 SSTORE POP PUSH2 0xAD3 JUMP JUMPDEST PUSH1 0x1F NOT DUP5 AND PUSH2 0xA82 DUP7 PUSH2 0x866 JUMP JUMPDEST PUSH0 JUMPDEST DUP3 DUP2 LT ISZERO PUSH2 0xAA9 JUMPI DUP5 DUP10 ADD MLOAD DUP3 SSTORE PUSH1 0x1 DUP3 ADD SWAP2 POP PUSH1 0x20 DUP6 ADD SWAP5 POP PUSH1 0x20 DUP2 ADD SWAP1 POP PUSH2 0xA84 JUMP JUMPDEST DUP7 DUP4 LT ISZERO PUSH2 0xAC6 JUMPI DUP5 DUP10 ADD MLOAD PUSH2 0xAC2 PUSH1 0x1F DUP10 AND DUP3 PUSH2 0x9D5 JUMP JUMPDEST DUP4 SSTORE POP JUMPDEST PUSH1 0x1 PUSH1 0x2 DUP9 MUL ADD DUP9 SSTORE POP POP POP JUMPDEST POP POP POP POP POP POP JUMP INVALID LOG2 PUSH5 0x6970667358 0x22 SLT KECCAK256 0xED PUSH12 0xA1DFC57A8214BDB4EC9E22DB SWAP12 0x24 0xC MSTORE 0xAE PUSH18 0xEAA90119CF7D5DA3461B068F64736F6C6343 STOP ADDMOD OR STOP CALLER "
				},
				"gasEstimates": {
					"creation": {
						"codeDepositCost": "566600",
						"executionCost": "598",
						"totalCost": "567198"
					},
					"external": {
						"AddStudent(string,uint8,string)": "infinite",
						"DeleteMyData()": "infinite",
						"ShowMyData()": "infinite"
					}
				},
				"methodIdentifiers": {
					"AddStudent(string,uint8,string)": "8053b80b",
					"DeleteMyData()": "b9b11bd2",
					"ShowMyData()": "0910677c"
				}
			},
			"storageLayout": {
				"storage": [
					{
						"astId": 15,
						"contract": "contracts/Structure.sol:structure",
						"label": "Student_data",
						"offset": 0,
						"slot": "0",
						"type": "t_mapping(t_address,t_struct(student)10_storage)"
					}
				],
				"types": {
					"t_address": {
						"encoding": "inplace",
						"label": "address",
						"numberOfBytes": "20"
					},
					"t_mapping(t_address,t_struct(student)10_storage)": {
						"encoding": "mapping",
						"key": "t_address",
						"label": "mapping(address => struct structure.student)",
						"numberOfBytes": "32",
						"value": "t_struct(student)10_storage"
					},
					"t_string_storage": {
						"encoding": "bytes",
						"label": "string",
						"numberOfBytes": "32"
					},
					"t_struct(student)10_storage": {
						"encoding": "inplace",
						"label": "struct structure.student",
						"members": [
							{
								"astId": 3,
								"contract": "contracts/Structure.sol:structure",
								"label": "Name",
								"offset": 0,
								"slot": "0",
								"type": "t_string_storage"
							},
							{
								"astId": 5,
								"contract": "contracts/Structure.sol:structure",
								"label": "Account",
								"offset": 0,
								"slot": "1",
								"type": "t_address"
							},
							{
								"astId": 7,
								"contract": "contracts/Structure.sol:structure",
								"label": "age",
								"offset": 20,
								"slot": "1",
								"type": "t_uint8"
							},
							{
								"astId": 9,
								"contract": "contracts/Structure.sol:structure",
								"label": "Location",
								"offset": 0,
								"slot": "2",
								"type": "t_string_storage"
							}
						],
						"numberOfBytes": "96"
					},
					"t_uint8": {
						"encoding": "inplace",
						"label": "uint8",
						"numberOfBytes": "1"
					}
				}
			},
			"userdoc": {
				"kind": "user",
				"methods": {},
				"version": 1
			}
		}
	}
}