{
	"contracts/Twitter0.8v.sol": {
		"Twitter": {
			"abi": [
				{
					"inputs": [],
					"stateMutability": "nonpayable",
					"type": "constructor"
				},
				{
					"inputs": [
						{
							"internalType": "address",
							"name": "owner",
							"type": "address"
						}
					],
					"name": "OwnableInvalidOwner",
					"type": "error"
				},
				{
					"inputs": [
						{
							"internalType": "address",
							"name": "account",
							"type": "address"
						}
					],
					"name": "OwnableUnauthorizedAccount",
					"type": "error"
				},
				{
					"anonymous": false,
					"inputs": [
						{
							"indexed": true,
							"internalType": "address",
							"name": "previousOwner",
							"type": "address"
						},
						{
							"indexed": true,
							"internalType": "address",
							"name": "newOwner",
							"type": "address"
						}
					],
					"name": "OwnershipTransferred",
					"type": "event"
				},
				{
					"anonymous": false,
					"inputs": [
						{
							"indexed": false,
							"internalType": "uint256",
							"name": "id",
							"type": "uint256"
						},
						{
							"indexed": false,
							"internalType": "address",
							"name": "author",
							"type": "address"
						},
						{
							"indexed": false,
							"internalType": "string",
							"name": "content",
							"type": "string"
						},
						{
							"indexed": false,
							"internalType": "uint256",
							"name": "timestamp",
							"type": "uint256"
						}
					],
					"name": "TweetCreated",
					"type": "event"
				},
				{
					"anonymous": false,
					"inputs": [
						{
							"indexed": false,
							"internalType": "address",
							"name": "liker",
							"type": "address"
						},
						{
							"indexed": false,
							"internalType": "address",
							"name": "author",
							"type": "address"
						},
						{
							"indexed": false,
							"internalType": "uint256",
							"name": "likecount",
							"type": "uint256"
						},
						{
							"indexed": false,
							"internalType": "uint256",
							"name": "id",
							"type": "uint256"
						}
					],
					"name": "TweetLiked",
					"type": "event"
				},
				{
					"inputs": [
						{
							"internalType": "uint256",
							"name": "newTweetLen",
							"type": "uint256"
						}
					],
					"name": "ChangeTweetLength",
					"outputs": [],
					"stateMutability": "nonpayable",
					"type": "function"
				},
				{
					"inputs": [],
					"name": "DeleteAllTweets",
					"outputs": [],
					"stateMutability": "nonpayable",
					"type": "function"
				},
				{
					"inputs": [],
					"name": "DeleteRecentTweet",
					"outputs": [],
					"stateMutability": "nonpayable",
					"type": "function"
				},
				{
					"inputs": [],
					"name": "GetAllTweets",
					"outputs": [
						{
							"components": [
								{
									"internalType": "uint256",
									"name": "id",
									"type": "uint256"
								},
								{
									"internalType": "string",
									"name": "content",
									"type": "string"
								},
								{
									"internalType": "address",
									"name": "author",
									"type": "address"
								},
								{
									"internalType": "uint256",
									"name": "timestamp",
									"type": "uint256"
								},
								{
									"internalType": "address[]",
									"name": "likes",
									"type": "address[]"
								},
								{
									"internalType": "uint256",
									"name": "LikesCount",
									"type": "uint256"
								},
								{
									"internalType": "uint256",
									"name": "unlikescount",
									"type": "uint256"
								},
								{
									"internalType": "address[]",
									"name": "unlikes",
									"type": "address[]"
								}
							],
							"internalType": "struct Twitter.Tweet[]",
							"name": "",
							"type": "tuple[]"
						}
					],
					"stateMutability": "view",
					"type": "function"
				},
				{
					"inputs": [
						{
							"internalType": "address",
							"name": "User",
							"type": "address"
						},
						{
							"internalType": "uint256",
							"name": "Index",
							"type": "uint256"
						}
					],
					"name": "GetTweet",
					"outputs": [
						{
							"components": [
								{
									"internalType": "uint256",
									"name": "id",
									"type": "uint256"
								},
								{
									"internalType": "string",
									"name": "content",
									"type": "string"
								},
								{
									"internalType": "address",
									"name": "author",
									"type": "address"
								},
								{
									"internalType": "uint256",
									"name": "timestamp",
									"type": "uint256"
								},
								{
									"internalType": "address[]",
									"name": "likes",
									"type": "address[]"
								},
								{
									"internalType": "uint256",
									"name": "LikesCount",
									"type": "uint256"
								},
								{
									"internalType": "uint256",
									"name": "unlikescount",
									"type": "uint256"
								},
								{
									"internalType": "address[]",
									"name": "unlikes",
									"type": "address[]"
								}
							],
							"internalType": "struct Twitter.Tweet",
							"name": "",
							"type": "tuple"
						}
					],
					"stateMutability": "view",
					"type": "function"
				},
				{
					"inputs": [
						{
							"internalType": "address",
							"name": "User",
							"type": "address"
						},
						{
							"internalType": "uint256",
							"name": "TweetIndex",
							"type": "uint256"
						}
					],
					"name": "LikesTweet",
					"outputs": [],
					"stateMutability": "nonpayable",
					"type": "function"
				},
				{
					"inputs": [
						{
							"internalType": "address",
							"name": "User",
							"type": "address"
						},
						{
							"internalType": "uint256",
							"name": "TweetIndex",
							"type": "uint256"
						}
					],
					"name": "UnlikeTweet",
					"outputs": [],
					"stateMutability": "nonpayable",
					"type": "function"
				},
				{
					"inputs": [
						{
							"internalType": "string",
							"name": "_tweet",
							"type": "string"
						}
					],
					"name": "createTweet",
					"outputs": [],
					"stateMutability": "nonpayable",
					"type": "function"
				},
				{
					"inputs": [
						{
							"internalType": "address",
							"name": "author",
							"type": "address"
						}
					],
					"name": "getTotalLikes",
					"outputs": [
						{
							"internalType": "uint256",
							"name": "",
							"type": "uint256"
						}
					],
					"stateMutability": "view",
					"type": "function"
				},
				{
					"inputs": [
						{
							"internalType": "address",
							"name": "author",
							"type": "address"
						}
					],
					"name": "getTotalUnLikes",
					"outputs": [
						{
							"internalType": "uint256",
							"name": "",
							"type": "uint256"
						}
					],
					"stateMutability": "view",
					"type": "function"
				},
				{
					"inputs": [],
					"name": "owner",
					"outputs": [
						{
							"internalType": "address",
							"name": "",
							"type": "address"
						}
					],
					"stateMutability": "view",
					"type": "function"
				},
				{
					"inputs": [],
					"name": "renounceOwnership",
					"outputs": [],
					"stateMutability": "nonpayable",
					"type": "function"
				},
				{
					"inputs": [
						{
							"internalType": "address",
							"name": "newOwner",
							"type": "address"
						}
					],
					"name": "transferOwnership",
					"outputs": [],
					"stateMutability": "nonpayable",
					"type": "function"
				}
			],
			"devdoc": {
				"errors": {
					"OwnableInvalidOwner(address)": [
						{
							"details": "The owner is not a valid owner account. (eg. `address(0)`)"
						}
					],
					"OwnableUnauthorizedAccount(address)": [
						{
							"details": "The caller account is not authorized to perform an operation."
						}
					]
				},
				"kind": "dev",
				"methods": {
					"owner()": {
						"details": "Returns the address of the current owner."
					},
					"renounceOwnership()": {
						"details": "Leaves the contract without owner. It will not be possible to call `onlyOwner` functions. Can only be called by the current owner. NOTE: Renouncing ownership will leave the contract without an owner, thereby disabling any functionality that is only available to the owner."
					},
					"transferOwnership(address)": {
						"details": "Transfers ownership of the contract to a new account (`newOwner`). Can only be called by the current owner."
					}
				},
				"version": 1
			},
			"evm": {
				"assembly": "    /* \"contracts/Twitter0.8v.sol\":378:5621  contract Twitter is Ownable {... */\n  mstore(0x40, 0x80)\n    /* \"contracts/Twitter0.8v.sol\":1138:1140  10 */\n  0x0a\n    /* \"contracts/Twitter0.8v.sol\":1116:1140  uint256 TweetLength = 10 */\n  0x01\n  sstore\n    /* \"contracts/Twitter0.8v.sol\":412:503  constructor() Ownable(msg.sender) {... */\n  callvalue\n  dup1\n  iszero\n  tag_1\n  jumpi\n  0x00\n  dup1\n  revert\ntag_1:\n  pop\n    /* \"contracts/Twitter0.8v.sol\":434:444  msg.sender */\n  caller\n    /* \"@openzeppelin/contracts/access/Ownable.sol\":1297:1298  0 */\n  0x00\n    /* \"@openzeppelin/contracts/access/Ownable.sol\":1273:1299  initialOwner == address(0) */\n  0xffffffffffffffffffffffffffffffffffffffff\n  and\n    /* \"@openzeppelin/contracts/access/Ownable.sol\":1273:1285  initialOwner */\n  dup2\n    /* \"@openzeppelin/contracts/access/Ownable.sol\":1273:1299  initialOwner == address(0) */\n  0xffffffffffffffffffffffffffffffffffffffff\n  and\n  sub\n    /* \"@openzeppelin/contracts/access/Ownable.sol\":1269:1364  if (initialOwner == address(0)) {... */\n  tag_5\n  jumpi\n    /* \"@openzeppelin/contracts/access/Ownable.sol\":1350:1351  0 */\n  0x00\n    /* \"@openzeppelin/contracts/access/Ownable.sol\":1322:1353  OwnableInvalidOwner(address(0)) */\n  mload(0x40)\n  0x1e4fbdf700000000000000000000000000000000000000000000000000000000\n  dup2\n  mstore\n  0x04\n  add\n  tag_6\n  swap2\n  swap1\n  tag_7\n  jump\t// in\ntag_6:\n  mload(0x40)\n  dup1\n  swap2\n  sub\n  swap1\n  revert\n    /* \"@openzeppelin/contracts/access/Ownable.sol\":1269:1364  if (initialOwner == address(0)) {... */\ntag_5:\n    /* \"@openzeppelin/contracts/access/Ownable.sol\":1373:1405  _transferOwnership(initialOwner) */\n  tag_8\n    /* \"@openzeppelin/contracts/access/Ownable.sol\":1392:1404  initialOwner */\n  dup2\n    /* \"@openzeppelin/contracts/access/Ownable.sol\":1373:1391  _transferOwnership */\n  shl(0x20, tag_9)\n    /* \"@openzeppelin/contracts/access/Ownable.sol\":1373:1405  _transferOwnership(initialOwner) */\n  0x20\n  shr\n  jump\t// in\ntag_8:\n    /* \"@openzeppelin/contracts/access/Ownable.sol\":1225:1412  constructor(address initialOwner) {... */\n  pop\n    /* \"contracts/Twitter0.8v.sol\":378:5621  contract Twitter is Ownable {... */\n  jump(tag_11)\n    /* \"@openzeppelin/contracts/access/Ownable.sol\":2912:3099  function _transferOwnership(address newOwner) internal virtual {... */\ntag_9:\n    /* \"@openzeppelin/contracts/access/Ownable.sol\":2985:3001  address oldOwner */\n  0x00\n    /* \"@openzeppelin/contracts/access/Ownable.sol\":3004:3010  _owner */\n  dup1\n  0x00\n  swap1\n  sload\n  swap1\n  0x0100\n  exp\n  swap1\n  div\n  0xffffffffffffffffffffffffffffffffffffffff\n  and\n    /* \"@openzeppelin/contracts/access/Ownable.sol\":2985:3010  address oldOwner = _owner */\n  swap1\n  pop\n    /* \"@openzeppelin/contracts/access/Ownable.sol\":3029:3037  newOwner */\n  dup2\n    /* \"@openzeppelin/contracts/access/Ownable.sol\":3020:3026  _owner */\n  0x00\n  dup1\n    /* \"@openzeppelin/contracts/access/Ownable.sol\":3020:3037  _owner = newOwner */\n  0x0100\n  exp\n  dup2\n  sload\n  dup2\n  0xffffffffffffffffffffffffffffffffffffffff\n  mul\n  not\n  and\n  swap1\n  dup4\n  0xffffffffffffffffffffffffffffffffffffffff\n  and\n  mul\n  or\n  swap1\n  sstore\n  pop\n    /* \"@openzeppelin/contracts/access/Ownable.sol\":3083:3091  newOwner */\n  dup2\n    /* \"@openzeppelin/contracts/access/Ownable.sol\":3052:3092  OwnershipTransferred(oldOwner, newOwner) */\n  0xffffffffffffffffffffffffffffffffffffffff\n  and\n    /* \"@openzeppelin/contracts/access/Ownable.sol\":3073:3081  oldOwner */\n  dup2\n    /* \"@openzeppelin/contracts/access/Ownable.sol\":3052:3092  OwnershipTransferred(oldOwner, newOwner) */\n  0xffffffffffffffffffffffffffffffffffffffff\n  and\n  0x8be0079c531659141344cd1fd0a4f28419497f9722a3daafe3b4186f6b6457e0\n  mload(0x40)\n  mload(0x40)\n  dup1\n  swap2\n  sub\n  swap1\n  log3\n    /* \"@openzeppelin/contracts/access/Ownable.sol\":2975:3099  {... */\n  pop\n    /* \"@openzeppelin/contracts/access/Ownable.sol\":2912:3099  function _transferOwnership(address newOwner) internal virtual {... */\n  pop\n  jump\t// out\n    /* \"#utility.yul\":7:133   */\ntag_13:\n    /* \"#utility.yul\":44:51   */\n  0x00\n    /* \"#utility.yul\":84:126   */\n  0xffffffffffffffffffffffffffffffffffffffff\n    /* \"#utility.yul\":77:82   */\n  dup3\n    /* \"#utility.yul\":73:127   */\n  and\n    /* \"#utility.yul\":62:127   */\n  swap1\n  pop\n    /* \"#utility.yul\":7:133   */\n  swap2\n  swap1\n  pop\n  jump\t// out\n    /* \"#utility.yul\":139:235   */\ntag_14:\n    /* \"#utility.yul\":176:183   */\n  0x00\n    /* \"#utility.yul\":205:229   */\n  tag_19\n    /* \"#utility.yul\":223:228   */\n  dup3\n    /* \"#utility.yul\":205:229   */\n  tag_13\n  jump\t// in\ntag_19:\n    /* \"#utility.yul\":194:229   */\n  swap1\n  pop\n    /* \"#utility.yul\":139:235   */\n  swap2\n  swap1\n  pop\n  jump\t// out\n    /* \"#utility.yul\":241:359   */\ntag_15:\n    /* \"#utility.yul\":328:352   */\n  tag_21\n    /* \"#utility.yul\":346:351   */\n  dup2\n    /* \"#utility.yul\":328:352   */\n  tag_14\n  jump\t// in\ntag_21:\n    /* \"#utility.yul\":323:326   */\n  dup3\n    /* \"#utility.yul\":316:353   */\n  mstore\n    /* \"#utility.yul\":241:359   */\n  pop\n  pop\n  jump\t// out\n    /* \"#utility.yul\":365:587   */\ntag_7:\n    /* \"#utility.yul\":458:462   */\n  0x00\n    /* \"#utility.yul\":496:498   */\n  0x20\n    /* \"#utility.yul\":485:494   */\n  dup3\n    /* \"#utility.yul\":481:499   */\n  add\n    /* \"#utility.yul\":473:499   */\n  swap1\n  pop\n    /* \"#utility.yul\":509:580   */\n  tag_23\n    /* \"#utility.yul\":577:578   */\n  0x00\n    /* \"#utility.yul\":566:575   */\n  dup4\n    /* \"#utility.yul\":562:579   */\n  add\n    /* \"#utility.yul\":553:559   */\n  dup5\n    /* \"#utility.yul\":509:580   */\n  tag_15\n  jump\t// in\ntag_23:\n    /* \"#utility.yul\":365:587   */\n  swap3\n  swap2\n  pop\n  pop\n  jump\t// out\n    /* \"contracts/Twitter0.8v.sol\":378:5621  contract Twitter is Ownable {... */\ntag_11:\n  dataSize(sub_0)\n  dup1\n  dataOffset(sub_0)\n  0x00\n  codecopy\n  0x00\n  return\nstop\n\nsub_0: assembly {\n        /* \"contracts/Twitter0.8v.sol\":378:5621  contract Twitter is Ownable {... */\n      mstore(0x40, 0x80)\n      callvalue\n      dup1\n      iszero\n      tag_1\n      jumpi\n      0x00\n      dup1\n      revert\n    tag_1:\n      pop\n      jumpi(tag_2, lt(calldatasize, 0x04))\n      shr(0xe0, calldataload(0x00))\n      dup1\n      0x7c9cd2bc\n      gt\n      tag_16\n      jumpi\n      dup1\n      0xa110e72d\n      gt\n      tag_17\n      jumpi\n      dup1\n      0xa110e72d\n      eq\n      tag_12\n      jumpi\n      dup1\n      0xa6156d77\n      eq\n      tag_13\n      jumpi\n      dup1\n      0xe479c244\n      eq\n      tag_14\n      jumpi\n      dup1\n      0xf2fde38b\n      eq\n      tag_15\n      jumpi\n      jump(tag_2)\n    tag_17:\n      dup1\n      0x7c9cd2bc\n      eq\n      tag_9\n      jumpi\n      dup1\n      0x820785cc\n      eq\n      tag_10\n      jumpi\n      dup1\n      0x8da5cb5b\n      eq\n      tag_11\n      jumpi\n      jump(tag_2)\n    tag_16:\n      dup1\n      0x1216cdc5\n      eq\n      tag_3\n      jumpi\n      dup1\n      0x37f36a4c\n      eq\n      tag_4\n      jumpi\n      dup1\n      0x42d7fbc0\n      eq\n      tag_5\n      jumpi\n      dup1\n      0x715018a6\n      eq\n      tag_6\n      jumpi\n      dup1\n      0x71e7eb12\n      eq\n      tag_7\n      jumpi\n      dup1\n      0x765fab45\n      eq\n      tag_8\n      jumpi\n    tag_2:\n      0x00\n      dup1\n      revert\n        /* \"contracts/Twitter0.8v.sol\":4001:4597  function LikesTweet(address User, uint256 TweetIndex)... */\n    tag_3:\n      tag_18\n      0x04\n      dup1\n      calldatasize\n      sub\n      dup2\n      add\n      swap1\n      tag_19\n      swap2\n      swap1\n      tag_20\n      jump\t// in\n    tag_19:\n      tag_21\n      jump\t// in\n    tag_18:\n      stop\n        /* \"contracts/Twitter0.8v.sol\":3661:3822  function GetTweet(address User, uint256 Index)... */\n    tag_4:\n      tag_22\n      0x04\n      dup1\n      calldatasize\n      sub\n      dup2\n      add\n      swap1\n      tag_23\n      swap2\n      swap1\n      tag_20\n      jump\t// in\n    tag_23:\n      tag_24\n      jump\t// in\n    tag_22:\n      mload(0x40)\n      tag_25\n      swap2\n      swap1\n      tag_26\n      jump\t// in\n    tag_25:\n      mload(0x40)\n      dup1\n      swap2\n      sub\n      swap1\n      return\n        /* \"contracts/Twitter0.8v.sol\":3548:3655  function GetAllTweets() public view returns (Tweet[] memory) {... */\n    tag_5:\n      tag_27\n      tag_28\n      jump\t// in\n    tag_27:\n      mload(0x40)\n      tag_29\n      swap2\n      swap1\n      tag_30\n      jump\t// in\n    tag_29:\n      mload(0x40)\n      dup1\n      swap2\n      sub\n      swap1\n      return\n        /* \"@openzeppelin/contracts/access/Ownable.sol\":2293:2394  function renounceOwnership() public virtual onlyOwner {... */\n    tag_6:\n      tag_31\n      tag_32\n      jump\t// in\n    tag_31:\n      stop\n        /* \"contracts/Twitter0.8v.sol\":3828:3909  function DeleteRecentTweet() public {... */\n    tag_7:\n      tag_33\n      tag_34\n      jump\t// in\n    tag_33:\n      stop\n        /* \"contracts/Twitter0.8v.sol\":3915:3995  function DeleteAllTweets() public {... */\n    tag_8:\n      tag_35\n      tag_36\n      jump\t// in\n    tag_35:\n      stop\n        /* \"contracts/Twitter0.8v.sol\":1322:2431  function createTweet(string memory _tweet) public {... */\n    tag_9:\n      tag_37\n      0x04\n      dup1\n      calldatasize\n      sub\n      dup2\n      add\n      swap1\n      tag_38\n      swap2\n      swap1\n      tag_39\n      jump\t// in\n    tag_38:\n      tag_40\n      jump\t// in\n    tag_37:\n      stop\n        /* \"contracts/Twitter0.8v.sol\":5027:5314  function getTotalLikes(address author) external view returns (uint256) {... */\n    tag_10:\n      tag_41\n      0x04\n      dup1\n      calldatasize\n      sub\n      dup2\n      add\n      swap1\n      tag_42\n      swap2\n      swap1\n      tag_43\n      jump\t// in\n    tag_42:\n      tag_44\n      jump\t// in\n    tag_41:\n      mload(0x40)\n      tag_45\n      swap2\n      swap1\n      tag_46\n      jump\t// in\n    tag_45:\n      mload(0x40)\n      dup1\n      swap2\n      sub\n      swap1\n      return\n        /* \"@openzeppelin/contracts/access/Ownable.sol\":1638:1723  function owner() public view virtual returns (address) {... */\n    tag_11:\n      tag_47\n      tag_48\n      jump\t// in\n    tag_47:\n      mload(0x40)\n      tag_49\n      swap2\n      swap1\n      tag_50\n      jump\t// in\n    tag_49:\n      mload(0x40)\n      dup1\n      swap2\n      sub\n      swap1\n      return\n        /* \"contracts/Twitter0.8v.sol\":4603:5021  function UnlikeTweet(address User, uint256 TweetIndex)... */\n    tag_12:\n      tag_51\n      0x04\n      dup1\n      calldatasize\n      sub\n      dup2\n      add\n      swap1\n      tag_52\n      swap2\n      swap1\n      tag_20\n      jump\t// in\n    tag_52:\n      tag_53\n      jump\t// in\n    tag_51:\n      stop\n        /* \"contracts/Twitter0.8v.sol\":5320:5619  function getTotalUnLikes(address author) external view returns (uint256) {... */\n    tag_13:\n      tag_54\n      0x04\n      dup1\n      calldatasize\n      sub\n      dup2\n      add\n      swap1\n      tag_55\n      swap2\n      swap1\n      tag_43\n      jump\t// in\n    tag_55:\n      tag_56\n      jump\t// in\n    tag_54:\n      mload(0x40)\n      tag_57\n      swap2\n      swap1\n      tag_46\n      jump\t// in\n    tag_57:\n      mload(0x40)\n      dup1\n      swap2\n      sub\n      swap1\n      return\n        /* \"contracts/Twitter0.8v.sol\":1147:1253  function ChangeTweetLength(uint256 newTweetLen) public onlyOwner{... */\n    tag_14:\n      tag_58\n      0x04\n      dup1\n      calldatasize\n      sub\n      dup2\n      add\n      swap1\n      tag_59\n      swap2\n      swap1\n      tag_60\n      jump\t// in\n    tag_59:\n      tag_61\n      jump\t// in\n    tag_58:\n      stop\n        /* \"@openzeppelin/contracts/access/Ownable.sol\":2543:2758  function transferOwnership(address newOwner) public virtual onlyOwner {... */\n    tag_15:\n      tag_62\n      0x04\n      dup1\n      calldatasize\n      sub\n      dup2\n      add\n      swap1\n      tag_63\n      swap2\n      swap1\n      tag_43\n      jump\t// in\n    tag_63:\n      tag_64\n      jump\t// in\n    tag_62:\n      stop\n        /* \"contracts/Twitter0.8v.sol\":4001:4597  function LikesTweet(address User, uint256 TweetIndex)... */\n    tag_21:\n        /* \"contracts/Twitter0.8v.sol\":4098:4102  User */\n      dup2\n        /* \"contracts/Twitter0.8v.sol\":4104:4114  TweetIndex */\n      dup2\n        /* \"contracts/Twitter0.8v.sol\":2629:2637  bool res */\n      0x00\n        /* \"contracts/Twitter0.8v.sol\":2640:2644  true */\n      0x01\n        /* \"contracts/Twitter0.8v.sol\":2629:2644  bool res = true */\n      swap1\n      pop\n        /* \"contracts/Twitter0.8v.sol\":2715:2717  id */\n      dup2\n        /* \"contracts/Twitter0.8v.sol\":2688:2698  Tweet_info */\n      0x03\n        /* \"contracts/Twitter0.8v.sol\":2688:2704  Tweet_info[User] */\n      0x00\n        /* \"contracts/Twitter0.8v.sol\":2699:2703  User */\n      dup6\n        /* \"contracts/Twitter0.8v.sol\":2688:2704  Tweet_info[User] */\n      0xffffffffffffffffffffffffffffffffffffffff\n      and\n      0xffffffffffffffffffffffffffffffffffffffff\n      and\n      dup2\n      mstore\n      0x20\n      add\n      swap1\n      dup2\n      mstore\n      0x20\n      add\n      0x00\n      keccak256\n        /* \"contracts/Twitter0.8v.sol\":2688:2711  Tweet_info[User].length */\n      dup1\n      sload\n      swap1\n      pop\n        /* \"contracts/Twitter0.8v.sol\":2688:2717  Tweet_info[User].length >= id */\n      lt\n      iszero\n        /* \"contracts/Twitter0.8v.sol\":2680:2744  require(Tweet_info[User].length >= id, \"This Tweet Not Exist !\") */\n      tag_66\n      jumpi\n      mload(0x40)\n      0x08c379a000000000000000000000000000000000000000000000000000000000\n      dup2\n      mstore\n      0x04\n      add\n      tag_67\n      swap1\n      tag_68\n      jump\t// in\n    tag_67:\n      mload(0x40)\n      dup1\n      swap2\n      sub\n      swap1\n      revert\n    tag_66:\n        /* \"contracts/Twitter0.8v.sol\":2760:2769  uint256 l */\n      0x00\n        /* \"contracts/Twitter0.8v.sol\":2755:2967  for (uint256 l = 0; l < Tweet_info[User][id - 1].likes.length; l++) {... */\n    tag_69:\n        /* \"contracts/Twitter0.8v.sol\":2779:2789  Tweet_info */\n      0x03\n        /* \"contracts/Twitter0.8v.sol\":2779:2795  Tweet_info[User] */\n      0x00\n        /* \"contracts/Twitter0.8v.sol\":2790:2794  User */\n      dup6\n        /* \"contracts/Twitter0.8v.sol\":2779:2795  Tweet_info[User] */\n      0xffffffffffffffffffffffffffffffffffffffff\n      and\n      0xffffffffffffffffffffffffffffffffffffffff\n      and\n      dup2\n      mstore\n      0x20\n      add\n      swap1\n      dup2\n      mstore\n      0x20\n      add\n      0x00\n      keccak256\n        /* \"contracts/Twitter0.8v.sol\":2801:2802  1 */\n      0x01\n        /* \"contracts/Twitter0.8v.sol\":2796:2798  id */\n      dup5\n        /* \"contracts/Twitter0.8v.sol\":2796:2802  id - 1 */\n      tag_72\n      swap2\n      swap1\n      tag_73\n      jump\t// in\n    tag_72:\n        /* \"contracts/Twitter0.8v.sol\":2779:2803  Tweet_info[User][id - 1] */\n      dup2\n      sload\n      dup2\n      lt\n      tag_74\n      jumpi\n      tag_75\n      tag_76\n      jump\t// in\n    tag_75:\n    tag_74:\n      swap1\n      0x00\n      mstore\n      keccak256(0x00, 0x20)\n      swap1\n      0x08\n      mul\n      add\n        /* \"contracts/Twitter0.8v.sol\":2779:2809  Tweet_info[User][id - 1].likes */\n      0x04\n      add\n        /* \"contracts/Twitter0.8v.sol\":2779:2816  Tweet_info[User][id - 1].likes.length */\n      dup1\n      sload\n      swap1\n      pop\n        /* \"contracts/Twitter0.8v.sol\":2775:2776  l */\n      dup2\n        /* \"contracts/Twitter0.8v.sol\":2775:2816  l < Tweet_info[User][id - 1].likes.length */\n      lt\n        /* \"contracts/Twitter0.8v.sol\":2755:2967  for (uint256 l = 0; l < Tweet_info[User][id - 1].likes.length; l++) {... */\n      iszero\n      tag_70\n      jumpi\n        /* \"contracts/Twitter0.8v.sol\":2878:2888  msg.sender */\n      caller\n        /* \"contracts/Twitter0.8v.sol\":2841:2888  Tweet_info[User][id - 1].likes[l] == msg.sender */\n      0xffffffffffffffffffffffffffffffffffffffff\n      and\n        /* \"contracts/Twitter0.8v.sol\":2841:2851  Tweet_info */\n      0x03\n        /* \"contracts/Twitter0.8v.sol\":2841:2857  Tweet_info[User] */\n      0x00\n        /* \"contracts/Twitter0.8v.sol\":2852:2856  User */\n      dup7\n        /* \"contracts/Twitter0.8v.sol\":2841:2857  Tweet_info[User] */\n      0xffffffffffffffffffffffffffffffffffffffff\n      and\n      0xffffffffffffffffffffffffffffffffffffffff\n      and\n      dup2\n      mstore\n      0x20\n      add\n      swap1\n      dup2\n      mstore\n      0x20\n      add\n      0x00\n      keccak256\n        /* \"contracts/Twitter0.8v.sol\":2863:2864  1 */\n      0x01\n        /* \"contracts/Twitter0.8v.sol\":2858:2860  id */\n      dup6\n        /* \"contracts/Twitter0.8v.sol\":2858:2864  id - 1 */\n      tag_78\n      swap2\n      swap1\n      tag_73\n      jump\t// in\n    tag_78:\n        /* \"contracts/Twitter0.8v.sol\":2841:2865  Tweet_info[User][id - 1] */\n      dup2\n      sload\n      dup2\n      lt\n      tag_79\n      jumpi\n      tag_80\n      tag_76\n      jump\t// in\n    tag_80:\n    tag_79:\n      swap1\n      0x00\n      mstore\n      keccak256(0x00, 0x20)\n      swap1\n      0x08\n      mul\n      add\n        /* \"contracts/Twitter0.8v.sol\":2841:2871  Tweet_info[User][id - 1].likes */\n      0x04\n      add\n        /* \"contracts/Twitter0.8v.sol\":2872:2873  l */\n      dup3\n        /* \"contracts/Twitter0.8v.sol\":2841:2874  Tweet_info[User][id - 1].likes[l] */\n      dup2\n      sload\n      dup2\n      lt\n      tag_82\n      jumpi\n      tag_83\n      tag_76\n      jump\t// in\n    tag_83:\n    tag_82:\n      swap1\n      0x00\n      mstore\n      keccak256(0x00, 0x20)\n      add\n      0x00\n      swap1\n      sload\n      swap1\n      0x0100\n      exp\n      swap1\n      div\n      0xffffffffffffffffffffffffffffffffffffffff\n      and\n        /* \"contracts/Twitter0.8v.sol\":2841:2888  Tweet_info[User][id - 1].likes[l] == msg.sender */\n      0xffffffffffffffffffffffffffffffffffffffff\n      and\n      sub\n        /* \"contracts/Twitter0.8v.sol\":2837:2957  if (Tweet_info[User][id - 1].likes[l] == msg.sender) {... */\n      tag_85\n      jumpi\n        /* \"contracts/Twitter0.8v.sol\":2914:2919  false */\n      0x00\n        /* \"contracts/Twitter0.8v.sol\":2908:2919  res = false */\n      swap2\n      pop\n        /* \"contracts/Twitter0.8v.sol\":2937:2942  break */\n      jump(tag_70)\n        /* \"contracts/Twitter0.8v.sol\":2837:2957  if (Tweet_info[User][id - 1].likes[l] == msg.sender) {... */\n    tag_85:\n        /* \"contracts/Twitter0.8v.sol\":2818:2821  l++ */\n      dup1\n      dup1\n      0x01\n      add\n      swap2\n      pop\n      pop\n        /* \"contracts/Twitter0.8v.sol\":2755:2967  for (uint256 l = 0; l < Tweet_info[User][id - 1].likes.length; l++) {... */\n      jump(tag_69)\n    tag_70:\n      pop\n        /* \"contracts/Twitter0.8v.sol\":2992:2996  true */\n      0x01\n        /* \"contracts/Twitter0.8v.sol\":2985:2996  res == true */\n      iszero\n      iszero\n        /* \"contracts/Twitter0.8v.sol\":2985:2988  res */\n      dup2\n        /* \"contracts/Twitter0.8v.sol\":2985:2996  res == true */\n      iszero\n      iszero\n      eq\n        /* \"contracts/Twitter0.8v.sol\":2977:3029  require(res == true, \"You Already Liked the tweet!\") */\n      tag_86\n      jumpi\n      mload(0x40)\n      0x08c379a000000000000000000000000000000000000000000000000000000000\n      dup2\n      mstore\n      0x04\n      add\n      tag_87\n      swap1\n      tag_88\n      jump\t// in\n    tag_87:\n      mload(0x40)\n      dup1\n      swap2\n      sub\n      swap1\n      revert\n    tag_86:\n        /* \"contracts/Twitter0.8v.sol\":4144:4148  User */\n      dup5\n        /* \"contracts/Twitter0.8v.sol\":4150:4160  TweetIndex */\n      dup5\n        /* \"contracts/Twitter0.8v.sol\":3118:3126  bool res */\n      0x00\n        /* \"contracts/Twitter0.8v.sol\":3129:3133  true */\n      0x01\n        /* \"contracts/Twitter0.8v.sol\":3118:3133  bool res = true */\n      swap1\n      pop\n        /* \"contracts/Twitter0.8v.sol\":3204:3206  id */\n      dup2\n        /* \"contracts/Twitter0.8v.sol\":3177:3187  Tweet_info */\n      0x03\n        /* \"contracts/Twitter0.8v.sol\":3177:3193  Tweet_info[User] */\n      0x00\n        /* \"contracts/Twitter0.8v.sol\":3188:3192  User */\n      dup6\n        /* \"contracts/Twitter0.8v.sol\":3177:3193  Tweet_info[User] */\n      0xffffffffffffffffffffffffffffffffffffffff\n      and\n      0xffffffffffffffffffffffffffffffffffffffff\n      and\n      dup2\n      mstore\n      0x20\n      add\n      swap1\n      dup2\n      mstore\n      0x20\n      add\n      0x00\n      keccak256\n        /* \"contracts/Twitter0.8v.sol\":3177:3200  Tweet_info[User].length */\n      dup1\n      sload\n      swap1\n      pop\n        /* \"contracts/Twitter0.8v.sol\":3177:3206  Tweet_info[User].length >= id */\n      lt\n      iszero\n        /* \"contracts/Twitter0.8v.sol\":3169:3233  require(Tweet_info[User].length >= id, \"This Tweet Not Exist !\") */\n      tag_90\n      jumpi\n      mload(0x40)\n      0x08c379a000000000000000000000000000000000000000000000000000000000\n      dup2\n      mstore\n      0x04\n      add\n      tag_91\n      swap1\n      tag_68\n      jump\t// in\n    tag_91:\n      mload(0x40)\n      dup1\n      swap2\n      sub\n      swap1\n      revert\n    tag_90:\n        /* \"contracts/Twitter0.8v.sol\":3249:3258  uint256 l */\n      0x00\n        /* \"contracts/Twitter0.8v.sol\":3244:3460  for (uint256 l = 0; l < Tweet_info[User][id - 1].unlikes.length; l++) {... */\n    tag_92:\n        /* \"contracts/Twitter0.8v.sol\":3268:3278  Tweet_info */\n      0x03\n        /* \"contracts/Twitter0.8v.sol\":3268:3284  Tweet_info[User] */\n      0x00\n        /* \"contracts/Twitter0.8v.sol\":3279:3283  User */\n      dup6\n        /* \"contracts/Twitter0.8v.sol\":3268:3284  Tweet_info[User] */\n      0xffffffffffffffffffffffffffffffffffffffff\n      and\n      0xffffffffffffffffffffffffffffffffffffffff\n      and\n      dup2\n      mstore\n      0x20\n      add\n      swap1\n      dup2\n      mstore\n      0x20\n      add\n      0x00\n      keccak256\n        /* \"contracts/Twitter0.8v.sol\":3290:3291  1 */\n      0x01\n        /* \"contracts/Twitter0.8v.sol\":3285:3287  id */\n      dup5\n        /* \"contracts/Twitter0.8v.sol\":3285:3291  id - 1 */\n      tag_95\n      swap2\n      swap1\n      tag_73\n      jump\t// in\n    tag_95:\n        /* \"contracts/Twitter0.8v.sol\":3268:3292  Tweet_info[User][id - 1] */\n      dup2\n      sload\n      dup2\n      lt\n      tag_96\n      jumpi\n      tag_97\n      tag_76\n      jump\t// in\n    tag_97:\n    tag_96:\n      swap1\n      0x00\n      mstore\n      keccak256(0x00, 0x20)\n      swap1\n      0x08\n      mul\n      add\n        /* \"contracts/Twitter0.8v.sol\":3268:3300  Tweet_info[User][id - 1].unlikes */\n      0x07\n      add\n        /* \"contracts/Twitter0.8v.sol\":3268:3307  Tweet_info[User][id - 1].unlikes.length */\n      dup1\n      sload\n      swap1\n      pop\n        /* \"contracts/Twitter0.8v.sol\":3264:3265  l */\n      dup2\n        /* \"contracts/Twitter0.8v.sol\":3264:3307  l < Tweet_info[User][id - 1].unlikes.length */\n      lt\n        /* \"contracts/Twitter0.8v.sol\":3244:3460  for (uint256 l = 0; l < Tweet_info[User][id - 1].unlikes.length; l++) {... */\n      iszero\n      tag_93\n      jumpi\n        /* \"contracts/Twitter0.8v.sol\":3371:3381  msg.sender */\n      caller\n        /* \"contracts/Twitter0.8v.sol\":3332:3381  Tweet_info[User][id - 1].unlikes[l] == msg.sender */\n      0xffffffffffffffffffffffffffffffffffffffff\n      and\n        /* \"contracts/Twitter0.8v.sol\":3332:3342  Tweet_info */\n      0x03\n        /* \"contracts/Twitter0.8v.sol\":3332:3348  Tweet_info[User] */\n      0x00\n        /* \"contracts/Twitter0.8v.sol\":3343:3347  User */\n      dup7\n        /* \"contracts/Twitter0.8v.sol\":3332:3348  Tweet_info[User] */\n      0xffffffffffffffffffffffffffffffffffffffff\n      and\n      0xffffffffffffffffffffffffffffffffffffffff\n      and\n      dup2\n      mstore\n      0x20\n      add\n      swap1\n      dup2\n      mstore\n      0x20\n      add\n      0x00\n      keccak256\n        /* \"contracts/Twitter0.8v.sol\":3354:3355  1 */\n      0x01\n        /* \"contracts/Twitter0.8v.sol\":3349:3351  id */\n      dup6\n        /* \"contracts/Twitter0.8v.sol\":3349:3355  id - 1 */\n      tag_99\n      swap2\n      swap1\n      tag_73\n      jump\t// in\n    tag_99:\n        /* \"contracts/Twitter0.8v.sol\":3332:3356  Tweet_info[User][id - 1] */\n      dup2\n      sload\n      dup2\n      lt\n      tag_100\n      jumpi\n      tag_101\n      tag_76\n      jump\t// in\n    tag_101:\n    tag_100:\n      swap1\n      0x00\n      mstore\n      keccak256(0x00, 0x20)\n      swap1\n      0x08\n      mul\n      add\n        /* \"contracts/Twitter0.8v.sol\":3332:3364  Tweet_info[User][id - 1].unlikes */\n      0x07\n      add\n        /* \"contracts/Twitter0.8v.sol\":3365:3366  l */\n      dup3\n        /* \"contracts/Twitter0.8v.sol\":3332:3367  Tweet_info[User][id - 1].unlikes[l] */\n      dup2\n      sload\n      dup2\n      lt\n      tag_103\n      jumpi\n      tag_104\n      tag_76\n      jump\t// in\n    tag_104:\n    tag_103:\n      swap1\n      0x00\n      mstore\n      keccak256(0x00, 0x20)\n      add\n      0x00\n      swap1\n      sload\n      swap1\n      0x0100\n      exp\n      swap1\n      div\n      0xffffffffffffffffffffffffffffffffffffffff\n      and\n        /* \"contracts/Twitter0.8v.sol\":3332:3381  Tweet_info[User][id - 1].unlikes[l] == msg.sender */\n      0xffffffffffffffffffffffffffffffffffffffff\n      and\n      sub\n        /* \"contracts/Twitter0.8v.sol\":3328:3450  if (Tweet_info[User][id - 1].unlikes[l] == msg.sender) {... */\n      tag_106\n      jumpi\n        /* \"contracts/Twitter0.8v.sol\":3407:3412  false */\n      0x00\n        /* \"contracts/Twitter0.8v.sol\":3401:3412  res = false */\n      swap2\n      pop\n        /* \"contracts/Twitter0.8v.sol\":3430:3435  break */\n      jump(tag_93)\n        /* \"contracts/Twitter0.8v.sol\":3328:3450  if (Tweet_info[User][id - 1].unlikes[l] == msg.sender) {... */\n    tag_106:\n        /* \"contracts/Twitter0.8v.sol\":3309:3312  l++ */\n      dup1\n      dup1\n      0x01\n      add\n      swap2\n      pop\n      pop\n        /* \"contracts/Twitter0.8v.sol\":3244:3460  for (uint256 l = 0; l < Tweet_info[User][id - 1].unlikes.length; l++) {... */\n      jump(tag_92)\n    tag_93:\n      pop\n        /* \"contracts/Twitter0.8v.sol\":3485:3489  true */\n      0x01\n        /* \"contracts/Twitter0.8v.sol\":3478:3489  res == true */\n      iszero\n      iszero\n        /* \"contracts/Twitter0.8v.sol\":3478:3481  res */\n      dup2\n        /* \"contracts/Twitter0.8v.sol\":3478:3489  res == true */\n      iszero\n      iszero\n      eq\n        /* \"contracts/Twitter0.8v.sol\":3470:3524  require(res == true, \"You Already UnLiked the tweet!\") */\n      tag_107\n      jumpi\n      mload(0x40)\n      0x08c379a000000000000000000000000000000000000000000000000000000000\n      dup2\n      mstore\n      0x04\n      add\n      tag_108\n      swap1\n      tag_109\n      jump\t// in\n    tag_108:\n      mload(0x40)\n      dup1\n      swap2\n      sub\n      swap1\n      revert\n    tag_107:\n        /* \"contracts/Twitter0.8v.sol\":4205:4215  msg.sender */\n      caller\n        /* \"contracts/Twitter0.8v.sol\":4197:4215  User != msg.sender */\n      0xffffffffffffffffffffffffffffffffffffffff\n      and\n        /* \"contracts/Twitter0.8v.sol\":4197:4201  User */\n      dup9\n        /* \"contracts/Twitter0.8v.sol\":4197:4215  User != msg.sender */\n      0xffffffffffffffffffffffffffffffffffffffff\n      and\n      sub\n        /* \"contracts/Twitter0.8v.sol\":4176:4287  require(... */\n      tag_111\n      jumpi\n      mload(0x40)\n      0x08c379a000000000000000000000000000000000000000000000000000000000\n      dup2\n      mstore\n      0x04\n      add\n      tag_112\n      swap1\n      tag_113\n      jump\t// in\n    tag_112:\n      mload(0x40)\n      dup1\n      swap2\n      sub\n      swap1\n      revert\n    tag_111:\n        /* \"contracts/Twitter0.8v.sol\":4297:4307  Tweet_info */\n      0x03\n        /* \"contracts/Twitter0.8v.sol\":4297:4313  Tweet_info[User] */\n      0x00\n        /* \"contracts/Twitter0.8v.sol\":4308:4312  User */\n      dup10\n        /* \"contracts/Twitter0.8v.sol\":4297:4313  Tweet_info[User] */\n      0xffffffffffffffffffffffffffffffffffffffff\n      and\n      0xffffffffffffffffffffffffffffffffffffffff\n      and\n      dup2\n      mstore\n      0x20\n      add\n      swap1\n      dup2\n      mstore\n      0x20\n      add\n      0x00\n      keccak256\n        /* \"contracts/Twitter0.8v.sol\":4327:4328  1 */\n      0x01\n        /* \"contracts/Twitter0.8v.sol\":4314:4324  TweetIndex */\n      dup9\n        /* \"contracts/Twitter0.8v.sol\":4314:4328  TweetIndex - 1 */\n      tag_114\n      swap2\n      swap1\n      tag_73\n      jump\t// in\n    tag_114:\n        /* \"contracts/Twitter0.8v.sol\":4297:4329  Tweet_info[User][TweetIndex - 1] */\n      dup2\n      sload\n      dup2\n      lt\n      tag_115\n      jumpi\n      tag_116\n      tag_76\n      jump\t// in\n    tag_116:\n    tag_115:\n      swap1\n      0x00\n      mstore\n      keccak256(0x00, 0x20)\n      swap1\n      0x08\n      mul\n      add\n        /* \"contracts/Twitter0.8v.sol\":4297:4335  Tweet_info[User][TweetIndex - 1].likes */\n      0x04\n      add\n        /* \"contracts/Twitter0.8v.sol\":4341:4351  msg.sender */\n      caller\n        /* \"contracts/Twitter0.8v.sol\":4297:4352  Tweet_info[User][TweetIndex - 1].likes.push(msg.sender) */\n      swap1\n      dup1\n      0x01\n      dup2\n      sload\n      add\n      dup1\n      dup3\n      sstore\n      dup1\n      swap2\n      pop\n      pop\n      0x01\n      swap1\n      sub\n      swap1\n      0x00\n      mstore\n      keccak256(0x00, 0x20)\n      add\n      0x00\n      swap1\n      swap2\n      swap1\n      swap2\n      swap1\n      swap2\n      0x0100\n      exp\n      dup2\n      sload\n      dup2\n      0xffffffffffffffffffffffffffffffffffffffff\n      mul\n      not\n      and\n      swap1\n      dup4\n      0xffffffffffffffffffffffffffffffffffffffff\n      and\n      mul\n      or\n      swap1\n      sstore\n      pop\n        /* \"contracts/Twitter0.8v.sol\":4362:4372  Tweet_info */\n      0x03\n        /* \"contracts/Twitter0.8v.sol\":4362:4378  Tweet_info[User] */\n      0x00\n        /* \"contracts/Twitter0.8v.sol\":4373:4377  User */\n      dup10\n        /* \"contracts/Twitter0.8v.sol\":4362:4378  Tweet_info[User] */\n      0xffffffffffffffffffffffffffffffffffffffff\n      and\n      0xffffffffffffffffffffffffffffffffffffffff\n      and\n      dup2\n      mstore\n      0x20\n      add\n      swap1\n      dup2\n      mstore\n      0x20\n      add\n      0x00\n      keccak256\n        /* \"contracts/Twitter0.8v.sol\":4392:4393  1 */\n      0x01\n        /* \"contracts/Twitter0.8v.sol\":4379:4389  TweetIndex */\n      dup9\n        /* \"contracts/Twitter0.8v.sol\":4379:4393  TweetIndex - 1 */\n      tag_119\n      swap2\n      swap1\n      tag_73\n      jump\t// in\n    tag_119:\n        /* \"contracts/Twitter0.8v.sol\":4362:4394  Tweet_info[User][TweetIndex - 1] */\n      dup2\n      sload\n      dup2\n      lt\n      tag_120\n      jumpi\n      tag_121\n      tag_76\n      jump\t// in\n    tag_121:\n    tag_120:\n      swap1\n      0x00\n      mstore\n      keccak256(0x00, 0x20)\n      swap1\n      0x08\n      mul\n      add\n        /* \"contracts/Twitter0.8v.sol\":4362:4405  Tweet_info[User][TweetIndex - 1].LikesCount */\n      0x05\n      add\n      0x00\n        /* \"contracts/Twitter0.8v.sol\":4362:4407  Tweet_info[User][TweetIndex - 1].LikesCount++ */\n      dup2\n      sload\n      dup1\n      swap3\n      swap2\n      swap1\n      tag_123\n      swap1\n      tag_124\n      jump\t// in\n    tag_123:\n      swap2\n      swap1\n      pop\n      sstore\n      pop\n        /* \"contracts/Twitter0.8v.sol\":4422:4590  TweetLiked(... */\n      0xe8a76fc0f16d11a00d1e93b689b63d76cf60af914dd3d915375dc41d01a0c3c8\n        /* \"contracts/Twitter0.8v.sol\":4446:4456  msg.sender */\n      caller\n        /* \"contracts/Twitter0.8v.sol\":4470:4474  User */\n      dup10\n        /* \"contracts/Twitter0.8v.sol\":4488:4498  Tweet_info */\n      0x03\n        /* \"contracts/Twitter0.8v.sol\":4488:4504  Tweet_info[User] */\n      0x00\n        /* \"contracts/Twitter0.8v.sol\":4499:4503  User */\n      dup13\n        /* \"contracts/Twitter0.8v.sol\":4488:4504  Tweet_info[User] */\n      0xffffffffffffffffffffffffffffffffffffffff\n      and\n      0xffffffffffffffffffffffffffffffffffffffff\n      and\n      dup2\n      mstore\n      0x20\n      add\n      swap1\n      dup2\n      mstore\n      0x20\n      add\n      0x00\n      keccak256\n        /* \"contracts/Twitter0.8v.sol\":4518:4519  1 */\n      0x01\n        /* \"contracts/Twitter0.8v.sol\":4505:4515  TweetIndex */\n      dup12\n        /* \"contracts/Twitter0.8v.sol\":4505:4519  TweetIndex - 1 */\n      tag_125\n      swap2\n      swap1\n      tag_73\n      jump\t// in\n    tag_125:\n        /* \"contracts/Twitter0.8v.sol\":4488:4520  Tweet_info[User][TweetIndex - 1] */\n      dup2\n      sload\n      dup2\n      lt\n      tag_126\n      jumpi\n      tag_127\n      tag_76\n      jump\t// in\n    tag_127:\n    tag_126:\n      swap1\n      0x00\n      mstore\n      keccak256(0x00, 0x20)\n      swap1\n      0x08\n      mul\n      add\n        /* \"contracts/Twitter0.8v.sol\":4488:4531  Tweet_info[User][TweetIndex - 1].LikesCount */\n      0x05\n      add\n      sload\n        /* \"contracts/Twitter0.8v.sol\":4545:4555  Tweet_info */\n      0x03\n        /* \"contracts/Twitter0.8v.sol\":4545:4561  Tweet_info[User] */\n      0x00\n        /* \"contracts/Twitter0.8v.sol\":4556:4560  User */\n      dup14\n        /* \"contracts/Twitter0.8v.sol\":4545:4561  Tweet_info[User] */\n      0xffffffffffffffffffffffffffffffffffffffff\n      and\n      0xffffffffffffffffffffffffffffffffffffffff\n      and\n      dup2\n      mstore\n      0x20\n      add\n      swap1\n      dup2\n      mstore\n      0x20\n      add\n      0x00\n      keccak256\n        /* \"contracts/Twitter0.8v.sol\":4575:4576  1 */\n      0x01\n        /* \"contracts/Twitter0.8v.sol\":4562:4572  TweetIndex */\n      dup13\n        /* \"contracts/Twitter0.8v.sol\":4562:4576  TweetIndex - 1 */\n      tag_129\n      swap2\n      swap1\n      tag_73\n      jump\t// in\n    tag_129:\n        /* \"contracts/Twitter0.8v.sol\":4545:4577  Tweet_info[User][TweetIndex - 1] */\n      dup2\n      sload\n      dup2\n      lt\n      tag_130\n      jumpi\n      tag_131\n      tag_76\n      jump\t// in\n    tag_131:\n    tag_130:\n      swap1\n      0x00\n      mstore\n      keccak256(0x00, 0x20)\n      swap1\n      0x08\n      mul\n      add\n        /* \"contracts/Twitter0.8v.sol\":4545:4580  Tweet_info[User][TweetIndex - 1].id */\n      0x00\n      add\n      sload\n        /* \"contracts/Twitter0.8v.sol\":4422:4590  TweetLiked(... */\n      mload(0x40)\n      tag_133\n      swap5\n      swap4\n      swap3\n      swap2\n      swap1\n      tag_134\n      jump\t// in\n    tag_133:\n      mload(0x40)\n      dup1\n      swap2\n      sub\n      swap1\n      log1\n        /* \"contracts/Twitter0.8v.sol\":3108:3542  {... */\n      pop\n        /* \"contracts/Twitter0.8v.sol\":3039:3040  _ */\n      pop\n      pop\n        /* \"contracts/Twitter0.8v.sol\":2619:3047  {... */\n      pop\n        /* \"contracts/Twitter0.8v.sol\":4001:4597  function LikesTweet(address User, uint256 TweetIndex)... */\n      pop\n      pop\n      pop\n      pop\n      jump\t// out\n        /* \"contracts/Twitter0.8v.sol\":3661:3822  function GetTweet(address User, uint256 Index)... */\n    tag_24:\n        /* \"contracts/Twitter0.8v.sol\":3753:3765  Tweet memory */\n      tag_135\n      tag_136\n      jump\t// in\n    tag_135:\n        /* \"contracts/Twitter0.8v.sol\":3788:3798  Tweet_info */\n      0x03\n        /* \"contracts/Twitter0.8v.sol\":3788:3804  Tweet_info[User] */\n      0x00\n        /* \"contracts/Twitter0.8v.sol\":3799:3803  User */\n      dup5\n        /* \"contracts/Twitter0.8v.sol\":3788:3804  Tweet_info[User] */\n      0xffffffffffffffffffffffffffffffffffffffff\n      and\n      0xffffffffffffffffffffffffffffffffffffffff\n      and\n      dup2\n      mstore\n      0x20\n      add\n      swap1\n      dup2\n      mstore\n      0x20\n      add\n      0x00\n      keccak256\n        /* \"contracts/Twitter0.8v.sol\":3813:3814  1 */\n      0x01\n        /* \"contracts/Twitter0.8v.sol\":3805:3810  Index */\n      dup4\n        /* \"contracts/Twitter0.8v.sol\":3805:3814  Index - 1 */\n      tag_138\n      swap2\n      swap1\n      tag_73\n      jump\t// in\n    tag_138:\n        /* \"contracts/Twitter0.8v.sol\":3788:3815  Tweet_info[User][Index - 1] */\n      dup2\n      sload\n      dup2\n      lt\n      tag_139\n      jumpi\n      tag_140\n      tag_76\n      jump\t// in\n    tag_140:\n    tag_139:\n      swap1\n      0x00\n      mstore\n      keccak256(0x00, 0x20)\n      swap1\n      0x08\n      mul\n      add\n        /* \"contracts/Twitter0.8v.sol\":3781:3815  return Tweet_info[User][Index - 1] */\n      mload(0x40)\n      dup1\n      0x0100\n      add\n      0x40\n      mstore\n      swap1\n      dup2\n      0x00\n      dup3\n      add\n      sload\n      dup2\n      mstore\n      0x20\n      add\n      0x01\n      dup3\n      add\n      dup1\n      sload\n      tag_142\n      swap1\n      tag_143\n      jump\t// in\n    tag_142:\n      dup1\n      0x1f\n      add\n      0x20\n      dup1\n      swap2\n      div\n      mul\n      0x20\n      add\n      mload(0x40)\n      swap1\n      dup2\n      add\n      0x40\n      mstore\n      dup1\n      swap3\n      swap2\n      swap1\n      dup2\n      dup2\n      mstore\n      0x20\n      add\n      dup3\n      dup1\n      sload\n      tag_144\n      swap1\n      tag_143\n      jump\t// in\n    tag_144:\n      dup1\n      iszero\n      tag_145\n      jumpi\n      dup1\n      0x1f\n      lt\n      tag_146\n      jumpi\n      0x0100\n      dup1\n      dup4\n      sload\n      div\n      mul\n      dup4\n      mstore\n      swap2\n      0x20\n      add\n      swap2\n      jump(tag_145)\n    tag_146:\n      dup3\n      add\n      swap2\n      swap1\n      0x00\n      mstore\n      keccak256(0x00, 0x20)\n      swap1\n    tag_147:\n      dup2\n      sload\n      dup2\n      mstore\n      swap1\n      0x01\n      add\n      swap1\n      0x20\n      add\n      dup1\n      dup4\n      gt\n      tag_147\n      jumpi\n      dup3\n      swap1\n      sub\n      0x1f\n      and\n      dup3\n      add\n      swap2\n    tag_145:\n      pop\n      pop\n      pop\n      pop\n      pop\n      dup2\n      mstore\n      0x20\n      add\n      0x02\n      dup3\n      add\n      0x00\n      swap1\n      sload\n      swap1\n      0x0100\n      exp\n      swap1\n      div\n      0xffffffffffffffffffffffffffffffffffffffff\n      and\n      0xffffffffffffffffffffffffffffffffffffffff\n      and\n      0xffffffffffffffffffffffffffffffffffffffff\n      and\n      dup2\n      mstore\n      0x20\n      add\n      0x03\n      dup3\n      add\n      sload\n      dup2\n      mstore\n      0x20\n      add\n      0x04\n      dup3\n      add\n      dup1\n      sload\n      dup1\n      0x20\n      mul\n      0x20\n      add\n      mload(0x40)\n      swap1\n      dup2\n      add\n      0x40\n      mstore\n      dup1\n      swap3\n      swap2\n      swap1\n      dup2\n      dup2\n      mstore\n      0x20\n      add\n      dup3\n      dup1\n      sload\n      dup1\n      iszero\n      tag_148\n      jumpi\n      0x20\n      mul\n      dup3\n      add\n      swap2\n      swap1\n      0x00\n      mstore\n      keccak256(0x00, 0x20)\n      swap1\n    tag_149:\n      dup2\n      0x00\n      swap1\n      sload\n      swap1\n      0x0100\n      exp\n      swap1\n      div\n      0xffffffffffffffffffffffffffffffffffffffff\n      and\n      0xffffffffffffffffffffffffffffffffffffffff\n      and\n      dup2\n      mstore\n      0x20\n      add\n      swap1\n      0x01\n      add\n      swap1\n      dup1\n      dup4\n      gt\n      tag_149\n      jumpi\n    tag_148:\n      pop\n      pop\n      pop\n      pop\n      pop\n      dup2\n      mstore\n      0x20\n      add\n      0x05\n      dup3\n      add\n      sload\n      dup2\n      mstore\n      0x20\n      add\n      0x06\n      dup3\n      add\n      sload\n      dup2\n      mstore\n      0x20\n      add\n      0x07\n      dup3\n      add\n      dup1\n      sload\n      dup1\n      0x20\n      mul\n      0x20\n      add\n      mload(0x40)\n      swap1\n      dup2\n      add\n      0x40\n      mstore\n      dup1\n      swap3\n      swap2\n      swap1\n      dup2\n      dup2\n      mstore\n      0x20\n      add\n      dup3\n      dup1\n      sload\n      dup1\n      iszero\n      tag_150\n      jumpi\n      0x20\n      mul\n      dup3\n      add\n      swap2\n      swap1\n      0x00\n      mstore\n      keccak256(0x00, 0x20)\n      swap1\n    tag_151:\n      dup2\n      0x00\n      swap1\n      sload\n      swap1\n      0x0100\n      exp\n      swap1\n      div\n      0xffffffffffffffffffffffffffffffffffffffff\n      and\n      0xffffffffffffffffffffffffffffffffffffffff\n      and\n      dup2\n      mstore\n      0x20\n      add\n      swap1\n      0x01\n      add\n      swap1\n      dup1\n      dup4\n      gt\n      tag_151\n      jumpi\n    tag_150:\n      pop\n      pop\n      pop\n      pop\n      pop\n      dup2\n      mstore\n      pop\n      pop\n      swap1\n      pop\n        /* \"contracts/Twitter0.8v.sol\":3661:3822  function GetTweet(address User, uint256 Index)... */\n      swap3\n      swap2\n      pop\n      pop\n      jump\t// out\n        /* \"contracts/Twitter0.8v.sol\":3548:3655  function GetAllTweets() public view returns (Tweet[] memory) {... */\n    tag_28:\n        /* \"contracts/Twitter0.8v.sol\":3593:3607  Tweet[] memory */\n      0x60\n        /* \"contracts/Twitter0.8v.sol\":3626:3636  Tweet_info */\n      0x03\n        /* \"contracts/Twitter0.8v.sol\":3626:3648  Tweet_info[msg.sender] */\n      0x00\n        /* \"contracts/Twitter0.8v.sol\":3637:3647  msg.sender */\n      caller\n        /* \"contracts/Twitter0.8v.sol\":3626:3648  Tweet_info[msg.sender] */\n      0xffffffffffffffffffffffffffffffffffffffff\n      and\n      0xffffffffffffffffffffffffffffffffffffffff\n      and\n      dup2\n      mstore\n      0x20\n      add\n      swap1\n      dup2\n      mstore\n      0x20\n      add\n      0x00\n      keccak256\n        /* \"contracts/Twitter0.8v.sol\":3619:3648  return Tweet_info[msg.sender] */\n      dup1\n      sload\n      dup1\n      0x20\n      mul\n      0x20\n      add\n      mload(0x40)\n      swap1\n      dup2\n      add\n      0x40\n      mstore\n      dup1\n      swap3\n      swap2\n      swap1\n      dup2\n      dup2\n      mstore\n      0x20\n      add\n      0x00\n      swap1\n    tag_153:\n      dup3\n      dup3\n      lt\n      iszero\n      tag_154\n      jumpi\n      dup4\n      dup3\n      swap1\n      0x00\n      mstore\n      keccak256(0x00, 0x20)\n      swap1\n      0x08\n      mul\n      add\n      mload(0x40)\n      dup1\n      0x0100\n      add\n      0x40\n      mstore\n      swap1\n      dup2\n      0x00\n      dup3\n      add\n      sload\n      dup2\n      mstore\n      0x20\n      add\n      0x01\n      dup3\n      add\n      dup1\n      sload\n      tag_156\n      swap1\n      tag_143\n      jump\t// in\n    tag_156:\n      dup1\n      0x1f\n      add\n      0x20\n      dup1\n      swap2\n      div\n      mul\n      0x20\n      add\n      mload(0x40)\n      swap1\n      dup2\n      add\n      0x40\n      mstore\n      dup1\n      swap3\n      swap2\n      swap1\n      dup2\n      dup2\n      mstore\n      0x20\n      add\n      dup3\n      dup1\n      sload\n      tag_157\n      swap1\n      tag_143\n      jump\t// in\n    tag_157:\n      dup1\n      iszero\n      tag_158\n      jumpi\n      dup1\n      0x1f\n      lt\n      tag_159\n      jumpi\n      0x0100\n      dup1\n      dup4\n      sload\n      div\n      mul\n      dup4\n      mstore\n      swap2\n      0x20\n      add\n      swap2\n      jump(tag_158)\n    tag_159:\n      dup3\n      add\n      swap2\n      swap1\n      0x00\n      mstore\n      keccak256(0x00, 0x20)\n      swap1\n    tag_160:\n      dup2\n      sload\n      dup2\n      mstore\n      swap1\n      0x01\n      add\n      swap1\n      0x20\n      add\n      dup1\n      dup4\n      gt\n      tag_160\n      jumpi\n      dup3\n      swap1\n      sub\n      0x1f\n      and\n      dup3\n      add\n      swap2\n    tag_158:\n      pop\n      pop\n      pop\n      pop\n      pop\n      dup2\n      mstore\n      0x20\n      add\n      0x02\n      dup3\n      add\n      0x00\n      swap1\n      sload\n      swap1\n      0x0100\n      exp\n      swap1\n      div\n      0xffffffffffffffffffffffffffffffffffffffff\n      and\n      0xffffffffffffffffffffffffffffffffffffffff\n      and\n      0xffffffffffffffffffffffffffffffffffffffff\n      and\n      dup2\n      mstore\n      0x20\n      add\n      0x03\n      dup3\n      add\n      sload\n      dup2\n      mstore\n      0x20\n      add\n      0x04\n      dup3\n      add\n      dup1\n      sload\n      dup1\n      0x20\n      mul\n      0x20\n      add\n      mload(0x40)\n      swap1\n      dup2\n      add\n      0x40\n      mstore\n      dup1\n      swap3\n      swap2\n      swap1\n      dup2\n      dup2\n      mstore\n      0x20\n      add\n      dup3\n      dup1\n      sload\n      dup1\n      iszero\n      tag_161\n      jumpi\n      0x20\n      mul\n      dup3\n      add\n      swap2\n      swap1\n      0x00\n      mstore\n      keccak256(0x00, 0x20)\n      swap1\n    tag_162:\n      dup2\n      0x00\n      swap1\n      sload\n      swap1\n      0x0100\n      exp\n      swap1\n      div\n      0xffffffffffffffffffffffffffffffffffffffff\n      and\n      0xffffffffffffffffffffffffffffffffffffffff\n      and\n      dup2\n      mstore\n      0x20\n      add\n      swap1\n      0x01\n      add\n      swap1\n      dup1\n      dup4\n      gt\n      tag_162\n      jumpi\n    tag_161:\n      pop\n      pop\n      pop\n      pop\n      pop\n      dup2\n      mstore\n      0x20\n      add\n      0x05\n      dup3\n      add\n      sload\n      dup2\n      mstore\n      0x20\n      add\n      0x06\n      dup3\n      add\n      sload\n      dup2\n      mstore\n      0x20\n      add\n      0x07\n      dup3\n      add\n      dup1\n      sload\n      dup1\n      0x20\n      mul\n      0x20\n      add\n      mload(0x40)\n      swap1\n      dup2\n      add\n      0x40\n      mstore\n      dup1\n      swap3\n      swap2\n      swap1\n      dup2\n      dup2\n      mstore\n      0x20\n      add\n      dup3\n      dup1\n      sload\n      dup1\n      iszero\n      tag_163\n      jumpi\n      0x20\n      mul\n      dup3\n      add\n      swap2\n      swap1\n      0x00\n      mstore\n      keccak256(0x00, 0x20)\n      swap1\n    tag_164:\n      dup2\n      0x00\n      swap1\n      sload\n      swap1\n      0x0100\n      exp\n      swap1\n      div\n      0xffffffffffffffffffffffffffffffffffffffff\n      and\n      0xffffffffffffffffffffffffffffffffffffffff\n      and\n      dup2\n      mstore\n      0x20\n      add\n      swap1\n      0x01\n      add\n      swap1\n      dup1\n      dup4\n      gt\n      tag_164\n      jumpi\n    tag_163:\n      pop\n      pop\n      pop\n      pop\n      pop\n      dup2\n      mstore\n      pop\n      pop\n      dup2\n      mstore\n      0x20\n      add\n      swap1\n      0x01\n      add\n      swap1\n      jump(tag_153)\n    tag_154:\n      pop\n      pop\n      pop\n      pop\n      swap1\n      pop\n        /* \"contracts/Twitter0.8v.sol\":3548:3655  function GetAllTweets() public view returns (Tweet[] memory) {... */\n      swap1\n      jump\t// out\n        /* \"@openzeppelin/contracts/access/Ownable.sol\":2293:2394  function renounceOwnership() public virtual onlyOwner {... */\n    tag_32:\n        /* \"@openzeppelin/contracts/access/Ownable.sol\":1531:1544  _checkOwner() */\n      tag_166\n        /* \"@openzeppelin/contracts/access/Ownable.sol\":1531:1542  _checkOwner */\n      tag_167\n        /* \"@openzeppelin/contracts/access/Ownable.sol\":1531:1544  _checkOwner() */\n      jump\t// in\n    tag_166:\n        /* \"@openzeppelin/contracts/access/Ownable.sol\":2357:2387  _transferOwnership(address(0)) */\n      tag_169\n        /* \"@openzeppelin/contracts/access/Ownable.sol\":2384:2385  0 */\n      0x00\n        /* \"@openzeppelin/contracts/access/Ownable.sol\":2357:2375  _transferOwnership */\n      tag_170\n        /* \"@openzeppelin/contracts/access/Ownable.sol\":2357:2387  _transferOwnership(address(0)) */\n      jump\t// in\n    tag_169:\n        /* \"@openzeppelin/contracts/access/Ownable.sol\":2293:2394  function renounceOwnership() public virtual onlyOwner {... */\n      jump\t// out\n        /* \"contracts/Twitter0.8v.sol\":3828:3909  function DeleteRecentTweet() public {... */\n    tag_34:\n        /* \"contracts/Twitter0.8v.sol\":3874:3884  Tweet_info */\n      0x03\n        /* \"contracts/Twitter0.8v.sol\":3874:3896  Tweet_info[msg.sender] */\n      0x00\n        /* \"contracts/Twitter0.8v.sol\":3885:3895  msg.sender */\n      caller\n        /* \"contracts/Twitter0.8v.sol\":3874:3896  Tweet_info[msg.sender] */\n      0xffffffffffffffffffffffffffffffffffffffff\n      and\n      0xffffffffffffffffffffffffffffffffffffffff\n      and\n      dup2\n      mstore\n      0x20\n      add\n      swap1\n      dup2\n      mstore\n      0x20\n      add\n      0x00\n      keccak256\n        /* \"contracts/Twitter0.8v.sol\":3874:3902  Tweet_info[msg.sender].pop() */\n      dup1\n      sload\n      dup1\n      tag_172\n      jumpi\n      tag_173\n      tag_174\n      jump\t// in\n    tag_173:\n    tag_172:\n      0x01\n      swap1\n      sub\n      dup2\n      dup2\n      swap1\n      0x00\n      mstore\n      keccak256(0x00, 0x20)\n      swap1\n      0x08\n      mul\n      add\n      0x00\n      dup1\n      dup3\n      add\n      0x00\n      swap1\n      sstore\n      0x01\n      dup3\n      add\n      0x00\n      tag_176\n      swap2\n      swap1\n      tag_177\n      jump\t// in\n    tag_176:\n      0x02\n      dup3\n      add\n      exp(0x0100, 0x00)\n      dup2\n      sload\n      swap1\n      0xffffffffffffffffffffffffffffffffffffffff\n      mul\n      not\n      and\n      swap1\n      sstore\n      0x03\n      dup3\n      add\n      0x00\n      swap1\n      sstore\n      0x04\n      dup3\n      add\n      0x00\n      tag_178\n      swap2\n      swap1\n      tag_179\n      jump\t// in\n    tag_178:\n      0x05\n      dup3\n      add\n      0x00\n      swap1\n      sstore\n      0x06\n      dup3\n      add\n      0x00\n      swap1\n      sstore\n      0x07\n      dup3\n      add\n      0x00\n      tag_180\n      swap2\n      swap1\n      tag_179\n      jump\t// in\n    tag_180:\n      pop\n      pop\n      swap1\n      sstore\n        /* \"contracts/Twitter0.8v.sol\":3828:3909  function DeleteRecentTweet() public {... */\n      jump\t// out\n        /* \"contracts/Twitter0.8v.sol\":3915:3995  function DeleteAllTweets() public {... */\n    tag_36:\n        /* \"contracts/Twitter0.8v.sol\":3966:3976  Tweet_info */\n      0x03\n        /* \"contracts/Twitter0.8v.sol\":3966:3988  Tweet_info[msg.sender] */\n      0x00\n        /* \"contracts/Twitter0.8v.sol\":3977:3987  msg.sender */\n      caller\n        /* \"contracts/Twitter0.8v.sol\":3966:3988  Tweet_info[msg.sender] */\n      0xffffffffffffffffffffffffffffffffffffffff\n      and\n      0xffffffffffffffffffffffffffffffffffffffff\n      and\n      dup2\n      mstore\n      0x20\n      add\n      swap1\n      dup2\n      mstore\n      0x20\n      add\n      0x00\n      keccak256\n      0x00\n        /* \"contracts/Twitter0.8v.sol\":3959:3988  delete Tweet_info[msg.sender] */\n      tag_182\n      swap2\n      swap1\n      tag_183\n      jump\t// in\n    tag_182:\n        /* \"contracts/Twitter0.8v.sol\":3915:3995  function DeleteAllTweets() public {... */\n      jump\t// out\n        /* \"contracts/Twitter0.8v.sol\":1322:2431  function createTweet(string memory _tweet) public {... */\n    tag_40:\n        /* \"contracts/Twitter0.8v.sol\":1872:1883  TweetLength */\n      sload(0x01)\n        /* \"contracts/Twitter0.8v.sol\":1854:1860  _tweet */\n      dup2\n        /* \"contracts/Twitter0.8v.sol\":1848:1868  bytes(_tweet).length */\n      mload\n        /* \"contracts/Twitter0.8v.sol\":1848:1883  bytes(_tweet).length <= TweetLength */\n      gt\n      iszero\n        /* \"contracts/Twitter0.8v.sol\":1840:1911  require(bytes(_tweet).length <= TweetLength, \"Tweet Length is Exceed!\") */\n      tag_185\n      jumpi\n      mload(0x40)\n      0x08c379a000000000000000000000000000000000000000000000000000000000\n      dup2\n      mstore\n      0x04\n      add\n      tag_186\n      swap1\n      tag_187\n      jump\t// in\n    tag_186:\n      mload(0x40)\n      dup1\n      swap2\n      sub\n      swap1\n      revert\n    tag_185:\n        /* \"contracts/Twitter0.8v.sol\":1922:1943  Tweet memory NewTweet */\n      0x00\n        /* \"contracts/Twitter0.8v.sol\":1946:2219  Tweet({... */\n      mload(0x40)\n      dup1\n      0x0100\n      add\n      0x40\n      mstore\n      dup1\n        /* \"contracts/Twitter0.8v.sol\":2002:2003  1 */\n      0x01\n        /* \"contracts/Twitter0.8v.sol\":1970:1980  Tweet_info */\n      0x03\n        /* \"contracts/Twitter0.8v.sol\":1970:1992  Tweet_info[msg.sender] */\n      0x00\n        /* \"contracts/Twitter0.8v.sol\":1981:1991  msg.sender */\n      caller\n        /* \"contracts/Twitter0.8v.sol\":1970:1992  Tweet_info[msg.sender] */\n      0xffffffffffffffffffffffffffffffffffffffff\n      and\n      0xffffffffffffffffffffffffffffffffffffffff\n      and\n      dup2\n      mstore\n      0x20\n      add\n      swap1\n      dup2\n      mstore\n      0x20\n      add\n      0x00\n      keccak256\n        /* \"contracts/Twitter0.8v.sol\":1970:1999  Tweet_info[msg.sender].length */\n      dup1\n      sload\n      swap1\n      pop\n        /* \"contracts/Twitter0.8v.sol\":1970:2003  Tweet_info[msg.sender].length + 1 */\n      tag_188\n      swap2\n      swap1\n      tag_189\n      jump\t// in\n    tag_188:\n        /* \"contracts/Twitter0.8v.sol\":1946:2219  Tweet({... */\n      dup2\n      mstore\n      0x20\n      add\n        /* \"contracts/Twitter0.8v.sol\":2026:2032  _tweet */\n      dup4\n        /* \"contracts/Twitter0.8v.sol\":1946:2219  Tweet({... */\n      dup2\n      mstore\n      0x20\n      add\n        /* \"contracts/Twitter0.8v.sol\":2054:2064  msg.sender */\n      caller\n        /* \"contracts/Twitter0.8v.sol\":1946:2219  Tweet({... */\n      0xffffffffffffffffffffffffffffffffffffffff\n      and\n      dup2\n      mstore\n      0x20\n      add\n        /* \"contracts/Twitter0.8v.sol\":2089:2104  block.timestamp */\n      timestamp\n        /* \"contracts/Twitter0.8v.sol\":1946:2219  Tweet({... */\n      dup2\n      mstore\n      0x20\n      add\n        /* \"contracts/Twitter0.8v.sol\":2125:2127  li */\n      0x02\n        /* \"contracts/Twitter0.8v.sol\":1946:2219  Tweet({... */\n      dup1\n      sload\n      dup1\n      0x20\n      mul\n      0x20\n      add\n      mload(0x40)\n      swap1\n      dup2\n      add\n      0x40\n      mstore\n      dup1\n      swap3\n      swap2\n      swap1\n      dup2\n      dup2\n      mstore\n      0x20\n      add\n      dup3\n      dup1\n      sload\n      dup1\n      iszero\n      tag_190\n      jumpi\n      0x20\n      mul\n      dup3\n      add\n      swap2\n      swap1\n      0x00\n      mstore\n      keccak256(0x00, 0x20)\n      swap1\n    tag_191:\n      dup2\n      0x00\n      swap1\n      sload\n      swap1\n      0x0100\n      exp\n      swap1\n      div\n      0xffffffffffffffffffffffffffffffffffffffff\n      and\n      0xffffffffffffffffffffffffffffffffffffffff\n      and\n      dup2\n      mstore\n      0x20\n      add\n      swap1\n      0x01\n      add\n      swap1\n      dup1\n      dup4\n      gt\n      tag_191\n      jumpi\n    tag_190:\n      pop\n      pop\n      pop\n      pop\n      pop\n      dup2\n      mstore\n      0x20\n      add\n        /* \"contracts/Twitter0.8v.sol\":2153:2154  0 */\n      0x00\n        /* \"contracts/Twitter0.8v.sol\":1946:2219  Tweet({... */\n      dup2\n      mstore\n      0x20\n      add\n        /* \"contracts/Twitter0.8v.sol\":2182:2183  0 */\n      0x00\n        /* \"contracts/Twitter0.8v.sol\":1946:2219  Tweet({... */\n      dup2\n      mstore\n      0x20\n      add\n        /* \"contracts/Twitter0.8v.sol\":2206:2208  li */\n      0x02\n        /* \"contracts/Twitter0.8v.sol\":1946:2219  Tweet({... */\n      dup1\n      sload\n      dup1\n      0x20\n      mul\n      0x20\n      add\n      mload(0x40)\n      swap1\n      dup2\n      add\n      0x40\n      mstore\n      dup1\n      swap3\n      swap2\n      swap1\n      dup2\n      dup2\n      mstore\n      0x20\n      add\n      dup3\n      dup1\n      sload\n      dup1\n      iszero\n      tag_192\n      jumpi\n      0x20\n      mul\n      dup3\n      add\n      swap2\n      swap1\n      0x00\n      mstore\n      keccak256(0x00, 0x20)\n      swap1\n    tag_193:\n      dup2\n      0x00\n      swap1\n      sload\n      swap1\n      0x0100\n      exp\n      swap1\n      div\n      0xffffffffffffffffffffffffffffffffffffffff\n      and\n      0xffffffffffffffffffffffffffffffffffffffff\n      and\n      dup2\n      mstore\n      0x20\n      add\n      swap1\n      0x01\n      add\n      swap1\n      dup1\n      dup4\n      gt\n      tag_193\n      jumpi\n    tag_192:\n      pop\n      pop\n      pop\n      pop\n      pop\n      dup2\n      mstore\n      pop\n        /* \"contracts/Twitter0.8v.sol\":1922:2219  Tweet memory NewTweet = Tweet({... */\n      swap1\n      pop\n        /* \"contracts/Twitter0.8v.sol\":2230:2240  Tweet_info */\n      0x03\n        /* \"contracts/Twitter0.8v.sol\":2230:2252  Tweet_info[msg.sender] */\n      0x00\n        /* \"contracts/Twitter0.8v.sol\":2241:2251  msg.sender */\n      caller\n        /* \"contracts/Twitter0.8v.sol\":2230:2252  Tweet_info[msg.sender] */\n      0xffffffffffffffffffffffffffffffffffffffff\n      and\n      0xffffffffffffffffffffffffffffffffffffffff\n      and\n      dup2\n      mstore\n      0x20\n      add\n      swap1\n      dup2\n      mstore\n      0x20\n      add\n      0x00\n      keccak256\n        /* \"contracts/Twitter0.8v.sol\":2258:2266  NewTweet */\n      dup2\n        /* \"contracts/Twitter0.8v.sol\":2230:2267  Tweet_info[msg.sender].push(NewTweet) */\n      swap1\n      dup1\n      0x01\n      dup2\n      sload\n      add\n      dup1\n      dup3\n      sstore\n      dup1\n      swap2\n      pop\n      pop\n      0x01\n      swap1\n      sub\n      swap1\n      0x00\n      mstore\n      keccak256(0x00, 0x20)\n      swap1\n      0x08\n      mul\n      add\n      0x00\n      swap1\n      swap2\n      swap1\n      swap2\n      swap1\n      swap2\n      pop\n      0x00\n      dup3\n      add\n      mload\n      dup2\n      0x00\n      add\n      sstore\n      0x20\n      dup3\n      add\n      mload\n      dup2\n      0x01\n      add\n      swap1\n      dup2\n      tag_195\n      swap2\n      swap1\n      tag_196\n      jump\t// in\n    tag_195:\n      pop\n      0x40\n      dup3\n      add\n      mload\n      dup2\n      0x02\n      add\n      exp(0x0100, 0x00)\n      dup2\n      sload\n      dup2\n      0xffffffffffffffffffffffffffffffffffffffff\n      mul\n      not\n      and\n      swap1\n      dup4\n      0xffffffffffffffffffffffffffffffffffffffff\n      and\n      mul\n      or\n      swap1\n      sstore\n      pop\n      0x60\n      dup3\n      add\n      mload\n      dup2\n      0x03\n      add\n      sstore\n      0x80\n      dup3\n      add\n      mload\n      dup2\n      0x04\n      add\n      swap1\n      dup1\n      mload\n      swap1\n      0x20\n      add\n      swap1\n      tag_197\n      swap3\n      swap2\n      swap1\n      tag_198\n      jump\t// in\n    tag_197:\n      pop\n      0xa0\n      dup3\n      add\n      mload\n      dup2\n      0x05\n      add\n      sstore\n      0xc0\n      dup3\n      add\n      mload\n      dup2\n      0x06\n      add\n      sstore\n      0xe0\n      dup3\n      add\n      mload\n      dup2\n      0x07\n      add\n      swap1\n      dup1\n      mload\n      swap1\n      0x20\n      add\n      swap1\n      tag_199\n      swap3\n      swap2\n      swap1\n      tag_198\n      jump\t// in\n    tag_199:\n      pop\n      pop\n      pop\n        /* \"contracts/Twitter0.8v.sol\":2282:2424  TweetCreated(... */\n      0x16fd3c13e9d46923e0a8bce11c7b473ec508a72e6c96cd2404b29ce972afc29e\n        /* \"contracts/Twitter0.8v.sol\":2340:2341  1 */\n      0x01\n        /* \"contracts/Twitter0.8v.sol\":2308:2318  Tweet_info */\n      0x03\n        /* \"contracts/Twitter0.8v.sol\":2308:2330  Tweet_info[msg.sender] */\n      0x00\n        /* \"contracts/Twitter0.8v.sol\":2319:2329  msg.sender */\n      caller\n        /* \"contracts/Twitter0.8v.sol\":2308:2330  Tweet_info[msg.sender] */\n      0xffffffffffffffffffffffffffffffffffffffff\n      and\n      0xffffffffffffffffffffffffffffffffffffffff\n      and\n      dup2\n      mstore\n      0x20\n      add\n      swap1\n      dup2\n      mstore\n      0x20\n      add\n      0x00\n      keccak256\n        /* \"contracts/Twitter0.8v.sol\":2308:2337  Tweet_info[msg.sender].length */\n      dup1\n      sload\n      swap1\n      pop\n        /* \"contracts/Twitter0.8v.sol\":2308:2341  Tweet_info[msg.sender].length + 1 */\n      tag_200\n      swap2\n      swap1\n      tag_189\n      jump\t// in\n    tag_200:\n        /* \"contracts/Twitter0.8v.sol\":2355:2365  msg.sender */\n      caller\n        /* \"contracts/Twitter0.8v.sol\":2379:2385  _tweet */\n      dup5\n        /* \"contracts/Twitter0.8v.sol\":2399:2414  block.timestamp */\n      timestamp\n        /* \"contracts/Twitter0.8v.sol\":2282:2424  TweetCreated(... */\n      mload(0x40)\n      tag_201\n      swap5\n      swap4\n      swap3\n      swap2\n      swap1\n      tag_202\n      jump\t// in\n    tag_201:\n      mload(0x40)\n      dup1\n      swap2\n      sub\n      swap1\n      log1\n        /* \"contracts/Twitter0.8v.sol\":1372:2431  {... */\n      pop\n        /* \"contracts/Twitter0.8v.sol\":1322:2431  function createTweet(string memory _tweet) public {... */\n      pop\n      jump\t// out\n        /* \"contracts/Twitter0.8v.sol\":5027:5314  function getTotalLikes(address author) external view returns (uint256) {... */\n    tag_44:\n        /* \"contracts/Twitter0.8v.sol\":5089:5096  uint256 */\n      0x00\n        /* \"contracts/Twitter0.8v.sol\":5108:5126  uint256 TotalLikes */\n      dup1\n        /* \"contracts/Twitter0.8v.sol\":5129:5130  0 */\n      0x00\n        /* \"contracts/Twitter0.8v.sol\":5108:5130  uint256 TotalLikes = 0 */\n      swap1\n      pop\n        /* \"contracts/Twitter0.8v.sol\":5146:5155  uint256 i */\n      0x00\n        /* \"contracts/Twitter0.8v.sol\":5141:5280  for (uint256 i = 0; i < Tweet_info[author].length; i++) {... */\n    tag_204:\n        /* \"contracts/Twitter0.8v.sol\":5165:5175  Tweet_info */\n      0x03\n        /* \"contracts/Twitter0.8v.sol\":5165:5183  Tweet_info[author] */\n      0x00\n        /* \"contracts/Twitter0.8v.sol\":5176:5182  author */\n      dup6\n        /* \"contracts/Twitter0.8v.sol\":5165:5183  Tweet_info[author] */\n      0xffffffffffffffffffffffffffffffffffffffff\n      and\n      0xffffffffffffffffffffffffffffffffffffffff\n      and\n      dup2\n      mstore\n      0x20\n      add\n      swap1\n      dup2\n      mstore\n      0x20\n      add\n      0x00\n      keccak256\n        /* \"contracts/Twitter0.8v.sol\":5165:5190  Tweet_info[author].length */\n      dup1\n      sload\n      swap1\n      pop\n        /* \"contracts/Twitter0.8v.sol\":5161:5162  i */\n      dup2\n        /* \"contracts/Twitter0.8v.sol\":5161:5190  i < Tweet_info[author].length */\n      lt\n        /* \"contracts/Twitter0.8v.sol\":5141:5280  for (uint256 i = 0; i < Tweet_info[author].length; i++) {... */\n      iszero\n      tag_205\n      jumpi\n        /* \"contracts/Twitter0.8v.sol\":5237:5247  Tweet_info */\n      0x03\n        /* \"contracts/Twitter0.8v.sol\":5237:5255  Tweet_info[author] */\n      0x00\n        /* \"contracts/Twitter0.8v.sol\":5248:5254  author */\n      dup6\n        /* \"contracts/Twitter0.8v.sol\":5237:5255  Tweet_info[author] */\n      0xffffffffffffffffffffffffffffffffffffffff\n      and\n      0xffffffffffffffffffffffffffffffffffffffff\n      and\n      dup2\n      mstore\n      0x20\n      add\n      swap1\n      dup2\n      mstore\n      0x20\n      add\n      0x00\n      keccak256\n        /* \"contracts/Twitter0.8v.sol\":5256:5257  i */\n      dup2\n        /* \"contracts/Twitter0.8v.sol\":5237:5258  Tweet_info[author][i] */\n      dup2\n      sload\n      dup2\n      lt\n      tag_207\n      jumpi\n      tag_208\n      tag_76\n      jump\t// in\n    tag_208:\n    tag_207:\n      swap1\n      0x00\n      mstore\n      keccak256(0x00, 0x20)\n      swap1\n      0x08\n      mul\n      add\n        /* \"contracts/Twitter0.8v.sol\":5237:5269  Tweet_info[author][i].LikesCount */\n      0x05\n      add\n      sload\n        /* \"contracts/Twitter0.8v.sol\":5224:5234  TotalLikes */\n      dup3\n        /* \"contracts/Twitter0.8v.sol\":5224:5269  TotalLikes + Tweet_info[author][i].LikesCount */\n      tag_210\n      swap2\n      swap1\n      tag_189\n      jump\t// in\n    tag_210:\n        /* \"contracts/Twitter0.8v.sol\":5211:5269  TotalLikes = TotalLikes + Tweet_info[author][i].LikesCount */\n      swap2\n      pop\n        /* \"contracts/Twitter0.8v.sol\":5192:5195  i++ */\n      dup1\n      dup1\n      0x01\n      add\n      swap2\n      pop\n      pop\n        /* \"contracts/Twitter0.8v.sol\":5141:5280  for (uint256 i = 0; i < Tweet_info[author].length; i++) {... */\n      jump(tag_204)\n    tag_205:\n      pop\n        /* \"contracts/Twitter0.8v.sol\":5297:5307  TotalLikes */\n      dup1\n        /* \"contracts/Twitter0.8v.sol\":5290:5307  return TotalLikes */\n      swap2\n      pop\n      pop\n        /* \"contracts/Twitter0.8v.sol\":5027:5314  function getTotalLikes(address author) external view returns (uint256) {... */\n      swap2\n      swap1\n      pop\n      jump\t// out\n        /* \"@openzeppelin/contracts/access/Ownable.sol\":1638:1723  function owner() public view virtual returns (address) {... */\n    tag_48:\n        /* \"@openzeppelin/contracts/access/Ownable.sol\":1684:1691  address */\n      0x00\n        /* \"@openzeppelin/contracts/access/Ownable.sol\":1710:1716  _owner */\n      dup1\n      0x00\n      swap1\n      sload\n      swap1\n      0x0100\n      exp\n      swap1\n      div\n      0xffffffffffffffffffffffffffffffffffffffff\n      and\n        /* \"@openzeppelin/contracts/access/Ownable.sol\":1703:1716  return _owner */\n      swap1\n      pop\n        /* \"@openzeppelin/contracts/access/Ownable.sol\":1638:1723  function owner() public view virtual returns (address) {... */\n      swap1\n      jump\t// out\n        /* \"contracts/Twitter0.8v.sol\":4603:5021  function UnlikeTweet(address User, uint256 TweetIndex)... */\n    tag_53:\n        /* \"contracts/Twitter0.8v.sol\":4701:4705  User */\n      dup2\n        /* \"contracts/Twitter0.8v.sol\":4707:4717  TweetIndex */\n      dup2\n        /* \"contracts/Twitter0.8v.sol\":2629:2637  bool res */\n      0x00\n        /* \"contracts/Twitter0.8v.sol\":2640:2644  true */\n      0x01\n        /* \"contracts/Twitter0.8v.sol\":2629:2644  bool res = true */\n      swap1\n      pop\n        /* \"contracts/Twitter0.8v.sol\":2715:2717  id */\n      dup2\n        /* \"contracts/Twitter0.8v.sol\":2688:2698  Tweet_info */\n      0x03\n        /* \"contracts/Twitter0.8v.sol\":2688:2704  Tweet_info[User] */\n      0x00\n        /* \"contracts/Twitter0.8v.sol\":2699:2703  User */\n      dup6\n        /* \"contracts/Twitter0.8v.sol\":2688:2704  Tweet_info[User] */\n      0xffffffffffffffffffffffffffffffffffffffff\n      and\n      0xffffffffffffffffffffffffffffffffffffffff\n      and\n      dup2\n      mstore\n      0x20\n      add\n      swap1\n      dup2\n      mstore\n      0x20\n      add\n      0x00\n      keccak256\n        /* \"contracts/Twitter0.8v.sol\":2688:2711  Tweet_info[User].length */\n      dup1\n      sload\n      swap1\n      pop\n        /* \"contracts/Twitter0.8v.sol\":2688:2717  Tweet_info[User].length >= id */\n      lt\n      iszero\n        /* \"contracts/Twitter0.8v.sol\":2680:2744  require(Tweet_info[User].length >= id, \"This Tweet Not Exist !\") */\n      tag_213\n      jumpi\n      mload(0x40)\n      0x08c379a000000000000000000000000000000000000000000000000000000000\n      dup2\n      mstore\n      0x04\n      add\n      tag_214\n      swap1\n      tag_68\n      jump\t// in\n    tag_214:\n      mload(0x40)\n      dup1\n      swap2\n      sub\n      swap1\n      revert\n    tag_213:\n        /* \"contracts/Twitter0.8v.sol\":2760:2769  uint256 l */\n      0x00\n        /* \"contracts/Twitter0.8v.sol\":2755:2967  for (uint256 l = 0; l < Tweet_info[User][id - 1].likes.length; l++) {... */\n    tag_215:\n        /* \"contracts/Twitter0.8v.sol\":2779:2789  Tweet_info */\n      0x03\n        /* \"contracts/Twitter0.8v.sol\":2779:2795  Tweet_info[User] */\n      0x00\n        /* \"contracts/Twitter0.8v.sol\":2790:2794  User */\n      dup6\n        /* \"contracts/Twitter0.8v.sol\":2779:2795  Tweet_info[User] */\n      0xffffffffffffffffffffffffffffffffffffffff\n      and\n      0xffffffffffffffffffffffffffffffffffffffff\n      and\n      dup2\n      mstore\n      0x20\n      add\n      swap1\n      dup2\n      mstore\n      0x20\n      add\n      0x00\n      keccak256\n        /* \"contracts/Twitter0.8v.sol\":2801:2802  1 */\n      0x01\n        /* \"contracts/Twitter0.8v.sol\":2796:2798  id */\n      dup5\n        /* \"contracts/Twitter0.8v.sol\":2796:2802  id - 1 */\n      tag_218\n      swap2\n      swap1\n      tag_73\n      jump\t// in\n    tag_218:\n        /* \"contracts/Twitter0.8v.sol\":2779:2803  Tweet_info[User][id - 1] */\n      dup2\n      sload\n      dup2\n      lt\n      tag_219\n      jumpi\n      tag_220\n      tag_76\n      jump\t// in\n    tag_220:\n    tag_219:\n      swap1\n      0x00\n      mstore\n      keccak256(0x00, 0x20)\n      swap1\n      0x08\n      mul\n      add\n        /* \"contracts/Twitter0.8v.sol\":2779:2809  Tweet_info[User][id - 1].likes */\n      0x04\n      add\n        /* \"contracts/Twitter0.8v.sol\":2779:2816  Tweet_info[User][id - 1].likes.length */\n      dup1\n      sload\n      swap1\n      pop\n        /* \"contracts/Twitter0.8v.sol\":2775:2776  l */\n      dup2\n        /* \"contracts/Twitter0.8v.sol\":2775:2816  l < Tweet_info[User][id - 1].likes.length */\n      lt\n        /* \"contracts/Twitter0.8v.sol\":2755:2967  for (uint256 l = 0; l < Tweet_info[User][id - 1].likes.length; l++) {... */\n      iszero\n      tag_216\n      jumpi\n        /* \"contracts/Twitter0.8v.sol\":2878:2888  msg.sender */\n      caller\n        /* \"contracts/Twitter0.8v.sol\":2841:2888  Tweet_info[User][id - 1].likes[l] == msg.sender */\n      0xffffffffffffffffffffffffffffffffffffffff\n      and\n        /* \"contracts/Twitter0.8v.sol\":2841:2851  Tweet_info */\n      0x03\n        /* \"contracts/Twitter0.8v.sol\":2841:2857  Tweet_info[User] */\n      0x00\n        /* \"contracts/Twitter0.8v.sol\":2852:2856  User */\n      dup7\n        /* \"contracts/Twitter0.8v.sol\":2841:2857  Tweet_info[User] */\n      0xffffffffffffffffffffffffffffffffffffffff\n      and\n      0xffffffffffffffffffffffffffffffffffffffff\n      and\n      dup2\n      mstore\n      0x20\n      add\n      swap1\n      dup2\n      mstore\n      0x20\n      add\n      0x00\n      keccak256\n        /* \"contracts/Twitter0.8v.sol\":2863:2864  1 */\n      0x01\n        /* \"contracts/Twitter0.8v.sol\":2858:2860  id */\n      dup6\n        /* \"contracts/Twitter0.8v.sol\":2858:2864  id - 1 */\n      tag_222\n      swap2\n      swap1\n      tag_73\n      jump\t// in\n    tag_222:\n        /* \"contracts/Twitter0.8v.sol\":2841:2865  Tweet_info[User][id - 1] */\n      dup2\n      sload\n      dup2\n      lt\n      tag_223\n      jumpi\n      tag_224\n      tag_76\n      jump\t// in\n    tag_224:\n    tag_223:\n      swap1\n      0x00\n      mstore\n      keccak256(0x00, 0x20)\n      swap1\n      0x08\n      mul\n      add\n        /* \"contracts/Twitter0.8v.sol\":2841:2871  Tweet_info[User][id - 1].likes */\n      0x04\n      add\n        /* \"contracts/Twitter0.8v.sol\":2872:2873  l */\n      dup3\n        /* \"contracts/Twitter0.8v.sol\":2841:2874  Tweet_info[User][id - 1].likes[l] */\n      dup2\n      sload\n      dup2\n      lt\n      tag_226\n      jumpi\n      tag_227\n      tag_76\n      jump\t// in\n    tag_227:\n    tag_226:\n      swap1\n      0x00\n      mstore\n      keccak256(0x00, 0x20)\n      add\n      0x00\n      swap1\n      sload\n      swap1\n      0x0100\n      exp\n      swap1\n      div\n      0xffffffffffffffffffffffffffffffffffffffff\n      and\n        /* \"contracts/Twitter0.8v.sol\":2841:2888  Tweet_info[User][id - 1].likes[l] == msg.sender */\n      0xffffffffffffffffffffffffffffffffffffffff\n      and\n      sub\n        /* \"contracts/Twitter0.8v.sol\":2837:2957  if (Tweet_info[User][id - 1].likes[l] == msg.sender) {... */\n      tag_229\n      jumpi\n        /* \"contracts/Twitter0.8v.sol\":2914:2919  false */\n      0x00\n        /* \"contracts/Twitter0.8v.sol\":2908:2919  res = false */\n      swap2\n      pop\n        /* \"contracts/Twitter0.8v.sol\":2937:2942  break */\n      jump(tag_216)\n        /* \"contracts/Twitter0.8v.sol\":2837:2957  if (Tweet_info[User][id - 1].likes[l] == msg.sender) {... */\n    tag_229:\n        /* \"contracts/Twitter0.8v.sol\":2818:2821  l++ */\n      dup1\n      dup1\n      0x01\n      add\n      swap2\n      pop\n      pop\n        /* \"contracts/Twitter0.8v.sol\":2755:2967  for (uint256 l = 0; l < Tweet_info[User][id - 1].likes.length; l++) {... */\n      jump(tag_215)\n    tag_216:\n      pop\n        /* \"contracts/Twitter0.8v.sol\":2992:2996  true */\n      0x01\n        /* \"contracts/Twitter0.8v.sol\":2985:2996  res == true */\n      iszero\n      iszero\n        /* \"contracts/Twitter0.8v.sol\":2985:2988  res */\n      dup2\n        /* \"contracts/Twitter0.8v.sol\":2985:2996  res == true */\n      iszero\n      iszero\n      eq\n        /* \"contracts/Twitter0.8v.sol\":2977:3029  require(res == true, \"You Already Liked the tweet!\") */\n      tag_230\n      jumpi\n      mload(0x40)\n      0x08c379a000000000000000000000000000000000000000000000000000000000\n      dup2\n      mstore\n      0x04\n      add\n      tag_231\n      swap1\n      tag_88\n      jump\t// in\n    tag_231:\n      mload(0x40)\n      dup1\n      swap2\n      sub\n      swap1\n      revert\n    tag_230:\n        /* \"contracts/Twitter0.8v.sol\":4747:4751  User */\n      dup5\n        /* \"contracts/Twitter0.8v.sol\":4753:4763  TweetIndex */\n      dup5\n        /* \"contracts/Twitter0.8v.sol\":3118:3126  bool res */\n      0x00\n        /* \"contracts/Twitter0.8v.sol\":3129:3133  true */\n      0x01\n        /* \"contracts/Twitter0.8v.sol\":3118:3133  bool res = true */\n      swap1\n      pop\n        /* \"contracts/Twitter0.8v.sol\":3204:3206  id */\n      dup2\n        /* \"contracts/Twitter0.8v.sol\":3177:3187  Tweet_info */\n      0x03\n        /* \"contracts/Twitter0.8v.sol\":3177:3193  Tweet_info[User] */\n      0x00\n        /* \"contracts/Twitter0.8v.sol\":3188:3192  User */\n      dup6\n        /* \"contracts/Twitter0.8v.sol\":3177:3193  Tweet_info[User] */\n      0xffffffffffffffffffffffffffffffffffffffff\n      and\n      0xffffffffffffffffffffffffffffffffffffffff\n      and\n      dup2\n      mstore\n      0x20\n      add\n      swap1\n      dup2\n      mstore\n      0x20\n      add\n      0x00\n      keccak256\n        /* \"contracts/Twitter0.8v.sol\":3177:3200  Tweet_info[User].length */\n      dup1\n      sload\n      swap1\n      pop\n        /* \"contracts/Twitter0.8v.sol\":3177:3206  Tweet_info[User].length >= id */\n      lt\n      iszero\n        /* \"contracts/Twitter0.8v.sol\":3169:3233  require(Tweet_info[User].length >= id, \"This Tweet Not Exist !\") */\n      tag_233\n      jumpi\n      mload(0x40)\n      0x08c379a000000000000000000000000000000000000000000000000000000000\n      dup2\n      mstore\n      0x04\n      add\n      tag_234\n      swap1\n      tag_68\n      jump\t// in\n    tag_234:\n      mload(0x40)\n      dup1\n      swap2\n      sub\n      swap1\n      revert\n    tag_233:\n        /* \"contracts/Twitter0.8v.sol\":3249:3258  uint256 l */\n      0x00\n        /* \"contracts/Twitter0.8v.sol\":3244:3460  for (uint256 l = 0; l < Tweet_info[User][id - 1].unlikes.length; l++) {... */\n    tag_235:\n        /* \"contracts/Twitter0.8v.sol\":3268:3278  Tweet_info */\n      0x03\n        /* \"contracts/Twitter0.8v.sol\":3268:3284  Tweet_info[User] */\n      0x00\n        /* \"contracts/Twitter0.8v.sol\":3279:3283  User */\n      dup6\n        /* \"contracts/Twitter0.8v.sol\":3268:3284  Tweet_info[User] */\n      0xffffffffffffffffffffffffffffffffffffffff\n      and\n      0xffffffffffffffffffffffffffffffffffffffff\n      and\n      dup2\n      mstore\n      0x20\n      add\n      swap1\n      dup2\n      mstore\n      0x20\n      add\n      0x00\n      keccak256\n        /* \"contracts/Twitter0.8v.sol\":3290:3291  1 */\n      0x01\n        /* \"contracts/Twitter0.8v.sol\":3285:3287  id */\n      dup5\n        /* \"contracts/Twitter0.8v.sol\":3285:3291  id - 1 */\n      tag_238\n      swap2\n      swap1\n      tag_73\n      jump\t// in\n    tag_238:\n        /* \"contracts/Twitter0.8v.sol\":3268:3292  Tweet_info[User][id - 1] */\n      dup2\n      sload\n      dup2\n      lt\n      tag_239\n      jumpi\n      tag_240\n      tag_76\n      jump\t// in\n    tag_240:\n    tag_239:\n      swap1\n      0x00\n      mstore\n      keccak256(0x00, 0x20)\n      swap1\n      0x08\n      mul\n      add\n        /* \"contracts/Twitter0.8v.sol\":3268:3300  Tweet_info[User][id - 1].unlikes */\n      0x07\n      add\n        /* \"contracts/Twitter0.8v.sol\":3268:3307  Tweet_info[User][id - 1].unlikes.length */\n      dup1\n      sload\n      swap1\n      pop\n        /* \"contracts/Twitter0.8v.sol\":3264:3265  l */\n      dup2\n        /* \"contracts/Twitter0.8v.sol\":3264:3307  l < Tweet_info[User][id - 1].unlikes.length */\n      lt\n        /* \"contracts/Twitter0.8v.sol\":3244:3460  for (uint256 l = 0; l < Tweet_info[User][id - 1].unlikes.length; l++) {... */\n      iszero\n      tag_236\n      jumpi\n        /* \"contracts/Twitter0.8v.sol\":3371:3381  msg.sender */\n      caller\n        /* \"contracts/Twitter0.8v.sol\":3332:3381  Tweet_info[User][id - 1].unlikes[l] == msg.sender */\n      0xffffffffffffffffffffffffffffffffffffffff\n      and\n        /* \"contracts/Twitter0.8v.sol\":3332:3342  Tweet_info */\n      0x03\n        /* \"contracts/Twitter0.8v.sol\":3332:3348  Tweet_info[User] */\n      0x00\n        /* \"contracts/Twitter0.8v.sol\":3343:3347  User */\n      dup7\n        /* \"contracts/Twitter0.8v.sol\":3332:3348  Tweet_info[User] */\n      0xffffffffffffffffffffffffffffffffffffffff\n      and\n      0xffffffffffffffffffffffffffffffffffffffff\n      and\n      dup2\n      mstore\n      0x20\n      add\n      swap1\n      dup2\n      mstore\n      0x20\n      add\n      0x00\n      keccak256\n        /* \"contracts/Twitter0.8v.sol\":3354:3355  1 */\n      0x01\n        /* \"contracts/Twitter0.8v.sol\":3349:3351  id */\n      dup6\n        /* \"contracts/Twitter0.8v.sol\":3349:3355  id - 1 */\n      tag_242\n      swap2\n      swap1\n      tag_73\n      jump\t// in\n    tag_242:\n        /* \"contracts/Twitter0.8v.sol\":3332:3356  Tweet_info[User][id - 1] */\n      dup2\n      sload\n      dup2\n      lt\n      tag_243\n      jumpi\n      tag_244\n      tag_76\n      jump\t// in\n    tag_244:\n    tag_243:\n      swap1\n      0x00\n      mstore\n      keccak256(0x00, 0x20)\n      swap1\n      0x08\n      mul\n      add\n        /* \"contracts/Twitter0.8v.sol\":3332:3364  Tweet_info[User][id - 1].unlikes */\n      0x07\n      add\n        /* \"contracts/Twitter0.8v.sol\":3365:3366  l */\n      dup3\n        /* \"contracts/Twitter0.8v.sol\":3332:3367  Tweet_info[User][id - 1].unlikes[l] */\n      dup2\n      sload\n      dup2\n      lt\n      tag_246\n      jumpi\n      tag_247\n      tag_76\n      jump\t// in\n    tag_247:\n    tag_246:\n      swap1\n      0x00\n      mstore\n      keccak256(0x00, 0x20)\n      add\n      0x00\n      swap1\n      sload\n      swap1\n      0x0100\n      exp\n      swap1\n      div\n      0xffffffffffffffffffffffffffffffffffffffff\n      and\n        /* \"contracts/Twitter0.8v.sol\":3332:3381  Tweet_info[User][id - 1].unlikes[l] == msg.sender */\n      0xffffffffffffffffffffffffffffffffffffffff\n      and\n      sub\n        /* \"contracts/Twitter0.8v.sol\":3328:3450  if (Tweet_info[User][id - 1].unlikes[l] == msg.sender) {... */\n      tag_249\n      jumpi\n        /* \"contracts/Twitter0.8v.sol\":3407:3412  false */\n      0x00\n        /* \"contracts/Twitter0.8v.sol\":3401:3412  res = false */\n      swap2\n      pop\n        /* \"contracts/Twitter0.8v.sol\":3430:3435  break */\n      jump(tag_236)\n        /* \"contracts/Twitter0.8v.sol\":3328:3450  if (Tweet_info[User][id - 1].unlikes[l] == msg.sender) {... */\n    tag_249:\n        /* \"contracts/Twitter0.8v.sol\":3309:3312  l++ */\n      dup1\n      dup1\n      0x01\n      add\n      swap2\n      pop\n      pop\n        /* \"contracts/Twitter0.8v.sol\":3244:3460  for (uint256 l = 0; l < Tweet_info[User][id - 1].unlikes.length; l++) {... */\n      jump(tag_235)\n    tag_236:\n      pop\n        /* \"contracts/Twitter0.8v.sol\":3485:3489  true */\n      0x01\n        /* \"contracts/Twitter0.8v.sol\":3478:3489  res == true */\n      iszero\n      iszero\n        /* \"contracts/Twitter0.8v.sol\":3478:3481  res */\n      dup2\n        /* \"contracts/Twitter0.8v.sol\":3478:3489  res == true */\n      iszero\n      iszero\n      eq\n        /* \"contracts/Twitter0.8v.sol\":3470:3524  require(res == true, \"You Already UnLiked the tweet!\") */\n      tag_250\n      jumpi\n      mload(0x40)\n      0x08c379a000000000000000000000000000000000000000000000000000000000\n      dup2\n      mstore\n      0x04\n      add\n      tag_251\n      swap1\n      tag_109\n      jump\t// in\n    tag_251:\n      mload(0x40)\n      dup1\n      swap2\n      sub\n      swap1\n      revert\n    tag_250:\n        /* \"contracts/Twitter0.8v.sol\":4808:4818  msg.sender */\n      caller\n        /* \"contracts/Twitter0.8v.sol\":4800:4818  User != msg.sender */\n      0xffffffffffffffffffffffffffffffffffffffff\n      and\n        /* \"contracts/Twitter0.8v.sol\":4800:4804  User */\n      dup9\n        /* \"contracts/Twitter0.8v.sol\":4800:4818  User != msg.sender */\n      0xffffffffffffffffffffffffffffffffffffffff\n      and\n      sub\n        /* \"contracts/Twitter0.8v.sol\":4779:4890  require(... */\n      tag_253\n      jumpi\n      mload(0x40)\n      0x08c379a000000000000000000000000000000000000000000000000000000000\n      dup2\n      mstore\n      0x04\n      add\n      tag_254\n      swap1\n      tag_113\n      jump\t// in\n    tag_254:\n      mload(0x40)\n      dup1\n      swap2\n      sub\n      swap1\n      revert\n    tag_253:\n        /* \"contracts/Twitter0.8v.sol\":4900:4910  Tweet_info */\n      0x03\n        /* \"contracts/Twitter0.8v.sol\":4900:4916  Tweet_info[User] */\n      0x00\n        /* \"contracts/Twitter0.8v.sol\":4911:4915  User */\n      dup10\n        /* \"contracts/Twitter0.8v.sol\":4900:4916  Tweet_info[User] */\n      0xffffffffffffffffffffffffffffffffffffffff\n      and\n      0xffffffffffffffffffffffffffffffffffffffff\n      and\n      dup2\n      mstore\n      0x20\n      add\n      swap1\n      dup2\n      mstore\n      0x20\n      add\n      0x00\n      keccak256\n        /* \"contracts/Twitter0.8v.sol\":4930:4931  1 */\n      0x01\n        /* \"contracts/Twitter0.8v.sol\":4917:4927  TweetIndex */\n      dup9\n        /* \"contracts/Twitter0.8v.sol\":4917:4931  TweetIndex - 1 */\n      tag_255\n      swap2\n      swap1\n      tag_73\n      jump\t// in\n    tag_255:\n        /* \"contracts/Twitter0.8v.sol\":4900:4932  Tweet_info[User][TweetIndex - 1] */\n      dup2\n      sload\n      dup2\n      lt\n      tag_256\n      jumpi\n      tag_257\n      tag_76\n      jump\t// in\n    tag_257:\n    tag_256:\n      swap1\n      0x00\n      mstore\n      keccak256(0x00, 0x20)\n      swap1\n      0x08\n      mul\n      add\n        /* \"contracts/Twitter0.8v.sol\":4900:4940  Tweet_info[User][TweetIndex - 1].unlikes */\n      0x07\n      add\n        /* \"contracts/Twitter0.8v.sol\":4946:4956  msg.sender */\n      caller\n        /* \"contracts/Twitter0.8v.sol\":4900:4957  Tweet_info[User][TweetIndex - 1].unlikes.push(msg.sender) */\n      swap1\n      dup1\n      0x01\n      dup2\n      sload\n      add\n      dup1\n      dup3\n      sstore\n      dup1\n      swap2\n      pop\n      pop\n      0x01\n      swap1\n      sub\n      swap1\n      0x00\n      mstore\n      keccak256(0x00, 0x20)\n      add\n      0x00\n      swap1\n      swap2\n      swap1\n      swap2\n      swap1\n      swap2\n      0x0100\n      exp\n      dup2\n      sload\n      dup2\n      0xffffffffffffffffffffffffffffffffffffffff\n      mul\n      not\n      and\n      swap1\n      dup4\n      0xffffffffffffffffffffffffffffffffffffffff\n      and\n      mul\n      or\n      swap1\n      sstore\n      pop\n        /* \"contracts/Twitter0.8v.sol\":4967:4977  Tweet_info */\n      0x03\n        /* \"contracts/Twitter0.8v.sol\":4967:4983  Tweet_info[User] */\n      0x00\n        /* \"contracts/Twitter0.8v.sol\":4978:4982  User */\n      dup10\n        /* \"contracts/Twitter0.8v.sol\":4967:4983  Tweet_info[User] */\n      0xffffffffffffffffffffffffffffffffffffffff\n      and\n      0xffffffffffffffffffffffffffffffffffffffff\n      and\n      dup2\n      mstore\n      0x20\n      add\n      swap1\n      dup2\n      mstore\n      0x20\n      add\n      0x00\n      keccak256\n        /* \"contracts/Twitter0.8v.sol\":4997:4998  1 */\n      0x01\n        /* \"contracts/Twitter0.8v.sol\":4984:4994  TweetIndex */\n      dup9\n        /* \"contracts/Twitter0.8v.sol\":4984:4998  TweetIndex - 1 */\n      tag_260\n      swap2\n      swap1\n      tag_73\n      jump\t// in\n    tag_260:\n        /* \"contracts/Twitter0.8v.sol\":4967:4999  Tweet_info[User][TweetIndex - 1] */\n      dup2\n      sload\n      dup2\n      lt\n      tag_261\n      jumpi\n      tag_262\n      tag_76\n      jump\t// in\n    tag_262:\n    tag_261:\n      swap1\n      0x00\n      mstore\n      keccak256(0x00, 0x20)\n      swap1\n      0x08\n      mul\n      add\n        /* \"contracts/Twitter0.8v.sol\":4967:5012  Tweet_info[User][TweetIndex - 1].unlikescount */\n      0x06\n      add\n      0x00\n        /* \"contracts/Twitter0.8v.sol\":4967:5014  Tweet_info[User][TweetIndex - 1].unlikescount++ */\n      dup2\n      sload\n      dup1\n      swap3\n      swap2\n      swap1\n      tag_264\n      swap1\n      tag_124\n      jump\t// in\n    tag_264:\n      swap2\n      swap1\n      pop\n      sstore\n      pop\n        /* \"contracts/Twitter0.8v.sol\":3108:3542  {... */\n      pop\n        /* \"contracts/Twitter0.8v.sol\":3039:3040  _ */\n      pop\n      pop\n        /* \"contracts/Twitter0.8v.sol\":2619:3047  {... */\n      pop\n        /* \"contracts/Twitter0.8v.sol\":4603:5021  function UnlikeTweet(address User, uint256 TweetIndex)... */\n      pop\n      pop\n      pop\n      pop\n      jump\t// out\n        /* \"contracts/Twitter0.8v.sol\":5320:5619  function getTotalUnLikes(address author) external view returns (uint256) {... */\n    tag_56:\n        /* \"contracts/Twitter0.8v.sol\":5384:5391  uint256 */\n      0x00\n        /* \"contracts/Twitter0.8v.sol\":5403:5423  uint256 TotalUnlikes */\n      dup1\n        /* \"contracts/Twitter0.8v.sol\":5426:5427  0 */\n      0x00\n        /* \"contracts/Twitter0.8v.sol\":5403:5427  uint256 TotalUnlikes = 0 */\n      swap1\n      pop\n        /* \"contracts/Twitter0.8v.sol\":5443:5452  uint256 i */\n      0x00\n        /* \"contracts/Twitter0.8v.sol\":5438:5583  for (uint256 i = 0; i < Tweet_info[author].length; i++) {... */\n    tag_266:\n        /* \"contracts/Twitter0.8v.sol\":5462:5472  Tweet_info */\n      0x03\n        /* \"contracts/Twitter0.8v.sol\":5462:5480  Tweet_info[author] */\n      0x00\n        /* \"contracts/Twitter0.8v.sol\":5473:5479  author */\n      dup6\n        /* \"contracts/Twitter0.8v.sol\":5462:5480  Tweet_info[author] */\n      0xffffffffffffffffffffffffffffffffffffffff\n      and\n      0xffffffffffffffffffffffffffffffffffffffff\n      and\n      dup2\n      mstore\n      0x20\n      add\n      swap1\n      dup2\n      mstore\n      0x20\n      add\n      0x00\n      keccak256\n        /* \"contracts/Twitter0.8v.sol\":5462:5487  Tweet_info[author].length */\n      dup1\n      sload\n      swap1\n      pop\n        /* \"contracts/Twitter0.8v.sol\":5458:5459  i */\n      dup2\n        /* \"contracts/Twitter0.8v.sol\":5458:5487  i < Tweet_info[author].length */\n      lt\n        /* \"contracts/Twitter0.8v.sol\":5438:5583  for (uint256 i = 0; i < Tweet_info[author].length; i++) {... */\n      iszero\n      tag_267\n      jumpi\n        /* \"contracts/Twitter0.8v.sol\":5538:5548  Tweet_info */\n      0x03\n        /* \"contracts/Twitter0.8v.sol\":5538:5556  Tweet_info[author] */\n      0x00\n        /* \"contracts/Twitter0.8v.sol\":5549:5555  author */\n      dup6\n        /* \"contracts/Twitter0.8v.sol\":5538:5556  Tweet_info[author] */\n      0xffffffffffffffffffffffffffffffffffffffff\n      and\n      0xffffffffffffffffffffffffffffffffffffffff\n      and\n      dup2\n      mstore\n      0x20\n      add\n      swap1\n      dup2\n      mstore\n      0x20\n      add\n      0x00\n      keccak256\n        /* \"contracts/Twitter0.8v.sol\":5557:5558  i */\n      dup2\n        /* \"contracts/Twitter0.8v.sol\":5538:5559  Tweet_info[author][i] */\n      dup2\n      sload\n      dup2\n      lt\n      tag_269\n      jumpi\n      tag_270\n      tag_76\n      jump\t// in\n    tag_270:\n    tag_269:\n      swap1\n      0x00\n      mstore\n      keccak256(0x00, 0x20)\n      swap1\n      0x08\n      mul\n      add\n        /* \"contracts/Twitter0.8v.sol\":5538:5572  Tweet_info[author][i].unlikescount */\n      0x06\n      add\n      sload\n        /* \"contracts/Twitter0.8v.sol\":5523:5535  TotalUnlikes */\n      dup3\n        /* \"contracts/Twitter0.8v.sol\":5523:5572  TotalUnlikes + Tweet_info[author][i].unlikescount */\n      tag_272\n      swap2\n      swap1\n      tag_189\n      jump\t// in\n    tag_272:\n        /* \"contracts/Twitter0.8v.sol\":5508:5572  TotalUnlikes = TotalUnlikes + Tweet_info[author][i].unlikescount */\n      swap2\n      pop\n        /* \"contracts/Twitter0.8v.sol\":5489:5492  i++ */\n      dup1\n      dup1\n      0x01\n      add\n      swap2\n      pop\n      pop\n        /* \"contracts/Twitter0.8v.sol\":5438:5583  for (uint256 i = 0; i < Tweet_info[author].length; i++) {... */\n      jump(tag_266)\n    tag_267:\n      pop\n        /* \"contracts/Twitter0.8v.sol\":5600:5612  TotalUnlikes */\n      dup1\n        /* \"contracts/Twitter0.8v.sol\":5593:5612  return TotalUnlikes */\n      swap2\n      pop\n      pop\n        /* \"contracts/Twitter0.8v.sol\":5320:5619  function getTotalUnLikes(address author) external view returns (uint256) {... */\n      swap2\n      swap1\n      pop\n      jump\t// out\n        /* \"contracts/Twitter0.8v.sol\":1147:1253  function ChangeTweetLength(uint256 newTweetLen) public onlyOwner{... */\n    tag_61:\n        /* \"@openzeppelin/contracts/access/Ownable.sol\":1531:1544  _checkOwner() */\n      tag_274\n        /* \"@openzeppelin/contracts/access/Ownable.sol\":1531:1542  _checkOwner */\n      tag_167\n        /* \"@openzeppelin/contracts/access/Ownable.sol\":1531:1544  _checkOwner() */\n      jump\t// in\n    tag_274:\n        /* \"contracts/Twitter0.8v.sol\":1235:1246  newTweetLen */\n      dup1\n        /* \"contracts/Twitter0.8v.sol\":1221:1232  TweetLength */\n      0x01\n        /* \"contracts/Twitter0.8v.sol\":1221:1246  TweetLength = newTweetLen */\n      dup2\n      swap1\n      sstore\n      pop\n        /* \"contracts/Twitter0.8v.sol\":1147:1253  function ChangeTweetLength(uint256 newTweetLen) public onlyOwner{... */\n      pop\n      jump\t// out\n        /* \"@openzeppelin/contracts/access/Ownable.sol\":2543:2758  function transferOwnership(address newOwner) public virtual onlyOwner {... */\n    tag_64:\n        /* \"@openzeppelin/contracts/access/Ownable.sol\":1531:1544  _checkOwner() */\n      tag_277\n        /* \"@openzeppelin/contracts/access/Ownable.sol\":1531:1542  _checkOwner */\n      tag_167\n        /* \"@openzeppelin/contracts/access/Ownable.sol\":1531:1544  _checkOwner() */\n      jump\t// in\n    tag_277:\n        /* \"@openzeppelin/contracts/access/Ownable.sol\":2647:2648  0 */\n      0x00\n        /* \"@openzeppelin/contracts/access/Ownable.sol\":2627:2649  newOwner == address(0) */\n      0xffffffffffffffffffffffffffffffffffffffff\n      and\n        /* \"@openzeppelin/contracts/access/Ownable.sol\":2627:2635  newOwner */\n      dup2\n        /* \"@openzeppelin/contracts/access/Ownable.sol\":2627:2649  newOwner == address(0) */\n      0xffffffffffffffffffffffffffffffffffffffff\n      and\n      sub\n        /* \"@openzeppelin/contracts/access/Ownable.sol\":2623:2714  if (newOwner == address(0)) {... */\n      tag_279\n      jumpi\n        /* \"@openzeppelin/contracts/access/Ownable.sol\":2700:2701  0 */\n      0x00\n        /* \"@openzeppelin/contracts/access/Ownable.sol\":2672:2703  OwnableInvalidOwner(address(0)) */\n      mload(0x40)\n      0x1e4fbdf700000000000000000000000000000000000000000000000000000000\n      dup2\n      mstore\n      0x04\n      add\n      tag_280\n      swap2\n      swap1\n      tag_50\n      jump\t// in\n    tag_280:\n      mload(0x40)\n      dup1\n      swap2\n      sub\n      swap1\n      revert\n        /* \"@openzeppelin/contracts/access/Ownable.sol\":2623:2714  if (newOwner == address(0)) {... */\n    tag_279:\n        /* \"@openzeppelin/contracts/access/Ownable.sol\":2723:2751  _transferOwnership(newOwner) */\n      tag_281\n        /* \"@openzeppelin/contracts/access/Ownable.sol\":2742:2750  newOwner */\n      dup2\n        /* \"@openzeppelin/contracts/access/Ownable.sol\":2723:2741  _transferOwnership */\n      tag_170\n        /* \"@openzeppelin/contracts/access/Ownable.sol\":2723:2751  _transferOwnership(newOwner) */\n      jump\t// in\n    tag_281:\n        /* \"@openzeppelin/contracts/access/Ownable.sol\":2543:2758  function transferOwnership(address newOwner) public virtual onlyOwner {... */\n      pop\n      jump\t// out\n        /* \"@openzeppelin/contracts/access/Ownable.sol\":1796:1958  function _checkOwner() internal view virtual {... */\n    tag_167:\n        /* \"@openzeppelin/contracts/access/Ownable.sol\":1866:1878  _msgSender() */\n      tag_283\n        /* \"@openzeppelin/contracts/access/Ownable.sol\":1866:1876  _msgSender */\n      tag_284\n        /* \"@openzeppelin/contracts/access/Ownable.sol\":1866:1878  _msgSender() */\n      jump\t// in\n    tag_283:\n        /* \"@openzeppelin/contracts/access/Ownable.sol\":1855:1878  owner() != _msgSender() */\n      0xffffffffffffffffffffffffffffffffffffffff\n      and\n        /* \"@openzeppelin/contracts/access/Ownable.sol\":1855:1862  owner() */\n      tag_285\n        /* \"@openzeppelin/contracts/access/Ownable.sol\":1855:1860  owner */\n      tag_48\n        /* \"@openzeppelin/contracts/access/Ownable.sol\":1855:1862  owner() */\n      jump\t// in\n    tag_285:\n        /* \"@openzeppelin/contracts/access/Ownable.sol\":1855:1878  owner() != _msgSender() */\n      0xffffffffffffffffffffffffffffffffffffffff\n      and\n      eq\n        /* \"@openzeppelin/contracts/access/Ownable.sol\":1851:1952  if (owner() != _msgSender()) {... */\n      tag_286\n      jumpi\n        /* \"@openzeppelin/contracts/access/Ownable.sol\":1928:1940  _msgSender() */\n      tag_287\n        /* \"@openzeppelin/contracts/access/Ownable.sol\":1928:1938  _msgSender */\n      tag_284\n        /* \"@openzeppelin/contracts/access/Ownable.sol\":1928:1940  _msgSender() */\n      jump\t// in\n    tag_287:\n        /* \"@openzeppelin/contracts/access/Ownable.sol\":1901:1941  OwnableUnauthorizedAccount(_msgSender()) */\n      mload(0x40)\n      0x118cdaa700000000000000000000000000000000000000000000000000000000\n      dup2\n      mstore\n      0x04\n      add\n      tag_288\n      swap2\n      swap1\n      tag_50\n      jump\t// in\n    tag_288:\n      mload(0x40)\n      dup1\n      swap2\n      sub\n      swap1\n      revert\n        /* \"@openzeppelin/contracts/access/Ownable.sol\":1851:1952  if (owner() != _msgSender()) {... */\n    tag_286:\n        /* \"@openzeppelin/contracts/access/Ownable.sol\":1796:1958  function _checkOwner() internal view virtual {... */\n      jump\t// out\n        /* \"@openzeppelin/contracts/access/Ownable.sol\":2912:3099  function _transferOwnership(address newOwner) internal virtual {... */\n    tag_170:\n        /* \"@openzeppelin/contracts/access/Ownable.sol\":2985:3001  address oldOwner */\n      0x00\n        /* \"@openzeppelin/contracts/access/Ownable.sol\":3004:3010  _owner */\n      dup1\n      0x00\n      swap1\n      sload\n      swap1\n      0x0100\n      exp\n      swap1\n      div\n      0xffffffffffffffffffffffffffffffffffffffff\n      and\n        /* \"@openzeppelin/contracts/access/Ownable.sol\":2985:3010  address oldOwner = _owner */\n      swap1\n      pop\n        /* \"@openzeppelin/contracts/access/Ownable.sol\":3029:3037  newOwner */\n      dup2\n        /* \"@openzeppelin/contracts/access/Ownable.sol\":3020:3026  _owner */\n      0x00\n      dup1\n        /* \"@openzeppelin/contracts/access/Ownable.sol\":3020:3037  _owner = newOwner */\n      0x0100\n      exp\n      dup2\n      sload\n      dup2\n      0xffffffffffffffffffffffffffffffffffffffff\n      mul\n      not\n      and\n      swap1\n      dup4\n      0xffffffffffffffffffffffffffffffffffffffff\n      and\n      mul\n      or\n      swap1\n      sstore\n      pop\n        /* \"@openzeppelin/contracts/access/Ownable.sol\":3083:3091  newOwner */\n      dup2\n        /* \"@openzeppelin/contracts/access/Ownable.sol\":3052:3092  OwnershipTransferred(oldOwner, newOwner) */\n      0xffffffffffffffffffffffffffffffffffffffff\n      and\n        /* \"@openzeppelin/contracts/access/Ownable.sol\":3073:3081  oldOwner */\n      dup2\n        /* \"@openzeppelin/contracts/access/Ownable.sol\":3052:3092  OwnershipTransferred(oldOwner, newOwner) */\n      0xffffffffffffffffffffffffffffffffffffffff\n      and\n      0x8be0079c531659141344cd1fd0a4f28419497f9722a3daafe3b4186f6b6457e0\n      mload(0x40)\n      mload(0x40)\n      dup1\n      swap2\n      sub\n      swap1\n      log3\n        /* \"@openzeppelin/contracts/access/Ownable.sol\":2975:3099  {... */\n      pop\n        /* \"@openzeppelin/contracts/access/Ownable.sol\":2912:3099  function _transferOwnership(address newOwner) internal virtual {... */\n      pop\n      jump\t// out\n        /* \"@openzeppelin/contracts/utils/Context.sol\":656:752  function _msgSender() internal view virtual returns (address) {... */\n    tag_284:\n        /* \"@openzeppelin/contracts/utils/Context.sol\":709:716  address */\n      0x00\n        /* \"@openzeppelin/contracts/utils/Context.sol\":735:745  msg.sender */\n      caller\n        /* \"@openzeppelin/contracts/utils/Context.sol\":728:745  return msg.sender */\n      swap1\n      pop\n        /* \"@openzeppelin/contracts/utils/Context.sol\":656:752  function _msgSender() internal view virtual returns (address) {... */\n      swap1\n      jump\t// out\n    tag_136:\n      mload(0x40)\n      dup1\n      0x0100\n      add\n      0x40\n      mstore\n      dup1\n      0x00\n      dup2\n      mstore\n      0x20\n      add\n      0x60\n      dup2\n      mstore\n      0x20\n      add\n      and(0xffffffffffffffffffffffffffffffffffffffff, 0x00)\n      dup2\n      mstore\n      0x20\n      add\n      0x00\n      dup2\n      mstore\n      0x20\n      add\n      0x60\n      dup2\n      mstore\n      0x20\n      add\n      0x00\n      dup2\n      mstore\n      0x20\n      add\n      0x00\n      dup2\n      mstore\n      0x20\n      add\n      0x60\n      dup2\n      mstore\n      pop\n      swap1\n      jump\t// out\n    tag_177:\n      pop\n      dup1\n      sload\n      tag_291\n      swap1\n      tag_143\n      jump\t// in\n    tag_291:\n      0x00\n      dup3\n      sstore\n      dup1\n      0x1f\n      lt\n      tag_293\n      jumpi\n      pop\n      jump(tag_292)\n    tag_293:\n      0x1f\n      add\n      0x20\n      swap1\n      div\n      swap1\n      0x00\n      mstore\n      keccak256(0x00, 0x20)\n      swap1\n      dup2\n      add\n      swap1\n      tag_294\n      swap2\n      swap1\n      tag_295\n      jump\t// in\n    tag_294:\n    tag_292:\n      pop\n      jump\t// out\n    tag_179:\n      pop\n      dup1\n      sload\n      0x00\n      dup3\n      sstore\n      swap1\n      0x00\n      mstore\n      keccak256(0x00, 0x20)\n      swap1\n      dup2\n      add\n      swap1\n      tag_297\n      swap2\n      swap1\n      tag_295\n      jump\t// in\n    tag_297:\n      pop\n      jump\t// out\n    tag_183:\n      pop\n      dup1\n      sload\n      0x00\n      dup3\n      sstore\n      0x08\n      mul\n      swap1\n      0x00\n      mstore\n      keccak256(0x00, 0x20)\n      swap1\n      dup2\n      add\n      swap1\n      tag_299\n      swap2\n      swap1\n      tag_300\n      jump\t// in\n    tag_299:\n      pop\n      jump\t// out\n    tag_198:\n      dup3\n      dup1\n      sload\n      dup3\n      dup3\n      sstore\n      swap1\n      0x00\n      mstore\n      keccak256(0x00, 0x20)\n      swap1\n      dup2\n      add\n      swap3\n      dup3\n      iszero\n      tag_301\n      jumpi\n      swap2\n      0x20\n      mul\n      dup3\n      add\n    tag_302:\n      dup3\n      dup2\n      gt\n      iszero\n      tag_303\n      jumpi\n      dup3\n      mload\n      dup3\n      exp(0x0100, 0x00)\n      dup2\n      sload\n      dup2\n      0xffffffffffffffffffffffffffffffffffffffff\n      mul\n      not\n      and\n      swap1\n      dup4\n      0xffffffffffffffffffffffffffffffffffffffff\n      and\n      mul\n      or\n      swap1\n      sstore\n      pop\n      swap2\n      0x20\n      add\n      swap2\n      swap1\n      0x01\n      add\n      swap1\n      jump(tag_302)\n    tag_303:\n    tag_301:\n      pop\n      swap1\n      pop\n      tag_304\n      swap2\n      swap1\n      tag_295\n      jump\t// in\n    tag_304:\n      pop\n      swap1\n      jump\t// out\n    tag_295:\n    tag_305:\n      dup1\n      dup3\n      gt\n      iszero\n      tag_306\n      jumpi\n      0x00\n      dup2\n      0x00\n      swap1\n      sstore\n      pop\n      0x01\n      add\n      jump(tag_305)\n    tag_306:\n      pop\n      swap1\n      jump\t// out\n    tag_300:\n    tag_307:\n      dup1\n      dup3\n      gt\n      iszero\n      tag_308\n      jumpi\n      0x00\n      dup1\n      dup3\n      add\n      0x00\n      swap1\n      sstore\n      0x01\n      dup3\n      add\n      0x00\n      tag_309\n      swap2\n      swap1\n      tag_177\n      jump\t// in\n    tag_309:\n      0x02\n      dup3\n      add\n      exp(0x0100, 0x00)\n      dup2\n      sload\n      swap1\n      0xffffffffffffffffffffffffffffffffffffffff\n      mul\n      not\n      and\n      swap1\n      sstore\n      0x03\n      dup3\n      add\n      0x00\n      swap1\n      sstore\n      0x04\n      dup3\n      add\n      0x00\n      tag_310\n      swap2\n      swap1\n      tag_179\n      jump\t// in\n    tag_310:\n      0x05\n      dup3\n      add\n      0x00\n      swap1\n      sstore\n      0x06\n      dup3\n      add\n      0x00\n      swap1\n      sstore\n      0x07\n      dup3\n      add\n      0x00\n      tag_311\n      swap2\n      swap1\n      tag_179\n      jump\t// in\n    tag_311:\n      pop\n      0x08\n      add\n      jump(tag_307)\n    tag_308:\n      pop\n      swap1\n      jump\t// out\n        /* \"#utility.yul\":7:82   */\n    tag_312:\n        /* \"#utility.yul\":40:46   */\n      0x00\n        /* \"#utility.yul\":73:75   */\n      0x40\n        /* \"#utility.yul\":67:76   */\n      mload\n        /* \"#utility.yul\":57:76   */\n      swap1\n      pop\n        /* \"#utility.yul\":7:82   */\n      swap1\n      jump\t// out\n        /* \"#utility.yul\":88:205   */\n    tag_313:\n        /* \"#utility.yul\":197:198   */\n      0x00\n        /* \"#utility.yul\":194:195   */\n      dup1\n        /* \"#utility.yul\":187:199   */\n      revert\n        /* \"#utility.yul\":211:328   */\n    tag_314:\n        /* \"#utility.yul\":320:321   */\n      0x00\n        /* \"#utility.yul\":317:318   */\n      dup1\n        /* \"#utility.yul\":310:322   */\n      revert\n        /* \"#utility.yul\":334:460   */\n    tag_315:\n        /* \"#utility.yul\":371:378   */\n      0x00\n        /* \"#utility.yul\":411:453   */\n      0xffffffffffffffffffffffffffffffffffffffff\n        /* \"#utility.yul\":404:409   */\n      dup3\n        /* \"#utility.yul\":400:454   */\n      and\n        /* \"#utility.yul\":389:454   */\n      swap1\n      pop\n        /* \"#utility.yul\":334:460   */\n      swap2\n      swap1\n      pop\n      jump\t// out\n        /* \"#utility.yul\":466:562   */\n    tag_316:\n        /* \"#utility.yul\":503:510   */\n      0x00\n        /* \"#utility.yul\":532:556   */\n      tag_389\n        /* \"#utility.yul\":550:555   */\n      dup3\n        /* \"#utility.yul\":532:556   */\n      tag_315\n      jump\t// in\n    tag_389:\n        /* \"#utility.yul\":521:556   */\n      swap1\n      pop\n        /* \"#utility.yul\":466:562   */\n      swap2\n      swap1\n      pop\n      jump\t// out\n        /* \"#utility.yul\":568:690   */\n    tag_317:\n        /* \"#utility.yul\":641:665   */\n      tag_391\n        /* \"#utility.yul\":659:664   */\n      dup2\n        /* \"#utility.yul\":641:665   */\n      tag_316\n      jump\t// in\n    tag_391:\n        /* \"#utility.yul\":634:639   */\n      dup2\n        /* \"#utility.yul\":631:666   */\n      eq\n        /* \"#utility.yul\":621:684   */\n      tag_392\n      jumpi\n        /* \"#utility.yul\":680:681   */\n      0x00\n        /* \"#utility.yul\":677:678   */\n      dup1\n        /* \"#utility.yul\":670:682   */\n      revert\n        /* \"#utility.yul\":621:684   */\n    tag_392:\n        /* \"#utility.yul\":568:690   */\n      pop\n      jump\t// out\n        /* \"#utility.yul\":696:835   */\n    tag_318:\n        /* \"#utility.yul\":742:747   */\n      0x00\n        /* \"#utility.yul\":780:786   */\n      dup2\n        /* \"#utility.yul\":767:787   */\n      calldataload\n        /* \"#utility.yul\":758:787   */\n      swap1\n      pop\n        /* \"#utility.yul\":796:829   */\n      tag_394\n        /* \"#utility.yul\":823:828   */\n      dup2\n        /* \"#utility.yul\":796:829   */\n      tag_317\n      jump\t// in\n    tag_394:\n        /* \"#utility.yul\":696:835   */\n      swap3\n      swap2\n      pop\n      pop\n      jump\t// out\n        /* \"#utility.yul\":841:918   */\n    tag_319:\n        /* \"#utility.yul\":878:885   */\n      0x00\n        /* \"#utility.yul\":907:912   */\n      dup2\n        /* \"#utility.yul\":896:912   */\n      swap1\n      pop\n        /* \"#utility.yul\":841:918   */\n      swap2\n      swap1\n      pop\n      jump\t// out\n        /* \"#utility.yul\":924:1046   */\n    tag_320:\n        /* \"#utility.yul\":997:1021   */\n      tag_397\n        /* \"#utility.yul\":1015:1020   */\n      dup2\n        /* \"#utility.yul\":997:1021   */\n      tag_319\n      jump\t// in\n    tag_397:\n        /* \"#utility.yul\":990:995   */\n      dup2\n        /* \"#utility.yul\":987:1022   */\n      eq\n        /* \"#utility.yul\":977:1040   */\n      tag_398\n      jumpi\n        /* \"#utility.yul\":1036:1037   */\n      0x00\n        /* \"#utility.yul\":1033:1034   */\n      dup1\n        /* \"#utility.yul\":1026:1038   */\n      revert\n        /* \"#utility.yul\":977:1040   */\n    tag_398:\n        /* \"#utility.yul\":924:1046   */\n      pop\n      jump\t// out\n        /* \"#utility.yul\":1052:1191   */\n    tag_321:\n        /* \"#utility.yul\":1098:1103   */\n      0x00\n        /* \"#utility.yul\":1136:1142   */\n      dup2\n        /* \"#utility.yul\":1123:1143   */\n      calldataload\n        /* \"#utility.yul\":1114:1143   */\n      swap1\n      pop\n        /* \"#utility.yul\":1152:1185   */\n      tag_400\n        /* \"#utility.yul\":1179:1184   */\n      dup2\n        /* \"#utility.yul\":1152:1185   */\n      tag_320\n      jump\t// in\n    tag_400:\n        /* \"#utility.yul\":1052:1191   */\n      swap3\n      swap2\n      pop\n      pop\n      jump\t// out\n        /* \"#utility.yul\":1197:1671   */\n    tag_20:\n        /* \"#utility.yul\":1265:1271   */\n      0x00\n        /* \"#utility.yul\":1273:1279   */\n      dup1\n        /* \"#utility.yul\":1322:1324   */\n      0x40\n        /* \"#utility.yul\":1310:1319   */\n      dup4\n        /* \"#utility.yul\":1301:1308   */\n      dup6\n        /* \"#utility.yul\":1297:1320   */\n      sub\n        /* \"#utility.yul\":1293:1325   */\n      slt\n        /* \"#utility.yul\":1290:1409   */\n      iszero\n      tag_402\n      jumpi\n        /* \"#utility.yul\":1328:1407   */\n      tag_403\n      tag_313\n      jump\t// in\n    tag_403:\n        /* \"#utility.yul\":1290:1409   */\n    tag_402:\n        /* \"#utility.yul\":1448:1449   */\n      0x00\n        /* \"#utility.yul\":1473:1526   */\n      tag_404\n        /* \"#utility.yul\":1518:1525   */\n      dup6\n        /* \"#utility.yul\":1509:1515   */\n      dup3\n        /* \"#utility.yul\":1498:1507   */\n      dup7\n        /* \"#utility.yul\":1494:1516   */\n      add\n        /* \"#utility.yul\":1473:1526   */\n      tag_318\n      jump\t// in\n    tag_404:\n        /* \"#utility.yul\":1463:1526   */\n      swap3\n      pop\n        /* \"#utility.yul\":1419:1536   */\n      pop\n        /* \"#utility.yul\":1575:1577   */\n      0x20\n        /* \"#utility.yul\":1601:1654   */\n      tag_405\n        /* \"#utility.yul\":1646:1653   */\n      dup6\n        /* \"#utility.yul\":1637:1643   */\n      dup3\n        /* \"#utility.yul\":1626:1635   */\n      dup7\n        /* \"#utility.yul\":1622:1644   */\n      add\n        /* \"#utility.yul\":1601:1654   */\n      tag_321\n      jump\t// in\n    tag_405:\n        /* \"#utility.yul\":1591:1654   */\n      swap2\n      pop\n        /* \"#utility.yul\":1546:1664   */\n      pop\n        /* \"#utility.yul\":1197:1671   */\n      swap3\n      pop\n      swap3\n      swap1\n      pop\n      jump\t// out\n        /* \"#utility.yul\":1677:1785   */\n    tag_322:\n        /* \"#utility.yul\":1754:1778   */\n      tag_407\n        /* \"#utility.yul\":1772:1777   */\n      dup2\n        /* \"#utility.yul\":1754:1778   */\n      tag_319\n      jump\t// in\n    tag_407:\n        /* \"#utility.yul\":1749:1752   */\n      dup3\n        /* \"#utility.yul\":1742:1779   */\n      mstore\n        /* \"#utility.yul\":1677:1785   */\n      pop\n      pop\n      jump\t// out\n        /* \"#utility.yul\":1791:1890   */\n    tag_323:\n        /* \"#utility.yul\":1843:1849   */\n      0x00\n        /* \"#utility.yul\":1877:1882   */\n      dup2\n        /* \"#utility.yul\":1871:1883   */\n      mload\n        /* \"#utility.yul\":1861:1883   */\n      swap1\n      pop\n        /* \"#utility.yul\":1791:1890   */\n      swap2\n      swap1\n      pop\n      jump\t// out\n        /* \"#utility.yul\":1896:2055   */\n    tag_324:\n        /* \"#utility.yul\":1970:1981   */\n      0x00\n        /* \"#utility.yul\":2004:2010   */\n      dup3\n        /* \"#utility.yul\":1999:2002   */\n      dup3\n        /* \"#utility.yul\":1992:2011   */\n      mstore\n        /* \"#utility.yul\":2044:2048   */\n      0x20\n        /* \"#utility.yul\":2039:2042   */\n      dup3\n        /* \"#utility.yul\":2035:2049   */\n      add\n        /* \"#utility.yul\":2020:2049   */\n      swap1\n      pop\n        /* \"#utility.yul\":1896:2055   */\n      swap3\n      swap2\n      pop\n      pop\n      jump\t// out\n        /* \"#utility.yul\":2061:2307   */\n    tag_325:\n        /* \"#utility.yul\":2142:2143   */\n      0x00\n        /* \"#utility.yul\":2152:2265   */\n    tag_411:\n        /* \"#utility.yul\":2166:2172   */\n      dup4\n        /* \"#utility.yul\":2163:2164   */\n      dup2\n        /* \"#utility.yul\":2160:2173   */\n      lt\n        /* \"#utility.yul\":2152:2265   */\n      iszero\n      tag_413\n      jumpi\n        /* \"#utility.yul\":2251:2252   */\n      dup1\n        /* \"#utility.yul\":2246:2249   */\n      dup3\n        /* \"#utility.yul\":2242:2253   */\n      add\n        /* \"#utility.yul\":2236:2254   */\n      mload\n        /* \"#utility.yul\":2232:2233   */\n      dup2\n        /* \"#utility.yul\":2227:2230   */\n      dup5\n        /* \"#utility.yul\":2223:2234   */\n      add\n        /* \"#utility.yul\":2216:2255   */\n      mstore\n        /* \"#utility.yul\":2188:2190   */\n      0x20\n        /* \"#utility.yul\":2185:2186   */\n      dup2\n        /* \"#utility.yul\":2181:2191   */\n      add\n        /* \"#utility.yul\":2176:2191   */\n      swap1\n      pop\n        /* \"#utility.yul\":2152:2265   */\n      jump(tag_411)\n    tag_413:\n        /* \"#utility.yul\":2299:2300   */\n      0x00\n        /* \"#utility.yul\":2290:2296   */\n      dup5\n        /* \"#utility.yul\":2285:2288   */\n      dup5\n        /* \"#utility.yul\":2281:2297   */\n      add\n        /* \"#utility.yul\":2274:2301   */\n      mstore\n        /* \"#utility.yul\":2123:2307   */\n      pop\n        /* \"#utility.yul\":2061:2307   */\n      pop\n      pop\n      pop\n      jump\t// out\n        /* \"#utility.yul\":2313:2415   */\n    tag_326:\n        /* \"#utility.yul\":2354:2360   */\n      0x00\n        /* \"#utility.yul\":2405:2407   */\n      0x1f\n        /* \"#utility.yul\":2401:2408   */\n      not\n        /* \"#utility.yul\":2396:2398   */\n      0x1f\n        /* \"#utility.yul\":2389:2394   */\n      dup4\n        /* \"#utility.yul\":2385:2399   */\n      add\n        /* \"#utility.yul\":2381:2409   */\n      and\n        /* \"#utility.yul\":2371:2409   */\n      swap1\n      pop\n        /* \"#utility.yul\":2313:2415   */\n      swap2\n      swap1\n      pop\n      jump\t// out\n        /* \"#utility.yul\":2421:2778   */\n    tag_327:\n        /* \"#utility.yul\":2499:2502   */\n      0x00\n        /* \"#utility.yul\":2527:2566   */\n      tag_416\n        /* \"#utility.yul\":2560:2565   */\n      dup3\n        /* \"#utility.yul\":2527:2566   */\n      tag_323\n      jump\t// in\n    tag_416:\n        /* \"#utility.yul\":2582:2643   */\n      tag_417\n        /* \"#utility.yul\":2636:2642   */\n      dup2\n        /* \"#utility.yul\":2631:2634   */\n      dup6\n        /* \"#utility.yul\":2582:2643   */\n      tag_324\n      jump\t// in\n    tag_417:\n        /* \"#utility.yul\":2575:2643   */\n      swap4\n      pop\n        /* \"#utility.yul\":2652:2717   */\n      tag_418\n        /* \"#utility.yul\":2710:2716   */\n      dup2\n        /* \"#utility.yul\":2705:2708   */\n      dup6\n        /* \"#utility.yul\":2698:2702   */\n      0x20\n        /* \"#utility.yul\":2691:2696   */\n      dup7\n        /* \"#utility.yul\":2687:2703   */\n      add\n        /* \"#utility.yul\":2652:2717   */\n      tag_325\n      jump\t// in\n    tag_418:\n        /* \"#utility.yul\":2742:2771   */\n      tag_419\n        /* \"#utility.yul\":2764:2770   */\n      dup2\n        /* \"#utility.yul\":2742:2771   */\n      tag_326\n      jump\t// in\n    tag_419:\n        /* \"#utility.yul\":2737:2740   */\n      dup5\n        /* \"#utility.yul\":2733:2772   */\n      add\n        /* \"#utility.yul\":2726:2772   */\n      swap2\n      pop\n        /* \"#utility.yul\":2503:2778   */\n      pop\n        /* \"#utility.yul\":2421:2778   */\n      swap3\n      swap2\n      pop\n      pop\n      jump\t// out\n        /* \"#utility.yul\":2784:2892   */\n    tag_328:\n        /* \"#utility.yul\":2861:2885   */\n      tag_421\n        /* \"#utility.yul\":2879:2884   */\n      dup2\n        /* \"#utility.yul\":2861:2885   */\n      tag_316\n      jump\t// in\n    tag_421:\n        /* \"#utility.yul\":2856:2859   */\n      dup3\n        /* \"#utility.yul\":2849:2886   */\n      mstore\n        /* \"#utility.yul\":2784:2892   */\n      pop\n      pop\n      jump\t// out\n        /* \"#utility.yul\":2898:3012   */\n    tag_329:\n        /* \"#utility.yul\":2965:2971   */\n      0x00\n        /* \"#utility.yul\":2999:3004   */\n      dup2\n        /* \"#utility.yul\":2993:3005   */\n      mload\n        /* \"#utility.yul\":2983:3005   */\n      swap1\n      pop\n        /* \"#utility.yul\":2898:3012   */\n      swap2\n      swap1\n      pop\n      jump\t// out\n        /* \"#utility.yul\":3018:3192   */\n    tag_330:\n        /* \"#utility.yul\":3107:3118   */\n      0x00\n        /* \"#utility.yul\":3141:3147   */\n      dup3\n        /* \"#utility.yul\":3136:3139   */\n      dup3\n        /* \"#utility.yul\":3129:3148   */\n      mstore\n        /* \"#utility.yul\":3181:3185   */\n      0x20\n        /* \"#utility.yul\":3176:3179   */\n      dup3\n        /* \"#utility.yul\":3172:3186   */\n      add\n        /* \"#utility.yul\":3157:3186   */\n      swap1\n      pop\n        /* \"#utility.yul\":3018:3192   */\n      swap3\n      swap2\n      pop\n      pop\n      jump\t// out\n        /* \"#utility.yul\":3198:3330   */\n    tag_331:\n        /* \"#utility.yul\":3265:3269   */\n      0x00\n        /* \"#utility.yul\":3288:3291   */\n      dup2\n        /* \"#utility.yul\":3280:3291   */\n      swap1\n      pop\n        /* \"#utility.yul\":3318:3322   */\n      0x20\n        /* \"#utility.yul\":3313:3316   */\n      dup3\n        /* \"#utility.yul\":3309:3323   */\n      add\n        /* \"#utility.yul\":3301:3323   */\n      swap1\n      pop\n        /* \"#utility.yul\":3198:3330   */\n      swap2\n      swap1\n      pop\n      jump\t// out\n        /* \"#utility.yul\":3336:3515   */\n    tag_332:\n        /* \"#utility.yul\":3405:3415   */\n      0x00\n        /* \"#utility.yul\":3426:3472   */\n      tag_426\n        /* \"#utility.yul\":3468:3471   */\n      dup4\n        /* \"#utility.yul\":3460:3466   */\n      dup4\n        /* \"#utility.yul\":3426:3472   */\n      tag_328\n      jump\t// in\n    tag_426:\n        /* \"#utility.yul\":3504:3508   */\n      0x20\n        /* \"#utility.yul\":3499:3502   */\n      dup4\n        /* \"#utility.yul\":3495:3509   */\n      add\n        /* \"#utility.yul\":3481:3509   */\n      swap1\n      pop\n        /* \"#utility.yul\":3336:3515   */\n      swap3\n      swap2\n      pop\n      pop\n      jump\t// out\n        /* \"#utility.yul\":3521:3634   */\n    tag_333:\n        /* \"#utility.yul\":3591:3595   */\n      0x00\n        /* \"#utility.yul\":3623:3627   */\n      0x20\n        /* \"#utility.yul\":3618:3621   */\n      dup3\n        /* \"#utility.yul\":3614:3628   */\n      add\n        /* \"#utility.yul\":3606:3628   */\n      swap1\n      pop\n        /* \"#utility.yul\":3521:3634   */\n      swap2\n      swap1\n      pop\n      jump\t// out\n        /* \"#utility.yul\":3670:4382   */\n    tag_334:\n        /* \"#utility.yul\":3779:3782   */\n      0x00\n        /* \"#utility.yul\":3808:3862   */\n      tag_429\n        /* \"#utility.yul\":3856:3861   */\n      dup3\n        /* \"#utility.yul\":3808:3862   */\n      tag_329\n      jump\t// in\n    tag_429:\n        /* \"#utility.yul\":3878:3954   */\n      tag_430\n        /* \"#utility.yul\":3947:3953   */\n      dup2\n        /* \"#utility.yul\":3942:3945   */\n      dup6\n        /* \"#utility.yul\":3878:3954   */\n      tag_330\n      jump\t// in\n    tag_430:\n        /* \"#utility.yul\":3871:3954   */\n      swap4\n      pop\n        /* \"#utility.yul\":3978:4034   */\n      tag_431\n        /* \"#utility.yul\":4028:4033   */\n      dup4\n        /* \"#utility.yul\":3978:4034   */\n      tag_331\n      jump\t// in\n    tag_431:\n        /* \"#utility.yul\":4057:4064   */\n      dup1\n        /* \"#utility.yul\":4088:4089   */\n      0x00\n        /* \"#utility.yul\":4073:4357   */\n    tag_432:\n        /* \"#utility.yul\":4098:4104   */\n      dup4\n        /* \"#utility.yul\":4095:4096   */\n      dup2\n        /* \"#utility.yul\":4092:4105   */\n      lt\n        /* \"#utility.yul\":4073:4357   */\n      iszero\n      tag_434\n      jumpi\n        /* \"#utility.yul\":4174:4180   */\n      dup2\n        /* \"#utility.yul\":4168:4181   */\n      mload\n        /* \"#utility.yul\":4201:4264   */\n      tag_435\n        /* \"#utility.yul\":4260:4263   */\n      dup9\n        /* \"#utility.yul\":4245:4258   */\n      dup3\n        /* \"#utility.yul\":4201:4264   */\n      tag_332\n      jump\t// in\n    tag_435:\n        /* \"#utility.yul\":4194:4264   */\n      swap8\n      pop\n        /* \"#utility.yul\":4287:4347   */\n      tag_436\n        /* \"#utility.yul\":4340:4346   */\n      dup4\n        /* \"#utility.yul\":4287:4347   */\n      tag_333\n      jump\t// in\n    tag_436:\n        /* \"#utility.yul\":4277:4347   */\n      swap3\n      pop\n        /* \"#utility.yul\":4133:4357   */\n      pop\n        /* \"#utility.yul\":4120:4121   */\n      0x01\n        /* \"#utility.yul\":4117:4118   */\n      dup2\n        /* \"#utility.yul\":4113:4122   */\n      add\n        /* \"#utility.yul\":4108:4122   */\n      swap1\n      pop\n        /* \"#utility.yul\":4073:4357   */\n      jump(tag_432)\n    tag_434:\n        /* \"#utility.yul\":4077:4091   */\n      pop\n        /* \"#utility.yul\":4373:4376   */\n      dup6\n        /* \"#utility.yul\":4366:4376   */\n      swap4\n      pop\n        /* \"#utility.yul\":3784:4382   */\n      pop\n      pop\n      pop\n        /* \"#utility.yul\":3670:4382   */\n      swap3\n      swap2\n      pop\n      pop\n      jump\t// out\n        /* \"#utility.yul\":4440:6314   */\n    tag_335:\n        /* \"#utility.yul\":4553:4556   */\n      0x00\n        /* \"#utility.yul\":4589:4595   */\n      0x0100\n        /* \"#utility.yul\":4584:4587   */\n      dup4\n        /* \"#utility.yul\":4580:4596   */\n      add\n        /* \"#utility.yul\":4676:4680   */\n      0x00\n        /* \"#utility.yul\":4669:4674   */\n      dup4\n        /* \"#utility.yul\":4665:4681   */\n      add\n        /* \"#utility.yul\":4659:4682   */\n      mload\n        /* \"#utility.yul\":4695:4758   */\n      tag_438\n        /* \"#utility.yul\":4752:4756   */\n      0x00\n        /* \"#utility.yul\":4747:4750   */\n      dup7\n        /* \"#utility.yul\":4743:4757   */\n      add\n        /* \"#utility.yul\":4729:4741   */\n      dup3\n        /* \"#utility.yul\":4695:4758   */\n      tag_322\n      jump\t// in\n    tag_438:\n        /* \"#utility.yul\":4606:4768   */\n      pop\n        /* \"#utility.yul\":4853:4857   */\n      0x20\n        /* \"#utility.yul\":4846:4851   */\n      dup4\n        /* \"#utility.yul\":4842:4858   */\n      add\n        /* \"#utility.yul\":4836:4859   */\n      mload\n        /* \"#utility.yul\":4906:4909   */\n      dup5\n        /* \"#utility.yul\":4900:4904   */\n      dup3\n        /* \"#utility.yul\":4896:4910   */\n      sub\n        /* \"#utility.yul\":4889:4893   */\n      0x20\n        /* \"#utility.yul\":4884:4887   */\n      dup7\n        /* \"#utility.yul\":4880:4894   */\n      add\n        /* \"#utility.yul\":4873:4911   */\n      mstore\n        /* \"#utility.yul\":4932:5005   */\n      tag_439\n        /* \"#utility.yul\":5000:5004   */\n      dup3\n        /* \"#utility.yul\":4986:4998   */\n      dup3\n        /* \"#utility.yul\":4932:5005   */\n      tag_327\n      jump\t// in\n    tag_439:\n        /* \"#utility.yul\":4924:5005   */\n      swap2\n      pop\n        /* \"#utility.yul\":4778:5016   */\n      pop\n        /* \"#utility.yul\":5100:5104   */\n      0x40\n        /* \"#utility.yul\":5093:5098   */\n      dup4\n        /* \"#utility.yul\":5089:5105   */\n      add\n        /* \"#utility.yul\":5083:5106   */\n      mload\n        /* \"#utility.yul\":5119:5182   */\n      tag_440\n        /* \"#utility.yul\":5176:5180   */\n      0x40\n        /* \"#utility.yul\":5171:5174   */\n      dup7\n        /* \"#utility.yul\":5167:5181   */\n      add\n        /* \"#utility.yul\":5153:5165   */\n      dup3\n        /* \"#utility.yul\":5119:5182   */\n      tag_328\n      jump\t// in\n    tag_440:\n        /* \"#utility.yul\":5026:5192   */\n      pop\n        /* \"#utility.yul\":5279:5283   */\n      0x60\n        /* \"#utility.yul\":5272:5277   */\n      dup4\n        /* \"#utility.yul\":5268:5284   */\n      add\n        /* \"#utility.yul\":5262:5285   */\n      mload\n        /* \"#utility.yul\":5298:5361   */\n      tag_441\n        /* \"#utility.yul\":5355:5359   */\n      0x60\n        /* \"#utility.yul\":5350:5353   */\n      dup7\n        /* \"#utility.yul\":5346:5360   */\n      add\n        /* \"#utility.yul\":5332:5344   */\n      dup3\n        /* \"#utility.yul\":5298:5361   */\n      tag_322\n      jump\t// in\n    tag_441:\n        /* \"#utility.yul\":5202:5371   */\n      pop\n        /* \"#utility.yul\":5454:5458   */\n      0x80\n        /* \"#utility.yul\":5447:5452   */\n      dup4\n        /* \"#utility.yul\":5443:5459   */\n      add\n        /* \"#utility.yul\":5437:5460   */\n      mload\n        /* \"#utility.yul\":5507:5510   */\n      dup5\n        /* \"#utility.yul\":5501:5505   */\n      dup3\n        /* \"#utility.yul\":5497:5511   */\n      sub\n        /* \"#utility.yul\":5490:5494   */\n      0x80\n        /* \"#utility.yul\":5485:5488   */\n      dup7\n        /* \"#utility.yul\":5481:5495   */\n      add\n        /* \"#utility.yul\":5474:5512   */\n      mstore\n        /* \"#utility.yul\":5533:5636   */\n      tag_442\n        /* \"#utility.yul\":5631:5635   */\n      dup3\n        /* \"#utility.yul\":5617:5629   */\n      dup3\n        /* \"#utility.yul\":5533:5636   */\n      tag_334\n      jump\t// in\n    tag_442:\n        /* \"#utility.yul\":5525:5636   */\n      swap2\n      pop\n        /* \"#utility.yul\":5381:5647   */\n      pop\n        /* \"#utility.yul\":5735:5739   */\n      0xa0\n        /* \"#utility.yul\":5728:5733   */\n      dup4\n        /* \"#utility.yul\":5724:5740   */\n      add\n        /* \"#utility.yul\":5718:5741   */\n      mload\n        /* \"#utility.yul\":5754:5817   */\n      tag_443\n        /* \"#utility.yul\":5811:5815   */\n      0xa0\n        /* \"#utility.yul\":5806:5809   */\n      dup7\n        /* \"#utility.yul\":5802:5816   */\n      add\n        /* \"#utility.yul\":5788:5800   */\n      dup3\n        /* \"#utility.yul\":5754:5817   */\n      tag_322\n      jump\t// in\n    tag_443:\n        /* \"#utility.yul\":5657:5827   */\n      pop\n        /* \"#utility.yul\":5917:5921   */\n      0xc0\n        /* \"#utility.yul\":5910:5915   */\n      dup4\n        /* \"#utility.yul\":5906:5922   */\n      add\n        /* \"#utility.yul\":5900:5923   */\n      mload\n        /* \"#utility.yul\":5936:5999   */\n      tag_444\n        /* \"#utility.yul\":5993:5997   */\n      0xc0\n        /* \"#utility.yul\":5988:5991   */\n      dup7\n        /* \"#utility.yul\":5984:5998   */\n      add\n        /* \"#utility.yul\":5970:5982   */\n      dup3\n        /* \"#utility.yul\":5936:5999   */\n      tag_322\n      jump\t// in\n    tag_444:\n        /* \"#utility.yul\":5837:6009   */\n      pop\n        /* \"#utility.yul\":6094:6098   */\n      0xe0\n        /* \"#utility.yul\":6087:6092   */\n      dup4\n        /* \"#utility.yul\":6083:6099   */\n      add\n        /* \"#utility.yul\":6077:6100   */\n      mload\n        /* \"#utility.yul\":6147:6150   */\n      dup5\n        /* \"#utility.yul\":6141:6145   */\n      dup3\n        /* \"#utility.yul\":6137:6151   */\n      sub\n        /* \"#utility.yul\":6130:6134   */\n      0xe0\n        /* \"#utility.yul\":6125:6128   */\n      dup7\n        /* \"#utility.yul\":6121:6135   */\n      add\n        /* \"#utility.yul\":6114:6152   */\n      mstore\n        /* \"#utility.yul\":6173:6276   */\n      tag_445\n        /* \"#utility.yul\":6271:6275   */\n      dup3\n        /* \"#utility.yul\":6257:6269   */\n      dup3\n        /* \"#utility.yul\":6173:6276   */\n      tag_334\n      jump\t// in\n    tag_445:\n        /* \"#utility.yul\":6165:6276   */\n      swap2\n      pop\n        /* \"#utility.yul\":6019:6287   */\n      pop\n        /* \"#utility.yul\":6304:6308   */\n      dup1\n        /* \"#utility.yul\":6297:6308   */\n      swap2\n      pop\n        /* \"#utility.yul\":4558:6314   */\n      pop\n        /* \"#utility.yul\":4440:6314   */\n      swap3\n      swap2\n      pop\n      pop\n      jump\t// out\n        /* \"#utility.yul\":6320:6681   */\n    tag_26:\n        /* \"#utility.yul\":6457:6461   */\n      0x00\n        /* \"#utility.yul\":6495:6497   */\n      0x20\n        /* \"#utility.yul\":6484:6493   */\n      dup3\n        /* \"#utility.yul\":6480:6498   */\n      add\n        /* \"#utility.yul\":6472:6498   */\n      swap1\n      pop\n        /* \"#utility.yul\":6544:6553   */\n      dup2\n        /* \"#utility.yul\":6538:6542   */\n      dup2\n        /* \"#utility.yul\":6534:6554   */\n      sub\n        /* \"#utility.yul\":6530:6531   */\n      0x00\n        /* \"#utility.yul\":6519:6528   */\n      dup4\n        /* \"#utility.yul\":6515:6532   */\n      add\n        /* \"#utility.yul\":6508:6555   */\n      mstore\n        /* \"#utility.yul\":6572:6674   */\n      tag_447\n        /* \"#utility.yul\":6669:6673   */\n      dup2\n        /* \"#utility.yul\":6660:6666   */\n      dup5\n        /* \"#utility.yul\":6572:6674   */\n      tag_335\n      jump\t// in\n    tag_447:\n        /* \"#utility.yul\":6564:6674   */\n      swap1\n      pop\n        /* \"#utility.yul\":6320:6681   */\n      swap3\n      swap2\n      pop\n      pop\n      jump\t// out\n        /* \"#utility.yul\":6687:6823   */\n    tag_336:\n        /* \"#utility.yul\":6776:6782   */\n      0x00\n        /* \"#utility.yul\":6810:6815   */\n      dup2\n        /* \"#utility.yul\":6804:6816   */\n      mload\n        /* \"#utility.yul\":6794:6816   */\n      swap1\n      pop\n        /* \"#utility.yul\":6687:6823   */\n      swap2\n      swap1\n      pop\n      jump\t// out\n        /* \"#utility.yul\":6829:7035   */\n    tag_337:\n        /* \"#utility.yul\":6950:6961   */\n      0x00\n        /* \"#utility.yul\":6984:6990   */\n      dup3\n        /* \"#utility.yul\":6979:6982   */\n      dup3\n        /* \"#utility.yul\":6972:6991   */\n      mstore\n        /* \"#utility.yul\":7024:7028   */\n      0x20\n        /* \"#utility.yul\":7019:7022   */\n      dup3\n        /* \"#utility.yul\":7015:7029   */\n      add\n        /* \"#utility.yul\":7000:7029   */\n      swap1\n      pop\n        /* \"#utility.yul\":6829:7035   */\n      swap3\n      swap2\n      pop\n      pop\n      jump\t// out\n        /* \"#utility.yul\":7041:7195   */\n    tag_338:\n        /* \"#utility.yul\":7130:7134   */\n      0x00\n        /* \"#utility.yul\":7153:7156   */\n      dup2\n        /* \"#utility.yul\":7145:7156   */\n      swap1\n      pop\n        /* \"#utility.yul\":7183:7187   */\n      0x20\n        /* \"#utility.yul\":7178:7181   */\n      dup3\n        /* \"#utility.yul\":7174:7188   */\n      add\n        /* \"#utility.yul\":7166:7188   */\n      swap1\n      pop\n        /* \"#utility.yul\":7041:7195   */\n      swap2\n      swap1\n      pop\n      jump\t// out\n        /* \"#utility.yul\":7253:9117   */\n    tag_339:\n        /* \"#utility.yul\":7356:7359   */\n      0x00\n        /* \"#utility.yul\":7392:7398   */\n      0x0100\n        /* \"#utility.yul\":7387:7390   */\n      dup4\n        /* \"#utility.yul\":7383:7399   */\n      add\n        /* \"#utility.yul\":7479:7483   */\n      0x00\n        /* \"#utility.yul\":7472:7477   */\n      dup4\n        /* \"#utility.yul\":7468:7484   */\n      add\n        /* \"#utility.yul\":7462:7485   */\n      mload\n        /* \"#utility.yul\":7498:7561   */\n      tag_452\n        /* \"#utility.yul\":7555:7559   */\n      0x00\n        /* \"#utility.yul\":7550:7553   */\n      dup7\n        /* \"#utility.yul\":7546:7560   */\n      add\n        /* \"#utility.yul\":7532:7544   */\n      dup3\n        /* \"#utility.yul\":7498:7561   */\n      tag_322\n      jump\t// in\n    tag_452:\n        /* \"#utility.yul\":7409:7571   */\n      pop\n        /* \"#utility.yul\":7656:7660   */\n      0x20\n        /* \"#utility.yul\":7649:7654   */\n      dup4\n        /* \"#utility.yul\":7645:7661   */\n      add\n        /* \"#utility.yul\":7639:7662   */\n      mload\n        /* \"#utility.yul\":7709:7712   */\n      dup5\n        /* \"#utility.yul\":7703:7707   */\n      dup3\n        /* \"#utility.yul\":7699:7713   */\n      sub\n        /* \"#utility.yul\":7692:7696   */\n      0x20\n        /* \"#utility.yul\":7687:7690   */\n      dup7\n        /* \"#utility.yul\":7683:7697   */\n      add\n        /* \"#utility.yul\":7676:7714   */\n      mstore\n        /* \"#utility.yul\":7735:7808   */\n      tag_453\n        /* \"#utility.yul\":7803:7807   */\n      dup3\n        /* \"#utility.yul\":7789:7801   */\n      dup3\n        /* \"#utility.yul\":7735:7808   */\n      tag_327\n      jump\t// in\n    tag_453:\n        /* \"#utility.yul\":7727:7808   */\n      swap2\n      pop\n        /* \"#utility.yul\":7581:7819   */\n      pop\n        /* \"#utility.yul\":7903:7907   */\n      0x40\n        /* \"#utility.yul\":7896:7901   */\n      dup4\n        /* \"#utility.yul\":7892:7908   */\n      add\n        /* \"#utility.yul\":7886:7909   */\n      mload\n        /* \"#utility.yul\":7922:7985   */\n      tag_454\n        /* \"#utility.yul\":7979:7983   */\n      0x40\n        /* \"#utility.yul\":7974:7977   */\n      dup7\n        /* \"#utility.yul\":7970:7984   */\n      add\n        /* \"#utility.yul\":7956:7968   */\n      dup3\n        /* \"#utility.yul\":7922:7985   */\n      tag_328\n      jump\t// in\n    tag_454:\n        /* \"#utility.yul\":7829:7995   */\n      pop\n        /* \"#utility.yul\":8082:8086   */\n      0x60\n        /* \"#utility.yul\":8075:8080   */\n      dup4\n        /* \"#utility.yul\":8071:8087   */\n      add\n        /* \"#utility.yul\":8065:8088   */\n      mload\n        /* \"#utility.yul\":8101:8164   */\n      tag_455\n        /* \"#utility.yul\":8158:8162   */\n      0x60\n        /* \"#utility.yul\":8153:8156   */\n      dup7\n        /* \"#utility.yul\":8149:8163   */\n      add\n        /* \"#utility.yul\":8135:8147   */\n      dup3\n        /* \"#utility.yul\":8101:8164   */\n      tag_322\n      jump\t// in\n    tag_455:\n        /* \"#utility.yul\":8005:8174   */\n      pop\n        /* \"#utility.yul\":8257:8261   */\n      0x80\n        /* \"#utility.yul\":8250:8255   */\n      dup4\n        /* \"#utility.yul\":8246:8262   */\n      add\n        /* \"#utility.yul\":8240:8263   */\n      mload\n        /* \"#utility.yul\":8310:8313   */\n      dup5\n        /* \"#utility.yul\":8304:8308   */\n      dup3\n        /* \"#utility.yul\":8300:8314   */\n      sub\n        /* \"#utility.yul\":8293:8297   */\n      0x80\n        /* \"#utility.yul\":8288:8291   */\n      dup7\n        /* \"#utility.yul\":8284:8298   */\n      add\n        /* \"#utility.yul\":8277:8315   */\n      mstore\n        /* \"#utility.yul\":8336:8439   */\n      tag_456\n        /* \"#utility.yul\":8434:8438   */\n      dup3\n        /* \"#utility.yul\":8420:8432   */\n      dup3\n        /* \"#utility.yul\":8336:8439   */\n      tag_334\n      jump\t// in\n    tag_456:\n        /* \"#utility.yul\":8328:8439   */\n      swap2\n      pop\n        /* \"#utility.yul\":8184:8450   */\n      pop\n        /* \"#utility.yul\":8538:8542   */\n      0xa0\n        /* \"#utility.yul\":8531:8536   */\n      dup4\n        /* \"#utility.yul\":8527:8543   */\n      add\n        /* \"#utility.yul\":8521:8544   */\n      mload\n        /* \"#utility.yul\":8557:8620   */\n      tag_457\n        /* \"#utility.yul\":8614:8618   */\n      0xa0\n        /* \"#utility.yul\":8609:8612   */\n      dup7\n        /* \"#utility.yul\":8605:8619   */\n      add\n        /* \"#utility.yul\":8591:8603   */\n      dup3\n        /* \"#utility.yul\":8557:8620   */\n      tag_322\n      jump\t// in\n    tag_457:\n        /* \"#utility.yul\":8460:8630   */\n      pop\n        /* \"#utility.yul\":8720:8724   */\n      0xc0\n        /* \"#utility.yul\":8713:8718   */\n      dup4\n        /* \"#utility.yul\":8709:8725   */\n      add\n        /* \"#utility.yul\":8703:8726   */\n      mload\n        /* \"#utility.yul\":8739:8802   */\n      tag_458\n        /* \"#utility.yul\":8796:8800   */\n      0xc0\n        /* \"#utility.yul\":8791:8794   */\n      dup7\n        /* \"#utility.yul\":8787:8801   */\n      add\n        /* \"#utility.yul\":8773:8785   */\n      dup3\n        /* \"#utility.yul\":8739:8802   */\n      tag_322\n      jump\t// in\n    tag_458:\n        /* \"#utility.yul\":8640:8812   */\n      pop\n        /* \"#utility.yul\":8897:8901   */\n      0xe0\n        /* \"#utility.yul\":8890:8895   */\n      dup4\n        /* \"#utility.yul\":8886:8902   */\n      add\n        /* \"#utility.yul\":8880:8903   */\n      mload\n        /* \"#utility.yul\":8950:8953   */\n      dup5\n        /* \"#utility.yul\":8944:8948   */\n      dup3\n        /* \"#utility.yul\":8940:8954   */\n      sub\n        /* \"#utility.yul\":8933:8937   */\n      0xe0\n        /* \"#utility.yul\":8928:8931   */\n      dup7\n        /* \"#utility.yul\":8924:8938   */\n      add\n        /* \"#utility.yul\":8917:8955   */\n      mstore\n        /* \"#utility.yul\":8976:9079   */\n      tag_459\n        /* \"#utility.yul\":9074:9078   */\n      dup3\n        /* \"#utility.yul\":9060:9072   */\n      dup3\n        /* \"#utility.yul\":8976:9079   */\n      tag_334\n      jump\t// in\n    tag_459:\n        /* \"#utility.yul\":8968:9079   */\n      swap2\n      pop\n        /* \"#utility.yul\":8822:9090   */\n      pop\n        /* \"#utility.yul\":9107:9111   */\n      dup1\n        /* \"#utility.yul\":9100:9111   */\n      swap2\n      pop\n        /* \"#utility.yul\":7361:9117   */\n      pop\n        /* \"#utility.yul\":7253:9117   */\n      swap3\n      swap2\n      pop\n      pop\n      jump\t// out\n        /* \"#utility.yul\":9123:9367   */\n    tag_340:\n        /* \"#utility.yul\":9236:9246   */\n      0x00\n        /* \"#utility.yul\":9271:9361   */\n      tag_461\n        /* \"#utility.yul\":9357:9360   */\n      dup4\n        /* \"#utility.yul\":9349:9355   */\n      dup4\n        /* \"#utility.yul\":9271:9361   */\n      tag_339\n      jump\t// in\n    tag_461:\n        /* \"#utility.yul\":9257:9361   */\n      swap1\n      pop\n        /* \"#utility.yul\":9123:9367   */\n      swap3\n      swap2\n      pop\n      pop\n      jump\t// out\n        /* \"#utility.yul\":9373:9508   */\n    tag_341:\n        /* \"#utility.yul\":9465:9469   */\n      0x00\n        /* \"#utility.yul\":9497:9501   */\n      0x20\n        /* \"#utility.yul\":9492:9495   */\n      dup3\n        /* \"#utility.yul\":9488:9502   */\n      add\n        /* \"#utility.yul\":9480:9502   */\n      swap1\n      pop\n        /* \"#utility.yul\":9373:9508   */\n      swap2\n      swap1\n      pop\n      jump\t// out\n        /* \"#utility.yul\":9570:10657   */\n    tag_342:\n        /* \"#utility.yul\":9733:9736   */\n      0x00\n        /* \"#utility.yul\":9762:9838   */\n      tag_464\n        /* \"#utility.yul\":9832:9837   */\n      dup3\n        /* \"#utility.yul\":9762:9838   */\n      tag_336\n      jump\t// in\n    tag_464:\n        /* \"#utility.yul\":9854:9962   */\n      tag_465\n        /* \"#utility.yul\":9955:9961   */\n      dup2\n        /* \"#utility.yul\":9950:9953   */\n      dup6\n        /* \"#utility.yul\":9854:9962   */\n      tag_337\n      jump\t// in\n    tag_465:\n        /* \"#utility.yul\":9847:9962   */\n      swap4\n      pop\n        /* \"#utility.yul\":9988:9991   */\n      dup4\n        /* \"#utility.yul\":10033:10037   */\n      0x20\n        /* \"#utility.yul\":10025:10031   */\n      dup3\n        /* \"#utility.yul\":10021:10038   */\n      mul\n        /* \"#utility.yul\":10016:10019   */\n      dup6\n        /* \"#utility.yul\":10012:10039   */\n      add\n        /* \"#utility.yul\":10063:10141   */\n      tag_466\n        /* \"#utility.yul\":10135:10140   */\n      dup6\n        /* \"#utility.yul\":10063:10141   */\n      tag_338\n      jump\t// in\n    tag_466:\n        /* \"#utility.yul\":10164:10171   */\n      dup1\n        /* \"#utility.yul\":10195:10196   */\n      0x00\n        /* \"#utility.yul\":10180:10612   */\n    tag_467:\n        /* \"#utility.yul\":10205:10211   */\n      dup6\n        /* \"#utility.yul\":10202:10203   */\n      dup2\n        /* \"#utility.yul\":10199:10212   */\n      lt\n        /* \"#utility.yul\":10180:10612   */\n      iszero\n      tag_469\n      jumpi\n        /* \"#utility.yul\":10276:10285   */\n      dup5\n        /* \"#utility.yul\":10270:10274   */\n      dup5\n        /* \"#utility.yul\":10266:10286   */\n      sub\n        /* \"#utility.yul\":10261:10264   */\n      dup10\n        /* \"#utility.yul\":10254:10287   */\n      mstore\n        /* \"#utility.yul\":10327:10333   */\n      dup2\n        /* \"#utility.yul\":10321:10334   */\n      mload\n        /* \"#utility.yul\":10355:10463   */\n      tag_470\n        /* \"#utility.yul\":10458:10462   */\n      dup6\n        /* \"#utility.yul\":10443:10456   */\n      dup3\n        /* \"#utility.yul\":10355:10463   */\n      tag_340\n      jump\t// in\n    tag_470:\n        /* \"#utility.yul\":10347:10463   */\n      swap5\n      pop\n        /* \"#utility.yul\":10486:10568   */\n      tag_471\n        /* \"#utility.yul\":10561:10567   */\n      dup4\n        /* \"#utility.yul\":10486:10568   */\n      tag_341\n      jump\t// in\n    tag_471:\n        /* \"#utility.yul\":10476:10568   */\n      swap3\n      pop\n        /* \"#utility.yul\":10597:10601   */\n      0x20\n        /* \"#utility.yul\":10592:10595   */\n      dup11\n        /* \"#utility.yul\":10588:10602   */\n      add\n        /* \"#utility.yul\":10581:10602   */\n      swap10\n      pop\n        /* \"#utility.yul\":10240:10612   */\n      pop\n        /* \"#utility.yul\":10227:10228   */\n      0x01\n        /* \"#utility.yul\":10224:10225   */\n      dup2\n        /* \"#utility.yul\":10220:10229   */\n      add\n        /* \"#utility.yul\":10215:10229   */\n      swap1\n      pop\n        /* \"#utility.yul\":10180:10612   */\n      jump(tag_467)\n    tag_469:\n        /* \"#utility.yul\":10184:10198   */\n      pop\n        /* \"#utility.yul\":10628:10632   */\n      dup3\n        /* \"#utility.yul\":10621:10632   */\n      swap8\n      pop\n        /* \"#utility.yul\":10648:10651   */\n      dup8\n        /* \"#utility.yul\":10641:10651   */\n      swap6\n      pop\n        /* \"#utility.yul\":9738:10657   */\n      pop\n      pop\n      pop\n      pop\n      pop\n        /* \"#utility.yul\":9570:10657   */\n      swap3\n      swap2\n      pop\n      pop\n      jump\t// out\n        /* \"#utility.yul\":10663:11124   */\n    tag_30:\n        /* \"#utility.yul\":10850:10854   */\n      0x00\n        /* \"#utility.yul\":10888:10890   */\n      0x20\n        /* \"#utility.yul\":10877:10886   */\n      dup3\n        /* \"#utility.yul\":10873:10891   */\n      add\n        /* \"#utility.yul\":10865:10891   */\n      swap1\n      pop\n        /* \"#utility.yul\":10937:10946   */\n      dup2\n        /* \"#utility.yul\":10931:10935   */\n      dup2\n        /* \"#utility.yul\":10927:10947   */\n      sub\n        /* \"#utility.yul\":10923:10924   */\n      0x00\n        /* \"#utility.yul\":10912:10921   */\n      dup4\n        /* \"#utility.yul\":10908:10925   */\n      add\n        /* \"#utility.yul\":10901:10948   */\n      mstore\n        /* \"#utility.yul\":10965:11117   */\n      tag_473\n        /* \"#utility.yul\":11112:11116   */\n      dup2\n        /* \"#utility.yul\":11103:11109   */\n      dup5\n        /* \"#utility.yul\":10965:11117   */\n      tag_342\n      jump\t// in\n    tag_473:\n        /* \"#utility.yul\":10957:11117   */\n      swap1\n      pop\n        /* \"#utility.yul\":10663:11124   */\n      swap3\n      swap2\n      pop\n      pop\n      jump\t// out\n        /* \"#utility.yul\":11130:11247   */\n    tag_343:\n        /* \"#utility.yul\":11239:11240   */\n      0x00\n        /* \"#utility.yul\":11236:11237   */\n      dup1\n        /* \"#utility.yul\":11229:11241   */\n      revert\n        /* \"#utility.yul\":11253:11370   */\n    tag_344:\n        /* \"#utility.yul\":11362:11363   */\n      0x00\n        /* \"#utility.yul\":11359:11360   */\n      dup1\n        /* \"#utility.yul\":11352:11364   */\n      revert\n        /* \"#utility.yul\":11376:11556   */\n    tag_345:\n        /* \"#utility.yul\":11424:11501   */\n      0x4e487b7100000000000000000000000000000000000000000000000000000000\n        /* \"#utility.yul\":11421:11422   */\n      0x00\n        /* \"#utility.yul\":11414:11502   */\n      mstore\n        /* \"#utility.yul\":11521:11525   */\n      0x41\n        /* \"#utility.yul\":11518:11519   */\n      0x04\n        /* \"#utility.yul\":11511:11526   */\n      mstore\n        /* \"#utility.yul\":11545:11549   */\n      0x24\n        /* \"#utility.yul\":11542:11543   */\n      0x00\n        /* \"#utility.yul\":11535:11550   */\n      revert\n        /* \"#utility.yul\":11562:11843   */\n    tag_346:\n        /* \"#utility.yul\":11645:11672   */\n      tag_478\n        /* \"#utility.yul\":11667:11671   */\n      dup3\n        /* \"#utility.yul\":11645:11672   */\n      tag_326\n      jump\t// in\n    tag_478:\n        /* \"#utility.yul\":11637:11643   */\n      dup2\n        /* \"#utility.yul\":11633:11673   */\n      add\n        /* \"#utility.yul\":11775:11781   */\n      dup2\n        /* \"#utility.yul\":11763:11773   */\n      dup2\n        /* \"#utility.yul\":11760:11782   */\n      lt\n        /* \"#utility.yul\":11739:11757   */\n      0xffffffffffffffff\n        /* \"#utility.yul\":11727:11737   */\n      dup3\n        /* \"#utility.yul\":11724:11758   */\n      gt\n        /* \"#utility.yul\":11721:11783   */\n      or\n        /* \"#utility.yul\":11718:11806   */\n      iszero\n      tag_479\n      jumpi\n        /* \"#utility.yul\":11786:11804   */\n      tag_480\n      tag_345\n      jump\t// in\n    tag_480:\n        /* \"#utility.yul\":11718:11806   */\n    tag_479:\n        /* \"#utility.yul\":11826:11836   */\n      dup1\n        /* \"#utility.yul\":11822:11824   */\n      0x40\n        /* \"#utility.yul\":11815:11837   */\n      mstore\n        /* \"#utility.yul\":11605:11843   */\n      pop\n        /* \"#utility.yul\":11562:11843   */\n      pop\n      pop\n      jump\t// out\n        /* \"#utility.yul\":11849:11978   */\n    tag_347:\n        /* \"#utility.yul\":11883:11889   */\n      0x00\n        /* \"#utility.yul\":11910:11930   */\n      tag_482\n      tag_312\n      jump\t// in\n    tag_482:\n        /* \"#utility.yul\":11900:11930   */\n      swap1\n      pop\n        /* \"#utility.yul\":11939:11972   */\n      tag_483\n        /* \"#utility.yul\":11967:11971   */\n      dup3\n        /* \"#utility.yul\":11959:11965   */\n      dup3\n        /* \"#utility.yul\":11939:11972   */\n      tag_346\n      jump\t// in\n    tag_483:\n        /* \"#utility.yul\":11849:11978   */\n      swap2\n      swap1\n      pop\n      jump\t// out\n        /* \"#utility.yul\":11984:12292   */\n    tag_348:\n        /* \"#utility.yul\":12046:12050   */\n      0x00\n        /* \"#utility.yul\":12136:12154   */\n      0xffffffffffffffff\n        /* \"#utility.yul\":12128:12134   */\n      dup3\n        /* \"#utility.yul\":12125:12155   */\n      gt\n        /* \"#utility.yul\":12122:12178   */\n      iszero\n      tag_485\n      jumpi\n        /* \"#utility.yul\":12158:12176   */\n      tag_486\n      tag_345\n      jump\t// in\n    tag_486:\n        /* \"#utility.yul\":12122:12178   */\n    tag_485:\n        /* \"#utility.yul\":12196:12225   */\n      tag_487\n        /* \"#utility.yul\":12218:12224   */\n      dup3\n        /* \"#utility.yul\":12196:12225   */\n      tag_326\n      jump\t// in\n    tag_487:\n        /* \"#utility.yul\":12188:12225   */\n      swap1\n      pop\n        /* \"#utility.yul\":12280:12284   */\n      0x20\n        /* \"#utility.yul\":12274:12278   */\n      dup2\n        /* \"#utility.yul\":12270:12285   */\n      add\n        /* \"#utility.yul\":12262:12285   */\n      swap1\n      pop\n        /* \"#utility.yul\":11984:12292   */\n      swap2\n      swap1\n      pop\n      jump\t// out\n        /* \"#utility.yul\":12298:12444   */\n    tag_349:\n        /* \"#utility.yul\":12395:12401   */\n      dup3\n        /* \"#utility.yul\":12390:12393   */\n      dup2\n        /* \"#utility.yul\":12385:12388   */\n      dup4\n        /* \"#utility.yul\":12372:12402   */\n      calldatacopy\n        /* \"#utility.yul\":12436:12437   */\n      0x00\n        /* \"#utility.yul\":12427:12433   */\n      dup4\n        /* \"#utility.yul\":12422:12425   */\n      dup4\n        /* \"#utility.yul\":12418:12434   */\n      add\n        /* \"#utility.yul\":12411:12438   */\n      mstore\n        /* \"#utility.yul\":12298:12444   */\n      pop\n      pop\n      pop\n      jump\t// out\n        /* \"#utility.yul\":12450:12875   */\n    tag_350:\n        /* \"#utility.yul\":12528:12533   */\n      0x00\n        /* \"#utility.yul\":12553:12619   */\n      tag_490\n        /* \"#utility.yul\":12569:12618   */\n      tag_491\n        /* \"#utility.yul\":12611:12617   */\n      dup5\n        /* \"#utility.yul\":12569:12618   */\n      tag_348\n      jump\t// in\n    tag_491:\n        /* \"#utility.yul\":12553:12619   */\n      tag_347\n      jump\t// in\n    tag_490:\n        /* \"#utility.yul\":12544:12619   */\n      swap1\n      pop\n        /* \"#utility.yul\":12642:12648   */\n      dup3\n        /* \"#utility.yul\":12635:12640   */\n      dup2\n        /* \"#utility.yul\":12628:12649   */\n      mstore\n        /* \"#utility.yul\":12680:12684   */\n      0x20\n        /* \"#utility.yul\":12673:12678   */\n      dup2\n        /* \"#utility.yul\":12669:12685   */\n      add\n        /* \"#utility.yul\":12718:12721   */\n      dup5\n        /* \"#utility.yul\":12709:12715   */\n      dup5\n        /* \"#utility.yul\":12704:12707   */\n      dup5\n        /* \"#utility.yul\":12700:12716   */\n      add\n        /* \"#utility.yul\":12697:12722   */\n      gt\n        /* \"#utility.yul\":12694:12806   */\n      iszero\n      tag_492\n      jumpi\n        /* \"#utility.yul\":12725:12804   */\n      tag_493\n      tag_344\n      jump\t// in\n    tag_493:\n        /* \"#utility.yul\":12694:12806   */\n    tag_492:\n        /* \"#utility.yul\":12815:12869   */\n      tag_494\n        /* \"#utility.yul\":12862:12868   */\n      dup5\n        /* \"#utility.yul\":12857:12860   */\n      dup3\n        /* \"#utility.yul\":12852:12855   */\n      dup6\n        /* \"#utility.yul\":12815:12869   */\n      tag_349\n      jump\t// in\n    tag_494:\n        /* \"#utility.yul\":12534:12875   */\n      pop\n        /* \"#utility.yul\":12450:12875   */\n      swap4\n      swap3\n      pop\n      pop\n      pop\n      jump\t// out\n        /* \"#utility.yul\":12895:13235   */\n    tag_351:\n        /* \"#utility.yul\":12951:12956   */\n      0x00\n        /* \"#utility.yul\":13000:13003   */\n      dup3\n        /* \"#utility.yul\":12993:12997   */\n      0x1f\n        /* \"#utility.yul\":12985:12991   */\n      dup4\n        /* \"#utility.yul\":12981:12998   */\n      add\n        /* \"#utility.yul\":12977:13004   */\n      slt\n        /* \"#utility.yul\":12967:13089   */\n      tag_496\n      jumpi\n        /* \"#utility.yul\":13008:13087   */\n      tag_497\n      tag_343\n      jump\t// in\n    tag_497:\n        /* \"#utility.yul\":12967:13089   */\n    tag_496:\n        /* \"#utility.yul\":13125:13131   */\n      dup2\n        /* \"#utility.yul\":13112:13132   */\n      calldataload\n        /* \"#utility.yul\":13150:13229   */\n      tag_498\n        /* \"#utility.yul\":13225:13228   */\n      dup5\n        /* \"#utility.yul\":13217:13223   */\n      dup3\n        /* \"#utility.yul\":13210:13214   */\n      0x20\n        /* \"#utility.yul\":13202:13208   */\n      dup7\n        /* \"#utility.yul\":13198:13215   */\n      add\n        /* \"#utility.yul\":13150:13229   */\n      tag_350\n      jump\t// in\n    tag_498:\n        /* \"#utility.yul\":13141:13229   */\n      swap2\n      pop\n        /* \"#utility.yul\":12957:13235   */\n      pop\n        /* \"#utility.yul\":12895:13235   */\n      swap3\n      swap2\n      pop\n      pop\n      jump\t// out\n        /* \"#utility.yul\":13241:13750   */\n    tag_39:\n        /* \"#utility.yul\":13310:13316   */\n      0x00\n        /* \"#utility.yul\":13359:13361   */\n      0x20\n        /* \"#utility.yul\":13347:13356   */\n      dup3\n        /* \"#utility.yul\":13338:13345   */\n      dup5\n        /* \"#utility.yul\":13334:13357   */\n      sub\n        /* \"#utility.yul\":13330:13362   */\n      slt\n        /* \"#utility.yul\":13327:13446   */\n      iszero\n      tag_500\n      jumpi\n        /* \"#utility.yul\":13365:13444   */\n      tag_501\n      tag_313\n      jump\t// in\n    tag_501:\n        /* \"#utility.yul\":13327:13446   */\n    tag_500:\n        /* \"#utility.yul\":13513:13514   */\n      0x00\n        /* \"#utility.yul\":13502:13511   */\n      dup3\n        /* \"#utility.yul\":13498:13515   */\n      add\n        /* \"#utility.yul\":13485:13516   */\n      calldataload\n        /* \"#utility.yul\":13543:13561   */\n      0xffffffffffffffff\n        /* \"#utility.yul\":13535:13541   */\n      dup2\n        /* \"#utility.yul\":13532:13562   */\n      gt\n        /* \"#utility.yul\":13529:13646   */\n      iszero\n      tag_502\n      jumpi\n        /* \"#utility.yul\":13565:13644   */\n      tag_503\n      tag_314\n      jump\t// in\n    tag_503:\n        /* \"#utility.yul\":13529:13646   */\n    tag_502:\n        /* \"#utility.yul\":13670:13733   */\n      tag_504\n        /* \"#utility.yul\":13725:13732   */\n      dup5\n        /* \"#utility.yul\":13716:13722   */\n      dup3\n        /* \"#utility.yul\":13705:13714   */\n      dup6\n        /* \"#utility.yul\":13701:13723   */\n      add\n        /* \"#utility.yul\":13670:13733   */\n      tag_351\n      jump\t// in\n    tag_504:\n        /* \"#utility.yul\":13660:13733   */\n      swap2\n      pop\n        /* \"#utility.yul\":13456:13743   */\n      pop\n        /* \"#utility.yul\":13241:13750   */\n      swap3\n      swap2\n      pop\n      pop\n      jump\t// out\n        /* \"#utility.yul\":13756:14085   */\n    tag_43:\n        /* \"#utility.yul\":13815:13821   */\n      0x00\n        /* \"#utility.yul\":13864:13866   */\n      0x20\n        /* \"#utility.yul\":13852:13861   */\n      dup3\n        /* \"#utility.yul\":13843:13850   */\n      dup5\n        /* \"#utility.yul\":13839:13862   */\n      sub\n        /* \"#utility.yul\":13835:13867   */\n      slt\n        /* \"#utility.yul\":13832:13951   */\n      iszero\n      tag_506\n      jumpi\n        /* \"#utility.yul\":13870:13949   */\n      tag_507\n      tag_313\n      jump\t// in\n    tag_507:\n        /* \"#utility.yul\":13832:13951   */\n    tag_506:\n        /* \"#utility.yul\":13990:13991   */\n      0x00\n        /* \"#utility.yul\":14015:14068   */\n      tag_508\n        /* \"#utility.yul\":14060:14067   */\n      dup5\n        /* \"#utility.yul\":14051:14057   */\n      dup3\n        /* \"#utility.yul\":14040:14049   */\n      dup6\n        /* \"#utility.yul\":14036:14058   */\n      add\n        /* \"#utility.yul\":14015:14068   */\n      tag_318\n      jump\t// in\n    tag_508:\n        /* \"#utility.yul\":14005:14068   */\n      swap2\n      pop\n        /* \"#utility.yul\":13961:14078   */\n      pop\n        /* \"#utility.yul\":13756:14085   */\n      swap3\n      swap2\n      pop\n      pop\n      jump\t// out\n        /* \"#utility.yul\":14091:14209   */\n    tag_352:\n        /* \"#utility.yul\":14178:14202   */\n      tag_510\n        /* \"#utility.yul\":14196:14201   */\n      dup2\n        /* \"#utility.yul\":14178:14202   */\n      tag_319\n      jump\t// in\n    tag_510:\n        /* \"#utility.yul\":14173:14176   */\n      dup3\n        /* \"#utility.yul\":14166:14203   */\n      mstore\n        /* \"#utility.yul\":14091:14209   */\n      pop\n      pop\n      jump\t// out\n        /* \"#utility.yul\":14215:14437   */\n    tag_46:\n        /* \"#utility.yul\":14308:14312   */\n      0x00\n        /* \"#utility.yul\":14346:14348   */\n      0x20\n        /* \"#utility.yul\":14335:14344   */\n      dup3\n        /* \"#utility.yul\":14331:14349   */\n      add\n        /* \"#utility.yul\":14323:14349   */\n      swap1\n      pop\n        /* \"#utility.yul\":14359:14430   */\n      tag_512\n        /* \"#utility.yul\":14427:14428   */\n      0x00\n        /* \"#utility.yul\":14416:14425   */\n      dup4\n        /* \"#utility.yul\":14412:14429   */\n      add\n        /* \"#utility.yul\":14403:14409   */\n      dup5\n        /* \"#utility.yul\":14359:14430   */\n      tag_352\n      jump\t// in\n    tag_512:\n        /* \"#utility.yul\":14215:14437   */\n      swap3\n      swap2\n      pop\n      pop\n      jump\t// out\n        /* \"#utility.yul\":14443:14561   */\n    tag_353:\n        /* \"#utility.yul\":14530:14554   */\n      tag_514\n        /* \"#utility.yul\":14548:14553   */\n      dup2\n        /* \"#utility.yul\":14530:14554   */\n      tag_316\n      jump\t// in\n    tag_514:\n        /* \"#utility.yul\":14525:14528   */\n      dup3\n        /* \"#utility.yul\":14518:14555   */\n      mstore\n        /* \"#utility.yul\":14443:14561   */\n      pop\n      pop\n      jump\t// out\n        /* \"#utility.yul\":14567:14789   */\n    tag_50:\n        /* \"#utility.yul\":14660:14664   */\n      0x00\n        /* \"#utility.yul\":14698:14700   */\n      0x20\n        /* \"#utility.yul\":14687:14696   */\n      dup3\n        /* \"#utility.yul\":14683:14701   */\n      add\n        /* \"#utility.yul\":14675:14701   */\n      swap1\n      pop\n        /* \"#utility.yul\":14711:14782   */\n      tag_516\n        /* \"#utility.yul\":14779:14780   */\n      0x00\n        /* \"#utility.yul\":14768:14777   */\n      dup4\n        /* \"#utility.yul\":14764:14781   */\n      add\n        /* \"#utility.yul\":14755:14761   */\n      dup5\n        /* \"#utility.yul\":14711:14782   */\n      tag_353\n      jump\t// in\n    tag_516:\n        /* \"#utility.yul\":14567:14789   */\n      swap3\n      swap2\n      pop\n      pop\n      jump\t// out\n        /* \"#utility.yul\":14795:15124   */\n    tag_60:\n        /* \"#utility.yul\":14854:14860   */\n      0x00\n        /* \"#utility.yul\":14903:14905   */\n      0x20\n        /* \"#utility.yul\":14891:14900   */\n      dup3\n        /* \"#utility.yul\":14882:14889   */\n      dup5\n        /* \"#utility.yul\":14878:14901   */\n      sub\n        /* \"#utility.yul\":14874:14906   */\n      slt\n        /* \"#utility.yul\":14871:14990   */\n      iszero\n      tag_518\n      jumpi\n        /* \"#utility.yul\":14909:14988   */\n      tag_519\n      tag_313\n      jump\t// in\n    tag_519:\n        /* \"#utility.yul\":14871:14990   */\n    tag_518:\n        /* \"#utility.yul\":15029:15030   */\n      0x00\n        /* \"#utility.yul\":15054:15107   */\n      tag_520\n        /* \"#utility.yul\":15099:15106   */\n      dup5\n        /* \"#utility.yul\":15090:15096   */\n      dup3\n        /* \"#utility.yul\":15079:15088   */\n      dup6\n        /* \"#utility.yul\":15075:15097   */\n      add\n        /* \"#utility.yul\":15054:15107   */\n      tag_321\n      jump\t// in\n    tag_520:\n        /* \"#utility.yul\":15044:15107   */\n      swap2\n      pop\n        /* \"#utility.yul\":15000:15117   */\n      pop\n        /* \"#utility.yul\":14795:15124   */\n      swap3\n      swap2\n      pop\n      pop\n      jump\t// out\n        /* \"#utility.yul\":15130:15299   */\n    tag_354:\n        /* \"#utility.yul\":15214:15225   */\n      0x00\n        /* \"#utility.yul\":15248:15254   */\n      dup3\n        /* \"#utility.yul\":15243:15246   */\n      dup3\n        /* \"#utility.yul\":15236:15255   */\n      mstore\n        /* \"#utility.yul\":15288:15292   */\n      0x20\n        /* \"#utility.yul\":15283:15286   */\n      dup3\n        /* \"#utility.yul\":15279:15293   */\n      add\n        /* \"#utility.yul\":15264:15293   */\n      swap1\n      pop\n        /* \"#utility.yul\":15130:15299   */\n      swap3\n      swap2\n      pop\n      pop\n      jump\t// out\n        /* \"#utility.yul\":15305:15477   */\n    tag_355:\n        /* \"#utility.yul\":15445:15469   */\n      0x54686973205477656574204e6f74204578697374202100000000000000000000\n        /* \"#utility.yul\":15441:15442   */\n      0x00\n        /* \"#utility.yul\":15433:15439   */\n      dup3\n        /* \"#utility.yul\":15429:15443   */\n      add\n        /* \"#utility.yul\":15422:15470   */\n      mstore\n        /* \"#utility.yul\":15305:15477   */\n      pop\n      jump\t// out\n        /* \"#utility.yul\":15483:15849   */\n    tag_356:\n        /* \"#utility.yul\":15625:15628   */\n      0x00\n        /* \"#utility.yul\":15646:15713   */\n      tag_524\n        /* \"#utility.yul\":15710:15712   */\n      0x16\n        /* \"#utility.yul\":15705:15708   */\n      dup4\n        /* \"#utility.yul\":15646:15713   */\n      tag_354\n      jump\t// in\n    tag_524:\n        /* \"#utility.yul\":15639:15713   */\n      swap2\n      pop\n        /* \"#utility.yul\":15722:15815   */\n      tag_525\n        /* \"#utility.yul\":15811:15814   */\n      dup3\n        /* \"#utility.yul\":15722:15815   */\n      tag_355\n      jump\t// in\n    tag_525:\n        /* \"#utility.yul\":15840:15842   */\n      0x20\n        /* \"#utility.yul\":15835:15838   */\n      dup3\n        /* \"#utility.yul\":15831:15843   */\n      add\n        /* \"#utility.yul\":15824:15843   */\n      swap1\n      pop\n        /* \"#utility.yul\":15483:15849   */\n      swap2\n      swap1\n      pop\n      jump\t// out\n        /* \"#utility.yul\":15855:16274   */\n    tag_68:\n        /* \"#utility.yul\":16021:16025   */\n      0x00\n        /* \"#utility.yul\":16059:16061   */\n      0x20\n        /* \"#utility.yul\":16048:16057   */\n      dup3\n        /* \"#utility.yul\":16044:16062   */\n      add\n        /* \"#utility.yul\":16036:16062   */\n      swap1\n      pop\n        /* \"#utility.yul\":16108:16117   */\n      dup2\n        /* \"#utility.yul\":16102:16106   */\n      dup2\n        /* \"#utility.yul\":16098:16118   */\n      sub\n        /* \"#utility.yul\":16094:16095   */\n      0x00\n        /* \"#utility.yul\":16083:16092   */\n      dup4\n        /* \"#utility.yul\":16079:16096   */\n      add\n        /* \"#utility.yul\":16072:16119   */\n      mstore\n        /* \"#utility.yul\":16136:16267   */\n      tag_527\n        /* \"#utility.yul\":16262:16266   */\n      dup2\n        /* \"#utility.yul\":16136:16267   */\n      tag_356\n      jump\t// in\n    tag_527:\n        /* \"#utility.yul\":16128:16267   */\n      swap1\n      pop\n        /* \"#utility.yul\":15855:16274   */\n      swap2\n      swap1\n      pop\n      jump\t// out\n        /* \"#utility.yul\":16280:16460   */\n    tag_357:\n        /* \"#utility.yul\":16328:16405   */\n      0x4e487b7100000000000000000000000000000000000000000000000000000000\n        /* \"#utility.yul\":16325:16326   */\n      0x00\n        /* \"#utility.yul\":16318:16406   */\n      mstore\n        /* \"#utility.yul\":16425:16429   */\n      0x11\n        /* \"#utility.yul\":16422:16423   */\n      0x04\n        /* \"#utility.yul\":16415:16430   */\n      mstore\n        /* \"#utility.yul\":16449:16453   */\n      0x24\n        /* \"#utility.yul\":16446:16447   */\n      0x00\n        /* \"#utility.yul\":16439:16454   */\n      revert\n        /* \"#utility.yul\":16466:16660   */\n    tag_73:\n        /* \"#utility.yul\":16506:16510   */\n      0x00\n        /* \"#utility.yul\":16526:16546   */\n      tag_530\n        /* \"#utility.yul\":16544:16545   */\n      dup3\n        /* \"#utility.yul\":16526:16546   */\n      tag_319\n      jump\t// in\n    tag_530:\n        /* \"#utility.yul\":16521:16546   */\n      swap2\n      pop\n        /* \"#utility.yul\":16560:16580   */\n      tag_531\n        /* \"#utility.yul\":16578:16579   */\n      dup4\n        /* \"#utility.yul\":16560:16580   */\n      tag_319\n      jump\t// in\n    tag_531:\n        /* \"#utility.yul\":16555:16580   */\n      swap3\n      pop\n        /* \"#utility.yul\":16604:16605   */\n      dup3\n        /* \"#utility.yul\":16601:16602   */\n      dup3\n        /* \"#utility.yul\":16597:16606   */\n      sub\n        /* \"#utility.yul\":16589:16606   */\n      swap1\n      pop\n        /* \"#utility.yul\":16628:16629   */\n      dup2\n        /* \"#utility.yul\":16622:16626   */\n      dup2\n        /* \"#utility.yul\":16619:16630   */\n      gt\n        /* \"#utility.yul\":16616:16653   */\n      iszero\n      tag_532\n      jumpi\n        /* \"#utility.yul\":16633:16651   */\n      tag_533\n      tag_357\n      jump\t// in\n    tag_533:\n        /* \"#utility.yul\":16616:16653   */\n    tag_532:\n        /* \"#utility.yul\":16466:16660   */\n      swap3\n      swap2\n      pop\n      pop\n      jump\t// out\n        /* \"#utility.yul\":16666:16846   */\n    tag_76:\n        /* \"#utility.yul\":16714:16791   */\n      0x4e487b7100000000000000000000000000000000000000000000000000000000\n        /* \"#utility.yul\":16711:16712   */\n      0x00\n        /* \"#utility.yul\":16704:16792   */\n      mstore\n        /* \"#utility.yul\":16811:16815   */\n      0x32\n        /* \"#utility.yul\":16808:16809   */\n      0x04\n        /* \"#utility.yul\":16801:16816   */\n      mstore\n        /* \"#utility.yul\":16835:16839   */\n      0x24\n        /* \"#utility.yul\":16832:16833   */\n      0x00\n        /* \"#utility.yul\":16825:16840   */\n      revert\n        /* \"#utility.yul\":16852:17030   */\n    tag_358:\n        /* \"#utility.yul\":16992:17022   */\n      0x596f7520416c7265616479204c696b6564207468652074776565742100000000\n        /* \"#utility.yul\":16988:16989   */\n      0x00\n        /* \"#utility.yul\":16980:16986   */\n      dup3\n        /* \"#utility.yul\":16976:16990   */\n      add\n        /* \"#utility.yul\":16969:17023   */\n      mstore\n        /* \"#utility.yul\":16852:17030   */\n      pop\n      jump\t// out\n        /* \"#utility.yul\":17036:17402   */\n    tag_359:\n        /* \"#utility.yul\":17178:17181   */\n      0x00\n        /* \"#utility.yul\":17199:17266   */\n      tag_537\n        /* \"#utility.yul\":17263:17265   */\n      0x1c\n        /* \"#utility.yul\":17258:17261   */\n      dup4\n        /* \"#utility.yul\":17199:17266   */\n      tag_354\n      jump\t// in\n    tag_537:\n        /* \"#utility.yul\":17192:17266   */\n      swap2\n      pop\n        /* \"#utility.yul\":17275:17368   */\n      tag_538\n        /* \"#utility.yul\":17364:17367   */\n      dup3\n        /* \"#utility.yul\":17275:17368   */\n      tag_358\n      jump\t// in\n    tag_538:\n        /* \"#utility.yul\":17393:17395   */\n      0x20\n        /* \"#utility.yul\":17388:17391   */\n      dup3\n        /* \"#utility.yul\":17384:17396   */\n      add\n        /* \"#utility.yul\":17377:17396   */\n      swap1\n      pop\n        /* \"#utility.yul\":17036:17402   */\n      swap2\n      swap1\n      pop\n      jump\t// out\n        /* \"#utility.yul\":17408:17827   */\n    tag_88:\n        /* \"#utility.yul\":17574:17578   */\n      0x00\n        /* \"#utility.yul\":17612:17614   */\n      0x20\n        /* \"#utility.yul\":17601:17610   */\n      dup3\n        /* \"#utility.yul\":17597:17615   */\n      add\n        /* \"#utility.yul\":17589:17615   */\n      swap1\n      pop\n        /* \"#utility.yul\":17661:17670   */\n      dup2\n        /* \"#utility.yul\":17655:17659   */\n      dup2\n        /* \"#utility.yul\":17651:17671   */\n      sub\n        /* \"#utility.yul\":17647:17648   */\n      0x00\n        /* \"#utility.yul\":17636:17645   */\n      dup4\n        /* \"#utility.yul\":17632:17649   */\n      add\n        /* \"#utility.yul\":17625:17672   */\n      mstore\n        /* \"#utility.yul\":17689:17820   */\n      tag_540\n        /* \"#utility.yul\":17815:17819   */\n      dup2\n        /* \"#utility.yul\":17689:17820   */\n      tag_359\n      jump\t// in\n    tag_540:\n        /* \"#utility.yul\":17681:17820   */\n      swap1\n      pop\n        /* \"#utility.yul\":17408:17827   */\n      swap2\n      swap1\n      pop\n      jump\t// out\n        /* \"#utility.yul\":17833:18013   */\n    tag_360:\n        /* \"#utility.yul\":17973:18005   */\n      0x596f7520416c726561647920556e4c696b656420746865207477656574210000\n        /* \"#utility.yul\":17969:17970   */\n      0x00\n        /* \"#utility.yul\":17961:17967   */\n      dup3\n        /* \"#utility.yul\":17957:17971   */\n      add\n        /* \"#utility.yul\":17950:18006   */\n      mstore\n        /* \"#utility.yul\":17833:18013   */\n      pop\n      jump\t// out\n        /* \"#utility.yul\":18019:18385   */\n    tag_361:\n        /* \"#utility.yul\":18161:18164   */\n      0x00\n        /* \"#utility.yul\":18182:18249   */\n      tag_543\n        /* \"#utility.yul\":18246:18248   */\n      0x1e\n        /* \"#utility.yul\":18241:18244   */\n      dup4\n        /* \"#utility.yul\":18182:18249   */\n      tag_354\n      jump\t// in\n    tag_543:\n        /* \"#utility.yul\":18175:18249   */\n      swap2\n      pop\n        /* \"#utility.yul\":18258:18351   */\n      tag_544\n        /* \"#utility.yul\":18347:18350   */\n      dup3\n        /* \"#utility.yul\":18258:18351   */\n      tag_360\n      jump\t// in\n    tag_544:\n        /* \"#utility.yul\":18376:18378   */\n      0x20\n        /* \"#utility.yul\":18371:18374   */\n      dup3\n        /* \"#utility.yul\":18367:18379   */\n      add\n        /* \"#utility.yul\":18360:18379   */\n      swap1\n      pop\n        /* \"#utility.yul\":18019:18385   */\n      swap2\n      swap1\n      pop\n      jump\t// out\n        /* \"#utility.yul\":18391:18810   */\n    tag_109:\n        /* \"#utility.yul\":18557:18561   */\n      0x00\n        /* \"#utility.yul\":18595:18597   */\n      0x20\n        /* \"#utility.yul\":18584:18593   */\n      dup3\n        /* \"#utility.yul\":18580:18598   */\n      add\n        /* \"#utility.yul\":18572:18598   */\n      swap1\n      pop\n        /* \"#utility.yul\":18644:18653   */\n      dup2\n        /* \"#utility.yul\":18638:18642   */\n      dup2\n        /* \"#utility.yul\":18634:18654   */\n      sub\n        /* \"#utility.yul\":18630:18631   */\n      0x00\n        /* \"#utility.yul\":18619:18628   */\n      dup4\n        /* \"#utility.yul\":18615:18632   */\n      add\n        /* \"#utility.yul\":18608:18655   */\n      mstore\n        /* \"#utility.yul\":18672:18803   */\n      tag_546\n        /* \"#utility.yul\":18798:18802   */\n      dup2\n        /* \"#utility.yul\":18672:18803   */\n      tag_361\n      jump\t// in\n    tag_546:\n        /* \"#utility.yul\":18664:18803   */\n      swap1\n      pop\n        /* \"#utility.yul\":18391:18810   */\n      swap2\n      swap1\n      pop\n      jump\t// out\n        /* \"#utility.yul\":18816:19049   */\n    tag_362:\n        /* \"#utility.yul\":18956:18990   */\n      0x5468697320697320596f757220547765657421596f752063616e6e2774204c69\n        /* \"#utility.yul\":18952:18953   */\n      0x00\n        /* \"#utility.yul\":18944:18950   */\n      dup3\n        /* \"#utility.yul\":18940:18954   */\n      add\n        /* \"#utility.yul\":18933:18991   */\n      mstore\n        /* \"#utility.yul\":19025:19041   */\n      0x6b6520596f757220547765657421000000000000000000000000000000000000\n        /* \"#utility.yul\":19020:19022   */\n      0x20\n        /* \"#utility.yul\":19012:19018   */\n      dup3\n        /* \"#utility.yul\":19008:19023   */\n      add\n        /* \"#utility.yul\":19001:19042   */\n      mstore\n        /* \"#utility.yul\":18816:19049   */\n      pop\n      jump\t// out\n        /* \"#utility.yul\":19055:19421   */\n    tag_363:\n        /* \"#utility.yul\":19197:19200   */\n      0x00\n        /* \"#utility.yul\":19218:19285   */\n      tag_549\n        /* \"#utility.yul\":19282:19284   */\n      0x2e\n        /* \"#utility.yul\":19277:19280   */\n      dup4\n        /* \"#utility.yul\":19218:19285   */\n      tag_354\n      jump\t// in\n    tag_549:\n        /* \"#utility.yul\":19211:19285   */\n      swap2\n      pop\n        /* \"#utility.yul\":19294:19387   */\n      tag_550\n        /* \"#utility.yul\":19383:19386   */\n      dup3\n        /* \"#utility.yul\":19294:19387   */\n      tag_362\n      jump\t// in\n    tag_550:\n        /* \"#utility.yul\":19412:19414   */\n      0x40\n        /* \"#utility.yul\":19407:19410   */\n      dup3\n        /* \"#utility.yul\":19403:19415   */\n      add\n        /* \"#utility.yul\":19396:19415   */\n      swap1\n      pop\n        /* \"#utility.yul\":19055:19421   */\n      swap2\n      swap1\n      pop\n      jump\t// out\n        /* \"#utility.yul\":19427:19846   */\n    tag_113:\n        /* \"#utility.yul\":19593:19597   */\n      0x00\n        /* \"#utility.yul\":19631:19633   */\n      0x20\n        /* \"#utility.yul\":19620:19629   */\n      dup3\n        /* \"#utility.yul\":19616:19634   */\n      add\n        /* \"#utility.yul\":19608:19634   */\n      swap1\n      pop\n        /* \"#utility.yul\":19680:19689   */\n      dup2\n        /* \"#utility.yul\":19674:19678   */\n      dup2\n        /* \"#utility.yul\":19670:19690   */\n      sub\n        /* \"#utility.yul\":19666:19667   */\n      0x00\n        /* \"#utility.yul\":19655:19664   */\n      dup4\n        /* \"#utility.yul\":19651:19668   */\n      add\n        /* \"#utility.yul\":19644:19691   */\n      mstore\n        /* \"#utility.yul\":19708:19839   */\n      tag_552\n        /* \"#utility.yul\":19834:19838   */\n      dup2\n        /* \"#utility.yul\":19708:19839   */\n      tag_363\n      jump\t// in\n    tag_552:\n        /* \"#utility.yul\":19700:19839   */\n      swap1\n      pop\n        /* \"#utility.yul\":19427:19846   */\n      swap2\n      swap1\n      pop\n      jump\t// out\n        /* \"#utility.yul\":19852:20085   */\n    tag_124:\n        /* \"#utility.yul\":19891:19894   */\n      0x00\n        /* \"#utility.yul\":19914:19938   */\n      tag_554\n        /* \"#utility.yul\":19932:19937   */\n      dup3\n        /* \"#utility.yul\":19914:19938   */\n      tag_319\n      jump\t// in\n    tag_554:\n        /* \"#utility.yul\":19905:19938   */\n      swap2\n      pop\n        /* \"#utility.yul\":19960:20026   */\n      0xffffffffffffffffffffffffffffffffffffffffffffffffffffffffffffffff\n        /* \"#utility.yul\":19953:19958   */\n      dup3\n        /* \"#utility.yul\":19950:20027   */\n      sub\n        /* \"#utility.yul\":19947:20050   */\n      tag_555\n      jumpi\n        /* \"#utility.yul\":20030:20048   */\n      tag_556\n      tag_357\n      jump\t// in\n    tag_556:\n        /* \"#utility.yul\":19947:20050   */\n    tag_555:\n        /* \"#utility.yul\":20077:20078   */\n      0x01\n        /* \"#utility.yul\":20070:20075   */\n      dup3\n        /* \"#utility.yul\":20066:20079   */\n      add\n        /* \"#utility.yul\":20059:20079   */\n      swap1\n      pop\n        /* \"#utility.yul\":19852:20085   */\n      swap2\n      swap1\n      pop\n      jump\t// out\n        /* \"#utility.yul\":20091:20644   */\n    tag_134:\n        /* \"#utility.yul\":20268:20272   */\n      0x00\n        /* \"#utility.yul\":20306:20309   */\n      0x80\n        /* \"#utility.yul\":20295:20304   */\n      dup3\n        /* \"#utility.yul\":20291:20310   */\n      add\n        /* \"#utility.yul\":20283:20310   */\n      swap1\n      pop\n        /* \"#utility.yul\":20320:20391   */\n      tag_558\n        /* \"#utility.yul\":20388:20389   */\n      0x00\n        /* \"#utility.yul\":20377:20386   */\n      dup4\n        /* \"#utility.yul\":20373:20390   */\n      add\n        /* \"#utility.yul\":20364:20370   */\n      dup8\n        /* \"#utility.yul\":20320:20391   */\n      tag_353\n      jump\t// in\n    tag_558:\n        /* \"#utility.yul\":20401:20473   */\n      tag_559\n        /* \"#utility.yul\":20469:20471   */\n      0x20\n        /* \"#utility.yul\":20458:20467   */\n      dup4\n        /* \"#utility.yul\":20454:20472   */\n      add\n        /* \"#utility.yul\":20445:20451   */\n      dup7\n        /* \"#utility.yul\":20401:20473   */\n      tag_353\n      jump\t// in\n    tag_559:\n        /* \"#utility.yul\":20483:20555   */\n      tag_560\n        /* \"#utility.yul\":20551:20553   */\n      0x40\n        /* \"#utility.yul\":20540:20549   */\n      dup4\n        /* \"#utility.yul\":20536:20554   */\n      add\n        /* \"#utility.yul\":20527:20533   */\n      dup6\n        /* \"#utility.yul\":20483:20555   */\n      tag_352\n      jump\t// in\n    tag_560:\n        /* \"#utility.yul\":20565:20637   */\n      tag_561\n        /* \"#utility.yul\":20633:20635   */\n      0x60\n        /* \"#utility.yul\":20622:20631   */\n      dup4\n        /* \"#utility.yul\":20618:20636   */\n      add\n        /* \"#utility.yul\":20609:20615   */\n      dup5\n        /* \"#utility.yul\":20565:20637   */\n      tag_352\n      jump\t// in\n    tag_561:\n        /* \"#utility.yul\":20091:20644   */\n      swap6\n      swap5\n      pop\n      pop\n      pop\n      pop\n      pop\n      jump\t// out\n        /* \"#utility.yul\":20650:20830   */\n    tag_364:\n        /* \"#utility.yul\":20698:20775   */\n      0x4e487b7100000000000000000000000000000000000000000000000000000000\n        /* \"#utility.yul\":20695:20696   */\n      0x00\n        /* \"#utility.yul\":20688:20776   */\n      mstore\n        /* \"#utility.yul\":20795:20799   */\n      0x22\n        /* \"#utility.yul\":20792:20793   */\n      0x04\n        /* \"#utility.yul\":20785:20800   */\n      mstore\n        /* \"#utility.yul\":20819:20823   */\n      0x24\n        /* \"#utility.yul\":20816:20817   */\n      0x00\n        /* \"#utility.yul\":20809:20824   */\n      revert\n        /* \"#utility.yul\":20836:21156   */\n    tag_143:\n        /* \"#utility.yul\":20880:20886   */\n      0x00\n        /* \"#utility.yul\":20917:20918   */\n      0x02\n        /* \"#utility.yul\":20911:20915   */\n      dup3\n        /* \"#utility.yul\":20907:20919   */\n      div\n        /* \"#utility.yul\":20897:20919   */\n      swap1\n      pop\n        /* \"#utility.yul\":20964:20965   */\n      0x01\n        /* \"#utility.yul\":20958:20962   */\n      dup3\n        /* \"#utility.yul\":20954:20966   */\n      and\n        /* \"#utility.yul\":20985:21003   */\n      dup1\n        /* \"#utility.yul\":20975:21056   */\n      tag_564\n      jumpi\n        /* \"#utility.yul\":21041:21045   */\n      0x7f\n        /* \"#utility.yul\":21033:21039   */\n      dup3\n        /* \"#utility.yul\":21029:21046   */\n      and\n        /* \"#utility.yul\":21019:21046   */\n      swap2\n      pop\n        /* \"#utility.yul\":20975:21056   */\n    tag_564:\n        /* \"#utility.yul\":21103:21105   */\n      0x20\n        /* \"#utility.yul\":21095:21101   */\n      dup3\n        /* \"#utility.yul\":21092:21106   */\n      lt\n        /* \"#utility.yul\":21072:21090   */\n      dup2\n        /* \"#utility.yul\":21069:21107   */\n      sub\n        /* \"#utility.yul\":21066:21150   */\n      tag_565\n      jumpi\n        /* \"#utility.yul\":21122:21140   */\n      tag_566\n      tag_364\n      jump\t// in\n    tag_566:\n        /* \"#utility.yul\":21066:21150   */\n    tag_565:\n        /* \"#utility.yul\":20887:21156   */\n      pop\n        /* \"#utility.yul\":20836:21156   */\n      swap2\n      swap1\n      pop\n      jump\t// out\n        /* \"#utility.yul\":21162:21342   */\n    tag_174:\n        /* \"#utility.yul\":21210:21287   */\n      0x4e487b7100000000000000000000000000000000000000000000000000000000\n        /* \"#utility.yul\":21207:21208   */\n      0x00\n        /* \"#utility.yul\":21200:21288   */\n      mstore\n        /* \"#utility.yul\":21307:21311   */\n      0x31\n        /* \"#utility.yul\":21304:21305   */\n      0x04\n        /* \"#utility.yul\":21297:21312   */\n      mstore\n        /* \"#utility.yul\":21331:21335   */\n      0x24\n        /* \"#utility.yul\":21328:21329   */\n      0x00\n        /* \"#utility.yul\":21321:21336   */\n      revert\n        /* \"#utility.yul\":21348:21521   */\n    tag_365:\n        /* \"#utility.yul\":21488:21513   */\n      0x5477656574204c656e6774682069732045786365656421000000000000000000\n        /* \"#utility.yul\":21484:21485   */\n      0x00\n        /* \"#utility.yul\":21476:21482   */\n      dup3\n        /* \"#utility.yul\":21472:21486   */\n      add\n        /* \"#utility.yul\":21465:21514   */\n      mstore\n        /* \"#utility.yul\":21348:21521   */\n      pop\n      jump\t// out\n        /* \"#utility.yul\":21527:21893   */\n    tag_366:\n        /* \"#utility.yul\":21669:21672   */\n      0x00\n        /* \"#utility.yul\":21690:21757   */\n      tag_570\n        /* \"#utility.yul\":21754:21756   */\n      0x17\n        /* \"#utility.yul\":21749:21752   */\n      dup4\n        /* \"#utility.yul\":21690:21757   */\n      tag_354\n      jump\t// in\n    tag_570:\n        /* \"#utility.yul\":21683:21757   */\n      swap2\n      pop\n        /* \"#utility.yul\":21766:21859   */\n      tag_571\n        /* \"#utility.yul\":21855:21858   */\n      dup3\n        /* \"#utility.yul\":21766:21859   */\n      tag_365\n      jump\t// in\n    tag_571:\n        /* \"#utility.yul\":21884:21886   */\n      0x20\n        /* \"#utility.yul\":21879:21882   */\n      dup3\n        /* \"#utility.yul\":21875:21887   */\n      add\n        /* \"#utility.yul\":21868:21887   */\n      swap1\n      pop\n        /* \"#utility.yul\":21527:21893   */\n      swap2\n      swap1\n      pop\n      jump\t// out\n        /* \"#utility.yul\":21899:22318   */\n    tag_187:\n        /* \"#utility.yul\":22065:22069   */\n      0x00\n        /* \"#utility.yul\":22103:22105   */\n      0x20\n        /* \"#utility.yul\":22092:22101   */\n      dup3\n        /* \"#utility.yul\":22088:22106   */\n      add\n        /* \"#utility.yul\":22080:22106   */\n      swap1\n      pop\n        /* \"#utility.yul\":22152:22161   */\n      dup2\n        /* \"#utility.yul\":22146:22150   */\n      dup2\n        /* \"#utility.yul\":22142:22162   */\n      sub\n        /* \"#utility.yul\":22138:22139   */\n      0x00\n        /* \"#utility.yul\":22127:22136   */\n      dup4\n        /* \"#utility.yul\":22123:22140   */\n      add\n        /* \"#utility.yul\":22116:22163   */\n      mstore\n        /* \"#utility.yul\":22180:22311   */\n      tag_573\n        /* \"#utility.yul\":22306:22310   */\n      dup2\n        /* \"#utility.yul\":22180:22311   */\n      tag_366\n      jump\t// in\n    tag_573:\n        /* \"#utility.yul\":22172:22311   */\n      swap1\n      pop\n        /* \"#utility.yul\":21899:22318   */\n      swap2\n      swap1\n      pop\n      jump\t// out\n        /* \"#utility.yul\":22324:22515   */\n    tag_189:\n        /* \"#utility.yul\":22364:22367   */\n      0x00\n        /* \"#utility.yul\":22383:22403   */\n      tag_575\n        /* \"#utility.yul\":22401:22402   */\n      dup3\n        /* \"#utility.yul\":22383:22403   */\n      tag_319\n      jump\t// in\n    tag_575:\n        /* \"#utility.yul\":22378:22403   */\n      swap2\n      pop\n        /* \"#utility.yul\":22417:22437   */\n      tag_576\n        /* \"#utility.yul\":22435:22436   */\n      dup4\n        /* \"#utility.yul\":22417:22437   */\n      tag_319\n      jump\t// in\n    tag_576:\n        /* \"#utility.yul\":22412:22437   */\n      swap3\n      pop\n        /* \"#utility.yul\":22460:22461   */\n      dup3\n        /* \"#utility.yul\":22457:22458   */\n      dup3\n        /* \"#utility.yul\":22453:22462   */\n      add\n        /* \"#utility.yul\":22446:22462   */\n      swap1\n      pop\n        /* \"#utility.yul\":22481:22484   */\n      dup1\n        /* \"#utility.yul\":22478:22479   */\n      dup3\n        /* \"#utility.yul\":22475:22485   */\n      gt\n        /* \"#utility.yul\":22472:22508   */\n      iszero\n      tag_577\n      jumpi\n        /* \"#utility.yul\":22488:22506   */\n      tag_578\n      tag_357\n      jump\t// in\n    tag_578:\n        /* \"#utility.yul\":22472:22508   */\n    tag_577:\n        /* \"#utility.yul\":22324:22515   */\n      swap3\n      swap2\n      pop\n      pop\n      jump\t// out\n        /* \"#utility.yul\":22521:22662   */\n    tag_367:\n        /* \"#utility.yul\":22570:22574   */\n      0x00\n        /* \"#utility.yul\":22593:22596   */\n      dup2\n        /* \"#utility.yul\":22585:22596   */\n      swap1\n      pop\n        /* \"#utility.yul\":22616:22619   */\n      dup2\n        /* \"#utility.yul\":22613:22614   */\n      0x00\n        /* \"#utility.yul\":22606:22620   */\n      mstore\n        /* \"#utility.yul\":22650:22654   */\n      0x20\n        /* \"#utility.yul\":22647:22648   */\n      0x00\n        /* \"#utility.yul\":22637:22655   */\n      keccak256\n        /* \"#utility.yul\":22629:22655   */\n      swap1\n      pop\n        /* \"#utility.yul\":22521:22662   */\n      swap2\n      swap1\n      pop\n      jump\t// out\n        /* \"#utility.yul\":22668:22761   */\n    tag_368:\n        /* \"#utility.yul\":22705:22711   */\n      0x00\n        /* \"#utility.yul\":22752:22754   */\n      0x20\n        /* \"#utility.yul\":22747:22749   */\n      0x1f\n        /* \"#utility.yul\":22740:22745   */\n      dup4\n        /* \"#utility.yul\":22736:22750   */\n      add\n        /* \"#utility.yul\":22732:22755   */\n      div\n        /* \"#utility.yul\":22722:22755   */\n      swap1\n      pop\n        /* \"#utility.yul\":22668:22761   */\n      swap2\n      swap1\n      pop\n      jump\t// out\n        /* \"#utility.yul\":22767:22874   */\n    tag_369:\n        /* \"#utility.yul\":22811:22819   */\n      0x00\n        /* \"#utility.yul\":22861:22866   */\n      dup3\n        /* \"#utility.yul\":22855:22859   */\n      dup3\n        /* \"#utility.yul\":22851:22867   */\n      shl\n        /* \"#utility.yul\":22830:22867   */\n      swap1\n      pop\n        /* \"#utility.yul\":22767:22874   */\n      swap3\n      swap2\n      pop\n      pop\n      jump\t// out\n        /* \"#utility.yul\":22880:23273   */\n    tag_370:\n        /* \"#utility.yul\":22949:22955   */\n      0x00\n        /* \"#utility.yul\":22999:23000   */\n      0x08\n        /* \"#utility.yul\":22987:22997   */\n      dup4\n        /* \"#utility.yul\":22983:23001   */\n      mul\n        /* \"#utility.yul\":23022:23119   */\n      tag_583\n        /* \"#utility.yul\":23052:23118   */\n      0xffffffffffffffffffffffffffffffffffffffffffffffffffffffffffffffff\n        /* \"#utility.yul\":23041:23050   */\n      dup3\n        /* \"#utility.yul\":23022:23119   */\n      tag_369\n      jump\t// in\n    tag_583:\n        /* \"#utility.yul\":23140:23179   */\n      tag_584\n        /* \"#utility.yul\":23170:23178   */\n      dup7\n        /* \"#utility.yul\":23159:23168   */\n      dup4\n        /* \"#utility.yul\":23140:23179   */\n      tag_369\n      jump\t// in\n    tag_584:\n        /* \"#utility.yul\":23128:23179   */\n      swap6\n      pop\n        /* \"#utility.yul\":23212:23216   */\n      dup1\n        /* \"#utility.yul\":23208:23217   */\n      not\n        /* \"#utility.yul\":23201:23206   */\n      dup5\n        /* \"#utility.yul\":23197:23218   */\n      and\n        /* \"#utility.yul\":23188:23218   */\n      swap4\n      pop\n        /* \"#utility.yul\":23261:23265   */\n      dup1\n        /* \"#utility.yul\":23251:23259   */\n      dup7\n        /* \"#utility.yul\":23247:23266   */\n      and\n        /* \"#utility.yul\":23240:23245   */\n      dup5\n        /* \"#utility.yul\":23237:23267   */\n      or\n        /* \"#utility.yul\":23227:23267   */\n      swap3\n      pop\n        /* \"#utility.yul\":22956:23273   */\n      pop\n      pop\n        /* \"#utility.yul\":22880:23273   */\n      swap4\n      swap3\n      pop\n      pop\n      pop\n      jump\t// out\n        /* \"#utility.yul\":23279:23339   */\n    tag_371:\n        /* \"#utility.yul\":23307:23310   */\n      0x00\n        /* \"#utility.yul\":23328:23333   */\n      dup2\n        /* \"#utility.yul\":23321:23333   */\n      swap1\n      pop\n        /* \"#utility.yul\":23279:23339   */\n      swap2\n      swap1\n      pop\n      jump\t// out\n        /* \"#utility.yul\":23345:23487   */\n    tag_372:\n        /* \"#utility.yul\":23395:23404   */\n      0x00\n        /* \"#utility.yul\":23428:23481   */\n      tag_587\n        /* \"#utility.yul\":23446:23480   */\n      tag_588\n        /* \"#utility.yul\":23455:23479   */\n      tag_589\n        /* \"#utility.yul\":23473:23478   */\n      dup5\n        /* \"#utility.yul\":23455:23479   */\n      tag_319\n      jump\t// in\n    tag_589:\n        /* \"#utility.yul\":23446:23480   */\n      tag_371\n      jump\t// in\n    tag_588:\n        /* \"#utility.yul\":23428:23481   */\n      tag_319\n      jump\t// in\n    tag_587:\n        /* \"#utility.yul\":23415:23481   */\n      swap1\n      pop\n        /* \"#utility.yul\":23345:23487   */\n      swap2\n      swap1\n      pop\n      jump\t// out\n        /* \"#utility.yul\":23493:23568   */\n    tag_373:\n        /* \"#utility.yul\":23536:23539   */\n      0x00\n        /* \"#utility.yul\":23557:23562   */\n      dup2\n        /* \"#utility.yul\":23550:23562   */\n      swap1\n      pop\n        /* \"#utility.yul\":23493:23568   */\n      swap2\n      swap1\n      pop\n      jump\t// out\n        /* \"#utility.yul\":23574:23843   */\n    tag_374:\n        /* \"#utility.yul\":23684:23723   */\n      tag_592\n        /* \"#utility.yul\":23715:23722   */\n      dup4\n        /* \"#utility.yul\":23684:23723   */\n      tag_372\n      jump\t// in\n    tag_592:\n        /* \"#utility.yul\":23745:23836   */\n      tag_593\n        /* \"#utility.yul\":23794:23835   */\n      tag_594\n        /* \"#utility.yul\":23818:23834   */\n      dup3\n        /* \"#utility.yul\":23794:23835   */\n      tag_373\n      jump\t// in\n    tag_594:\n        /* \"#utility.yul\":23786:23792   */\n      dup5\n        /* \"#utility.yul\":23779:23783   */\n      dup5\n        /* \"#utility.yul\":23773:23784   */\n      sload\n        /* \"#utility.yul\":23745:23836   */\n      tag_370\n      jump\t// in\n    tag_593:\n        /* \"#utility.yul\":23739:23743   */\n      dup3\n        /* \"#utility.yul\":23732:23837   */\n      sstore\n        /* \"#utility.yul\":23650:23843   */\n      pop\n        /* \"#utility.yul\":23574:23843   */\n      pop\n      pop\n      pop\n      jump\t// out\n        /* \"#utility.yul\":23849:23922   */\n    tag_375:\n        /* \"#utility.yul\":23894:23897   */\n      0x00\n        /* \"#utility.yul\":23849:23922   */\n      swap1\n      jump\t// out\n        /* \"#utility.yul\":23928:24117   */\n    tag_376:\n        /* \"#utility.yul\":24005:24037   */\n      tag_597\n      tag_375\n      jump\t// in\n    tag_597:\n        /* \"#utility.yul\":24046:24111   */\n      tag_598\n        /* \"#utility.yul\":24104:24110   */\n      dup2\n        /* \"#utility.yul\":24096:24102   */\n      dup5\n        /* \"#utility.yul\":24090:24094   */\n      dup5\n        /* \"#utility.yul\":24046:24111   */\n      tag_374\n      jump\t// in\n    tag_598:\n        /* \"#utility.yul\":23981:24117   */\n      pop\n        /* \"#utility.yul\":23928:24117   */\n      pop\n      pop\n      jump\t// out\n        /* \"#utility.yul\":24123:24309   */\n    tag_377:\n        /* \"#utility.yul\":24183:24303   */\n    tag_600:\n        /* \"#utility.yul\":24200:24203   */\n      dup2\n        /* \"#utility.yul\":24193:24198   */\n      dup2\n        /* \"#utility.yul\":24190:24204   */\n      lt\n        /* \"#utility.yul\":24183:24303   */\n      iszero\n      tag_602\n      jumpi\n        /* \"#utility.yul\":24254:24293   */\n      tag_603\n        /* \"#utility.yul\":24291:24292   */\n      0x00\n        /* \"#utility.yul\":24284:24289   */\n      dup3\n        /* \"#utility.yul\":24254:24293   */\n      tag_376\n      jump\t// in\n    tag_603:\n        /* \"#utility.yul\":24227:24228   */\n      0x01\n        /* \"#utility.yul\":24220:24225   */\n      dup2\n        /* \"#utility.yul\":24216:24229   */\n      add\n        /* \"#utility.yul\":24207:24229   */\n      swap1\n      pop\n        /* \"#utility.yul\":24183:24303   */\n      jump(tag_600)\n    tag_602:\n        /* \"#utility.yul\":24123:24309   */\n      pop\n      pop\n      jump\t// out\n        /* \"#utility.yul\":24315:24858   */\n    tag_378:\n        /* \"#utility.yul\":24416:24418   */\n      0x1f\n        /* \"#utility.yul\":24411:24414   */\n      dup3\n        /* \"#utility.yul\":24408:24419   */\n      gt\n        /* \"#utility.yul\":24405:24851   */\n      iszero\n      tag_605\n      jumpi\n        /* \"#utility.yul\":24450:24488   */\n      tag_606\n        /* \"#utility.yul\":24482:24487   */\n      dup2\n        /* \"#utility.yul\":24450:24488   */\n      tag_367\n      jump\t// in\n    tag_606:\n        /* \"#utility.yul\":24534:24563   */\n      tag_607\n        /* \"#utility.yul\":24552:24562   */\n      dup5\n        /* \"#utility.yul\":24534:24563   */\n      tag_368\n      jump\t// in\n    tag_607:\n        /* \"#utility.yul\":24524:24532   */\n      dup2\n        /* \"#utility.yul\":24520:24564   */\n      add\n        /* \"#utility.yul\":24717:24719   */\n      0x20\n        /* \"#utility.yul\":24705:24715   */\n      dup6\n        /* \"#utility.yul\":24702:24720   */\n      lt\n        /* \"#utility.yul\":24699:24748   */\n      iszero\n      tag_608\n      jumpi\n        /* \"#utility.yul\":24738:24746   */\n      dup2\n        /* \"#utility.yul\":24723:24746   */\n      swap1\n      pop\n        /* \"#utility.yul\":24699:24748   */\n    tag_608:\n        /* \"#utility.yul\":24761:24841   */\n      tag_609\n        /* \"#utility.yul\":24817:24839   */\n      tag_610\n        /* \"#utility.yul\":24835:24838   */\n      dup6\n        /* \"#utility.yul\":24817:24839   */\n      tag_368\n      jump\t// in\n    tag_610:\n        /* \"#utility.yul\":24807:24815   */\n      dup4\n        /* \"#utility.yul\":24803:24840   */\n      add\n        /* \"#utility.yul\":24790:24801   */\n      dup3\n        /* \"#utility.yul\":24761:24841   */\n      tag_377\n      jump\t// in\n    tag_609:\n        /* \"#utility.yul\":24420:24851   */\n      pop\n      pop\n        /* \"#utility.yul\":24405:24851   */\n    tag_605:\n        /* \"#utility.yul\":24315:24858   */\n      pop\n      pop\n      pop\n      jump\t// out\n        /* \"#utility.yul\":24864:24981   */\n    tag_379:\n        /* \"#utility.yul\":24918:24926   */\n      0x00\n        /* \"#utility.yul\":24968:24973   */\n      dup3\n        /* \"#utility.yul\":24962:24966   */\n      dup3\n        /* \"#utility.yul\":24958:24974   */\n      shr\n        /* \"#utility.yul\":24937:24974   */\n      swap1\n      pop\n        /* \"#utility.yul\":24864:24981   */\n      swap3\n      swap2\n      pop\n      pop\n      jump\t// out\n        /* \"#utility.yul\":24987:25156   */\n    tag_380:\n        /* \"#utility.yul\":25031:25037   */\n      0x00\n        /* \"#utility.yul\":25064:25115   */\n      tag_613\n        /* \"#utility.yul\":25112:25113   */\n      0x00\n        /* \"#utility.yul\":25108:25114   */\n      not\n        /* \"#utility.yul\":25100:25105   */\n      dup5\n        /* \"#utility.yul\":25097:25098   */\n      0x08\n        /* \"#utility.yul\":25093:25106   */\n      mul\n        /* \"#utility.yul\":25064:25115   */\n      tag_379\n      jump\t// in\n    tag_613:\n        /* \"#utility.yul\":25060:25116   */\n      not\n        /* \"#utility.yul\":25145:25149   */\n      dup1\n        /* \"#utility.yul\":25139:25143   */\n      dup4\n        /* \"#utility.yul\":25135:25150   */\n      and\n        /* \"#utility.yul\":25125:25150   */\n      swap2\n      pop\n        /* \"#utility.yul\":25038:25156   */\n      pop\n        /* \"#utility.yul\":24987:25156   */\n      swap3\n      swap2\n      pop\n      pop\n      jump\t// out\n        /* \"#utility.yul\":25161:25456   */\n    tag_381:\n        /* \"#utility.yul\":25237:25241   */\n      0x00\n        /* \"#utility.yul\":25383:25412   */\n      tag_615\n        /* \"#utility.yul\":25408:25411   */\n      dup4\n        /* \"#utility.yul\":25402:25406   */\n      dup4\n        /* \"#utility.yul\":25383:25412   */\n      tag_380\n      jump\t// in\n    tag_615:\n        /* \"#utility.yul\":25375:25412   */\n      swap2\n      pop\n        /* \"#utility.yul\":25445:25448   */\n      dup3\n        /* \"#utility.yul\":25442:25443   */\n      0x02\n        /* \"#utility.yul\":25438:25449   */\n      mul\n        /* \"#utility.yul\":25432:25436   */\n      dup3\n        /* \"#utility.yul\":25429:25450   */\n      or\n        /* \"#utility.yul\":25421:25450   */\n      swap1\n      pop\n        /* \"#utility.yul\":25161:25456   */\n      swap3\n      swap2\n      pop\n      pop\n      jump\t// out\n        /* \"#utility.yul\":25461:26856   */\n    tag_196:\n        /* \"#utility.yul\":25578:25615   */\n      tag_617\n        /* \"#utility.yul\":25611:25614   */\n      dup3\n        /* \"#utility.yul\":25578:25615   */\n      tag_323\n      jump\t// in\n    tag_617:\n        /* \"#utility.yul\":25680:25698   */\n      0xffffffffffffffff\n        /* \"#utility.yul\":25672:25678   */\n      dup2\n        /* \"#utility.yul\":25669:25699   */\n      gt\n        /* \"#utility.yul\":25666:25722   */\n      iszero\n      tag_618\n      jumpi\n        /* \"#utility.yul\":25702:25720   */\n      tag_619\n      tag_345\n      jump\t// in\n    tag_619:\n        /* \"#utility.yul\":25666:25722   */\n    tag_618:\n        /* \"#utility.yul\":25746:25784   */\n      tag_620\n        /* \"#utility.yul\":25778:25782   */\n      dup3\n        /* \"#utility.yul\":25772:25783   */\n      sload\n        /* \"#utility.yul\":25746:25784   */\n      tag_143\n      jump\t// in\n    tag_620:\n        /* \"#utility.yul\":25831:25898   */\n      tag_621\n        /* \"#utility.yul\":25891:25897   */\n      dup3\n        /* \"#utility.yul\":25883:25889   */\n      dup3\n        /* \"#utility.yul\":25877:25881   */\n      dup6\n        /* \"#utility.yul\":25831:25898   */\n      tag_378\n      jump\t// in\n    tag_621:\n        /* \"#utility.yul\":25925:25926   */\n      0x00\n        /* \"#utility.yul\":25949:25953   */\n      0x20\n        /* \"#utility.yul\":25936:25953   */\n      swap1\n      pop\n        /* \"#utility.yul\":25981:25983   */\n      0x1f\n        /* \"#utility.yul\":25973:25979   */\n      dup4\n        /* \"#utility.yul\":25970:25984   */\n      gt\n        /* \"#utility.yul\":25998:25999   */\n      0x01\n        /* \"#utility.yul\":25993:26611   */\n      dup2\n      eq\n      tag_623\n      jumpi\n        /* \"#utility.yul\":26655:26656   */\n      0x00\n        /* \"#utility.yul\":26672:26678   */\n      dup5\n        /* \"#utility.yul\":26669:26746   */\n      iszero\n      tag_624\n      jumpi\n        /* \"#utility.yul\":26721:26730   */\n      dup3\n        /* \"#utility.yul\":26716:26719   */\n      dup8\n        /* \"#utility.yul\":26712:26731   */\n      add\n        /* \"#utility.yul\":26706:26732   */\n      mload\n        /* \"#utility.yul\":26697:26732   */\n      swap1\n      pop\n        /* \"#utility.yul\":26669:26746   */\n    tag_624:\n        /* \"#utility.yul\":26772:26839   */\n      tag_625\n        /* \"#utility.yul\":26832:26838   */\n      dup6\n        /* \"#utility.yul\":26825:26830   */\n      dup3\n        /* \"#utility.yul\":26772:26839   */\n      tag_381\n      jump\t// in\n    tag_625:\n        /* \"#utility.yul\":26766:26770   */\n      dup7\n        /* \"#utility.yul\":26759:26840   */\n      sstore\n        /* \"#utility.yul\":26628:26850   */\n      pop\n        /* \"#utility.yul\":25963:26850   */\n      jump(tag_622)\n        /* \"#utility.yul\":25993:26611   */\n    tag_623:\n        /* \"#utility.yul\":26045:26049   */\n      0x1f\n        /* \"#utility.yul\":26041:26050   */\n      not\n        /* \"#utility.yul\":26033:26039   */\n      dup5\n        /* \"#utility.yul\":26029:26051   */\n      and\n        /* \"#utility.yul\":26079:26116   */\n      tag_626\n        /* \"#utility.yul\":26111:26115   */\n      dup7\n        /* \"#utility.yul\":26079:26116   */\n      tag_367\n      jump\t// in\n    tag_626:\n        /* \"#utility.yul\":26138:26139   */\n      0x00\n        /* \"#utility.yul\":26152:26360   */\n    tag_627:\n        /* \"#utility.yul\":26166:26173   */\n      dup3\n        /* \"#utility.yul\":26163:26164   */\n      dup2\n        /* \"#utility.yul\":26160:26174   */\n      lt\n        /* \"#utility.yul\":26152:26360   */\n      iszero\n      tag_629\n      jumpi\n        /* \"#utility.yul\":26245:26254   */\n      dup5\n        /* \"#utility.yul\":26240:26243   */\n      dup10\n        /* \"#utility.yul\":26236:26255   */\n      add\n        /* \"#utility.yul\":26230:26256   */\n      mload\n        /* \"#utility.yul\":26222:26228   */\n      dup3\n        /* \"#utility.yul\":26215:26257   */\n      sstore\n        /* \"#utility.yul\":26296:26297   */\n      0x01\n        /* \"#utility.yul\":26288:26294   */\n      dup3\n        /* \"#utility.yul\":26284:26298   */\n      add\n        /* \"#utility.yul\":26274:26298   */\n      swap2\n      pop\n        /* \"#utility.yul\":26343:26345   */\n      0x20\n        /* \"#utility.yul\":26332:26341   */\n      dup6\n        /* \"#utility.yul\":26328:26346   */\n      add\n        /* \"#utility.yul\":26315:26346   */\n      swap5\n      pop\n        /* \"#utility.yul\":26189:26193   */\n      0x20\n        /* \"#utility.yul\":26186:26187   */\n      dup2\n        /* \"#utility.yul\":26182:26194   */\n      add\n        /* \"#utility.yul\":26177:26194   */\n      swap1\n      pop\n        /* \"#utility.yul\":26152:26360   */\n      jump(tag_627)\n    tag_629:\n        /* \"#utility.yul\":26388:26394   */\n      dup7\n        /* \"#utility.yul\":26379:26386   */\n      dup4\n        /* \"#utility.yul\":26376:26395   */\n      lt\n        /* \"#utility.yul\":26373:26552   */\n      iszero\n      tag_630\n      jumpi\n        /* \"#utility.yul\":26446:26455   */\n      dup5\n        /* \"#utility.yul\":26441:26444   */\n      dup10\n        /* \"#utility.yul\":26437:26456   */\n      add\n        /* \"#utility.yul\":26431:26457   */\n      mload\n        /* \"#utility.yul\":26489:26537   */\n      tag_631\n        /* \"#utility.yul\":26531:26535   */\n      0x1f\n        /* \"#utility.yul\":26523:26529   */\n      dup10\n        /* \"#utility.yul\":26519:26536   */\n      and\n        /* \"#utility.yul\":26508:26517   */\n      dup3\n        /* \"#utility.yul\":26489:26537   */\n      tag_380\n      jump\t// in\n    tag_631:\n        /* \"#utility.yul\":26481:26487   */\n      dup4\n        /* \"#utility.yul\":26474:26538   */\n      sstore\n        /* \"#utility.yul\":26396:26552   */\n      pop\n        /* \"#utility.yul\":26373:26552   */\n    tag_630:\n        /* \"#utility.yul\":26598:26599   */\n      0x01\n        /* \"#utility.yul\":26594:26595   */\n      0x02\n        /* \"#utility.yul\":26586:26592   */\n      dup9\n        /* \"#utility.yul\":26582:26596   */\n      mul\n        /* \"#utility.yul\":26578:26600   */\n      add\n        /* \"#utility.yul\":26572:26576   */\n      dup9\n        /* \"#utility.yul\":26565:26601   */\n      sstore\n        /* \"#utility.yul\":26000:26611   */\n      pop\n      pop\n      pop\n        /* \"#utility.yul\":25963:26850   */\n    tag_622:\n      pop\n        /* \"#utility.yul\":25553:26856   */\n      pop\n      pop\n      pop\n        /* \"#utility.yul\":25461:26856   */\n      pop\n      pop\n      jump\t// out\n        /* \"#utility.yul\":26862:27239   */\n    tag_382:\n        /* \"#utility.yul\":26950:26953   */\n      0x00\n        /* \"#utility.yul\":26978:27017   */\n      tag_633\n        /* \"#utility.yul\":27011:27016   */\n      dup3\n        /* \"#utility.yul\":26978:27017   */\n      tag_323\n      jump\t// in\n    tag_633:\n        /* \"#utility.yul\":27033:27104   */\n      tag_634\n        /* \"#utility.yul\":27097:27103   */\n      dup2\n        /* \"#utility.yul\":27092:27095   */\n      dup6\n        /* \"#utility.yul\":27033:27104   */\n      tag_354\n      jump\t// in\n    tag_634:\n        /* \"#utility.yul\":27026:27104   */\n      swap4\n      pop\n        /* \"#utility.yul\":27113:27178   */\n      tag_635\n        /* \"#utility.yul\":27171:27177   */\n      dup2\n        /* \"#utility.yul\":27166:27169   */\n      dup6\n        /* \"#utility.yul\":27159:27163   */\n      0x20\n        /* \"#utility.yul\":27152:27157   */\n      dup7\n        /* \"#utility.yul\":27148:27164   */\n      add\n        /* \"#utility.yul\":27113:27178   */\n      tag_325\n      jump\t// in\n    tag_635:\n        /* \"#utility.yul\":27203:27232   */\n      tag_636\n        /* \"#utility.yul\":27225:27231   */\n      dup2\n        /* \"#utility.yul\":27203:27232   */\n      tag_326\n      jump\t// in\n    tag_636:\n        /* \"#utility.yul\":27198:27201   */\n      dup5\n        /* \"#utility.yul\":27194:27233   */\n      add\n        /* \"#utility.yul\":27187:27233   */\n      swap2\n      pop\n        /* \"#utility.yul\":26954:27239   */\n      pop\n        /* \"#utility.yul\":26862:27239   */\n      swap3\n      swap2\n      pop\n      pop\n      jump\t// out\n        /* \"#utility.yul\":27245:27889   */\n    tag_202:\n        /* \"#utility.yul\":27442:27446   */\n      0x00\n        /* \"#utility.yul\":27480:27483   */\n      0x80\n        /* \"#utility.yul\":27469:27478   */\n      dup3\n        /* \"#utility.yul\":27465:27484   */\n      add\n        /* \"#utility.yul\":27457:27484   */\n      swap1\n      pop\n        /* \"#utility.yul\":27494:27565   */\n      tag_638\n        /* \"#utility.yul\":27562:27563   */\n      0x00\n        /* \"#utility.yul\":27551:27560   */\n      dup4\n        /* \"#utility.yul\":27547:27564   */\n      add\n        /* \"#utility.yul\":27538:27544   */\n      dup8\n        /* \"#utility.yul\":27494:27565   */\n      tag_352\n      jump\t// in\n    tag_638:\n        /* \"#utility.yul\":27575:27647   */\n      tag_639\n        /* \"#utility.yul\":27643:27645   */\n      0x20\n        /* \"#utility.yul\":27632:27641   */\n      dup4\n        /* \"#utility.yul\":27628:27646   */\n      add\n        /* \"#utility.yul\":27619:27625   */\n      dup7\n        /* \"#utility.yul\":27575:27647   */\n      tag_353\n      jump\t// in\n    tag_639:\n        /* \"#utility.yul\":27694:27703   */\n      dup2\n        /* \"#utility.yul\":27688:27692   */\n      dup2\n        /* \"#utility.yul\":27684:27704   */\n      sub\n        /* \"#utility.yul\":27679:27681   */\n      0x40\n        /* \"#utility.yul\":27668:27677   */\n      dup4\n        /* \"#utility.yul\":27664:27682   */\n      add\n        /* \"#utility.yul\":27657:27705   */\n      mstore\n        /* \"#utility.yul\":27722:27800   */\n      tag_640\n        /* \"#utility.yul\":27795:27799   */\n      dup2\n        /* \"#utility.yul\":27786:27792   */\n      dup6\n        /* \"#utility.yul\":27722:27800   */\n      tag_382\n      jump\t// in\n    tag_640:\n        /* \"#utility.yul\":27714:27800   */\n      swap1\n      pop\n        /* \"#utility.yul\":27810:27882   */\n      tag_641\n        /* \"#utility.yul\":27878:27880   */\n      0x60\n        /* \"#utility.yul\":27867:27876   */\n      dup4\n        /* \"#utility.yul\":27863:27881   */\n      add\n        /* \"#utility.yul\":27854:27860   */\n      dup5\n        /* \"#utility.yul\":27810:27882   */\n      tag_352\n      jump\t// in\n    tag_641:\n        /* \"#utility.yul\":27245:27889   */\n      swap6\n      swap5\n      pop\n      pop\n      pop\n      pop\n      pop\n      jump\t// out\n\n    auxdata: 0xa26469706673582212208057b5ed1107c3217e3a294c3c648c22510701a9f24825f6350ad6a50fc0493664736f6c63430008170033\n}\n",
				"bytecode": {
					"linkReferences": {},
					"object": "6080604052600a60015534801562000015575f80fd5b50335f73ffffffffffffffffffffffffffffffffffffffff168173ffffffffffffffffffffffffffffffffffffffff16036200008a575f6040517f1e4fbdf7000000000000000000000000000000000000000000000000000000008152600401620000819190620001a6565b60405180910390fd5b6200009b81620000a260201b60201c565b50620001c1565b5f805f9054906101000a900473ffffffffffffffffffffffffffffffffffffffff169050815f806101000a81548173ffffffffffffffffffffffffffffffffffffffff021916908373ffffffffffffffffffffffffffffffffffffffff1602179055508173ffffffffffffffffffffffffffffffffffffffff168173ffffffffffffffffffffffffffffffffffffffff167f8be0079c531659141344cd1fd0a4f28419497f9722a3daafe3b4186f6b6457e060405160405180910390a35050565b5f73ffffffffffffffffffffffffffffffffffffffff82169050919050565b5f6200018e8262000163565b9050919050565b620001a08162000182565b82525050565b5f602082019050620001bb5f83018462000195565b92915050565b612d6480620001cf5f395ff3fe608060405234801561000f575f80fd5b50600436106100cd575f3560e01c80637c9cd2bc1161008a578063a110e72d11610064578063a110e72d146101c3578063a6156d77146101df578063e479c2441461020f578063f2fde38b1461022b576100cd565b80637c9cd2bc14610159578063820785cc146101755780638da5cb5b146101a5576100cd565b80631216cdc5146100d157806337f36a4c146100ed57806342d7fbc01461011d578063715018a61461013b57806371e7eb1214610145578063765fab451461014f575b5f80fd5b6100eb60048036038101906100e69190612016565b610247565b005b61010760048036038101906101029190612016565b61097e565b604051610114919061225f565b60405180910390f35b610125610c23565b60405161013291906123f5565b60405180910390f35b610143610edd565b005b61014d610ef0565b005b610157610fc4565b005b610173600480360381019061016e9190612541565b61100e565b005b61018f600480360381019061018a9190612588565b6113a8565b60405161019c91906125c2565b60405180910390f35b6101ad61147a565b6040516101ba91906125ea565b60405180910390f35b6101dd60048036038101906101d89190612016565b6114a1565b005b6101f960048036038101906101f49190612588565b611ac8565b60405161020691906125c2565b60405180910390f35b61022960048036038101906102249190612603565b611b9a565b005b61024560048036038101906102409190612588565b611bac565b005b81815f600190508160035f8573ffffffffffffffffffffffffffffffffffffffff1673ffffffffffffffffffffffffffffffffffffffff1681526020019081526020015f208054905010156102d1576040517f08c379a00000000000000000000000000000000000000000000000000000000081526004016102c890612688565b60405180910390fd5b5f5b60035f8573ffffffffffffffffffffffffffffffffffffffff1673ffffffffffffffffffffffffffffffffffffffff1681526020019081526020015f2060018461031d91906126d3565b8154811061032e5761032d612706565b5b905f5260205f20906008020160040180549050811015610433573373ffffffffffffffffffffffffffffffffffffffff1660035f8673ffffffffffffffffffffffffffffffffffffffff1673ffffffffffffffffffffffffffffffffffffffff1681526020019081526020015f206001856103a991906126d3565b815481106103ba576103b9612706565b5b905f5260205f20906008020160040182815481106103db576103da612706565b5b905f5260205f20015f9054906101000a900473ffffffffffffffffffffffffffffffffffffffff1673ffffffffffffffffffffffffffffffffffffffff1603610426575f9150610433565b80806001019150506102d3565b50600115158115151461047b576040517f08c379a00000000000000000000000000000000000000000000000000000000081526004016104729061277d565b60405180910390fd5b84845f600190508160035f8573ffffffffffffffffffffffffffffffffffffffff1673ffffffffffffffffffffffffffffffffffffffff1681526020019081526020015f20805490501015610505576040517f08c379a00000000000000000000000000000000000000000000000000000000081526004016104fc90612688565b60405180910390fd5b5f5b60035f8573ffffffffffffffffffffffffffffffffffffffff1673ffffffffffffffffffffffffffffffffffffffff1681526020019081526020015f2060018461055191906126d3565b8154811061056257610561612706565b5b905f5260205f20906008020160070180549050811015610667573373ffffffffffffffffffffffffffffffffffffffff1660035f8673ffffffffffffffffffffffffffffffffffffffff1673ffffffffffffffffffffffffffffffffffffffff1681526020019081526020015f206001856105dd91906126d3565b815481106105ee576105ed612706565b5b905f5260205f209060080201600701828154811061060f5761060e612706565b5b905f5260205f20015f9054906101000a900473ffffffffffffffffffffffffffffffffffffffff1673ffffffffffffffffffffffffffffffffffffffff160361065a575f9150610667565b8080600101915050610507565b5060011515811515146106af576040517f08c379a00000000000000000000000000000000000000000000000000000000081526004016106a6906127e5565b60405180910390fd5b3373ffffffffffffffffffffffffffffffffffffffff168873ffffffffffffffffffffffffffffffffffffffff160361071d576040517f08c379a000000000000000000000000000000000000000000000000000000000815260040161071490612873565b60405180910390fd5b60035f8973ffffffffffffffffffffffffffffffffffffffff1673ffffffffffffffffffffffffffffffffffffffff1681526020019081526020015f2060018861076791906126d3565b8154811061077857610777612706565b5b905f5260205f20906008020160040133908060018154018082558091505060019003905f5260205f20015f9091909190916101000a81548173ffffffffffffffffffffffffffffffffffffffff021916908373ffffffffffffffffffffffffffffffffffffffff16021790555060035f8973ffffffffffffffffffffffffffffffffffffffff1673ffffffffffffffffffffffffffffffffffffffff1681526020019081526020015f2060018861082f91906126d3565b815481106108405761083f612706565b5b905f5260205f2090600802016005015f81548092919061085f90612891565b91905055507fe8a76fc0f16d11a00d1e93b689b63d76cf60af914dd3d915375dc41d01a0c3c8338960035f8c73ffffffffffffffffffffffffffffffffffffffff1673ffffffffffffffffffffffffffffffffffffffff1681526020019081526020015f2060018b6108d191906126d3565b815481106108e2576108e1612706565b5b905f5260205f2090600802016005015460035f8d73ffffffffffffffffffffffffffffffffffffffff1673ffffffffffffffffffffffffffffffffffffffff1681526020019081526020015f2060018c61093c91906126d3565b8154811061094d5761094c612706565b5b905f5260205f2090600802015f015460405161096c94939291906128d8565b60405180910390a15050505050505050565b610986611d7f565b60035f8473ffffffffffffffffffffffffffffffffffffffff1673ffffffffffffffffffffffffffffffffffffffff1681526020019081526020015f206001836109d091906126d3565b815481106109e1576109e0612706565b5b905f5260205f209060080201604051806101000160405290815f8201548152602001600182018054610a1290612948565b80601f0160208091040260200160405190810160405280929190818152602001828054610a3e90612948565b8015610a895780601f10610a6057610100808354040283529160200191610a89565b820191905f5260205f20905b815481529060010190602001808311610a6c57829003601f168201915b50505050508152602001600282015f9054906101000a900473ffffffffffffffffffffffffffffffffffffffff1673ffffffffffffffffffffffffffffffffffffffff1673ffffffffffffffffffffffffffffffffffffffff1681526020016003820154815260200160048201805480602002602001604051908101604052809291908181526020018280548015610b7357602002820191905f5260205f20905b815f9054906101000a900473ffffffffffffffffffffffffffffffffffffffff1673ffffffffffffffffffffffffffffffffffffffff1681526020019060010190808311610b2a575b50505050508152602001600582015481526020016006820154815260200160078201805480602002602001604051908101604052809291908181526020018280548015610c1257602002820191905f5260205f20905b815f9054906101000a900473ffffffffffffffffffffffffffffffffffffffff1673ffffffffffffffffffffffffffffffffffffffff1681526020019060010190808311610bc9575b505050505081525050905092915050565b606060035f3373ffffffffffffffffffffffffffffffffffffffff1673ffffffffffffffffffffffffffffffffffffffff1681526020019081526020015f20805480602002602001604051908101604052809291908181526020015f905b82821015610ed4578382905f5260205f209060080201604051806101000160405290815f8201548152602001600182018054610cbc90612948565b80601f0160208091040260200160405190810160405280929190818152602001828054610ce890612948565b8015610d335780601f10610d0a57610100808354040283529160200191610d33565b820191905f5260205f20905b815481529060010190602001808311610d1657829003601f168201915b50505050508152602001600282015f9054906101000a900473ffffffffffffffffffffffffffffffffffffffff1673ffffffffffffffffffffffffffffffffffffffff1673ffffffffffffffffffffffffffffffffffffffff1681526020016003820154815260200160048201805480602002602001604051908101604052809291908181526020018280548015610e1d57602002820191905f5260205f20905b815f9054906101000a900473ffffffffffffffffffffffffffffffffffffffff1673ffffffffffffffffffffffffffffffffffffffff1681526020019060010190808311610dd4575b50505050508152602001600582015481526020016006820154815260200160078201805480602002602001604051908101604052809291908181526020018280548015610ebc57602002820191905f5260205f20905b815f9054906101000a900473ffffffffffffffffffffffffffffffffffffffff1673ffffffffffffffffffffffffffffffffffffffff1681526020019060010190808311610e73575b50505050508152505081526020019060010190610c81565b50505050905090565b610ee5611c30565b610eee5f611cb7565b565b60035f3373ffffffffffffffffffffffffffffffffffffffff1673ffffffffffffffffffffffffffffffffffffffff1681526020019081526020015f20805480610f3d57610f3c612978565b5b600190038181905f5260205f2090600802015f8082015f9055600182015f610f659190611dd5565b600282015f6101000a81549073ffffffffffffffffffffffffffffffffffffffff0219169055600382015f9055600482015f610fa19190611e12565b600582015f9055600682015f9055600782015f610fbe9190611e12565b50509055565b60035f3373ffffffffffffffffffffffffffffffffffffffff1673ffffffffffffffffffffffffffffffffffffffff1681526020019081526020015f205f61100c9190611e30565b565b60015481511115611054576040517f08c379a000000000000000000000000000000000000000000000000000000000815260040161104b906129ef565b60405180910390fd5b5f604051806101000160405280600160035f3373ffffffffffffffffffffffffffffffffffffffff1673ffffffffffffffffffffffffffffffffffffffff1681526020019081526020015f20805490506110ae9190612a0d565b81526020018381526020013373ffffffffffffffffffffffffffffffffffffffff168152602001428152602001600280548060200260200160405190810160405280929190818152602001828054801561115a57602002820191905f5260205f20905b815f9054906101000a900473ffffffffffffffffffffffffffffffffffffffff1673ffffffffffffffffffffffffffffffffffffffff1681526020019060010190808311611111575b505050505081526020015f81526020015f815260200160028054806020026020016040519081016040528092919081815260200182805480156111ef57602002820191905f5260205f20905b815f9054906101000a900473ffffffffffffffffffffffffffffffffffffffff1673ffffffffffffffffffffffffffffffffffffffff16815260200190600101908083116111a6575b5050505050815250905060035f3373ffffffffffffffffffffffffffffffffffffffff1673ffffffffffffffffffffffffffffffffffffffff1681526020019081526020015f2081908060018154018082558091505060019003905f5260205f2090600802015f909190919091505f820151815f0155602082015181600101908161127a9190612bdd565b506040820151816002015f6101000a81548173ffffffffffffffffffffffffffffffffffffffff021916908373ffffffffffffffffffffffffffffffffffffffff1602179055506060820151816003015560808201518160040190805190602001906112e7929190611e51565b5060a0820151816005015560c0820151816006015560e0820151816007019080519060200190611318929190611e51565b5050507f16fd3c13e9d46923e0a8bce11c7b473ec508a72e6c96cd2404b29ce972afc29e600160035f3373ffffffffffffffffffffffffffffffffffffffff1673ffffffffffffffffffffffffffffffffffffffff1681526020019081526020015f20805490506113899190612a0d565b33844260405161139c9493929190612ce4565b60405180910390a15050565b5f805f90505f5b60035f8573ffffffffffffffffffffffffffffffffffffffff1673ffffffffffffffffffffffffffffffffffffffff1681526020019081526020015f20805490508110156114705760035f8573ffffffffffffffffffffffffffffffffffffffff1673ffffffffffffffffffffffffffffffffffffffff1681526020019081526020015f20818154811061144657611445612706565b5b905f5260205f20906008020160050154826114619190612a0d565b915080806001019150506113af565b5080915050919050565b5f805f9054906101000a900473ffffffffffffffffffffffffffffffffffffffff16905090565b81815f600190508160035f8573ffffffffffffffffffffffffffffffffffffffff1673ffffffffffffffffffffffffffffffffffffffff1681526020019081526020015f2080549050101561152b576040517f08c379a000000000000000000000000000000000000000000000000000000000815260040161152290612688565b60405180910390fd5b5f5b60035f8573ffffffffffffffffffffffffffffffffffffffff1673ffffffffffffffffffffffffffffffffffffffff1681526020019081526020015f2060018461157791906126d3565b8154811061158857611587612706565b5b905f5260205f2090600802016004018054905081101561168d573373ffffffffffffffffffffffffffffffffffffffff1660035f8673ffffffffffffffffffffffffffffffffffffffff1673ffffffffffffffffffffffffffffffffffffffff1681526020019081526020015f2060018561160391906126d3565b8154811061161457611613612706565b5b905f5260205f209060080201600401828154811061163557611634612706565b5b905f5260205f20015f9054906101000a900473ffffffffffffffffffffffffffffffffffffffff1673ffffffffffffffffffffffffffffffffffffffff1603611680575f915061168d565b808060010191505061152d565b5060011515811515146116d5576040517f08c379a00000000000000000000000000000000000000000000000000000000081526004016116cc9061277d565b60405180910390fd5b84845f600190508160035f8573ffffffffffffffffffffffffffffffffffffffff1673ffffffffffffffffffffffffffffffffffffffff1681526020019081526020015f2080549050101561175f576040517f08c379a000000000000000000000000000000000000000000000000000000000815260040161175690612688565b60405180910390fd5b5f5b60035f8573ffffffffffffffffffffffffffffffffffffffff1673ffffffffffffffffffffffffffffffffffffffff1681526020019081526020015f206001846117ab91906126d3565b815481106117bc576117bb612706565b5b905f5260205f209060080201600701805490508110156118c1573373ffffffffffffffffffffffffffffffffffffffff1660035f8673ffffffffffffffffffffffffffffffffffffffff1673ffffffffffffffffffffffffffffffffffffffff1681526020019081526020015f2060018561183791906126d3565b8154811061184857611847612706565b5b905f5260205f209060080201600701828154811061186957611868612706565b5b905f5260205f20015f9054906101000a900473ffffffffffffffffffffffffffffffffffffffff1673ffffffffffffffffffffffffffffffffffffffff16036118b4575f91506118c1565b8080600101915050611761565b506001151581151514611909576040517f08c379a0000000000000000000000000000000000000000000000000000000008152600401611900906127e5565b60405180910390fd5b3373ffffffffffffffffffffffffffffffffffffffff168873ffffffffffffffffffffffffffffffffffffffff1603611977576040517f08c379a000000000000000000000000000000000000000000000000000000000815260040161196e90612873565b60405180910390fd5b60035f8973ffffffffffffffffffffffffffffffffffffffff1673ffffffffffffffffffffffffffffffffffffffff1681526020019081526020015f206001886119c191906126d3565b815481106119d2576119d1612706565b5b905f5260205f20906008020160070133908060018154018082558091505060019003905f5260205f20015f9091909190916101000a81548173ffffffffffffffffffffffffffffffffffffffff021916908373ffffffffffffffffffffffffffffffffffffffff16021790555060035f8973ffffffffffffffffffffffffffffffffffffffff1673ffffffffffffffffffffffffffffffffffffffff1681526020019081526020015f20600188611a8991906126d3565b81548110611a9a57611a99612706565b5b905f5260205f2090600802016006015f815480929190611ab990612891565b91905055505050505050505050565b5f805f90505f5b60035f8573ffffffffffffffffffffffffffffffffffffffff1673ffffffffffffffffffffffffffffffffffffffff1681526020019081526020015f2080549050811015611b905760035f8573ffffffffffffffffffffffffffffffffffffffff1673ffffffffffffffffffffffffffffffffffffffff1681526020019081526020015f208181548110611b6657611b65612706565b5b905f5260205f2090600802016006015482611b819190612a0d565b91508080600101915050611acf565b5080915050919050565b611ba2611c30565b8060018190555050565b611bb4611c30565b5f73ffffffffffffffffffffffffffffffffffffffff168173ffffffffffffffffffffffffffffffffffffffff1603611c24575f6040517f1e4fbdf7000000000000000000000000000000000000000000000000000000008152600401611c1b91906125ea565b60405180910390fd5b611c2d81611cb7565b50565b611c38611d78565b73ffffffffffffffffffffffffffffffffffffffff16611c5661147a565b73ffffffffffffffffffffffffffffffffffffffff1614611cb557611c79611d78565b6040517f118cdaa7000000000000000000000000000000000000000000000000000000008152600401611cac91906125ea565b60405180910390fd5b565b5f805f9054906101000a900473ffffffffffffffffffffffffffffffffffffffff169050815f806101000a81548173ffffffffffffffffffffffffffffffffffffffff021916908373ffffffffffffffffffffffffffffffffffffffff1602179055508173ffffffffffffffffffffffffffffffffffffffff168173ffffffffffffffffffffffffffffffffffffffff167f8be0079c531659141344cd1fd0a4f28419497f9722a3daafe3b4186f6b6457e060405160405180910390a35050565b5f33905090565b6040518061010001604052805f8152602001606081526020015f73ffffffffffffffffffffffffffffffffffffffff1681526020015f8152602001606081526020015f81526020015f8152602001606081525090565b508054611de190612948565b5f825580601f10611df25750611e0f565b601f0160209004905f5260205f2090810190611e0e9190611ed8565b5b50565b5080545f8255905f5260205f2090810190611e2d9190611ed8565b50565b5080545f8255600802905f5260205f2090810190611e4e9190611ef3565b50565b828054828255905f5260205f20908101928215611ec7579160200282015b82811115611ec6578251825f6101000a81548173ffffffffffffffffffffffffffffffffffffffff021916908373ffffffffffffffffffffffffffffffffffffffff16021790555091602001919060010190611e6f565b5b509050611ed49190611ed8565b5090565b5b80821115611eef575f815f905550600101611ed9565b5090565b5b80821115611f74575f8082015f9055600182015f611f129190611dd5565b600282015f6101000a81549073ffffffffffffffffffffffffffffffffffffffff0219169055600382015f9055600482015f611f4e9190611e12565b600582015f9055600682015f9055600782015f611f6b9190611e12565b50600801611ef4565b5090565b5f604051905090565b5f80fd5b5f80fd5b5f73ffffffffffffffffffffffffffffffffffffffff82169050919050565b5f611fb282611f89565b9050919050565b611fc281611fa8565b8114611fcc575f80fd5b50565b5f81359050611fdd81611fb9565b92915050565b5f819050919050565b611ff581611fe3565b8114611fff575f80fd5b50565b5f8135905061201081611fec565b92915050565b5f806040838503121561202c5761202b611f81565b5b5f61203985828601611fcf565b925050602061204a85828601612002565b9150509250929050565b61205d81611fe3565b82525050565b5f81519050919050565b5f82825260208201905092915050565b5f5b8381101561209a57808201518184015260208101905061207f565b5f8484015250505050565b5f601f19601f8301169050919050565b5f6120bf82612063565b6120c9818561206d565b93506120d981856020860161207d565b6120e2816120a5565b840191505092915050565b6120f681611fa8565b82525050565b5f81519050919050565b5f82825260208201905092915050565b5f819050602082019050919050565b5f61213083836120ed565b60208301905092915050565b5f602082019050919050565b5f612152826120fc565b61215c8185612106565b935061216783612116565b805f5b8381101561219757815161217e8882612125565b97506121898361213c565b92505060018101905061216a565b5085935050505092915050565b5f61010083015f8301516121ba5f860182612054565b50602083015184820360208601526121d282826120b5565b91505060408301516121e760408601826120ed565b5060608301516121fa6060860182612054565b50608083015184820360808601526122128282612148565b91505060a083015161222760a0860182612054565b5060c083015161223a60c0860182612054565b5060e083015184820360e08601526122528282612148565b9150508091505092915050565b5f6020820190508181035f83015261227781846121a4565b905092915050565b5f81519050919050565b5f82825260208201905092915050565b5f819050602082019050919050565b5f61010083015f8301516122be5f860182612054565b50602083015184820360208601526122d682826120b5565b91505060408301516122eb60408601826120ed565b5060608301516122fe6060860182612054565b50608083015184820360808601526123168282612148565b91505060a083015161232b60a0860182612054565b5060c083015161233e60c0860182612054565b5060e083015184820360e08601526123568282612148565b9150508091505092915050565b5f61236e83836122a8565b905092915050565b5f602082019050919050565b5f61238c8261227f565b6123968185612289565b9350836020820285016123a885612299565b805f5b858110156123e357848403895281516123c48582612363565b94506123cf83612376565b925060208a019950506001810190506123ab565b50829750879550505050505092915050565b5f6020820190508181035f83015261240d8184612382565b905092915050565b5f80fd5b5f80fd5b7f4e487b71000000000000000000000000000000000000000000000000000000005f52604160045260245ffd5b612453826120a5565b810181811067ffffffffffffffff821117156124725761247161241d565b5b80604052505050565b5f612484611f78565b9050612490828261244a565b919050565b5f67ffffffffffffffff8211156124af576124ae61241d565b5b6124b8826120a5565b9050602081019050919050565b828183375f83830152505050565b5f6124e56124e084612495565b61247b565b90508281526020810184848401111561250157612500612419565b5b61250c8482856124c5565b509392505050565b5f82601f83011261252857612527612415565b5b81356125388482602086016124d3565b91505092915050565b5f6020828403121561255657612555611f81565b5b5f82013567ffffffffffffffff81111561257357612572611f85565b5b61257f84828501612514565b91505092915050565b5f6020828403121561259d5761259c611f81565b5b5f6125aa84828501611fcf565b91505092915050565b6125bc81611fe3565b82525050565b5f6020820190506125d55f8301846125b3565b92915050565b6125e481611fa8565b82525050565b5f6020820190506125fd5f8301846125db565b92915050565b5f6020828403121561261857612617611f81565b5b5f61262584828501612002565b91505092915050565b5f82825260208201905092915050565b7f54686973205477656574204e6f742045786973742021000000000000000000005f82015250565b5f61267260168361262e565b915061267d8261263e565b602082019050919050565b5f6020820190508181035f83015261269f81612666565b9050919050565b7f4e487b71000000000000000000000000000000000000000000000000000000005f52601160045260245ffd5b5f6126dd82611fe3565b91506126e883611fe3565b9250828203905081811115612700576126ff6126a6565b5b92915050565b7f4e487b71000000000000000000000000000000000000000000000000000000005f52603260045260245ffd5b7f596f7520416c7265616479204c696b65642074686520747765657421000000005f82015250565b5f612767601c8361262e565b915061277282612733565b602082019050919050565b5f6020820190508181035f8301526127948161275b565b9050919050565b7f596f7520416c726561647920556e4c696b6564207468652074776565742100005f82015250565b5f6127cf601e8361262e565b91506127da8261279b565b602082019050919050565b5f6020820190508181035f8301526127fc816127c3565b9050919050565b7f5468697320697320596f757220547765657421596f752063616e6e2774204c695f8201527f6b6520596f757220547765657421000000000000000000000000000000000000602082015250565b5f61285d602e8361262e565b915061286882612803565b604082019050919050565b5f6020820190508181035f83015261288a81612851565b9050919050565b5f61289b82611fe3565b91507fffffffffffffffffffffffffffffffffffffffffffffffffffffffffffffffff82036128cd576128cc6126a6565b5b600182019050919050565b5f6080820190506128eb5f8301876125db565b6128f860208301866125db565b61290560408301856125b3565b61291260608301846125b3565b95945050505050565b7f4e487b71000000000000000000000000000000000000000000000000000000005f52602260045260245ffd5b5f600282049050600182168061295f57607f821691505b6020821081036129725761297161291b565b5b50919050565b7f4e487b71000000000000000000000000000000000000000000000000000000005f52603160045260245ffd5b7f5477656574204c656e67746820697320457863656564210000000000000000005f82015250565b5f6129d960178361262e565b91506129e4826129a5565b602082019050919050565b5f6020820190508181035f830152612a06816129cd565b9050919050565b5f612a1782611fe3565b9150612a2283611fe3565b9250828201905080821115612a3a57612a396126a6565b5b92915050565b5f819050815f5260205f209050919050565b5f6020601f8301049050919050565b5f82821b905092915050565b5f60088302612a9c7fffffffffffffffffffffffffffffffffffffffffffffffffffffffffffffffff82612a61565b612aa68683612a61565b95508019841693508086168417925050509392505050565b5f819050919050565b5f612ae1612adc612ad784611fe3565b612abe565b611fe3565b9050919050565b5f819050919050565b612afa83612ac7565b612b0e612b0682612ae8565b848454612a6d565b825550505050565b5f90565b612b22612b16565b612b2d818484612af1565b505050565b5b81811015612b5057612b455f82612b1a565b600181019050612b33565b5050565b601f821115612b9557612b6681612a40565b612b6f84612a52565b81016020851015612b7e578190505b612b92612b8a85612a52565b830182612b32565b50505b505050565b5f82821c905092915050565b5f612bb55f1984600802612b9a565b1980831691505092915050565b5f612bcd8383612ba6565b9150826002028217905092915050565b612be682612063565b67ffffffffffffffff811115612bff57612bfe61241d565b5b612c098254612948565b612c14828285612b54565b5f60209050601f831160018114612c45575f8415612c33578287015190505b612c3d8582612bc2565b865550612ca4565b601f198416612c5386612a40565b5f5b82811015612c7a57848901518255600182019150602085019450602081019050612c55565b86831015612c975784890151612c93601f891682612ba6565b8355505b6001600288020188555050505b505050505050565b5f612cb682612063565b612cc0818561262e565b9350612cd081856020860161207d565b612cd9816120a5565b840191505092915050565b5f608082019050612cf75f8301876125b3565b612d0460208301866125db565b8181036040830152612d168185612cac565b9050612d2560608301846125b3565b9594505050505056fea26469706673582212208057b5ed1107c3217e3a294c3c648c22510701a9f24825f6350ad6a50fc0493664736f6c63430008170033",
					"opcodes": "PUSH1 0x80 PUSH1 0x40 MSTORE PUSH1 0xA PUSH1 0x1 SSTORE CALLVALUE DUP1 ISZERO PUSH3 0x15 JUMPI PUSH0 DUP1 REVERT JUMPDEST POP CALLER PUSH0 PUSH20 0xFFFFFFFFFFFFFFFFFFFFFFFFFFFFFFFFFFFFFFFF AND DUP2 PUSH20 0xFFFFFFFFFFFFFFFFFFFFFFFFFFFFFFFFFFFFFFFF AND SUB PUSH3 0x8A JUMPI PUSH0 PUSH1 0x40 MLOAD PUSH32 0x1E4FBDF700000000000000000000000000000000000000000000000000000000 DUP2 MSTORE PUSH1 0x4 ADD PUSH3 0x81 SWAP2 SWAP1 PUSH3 0x1A6 JUMP JUMPDEST PUSH1 0x40 MLOAD DUP1 SWAP2 SUB SWAP1 REVERT JUMPDEST PUSH3 0x9B DUP2 PUSH3 0xA2 PUSH1 0x20 SHL PUSH1 0x20 SHR JUMP JUMPDEST POP PUSH3 0x1C1 JUMP JUMPDEST PUSH0 DUP1 PUSH0 SWAP1 SLOAD SWAP1 PUSH2 0x100 EXP SWAP1 DIV PUSH20 0xFFFFFFFFFFFFFFFFFFFFFFFFFFFFFFFFFFFFFFFF AND SWAP1 POP DUP2 PUSH0 DUP1 PUSH2 0x100 EXP DUP2 SLOAD DUP2 PUSH20 0xFFFFFFFFFFFFFFFFFFFFFFFFFFFFFFFFFFFFFFFF MUL NOT AND SWAP1 DUP4 PUSH20 0xFFFFFFFFFFFFFFFFFFFFFFFFFFFFFFFFFFFFFFFF AND MUL OR SWAP1 SSTORE POP DUP2 PUSH20 0xFFFFFFFFFFFFFFFFFFFFFFFFFFFFFFFFFFFFFFFF AND DUP2 PUSH20 0xFFFFFFFFFFFFFFFFFFFFFFFFFFFFFFFFFFFFFFFF AND PUSH32 0x8BE0079C531659141344CD1FD0A4F28419497F9722A3DAAFE3B4186F6B6457E0 PUSH1 0x40 MLOAD PUSH1 0x40 MLOAD DUP1 SWAP2 SUB SWAP1 LOG3 POP POP JUMP JUMPDEST PUSH0 PUSH20 0xFFFFFFFFFFFFFFFFFFFFFFFFFFFFFFFFFFFFFFFF DUP3 AND SWAP1 POP SWAP2 SWAP1 POP JUMP JUMPDEST PUSH0 PUSH3 0x18E DUP3 PUSH3 0x163 JUMP JUMPDEST SWAP1 POP SWAP2 SWAP1 POP JUMP JUMPDEST PUSH3 0x1A0 DUP2 PUSH3 0x182 JUMP JUMPDEST DUP3 MSTORE POP POP JUMP JUMPDEST PUSH0 PUSH1 0x20 DUP3 ADD SWAP1 POP PUSH3 0x1BB PUSH0 DUP4 ADD DUP5 PUSH3 0x195 JUMP JUMPDEST SWAP3 SWAP2 POP POP JUMP JUMPDEST PUSH2 0x2D64 DUP1 PUSH3 0x1CF PUSH0 CODECOPY PUSH0 RETURN INVALID PUSH1 0x80 PUSH1 0x40 MSTORE CALLVALUE DUP1 ISZERO PUSH2 0xF JUMPI PUSH0 DUP1 REVERT JUMPDEST POP PUSH1 0x4 CALLDATASIZE LT PUSH2 0xCD JUMPI PUSH0 CALLDATALOAD PUSH1 0xE0 SHR DUP1 PUSH4 0x7C9CD2BC GT PUSH2 0x8A JUMPI DUP1 PUSH4 0xA110E72D GT PUSH2 0x64 JUMPI DUP1 PUSH4 0xA110E72D EQ PUSH2 0x1C3 JUMPI DUP1 PUSH4 0xA6156D77 EQ PUSH2 0x1DF JUMPI DUP1 PUSH4 0xE479C244 EQ PUSH2 0x20F JUMPI DUP1 PUSH4 0xF2FDE38B EQ PUSH2 0x22B JUMPI PUSH2 0xCD JUMP JUMPDEST DUP1 PUSH4 0x7C9CD2BC EQ PUSH2 0x159 JUMPI DUP1 PUSH4 0x820785CC EQ PUSH2 0x175 JUMPI DUP1 PUSH4 0x8DA5CB5B EQ PUSH2 0x1A5 JUMPI PUSH2 0xCD JUMP JUMPDEST DUP1 PUSH4 0x1216CDC5 EQ PUSH2 0xD1 JUMPI DUP1 PUSH4 0x37F36A4C EQ PUSH2 0xED JUMPI DUP1 PUSH4 0x42D7FBC0 EQ PUSH2 0x11D JUMPI DUP1 PUSH4 0x715018A6 EQ PUSH2 0x13B JUMPI DUP1 PUSH4 0x71E7EB12 EQ PUSH2 0x145 JUMPI DUP1 PUSH4 0x765FAB45 EQ PUSH2 0x14F JUMPI JUMPDEST PUSH0 DUP1 REVERT JUMPDEST PUSH2 0xEB PUSH1 0x4 DUP1 CALLDATASIZE SUB DUP2 ADD SWAP1 PUSH2 0xE6 SWAP2 SWAP1 PUSH2 0x2016 JUMP JUMPDEST PUSH2 0x247 JUMP JUMPDEST STOP JUMPDEST PUSH2 0x107 PUSH1 0x4 DUP1 CALLDATASIZE SUB DUP2 ADD SWAP1 PUSH2 0x102 SWAP2 SWAP1 PUSH2 0x2016 JUMP JUMPDEST PUSH2 0x97E JUMP JUMPDEST PUSH1 0x40 MLOAD PUSH2 0x114 SWAP2 SWAP1 PUSH2 0x225F JUMP JUMPDEST PUSH1 0x40 MLOAD DUP1 SWAP2 SUB SWAP1 RETURN JUMPDEST PUSH2 0x125 PUSH2 0xC23 JUMP JUMPDEST PUSH1 0x40 MLOAD PUSH2 0x132 SWAP2 SWAP1 PUSH2 0x23F5 JUMP JUMPDEST PUSH1 0x40 MLOAD DUP1 SWAP2 SUB SWAP1 RETURN JUMPDEST PUSH2 0x143 PUSH2 0xEDD JUMP JUMPDEST STOP JUMPDEST PUSH2 0x14D PUSH2 0xEF0 JUMP JUMPDEST STOP JUMPDEST PUSH2 0x157 PUSH2 0xFC4 JUMP JUMPDEST STOP JUMPDEST PUSH2 0x173 PUSH1 0x4 DUP1 CALLDATASIZE SUB DUP2 ADD SWAP1 PUSH2 0x16E SWAP2 SWAP1 PUSH2 0x2541 JUMP JUMPDEST PUSH2 0x100E JUMP JUMPDEST STOP JUMPDEST PUSH2 0x18F PUSH1 0x4 DUP1 CALLDATASIZE SUB DUP2 ADD SWAP1 PUSH2 0x18A SWAP2 SWAP1 PUSH2 0x2588 JUMP JUMPDEST PUSH2 0x13A8 JUMP JUMPDEST PUSH1 0x40 MLOAD PUSH2 0x19C SWAP2 SWAP1 PUSH2 0x25C2 JUMP JUMPDEST PUSH1 0x40 MLOAD DUP1 SWAP2 SUB SWAP1 RETURN JUMPDEST PUSH2 0x1AD PUSH2 0x147A JUMP JUMPDEST PUSH1 0x40 MLOAD PUSH2 0x1BA SWAP2 SWAP1 PUSH2 0x25EA JUMP JUMPDEST PUSH1 0x40 MLOAD DUP1 SWAP2 SUB SWAP1 RETURN JUMPDEST PUSH2 0x1DD PUSH1 0x4 DUP1 CALLDATASIZE SUB DUP2 ADD SWAP1 PUSH2 0x1D8 SWAP2 SWAP1 PUSH2 0x2016 JUMP JUMPDEST PUSH2 0x14A1 JUMP JUMPDEST STOP JUMPDEST PUSH2 0x1F9 PUSH1 0x4 DUP1 CALLDATASIZE SUB DUP2 ADD SWAP1 PUSH2 0x1F4 SWAP2 SWAP1 PUSH2 0x2588 JUMP JUMPDEST PUSH2 0x1AC8 JUMP JUMPDEST PUSH1 0x40 MLOAD PUSH2 0x206 SWAP2 SWAP1 PUSH2 0x25C2 JUMP JUMPDEST PUSH1 0x40 MLOAD DUP1 SWAP2 SUB SWAP1 RETURN JUMPDEST PUSH2 0x229 PUSH1 0x4 DUP1 CALLDATASIZE SUB DUP2 ADD SWAP1 PUSH2 0x224 SWAP2 SWAP1 PUSH2 0x2603 JUMP JUMPDEST PUSH2 0x1B9A JUMP JUMPDEST STOP JUMPDEST PUSH2 0x245 PUSH1 0x4 DUP1 CALLDATASIZE SUB DUP2 ADD SWAP1 PUSH2 0x240 SWAP2 SWAP1 PUSH2 0x2588 JUMP JUMPDEST PUSH2 0x1BAC JUMP JUMPDEST STOP JUMPDEST DUP2 DUP2 PUSH0 PUSH1 0x1 SWAP1 POP DUP2 PUSH1 0x3 PUSH0 DUP6 PUSH20 0xFFFFFFFFFFFFFFFFFFFFFFFFFFFFFFFFFFFFFFFF AND PUSH20 0xFFFFFFFFFFFFFFFFFFFFFFFFFFFFFFFFFFFFFFFF AND DUP2 MSTORE PUSH1 0x20 ADD SWAP1 DUP2 MSTORE PUSH1 0x20 ADD PUSH0 KECCAK256 DUP1 SLOAD SWAP1 POP LT ISZERO PUSH2 0x2D1 JUMPI PUSH1 0x40 MLOAD PUSH32 0x8C379A000000000000000000000000000000000000000000000000000000000 DUP2 MSTORE PUSH1 0x4 ADD PUSH2 0x2C8 SWAP1 PUSH2 0x2688 JUMP JUMPDEST PUSH1 0x40 MLOAD DUP1 SWAP2 SUB SWAP1 REVERT JUMPDEST PUSH0 JUMPDEST PUSH1 0x3 PUSH0 DUP6 PUSH20 0xFFFFFFFFFFFFFFFFFFFFFFFFFFFFFFFFFFFFFFFF AND PUSH20 0xFFFFFFFFFFFFFFFFFFFFFFFFFFFFFFFFFFFFFFFF AND DUP2 MSTORE PUSH1 0x20 ADD SWAP1 DUP2 MSTORE PUSH1 0x20 ADD PUSH0 KECCAK256 PUSH1 0x1 DUP5 PUSH2 0x31D SWAP2 SWAP1 PUSH2 0x26D3 JUMP JUMPDEST DUP2 SLOAD DUP2 LT PUSH2 0x32E JUMPI PUSH2 0x32D PUSH2 0x2706 JUMP JUMPDEST JUMPDEST SWAP1 PUSH0 MSTORE PUSH1 0x20 PUSH0 KECCAK256 SWAP1 PUSH1 0x8 MUL ADD PUSH1 0x4 ADD DUP1 SLOAD SWAP1 POP DUP2 LT ISZERO PUSH2 0x433 JUMPI CALLER PUSH20 0xFFFFFFFFFFFFFFFFFFFFFFFFFFFFFFFFFFFFFFFF AND PUSH1 0x3 PUSH0 DUP7 PUSH20 0xFFFFFFFFFFFFFFFFFFFFFFFFFFFFFFFFFFFFFFFF AND PUSH20 0xFFFFFFFFFFFFFFFFFFFFFFFFFFFFFFFFFFFFFFFF AND DUP2 MSTORE PUSH1 0x20 ADD SWAP1 DUP2 MSTORE PUSH1 0x20 ADD PUSH0 KECCAK256 PUSH1 0x1 DUP6 PUSH2 0x3A9 SWAP2 SWAP1 PUSH2 0x26D3 JUMP JUMPDEST DUP2 SLOAD DUP2 LT PUSH2 0x3BA JUMPI PUSH2 0x3B9 PUSH2 0x2706 JUMP JUMPDEST JUMPDEST SWAP1 PUSH0 MSTORE PUSH1 0x20 PUSH0 KECCAK256 SWAP1 PUSH1 0x8 MUL ADD PUSH1 0x4 ADD DUP3 DUP2 SLOAD DUP2 LT PUSH2 0x3DB JUMPI PUSH2 0x3DA PUSH2 0x2706 JUMP JUMPDEST JUMPDEST SWAP1 PUSH0 MSTORE PUSH1 0x20 PUSH0 KECCAK256 ADD PUSH0 SWAP1 SLOAD SWAP1 PUSH2 0x100 EXP SWAP1 DIV PUSH20 0xFFFFFFFFFFFFFFFFFFFFFFFFFFFFFFFFFFFFFFFF AND PUSH20 0xFFFFFFFFFFFFFFFFFFFFFFFFFFFFFFFFFFFFFFFF AND SUB PUSH2 0x426 JUMPI PUSH0 SWAP2 POP PUSH2 0x433 JUMP JUMPDEST DUP1 DUP1 PUSH1 0x1 ADD SWAP2 POP POP PUSH2 0x2D3 JUMP JUMPDEST POP PUSH1 0x1 ISZERO ISZERO DUP2 ISZERO ISZERO EQ PUSH2 0x47B JUMPI PUSH1 0x40 MLOAD PUSH32 0x8C379A000000000000000000000000000000000000000000000000000000000 DUP2 MSTORE PUSH1 0x4 ADD PUSH2 0x472 SWAP1 PUSH2 0x277D JUMP JUMPDEST PUSH1 0x40 MLOAD DUP1 SWAP2 SUB SWAP1 REVERT JUMPDEST DUP5 DUP5 PUSH0 PUSH1 0x1 SWAP1 POP DUP2 PUSH1 0x3 PUSH0 DUP6 PUSH20 0xFFFFFFFFFFFFFFFFFFFFFFFFFFFFFFFFFFFFFFFF AND PUSH20 0xFFFFFFFFFFFFFFFFFFFFFFFFFFFFFFFFFFFFFFFF AND DUP2 MSTORE PUSH1 0x20 ADD SWAP1 DUP2 MSTORE PUSH1 0x20 ADD PUSH0 KECCAK256 DUP1 SLOAD SWAP1 POP LT ISZERO PUSH2 0x505 JUMPI PUSH1 0x40 MLOAD PUSH32 0x8C379A000000000000000000000000000000000000000000000000000000000 DUP2 MSTORE PUSH1 0x4 ADD PUSH2 0x4FC SWAP1 PUSH2 0x2688 JUMP JUMPDEST PUSH1 0x40 MLOAD DUP1 SWAP2 SUB SWAP1 REVERT JUMPDEST PUSH0 JUMPDEST PUSH1 0x3 PUSH0 DUP6 PUSH20 0xFFFFFFFFFFFFFFFFFFFFFFFFFFFFFFFFFFFFFFFF AND PUSH20 0xFFFFFFFFFFFFFFFFFFFFFFFFFFFFFFFFFFFFFFFF AND DUP2 MSTORE PUSH1 0x20 ADD SWAP1 DUP2 MSTORE PUSH1 0x20 ADD PUSH0 KECCAK256 PUSH1 0x1 DUP5 PUSH2 0x551 SWAP2 SWAP1 PUSH2 0x26D3 JUMP JUMPDEST DUP2 SLOAD DUP2 LT PUSH2 0x562 JUMPI PUSH2 0x561 PUSH2 0x2706 JUMP JUMPDEST JUMPDEST SWAP1 PUSH0 MSTORE PUSH1 0x20 PUSH0 KECCAK256 SWAP1 PUSH1 0x8 MUL ADD PUSH1 0x7 ADD DUP1 SLOAD SWAP1 POP DUP2 LT ISZERO PUSH2 0x667 JUMPI CALLER PUSH20 0xFFFFFFFFFFFFFFFFFFFFFFFFFFFFFFFFFFFFFFFF AND PUSH1 0x3 PUSH0 DUP7 PUSH20 0xFFFFFFFFFFFFFFFFFFFFFFFFFFFFFFFFFFFFFFFF AND PUSH20 0xFFFFFFFFFFFFFFFFFFFFFFFFFFFFFFFFFFFFFFFF AND DUP2 MSTORE PUSH1 0x20 ADD SWAP1 DUP2 MSTORE PUSH1 0x20 ADD PUSH0 KECCAK256 PUSH1 0x1 DUP6 PUSH2 0x5DD SWAP2 SWAP1 PUSH2 0x26D3 JUMP JUMPDEST DUP2 SLOAD DUP2 LT PUSH2 0x5EE JUMPI PUSH2 0x5ED PUSH2 0x2706 JUMP JUMPDEST JUMPDEST SWAP1 PUSH0 MSTORE PUSH1 0x20 PUSH0 KECCAK256 SWAP1 PUSH1 0x8 MUL ADD PUSH1 0x7 ADD DUP3 DUP2 SLOAD DUP2 LT PUSH2 0x60F JUMPI PUSH2 0x60E PUSH2 0x2706 JUMP JUMPDEST JUMPDEST SWAP1 PUSH0 MSTORE PUSH1 0x20 PUSH0 KECCAK256 ADD PUSH0 SWAP1 SLOAD SWAP1 PUSH2 0x100 EXP SWAP1 DIV PUSH20 0xFFFFFFFFFFFFFFFFFFFFFFFFFFFFFFFFFFFFFFFF AND PUSH20 0xFFFFFFFFFFFFFFFFFFFFFFFFFFFFFFFFFFFFFFFF AND SUB PUSH2 0x65A JUMPI PUSH0 SWAP2 POP PUSH2 0x667 JUMP JUMPDEST DUP1 DUP1 PUSH1 0x1 ADD SWAP2 POP POP PUSH2 0x507 JUMP JUMPDEST POP PUSH1 0x1 ISZERO ISZERO DUP2 ISZERO ISZERO EQ PUSH2 0x6AF JUMPI PUSH1 0x40 MLOAD PUSH32 0x8C379A000000000000000000000000000000000000000000000000000000000 DUP2 MSTORE PUSH1 0x4 ADD PUSH2 0x6A6 SWAP1 PUSH2 0x27E5 JUMP JUMPDEST PUSH1 0x40 MLOAD DUP1 SWAP2 SUB SWAP1 REVERT JUMPDEST CALLER PUSH20 0xFFFFFFFFFFFFFFFFFFFFFFFFFFFFFFFFFFFFFFFF AND DUP9 PUSH20 0xFFFFFFFFFFFFFFFFFFFFFFFFFFFFFFFFFFFFFFFF AND SUB PUSH2 0x71D JUMPI PUSH1 0x40 MLOAD PUSH32 0x8C379A000000000000000000000000000000000000000000000000000000000 DUP2 MSTORE PUSH1 0x4 ADD PUSH2 0x714 SWAP1 PUSH2 0x2873 JUMP JUMPDEST PUSH1 0x40 MLOAD DUP1 SWAP2 SUB SWAP1 REVERT JUMPDEST PUSH1 0x3 PUSH0 DUP10 PUSH20 0xFFFFFFFFFFFFFFFFFFFFFFFFFFFFFFFFFFFFFFFF AND PUSH20 0xFFFFFFFFFFFFFFFFFFFFFFFFFFFFFFFFFFFFFFFF AND DUP2 MSTORE PUSH1 0x20 ADD SWAP1 DUP2 MSTORE PUSH1 0x20 ADD PUSH0 KECCAK256 PUSH1 0x1 DUP9 PUSH2 0x767 SWAP2 SWAP1 PUSH2 0x26D3 JUMP JUMPDEST DUP2 SLOAD DUP2 LT PUSH2 0x778 JUMPI PUSH2 0x777 PUSH2 0x2706 JUMP JUMPDEST JUMPDEST SWAP1 PUSH0 MSTORE PUSH1 0x20 PUSH0 KECCAK256 SWAP1 PUSH1 0x8 MUL ADD PUSH1 0x4 ADD CALLER SWAP1 DUP1 PUSH1 0x1 DUP2 SLOAD ADD DUP1 DUP3 SSTORE DUP1 SWAP2 POP POP PUSH1 0x1 SWAP1 SUB SWAP1 PUSH0 MSTORE PUSH1 0x20 PUSH0 KECCAK256 ADD PUSH0 SWAP1 SWAP2 SWAP1 SWAP2 SWAP1 SWAP2 PUSH2 0x100 EXP DUP2 SLOAD DUP2 PUSH20 0xFFFFFFFFFFFFFFFFFFFFFFFFFFFFFFFFFFFFFFFF MUL NOT AND SWAP1 DUP4 PUSH20 0xFFFFFFFFFFFFFFFFFFFFFFFFFFFFFFFFFFFFFFFF AND MUL OR SWAP1 SSTORE POP PUSH1 0x3 PUSH0 DUP10 PUSH20 0xFFFFFFFFFFFFFFFFFFFFFFFFFFFFFFFFFFFFFFFF AND PUSH20 0xFFFFFFFFFFFFFFFFFFFFFFFFFFFFFFFFFFFFFFFF AND DUP2 MSTORE PUSH1 0x20 ADD SWAP1 DUP2 MSTORE PUSH1 0x20 ADD PUSH0 KECCAK256 PUSH1 0x1 DUP9 PUSH2 0x82F SWAP2 SWAP1 PUSH2 0x26D3 JUMP JUMPDEST DUP2 SLOAD DUP2 LT PUSH2 0x840 JUMPI PUSH2 0x83F PUSH2 0x2706 JUMP JUMPDEST JUMPDEST SWAP1 PUSH0 MSTORE PUSH1 0x20 PUSH0 KECCAK256 SWAP1 PUSH1 0x8 MUL ADD PUSH1 0x5 ADD PUSH0 DUP2 SLOAD DUP1 SWAP3 SWAP2 SWAP1 PUSH2 0x85F SWAP1 PUSH2 0x2891 JUMP JUMPDEST SWAP2 SWAP1 POP SSTORE POP PUSH32 0xE8A76FC0F16D11A00D1E93B689B63D76CF60AF914DD3D915375DC41D01A0C3C8 CALLER DUP10 PUSH1 0x3 PUSH0 DUP13 PUSH20 0xFFFFFFFFFFFFFFFFFFFFFFFFFFFFFFFFFFFFFFFF AND PUSH20 0xFFFFFFFFFFFFFFFFFFFFFFFFFFFFFFFFFFFFFFFF AND DUP2 MSTORE PUSH1 0x20 ADD SWAP1 DUP2 MSTORE PUSH1 0x20 ADD PUSH0 KECCAK256 PUSH1 0x1 DUP12 PUSH2 0x8D1 SWAP2 SWAP1 PUSH2 0x26D3 JUMP JUMPDEST DUP2 SLOAD DUP2 LT PUSH2 0x8E2 JUMPI PUSH2 0x8E1 PUSH2 0x2706 JUMP JUMPDEST JUMPDEST SWAP1 PUSH0 MSTORE PUSH1 0x20 PUSH0 KECCAK256 SWAP1 PUSH1 0x8 MUL ADD PUSH1 0x5 ADD SLOAD PUSH1 0x3 PUSH0 DUP14 PUSH20 0xFFFFFFFFFFFFFFFFFFFFFFFFFFFFFFFFFFFFFFFF AND PUSH20 0xFFFFFFFFFFFFFFFFFFFFFFFFFFFFFFFFFFFFFFFF AND DUP2 MSTORE PUSH1 0x20 ADD SWAP1 DUP2 MSTORE PUSH1 0x20 ADD PUSH0 KECCAK256 PUSH1 0x1 DUP13 PUSH2 0x93C SWAP2 SWAP1 PUSH2 0x26D3 JUMP JUMPDEST DUP2 SLOAD DUP2 LT PUSH2 0x94D JUMPI PUSH2 0x94C PUSH2 0x2706 JUMP JUMPDEST JUMPDEST SWAP1 PUSH0 MSTORE PUSH1 0x20 PUSH0 KECCAK256 SWAP1 PUSH1 0x8 MUL ADD PUSH0 ADD SLOAD PUSH1 0x40 MLOAD PUSH2 0x96C SWAP5 SWAP4 SWAP3 SWAP2 SWAP1 PUSH2 0x28D8 JUMP JUMPDEST PUSH1 0x40 MLOAD DUP1 SWAP2 SUB SWAP1 LOG1 POP POP POP POP POP POP POP POP JUMP JUMPDEST PUSH2 0x986 PUSH2 0x1D7F JUMP JUMPDEST PUSH1 0x3 PUSH0 DUP5 PUSH20 0xFFFFFFFFFFFFFFFFFFFFFFFFFFFFFFFFFFFFFFFF AND PUSH20 0xFFFFFFFFFFFFFFFFFFFFFFFFFFFFFFFFFFFFFFFF AND DUP2 MSTORE PUSH1 0x20 ADD SWAP1 DUP2 MSTORE PUSH1 0x20 ADD PUSH0 KECCAK256 PUSH1 0x1 DUP4 PUSH2 0x9D0 SWAP2 SWAP1 PUSH2 0x26D3 JUMP JUMPDEST DUP2 SLOAD DUP2 LT PUSH2 0x9E1 JUMPI PUSH2 0x9E0 PUSH2 0x2706 JUMP JUMPDEST JUMPDEST SWAP1 PUSH0 MSTORE PUSH1 0x20 PUSH0 KECCAK256 SWAP1 PUSH1 0x8 MUL ADD PUSH1 0x40 MLOAD DUP1 PUSH2 0x100 ADD PUSH1 0x40 MSTORE SWAP1 DUP2 PUSH0 DUP3 ADD SLOAD DUP2 MSTORE PUSH1 0x20 ADD PUSH1 0x1 DUP3 ADD DUP1 SLOAD PUSH2 0xA12 SWAP1 PUSH2 0x2948 JUMP JUMPDEST DUP1 PUSH1 0x1F ADD PUSH1 0x20 DUP1 SWAP2 DIV MUL PUSH1 0x20 ADD PUSH1 0x40 MLOAD SWAP1 DUP2 ADD PUSH1 0x40 MSTORE DUP1 SWAP3 SWAP2 SWAP1 DUP2 DUP2 MSTORE PUSH1 0x20 ADD DUP3 DUP1 SLOAD PUSH2 0xA3E SWAP1 PUSH2 0x2948 JUMP JUMPDEST DUP1 ISZERO PUSH2 0xA89 JUMPI DUP1 PUSH1 0x1F LT PUSH2 0xA60 JUMPI PUSH2 0x100 DUP1 DUP4 SLOAD DIV MUL DUP4 MSTORE SWAP2 PUSH1 0x20 ADD SWAP2 PUSH2 0xA89 JUMP JUMPDEST DUP3 ADD SWAP2 SWAP1 PUSH0 MSTORE PUSH1 0x20 PUSH0 KECCAK256 SWAP1 JUMPDEST DUP2 SLOAD DUP2 MSTORE SWAP1 PUSH1 0x1 ADD SWAP1 PUSH1 0x20 ADD DUP1 DUP4 GT PUSH2 0xA6C JUMPI DUP3 SWAP1 SUB PUSH1 0x1F AND DUP3 ADD SWAP2 JUMPDEST POP POP POP POP POP DUP2 MSTORE PUSH1 0x20 ADD PUSH1 0x2 DUP3 ADD PUSH0 SWAP1 SLOAD SWAP1 PUSH2 0x100 EXP SWAP1 DIV PUSH20 0xFFFFFFFFFFFFFFFFFFFFFFFFFFFFFFFFFFFFFFFF AND PUSH20 0xFFFFFFFFFFFFFFFFFFFFFFFFFFFFFFFFFFFFFFFF AND PUSH20 0xFFFFFFFFFFFFFFFFFFFFFFFFFFFFFFFFFFFFFFFF AND DUP2 MSTORE PUSH1 0x20 ADD PUSH1 0x3 DUP3 ADD SLOAD DUP2 MSTORE PUSH1 0x20 ADD PUSH1 0x4 DUP3 ADD DUP1 SLOAD DUP1 PUSH1 0x20 MUL PUSH1 0x20 ADD PUSH1 0x40 MLOAD SWAP1 DUP2 ADD PUSH1 0x40 MSTORE DUP1 SWAP3 SWAP2 SWAP1 DUP2 DUP2 MSTORE PUSH1 0x20 ADD DUP3 DUP1 SLOAD DUP1 ISZERO PUSH2 0xB73 JUMPI PUSH1 0x20 MUL DUP3 ADD SWAP2 SWAP1 PUSH0 MSTORE PUSH1 0x20 PUSH0 KECCAK256 SWAP1 JUMPDEST DUP2 PUSH0 SWAP1 SLOAD SWAP1 PUSH2 0x100 EXP SWAP1 DIV PUSH20 0xFFFFFFFFFFFFFFFFFFFFFFFFFFFFFFFFFFFFFFFF AND PUSH20 0xFFFFFFFFFFFFFFFFFFFFFFFFFFFFFFFFFFFFFFFF AND DUP2 MSTORE PUSH1 0x20 ADD SWAP1 PUSH1 0x1 ADD SWAP1 DUP1 DUP4 GT PUSH2 0xB2A JUMPI JUMPDEST POP POP POP POP POP DUP2 MSTORE PUSH1 0x20 ADD PUSH1 0x5 DUP3 ADD SLOAD DUP2 MSTORE PUSH1 0x20 ADD PUSH1 0x6 DUP3 ADD SLOAD DUP2 MSTORE PUSH1 0x20 ADD PUSH1 0x7 DUP3 ADD DUP1 SLOAD DUP1 PUSH1 0x20 MUL PUSH1 0x20 ADD PUSH1 0x40 MLOAD SWAP1 DUP2 ADD PUSH1 0x40 MSTORE DUP1 SWAP3 SWAP2 SWAP1 DUP2 DUP2 MSTORE PUSH1 0x20 ADD DUP3 DUP1 SLOAD DUP1 ISZERO PUSH2 0xC12 JUMPI PUSH1 0x20 MUL DUP3 ADD SWAP2 SWAP1 PUSH0 MSTORE PUSH1 0x20 PUSH0 KECCAK256 SWAP1 JUMPDEST DUP2 PUSH0 SWAP1 SLOAD SWAP1 PUSH2 0x100 EXP SWAP1 DIV PUSH20 0xFFFFFFFFFFFFFFFFFFFFFFFFFFFFFFFFFFFFFFFF AND PUSH20 0xFFFFFFFFFFFFFFFFFFFFFFFFFFFFFFFFFFFFFFFF AND DUP2 MSTORE PUSH1 0x20 ADD SWAP1 PUSH1 0x1 ADD SWAP1 DUP1 DUP4 GT PUSH2 0xBC9 JUMPI JUMPDEST POP POP POP POP POP DUP2 MSTORE POP POP SWAP1 POP SWAP3 SWAP2 POP POP JUMP JUMPDEST PUSH1 0x60 PUSH1 0x3 PUSH0 CALLER PUSH20 0xFFFFFFFFFFFFFFFFFFFFFFFFFFFFFFFFFFFFFFFF AND PUSH20 0xFFFFFFFFFFFFFFFFFFFFFFFFFFFFFFFFFFFFFFFF AND DUP2 MSTORE PUSH1 0x20 ADD SWAP1 DUP2 MSTORE PUSH1 0x20 ADD PUSH0 KECCAK256 DUP1 SLOAD DUP1 PUSH1 0x20 MUL PUSH1 0x20 ADD PUSH1 0x40 MLOAD SWAP1 DUP2 ADD PUSH1 0x40 MSTORE DUP1 SWAP3 SWAP2 SWAP1 DUP2 DUP2 MSTORE PUSH1 0x20 ADD PUSH0 SWAP1 JUMPDEST DUP3 DUP3 LT ISZERO PUSH2 0xED4 JUMPI DUP4 DUP3 SWAP1 PUSH0 MSTORE PUSH1 0x20 PUSH0 KECCAK256 SWAP1 PUSH1 0x8 MUL ADD PUSH1 0x40 MLOAD DUP1 PUSH2 0x100 ADD PUSH1 0x40 MSTORE SWAP1 DUP2 PUSH0 DUP3 ADD SLOAD DUP2 MSTORE PUSH1 0x20 ADD PUSH1 0x1 DUP3 ADD DUP1 SLOAD PUSH2 0xCBC SWAP1 PUSH2 0x2948 JUMP JUMPDEST DUP1 PUSH1 0x1F ADD PUSH1 0x20 DUP1 SWAP2 DIV MUL PUSH1 0x20 ADD PUSH1 0x40 MLOAD SWAP1 DUP2 ADD PUSH1 0x40 MSTORE DUP1 SWAP3 SWAP2 SWAP1 DUP2 DUP2 MSTORE PUSH1 0x20 ADD DUP3 DUP1 SLOAD PUSH2 0xCE8 SWAP1 PUSH2 0x2948 JUMP JUMPDEST DUP1 ISZERO PUSH2 0xD33 JUMPI DUP1 PUSH1 0x1F LT PUSH2 0xD0A JUMPI PUSH2 0x100 DUP1 DUP4 SLOAD DIV MUL DUP4 MSTORE SWAP2 PUSH1 0x20 ADD SWAP2 PUSH2 0xD33 JUMP JUMPDEST DUP3 ADD SWAP2 SWAP1 PUSH0 MSTORE PUSH1 0x20 PUSH0 KECCAK256 SWAP1 JUMPDEST DUP2 SLOAD DUP2 MSTORE SWAP1 PUSH1 0x1 ADD SWAP1 PUSH1 0x20 ADD DUP1 DUP4 GT PUSH2 0xD16 JUMPI DUP3 SWAP1 SUB PUSH1 0x1F AND DUP3 ADD SWAP2 JUMPDEST POP POP POP POP POP DUP2 MSTORE PUSH1 0x20 ADD PUSH1 0x2 DUP3 ADD PUSH0 SWAP1 SLOAD SWAP1 PUSH2 0x100 EXP SWAP1 DIV PUSH20 0xFFFFFFFFFFFFFFFFFFFFFFFFFFFFFFFFFFFFFFFF AND PUSH20 0xFFFFFFFFFFFFFFFFFFFFFFFFFFFFFFFFFFFFFFFF AND PUSH20 0xFFFFFFFFFFFFFFFFFFFFFFFFFFFFFFFFFFFFFFFF AND DUP2 MSTORE PUSH1 0x20 ADD PUSH1 0x3 DUP3 ADD SLOAD DUP2 MSTORE PUSH1 0x20 ADD PUSH1 0x4 DUP3 ADD DUP1 SLOAD DUP1 PUSH1 0x20 MUL PUSH1 0x20 ADD PUSH1 0x40 MLOAD SWAP1 DUP2 ADD PUSH1 0x40 MSTORE DUP1 SWAP3 SWAP2 SWAP1 DUP2 DUP2 MSTORE PUSH1 0x20 ADD DUP3 DUP1 SLOAD DUP1 ISZERO PUSH2 0xE1D JUMPI PUSH1 0x20 MUL DUP3 ADD SWAP2 SWAP1 PUSH0 MSTORE PUSH1 0x20 PUSH0 KECCAK256 SWAP1 JUMPDEST DUP2 PUSH0 SWAP1 SLOAD SWAP1 PUSH2 0x100 EXP SWAP1 DIV PUSH20 0xFFFFFFFFFFFFFFFFFFFFFFFFFFFFFFFFFFFFFFFF AND PUSH20 0xFFFFFFFFFFFFFFFFFFFFFFFFFFFFFFFFFFFFFFFF AND DUP2 MSTORE PUSH1 0x20 ADD SWAP1 PUSH1 0x1 ADD SWAP1 DUP1 DUP4 GT PUSH2 0xDD4 JUMPI JUMPDEST POP POP POP POP POP DUP2 MSTORE PUSH1 0x20 ADD PUSH1 0x5 DUP3 ADD SLOAD DUP2 MSTORE PUSH1 0x20 ADD PUSH1 0x6 DUP3 ADD SLOAD DUP2 MSTORE PUSH1 0x20 ADD PUSH1 0x7 DUP3 ADD DUP1 SLOAD DUP1 PUSH1 0x20 MUL PUSH1 0x20 ADD PUSH1 0x40 MLOAD SWAP1 DUP2 ADD PUSH1 0x40 MSTORE DUP1 SWAP3 SWAP2 SWAP1 DUP2 DUP2 MSTORE PUSH1 0x20 ADD DUP3 DUP1 SLOAD DUP1 ISZERO PUSH2 0xEBC JUMPI PUSH1 0x20 MUL DUP3 ADD SWAP2 SWAP1 PUSH0 MSTORE PUSH1 0x20 PUSH0 KECCAK256 SWAP1 JUMPDEST DUP2 PUSH0 SWAP1 SLOAD SWAP1 PUSH2 0x100 EXP SWAP1 DIV PUSH20 0xFFFFFFFFFFFFFFFFFFFFFFFFFFFFFFFFFFFFFFFF AND PUSH20 0xFFFFFFFFFFFFFFFFFFFFFFFFFFFFFFFFFFFFFFFF AND DUP2 MSTORE PUSH1 0x20 ADD SWAP1 PUSH1 0x1 ADD SWAP1 DUP1 DUP4 GT PUSH2 0xE73 JUMPI JUMPDEST POP POP POP POP POP DUP2 MSTORE POP POP DUP2 MSTORE PUSH1 0x20 ADD SWAP1 PUSH1 0x1 ADD SWAP1 PUSH2 0xC81 JUMP JUMPDEST POP POP POP POP SWAP1 POP SWAP1 JUMP JUMPDEST PUSH2 0xEE5 PUSH2 0x1C30 JUMP JUMPDEST PUSH2 0xEEE PUSH0 PUSH2 0x1CB7 JUMP JUMPDEST JUMP JUMPDEST PUSH1 0x3 PUSH0 CALLER PUSH20 0xFFFFFFFFFFFFFFFFFFFFFFFFFFFFFFFFFFFFFFFF AND PUSH20 0xFFFFFFFFFFFFFFFFFFFFFFFFFFFFFFFFFFFFFFFF AND DUP2 MSTORE PUSH1 0x20 ADD SWAP1 DUP2 MSTORE PUSH1 0x20 ADD PUSH0 KECCAK256 DUP1 SLOAD DUP1 PUSH2 0xF3D JUMPI PUSH2 0xF3C PUSH2 0x2978 JUMP JUMPDEST JUMPDEST PUSH1 0x1 SWAP1 SUB DUP2 DUP2 SWAP1 PUSH0 MSTORE PUSH1 0x20 PUSH0 KECCAK256 SWAP1 PUSH1 0x8 MUL ADD PUSH0 DUP1 DUP3 ADD PUSH0 SWAP1 SSTORE PUSH1 0x1 DUP3 ADD PUSH0 PUSH2 0xF65 SWAP2 SWAP1 PUSH2 0x1DD5 JUMP JUMPDEST PUSH1 0x2 DUP3 ADD PUSH0 PUSH2 0x100 EXP DUP2 SLOAD SWAP1 PUSH20 0xFFFFFFFFFFFFFFFFFFFFFFFFFFFFFFFFFFFFFFFF MUL NOT AND SWAP1 SSTORE PUSH1 0x3 DUP3 ADD PUSH0 SWAP1 SSTORE PUSH1 0x4 DUP3 ADD PUSH0 PUSH2 0xFA1 SWAP2 SWAP1 PUSH2 0x1E12 JUMP JUMPDEST PUSH1 0x5 DUP3 ADD PUSH0 SWAP1 SSTORE PUSH1 0x6 DUP3 ADD PUSH0 SWAP1 SSTORE PUSH1 0x7 DUP3 ADD PUSH0 PUSH2 0xFBE SWAP2 SWAP1 PUSH2 0x1E12 JUMP JUMPDEST POP POP SWAP1 SSTORE JUMP JUMPDEST PUSH1 0x3 PUSH0 CALLER PUSH20 0xFFFFFFFFFFFFFFFFFFFFFFFFFFFFFFFFFFFFFFFF AND PUSH20 0xFFFFFFFFFFFFFFFFFFFFFFFFFFFFFFFFFFFFFFFF AND DUP2 MSTORE PUSH1 0x20 ADD SWAP1 DUP2 MSTORE PUSH1 0x20 ADD PUSH0 KECCAK256 PUSH0 PUSH2 0x100C SWAP2 SWAP1 PUSH2 0x1E30 JUMP JUMPDEST JUMP JUMPDEST PUSH1 0x1 SLOAD DUP2 MLOAD GT ISZERO PUSH2 0x1054 JUMPI PUSH1 0x40 MLOAD PUSH32 0x8C379A000000000000000000000000000000000000000000000000000000000 DUP2 MSTORE PUSH1 0x4 ADD PUSH2 0x104B SWAP1 PUSH2 0x29EF JUMP JUMPDEST PUSH1 0x40 MLOAD DUP1 SWAP2 SUB SWAP1 REVERT JUMPDEST PUSH0 PUSH1 0x40 MLOAD DUP1 PUSH2 0x100 ADD PUSH1 0x40 MSTORE DUP1 PUSH1 0x1 PUSH1 0x3 PUSH0 CALLER PUSH20 0xFFFFFFFFFFFFFFFFFFFFFFFFFFFFFFFFFFFFFFFF AND PUSH20 0xFFFFFFFFFFFFFFFFFFFFFFFFFFFFFFFFFFFFFFFF AND DUP2 MSTORE PUSH1 0x20 ADD SWAP1 DUP2 MSTORE PUSH1 0x20 ADD PUSH0 KECCAK256 DUP1 SLOAD SWAP1 POP PUSH2 0x10AE SWAP2 SWAP1 PUSH2 0x2A0D JUMP JUMPDEST DUP2 MSTORE PUSH1 0x20 ADD DUP4 DUP2 MSTORE PUSH1 0x20 ADD CALLER PUSH20 0xFFFFFFFFFFFFFFFFFFFFFFFFFFFFFFFFFFFFFFFF AND DUP2 MSTORE PUSH1 0x20 ADD TIMESTAMP DUP2 MSTORE PUSH1 0x20 ADD PUSH1 0x2 DUP1 SLOAD DUP1 PUSH1 0x20 MUL PUSH1 0x20 ADD PUSH1 0x40 MLOAD SWAP1 DUP2 ADD PUSH1 0x40 MSTORE DUP1 SWAP3 SWAP2 SWAP1 DUP2 DUP2 MSTORE PUSH1 0x20 ADD DUP3 DUP1 SLOAD DUP1 ISZERO PUSH2 0x115A JUMPI PUSH1 0x20 MUL DUP3 ADD SWAP2 SWAP1 PUSH0 MSTORE PUSH1 0x20 PUSH0 KECCAK256 SWAP1 JUMPDEST DUP2 PUSH0 SWAP1 SLOAD SWAP1 PUSH2 0x100 EXP SWAP1 DIV PUSH20 0xFFFFFFFFFFFFFFFFFFFFFFFFFFFFFFFFFFFFFFFF AND PUSH20 0xFFFFFFFFFFFFFFFFFFFFFFFFFFFFFFFFFFFFFFFF AND DUP2 MSTORE PUSH1 0x20 ADD SWAP1 PUSH1 0x1 ADD SWAP1 DUP1 DUP4 GT PUSH2 0x1111 JUMPI JUMPDEST POP POP POP POP POP DUP2 MSTORE PUSH1 0x20 ADD PUSH0 DUP2 MSTORE PUSH1 0x20 ADD PUSH0 DUP2 MSTORE PUSH1 0x20 ADD PUSH1 0x2 DUP1 SLOAD DUP1 PUSH1 0x20 MUL PUSH1 0x20 ADD PUSH1 0x40 MLOAD SWAP1 DUP2 ADD PUSH1 0x40 MSTORE DUP1 SWAP3 SWAP2 SWAP1 DUP2 DUP2 MSTORE PUSH1 0x20 ADD DUP3 DUP1 SLOAD DUP1 ISZERO PUSH2 0x11EF JUMPI PUSH1 0x20 MUL DUP3 ADD SWAP2 SWAP1 PUSH0 MSTORE PUSH1 0x20 PUSH0 KECCAK256 SWAP1 JUMPDEST DUP2 PUSH0 SWAP1 SLOAD SWAP1 PUSH2 0x100 EXP SWAP1 DIV PUSH20 0xFFFFFFFFFFFFFFFFFFFFFFFFFFFFFFFFFFFFFFFF AND PUSH20 0xFFFFFFFFFFFFFFFFFFFFFFFFFFFFFFFFFFFFFFFF AND DUP2 MSTORE PUSH1 0x20 ADD SWAP1 PUSH1 0x1 ADD SWAP1 DUP1 DUP4 GT PUSH2 0x11A6 JUMPI JUMPDEST POP POP POP POP POP DUP2 MSTORE POP SWAP1 POP PUSH1 0x3 PUSH0 CALLER PUSH20 0xFFFFFFFFFFFFFFFFFFFFFFFFFFFFFFFFFFFFFFFF AND PUSH20 0xFFFFFFFFFFFFFFFFFFFFFFFFFFFFFFFFFFFFFFFF AND DUP2 MSTORE PUSH1 0x20 ADD SWAP1 DUP2 MSTORE PUSH1 0x20 ADD PUSH0 KECCAK256 DUP2 SWAP1 DUP1 PUSH1 0x1 DUP2 SLOAD ADD DUP1 DUP3 SSTORE DUP1 SWAP2 POP POP PUSH1 0x1 SWAP1 SUB SWAP1 PUSH0 MSTORE PUSH1 0x20 PUSH0 KECCAK256 SWAP1 PUSH1 0x8 MUL ADD PUSH0 SWAP1 SWAP2 SWAP1 SWAP2 SWAP1 SWAP2 POP PUSH0 DUP3 ADD MLOAD DUP2 PUSH0 ADD SSTORE PUSH1 0x20 DUP3 ADD MLOAD DUP2 PUSH1 0x1 ADD SWAP1 DUP2 PUSH2 0x127A SWAP2 SWAP1 PUSH2 0x2BDD JUMP JUMPDEST POP PUSH1 0x40 DUP3 ADD MLOAD DUP2 PUSH1 0x2 ADD PUSH0 PUSH2 0x100 EXP DUP2 SLOAD DUP2 PUSH20 0xFFFFFFFFFFFFFFFFFFFFFFFFFFFFFFFFFFFFFFFF MUL NOT AND SWAP1 DUP4 PUSH20 0xFFFFFFFFFFFFFFFFFFFFFFFFFFFFFFFFFFFFFFFF AND MUL OR SWAP1 SSTORE POP PUSH1 0x60 DUP3 ADD MLOAD DUP2 PUSH1 0x3 ADD SSTORE PUSH1 0x80 DUP3 ADD MLOAD DUP2 PUSH1 0x4 ADD SWAP1 DUP1 MLOAD SWAP1 PUSH1 0x20 ADD SWAP1 PUSH2 0x12E7 SWAP3 SWAP2 SWAP1 PUSH2 0x1E51 JUMP JUMPDEST POP PUSH1 0xA0 DUP3 ADD MLOAD DUP2 PUSH1 0x5 ADD SSTORE PUSH1 0xC0 DUP3 ADD MLOAD DUP2 PUSH1 0x6 ADD SSTORE PUSH1 0xE0 DUP3 ADD MLOAD DUP2 PUSH1 0x7 ADD SWAP1 DUP1 MLOAD SWAP1 PUSH1 0x20 ADD SWAP1 PUSH2 0x1318 SWAP3 SWAP2 SWAP1 PUSH2 0x1E51 JUMP JUMPDEST POP POP POP PUSH32 0x16FD3C13E9D46923E0A8BCE11C7B473EC508A72E6C96CD2404B29CE972AFC29E PUSH1 0x1 PUSH1 0x3 PUSH0 CALLER PUSH20 0xFFFFFFFFFFFFFFFFFFFFFFFFFFFFFFFFFFFFFFFF AND PUSH20 0xFFFFFFFFFFFFFFFFFFFFFFFFFFFFFFFFFFFFFFFF AND DUP2 MSTORE PUSH1 0x20 ADD SWAP1 DUP2 MSTORE PUSH1 0x20 ADD PUSH0 KECCAK256 DUP1 SLOAD SWAP1 POP PUSH2 0x1389 SWAP2 SWAP1 PUSH2 0x2A0D JUMP JUMPDEST CALLER DUP5 TIMESTAMP PUSH1 0x40 MLOAD PUSH2 0x139C SWAP5 SWAP4 SWAP3 SWAP2 SWAP1 PUSH2 0x2CE4 JUMP JUMPDEST PUSH1 0x40 MLOAD DUP1 SWAP2 SUB SWAP1 LOG1 POP POP JUMP JUMPDEST PUSH0 DUP1 PUSH0 SWAP1 POP PUSH0 JUMPDEST PUSH1 0x3 PUSH0 DUP6 PUSH20 0xFFFFFFFFFFFFFFFFFFFFFFFFFFFFFFFFFFFFFFFF AND PUSH20 0xFFFFFFFFFFFFFFFFFFFFFFFFFFFFFFFFFFFFFFFF AND DUP2 MSTORE PUSH1 0x20 ADD SWAP1 DUP2 MSTORE PUSH1 0x20 ADD PUSH0 KECCAK256 DUP1 SLOAD SWAP1 POP DUP2 LT ISZERO PUSH2 0x1470 JUMPI PUSH1 0x3 PUSH0 DUP6 PUSH20 0xFFFFFFFFFFFFFFFFFFFFFFFFFFFFFFFFFFFFFFFF AND PUSH20 0xFFFFFFFFFFFFFFFFFFFFFFFFFFFFFFFFFFFFFFFF AND DUP2 MSTORE PUSH1 0x20 ADD SWAP1 DUP2 MSTORE PUSH1 0x20 ADD PUSH0 KECCAK256 DUP2 DUP2 SLOAD DUP2 LT PUSH2 0x1446 JUMPI PUSH2 0x1445 PUSH2 0x2706 JUMP JUMPDEST JUMPDEST SWAP1 PUSH0 MSTORE PUSH1 0x20 PUSH0 KECCAK256 SWAP1 PUSH1 0x8 MUL ADD PUSH1 0x5 ADD SLOAD DUP3 PUSH2 0x1461 SWAP2 SWAP1 PUSH2 0x2A0D JUMP JUMPDEST SWAP2 POP DUP1 DUP1 PUSH1 0x1 ADD SWAP2 POP POP PUSH2 0x13AF JUMP JUMPDEST POP DUP1 SWAP2 POP POP SWAP2 SWAP1 POP JUMP JUMPDEST PUSH0 DUP1 PUSH0 SWAP1 SLOAD SWAP1 PUSH2 0x100 EXP SWAP1 DIV PUSH20 0xFFFFFFFFFFFFFFFFFFFFFFFFFFFFFFFFFFFFFFFF AND SWAP1 POP SWAP1 JUMP JUMPDEST DUP2 DUP2 PUSH0 PUSH1 0x1 SWAP1 POP DUP2 PUSH1 0x3 PUSH0 DUP6 PUSH20 0xFFFFFFFFFFFFFFFFFFFFFFFFFFFFFFFFFFFFFFFF AND PUSH20 0xFFFFFFFFFFFFFFFFFFFFFFFFFFFFFFFFFFFFFFFF AND DUP2 MSTORE PUSH1 0x20 ADD SWAP1 DUP2 MSTORE PUSH1 0x20 ADD PUSH0 KECCAK256 DUP1 SLOAD SWAP1 POP LT ISZERO PUSH2 0x152B JUMPI PUSH1 0x40 MLOAD PUSH32 0x8C379A000000000000000000000000000000000000000000000000000000000 DUP2 MSTORE PUSH1 0x4 ADD PUSH2 0x1522 SWAP1 PUSH2 0x2688 JUMP JUMPDEST PUSH1 0x40 MLOAD DUP1 SWAP2 SUB SWAP1 REVERT JUMPDEST PUSH0 JUMPDEST PUSH1 0x3 PUSH0 DUP6 PUSH20 0xFFFFFFFFFFFFFFFFFFFFFFFFFFFFFFFFFFFFFFFF AND PUSH20 0xFFFFFFFFFFFFFFFFFFFFFFFFFFFFFFFFFFFFFFFF AND DUP2 MSTORE PUSH1 0x20 ADD SWAP1 DUP2 MSTORE PUSH1 0x20 ADD PUSH0 KECCAK256 PUSH1 0x1 DUP5 PUSH2 0x1577 SWAP2 SWAP1 PUSH2 0x26D3 JUMP JUMPDEST DUP2 SLOAD DUP2 LT PUSH2 0x1588 JUMPI PUSH2 0x1587 PUSH2 0x2706 JUMP JUMPDEST JUMPDEST SWAP1 PUSH0 MSTORE PUSH1 0x20 PUSH0 KECCAK256 SWAP1 PUSH1 0x8 MUL ADD PUSH1 0x4 ADD DUP1 SLOAD SWAP1 POP DUP2 LT ISZERO PUSH2 0x168D JUMPI CALLER PUSH20 0xFFFFFFFFFFFFFFFFFFFFFFFFFFFFFFFFFFFFFFFF AND PUSH1 0x3 PUSH0 DUP7 PUSH20 0xFFFFFFFFFFFFFFFFFFFFFFFFFFFFFFFFFFFFFFFF AND PUSH20 0xFFFFFFFFFFFFFFFFFFFFFFFFFFFFFFFFFFFFFFFF AND DUP2 MSTORE PUSH1 0x20 ADD SWAP1 DUP2 MSTORE PUSH1 0x20 ADD PUSH0 KECCAK256 PUSH1 0x1 DUP6 PUSH2 0x1603 SWAP2 SWAP1 PUSH2 0x26D3 JUMP JUMPDEST DUP2 SLOAD DUP2 LT PUSH2 0x1614 JUMPI PUSH2 0x1613 PUSH2 0x2706 JUMP JUMPDEST JUMPDEST SWAP1 PUSH0 MSTORE PUSH1 0x20 PUSH0 KECCAK256 SWAP1 PUSH1 0x8 MUL ADD PUSH1 0x4 ADD DUP3 DUP2 SLOAD DUP2 LT PUSH2 0x1635 JUMPI PUSH2 0x1634 PUSH2 0x2706 JUMP JUMPDEST JUMPDEST SWAP1 PUSH0 MSTORE PUSH1 0x20 PUSH0 KECCAK256 ADD PUSH0 SWAP1 SLOAD SWAP1 PUSH2 0x100 EXP SWAP1 DIV PUSH20 0xFFFFFFFFFFFFFFFFFFFFFFFFFFFFFFFFFFFFFFFF AND PUSH20 0xFFFFFFFFFFFFFFFFFFFFFFFFFFFFFFFFFFFFFFFF AND SUB PUSH2 0x1680 JUMPI PUSH0 SWAP2 POP PUSH2 0x168D JUMP JUMPDEST DUP1 DUP1 PUSH1 0x1 ADD SWAP2 POP POP PUSH2 0x152D JUMP JUMPDEST POP PUSH1 0x1 ISZERO ISZERO DUP2 ISZERO ISZERO EQ PUSH2 0x16D5 JUMPI PUSH1 0x40 MLOAD PUSH32 0x8C379A000000000000000000000000000000000000000000000000000000000 DUP2 MSTORE PUSH1 0x4 ADD PUSH2 0x16CC SWAP1 PUSH2 0x277D JUMP JUMPDEST PUSH1 0x40 MLOAD DUP1 SWAP2 SUB SWAP1 REVERT JUMPDEST DUP5 DUP5 PUSH0 PUSH1 0x1 SWAP1 POP DUP2 PUSH1 0x3 PUSH0 DUP6 PUSH20 0xFFFFFFFFFFFFFFFFFFFFFFFFFFFFFFFFFFFFFFFF AND PUSH20 0xFFFFFFFFFFFFFFFFFFFFFFFFFFFFFFFFFFFFFFFF AND DUP2 MSTORE PUSH1 0x20 ADD SWAP1 DUP2 MSTORE PUSH1 0x20 ADD PUSH0 KECCAK256 DUP1 SLOAD SWAP1 POP LT ISZERO PUSH2 0x175F JUMPI PUSH1 0x40 MLOAD PUSH32 0x8C379A000000000000000000000000000000000000000000000000000000000 DUP2 MSTORE PUSH1 0x4 ADD PUSH2 0x1756 SWAP1 PUSH2 0x2688 JUMP JUMPDEST PUSH1 0x40 MLOAD DUP1 SWAP2 SUB SWAP1 REVERT JUMPDEST PUSH0 JUMPDEST PUSH1 0x3 PUSH0 DUP6 PUSH20 0xFFFFFFFFFFFFFFFFFFFFFFFFFFFFFFFFFFFFFFFF AND PUSH20 0xFFFFFFFFFFFFFFFFFFFFFFFFFFFFFFFFFFFFFFFF AND DUP2 MSTORE PUSH1 0x20 ADD SWAP1 DUP2 MSTORE PUSH1 0x20 ADD PUSH0 KECCAK256 PUSH1 0x1 DUP5 PUSH2 0x17AB SWAP2 SWAP1 PUSH2 0x26D3 JUMP JUMPDEST DUP2 SLOAD DUP2 LT PUSH2 0x17BC JUMPI PUSH2 0x17BB PUSH2 0x2706 JUMP JUMPDEST JUMPDEST SWAP1 PUSH0 MSTORE PUSH1 0x20 PUSH0 KECCAK256 SWAP1 PUSH1 0x8 MUL ADD PUSH1 0x7 ADD DUP1 SLOAD SWAP1 POP DUP2 LT ISZERO PUSH2 0x18C1 JUMPI CALLER PUSH20 0xFFFFFFFFFFFFFFFFFFFFFFFFFFFFFFFFFFFFFFFF AND PUSH1 0x3 PUSH0 DUP7 PUSH20 0xFFFFFFFFFFFFFFFFFFFFFFFFFFFFFFFFFFFFFFFF AND PUSH20 0xFFFFFFFFFFFFFFFFFFFFFFFFFFFFFFFFFFFFFFFF AND DUP2 MSTORE PUSH1 0x20 ADD SWAP1 DUP2 MSTORE PUSH1 0x20 ADD PUSH0 KECCAK256 PUSH1 0x1 DUP6 PUSH2 0x1837 SWAP2 SWAP1 PUSH2 0x26D3 JUMP JUMPDEST DUP2 SLOAD DUP2 LT PUSH2 0x1848 JUMPI PUSH2 0x1847 PUSH2 0x2706 JUMP JUMPDEST JUMPDEST SWAP1 PUSH0 MSTORE PUSH1 0x20 PUSH0 KECCAK256 SWAP1 PUSH1 0x8 MUL ADD PUSH1 0x7 ADD DUP3 DUP2 SLOAD DUP2 LT PUSH2 0x1869 JUMPI PUSH2 0x1868 PUSH2 0x2706 JUMP JUMPDEST JUMPDEST SWAP1 PUSH0 MSTORE PUSH1 0x20 PUSH0 KECCAK256 ADD PUSH0 SWAP1 SLOAD SWAP1 PUSH2 0x100 EXP SWAP1 DIV PUSH20 0xFFFFFFFFFFFFFFFFFFFFFFFFFFFFFFFFFFFFFFFF AND PUSH20 0xFFFFFFFFFFFFFFFFFFFFFFFFFFFFFFFFFFFFFFFF AND SUB PUSH2 0x18B4 JUMPI PUSH0 SWAP2 POP PUSH2 0x18C1 JUMP JUMPDEST DUP1 DUP1 PUSH1 0x1 ADD SWAP2 POP POP PUSH2 0x1761 JUMP JUMPDEST POP PUSH1 0x1 ISZERO ISZERO DUP2 ISZERO ISZERO EQ PUSH2 0x1909 JUMPI PUSH1 0x40 MLOAD PUSH32 0x8C379A000000000000000000000000000000000000000000000000000000000 DUP2 MSTORE PUSH1 0x4 ADD PUSH2 0x1900 SWAP1 PUSH2 0x27E5 JUMP JUMPDEST PUSH1 0x40 MLOAD DUP1 SWAP2 SUB SWAP1 REVERT JUMPDEST CALLER PUSH20 0xFFFFFFFFFFFFFFFFFFFFFFFFFFFFFFFFFFFFFFFF AND DUP9 PUSH20 0xFFFFFFFFFFFFFFFFFFFFFFFFFFFFFFFFFFFFFFFF AND SUB PUSH2 0x1977 JUMPI PUSH1 0x40 MLOAD PUSH32 0x8C379A000000000000000000000000000000000000000000000000000000000 DUP2 MSTORE PUSH1 0x4 ADD PUSH2 0x196E SWAP1 PUSH2 0x2873 JUMP JUMPDEST PUSH1 0x40 MLOAD DUP1 SWAP2 SUB SWAP1 REVERT JUMPDEST PUSH1 0x3 PUSH0 DUP10 PUSH20 0xFFFFFFFFFFFFFFFFFFFFFFFFFFFFFFFFFFFFFFFF AND PUSH20 0xFFFFFFFFFFFFFFFFFFFFFFFFFFFFFFFFFFFFFFFF AND DUP2 MSTORE PUSH1 0x20 ADD SWAP1 DUP2 MSTORE PUSH1 0x20 ADD PUSH0 KECCAK256 PUSH1 0x1 DUP9 PUSH2 0x19C1 SWAP2 SWAP1 PUSH2 0x26D3 JUMP JUMPDEST DUP2 SLOAD DUP2 LT PUSH2 0x19D2 JUMPI PUSH2 0x19D1 PUSH2 0x2706 JUMP JUMPDEST JUMPDEST SWAP1 PUSH0 MSTORE PUSH1 0x20 PUSH0 KECCAK256 SWAP1 PUSH1 0x8 MUL ADD PUSH1 0x7 ADD CALLER SWAP1 DUP1 PUSH1 0x1 DUP2 SLOAD ADD DUP1 DUP3 SSTORE DUP1 SWAP2 POP POP PUSH1 0x1 SWAP1 SUB SWAP1 PUSH0 MSTORE PUSH1 0x20 PUSH0 KECCAK256 ADD PUSH0 SWAP1 SWAP2 SWAP1 SWAP2 SWAP1 SWAP2 PUSH2 0x100 EXP DUP2 SLOAD DUP2 PUSH20 0xFFFFFFFFFFFFFFFFFFFFFFFFFFFFFFFFFFFFFFFF MUL NOT AND SWAP1 DUP4 PUSH20 0xFFFFFFFFFFFFFFFFFFFFFFFFFFFFFFFFFFFFFFFF AND MUL OR SWAP1 SSTORE POP PUSH1 0x3 PUSH0 DUP10 PUSH20 0xFFFFFFFFFFFFFFFFFFFFFFFFFFFFFFFFFFFFFFFF AND PUSH20 0xFFFFFFFFFFFFFFFFFFFFFFFFFFFFFFFFFFFFFFFF AND DUP2 MSTORE PUSH1 0x20 ADD SWAP1 DUP2 MSTORE PUSH1 0x20 ADD PUSH0 KECCAK256 PUSH1 0x1 DUP9 PUSH2 0x1A89 SWAP2 SWAP1 PUSH2 0x26D3 JUMP JUMPDEST DUP2 SLOAD DUP2 LT PUSH2 0x1A9A JUMPI PUSH2 0x1A99 PUSH2 0x2706 JUMP JUMPDEST JUMPDEST SWAP1 PUSH0 MSTORE PUSH1 0x20 PUSH0 KECCAK256 SWAP1 PUSH1 0x8 MUL ADD PUSH1 0x6 ADD PUSH0 DUP2 SLOAD DUP1 SWAP3 SWAP2 SWAP1 PUSH2 0x1AB9 SWAP1 PUSH2 0x2891 JUMP JUMPDEST SWAP2 SWAP1 POP SSTORE POP POP POP POP POP POP POP POP POP JUMP JUMPDEST PUSH0 DUP1 PUSH0 SWAP1 POP PUSH0 JUMPDEST PUSH1 0x3 PUSH0 DUP6 PUSH20 0xFFFFFFFFFFFFFFFFFFFFFFFFFFFFFFFFFFFFFFFF AND PUSH20 0xFFFFFFFFFFFFFFFFFFFFFFFFFFFFFFFFFFFFFFFF AND DUP2 MSTORE PUSH1 0x20 ADD SWAP1 DUP2 MSTORE PUSH1 0x20 ADD PUSH0 KECCAK256 DUP1 SLOAD SWAP1 POP DUP2 LT ISZERO PUSH2 0x1B90 JUMPI PUSH1 0x3 PUSH0 DUP6 PUSH20 0xFFFFFFFFFFFFFFFFFFFFFFFFFFFFFFFFFFFFFFFF AND PUSH20 0xFFFFFFFFFFFFFFFFFFFFFFFFFFFFFFFFFFFFFFFF AND DUP2 MSTORE PUSH1 0x20 ADD SWAP1 DUP2 MSTORE PUSH1 0x20 ADD PUSH0 KECCAK256 DUP2 DUP2 SLOAD DUP2 LT PUSH2 0x1B66 JUMPI PUSH2 0x1B65 PUSH2 0x2706 JUMP JUMPDEST JUMPDEST SWAP1 PUSH0 MSTORE PUSH1 0x20 PUSH0 KECCAK256 SWAP1 PUSH1 0x8 MUL ADD PUSH1 0x6 ADD SLOAD DUP3 PUSH2 0x1B81 SWAP2 SWAP1 PUSH2 0x2A0D JUMP JUMPDEST SWAP2 POP DUP1 DUP1 PUSH1 0x1 ADD SWAP2 POP POP PUSH2 0x1ACF JUMP JUMPDEST POP DUP1 SWAP2 POP POP SWAP2 SWAP1 POP JUMP JUMPDEST PUSH2 0x1BA2 PUSH2 0x1C30 JUMP JUMPDEST DUP1 PUSH1 0x1 DUP2 SWAP1 SSTORE POP POP JUMP JUMPDEST PUSH2 0x1BB4 PUSH2 0x1C30 JUMP JUMPDEST PUSH0 PUSH20 0xFFFFFFFFFFFFFFFFFFFFFFFFFFFFFFFFFFFFFFFF AND DUP2 PUSH20 0xFFFFFFFFFFFFFFFFFFFFFFFFFFFFFFFFFFFFFFFF AND SUB PUSH2 0x1C24 JUMPI PUSH0 PUSH1 0x40 MLOAD PUSH32 0x1E4FBDF700000000000000000000000000000000000000000000000000000000 DUP2 MSTORE PUSH1 0x4 ADD PUSH2 0x1C1B SWAP2 SWAP1 PUSH2 0x25EA JUMP JUMPDEST PUSH1 0x40 MLOAD DUP1 SWAP2 SUB SWAP1 REVERT JUMPDEST PUSH2 0x1C2D DUP2 PUSH2 0x1CB7 JUMP JUMPDEST POP JUMP JUMPDEST PUSH2 0x1C38 PUSH2 0x1D78 JUMP JUMPDEST PUSH20 0xFFFFFFFFFFFFFFFFFFFFFFFFFFFFFFFFFFFFFFFF AND PUSH2 0x1C56 PUSH2 0x147A JUMP JUMPDEST PUSH20 0xFFFFFFFFFFFFFFFFFFFFFFFFFFFFFFFFFFFFFFFF AND EQ PUSH2 0x1CB5 JUMPI PUSH2 0x1C79 PUSH2 0x1D78 JUMP JUMPDEST PUSH1 0x40 MLOAD PUSH32 0x118CDAA700000000000000000000000000000000000000000000000000000000 DUP2 MSTORE PUSH1 0x4 ADD PUSH2 0x1CAC SWAP2 SWAP1 PUSH2 0x25EA JUMP JUMPDEST PUSH1 0x40 MLOAD DUP1 SWAP2 SUB SWAP1 REVERT JUMPDEST JUMP JUMPDEST PUSH0 DUP1 PUSH0 SWAP1 SLOAD SWAP1 PUSH2 0x100 EXP SWAP1 DIV PUSH20 0xFFFFFFFFFFFFFFFFFFFFFFFFFFFFFFFFFFFFFFFF AND SWAP1 POP DUP2 PUSH0 DUP1 PUSH2 0x100 EXP DUP2 SLOAD DUP2 PUSH20 0xFFFFFFFFFFFFFFFFFFFFFFFFFFFFFFFFFFFFFFFF MUL NOT AND SWAP1 DUP4 PUSH20 0xFFFFFFFFFFFFFFFFFFFFFFFFFFFFFFFFFFFFFFFF AND MUL OR SWAP1 SSTORE POP DUP2 PUSH20 0xFFFFFFFFFFFFFFFFFFFFFFFFFFFFFFFFFFFFFFFF AND DUP2 PUSH20 0xFFFFFFFFFFFFFFFFFFFFFFFFFFFFFFFFFFFFFFFF AND PUSH32 0x8BE0079C531659141344CD1FD0A4F28419497F9722A3DAAFE3B4186F6B6457E0 PUSH1 0x40 MLOAD PUSH1 0x40 MLOAD DUP1 SWAP2 SUB SWAP1 LOG3 POP POP JUMP JUMPDEST PUSH0 CALLER SWAP1 POP SWAP1 JUMP JUMPDEST PUSH1 0x40 MLOAD DUP1 PUSH2 0x100 ADD PUSH1 0x40 MSTORE DUP1 PUSH0 DUP2 MSTORE PUSH1 0x20 ADD PUSH1 0x60 DUP2 MSTORE PUSH1 0x20 ADD PUSH0 PUSH20 0xFFFFFFFFFFFFFFFFFFFFFFFFFFFFFFFFFFFFFFFF AND DUP2 MSTORE PUSH1 0x20 ADD PUSH0 DUP2 MSTORE PUSH1 0x20 ADD PUSH1 0x60 DUP2 MSTORE PUSH1 0x20 ADD PUSH0 DUP2 MSTORE PUSH1 0x20 ADD PUSH0 DUP2 MSTORE PUSH1 0x20 ADD PUSH1 0x60 DUP2 MSTORE POP SWAP1 JUMP JUMPDEST POP DUP1 SLOAD PUSH2 0x1DE1 SWAP1 PUSH2 0x2948 JUMP JUMPDEST PUSH0 DUP3 SSTORE DUP1 PUSH1 0x1F LT PUSH2 0x1DF2 JUMPI POP PUSH2 0x1E0F JUMP JUMPDEST PUSH1 0x1F ADD PUSH1 0x20 SWAP1 DIV SWAP1 PUSH0 MSTORE PUSH1 0x20 PUSH0 KECCAK256 SWAP1 DUP2 ADD SWAP1 PUSH2 0x1E0E SWAP2 SWAP1 PUSH2 0x1ED8 JUMP JUMPDEST JUMPDEST POP JUMP JUMPDEST POP DUP1 SLOAD PUSH0 DUP3 SSTORE SWAP1 PUSH0 MSTORE PUSH1 0x20 PUSH0 KECCAK256 SWAP1 DUP2 ADD SWAP1 PUSH2 0x1E2D SWAP2 SWAP1 PUSH2 0x1ED8 JUMP JUMPDEST POP JUMP JUMPDEST POP DUP1 SLOAD PUSH0 DUP3 SSTORE PUSH1 0x8 MUL SWAP1 PUSH0 MSTORE PUSH1 0x20 PUSH0 KECCAK256 SWAP1 DUP2 ADD SWAP1 PUSH2 0x1E4E SWAP2 SWAP1 PUSH2 0x1EF3 JUMP JUMPDEST POP JUMP JUMPDEST DUP3 DUP1 SLOAD DUP3 DUP3 SSTORE SWAP1 PUSH0 MSTORE PUSH1 0x20 PUSH0 KECCAK256 SWAP1 DUP2 ADD SWAP3 DUP3 ISZERO PUSH2 0x1EC7 JUMPI SWAP2 PUSH1 0x20 MUL DUP3 ADD JUMPDEST DUP3 DUP2 GT ISZERO PUSH2 0x1EC6 JUMPI DUP3 MLOAD DUP3 PUSH0 PUSH2 0x100 EXP DUP2 SLOAD DUP2 PUSH20 0xFFFFFFFFFFFFFFFFFFFFFFFFFFFFFFFFFFFFFFFF MUL NOT AND SWAP1 DUP4 PUSH20 0xFFFFFFFFFFFFFFFFFFFFFFFFFFFFFFFFFFFFFFFF AND MUL OR SWAP1 SSTORE POP SWAP2 PUSH1 0x20 ADD SWAP2 SWAP1 PUSH1 0x1 ADD SWAP1 PUSH2 0x1E6F JUMP JUMPDEST JUMPDEST POP SWAP1 POP PUSH2 0x1ED4 SWAP2 SWAP1 PUSH2 0x1ED8 JUMP JUMPDEST POP SWAP1 JUMP JUMPDEST JUMPDEST DUP1 DUP3 GT ISZERO PUSH2 0x1EEF JUMPI PUSH0 DUP2 PUSH0 SWAP1 SSTORE POP PUSH1 0x1 ADD PUSH2 0x1ED9 JUMP JUMPDEST POP SWAP1 JUMP JUMPDEST JUMPDEST DUP1 DUP3 GT ISZERO PUSH2 0x1F74 JUMPI PUSH0 DUP1 DUP3 ADD PUSH0 SWAP1 SSTORE PUSH1 0x1 DUP3 ADD PUSH0 PUSH2 0x1F12 SWAP2 SWAP1 PUSH2 0x1DD5 JUMP JUMPDEST PUSH1 0x2 DUP3 ADD PUSH0 PUSH2 0x100 EXP DUP2 SLOAD SWAP1 PUSH20 0xFFFFFFFFFFFFFFFFFFFFFFFFFFFFFFFFFFFFFFFF MUL NOT AND SWAP1 SSTORE PUSH1 0x3 DUP3 ADD PUSH0 SWAP1 SSTORE PUSH1 0x4 DUP3 ADD PUSH0 PUSH2 0x1F4E SWAP2 SWAP1 PUSH2 0x1E12 JUMP JUMPDEST PUSH1 0x5 DUP3 ADD PUSH0 SWAP1 SSTORE PUSH1 0x6 DUP3 ADD PUSH0 SWAP1 SSTORE PUSH1 0x7 DUP3 ADD PUSH0 PUSH2 0x1F6B SWAP2 SWAP1 PUSH2 0x1E12 JUMP JUMPDEST POP PUSH1 0x8 ADD PUSH2 0x1EF4 JUMP JUMPDEST POP SWAP1 JUMP JUMPDEST PUSH0 PUSH1 0x40 MLOAD SWAP1 POP SWAP1 JUMP JUMPDEST PUSH0 DUP1 REVERT JUMPDEST PUSH0 DUP1 REVERT JUMPDEST PUSH0 PUSH20 0xFFFFFFFFFFFFFFFFFFFFFFFFFFFFFFFFFFFFFFFF DUP3 AND SWAP1 POP SWAP2 SWAP1 POP JUMP JUMPDEST PUSH0 PUSH2 0x1FB2 DUP3 PUSH2 0x1F89 JUMP JUMPDEST SWAP1 POP SWAP2 SWAP1 POP JUMP JUMPDEST PUSH2 0x1FC2 DUP2 PUSH2 0x1FA8 JUMP JUMPDEST DUP2 EQ PUSH2 0x1FCC JUMPI PUSH0 DUP1 REVERT JUMPDEST POP JUMP JUMPDEST PUSH0 DUP2 CALLDATALOAD SWAP1 POP PUSH2 0x1FDD DUP2 PUSH2 0x1FB9 JUMP JUMPDEST SWAP3 SWAP2 POP POP JUMP JUMPDEST PUSH0 DUP2 SWAP1 POP SWAP2 SWAP1 POP JUMP JUMPDEST PUSH2 0x1FF5 DUP2 PUSH2 0x1FE3 JUMP JUMPDEST DUP2 EQ PUSH2 0x1FFF JUMPI PUSH0 DUP1 REVERT JUMPDEST POP JUMP JUMPDEST PUSH0 DUP2 CALLDATALOAD SWAP1 POP PUSH2 0x2010 DUP2 PUSH2 0x1FEC JUMP JUMPDEST SWAP3 SWAP2 POP POP JUMP JUMPDEST PUSH0 DUP1 PUSH1 0x40 DUP4 DUP6 SUB SLT ISZERO PUSH2 0x202C JUMPI PUSH2 0x202B PUSH2 0x1F81 JUMP JUMPDEST JUMPDEST PUSH0 PUSH2 0x2039 DUP6 DUP3 DUP7 ADD PUSH2 0x1FCF JUMP JUMPDEST SWAP3 POP POP PUSH1 0x20 PUSH2 0x204A DUP6 DUP3 DUP7 ADD PUSH2 0x2002 JUMP JUMPDEST SWAP2 POP POP SWAP3 POP SWAP3 SWAP1 POP JUMP JUMPDEST PUSH2 0x205D DUP2 PUSH2 0x1FE3 JUMP JUMPDEST DUP3 MSTORE POP POP JUMP JUMPDEST PUSH0 DUP2 MLOAD SWAP1 POP SWAP2 SWAP1 POP JUMP JUMPDEST PUSH0 DUP3 DUP3 MSTORE PUSH1 0x20 DUP3 ADD SWAP1 POP SWAP3 SWAP2 POP POP JUMP JUMPDEST PUSH0 JUMPDEST DUP4 DUP2 LT ISZERO PUSH2 0x209A JUMPI DUP1 DUP3 ADD MLOAD DUP2 DUP5 ADD MSTORE PUSH1 0x20 DUP2 ADD SWAP1 POP PUSH2 0x207F JUMP JUMPDEST PUSH0 DUP5 DUP5 ADD MSTORE POP POP POP POP JUMP JUMPDEST PUSH0 PUSH1 0x1F NOT PUSH1 0x1F DUP4 ADD AND SWAP1 POP SWAP2 SWAP1 POP JUMP JUMPDEST PUSH0 PUSH2 0x20BF DUP3 PUSH2 0x2063 JUMP JUMPDEST PUSH2 0x20C9 DUP2 DUP6 PUSH2 0x206D JUMP JUMPDEST SWAP4 POP PUSH2 0x20D9 DUP2 DUP6 PUSH1 0x20 DUP7 ADD PUSH2 0x207D JUMP JUMPDEST PUSH2 0x20E2 DUP2 PUSH2 0x20A5 JUMP JUMPDEST DUP5 ADD SWAP2 POP POP SWAP3 SWAP2 POP POP JUMP JUMPDEST PUSH2 0x20F6 DUP2 PUSH2 0x1FA8 JUMP JUMPDEST DUP3 MSTORE POP POP JUMP JUMPDEST PUSH0 DUP2 MLOAD SWAP1 POP SWAP2 SWAP1 POP JUMP JUMPDEST PUSH0 DUP3 DUP3 MSTORE PUSH1 0x20 DUP3 ADD SWAP1 POP SWAP3 SWAP2 POP POP JUMP JUMPDEST PUSH0 DUP2 SWAP1 POP PUSH1 0x20 DUP3 ADD SWAP1 POP SWAP2 SWAP1 POP JUMP JUMPDEST PUSH0 PUSH2 0x2130 DUP4 DUP4 PUSH2 0x20ED JUMP JUMPDEST PUSH1 0x20 DUP4 ADD SWAP1 POP SWAP3 SWAP2 POP POP JUMP JUMPDEST PUSH0 PUSH1 0x20 DUP3 ADD SWAP1 POP SWAP2 SWAP1 POP JUMP JUMPDEST PUSH0 PUSH2 0x2152 DUP3 PUSH2 0x20FC JUMP JUMPDEST PUSH2 0x215C DUP2 DUP6 PUSH2 0x2106 JUMP JUMPDEST SWAP4 POP PUSH2 0x2167 DUP4 PUSH2 0x2116 JUMP JUMPDEST DUP1 PUSH0 JUMPDEST DUP4 DUP2 LT ISZERO PUSH2 0x2197 JUMPI DUP2 MLOAD PUSH2 0x217E DUP9 DUP3 PUSH2 0x2125 JUMP JUMPDEST SWAP8 POP PUSH2 0x2189 DUP4 PUSH2 0x213C JUMP JUMPDEST SWAP3 POP POP PUSH1 0x1 DUP2 ADD SWAP1 POP PUSH2 0x216A JUMP JUMPDEST POP DUP6 SWAP4 POP POP POP POP SWAP3 SWAP2 POP POP JUMP JUMPDEST PUSH0 PUSH2 0x100 DUP4 ADD PUSH0 DUP4 ADD MLOAD PUSH2 0x21BA PUSH0 DUP7 ADD DUP3 PUSH2 0x2054 JUMP JUMPDEST POP PUSH1 0x20 DUP4 ADD MLOAD DUP5 DUP3 SUB PUSH1 0x20 DUP7 ADD MSTORE PUSH2 0x21D2 DUP3 DUP3 PUSH2 0x20B5 JUMP JUMPDEST SWAP2 POP POP PUSH1 0x40 DUP4 ADD MLOAD PUSH2 0x21E7 PUSH1 0x40 DUP7 ADD DUP3 PUSH2 0x20ED JUMP JUMPDEST POP PUSH1 0x60 DUP4 ADD MLOAD PUSH2 0x21FA PUSH1 0x60 DUP7 ADD DUP3 PUSH2 0x2054 JUMP JUMPDEST POP PUSH1 0x80 DUP4 ADD MLOAD DUP5 DUP3 SUB PUSH1 0x80 DUP7 ADD MSTORE PUSH2 0x2212 DUP3 DUP3 PUSH2 0x2148 JUMP JUMPDEST SWAP2 POP POP PUSH1 0xA0 DUP4 ADD MLOAD PUSH2 0x2227 PUSH1 0xA0 DUP7 ADD DUP3 PUSH2 0x2054 JUMP JUMPDEST POP PUSH1 0xC0 DUP4 ADD MLOAD PUSH2 0x223A PUSH1 0xC0 DUP7 ADD DUP3 PUSH2 0x2054 JUMP JUMPDEST POP PUSH1 0xE0 DUP4 ADD MLOAD DUP5 DUP3 SUB PUSH1 0xE0 DUP7 ADD MSTORE PUSH2 0x2252 DUP3 DUP3 PUSH2 0x2148 JUMP JUMPDEST SWAP2 POP POP DUP1 SWAP2 POP POP SWAP3 SWAP2 POP POP JUMP JUMPDEST PUSH0 PUSH1 0x20 DUP3 ADD SWAP1 POP DUP2 DUP2 SUB PUSH0 DUP4 ADD MSTORE PUSH2 0x2277 DUP2 DUP5 PUSH2 0x21A4 JUMP JUMPDEST SWAP1 POP SWAP3 SWAP2 POP POP JUMP JUMPDEST PUSH0 DUP2 MLOAD SWAP1 POP SWAP2 SWAP1 POP JUMP JUMPDEST PUSH0 DUP3 DUP3 MSTORE PUSH1 0x20 DUP3 ADD SWAP1 POP SWAP3 SWAP2 POP POP JUMP JUMPDEST PUSH0 DUP2 SWAP1 POP PUSH1 0x20 DUP3 ADD SWAP1 POP SWAP2 SWAP1 POP JUMP JUMPDEST PUSH0 PUSH2 0x100 DUP4 ADD PUSH0 DUP4 ADD MLOAD PUSH2 0x22BE PUSH0 DUP7 ADD DUP3 PUSH2 0x2054 JUMP JUMPDEST POP PUSH1 0x20 DUP4 ADD MLOAD DUP5 DUP3 SUB PUSH1 0x20 DUP7 ADD MSTORE PUSH2 0x22D6 DUP3 DUP3 PUSH2 0x20B5 JUMP JUMPDEST SWAP2 POP POP PUSH1 0x40 DUP4 ADD MLOAD PUSH2 0x22EB PUSH1 0x40 DUP7 ADD DUP3 PUSH2 0x20ED JUMP JUMPDEST POP PUSH1 0x60 DUP4 ADD MLOAD PUSH2 0x22FE PUSH1 0x60 DUP7 ADD DUP3 PUSH2 0x2054 JUMP JUMPDEST POP PUSH1 0x80 DUP4 ADD MLOAD DUP5 DUP3 SUB PUSH1 0x80 DUP7 ADD MSTORE PUSH2 0x2316 DUP3 DUP3 PUSH2 0x2148 JUMP JUMPDEST SWAP2 POP POP PUSH1 0xA0 DUP4 ADD MLOAD PUSH2 0x232B PUSH1 0xA0 DUP7 ADD DUP3 PUSH2 0x2054 JUMP JUMPDEST POP PUSH1 0xC0 DUP4 ADD MLOAD PUSH2 0x233E PUSH1 0xC0 DUP7 ADD DUP3 PUSH2 0x2054 JUMP JUMPDEST POP PUSH1 0xE0 DUP4 ADD MLOAD DUP5 DUP3 SUB PUSH1 0xE0 DUP7 ADD MSTORE PUSH2 0x2356 DUP3 DUP3 PUSH2 0x2148 JUMP JUMPDEST SWAP2 POP POP DUP1 SWAP2 POP POP SWAP3 SWAP2 POP POP JUMP JUMPDEST PUSH0 PUSH2 0x236E DUP4 DUP4 PUSH2 0x22A8 JUMP JUMPDEST SWAP1 POP SWAP3 SWAP2 POP POP JUMP JUMPDEST PUSH0 PUSH1 0x20 DUP3 ADD SWAP1 POP SWAP2 SWAP1 POP JUMP JUMPDEST PUSH0 PUSH2 0x238C DUP3 PUSH2 0x227F JUMP JUMPDEST PUSH2 0x2396 DUP2 DUP6 PUSH2 0x2289 JUMP JUMPDEST SWAP4 POP DUP4 PUSH1 0x20 DUP3 MUL DUP6 ADD PUSH2 0x23A8 DUP6 PUSH2 0x2299 JUMP JUMPDEST DUP1 PUSH0 JUMPDEST DUP6 DUP2 LT ISZERO PUSH2 0x23E3 JUMPI DUP5 DUP5 SUB DUP10 MSTORE DUP2 MLOAD PUSH2 0x23C4 DUP6 DUP3 PUSH2 0x2363 JUMP JUMPDEST SWAP5 POP PUSH2 0x23CF DUP4 PUSH2 0x2376 JUMP JUMPDEST SWAP3 POP PUSH1 0x20 DUP11 ADD SWAP10 POP POP PUSH1 0x1 DUP2 ADD SWAP1 POP PUSH2 0x23AB JUMP JUMPDEST POP DUP3 SWAP8 POP DUP8 SWAP6 POP POP POP POP POP POP SWAP3 SWAP2 POP POP JUMP JUMPDEST PUSH0 PUSH1 0x20 DUP3 ADD SWAP1 POP DUP2 DUP2 SUB PUSH0 DUP4 ADD MSTORE PUSH2 0x240D DUP2 DUP5 PUSH2 0x2382 JUMP JUMPDEST SWAP1 POP SWAP3 SWAP2 POP POP JUMP JUMPDEST PUSH0 DUP1 REVERT JUMPDEST PUSH0 DUP1 REVERT JUMPDEST PUSH32 0x4E487B7100000000000000000000000000000000000000000000000000000000 PUSH0 MSTORE PUSH1 0x41 PUSH1 0x4 MSTORE PUSH1 0x24 PUSH0 REVERT JUMPDEST PUSH2 0x2453 DUP3 PUSH2 0x20A5 JUMP JUMPDEST DUP2 ADD DUP2 DUP2 LT PUSH8 0xFFFFFFFFFFFFFFFF DUP3 GT OR ISZERO PUSH2 0x2472 JUMPI PUSH2 0x2471 PUSH2 0x241D JUMP JUMPDEST JUMPDEST DUP1 PUSH1 0x40 MSTORE POP POP POP JUMP JUMPDEST PUSH0 PUSH2 0x2484 PUSH2 0x1F78 JUMP JUMPDEST SWAP1 POP PUSH2 0x2490 DUP3 DUP3 PUSH2 0x244A JUMP JUMPDEST SWAP2 SWAP1 POP JUMP JUMPDEST PUSH0 PUSH8 0xFFFFFFFFFFFFFFFF DUP3 GT ISZERO PUSH2 0x24AF JUMPI PUSH2 0x24AE PUSH2 0x241D JUMP JUMPDEST JUMPDEST PUSH2 0x24B8 DUP3 PUSH2 0x20A5 JUMP JUMPDEST SWAP1 POP PUSH1 0x20 DUP2 ADD SWAP1 POP SWAP2 SWAP1 POP JUMP JUMPDEST DUP3 DUP2 DUP4 CALLDATACOPY PUSH0 DUP4 DUP4 ADD MSTORE POP POP POP JUMP JUMPDEST PUSH0 PUSH2 0x24E5 PUSH2 0x24E0 DUP5 PUSH2 0x2495 JUMP JUMPDEST PUSH2 0x247B JUMP JUMPDEST SWAP1 POP DUP3 DUP2 MSTORE PUSH1 0x20 DUP2 ADD DUP5 DUP5 DUP5 ADD GT ISZERO PUSH2 0x2501 JUMPI PUSH2 0x2500 PUSH2 0x2419 JUMP JUMPDEST JUMPDEST PUSH2 0x250C DUP5 DUP3 DUP6 PUSH2 0x24C5 JUMP JUMPDEST POP SWAP4 SWAP3 POP POP POP JUMP JUMPDEST PUSH0 DUP3 PUSH1 0x1F DUP4 ADD SLT PUSH2 0x2528 JUMPI PUSH2 0x2527 PUSH2 0x2415 JUMP JUMPDEST JUMPDEST DUP2 CALLDATALOAD PUSH2 0x2538 DUP5 DUP3 PUSH1 0x20 DUP7 ADD PUSH2 0x24D3 JUMP JUMPDEST SWAP2 POP POP SWAP3 SWAP2 POP POP JUMP JUMPDEST PUSH0 PUSH1 0x20 DUP3 DUP5 SUB SLT ISZERO PUSH2 0x2556 JUMPI PUSH2 0x2555 PUSH2 0x1F81 JUMP JUMPDEST JUMPDEST PUSH0 DUP3 ADD CALLDATALOAD PUSH8 0xFFFFFFFFFFFFFFFF DUP2 GT ISZERO PUSH2 0x2573 JUMPI PUSH2 0x2572 PUSH2 0x1F85 JUMP JUMPDEST JUMPDEST PUSH2 0x257F DUP5 DUP3 DUP6 ADD PUSH2 0x2514 JUMP JUMPDEST SWAP2 POP POP SWAP3 SWAP2 POP POP JUMP JUMPDEST PUSH0 PUSH1 0x20 DUP3 DUP5 SUB SLT ISZERO PUSH2 0x259D JUMPI PUSH2 0x259C PUSH2 0x1F81 JUMP JUMPDEST JUMPDEST PUSH0 PUSH2 0x25AA DUP5 DUP3 DUP6 ADD PUSH2 0x1FCF JUMP JUMPDEST SWAP2 POP POP SWAP3 SWAP2 POP POP JUMP JUMPDEST PUSH2 0x25BC DUP2 PUSH2 0x1FE3 JUMP JUMPDEST DUP3 MSTORE POP POP JUMP JUMPDEST PUSH0 PUSH1 0x20 DUP3 ADD SWAP1 POP PUSH2 0x25D5 PUSH0 DUP4 ADD DUP5 PUSH2 0x25B3 JUMP JUMPDEST SWAP3 SWAP2 POP POP JUMP JUMPDEST PUSH2 0x25E4 DUP2 PUSH2 0x1FA8 JUMP JUMPDEST DUP3 MSTORE POP POP JUMP JUMPDEST PUSH0 PUSH1 0x20 DUP3 ADD SWAP1 POP PUSH2 0x25FD PUSH0 DUP4 ADD DUP5 PUSH2 0x25DB JUMP JUMPDEST SWAP3 SWAP2 POP POP JUMP JUMPDEST PUSH0 PUSH1 0x20 DUP3 DUP5 SUB SLT ISZERO PUSH2 0x2618 JUMPI PUSH2 0x2617 PUSH2 0x1F81 JUMP JUMPDEST JUMPDEST PUSH0 PUSH2 0x2625 DUP5 DUP3 DUP6 ADD PUSH2 0x2002 JUMP JUMPDEST SWAP2 POP POP SWAP3 SWAP2 POP POP JUMP JUMPDEST PUSH0 DUP3 DUP3 MSTORE PUSH1 0x20 DUP3 ADD SWAP1 POP SWAP3 SWAP2 POP POP JUMP JUMPDEST PUSH32 0x54686973205477656574204E6F74204578697374202100000000000000000000 PUSH0 DUP3 ADD MSTORE POP JUMP JUMPDEST PUSH0 PUSH2 0x2672 PUSH1 0x16 DUP4 PUSH2 0x262E JUMP JUMPDEST SWAP2 POP PUSH2 0x267D DUP3 PUSH2 0x263E JUMP JUMPDEST PUSH1 0x20 DUP3 ADD SWAP1 POP SWAP2 SWAP1 POP JUMP JUMPDEST PUSH0 PUSH1 0x20 DUP3 ADD SWAP1 POP DUP2 DUP2 SUB PUSH0 DUP4 ADD MSTORE PUSH2 0x269F DUP2 PUSH2 0x2666 JUMP JUMPDEST SWAP1 POP SWAP2 SWAP1 POP JUMP JUMPDEST PUSH32 0x4E487B7100000000000000000000000000000000000000000000000000000000 PUSH0 MSTORE PUSH1 0x11 PUSH1 0x4 MSTORE PUSH1 0x24 PUSH0 REVERT JUMPDEST PUSH0 PUSH2 0x26DD DUP3 PUSH2 0x1FE3 JUMP JUMPDEST SWAP2 POP PUSH2 0x26E8 DUP4 PUSH2 0x1FE3 JUMP JUMPDEST SWAP3 POP DUP3 DUP3 SUB SWAP1 POP DUP2 DUP2 GT ISZERO PUSH2 0x2700 JUMPI PUSH2 0x26FF PUSH2 0x26A6 JUMP JUMPDEST JUMPDEST SWAP3 SWAP2 POP POP JUMP JUMPDEST PUSH32 0x4E487B7100000000000000000000000000000000000000000000000000000000 PUSH0 MSTORE PUSH1 0x32 PUSH1 0x4 MSTORE PUSH1 0x24 PUSH0 REVERT JUMPDEST PUSH32 0x596F7520416C7265616479204C696B6564207468652074776565742100000000 PUSH0 DUP3 ADD MSTORE POP JUMP JUMPDEST PUSH0 PUSH2 0x2767 PUSH1 0x1C DUP4 PUSH2 0x262E JUMP JUMPDEST SWAP2 POP PUSH2 0x2772 DUP3 PUSH2 0x2733 JUMP JUMPDEST PUSH1 0x20 DUP3 ADD SWAP1 POP SWAP2 SWAP1 POP JUMP JUMPDEST PUSH0 PUSH1 0x20 DUP3 ADD SWAP1 POP DUP2 DUP2 SUB PUSH0 DUP4 ADD MSTORE PUSH2 0x2794 DUP2 PUSH2 0x275B JUMP JUMPDEST SWAP1 POP SWAP2 SWAP1 POP JUMP JUMPDEST PUSH32 0x596F7520416C726561647920556E4C696B656420746865207477656574210000 PUSH0 DUP3 ADD MSTORE POP JUMP JUMPDEST PUSH0 PUSH2 0x27CF PUSH1 0x1E DUP4 PUSH2 0x262E JUMP JUMPDEST SWAP2 POP PUSH2 0x27DA DUP3 PUSH2 0x279B JUMP JUMPDEST PUSH1 0x20 DUP3 ADD SWAP1 POP SWAP2 SWAP1 POP JUMP JUMPDEST PUSH0 PUSH1 0x20 DUP3 ADD SWAP1 POP DUP2 DUP2 SUB PUSH0 DUP4 ADD MSTORE PUSH2 0x27FC DUP2 PUSH2 0x27C3 JUMP JUMPDEST SWAP1 POP SWAP2 SWAP1 POP JUMP JUMPDEST PUSH32 0x5468697320697320596F757220547765657421596F752063616E6E2774204C69 PUSH0 DUP3 ADD MSTORE PUSH32 0x6B6520596F757220547765657421000000000000000000000000000000000000 PUSH1 0x20 DUP3 ADD MSTORE POP JUMP JUMPDEST PUSH0 PUSH2 0x285D PUSH1 0x2E DUP4 PUSH2 0x262E JUMP JUMPDEST SWAP2 POP PUSH2 0x2868 DUP3 PUSH2 0x2803 JUMP JUMPDEST PUSH1 0x40 DUP3 ADD SWAP1 POP SWAP2 SWAP1 POP JUMP JUMPDEST PUSH0 PUSH1 0x20 DUP3 ADD SWAP1 POP DUP2 DUP2 SUB PUSH0 DUP4 ADD MSTORE PUSH2 0x288A DUP2 PUSH2 0x2851 JUMP JUMPDEST SWAP1 POP SWAP2 SWAP1 POP JUMP JUMPDEST PUSH0 PUSH2 0x289B DUP3 PUSH2 0x1FE3 JUMP JUMPDEST SWAP2 POP PUSH32 0xFFFFFFFFFFFFFFFFFFFFFFFFFFFFFFFFFFFFFFFFFFFFFFFFFFFFFFFFFFFFFFFF DUP3 SUB PUSH2 0x28CD JUMPI PUSH2 0x28CC PUSH2 0x26A6 JUMP JUMPDEST JUMPDEST PUSH1 0x1 DUP3 ADD SWAP1 POP SWAP2 SWAP1 POP JUMP JUMPDEST PUSH0 PUSH1 0x80 DUP3 ADD SWAP1 POP PUSH2 0x28EB PUSH0 DUP4 ADD DUP8 PUSH2 0x25DB JUMP JUMPDEST PUSH2 0x28F8 PUSH1 0x20 DUP4 ADD DUP7 PUSH2 0x25DB JUMP JUMPDEST PUSH2 0x2905 PUSH1 0x40 DUP4 ADD DUP6 PUSH2 0x25B3 JUMP JUMPDEST PUSH2 0x2912 PUSH1 0x60 DUP4 ADD DUP5 PUSH2 0x25B3 JUMP JUMPDEST SWAP6 SWAP5 POP POP POP POP POP JUMP JUMPDEST PUSH32 0x4E487B7100000000000000000000000000000000000000000000000000000000 PUSH0 MSTORE PUSH1 0x22 PUSH1 0x4 MSTORE PUSH1 0x24 PUSH0 REVERT JUMPDEST PUSH0 PUSH1 0x2 DUP3 DIV SWAP1 POP PUSH1 0x1 DUP3 AND DUP1 PUSH2 0x295F JUMPI PUSH1 0x7F DUP3 AND SWAP2 POP JUMPDEST PUSH1 0x20 DUP3 LT DUP2 SUB PUSH2 0x2972 JUMPI PUSH2 0x2971 PUSH2 0x291B JUMP JUMPDEST JUMPDEST POP SWAP2 SWAP1 POP JUMP JUMPDEST PUSH32 0x4E487B7100000000000000000000000000000000000000000000000000000000 PUSH0 MSTORE PUSH1 0x31 PUSH1 0x4 MSTORE PUSH1 0x24 PUSH0 REVERT JUMPDEST PUSH32 0x5477656574204C656E6774682069732045786365656421000000000000000000 PUSH0 DUP3 ADD MSTORE POP JUMP JUMPDEST PUSH0 PUSH2 0x29D9 PUSH1 0x17 DUP4 PUSH2 0x262E JUMP JUMPDEST SWAP2 POP PUSH2 0x29E4 DUP3 PUSH2 0x29A5 JUMP JUMPDEST PUSH1 0x20 DUP3 ADD SWAP1 POP SWAP2 SWAP1 POP JUMP JUMPDEST PUSH0 PUSH1 0x20 DUP3 ADD SWAP1 POP DUP2 DUP2 SUB PUSH0 DUP4 ADD MSTORE PUSH2 0x2A06 DUP2 PUSH2 0x29CD JUMP JUMPDEST SWAP1 POP SWAP2 SWAP1 POP JUMP JUMPDEST PUSH0 PUSH2 0x2A17 DUP3 PUSH2 0x1FE3 JUMP JUMPDEST SWAP2 POP PUSH2 0x2A22 DUP4 PUSH2 0x1FE3 JUMP JUMPDEST SWAP3 POP DUP3 DUP3 ADD SWAP1 POP DUP1 DUP3 GT ISZERO PUSH2 0x2A3A JUMPI PUSH2 0x2A39 PUSH2 0x26A6 JUMP JUMPDEST JUMPDEST SWAP3 SWAP2 POP POP JUMP JUMPDEST PUSH0 DUP2 SWAP1 POP DUP2 PUSH0 MSTORE PUSH1 0x20 PUSH0 KECCAK256 SWAP1 POP SWAP2 SWAP1 POP JUMP JUMPDEST PUSH0 PUSH1 0x20 PUSH1 0x1F DUP4 ADD DIV SWAP1 POP SWAP2 SWAP1 POP JUMP JUMPDEST PUSH0 DUP3 DUP3 SHL SWAP1 POP SWAP3 SWAP2 POP POP JUMP JUMPDEST PUSH0 PUSH1 0x8 DUP4 MUL PUSH2 0x2A9C PUSH32 0xFFFFFFFFFFFFFFFFFFFFFFFFFFFFFFFFFFFFFFFFFFFFFFFFFFFFFFFFFFFFFFFF DUP3 PUSH2 0x2A61 JUMP JUMPDEST PUSH2 0x2AA6 DUP7 DUP4 PUSH2 0x2A61 JUMP JUMPDEST SWAP6 POP DUP1 NOT DUP5 AND SWAP4 POP DUP1 DUP7 AND DUP5 OR SWAP3 POP POP POP SWAP4 SWAP3 POP POP POP JUMP JUMPDEST PUSH0 DUP2 SWAP1 POP SWAP2 SWAP1 POP JUMP JUMPDEST PUSH0 PUSH2 0x2AE1 PUSH2 0x2ADC PUSH2 0x2AD7 DUP5 PUSH2 0x1FE3 JUMP JUMPDEST PUSH2 0x2ABE JUMP JUMPDEST PUSH2 0x1FE3 JUMP JUMPDEST SWAP1 POP SWAP2 SWAP1 POP JUMP JUMPDEST PUSH0 DUP2 SWAP1 POP SWAP2 SWAP1 POP JUMP JUMPDEST PUSH2 0x2AFA DUP4 PUSH2 0x2AC7 JUMP JUMPDEST PUSH2 0x2B0E PUSH2 0x2B06 DUP3 PUSH2 0x2AE8 JUMP JUMPDEST DUP5 DUP5 SLOAD PUSH2 0x2A6D JUMP JUMPDEST DUP3 SSTORE POP POP POP POP JUMP JUMPDEST PUSH0 SWAP1 JUMP JUMPDEST PUSH2 0x2B22 PUSH2 0x2B16 JUMP JUMPDEST PUSH2 0x2B2D DUP2 DUP5 DUP5 PUSH2 0x2AF1 JUMP JUMPDEST POP POP POP JUMP JUMPDEST JUMPDEST DUP2 DUP2 LT ISZERO PUSH2 0x2B50 JUMPI PUSH2 0x2B45 PUSH0 DUP3 PUSH2 0x2B1A JUMP JUMPDEST PUSH1 0x1 DUP2 ADD SWAP1 POP PUSH2 0x2B33 JUMP JUMPDEST POP POP JUMP JUMPDEST PUSH1 0x1F DUP3 GT ISZERO PUSH2 0x2B95 JUMPI PUSH2 0x2B66 DUP2 PUSH2 0x2A40 JUMP JUMPDEST PUSH2 0x2B6F DUP5 PUSH2 0x2A52 JUMP JUMPDEST DUP2 ADD PUSH1 0x20 DUP6 LT ISZERO PUSH2 0x2B7E JUMPI DUP2 SWAP1 POP JUMPDEST PUSH2 0x2B92 PUSH2 0x2B8A DUP6 PUSH2 0x2A52 JUMP JUMPDEST DUP4 ADD DUP3 PUSH2 0x2B32 JUMP JUMPDEST POP POP JUMPDEST POP POP POP JUMP JUMPDEST PUSH0 DUP3 DUP3 SHR SWAP1 POP SWAP3 SWAP2 POP POP JUMP JUMPDEST PUSH0 PUSH2 0x2BB5 PUSH0 NOT DUP5 PUSH1 0x8 MUL PUSH2 0x2B9A JUMP JUMPDEST NOT DUP1 DUP4 AND SWAP2 POP POP SWAP3 SWAP2 POP POP JUMP JUMPDEST PUSH0 PUSH2 0x2BCD DUP4 DUP4 PUSH2 0x2BA6 JUMP JUMPDEST SWAP2 POP DUP3 PUSH1 0x2 MUL DUP3 OR SWAP1 POP SWAP3 SWAP2 POP POP JUMP JUMPDEST PUSH2 0x2BE6 DUP3 PUSH2 0x2063 JUMP JUMPDEST PUSH8 0xFFFFFFFFFFFFFFFF DUP2 GT ISZERO PUSH2 0x2BFF JUMPI PUSH2 0x2BFE PUSH2 0x241D JUMP JUMPDEST JUMPDEST PUSH2 0x2C09 DUP3 SLOAD PUSH2 0x2948 JUMP JUMPDEST PUSH2 0x2C14 DUP3 DUP3 DUP6 PUSH2 0x2B54 JUMP JUMPDEST PUSH0 PUSH1 0x20 SWAP1 POP PUSH1 0x1F DUP4 GT PUSH1 0x1 DUP2 EQ PUSH2 0x2C45 JUMPI PUSH0 DUP5 ISZERO PUSH2 0x2C33 JUMPI DUP3 DUP8 ADD MLOAD SWAP1 POP JUMPDEST PUSH2 0x2C3D DUP6 DUP3 PUSH2 0x2BC2 JUMP JUMPDEST DUP7 SSTORE POP PUSH2 0x2CA4 JUMP JUMPDEST PUSH1 0x1F NOT DUP5 AND PUSH2 0x2C53 DUP7 PUSH2 0x2A40 JUMP JUMPDEST PUSH0 JUMPDEST DUP3 DUP2 LT ISZERO PUSH2 0x2C7A JUMPI DUP5 DUP10 ADD MLOAD DUP3 SSTORE PUSH1 0x1 DUP3 ADD SWAP2 POP PUSH1 0x20 DUP6 ADD SWAP5 POP PUSH1 0x20 DUP2 ADD SWAP1 POP PUSH2 0x2C55 JUMP JUMPDEST DUP7 DUP4 LT ISZERO PUSH2 0x2C97 JUMPI DUP5 DUP10 ADD MLOAD PUSH2 0x2C93 PUSH1 0x1F DUP10 AND DUP3 PUSH2 0x2BA6 JUMP JUMPDEST DUP4 SSTORE POP JUMPDEST PUSH1 0x1 PUSH1 0x2 DUP9 MUL ADD DUP9 SSTORE POP POP POP JUMPDEST POP POP POP POP POP POP JUMP JUMPDEST PUSH0 PUSH2 0x2CB6 DUP3 PUSH2 0x2063 JUMP JUMPDEST PUSH2 0x2CC0 DUP2 DUP6 PUSH2 0x262E JUMP JUMPDEST SWAP4 POP PUSH2 0x2CD0 DUP2 DUP6 PUSH1 0x20 DUP7 ADD PUSH2 0x207D JUMP JUMPDEST PUSH2 0x2CD9 DUP2 PUSH2 0x20A5 JUMP JUMPDEST DUP5 ADD SWAP2 POP POP SWAP3 SWAP2 POP POP JUMP JUMPDEST PUSH0 PUSH1 0x80 DUP3 ADD SWAP1 POP PUSH2 0x2CF7 PUSH0 DUP4 ADD DUP8 PUSH2 0x25B3 JUMP JUMPDEST PUSH2 0x2D04 PUSH1 0x20 DUP4 ADD DUP7 PUSH2 0x25DB JUMP JUMPDEST DUP2 DUP2 SUB PUSH1 0x40 DUP4 ADD MSTORE PUSH2 0x2D16 DUP2 DUP6 PUSH2 0x2CAC JUMP JUMPDEST SWAP1 POP PUSH2 0x2D25 PUSH1 0x60 DUP4 ADD DUP5 PUSH2 0x25B3 JUMP JUMPDEST SWAP6 SWAP5 POP POP POP POP POP JUMP INVALID LOG2 PUSH5 0x6970667358 0x22 SLT KECCAK256 DUP1 JUMPI 0xB5 0xED GT SMOD 0xC3 0x21 PUSH31 0x3A294C3C648C22510701A9F24825F6350AD6A50FC0493664736F6C63430008 OR STOP CALLER "
				},
				"gasEstimates": {
					"creation": {
						"codeDepositCost": "2324000",
						"executionCost": "infinite",
						"totalCost": "infinite"
					},
					"external": {
						"ChangeTweetLength(uint256)": "infinite",
						"DeleteAllTweets()": "infinite",
						"DeleteRecentTweet()": "infinite",
						"GetAllTweets()": "infinite",
						"GetTweet(address,uint256)": "infinite",
						"LikesTweet(address,uint256)": "infinite",
						"UnlikeTweet(address,uint256)": "infinite",
						"createTweet(string)": "infinite",
						"getTotalLikes(address)": "infinite",
						"getTotalUnLikes(address)": "infinite",
						"owner()": "2582",
						"renounceOwnership()": "infinite",
						"transferOwnership(address)": "infinite"
					}
				},
				"methodIdentifiers": {
					"ChangeTweetLength(uint256)": "e479c244",
					"DeleteAllTweets()": "765fab45",
					"DeleteRecentTweet()": "71e7eb12",
					"GetAllTweets()": "42d7fbc0",
					"GetTweet(address,uint256)": "37f36a4c",
					"LikesTweet(address,uint256)": "1216cdc5",
					"UnlikeTweet(address,uint256)": "a110e72d",
					"createTweet(string)": "7c9cd2bc",
					"getTotalLikes(address)": "820785cc",
					"getTotalUnLikes(address)": "a6156d77",
					"owner()": "8da5cb5b",
					"renounceOwnership()": "715018a6",
					"transferOwnership(address)": "f2fde38b"
				}
			},
			"storageLayout": {
				"storage": [
					{
						"astId": 8,
						"contract": "contracts/Twitter0.8v.sol:Twitter",
						"label": "_owner",
						"offset": 0,
						"slot": "0",
						"type": "t_address"
					},
					{
						"astId": 224,
						"contract": "contracts/Twitter0.8v.sol:Twitter",
						"label": "TweetLength",
						"offset": 0,
						"slot": "1",
						"type": "t_uint256"
					},
					{
						"astId": 239,
						"contract": "contracts/Twitter0.8v.sol:Twitter",
						"label": "li",
						"offset": 0,
						"slot": "2",
						"type": "t_array(t_address)dyn_storage"
					},
					{
						"astId": 245,
						"contract": "contracts/Twitter0.8v.sol:Twitter",
						"label": "Tweet_info",
						"offset": 0,
						"slot": "3",
						"type": "t_mapping(t_address,t_array(t_struct(Tweet)201_storage)dyn_storage)"
					}
				],
				"types": {
					"t_address": {
						"encoding": "inplace",
						"label": "address",
						"numberOfBytes": "20"
					},
					"t_array(t_address)dyn_storage": {
						"base": "t_address",
						"encoding": "dynamic_array",
						"label": "address[]",
						"numberOfBytes": "32"
					},
					"t_array(t_struct(Tweet)201_storage)dyn_storage": {
						"base": "t_struct(Tweet)201_storage",
						"encoding": "dynamic_array",
						"label": "struct Twitter.Tweet[]",
						"numberOfBytes": "32"
					},
					"t_mapping(t_address,t_array(t_struct(Tweet)201_storage)dyn_storage)": {
						"encoding": "mapping",
						"key": "t_address",
						"label": "mapping(address => struct Twitter.Tweet[])",
						"numberOfBytes": "32",
						"value": "t_array(t_struct(Tweet)201_storage)dyn_storage"
					},
					"t_string_storage": {
						"encoding": "bytes",
						"label": "string",
						"numberOfBytes": "32"
					},
					"t_struct(Tweet)201_storage": {
						"encoding": "inplace",
						"label": "struct Twitter.Tweet",
						"members": [
							{
								"astId": 184,
								"contract": "contracts/Twitter0.8v.sol:Twitter",
								"label": "id",
								"offset": 0,
								"slot": "0",
								"type": "t_uint256"
							},
							{
								"astId": 186,
								"contract": "contracts/Twitter0.8v.sol:Twitter",
								"label": "content",
								"offset": 0,
								"slot": "1",
								"type": "t_string_storage"
							},
							{
								"astId": 188,
								"contract": "contracts/Twitter0.8v.sol:Twitter",
								"label": "author",
								"offset": 0,
								"slot": "2",
								"type": "t_address"
							},
							{
								"astId": 190,
								"contract": "contracts/Twitter0.8v.sol:Twitter",
								"label": "timestamp",
								"offset": 0,
								"slot": "3",
								"type": "t_uint256"
							},
							{
								"astId": 193,
								"contract": "contracts/Twitter0.8v.sol:Twitter",
								"label": "likes",
								"offset": 0,
								"slot": "4",
								"type": "t_array(t_address)dyn_storage"
							},
							{
								"astId": 195,
								"contract": "contracts/Twitter0.8v.sol:Twitter",
								"label": "LikesCount",
								"offset": 0,
								"slot": "5",
								"type": "t_uint256"
							},
							{
								"astId": 197,
								"contract": "contracts/Twitter0.8v.sol:Twitter",
								"label": "unlikescount",
								"offset": 0,
								"slot": "6",
								"type": "t_uint256"
							},
							{
								"astId": 200,
								"contract": "contracts/Twitter0.8v.sol:Twitter",
								"label": "unlikes",
								"offset": 0,
								"slot": "7",
								"type": "t_array(t_address)dyn_storage"
							}
						],
						"numberOfBytes": "256"
					},
					"t_uint256": {
						"encoding": "inplace",
						"label": "uint256",
						"numberOfBytes": "32"
					}
				}
			},
			"userdoc": {
				"kind": "user",
				"methods": {},
				"version": 1
			}
		}
	}
}