{
	"contracts/Twitter0.7v.sol": {
		"Twitter": {
			"abi": [
				{
					"inputs": [],
					"stateMutability": "nonpayable",
					"type": "constructor"
				},
				{
					"anonymous": false,
					"inputs": [
						{
							"indexed": false,
							"internalType": "uint256",
							"name": "id",
							"type": "uint256"
						},
						{
							"indexed": false,
							"internalType": "address",
							"name": "author",
							"type": "address"
						},
						{
							"indexed": false,
							"internalType": "string",
							"name": "content",
							"type": "string"
						},
						{
							"indexed": false,
							"internalType": "uint256",
							"name": "timestamp",
							"type": "uint256"
						}
					],
					"name": "TweetCreated",
					"type": "event"
				},
				{
					"anonymous": false,
					"inputs": [
						{
							"indexed": false,
							"internalType": "address",
							"name": "liker",
							"type": "address"
						},
						{
							"indexed": false,
							"internalType": "address",
							"name": "author",
							"type": "address"
						},
						{
							"indexed": false,
							"internalType": "uint256",
							"name": "likecount",
							"type": "uint256"
						},
						{
							"indexed": false,
							"internalType": "uint256",
							"name": "id",
							"type": "uint256"
						}
					],
					"name": "TweetLiked",
					"type": "event"
				},
				{
					"inputs": [
						{
							"internalType": "uint256",
							"name": "newTweetLen",
							"type": "uint256"
						}
					],
					"name": "ChangeTweetLength",
					"outputs": [],
					"stateMutability": "nonpayable",
					"type": "function"
				},
				{
					"inputs": [],
					"name": "DeleteAllTweets",
					"outputs": [],
					"stateMutability": "nonpayable",
					"type": "function"
				},
				{
					"inputs": [],
					"name": "DeleteRecentTweet",
					"outputs": [],
					"stateMutability": "nonpayable",
					"type": "function"
				},
				{
					"inputs": [],
					"name": "GetAllTweets",
					"outputs": [
						{
							"components": [
								{
									"internalType": "uint256",
									"name": "id",
									"type": "uint256"
								},
								{
									"internalType": "string",
									"name": "content",
									"type": "string"
								},
								{
									"internalType": "address",
									"name": "author",
									"type": "address"
								},
								{
									"internalType": "uint256",
									"name": "timestamp",
									"type": "uint256"
								},
								{
									"internalType": "address[]",
									"name": "likes",
									"type": "address[]"
								},
								{
									"internalType": "uint256",
									"name": "LikesCount",
									"type": "uint256"
								},
								{
									"internalType": "uint256",
									"name": "unlikescount",
									"type": "uint256"
								},
								{
									"internalType": "address[]",
									"name": "unlikes",
									"type": "address[]"
								}
							],
							"internalType": "struct Twitter.Tweet[]",
							"name": "",
							"type": "tuple[]"
						}
					],
					"stateMutability": "view",
					"type": "function"
				},
				{
					"inputs": [
						{
							"internalType": "address",
							"name": "User",
							"type": "address"
						},
						{
							"internalType": "uint256",
							"name": "Index",
							"type": "uint256"
						}
					],
					"name": "GetTweet",
					"outputs": [
						{
							"components": [
								{
									"internalType": "uint256",
									"name": "id",
									"type": "uint256"
								},
								{
									"internalType": "string",
									"name": "content",
									"type": "string"
								},
								{
									"internalType": "address",
									"name": "author",
									"type": "address"
								},
								{
									"internalType": "uint256",
									"name": "timestamp",
									"type": "uint256"
								},
								{
									"internalType": "address[]",
									"name": "likes",
									"type": "address[]"
								},
								{
									"internalType": "uint256",
									"name": "LikesCount",
									"type": "uint256"
								},
								{
									"internalType": "uint256",
									"name": "unlikescount",
									"type": "uint256"
								},
								{
									"internalType": "address[]",
									"name": "unlikes",
									"type": "address[]"
								}
							],
							"internalType": "struct Twitter.Tweet",
							"name": "",
							"type": "tuple"
						}
					],
					"stateMutability": "view",
					"type": "function"
				},
				{
					"inputs": [
						{
							"internalType": "address",
							"name": "User",
							"type": "address"
						},
						{
							"internalType": "uint256",
							"name": "TweetIndex",
							"type": "uint256"
						}
					],
					"name": "LikesTweet",
					"outputs": [],
					"stateMutability": "nonpayable",
					"type": "function"
				},
				{
					"inputs": [
						{
							"internalType": "address",
							"name": "User",
							"type": "address"
						},
						{
							"internalType": "uint256",
							"name": "TweetIndex",
							"type": "uint256"
						}
					],
					"name": "UnlikeTweet",
					"outputs": [],
					"stateMutability": "nonpayable",
					"type": "function"
				},
				{
					"inputs": [
						{
							"internalType": "string",
							"name": "_tweet",
							"type": "string"
						}
					],
					"name": "createTweet",
					"outputs": [],
					"stateMutability": "nonpayable",
					"type": "function"
				},
				{
					"inputs": [
						{
							"internalType": "address",
							"name": "author",
							"type": "address"
						}
					],
					"name": "getTotalLikes",
					"outputs": [
						{
							"internalType": "uint256",
							"name": "",
							"type": "uint256"
						}
					],
					"stateMutability": "view",
					"type": "function"
				},
				{
					"inputs": [
						{
							"internalType": "address",
							"name": "author",
							"type": "address"
						}
					],
					"name": "getTotalUnLikes",
					"outputs": [
						{
							"internalType": "uint256",
							"name": "",
							"type": "uint256"
						}
					],
					"stateMutability": "view",
					"type": "function"
				}
			],
			"devdoc": {
				"kind": "dev",
				"methods": {},
				"version": 1
			},
			"evm": {
				"assembly": "    /* \"contracts/Twitter0.7v.sol\":261:5336  contract Twitter... */\n  mstore(0x40, 0x80)\n    /* \"contracts/Twitter0.7v.sol\":908:910  10 */\n  0x0a\n    /* \"contracts/Twitter0.7v.sol\":886:910  uint256 TweetLength = 10 */\n  0x01\n  sstore\n    /* \"contracts/Twitter0.7v.sol\":587:643  constructor()... */\n  callvalue\n  dup1\n  iszero\n  tag_1\n  jumpi\n  0x00\n  dup1\n  revert\ntag_1:\n  pop\n    /* \"contracts/Twitter0.7v.sol\":625:635  msg.sender */\n  caller\n    /* \"contracts/Twitter0.7v.sol\":617:622  owner */\n  0x00\n  dup1\n    /* \"contracts/Twitter0.7v.sol\":617:635  owner = msg.sender */\n  0x0100\n  exp\n  dup2\n  sload\n  dup2\n  0xffffffffffffffffffffffffffffffffffffffff\n  mul\n  not\n  and\n  swap1\n  dup4\n  0xffffffffffffffffffffffffffffffffffffffff\n  and\n  mul\n  or\n  swap1\n  sstore\n  pop\n    /* \"contracts/Twitter0.7v.sol\":261:5336  contract Twitter... */\n  dataSize(sub_0)\n  dup1\n  dataOffset(sub_0)\n  0x00\n  codecopy\n  0x00\n  return\nstop\n\nsub_0: assembly {\n        /* \"contracts/Twitter0.7v.sol\":261:5336  contract Twitter... */\n      mstore(0x40, 0x80)\n      callvalue\n      dup1\n      iszero\n      tag_1\n      jumpi\n      0x00\n      dup1\n      revert\n    tag_1:\n      pop\n      jumpi(tag_2, lt(calldatasize, 0x04))\n      shr(0xe0, calldataload(0x00))\n      dup1\n      0x7c9cd2bc\n      gt\n      tag_13\n      jumpi\n      dup1\n      0x7c9cd2bc\n      eq\n      tag_8\n      jumpi\n      dup1\n      0x820785cc\n      eq\n      tag_9\n      jumpi\n      dup1\n      0xa110e72d\n      eq\n      tag_10\n      jumpi\n      dup1\n      0xa6156d77\n      eq\n      tag_11\n      jumpi\n      dup1\n      0xe479c244\n      eq\n      tag_12\n      jumpi\n      jump(tag_2)\n    tag_13:\n      dup1\n      0x1216cdc5\n      eq\n      tag_3\n      jumpi\n      dup1\n      0x37f36a4c\n      eq\n      tag_4\n      jumpi\n      dup1\n      0x42d7fbc0\n      eq\n      tag_5\n      jumpi\n      dup1\n      0x71e7eb12\n      eq\n      tag_6\n      jumpi\n      dup1\n      0x765fab45\n      eq\n      tag_7\n      jumpi\n    tag_2:\n      0x00\n      dup1\n      revert\n        /* \"contracts/Twitter0.7v.sol\":3803:4286  function LikesTweet(address User,uint256 TweetIndex)external ... */\n    tag_3:\n      tag_14\n      0x04\n      dup1\n      calldatasize\n      sub\n      dup2\n      add\n      swap1\n      tag_15\n      swap2\n      swap1\n      tag_16\n      jump\t// in\n    tag_15:\n      tag_17\n      jump\t// in\n    tag_14:\n      stop\n        /* \"contracts/Twitter0.7v.sol\":3478:3611  function GetTweet(address User,uint Index)public view returns (Tweet memory)... */\n    tag_4:\n      tag_18\n      0x04\n      dup1\n      calldatasize\n      sub\n      dup2\n      add\n      swap1\n      tag_19\n      swap2\n      swap1\n      tag_16\n      jump\t// in\n    tag_19:\n      tag_20\n      jump\t// in\n    tag_18:\n      mload(0x40)\n      tag_21\n      swap2\n      swap1\n      tag_22\n      jump\t// in\n    tag_21:\n      mload(0x40)\n      dup1\n      swap2\n      sub\n      swap1\n      return\n        /* \"contracts/Twitter0.7v.sol\":3357:3470  function GetAllTweets() public view returns(Tweet[] memory)... */\n    tag_5:\n      tag_23\n      tag_24\n      jump\t// in\n    tag_23:\n      mload(0x40)\n      tag_25\n      swap2\n      swap1\n      tag_26\n      jump\t// in\n    tag_25:\n      mload(0x40)\n      dup1\n      swap2\n      sub\n      swap1\n      return\n        /* \"contracts/Twitter0.7v.sol\":3619:3706  function DeleteRecentTweet()public... */\n    tag_6:\n      tag_27\n      tag_28\n      jump\t// in\n    tag_27:\n      stop\n        /* \"contracts/Twitter0.7v.sol\":3714:3795  function DeleteAllTweets()public {... */\n    tag_7:\n      tag_29\n      tag_30\n      jump\t// in\n    tag_29:\n      stop\n        /* \"contracts/Twitter0.7v.sol\":1231:2303  function createTweet(string memory _tweet) public {... */\n    tag_8:\n      tag_31\n      0x04\n      dup1\n      calldatasize\n      sub\n      dup2\n      add\n      swap1\n      tag_32\n      swap2\n      swap1\n      tag_33\n      jump\t// in\n    tag_32:\n      tag_34\n      jump\t// in\n    tag_31:\n      stop\n        /* \"contracts/Twitter0.7v.sol\":4674:4989  function getTotalLikes(address author) view  external returns (uint256) ... */\n    tag_9:\n      tag_35\n      0x04\n      dup1\n      calldatasize\n      sub\n      dup2\n      add\n      swap1\n      tag_36\n      swap2\n      swap1\n      tag_37\n      jump\t// in\n    tag_36:\n      tag_38\n      jump\t// in\n    tag_35:\n      mload(0x40)\n      tag_39\n      swap2\n      swap1\n      tag_40\n      jump\t// in\n    tag_39:\n      mload(0x40)\n      dup1\n      swap2\n      sub\n      swap1\n      return\n        /* \"contracts/Twitter0.7v.sol\":4294:4666  function UnlikeTweet(address User,uint256 TweetIndex)external ... */\n    tag_10:\n      tag_41\n      0x04\n      dup1\n      calldatasize\n      sub\n      dup2\n      add\n      swap1\n      tag_42\n      swap2\n      swap1\n      tag_16\n      jump\t// in\n    tag_42:\n      tag_43\n      jump\t// in\n    tag_41:\n      stop\n        /* \"contracts/Twitter0.7v.sol\":4997:5325  function getTotalUnLikes(address author) view  external returns (uint256) ... */\n    tag_11:\n      tag_44\n      0x04\n      dup1\n      calldatasize\n      sub\n      dup2\n      add\n      swap1\n      tag_45\n      swap2\n      swap1\n      tag_37\n      jump\t// in\n    tag_45:\n      tag_46\n      jump\t// in\n    tag_44:\n      mload(0x40)\n      tag_47\n      swap2\n      swap1\n      tag_40\n      jump\t// in\n    tag_47:\n      mload(0x40)\n      dup1\n      swap2\n      sub\n      swap1\n      return\n        /* \"contracts/Twitter0.7v.sol\":1051:1156  function ChangeTweetLength(uint256 newTweetLen)public isOwner{... */\n    tag_12:\n      tag_48\n      0x04\n      dup1\n      calldatasize\n      sub\n      dup2\n      add\n      swap1\n      tag_49\n      swap2\n      swap1\n      tag_50\n      jump\t// in\n    tag_49:\n      tag_51\n      jump\t// in\n    tag_48:\n      stop\n        /* \"contracts/Twitter0.7v.sol\":3803:4286  function LikesTweet(address User,uint256 TweetIndex)external ... */\n    tag_17:\n        /* \"contracts/Twitter0.7v.sol\":3888:3892  User */\n      dup2\n        /* \"contracts/Twitter0.7v.sol\":3893:3903  TweetIndex */\n      dup2\n        /* \"contracts/Twitter0.7v.sol\":2503:2511  bool res */\n      0x00\n        /* \"contracts/Twitter0.7v.sol\":2514:2518  true */\n      0x01\n        /* \"contracts/Twitter0.7v.sol\":2503:2518  bool res = true */\n      swap1\n      pop\n        /* \"contracts/Twitter0.7v.sol\":2587:2589  id */\n      dup2\n        /* \"contracts/Twitter0.7v.sol\":2560:2570  Tweet_info */\n      0x03\n        /* \"contracts/Twitter0.7v.sol\":2560:2576  Tweet_info[User] */\n      0x00\n        /* \"contracts/Twitter0.7v.sol\":2571:2575  User */\n      dup6\n        /* \"contracts/Twitter0.7v.sol\":2560:2576  Tweet_info[User] */\n      0xffffffffffffffffffffffffffffffffffffffff\n      and\n      0xffffffffffffffffffffffffffffffffffffffff\n      and\n      dup2\n      mstore\n      0x20\n      add\n      swap1\n      dup2\n      mstore\n      0x20\n      add\n      0x00\n      keccak256\n        /* \"contracts/Twitter0.7v.sol\":2560:2583  Tweet_info[User].length */\n      dup1\n      sload\n      swap1\n      pop\n        /* \"contracts/Twitter0.7v.sol\":2560:2589  Tweet_info[User].length >= id */\n      lt\n      iszero\n        /* \"contracts/Twitter0.7v.sol\":2552:2616  require(Tweet_info[User].length >= id, \"This Tweet Not Exist !\") */\n      tag_53\n      jumpi\n      mload(0x40)\n      0x08c379a000000000000000000000000000000000000000000000000000000000\n      dup2\n      mstore\n      0x04\n      add\n      tag_54\n      swap1\n      tag_55\n      jump\t// in\n    tag_54:\n      mload(0x40)\n      dup1\n      swap2\n      sub\n      swap1\n      revert\n    tag_53:\n        /* \"contracts/Twitter0.7v.sol\":2630:2639  uint256 l */\n      0x00\n        /* \"contracts/Twitter0.7v.sol\":2625:2818  for (uint256 l = 0; l < Tweet_info[User][id-1].likes.length; l++) {... */\n    tag_56:\n        /* \"contracts/Twitter0.7v.sol\":2649:2659  Tweet_info */\n      0x03\n        /* \"contracts/Twitter0.7v.sol\":2649:2665  Tweet_info[User] */\n      0x00\n        /* \"contracts/Twitter0.7v.sol\":2660:2664  User */\n      dup6\n        /* \"contracts/Twitter0.7v.sol\":2649:2665  Tweet_info[User] */\n      0xffffffffffffffffffffffffffffffffffffffff\n      and\n      0xffffffffffffffffffffffffffffffffffffffff\n      and\n      dup2\n      mstore\n      0x20\n      add\n      swap1\n      dup2\n      mstore\n      0x20\n      add\n      0x00\n      keccak256\n        /* \"contracts/Twitter0.7v.sol\":2669:2670  1 */\n      0x01\n        /* \"contracts/Twitter0.7v.sol\":2666:2668  id */\n      dup5\n        /* \"contracts/Twitter0.7v.sol\":2666:2670  id-1 */\n      tag_59\n      swap2\n      swap1\n      tag_60\n      jump\t// in\n    tag_59:\n        /* \"contracts/Twitter0.7v.sol\":2649:2671  Tweet_info[User][id-1] */\n      dup2\n      sload\n      dup2\n      lt\n      tag_61\n      jumpi\n      tag_62\n      tag_63\n      jump\t// in\n    tag_62:\n    tag_61:\n      swap1\n      0x00\n      mstore\n      keccak256(0x00, 0x20)\n      swap1\n      0x08\n      mul\n      add\n        /* \"contracts/Twitter0.7v.sol\":2649:2677  Tweet_info[User][id-1].likes */\n      0x04\n      add\n        /* \"contracts/Twitter0.7v.sol\":2649:2684  Tweet_info[User][id-1].likes.length */\n      dup1\n      sload\n      swap1\n      pop\n        /* \"contracts/Twitter0.7v.sol\":2645:2646  l */\n      dup2\n        /* \"contracts/Twitter0.7v.sol\":2645:2684  l < Tweet_info[User][id-1].likes.length */\n      lt\n        /* \"contracts/Twitter0.7v.sol\":2625:2818  for (uint256 l = 0; l < Tweet_info[User][id-1].likes.length; l++) {... */\n      iszero\n      tag_57\n      jumpi\n        /* \"contracts/Twitter0.7v.sol\":2741:2751  msg.sender */\n      caller\n        /* \"contracts/Twitter0.7v.sol\":2706:2751  Tweet_info[User][id-1].likes[l] == msg.sender */\n      0xffffffffffffffffffffffffffffffffffffffff\n      and\n        /* \"contracts/Twitter0.7v.sol\":2706:2716  Tweet_info */\n      0x03\n        /* \"contracts/Twitter0.7v.sol\":2706:2722  Tweet_info[User] */\n      0x00\n        /* \"contracts/Twitter0.7v.sol\":2717:2721  User */\n      dup7\n        /* \"contracts/Twitter0.7v.sol\":2706:2722  Tweet_info[User] */\n      0xffffffffffffffffffffffffffffffffffffffff\n      and\n      0xffffffffffffffffffffffffffffffffffffffff\n      and\n      dup2\n      mstore\n      0x20\n      add\n      swap1\n      dup2\n      mstore\n      0x20\n      add\n      0x00\n      keccak256\n        /* \"contracts/Twitter0.7v.sol\":2726:2727  1 */\n      0x01\n        /* \"contracts/Twitter0.7v.sol\":2723:2725  id */\n      dup6\n        /* \"contracts/Twitter0.7v.sol\":2723:2727  id-1 */\n      tag_65\n      swap2\n      swap1\n      tag_60\n      jump\t// in\n    tag_65:\n        /* \"contracts/Twitter0.7v.sol\":2706:2728  Tweet_info[User][id-1] */\n      dup2\n      sload\n      dup2\n      lt\n      tag_66\n      jumpi\n      tag_67\n      tag_63\n      jump\t// in\n    tag_67:\n    tag_66:\n      swap1\n      0x00\n      mstore\n      keccak256(0x00, 0x20)\n      swap1\n      0x08\n      mul\n      add\n        /* \"contracts/Twitter0.7v.sol\":2706:2734  Tweet_info[User][id-1].likes */\n      0x04\n      add\n        /* \"contracts/Twitter0.7v.sol\":2735:2736  l */\n      dup3\n        /* \"contracts/Twitter0.7v.sol\":2706:2737  Tweet_info[User][id-1].likes[l] */\n      dup2\n      sload\n      dup2\n      lt\n      tag_69\n      jumpi\n      tag_70\n      tag_63\n      jump\t// in\n    tag_70:\n    tag_69:\n      swap1\n      0x00\n      mstore\n      keccak256(0x00, 0x20)\n      add\n      0x00\n      swap1\n      sload\n      swap1\n      0x0100\n      exp\n      swap1\n      div\n      0xffffffffffffffffffffffffffffffffffffffff\n      and\n        /* \"contracts/Twitter0.7v.sol\":2706:2751  Tweet_info[User][id-1].likes[l] == msg.sender */\n      0xffffffffffffffffffffffffffffffffffffffff\n      and\n      sub\n        /* \"contracts/Twitter0.7v.sol\":2702:2811  if (Tweet_info[User][id-1].likes[l] == msg.sender) {... */\n      tag_72\n      jumpi\n        /* \"contracts/Twitter0.7v.sol\":2774:2779  false */\n      0x00\n        /* \"contracts/Twitter0.7v.sol\":2768:2779  res = false */\n      swap2\n      pop\n        /* \"contracts/Twitter0.7v.sol\":2794:2799  break */\n      jump(tag_57)\n        /* \"contracts/Twitter0.7v.sol\":2702:2811  if (Tweet_info[User][id-1].likes[l] == msg.sender) {... */\n    tag_72:\n        /* \"contracts/Twitter0.7v.sol\":2686:2689  l++ */\n      dup1\n      dup1\n      0x01\n      add\n      swap2\n      pop\n      pop\n        /* \"contracts/Twitter0.7v.sol\":2625:2818  for (uint256 l = 0; l < Tweet_info[User][id-1].likes.length; l++) {... */\n      jump(tag_56)\n    tag_57:\n      pop\n        /* \"contracts/Twitter0.7v.sol\":2841:2845  true */\n      0x01\n        /* \"contracts/Twitter0.7v.sol\":2834:2845  res == true */\n      iszero\n      iszero\n        /* \"contracts/Twitter0.7v.sol\":2834:2837  res */\n      dup2\n        /* \"contracts/Twitter0.7v.sol\":2834:2845  res == true */\n      iszero\n      iszero\n      eq\n        /* \"contracts/Twitter0.7v.sol\":2826:2878  require(res == true, \"You Already Liked the tweet!\") */\n      tag_73\n      jumpi\n      mload(0x40)\n      0x08c379a000000000000000000000000000000000000000000000000000000000\n      dup2\n      mstore\n      0x04\n      add\n      tag_74\n      swap1\n      tag_75\n      jump\t// in\n    tag_74:\n      mload(0x40)\n      dup1\n      swap2\n      sub\n      swap1\n      revert\n    tag_73:\n        /* \"contracts/Twitter0.7v.sol\":3925:3929  User */\n      dup5\n        /* \"contracts/Twitter0.7v.sol\":3930:3940  TweetIndex */\n      dup5\n        /* \"contracts/Twitter0.7v.sol\":2956:2964  bool res */\n      0x00\n        /* \"contracts/Twitter0.7v.sol\":2967:2971  true */\n      0x01\n        /* \"contracts/Twitter0.7v.sol\":2956:2971  bool res = true */\n      swap1\n      pop\n        /* \"contracts/Twitter0.7v.sol\":3040:3042  id */\n      dup2\n        /* \"contracts/Twitter0.7v.sol\":3013:3023  Tweet_info */\n      0x03\n        /* \"contracts/Twitter0.7v.sol\":3013:3029  Tweet_info[User] */\n      0x00\n        /* \"contracts/Twitter0.7v.sol\":3024:3028  User */\n      dup6\n        /* \"contracts/Twitter0.7v.sol\":3013:3029  Tweet_info[User] */\n      0xffffffffffffffffffffffffffffffffffffffff\n      and\n      0xffffffffffffffffffffffffffffffffffffffff\n      and\n      dup2\n      mstore\n      0x20\n      add\n      swap1\n      dup2\n      mstore\n      0x20\n      add\n      0x00\n      keccak256\n        /* \"contracts/Twitter0.7v.sol\":3013:3036  Tweet_info[User].length */\n      dup1\n      sload\n      swap1\n      pop\n        /* \"contracts/Twitter0.7v.sol\":3013:3042  Tweet_info[User].length >= id */\n      lt\n      iszero\n        /* \"contracts/Twitter0.7v.sol\":3005:3069  require(Tweet_info[User].length >= id, \"This Tweet Not Exist !\") */\n      tag_77\n      jumpi\n      mload(0x40)\n      0x08c379a000000000000000000000000000000000000000000000000000000000\n      dup2\n      mstore\n      0x04\n      add\n      tag_78\n      swap1\n      tag_55\n      jump\t// in\n    tag_78:\n      mload(0x40)\n      dup1\n      swap2\n      sub\n      swap1\n      revert\n    tag_77:\n        /* \"contracts/Twitter0.7v.sol\":3083:3092  uint256 l */\n      0x00\n        /* \"contracts/Twitter0.7v.sol\":3078:3275  for (uint256 l = 0; l < Tweet_info[User][id-1].unlikes.length; l++) {... */\n    tag_79:\n        /* \"contracts/Twitter0.7v.sol\":3102:3112  Tweet_info */\n      0x03\n        /* \"contracts/Twitter0.7v.sol\":3102:3118  Tweet_info[User] */\n      0x00\n        /* \"contracts/Twitter0.7v.sol\":3113:3117  User */\n      dup6\n        /* \"contracts/Twitter0.7v.sol\":3102:3118  Tweet_info[User] */\n      0xffffffffffffffffffffffffffffffffffffffff\n      and\n      0xffffffffffffffffffffffffffffffffffffffff\n      and\n      dup2\n      mstore\n      0x20\n      add\n      swap1\n      dup2\n      mstore\n      0x20\n      add\n      0x00\n      keccak256\n        /* \"contracts/Twitter0.7v.sol\":3122:3123  1 */\n      0x01\n        /* \"contracts/Twitter0.7v.sol\":3119:3121  id */\n      dup5\n        /* \"contracts/Twitter0.7v.sol\":3119:3123  id-1 */\n      tag_82\n      swap2\n      swap1\n      tag_60\n      jump\t// in\n    tag_82:\n        /* \"contracts/Twitter0.7v.sol\":3102:3124  Tweet_info[User][id-1] */\n      dup2\n      sload\n      dup2\n      lt\n      tag_83\n      jumpi\n      tag_84\n      tag_63\n      jump\t// in\n    tag_84:\n    tag_83:\n      swap1\n      0x00\n      mstore\n      keccak256(0x00, 0x20)\n      swap1\n      0x08\n      mul\n      add\n        /* \"contracts/Twitter0.7v.sol\":3102:3132  Tweet_info[User][id-1].unlikes */\n      0x07\n      add\n        /* \"contracts/Twitter0.7v.sol\":3102:3139  Tweet_info[User][id-1].unlikes.length */\n      dup1\n      sload\n      swap1\n      pop\n        /* \"contracts/Twitter0.7v.sol\":3098:3099  l */\n      dup2\n        /* \"contracts/Twitter0.7v.sol\":3098:3139  l < Tweet_info[User][id-1].unlikes.length */\n      lt\n        /* \"contracts/Twitter0.7v.sol\":3078:3275  for (uint256 l = 0; l < Tweet_info[User][id-1].unlikes.length; l++) {... */\n      iszero\n      tag_80\n      jumpi\n        /* \"contracts/Twitter0.7v.sol\":3198:3208  msg.sender */\n      caller\n        /* \"contracts/Twitter0.7v.sol\":3161:3208  Tweet_info[User][id-1].unlikes[l] == msg.sender */\n      0xffffffffffffffffffffffffffffffffffffffff\n      and\n        /* \"contracts/Twitter0.7v.sol\":3161:3171  Tweet_info */\n      0x03\n        /* \"contracts/Twitter0.7v.sol\":3161:3177  Tweet_info[User] */\n      0x00\n        /* \"contracts/Twitter0.7v.sol\":3172:3176  User */\n      dup7\n        /* \"contracts/Twitter0.7v.sol\":3161:3177  Tweet_info[User] */\n      0xffffffffffffffffffffffffffffffffffffffff\n      and\n      0xffffffffffffffffffffffffffffffffffffffff\n      and\n      dup2\n      mstore\n      0x20\n      add\n      swap1\n      dup2\n      mstore\n      0x20\n      add\n      0x00\n      keccak256\n        /* \"contracts/Twitter0.7v.sol\":3181:3182  1 */\n      0x01\n        /* \"contracts/Twitter0.7v.sol\":3178:3180  id */\n      dup6\n        /* \"contracts/Twitter0.7v.sol\":3178:3182  id-1 */\n      tag_86\n      swap2\n      swap1\n      tag_60\n      jump\t// in\n    tag_86:\n        /* \"contracts/Twitter0.7v.sol\":3161:3183  Tweet_info[User][id-1] */\n      dup2\n      sload\n      dup2\n      lt\n      tag_87\n      jumpi\n      tag_88\n      tag_63\n      jump\t// in\n    tag_88:\n    tag_87:\n      swap1\n      0x00\n      mstore\n      keccak256(0x00, 0x20)\n      swap1\n      0x08\n      mul\n      add\n        /* \"contracts/Twitter0.7v.sol\":3161:3191  Tweet_info[User][id-1].unlikes */\n      0x07\n      add\n        /* \"contracts/Twitter0.7v.sol\":3192:3193  l */\n      dup3\n        /* \"contracts/Twitter0.7v.sol\":3161:3194  Tweet_info[User][id-1].unlikes[l] */\n      dup2\n      sload\n      dup2\n      lt\n      tag_90\n      jumpi\n      tag_91\n      tag_63\n      jump\t// in\n    tag_91:\n    tag_90:\n      swap1\n      0x00\n      mstore\n      keccak256(0x00, 0x20)\n      add\n      0x00\n      swap1\n      sload\n      swap1\n      0x0100\n      exp\n      swap1\n      div\n      0xffffffffffffffffffffffffffffffffffffffff\n      and\n        /* \"contracts/Twitter0.7v.sol\":3161:3208  Tweet_info[User][id-1].unlikes[l] == msg.sender */\n      0xffffffffffffffffffffffffffffffffffffffff\n      and\n      sub\n        /* \"contracts/Twitter0.7v.sol\":3157:3268  if (Tweet_info[User][id-1].unlikes[l] == msg.sender) {... */\n      tag_93\n      jumpi\n        /* \"contracts/Twitter0.7v.sol\":3231:3236  false */\n      0x00\n        /* \"contracts/Twitter0.7v.sol\":3225:3236  res = false */\n      swap2\n      pop\n        /* \"contracts/Twitter0.7v.sol\":3251:3256  break */\n      jump(tag_80)\n        /* \"contracts/Twitter0.7v.sol\":3157:3268  if (Tweet_info[User][id-1].unlikes[l] == msg.sender) {... */\n    tag_93:\n        /* \"contracts/Twitter0.7v.sol\":3141:3144  l++ */\n      dup1\n      dup1\n      0x01\n      add\n      swap2\n      pop\n      pop\n        /* \"contracts/Twitter0.7v.sol\":3078:3275  for (uint256 l = 0; l < Tweet_info[User][id-1].unlikes.length; l++) {... */\n      jump(tag_79)\n    tag_80:\n      pop\n        /* \"contracts/Twitter0.7v.sol\":3298:3302  true */\n      0x01\n        /* \"contracts/Twitter0.7v.sol\":3291:3302  res == true */\n      iszero\n      iszero\n        /* \"contracts/Twitter0.7v.sol\":3291:3294  res */\n      dup2\n        /* \"contracts/Twitter0.7v.sol\":3291:3302  res == true */\n      iszero\n      iszero\n      eq\n        /* \"contracts/Twitter0.7v.sol\":3283:3337  require(res == true, \"You Already UnLiked the tweet!\") */\n      tag_94\n      jumpi\n      mload(0x40)\n      0x08c379a000000000000000000000000000000000000000000000000000000000\n      dup2\n      mstore\n      0x04\n      add\n      tag_95\n      swap1\n      tag_96\n      jump\t// in\n    tag_95:\n      mload(0x40)\n      dup1\n      swap2\n      sub\n      swap1\n      revert\n    tag_94:\n        /* \"contracts/Twitter0.7v.sol\":3974:3984  msg.sender */\n      caller\n        /* \"contracts/Twitter0.7v.sol\":3966:3984  User != msg.sender */\n      0xffffffffffffffffffffffffffffffffffffffff\n      and\n        /* \"contracts/Twitter0.7v.sol\":3966:3970  User */\n      dup9\n        /* \"contracts/Twitter0.7v.sol\":3966:3984  User != msg.sender */\n      0xffffffffffffffffffffffffffffffffffffffff\n      and\n      sub\n        /* \"contracts/Twitter0.7v.sol\":3958:4034  require(User != msg.sender,\"This is Your Tweet!You cann't Like Your Tweet!\") */\n      tag_98\n      jumpi\n      mload(0x40)\n      0x08c379a000000000000000000000000000000000000000000000000000000000\n      dup2\n      mstore\n      0x04\n      add\n      tag_99\n      swap1\n      tag_100\n      jump\t// in\n    tag_99:\n      mload(0x40)\n      dup1\n      swap2\n      sub\n      swap1\n      revert\n    tag_98:\n        /* \"contracts/Twitter0.7v.sol\":4045:4055  Tweet_info */\n      0x03\n        /* \"contracts/Twitter0.7v.sol\":4045:4061  Tweet_info[User] */\n      0x00\n        /* \"contracts/Twitter0.7v.sol\":4056:4060  User */\n      dup10\n        /* \"contracts/Twitter0.7v.sol\":4045:4061  Tweet_info[User] */\n      0xffffffffffffffffffffffffffffffffffffffff\n      and\n      0xffffffffffffffffffffffffffffffffffffffff\n      and\n      dup2\n      mstore\n      0x20\n      add\n      swap1\n      dup2\n      mstore\n      0x20\n      add\n      0x00\n      keccak256\n        /* \"contracts/Twitter0.7v.sol\":4073:4074  1 */\n      0x01\n        /* \"contracts/Twitter0.7v.sol\":4062:4072  TweetIndex */\n      dup9\n        /* \"contracts/Twitter0.7v.sol\":4062:4074  TweetIndex-1 */\n      tag_101\n      swap2\n      swap1\n      tag_60\n      jump\t// in\n    tag_101:\n        /* \"contracts/Twitter0.7v.sol\":4045:4075  Tweet_info[User][TweetIndex-1] */\n      dup2\n      sload\n      dup2\n      lt\n      tag_102\n      jumpi\n      tag_103\n      tag_63\n      jump\t// in\n    tag_103:\n    tag_102:\n      swap1\n      0x00\n      mstore\n      keccak256(0x00, 0x20)\n      swap1\n      0x08\n      mul\n      add\n        /* \"contracts/Twitter0.7v.sol\":4045:4081  Tweet_info[User][TweetIndex-1].likes */\n      0x04\n      add\n        /* \"contracts/Twitter0.7v.sol\":4087:4097  msg.sender */\n      caller\n        /* \"contracts/Twitter0.7v.sol\":4045:4098  Tweet_info[User][TweetIndex-1].likes.push(msg.sender) */\n      swap1\n      dup1\n      0x01\n      dup2\n      sload\n      add\n      dup1\n      dup3\n      sstore\n      dup1\n      swap2\n      pop\n      pop\n      0x01\n      swap1\n      sub\n      swap1\n      0x00\n      mstore\n      keccak256(0x00, 0x20)\n      add\n      0x00\n      swap1\n      swap2\n      swap1\n      swap2\n      swap1\n      swap2\n      0x0100\n      exp\n      dup2\n      sload\n      dup2\n      0xffffffffffffffffffffffffffffffffffffffff\n      mul\n      not\n      and\n      swap1\n      dup4\n      0xffffffffffffffffffffffffffffffffffffffff\n      and\n      mul\n      or\n      swap1\n      sstore\n      pop\n        /* \"contracts/Twitter0.7v.sol\":4109:4119  Tweet_info */\n      0x03\n        /* \"contracts/Twitter0.7v.sol\":4109:4125  Tweet_info[User] */\n      0x00\n        /* \"contracts/Twitter0.7v.sol\":4120:4124  User */\n      dup10\n        /* \"contracts/Twitter0.7v.sol\":4109:4125  Tweet_info[User] */\n      0xffffffffffffffffffffffffffffffffffffffff\n      and\n      0xffffffffffffffffffffffffffffffffffffffff\n      and\n      dup2\n      mstore\n      0x20\n      add\n      swap1\n      dup2\n      mstore\n      0x20\n      add\n      0x00\n      keccak256\n        /* \"contracts/Twitter0.7v.sol\":4137:4138  1 */\n      0x01\n        /* \"contracts/Twitter0.7v.sol\":4126:4136  TweetIndex */\n      dup9\n        /* \"contracts/Twitter0.7v.sol\":4126:4138  TweetIndex-1 */\n      tag_106\n      swap2\n      swap1\n      tag_60\n      jump\t// in\n    tag_106:\n        /* \"contracts/Twitter0.7v.sol\":4109:4139  Tweet_info[User][TweetIndex-1] */\n      dup2\n      sload\n      dup2\n      lt\n      tag_107\n      jumpi\n      tag_108\n      tag_63\n      jump\t// in\n    tag_108:\n    tag_107:\n      swap1\n      0x00\n      mstore\n      keccak256(0x00, 0x20)\n      swap1\n      0x08\n      mul\n      add\n        /* \"contracts/Twitter0.7v.sol\":4109:4150  Tweet_info[User][TweetIndex-1].LikesCount */\n      0x05\n      add\n      0x00\n        /* \"contracts/Twitter0.7v.sol\":4109:4152  Tweet_info[User][TweetIndex-1].LikesCount++ */\n      dup2\n      sload\n      dup1\n      swap3\n      swap2\n      swap1\n      tag_110\n      swap1\n      tag_111\n      jump\t// in\n    tag_110:\n      swap2\n      swap1\n      pop\n      sstore\n      pop\n        /* \"contracts/Twitter0.7v.sol\":4168:4275  TweetLiked(msg.sender , User, Tweet_info[User][TweetIndex-1].LikesCount, Tweet_info[User][TweetIndex-1].id) */\n      0xe8a76fc0f16d11a00d1e93b689b63d76cf60af914dd3d915375dc41d01a0c3c8\n        /* \"contracts/Twitter0.7v.sol\":4179:4189  msg.sender */\n      caller\n        /* \"contracts/Twitter0.7v.sol\":4192:4196  User */\n      dup10\n        /* \"contracts/Twitter0.7v.sol\":4198:4208  Tweet_info */\n      0x03\n        /* \"contracts/Twitter0.7v.sol\":4198:4214  Tweet_info[User] */\n      0x00\n        /* \"contracts/Twitter0.7v.sol\":4209:4213  User */\n      dup13\n        /* \"contracts/Twitter0.7v.sol\":4198:4214  Tweet_info[User] */\n      0xffffffffffffffffffffffffffffffffffffffff\n      and\n      0xffffffffffffffffffffffffffffffffffffffff\n      and\n      dup2\n      mstore\n      0x20\n      add\n      swap1\n      dup2\n      mstore\n      0x20\n      add\n      0x00\n      keccak256\n        /* \"contracts/Twitter0.7v.sol\":4226:4227  1 */\n      0x01\n        /* \"contracts/Twitter0.7v.sol\":4215:4225  TweetIndex */\n      dup12\n        /* \"contracts/Twitter0.7v.sol\":4215:4227  TweetIndex-1 */\n      tag_112\n      swap2\n      swap1\n      tag_60\n      jump\t// in\n    tag_112:\n        /* \"contracts/Twitter0.7v.sol\":4198:4228  Tweet_info[User][TweetIndex-1] */\n      dup2\n      sload\n      dup2\n      lt\n      tag_113\n      jumpi\n      tag_114\n      tag_63\n      jump\t// in\n    tag_114:\n    tag_113:\n      swap1\n      0x00\n      mstore\n      keccak256(0x00, 0x20)\n      swap1\n      0x08\n      mul\n      add\n        /* \"contracts/Twitter0.7v.sol\":4198:4239  Tweet_info[User][TweetIndex-1].LikesCount */\n      0x05\n      add\n      sload\n        /* \"contracts/Twitter0.7v.sol\":4241:4251  Tweet_info */\n      0x03\n        /* \"contracts/Twitter0.7v.sol\":4241:4257  Tweet_info[User] */\n      0x00\n        /* \"contracts/Twitter0.7v.sol\":4252:4256  User */\n      dup14\n        /* \"contracts/Twitter0.7v.sol\":4241:4257  Tweet_info[User] */\n      0xffffffffffffffffffffffffffffffffffffffff\n      and\n      0xffffffffffffffffffffffffffffffffffffffff\n      and\n      dup2\n      mstore\n      0x20\n      add\n      swap1\n      dup2\n      mstore\n      0x20\n      add\n      0x00\n      keccak256\n        /* \"contracts/Twitter0.7v.sol\":4269:4270  1 */\n      0x01\n        /* \"contracts/Twitter0.7v.sol\":4258:4268  TweetIndex */\n      dup13\n        /* \"contracts/Twitter0.7v.sol\":4258:4270  TweetIndex-1 */\n      tag_116\n      swap2\n      swap1\n      tag_60\n      jump\t// in\n    tag_116:\n        /* \"contracts/Twitter0.7v.sol\":4241:4271  Tweet_info[User][TweetIndex-1] */\n      dup2\n      sload\n      dup2\n      lt\n      tag_117\n      jumpi\n      tag_118\n      tag_63\n      jump\t// in\n    tag_118:\n    tag_117:\n      swap1\n      0x00\n      mstore\n      keccak256(0x00, 0x20)\n      swap1\n      0x08\n      mul\n      add\n        /* \"contracts/Twitter0.7v.sol\":4241:4274  Tweet_info[User][TweetIndex-1].id */\n      0x00\n      add\n      sload\n        /* \"contracts/Twitter0.7v.sol\":4168:4275  TweetLiked(msg.sender , User, Tweet_info[User][TweetIndex-1].LikesCount, Tweet_info[User][TweetIndex-1].id) */\n      mload(0x40)\n      tag_120\n      swap5\n      swap4\n      swap3\n      swap2\n      swap1\n      tag_121\n      jump\t// in\n    tag_120:\n      mload(0x40)\n      dup1\n      swap2\n      sub\n      swap1\n      log1\n        /* \"contracts/Twitter0.7v.sol\":2949:3349  {... */\n      pop\n        /* \"contracts/Twitter0.7v.sol\":2885:2886  _ */\n      pop\n      pop\n        /* \"contracts/Twitter0.7v.sol\":2496:2890  {... */\n      pop\n        /* \"contracts/Twitter0.7v.sol\":3803:4286  function LikesTweet(address User,uint256 TweetIndex)external ... */\n      pop\n      pop\n      pop\n      pop\n      jump\t// out\n        /* \"contracts/Twitter0.7v.sol\":3478:3611  function GetTweet(address User,uint Index)public view returns (Tweet memory)... */\n    tag_20:\n        /* \"contracts/Twitter0.7v.sol\":3541:3553  Tweet memory */\n      tag_122\n      tag_123\n      jump\t// in\n    tag_122:\n        /* \"contracts/Twitter0.7v.sol\":3578:3588  Tweet_info */\n      0x03\n        /* \"contracts/Twitter0.7v.sol\":3578:3594  Tweet_info[User] */\n      0x00\n        /* \"contracts/Twitter0.7v.sol\":3589:3593  User */\n      dup5\n        /* \"contracts/Twitter0.7v.sol\":3578:3594  Tweet_info[User] */\n      0xffffffffffffffffffffffffffffffffffffffff\n      and\n      0xffffffffffffffffffffffffffffffffffffffff\n      and\n      dup2\n      mstore\n      0x20\n      add\n      swap1\n      dup2\n      mstore\n      0x20\n      add\n      0x00\n      keccak256\n        /* \"contracts/Twitter0.7v.sol\":3601:3602  1 */\n      0x01\n        /* \"contracts/Twitter0.7v.sol\":3595:3600  Index */\n      dup4\n        /* \"contracts/Twitter0.7v.sol\":3595:3602  Index-1 */\n      tag_125\n      swap2\n      swap1\n      tag_60\n      jump\t// in\n    tag_125:\n        /* \"contracts/Twitter0.7v.sol\":3578:3603  Tweet_info[User][Index-1] */\n      dup2\n      sload\n      dup2\n      lt\n      tag_126\n      jumpi\n      tag_127\n      tag_63\n      jump\t// in\n    tag_127:\n    tag_126:\n      swap1\n      0x00\n      mstore\n      keccak256(0x00, 0x20)\n      swap1\n      0x08\n      mul\n      add\n        /* \"contracts/Twitter0.7v.sol\":3571:3603  return Tweet_info[User][Index-1] */\n      mload(0x40)\n      dup1\n      0x0100\n      add\n      0x40\n      mstore\n      swap1\n      dup2\n      0x00\n      dup3\n      add\n      sload\n      dup2\n      mstore\n      0x20\n      add\n      0x01\n      dup3\n      add\n      dup1\n      sload\n      tag_129\n      swap1\n      tag_130\n      jump\t// in\n    tag_129:\n      dup1\n      0x1f\n      add\n      0x20\n      dup1\n      swap2\n      div\n      mul\n      0x20\n      add\n      mload(0x40)\n      swap1\n      dup2\n      add\n      0x40\n      mstore\n      dup1\n      swap3\n      swap2\n      swap1\n      dup2\n      dup2\n      mstore\n      0x20\n      add\n      dup3\n      dup1\n      sload\n      tag_131\n      swap1\n      tag_130\n      jump\t// in\n    tag_131:\n      dup1\n      iszero\n      tag_132\n      jumpi\n      dup1\n      0x1f\n      lt\n      tag_133\n      jumpi\n      0x0100\n      dup1\n      dup4\n      sload\n      div\n      mul\n      dup4\n      mstore\n      swap2\n      0x20\n      add\n      swap2\n      jump(tag_132)\n    tag_133:\n      dup3\n      add\n      swap2\n      swap1\n      0x00\n      mstore\n      keccak256(0x00, 0x20)\n      swap1\n    tag_134:\n      dup2\n      sload\n      dup2\n      mstore\n      swap1\n      0x01\n      add\n      swap1\n      0x20\n      add\n      dup1\n      dup4\n      gt\n      tag_134\n      jumpi\n      dup3\n      swap1\n      sub\n      0x1f\n      and\n      dup3\n      add\n      swap2\n    tag_132:\n      pop\n      pop\n      pop\n      pop\n      pop\n      dup2\n      mstore\n      0x20\n      add\n      0x02\n      dup3\n      add\n      0x00\n      swap1\n      sload\n      swap1\n      0x0100\n      exp\n      swap1\n      div\n      0xffffffffffffffffffffffffffffffffffffffff\n      and\n      0xffffffffffffffffffffffffffffffffffffffff\n      and\n      0xffffffffffffffffffffffffffffffffffffffff\n      and\n      dup2\n      mstore\n      0x20\n      add\n      0x03\n      dup3\n      add\n      sload\n      dup2\n      mstore\n      0x20\n      add\n      0x04\n      dup3\n      add\n      dup1\n      sload\n      dup1\n      0x20\n      mul\n      0x20\n      add\n      mload(0x40)\n      swap1\n      dup2\n      add\n      0x40\n      mstore\n      dup1\n      swap3\n      swap2\n      swap1\n      dup2\n      dup2\n      mstore\n      0x20\n      add\n      dup3\n      dup1\n      sload\n      dup1\n      iszero\n      tag_135\n      jumpi\n      0x20\n      mul\n      dup3\n      add\n      swap2\n      swap1\n      0x00\n      mstore\n      keccak256(0x00, 0x20)\n      swap1\n    tag_136:\n      dup2\n      0x00\n      swap1\n      sload\n      swap1\n      0x0100\n      exp\n      swap1\n      div\n      0xffffffffffffffffffffffffffffffffffffffff\n      and\n      0xffffffffffffffffffffffffffffffffffffffff\n      and\n      dup2\n      mstore\n      0x20\n      add\n      swap1\n      0x01\n      add\n      swap1\n      dup1\n      dup4\n      gt\n      tag_136\n      jumpi\n    tag_135:\n      pop\n      pop\n      pop\n      pop\n      pop\n      dup2\n      mstore\n      0x20\n      add\n      0x05\n      dup3\n      add\n      sload\n      dup2\n      mstore\n      0x20\n      add\n      0x06\n      dup3\n      add\n      sload\n      dup2\n      mstore\n      0x20\n      add\n      0x07\n      dup3\n      add\n      dup1\n      sload\n      dup1\n      0x20\n      mul\n      0x20\n      add\n      mload(0x40)\n      swap1\n      dup2\n      add\n      0x40\n      mstore\n      dup1\n      swap3\n      swap2\n      swap1\n      dup2\n      dup2\n      mstore\n      0x20\n      add\n      dup3\n      dup1\n      sload\n      dup1\n      iszero\n      tag_137\n      jumpi\n      0x20\n      mul\n      dup3\n      add\n      swap2\n      swap1\n      0x00\n      mstore\n      keccak256(0x00, 0x20)\n      swap1\n    tag_138:\n      dup2\n      0x00\n      swap1\n      sload\n      swap1\n      0x0100\n      exp\n      swap1\n      div\n      0xffffffffffffffffffffffffffffffffffffffff\n      and\n      0xffffffffffffffffffffffffffffffffffffffff\n      and\n      dup2\n      mstore\n      0x20\n      add\n      swap1\n      0x01\n      add\n      swap1\n      dup1\n      dup4\n      gt\n      tag_138\n      jumpi\n    tag_137:\n      pop\n      pop\n      pop\n      pop\n      pop\n      dup2\n      mstore\n      pop\n      pop\n      swap1\n      pop\n        /* \"contracts/Twitter0.7v.sol\":3478:3611  function GetTweet(address User,uint Index)public view returns (Tweet memory)... */\n      swap3\n      swap2\n      pop\n      pop\n      jump\t// out\n        /* \"contracts/Twitter0.7v.sol\":3357:3470  function GetAllTweets() public view returns(Tweet[] memory)... */\n    tag_24:\n        /* \"contracts/Twitter0.7v.sol\":3401:3415  Tweet[] memory */\n      0x60\n        /* \"contracts/Twitter0.7v.sol\":3440:3450  Tweet_info */\n      0x03\n        /* \"contracts/Twitter0.7v.sol\":3440:3462  Tweet_info[msg.sender] */\n      0x00\n        /* \"contracts/Twitter0.7v.sol\":3451:3461  msg.sender */\n      caller\n        /* \"contracts/Twitter0.7v.sol\":3440:3462  Tweet_info[msg.sender] */\n      0xffffffffffffffffffffffffffffffffffffffff\n      and\n      0xffffffffffffffffffffffffffffffffffffffff\n      and\n      dup2\n      mstore\n      0x20\n      add\n      swap1\n      dup2\n      mstore\n      0x20\n      add\n      0x00\n      keccak256\n        /* \"contracts/Twitter0.7v.sol\":3433:3462  return Tweet_info[msg.sender] */\n      dup1\n      sload\n      dup1\n      0x20\n      mul\n      0x20\n      add\n      mload(0x40)\n      swap1\n      dup2\n      add\n      0x40\n      mstore\n      dup1\n      swap3\n      swap2\n      swap1\n      dup2\n      dup2\n      mstore\n      0x20\n      add\n      0x00\n      swap1\n    tag_140:\n      dup3\n      dup3\n      lt\n      iszero\n      tag_141\n      jumpi\n      dup4\n      dup3\n      swap1\n      0x00\n      mstore\n      keccak256(0x00, 0x20)\n      swap1\n      0x08\n      mul\n      add\n      mload(0x40)\n      dup1\n      0x0100\n      add\n      0x40\n      mstore\n      swap1\n      dup2\n      0x00\n      dup3\n      add\n      sload\n      dup2\n      mstore\n      0x20\n      add\n      0x01\n      dup3\n      add\n      dup1\n      sload\n      tag_143\n      swap1\n      tag_130\n      jump\t// in\n    tag_143:\n      dup1\n      0x1f\n      add\n      0x20\n      dup1\n      swap2\n      div\n      mul\n      0x20\n      add\n      mload(0x40)\n      swap1\n      dup2\n      add\n      0x40\n      mstore\n      dup1\n      swap3\n      swap2\n      swap1\n      dup2\n      dup2\n      mstore\n      0x20\n      add\n      dup3\n      dup1\n      sload\n      tag_144\n      swap1\n      tag_130\n      jump\t// in\n    tag_144:\n      dup1\n      iszero\n      tag_145\n      jumpi\n      dup1\n      0x1f\n      lt\n      tag_146\n      jumpi\n      0x0100\n      dup1\n      dup4\n      sload\n      div\n      mul\n      dup4\n      mstore\n      swap2\n      0x20\n      add\n      swap2\n      jump(tag_145)\n    tag_146:\n      dup3\n      add\n      swap2\n      swap1\n      0x00\n      mstore\n      keccak256(0x00, 0x20)\n      swap1\n    tag_147:\n      dup2\n      sload\n      dup2\n      mstore\n      swap1\n      0x01\n      add\n      swap1\n      0x20\n      add\n      dup1\n      dup4\n      gt\n      tag_147\n      jumpi\n      dup3\n      swap1\n      sub\n      0x1f\n      and\n      dup3\n      add\n      swap2\n    tag_145:\n      pop\n      pop\n      pop\n      pop\n      pop\n      dup2\n      mstore\n      0x20\n      add\n      0x02\n      dup3\n      add\n      0x00\n      swap1\n      sload\n      swap1\n      0x0100\n      exp\n      swap1\n      div\n      0xffffffffffffffffffffffffffffffffffffffff\n      and\n      0xffffffffffffffffffffffffffffffffffffffff\n      and\n      0xffffffffffffffffffffffffffffffffffffffff\n      and\n      dup2\n      mstore\n      0x20\n      add\n      0x03\n      dup3\n      add\n      sload\n      dup2\n      mstore\n      0x20\n      add\n      0x04\n      dup3\n      add\n      dup1\n      sload\n      dup1\n      0x20\n      mul\n      0x20\n      add\n      mload(0x40)\n      swap1\n      dup2\n      add\n      0x40\n      mstore\n      dup1\n      swap3\n      swap2\n      swap1\n      dup2\n      dup2\n      mstore\n      0x20\n      add\n      dup3\n      dup1\n      sload\n      dup1\n      iszero\n      tag_148\n      jumpi\n      0x20\n      mul\n      dup3\n      add\n      swap2\n      swap1\n      0x00\n      mstore\n      keccak256(0x00, 0x20)\n      swap1\n    tag_149:\n      dup2\n      0x00\n      swap1\n      sload\n      swap1\n      0x0100\n      exp\n      swap1\n      div\n      0xffffffffffffffffffffffffffffffffffffffff\n      and\n      0xffffffffffffffffffffffffffffffffffffffff\n      and\n      dup2\n      mstore\n      0x20\n      add\n      swap1\n      0x01\n      add\n      swap1\n      dup1\n      dup4\n      gt\n      tag_149\n      jumpi\n    tag_148:\n      pop\n      pop\n      pop\n      pop\n      pop\n      dup2\n      mstore\n      0x20\n      add\n      0x05\n      dup3\n      add\n      sload\n      dup2\n      mstore\n      0x20\n      add\n      0x06\n      dup3\n      add\n      sload\n      dup2\n      mstore\n      0x20\n      add\n      0x07\n      dup3\n      add\n      dup1\n      sload\n      dup1\n      0x20\n      mul\n      0x20\n      add\n      mload(0x40)\n      swap1\n      dup2\n      add\n      0x40\n      mstore\n      dup1\n      swap3\n      swap2\n      swap1\n      dup2\n      dup2\n      mstore\n      0x20\n      add\n      dup3\n      dup1\n      sload\n      dup1\n      iszero\n      tag_150\n      jumpi\n      0x20\n      mul\n      dup3\n      add\n      swap2\n      swap1\n      0x00\n      mstore\n      keccak256(0x00, 0x20)\n      swap1\n    tag_151:\n      dup2\n      0x00\n      swap1\n      sload\n      swap1\n      0x0100\n      exp\n      swap1\n      div\n      0xffffffffffffffffffffffffffffffffffffffff\n      and\n      0xffffffffffffffffffffffffffffffffffffffff\n      and\n      dup2\n      mstore\n      0x20\n      add\n      swap1\n      0x01\n      add\n      swap1\n      dup1\n      dup4\n      gt\n      tag_151\n      jumpi\n    tag_150:\n      pop\n      pop\n      pop\n      pop\n      pop\n      dup2\n      mstore\n      pop\n      pop\n      dup2\n      mstore\n      0x20\n      add\n      swap1\n      0x01\n      add\n      swap1\n      jump(tag_140)\n    tag_141:\n      pop\n      pop\n      pop\n      pop\n      swap1\n      pop\n        /* \"contracts/Twitter0.7v.sol\":3357:3470  function GetAllTweets() public view returns(Tweet[] memory)... */\n      swap1\n      jump\t// out\n        /* \"contracts/Twitter0.7v.sol\":3619:3706  function DeleteRecentTweet()public... */\n    tag_28:\n        /* \"contracts/Twitter0.7v.sol\":3670:3680  Tweet_info */\n      0x03\n        /* \"contracts/Twitter0.7v.sol\":3670:3692  Tweet_info[msg.sender] */\n      0x00\n        /* \"contracts/Twitter0.7v.sol\":3681:3691  msg.sender */\n      caller\n        /* \"contracts/Twitter0.7v.sol\":3670:3692  Tweet_info[msg.sender] */\n      0xffffffffffffffffffffffffffffffffffffffff\n      and\n      0xffffffffffffffffffffffffffffffffffffffff\n      and\n      dup2\n      mstore\n      0x20\n      add\n      swap1\n      dup2\n      mstore\n      0x20\n      add\n      0x00\n      keccak256\n        /* \"contracts/Twitter0.7v.sol\":3670:3698  Tweet_info[msg.sender].pop() */\n      dup1\n      sload\n      dup1\n      tag_153\n      jumpi\n      tag_154\n      tag_155\n      jump\t// in\n    tag_154:\n    tag_153:\n      0x01\n      swap1\n      sub\n      dup2\n      dup2\n      swap1\n      0x00\n      mstore\n      keccak256(0x00, 0x20)\n      swap1\n      0x08\n      mul\n      add\n      0x00\n      dup1\n      dup3\n      add\n      0x00\n      swap1\n      sstore\n      0x01\n      dup3\n      add\n      0x00\n      tag_157\n      swap2\n      swap1\n      tag_158\n      jump\t// in\n    tag_157:\n      0x02\n      dup3\n      add\n      exp(0x0100, 0x00)\n      dup2\n      sload\n      swap1\n      0xffffffffffffffffffffffffffffffffffffffff\n      mul\n      not\n      and\n      swap1\n      sstore\n      0x03\n      dup3\n      add\n      0x00\n      swap1\n      sstore\n      0x04\n      dup3\n      add\n      0x00\n      tag_159\n      swap2\n      swap1\n      tag_160\n      jump\t// in\n    tag_159:\n      0x05\n      dup3\n      add\n      0x00\n      swap1\n      sstore\n      0x06\n      dup3\n      add\n      0x00\n      swap1\n      sstore\n      0x07\n      dup3\n      add\n      0x00\n      tag_161\n      swap2\n      swap1\n      tag_160\n      jump\t// in\n    tag_161:\n      pop\n      pop\n      swap1\n      sstore\n        /* \"contracts/Twitter0.7v.sol\":3619:3706  function DeleteRecentTweet()public... */\n      jump\t// out\n        /* \"contracts/Twitter0.7v.sol\":3714:3795  function DeleteAllTweets()public {... */\n    tag_30:\n        /* \"contracts/Twitter0.7v.sol\":3765:3775  Tweet_info */\n      0x03\n        /* \"contracts/Twitter0.7v.sol\":3765:3787  Tweet_info[msg.sender] */\n      0x00\n        /* \"contracts/Twitter0.7v.sol\":3776:3786  msg.sender */\n      caller\n        /* \"contracts/Twitter0.7v.sol\":3765:3787  Tweet_info[msg.sender] */\n      0xffffffffffffffffffffffffffffffffffffffff\n      and\n      0xffffffffffffffffffffffffffffffffffffffff\n      and\n      dup2\n      mstore\n      0x20\n      add\n      swap1\n      dup2\n      mstore\n      0x20\n      add\n      0x00\n      keccak256\n      0x00\n        /* \"contracts/Twitter0.7v.sol\":3758:3787  delete Tweet_info[msg.sender] */\n      tag_163\n      swap2\n      swap1\n      tag_164\n      jump\t// in\n    tag_163:\n        /* \"contracts/Twitter0.7v.sol\":3714:3795  function DeleteAllTweets()public {... */\n      jump\t// out\n        /* \"contracts/Twitter0.7v.sol\":1231:2303  function createTweet(string memory _tweet) public {... */\n    tag_34:\n        /* \"contracts/Twitter0.7v.sol\":1797:1808  TweetLength */\n      sload(0x01)\n        /* \"contracts/Twitter0.7v.sol\":1779:1785  _tweet */\n      dup2\n        /* \"contracts/Twitter0.7v.sol\":1773:1793  bytes(_tweet).length */\n      mload\n        /* \"contracts/Twitter0.7v.sol\":1773:1808  bytes(_tweet).length <= TweetLength */\n      gt\n      iszero\n        /* \"contracts/Twitter0.7v.sol\":1765:1836  require(bytes(_tweet).length <= TweetLength ,\"Tweet Length is Exceed!\") */\n      tag_166\n      jumpi\n      mload(0x40)\n      0x08c379a000000000000000000000000000000000000000000000000000000000\n      dup2\n      mstore\n      0x04\n      add\n      tag_167\n      swap1\n      tag_168\n      jump\t// in\n    tag_167:\n      mload(0x40)\n      dup1\n      swap2\n      sub\n      swap1\n      revert\n    tag_166:\n        /* \"contracts/Twitter0.7v.sol\":1849:1870  Tweet memory NewTweet */\n      0x00\n        /* \"contracts/Twitter0.7v.sol\":1873:2147  Tweet({... */\n      mload(0x40)\n      dup1\n      0x0100\n      add\n      0x40\n      mstore\n      dup1\n        /* \"contracts/Twitter0.7v.sol\":1929:1930  1 */\n      0x01\n        /* \"contracts/Twitter0.7v.sol\":1899:1909  Tweet_info */\n      0x03\n        /* \"contracts/Twitter0.7v.sol\":1899:1921  Tweet_info[msg.sender] */\n      0x00\n        /* \"contracts/Twitter0.7v.sol\":1910:1920  msg.sender */\n      caller\n        /* \"contracts/Twitter0.7v.sol\":1899:1921  Tweet_info[msg.sender] */\n      0xffffffffffffffffffffffffffffffffffffffff\n      and\n      0xffffffffffffffffffffffffffffffffffffffff\n      and\n      dup2\n      mstore\n      0x20\n      add\n      swap1\n      dup2\n      mstore\n      0x20\n      add\n      0x00\n      keccak256\n        /* \"contracts/Twitter0.7v.sol\":1899:1928  Tweet_info[msg.sender].length */\n      dup1\n      sload\n      swap1\n      pop\n        /* \"contracts/Twitter0.7v.sol\":1899:1930  Tweet_info[msg.sender].length+1 */\n      tag_169\n      swap2\n      swap1\n      tag_170\n      jump\t// in\n    tag_169:\n        /* \"contracts/Twitter0.7v.sol\":1873:2147  Tweet({... */\n      dup2\n      mstore\n      0x20\n      add\n        /* \"contracts/Twitter0.7v.sol\":1953:1959  _tweet */\n      dup4\n        /* \"contracts/Twitter0.7v.sol\":1873:2147  Tweet({... */\n      dup2\n      mstore\n      0x20\n      add\n        /* \"contracts/Twitter0.7v.sol\":1981:1991  msg.sender */\n      caller\n        /* \"contracts/Twitter0.7v.sol\":1873:2147  Tweet({... */\n      0xffffffffffffffffffffffffffffffffffffffff\n      and\n      dup2\n      mstore\n      0x20\n      add\n        /* \"contracts/Twitter0.7v.sol\":2016:2031  block.timestamp */\n      timestamp\n        /* \"contracts/Twitter0.7v.sol\":1873:2147  Tweet({... */\n      dup2\n      mstore\n      0x20\n      add\n        /* \"contracts/Twitter0.7v.sol\":2052:2054  li */\n      0x02\n        /* \"contracts/Twitter0.7v.sol\":1873:2147  Tweet({... */\n      dup1\n      sload\n      dup1\n      0x20\n      mul\n      0x20\n      add\n      mload(0x40)\n      swap1\n      dup2\n      add\n      0x40\n      mstore\n      dup1\n      swap3\n      swap2\n      swap1\n      dup2\n      dup2\n      mstore\n      0x20\n      add\n      dup3\n      dup1\n      sload\n      dup1\n      iszero\n      tag_171\n      jumpi\n      0x20\n      mul\n      dup3\n      add\n      swap2\n      swap1\n      0x00\n      mstore\n      keccak256(0x00, 0x20)\n      swap1\n    tag_172:\n      dup2\n      0x00\n      swap1\n      sload\n      swap1\n      0x0100\n      exp\n      swap1\n      div\n      0xffffffffffffffffffffffffffffffffffffffff\n      and\n      0xffffffffffffffffffffffffffffffffffffffff\n      and\n      dup2\n      mstore\n      0x20\n      add\n      swap1\n      0x01\n      add\n      swap1\n      dup1\n      dup4\n      gt\n      tag_172\n      jumpi\n    tag_171:\n      pop\n      pop\n      pop\n      pop\n      pop\n      dup2\n      mstore\n      0x20\n      add\n        /* \"contracts/Twitter0.7v.sol\":2080:2081  0 */\n      0x00\n        /* \"contracts/Twitter0.7v.sol\":1873:2147  Tweet({... */\n      dup2\n      mstore\n      0x20\n      add\n        /* \"contracts/Twitter0.7v.sol\":2109:2110  0 */\n      0x00\n        /* \"contracts/Twitter0.7v.sol\":1873:2147  Tweet({... */\n      dup2\n      mstore\n      0x20\n      add\n        /* \"contracts/Twitter0.7v.sol\":2133:2135  li */\n      0x02\n        /* \"contracts/Twitter0.7v.sol\":1873:2147  Tweet({... */\n      dup1\n      sload\n      dup1\n      0x20\n      mul\n      0x20\n      add\n      mload(0x40)\n      swap1\n      dup2\n      add\n      0x40\n      mstore\n      dup1\n      swap3\n      swap2\n      swap1\n      dup2\n      dup2\n      mstore\n      0x20\n      add\n      dup3\n      dup1\n      sload\n      dup1\n      iszero\n      tag_173\n      jumpi\n      0x20\n      mul\n      dup3\n      add\n      swap2\n      swap1\n      0x00\n      mstore\n      keccak256(0x00, 0x20)\n      swap1\n    tag_174:\n      dup2\n      0x00\n      swap1\n      sload\n      swap1\n      0x0100\n      exp\n      swap1\n      div\n      0xffffffffffffffffffffffffffffffffffffffff\n      and\n      0xffffffffffffffffffffffffffffffffffffffff\n      and\n      dup2\n      mstore\n      0x20\n      add\n      swap1\n      0x01\n      add\n      swap1\n      dup1\n      dup4\n      gt\n      tag_174\n      jumpi\n    tag_173:\n      pop\n      pop\n      pop\n      pop\n      pop\n      dup2\n      mstore\n      pop\n        /* \"contracts/Twitter0.7v.sol\":1849:2147  Tweet memory NewTweet = Tweet({... */\n      swap1\n      pop\n        /* \"contracts/Twitter0.7v.sol\":2160:2170  Tweet_info */\n      0x03\n        /* \"contracts/Twitter0.7v.sol\":2160:2182  Tweet_info[msg.sender] */\n      0x00\n        /* \"contracts/Twitter0.7v.sol\":2171:2181  msg.sender */\n      caller\n        /* \"contracts/Twitter0.7v.sol\":2160:2182  Tweet_info[msg.sender] */\n      0xffffffffffffffffffffffffffffffffffffffff\n      and\n      0xffffffffffffffffffffffffffffffffffffffff\n      and\n      dup2\n      mstore\n      0x20\n      add\n      swap1\n      dup2\n      mstore\n      0x20\n      add\n      0x00\n      keccak256\n        /* \"contracts/Twitter0.7v.sol\":2188:2196  NewTweet */\n      dup2\n        /* \"contracts/Twitter0.7v.sol\":2160:2197  Tweet_info[msg.sender].push(NewTweet) */\n      swap1\n      dup1\n      0x01\n      dup2\n      sload\n      add\n      dup1\n      dup3\n      sstore\n      dup1\n      swap2\n      pop\n      pop\n      0x01\n      swap1\n      sub\n      swap1\n      0x00\n      mstore\n      keccak256(0x00, 0x20)\n      swap1\n      0x08\n      mul\n      add\n      0x00\n      swap1\n      swap2\n      swap1\n      swap2\n      swap1\n      swap2\n      pop\n      0x00\n      dup3\n      add\n      mload\n      dup2\n      0x00\n      add\n      sstore\n      0x20\n      dup3\n      add\n      mload\n      dup2\n      0x01\n      add\n      swap1\n      dup2\n      tag_176\n      swap2\n      swap1\n      tag_177\n      jump\t// in\n    tag_176:\n      pop\n      0x40\n      dup3\n      add\n      mload\n      dup2\n      0x02\n      add\n      exp(0x0100, 0x00)\n      dup2\n      sload\n      dup2\n      0xffffffffffffffffffffffffffffffffffffffff\n      mul\n      not\n      and\n      swap1\n      dup4\n      0xffffffffffffffffffffffffffffffffffffffff\n      and\n      mul\n      or\n      swap1\n      sstore\n      pop\n      0x60\n      dup3\n      add\n      mload\n      dup2\n      0x03\n      add\n      sstore\n      0x80\n      dup3\n      add\n      mload\n      dup2\n      0x04\n      add\n      swap1\n      dup1\n      mload\n      swap1\n      0x20\n      add\n      swap1\n      tag_178\n      swap3\n      swap2\n      swap1\n      tag_179\n      jump\t// in\n    tag_178:\n      pop\n      0xa0\n      dup3\n      add\n      mload\n      dup2\n      0x05\n      add\n      sstore\n      0xc0\n      dup3\n      add\n      mload\n      dup2\n      0x06\n      add\n      sstore\n      0xe0\n      dup3\n      add\n      mload\n      dup2\n      0x07\n      add\n      swap1\n      dup1\n      mload\n      swap1\n      0x20\n      add\n      swap1\n      tag_180\n      swap3\n      swap2\n      swap1\n      tag_179\n      jump\t// in\n    tag_180:\n      pop\n      pop\n      pop\n        /* \"contracts/Twitter0.7v.sol\":2213:2295  TweetCreated(Tweet_info[msg.sender].length+1, msg.sender, _tweet, block.timestamp) */\n      0x16fd3c13e9d46923e0a8bce11c7b473ec508a72e6c96cd2404b29ce972afc29e\n        /* \"contracts/Twitter0.7v.sol\":2256:2257  1 */\n      0x01\n        /* \"contracts/Twitter0.7v.sol\":2226:2236  Tweet_info */\n      0x03\n        /* \"contracts/Twitter0.7v.sol\":2226:2248  Tweet_info[msg.sender] */\n      0x00\n        /* \"contracts/Twitter0.7v.sol\":2237:2247  msg.sender */\n      caller\n        /* \"contracts/Twitter0.7v.sol\":2226:2248  Tweet_info[msg.sender] */\n      0xffffffffffffffffffffffffffffffffffffffff\n      and\n      0xffffffffffffffffffffffffffffffffffffffff\n      and\n      dup2\n      mstore\n      0x20\n      add\n      swap1\n      dup2\n      mstore\n      0x20\n      add\n      0x00\n      keccak256\n        /* \"contracts/Twitter0.7v.sol\":2226:2255  Tweet_info[msg.sender].length */\n      dup1\n      sload\n      swap1\n      pop\n        /* \"contracts/Twitter0.7v.sol\":2226:2257  Tweet_info[msg.sender].length+1 */\n      tag_181\n      swap2\n      swap1\n      tag_170\n      jump\t// in\n    tag_181:\n        /* \"contracts/Twitter0.7v.sol\":2259:2269  msg.sender */\n      caller\n        /* \"contracts/Twitter0.7v.sol\":2271:2277  _tweet */\n      dup5\n        /* \"contracts/Twitter0.7v.sol\":2279:2294  block.timestamp */\n      timestamp\n        /* \"contracts/Twitter0.7v.sol\":2213:2295  TweetCreated(Tweet_info[msg.sender].length+1, msg.sender, _tweet, block.timestamp) */\n      mload(0x40)\n      tag_182\n      swap5\n      swap4\n      swap3\n      swap2\n      swap1\n      tag_183\n      jump\t// in\n    tag_182:\n      mload(0x40)\n      dup1\n      swap2\n      sub\n      swap1\n      log1\n        /* \"contracts/Twitter0.7v.sol\":1281:2303  {... */\n      pop\n        /* \"contracts/Twitter0.7v.sol\":1231:2303  function createTweet(string memory _tweet) public {... */\n      pop\n      jump\t// out\n        /* \"contracts/Twitter0.7v.sol\":4674:4989  function getTotalLikes(address author) view  external returns (uint256) ... */\n    tag_38:\n        /* \"contracts/Twitter0.7v.sol\":4737:4744  uint256 */\n      0x00\n        /* \"contracts/Twitter0.7v.sol\":4762:4780  uint256 TotalLikes */\n      dup1\n        /* \"contracts/Twitter0.7v.sol\":4783:4784  0 */\n      0x00\n        /* \"contracts/Twitter0.7v.sol\":4762:4784  uint256 TotalLikes = 0 */\n      swap1\n      pop\n        /* \"contracts/Twitter0.7v.sol\":4801:4810  uint256 i */\n      0x00\n        /* \"contracts/Twitter0.7v.sol\":4797:4940  for(uint256 i=0;i<Tweet_info[author].length;i++)... */\n    tag_185:\n        /* \"contracts/Twitter0.7v.sol\":4815:4825  Tweet_info */\n      0x03\n        /* \"contracts/Twitter0.7v.sol\":4815:4833  Tweet_info[author] */\n      0x00\n        /* \"contracts/Twitter0.7v.sol\":4826:4832  author */\n      dup6\n        /* \"contracts/Twitter0.7v.sol\":4815:4833  Tweet_info[author] */\n      0xffffffffffffffffffffffffffffffffffffffff\n      and\n      0xffffffffffffffffffffffffffffffffffffffff\n      and\n      dup2\n      mstore\n      0x20\n      add\n      swap1\n      dup2\n      mstore\n      0x20\n      add\n      0x00\n      keccak256\n        /* \"contracts/Twitter0.7v.sol\":4815:4840  Tweet_info[author].length */\n      dup1\n      sload\n      swap1\n      pop\n        /* \"contracts/Twitter0.7v.sol\":4813:4814  i */\n      dup2\n        /* \"contracts/Twitter0.7v.sol\":4813:4840  i<Tweet_info[author].length */\n      lt\n        /* \"contracts/Twitter0.7v.sol\":4797:4940  for(uint256 i=0;i<Tweet_info[author].length;i++)... */\n      iszero\n      tag_186\n      jumpi\n        /* \"contracts/Twitter0.7v.sol\":4896:4906  Tweet_info */\n      0x03\n        /* \"contracts/Twitter0.7v.sol\":4896:4914  Tweet_info[author] */\n      0x00\n        /* \"contracts/Twitter0.7v.sol\":4907:4913  author */\n      dup6\n        /* \"contracts/Twitter0.7v.sol\":4896:4914  Tweet_info[author] */\n      0xffffffffffffffffffffffffffffffffffffffff\n      and\n      0xffffffffffffffffffffffffffffffffffffffff\n      and\n      dup2\n      mstore\n      0x20\n      add\n      swap1\n      dup2\n      mstore\n      0x20\n      add\n      0x00\n      keccak256\n        /* \"contracts/Twitter0.7v.sol\":4915:4916  i */\n      dup2\n        /* \"contracts/Twitter0.7v.sol\":4896:4917  Tweet_info[author][i] */\n      dup2\n      sload\n      dup2\n      lt\n      tag_188\n      jumpi\n      tag_189\n      tag_63\n      jump\t// in\n    tag_189:\n    tag_188:\n      swap1\n      0x00\n      mstore\n      keccak256(0x00, 0x20)\n      swap1\n      0x08\n      mul\n      add\n        /* \"contracts/Twitter0.7v.sol\":4896:4928  Tweet_info[author][i].LikesCount */\n      0x05\n      add\n      sload\n        /* \"contracts/Twitter0.7v.sol\":4883:4893  TotalLikes */\n      dup3\n        /* \"contracts/Twitter0.7v.sol\":4883:4928  TotalLikes + Tweet_info[author][i].LikesCount */\n      tag_191\n      swap2\n      swap1\n      tag_170\n      jump\t// in\n    tag_191:\n        /* \"contracts/Twitter0.7v.sol\":4870:4928  TotalLikes = TotalLikes + Tweet_info[author][i].LikesCount */\n      swap2\n      pop\n        /* \"contracts/Twitter0.7v.sol\":4841:4844  i++ */\n      dup1\n      dup1\n      0x01\n      add\n      swap2\n      pop\n      pop\n        /* \"contracts/Twitter0.7v.sol\":4797:4940  for(uint256 i=0;i<Tweet_info[author].length;i++)... */\n      jump(tag_185)\n    tag_186:\n      pop\n        /* \"contracts/Twitter0.7v.sol\":4959:4969  TotalLikes */\n      dup1\n        /* \"contracts/Twitter0.7v.sol\":4952:4969  return TotalLikes */\n      swap2\n      pop\n      pop\n        /* \"contracts/Twitter0.7v.sol\":4674:4989  function getTotalLikes(address author) view  external returns (uint256) ... */\n      swap2\n      swap1\n      pop\n      jump\t// out\n        /* \"contracts/Twitter0.7v.sol\":4294:4666  function UnlikeTweet(address User,uint256 TweetIndex)external ... */\n    tag_43:\n        /* \"contracts/Twitter0.7v.sol\":4380:4384  User */\n      dup2\n        /* \"contracts/Twitter0.7v.sol\":4385:4395  TweetIndex */\n      dup2\n        /* \"contracts/Twitter0.7v.sol\":2503:2511  bool res */\n      0x00\n        /* \"contracts/Twitter0.7v.sol\":2514:2518  true */\n      0x01\n        /* \"contracts/Twitter0.7v.sol\":2503:2518  bool res = true */\n      swap1\n      pop\n        /* \"contracts/Twitter0.7v.sol\":2587:2589  id */\n      dup2\n        /* \"contracts/Twitter0.7v.sol\":2560:2570  Tweet_info */\n      0x03\n        /* \"contracts/Twitter0.7v.sol\":2560:2576  Tweet_info[User] */\n      0x00\n        /* \"contracts/Twitter0.7v.sol\":2571:2575  User */\n      dup6\n        /* \"contracts/Twitter0.7v.sol\":2560:2576  Tweet_info[User] */\n      0xffffffffffffffffffffffffffffffffffffffff\n      and\n      0xffffffffffffffffffffffffffffffffffffffff\n      and\n      dup2\n      mstore\n      0x20\n      add\n      swap1\n      dup2\n      mstore\n      0x20\n      add\n      0x00\n      keccak256\n        /* \"contracts/Twitter0.7v.sol\":2560:2583  Tweet_info[User].length */\n      dup1\n      sload\n      swap1\n      pop\n        /* \"contracts/Twitter0.7v.sol\":2560:2589  Tweet_info[User].length >= id */\n      lt\n      iszero\n        /* \"contracts/Twitter0.7v.sol\":2552:2616  require(Tweet_info[User].length >= id, \"This Tweet Not Exist !\") */\n      tag_193\n      jumpi\n      mload(0x40)\n      0x08c379a000000000000000000000000000000000000000000000000000000000\n      dup2\n      mstore\n      0x04\n      add\n      tag_194\n      swap1\n      tag_55\n      jump\t// in\n    tag_194:\n      mload(0x40)\n      dup1\n      swap2\n      sub\n      swap1\n      revert\n    tag_193:\n        /* \"contracts/Twitter0.7v.sol\":2630:2639  uint256 l */\n      0x00\n        /* \"contracts/Twitter0.7v.sol\":2625:2818  for (uint256 l = 0; l < Tweet_info[User][id-1].likes.length; l++) {... */\n    tag_195:\n        /* \"contracts/Twitter0.7v.sol\":2649:2659  Tweet_info */\n      0x03\n        /* \"contracts/Twitter0.7v.sol\":2649:2665  Tweet_info[User] */\n      0x00\n        /* \"contracts/Twitter0.7v.sol\":2660:2664  User */\n      dup6\n        /* \"contracts/Twitter0.7v.sol\":2649:2665  Tweet_info[User] */\n      0xffffffffffffffffffffffffffffffffffffffff\n      and\n      0xffffffffffffffffffffffffffffffffffffffff\n      and\n      dup2\n      mstore\n      0x20\n      add\n      swap1\n      dup2\n      mstore\n      0x20\n      add\n      0x00\n      keccak256\n        /* \"contracts/Twitter0.7v.sol\":2669:2670  1 */\n      0x01\n        /* \"contracts/Twitter0.7v.sol\":2666:2668  id */\n      dup5\n        /* \"contracts/Twitter0.7v.sol\":2666:2670  id-1 */\n      tag_198\n      swap2\n      swap1\n      tag_60\n      jump\t// in\n    tag_198:\n        /* \"contracts/Twitter0.7v.sol\":2649:2671  Tweet_info[User][id-1] */\n      dup2\n      sload\n      dup2\n      lt\n      tag_199\n      jumpi\n      tag_200\n      tag_63\n      jump\t// in\n    tag_200:\n    tag_199:\n      swap1\n      0x00\n      mstore\n      keccak256(0x00, 0x20)\n      swap1\n      0x08\n      mul\n      add\n        /* \"contracts/Twitter0.7v.sol\":2649:2677  Tweet_info[User][id-1].likes */\n      0x04\n      add\n        /* \"contracts/Twitter0.7v.sol\":2649:2684  Tweet_info[User][id-1].likes.length */\n      dup1\n      sload\n      swap1\n      pop\n        /* \"contracts/Twitter0.7v.sol\":2645:2646  l */\n      dup2\n        /* \"contracts/Twitter0.7v.sol\":2645:2684  l < Tweet_info[User][id-1].likes.length */\n      lt\n        /* \"contracts/Twitter0.7v.sol\":2625:2818  for (uint256 l = 0; l < Tweet_info[User][id-1].likes.length; l++) {... */\n      iszero\n      tag_196\n      jumpi\n        /* \"contracts/Twitter0.7v.sol\":2741:2751  msg.sender */\n      caller\n        /* \"contracts/Twitter0.7v.sol\":2706:2751  Tweet_info[User][id-1].likes[l] == msg.sender */\n      0xffffffffffffffffffffffffffffffffffffffff\n      and\n        /* \"contracts/Twitter0.7v.sol\":2706:2716  Tweet_info */\n      0x03\n        /* \"contracts/Twitter0.7v.sol\":2706:2722  Tweet_info[User] */\n      0x00\n        /* \"contracts/Twitter0.7v.sol\":2717:2721  User */\n      dup7\n        /* \"contracts/Twitter0.7v.sol\":2706:2722  Tweet_info[User] */\n      0xffffffffffffffffffffffffffffffffffffffff\n      and\n      0xffffffffffffffffffffffffffffffffffffffff\n      and\n      dup2\n      mstore\n      0x20\n      add\n      swap1\n      dup2\n      mstore\n      0x20\n      add\n      0x00\n      keccak256\n        /* \"contracts/Twitter0.7v.sol\":2726:2727  1 */\n      0x01\n        /* \"contracts/Twitter0.7v.sol\":2723:2725  id */\n      dup6\n        /* \"contracts/Twitter0.7v.sol\":2723:2727  id-1 */\n      tag_202\n      swap2\n      swap1\n      tag_60\n      jump\t// in\n    tag_202:\n        /* \"contracts/Twitter0.7v.sol\":2706:2728  Tweet_info[User][id-1] */\n      dup2\n      sload\n      dup2\n      lt\n      tag_203\n      jumpi\n      tag_204\n      tag_63\n      jump\t// in\n    tag_204:\n    tag_203:\n      swap1\n      0x00\n      mstore\n      keccak256(0x00, 0x20)\n      swap1\n      0x08\n      mul\n      add\n        /* \"contracts/Twitter0.7v.sol\":2706:2734  Tweet_info[User][id-1].likes */\n      0x04\n      add\n        /* \"contracts/Twitter0.7v.sol\":2735:2736  l */\n      dup3\n        /* \"contracts/Twitter0.7v.sol\":2706:2737  Tweet_info[User][id-1].likes[l] */\n      dup2\n      sload\n      dup2\n      lt\n      tag_206\n      jumpi\n      tag_207\n      tag_63\n      jump\t// in\n    tag_207:\n    tag_206:\n      swap1\n      0x00\n      mstore\n      keccak256(0x00, 0x20)\n      add\n      0x00\n      swap1\n      sload\n      swap1\n      0x0100\n      exp\n      swap1\n      div\n      0xffffffffffffffffffffffffffffffffffffffff\n      and\n        /* \"contracts/Twitter0.7v.sol\":2706:2751  Tweet_info[User][id-1].likes[l] == msg.sender */\n      0xffffffffffffffffffffffffffffffffffffffff\n      and\n      sub\n        /* \"contracts/Twitter0.7v.sol\":2702:2811  if (Tweet_info[User][id-1].likes[l] == msg.sender) {... */\n      tag_209\n      jumpi\n        /* \"contracts/Twitter0.7v.sol\":2774:2779  false */\n      0x00\n        /* \"contracts/Twitter0.7v.sol\":2768:2779  res = false */\n      swap2\n      pop\n        /* \"contracts/Twitter0.7v.sol\":2794:2799  break */\n      jump(tag_196)\n        /* \"contracts/Twitter0.7v.sol\":2702:2811  if (Tweet_info[User][id-1].likes[l] == msg.sender) {... */\n    tag_209:\n        /* \"contracts/Twitter0.7v.sol\":2686:2689  l++ */\n      dup1\n      dup1\n      0x01\n      add\n      swap2\n      pop\n      pop\n        /* \"contracts/Twitter0.7v.sol\":2625:2818  for (uint256 l = 0; l < Tweet_info[User][id-1].likes.length; l++) {... */\n      jump(tag_195)\n    tag_196:\n      pop\n        /* \"contracts/Twitter0.7v.sol\":2841:2845  true */\n      0x01\n        /* \"contracts/Twitter0.7v.sol\":2834:2845  res == true */\n      iszero\n      iszero\n        /* \"contracts/Twitter0.7v.sol\":2834:2837  res */\n      dup2\n        /* \"contracts/Twitter0.7v.sol\":2834:2845  res == true */\n      iszero\n      iszero\n      eq\n        /* \"contracts/Twitter0.7v.sol\":2826:2878  require(res == true, \"You Already Liked the tweet!\") */\n      tag_210\n      jumpi\n      mload(0x40)\n      0x08c379a000000000000000000000000000000000000000000000000000000000\n      dup2\n      mstore\n      0x04\n      add\n      tag_211\n      swap1\n      tag_75\n      jump\t// in\n    tag_211:\n      mload(0x40)\n      dup1\n      swap2\n      sub\n      swap1\n      revert\n    tag_210:\n        /* \"contracts/Twitter0.7v.sol\":4417:4421  User */\n      dup5\n        /* \"contracts/Twitter0.7v.sol\":4422:4432  TweetIndex */\n      dup5\n        /* \"contracts/Twitter0.7v.sol\":2956:2964  bool res */\n      0x00\n        /* \"contracts/Twitter0.7v.sol\":2967:2971  true */\n      0x01\n        /* \"contracts/Twitter0.7v.sol\":2956:2971  bool res = true */\n      swap1\n      pop\n        /* \"contracts/Twitter0.7v.sol\":3040:3042  id */\n      dup2\n        /* \"contracts/Twitter0.7v.sol\":3013:3023  Tweet_info */\n      0x03\n        /* \"contracts/Twitter0.7v.sol\":3013:3029  Tweet_info[User] */\n      0x00\n        /* \"contracts/Twitter0.7v.sol\":3024:3028  User */\n      dup6\n        /* \"contracts/Twitter0.7v.sol\":3013:3029  Tweet_info[User] */\n      0xffffffffffffffffffffffffffffffffffffffff\n      and\n      0xffffffffffffffffffffffffffffffffffffffff\n      and\n      dup2\n      mstore\n      0x20\n      add\n      swap1\n      dup2\n      mstore\n      0x20\n      add\n      0x00\n      keccak256\n        /* \"contracts/Twitter0.7v.sol\":3013:3036  Tweet_info[User].length */\n      dup1\n      sload\n      swap1\n      pop\n        /* \"contracts/Twitter0.7v.sol\":3013:3042  Tweet_info[User].length >= id */\n      lt\n      iszero\n        /* \"contracts/Twitter0.7v.sol\":3005:3069  require(Tweet_info[User].length >= id, \"This Tweet Not Exist !\") */\n      tag_213\n      jumpi\n      mload(0x40)\n      0x08c379a000000000000000000000000000000000000000000000000000000000\n      dup2\n      mstore\n      0x04\n      add\n      tag_214\n      swap1\n      tag_55\n      jump\t// in\n    tag_214:\n      mload(0x40)\n      dup1\n      swap2\n      sub\n      swap1\n      revert\n    tag_213:\n        /* \"contracts/Twitter0.7v.sol\":3083:3092  uint256 l */\n      0x00\n        /* \"contracts/Twitter0.7v.sol\":3078:3275  for (uint256 l = 0; l < Tweet_info[User][id-1].unlikes.length; l++) {... */\n    tag_215:\n        /* \"contracts/Twitter0.7v.sol\":3102:3112  Tweet_info */\n      0x03\n        /* \"contracts/Twitter0.7v.sol\":3102:3118  Tweet_info[User] */\n      0x00\n        /* \"contracts/Twitter0.7v.sol\":3113:3117  User */\n      dup6\n        /* \"contracts/Twitter0.7v.sol\":3102:3118  Tweet_info[User] */\n      0xffffffffffffffffffffffffffffffffffffffff\n      and\n      0xffffffffffffffffffffffffffffffffffffffff\n      and\n      dup2\n      mstore\n      0x20\n      add\n      swap1\n      dup2\n      mstore\n      0x20\n      add\n      0x00\n      keccak256\n        /* \"contracts/Twitter0.7v.sol\":3122:3123  1 */\n      0x01\n        /* \"contracts/Twitter0.7v.sol\":3119:3121  id */\n      dup5\n        /* \"contracts/Twitter0.7v.sol\":3119:3123  id-1 */\n      tag_218\n      swap2\n      swap1\n      tag_60\n      jump\t// in\n    tag_218:\n        /* \"contracts/Twitter0.7v.sol\":3102:3124  Tweet_info[User][id-1] */\n      dup2\n      sload\n      dup2\n      lt\n      tag_219\n      jumpi\n      tag_220\n      tag_63\n      jump\t// in\n    tag_220:\n    tag_219:\n      swap1\n      0x00\n      mstore\n      keccak256(0x00, 0x20)\n      swap1\n      0x08\n      mul\n      add\n        /* \"contracts/Twitter0.7v.sol\":3102:3132  Tweet_info[User][id-1].unlikes */\n      0x07\n      add\n        /* \"contracts/Twitter0.7v.sol\":3102:3139  Tweet_info[User][id-1].unlikes.length */\n      dup1\n      sload\n      swap1\n      pop\n        /* \"contracts/Twitter0.7v.sol\":3098:3099  l */\n      dup2\n        /* \"contracts/Twitter0.7v.sol\":3098:3139  l < Tweet_info[User][id-1].unlikes.length */\n      lt\n        /* \"contracts/Twitter0.7v.sol\":3078:3275  for (uint256 l = 0; l < Tweet_info[User][id-1].unlikes.length; l++) {... */\n      iszero\n      tag_216\n      jumpi\n        /* \"contracts/Twitter0.7v.sol\":3198:3208  msg.sender */\n      caller\n        /* \"contracts/Twitter0.7v.sol\":3161:3208  Tweet_info[User][id-1].unlikes[l] == msg.sender */\n      0xffffffffffffffffffffffffffffffffffffffff\n      and\n        /* \"contracts/Twitter0.7v.sol\":3161:3171  Tweet_info */\n      0x03\n        /* \"contracts/Twitter0.7v.sol\":3161:3177  Tweet_info[User] */\n      0x00\n        /* \"contracts/Twitter0.7v.sol\":3172:3176  User */\n      dup7\n        /* \"contracts/Twitter0.7v.sol\":3161:3177  Tweet_info[User] */\n      0xffffffffffffffffffffffffffffffffffffffff\n      and\n      0xffffffffffffffffffffffffffffffffffffffff\n      and\n      dup2\n      mstore\n      0x20\n      add\n      swap1\n      dup2\n      mstore\n      0x20\n      add\n      0x00\n      keccak256\n        /* \"contracts/Twitter0.7v.sol\":3181:3182  1 */\n      0x01\n        /* \"contracts/Twitter0.7v.sol\":3178:3180  id */\n      dup6\n        /* \"contracts/Twitter0.7v.sol\":3178:3182  id-1 */\n      tag_222\n      swap2\n      swap1\n      tag_60\n      jump\t// in\n    tag_222:\n        /* \"contracts/Twitter0.7v.sol\":3161:3183  Tweet_info[User][id-1] */\n      dup2\n      sload\n      dup2\n      lt\n      tag_223\n      jumpi\n      tag_224\n      tag_63\n      jump\t// in\n    tag_224:\n    tag_223:\n      swap1\n      0x00\n      mstore\n      keccak256(0x00, 0x20)\n      swap1\n      0x08\n      mul\n      add\n        /* \"contracts/Twitter0.7v.sol\":3161:3191  Tweet_info[User][id-1].unlikes */\n      0x07\n      add\n        /* \"contracts/Twitter0.7v.sol\":3192:3193  l */\n      dup3\n        /* \"contracts/Twitter0.7v.sol\":3161:3194  Tweet_info[User][id-1].unlikes[l] */\n      dup2\n      sload\n      dup2\n      lt\n      tag_226\n      jumpi\n      tag_227\n      tag_63\n      jump\t// in\n    tag_227:\n    tag_226:\n      swap1\n      0x00\n      mstore\n      keccak256(0x00, 0x20)\n      add\n      0x00\n      swap1\n      sload\n      swap1\n      0x0100\n      exp\n      swap1\n      div\n      0xffffffffffffffffffffffffffffffffffffffff\n      and\n        /* \"contracts/Twitter0.7v.sol\":3161:3208  Tweet_info[User][id-1].unlikes[l] == msg.sender */\n      0xffffffffffffffffffffffffffffffffffffffff\n      and\n      sub\n        /* \"contracts/Twitter0.7v.sol\":3157:3268  if (Tweet_info[User][id-1].unlikes[l] == msg.sender) {... */\n      tag_229\n      jumpi\n        /* \"contracts/Twitter0.7v.sol\":3231:3236  false */\n      0x00\n        /* \"contracts/Twitter0.7v.sol\":3225:3236  res = false */\n      swap2\n      pop\n        /* \"contracts/Twitter0.7v.sol\":3251:3256  break */\n      jump(tag_216)\n        /* \"contracts/Twitter0.7v.sol\":3157:3268  if (Tweet_info[User][id-1].unlikes[l] == msg.sender) {... */\n    tag_229:\n        /* \"contracts/Twitter0.7v.sol\":3141:3144  l++ */\n      dup1\n      dup1\n      0x01\n      add\n      swap2\n      pop\n      pop\n        /* \"contracts/Twitter0.7v.sol\":3078:3275  for (uint256 l = 0; l < Tweet_info[User][id-1].unlikes.length; l++) {... */\n      jump(tag_215)\n    tag_216:\n      pop\n        /* \"contracts/Twitter0.7v.sol\":3298:3302  true */\n      0x01\n        /* \"contracts/Twitter0.7v.sol\":3291:3302  res == true */\n      iszero\n      iszero\n        /* \"contracts/Twitter0.7v.sol\":3291:3294  res */\n      dup2\n        /* \"contracts/Twitter0.7v.sol\":3291:3302  res == true */\n      iszero\n      iszero\n      eq\n        /* \"contracts/Twitter0.7v.sol\":3283:3337  require(res == true, \"You Already UnLiked the tweet!\") */\n      tag_230\n      jumpi\n      mload(0x40)\n      0x08c379a000000000000000000000000000000000000000000000000000000000\n      dup2\n      mstore\n      0x04\n      add\n      tag_231\n      swap1\n      tag_96\n      jump\t// in\n    tag_231:\n      mload(0x40)\n      dup1\n      swap2\n      sub\n      swap1\n      revert\n    tag_230:\n        /* \"contracts/Twitter0.7v.sol\":4466:4476  msg.sender */\n      caller\n        /* \"contracts/Twitter0.7v.sol\":4458:4476  User != msg.sender */\n      0xffffffffffffffffffffffffffffffffffffffff\n      and\n        /* \"contracts/Twitter0.7v.sol\":4458:4462  User */\n      dup9\n        /* \"contracts/Twitter0.7v.sol\":4458:4476  User != msg.sender */\n      0xffffffffffffffffffffffffffffffffffffffff\n      and\n      sub\n        /* \"contracts/Twitter0.7v.sol\":4450:4526  require(User != msg.sender,\"This is Your Tweet!You cann't Like Your Tweet!\") */\n      tag_233\n      jumpi\n      mload(0x40)\n      0x08c379a000000000000000000000000000000000000000000000000000000000\n      dup2\n      mstore\n      0x04\n      add\n      tag_234\n      swap1\n      tag_100\n      jump\t// in\n    tag_234:\n      mload(0x40)\n      dup1\n      swap2\n      sub\n      swap1\n      revert\n    tag_233:\n        /* \"contracts/Twitter0.7v.sol\":4537:4547  Tweet_info */\n      0x03\n        /* \"contracts/Twitter0.7v.sol\":4537:4553  Tweet_info[User] */\n      0x00\n        /* \"contracts/Twitter0.7v.sol\":4548:4552  User */\n      dup10\n        /* \"contracts/Twitter0.7v.sol\":4537:4553  Tweet_info[User] */\n      0xffffffffffffffffffffffffffffffffffffffff\n      and\n      0xffffffffffffffffffffffffffffffffffffffff\n      and\n      dup2\n      mstore\n      0x20\n      add\n      swap1\n      dup2\n      mstore\n      0x20\n      add\n      0x00\n      keccak256\n        /* \"contracts/Twitter0.7v.sol\":4565:4566  1 */\n      0x01\n        /* \"contracts/Twitter0.7v.sol\":4554:4564  TweetIndex */\n      dup9\n        /* \"contracts/Twitter0.7v.sol\":4554:4566  TweetIndex-1 */\n      tag_235\n      swap2\n      swap1\n      tag_60\n      jump\t// in\n    tag_235:\n        /* \"contracts/Twitter0.7v.sol\":4537:4567  Tweet_info[User][TweetIndex-1] */\n      dup2\n      sload\n      dup2\n      lt\n      tag_236\n      jumpi\n      tag_237\n      tag_63\n      jump\t// in\n    tag_237:\n    tag_236:\n      swap1\n      0x00\n      mstore\n      keccak256(0x00, 0x20)\n      swap1\n      0x08\n      mul\n      add\n        /* \"contracts/Twitter0.7v.sol\":4537:4575  Tweet_info[User][TweetIndex-1].unlikes */\n      0x07\n      add\n        /* \"contracts/Twitter0.7v.sol\":4581:4591  msg.sender */\n      caller\n        /* \"contracts/Twitter0.7v.sol\":4537:4592  Tweet_info[User][TweetIndex-1].unlikes.push(msg.sender) */\n      swap1\n      dup1\n      0x01\n      dup2\n      sload\n      add\n      dup1\n      dup3\n      sstore\n      dup1\n      swap2\n      pop\n      pop\n      0x01\n      swap1\n      sub\n      swap1\n      0x00\n      mstore\n      keccak256(0x00, 0x20)\n      add\n      0x00\n      swap1\n      swap2\n      swap1\n      swap2\n      swap1\n      swap2\n      0x0100\n      exp\n      dup2\n      sload\n      dup2\n      0xffffffffffffffffffffffffffffffffffffffff\n      mul\n      not\n      and\n      swap1\n      dup4\n      0xffffffffffffffffffffffffffffffffffffffff\n      and\n      mul\n      or\n      swap1\n      sstore\n      pop\n        /* \"contracts/Twitter0.7v.sol\":4603:4613  Tweet_info */\n      0x03\n        /* \"contracts/Twitter0.7v.sol\":4603:4619  Tweet_info[User] */\n      0x00\n        /* \"contracts/Twitter0.7v.sol\":4614:4618  User */\n      dup10\n        /* \"contracts/Twitter0.7v.sol\":4603:4619  Tweet_info[User] */\n      0xffffffffffffffffffffffffffffffffffffffff\n      and\n      0xffffffffffffffffffffffffffffffffffffffff\n      and\n      dup2\n      mstore\n      0x20\n      add\n      swap1\n      dup2\n      mstore\n      0x20\n      add\n      0x00\n      keccak256\n        /* \"contracts/Twitter0.7v.sol\":4631:4632  1 */\n      0x01\n        /* \"contracts/Twitter0.7v.sol\":4620:4630  TweetIndex */\n      dup9\n        /* \"contracts/Twitter0.7v.sol\":4620:4632  TweetIndex-1 */\n      tag_240\n      swap2\n      swap1\n      tag_60\n      jump\t// in\n    tag_240:\n        /* \"contracts/Twitter0.7v.sol\":4603:4633  Tweet_info[User][TweetIndex-1] */\n      dup2\n      sload\n      dup2\n      lt\n      tag_241\n      jumpi\n      tag_242\n      tag_63\n      jump\t// in\n    tag_242:\n    tag_241:\n      swap1\n      0x00\n      mstore\n      keccak256(0x00, 0x20)\n      swap1\n      0x08\n      mul\n      add\n        /* \"contracts/Twitter0.7v.sol\":4603:4646  Tweet_info[User][TweetIndex-1].unlikescount */\n      0x06\n      add\n      0x00\n        /* \"contracts/Twitter0.7v.sol\":4603:4648  Tweet_info[User][TweetIndex-1].unlikescount++ */\n      dup2\n      sload\n      dup1\n      swap3\n      swap2\n      swap1\n      tag_244\n      swap1\n      tag_111\n      jump\t// in\n    tag_244:\n      swap2\n      swap1\n      pop\n      sstore\n      pop\n        /* \"contracts/Twitter0.7v.sol\":2949:3349  {... */\n      pop\n        /* \"contracts/Twitter0.7v.sol\":2885:2886  _ */\n      pop\n      pop\n        /* \"contracts/Twitter0.7v.sol\":2496:2890  {... */\n      pop\n        /* \"contracts/Twitter0.7v.sol\":4294:4666  function UnlikeTweet(address User,uint256 TweetIndex)external ... */\n      pop\n      pop\n      pop\n      pop\n      jump\t// out\n        /* \"contracts/Twitter0.7v.sol\":4997:5325  function getTotalUnLikes(address author) view  external returns (uint256) ... */\n    tag_46:\n        /* \"contracts/Twitter0.7v.sol\":5062:5069  uint256 */\n      0x00\n        /* \"contracts/Twitter0.7v.sol\":5088:5108  uint256 TotalUnlikes */\n      dup1\n        /* \"contracts/Twitter0.7v.sol\":5111:5112  0 */\n      0x00\n        /* \"contracts/Twitter0.7v.sol\":5088:5112  uint256 TotalUnlikes = 0 */\n      swap1\n      pop\n        /* \"contracts/Twitter0.7v.sol\":5129:5138  uint256 i */\n      0x00\n        /* \"contracts/Twitter0.7v.sol\":5125:5274  for(uint256 i=0;i<Tweet_info[author].length;i++)... */\n    tag_246:\n        /* \"contracts/Twitter0.7v.sol\":5143:5153  Tweet_info */\n      0x03\n        /* \"contracts/Twitter0.7v.sol\":5143:5161  Tweet_info[author] */\n      0x00\n        /* \"contracts/Twitter0.7v.sol\":5154:5160  author */\n      dup6\n        /* \"contracts/Twitter0.7v.sol\":5143:5161  Tweet_info[author] */\n      0xffffffffffffffffffffffffffffffffffffffff\n      and\n      0xffffffffffffffffffffffffffffffffffffffff\n      and\n      dup2\n      mstore\n      0x20\n      add\n      swap1\n      dup2\n      mstore\n      0x20\n      add\n      0x00\n      keccak256\n        /* \"contracts/Twitter0.7v.sol\":5143:5168  Tweet_info[author].length */\n      dup1\n      sload\n      swap1\n      pop\n        /* \"contracts/Twitter0.7v.sol\":5141:5142  i */\n      dup2\n        /* \"contracts/Twitter0.7v.sol\":5141:5168  i<Tweet_info[author].length */\n      lt\n        /* \"contracts/Twitter0.7v.sol\":5125:5274  for(uint256 i=0;i<Tweet_info[author].length;i++)... */\n      iszero\n      tag_247\n      jumpi\n        /* \"contracts/Twitter0.7v.sol\":5228:5238  Tweet_info */\n      0x03\n        /* \"contracts/Twitter0.7v.sol\":5228:5246  Tweet_info[author] */\n      0x00\n        /* \"contracts/Twitter0.7v.sol\":5239:5245  author */\n      dup6\n        /* \"contracts/Twitter0.7v.sol\":5228:5246  Tweet_info[author] */\n      0xffffffffffffffffffffffffffffffffffffffff\n      and\n      0xffffffffffffffffffffffffffffffffffffffff\n      and\n      dup2\n      mstore\n      0x20\n      add\n      swap1\n      dup2\n      mstore\n      0x20\n      add\n      0x00\n      keccak256\n        /* \"contracts/Twitter0.7v.sol\":5247:5248  i */\n      dup2\n        /* \"contracts/Twitter0.7v.sol\":5228:5249  Tweet_info[author][i] */\n      dup2\n      sload\n      dup2\n      lt\n      tag_249\n      jumpi\n      tag_250\n      tag_63\n      jump\t// in\n    tag_250:\n    tag_249:\n      swap1\n      0x00\n      mstore\n      keccak256(0x00, 0x20)\n      swap1\n      0x08\n      mul\n      add\n        /* \"contracts/Twitter0.7v.sol\":5228:5262  Tweet_info[author][i].unlikescount */\n      0x06\n      add\n      sload\n        /* \"contracts/Twitter0.7v.sol\":5213:5225  TotalUnlikes */\n      dup3\n        /* \"contracts/Twitter0.7v.sol\":5213:5262  TotalUnlikes + Tweet_info[author][i].unlikescount */\n      tag_252\n      swap2\n      swap1\n      tag_170\n      jump\t// in\n    tag_252:\n        /* \"contracts/Twitter0.7v.sol\":5198:5262  TotalUnlikes = TotalUnlikes + Tweet_info[author][i].unlikescount */\n      swap2\n      pop\n        /* \"contracts/Twitter0.7v.sol\":5169:5172  i++ */\n      dup1\n      dup1\n      0x01\n      add\n      swap2\n      pop\n      pop\n        /* \"contracts/Twitter0.7v.sol\":5125:5274  for(uint256 i=0;i<Tweet_info[author].length;i++)... */\n      jump(tag_246)\n    tag_247:\n      pop\n        /* \"contracts/Twitter0.7v.sol\":5293:5305  TotalUnlikes */\n      dup1\n        /* \"contracts/Twitter0.7v.sol\":5286:5305  return TotalUnlikes */\n      swap2\n      pop\n      pop\n        /* \"contracts/Twitter0.7v.sol\":4997:5325  function getTotalUnLikes(address author) view  external returns (uint256) ... */\n      swap2\n      swap1\n      pop\n      jump\t// out\n        /* \"contracts/Twitter0.7v.sol\":1051:1156  function ChangeTweetLength(uint256 newTweetLen)public isOwner{... */\n    tag_51:\n        /* \"contracts/Twitter0.7v.sol\":971:981  msg.sender */\n      caller\n        /* \"contracts/Twitter0.7v.sol\":962:981  owner == msg.sender */\n      0xffffffffffffffffffffffffffffffffffffffff\n      and\n        /* \"contracts/Twitter0.7v.sol\":962:967  owner */\n      0x00\n      dup1\n      sload\n      swap1\n      0x0100\n      exp\n      swap1\n      div\n      0xffffffffffffffffffffffffffffffffffffffff\n      and\n        /* \"contracts/Twitter0.7v.sol\":962:981  owner == msg.sender */\n      0xffffffffffffffffffffffffffffffffffffffff\n      and\n      eq\n        /* \"contracts/Twitter0.7v.sol\":954:1023  require(owner == msg.sender,\"You are not a Owner!Permission Denied!\") */\n      tag_254\n      jumpi\n      mload(0x40)\n      0x08c379a000000000000000000000000000000000000000000000000000000000\n      dup2\n      mstore\n      0x04\n      add\n      tag_255\n      swap1\n      tag_256\n      jump\t// in\n    tag_255:\n      mload(0x40)\n      dup1\n      swap2\n      sub\n      swap1\n      revert\n    tag_254:\n        /* \"contracts/Twitter0.7v.sol\":1137:1148  newTweetLen */\n      dup1\n        /* \"contracts/Twitter0.7v.sol\":1123:1134  TweetLength */\n      0x01\n        /* \"contracts/Twitter0.7v.sol\":1123:1148  TweetLength = newTweetLen */\n      dup2\n      swap1\n      sstore\n      pop\n        /* \"contracts/Twitter0.7v.sol\":1051:1156  function ChangeTweetLength(uint256 newTweetLen)public isOwner{... */\n      pop\n      jump\t// out\n    tag_123:\n      mload(0x40)\n      dup1\n      0x0100\n      add\n      0x40\n      mstore\n      dup1\n      0x00\n      dup2\n      mstore\n      0x20\n      add\n      0x60\n      dup2\n      mstore\n      0x20\n      add\n      and(0xffffffffffffffffffffffffffffffffffffffff, 0x00)\n      dup2\n      mstore\n      0x20\n      add\n      0x00\n      dup2\n      mstore\n      0x20\n      add\n      0x60\n      dup2\n      mstore\n      0x20\n      add\n      0x00\n      dup2\n      mstore\n      0x20\n      add\n      0x00\n      dup2\n      mstore\n      0x20\n      add\n      0x60\n      dup2\n      mstore\n      pop\n      swap1\n      jump\t// out\n    tag_158:\n      pop\n      dup1\n      sload\n      tag_258\n      swap1\n      tag_130\n      jump\t// in\n    tag_258:\n      0x00\n      dup3\n      sstore\n      dup1\n      0x1f\n      lt\n      tag_260\n      jumpi\n      pop\n      jump(tag_259)\n    tag_260:\n      0x1f\n      add\n      0x20\n      swap1\n      div\n      swap1\n      0x00\n      mstore\n      keccak256(0x00, 0x20)\n      swap1\n      dup2\n      add\n      swap1\n      tag_261\n      swap2\n      swap1\n      tag_262\n      jump\t// in\n    tag_261:\n    tag_259:\n      pop\n      jump\t// out\n    tag_160:\n      pop\n      dup1\n      sload\n      0x00\n      dup3\n      sstore\n      swap1\n      0x00\n      mstore\n      keccak256(0x00, 0x20)\n      swap1\n      dup2\n      add\n      swap1\n      tag_264\n      swap2\n      swap1\n      tag_262\n      jump\t// in\n    tag_264:\n      pop\n      jump\t// out\n    tag_164:\n      pop\n      dup1\n      sload\n      0x00\n      dup3\n      sstore\n      0x08\n      mul\n      swap1\n      0x00\n      mstore\n      keccak256(0x00, 0x20)\n      swap1\n      dup2\n      add\n      swap1\n      tag_266\n      swap2\n      swap1\n      tag_267\n      jump\t// in\n    tag_266:\n      pop\n      jump\t// out\n    tag_179:\n      dup3\n      dup1\n      sload\n      dup3\n      dup3\n      sstore\n      swap1\n      0x00\n      mstore\n      keccak256(0x00, 0x20)\n      swap1\n      dup2\n      add\n      swap3\n      dup3\n      iszero\n      tag_268\n      jumpi\n      swap2\n      0x20\n      mul\n      dup3\n      add\n    tag_269:\n      dup3\n      dup2\n      gt\n      iszero\n      tag_270\n      jumpi\n      dup3\n      mload\n      dup3\n      exp(0x0100, 0x00)\n      dup2\n      sload\n      dup2\n      0xffffffffffffffffffffffffffffffffffffffff\n      mul\n      not\n      and\n      swap1\n      dup4\n      0xffffffffffffffffffffffffffffffffffffffff\n      and\n      mul\n      or\n      swap1\n      sstore\n      pop\n      swap2\n      0x20\n      add\n      swap2\n      swap1\n      0x01\n      add\n      swap1\n      jump(tag_269)\n    tag_270:\n    tag_268:\n      pop\n      swap1\n      pop\n      tag_271\n      swap2\n      swap1\n      tag_262\n      jump\t// in\n    tag_271:\n      pop\n      swap1\n      jump\t// out\n    tag_262:\n    tag_272:\n      dup1\n      dup3\n      gt\n      iszero\n      tag_273\n      jumpi\n      0x00\n      dup2\n      0x00\n      swap1\n      sstore\n      pop\n      0x01\n      add\n      jump(tag_272)\n    tag_273:\n      pop\n      swap1\n      jump\t// out\n    tag_267:\n    tag_274:\n      dup1\n      dup3\n      gt\n      iszero\n      tag_275\n      jumpi\n      0x00\n      dup1\n      dup3\n      add\n      0x00\n      swap1\n      sstore\n      0x01\n      dup3\n      add\n      0x00\n      tag_276\n      swap2\n      swap1\n      tag_158\n      jump\t// in\n    tag_276:\n      0x02\n      dup3\n      add\n      exp(0x0100, 0x00)\n      dup2\n      sload\n      swap1\n      0xffffffffffffffffffffffffffffffffffffffff\n      mul\n      not\n      and\n      swap1\n      sstore\n      0x03\n      dup3\n      add\n      0x00\n      swap1\n      sstore\n      0x04\n      dup3\n      add\n      0x00\n      tag_277\n      swap2\n      swap1\n      tag_160\n      jump\t// in\n    tag_277:\n      0x05\n      dup3\n      add\n      0x00\n      swap1\n      sstore\n      0x06\n      dup3\n      add\n      0x00\n      swap1\n      sstore\n      0x07\n      dup3\n      add\n      0x00\n      tag_278\n      swap2\n      swap1\n      tag_160\n      jump\t// in\n    tag_278:\n      pop\n      0x08\n      add\n      jump(tag_274)\n    tag_275:\n      pop\n      swap1\n      jump\t// out\n        /* \"#utility.yul\":7:82   */\n    tag_279:\n        /* \"#utility.yul\":40:46   */\n      0x00\n        /* \"#utility.yul\":73:75   */\n      0x40\n        /* \"#utility.yul\":67:76   */\n      mload\n        /* \"#utility.yul\":57:76   */\n      swap1\n      pop\n        /* \"#utility.yul\":7:82   */\n      swap1\n      jump\t// out\n        /* \"#utility.yul\":88:205   */\n    tag_280:\n        /* \"#utility.yul\":197:198   */\n      0x00\n        /* \"#utility.yul\":194:195   */\n      dup1\n        /* \"#utility.yul\":187:199   */\n      revert\n        /* \"#utility.yul\":211:328   */\n    tag_281:\n        /* \"#utility.yul\":320:321   */\n      0x00\n        /* \"#utility.yul\":317:318   */\n      dup1\n        /* \"#utility.yul\":310:322   */\n      revert\n        /* \"#utility.yul\":334:460   */\n    tag_282:\n        /* \"#utility.yul\":371:378   */\n      0x00\n        /* \"#utility.yul\":411:453   */\n      0xffffffffffffffffffffffffffffffffffffffff\n        /* \"#utility.yul\":404:409   */\n      dup3\n        /* \"#utility.yul\":400:454   */\n      and\n        /* \"#utility.yul\":389:454   */\n      swap1\n      pop\n        /* \"#utility.yul\":334:460   */\n      swap2\n      swap1\n      pop\n      jump\t// out\n        /* \"#utility.yul\":466:562   */\n    tag_283:\n        /* \"#utility.yul\":503:510   */\n      0x00\n        /* \"#utility.yul\":532:556   */\n      tag_358\n        /* \"#utility.yul\":550:555   */\n      dup3\n        /* \"#utility.yul\":532:556   */\n      tag_282\n      jump\t// in\n    tag_358:\n        /* \"#utility.yul\":521:556   */\n      swap1\n      pop\n        /* \"#utility.yul\":466:562   */\n      swap2\n      swap1\n      pop\n      jump\t// out\n        /* \"#utility.yul\":568:690   */\n    tag_284:\n        /* \"#utility.yul\":641:665   */\n      tag_360\n        /* \"#utility.yul\":659:664   */\n      dup2\n        /* \"#utility.yul\":641:665   */\n      tag_283\n      jump\t// in\n    tag_360:\n        /* \"#utility.yul\":634:639   */\n      dup2\n        /* \"#utility.yul\":631:666   */\n      eq\n        /* \"#utility.yul\":621:684   */\n      tag_361\n      jumpi\n        /* \"#utility.yul\":680:681   */\n      0x00\n        /* \"#utility.yul\":677:678   */\n      dup1\n        /* \"#utility.yul\":670:682   */\n      revert\n        /* \"#utility.yul\":621:684   */\n    tag_361:\n        /* \"#utility.yul\":568:690   */\n      pop\n      jump\t// out\n        /* \"#utility.yul\":696:835   */\n    tag_285:\n        /* \"#utility.yul\":742:747   */\n      0x00\n        /* \"#utility.yul\":780:786   */\n      dup2\n        /* \"#utility.yul\":767:787   */\n      calldataload\n        /* \"#utility.yul\":758:787   */\n      swap1\n      pop\n        /* \"#utility.yul\":796:829   */\n      tag_363\n        /* \"#utility.yul\":823:828   */\n      dup2\n        /* \"#utility.yul\":796:829   */\n      tag_284\n      jump\t// in\n    tag_363:\n        /* \"#utility.yul\":696:835   */\n      swap3\n      swap2\n      pop\n      pop\n      jump\t// out\n        /* \"#utility.yul\":841:918   */\n    tag_286:\n        /* \"#utility.yul\":878:885   */\n      0x00\n        /* \"#utility.yul\":907:912   */\n      dup2\n        /* \"#utility.yul\":896:912   */\n      swap1\n      pop\n        /* \"#utility.yul\":841:918   */\n      swap2\n      swap1\n      pop\n      jump\t// out\n        /* \"#utility.yul\":924:1046   */\n    tag_287:\n        /* \"#utility.yul\":997:1021   */\n      tag_366\n        /* \"#utility.yul\":1015:1020   */\n      dup2\n        /* \"#utility.yul\":997:1021   */\n      tag_286\n      jump\t// in\n    tag_366:\n        /* \"#utility.yul\":990:995   */\n      dup2\n        /* \"#utility.yul\":987:1022   */\n      eq\n        /* \"#utility.yul\":977:1040   */\n      tag_367\n      jumpi\n        /* \"#utility.yul\":1036:1037   */\n      0x00\n        /* \"#utility.yul\":1033:1034   */\n      dup1\n        /* \"#utility.yul\":1026:1038   */\n      revert\n        /* \"#utility.yul\":977:1040   */\n    tag_367:\n        /* \"#utility.yul\":924:1046   */\n      pop\n      jump\t// out\n        /* \"#utility.yul\":1052:1191   */\n    tag_288:\n        /* \"#utility.yul\":1098:1103   */\n      0x00\n        /* \"#utility.yul\":1136:1142   */\n      dup2\n        /* \"#utility.yul\":1123:1143   */\n      calldataload\n        /* \"#utility.yul\":1114:1143   */\n      swap1\n      pop\n        /* \"#utility.yul\":1152:1185   */\n      tag_369\n        /* \"#utility.yul\":1179:1184   */\n      dup2\n        /* \"#utility.yul\":1152:1185   */\n      tag_287\n      jump\t// in\n    tag_369:\n        /* \"#utility.yul\":1052:1191   */\n      swap3\n      swap2\n      pop\n      pop\n      jump\t// out\n        /* \"#utility.yul\":1197:1671   */\n    tag_16:\n        /* \"#utility.yul\":1265:1271   */\n      0x00\n        /* \"#utility.yul\":1273:1279   */\n      dup1\n        /* \"#utility.yul\":1322:1324   */\n      0x40\n        /* \"#utility.yul\":1310:1319   */\n      dup4\n        /* \"#utility.yul\":1301:1308   */\n      dup6\n        /* \"#utility.yul\":1297:1320   */\n      sub\n        /* \"#utility.yul\":1293:1325   */\n      slt\n        /* \"#utility.yul\":1290:1409   */\n      iszero\n      tag_371\n      jumpi\n        /* \"#utility.yul\":1328:1407   */\n      tag_372\n      tag_280\n      jump\t// in\n    tag_372:\n        /* \"#utility.yul\":1290:1409   */\n    tag_371:\n        /* \"#utility.yul\":1448:1449   */\n      0x00\n        /* \"#utility.yul\":1473:1526   */\n      tag_373\n        /* \"#utility.yul\":1518:1525   */\n      dup6\n        /* \"#utility.yul\":1509:1515   */\n      dup3\n        /* \"#utility.yul\":1498:1507   */\n      dup7\n        /* \"#utility.yul\":1494:1516   */\n      add\n        /* \"#utility.yul\":1473:1526   */\n      tag_285\n      jump\t// in\n    tag_373:\n        /* \"#utility.yul\":1463:1526   */\n      swap3\n      pop\n        /* \"#utility.yul\":1419:1536   */\n      pop\n        /* \"#utility.yul\":1575:1577   */\n      0x20\n        /* \"#utility.yul\":1601:1654   */\n      tag_374\n        /* \"#utility.yul\":1646:1653   */\n      dup6\n        /* \"#utility.yul\":1637:1643   */\n      dup3\n        /* \"#utility.yul\":1626:1635   */\n      dup7\n        /* \"#utility.yul\":1622:1644   */\n      add\n        /* \"#utility.yul\":1601:1654   */\n      tag_288\n      jump\t// in\n    tag_374:\n        /* \"#utility.yul\":1591:1654   */\n      swap2\n      pop\n        /* \"#utility.yul\":1546:1664   */\n      pop\n        /* \"#utility.yul\":1197:1671   */\n      swap3\n      pop\n      swap3\n      swap1\n      pop\n      jump\t// out\n        /* \"#utility.yul\":1677:1785   */\n    tag_289:\n        /* \"#utility.yul\":1754:1778   */\n      tag_376\n        /* \"#utility.yul\":1772:1777   */\n      dup2\n        /* \"#utility.yul\":1754:1778   */\n      tag_286\n      jump\t// in\n    tag_376:\n        /* \"#utility.yul\":1749:1752   */\n      dup3\n        /* \"#utility.yul\":1742:1779   */\n      mstore\n        /* \"#utility.yul\":1677:1785   */\n      pop\n      pop\n      jump\t// out\n        /* \"#utility.yul\":1791:1890   */\n    tag_290:\n        /* \"#utility.yul\":1843:1849   */\n      0x00\n        /* \"#utility.yul\":1877:1882   */\n      dup2\n        /* \"#utility.yul\":1871:1883   */\n      mload\n        /* \"#utility.yul\":1861:1883   */\n      swap1\n      pop\n        /* \"#utility.yul\":1791:1890   */\n      swap2\n      swap1\n      pop\n      jump\t// out\n        /* \"#utility.yul\":1896:2055   */\n    tag_291:\n        /* \"#utility.yul\":1970:1981   */\n      0x00\n        /* \"#utility.yul\":2004:2010   */\n      dup3\n        /* \"#utility.yul\":1999:2002   */\n      dup3\n        /* \"#utility.yul\":1992:2011   */\n      mstore\n        /* \"#utility.yul\":2044:2048   */\n      0x20\n        /* \"#utility.yul\":2039:2042   */\n      dup3\n        /* \"#utility.yul\":2035:2049   */\n      add\n        /* \"#utility.yul\":2020:2049   */\n      swap1\n      pop\n        /* \"#utility.yul\":1896:2055   */\n      swap3\n      swap2\n      pop\n      pop\n      jump\t// out\n        /* \"#utility.yul\":2061:2307   */\n    tag_292:\n        /* \"#utility.yul\":2142:2143   */\n      0x00\n        /* \"#utility.yul\":2152:2265   */\n    tag_380:\n        /* \"#utility.yul\":2166:2172   */\n      dup4\n        /* \"#utility.yul\":2163:2164   */\n      dup2\n        /* \"#utility.yul\":2160:2173   */\n      lt\n        /* \"#utility.yul\":2152:2265   */\n      iszero\n      tag_382\n      jumpi\n        /* \"#utility.yul\":2251:2252   */\n      dup1\n        /* \"#utility.yul\":2246:2249   */\n      dup3\n        /* \"#utility.yul\":2242:2253   */\n      add\n        /* \"#utility.yul\":2236:2254   */\n      mload\n        /* \"#utility.yul\":2232:2233   */\n      dup2\n        /* \"#utility.yul\":2227:2230   */\n      dup5\n        /* \"#utility.yul\":2223:2234   */\n      add\n        /* \"#utility.yul\":2216:2255   */\n      mstore\n        /* \"#utility.yul\":2188:2190   */\n      0x20\n        /* \"#utility.yul\":2185:2186   */\n      dup2\n        /* \"#utility.yul\":2181:2191   */\n      add\n        /* \"#utility.yul\":2176:2191   */\n      swap1\n      pop\n        /* \"#utility.yul\":2152:2265   */\n      jump(tag_380)\n    tag_382:\n        /* \"#utility.yul\":2299:2300   */\n      0x00\n        /* \"#utility.yul\":2290:2296   */\n      dup5\n        /* \"#utility.yul\":2285:2288   */\n      dup5\n        /* \"#utility.yul\":2281:2297   */\n      add\n        /* \"#utility.yul\":2274:2301   */\n      mstore\n        /* \"#utility.yul\":2123:2307   */\n      pop\n        /* \"#utility.yul\":2061:2307   */\n      pop\n      pop\n      pop\n      jump\t// out\n        /* \"#utility.yul\":2313:2415   */\n    tag_293:\n        /* \"#utility.yul\":2354:2360   */\n      0x00\n        /* \"#utility.yul\":2405:2407   */\n      0x1f\n        /* \"#utility.yul\":2401:2408   */\n      not\n        /* \"#utility.yul\":2396:2398   */\n      0x1f\n        /* \"#utility.yul\":2389:2394   */\n      dup4\n        /* \"#utility.yul\":2385:2399   */\n      add\n        /* \"#utility.yul\":2381:2409   */\n      and\n        /* \"#utility.yul\":2371:2409   */\n      swap1\n      pop\n        /* \"#utility.yul\":2313:2415   */\n      swap2\n      swap1\n      pop\n      jump\t// out\n        /* \"#utility.yul\":2421:2778   */\n    tag_294:\n        /* \"#utility.yul\":2499:2502   */\n      0x00\n        /* \"#utility.yul\":2527:2566   */\n      tag_385\n        /* \"#utility.yul\":2560:2565   */\n      dup3\n        /* \"#utility.yul\":2527:2566   */\n      tag_290\n      jump\t// in\n    tag_385:\n        /* \"#utility.yul\":2582:2643   */\n      tag_386\n        /* \"#utility.yul\":2636:2642   */\n      dup2\n        /* \"#utility.yul\":2631:2634   */\n      dup6\n        /* \"#utility.yul\":2582:2643   */\n      tag_291\n      jump\t// in\n    tag_386:\n        /* \"#utility.yul\":2575:2643   */\n      swap4\n      pop\n        /* \"#utility.yul\":2652:2717   */\n      tag_387\n        /* \"#utility.yul\":2710:2716   */\n      dup2\n        /* \"#utility.yul\":2705:2708   */\n      dup6\n        /* \"#utility.yul\":2698:2702   */\n      0x20\n        /* \"#utility.yul\":2691:2696   */\n      dup7\n        /* \"#utility.yul\":2687:2703   */\n      add\n        /* \"#utility.yul\":2652:2717   */\n      tag_292\n      jump\t// in\n    tag_387:\n        /* \"#utility.yul\":2742:2771   */\n      tag_388\n        /* \"#utility.yul\":2764:2770   */\n      dup2\n        /* \"#utility.yul\":2742:2771   */\n      tag_293\n      jump\t// in\n    tag_388:\n        /* \"#utility.yul\":2737:2740   */\n      dup5\n        /* \"#utility.yul\":2733:2772   */\n      add\n        /* \"#utility.yul\":2726:2772   */\n      swap2\n      pop\n        /* \"#utility.yul\":2503:2778   */\n      pop\n        /* \"#utility.yul\":2421:2778   */\n      swap3\n      swap2\n      pop\n      pop\n      jump\t// out\n        /* \"#utility.yul\":2784:2892   */\n    tag_295:\n        /* \"#utility.yul\":2861:2885   */\n      tag_390\n        /* \"#utility.yul\":2879:2884   */\n      dup2\n        /* \"#utility.yul\":2861:2885   */\n      tag_283\n      jump\t// in\n    tag_390:\n        /* \"#utility.yul\":2856:2859   */\n      dup3\n        /* \"#utility.yul\":2849:2886   */\n      mstore\n        /* \"#utility.yul\":2784:2892   */\n      pop\n      pop\n      jump\t// out\n        /* \"#utility.yul\":2898:3012   */\n    tag_296:\n        /* \"#utility.yul\":2965:2971   */\n      0x00\n        /* \"#utility.yul\":2999:3004   */\n      dup2\n        /* \"#utility.yul\":2993:3005   */\n      mload\n        /* \"#utility.yul\":2983:3005   */\n      swap1\n      pop\n        /* \"#utility.yul\":2898:3012   */\n      swap2\n      swap1\n      pop\n      jump\t// out\n        /* \"#utility.yul\":3018:3192   */\n    tag_297:\n        /* \"#utility.yul\":3107:3118   */\n      0x00\n        /* \"#utility.yul\":3141:3147   */\n      dup3\n        /* \"#utility.yul\":3136:3139   */\n      dup3\n        /* \"#utility.yul\":3129:3148   */\n      mstore\n        /* \"#utility.yul\":3181:3185   */\n      0x20\n        /* \"#utility.yul\":3176:3179   */\n      dup3\n        /* \"#utility.yul\":3172:3186   */\n      add\n        /* \"#utility.yul\":3157:3186   */\n      swap1\n      pop\n        /* \"#utility.yul\":3018:3192   */\n      swap3\n      swap2\n      pop\n      pop\n      jump\t// out\n        /* \"#utility.yul\":3198:3330   */\n    tag_298:\n        /* \"#utility.yul\":3265:3269   */\n      0x00\n        /* \"#utility.yul\":3288:3291   */\n      dup2\n        /* \"#utility.yul\":3280:3291   */\n      swap1\n      pop\n        /* \"#utility.yul\":3318:3322   */\n      0x20\n        /* \"#utility.yul\":3313:3316   */\n      dup3\n        /* \"#utility.yul\":3309:3323   */\n      add\n        /* \"#utility.yul\":3301:3323   */\n      swap1\n      pop\n        /* \"#utility.yul\":3198:3330   */\n      swap2\n      swap1\n      pop\n      jump\t// out\n        /* \"#utility.yul\":3336:3515   */\n    tag_299:\n        /* \"#utility.yul\":3405:3415   */\n      0x00\n        /* \"#utility.yul\":3426:3472   */\n      tag_395\n        /* \"#utility.yul\":3468:3471   */\n      dup4\n        /* \"#utility.yul\":3460:3466   */\n      dup4\n        /* \"#utility.yul\":3426:3472   */\n      tag_295\n      jump\t// in\n    tag_395:\n        /* \"#utility.yul\":3504:3508   */\n      0x20\n        /* \"#utility.yul\":3499:3502   */\n      dup4\n        /* \"#utility.yul\":3495:3509   */\n      add\n        /* \"#utility.yul\":3481:3509   */\n      swap1\n      pop\n        /* \"#utility.yul\":3336:3515   */\n      swap3\n      swap2\n      pop\n      pop\n      jump\t// out\n        /* \"#utility.yul\":3521:3634   */\n    tag_300:\n        /* \"#utility.yul\":3591:3595   */\n      0x00\n        /* \"#utility.yul\":3623:3627   */\n      0x20\n        /* \"#utility.yul\":3618:3621   */\n      dup3\n        /* \"#utility.yul\":3614:3628   */\n      add\n        /* \"#utility.yul\":3606:3628   */\n      swap1\n      pop\n        /* \"#utility.yul\":3521:3634   */\n      swap2\n      swap1\n      pop\n      jump\t// out\n        /* \"#utility.yul\":3670:4382   */\n    tag_301:\n        /* \"#utility.yul\":3779:3782   */\n      0x00\n        /* \"#utility.yul\":3808:3862   */\n      tag_398\n        /* \"#utility.yul\":3856:3861   */\n      dup3\n        /* \"#utility.yul\":3808:3862   */\n      tag_296\n      jump\t// in\n    tag_398:\n        /* \"#utility.yul\":3878:3954   */\n      tag_399\n        /* \"#utility.yul\":3947:3953   */\n      dup2\n        /* \"#utility.yul\":3942:3945   */\n      dup6\n        /* \"#utility.yul\":3878:3954   */\n      tag_297\n      jump\t// in\n    tag_399:\n        /* \"#utility.yul\":3871:3954   */\n      swap4\n      pop\n        /* \"#utility.yul\":3978:4034   */\n      tag_400\n        /* \"#utility.yul\":4028:4033   */\n      dup4\n        /* \"#utility.yul\":3978:4034   */\n      tag_298\n      jump\t// in\n    tag_400:\n        /* \"#utility.yul\":4057:4064   */\n      dup1\n        /* \"#utility.yul\":4088:4089   */\n      0x00\n        /* \"#utility.yul\":4073:4357   */\n    tag_401:\n        /* \"#utility.yul\":4098:4104   */\n      dup4\n        /* \"#utility.yul\":4095:4096   */\n      dup2\n        /* \"#utility.yul\":4092:4105   */\n      lt\n        /* \"#utility.yul\":4073:4357   */\n      iszero\n      tag_403\n      jumpi\n        /* \"#utility.yul\":4174:4180   */\n      dup2\n        /* \"#utility.yul\":4168:4181   */\n      mload\n        /* \"#utility.yul\":4201:4264   */\n      tag_404\n        /* \"#utility.yul\":4260:4263   */\n      dup9\n        /* \"#utility.yul\":4245:4258   */\n      dup3\n        /* \"#utility.yul\":4201:4264   */\n      tag_299\n      jump\t// in\n    tag_404:\n        /* \"#utility.yul\":4194:4264   */\n      swap8\n      pop\n        /* \"#utility.yul\":4287:4347   */\n      tag_405\n        /* \"#utility.yul\":4340:4346   */\n      dup4\n        /* \"#utility.yul\":4287:4347   */\n      tag_300\n      jump\t// in\n    tag_405:\n        /* \"#utility.yul\":4277:4347   */\n      swap3\n      pop\n        /* \"#utility.yul\":4133:4357   */\n      pop\n        /* \"#utility.yul\":4120:4121   */\n      0x01\n        /* \"#utility.yul\":4117:4118   */\n      dup2\n        /* \"#utility.yul\":4113:4122   */\n      add\n        /* \"#utility.yul\":4108:4122   */\n      swap1\n      pop\n        /* \"#utility.yul\":4073:4357   */\n      jump(tag_401)\n    tag_403:\n        /* \"#utility.yul\":4077:4091   */\n      pop\n        /* \"#utility.yul\":4373:4376   */\n      dup6\n        /* \"#utility.yul\":4366:4376   */\n      swap4\n      pop\n        /* \"#utility.yul\":3784:4382   */\n      pop\n      pop\n      pop\n        /* \"#utility.yul\":3670:4382   */\n      swap3\n      swap2\n      pop\n      pop\n      jump\t// out\n        /* \"#utility.yul\":4440:6312   */\n    tag_302:\n        /* \"#utility.yul\":4551:4554   */\n      0x00\n        /* \"#utility.yul\":4587:4593   */\n      0x0100\n        /* \"#utility.yul\":4582:4585   */\n      dup4\n        /* \"#utility.yul\":4578:4594   */\n      add\n        /* \"#utility.yul\":4674:4678   */\n      0x00\n        /* \"#utility.yul\":4667:4672   */\n      dup4\n        /* \"#utility.yul\":4663:4679   */\n      add\n        /* \"#utility.yul\":4657:4680   */\n      mload\n        /* \"#utility.yul\":4693:4756   */\n      tag_407\n        /* \"#utility.yul\":4750:4754   */\n      0x00\n        /* \"#utility.yul\":4745:4748   */\n      dup7\n        /* \"#utility.yul\":4741:4755   */\n      add\n        /* \"#utility.yul\":4727:4739   */\n      dup3\n        /* \"#utility.yul\":4693:4756   */\n      tag_289\n      jump\t// in\n    tag_407:\n        /* \"#utility.yul\":4604:4766   */\n      pop\n        /* \"#utility.yul\":4851:4855   */\n      0x20\n        /* \"#utility.yul\":4844:4849   */\n      dup4\n        /* \"#utility.yul\":4840:4856   */\n      add\n        /* \"#utility.yul\":4834:4857   */\n      mload\n        /* \"#utility.yul\":4904:4907   */\n      dup5\n        /* \"#utility.yul\":4898:4902   */\n      dup3\n        /* \"#utility.yul\":4894:4908   */\n      sub\n        /* \"#utility.yul\":4887:4891   */\n      0x20\n        /* \"#utility.yul\":4882:4885   */\n      dup7\n        /* \"#utility.yul\":4878:4892   */\n      add\n        /* \"#utility.yul\":4871:4909   */\n      mstore\n        /* \"#utility.yul\":4930:5003   */\n      tag_408\n        /* \"#utility.yul\":4998:5002   */\n      dup3\n        /* \"#utility.yul\":4984:4996   */\n      dup3\n        /* \"#utility.yul\":4930:5003   */\n      tag_294\n      jump\t// in\n    tag_408:\n        /* \"#utility.yul\":4922:5003   */\n      swap2\n      pop\n        /* \"#utility.yul\":4776:5014   */\n      pop\n        /* \"#utility.yul\":5098:5102   */\n      0x40\n        /* \"#utility.yul\":5091:5096   */\n      dup4\n        /* \"#utility.yul\":5087:5103   */\n      add\n        /* \"#utility.yul\":5081:5104   */\n      mload\n        /* \"#utility.yul\":5117:5180   */\n      tag_409\n        /* \"#utility.yul\":5174:5178   */\n      0x40\n        /* \"#utility.yul\":5169:5172   */\n      dup7\n        /* \"#utility.yul\":5165:5179   */\n      add\n        /* \"#utility.yul\":5151:5163   */\n      dup3\n        /* \"#utility.yul\":5117:5180   */\n      tag_295\n      jump\t// in\n    tag_409:\n        /* \"#utility.yul\":5024:5190   */\n      pop\n        /* \"#utility.yul\":5277:5281   */\n      0x60\n        /* \"#utility.yul\":5270:5275   */\n      dup4\n        /* \"#utility.yul\":5266:5282   */\n      add\n        /* \"#utility.yul\":5260:5283   */\n      mload\n        /* \"#utility.yul\":5296:5359   */\n      tag_410\n        /* \"#utility.yul\":5353:5357   */\n      0x60\n        /* \"#utility.yul\":5348:5351   */\n      dup7\n        /* \"#utility.yul\":5344:5358   */\n      add\n        /* \"#utility.yul\":5330:5342   */\n      dup3\n        /* \"#utility.yul\":5296:5359   */\n      tag_289\n      jump\t// in\n    tag_410:\n        /* \"#utility.yul\":5200:5369   */\n      pop\n        /* \"#utility.yul\":5452:5456   */\n      0x80\n        /* \"#utility.yul\":5445:5450   */\n      dup4\n        /* \"#utility.yul\":5441:5457   */\n      add\n        /* \"#utility.yul\":5435:5458   */\n      mload\n        /* \"#utility.yul\":5505:5508   */\n      dup5\n        /* \"#utility.yul\":5499:5503   */\n      dup3\n        /* \"#utility.yul\":5495:5509   */\n      sub\n        /* \"#utility.yul\":5488:5492   */\n      0x80\n        /* \"#utility.yul\":5483:5486   */\n      dup7\n        /* \"#utility.yul\":5479:5493   */\n      add\n        /* \"#utility.yul\":5472:5510   */\n      mstore\n        /* \"#utility.yul\":5531:5634   */\n      tag_411\n        /* \"#utility.yul\":5629:5633   */\n      dup3\n        /* \"#utility.yul\":5615:5627   */\n      dup3\n        /* \"#utility.yul\":5531:5634   */\n      tag_301\n      jump\t// in\n    tag_411:\n        /* \"#utility.yul\":5523:5634   */\n      swap2\n      pop\n        /* \"#utility.yul\":5379:5645   */\n      pop\n        /* \"#utility.yul\":5733:5737   */\n      0xa0\n        /* \"#utility.yul\":5726:5731   */\n      dup4\n        /* \"#utility.yul\":5722:5738   */\n      add\n        /* \"#utility.yul\":5716:5739   */\n      mload\n        /* \"#utility.yul\":5752:5815   */\n      tag_412\n        /* \"#utility.yul\":5809:5813   */\n      0xa0\n        /* \"#utility.yul\":5804:5807   */\n      dup7\n        /* \"#utility.yul\":5800:5814   */\n      add\n        /* \"#utility.yul\":5786:5798   */\n      dup3\n        /* \"#utility.yul\":5752:5815   */\n      tag_289\n      jump\t// in\n    tag_412:\n        /* \"#utility.yul\":5655:5825   */\n      pop\n        /* \"#utility.yul\":5915:5919   */\n      0xc0\n        /* \"#utility.yul\":5908:5913   */\n      dup4\n        /* \"#utility.yul\":5904:5920   */\n      add\n        /* \"#utility.yul\":5898:5921   */\n      mload\n        /* \"#utility.yul\":5934:5997   */\n      tag_413\n        /* \"#utility.yul\":5991:5995   */\n      0xc0\n        /* \"#utility.yul\":5986:5989   */\n      dup7\n        /* \"#utility.yul\":5982:5996   */\n      add\n        /* \"#utility.yul\":5968:5980   */\n      dup3\n        /* \"#utility.yul\":5934:5997   */\n      tag_289\n      jump\t// in\n    tag_413:\n        /* \"#utility.yul\":5835:6007   */\n      pop\n        /* \"#utility.yul\":6092:6096   */\n      0xe0\n        /* \"#utility.yul\":6085:6090   */\n      dup4\n        /* \"#utility.yul\":6081:6097   */\n      add\n        /* \"#utility.yul\":6075:6098   */\n      mload\n        /* \"#utility.yul\":6145:6148   */\n      dup5\n        /* \"#utility.yul\":6139:6143   */\n      dup3\n        /* \"#utility.yul\":6135:6149   */\n      sub\n        /* \"#utility.yul\":6128:6132   */\n      0xe0\n        /* \"#utility.yul\":6123:6126   */\n      dup7\n        /* \"#utility.yul\":6119:6133   */\n      add\n        /* \"#utility.yul\":6112:6150   */\n      mstore\n        /* \"#utility.yul\":6171:6274   */\n      tag_414\n        /* \"#utility.yul\":6269:6273   */\n      dup3\n        /* \"#utility.yul\":6255:6267   */\n      dup3\n        /* \"#utility.yul\":6171:6274   */\n      tag_301\n      jump\t// in\n    tag_414:\n        /* \"#utility.yul\":6163:6274   */\n      swap2\n      pop\n        /* \"#utility.yul\":6017:6285   */\n      pop\n        /* \"#utility.yul\":6302:6306   */\n      dup1\n        /* \"#utility.yul\":6295:6306   */\n      swap2\n      pop\n        /* \"#utility.yul\":4556:6312   */\n      pop\n        /* \"#utility.yul\":4440:6312   */\n      swap3\n      swap2\n      pop\n      pop\n      jump\t// out\n        /* \"#utility.yul\":6318:6675   */\n    tag_22:\n        /* \"#utility.yul\":6453:6457   */\n      0x00\n        /* \"#utility.yul\":6491:6493   */\n      0x20\n        /* \"#utility.yul\":6480:6489   */\n      dup3\n        /* \"#utility.yul\":6476:6494   */\n      add\n        /* \"#utility.yul\":6468:6494   */\n      swap1\n      pop\n        /* \"#utility.yul\":6540:6549   */\n      dup2\n        /* \"#utility.yul\":6534:6538   */\n      dup2\n        /* \"#utility.yul\":6530:6550   */\n      sub\n        /* \"#utility.yul\":6526:6527   */\n      0x00\n        /* \"#utility.yul\":6515:6524   */\n      dup4\n        /* \"#utility.yul\":6511:6528   */\n      add\n        /* \"#utility.yul\":6504:6551   */\n      mstore\n        /* \"#utility.yul\":6568:6668   */\n      tag_416\n        /* \"#utility.yul\":6663:6667   */\n      dup2\n        /* \"#utility.yul\":6654:6660   */\n      dup5\n        /* \"#utility.yul\":6568:6668   */\n      tag_302\n      jump\t// in\n    tag_416:\n        /* \"#utility.yul\":6560:6668   */\n      swap1\n      pop\n        /* \"#utility.yul\":6318:6675   */\n      swap3\n      swap2\n      pop\n      pop\n      jump\t// out\n        /* \"#utility.yul\":6681:6816   */\n    tag_303:\n        /* \"#utility.yul\":6769:6775   */\n      0x00\n        /* \"#utility.yul\":6803:6808   */\n      dup2\n        /* \"#utility.yul\":6797:6809   */\n      mload\n        /* \"#utility.yul\":6787:6809   */\n      swap1\n      pop\n        /* \"#utility.yul\":6681:6816   */\n      swap2\n      swap1\n      pop\n      jump\t// out\n        /* \"#utility.yul\":6822:7027   */\n    tag_304:\n        /* \"#utility.yul\":6942:6953   */\n      0x00\n        /* \"#utility.yul\":6976:6982   */\n      dup3\n        /* \"#utility.yul\":6971:6974   */\n      dup3\n        /* \"#utility.yul\":6964:6983   */\n      mstore\n        /* \"#utility.yul\":7016:7020   */\n      0x20\n        /* \"#utility.yul\":7011:7014   */\n      dup3\n        /* \"#utility.yul\":7007:7021   */\n      add\n        /* \"#utility.yul\":6992:7021   */\n      swap1\n      pop\n        /* \"#utility.yul\":6822:7027   */\n      swap3\n      swap2\n      pop\n      pop\n      jump\t// out\n        /* \"#utility.yul\":7033:7186   */\n    tag_305:\n        /* \"#utility.yul\":7121:7125   */\n      0x00\n        /* \"#utility.yul\":7144:7147   */\n      dup2\n        /* \"#utility.yul\":7136:7147   */\n      swap1\n      pop\n        /* \"#utility.yul\":7174:7178   */\n      0x20\n        /* \"#utility.yul\":7169:7172   */\n      dup3\n        /* \"#utility.yul\":7165:7179   */\n      add\n        /* \"#utility.yul\":7157:7179   */\n      swap1\n      pop\n        /* \"#utility.yul\":7033:7186   */\n      swap2\n      swap1\n      pop\n      jump\t// out\n        /* \"#utility.yul\":7244:9106   */\n    tag_306:\n        /* \"#utility.yul\":7345:7348   */\n      0x00\n        /* \"#utility.yul\":7381:7387   */\n      0x0100\n        /* \"#utility.yul\":7376:7379   */\n      dup4\n        /* \"#utility.yul\":7372:7388   */\n      add\n        /* \"#utility.yul\":7468:7472   */\n      0x00\n        /* \"#utility.yul\":7461:7466   */\n      dup4\n        /* \"#utility.yul\":7457:7473   */\n      add\n        /* \"#utility.yul\":7451:7474   */\n      mload\n        /* \"#utility.yul\":7487:7550   */\n      tag_421\n        /* \"#utility.yul\":7544:7548   */\n      0x00\n        /* \"#utility.yul\":7539:7542   */\n      dup7\n        /* \"#utility.yul\":7535:7549   */\n      add\n        /* \"#utility.yul\":7521:7533   */\n      dup3\n        /* \"#utility.yul\":7487:7550   */\n      tag_289\n      jump\t// in\n    tag_421:\n        /* \"#utility.yul\":7398:7560   */\n      pop\n        /* \"#utility.yul\":7645:7649   */\n      0x20\n        /* \"#utility.yul\":7638:7643   */\n      dup4\n        /* \"#utility.yul\":7634:7650   */\n      add\n        /* \"#utility.yul\":7628:7651   */\n      mload\n        /* \"#utility.yul\":7698:7701   */\n      dup5\n        /* \"#utility.yul\":7692:7696   */\n      dup3\n        /* \"#utility.yul\":7688:7702   */\n      sub\n        /* \"#utility.yul\":7681:7685   */\n      0x20\n        /* \"#utility.yul\":7676:7679   */\n      dup7\n        /* \"#utility.yul\":7672:7686   */\n      add\n        /* \"#utility.yul\":7665:7703   */\n      mstore\n        /* \"#utility.yul\":7724:7797   */\n      tag_422\n        /* \"#utility.yul\":7792:7796   */\n      dup3\n        /* \"#utility.yul\":7778:7790   */\n      dup3\n        /* \"#utility.yul\":7724:7797   */\n      tag_294\n      jump\t// in\n    tag_422:\n        /* \"#utility.yul\":7716:7797   */\n      swap2\n      pop\n        /* \"#utility.yul\":7570:7808   */\n      pop\n        /* \"#utility.yul\":7892:7896   */\n      0x40\n        /* \"#utility.yul\":7885:7890   */\n      dup4\n        /* \"#utility.yul\":7881:7897   */\n      add\n        /* \"#utility.yul\":7875:7898   */\n      mload\n        /* \"#utility.yul\":7911:7974   */\n      tag_423\n        /* \"#utility.yul\":7968:7972   */\n      0x40\n        /* \"#utility.yul\":7963:7966   */\n      dup7\n        /* \"#utility.yul\":7959:7973   */\n      add\n        /* \"#utility.yul\":7945:7957   */\n      dup3\n        /* \"#utility.yul\":7911:7974   */\n      tag_295\n      jump\t// in\n    tag_423:\n        /* \"#utility.yul\":7818:7984   */\n      pop\n        /* \"#utility.yul\":8071:8075   */\n      0x60\n        /* \"#utility.yul\":8064:8069   */\n      dup4\n        /* \"#utility.yul\":8060:8076   */\n      add\n        /* \"#utility.yul\":8054:8077   */\n      mload\n        /* \"#utility.yul\":8090:8153   */\n      tag_424\n        /* \"#utility.yul\":8147:8151   */\n      0x60\n        /* \"#utility.yul\":8142:8145   */\n      dup7\n        /* \"#utility.yul\":8138:8152   */\n      add\n        /* \"#utility.yul\":8124:8136   */\n      dup3\n        /* \"#utility.yul\":8090:8153   */\n      tag_289\n      jump\t// in\n    tag_424:\n        /* \"#utility.yul\":7994:8163   */\n      pop\n        /* \"#utility.yul\":8246:8250   */\n      0x80\n        /* \"#utility.yul\":8239:8244   */\n      dup4\n        /* \"#utility.yul\":8235:8251   */\n      add\n        /* \"#utility.yul\":8229:8252   */\n      mload\n        /* \"#utility.yul\":8299:8302   */\n      dup5\n        /* \"#utility.yul\":8293:8297   */\n      dup3\n        /* \"#utility.yul\":8289:8303   */\n      sub\n        /* \"#utility.yul\":8282:8286   */\n      0x80\n        /* \"#utility.yul\":8277:8280   */\n      dup7\n        /* \"#utility.yul\":8273:8287   */\n      add\n        /* \"#utility.yul\":8266:8304   */\n      mstore\n        /* \"#utility.yul\":8325:8428   */\n      tag_425\n        /* \"#utility.yul\":8423:8427   */\n      dup3\n        /* \"#utility.yul\":8409:8421   */\n      dup3\n        /* \"#utility.yul\":8325:8428   */\n      tag_301\n      jump\t// in\n    tag_425:\n        /* \"#utility.yul\":8317:8428   */\n      swap2\n      pop\n        /* \"#utility.yul\":8173:8439   */\n      pop\n        /* \"#utility.yul\":8527:8531   */\n      0xa0\n        /* \"#utility.yul\":8520:8525   */\n      dup4\n        /* \"#utility.yul\":8516:8532   */\n      add\n        /* \"#utility.yul\":8510:8533   */\n      mload\n        /* \"#utility.yul\":8546:8609   */\n      tag_426\n        /* \"#utility.yul\":8603:8607   */\n      0xa0\n        /* \"#utility.yul\":8598:8601   */\n      dup7\n        /* \"#utility.yul\":8594:8608   */\n      add\n        /* \"#utility.yul\":8580:8592   */\n      dup3\n        /* \"#utility.yul\":8546:8609   */\n      tag_289\n      jump\t// in\n    tag_426:\n        /* \"#utility.yul\":8449:8619   */\n      pop\n        /* \"#utility.yul\":8709:8713   */\n      0xc0\n        /* \"#utility.yul\":8702:8707   */\n      dup4\n        /* \"#utility.yul\":8698:8714   */\n      add\n        /* \"#utility.yul\":8692:8715   */\n      mload\n        /* \"#utility.yul\":8728:8791   */\n      tag_427\n        /* \"#utility.yul\":8785:8789   */\n      0xc0\n        /* \"#utility.yul\":8780:8783   */\n      dup7\n        /* \"#utility.yul\":8776:8790   */\n      add\n        /* \"#utility.yul\":8762:8774   */\n      dup3\n        /* \"#utility.yul\":8728:8791   */\n      tag_289\n      jump\t// in\n    tag_427:\n        /* \"#utility.yul\":8629:8801   */\n      pop\n        /* \"#utility.yul\":8886:8890   */\n      0xe0\n        /* \"#utility.yul\":8879:8884   */\n      dup4\n        /* \"#utility.yul\":8875:8891   */\n      add\n        /* \"#utility.yul\":8869:8892   */\n      mload\n        /* \"#utility.yul\":8939:8942   */\n      dup5\n        /* \"#utility.yul\":8933:8937   */\n      dup3\n        /* \"#utility.yul\":8929:8943   */\n      sub\n        /* \"#utility.yul\":8922:8926   */\n      0xe0\n        /* \"#utility.yul\":8917:8920   */\n      dup7\n        /* \"#utility.yul\":8913:8927   */\n      add\n        /* \"#utility.yul\":8906:8944   */\n      mstore\n        /* \"#utility.yul\":8965:9068   */\n      tag_428\n        /* \"#utility.yul\":9063:9067   */\n      dup3\n        /* \"#utility.yul\":9049:9061   */\n      dup3\n        /* \"#utility.yul\":8965:9068   */\n      tag_301\n      jump\t// in\n    tag_428:\n        /* \"#utility.yul\":8957:9068   */\n      swap2\n      pop\n        /* \"#utility.yul\":8811:9079   */\n      pop\n        /* \"#utility.yul\":9096:9100   */\n      dup1\n        /* \"#utility.yul\":9089:9100   */\n      swap2\n      pop\n        /* \"#utility.yul\":7350:9106   */\n      pop\n        /* \"#utility.yul\":7244:9106   */\n      swap3\n      swap2\n      pop\n      pop\n      jump\t// out\n        /* \"#utility.yul\":9112:9352   */\n    tag_307:\n        /* \"#utility.yul\":9223:9233   */\n      0x00\n        /* \"#utility.yul\":9258:9346   */\n      tag_430\n        /* \"#utility.yul\":9342:9345   */\n      dup4\n        /* \"#utility.yul\":9334:9340   */\n      dup4\n        /* \"#utility.yul\":9258:9346   */\n      tag_306\n      jump\t// in\n    tag_430:\n        /* \"#utility.yul\":9244:9346   */\n      swap1\n      pop\n        /* \"#utility.yul\":9112:9352   */\n      swap3\n      swap2\n      pop\n      pop\n      jump\t// out\n        /* \"#utility.yul\":9358:9492   */\n    tag_308:\n        /* \"#utility.yul\":9449:9453   */\n      0x00\n        /* \"#utility.yul\":9481:9485   */\n      0x20\n        /* \"#utility.yul\":9476:9479   */\n      dup3\n        /* \"#utility.yul\":9472:9486   */\n      add\n        /* \"#utility.yul\":9464:9486   */\n      swap1\n      pop\n        /* \"#utility.yul\":9358:9492   */\n      swap2\n      swap1\n      pop\n      jump\t// out\n        /* \"#utility.yul\":9554:10633   */\n    tag_309:\n        /* \"#utility.yul\":9715:9718   */\n      0x00\n        /* \"#utility.yul\":9744:9819   */\n      tag_433\n        /* \"#utility.yul\":9813:9818   */\n      dup3\n        /* \"#utility.yul\":9744:9819   */\n      tag_303\n      jump\t// in\n    tag_433:\n        /* \"#utility.yul\":9835:9942   */\n      tag_434\n        /* \"#utility.yul\":9935:9941   */\n      dup2\n        /* \"#utility.yul\":9930:9933   */\n      dup6\n        /* \"#utility.yul\":9835:9942   */\n      tag_304\n      jump\t// in\n    tag_434:\n        /* \"#utility.yul\":9828:9942   */\n      swap4\n      pop\n        /* \"#utility.yul\":9968:9971   */\n      dup4\n        /* \"#utility.yul\":10013:10017   */\n      0x20\n        /* \"#utility.yul\":10005:10011   */\n      dup3\n        /* \"#utility.yul\":10001:10018   */\n      mul\n        /* \"#utility.yul\":9996:9999   */\n      dup6\n        /* \"#utility.yul\":9992:10019   */\n      add\n        /* \"#utility.yul\":10043:10120   */\n      tag_435\n        /* \"#utility.yul\":10114:10119   */\n      dup6\n        /* \"#utility.yul\":10043:10120   */\n      tag_305\n      jump\t// in\n    tag_435:\n        /* \"#utility.yul\":10143:10150   */\n      dup1\n        /* \"#utility.yul\":10174:10175   */\n      0x00\n        /* \"#utility.yul\":10159:10588   */\n    tag_436:\n        /* \"#utility.yul\":10184:10190   */\n      dup6\n        /* \"#utility.yul\":10181:10182   */\n      dup2\n        /* \"#utility.yul\":10178:10191   */\n      lt\n        /* \"#utility.yul\":10159:10588   */\n      iszero\n      tag_438\n      jumpi\n        /* \"#utility.yul\":10255:10264   */\n      dup5\n        /* \"#utility.yul\":10249:10253   */\n      dup5\n        /* \"#utility.yul\":10245:10265   */\n      sub\n        /* \"#utility.yul\":10240:10243   */\n      dup10\n        /* \"#utility.yul\":10233:10266   */\n      mstore\n        /* \"#utility.yul\":10306:10312   */\n      dup2\n        /* \"#utility.yul\":10300:10313   */\n      mload\n        /* \"#utility.yul\":10334:10440   */\n      tag_439\n        /* \"#utility.yul\":10435:10439   */\n      dup6\n        /* \"#utility.yul\":10420:10433   */\n      dup3\n        /* \"#utility.yul\":10334:10440   */\n      tag_307\n      jump\t// in\n    tag_439:\n        /* \"#utility.yul\":10326:10440   */\n      swap5\n      pop\n        /* \"#utility.yul\":10463:10544   */\n      tag_440\n        /* \"#utility.yul\":10537:10543   */\n      dup4\n        /* \"#utility.yul\":10463:10544   */\n      tag_308\n      jump\t// in\n    tag_440:\n        /* \"#utility.yul\":10453:10544   */\n      swap3\n      pop\n        /* \"#utility.yul\":10573:10577   */\n      0x20\n        /* \"#utility.yul\":10568:10571   */\n      dup11\n        /* \"#utility.yul\":10564:10578   */\n      add\n        /* \"#utility.yul\":10557:10578   */\n      swap10\n      pop\n        /* \"#utility.yul\":10219:10588   */\n      pop\n        /* \"#utility.yul\":10206:10207   */\n      0x01\n        /* \"#utility.yul\":10203:10204   */\n      dup2\n        /* \"#utility.yul\":10199:10208   */\n      add\n        /* \"#utility.yul\":10194:10208   */\n      swap1\n      pop\n        /* \"#utility.yul\":10159:10588   */\n      jump(tag_436)\n    tag_438:\n        /* \"#utility.yul\":10163:10177   */\n      pop\n        /* \"#utility.yul\":10604:10608   */\n      dup3\n        /* \"#utility.yul\":10597:10608   */\n      swap8\n      pop\n        /* \"#utility.yul\":10624:10627   */\n      dup8\n        /* \"#utility.yul\":10617:10627   */\n      swap6\n      pop\n        /* \"#utility.yul\":9720:10633   */\n      pop\n      pop\n      pop\n      pop\n      pop\n        /* \"#utility.yul\":9554:10633   */\n      swap3\n      swap2\n      pop\n      pop\n      jump\t// out\n        /* \"#utility.yul\":10639:11096   */\n    tag_26:\n        /* \"#utility.yul\":10824:10828   */\n      0x00\n        /* \"#utility.yul\":10862:10864   */\n      0x20\n        /* \"#utility.yul\":10851:10860   */\n      dup3\n        /* \"#utility.yul\":10847:10865   */\n      add\n        /* \"#utility.yul\":10839:10865   */\n      swap1\n      pop\n        /* \"#utility.yul\":10911:10920   */\n      dup2\n        /* \"#utility.yul\":10905:10909   */\n      dup2\n        /* \"#utility.yul\":10901:10921   */\n      sub\n        /* \"#utility.yul\":10897:10898   */\n      0x00\n        /* \"#utility.yul\":10886:10895   */\n      dup4\n        /* \"#utility.yul\":10882:10899   */\n      add\n        /* \"#utility.yul\":10875:10922   */\n      mstore\n        /* \"#utility.yul\":10939:11089   */\n      tag_442\n        /* \"#utility.yul\":11084:11088   */\n      dup2\n        /* \"#utility.yul\":11075:11081   */\n      dup5\n        /* \"#utility.yul\":10939:11089   */\n      tag_309\n      jump\t// in\n    tag_442:\n        /* \"#utility.yul\":10931:11089   */\n      swap1\n      pop\n        /* \"#utility.yul\":10639:11096   */\n      swap3\n      swap2\n      pop\n      pop\n      jump\t// out\n        /* \"#utility.yul\":11102:11219   */\n    tag_310:\n        /* \"#utility.yul\":11211:11212   */\n      0x00\n        /* \"#utility.yul\":11208:11209   */\n      dup1\n        /* \"#utility.yul\":11201:11213   */\n      revert\n        /* \"#utility.yul\":11225:11342   */\n    tag_311:\n        /* \"#utility.yul\":11334:11335   */\n      0x00\n        /* \"#utility.yul\":11331:11332   */\n      dup1\n        /* \"#utility.yul\":11324:11336   */\n      revert\n        /* \"#utility.yul\":11348:11528   */\n    tag_312:\n        /* \"#utility.yul\":11396:11473   */\n      0x4e487b7100000000000000000000000000000000000000000000000000000000\n        /* \"#utility.yul\":11393:11394   */\n      0x00\n        /* \"#utility.yul\":11386:11474   */\n      mstore\n        /* \"#utility.yul\":11493:11497   */\n      0x41\n        /* \"#utility.yul\":11490:11491   */\n      0x04\n        /* \"#utility.yul\":11483:11498   */\n      mstore\n        /* \"#utility.yul\":11517:11521   */\n      0x24\n        /* \"#utility.yul\":11514:11515   */\n      0x00\n        /* \"#utility.yul\":11507:11522   */\n      revert\n        /* \"#utility.yul\":11534:11815   */\n    tag_313:\n        /* \"#utility.yul\":11617:11644   */\n      tag_447\n        /* \"#utility.yul\":11639:11643   */\n      dup3\n        /* \"#utility.yul\":11617:11644   */\n      tag_293\n      jump\t// in\n    tag_447:\n        /* \"#utility.yul\":11609:11615   */\n      dup2\n        /* \"#utility.yul\":11605:11645   */\n      add\n        /* \"#utility.yul\":11747:11753   */\n      dup2\n        /* \"#utility.yul\":11735:11745   */\n      dup2\n        /* \"#utility.yul\":11732:11754   */\n      lt\n        /* \"#utility.yul\":11711:11729   */\n      0xffffffffffffffff\n        /* \"#utility.yul\":11699:11709   */\n      dup3\n        /* \"#utility.yul\":11696:11730   */\n      gt\n        /* \"#utility.yul\":11693:11755   */\n      or\n        /* \"#utility.yul\":11690:11778   */\n      iszero\n      tag_448\n      jumpi\n        /* \"#utility.yul\":11758:11776   */\n      tag_449\n      tag_312\n      jump\t// in\n    tag_449:\n        /* \"#utility.yul\":11690:11778   */\n    tag_448:\n        /* \"#utility.yul\":11798:11808   */\n      dup1\n        /* \"#utility.yul\":11794:11796   */\n      0x40\n        /* \"#utility.yul\":11787:11809   */\n      mstore\n        /* \"#utility.yul\":11577:11815   */\n      pop\n        /* \"#utility.yul\":11534:11815   */\n      pop\n      pop\n      jump\t// out\n        /* \"#utility.yul\":11821:11950   */\n    tag_314:\n        /* \"#utility.yul\":11855:11861   */\n      0x00\n        /* \"#utility.yul\":11882:11902   */\n      tag_451\n      tag_279\n      jump\t// in\n    tag_451:\n        /* \"#utility.yul\":11872:11902   */\n      swap1\n      pop\n        /* \"#utility.yul\":11911:11944   */\n      tag_452\n        /* \"#utility.yul\":11939:11943   */\n      dup3\n        /* \"#utility.yul\":11931:11937   */\n      dup3\n        /* \"#utility.yul\":11911:11944   */\n      tag_313\n      jump\t// in\n    tag_452:\n        /* \"#utility.yul\":11821:11950   */\n      swap2\n      swap1\n      pop\n      jump\t// out\n        /* \"#utility.yul\":11956:12264   */\n    tag_315:\n        /* \"#utility.yul\":12018:12022   */\n      0x00\n        /* \"#utility.yul\":12108:12126   */\n      0xffffffffffffffff\n        /* \"#utility.yul\":12100:12106   */\n      dup3\n        /* \"#utility.yul\":12097:12127   */\n      gt\n        /* \"#utility.yul\":12094:12150   */\n      iszero\n      tag_454\n      jumpi\n        /* \"#utility.yul\":12130:12148   */\n      tag_455\n      tag_312\n      jump\t// in\n    tag_455:\n        /* \"#utility.yul\":12094:12150   */\n    tag_454:\n        /* \"#utility.yul\":12168:12197   */\n      tag_456\n        /* \"#utility.yul\":12190:12196   */\n      dup3\n        /* \"#utility.yul\":12168:12197   */\n      tag_293\n      jump\t// in\n    tag_456:\n        /* \"#utility.yul\":12160:12197   */\n      swap1\n      pop\n        /* \"#utility.yul\":12252:12256   */\n      0x20\n        /* \"#utility.yul\":12246:12250   */\n      dup2\n        /* \"#utility.yul\":12242:12257   */\n      add\n        /* \"#utility.yul\":12234:12257   */\n      swap1\n      pop\n        /* \"#utility.yul\":11956:12264   */\n      swap2\n      swap1\n      pop\n      jump\t// out\n        /* \"#utility.yul\":12270:12416   */\n    tag_316:\n        /* \"#utility.yul\":12367:12373   */\n      dup3\n        /* \"#utility.yul\":12362:12365   */\n      dup2\n        /* \"#utility.yul\":12357:12360   */\n      dup4\n        /* \"#utility.yul\":12344:12374   */\n      calldatacopy\n        /* \"#utility.yul\":12408:12409   */\n      0x00\n        /* \"#utility.yul\":12399:12405   */\n      dup4\n        /* \"#utility.yul\":12394:12397   */\n      dup4\n        /* \"#utility.yul\":12390:12406   */\n      add\n        /* \"#utility.yul\":12383:12410   */\n      mstore\n        /* \"#utility.yul\":12270:12416   */\n      pop\n      pop\n      pop\n      jump\t// out\n        /* \"#utility.yul\":12422:12847   */\n    tag_317:\n        /* \"#utility.yul\":12500:12505   */\n      0x00\n        /* \"#utility.yul\":12525:12591   */\n      tag_459\n        /* \"#utility.yul\":12541:12590   */\n      tag_460\n        /* \"#utility.yul\":12583:12589   */\n      dup5\n        /* \"#utility.yul\":12541:12590   */\n      tag_315\n      jump\t// in\n    tag_460:\n        /* \"#utility.yul\":12525:12591   */\n      tag_314\n      jump\t// in\n    tag_459:\n        /* \"#utility.yul\":12516:12591   */\n      swap1\n      pop\n        /* \"#utility.yul\":12614:12620   */\n      dup3\n        /* \"#utility.yul\":12607:12612   */\n      dup2\n        /* \"#utility.yul\":12600:12621   */\n      mstore\n        /* \"#utility.yul\":12652:12656   */\n      0x20\n        /* \"#utility.yul\":12645:12650   */\n      dup2\n        /* \"#utility.yul\":12641:12657   */\n      add\n        /* \"#utility.yul\":12690:12693   */\n      dup5\n        /* \"#utility.yul\":12681:12687   */\n      dup5\n        /* \"#utility.yul\":12676:12679   */\n      dup5\n        /* \"#utility.yul\":12672:12688   */\n      add\n        /* \"#utility.yul\":12669:12694   */\n      gt\n        /* \"#utility.yul\":12666:12778   */\n      iszero\n      tag_461\n      jumpi\n        /* \"#utility.yul\":12697:12776   */\n      tag_462\n      tag_311\n      jump\t// in\n    tag_462:\n        /* \"#utility.yul\":12666:12778   */\n    tag_461:\n        /* \"#utility.yul\":12787:12841   */\n      tag_463\n        /* \"#utility.yul\":12834:12840   */\n      dup5\n        /* \"#utility.yul\":12829:12832   */\n      dup3\n        /* \"#utility.yul\":12824:12827   */\n      dup6\n        /* \"#utility.yul\":12787:12841   */\n      tag_316\n      jump\t// in\n    tag_463:\n        /* \"#utility.yul\":12506:12847   */\n      pop\n        /* \"#utility.yul\":12422:12847   */\n      swap4\n      swap3\n      pop\n      pop\n      pop\n      jump\t// out\n        /* \"#utility.yul\":12867:13207   */\n    tag_318:\n        /* \"#utility.yul\":12923:12928   */\n      0x00\n        /* \"#utility.yul\":12972:12975   */\n      dup3\n        /* \"#utility.yul\":12965:12969   */\n      0x1f\n        /* \"#utility.yul\":12957:12963   */\n      dup4\n        /* \"#utility.yul\":12953:12970   */\n      add\n        /* \"#utility.yul\":12949:12976   */\n      slt\n        /* \"#utility.yul\":12939:13061   */\n      tag_465\n      jumpi\n        /* \"#utility.yul\":12980:13059   */\n      tag_466\n      tag_310\n      jump\t// in\n    tag_466:\n        /* \"#utility.yul\":12939:13061   */\n    tag_465:\n        /* \"#utility.yul\":13097:13103   */\n      dup2\n        /* \"#utility.yul\":13084:13104   */\n      calldataload\n        /* \"#utility.yul\":13122:13201   */\n      tag_467\n        /* \"#utility.yul\":13197:13200   */\n      dup5\n        /* \"#utility.yul\":13189:13195   */\n      dup3\n        /* \"#utility.yul\":13182:13186   */\n      0x20\n        /* \"#utility.yul\":13174:13180   */\n      dup7\n        /* \"#utility.yul\":13170:13187   */\n      add\n        /* \"#utility.yul\":13122:13201   */\n      tag_317\n      jump\t// in\n    tag_467:\n        /* \"#utility.yul\":13113:13201   */\n      swap2\n      pop\n        /* \"#utility.yul\":12929:13207   */\n      pop\n        /* \"#utility.yul\":12867:13207   */\n      swap3\n      swap2\n      pop\n      pop\n      jump\t// out\n        /* \"#utility.yul\":13213:13722   */\n    tag_33:\n        /* \"#utility.yul\":13282:13288   */\n      0x00\n        /* \"#utility.yul\":13331:13333   */\n      0x20\n        /* \"#utility.yul\":13319:13328   */\n      dup3\n        /* \"#utility.yul\":13310:13317   */\n      dup5\n        /* \"#utility.yul\":13306:13329   */\n      sub\n        /* \"#utility.yul\":13302:13334   */\n      slt\n        /* \"#utility.yul\":13299:13418   */\n      iszero\n      tag_469\n      jumpi\n        /* \"#utility.yul\":13337:13416   */\n      tag_470\n      tag_280\n      jump\t// in\n    tag_470:\n        /* \"#utility.yul\":13299:13418   */\n    tag_469:\n        /* \"#utility.yul\":13485:13486   */\n      0x00\n        /* \"#utility.yul\":13474:13483   */\n      dup3\n        /* \"#utility.yul\":13470:13487   */\n      add\n        /* \"#utility.yul\":13457:13488   */\n      calldataload\n        /* \"#utility.yul\":13515:13533   */\n      0xffffffffffffffff\n        /* \"#utility.yul\":13507:13513   */\n      dup2\n        /* \"#utility.yul\":13504:13534   */\n      gt\n        /* \"#utility.yul\":13501:13618   */\n      iszero\n      tag_471\n      jumpi\n        /* \"#utility.yul\":13537:13616   */\n      tag_472\n      tag_281\n      jump\t// in\n    tag_472:\n        /* \"#utility.yul\":13501:13618   */\n    tag_471:\n        /* \"#utility.yul\":13642:13705   */\n      tag_473\n        /* \"#utility.yul\":13697:13704   */\n      dup5\n        /* \"#utility.yul\":13688:13694   */\n      dup3\n        /* \"#utility.yul\":13677:13686   */\n      dup6\n        /* \"#utility.yul\":13673:13695   */\n      add\n        /* \"#utility.yul\":13642:13705   */\n      tag_318\n      jump\t// in\n    tag_473:\n        /* \"#utility.yul\":13632:13705   */\n      swap2\n      pop\n        /* \"#utility.yul\":13428:13715   */\n      pop\n        /* \"#utility.yul\":13213:13722   */\n      swap3\n      swap2\n      pop\n      pop\n      jump\t// out\n        /* \"#utility.yul\":13728:14057   */\n    tag_37:\n        /* \"#utility.yul\":13787:13793   */\n      0x00\n        /* \"#utility.yul\":13836:13838   */\n      0x20\n        /* \"#utility.yul\":13824:13833   */\n      dup3\n        /* \"#utility.yul\":13815:13822   */\n      dup5\n        /* \"#utility.yul\":13811:13834   */\n      sub\n        /* \"#utility.yul\":13807:13839   */\n      slt\n        /* \"#utility.yul\":13804:13923   */\n      iszero\n      tag_475\n      jumpi\n        /* \"#utility.yul\":13842:13921   */\n      tag_476\n      tag_280\n      jump\t// in\n    tag_476:\n        /* \"#utility.yul\":13804:13923   */\n    tag_475:\n        /* \"#utility.yul\":13962:13963   */\n      0x00\n        /* \"#utility.yul\":13987:14040   */\n      tag_477\n        /* \"#utility.yul\":14032:14039   */\n      dup5\n        /* \"#utility.yul\":14023:14029   */\n      dup3\n        /* \"#utility.yul\":14012:14021   */\n      dup6\n        /* \"#utility.yul\":14008:14030   */\n      add\n        /* \"#utility.yul\":13987:14040   */\n      tag_285\n      jump\t// in\n    tag_477:\n        /* \"#utility.yul\":13977:14040   */\n      swap2\n      pop\n        /* \"#utility.yul\":13933:14050   */\n      pop\n        /* \"#utility.yul\":13728:14057   */\n      swap3\n      swap2\n      pop\n      pop\n      jump\t// out\n        /* \"#utility.yul\":14063:14181   */\n    tag_319:\n        /* \"#utility.yul\":14150:14174   */\n      tag_479\n        /* \"#utility.yul\":14168:14173   */\n      dup2\n        /* \"#utility.yul\":14150:14174   */\n      tag_286\n      jump\t// in\n    tag_479:\n        /* \"#utility.yul\":14145:14148   */\n      dup3\n        /* \"#utility.yul\":14138:14175   */\n      mstore\n        /* \"#utility.yul\":14063:14181   */\n      pop\n      pop\n      jump\t// out\n        /* \"#utility.yul\":14187:14409   */\n    tag_40:\n        /* \"#utility.yul\":14280:14284   */\n      0x00\n        /* \"#utility.yul\":14318:14320   */\n      0x20\n        /* \"#utility.yul\":14307:14316   */\n      dup3\n        /* \"#utility.yul\":14303:14321   */\n      add\n        /* \"#utility.yul\":14295:14321   */\n      swap1\n      pop\n        /* \"#utility.yul\":14331:14402   */\n      tag_481\n        /* \"#utility.yul\":14399:14400   */\n      0x00\n        /* \"#utility.yul\":14388:14397   */\n      dup4\n        /* \"#utility.yul\":14384:14401   */\n      add\n        /* \"#utility.yul\":14375:14381   */\n      dup5\n        /* \"#utility.yul\":14331:14402   */\n      tag_319\n      jump\t// in\n    tag_481:\n        /* \"#utility.yul\":14187:14409   */\n      swap3\n      swap2\n      pop\n      pop\n      jump\t// out\n        /* \"#utility.yul\":14415:14744   */\n    tag_50:\n        /* \"#utility.yul\":14474:14480   */\n      0x00\n        /* \"#utility.yul\":14523:14525   */\n      0x20\n        /* \"#utility.yul\":14511:14520   */\n      dup3\n        /* \"#utility.yul\":14502:14509   */\n      dup5\n        /* \"#utility.yul\":14498:14521   */\n      sub\n        /* \"#utility.yul\":14494:14526   */\n      slt\n        /* \"#utility.yul\":14491:14610   */\n      iszero\n      tag_483\n      jumpi\n        /* \"#utility.yul\":14529:14608   */\n      tag_484\n      tag_280\n      jump\t// in\n    tag_484:\n        /* \"#utility.yul\":14491:14610   */\n    tag_483:\n        /* \"#utility.yul\":14649:14650   */\n      0x00\n        /* \"#utility.yul\":14674:14727   */\n      tag_485\n        /* \"#utility.yul\":14719:14726   */\n      dup5\n        /* \"#utility.yul\":14710:14716   */\n      dup3\n        /* \"#utility.yul\":14699:14708   */\n      dup6\n        /* \"#utility.yul\":14695:14717   */\n      add\n        /* \"#utility.yul\":14674:14727   */\n      tag_288\n      jump\t// in\n    tag_485:\n        /* \"#utility.yul\":14664:14727   */\n      swap2\n      pop\n        /* \"#utility.yul\":14620:14737   */\n      pop\n        /* \"#utility.yul\":14415:14744   */\n      swap3\n      swap2\n      pop\n      pop\n      jump\t// out\n        /* \"#utility.yul\":14750:14919   */\n    tag_320:\n        /* \"#utility.yul\":14834:14845   */\n      0x00\n        /* \"#utility.yul\":14868:14874   */\n      dup3\n        /* \"#utility.yul\":14863:14866   */\n      dup3\n        /* \"#utility.yul\":14856:14875   */\n      mstore\n        /* \"#utility.yul\":14908:14912   */\n      0x20\n        /* \"#utility.yul\":14903:14906   */\n      dup3\n        /* \"#utility.yul\":14899:14913   */\n      add\n        /* \"#utility.yul\":14884:14913   */\n      swap1\n      pop\n        /* \"#utility.yul\":14750:14919   */\n      swap3\n      swap2\n      pop\n      pop\n      jump\t// out\n        /* \"#utility.yul\":14925:15097   */\n    tag_321:\n        /* \"#utility.yul\":15065:15089   */\n      0x54686973205477656574204e6f74204578697374202100000000000000000000\n        /* \"#utility.yul\":15061:15062   */\n      0x00\n        /* \"#utility.yul\":15053:15059   */\n      dup3\n        /* \"#utility.yul\":15049:15063   */\n      add\n        /* \"#utility.yul\":15042:15090   */\n      mstore\n        /* \"#utility.yul\":14925:15097   */\n      pop\n      jump\t// out\n        /* \"#utility.yul\":15103:15469   */\n    tag_322:\n        /* \"#utility.yul\":15245:15248   */\n      0x00\n        /* \"#utility.yul\":15266:15333   */\n      tag_489\n        /* \"#utility.yul\":15330:15332   */\n      0x16\n        /* \"#utility.yul\":15325:15328   */\n      dup4\n        /* \"#utility.yul\":15266:15333   */\n      tag_320\n      jump\t// in\n    tag_489:\n        /* \"#utility.yul\":15259:15333   */\n      swap2\n      pop\n        /* \"#utility.yul\":15342:15435   */\n      tag_490\n        /* \"#utility.yul\":15431:15434   */\n      dup3\n        /* \"#utility.yul\":15342:15435   */\n      tag_321\n      jump\t// in\n    tag_490:\n        /* \"#utility.yul\":15460:15462   */\n      0x20\n        /* \"#utility.yul\":15455:15458   */\n      dup3\n        /* \"#utility.yul\":15451:15463   */\n      add\n        /* \"#utility.yul\":15444:15463   */\n      swap1\n      pop\n        /* \"#utility.yul\":15103:15469   */\n      swap2\n      swap1\n      pop\n      jump\t// out\n        /* \"#utility.yul\":15475:15894   */\n    tag_55:\n        /* \"#utility.yul\":15641:15645   */\n      0x00\n        /* \"#utility.yul\":15679:15681   */\n      0x20\n        /* \"#utility.yul\":15668:15677   */\n      dup3\n        /* \"#utility.yul\":15664:15682   */\n      add\n        /* \"#utility.yul\":15656:15682   */\n      swap1\n      pop\n        /* \"#utility.yul\":15728:15737   */\n      dup2\n        /* \"#utility.yul\":15722:15726   */\n      dup2\n        /* \"#utility.yul\":15718:15738   */\n      sub\n        /* \"#utility.yul\":15714:15715   */\n      0x00\n        /* \"#utility.yul\":15703:15712   */\n      dup4\n        /* \"#utility.yul\":15699:15716   */\n      add\n        /* \"#utility.yul\":15692:15739   */\n      mstore\n        /* \"#utility.yul\":15756:15887   */\n      tag_492\n        /* \"#utility.yul\":15882:15886   */\n      dup2\n        /* \"#utility.yul\":15756:15887   */\n      tag_322\n      jump\t// in\n    tag_492:\n        /* \"#utility.yul\":15748:15887   */\n      swap1\n      pop\n        /* \"#utility.yul\":15475:15894   */\n      swap2\n      swap1\n      pop\n      jump\t// out\n        /* \"#utility.yul\":15900:16080   */\n    tag_323:\n        /* \"#utility.yul\":15948:16025   */\n      0x4e487b7100000000000000000000000000000000000000000000000000000000\n        /* \"#utility.yul\":15945:15946   */\n      0x00\n        /* \"#utility.yul\":15938:16026   */\n      mstore\n        /* \"#utility.yul\":16045:16049   */\n      0x11\n        /* \"#utility.yul\":16042:16043   */\n      0x04\n        /* \"#utility.yul\":16035:16050   */\n      mstore\n        /* \"#utility.yul\":16069:16073   */\n      0x24\n        /* \"#utility.yul\":16066:16067   */\n      0x00\n        /* \"#utility.yul\":16059:16074   */\n      revert\n        /* \"#utility.yul\":16086:16280   */\n    tag_60:\n        /* \"#utility.yul\":16126:16130   */\n      0x00\n        /* \"#utility.yul\":16146:16166   */\n      tag_495\n        /* \"#utility.yul\":16164:16165   */\n      dup3\n        /* \"#utility.yul\":16146:16166   */\n      tag_286\n      jump\t// in\n    tag_495:\n        /* \"#utility.yul\":16141:16166   */\n      swap2\n      pop\n        /* \"#utility.yul\":16180:16200   */\n      tag_496\n        /* \"#utility.yul\":16198:16199   */\n      dup4\n        /* \"#utility.yul\":16180:16200   */\n      tag_286\n      jump\t// in\n    tag_496:\n        /* \"#utility.yul\":16175:16200   */\n      swap3\n      pop\n        /* \"#utility.yul\":16224:16225   */\n      dup3\n        /* \"#utility.yul\":16221:16222   */\n      dup3\n        /* \"#utility.yul\":16217:16226   */\n      sub\n        /* \"#utility.yul\":16209:16226   */\n      swap1\n      pop\n        /* \"#utility.yul\":16248:16249   */\n      dup2\n        /* \"#utility.yul\":16242:16246   */\n      dup2\n        /* \"#utility.yul\":16239:16250   */\n      gt\n        /* \"#utility.yul\":16236:16273   */\n      iszero\n      tag_497\n      jumpi\n        /* \"#utility.yul\":16253:16271   */\n      tag_498\n      tag_323\n      jump\t// in\n    tag_498:\n        /* \"#utility.yul\":16236:16273   */\n    tag_497:\n        /* \"#utility.yul\":16086:16280   */\n      swap3\n      swap2\n      pop\n      pop\n      jump\t// out\n        /* \"#utility.yul\":16286:16466   */\n    tag_63:\n        /* \"#utility.yul\":16334:16411   */\n      0x4e487b7100000000000000000000000000000000000000000000000000000000\n        /* \"#utility.yul\":16331:16332   */\n      0x00\n        /* \"#utility.yul\":16324:16412   */\n      mstore\n        /* \"#utility.yul\":16431:16435   */\n      0x32\n        /* \"#utility.yul\":16428:16429   */\n      0x04\n        /* \"#utility.yul\":16421:16436   */\n      mstore\n        /* \"#utility.yul\":16455:16459   */\n      0x24\n        /* \"#utility.yul\":16452:16453   */\n      0x00\n        /* \"#utility.yul\":16445:16460   */\n      revert\n        /* \"#utility.yul\":16472:16650   */\n    tag_324:\n        /* \"#utility.yul\":16612:16642   */\n      0x596f7520416c7265616479204c696b6564207468652074776565742100000000\n        /* \"#utility.yul\":16608:16609   */\n      0x00\n        /* \"#utility.yul\":16600:16606   */\n      dup3\n        /* \"#utility.yul\":16596:16610   */\n      add\n        /* \"#utility.yul\":16589:16643   */\n      mstore\n        /* \"#utility.yul\":16472:16650   */\n      pop\n      jump\t// out\n        /* \"#utility.yul\":16656:17022   */\n    tag_325:\n        /* \"#utility.yul\":16798:16801   */\n      0x00\n        /* \"#utility.yul\":16819:16886   */\n      tag_502\n        /* \"#utility.yul\":16883:16885   */\n      0x1c\n        /* \"#utility.yul\":16878:16881   */\n      dup4\n        /* \"#utility.yul\":16819:16886   */\n      tag_320\n      jump\t// in\n    tag_502:\n        /* \"#utility.yul\":16812:16886   */\n      swap2\n      pop\n        /* \"#utility.yul\":16895:16988   */\n      tag_503\n        /* \"#utility.yul\":16984:16987   */\n      dup3\n        /* \"#utility.yul\":16895:16988   */\n      tag_324\n      jump\t// in\n    tag_503:\n        /* \"#utility.yul\":17013:17015   */\n      0x20\n        /* \"#utility.yul\":17008:17011   */\n      dup3\n        /* \"#utility.yul\":17004:17016   */\n      add\n        /* \"#utility.yul\":16997:17016   */\n      swap1\n      pop\n        /* \"#utility.yul\":16656:17022   */\n      swap2\n      swap1\n      pop\n      jump\t// out\n        /* \"#utility.yul\":17028:17447   */\n    tag_75:\n        /* \"#utility.yul\":17194:17198   */\n      0x00\n        /* \"#utility.yul\":17232:17234   */\n      0x20\n        /* \"#utility.yul\":17221:17230   */\n      dup3\n        /* \"#utility.yul\":17217:17235   */\n      add\n        /* \"#utility.yul\":17209:17235   */\n      swap1\n      pop\n        /* \"#utility.yul\":17281:17290   */\n      dup2\n        /* \"#utility.yul\":17275:17279   */\n      dup2\n        /* \"#utility.yul\":17271:17291   */\n      sub\n        /* \"#utility.yul\":17267:17268   */\n      0x00\n        /* \"#utility.yul\":17256:17265   */\n      dup4\n        /* \"#utility.yul\":17252:17269   */\n      add\n        /* \"#utility.yul\":17245:17292   */\n      mstore\n        /* \"#utility.yul\":17309:17440   */\n      tag_505\n        /* \"#utility.yul\":17435:17439   */\n      dup2\n        /* \"#utility.yul\":17309:17440   */\n      tag_325\n      jump\t// in\n    tag_505:\n        /* \"#utility.yul\":17301:17440   */\n      swap1\n      pop\n        /* \"#utility.yul\":17028:17447   */\n      swap2\n      swap1\n      pop\n      jump\t// out\n        /* \"#utility.yul\":17453:17633   */\n    tag_326:\n        /* \"#utility.yul\":17593:17625   */\n      0x596f7520416c726561647920556e4c696b656420746865207477656574210000\n        /* \"#utility.yul\":17589:17590   */\n      0x00\n        /* \"#utility.yul\":17581:17587   */\n      dup3\n        /* \"#utility.yul\":17577:17591   */\n      add\n        /* \"#utility.yul\":17570:17626   */\n      mstore\n        /* \"#utility.yul\":17453:17633   */\n      pop\n      jump\t// out\n        /* \"#utility.yul\":17639:18005   */\n    tag_327:\n        /* \"#utility.yul\":17781:17784   */\n      0x00\n        /* \"#utility.yul\":17802:17869   */\n      tag_508\n        /* \"#utility.yul\":17866:17868   */\n      0x1e\n        /* \"#utility.yul\":17861:17864   */\n      dup4\n        /* \"#utility.yul\":17802:17869   */\n      tag_320\n      jump\t// in\n    tag_508:\n        /* \"#utility.yul\":17795:17869   */\n      swap2\n      pop\n        /* \"#utility.yul\":17878:17971   */\n      tag_509\n        /* \"#utility.yul\":17967:17970   */\n      dup3\n        /* \"#utility.yul\":17878:17971   */\n      tag_326\n      jump\t// in\n    tag_509:\n        /* \"#utility.yul\":17996:17998   */\n      0x20\n        /* \"#utility.yul\":17991:17994   */\n      dup3\n        /* \"#utility.yul\":17987:17999   */\n      add\n        /* \"#utility.yul\":17980:17999   */\n      swap1\n      pop\n        /* \"#utility.yul\":17639:18005   */\n      swap2\n      swap1\n      pop\n      jump\t// out\n        /* \"#utility.yul\":18011:18430   */\n    tag_96:\n        /* \"#utility.yul\":18177:18181   */\n      0x00\n        /* \"#utility.yul\":18215:18217   */\n      0x20\n        /* \"#utility.yul\":18204:18213   */\n      dup3\n        /* \"#utility.yul\":18200:18218   */\n      add\n        /* \"#utility.yul\":18192:18218   */\n      swap1\n      pop\n        /* \"#utility.yul\":18264:18273   */\n      dup2\n        /* \"#utility.yul\":18258:18262   */\n      dup2\n        /* \"#utility.yul\":18254:18274   */\n      sub\n        /* \"#utility.yul\":18250:18251   */\n      0x00\n        /* \"#utility.yul\":18239:18248   */\n      dup4\n        /* \"#utility.yul\":18235:18252   */\n      add\n        /* \"#utility.yul\":18228:18275   */\n      mstore\n        /* \"#utility.yul\":18292:18423   */\n      tag_511\n        /* \"#utility.yul\":18418:18422   */\n      dup2\n        /* \"#utility.yul\":18292:18423   */\n      tag_327\n      jump\t// in\n    tag_511:\n        /* \"#utility.yul\":18284:18423   */\n      swap1\n      pop\n        /* \"#utility.yul\":18011:18430   */\n      swap2\n      swap1\n      pop\n      jump\t// out\n        /* \"#utility.yul\":18436:18669   */\n    tag_328:\n        /* \"#utility.yul\":18576:18610   */\n      0x5468697320697320596f757220547765657421596f752063616e6e2774204c69\n        /* \"#utility.yul\":18572:18573   */\n      0x00\n        /* \"#utility.yul\":18564:18570   */\n      dup3\n        /* \"#utility.yul\":18560:18574   */\n      add\n        /* \"#utility.yul\":18553:18611   */\n      mstore\n        /* \"#utility.yul\":18645:18661   */\n      0x6b6520596f757220547765657421000000000000000000000000000000000000\n        /* \"#utility.yul\":18640:18642   */\n      0x20\n        /* \"#utility.yul\":18632:18638   */\n      dup3\n        /* \"#utility.yul\":18628:18643   */\n      add\n        /* \"#utility.yul\":18621:18662   */\n      mstore\n        /* \"#utility.yul\":18436:18669   */\n      pop\n      jump\t// out\n        /* \"#utility.yul\":18675:19041   */\n    tag_329:\n        /* \"#utility.yul\":18817:18820   */\n      0x00\n        /* \"#utility.yul\":18838:18905   */\n      tag_514\n        /* \"#utility.yul\":18902:18904   */\n      0x2e\n        /* \"#utility.yul\":18897:18900   */\n      dup4\n        /* \"#utility.yul\":18838:18905   */\n      tag_320\n      jump\t// in\n    tag_514:\n        /* \"#utility.yul\":18831:18905   */\n      swap2\n      pop\n        /* \"#utility.yul\":18914:19007   */\n      tag_515\n        /* \"#utility.yul\":19003:19006   */\n      dup3\n        /* \"#utility.yul\":18914:19007   */\n      tag_328\n      jump\t// in\n    tag_515:\n        /* \"#utility.yul\":19032:19034   */\n      0x40\n        /* \"#utility.yul\":19027:19030   */\n      dup3\n        /* \"#utility.yul\":19023:19035   */\n      add\n        /* \"#utility.yul\":19016:19035   */\n      swap1\n      pop\n        /* \"#utility.yul\":18675:19041   */\n      swap2\n      swap1\n      pop\n      jump\t// out\n        /* \"#utility.yul\":19047:19466   */\n    tag_100:\n        /* \"#utility.yul\":19213:19217   */\n      0x00\n        /* \"#utility.yul\":19251:19253   */\n      0x20\n        /* \"#utility.yul\":19240:19249   */\n      dup3\n        /* \"#utility.yul\":19236:19254   */\n      add\n        /* \"#utility.yul\":19228:19254   */\n      swap1\n      pop\n        /* \"#utility.yul\":19300:19309   */\n      dup2\n        /* \"#utility.yul\":19294:19298   */\n      dup2\n        /* \"#utility.yul\":19290:19310   */\n      sub\n        /* \"#utility.yul\":19286:19287   */\n      0x00\n        /* \"#utility.yul\":19275:19284   */\n      dup4\n        /* \"#utility.yul\":19271:19288   */\n      add\n        /* \"#utility.yul\":19264:19311   */\n      mstore\n        /* \"#utility.yul\":19328:19459   */\n      tag_517\n        /* \"#utility.yul\":19454:19458   */\n      dup2\n        /* \"#utility.yul\":19328:19459   */\n      tag_329\n      jump\t// in\n    tag_517:\n        /* \"#utility.yul\":19320:19459   */\n      swap1\n      pop\n        /* \"#utility.yul\":19047:19466   */\n      swap2\n      swap1\n      pop\n      jump\t// out\n        /* \"#utility.yul\":19472:19705   */\n    tag_111:\n        /* \"#utility.yul\":19511:19514   */\n      0x00\n        /* \"#utility.yul\":19534:19558   */\n      tag_519\n        /* \"#utility.yul\":19552:19557   */\n      dup3\n        /* \"#utility.yul\":19534:19558   */\n      tag_286\n      jump\t// in\n    tag_519:\n        /* \"#utility.yul\":19525:19558   */\n      swap2\n      pop\n        /* \"#utility.yul\":19580:19646   */\n      0xffffffffffffffffffffffffffffffffffffffffffffffffffffffffffffffff\n        /* \"#utility.yul\":19573:19578   */\n      dup3\n        /* \"#utility.yul\":19570:19647   */\n      sub\n        /* \"#utility.yul\":19567:19670   */\n      tag_520\n      jumpi\n        /* \"#utility.yul\":19650:19668   */\n      tag_521\n      tag_323\n      jump\t// in\n    tag_521:\n        /* \"#utility.yul\":19567:19670   */\n    tag_520:\n        /* \"#utility.yul\":19697:19698   */\n      0x01\n        /* \"#utility.yul\":19690:19695   */\n      dup3\n        /* \"#utility.yul\":19686:19699   */\n      add\n        /* \"#utility.yul\":19679:19699   */\n      swap1\n      pop\n        /* \"#utility.yul\":19472:19705   */\n      swap2\n      swap1\n      pop\n      jump\t// out\n        /* \"#utility.yul\":19711:19829   */\n    tag_330:\n        /* \"#utility.yul\":19798:19822   */\n      tag_523\n        /* \"#utility.yul\":19816:19821   */\n      dup2\n        /* \"#utility.yul\":19798:19822   */\n      tag_283\n      jump\t// in\n    tag_523:\n        /* \"#utility.yul\":19793:19796   */\n      dup3\n        /* \"#utility.yul\":19786:19823   */\n      mstore\n        /* \"#utility.yul\":19711:19829   */\n      pop\n      pop\n      jump\t// out\n        /* \"#utility.yul\":19835:20388   */\n    tag_121:\n        /* \"#utility.yul\":20012:20016   */\n      0x00\n        /* \"#utility.yul\":20050:20053   */\n      0x80\n        /* \"#utility.yul\":20039:20048   */\n      dup3\n        /* \"#utility.yul\":20035:20054   */\n      add\n        /* \"#utility.yul\":20027:20054   */\n      swap1\n      pop\n        /* \"#utility.yul\":20064:20135   */\n      tag_525\n        /* \"#utility.yul\":20132:20133   */\n      0x00\n        /* \"#utility.yul\":20121:20130   */\n      dup4\n        /* \"#utility.yul\":20117:20134   */\n      add\n        /* \"#utility.yul\":20108:20114   */\n      dup8\n        /* \"#utility.yul\":20064:20135   */\n      tag_330\n      jump\t// in\n    tag_525:\n        /* \"#utility.yul\":20145:20217   */\n      tag_526\n        /* \"#utility.yul\":20213:20215   */\n      0x20\n        /* \"#utility.yul\":20202:20211   */\n      dup4\n        /* \"#utility.yul\":20198:20216   */\n      add\n        /* \"#utility.yul\":20189:20195   */\n      dup7\n        /* \"#utility.yul\":20145:20217   */\n      tag_330\n      jump\t// in\n    tag_526:\n        /* \"#utility.yul\":20227:20299   */\n      tag_527\n        /* \"#utility.yul\":20295:20297   */\n      0x40\n        /* \"#utility.yul\":20284:20293   */\n      dup4\n        /* \"#utility.yul\":20280:20298   */\n      add\n        /* \"#utility.yul\":20271:20277   */\n      dup6\n        /* \"#utility.yul\":20227:20299   */\n      tag_319\n      jump\t// in\n    tag_527:\n        /* \"#utility.yul\":20309:20381   */\n      tag_528\n        /* \"#utility.yul\":20377:20379   */\n      0x60\n        /* \"#utility.yul\":20366:20375   */\n      dup4\n        /* \"#utility.yul\":20362:20380   */\n      add\n        /* \"#utility.yul\":20353:20359   */\n      dup5\n        /* \"#utility.yul\":20309:20381   */\n      tag_319\n      jump\t// in\n    tag_528:\n        /* \"#utility.yul\":19835:20388   */\n      swap6\n      swap5\n      pop\n      pop\n      pop\n      pop\n      pop\n      jump\t// out\n        /* \"#utility.yul\":20394:20574   */\n    tag_331:\n        /* \"#utility.yul\":20442:20519   */\n      0x4e487b7100000000000000000000000000000000000000000000000000000000\n        /* \"#utility.yul\":20439:20440   */\n      0x00\n        /* \"#utility.yul\":20432:20520   */\n      mstore\n        /* \"#utility.yul\":20539:20543   */\n      0x22\n        /* \"#utility.yul\":20536:20537   */\n      0x04\n        /* \"#utility.yul\":20529:20544   */\n      mstore\n        /* \"#utility.yul\":20563:20567   */\n      0x24\n        /* \"#utility.yul\":20560:20561   */\n      0x00\n        /* \"#utility.yul\":20553:20568   */\n      revert\n        /* \"#utility.yul\":20580:20900   */\n    tag_130:\n        /* \"#utility.yul\":20624:20630   */\n      0x00\n        /* \"#utility.yul\":20661:20662   */\n      0x02\n        /* \"#utility.yul\":20655:20659   */\n      dup3\n        /* \"#utility.yul\":20651:20663   */\n      div\n        /* \"#utility.yul\":20641:20663   */\n      swap1\n      pop\n        /* \"#utility.yul\":20708:20709   */\n      0x01\n        /* \"#utility.yul\":20702:20706   */\n      dup3\n        /* \"#utility.yul\":20698:20710   */\n      and\n        /* \"#utility.yul\":20729:20747   */\n      dup1\n        /* \"#utility.yul\":20719:20800   */\n      tag_531\n      jumpi\n        /* \"#utility.yul\":20785:20789   */\n      0x7f\n        /* \"#utility.yul\":20777:20783   */\n      dup3\n        /* \"#utility.yul\":20773:20790   */\n      and\n        /* \"#utility.yul\":20763:20790   */\n      swap2\n      pop\n        /* \"#utility.yul\":20719:20800   */\n    tag_531:\n        /* \"#utility.yul\":20847:20849   */\n      0x20\n        /* \"#utility.yul\":20839:20845   */\n      dup3\n        /* \"#utility.yul\":20836:20850   */\n      lt\n        /* \"#utility.yul\":20816:20834   */\n      dup2\n        /* \"#utility.yul\":20813:20851   */\n      sub\n        /* \"#utility.yul\":20810:20894   */\n      tag_532\n      jumpi\n        /* \"#utility.yul\":20866:20884   */\n      tag_533\n      tag_331\n      jump\t// in\n    tag_533:\n        /* \"#utility.yul\":20810:20894   */\n    tag_532:\n        /* \"#utility.yul\":20631:20900   */\n      pop\n        /* \"#utility.yul\":20580:20900   */\n      swap2\n      swap1\n      pop\n      jump\t// out\n        /* \"#utility.yul\":20906:21086   */\n    tag_155:\n        /* \"#utility.yul\":20954:21031   */\n      0x4e487b7100000000000000000000000000000000000000000000000000000000\n        /* \"#utility.yul\":20951:20952   */\n      0x00\n        /* \"#utility.yul\":20944:21032   */\n      mstore\n        /* \"#utility.yul\":21051:21055   */\n      0x31\n        /* \"#utility.yul\":21048:21049   */\n      0x04\n        /* \"#utility.yul\":21041:21056   */\n      mstore\n        /* \"#utility.yul\":21075:21079   */\n      0x24\n        /* \"#utility.yul\":21072:21073   */\n      0x00\n        /* \"#utility.yul\":21065:21080   */\n      revert\n        /* \"#utility.yul\":21092:21265   */\n    tag_332:\n        /* \"#utility.yul\":21232:21257   */\n      0x5477656574204c656e6774682069732045786365656421000000000000000000\n        /* \"#utility.yul\":21228:21229   */\n      0x00\n        /* \"#utility.yul\":21220:21226   */\n      dup3\n        /* \"#utility.yul\":21216:21230   */\n      add\n        /* \"#utility.yul\":21209:21258   */\n      mstore\n        /* \"#utility.yul\":21092:21265   */\n      pop\n      jump\t// out\n        /* \"#utility.yul\":21271:21637   */\n    tag_333:\n        /* \"#utility.yul\":21413:21416   */\n      0x00\n        /* \"#utility.yul\":21434:21501   */\n      tag_537\n        /* \"#utility.yul\":21498:21500   */\n      0x17\n        /* \"#utility.yul\":21493:21496   */\n      dup4\n        /* \"#utility.yul\":21434:21501   */\n      tag_320\n      jump\t// in\n    tag_537:\n        /* \"#utility.yul\":21427:21501   */\n      swap2\n      pop\n        /* \"#utility.yul\":21510:21603   */\n      tag_538\n        /* \"#utility.yul\":21599:21602   */\n      dup3\n        /* \"#utility.yul\":21510:21603   */\n      tag_332\n      jump\t// in\n    tag_538:\n        /* \"#utility.yul\":21628:21630   */\n      0x20\n        /* \"#utility.yul\":21623:21626   */\n      dup3\n        /* \"#utility.yul\":21619:21631   */\n      add\n        /* \"#utility.yul\":21612:21631   */\n      swap1\n      pop\n        /* \"#utility.yul\":21271:21637   */\n      swap2\n      swap1\n      pop\n      jump\t// out\n        /* \"#utility.yul\":21643:22062   */\n    tag_168:\n        /* \"#utility.yul\":21809:21813   */\n      0x00\n        /* \"#utility.yul\":21847:21849   */\n      0x20\n        /* \"#utility.yul\":21836:21845   */\n      dup3\n        /* \"#utility.yul\":21832:21850   */\n      add\n        /* \"#utility.yul\":21824:21850   */\n      swap1\n      pop\n        /* \"#utility.yul\":21896:21905   */\n      dup2\n        /* \"#utility.yul\":21890:21894   */\n      dup2\n        /* \"#utility.yul\":21886:21906   */\n      sub\n        /* \"#utility.yul\":21882:21883   */\n      0x00\n        /* \"#utility.yul\":21871:21880   */\n      dup4\n        /* \"#utility.yul\":21867:21884   */\n      add\n        /* \"#utility.yul\":21860:21907   */\n      mstore\n        /* \"#utility.yul\":21924:22055   */\n      tag_540\n        /* \"#utility.yul\":22050:22054   */\n      dup2\n        /* \"#utility.yul\":21924:22055   */\n      tag_333\n      jump\t// in\n    tag_540:\n        /* \"#utility.yul\":21916:22055   */\n      swap1\n      pop\n        /* \"#utility.yul\":21643:22062   */\n      swap2\n      swap1\n      pop\n      jump\t// out\n        /* \"#utility.yul\":22068:22259   */\n    tag_170:\n        /* \"#utility.yul\":22108:22111   */\n      0x00\n        /* \"#utility.yul\":22127:22147   */\n      tag_542\n        /* \"#utility.yul\":22145:22146   */\n      dup3\n        /* \"#utility.yul\":22127:22147   */\n      tag_286\n      jump\t// in\n    tag_542:\n        /* \"#utility.yul\":22122:22147   */\n      swap2\n      pop\n        /* \"#utility.yul\":22161:22181   */\n      tag_543\n        /* \"#utility.yul\":22179:22180   */\n      dup4\n        /* \"#utility.yul\":22161:22181   */\n      tag_286\n      jump\t// in\n    tag_543:\n        /* \"#utility.yul\":22156:22181   */\n      swap3\n      pop\n        /* \"#utility.yul\":22204:22205   */\n      dup3\n        /* \"#utility.yul\":22201:22202   */\n      dup3\n        /* \"#utility.yul\":22197:22206   */\n      add\n        /* \"#utility.yul\":22190:22206   */\n      swap1\n      pop\n        /* \"#utility.yul\":22225:22228   */\n      dup1\n        /* \"#utility.yul\":22222:22223   */\n      dup3\n        /* \"#utility.yul\":22219:22229   */\n      gt\n        /* \"#utility.yul\":22216:22252   */\n      iszero\n      tag_544\n      jumpi\n        /* \"#utility.yul\":22232:22250   */\n      tag_545\n      tag_323\n      jump\t// in\n    tag_545:\n        /* \"#utility.yul\":22216:22252   */\n    tag_544:\n        /* \"#utility.yul\":22068:22259   */\n      swap3\n      swap2\n      pop\n      pop\n      jump\t// out\n        /* \"#utility.yul\":22265:22406   */\n    tag_334:\n        /* \"#utility.yul\":22314:22318   */\n      0x00\n        /* \"#utility.yul\":22337:22340   */\n      dup2\n        /* \"#utility.yul\":22329:22340   */\n      swap1\n      pop\n        /* \"#utility.yul\":22360:22363   */\n      dup2\n        /* \"#utility.yul\":22357:22358   */\n      0x00\n        /* \"#utility.yul\":22350:22364   */\n      mstore\n        /* \"#utility.yul\":22394:22398   */\n      0x20\n        /* \"#utility.yul\":22391:22392   */\n      0x00\n        /* \"#utility.yul\":22381:22399   */\n      keccak256\n        /* \"#utility.yul\":22373:22399   */\n      swap1\n      pop\n        /* \"#utility.yul\":22265:22406   */\n      swap2\n      swap1\n      pop\n      jump\t// out\n        /* \"#utility.yul\":22412:22505   */\n    tag_335:\n        /* \"#utility.yul\":22449:22455   */\n      0x00\n        /* \"#utility.yul\":22496:22498   */\n      0x20\n        /* \"#utility.yul\":22491:22493   */\n      0x1f\n        /* \"#utility.yul\":22484:22489   */\n      dup4\n        /* \"#utility.yul\":22480:22494   */\n      add\n        /* \"#utility.yul\":22476:22499   */\n      div\n        /* \"#utility.yul\":22466:22499   */\n      swap1\n      pop\n        /* \"#utility.yul\":22412:22505   */\n      swap2\n      swap1\n      pop\n      jump\t// out\n        /* \"#utility.yul\":22511:22618   */\n    tag_336:\n        /* \"#utility.yul\":22555:22563   */\n      0x00\n        /* \"#utility.yul\":22605:22610   */\n      dup3\n        /* \"#utility.yul\":22599:22603   */\n      dup3\n        /* \"#utility.yul\":22595:22611   */\n      shl\n        /* \"#utility.yul\":22574:22611   */\n      swap1\n      pop\n        /* \"#utility.yul\":22511:22618   */\n      swap3\n      swap2\n      pop\n      pop\n      jump\t// out\n        /* \"#utility.yul\":22624:23017   */\n    tag_337:\n        /* \"#utility.yul\":22693:22699   */\n      0x00\n        /* \"#utility.yul\":22743:22744   */\n      0x08\n        /* \"#utility.yul\":22731:22741   */\n      dup4\n        /* \"#utility.yul\":22727:22745   */\n      mul\n        /* \"#utility.yul\":22766:22863   */\n      tag_550\n        /* \"#utility.yul\":22796:22862   */\n      0xffffffffffffffffffffffffffffffffffffffffffffffffffffffffffffffff\n        /* \"#utility.yul\":22785:22794   */\n      dup3\n        /* \"#utility.yul\":22766:22863   */\n      tag_336\n      jump\t// in\n    tag_550:\n        /* \"#utility.yul\":22884:22923   */\n      tag_551\n        /* \"#utility.yul\":22914:22922   */\n      dup7\n        /* \"#utility.yul\":22903:22912   */\n      dup4\n        /* \"#utility.yul\":22884:22923   */\n      tag_336\n      jump\t// in\n    tag_551:\n        /* \"#utility.yul\":22872:22923   */\n      swap6\n      pop\n        /* \"#utility.yul\":22956:22960   */\n      dup1\n        /* \"#utility.yul\":22952:22961   */\n      not\n        /* \"#utility.yul\":22945:22950   */\n      dup5\n        /* \"#utility.yul\":22941:22962   */\n      and\n        /* \"#utility.yul\":22932:22962   */\n      swap4\n      pop\n        /* \"#utility.yul\":23005:23009   */\n      dup1\n        /* \"#utility.yul\":22995:23003   */\n      dup7\n        /* \"#utility.yul\":22991:23010   */\n      and\n        /* \"#utility.yul\":22984:22989   */\n      dup5\n        /* \"#utility.yul\":22981:23011   */\n      or\n        /* \"#utility.yul\":22971:23011   */\n      swap3\n      pop\n        /* \"#utility.yul\":22700:23017   */\n      pop\n      pop\n        /* \"#utility.yul\":22624:23017   */\n      swap4\n      swap3\n      pop\n      pop\n      pop\n      jump\t// out\n        /* \"#utility.yul\":23023:23083   */\n    tag_338:\n        /* \"#utility.yul\":23051:23054   */\n      0x00\n        /* \"#utility.yul\":23072:23077   */\n      dup2\n        /* \"#utility.yul\":23065:23077   */\n      swap1\n      pop\n        /* \"#utility.yul\":23023:23083   */\n      swap2\n      swap1\n      pop\n      jump\t// out\n        /* \"#utility.yul\":23089:23231   */\n    tag_339:\n        /* \"#utility.yul\":23139:23148   */\n      0x00\n        /* \"#utility.yul\":23172:23225   */\n      tag_554\n        /* \"#utility.yul\":23190:23224   */\n      tag_555\n        /* \"#utility.yul\":23199:23223   */\n      tag_556\n        /* \"#utility.yul\":23217:23222   */\n      dup5\n        /* \"#utility.yul\":23199:23223   */\n      tag_286\n      jump\t// in\n    tag_556:\n        /* \"#utility.yul\":23190:23224   */\n      tag_338\n      jump\t// in\n    tag_555:\n        /* \"#utility.yul\":23172:23225   */\n      tag_286\n      jump\t// in\n    tag_554:\n        /* \"#utility.yul\":23159:23225   */\n      swap1\n      pop\n        /* \"#utility.yul\":23089:23231   */\n      swap2\n      swap1\n      pop\n      jump\t// out\n        /* \"#utility.yul\":23237:23312   */\n    tag_340:\n        /* \"#utility.yul\":23280:23283   */\n      0x00\n        /* \"#utility.yul\":23301:23306   */\n      dup2\n        /* \"#utility.yul\":23294:23306   */\n      swap1\n      pop\n        /* \"#utility.yul\":23237:23312   */\n      swap2\n      swap1\n      pop\n      jump\t// out\n        /* \"#utility.yul\":23318:23587   */\n    tag_341:\n        /* \"#utility.yul\":23428:23467   */\n      tag_559\n        /* \"#utility.yul\":23459:23466   */\n      dup4\n        /* \"#utility.yul\":23428:23467   */\n      tag_339\n      jump\t// in\n    tag_559:\n        /* \"#utility.yul\":23489:23580   */\n      tag_560\n        /* \"#utility.yul\":23538:23579   */\n      tag_561\n        /* \"#utility.yul\":23562:23578   */\n      dup3\n        /* \"#utility.yul\":23538:23579   */\n      tag_340\n      jump\t// in\n    tag_561:\n        /* \"#utility.yul\":23530:23536   */\n      dup5\n        /* \"#utility.yul\":23523:23527   */\n      dup5\n        /* \"#utility.yul\":23517:23528   */\n      sload\n        /* \"#utility.yul\":23489:23580   */\n      tag_337\n      jump\t// in\n    tag_560:\n        /* \"#utility.yul\":23483:23487   */\n      dup3\n        /* \"#utility.yul\":23476:23581   */\n      sstore\n        /* \"#utility.yul\":23394:23587   */\n      pop\n        /* \"#utility.yul\":23318:23587   */\n      pop\n      pop\n      pop\n      jump\t// out\n        /* \"#utility.yul\":23593:23666   */\n    tag_342:\n        /* \"#utility.yul\":23638:23641   */\n      0x00\n        /* \"#utility.yul\":23593:23666   */\n      swap1\n      jump\t// out\n        /* \"#utility.yul\":23672:23861   */\n    tag_343:\n        /* \"#utility.yul\":23749:23781   */\n      tag_564\n      tag_342\n      jump\t// in\n    tag_564:\n        /* \"#utility.yul\":23790:23855   */\n      tag_565\n        /* \"#utility.yul\":23848:23854   */\n      dup2\n        /* \"#utility.yul\":23840:23846   */\n      dup5\n        /* \"#utility.yul\":23834:23838   */\n      dup5\n        /* \"#utility.yul\":23790:23855   */\n      tag_341\n      jump\t// in\n    tag_565:\n        /* \"#utility.yul\":23725:23861   */\n      pop\n        /* \"#utility.yul\":23672:23861   */\n      pop\n      pop\n      jump\t// out\n        /* \"#utility.yul\":23867:24053   */\n    tag_344:\n        /* \"#utility.yul\":23927:24047   */\n    tag_567:\n        /* \"#utility.yul\":23944:23947   */\n      dup2\n        /* \"#utility.yul\":23937:23942   */\n      dup2\n        /* \"#utility.yul\":23934:23948   */\n      lt\n        /* \"#utility.yul\":23927:24047   */\n      iszero\n      tag_569\n      jumpi\n        /* \"#utility.yul\":23998:24037   */\n      tag_570\n        /* \"#utility.yul\":24035:24036   */\n      0x00\n        /* \"#utility.yul\":24028:24033   */\n      dup3\n        /* \"#utility.yul\":23998:24037   */\n      tag_343\n      jump\t// in\n    tag_570:\n        /* \"#utility.yul\":23971:23972   */\n      0x01\n        /* \"#utility.yul\":23964:23969   */\n      dup2\n        /* \"#utility.yul\":23960:23973   */\n      add\n        /* \"#utility.yul\":23951:23973   */\n      swap1\n      pop\n        /* \"#utility.yul\":23927:24047   */\n      jump(tag_567)\n    tag_569:\n        /* \"#utility.yul\":23867:24053   */\n      pop\n      pop\n      jump\t// out\n        /* \"#utility.yul\":24059:24602   */\n    tag_345:\n        /* \"#utility.yul\":24160:24162   */\n      0x1f\n        /* \"#utility.yul\":24155:24158   */\n      dup3\n        /* \"#utility.yul\":24152:24163   */\n      gt\n        /* \"#utility.yul\":24149:24595   */\n      iszero\n      tag_572\n      jumpi\n        /* \"#utility.yul\":24194:24232   */\n      tag_573\n        /* \"#utility.yul\":24226:24231   */\n      dup2\n        /* \"#utility.yul\":24194:24232   */\n      tag_334\n      jump\t// in\n    tag_573:\n        /* \"#utility.yul\":24278:24307   */\n      tag_574\n        /* \"#utility.yul\":24296:24306   */\n      dup5\n        /* \"#utility.yul\":24278:24307   */\n      tag_335\n      jump\t// in\n    tag_574:\n        /* \"#utility.yul\":24268:24276   */\n      dup2\n        /* \"#utility.yul\":24264:24308   */\n      add\n        /* \"#utility.yul\":24461:24463   */\n      0x20\n        /* \"#utility.yul\":24449:24459   */\n      dup6\n        /* \"#utility.yul\":24446:24464   */\n      lt\n        /* \"#utility.yul\":24443:24492   */\n      iszero\n      tag_575\n      jumpi\n        /* \"#utility.yul\":24482:24490   */\n      dup2\n        /* \"#utility.yul\":24467:24490   */\n      swap1\n      pop\n        /* \"#utility.yul\":24443:24492   */\n    tag_575:\n        /* \"#utility.yul\":24505:24585   */\n      tag_576\n        /* \"#utility.yul\":24561:24583   */\n      tag_577\n        /* \"#utility.yul\":24579:24582   */\n      dup6\n        /* \"#utility.yul\":24561:24583   */\n      tag_335\n      jump\t// in\n    tag_577:\n        /* \"#utility.yul\":24551:24559   */\n      dup4\n        /* \"#utility.yul\":24547:24584   */\n      add\n        /* \"#utility.yul\":24534:24545   */\n      dup3\n        /* \"#utility.yul\":24505:24585   */\n      tag_344\n      jump\t// in\n    tag_576:\n        /* \"#utility.yul\":24164:24595   */\n      pop\n      pop\n        /* \"#utility.yul\":24149:24595   */\n    tag_572:\n        /* \"#utility.yul\":24059:24602   */\n      pop\n      pop\n      pop\n      jump\t// out\n        /* \"#utility.yul\":24608:24725   */\n    tag_346:\n        /* \"#utility.yul\":24662:24670   */\n      0x00\n        /* \"#utility.yul\":24712:24717   */\n      dup3\n        /* \"#utility.yul\":24706:24710   */\n      dup3\n        /* \"#utility.yul\":24702:24718   */\n      shr\n        /* \"#utility.yul\":24681:24718   */\n      swap1\n      pop\n        /* \"#utility.yul\":24608:24725   */\n      swap3\n      swap2\n      pop\n      pop\n      jump\t// out\n        /* \"#utility.yul\":24731:24900   */\n    tag_347:\n        /* \"#utility.yul\":24775:24781   */\n      0x00\n        /* \"#utility.yul\":24808:24859   */\n      tag_580\n        /* \"#utility.yul\":24856:24857   */\n      0x00\n        /* \"#utility.yul\":24852:24858   */\n      not\n        /* \"#utility.yul\":24844:24849   */\n      dup5\n        /* \"#utility.yul\":24841:24842   */\n      0x08\n        /* \"#utility.yul\":24837:24850   */\n      mul\n        /* \"#utility.yul\":24808:24859   */\n      tag_346\n      jump\t// in\n    tag_580:\n        /* \"#utility.yul\":24804:24860   */\n      not\n        /* \"#utility.yul\":24889:24893   */\n      dup1\n        /* \"#utility.yul\":24883:24887   */\n      dup4\n        /* \"#utility.yul\":24879:24894   */\n      and\n        /* \"#utility.yul\":24869:24894   */\n      swap2\n      pop\n        /* \"#utility.yul\":24782:24900   */\n      pop\n        /* \"#utility.yul\":24731:24900   */\n      swap3\n      swap2\n      pop\n      pop\n      jump\t// out\n        /* \"#utility.yul\":24905:25200   */\n    tag_348:\n        /* \"#utility.yul\":24981:24985   */\n      0x00\n        /* \"#utility.yul\":25127:25156   */\n      tag_582\n        /* \"#utility.yul\":25152:25155   */\n      dup4\n        /* \"#utility.yul\":25146:25150   */\n      dup4\n        /* \"#utility.yul\":25127:25156   */\n      tag_347\n      jump\t// in\n    tag_582:\n        /* \"#utility.yul\":25119:25156   */\n      swap2\n      pop\n        /* \"#utility.yul\":25189:25192   */\n      dup3\n        /* \"#utility.yul\":25186:25187   */\n      0x02\n        /* \"#utility.yul\":25182:25193   */\n      mul\n        /* \"#utility.yul\":25176:25180   */\n      dup3\n        /* \"#utility.yul\":25173:25194   */\n      or\n        /* \"#utility.yul\":25165:25194   */\n      swap1\n      pop\n        /* \"#utility.yul\":24905:25200   */\n      swap3\n      swap2\n      pop\n      pop\n      jump\t// out\n        /* \"#utility.yul\":25205:26600   */\n    tag_177:\n        /* \"#utility.yul\":25322:25359   */\n      tag_584\n        /* \"#utility.yul\":25355:25358   */\n      dup3\n        /* \"#utility.yul\":25322:25359   */\n      tag_290\n      jump\t// in\n    tag_584:\n        /* \"#utility.yul\":25424:25442   */\n      0xffffffffffffffff\n        /* \"#utility.yul\":25416:25422   */\n      dup2\n        /* \"#utility.yul\":25413:25443   */\n      gt\n        /* \"#utility.yul\":25410:25466   */\n      iszero\n      tag_585\n      jumpi\n        /* \"#utility.yul\":25446:25464   */\n      tag_586\n      tag_312\n      jump\t// in\n    tag_586:\n        /* \"#utility.yul\":25410:25466   */\n    tag_585:\n        /* \"#utility.yul\":25490:25528   */\n      tag_587\n        /* \"#utility.yul\":25522:25526   */\n      dup3\n        /* \"#utility.yul\":25516:25527   */\n      sload\n        /* \"#utility.yul\":25490:25528   */\n      tag_130\n      jump\t// in\n    tag_587:\n        /* \"#utility.yul\":25575:25642   */\n      tag_588\n        /* \"#utility.yul\":25635:25641   */\n      dup3\n        /* \"#utility.yul\":25627:25633   */\n      dup3\n        /* \"#utility.yul\":25621:25625   */\n      dup6\n        /* \"#utility.yul\":25575:25642   */\n      tag_345\n      jump\t// in\n    tag_588:\n        /* \"#utility.yul\":25669:25670   */\n      0x00\n        /* \"#utility.yul\":25693:25697   */\n      0x20\n        /* \"#utility.yul\":25680:25697   */\n      swap1\n      pop\n        /* \"#utility.yul\":25725:25727   */\n      0x1f\n        /* \"#utility.yul\":25717:25723   */\n      dup4\n        /* \"#utility.yul\":25714:25728   */\n      gt\n        /* \"#utility.yul\":25742:25743   */\n      0x01\n        /* \"#utility.yul\":25737:26355   */\n      dup2\n      eq\n      tag_590\n      jumpi\n        /* \"#utility.yul\":26399:26400   */\n      0x00\n        /* \"#utility.yul\":26416:26422   */\n      dup5\n        /* \"#utility.yul\":26413:26490   */\n      iszero\n      tag_591\n      jumpi\n        /* \"#utility.yul\":26465:26474   */\n      dup3\n        /* \"#utility.yul\":26460:26463   */\n      dup8\n        /* \"#utility.yul\":26456:26475   */\n      add\n        /* \"#utility.yul\":26450:26476   */\n      mload\n        /* \"#utility.yul\":26441:26476   */\n      swap1\n      pop\n        /* \"#utility.yul\":26413:26490   */\n    tag_591:\n        /* \"#utility.yul\":26516:26583   */\n      tag_592\n        /* \"#utility.yul\":26576:26582   */\n      dup6\n        /* \"#utility.yul\":26569:26574   */\n      dup3\n        /* \"#utility.yul\":26516:26583   */\n      tag_348\n      jump\t// in\n    tag_592:\n        /* \"#utility.yul\":26510:26514   */\n      dup7\n        /* \"#utility.yul\":26503:26584   */\n      sstore\n        /* \"#utility.yul\":26372:26594   */\n      pop\n        /* \"#utility.yul\":25707:26594   */\n      jump(tag_589)\n        /* \"#utility.yul\":25737:26355   */\n    tag_590:\n        /* \"#utility.yul\":25789:25793   */\n      0x1f\n        /* \"#utility.yul\":25785:25794   */\n      not\n        /* \"#utility.yul\":25777:25783   */\n      dup5\n        /* \"#utility.yul\":25773:25795   */\n      and\n        /* \"#utility.yul\":25823:25860   */\n      tag_593\n        /* \"#utility.yul\":25855:25859   */\n      dup7\n        /* \"#utility.yul\":25823:25860   */\n      tag_334\n      jump\t// in\n    tag_593:\n        /* \"#utility.yul\":25882:25883   */\n      0x00\n        /* \"#utility.yul\":25896:26104   */\n    tag_594:\n        /* \"#utility.yul\":25910:25917   */\n      dup3\n        /* \"#utility.yul\":25907:25908   */\n      dup2\n        /* \"#utility.yul\":25904:25918   */\n      lt\n        /* \"#utility.yul\":25896:26104   */\n      iszero\n      tag_596\n      jumpi\n        /* \"#utility.yul\":25989:25998   */\n      dup5\n        /* \"#utility.yul\":25984:25987   */\n      dup10\n        /* \"#utility.yul\":25980:25999   */\n      add\n        /* \"#utility.yul\":25974:26000   */\n      mload\n        /* \"#utility.yul\":25966:25972   */\n      dup3\n        /* \"#utility.yul\":25959:26001   */\n      sstore\n        /* \"#utility.yul\":26040:26041   */\n      0x01\n        /* \"#utility.yul\":26032:26038   */\n      dup3\n        /* \"#utility.yul\":26028:26042   */\n      add\n        /* \"#utility.yul\":26018:26042   */\n      swap2\n      pop\n        /* \"#utility.yul\":26087:26089   */\n      0x20\n        /* \"#utility.yul\":26076:26085   */\n      dup6\n        /* \"#utility.yul\":26072:26090   */\n      add\n        /* \"#utility.yul\":26059:26090   */\n      swap5\n      pop\n        /* \"#utility.yul\":25933:25937   */\n      0x20\n        /* \"#utility.yul\":25930:25931   */\n      dup2\n        /* \"#utility.yul\":25926:25938   */\n      add\n        /* \"#utility.yul\":25921:25938   */\n      swap1\n      pop\n        /* \"#utility.yul\":25896:26104   */\n      jump(tag_594)\n    tag_596:\n        /* \"#utility.yul\":26132:26138   */\n      dup7\n        /* \"#utility.yul\":26123:26130   */\n      dup4\n        /* \"#utility.yul\":26120:26139   */\n      lt\n        /* \"#utility.yul\":26117:26296   */\n      iszero\n      tag_597\n      jumpi\n        /* \"#utility.yul\":26190:26199   */\n      dup5\n        /* \"#utility.yul\":26185:26188   */\n      dup10\n        /* \"#utility.yul\":26181:26200   */\n      add\n        /* \"#utility.yul\":26175:26201   */\n      mload\n        /* \"#utility.yul\":26233:26281   */\n      tag_598\n        /* \"#utility.yul\":26275:26279   */\n      0x1f\n        /* \"#utility.yul\":26267:26273   */\n      dup10\n        /* \"#utility.yul\":26263:26280   */\n      and\n        /* \"#utility.yul\":26252:26261   */\n      dup3\n        /* \"#utility.yul\":26233:26281   */\n      tag_347\n      jump\t// in\n    tag_598:\n        /* \"#utility.yul\":26225:26231   */\n      dup4\n        /* \"#utility.yul\":26218:26282   */\n      sstore\n        /* \"#utility.yul\":26140:26296   */\n      pop\n        /* \"#utility.yul\":26117:26296   */\n    tag_597:\n        /* \"#utility.yul\":26342:26343   */\n      0x01\n        /* \"#utility.yul\":26338:26339   */\n      0x02\n        /* \"#utility.yul\":26330:26336   */\n      dup9\n        /* \"#utility.yul\":26326:26340   */\n      mul\n        /* \"#utility.yul\":26322:26344   */\n      add\n        /* \"#utility.yul\":26316:26320   */\n      dup9\n        /* \"#utility.yul\":26309:26345   */\n      sstore\n        /* \"#utility.yul\":25744:26355   */\n      pop\n      pop\n      pop\n        /* \"#utility.yul\":25707:26594   */\n    tag_589:\n      pop\n        /* \"#utility.yul\":25297:26600   */\n      pop\n      pop\n      pop\n        /* \"#utility.yul\":25205:26600   */\n      pop\n      pop\n      jump\t// out\n        /* \"#utility.yul\":26606:26983   */\n    tag_349:\n        /* \"#utility.yul\":26694:26697   */\n      0x00\n        /* \"#utility.yul\":26722:26761   */\n      tag_600\n        /* \"#utility.yul\":26755:26760   */\n      dup3\n        /* \"#utility.yul\":26722:26761   */\n      tag_290\n      jump\t// in\n    tag_600:\n        /* \"#utility.yul\":26777:26848   */\n      tag_601\n        /* \"#utility.yul\":26841:26847   */\n      dup2\n        /* \"#utility.yul\":26836:26839   */\n      dup6\n        /* \"#utility.yul\":26777:26848   */\n      tag_320\n      jump\t// in\n    tag_601:\n        /* \"#utility.yul\":26770:26848   */\n      swap4\n      pop\n        /* \"#utility.yul\":26857:26922   */\n      tag_602\n        /* \"#utility.yul\":26915:26921   */\n      dup2\n        /* \"#utility.yul\":26910:26913   */\n      dup6\n        /* \"#utility.yul\":26903:26907   */\n      0x20\n        /* \"#utility.yul\":26896:26901   */\n      dup7\n        /* \"#utility.yul\":26892:26908   */\n      add\n        /* \"#utility.yul\":26857:26922   */\n      tag_292\n      jump\t// in\n    tag_602:\n        /* \"#utility.yul\":26947:26976   */\n      tag_603\n        /* \"#utility.yul\":26969:26975   */\n      dup2\n        /* \"#utility.yul\":26947:26976   */\n      tag_293\n      jump\t// in\n    tag_603:\n        /* \"#utility.yul\":26942:26945   */\n      dup5\n        /* \"#utility.yul\":26938:26977   */\n      add\n        /* \"#utility.yul\":26931:26977   */\n      swap2\n      pop\n        /* \"#utility.yul\":26698:26983   */\n      pop\n        /* \"#utility.yul\":26606:26983   */\n      swap3\n      swap2\n      pop\n      pop\n      jump\t// out\n        /* \"#utility.yul\":26989:27633   */\n    tag_183:\n        /* \"#utility.yul\":27186:27190   */\n      0x00\n        /* \"#utility.yul\":27224:27227   */\n      0x80\n        /* \"#utility.yul\":27213:27222   */\n      dup3\n        /* \"#utility.yul\":27209:27228   */\n      add\n        /* \"#utility.yul\":27201:27228   */\n      swap1\n      pop\n        /* \"#utility.yul\":27238:27309   */\n      tag_605\n        /* \"#utility.yul\":27306:27307   */\n      0x00\n        /* \"#utility.yul\":27295:27304   */\n      dup4\n        /* \"#utility.yul\":27291:27308   */\n      add\n        /* \"#utility.yul\":27282:27288   */\n      dup8\n        /* \"#utility.yul\":27238:27309   */\n      tag_319\n      jump\t// in\n    tag_605:\n        /* \"#utility.yul\":27319:27391   */\n      tag_606\n        /* \"#utility.yul\":27387:27389   */\n      0x20\n        /* \"#utility.yul\":27376:27385   */\n      dup4\n        /* \"#utility.yul\":27372:27390   */\n      add\n        /* \"#utility.yul\":27363:27369   */\n      dup7\n        /* \"#utility.yul\":27319:27391   */\n      tag_330\n      jump\t// in\n    tag_606:\n        /* \"#utility.yul\":27438:27447   */\n      dup2\n        /* \"#utility.yul\":27432:27436   */\n      dup2\n        /* \"#utility.yul\":27428:27448   */\n      sub\n        /* \"#utility.yul\":27423:27425   */\n      0x40\n        /* \"#utility.yul\":27412:27421   */\n      dup4\n        /* \"#utility.yul\":27408:27426   */\n      add\n        /* \"#utility.yul\":27401:27449   */\n      mstore\n        /* \"#utility.yul\":27466:27544   */\n      tag_607\n        /* \"#utility.yul\":27539:27543   */\n      dup2\n        /* \"#utility.yul\":27530:27536   */\n      dup6\n        /* \"#utility.yul\":27466:27544   */\n      tag_349\n      jump\t// in\n    tag_607:\n        /* \"#utility.yul\":27458:27544   */\n      swap1\n      pop\n        /* \"#utility.yul\":27554:27626   */\n      tag_608\n        /* \"#utility.yul\":27622:27624   */\n      0x60\n        /* \"#utility.yul\":27611:27620   */\n      dup4\n        /* \"#utility.yul\":27607:27625   */\n      add\n        /* \"#utility.yul\":27598:27604   */\n      dup5\n        /* \"#utility.yul\":27554:27626   */\n      tag_319\n      jump\t// in\n    tag_608:\n        /* \"#utility.yul\":26989:27633   */\n      swap6\n      swap5\n      pop\n      pop\n      pop\n      pop\n      pop\n      jump\t// out\n        /* \"#utility.yul\":27639:27864   */\n    tag_350:\n        /* \"#utility.yul\":27779:27813   */\n      0x596f7520617265206e6f742061204f776e6572215065726d697373696f6e2044\n        /* \"#utility.yul\":27775:27776   */\n      0x00\n        /* \"#utility.yul\":27767:27773   */\n      dup3\n        /* \"#utility.yul\":27763:27777   */\n      add\n        /* \"#utility.yul\":27756:27814   */\n      mstore\n        /* \"#utility.yul\":27848:27856   */\n      0x656e696564210000000000000000000000000000000000000000000000000000\n        /* \"#utility.yul\":27843:27845   */\n      0x20\n        /* \"#utility.yul\":27835:27841   */\n      dup3\n        /* \"#utility.yul\":27831:27846   */\n      add\n        /* \"#utility.yul\":27824:27857   */\n      mstore\n        /* \"#utility.yul\":27639:27864   */\n      pop\n      jump\t// out\n        /* \"#utility.yul\":27870:28236   */\n    tag_351:\n        /* \"#utility.yul\":28012:28015   */\n      0x00\n        /* \"#utility.yul\":28033:28100   */\n      tag_611\n        /* \"#utility.yul\":28097:28099   */\n      0x26\n        /* \"#utility.yul\":28092:28095   */\n      dup4\n        /* \"#utility.yul\":28033:28100   */\n      tag_320\n      jump\t// in\n    tag_611:\n        /* \"#utility.yul\":28026:28100   */\n      swap2\n      pop\n        /* \"#utility.yul\":28109:28202   */\n      tag_612\n        /* \"#utility.yul\":28198:28201   */\n      dup3\n        /* \"#utility.yul\":28109:28202   */\n      tag_350\n      jump\t// in\n    tag_612:\n        /* \"#utility.yul\":28227:28229   */\n      0x40\n        /* \"#utility.yul\":28222:28225   */\n      dup3\n        /* \"#utility.yul\":28218:28230   */\n      add\n        /* \"#utility.yul\":28211:28230   */\n      swap1\n      pop\n        /* \"#utility.yul\":27870:28236   */\n      swap2\n      swap1\n      pop\n      jump\t// out\n        /* \"#utility.yul\":28242:28661   */\n    tag_256:\n        /* \"#utility.yul\":28408:28412   */\n      0x00\n        /* \"#utility.yul\":28446:28448   */\n      0x20\n        /* \"#utility.yul\":28435:28444   */\n      dup3\n        /* \"#utility.yul\":28431:28449   */\n      add\n        /* \"#utility.yul\":28423:28449   */\n      swap1\n      pop\n        /* \"#utility.yul\":28495:28504   */\n      dup2\n        /* \"#utility.yul\":28489:28493   */\n      dup2\n        /* \"#utility.yul\":28485:28505   */\n      sub\n        /* \"#utility.yul\":28481:28482   */\n      0x00\n        /* \"#utility.yul\":28470:28479   */\n      dup4\n        /* \"#utility.yul\":28466:28483   */\n      add\n        /* \"#utility.yul\":28459:28506   */\n      mstore\n        /* \"#utility.yul\":28523:28654   */\n      tag_614\n        /* \"#utility.yul\":28649:28653   */\n      dup2\n        /* \"#utility.yul\":28523:28654   */\n      tag_351\n      jump\t// in\n    tag_614:\n        /* \"#utility.yul\":28515:28654   */\n      swap1\n      pop\n        /* \"#utility.yul\":28242:28661   */\n      swap2\n      swap1\n      pop\n      jump\t// out\n\n    auxdata: 0xa2646970667358221220e6984561ace4f1a02dd73b7ac52edd47d717979519cb69d8e489155d0da2edc164736f6c63430008170033\n}\n",
				"bytecode": {
					"linkReferences": {},
					"object": "6080604052600a600155348015610014575f80fd5b50335f806101000a81548173ffffffffffffffffffffffffffffffffffffffff021916908373ffffffffffffffffffffffffffffffffffffffff160217905550612bdc806100615f395ff3fe608060405234801561000f575f80fd5b506004361061009c575f3560e01c80637c9cd2bc116100645780637c9cd2bc1461011e578063820785cc1461013a578063a110e72d1461016a578063a6156d7714610186578063e479c244146101b65761009c565b80631216cdc5146100a057806337f36a4c146100bc57806342d7fbc0146100ec57806371e7eb121461010a578063765fab4514610114575b5f80fd5b6100ba60048036038101906100b59190611e19565b6101d2565b005b6100d660048036038101906100d19190611e19565b610909565b6040516100e39190612062565b60405180910390f35b6100f4610bae565b60405161010191906121f8565b60405180910390f35b610112610e68565b005b61011c610f3c565b005b61013860048036038101906101339190612344565b610f86565b005b610154600480360381019061014f919061238b565b611320565b60405161016191906123c5565b60405180910390f35b610184600480360381019061017f9190611e19565b6113f2565b005b6101a0600480360381019061019b919061238b565b611a19565b6040516101ad91906123c5565b60405180910390f35b6101d060048036038101906101cb91906123de565b611aeb565b005b81815f600190508160035f8573ffffffffffffffffffffffffffffffffffffffff1673ffffffffffffffffffffffffffffffffffffffff1681526020019081526020015f2080549050101561025c576040517f08c379a000000000000000000000000000000000000000000000000000000000815260040161025390612463565b60405180910390fd5b5f5b60035f8573ffffffffffffffffffffffffffffffffffffffff1673ffffffffffffffffffffffffffffffffffffffff1681526020019081526020015f206001846102a891906124ae565b815481106102b9576102b86124e1565b5b905f5260205f209060080201600401805490508110156103be573373ffffffffffffffffffffffffffffffffffffffff1660035f8673ffffffffffffffffffffffffffffffffffffffff1673ffffffffffffffffffffffffffffffffffffffff1681526020019081526020015f2060018561033491906124ae565b81548110610345576103446124e1565b5b905f5260205f2090600802016004018281548110610366576103656124e1565b5b905f5260205f20015f9054906101000a900473ffffffffffffffffffffffffffffffffffffffff1673ffffffffffffffffffffffffffffffffffffffff16036103b1575f91506103be565b808060010191505061025e565b506001151581151514610406576040517f08c379a00000000000000000000000000000000000000000000000000000000081526004016103fd90612558565b60405180910390fd5b84845f600190508160035f8573ffffffffffffffffffffffffffffffffffffffff1673ffffffffffffffffffffffffffffffffffffffff1681526020019081526020015f20805490501015610490576040517f08c379a000000000000000000000000000000000000000000000000000000000815260040161048790612463565b60405180910390fd5b5f5b60035f8573ffffffffffffffffffffffffffffffffffffffff1673ffffffffffffffffffffffffffffffffffffffff1681526020019081526020015f206001846104dc91906124ae565b815481106104ed576104ec6124e1565b5b905f5260205f209060080201600701805490508110156105f2573373ffffffffffffffffffffffffffffffffffffffff1660035f8673ffffffffffffffffffffffffffffffffffffffff1673ffffffffffffffffffffffffffffffffffffffff1681526020019081526020015f2060018561056891906124ae565b81548110610579576105786124e1565b5b905f5260205f209060080201600701828154811061059a576105996124e1565b5b905f5260205f20015f9054906101000a900473ffffffffffffffffffffffffffffffffffffffff1673ffffffffffffffffffffffffffffffffffffffff16036105e5575f91506105f2565b8080600101915050610492565b50600115158115151461063a576040517f08c379a0000000000000000000000000000000000000000000000000000000008152600401610631906125c0565b60405180910390fd5b3373ffffffffffffffffffffffffffffffffffffffff168873ffffffffffffffffffffffffffffffffffffffff16036106a8576040517f08c379a000000000000000000000000000000000000000000000000000000000815260040161069f9061264e565b60405180910390fd5b60035f8973ffffffffffffffffffffffffffffffffffffffff1673ffffffffffffffffffffffffffffffffffffffff1681526020019081526020015f206001886106f291906124ae565b81548110610703576107026124e1565b5b905f5260205f20906008020160040133908060018154018082558091505060019003905f5260205f20015f9091909190916101000a81548173ffffffffffffffffffffffffffffffffffffffff021916908373ffffffffffffffffffffffffffffffffffffffff16021790555060035f8973ffffffffffffffffffffffffffffffffffffffff1673ffffffffffffffffffffffffffffffffffffffff1681526020019081526020015f206001886107ba91906124ae565b815481106107cb576107ca6124e1565b5b905f5260205f2090600802016005015f8154809291906107ea9061266c565b91905055507fe8a76fc0f16d11a00d1e93b689b63d76cf60af914dd3d915375dc41d01a0c3c8338960035f8c73ffffffffffffffffffffffffffffffffffffffff1673ffffffffffffffffffffffffffffffffffffffff1681526020019081526020015f2060018b61085c91906124ae565b8154811061086d5761086c6124e1565b5b905f5260205f2090600802016005015460035f8d73ffffffffffffffffffffffffffffffffffffffff1673ffffffffffffffffffffffffffffffffffffffff1681526020019081526020015f2060018c6108c791906124ae565b815481106108d8576108d76124e1565b5b905f5260205f2090600802015f01546040516108f794939291906126c2565b60405180910390a15050505050505050565b610911611b82565b60035f8473ffffffffffffffffffffffffffffffffffffffff1673ffffffffffffffffffffffffffffffffffffffff1681526020019081526020015f2060018361095b91906124ae565b8154811061096c5761096b6124e1565b5b905f5260205f209060080201604051806101000160405290815f820154815260200160018201805461099d90612732565b80601f01602080910402602001604051908101604052809291908181526020018280546109c990612732565b8015610a145780601f106109eb57610100808354040283529160200191610a14565b820191905f5260205f20905b8154815290600101906020018083116109f757829003601f168201915b50505050508152602001600282015f9054906101000a900473ffffffffffffffffffffffffffffffffffffffff1673ffffffffffffffffffffffffffffffffffffffff1673ffffffffffffffffffffffffffffffffffffffff1681526020016003820154815260200160048201805480602002602001604051908101604052809291908181526020018280548015610afe57602002820191905f5260205f20905b815f9054906101000a900473ffffffffffffffffffffffffffffffffffffffff1673ffffffffffffffffffffffffffffffffffffffff1681526020019060010190808311610ab5575b50505050508152602001600582015481526020016006820154815260200160078201805480602002602001604051908101604052809291908181526020018280548015610b9d57602002820191905f5260205f20905b815f9054906101000a900473ffffffffffffffffffffffffffffffffffffffff1673ffffffffffffffffffffffffffffffffffffffff1681526020019060010190808311610b54575b505050505081525050905092915050565b606060035f3373ffffffffffffffffffffffffffffffffffffffff1673ffffffffffffffffffffffffffffffffffffffff1681526020019081526020015f20805480602002602001604051908101604052809291908181526020015f905b82821015610e5f578382905f5260205f209060080201604051806101000160405290815f8201548152602001600182018054610c4790612732565b80601f0160208091040260200160405190810160405280929190818152602001828054610c7390612732565b8015610cbe5780601f10610c9557610100808354040283529160200191610cbe565b820191905f5260205f20905b815481529060010190602001808311610ca157829003601f168201915b50505050508152602001600282015f9054906101000a900473ffffffffffffffffffffffffffffffffffffffff1673ffffffffffffffffffffffffffffffffffffffff1673ffffffffffffffffffffffffffffffffffffffff1681526020016003820154815260200160048201805480602002602001604051908101604052809291908181526020018280548015610da857602002820191905f5260205f20905b815f9054906101000a900473ffffffffffffffffffffffffffffffffffffffff1673ffffffffffffffffffffffffffffffffffffffff1681526020019060010190808311610d5f575b50505050508152602001600582015481526020016006820154815260200160078201805480602002602001604051908101604052809291908181526020018280548015610e4757602002820191905f5260205f20905b815f9054906101000a900473ffffffffffffffffffffffffffffffffffffffff1673ffffffffffffffffffffffffffffffffffffffff1681526020019060010190808311610dfe575b50505050508152505081526020019060010190610c0c565b50505050905090565b60035f3373ffffffffffffffffffffffffffffffffffffffff1673ffffffffffffffffffffffffffffffffffffffff1681526020019081526020015f20805480610eb557610eb4612762565b5b600190038181905f5260205f2090600802015f8082015f9055600182015f610edd9190611bd8565b600282015f6101000a81549073ffffffffffffffffffffffffffffffffffffffff0219169055600382015f9055600482015f610f199190611c15565b600582015f9055600682015f9055600782015f610f369190611c15565b50509055565b60035f3373ffffffffffffffffffffffffffffffffffffffff1673ffffffffffffffffffffffffffffffffffffffff1681526020019081526020015f205f610f849190611c33565b565b60015481511115610fcc576040517f08c379a0000000000000000000000000000000000000000000000000000000008152600401610fc3906127d9565b60405180910390fd5b5f604051806101000160405280600160035f3373ffffffffffffffffffffffffffffffffffffffff1673ffffffffffffffffffffffffffffffffffffffff1681526020019081526020015f208054905061102691906127f7565b81526020018381526020013373ffffffffffffffffffffffffffffffffffffffff16815260200142815260200160028054806020026020016040519081016040528092919081815260200182805480156110d257602002820191905f5260205f20905b815f9054906101000a900473ffffffffffffffffffffffffffffffffffffffff1673ffffffffffffffffffffffffffffffffffffffff1681526020019060010190808311611089575b505050505081526020015f81526020015f8152602001600280548060200260200160405190810160405280929190818152602001828054801561116757602002820191905f5260205f20905b815f9054906101000a900473ffffffffffffffffffffffffffffffffffffffff1673ffffffffffffffffffffffffffffffffffffffff168152602001906001019080831161111e575b5050505050815250905060035f3373ffffffffffffffffffffffffffffffffffffffff1673ffffffffffffffffffffffffffffffffffffffff1681526020019081526020015f2081908060018154018082558091505060019003905f5260205f2090600802015f909190919091505f820151815f015560208201518160010190816111f291906129c7565b506040820151816002015f6101000a81548173ffffffffffffffffffffffffffffffffffffffff021916908373ffffffffffffffffffffffffffffffffffffffff16021790555060608201518160030155608082015181600401908051906020019061125f929190611c54565b5060a0820151816005015560c0820151816006015560e0820151816007019080519060200190611290929190611c54565b5050507f16fd3c13e9d46923e0a8bce11c7b473ec508a72e6c96cd2404b29ce972afc29e600160035f3373ffffffffffffffffffffffffffffffffffffffff1673ffffffffffffffffffffffffffffffffffffffff1681526020019081526020015f208054905061130191906127f7565b3384426040516113149493929190612ace565b60405180910390a15050565b5f805f90505f5b60035f8573ffffffffffffffffffffffffffffffffffffffff1673ffffffffffffffffffffffffffffffffffffffff1681526020019081526020015f20805490508110156113e85760035f8573ffffffffffffffffffffffffffffffffffffffff1673ffffffffffffffffffffffffffffffffffffffff1681526020019081526020015f2081815481106113be576113bd6124e1565b5b905f5260205f20906008020160050154826113d991906127f7565b91508080600101915050611327565b5080915050919050565b81815f600190508160035f8573ffffffffffffffffffffffffffffffffffffffff1673ffffffffffffffffffffffffffffffffffffffff1681526020019081526020015f2080549050101561147c576040517f08c379a000000000000000000000000000000000000000000000000000000000815260040161147390612463565b60405180910390fd5b5f5b60035f8573ffffffffffffffffffffffffffffffffffffffff1673ffffffffffffffffffffffffffffffffffffffff1681526020019081526020015f206001846114c891906124ae565b815481106114d9576114d86124e1565b5b905f5260205f209060080201600401805490508110156115de573373ffffffffffffffffffffffffffffffffffffffff1660035f8673ffffffffffffffffffffffffffffffffffffffff1673ffffffffffffffffffffffffffffffffffffffff1681526020019081526020015f2060018561155491906124ae565b81548110611565576115646124e1565b5b905f5260205f2090600802016004018281548110611586576115856124e1565b5b905f5260205f20015f9054906101000a900473ffffffffffffffffffffffffffffffffffffffff1673ffffffffffffffffffffffffffffffffffffffff16036115d1575f91506115de565b808060010191505061147e565b506001151581151514611626576040517f08c379a000000000000000000000000000000000000000000000000000000000815260040161161d90612558565b60405180910390fd5b84845f600190508160035f8573ffffffffffffffffffffffffffffffffffffffff1673ffffffffffffffffffffffffffffffffffffffff1681526020019081526020015f208054905010156116b0576040517f08c379a00000000000000000000000000000000000000000000000000000000081526004016116a790612463565b60405180910390fd5b5f5b60035f8573ffffffffffffffffffffffffffffffffffffffff1673ffffffffffffffffffffffffffffffffffffffff1681526020019081526020015f206001846116fc91906124ae565b8154811061170d5761170c6124e1565b5b905f5260205f20906008020160070180549050811015611812573373ffffffffffffffffffffffffffffffffffffffff1660035f8673ffffffffffffffffffffffffffffffffffffffff1673ffffffffffffffffffffffffffffffffffffffff1681526020019081526020015f2060018561178891906124ae565b81548110611799576117986124e1565b5b905f5260205f20906008020160070182815481106117ba576117b96124e1565b5b905f5260205f20015f9054906101000a900473ffffffffffffffffffffffffffffffffffffffff1673ffffffffffffffffffffffffffffffffffffffff1603611805575f9150611812565b80806001019150506116b2565b50600115158115151461185a576040517f08c379a0000000000000000000000000000000000000000000000000000000008152600401611851906125c0565b60405180910390fd5b3373ffffffffffffffffffffffffffffffffffffffff168873ffffffffffffffffffffffffffffffffffffffff16036118c8576040517f08c379a00000000000000000000000000000000000000000000000000000000081526004016118bf9061264e565b60405180910390fd5b60035f8973ffffffffffffffffffffffffffffffffffffffff1673ffffffffffffffffffffffffffffffffffffffff1681526020019081526020015f2060018861191291906124ae565b81548110611923576119226124e1565b5b905f5260205f20906008020160070133908060018154018082558091505060019003905f5260205f20015f9091909190916101000a81548173ffffffffffffffffffffffffffffffffffffffff021916908373ffffffffffffffffffffffffffffffffffffffff16021790555060035f8973ffffffffffffffffffffffffffffffffffffffff1673ffffffffffffffffffffffffffffffffffffffff1681526020019081526020015f206001886119da91906124ae565b815481106119eb576119ea6124e1565b5b905f5260205f2090600802016006015f815480929190611a0a9061266c565b91905055505050505050505050565b5f805f90505f5b60035f8573ffffffffffffffffffffffffffffffffffffffff1673ffffffffffffffffffffffffffffffffffffffff1681526020019081526020015f2080549050811015611ae15760035f8573ffffffffffffffffffffffffffffffffffffffff1673ffffffffffffffffffffffffffffffffffffffff1681526020019081526020015f208181548110611ab757611ab66124e1565b5b905f5260205f2090600802016006015482611ad291906127f7565b91508080600101915050611a20565b5080915050919050565b3373ffffffffffffffffffffffffffffffffffffffff165f8054906101000a900473ffffffffffffffffffffffffffffffffffffffff1673ffffffffffffffffffffffffffffffffffffffff1614611b78576040517f08c379a0000000000000000000000000000000000000000000000000000000008152600401611b6f90612b88565b60405180910390fd5b8060018190555050565b6040518061010001604052805f8152602001606081526020015f73ffffffffffffffffffffffffffffffffffffffff1681526020015f8152602001606081526020015f81526020015f8152602001606081525090565b508054611be490612732565b5f825580601f10611bf55750611c12565b601f0160209004905f5260205f2090810190611c119190611cdb565b5b50565b5080545f8255905f5260205f2090810190611c309190611cdb565b50565b5080545f8255600802905f5260205f2090810190611c519190611cf6565b50565b828054828255905f5260205f20908101928215611cca579160200282015b82811115611cc9578251825f6101000a81548173ffffffffffffffffffffffffffffffffffffffff021916908373ffffffffffffffffffffffffffffffffffffffff16021790555091602001919060010190611c72565b5b509050611cd79190611cdb565b5090565b5b80821115611cf2575f815f905550600101611cdc565b5090565b5b80821115611d77575f8082015f9055600182015f611d159190611bd8565b600282015f6101000a81549073ffffffffffffffffffffffffffffffffffffffff0219169055600382015f9055600482015f611d519190611c15565b600582015f9055600682015f9055600782015f611d6e9190611c15565b50600801611cf7565b5090565b5f604051905090565b5f80fd5b5f80fd5b5f73ffffffffffffffffffffffffffffffffffffffff82169050919050565b5f611db582611d8c565b9050919050565b611dc581611dab565b8114611dcf575f80fd5b50565b5f81359050611de081611dbc565b92915050565b5f819050919050565b611df881611de6565b8114611e02575f80fd5b50565b5f81359050611e1381611def565b92915050565b5f8060408385031215611e2f57611e2e611d84565b5b5f611e3c85828601611dd2565b9250506020611e4d85828601611e05565b9150509250929050565b611e6081611de6565b82525050565b5f81519050919050565b5f82825260208201905092915050565b5f5b83811015611e9d578082015181840152602081019050611e82565b5f8484015250505050565b5f601f19601f8301169050919050565b5f611ec282611e66565b611ecc8185611e70565b9350611edc818560208601611e80565b611ee581611ea8565b840191505092915050565b611ef981611dab565b82525050565b5f81519050919050565b5f82825260208201905092915050565b5f819050602082019050919050565b5f611f338383611ef0565b60208301905092915050565b5f602082019050919050565b5f611f5582611eff565b611f5f8185611f09565b9350611f6a83611f19565b805f5b83811015611f9a578151611f818882611f28565b9750611f8c83611f3f565b925050600181019050611f6d565b5085935050505092915050565b5f61010083015f830151611fbd5f860182611e57565b5060208301518482036020860152611fd58282611eb8565b9150506040830151611fea6040860182611ef0565b506060830151611ffd6060860182611e57565b50608083015184820360808601526120158282611f4b565b91505060a083015161202a60a0860182611e57565b5060c083015161203d60c0860182611e57565b5060e083015184820360e08601526120558282611f4b565b9150508091505092915050565b5f6020820190508181035f83015261207a8184611fa7565b905092915050565b5f81519050919050565b5f82825260208201905092915050565b5f819050602082019050919050565b5f61010083015f8301516120c15f860182611e57565b50602083015184820360208601526120d98282611eb8565b91505060408301516120ee6040860182611ef0565b5060608301516121016060860182611e57565b50608083015184820360808601526121198282611f4b565b91505060a083015161212e60a0860182611e57565b5060c083015161214160c0860182611e57565b5060e083015184820360e08601526121598282611f4b565b9150508091505092915050565b5f61217183836120ab565b905092915050565b5f602082019050919050565b5f61218f82612082565b612199818561208c565b9350836020820285016121ab8561209c565b805f5b858110156121e657848403895281516121c78582612166565b94506121d283612179565b925060208a019950506001810190506121ae565b50829750879550505050505092915050565b5f6020820190508181035f8301526122108184612185565b905092915050565b5f80fd5b5f80fd5b7f4e487b71000000000000000000000000000000000000000000000000000000005f52604160045260245ffd5b61225682611ea8565b810181811067ffffffffffffffff8211171561227557612274612220565b5b80604052505050565b5f612287611d7b565b9050612293828261224d565b919050565b5f67ffffffffffffffff8211156122b2576122b1612220565b5b6122bb82611ea8565b9050602081019050919050565b828183375f83830152505050565b5f6122e86122e384612298565b61227e565b9050828152602081018484840111156123045761230361221c565b5b61230f8482856122c8565b509392505050565b5f82601f83011261232b5761232a612218565b5b813561233b8482602086016122d6565b91505092915050565b5f6020828403121561235957612358611d84565b5b5f82013567ffffffffffffffff81111561237657612375611d88565b5b61238284828501612317565b91505092915050565b5f602082840312156123a05761239f611d84565b5b5f6123ad84828501611dd2565b91505092915050565b6123bf81611de6565b82525050565b5f6020820190506123d85f8301846123b6565b92915050565b5f602082840312156123f3576123f2611d84565b5b5f61240084828501611e05565b91505092915050565b5f82825260208201905092915050565b7f54686973205477656574204e6f742045786973742021000000000000000000005f82015250565b5f61244d601683612409565b915061245882612419565b602082019050919050565b5f6020820190508181035f83015261247a81612441565b9050919050565b7f4e487b71000000000000000000000000000000000000000000000000000000005f52601160045260245ffd5b5f6124b882611de6565b91506124c383611de6565b92508282039050818111156124db576124da612481565b5b92915050565b7f4e487b71000000000000000000000000000000000000000000000000000000005f52603260045260245ffd5b7f596f7520416c7265616479204c696b65642074686520747765657421000000005f82015250565b5f612542601c83612409565b915061254d8261250e565b602082019050919050565b5f6020820190508181035f83015261256f81612536565b9050919050565b7f596f7520416c726561647920556e4c696b6564207468652074776565742100005f82015250565b5f6125aa601e83612409565b91506125b582612576565b602082019050919050565b5f6020820190508181035f8301526125d78161259e565b9050919050565b7f5468697320697320596f757220547765657421596f752063616e6e2774204c695f8201527f6b6520596f757220547765657421000000000000000000000000000000000000602082015250565b5f612638602e83612409565b9150612643826125de565b604082019050919050565b5f6020820190508181035f8301526126658161262c565b9050919050565b5f61267682611de6565b91507fffffffffffffffffffffffffffffffffffffffffffffffffffffffffffffffff82036126a8576126a7612481565b5b600182019050919050565b6126bc81611dab565b82525050565b5f6080820190506126d55f8301876126b3565b6126e260208301866126b3565b6126ef60408301856123b6565b6126fc60608301846123b6565b95945050505050565b7f4e487b71000000000000000000000000000000000000000000000000000000005f52602260045260245ffd5b5f600282049050600182168061274957607f821691505b60208210810361275c5761275b612705565b5b50919050565b7f4e487b71000000000000000000000000000000000000000000000000000000005f52603160045260245ffd5b7f5477656574204c656e67746820697320457863656564210000000000000000005f82015250565b5f6127c3601783612409565b91506127ce8261278f565b602082019050919050565b5f6020820190508181035f8301526127f0816127b7565b9050919050565b5f61280182611de6565b915061280c83611de6565b925082820190508082111561282457612823612481565b5b92915050565b5f819050815f5260205f209050919050565b5f6020601f8301049050919050565b5f82821b905092915050565b5f600883026128867fffffffffffffffffffffffffffffffffffffffffffffffffffffffffffffffff8261284b565b612890868361284b565b95508019841693508086168417925050509392505050565b5f819050919050565b5f6128cb6128c66128c184611de6565b6128a8565b611de6565b9050919050565b5f819050919050565b6128e4836128b1565b6128f86128f0826128d2565b848454612857565b825550505050565b5f90565b61290c612900565b6129178184846128db565b505050565b5b8181101561293a5761292f5f82612904565b60018101905061291d565b5050565b601f82111561297f576129508161282a565b6129598461283c565b81016020851015612968578190505b61297c6129748561283c565b83018261291c565b50505b505050565b5f82821c905092915050565b5f61299f5f1984600802612984565b1980831691505092915050565b5f6129b78383612990565b9150826002028217905092915050565b6129d082611e66565b67ffffffffffffffff8111156129e9576129e8612220565b5b6129f38254612732565b6129fe82828561293e565b5f60209050601f831160018114612a2f575f8415612a1d578287015190505b612a2785826129ac565b865550612a8e565b601f198416612a3d8661282a565b5f5b82811015612a6457848901518255600182019150602085019450602081019050612a3f565b86831015612a815784890151612a7d601f891682612990565b8355505b6001600288020188555050505b505050505050565b5f612aa082611e66565b612aaa8185612409565b9350612aba818560208601611e80565b612ac381611ea8565b840191505092915050565b5f608082019050612ae15f8301876123b6565b612aee60208301866126b3565b8181036040830152612b008185612a96565b9050612b0f60608301846123b6565b95945050505050565b7f596f7520617265206e6f742061204f776e6572215065726d697373696f6e20445f8201527f656e696564210000000000000000000000000000000000000000000000000000602082015250565b5f612b72602683612409565b9150612b7d82612b18565b604082019050919050565b5f6020820190508181035f830152612b9f81612b66565b905091905056fea2646970667358221220e6984561ace4f1a02dd73b7ac52edd47d717979519cb69d8e489155d0da2edc164736f6c63430008170033",
					"opcodes": "PUSH1 0x80 PUSH1 0x40 MSTORE PUSH1 0xA PUSH1 0x1 SSTORE CALLVALUE DUP1 ISZERO PUSH2 0x14 JUMPI PUSH0 DUP1 REVERT JUMPDEST POP CALLER PUSH0 DUP1 PUSH2 0x100 EXP DUP2 SLOAD DUP2 PUSH20 0xFFFFFFFFFFFFFFFFFFFFFFFFFFFFFFFFFFFFFFFF MUL NOT AND SWAP1 DUP4 PUSH20 0xFFFFFFFFFFFFFFFFFFFFFFFFFFFFFFFFFFFFFFFF AND MUL OR SWAP1 SSTORE POP PUSH2 0x2BDC DUP1 PUSH2 0x61 PUSH0 CODECOPY PUSH0 RETURN INVALID PUSH1 0x80 PUSH1 0x40 MSTORE CALLVALUE DUP1 ISZERO PUSH2 0xF JUMPI PUSH0 DUP1 REVERT JUMPDEST POP PUSH1 0x4 CALLDATASIZE LT PUSH2 0x9C JUMPI PUSH0 CALLDATALOAD PUSH1 0xE0 SHR DUP1 PUSH4 0x7C9CD2BC GT PUSH2 0x64 JUMPI DUP1 PUSH4 0x7C9CD2BC EQ PUSH2 0x11E JUMPI DUP1 PUSH4 0x820785CC EQ PUSH2 0x13A JUMPI DUP1 PUSH4 0xA110E72D EQ PUSH2 0x16A JUMPI DUP1 PUSH4 0xA6156D77 EQ PUSH2 0x186 JUMPI DUP1 PUSH4 0xE479C244 EQ PUSH2 0x1B6 JUMPI PUSH2 0x9C JUMP JUMPDEST DUP1 PUSH4 0x1216CDC5 EQ PUSH2 0xA0 JUMPI DUP1 PUSH4 0x37F36A4C EQ PUSH2 0xBC JUMPI DUP1 PUSH4 0x42D7FBC0 EQ PUSH2 0xEC JUMPI DUP1 PUSH4 0x71E7EB12 EQ PUSH2 0x10A JUMPI DUP1 PUSH4 0x765FAB45 EQ PUSH2 0x114 JUMPI JUMPDEST PUSH0 DUP1 REVERT JUMPDEST PUSH2 0xBA PUSH1 0x4 DUP1 CALLDATASIZE SUB DUP2 ADD SWAP1 PUSH2 0xB5 SWAP2 SWAP1 PUSH2 0x1E19 JUMP JUMPDEST PUSH2 0x1D2 JUMP JUMPDEST STOP JUMPDEST PUSH2 0xD6 PUSH1 0x4 DUP1 CALLDATASIZE SUB DUP2 ADD SWAP1 PUSH2 0xD1 SWAP2 SWAP1 PUSH2 0x1E19 JUMP JUMPDEST PUSH2 0x909 JUMP JUMPDEST PUSH1 0x40 MLOAD PUSH2 0xE3 SWAP2 SWAP1 PUSH2 0x2062 JUMP JUMPDEST PUSH1 0x40 MLOAD DUP1 SWAP2 SUB SWAP1 RETURN JUMPDEST PUSH2 0xF4 PUSH2 0xBAE JUMP JUMPDEST PUSH1 0x40 MLOAD PUSH2 0x101 SWAP2 SWAP1 PUSH2 0x21F8 JUMP JUMPDEST PUSH1 0x40 MLOAD DUP1 SWAP2 SUB SWAP1 RETURN JUMPDEST PUSH2 0x112 PUSH2 0xE68 JUMP JUMPDEST STOP JUMPDEST PUSH2 0x11C PUSH2 0xF3C JUMP JUMPDEST STOP JUMPDEST PUSH2 0x138 PUSH1 0x4 DUP1 CALLDATASIZE SUB DUP2 ADD SWAP1 PUSH2 0x133 SWAP2 SWAP1 PUSH2 0x2344 JUMP JUMPDEST PUSH2 0xF86 JUMP JUMPDEST STOP JUMPDEST PUSH2 0x154 PUSH1 0x4 DUP1 CALLDATASIZE SUB DUP2 ADD SWAP1 PUSH2 0x14F SWAP2 SWAP1 PUSH2 0x238B JUMP JUMPDEST PUSH2 0x1320 JUMP JUMPDEST PUSH1 0x40 MLOAD PUSH2 0x161 SWAP2 SWAP1 PUSH2 0x23C5 JUMP JUMPDEST PUSH1 0x40 MLOAD DUP1 SWAP2 SUB SWAP1 RETURN JUMPDEST PUSH2 0x184 PUSH1 0x4 DUP1 CALLDATASIZE SUB DUP2 ADD SWAP1 PUSH2 0x17F SWAP2 SWAP1 PUSH2 0x1E19 JUMP JUMPDEST PUSH2 0x13F2 JUMP JUMPDEST STOP JUMPDEST PUSH2 0x1A0 PUSH1 0x4 DUP1 CALLDATASIZE SUB DUP2 ADD SWAP1 PUSH2 0x19B SWAP2 SWAP1 PUSH2 0x238B JUMP JUMPDEST PUSH2 0x1A19 JUMP JUMPDEST PUSH1 0x40 MLOAD PUSH2 0x1AD SWAP2 SWAP1 PUSH2 0x23C5 JUMP JUMPDEST PUSH1 0x40 MLOAD DUP1 SWAP2 SUB SWAP1 RETURN JUMPDEST PUSH2 0x1D0 PUSH1 0x4 DUP1 CALLDATASIZE SUB DUP2 ADD SWAP1 PUSH2 0x1CB SWAP2 SWAP1 PUSH2 0x23DE JUMP JUMPDEST PUSH2 0x1AEB JUMP JUMPDEST STOP JUMPDEST DUP2 DUP2 PUSH0 PUSH1 0x1 SWAP1 POP DUP2 PUSH1 0x3 PUSH0 DUP6 PUSH20 0xFFFFFFFFFFFFFFFFFFFFFFFFFFFFFFFFFFFFFFFF AND PUSH20 0xFFFFFFFFFFFFFFFFFFFFFFFFFFFFFFFFFFFFFFFF AND DUP2 MSTORE PUSH1 0x20 ADD SWAP1 DUP2 MSTORE PUSH1 0x20 ADD PUSH0 KECCAK256 DUP1 SLOAD SWAP1 POP LT ISZERO PUSH2 0x25C JUMPI PUSH1 0x40 MLOAD PUSH32 0x8C379A000000000000000000000000000000000000000000000000000000000 DUP2 MSTORE PUSH1 0x4 ADD PUSH2 0x253 SWAP1 PUSH2 0x2463 JUMP JUMPDEST PUSH1 0x40 MLOAD DUP1 SWAP2 SUB SWAP1 REVERT JUMPDEST PUSH0 JUMPDEST PUSH1 0x3 PUSH0 DUP6 PUSH20 0xFFFFFFFFFFFFFFFFFFFFFFFFFFFFFFFFFFFFFFFF AND PUSH20 0xFFFFFFFFFFFFFFFFFFFFFFFFFFFFFFFFFFFFFFFF AND DUP2 MSTORE PUSH1 0x20 ADD SWAP1 DUP2 MSTORE PUSH1 0x20 ADD PUSH0 KECCAK256 PUSH1 0x1 DUP5 PUSH2 0x2A8 SWAP2 SWAP1 PUSH2 0x24AE JUMP JUMPDEST DUP2 SLOAD DUP2 LT PUSH2 0x2B9 JUMPI PUSH2 0x2B8 PUSH2 0x24E1 JUMP JUMPDEST JUMPDEST SWAP1 PUSH0 MSTORE PUSH1 0x20 PUSH0 KECCAK256 SWAP1 PUSH1 0x8 MUL ADD PUSH1 0x4 ADD DUP1 SLOAD SWAP1 POP DUP2 LT ISZERO PUSH2 0x3BE JUMPI CALLER PUSH20 0xFFFFFFFFFFFFFFFFFFFFFFFFFFFFFFFFFFFFFFFF AND PUSH1 0x3 PUSH0 DUP7 PUSH20 0xFFFFFFFFFFFFFFFFFFFFFFFFFFFFFFFFFFFFFFFF AND PUSH20 0xFFFFFFFFFFFFFFFFFFFFFFFFFFFFFFFFFFFFFFFF AND DUP2 MSTORE PUSH1 0x20 ADD SWAP1 DUP2 MSTORE PUSH1 0x20 ADD PUSH0 KECCAK256 PUSH1 0x1 DUP6 PUSH2 0x334 SWAP2 SWAP1 PUSH2 0x24AE JUMP JUMPDEST DUP2 SLOAD DUP2 LT PUSH2 0x345 JUMPI PUSH2 0x344 PUSH2 0x24E1 JUMP JUMPDEST JUMPDEST SWAP1 PUSH0 MSTORE PUSH1 0x20 PUSH0 KECCAK256 SWAP1 PUSH1 0x8 MUL ADD PUSH1 0x4 ADD DUP3 DUP2 SLOAD DUP2 LT PUSH2 0x366 JUMPI PUSH2 0x365 PUSH2 0x24E1 JUMP JUMPDEST JUMPDEST SWAP1 PUSH0 MSTORE PUSH1 0x20 PUSH0 KECCAK256 ADD PUSH0 SWAP1 SLOAD SWAP1 PUSH2 0x100 EXP SWAP1 DIV PUSH20 0xFFFFFFFFFFFFFFFFFFFFFFFFFFFFFFFFFFFFFFFF AND PUSH20 0xFFFFFFFFFFFFFFFFFFFFFFFFFFFFFFFFFFFFFFFF AND SUB PUSH2 0x3B1 JUMPI PUSH0 SWAP2 POP PUSH2 0x3BE JUMP JUMPDEST DUP1 DUP1 PUSH1 0x1 ADD SWAP2 POP POP PUSH2 0x25E JUMP JUMPDEST POP PUSH1 0x1 ISZERO ISZERO DUP2 ISZERO ISZERO EQ PUSH2 0x406 JUMPI PUSH1 0x40 MLOAD PUSH32 0x8C379A000000000000000000000000000000000000000000000000000000000 DUP2 MSTORE PUSH1 0x4 ADD PUSH2 0x3FD SWAP1 PUSH2 0x2558 JUMP JUMPDEST PUSH1 0x40 MLOAD DUP1 SWAP2 SUB SWAP1 REVERT JUMPDEST DUP5 DUP5 PUSH0 PUSH1 0x1 SWAP1 POP DUP2 PUSH1 0x3 PUSH0 DUP6 PUSH20 0xFFFFFFFFFFFFFFFFFFFFFFFFFFFFFFFFFFFFFFFF AND PUSH20 0xFFFFFFFFFFFFFFFFFFFFFFFFFFFFFFFFFFFFFFFF AND DUP2 MSTORE PUSH1 0x20 ADD SWAP1 DUP2 MSTORE PUSH1 0x20 ADD PUSH0 KECCAK256 DUP1 SLOAD SWAP1 POP LT ISZERO PUSH2 0x490 JUMPI PUSH1 0x40 MLOAD PUSH32 0x8C379A000000000000000000000000000000000000000000000000000000000 DUP2 MSTORE PUSH1 0x4 ADD PUSH2 0x487 SWAP1 PUSH2 0x2463 JUMP JUMPDEST PUSH1 0x40 MLOAD DUP1 SWAP2 SUB SWAP1 REVERT JUMPDEST PUSH0 JUMPDEST PUSH1 0x3 PUSH0 DUP6 PUSH20 0xFFFFFFFFFFFFFFFFFFFFFFFFFFFFFFFFFFFFFFFF AND PUSH20 0xFFFFFFFFFFFFFFFFFFFFFFFFFFFFFFFFFFFFFFFF AND DUP2 MSTORE PUSH1 0x20 ADD SWAP1 DUP2 MSTORE PUSH1 0x20 ADD PUSH0 KECCAK256 PUSH1 0x1 DUP5 PUSH2 0x4DC SWAP2 SWAP1 PUSH2 0x24AE JUMP JUMPDEST DUP2 SLOAD DUP2 LT PUSH2 0x4ED JUMPI PUSH2 0x4EC PUSH2 0x24E1 JUMP JUMPDEST JUMPDEST SWAP1 PUSH0 MSTORE PUSH1 0x20 PUSH0 KECCAK256 SWAP1 PUSH1 0x8 MUL ADD PUSH1 0x7 ADD DUP1 SLOAD SWAP1 POP DUP2 LT ISZERO PUSH2 0x5F2 JUMPI CALLER PUSH20 0xFFFFFFFFFFFFFFFFFFFFFFFFFFFFFFFFFFFFFFFF AND PUSH1 0x3 PUSH0 DUP7 PUSH20 0xFFFFFFFFFFFFFFFFFFFFFFFFFFFFFFFFFFFFFFFF AND PUSH20 0xFFFFFFFFFFFFFFFFFFFFFFFFFFFFFFFFFFFFFFFF AND DUP2 MSTORE PUSH1 0x20 ADD SWAP1 DUP2 MSTORE PUSH1 0x20 ADD PUSH0 KECCAK256 PUSH1 0x1 DUP6 PUSH2 0x568 SWAP2 SWAP1 PUSH2 0x24AE JUMP JUMPDEST DUP2 SLOAD DUP2 LT PUSH2 0x579 JUMPI PUSH2 0x578 PUSH2 0x24E1 JUMP JUMPDEST JUMPDEST SWAP1 PUSH0 MSTORE PUSH1 0x20 PUSH0 KECCAK256 SWAP1 PUSH1 0x8 MUL ADD PUSH1 0x7 ADD DUP3 DUP2 SLOAD DUP2 LT PUSH2 0x59A JUMPI PUSH2 0x599 PUSH2 0x24E1 JUMP JUMPDEST JUMPDEST SWAP1 PUSH0 MSTORE PUSH1 0x20 PUSH0 KECCAK256 ADD PUSH0 SWAP1 SLOAD SWAP1 PUSH2 0x100 EXP SWAP1 DIV PUSH20 0xFFFFFFFFFFFFFFFFFFFFFFFFFFFFFFFFFFFFFFFF AND PUSH20 0xFFFFFFFFFFFFFFFFFFFFFFFFFFFFFFFFFFFFFFFF AND SUB PUSH2 0x5E5 JUMPI PUSH0 SWAP2 POP PUSH2 0x5F2 JUMP JUMPDEST DUP1 DUP1 PUSH1 0x1 ADD SWAP2 POP POP PUSH2 0x492 JUMP JUMPDEST POP PUSH1 0x1 ISZERO ISZERO DUP2 ISZERO ISZERO EQ PUSH2 0x63A JUMPI PUSH1 0x40 MLOAD PUSH32 0x8C379A000000000000000000000000000000000000000000000000000000000 DUP2 MSTORE PUSH1 0x4 ADD PUSH2 0x631 SWAP1 PUSH2 0x25C0 JUMP JUMPDEST PUSH1 0x40 MLOAD DUP1 SWAP2 SUB SWAP1 REVERT JUMPDEST CALLER PUSH20 0xFFFFFFFFFFFFFFFFFFFFFFFFFFFFFFFFFFFFFFFF AND DUP9 PUSH20 0xFFFFFFFFFFFFFFFFFFFFFFFFFFFFFFFFFFFFFFFF AND SUB PUSH2 0x6A8 JUMPI PUSH1 0x40 MLOAD PUSH32 0x8C379A000000000000000000000000000000000000000000000000000000000 DUP2 MSTORE PUSH1 0x4 ADD PUSH2 0x69F SWAP1 PUSH2 0x264E JUMP JUMPDEST PUSH1 0x40 MLOAD DUP1 SWAP2 SUB SWAP1 REVERT JUMPDEST PUSH1 0x3 PUSH0 DUP10 PUSH20 0xFFFFFFFFFFFFFFFFFFFFFFFFFFFFFFFFFFFFFFFF AND PUSH20 0xFFFFFFFFFFFFFFFFFFFFFFFFFFFFFFFFFFFFFFFF AND DUP2 MSTORE PUSH1 0x20 ADD SWAP1 DUP2 MSTORE PUSH1 0x20 ADD PUSH0 KECCAK256 PUSH1 0x1 DUP9 PUSH2 0x6F2 SWAP2 SWAP1 PUSH2 0x24AE JUMP JUMPDEST DUP2 SLOAD DUP2 LT PUSH2 0x703 JUMPI PUSH2 0x702 PUSH2 0x24E1 JUMP JUMPDEST JUMPDEST SWAP1 PUSH0 MSTORE PUSH1 0x20 PUSH0 KECCAK256 SWAP1 PUSH1 0x8 MUL ADD PUSH1 0x4 ADD CALLER SWAP1 DUP1 PUSH1 0x1 DUP2 SLOAD ADD DUP1 DUP3 SSTORE DUP1 SWAP2 POP POP PUSH1 0x1 SWAP1 SUB SWAP1 PUSH0 MSTORE PUSH1 0x20 PUSH0 KECCAK256 ADD PUSH0 SWAP1 SWAP2 SWAP1 SWAP2 SWAP1 SWAP2 PUSH2 0x100 EXP DUP2 SLOAD DUP2 PUSH20 0xFFFFFFFFFFFFFFFFFFFFFFFFFFFFFFFFFFFFFFFF MUL NOT AND SWAP1 DUP4 PUSH20 0xFFFFFFFFFFFFFFFFFFFFFFFFFFFFFFFFFFFFFFFF AND MUL OR SWAP1 SSTORE POP PUSH1 0x3 PUSH0 DUP10 PUSH20 0xFFFFFFFFFFFFFFFFFFFFFFFFFFFFFFFFFFFFFFFF AND PUSH20 0xFFFFFFFFFFFFFFFFFFFFFFFFFFFFFFFFFFFFFFFF AND DUP2 MSTORE PUSH1 0x20 ADD SWAP1 DUP2 MSTORE PUSH1 0x20 ADD PUSH0 KECCAK256 PUSH1 0x1 DUP9 PUSH2 0x7BA SWAP2 SWAP1 PUSH2 0x24AE JUMP JUMPDEST DUP2 SLOAD DUP2 LT PUSH2 0x7CB JUMPI PUSH2 0x7CA PUSH2 0x24E1 JUMP JUMPDEST JUMPDEST SWAP1 PUSH0 MSTORE PUSH1 0x20 PUSH0 KECCAK256 SWAP1 PUSH1 0x8 MUL ADD PUSH1 0x5 ADD PUSH0 DUP2 SLOAD DUP1 SWAP3 SWAP2 SWAP1 PUSH2 0x7EA SWAP1 PUSH2 0x266C JUMP JUMPDEST SWAP2 SWAP1 POP SSTORE POP PUSH32 0xE8A76FC0F16D11A00D1E93B689B63D76CF60AF914DD3D915375DC41D01A0C3C8 CALLER DUP10 PUSH1 0x3 PUSH0 DUP13 PUSH20 0xFFFFFFFFFFFFFFFFFFFFFFFFFFFFFFFFFFFFFFFF AND PUSH20 0xFFFFFFFFFFFFFFFFFFFFFFFFFFFFFFFFFFFFFFFF AND DUP2 MSTORE PUSH1 0x20 ADD SWAP1 DUP2 MSTORE PUSH1 0x20 ADD PUSH0 KECCAK256 PUSH1 0x1 DUP12 PUSH2 0x85C SWAP2 SWAP1 PUSH2 0x24AE JUMP JUMPDEST DUP2 SLOAD DUP2 LT PUSH2 0x86D JUMPI PUSH2 0x86C PUSH2 0x24E1 JUMP JUMPDEST JUMPDEST SWAP1 PUSH0 MSTORE PUSH1 0x20 PUSH0 KECCAK256 SWAP1 PUSH1 0x8 MUL ADD PUSH1 0x5 ADD SLOAD PUSH1 0x3 PUSH0 DUP14 PUSH20 0xFFFFFFFFFFFFFFFFFFFFFFFFFFFFFFFFFFFFFFFF AND PUSH20 0xFFFFFFFFFFFFFFFFFFFFFFFFFFFFFFFFFFFFFFFF AND DUP2 MSTORE PUSH1 0x20 ADD SWAP1 DUP2 MSTORE PUSH1 0x20 ADD PUSH0 KECCAK256 PUSH1 0x1 DUP13 PUSH2 0x8C7 SWAP2 SWAP1 PUSH2 0x24AE JUMP JUMPDEST DUP2 SLOAD DUP2 LT PUSH2 0x8D8 JUMPI PUSH2 0x8D7 PUSH2 0x24E1 JUMP JUMPDEST JUMPDEST SWAP1 PUSH0 MSTORE PUSH1 0x20 PUSH0 KECCAK256 SWAP1 PUSH1 0x8 MUL ADD PUSH0 ADD SLOAD PUSH1 0x40 MLOAD PUSH2 0x8F7 SWAP5 SWAP4 SWAP3 SWAP2 SWAP1 PUSH2 0x26C2 JUMP JUMPDEST PUSH1 0x40 MLOAD DUP1 SWAP2 SUB SWAP1 LOG1 POP POP POP POP POP POP POP POP JUMP JUMPDEST PUSH2 0x911 PUSH2 0x1B82 JUMP JUMPDEST PUSH1 0x3 PUSH0 DUP5 PUSH20 0xFFFFFFFFFFFFFFFFFFFFFFFFFFFFFFFFFFFFFFFF AND PUSH20 0xFFFFFFFFFFFFFFFFFFFFFFFFFFFFFFFFFFFFFFFF AND DUP2 MSTORE PUSH1 0x20 ADD SWAP1 DUP2 MSTORE PUSH1 0x20 ADD PUSH0 KECCAK256 PUSH1 0x1 DUP4 PUSH2 0x95B SWAP2 SWAP1 PUSH2 0x24AE JUMP JUMPDEST DUP2 SLOAD DUP2 LT PUSH2 0x96C JUMPI PUSH2 0x96B PUSH2 0x24E1 JUMP JUMPDEST JUMPDEST SWAP1 PUSH0 MSTORE PUSH1 0x20 PUSH0 KECCAK256 SWAP1 PUSH1 0x8 MUL ADD PUSH1 0x40 MLOAD DUP1 PUSH2 0x100 ADD PUSH1 0x40 MSTORE SWAP1 DUP2 PUSH0 DUP3 ADD SLOAD DUP2 MSTORE PUSH1 0x20 ADD PUSH1 0x1 DUP3 ADD DUP1 SLOAD PUSH2 0x99D SWAP1 PUSH2 0x2732 JUMP JUMPDEST DUP1 PUSH1 0x1F ADD PUSH1 0x20 DUP1 SWAP2 DIV MUL PUSH1 0x20 ADD PUSH1 0x40 MLOAD SWAP1 DUP2 ADD PUSH1 0x40 MSTORE DUP1 SWAP3 SWAP2 SWAP1 DUP2 DUP2 MSTORE PUSH1 0x20 ADD DUP3 DUP1 SLOAD PUSH2 0x9C9 SWAP1 PUSH2 0x2732 JUMP JUMPDEST DUP1 ISZERO PUSH2 0xA14 JUMPI DUP1 PUSH1 0x1F LT PUSH2 0x9EB JUMPI PUSH2 0x100 DUP1 DUP4 SLOAD DIV MUL DUP4 MSTORE SWAP2 PUSH1 0x20 ADD SWAP2 PUSH2 0xA14 JUMP JUMPDEST DUP3 ADD SWAP2 SWAP1 PUSH0 MSTORE PUSH1 0x20 PUSH0 KECCAK256 SWAP1 JUMPDEST DUP2 SLOAD DUP2 MSTORE SWAP1 PUSH1 0x1 ADD SWAP1 PUSH1 0x20 ADD DUP1 DUP4 GT PUSH2 0x9F7 JUMPI DUP3 SWAP1 SUB PUSH1 0x1F AND DUP3 ADD SWAP2 JUMPDEST POP POP POP POP POP DUP2 MSTORE PUSH1 0x20 ADD PUSH1 0x2 DUP3 ADD PUSH0 SWAP1 SLOAD SWAP1 PUSH2 0x100 EXP SWAP1 DIV PUSH20 0xFFFFFFFFFFFFFFFFFFFFFFFFFFFFFFFFFFFFFFFF AND PUSH20 0xFFFFFFFFFFFFFFFFFFFFFFFFFFFFFFFFFFFFFFFF AND PUSH20 0xFFFFFFFFFFFFFFFFFFFFFFFFFFFFFFFFFFFFFFFF AND DUP2 MSTORE PUSH1 0x20 ADD PUSH1 0x3 DUP3 ADD SLOAD DUP2 MSTORE PUSH1 0x20 ADD PUSH1 0x4 DUP3 ADD DUP1 SLOAD DUP1 PUSH1 0x20 MUL PUSH1 0x20 ADD PUSH1 0x40 MLOAD SWAP1 DUP2 ADD PUSH1 0x40 MSTORE DUP1 SWAP3 SWAP2 SWAP1 DUP2 DUP2 MSTORE PUSH1 0x20 ADD DUP3 DUP1 SLOAD DUP1 ISZERO PUSH2 0xAFE JUMPI PUSH1 0x20 MUL DUP3 ADD SWAP2 SWAP1 PUSH0 MSTORE PUSH1 0x20 PUSH0 KECCAK256 SWAP1 JUMPDEST DUP2 PUSH0 SWAP1 SLOAD SWAP1 PUSH2 0x100 EXP SWAP1 DIV PUSH20 0xFFFFFFFFFFFFFFFFFFFFFFFFFFFFFFFFFFFFFFFF AND PUSH20 0xFFFFFFFFFFFFFFFFFFFFFFFFFFFFFFFFFFFFFFFF AND DUP2 MSTORE PUSH1 0x20 ADD SWAP1 PUSH1 0x1 ADD SWAP1 DUP1 DUP4 GT PUSH2 0xAB5 JUMPI JUMPDEST POP POP POP POP POP DUP2 MSTORE PUSH1 0x20 ADD PUSH1 0x5 DUP3 ADD SLOAD DUP2 MSTORE PUSH1 0x20 ADD PUSH1 0x6 DUP3 ADD SLOAD DUP2 MSTORE PUSH1 0x20 ADD PUSH1 0x7 DUP3 ADD DUP1 SLOAD DUP1 PUSH1 0x20 MUL PUSH1 0x20 ADD PUSH1 0x40 MLOAD SWAP1 DUP2 ADD PUSH1 0x40 MSTORE DUP1 SWAP3 SWAP2 SWAP1 DUP2 DUP2 MSTORE PUSH1 0x20 ADD DUP3 DUP1 SLOAD DUP1 ISZERO PUSH2 0xB9D JUMPI PUSH1 0x20 MUL DUP3 ADD SWAP2 SWAP1 PUSH0 MSTORE PUSH1 0x20 PUSH0 KECCAK256 SWAP1 JUMPDEST DUP2 PUSH0 SWAP1 SLOAD SWAP1 PUSH2 0x100 EXP SWAP1 DIV PUSH20 0xFFFFFFFFFFFFFFFFFFFFFFFFFFFFFFFFFFFFFFFF AND PUSH20 0xFFFFFFFFFFFFFFFFFFFFFFFFFFFFFFFFFFFFFFFF AND DUP2 MSTORE PUSH1 0x20 ADD SWAP1 PUSH1 0x1 ADD SWAP1 DUP1 DUP4 GT PUSH2 0xB54 JUMPI JUMPDEST POP POP POP POP POP DUP2 MSTORE POP POP SWAP1 POP SWAP3 SWAP2 POP POP JUMP JUMPDEST PUSH1 0x60 PUSH1 0x3 PUSH0 CALLER PUSH20 0xFFFFFFFFFFFFFFFFFFFFFFFFFFFFFFFFFFFFFFFF AND PUSH20 0xFFFFFFFFFFFFFFFFFFFFFFFFFFFFFFFFFFFFFFFF AND DUP2 MSTORE PUSH1 0x20 ADD SWAP1 DUP2 MSTORE PUSH1 0x20 ADD PUSH0 KECCAK256 DUP1 SLOAD DUP1 PUSH1 0x20 MUL PUSH1 0x20 ADD PUSH1 0x40 MLOAD SWAP1 DUP2 ADD PUSH1 0x40 MSTORE DUP1 SWAP3 SWAP2 SWAP1 DUP2 DUP2 MSTORE PUSH1 0x20 ADD PUSH0 SWAP1 JUMPDEST DUP3 DUP3 LT ISZERO PUSH2 0xE5F JUMPI DUP4 DUP3 SWAP1 PUSH0 MSTORE PUSH1 0x20 PUSH0 KECCAK256 SWAP1 PUSH1 0x8 MUL ADD PUSH1 0x40 MLOAD DUP1 PUSH2 0x100 ADD PUSH1 0x40 MSTORE SWAP1 DUP2 PUSH0 DUP3 ADD SLOAD DUP2 MSTORE PUSH1 0x20 ADD PUSH1 0x1 DUP3 ADD DUP1 SLOAD PUSH2 0xC47 SWAP1 PUSH2 0x2732 JUMP JUMPDEST DUP1 PUSH1 0x1F ADD PUSH1 0x20 DUP1 SWAP2 DIV MUL PUSH1 0x20 ADD PUSH1 0x40 MLOAD SWAP1 DUP2 ADD PUSH1 0x40 MSTORE DUP1 SWAP3 SWAP2 SWAP1 DUP2 DUP2 MSTORE PUSH1 0x20 ADD DUP3 DUP1 SLOAD PUSH2 0xC73 SWAP1 PUSH2 0x2732 JUMP JUMPDEST DUP1 ISZERO PUSH2 0xCBE JUMPI DUP1 PUSH1 0x1F LT PUSH2 0xC95 JUMPI PUSH2 0x100 DUP1 DUP4 SLOAD DIV MUL DUP4 MSTORE SWAP2 PUSH1 0x20 ADD SWAP2 PUSH2 0xCBE JUMP JUMPDEST DUP3 ADD SWAP2 SWAP1 PUSH0 MSTORE PUSH1 0x20 PUSH0 KECCAK256 SWAP1 JUMPDEST DUP2 SLOAD DUP2 MSTORE SWAP1 PUSH1 0x1 ADD SWAP1 PUSH1 0x20 ADD DUP1 DUP4 GT PUSH2 0xCA1 JUMPI DUP3 SWAP1 SUB PUSH1 0x1F AND DUP3 ADD SWAP2 JUMPDEST POP POP POP POP POP DUP2 MSTORE PUSH1 0x20 ADD PUSH1 0x2 DUP3 ADD PUSH0 SWAP1 SLOAD SWAP1 PUSH2 0x100 EXP SWAP1 DIV PUSH20 0xFFFFFFFFFFFFFFFFFFFFFFFFFFFFFFFFFFFFFFFF AND PUSH20 0xFFFFFFFFFFFFFFFFFFFFFFFFFFFFFFFFFFFFFFFF AND PUSH20 0xFFFFFFFFFFFFFFFFFFFFFFFFFFFFFFFFFFFFFFFF AND DUP2 MSTORE PUSH1 0x20 ADD PUSH1 0x3 DUP3 ADD SLOAD DUP2 MSTORE PUSH1 0x20 ADD PUSH1 0x4 DUP3 ADD DUP1 SLOAD DUP1 PUSH1 0x20 MUL PUSH1 0x20 ADD PUSH1 0x40 MLOAD SWAP1 DUP2 ADD PUSH1 0x40 MSTORE DUP1 SWAP3 SWAP2 SWAP1 DUP2 DUP2 MSTORE PUSH1 0x20 ADD DUP3 DUP1 SLOAD DUP1 ISZERO PUSH2 0xDA8 JUMPI PUSH1 0x20 MUL DUP3 ADD SWAP2 SWAP1 PUSH0 MSTORE PUSH1 0x20 PUSH0 KECCAK256 SWAP1 JUMPDEST DUP2 PUSH0 SWAP1 SLOAD SWAP1 PUSH2 0x100 EXP SWAP1 DIV PUSH20 0xFFFFFFFFFFFFFFFFFFFFFFFFFFFFFFFFFFFFFFFF AND PUSH20 0xFFFFFFFFFFFFFFFFFFFFFFFFFFFFFFFFFFFFFFFF AND DUP2 MSTORE PUSH1 0x20 ADD SWAP1 PUSH1 0x1 ADD SWAP1 DUP1 DUP4 GT PUSH2 0xD5F JUMPI JUMPDEST POP POP POP POP POP DUP2 MSTORE PUSH1 0x20 ADD PUSH1 0x5 DUP3 ADD SLOAD DUP2 MSTORE PUSH1 0x20 ADD PUSH1 0x6 DUP3 ADD SLOAD DUP2 MSTORE PUSH1 0x20 ADD PUSH1 0x7 DUP3 ADD DUP1 SLOAD DUP1 PUSH1 0x20 MUL PUSH1 0x20 ADD PUSH1 0x40 MLOAD SWAP1 DUP2 ADD PUSH1 0x40 MSTORE DUP1 SWAP3 SWAP2 SWAP1 DUP2 DUP2 MSTORE PUSH1 0x20 ADD DUP3 DUP1 SLOAD DUP1 ISZERO PUSH2 0xE47 JUMPI PUSH1 0x20 MUL DUP3 ADD SWAP2 SWAP1 PUSH0 MSTORE PUSH1 0x20 PUSH0 KECCAK256 SWAP1 JUMPDEST DUP2 PUSH0 SWAP1 SLOAD SWAP1 PUSH2 0x100 EXP SWAP1 DIV PUSH20 0xFFFFFFFFFFFFFFFFFFFFFFFFFFFFFFFFFFFFFFFF AND PUSH20 0xFFFFFFFFFFFFFFFFFFFFFFFFFFFFFFFFFFFFFFFF AND DUP2 MSTORE PUSH1 0x20 ADD SWAP1 PUSH1 0x1 ADD SWAP1 DUP1 DUP4 GT PUSH2 0xDFE JUMPI JUMPDEST POP POP POP POP POP DUP2 MSTORE POP POP DUP2 MSTORE PUSH1 0x20 ADD SWAP1 PUSH1 0x1 ADD SWAP1 PUSH2 0xC0C JUMP JUMPDEST POP POP POP POP SWAP1 POP SWAP1 JUMP JUMPDEST PUSH1 0x3 PUSH0 CALLER PUSH20 0xFFFFFFFFFFFFFFFFFFFFFFFFFFFFFFFFFFFFFFFF AND PUSH20 0xFFFFFFFFFFFFFFFFFFFFFFFFFFFFFFFFFFFFFFFF AND DUP2 MSTORE PUSH1 0x20 ADD SWAP1 DUP2 MSTORE PUSH1 0x20 ADD PUSH0 KECCAK256 DUP1 SLOAD DUP1 PUSH2 0xEB5 JUMPI PUSH2 0xEB4 PUSH2 0x2762 JUMP JUMPDEST JUMPDEST PUSH1 0x1 SWAP1 SUB DUP2 DUP2 SWAP1 PUSH0 MSTORE PUSH1 0x20 PUSH0 KECCAK256 SWAP1 PUSH1 0x8 MUL ADD PUSH0 DUP1 DUP3 ADD PUSH0 SWAP1 SSTORE PUSH1 0x1 DUP3 ADD PUSH0 PUSH2 0xEDD SWAP2 SWAP1 PUSH2 0x1BD8 JUMP JUMPDEST PUSH1 0x2 DUP3 ADD PUSH0 PUSH2 0x100 EXP DUP2 SLOAD SWAP1 PUSH20 0xFFFFFFFFFFFFFFFFFFFFFFFFFFFFFFFFFFFFFFFF MUL NOT AND SWAP1 SSTORE PUSH1 0x3 DUP3 ADD PUSH0 SWAP1 SSTORE PUSH1 0x4 DUP3 ADD PUSH0 PUSH2 0xF19 SWAP2 SWAP1 PUSH2 0x1C15 JUMP JUMPDEST PUSH1 0x5 DUP3 ADD PUSH0 SWAP1 SSTORE PUSH1 0x6 DUP3 ADD PUSH0 SWAP1 SSTORE PUSH1 0x7 DUP3 ADD PUSH0 PUSH2 0xF36 SWAP2 SWAP1 PUSH2 0x1C15 JUMP JUMPDEST POP POP SWAP1 SSTORE JUMP JUMPDEST PUSH1 0x3 PUSH0 CALLER PUSH20 0xFFFFFFFFFFFFFFFFFFFFFFFFFFFFFFFFFFFFFFFF AND PUSH20 0xFFFFFFFFFFFFFFFFFFFFFFFFFFFFFFFFFFFFFFFF AND DUP2 MSTORE PUSH1 0x20 ADD SWAP1 DUP2 MSTORE PUSH1 0x20 ADD PUSH0 KECCAK256 PUSH0 PUSH2 0xF84 SWAP2 SWAP1 PUSH2 0x1C33 JUMP JUMPDEST JUMP JUMPDEST PUSH1 0x1 SLOAD DUP2 MLOAD GT ISZERO PUSH2 0xFCC JUMPI PUSH1 0x40 MLOAD PUSH32 0x8C379A000000000000000000000000000000000000000000000000000000000 DUP2 MSTORE PUSH1 0x4 ADD PUSH2 0xFC3 SWAP1 PUSH2 0x27D9 JUMP JUMPDEST PUSH1 0x40 MLOAD DUP1 SWAP2 SUB SWAP1 REVERT JUMPDEST PUSH0 PUSH1 0x40 MLOAD DUP1 PUSH2 0x100 ADD PUSH1 0x40 MSTORE DUP1 PUSH1 0x1 PUSH1 0x3 PUSH0 CALLER PUSH20 0xFFFFFFFFFFFFFFFFFFFFFFFFFFFFFFFFFFFFFFFF AND PUSH20 0xFFFFFFFFFFFFFFFFFFFFFFFFFFFFFFFFFFFFFFFF AND DUP2 MSTORE PUSH1 0x20 ADD SWAP1 DUP2 MSTORE PUSH1 0x20 ADD PUSH0 KECCAK256 DUP1 SLOAD SWAP1 POP PUSH2 0x1026 SWAP2 SWAP1 PUSH2 0x27F7 JUMP JUMPDEST DUP2 MSTORE PUSH1 0x20 ADD DUP4 DUP2 MSTORE PUSH1 0x20 ADD CALLER PUSH20 0xFFFFFFFFFFFFFFFFFFFFFFFFFFFFFFFFFFFFFFFF AND DUP2 MSTORE PUSH1 0x20 ADD TIMESTAMP DUP2 MSTORE PUSH1 0x20 ADD PUSH1 0x2 DUP1 SLOAD DUP1 PUSH1 0x20 MUL PUSH1 0x20 ADD PUSH1 0x40 MLOAD SWAP1 DUP2 ADD PUSH1 0x40 MSTORE DUP1 SWAP3 SWAP2 SWAP1 DUP2 DUP2 MSTORE PUSH1 0x20 ADD DUP3 DUP1 SLOAD DUP1 ISZERO PUSH2 0x10D2 JUMPI PUSH1 0x20 MUL DUP3 ADD SWAP2 SWAP1 PUSH0 MSTORE PUSH1 0x20 PUSH0 KECCAK256 SWAP1 JUMPDEST DUP2 PUSH0 SWAP1 SLOAD SWAP1 PUSH2 0x100 EXP SWAP1 DIV PUSH20 0xFFFFFFFFFFFFFFFFFFFFFFFFFFFFFFFFFFFFFFFF AND PUSH20 0xFFFFFFFFFFFFFFFFFFFFFFFFFFFFFFFFFFFFFFFF AND DUP2 MSTORE PUSH1 0x20 ADD SWAP1 PUSH1 0x1 ADD SWAP1 DUP1 DUP4 GT PUSH2 0x1089 JUMPI JUMPDEST POP POP POP POP POP DUP2 MSTORE PUSH1 0x20 ADD PUSH0 DUP2 MSTORE PUSH1 0x20 ADD PUSH0 DUP2 MSTORE PUSH1 0x20 ADD PUSH1 0x2 DUP1 SLOAD DUP1 PUSH1 0x20 MUL PUSH1 0x20 ADD PUSH1 0x40 MLOAD SWAP1 DUP2 ADD PUSH1 0x40 MSTORE DUP1 SWAP3 SWAP2 SWAP1 DUP2 DUP2 MSTORE PUSH1 0x20 ADD DUP3 DUP1 SLOAD DUP1 ISZERO PUSH2 0x1167 JUMPI PUSH1 0x20 MUL DUP3 ADD SWAP2 SWAP1 PUSH0 MSTORE PUSH1 0x20 PUSH0 KECCAK256 SWAP1 JUMPDEST DUP2 PUSH0 SWAP1 SLOAD SWAP1 PUSH2 0x100 EXP SWAP1 DIV PUSH20 0xFFFFFFFFFFFFFFFFFFFFFFFFFFFFFFFFFFFFFFFF AND PUSH20 0xFFFFFFFFFFFFFFFFFFFFFFFFFFFFFFFFFFFFFFFF AND DUP2 MSTORE PUSH1 0x20 ADD SWAP1 PUSH1 0x1 ADD SWAP1 DUP1 DUP4 GT PUSH2 0x111E JUMPI JUMPDEST POP POP POP POP POP DUP2 MSTORE POP SWAP1 POP PUSH1 0x3 PUSH0 CALLER PUSH20 0xFFFFFFFFFFFFFFFFFFFFFFFFFFFFFFFFFFFFFFFF AND PUSH20 0xFFFFFFFFFFFFFFFFFFFFFFFFFFFFFFFFFFFFFFFF AND DUP2 MSTORE PUSH1 0x20 ADD SWAP1 DUP2 MSTORE PUSH1 0x20 ADD PUSH0 KECCAK256 DUP2 SWAP1 DUP1 PUSH1 0x1 DUP2 SLOAD ADD DUP1 DUP3 SSTORE DUP1 SWAP2 POP POP PUSH1 0x1 SWAP1 SUB SWAP1 PUSH0 MSTORE PUSH1 0x20 PUSH0 KECCAK256 SWAP1 PUSH1 0x8 MUL ADD PUSH0 SWAP1 SWAP2 SWAP1 SWAP2 SWAP1 SWAP2 POP PUSH0 DUP3 ADD MLOAD DUP2 PUSH0 ADD SSTORE PUSH1 0x20 DUP3 ADD MLOAD DUP2 PUSH1 0x1 ADD SWAP1 DUP2 PUSH2 0x11F2 SWAP2 SWAP1 PUSH2 0x29C7 JUMP JUMPDEST POP PUSH1 0x40 DUP3 ADD MLOAD DUP2 PUSH1 0x2 ADD PUSH0 PUSH2 0x100 EXP DUP2 SLOAD DUP2 PUSH20 0xFFFFFFFFFFFFFFFFFFFFFFFFFFFFFFFFFFFFFFFF MUL NOT AND SWAP1 DUP4 PUSH20 0xFFFFFFFFFFFFFFFFFFFFFFFFFFFFFFFFFFFFFFFF AND MUL OR SWAP1 SSTORE POP PUSH1 0x60 DUP3 ADD MLOAD DUP2 PUSH1 0x3 ADD SSTORE PUSH1 0x80 DUP3 ADD MLOAD DUP2 PUSH1 0x4 ADD SWAP1 DUP1 MLOAD SWAP1 PUSH1 0x20 ADD SWAP1 PUSH2 0x125F SWAP3 SWAP2 SWAP1 PUSH2 0x1C54 JUMP JUMPDEST POP PUSH1 0xA0 DUP3 ADD MLOAD DUP2 PUSH1 0x5 ADD SSTORE PUSH1 0xC0 DUP3 ADD MLOAD DUP2 PUSH1 0x6 ADD SSTORE PUSH1 0xE0 DUP3 ADD MLOAD DUP2 PUSH1 0x7 ADD SWAP1 DUP1 MLOAD SWAP1 PUSH1 0x20 ADD SWAP1 PUSH2 0x1290 SWAP3 SWAP2 SWAP1 PUSH2 0x1C54 JUMP JUMPDEST POP POP POP PUSH32 0x16FD3C13E9D46923E0A8BCE11C7B473EC508A72E6C96CD2404B29CE972AFC29E PUSH1 0x1 PUSH1 0x3 PUSH0 CALLER PUSH20 0xFFFFFFFFFFFFFFFFFFFFFFFFFFFFFFFFFFFFFFFF AND PUSH20 0xFFFFFFFFFFFFFFFFFFFFFFFFFFFFFFFFFFFFFFFF AND DUP2 MSTORE PUSH1 0x20 ADD SWAP1 DUP2 MSTORE PUSH1 0x20 ADD PUSH0 KECCAK256 DUP1 SLOAD SWAP1 POP PUSH2 0x1301 SWAP2 SWAP1 PUSH2 0x27F7 JUMP JUMPDEST CALLER DUP5 TIMESTAMP PUSH1 0x40 MLOAD PUSH2 0x1314 SWAP5 SWAP4 SWAP3 SWAP2 SWAP1 PUSH2 0x2ACE JUMP JUMPDEST PUSH1 0x40 MLOAD DUP1 SWAP2 SUB SWAP1 LOG1 POP POP JUMP JUMPDEST PUSH0 DUP1 PUSH0 SWAP1 POP PUSH0 JUMPDEST PUSH1 0x3 PUSH0 DUP6 PUSH20 0xFFFFFFFFFFFFFFFFFFFFFFFFFFFFFFFFFFFFFFFF AND PUSH20 0xFFFFFFFFFFFFFFFFFFFFFFFFFFFFFFFFFFFFFFFF AND DUP2 MSTORE PUSH1 0x20 ADD SWAP1 DUP2 MSTORE PUSH1 0x20 ADD PUSH0 KECCAK256 DUP1 SLOAD SWAP1 POP DUP2 LT ISZERO PUSH2 0x13E8 JUMPI PUSH1 0x3 PUSH0 DUP6 PUSH20 0xFFFFFFFFFFFFFFFFFFFFFFFFFFFFFFFFFFFFFFFF AND PUSH20 0xFFFFFFFFFFFFFFFFFFFFFFFFFFFFFFFFFFFFFFFF AND DUP2 MSTORE PUSH1 0x20 ADD SWAP1 DUP2 MSTORE PUSH1 0x20 ADD PUSH0 KECCAK256 DUP2 DUP2 SLOAD DUP2 LT PUSH2 0x13BE JUMPI PUSH2 0x13BD PUSH2 0x24E1 JUMP JUMPDEST JUMPDEST SWAP1 PUSH0 MSTORE PUSH1 0x20 PUSH0 KECCAK256 SWAP1 PUSH1 0x8 MUL ADD PUSH1 0x5 ADD SLOAD DUP3 PUSH2 0x13D9 SWAP2 SWAP1 PUSH2 0x27F7 JUMP JUMPDEST SWAP2 POP DUP1 DUP1 PUSH1 0x1 ADD SWAP2 POP POP PUSH2 0x1327 JUMP JUMPDEST POP DUP1 SWAP2 POP POP SWAP2 SWAP1 POP JUMP JUMPDEST DUP2 DUP2 PUSH0 PUSH1 0x1 SWAP1 POP DUP2 PUSH1 0x3 PUSH0 DUP6 PUSH20 0xFFFFFFFFFFFFFFFFFFFFFFFFFFFFFFFFFFFFFFFF AND PUSH20 0xFFFFFFFFFFFFFFFFFFFFFFFFFFFFFFFFFFFFFFFF AND DUP2 MSTORE PUSH1 0x20 ADD SWAP1 DUP2 MSTORE PUSH1 0x20 ADD PUSH0 KECCAK256 DUP1 SLOAD SWAP1 POP LT ISZERO PUSH2 0x147C JUMPI PUSH1 0x40 MLOAD PUSH32 0x8C379A000000000000000000000000000000000000000000000000000000000 DUP2 MSTORE PUSH1 0x4 ADD PUSH2 0x1473 SWAP1 PUSH2 0x2463 JUMP JUMPDEST PUSH1 0x40 MLOAD DUP1 SWAP2 SUB SWAP1 REVERT JUMPDEST PUSH0 JUMPDEST PUSH1 0x3 PUSH0 DUP6 PUSH20 0xFFFFFFFFFFFFFFFFFFFFFFFFFFFFFFFFFFFFFFFF AND PUSH20 0xFFFFFFFFFFFFFFFFFFFFFFFFFFFFFFFFFFFFFFFF AND DUP2 MSTORE PUSH1 0x20 ADD SWAP1 DUP2 MSTORE PUSH1 0x20 ADD PUSH0 KECCAK256 PUSH1 0x1 DUP5 PUSH2 0x14C8 SWAP2 SWAP1 PUSH2 0x24AE JUMP JUMPDEST DUP2 SLOAD DUP2 LT PUSH2 0x14D9 JUMPI PUSH2 0x14D8 PUSH2 0x24E1 JUMP JUMPDEST JUMPDEST SWAP1 PUSH0 MSTORE PUSH1 0x20 PUSH0 KECCAK256 SWAP1 PUSH1 0x8 MUL ADD PUSH1 0x4 ADD DUP1 SLOAD SWAP1 POP DUP2 LT ISZERO PUSH2 0x15DE JUMPI CALLER PUSH20 0xFFFFFFFFFFFFFFFFFFFFFFFFFFFFFFFFFFFFFFFF AND PUSH1 0x3 PUSH0 DUP7 PUSH20 0xFFFFFFFFFFFFFFFFFFFFFFFFFFFFFFFFFFFFFFFF AND PUSH20 0xFFFFFFFFFFFFFFFFFFFFFFFFFFFFFFFFFFFFFFFF AND DUP2 MSTORE PUSH1 0x20 ADD SWAP1 DUP2 MSTORE PUSH1 0x20 ADD PUSH0 KECCAK256 PUSH1 0x1 DUP6 PUSH2 0x1554 SWAP2 SWAP1 PUSH2 0x24AE JUMP JUMPDEST DUP2 SLOAD DUP2 LT PUSH2 0x1565 JUMPI PUSH2 0x1564 PUSH2 0x24E1 JUMP JUMPDEST JUMPDEST SWAP1 PUSH0 MSTORE PUSH1 0x20 PUSH0 KECCAK256 SWAP1 PUSH1 0x8 MUL ADD PUSH1 0x4 ADD DUP3 DUP2 SLOAD DUP2 LT PUSH2 0x1586 JUMPI PUSH2 0x1585 PUSH2 0x24E1 JUMP JUMPDEST JUMPDEST SWAP1 PUSH0 MSTORE PUSH1 0x20 PUSH0 KECCAK256 ADD PUSH0 SWAP1 SLOAD SWAP1 PUSH2 0x100 EXP SWAP1 DIV PUSH20 0xFFFFFFFFFFFFFFFFFFFFFFFFFFFFFFFFFFFFFFFF AND PUSH20 0xFFFFFFFFFFFFFFFFFFFFFFFFFFFFFFFFFFFFFFFF AND SUB PUSH2 0x15D1 JUMPI PUSH0 SWAP2 POP PUSH2 0x15DE JUMP JUMPDEST DUP1 DUP1 PUSH1 0x1 ADD SWAP2 POP POP PUSH2 0x147E JUMP JUMPDEST POP PUSH1 0x1 ISZERO ISZERO DUP2 ISZERO ISZERO EQ PUSH2 0x1626 JUMPI PUSH1 0x40 MLOAD PUSH32 0x8C379A000000000000000000000000000000000000000000000000000000000 DUP2 MSTORE PUSH1 0x4 ADD PUSH2 0x161D SWAP1 PUSH2 0x2558 JUMP JUMPDEST PUSH1 0x40 MLOAD DUP1 SWAP2 SUB SWAP1 REVERT JUMPDEST DUP5 DUP5 PUSH0 PUSH1 0x1 SWAP1 POP DUP2 PUSH1 0x3 PUSH0 DUP6 PUSH20 0xFFFFFFFFFFFFFFFFFFFFFFFFFFFFFFFFFFFFFFFF AND PUSH20 0xFFFFFFFFFFFFFFFFFFFFFFFFFFFFFFFFFFFFFFFF AND DUP2 MSTORE PUSH1 0x20 ADD SWAP1 DUP2 MSTORE PUSH1 0x20 ADD PUSH0 KECCAK256 DUP1 SLOAD SWAP1 POP LT ISZERO PUSH2 0x16B0 JUMPI PUSH1 0x40 MLOAD PUSH32 0x8C379A000000000000000000000000000000000000000000000000000000000 DUP2 MSTORE PUSH1 0x4 ADD PUSH2 0x16A7 SWAP1 PUSH2 0x2463 JUMP JUMPDEST PUSH1 0x40 MLOAD DUP1 SWAP2 SUB SWAP1 REVERT JUMPDEST PUSH0 JUMPDEST PUSH1 0x3 PUSH0 DUP6 PUSH20 0xFFFFFFFFFFFFFFFFFFFFFFFFFFFFFFFFFFFFFFFF AND PUSH20 0xFFFFFFFFFFFFFFFFFFFFFFFFFFFFFFFFFFFFFFFF AND DUP2 MSTORE PUSH1 0x20 ADD SWAP1 DUP2 MSTORE PUSH1 0x20 ADD PUSH0 KECCAK256 PUSH1 0x1 DUP5 PUSH2 0x16FC SWAP2 SWAP1 PUSH2 0x24AE JUMP JUMPDEST DUP2 SLOAD DUP2 LT PUSH2 0x170D JUMPI PUSH2 0x170C PUSH2 0x24E1 JUMP JUMPDEST JUMPDEST SWAP1 PUSH0 MSTORE PUSH1 0x20 PUSH0 KECCAK256 SWAP1 PUSH1 0x8 MUL ADD PUSH1 0x7 ADD DUP1 SLOAD SWAP1 POP DUP2 LT ISZERO PUSH2 0x1812 JUMPI CALLER PUSH20 0xFFFFFFFFFFFFFFFFFFFFFFFFFFFFFFFFFFFFFFFF AND PUSH1 0x3 PUSH0 DUP7 PUSH20 0xFFFFFFFFFFFFFFFFFFFFFFFFFFFFFFFFFFFFFFFF AND PUSH20 0xFFFFFFFFFFFFFFFFFFFFFFFFFFFFFFFFFFFFFFFF AND DUP2 MSTORE PUSH1 0x20 ADD SWAP1 DUP2 MSTORE PUSH1 0x20 ADD PUSH0 KECCAK256 PUSH1 0x1 DUP6 PUSH2 0x1788 SWAP2 SWAP1 PUSH2 0x24AE JUMP JUMPDEST DUP2 SLOAD DUP2 LT PUSH2 0x1799 JUMPI PUSH2 0x1798 PUSH2 0x24E1 JUMP JUMPDEST JUMPDEST SWAP1 PUSH0 MSTORE PUSH1 0x20 PUSH0 KECCAK256 SWAP1 PUSH1 0x8 MUL ADD PUSH1 0x7 ADD DUP3 DUP2 SLOAD DUP2 LT PUSH2 0x17BA JUMPI PUSH2 0x17B9 PUSH2 0x24E1 JUMP JUMPDEST JUMPDEST SWAP1 PUSH0 MSTORE PUSH1 0x20 PUSH0 KECCAK256 ADD PUSH0 SWAP1 SLOAD SWAP1 PUSH2 0x100 EXP SWAP1 DIV PUSH20 0xFFFFFFFFFFFFFFFFFFFFFFFFFFFFFFFFFFFFFFFF AND PUSH20 0xFFFFFFFFFFFFFFFFFFFFFFFFFFFFFFFFFFFFFFFF AND SUB PUSH2 0x1805 JUMPI PUSH0 SWAP2 POP PUSH2 0x1812 JUMP JUMPDEST DUP1 DUP1 PUSH1 0x1 ADD SWAP2 POP POP PUSH2 0x16B2 JUMP JUMPDEST POP PUSH1 0x1 ISZERO ISZERO DUP2 ISZERO ISZERO EQ PUSH2 0x185A JUMPI PUSH1 0x40 MLOAD PUSH32 0x8C379A000000000000000000000000000000000000000000000000000000000 DUP2 MSTORE PUSH1 0x4 ADD PUSH2 0x1851 SWAP1 PUSH2 0x25C0 JUMP JUMPDEST PUSH1 0x40 MLOAD DUP1 SWAP2 SUB SWAP1 REVERT JUMPDEST CALLER PUSH20 0xFFFFFFFFFFFFFFFFFFFFFFFFFFFFFFFFFFFFFFFF AND DUP9 PUSH20 0xFFFFFFFFFFFFFFFFFFFFFFFFFFFFFFFFFFFFFFFF AND SUB PUSH2 0x18C8 JUMPI PUSH1 0x40 MLOAD PUSH32 0x8C379A000000000000000000000000000000000000000000000000000000000 DUP2 MSTORE PUSH1 0x4 ADD PUSH2 0x18BF SWAP1 PUSH2 0x264E JUMP JUMPDEST PUSH1 0x40 MLOAD DUP1 SWAP2 SUB SWAP1 REVERT JUMPDEST PUSH1 0x3 PUSH0 DUP10 PUSH20 0xFFFFFFFFFFFFFFFFFFFFFFFFFFFFFFFFFFFFFFFF AND PUSH20 0xFFFFFFFFFFFFFFFFFFFFFFFFFFFFFFFFFFFFFFFF AND DUP2 MSTORE PUSH1 0x20 ADD SWAP1 DUP2 MSTORE PUSH1 0x20 ADD PUSH0 KECCAK256 PUSH1 0x1 DUP9 PUSH2 0x1912 SWAP2 SWAP1 PUSH2 0x24AE JUMP JUMPDEST DUP2 SLOAD DUP2 LT PUSH2 0x1923 JUMPI PUSH2 0x1922 PUSH2 0x24E1 JUMP JUMPDEST JUMPDEST SWAP1 PUSH0 MSTORE PUSH1 0x20 PUSH0 KECCAK256 SWAP1 PUSH1 0x8 MUL ADD PUSH1 0x7 ADD CALLER SWAP1 DUP1 PUSH1 0x1 DUP2 SLOAD ADD DUP1 DUP3 SSTORE DUP1 SWAP2 POP POP PUSH1 0x1 SWAP1 SUB SWAP1 PUSH0 MSTORE PUSH1 0x20 PUSH0 KECCAK256 ADD PUSH0 SWAP1 SWAP2 SWAP1 SWAP2 SWAP1 SWAP2 PUSH2 0x100 EXP DUP2 SLOAD DUP2 PUSH20 0xFFFFFFFFFFFFFFFFFFFFFFFFFFFFFFFFFFFFFFFF MUL NOT AND SWAP1 DUP4 PUSH20 0xFFFFFFFFFFFFFFFFFFFFFFFFFFFFFFFFFFFFFFFF AND MUL OR SWAP1 SSTORE POP PUSH1 0x3 PUSH0 DUP10 PUSH20 0xFFFFFFFFFFFFFFFFFFFFFFFFFFFFFFFFFFFFFFFF AND PUSH20 0xFFFFFFFFFFFFFFFFFFFFFFFFFFFFFFFFFFFFFFFF AND DUP2 MSTORE PUSH1 0x20 ADD SWAP1 DUP2 MSTORE PUSH1 0x20 ADD PUSH0 KECCAK256 PUSH1 0x1 DUP9 PUSH2 0x19DA SWAP2 SWAP1 PUSH2 0x24AE JUMP JUMPDEST DUP2 SLOAD DUP2 LT PUSH2 0x19EB JUMPI PUSH2 0x19EA PUSH2 0x24E1 JUMP JUMPDEST JUMPDEST SWAP1 PUSH0 MSTORE PUSH1 0x20 PUSH0 KECCAK256 SWAP1 PUSH1 0x8 MUL ADD PUSH1 0x6 ADD PUSH0 DUP2 SLOAD DUP1 SWAP3 SWAP2 SWAP1 PUSH2 0x1A0A SWAP1 PUSH2 0x266C JUMP JUMPDEST SWAP2 SWAP1 POP SSTORE POP POP POP POP POP POP POP POP POP JUMP JUMPDEST PUSH0 DUP1 PUSH0 SWAP1 POP PUSH0 JUMPDEST PUSH1 0x3 PUSH0 DUP6 PUSH20 0xFFFFFFFFFFFFFFFFFFFFFFFFFFFFFFFFFFFFFFFF AND PUSH20 0xFFFFFFFFFFFFFFFFFFFFFFFFFFFFFFFFFFFFFFFF AND DUP2 MSTORE PUSH1 0x20 ADD SWAP1 DUP2 MSTORE PUSH1 0x20 ADD PUSH0 KECCAK256 DUP1 SLOAD SWAP1 POP DUP2 LT ISZERO PUSH2 0x1AE1 JUMPI PUSH1 0x3 PUSH0 DUP6 PUSH20 0xFFFFFFFFFFFFFFFFFFFFFFFFFFFFFFFFFFFFFFFF AND PUSH20 0xFFFFFFFFFFFFFFFFFFFFFFFFFFFFFFFFFFFFFFFF AND DUP2 MSTORE PUSH1 0x20 ADD SWAP1 DUP2 MSTORE PUSH1 0x20 ADD PUSH0 KECCAK256 DUP2 DUP2 SLOAD DUP2 LT PUSH2 0x1AB7 JUMPI PUSH2 0x1AB6 PUSH2 0x24E1 JUMP JUMPDEST JUMPDEST SWAP1 PUSH0 MSTORE PUSH1 0x20 PUSH0 KECCAK256 SWAP1 PUSH1 0x8 MUL ADD PUSH1 0x6 ADD SLOAD DUP3 PUSH2 0x1AD2 SWAP2 SWAP1 PUSH2 0x27F7 JUMP JUMPDEST SWAP2 POP DUP1 DUP1 PUSH1 0x1 ADD SWAP2 POP POP PUSH2 0x1A20 JUMP JUMPDEST POP DUP1 SWAP2 POP POP SWAP2 SWAP1 POP JUMP JUMPDEST CALLER PUSH20 0xFFFFFFFFFFFFFFFFFFFFFFFFFFFFFFFFFFFFFFFF AND PUSH0 DUP1 SLOAD SWAP1 PUSH2 0x100 EXP SWAP1 DIV PUSH20 0xFFFFFFFFFFFFFFFFFFFFFFFFFFFFFFFFFFFFFFFF AND PUSH20 0xFFFFFFFFFFFFFFFFFFFFFFFFFFFFFFFFFFFFFFFF AND EQ PUSH2 0x1B78 JUMPI PUSH1 0x40 MLOAD PUSH32 0x8C379A000000000000000000000000000000000000000000000000000000000 DUP2 MSTORE PUSH1 0x4 ADD PUSH2 0x1B6F SWAP1 PUSH2 0x2B88 JUMP JUMPDEST PUSH1 0x40 MLOAD DUP1 SWAP2 SUB SWAP1 REVERT JUMPDEST DUP1 PUSH1 0x1 DUP2 SWAP1 SSTORE POP POP JUMP JUMPDEST PUSH1 0x40 MLOAD DUP1 PUSH2 0x100 ADD PUSH1 0x40 MSTORE DUP1 PUSH0 DUP2 MSTORE PUSH1 0x20 ADD PUSH1 0x60 DUP2 MSTORE PUSH1 0x20 ADD PUSH0 PUSH20 0xFFFFFFFFFFFFFFFFFFFFFFFFFFFFFFFFFFFFFFFF AND DUP2 MSTORE PUSH1 0x20 ADD PUSH0 DUP2 MSTORE PUSH1 0x20 ADD PUSH1 0x60 DUP2 MSTORE PUSH1 0x20 ADD PUSH0 DUP2 MSTORE PUSH1 0x20 ADD PUSH0 DUP2 MSTORE PUSH1 0x20 ADD PUSH1 0x60 DUP2 MSTORE POP SWAP1 JUMP JUMPDEST POP DUP1 SLOAD PUSH2 0x1BE4 SWAP1 PUSH2 0x2732 JUMP JUMPDEST PUSH0 DUP3 SSTORE DUP1 PUSH1 0x1F LT PUSH2 0x1BF5 JUMPI POP PUSH2 0x1C12 JUMP JUMPDEST PUSH1 0x1F ADD PUSH1 0x20 SWAP1 DIV SWAP1 PUSH0 MSTORE PUSH1 0x20 PUSH0 KECCAK256 SWAP1 DUP2 ADD SWAP1 PUSH2 0x1C11 SWAP2 SWAP1 PUSH2 0x1CDB JUMP JUMPDEST JUMPDEST POP JUMP JUMPDEST POP DUP1 SLOAD PUSH0 DUP3 SSTORE SWAP1 PUSH0 MSTORE PUSH1 0x20 PUSH0 KECCAK256 SWAP1 DUP2 ADD SWAP1 PUSH2 0x1C30 SWAP2 SWAP1 PUSH2 0x1CDB JUMP JUMPDEST POP JUMP JUMPDEST POP DUP1 SLOAD PUSH0 DUP3 SSTORE PUSH1 0x8 MUL SWAP1 PUSH0 MSTORE PUSH1 0x20 PUSH0 KECCAK256 SWAP1 DUP2 ADD SWAP1 PUSH2 0x1C51 SWAP2 SWAP1 PUSH2 0x1CF6 JUMP JUMPDEST POP JUMP JUMPDEST DUP3 DUP1 SLOAD DUP3 DUP3 SSTORE SWAP1 PUSH0 MSTORE PUSH1 0x20 PUSH0 KECCAK256 SWAP1 DUP2 ADD SWAP3 DUP3 ISZERO PUSH2 0x1CCA JUMPI SWAP2 PUSH1 0x20 MUL DUP3 ADD JUMPDEST DUP3 DUP2 GT ISZERO PUSH2 0x1CC9 JUMPI DUP3 MLOAD DUP3 PUSH0 PUSH2 0x100 EXP DUP2 SLOAD DUP2 PUSH20 0xFFFFFFFFFFFFFFFFFFFFFFFFFFFFFFFFFFFFFFFF MUL NOT AND SWAP1 DUP4 PUSH20 0xFFFFFFFFFFFFFFFFFFFFFFFFFFFFFFFFFFFFFFFF AND MUL OR SWAP1 SSTORE POP SWAP2 PUSH1 0x20 ADD SWAP2 SWAP1 PUSH1 0x1 ADD SWAP1 PUSH2 0x1C72 JUMP JUMPDEST JUMPDEST POP SWAP1 POP PUSH2 0x1CD7 SWAP2 SWAP1 PUSH2 0x1CDB JUMP JUMPDEST POP SWAP1 JUMP JUMPDEST JUMPDEST DUP1 DUP3 GT ISZERO PUSH2 0x1CF2 JUMPI PUSH0 DUP2 PUSH0 SWAP1 SSTORE POP PUSH1 0x1 ADD PUSH2 0x1CDC JUMP JUMPDEST POP SWAP1 JUMP JUMPDEST JUMPDEST DUP1 DUP3 GT ISZERO PUSH2 0x1D77 JUMPI PUSH0 DUP1 DUP3 ADD PUSH0 SWAP1 SSTORE PUSH1 0x1 DUP3 ADD PUSH0 PUSH2 0x1D15 SWAP2 SWAP1 PUSH2 0x1BD8 JUMP JUMPDEST PUSH1 0x2 DUP3 ADD PUSH0 PUSH2 0x100 EXP DUP2 SLOAD SWAP1 PUSH20 0xFFFFFFFFFFFFFFFFFFFFFFFFFFFFFFFFFFFFFFFF MUL NOT AND SWAP1 SSTORE PUSH1 0x3 DUP3 ADD PUSH0 SWAP1 SSTORE PUSH1 0x4 DUP3 ADD PUSH0 PUSH2 0x1D51 SWAP2 SWAP1 PUSH2 0x1C15 JUMP JUMPDEST PUSH1 0x5 DUP3 ADD PUSH0 SWAP1 SSTORE PUSH1 0x6 DUP3 ADD PUSH0 SWAP1 SSTORE PUSH1 0x7 DUP3 ADD PUSH0 PUSH2 0x1D6E SWAP2 SWAP1 PUSH2 0x1C15 JUMP JUMPDEST POP PUSH1 0x8 ADD PUSH2 0x1CF7 JUMP JUMPDEST POP SWAP1 JUMP JUMPDEST PUSH0 PUSH1 0x40 MLOAD SWAP1 POP SWAP1 JUMP JUMPDEST PUSH0 DUP1 REVERT JUMPDEST PUSH0 DUP1 REVERT JUMPDEST PUSH0 PUSH20 0xFFFFFFFFFFFFFFFFFFFFFFFFFFFFFFFFFFFFFFFF DUP3 AND SWAP1 POP SWAP2 SWAP1 POP JUMP JUMPDEST PUSH0 PUSH2 0x1DB5 DUP3 PUSH2 0x1D8C JUMP JUMPDEST SWAP1 POP SWAP2 SWAP1 POP JUMP JUMPDEST PUSH2 0x1DC5 DUP2 PUSH2 0x1DAB JUMP JUMPDEST DUP2 EQ PUSH2 0x1DCF JUMPI PUSH0 DUP1 REVERT JUMPDEST POP JUMP JUMPDEST PUSH0 DUP2 CALLDATALOAD SWAP1 POP PUSH2 0x1DE0 DUP2 PUSH2 0x1DBC JUMP JUMPDEST SWAP3 SWAP2 POP POP JUMP JUMPDEST PUSH0 DUP2 SWAP1 POP SWAP2 SWAP1 POP JUMP JUMPDEST PUSH2 0x1DF8 DUP2 PUSH2 0x1DE6 JUMP JUMPDEST DUP2 EQ PUSH2 0x1E02 JUMPI PUSH0 DUP1 REVERT JUMPDEST POP JUMP JUMPDEST PUSH0 DUP2 CALLDATALOAD SWAP1 POP PUSH2 0x1E13 DUP2 PUSH2 0x1DEF JUMP JUMPDEST SWAP3 SWAP2 POP POP JUMP JUMPDEST PUSH0 DUP1 PUSH1 0x40 DUP4 DUP6 SUB SLT ISZERO PUSH2 0x1E2F JUMPI PUSH2 0x1E2E PUSH2 0x1D84 JUMP JUMPDEST JUMPDEST PUSH0 PUSH2 0x1E3C DUP6 DUP3 DUP7 ADD PUSH2 0x1DD2 JUMP JUMPDEST SWAP3 POP POP PUSH1 0x20 PUSH2 0x1E4D DUP6 DUP3 DUP7 ADD PUSH2 0x1E05 JUMP JUMPDEST SWAP2 POP POP SWAP3 POP SWAP3 SWAP1 POP JUMP JUMPDEST PUSH2 0x1E60 DUP2 PUSH2 0x1DE6 JUMP JUMPDEST DUP3 MSTORE POP POP JUMP JUMPDEST PUSH0 DUP2 MLOAD SWAP1 POP SWAP2 SWAP1 POP JUMP JUMPDEST PUSH0 DUP3 DUP3 MSTORE PUSH1 0x20 DUP3 ADD SWAP1 POP SWAP3 SWAP2 POP POP JUMP JUMPDEST PUSH0 JUMPDEST DUP4 DUP2 LT ISZERO PUSH2 0x1E9D JUMPI DUP1 DUP3 ADD MLOAD DUP2 DUP5 ADD MSTORE PUSH1 0x20 DUP2 ADD SWAP1 POP PUSH2 0x1E82 JUMP JUMPDEST PUSH0 DUP5 DUP5 ADD MSTORE POP POP POP POP JUMP JUMPDEST PUSH0 PUSH1 0x1F NOT PUSH1 0x1F DUP4 ADD AND SWAP1 POP SWAP2 SWAP1 POP JUMP JUMPDEST PUSH0 PUSH2 0x1EC2 DUP3 PUSH2 0x1E66 JUMP JUMPDEST PUSH2 0x1ECC DUP2 DUP6 PUSH2 0x1E70 JUMP JUMPDEST SWAP4 POP PUSH2 0x1EDC DUP2 DUP6 PUSH1 0x20 DUP7 ADD PUSH2 0x1E80 JUMP JUMPDEST PUSH2 0x1EE5 DUP2 PUSH2 0x1EA8 JUMP JUMPDEST DUP5 ADD SWAP2 POP POP SWAP3 SWAP2 POP POP JUMP JUMPDEST PUSH2 0x1EF9 DUP2 PUSH2 0x1DAB JUMP JUMPDEST DUP3 MSTORE POP POP JUMP JUMPDEST PUSH0 DUP2 MLOAD SWAP1 POP SWAP2 SWAP1 POP JUMP JUMPDEST PUSH0 DUP3 DUP3 MSTORE PUSH1 0x20 DUP3 ADD SWAP1 POP SWAP3 SWAP2 POP POP JUMP JUMPDEST PUSH0 DUP2 SWAP1 POP PUSH1 0x20 DUP3 ADD SWAP1 POP SWAP2 SWAP1 POP JUMP JUMPDEST PUSH0 PUSH2 0x1F33 DUP4 DUP4 PUSH2 0x1EF0 JUMP JUMPDEST PUSH1 0x20 DUP4 ADD SWAP1 POP SWAP3 SWAP2 POP POP JUMP JUMPDEST PUSH0 PUSH1 0x20 DUP3 ADD SWAP1 POP SWAP2 SWAP1 POP JUMP JUMPDEST PUSH0 PUSH2 0x1F55 DUP3 PUSH2 0x1EFF JUMP JUMPDEST PUSH2 0x1F5F DUP2 DUP6 PUSH2 0x1F09 JUMP JUMPDEST SWAP4 POP PUSH2 0x1F6A DUP4 PUSH2 0x1F19 JUMP JUMPDEST DUP1 PUSH0 JUMPDEST DUP4 DUP2 LT ISZERO PUSH2 0x1F9A JUMPI DUP2 MLOAD PUSH2 0x1F81 DUP9 DUP3 PUSH2 0x1F28 JUMP JUMPDEST SWAP8 POP PUSH2 0x1F8C DUP4 PUSH2 0x1F3F JUMP JUMPDEST SWAP3 POP POP PUSH1 0x1 DUP2 ADD SWAP1 POP PUSH2 0x1F6D JUMP JUMPDEST POP DUP6 SWAP4 POP POP POP POP SWAP3 SWAP2 POP POP JUMP JUMPDEST PUSH0 PUSH2 0x100 DUP4 ADD PUSH0 DUP4 ADD MLOAD PUSH2 0x1FBD PUSH0 DUP7 ADD DUP3 PUSH2 0x1E57 JUMP JUMPDEST POP PUSH1 0x20 DUP4 ADD MLOAD DUP5 DUP3 SUB PUSH1 0x20 DUP7 ADD MSTORE PUSH2 0x1FD5 DUP3 DUP3 PUSH2 0x1EB8 JUMP JUMPDEST SWAP2 POP POP PUSH1 0x40 DUP4 ADD MLOAD PUSH2 0x1FEA PUSH1 0x40 DUP7 ADD DUP3 PUSH2 0x1EF0 JUMP JUMPDEST POP PUSH1 0x60 DUP4 ADD MLOAD PUSH2 0x1FFD PUSH1 0x60 DUP7 ADD DUP3 PUSH2 0x1E57 JUMP JUMPDEST POP PUSH1 0x80 DUP4 ADD MLOAD DUP5 DUP3 SUB PUSH1 0x80 DUP7 ADD MSTORE PUSH2 0x2015 DUP3 DUP3 PUSH2 0x1F4B JUMP JUMPDEST SWAP2 POP POP PUSH1 0xA0 DUP4 ADD MLOAD PUSH2 0x202A PUSH1 0xA0 DUP7 ADD DUP3 PUSH2 0x1E57 JUMP JUMPDEST POP PUSH1 0xC0 DUP4 ADD MLOAD PUSH2 0x203D PUSH1 0xC0 DUP7 ADD DUP3 PUSH2 0x1E57 JUMP JUMPDEST POP PUSH1 0xE0 DUP4 ADD MLOAD DUP5 DUP3 SUB PUSH1 0xE0 DUP7 ADD MSTORE PUSH2 0x2055 DUP3 DUP3 PUSH2 0x1F4B JUMP JUMPDEST SWAP2 POP POP DUP1 SWAP2 POP POP SWAP3 SWAP2 POP POP JUMP JUMPDEST PUSH0 PUSH1 0x20 DUP3 ADD SWAP1 POP DUP2 DUP2 SUB PUSH0 DUP4 ADD MSTORE PUSH2 0x207A DUP2 DUP5 PUSH2 0x1FA7 JUMP JUMPDEST SWAP1 POP SWAP3 SWAP2 POP POP JUMP JUMPDEST PUSH0 DUP2 MLOAD SWAP1 POP SWAP2 SWAP1 POP JUMP JUMPDEST PUSH0 DUP3 DUP3 MSTORE PUSH1 0x20 DUP3 ADD SWAP1 POP SWAP3 SWAP2 POP POP JUMP JUMPDEST PUSH0 DUP2 SWAP1 POP PUSH1 0x20 DUP3 ADD SWAP1 POP SWAP2 SWAP1 POP JUMP JUMPDEST PUSH0 PUSH2 0x100 DUP4 ADD PUSH0 DUP4 ADD MLOAD PUSH2 0x20C1 PUSH0 DUP7 ADD DUP3 PUSH2 0x1E57 JUMP JUMPDEST POP PUSH1 0x20 DUP4 ADD MLOAD DUP5 DUP3 SUB PUSH1 0x20 DUP7 ADD MSTORE PUSH2 0x20D9 DUP3 DUP3 PUSH2 0x1EB8 JUMP JUMPDEST SWAP2 POP POP PUSH1 0x40 DUP4 ADD MLOAD PUSH2 0x20EE PUSH1 0x40 DUP7 ADD DUP3 PUSH2 0x1EF0 JUMP JUMPDEST POP PUSH1 0x60 DUP4 ADD MLOAD PUSH2 0x2101 PUSH1 0x60 DUP7 ADD DUP3 PUSH2 0x1E57 JUMP JUMPDEST POP PUSH1 0x80 DUP4 ADD MLOAD DUP5 DUP3 SUB PUSH1 0x80 DUP7 ADD MSTORE PUSH2 0x2119 DUP3 DUP3 PUSH2 0x1F4B JUMP JUMPDEST SWAP2 POP POP PUSH1 0xA0 DUP4 ADD MLOAD PUSH2 0x212E PUSH1 0xA0 DUP7 ADD DUP3 PUSH2 0x1E57 JUMP JUMPDEST POP PUSH1 0xC0 DUP4 ADD MLOAD PUSH2 0x2141 PUSH1 0xC0 DUP7 ADD DUP3 PUSH2 0x1E57 JUMP JUMPDEST POP PUSH1 0xE0 DUP4 ADD MLOAD DUP5 DUP3 SUB PUSH1 0xE0 DUP7 ADD MSTORE PUSH2 0x2159 DUP3 DUP3 PUSH2 0x1F4B JUMP JUMPDEST SWAP2 POP POP DUP1 SWAP2 POP POP SWAP3 SWAP2 POP POP JUMP JUMPDEST PUSH0 PUSH2 0x2171 DUP4 DUP4 PUSH2 0x20AB JUMP JUMPDEST SWAP1 POP SWAP3 SWAP2 POP POP JUMP JUMPDEST PUSH0 PUSH1 0x20 DUP3 ADD SWAP1 POP SWAP2 SWAP1 POP JUMP JUMPDEST PUSH0 PUSH2 0x218F DUP3 PUSH2 0x2082 JUMP JUMPDEST PUSH2 0x2199 DUP2 DUP6 PUSH2 0x208C JUMP JUMPDEST SWAP4 POP DUP4 PUSH1 0x20 DUP3 MUL DUP6 ADD PUSH2 0x21AB DUP6 PUSH2 0x209C JUMP JUMPDEST DUP1 PUSH0 JUMPDEST DUP6 DUP2 LT ISZERO PUSH2 0x21E6 JUMPI DUP5 DUP5 SUB DUP10 MSTORE DUP2 MLOAD PUSH2 0x21C7 DUP6 DUP3 PUSH2 0x2166 JUMP JUMPDEST SWAP5 POP PUSH2 0x21D2 DUP4 PUSH2 0x2179 JUMP JUMPDEST SWAP3 POP PUSH1 0x20 DUP11 ADD SWAP10 POP POP PUSH1 0x1 DUP2 ADD SWAP1 POP PUSH2 0x21AE JUMP JUMPDEST POP DUP3 SWAP8 POP DUP8 SWAP6 POP POP POP POP POP POP SWAP3 SWAP2 POP POP JUMP JUMPDEST PUSH0 PUSH1 0x20 DUP3 ADD SWAP1 POP DUP2 DUP2 SUB PUSH0 DUP4 ADD MSTORE PUSH2 0x2210 DUP2 DUP5 PUSH2 0x2185 JUMP JUMPDEST SWAP1 POP SWAP3 SWAP2 POP POP JUMP JUMPDEST PUSH0 DUP1 REVERT JUMPDEST PUSH0 DUP1 REVERT JUMPDEST PUSH32 0x4E487B7100000000000000000000000000000000000000000000000000000000 PUSH0 MSTORE PUSH1 0x41 PUSH1 0x4 MSTORE PUSH1 0x24 PUSH0 REVERT JUMPDEST PUSH2 0x2256 DUP3 PUSH2 0x1EA8 JUMP JUMPDEST DUP2 ADD DUP2 DUP2 LT PUSH8 0xFFFFFFFFFFFFFFFF DUP3 GT OR ISZERO PUSH2 0x2275 JUMPI PUSH2 0x2274 PUSH2 0x2220 JUMP JUMPDEST JUMPDEST DUP1 PUSH1 0x40 MSTORE POP POP POP JUMP JUMPDEST PUSH0 PUSH2 0x2287 PUSH2 0x1D7B JUMP JUMPDEST SWAP1 POP PUSH2 0x2293 DUP3 DUP3 PUSH2 0x224D JUMP JUMPDEST SWAP2 SWAP1 POP JUMP JUMPDEST PUSH0 PUSH8 0xFFFFFFFFFFFFFFFF DUP3 GT ISZERO PUSH2 0x22B2 JUMPI PUSH2 0x22B1 PUSH2 0x2220 JUMP JUMPDEST JUMPDEST PUSH2 0x22BB DUP3 PUSH2 0x1EA8 JUMP JUMPDEST SWAP1 POP PUSH1 0x20 DUP2 ADD SWAP1 POP SWAP2 SWAP1 POP JUMP JUMPDEST DUP3 DUP2 DUP4 CALLDATACOPY PUSH0 DUP4 DUP4 ADD MSTORE POP POP POP JUMP JUMPDEST PUSH0 PUSH2 0x22E8 PUSH2 0x22E3 DUP5 PUSH2 0x2298 JUMP JUMPDEST PUSH2 0x227E JUMP JUMPDEST SWAP1 POP DUP3 DUP2 MSTORE PUSH1 0x20 DUP2 ADD DUP5 DUP5 DUP5 ADD GT ISZERO PUSH2 0x2304 JUMPI PUSH2 0x2303 PUSH2 0x221C JUMP JUMPDEST JUMPDEST PUSH2 0x230F DUP5 DUP3 DUP6 PUSH2 0x22C8 JUMP JUMPDEST POP SWAP4 SWAP3 POP POP POP JUMP JUMPDEST PUSH0 DUP3 PUSH1 0x1F DUP4 ADD SLT PUSH2 0x232B JUMPI PUSH2 0x232A PUSH2 0x2218 JUMP JUMPDEST JUMPDEST DUP2 CALLDATALOAD PUSH2 0x233B DUP5 DUP3 PUSH1 0x20 DUP7 ADD PUSH2 0x22D6 JUMP JUMPDEST SWAP2 POP POP SWAP3 SWAP2 POP POP JUMP JUMPDEST PUSH0 PUSH1 0x20 DUP3 DUP5 SUB SLT ISZERO PUSH2 0x2359 JUMPI PUSH2 0x2358 PUSH2 0x1D84 JUMP JUMPDEST JUMPDEST PUSH0 DUP3 ADD CALLDATALOAD PUSH8 0xFFFFFFFFFFFFFFFF DUP2 GT ISZERO PUSH2 0x2376 JUMPI PUSH2 0x2375 PUSH2 0x1D88 JUMP JUMPDEST JUMPDEST PUSH2 0x2382 DUP5 DUP3 DUP6 ADD PUSH2 0x2317 JUMP JUMPDEST SWAP2 POP POP SWAP3 SWAP2 POP POP JUMP JUMPDEST PUSH0 PUSH1 0x20 DUP3 DUP5 SUB SLT ISZERO PUSH2 0x23A0 JUMPI PUSH2 0x239F PUSH2 0x1D84 JUMP JUMPDEST JUMPDEST PUSH0 PUSH2 0x23AD DUP5 DUP3 DUP6 ADD PUSH2 0x1DD2 JUMP JUMPDEST SWAP2 POP POP SWAP3 SWAP2 POP POP JUMP JUMPDEST PUSH2 0x23BF DUP2 PUSH2 0x1DE6 JUMP JUMPDEST DUP3 MSTORE POP POP JUMP JUMPDEST PUSH0 PUSH1 0x20 DUP3 ADD SWAP1 POP PUSH2 0x23D8 PUSH0 DUP4 ADD DUP5 PUSH2 0x23B6 JUMP JUMPDEST SWAP3 SWAP2 POP POP JUMP JUMPDEST PUSH0 PUSH1 0x20 DUP3 DUP5 SUB SLT ISZERO PUSH2 0x23F3 JUMPI PUSH2 0x23F2 PUSH2 0x1D84 JUMP JUMPDEST JUMPDEST PUSH0 PUSH2 0x2400 DUP5 DUP3 DUP6 ADD PUSH2 0x1E05 JUMP JUMPDEST SWAP2 POP POP SWAP3 SWAP2 POP POP JUMP JUMPDEST PUSH0 DUP3 DUP3 MSTORE PUSH1 0x20 DUP3 ADD SWAP1 POP SWAP3 SWAP2 POP POP JUMP JUMPDEST PUSH32 0x54686973205477656574204E6F74204578697374202100000000000000000000 PUSH0 DUP3 ADD MSTORE POP JUMP JUMPDEST PUSH0 PUSH2 0x244D PUSH1 0x16 DUP4 PUSH2 0x2409 JUMP JUMPDEST SWAP2 POP PUSH2 0x2458 DUP3 PUSH2 0x2419 JUMP JUMPDEST PUSH1 0x20 DUP3 ADD SWAP1 POP SWAP2 SWAP1 POP JUMP JUMPDEST PUSH0 PUSH1 0x20 DUP3 ADD SWAP1 POP DUP2 DUP2 SUB PUSH0 DUP4 ADD MSTORE PUSH2 0x247A DUP2 PUSH2 0x2441 JUMP JUMPDEST SWAP1 POP SWAP2 SWAP1 POP JUMP JUMPDEST PUSH32 0x4E487B7100000000000000000000000000000000000000000000000000000000 PUSH0 MSTORE PUSH1 0x11 PUSH1 0x4 MSTORE PUSH1 0x24 PUSH0 REVERT JUMPDEST PUSH0 PUSH2 0x24B8 DUP3 PUSH2 0x1DE6 JUMP JUMPDEST SWAP2 POP PUSH2 0x24C3 DUP4 PUSH2 0x1DE6 JUMP JUMPDEST SWAP3 POP DUP3 DUP3 SUB SWAP1 POP DUP2 DUP2 GT ISZERO PUSH2 0x24DB JUMPI PUSH2 0x24DA PUSH2 0x2481 JUMP JUMPDEST JUMPDEST SWAP3 SWAP2 POP POP JUMP JUMPDEST PUSH32 0x4E487B7100000000000000000000000000000000000000000000000000000000 PUSH0 MSTORE PUSH1 0x32 PUSH1 0x4 MSTORE PUSH1 0x24 PUSH0 REVERT JUMPDEST PUSH32 0x596F7520416C7265616479204C696B6564207468652074776565742100000000 PUSH0 DUP3 ADD MSTORE POP JUMP JUMPDEST PUSH0 PUSH2 0x2542 PUSH1 0x1C DUP4 PUSH2 0x2409 JUMP JUMPDEST SWAP2 POP PUSH2 0x254D DUP3 PUSH2 0x250E JUMP JUMPDEST PUSH1 0x20 DUP3 ADD SWAP1 POP SWAP2 SWAP1 POP JUMP JUMPDEST PUSH0 PUSH1 0x20 DUP3 ADD SWAP1 POP DUP2 DUP2 SUB PUSH0 DUP4 ADD MSTORE PUSH2 0x256F DUP2 PUSH2 0x2536 JUMP JUMPDEST SWAP1 POP SWAP2 SWAP1 POP JUMP JUMPDEST PUSH32 0x596F7520416C726561647920556E4C696B656420746865207477656574210000 PUSH0 DUP3 ADD MSTORE POP JUMP JUMPDEST PUSH0 PUSH2 0x25AA PUSH1 0x1E DUP4 PUSH2 0x2409 JUMP JUMPDEST SWAP2 POP PUSH2 0x25B5 DUP3 PUSH2 0x2576 JUMP JUMPDEST PUSH1 0x20 DUP3 ADD SWAP1 POP SWAP2 SWAP1 POP JUMP JUMPDEST PUSH0 PUSH1 0x20 DUP3 ADD SWAP1 POP DUP2 DUP2 SUB PUSH0 DUP4 ADD MSTORE PUSH2 0x25D7 DUP2 PUSH2 0x259E JUMP JUMPDEST SWAP1 POP SWAP2 SWAP1 POP JUMP JUMPDEST PUSH32 0x5468697320697320596F757220547765657421596F752063616E6E2774204C69 PUSH0 DUP3 ADD MSTORE PUSH32 0x6B6520596F757220547765657421000000000000000000000000000000000000 PUSH1 0x20 DUP3 ADD MSTORE POP JUMP JUMPDEST PUSH0 PUSH2 0x2638 PUSH1 0x2E DUP4 PUSH2 0x2409 JUMP JUMPDEST SWAP2 POP PUSH2 0x2643 DUP3 PUSH2 0x25DE JUMP JUMPDEST PUSH1 0x40 DUP3 ADD SWAP1 POP SWAP2 SWAP1 POP JUMP JUMPDEST PUSH0 PUSH1 0x20 DUP3 ADD SWAP1 POP DUP2 DUP2 SUB PUSH0 DUP4 ADD MSTORE PUSH2 0x2665 DUP2 PUSH2 0x262C JUMP JUMPDEST SWAP1 POP SWAP2 SWAP1 POP JUMP JUMPDEST PUSH0 PUSH2 0x2676 DUP3 PUSH2 0x1DE6 JUMP JUMPDEST SWAP2 POP PUSH32 0xFFFFFFFFFFFFFFFFFFFFFFFFFFFFFFFFFFFFFFFFFFFFFFFFFFFFFFFFFFFFFFFF DUP3 SUB PUSH2 0x26A8 JUMPI PUSH2 0x26A7 PUSH2 0x2481 JUMP JUMPDEST JUMPDEST PUSH1 0x1 DUP3 ADD SWAP1 POP SWAP2 SWAP1 POP JUMP JUMPDEST PUSH2 0x26BC DUP2 PUSH2 0x1DAB JUMP JUMPDEST DUP3 MSTORE POP POP JUMP JUMPDEST PUSH0 PUSH1 0x80 DUP3 ADD SWAP1 POP PUSH2 0x26D5 PUSH0 DUP4 ADD DUP8 PUSH2 0x26B3 JUMP JUMPDEST PUSH2 0x26E2 PUSH1 0x20 DUP4 ADD DUP7 PUSH2 0x26B3 JUMP JUMPDEST PUSH2 0x26EF PUSH1 0x40 DUP4 ADD DUP6 PUSH2 0x23B6 JUMP JUMPDEST PUSH2 0x26FC PUSH1 0x60 DUP4 ADD DUP5 PUSH2 0x23B6 JUMP JUMPDEST SWAP6 SWAP5 POP POP POP POP POP JUMP JUMPDEST PUSH32 0x4E487B7100000000000000000000000000000000000000000000000000000000 PUSH0 MSTORE PUSH1 0x22 PUSH1 0x4 MSTORE PUSH1 0x24 PUSH0 REVERT JUMPDEST PUSH0 PUSH1 0x2 DUP3 DIV SWAP1 POP PUSH1 0x1 DUP3 AND DUP1 PUSH2 0x2749 JUMPI PUSH1 0x7F DUP3 AND SWAP2 POP JUMPDEST PUSH1 0x20 DUP3 LT DUP2 SUB PUSH2 0x275C JUMPI PUSH2 0x275B PUSH2 0x2705 JUMP JUMPDEST JUMPDEST POP SWAP2 SWAP1 POP JUMP JUMPDEST PUSH32 0x4E487B7100000000000000000000000000000000000000000000000000000000 PUSH0 MSTORE PUSH1 0x31 PUSH1 0x4 MSTORE PUSH1 0x24 PUSH0 REVERT JUMPDEST PUSH32 0x5477656574204C656E6774682069732045786365656421000000000000000000 PUSH0 DUP3 ADD MSTORE POP JUMP JUMPDEST PUSH0 PUSH2 0x27C3 PUSH1 0x17 DUP4 PUSH2 0x2409 JUMP JUMPDEST SWAP2 POP PUSH2 0x27CE DUP3 PUSH2 0x278F JUMP JUMPDEST PUSH1 0x20 DUP3 ADD SWAP1 POP SWAP2 SWAP1 POP JUMP JUMPDEST PUSH0 PUSH1 0x20 DUP3 ADD SWAP1 POP DUP2 DUP2 SUB PUSH0 DUP4 ADD MSTORE PUSH2 0x27F0 DUP2 PUSH2 0x27B7 JUMP JUMPDEST SWAP1 POP SWAP2 SWAP1 POP JUMP JUMPDEST PUSH0 PUSH2 0x2801 DUP3 PUSH2 0x1DE6 JUMP JUMPDEST SWAP2 POP PUSH2 0x280C DUP4 PUSH2 0x1DE6 JUMP JUMPDEST SWAP3 POP DUP3 DUP3 ADD SWAP1 POP DUP1 DUP3 GT ISZERO PUSH2 0x2824 JUMPI PUSH2 0x2823 PUSH2 0x2481 JUMP JUMPDEST JUMPDEST SWAP3 SWAP2 POP POP JUMP JUMPDEST PUSH0 DUP2 SWAP1 POP DUP2 PUSH0 MSTORE PUSH1 0x20 PUSH0 KECCAK256 SWAP1 POP SWAP2 SWAP1 POP JUMP JUMPDEST PUSH0 PUSH1 0x20 PUSH1 0x1F DUP4 ADD DIV SWAP1 POP SWAP2 SWAP1 POP JUMP JUMPDEST PUSH0 DUP3 DUP3 SHL SWAP1 POP SWAP3 SWAP2 POP POP JUMP JUMPDEST PUSH0 PUSH1 0x8 DUP4 MUL PUSH2 0x2886 PUSH32 0xFFFFFFFFFFFFFFFFFFFFFFFFFFFFFFFFFFFFFFFFFFFFFFFFFFFFFFFFFFFFFFFF DUP3 PUSH2 0x284B JUMP JUMPDEST PUSH2 0x2890 DUP7 DUP4 PUSH2 0x284B JUMP JUMPDEST SWAP6 POP DUP1 NOT DUP5 AND SWAP4 POP DUP1 DUP7 AND DUP5 OR SWAP3 POP POP POP SWAP4 SWAP3 POP POP POP JUMP JUMPDEST PUSH0 DUP2 SWAP1 POP SWAP2 SWAP1 POP JUMP JUMPDEST PUSH0 PUSH2 0x28CB PUSH2 0x28C6 PUSH2 0x28C1 DUP5 PUSH2 0x1DE6 JUMP JUMPDEST PUSH2 0x28A8 JUMP JUMPDEST PUSH2 0x1DE6 JUMP JUMPDEST SWAP1 POP SWAP2 SWAP1 POP JUMP JUMPDEST PUSH0 DUP2 SWAP1 POP SWAP2 SWAP1 POP JUMP JUMPDEST PUSH2 0x28E4 DUP4 PUSH2 0x28B1 JUMP JUMPDEST PUSH2 0x28F8 PUSH2 0x28F0 DUP3 PUSH2 0x28D2 JUMP JUMPDEST DUP5 DUP5 SLOAD PUSH2 0x2857 JUMP JUMPDEST DUP3 SSTORE POP POP POP POP JUMP JUMPDEST PUSH0 SWAP1 JUMP JUMPDEST PUSH2 0x290C PUSH2 0x2900 JUMP JUMPDEST PUSH2 0x2917 DUP2 DUP5 DUP5 PUSH2 0x28DB JUMP JUMPDEST POP POP POP JUMP JUMPDEST JUMPDEST DUP2 DUP2 LT ISZERO PUSH2 0x293A JUMPI PUSH2 0x292F PUSH0 DUP3 PUSH2 0x2904 JUMP JUMPDEST PUSH1 0x1 DUP2 ADD SWAP1 POP PUSH2 0x291D JUMP JUMPDEST POP POP JUMP JUMPDEST PUSH1 0x1F DUP3 GT ISZERO PUSH2 0x297F JUMPI PUSH2 0x2950 DUP2 PUSH2 0x282A JUMP JUMPDEST PUSH2 0x2959 DUP5 PUSH2 0x283C JUMP JUMPDEST DUP2 ADD PUSH1 0x20 DUP6 LT ISZERO PUSH2 0x2968 JUMPI DUP2 SWAP1 POP JUMPDEST PUSH2 0x297C PUSH2 0x2974 DUP6 PUSH2 0x283C JUMP JUMPDEST DUP4 ADD DUP3 PUSH2 0x291C JUMP JUMPDEST POP POP JUMPDEST POP POP POP JUMP JUMPDEST PUSH0 DUP3 DUP3 SHR SWAP1 POP SWAP3 SWAP2 POP POP JUMP JUMPDEST PUSH0 PUSH2 0x299F PUSH0 NOT DUP5 PUSH1 0x8 MUL PUSH2 0x2984 JUMP JUMPDEST NOT DUP1 DUP4 AND SWAP2 POP POP SWAP3 SWAP2 POP POP JUMP JUMPDEST PUSH0 PUSH2 0x29B7 DUP4 DUP4 PUSH2 0x2990 JUMP JUMPDEST SWAP2 POP DUP3 PUSH1 0x2 MUL DUP3 OR SWAP1 POP SWAP3 SWAP2 POP POP JUMP JUMPDEST PUSH2 0x29D0 DUP3 PUSH2 0x1E66 JUMP JUMPDEST PUSH8 0xFFFFFFFFFFFFFFFF DUP2 GT ISZERO PUSH2 0x29E9 JUMPI PUSH2 0x29E8 PUSH2 0x2220 JUMP JUMPDEST JUMPDEST PUSH2 0x29F3 DUP3 SLOAD PUSH2 0x2732 JUMP JUMPDEST PUSH2 0x29FE DUP3 DUP3 DUP6 PUSH2 0x293E JUMP JUMPDEST PUSH0 PUSH1 0x20 SWAP1 POP PUSH1 0x1F DUP4 GT PUSH1 0x1 DUP2 EQ PUSH2 0x2A2F JUMPI PUSH0 DUP5 ISZERO PUSH2 0x2A1D JUMPI DUP3 DUP8 ADD MLOAD SWAP1 POP JUMPDEST PUSH2 0x2A27 DUP6 DUP3 PUSH2 0x29AC JUMP JUMPDEST DUP7 SSTORE POP PUSH2 0x2A8E JUMP JUMPDEST PUSH1 0x1F NOT DUP5 AND PUSH2 0x2A3D DUP7 PUSH2 0x282A JUMP JUMPDEST PUSH0 JUMPDEST DUP3 DUP2 LT ISZERO PUSH2 0x2A64 JUMPI DUP5 DUP10 ADD MLOAD DUP3 SSTORE PUSH1 0x1 DUP3 ADD SWAP2 POP PUSH1 0x20 DUP6 ADD SWAP5 POP PUSH1 0x20 DUP2 ADD SWAP1 POP PUSH2 0x2A3F JUMP JUMPDEST DUP7 DUP4 LT ISZERO PUSH2 0x2A81 JUMPI DUP5 DUP10 ADD MLOAD PUSH2 0x2A7D PUSH1 0x1F DUP10 AND DUP3 PUSH2 0x2990 JUMP JUMPDEST DUP4 SSTORE POP JUMPDEST PUSH1 0x1 PUSH1 0x2 DUP9 MUL ADD DUP9 SSTORE POP POP POP JUMPDEST POP POP POP POP POP POP JUMP JUMPDEST PUSH0 PUSH2 0x2AA0 DUP3 PUSH2 0x1E66 JUMP JUMPDEST PUSH2 0x2AAA DUP2 DUP6 PUSH2 0x2409 JUMP JUMPDEST SWAP4 POP PUSH2 0x2ABA DUP2 DUP6 PUSH1 0x20 DUP7 ADD PUSH2 0x1E80 JUMP JUMPDEST PUSH2 0x2AC3 DUP2 PUSH2 0x1EA8 JUMP JUMPDEST DUP5 ADD SWAP2 POP POP SWAP3 SWAP2 POP POP JUMP JUMPDEST PUSH0 PUSH1 0x80 DUP3 ADD SWAP1 POP PUSH2 0x2AE1 PUSH0 DUP4 ADD DUP8 PUSH2 0x23B6 JUMP JUMPDEST PUSH2 0x2AEE PUSH1 0x20 DUP4 ADD DUP7 PUSH2 0x26B3 JUMP JUMPDEST DUP2 DUP2 SUB PUSH1 0x40 DUP4 ADD MSTORE PUSH2 0x2B00 DUP2 DUP6 PUSH2 0x2A96 JUMP JUMPDEST SWAP1 POP PUSH2 0x2B0F PUSH1 0x60 DUP4 ADD DUP5 PUSH2 0x23B6 JUMP JUMPDEST SWAP6 SWAP5 POP POP POP POP POP JUMP JUMPDEST PUSH32 0x596F7520617265206E6F742061204F776E6572215065726D697373696F6E2044 PUSH0 DUP3 ADD MSTORE PUSH32 0x656E696564210000000000000000000000000000000000000000000000000000 PUSH1 0x20 DUP3 ADD MSTORE POP JUMP JUMPDEST PUSH0 PUSH2 0x2B72 PUSH1 0x26 DUP4 PUSH2 0x2409 JUMP JUMPDEST SWAP2 POP PUSH2 0x2B7D DUP3 PUSH2 0x2B18 JUMP JUMPDEST PUSH1 0x40 DUP3 ADD SWAP1 POP SWAP2 SWAP1 POP JUMP JUMPDEST PUSH0 PUSH1 0x20 DUP3 ADD SWAP1 POP DUP2 DUP2 SUB PUSH0 DUP4 ADD MSTORE PUSH2 0x2B9F DUP2 PUSH2 0x2B66 JUMP JUMPDEST SWAP1 POP SWAP2 SWAP1 POP JUMP INVALID LOG2 PUSH5 0x6970667358 0x22 SLT KECCAK256 0xE6 SWAP9 GASLIMIT PUSH2 0xACE4 CALL LOG0 0x2D 0xD7 EXTCODESIZE PUSH27 0xC52EDD47D717979519CB69D8E489155D0DA2EDC164736F6C634300 ADDMOD OR STOP CALLER "
				},
				"gasEstimates": {
					"creation": {
						"codeDepositCost": "2245600",
						"executionCost": "48766",
						"totalCost": "2294366"
					},
					"external": {
						"ChangeTweetLength(uint256)": "24769",
						"DeleteAllTweets()": "infinite",
						"DeleteRecentTweet()": "infinite",
						"GetAllTweets()": "infinite",
						"GetTweet(address,uint256)": "infinite",
						"LikesTweet(address,uint256)": "infinite",
						"UnlikeTweet(address,uint256)": "infinite",
						"createTweet(string)": "infinite",
						"getTotalLikes(address)": "infinite",
						"getTotalUnLikes(address)": "infinite"
					}
				},
				"methodIdentifiers": {
					"ChangeTweetLength(uint256)": "e479c244",
					"DeleteAllTweets()": "765fab45",
					"DeleteRecentTweet()": "71e7eb12",
					"GetAllTweets()": "42d7fbc0",
					"GetTweet(address,uint256)": "37f36a4c",
					"LikesTweet(address,uint256)": "1216cdc5",
					"UnlikeTweet(address,uint256)": "a110e72d",
					"createTweet(string)": "7c9cd2bc",
					"getTotalLikes(address)": "820785cc",
					"getTotalUnLikes(address)": "a6156d77"
				}
			},
			"storageLayout": {
				"storage": [
					{
						"astId": 3,
						"contract": "contracts/Twitter0.7v.sol:Twitter",
						"label": "owner",
						"offset": 0,
						"slot": "0",
						"type": "t_address"
					},
					{
						"astId": 54,
						"contract": "contracts/Twitter0.7v.sol:Twitter",
						"label": "TweetLength",
						"offset": 0,
						"slot": "1",
						"type": "t_uint256"
					},
					{
						"astId": 81,
						"contract": "contracts/Twitter0.7v.sol:Twitter",
						"label": "li",
						"offset": 0,
						"slot": "2",
						"type": "t_array(t_address)dyn_storage"
					},
					{
						"astId": 87,
						"contract": "contracts/Twitter0.7v.sol:Twitter",
						"label": "Tweet_info",
						"offset": 0,
						"slot": "3",
						"type": "t_mapping(t_address,t_array(t_struct(Tweet)22_storage)dyn_storage)"
					}
				],
				"types": {
					"t_address": {
						"encoding": "inplace",
						"label": "address",
						"numberOfBytes": "20"
					},
					"t_array(t_address)dyn_storage": {
						"base": "t_address",
						"encoding": "dynamic_array",
						"label": "address[]",
						"numberOfBytes": "32"
					},
					"t_array(t_struct(Tweet)22_storage)dyn_storage": {
						"base": "t_struct(Tweet)22_storage",
						"encoding": "dynamic_array",
						"label": "struct Twitter.Tweet[]",
						"numberOfBytes": "32"
					},
					"t_mapping(t_address,t_array(t_struct(Tweet)22_storage)dyn_storage)": {
						"encoding": "mapping",
						"key": "t_address",
						"label": "mapping(address => struct Twitter.Tweet[])",
						"numberOfBytes": "32",
						"value": "t_array(t_struct(Tweet)22_storage)dyn_storage"
					},
					"t_string_storage": {
						"encoding": "bytes",
						"label": "string",
						"numberOfBytes": "32"
					},
					"t_struct(Tweet)22_storage": {
						"encoding": "inplace",
						"label": "struct Twitter.Tweet",
						"members": [
							{
								"astId": 5,
								"contract": "contracts/Twitter0.7v.sol:Twitter",
								"label": "id",
								"offset": 0,
								"slot": "0",
								"type": "t_uint256"
							},
							{
								"astId": 7,
								"contract": "contracts/Twitter0.7v.sol:Twitter",
								"label": "content",
								"offset": 0,
								"slot": "1",
								"type": "t_string_storage"
							},
							{
								"astId": 9,
								"contract": "contracts/Twitter0.7v.sol:Twitter",
								"label": "author",
								"offset": 0,
								"slot": "2",
								"type": "t_address"
							},
							{
								"astId": 11,
								"contract": "contracts/Twitter0.7v.sol:Twitter",
								"label": "timestamp",
								"offset": 0,
								"slot": "3",
								"type": "t_uint256"
							},
							{
								"astId": 14,
								"contract": "contracts/Twitter0.7v.sol:Twitter",
								"label": "likes",
								"offset": 0,
								"slot": "4",
								"type": "t_array(t_address)dyn_storage"
							},
							{
								"astId": 16,
								"contract": "contracts/Twitter0.7v.sol:Twitter",
								"label": "LikesCount",
								"offset": 0,
								"slot": "5",
								"type": "t_uint256"
							},
							{
								"astId": 18,
								"contract": "contracts/Twitter0.7v.sol:Twitter",
								"label": "unlikescount",
								"offset": 0,
								"slot": "6",
								"type": "t_uint256"
							},
							{
								"astId": 21,
								"contract": "contracts/Twitter0.7v.sol:Twitter",
								"label": "unlikes",
								"offset": 0,
								"slot": "7",
								"type": "t_array(t_address)dyn_storage"
							}
						],
						"numberOfBytes": "256"
					},
					"t_uint256": {
						"encoding": "inplace",
						"label": "uint256",
						"numberOfBytes": "32"
					}
				}
			},
			"userdoc": {
				"kind": "user",
				"methods": {},
				"version": 1
			}
		}
	}
}