{
	"contracts/TwitterDapp.sol": {
		"Twitter": {
			"abi": [
				{
					"inputs": [],
					"stateMutability": "nonpayable",
					"type": "constructor"
				},
				{
					"anonymous": false,
					"inputs": [
						{
							"indexed": false,
							"internalType": "uint256",
							"name": "id",
							"type": "uint256"
						},
						{
							"indexed": false,
							"internalType": "address",
							"name": "author",
							"type": "address"
						},
						{
							"indexed": false,
							"internalType": "string",
							"name": "content",
							"type": "string"
						},
						{
							"indexed": false,
							"internalType": "uint256",
							"name": "timestamp",
							"type": "uint256"
						}
					],
					"name": "TweetCreated",
					"type": "event"
				},
				{
					"anonymous": false,
					"inputs": [
						{
							"indexed": false,
							"internalType": "address",
							"name": "liker",
							"type": "address"
						},
						{
							"indexed": false,
							"internalType": "address",
							"name": "tweetAuthor",
							"type": "address"
						},
						{
							"indexed": false,
							"internalType": "uint256",
							"name": "tweetId",
							"type": "uint256"
						},
						{
							"indexed": false,
							"internalType": "uint256",
							"name": "newLikeCount",
							"type": "uint256"
						}
					],
					"name": "TweetLiked",
					"type": "event"
				},
				{
					"anonymous": false,
					"inputs": [
						{
							"indexed": false,
							"internalType": "address",
							"name": "unliker",
							"type": "address"
						},
						{
							"indexed": false,
							"internalType": "address",
							"name": "tweetAuthor",
							"type": "address"
						},
						{
							"indexed": false,
							"internalType": "uint256",
							"name": "tweetId",
							"type": "uint256"
						},
						{
							"indexed": false,
							"internalType": "uint256",
							"name": "newLikeCount",
							"type": "uint256"
						}
					],
					"name": "TweetUnliked",
					"type": "event"
				},
				{
					"inputs": [],
					"name": "MAX_TWEET_LENGTH",
					"outputs": [
						{
							"internalType": "uint16",
							"name": "",
							"type": "uint16"
						}
					],
					"stateMutability": "view",
					"type": "function"
				},
				{
					"inputs": [
						{
							"internalType": "uint16",
							"name": "newTweetLength",
							"type": "uint16"
						}
					],
					"name": "changeTweetLength",
					"outputs": [],
					"stateMutability": "nonpayable",
					"type": "function"
				},
				{
					"inputs": [
						{
							"internalType": "string",
							"name": "_tweet",
							"type": "string"
						}
					],
					"name": "createTweet",
					"outputs": [],
					"stateMutability": "nonpayable",
					"type": "function"
				},
				{
					"inputs": [
						{
							"internalType": "address",
							"name": "_owner",
							"type": "address"
						}
					],
					"name": "getAllTweets",
					"outputs": [
						{
							"components": [
								{
									"internalType": "uint256",
									"name": "id",
									"type": "uint256"
								},
								{
									"internalType": "address",
									"name": "author",
									"type": "address"
								},
								{
									"internalType": "string",
									"name": "content",
									"type": "string"
								},
								{
									"internalType": "uint256",
									"name": "timestamp",
									"type": "uint256"
								},
								{
									"internalType": "uint256",
									"name": "likes",
									"type": "uint256"
								}
							],
							"internalType": "struct Twitter.Tweet[]",
							"name": "",
							"type": "tuple[]"
						}
					],
					"stateMutability": "view",
					"type": "function"
				},
				{
					"inputs": [
						{
							"internalType": "uint256",
							"name": "_i",
							"type": "uint256"
						}
					],
					"name": "getTweet",
					"outputs": [
						{
							"components": [
								{
									"internalType": "uint256",
									"name": "id",
									"type": "uint256"
								},
								{
									"internalType": "address",
									"name": "author",
									"type": "address"
								},
								{
									"internalType": "string",
									"name": "content",
									"type": "string"
								},
								{
									"internalType": "uint256",
									"name": "timestamp",
									"type": "uint256"
								},
								{
									"internalType": "uint256",
									"name": "likes",
									"type": "uint256"
								}
							],
							"internalType": "struct Twitter.Tweet",
							"name": "",
							"type": "tuple"
						}
					],
					"stateMutability": "view",
					"type": "function"
				},
				{
					"inputs": [
						{
							"internalType": "address",
							"name": "author",
							"type": "address"
						},
						{
							"internalType": "uint256",
							"name": "id",
							"type": "uint256"
						}
					],
					"name": "likeTweet",
					"outputs": [],
					"stateMutability": "nonpayable",
					"type": "function"
				},
				{
					"inputs": [],
					"name": "owner",
					"outputs": [
						{
							"internalType": "address",
							"name": "",
							"type": "address"
						}
					],
					"stateMutability": "view",
					"type": "function"
				},
				{
					"inputs": [
						{
							"internalType": "address",
							"name": "",
							"type": "address"
						},
						{
							"internalType": "uint256",
							"name": "",
							"type": "uint256"
						}
					],
					"name": "tweets",
					"outputs": [
						{
							"internalType": "uint256",
							"name": "id",
							"type": "uint256"
						},
						{
							"internalType": "address",
							"name": "author",
							"type": "address"
						},
						{
							"internalType": "string",
							"name": "content",
							"type": "string"
						},
						{
							"internalType": "uint256",
							"name": "timestamp",
							"type": "uint256"
						},
						{
							"internalType": "uint256",
							"name": "likes",
							"type": "uint256"
						}
					],
					"stateMutability": "view",
					"type": "function"
				},
				{
					"inputs": [
						{
							"internalType": "address",
							"name": "author",
							"type": "address"
						},
						{
							"internalType": "uint256",
							"name": "id",
							"type": "uint256"
						}
					],
					"name": "unlikeTweet",
					"outputs": [],
					"stateMutability": "nonpayable",
					"type": "function"
				}
			],
			"devdoc": {
				"kind": "dev",
				"methods": {},
				"version": 1
			},
			"evm": {
				"assembly": "    /* \"contracts/TwitterDapp.sol\":61:2421  contract Twitter {... */\n  mstore(0x40, 0x80)\n    /* \"contracts/TwitterDapp.sol\":120:123  280 */\n  0x0118\n    /* \"contracts/TwitterDapp.sol\":87:123  uint16 public MAX_TWEET_LENGTH = 280 */\n  0x00\n  dup1\n  0x0100\n  exp\n  dup2\n  sload\n  dup2\n  0xffff\n  mul\n  not\n  and\n  swap1\n  dup4\n  0xffff\n  and\n  mul\n  or\n  swap1\n  sstore\n  pop\n    /* \"contracts/TwitterDapp.sol\":676:727  constructor() {... */\n  callvalue\n  dup1\n  iszero\n  tag_1\n  jumpi\n  0x00\n  dup1\n  revert\ntag_1:\n  pop\n    /* \"contracts/TwitterDapp.sol\":709:719  msg.sender */\n  caller\n    /* \"contracts/TwitterDapp.sol\":701:706  owner */\n  0x02\n  0x00\n    /* \"contracts/TwitterDapp.sol\":701:719  owner = msg.sender */\n  0x0100\n  exp\n  dup2\n  sload\n  dup2\n  0xffffffffffffffffffffffffffffffffffffffff\n  mul\n  not\n  and\n  swap1\n  dup4\n  0xffffffffffffffffffffffffffffffffffffffff\n  and\n  mul\n  or\n  swap1\n  sstore\n  pop\n    /* \"contracts/TwitterDapp.sol\":61:2421  contract Twitter {... */\n  dataSize(sub_0)\n  dup1\n  dataOffset(sub_0)\n  0x00\n  codecopy\n  0x00\n  return\nstop\n\nsub_0: assembly {\n        /* \"contracts/TwitterDapp.sol\":61:2421  contract Twitter {... */\n      mstore(0x40, 0x80)\n      callvalue\n      dup1\n      iszero\n      tag_1\n      jumpi\n      0x00\n      dup1\n      revert\n    tag_1:\n      pop\n      jumpi(tag_2, lt(calldatasize, 0x04))\n      shr(0xe0, calldataload(0x00))\n      dup1\n      0x63378216\n      gt\n      tag_12\n      jumpi\n      dup1\n      0x63378216\n      eq\n      tag_7\n      jumpi\n      dup1\n      0x6eb10797\n      eq\n      tag_8\n      jumpi\n      dup1\n      0x7c9cd2bc\n      eq\n      tag_9\n      jumpi\n      dup1\n      0x8da5cb5b\n      eq\n      tag_10\n      jumpi\n      dup1\n      0xc3ad5ecb\n      eq\n      tag_11\n      jumpi\n      jump(tag_2)\n    tag_12:\n      dup1\n      0x05a1b4a9\n      eq\n      tag_3\n      jumpi\n      dup1\n      0x12e7ee1c\n      eq\n      tag_4\n      jumpi\n      dup1\n      0x3d9b569f\n      eq\n      tag_5\n      jumpi\n      dup1\n      0x58bfa4ab\n      eq\n      tag_6\n      jumpi\n    tag_2:\n      0x00\n      dup1\n      revert\n        /* \"contracts/TwitterDapp.sol\":282:324  mapping(address => Tweet[] ) public tweets */\n    tag_3:\n      tag_13\n      0x04\n      dup1\n      calldatasize\n      sub\n      dup2\n      add\n      swap1\n      tag_14\n      swap2\n      swap1\n      tag_15\n      jump\t// in\n    tag_14:\n      tag_16\n      jump\t// in\n    tag_13:\n      mload(0x40)\n      tag_17\n      swap6\n      swap5\n      swap4\n      swap3\n      swap2\n      swap1\n      tag_18\n      jump\t// in\n    tag_17:\n      mload(0x40)\n      dup1\n      swap2\n      sub\n      swap1\n      return\n        /* \"contracts/TwitterDapp.sol\":2301:2416  function getAllTweets(address _owner) public view returns (Tweet[] memory ){... */\n    tag_4:\n      tag_19\n      0x04\n      dup1\n      calldatasize\n      sub\n      dup2\n      add\n      swap1\n      tag_20\n      swap2\n      swap1\n      tag_21\n      jump\t// in\n    tag_20:\n      tag_22\n      jump\t// in\n    tag_19:\n      mload(0x40)\n      tag_23\n      swap2\n      swap1\n      tag_24\n      jump\t// in\n    tag_23:\n      mload(0x40)\n      dup1\n      swap2\n      sub\n      swap1\n      return\n        /* \"contracts/TwitterDapp.sol\":1839:2174  function unlikeTweet(address author, uint256 id) external {... */\n    tag_5:\n      tag_25\n      0x04\n      dup1\n      calldatasize\n      sub\n      dup2\n      add\n      swap1\n      tag_26\n      swap2\n      swap1\n      tag_15\n      jump\t// in\n    tag_26:\n      tag_27\n      jump\t// in\n    tag_25:\n      stop\n        /* \"contracts/TwitterDapp.sol\":849:968  function changeTweetLength(uint16 newTweetLength) public onlyOwner {... */\n    tag_6:\n      tag_28\n      0x04\n      dup1\n      calldatasize\n      sub\n      dup2\n      add\n      swap1\n      tag_29\n      swap2\n      swap1\n      tag_30\n      jump\t// in\n    tag_29:\n      tag_31\n      jump\t// in\n    tag_28:\n      stop\n        /* \"contracts/TwitterDapp.sol\":1539:1831  function likeTweet(address author, uint256 id) external {  ... */\n    tag_7:\n      tag_32\n      0x04\n      dup1\n      calldatasize\n      sub\n      dup2\n      add\n      swap1\n      tag_33\n      swap2\n      swap1\n      tag_15\n      jump\t// in\n    tag_33:\n      tag_34\n      jump\t// in\n    tag_32:\n      stop\n        /* \"contracts/TwitterDapp.sol\":87:123  uint16 public MAX_TWEET_LENGTH = 280 */\n    tag_8:\n      tag_35\n      tag_36\n      jump\t// in\n    tag_35:\n      mload(0x40)\n      tag_37\n      swap2\n      swap1\n      tag_38\n      jump\t// in\n    tag_37:\n      mload(0x40)\n      dup1\n      swap2\n      sub\n      swap1\n      return\n        /* \"contracts/TwitterDapp.sol\":976:1531  function createTweet(string memory _tweet) public {... */\n    tag_9:\n      tag_39\n      0x04\n      dup1\n      calldatasize\n      sub\n      dup2\n      add\n      swap1\n      tag_40\n      swap2\n      swap1\n      tag_41\n      jump\t// in\n    tag_40:\n      tag_42\n      jump\t// in\n    tag_39:\n      stop\n        /* \"contracts/TwitterDapp.sol\":331:351  address public owner */\n    tag_10:\n      tag_43\n      tag_44\n      jump\t// in\n    tag_43:\n      mload(0x40)\n      tag_45\n      swap2\n      swap1\n      tag_46\n      jump\t// in\n    tag_45:\n      mload(0x40)\n      dup1\n      swap2\n      sub\n      swap1\n      return\n        /* \"contracts/TwitterDapp.sol\":2182:2293  function getTweet( uint _i) public view returns (Tweet memory) {... */\n    tag_11:\n      tag_47\n      0x04\n      dup1\n      calldatasize\n      sub\n      dup2\n      add\n      swap1\n      tag_48\n      swap2\n      swap1\n      tag_49\n      jump\t// in\n    tag_48:\n      tag_50\n      jump\t// in\n    tag_47:\n      mload(0x40)\n      tag_51\n      swap2\n      swap1\n      tag_52\n      jump\t// in\n    tag_51:\n      mload(0x40)\n      dup1\n      swap2\n      sub\n      swap1\n      return\n        /* \"contracts/TwitterDapp.sol\":282:324  mapping(address => Tweet[] ) public tweets */\n    tag_16:\n      mstore(0x20, 0x01)\n      dup2\n      0x00\n      mstore\n      keccak256(0x00, 0x40)\n      dup2\n      dup2\n      sload\n      dup2\n      lt\n      tag_53\n      jumpi\n      0x00\n      dup1\n      revert\n    tag_53:\n      swap1\n      0x00\n      mstore\n      keccak256(0x00, 0x20)\n      swap1\n      0x05\n      mul\n      add\n      0x00\n      swap2\n      pop\n      swap2\n      pop\n      pop\n      dup1\n      0x00\n      add\n      sload\n      swap1\n      dup1\n      0x01\n      add\n      0x00\n      swap1\n      sload\n      swap1\n      0x0100\n      exp\n      swap1\n      div\n      0xffffffffffffffffffffffffffffffffffffffff\n      and\n      swap1\n      dup1\n      0x02\n      add\n      dup1\n      sload\n      tag_55\n      swap1\n      tag_56\n      jump\t// in\n    tag_55:\n      dup1\n      0x1f\n      add\n      0x20\n      dup1\n      swap2\n      div\n      mul\n      0x20\n      add\n      mload(0x40)\n      swap1\n      dup2\n      add\n      0x40\n      mstore\n      dup1\n      swap3\n      swap2\n      swap1\n      dup2\n      dup2\n      mstore\n      0x20\n      add\n      dup3\n      dup1\n      sload\n      tag_57\n      swap1\n      tag_56\n      jump\t// in\n    tag_57:\n      dup1\n      iszero\n      tag_58\n      jumpi\n      dup1\n      0x1f\n      lt\n      tag_59\n      jumpi\n      0x0100\n      dup1\n      dup4\n      sload\n      div\n      mul\n      dup4\n      mstore\n      swap2\n      0x20\n      add\n      swap2\n      jump(tag_58)\n    tag_59:\n      dup3\n      add\n      swap2\n      swap1\n      0x00\n      mstore\n      keccak256(0x00, 0x20)\n      swap1\n    tag_60:\n      dup2\n      sload\n      dup2\n      mstore\n      swap1\n      0x01\n      add\n      swap1\n      0x20\n      add\n      dup1\n      dup4\n      gt\n      tag_60\n      jumpi\n      dup3\n      swap1\n      sub\n      0x1f\n      and\n      dup3\n      add\n      swap2\n    tag_58:\n      pop\n      pop\n      pop\n      pop\n      pop\n      swap1\n      dup1\n      0x03\n      add\n      sload\n      swap1\n      dup1\n      0x04\n      add\n      sload\n      swap1\n      pop\n      dup6\n      jump\t// out\n        /* \"contracts/TwitterDapp.sol\":2301:2416  function getAllTweets(address _owner) public view returns (Tweet[] memory ){... */\n    tag_22:\n        /* \"contracts/TwitterDapp.sol\":2360:2374  Tweet[] memory */\n      0x60\n        /* \"contracts/TwitterDapp.sol\":2394:2400  tweets */\n      0x01\n        /* \"contracts/TwitterDapp.sol\":2394:2408  tweets[_owner] */\n      0x00\n        /* \"contracts/TwitterDapp.sol\":2401:2407  _owner */\n      dup4\n        /* \"contracts/TwitterDapp.sol\":2394:2408  tweets[_owner] */\n      0xffffffffffffffffffffffffffffffffffffffff\n      and\n      0xffffffffffffffffffffffffffffffffffffffff\n      and\n      dup2\n      mstore\n      0x20\n      add\n      swap1\n      dup2\n      mstore\n      0x20\n      add\n      0x00\n      keccak256\n        /* \"contracts/TwitterDapp.sol\":2387:2408  return tweets[_owner] */\n      dup1\n      sload\n      dup1\n      0x20\n      mul\n      0x20\n      add\n      mload(0x40)\n      swap1\n      dup2\n      add\n      0x40\n      mstore\n      dup1\n      swap3\n      swap2\n      swap1\n      dup2\n      dup2\n      mstore\n      0x20\n      add\n      0x00\n      swap1\n    tag_62:\n      dup3\n      dup3\n      lt\n      iszero\n      tag_63\n      jumpi\n      dup4\n      dup3\n      swap1\n      0x00\n      mstore\n      keccak256(0x00, 0x20)\n      swap1\n      0x05\n      mul\n      add\n      mload(0x40)\n      dup1\n      0xa0\n      add\n      0x40\n      mstore\n      swap1\n      dup2\n      0x00\n      dup3\n      add\n      sload\n      dup2\n      mstore\n      0x20\n      add\n      0x01\n      dup3\n      add\n      0x00\n      swap1\n      sload\n      swap1\n      0x0100\n      exp\n      swap1\n      div\n      0xffffffffffffffffffffffffffffffffffffffff\n      and\n      0xffffffffffffffffffffffffffffffffffffffff\n      and\n      0xffffffffffffffffffffffffffffffffffffffff\n      and\n      dup2\n      mstore\n      0x20\n      add\n      0x02\n      dup3\n      add\n      dup1\n      sload\n      tag_65\n      swap1\n      tag_56\n      jump\t// in\n    tag_65:\n      dup1\n      0x1f\n      add\n      0x20\n      dup1\n      swap2\n      div\n      mul\n      0x20\n      add\n      mload(0x40)\n      swap1\n      dup2\n      add\n      0x40\n      mstore\n      dup1\n      swap3\n      swap2\n      swap1\n      dup2\n      dup2\n      mstore\n      0x20\n      add\n      dup3\n      dup1\n      sload\n      tag_66\n      swap1\n      tag_56\n      jump\t// in\n    tag_66:\n      dup1\n      iszero\n      tag_67\n      jumpi\n      dup1\n      0x1f\n      lt\n      tag_68\n      jumpi\n      0x0100\n      dup1\n      dup4\n      sload\n      div\n      mul\n      dup4\n      mstore\n      swap2\n      0x20\n      add\n      swap2\n      jump(tag_67)\n    tag_68:\n      dup3\n      add\n      swap2\n      swap1\n      0x00\n      mstore\n      keccak256(0x00, 0x20)\n      swap1\n    tag_69:\n      dup2\n      sload\n      dup2\n      mstore\n      swap1\n      0x01\n      add\n      swap1\n      0x20\n      add\n      dup1\n      dup4\n      gt\n      tag_69\n      jumpi\n      dup3\n      swap1\n      sub\n      0x1f\n      and\n      dup3\n      add\n      swap2\n    tag_67:\n      pop\n      pop\n      pop\n      pop\n      pop\n      dup2\n      mstore\n      0x20\n      add\n      0x03\n      dup3\n      add\n      sload\n      dup2\n      mstore\n      0x20\n      add\n      0x04\n      dup3\n      add\n      sload\n      dup2\n      mstore\n      pop\n      pop\n      dup2\n      mstore\n      0x20\n      add\n      swap1\n      0x01\n      add\n      swap1\n      jump(tag_62)\n    tag_63:\n      pop\n      pop\n      pop\n      pop\n      swap1\n      pop\n        /* \"contracts/TwitterDapp.sol\":2301:2416  function getAllTweets(address _owner) public view returns (Tweet[] memory ){... */\n      swap2\n      swap1\n      pop\n      jump\t// out\n        /* \"contracts/TwitterDapp.sol\":1839:2174  function unlikeTweet(address author, uint256 id) external {... */\n    tag_27:\n        /* \"contracts/TwitterDapp.sol\":1941:1943  id */\n      dup1\n        /* \"contracts/TwitterDapp.sol\":1916:1922  tweets */\n      0x01\n        /* \"contracts/TwitterDapp.sol\":1916:1930  tweets[author] */\n      0x00\n        /* \"contracts/TwitterDapp.sol\":1923:1929  author */\n      dup5\n        /* \"contracts/TwitterDapp.sol\":1916:1930  tweets[author] */\n      0xffffffffffffffffffffffffffffffffffffffff\n      and\n      0xffffffffffffffffffffffffffffffffffffffff\n      and\n      dup2\n      mstore\n      0x20\n      add\n      swap1\n      dup2\n      mstore\n      0x20\n      add\n      0x00\n      keccak256\n        /* \"contracts/TwitterDapp.sol\":1931:1933  id */\n      dup3\n        /* \"contracts/TwitterDapp.sol\":1916:1934  tweets[author][id] */\n      dup2\n      sload\n      dup2\n      lt\n      tag_71\n      jumpi\n      tag_72\n      tag_73\n      jump\t// in\n    tag_72:\n    tag_71:\n      swap1\n      0x00\n      mstore\n      keccak256(0x00, 0x20)\n      swap1\n      0x05\n      mul\n      add\n        /* \"contracts/TwitterDapp.sol\":1916:1937  tweets[author][id].id */\n      0x00\n      add\n      sload\n        /* \"contracts/TwitterDapp.sol\":1916:1943  tweets[author][id].id == id */\n      eq\n        /* \"contracts/TwitterDapp.sol\":1908:1968  require(tweets[author][id].id == id, \"TWEET DOES NOT EXIST\") */\n      tag_75\n      jumpi\n      mload(0x40)\n      0x08c379a000000000000000000000000000000000000000000000000000000000\n      dup2\n      mstore\n      0x04\n      add\n      tag_76\n      swap1\n      tag_77\n      jump\t// in\n    tag_76:\n      mload(0x40)\n      dup1\n      swap2\n      sub\n      swap1\n      revert\n    tag_75:\n        /* \"contracts/TwitterDapp.sol\":2014:2015  0 */\n      0x00\n        /* \"contracts/TwitterDapp.sol\":1987:1993  tweets */\n      0x01\n        /* \"contracts/TwitterDapp.sol\":1987:2001  tweets[author] */\n      0x00\n        /* \"contracts/TwitterDapp.sol\":1994:2000  author */\n      dup5\n        /* \"contracts/TwitterDapp.sol\":1987:2001  tweets[author] */\n      0xffffffffffffffffffffffffffffffffffffffff\n      and\n      0xffffffffffffffffffffffffffffffffffffffff\n      and\n      dup2\n      mstore\n      0x20\n      add\n      swap1\n      dup2\n      mstore\n      0x20\n      add\n      0x00\n      keccak256\n        /* \"contracts/TwitterDapp.sol\":2002:2004  id */\n      dup3\n        /* \"contracts/TwitterDapp.sol\":1987:2005  tweets[author][id] */\n      dup2\n      sload\n      dup2\n      lt\n      tag_78\n      jumpi\n      tag_79\n      tag_73\n      jump\t// in\n    tag_79:\n    tag_78:\n      swap1\n      0x00\n      mstore\n      keccak256(0x00, 0x20)\n      swap1\n      0x05\n      mul\n      add\n        /* \"contracts/TwitterDapp.sol\":1987:2011  tweets[author][id].likes */\n      0x04\n      add\n      sload\n        /* \"contracts/TwitterDapp.sol\":1987:2015  tweets[author][id].likes > 0 */\n      gt\n        /* \"contracts/TwitterDapp.sol\":1979:2038  require(tweets[author][id].likes > 0, \"TWEET HAS NO LIKES\") */\n      tag_81\n      jumpi\n      mload(0x40)\n      0x08c379a000000000000000000000000000000000000000000000000000000000\n      dup2\n      mstore\n      0x04\n      add\n      tag_82\n      swap1\n      tag_83\n      jump\t// in\n    tag_82:\n      mload(0x40)\n      dup1\n      swap2\n      sub\n      swap1\n      revert\n    tag_81:\n        /* \"contracts/TwitterDapp.sol\":2059:2065  tweets */\n      0x01\n        /* \"contracts/TwitterDapp.sol\":2059:2073  tweets[author] */\n      0x00\n        /* \"contracts/TwitterDapp.sol\":2066:2072  author */\n      dup4\n        /* \"contracts/TwitterDapp.sol\":2059:2073  tweets[author] */\n      0xffffffffffffffffffffffffffffffffffffffff\n      and\n      0xffffffffffffffffffffffffffffffffffffffff\n      and\n      dup2\n      mstore\n      0x20\n      add\n      swap1\n      dup2\n      mstore\n      0x20\n      add\n      0x00\n      keccak256\n        /* \"contracts/TwitterDapp.sol\":2074:2076  id */\n      dup2\n        /* \"contracts/TwitterDapp.sol\":2059:2077  tweets[author][id] */\n      dup2\n      sload\n      dup2\n      lt\n      tag_84\n      jumpi\n      tag_85\n      tag_73\n      jump\t// in\n    tag_85:\n    tag_84:\n      swap1\n      0x00\n      mstore\n      keccak256(0x00, 0x20)\n      swap1\n      0x05\n      mul\n      add\n        /* \"contracts/TwitterDapp.sol\":2059:2083  tweets[author][id].likes */\n      0x04\n      add\n      0x00\n        /* \"contracts/TwitterDapp.sol\":2059:2085  tweets[author][id].likes-- */\n      dup2\n      sload\n      dup1\n      swap3\n      swap2\n      swap1\n      tag_87\n      swap1\n      tag_88\n      jump\t// in\n    tag_87:\n      swap2\n      swap1\n      pop\n      sstore\n      pop\n        /* \"contracts/TwitterDapp.sol\":2103:2166  TweetUnliked(msg.sender, author, id, tweets[author][id].likes ) */\n      0x762c2616349603ac16eba0de8e6141b79129a07ab63bd99e0a80b3a471716943\n        /* \"contracts/TwitterDapp.sol\":2116:2126  msg.sender */\n      caller\n        /* \"contracts/TwitterDapp.sol\":2128:2134  author */\n      dup4\n        /* \"contracts/TwitterDapp.sol\":2136:2138  id */\n      dup4\n        /* \"contracts/TwitterDapp.sol\":2140:2146  tweets */\n      0x01\n        /* \"contracts/TwitterDapp.sol\":2140:2154  tweets[author] */\n      0x00\n        /* \"contracts/TwitterDapp.sol\":2147:2153  author */\n      dup8\n        /* \"contracts/TwitterDapp.sol\":2140:2154  tweets[author] */\n      0xffffffffffffffffffffffffffffffffffffffff\n      and\n      0xffffffffffffffffffffffffffffffffffffffff\n      and\n      dup2\n      mstore\n      0x20\n      add\n      swap1\n      dup2\n      mstore\n      0x20\n      add\n      0x00\n      keccak256\n        /* \"contracts/TwitterDapp.sol\":2155:2157  id */\n      dup6\n        /* \"contracts/TwitterDapp.sol\":2140:2158  tweets[author][id] */\n      dup2\n      sload\n      dup2\n      lt\n      tag_89\n      jumpi\n      tag_90\n      tag_73\n      jump\t// in\n    tag_90:\n    tag_89:\n      swap1\n      0x00\n      mstore\n      keccak256(0x00, 0x20)\n      swap1\n      0x05\n      mul\n      add\n        /* \"contracts/TwitterDapp.sol\":2140:2164  tweets[author][id].likes */\n      0x04\n      add\n      sload\n        /* \"contracts/TwitterDapp.sol\":2103:2166  TweetUnliked(msg.sender, author, id, tweets[author][id].likes ) */\n      mload(0x40)\n      tag_92\n      swap5\n      swap4\n      swap3\n      swap2\n      swap1\n      tag_93\n      jump\t// in\n    tag_92:\n      mload(0x40)\n      dup1\n      swap2\n      sub\n      swap1\n      log1\n        /* \"contracts/TwitterDapp.sol\":1839:2174  function unlikeTweet(address author, uint256 id) external {... */\n      pop\n      pop\n      jump\t// out\n        /* \"contracts/TwitterDapp.sol\":849:968  function changeTweetLength(uint16 newTweetLength) public onlyOwner {... */\n    tag_31:\n        /* \"contracts/TwitterDapp.sol\":789:794  owner */\n      0x02\n      0x00\n      swap1\n      sload\n      swap1\n      0x0100\n      exp\n      swap1\n      div\n      0xffffffffffffffffffffffffffffffffffffffff\n      and\n        /* \"contracts/TwitterDapp.sol\":775:794  msg.sender == owner */\n      0xffffffffffffffffffffffffffffffffffffffff\n      and\n        /* \"contracts/TwitterDapp.sol\":775:785  msg.sender */\n      caller\n        /* \"contracts/TwitterDapp.sol\":775:794  msg.sender == owner */\n      0xffffffffffffffffffffffffffffffffffffffff\n      and\n      eq\n        /* \"contracts/TwitterDapp.sol\":767:821  require(msg.sender == owner, \"YOU ARE NOT THE OWNER!\") */\n      tag_95\n      jumpi\n      mload(0x40)\n      0x08c379a000000000000000000000000000000000000000000000000000000000\n      dup2\n      mstore\n      0x04\n      add\n      tag_96\n      swap1\n      tag_97\n      jump\t// in\n    tag_96:\n      mload(0x40)\n      dup1\n      swap2\n      sub\n      swap1\n      revert\n    tag_95:\n        /* \"contracts/TwitterDapp.sol\":946:960  newTweetLength */\n      dup1\n        /* \"contracts/TwitterDapp.sol\":927:943  MAX_TWEET_LENGTH */\n      0x00\n      dup1\n        /* \"contracts/TwitterDapp.sol\":927:960  MAX_TWEET_LENGTH = newTweetLength */\n      0x0100\n      exp\n      dup2\n      sload\n      dup2\n      0xffff\n      mul\n      not\n      and\n      swap1\n      dup4\n      0xffff\n      and\n      mul\n      or\n      swap1\n      sstore\n      pop\n        /* \"contracts/TwitterDapp.sol\":849:968  function changeTweetLength(uint16 newTweetLength) public onlyOwner {... */\n      pop\n      jump\t// out\n        /* \"contracts/TwitterDapp.sol\":1539:1831  function likeTweet(address author, uint256 id) external {  ... */\n    tag_34:\n        /* \"contracts/TwitterDapp.sol\":1641:1643  id */\n      dup1\n        /* \"contracts/TwitterDapp.sol\":1616:1622  tweets */\n      0x01\n        /* \"contracts/TwitterDapp.sol\":1616:1630  tweets[author] */\n      0x00\n        /* \"contracts/TwitterDapp.sol\":1623:1629  author */\n      dup5\n        /* \"contracts/TwitterDapp.sol\":1616:1630  tweets[author] */\n      0xffffffffffffffffffffffffffffffffffffffff\n      and\n      0xffffffffffffffffffffffffffffffffffffffff\n      and\n      dup2\n      mstore\n      0x20\n      add\n      swap1\n      dup2\n      mstore\n      0x20\n      add\n      0x00\n      keccak256\n        /* \"contracts/TwitterDapp.sol\":1631:1633  id */\n      dup3\n        /* \"contracts/TwitterDapp.sol\":1616:1634  tweets[author][id] */\n      dup2\n      sload\n      dup2\n      lt\n      tag_100\n      jumpi\n      tag_101\n      tag_73\n      jump\t// in\n    tag_101:\n    tag_100:\n      swap1\n      0x00\n      mstore\n      keccak256(0x00, 0x20)\n      swap1\n      0x05\n      mul\n      add\n        /* \"contracts/TwitterDapp.sol\":1616:1637  tweets[author][id].id */\n      0x00\n      add\n      sload\n        /* \"contracts/TwitterDapp.sol\":1616:1643  tweets[author][id].id == id */\n      eq\n        /* \"contracts/TwitterDapp.sol\":1608:1668  require(tweets[author][id].id == id, \"TWEET DOES NOT EXIST\") */\n      tag_103\n      jumpi\n      mload(0x40)\n      0x08c379a000000000000000000000000000000000000000000000000000000000\n      dup2\n      mstore\n      0x04\n      add\n      tag_104\n      swap1\n      tag_77\n      jump\t// in\n    tag_104:\n      mload(0x40)\n      dup1\n      swap2\n      sub\n      swap1\n      revert\n    tag_103:\n        /* \"contracts/TwitterDapp.sol\":1681:1687  tweets */\n      0x01\n        /* \"contracts/TwitterDapp.sol\":1681:1695  tweets[author] */\n      0x00\n        /* \"contracts/TwitterDapp.sol\":1688:1694  author */\n      dup4\n        /* \"contracts/TwitterDapp.sol\":1681:1695  tweets[author] */\n      0xffffffffffffffffffffffffffffffffffffffff\n      and\n      0xffffffffffffffffffffffffffffffffffffffff\n      and\n      dup2\n      mstore\n      0x20\n      add\n      swap1\n      dup2\n      mstore\n      0x20\n      add\n      0x00\n      keccak256\n        /* \"contracts/TwitterDapp.sol\":1696:1698  id */\n      dup2\n        /* \"contracts/TwitterDapp.sol\":1681:1699  tweets[author][id] */\n      dup2\n      sload\n      dup2\n      lt\n      tag_105\n      jumpi\n      tag_106\n      tag_73\n      jump\t// in\n    tag_106:\n    tag_105:\n      swap1\n      0x00\n      mstore\n      keccak256(0x00, 0x20)\n      swap1\n      0x05\n      mul\n      add\n        /* \"contracts/TwitterDapp.sol\":1681:1705  tweets[author][id].likes */\n      0x04\n      add\n      0x00\n        /* \"contracts/TwitterDapp.sol\":1681:1707  tweets[author][id].likes++ */\n      dup2\n      sload\n      dup1\n      swap3\n      swap2\n      swap1\n      tag_108\n      swap1\n      tag_109\n      jump\t// in\n    tag_108:\n      swap2\n      swap1\n      pop\n      sstore\n      pop\n        /* \"contracts/TwitterDapp.sol\":1763:1823  TweetLiked(msg.sender, author, id, tweets[author][id].likes) */\n      0xe8a76fc0f16d11a00d1e93b689b63d76cf60af914dd3d915375dc41d01a0c3c8\n        /* \"contracts/TwitterDapp.sol\":1774:1784  msg.sender */\n      caller\n        /* \"contracts/TwitterDapp.sol\":1786:1792  author */\n      dup4\n        /* \"contracts/TwitterDapp.sol\":1794:1796  id */\n      dup4\n        /* \"contracts/TwitterDapp.sol\":1798:1804  tweets */\n      0x01\n        /* \"contracts/TwitterDapp.sol\":1798:1812  tweets[author] */\n      0x00\n        /* \"contracts/TwitterDapp.sol\":1805:1811  author */\n      dup8\n        /* \"contracts/TwitterDapp.sol\":1798:1812  tweets[author] */\n      0xffffffffffffffffffffffffffffffffffffffff\n      and\n      0xffffffffffffffffffffffffffffffffffffffff\n      and\n      dup2\n      mstore\n      0x20\n      add\n      swap1\n      dup2\n      mstore\n      0x20\n      add\n      0x00\n      keccak256\n        /* \"contracts/TwitterDapp.sol\":1813:1815  id */\n      dup6\n        /* \"contracts/TwitterDapp.sol\":1798:1816  tweets[author][id] */\n      dup2\n      sload\n      dup2\n      lt\n      tag_110\n      jumpi\n      tag_111\n      tag_73\n      jump\t// in\n    tag_111:\n    tag_110:\n      swap1\n      0x00\n      mstore\n      keccak256(0x00, 0x20)\n      swap1\n      0x05\n      mul\n      add\n        /* \"contracts/TwitterDapp.sol\":1798:1822  tweets[author][id].likes */\n      0x04\n      add\n      sload\n        /* \"contracts/TwitterDapp.sol\":1763:1823  TweetLiked(msg.sender, author, id, tweets[author][id].likes) */\n      mload(0x40)\n      tag_113\n      swap5\n      swap4\n      swap3\n      swap2\n      swap1\n      tag_93\n      jump\t// in\n    tag_113:\n      mload(0x40)\n      dup1\n      swap2\n      sub\n      swap1\n      log1\n        /* \"contracts/TwitterDapp.sol\":1539:1831  function likeTweet(address author, uint256 id) external {  ... */\n      pop\n      pop\n      jump\t// out\n        /* \"contracts/TwitterDapp.sol\":87:123  uint16 public MAX_TWEET_LENGTH = 280 */\n    tag_36:\n      0x00\n      dup1\n      sload\n      swap1\n      0x0100\n      exp\n      swap1\n      div\n      0xffff\n      and\n      dup2\n      jump\t// out\n        /* \"contracts/TwitterDapp.sol\":976:1531  function createTweet(string memory _tweet) public {... */\n    tag_42:\n        /* \"contracts/TwitterDapp.sol\":1069:1085  MAX_TWEET_LENGTH */\n      0x00\n      dup1\n      sload\n      swap1\n      0x0100\n      exp\n      swap1\n      div\n      0xffff\n      and\n        /* \"contracts/TwitterDapp.sol\":1045:1085  bytes(_tweet).length <= MAX_TWEET_LENGTH */\n      0xffff\n      and\n        /* \"contracts/TwitterDapp.sol\":1051:1057  _tweet */\n      dup2\n        /* \"contracts/TwitterDapp.sol\":1045:1065  bytes(_tweet).length */\n      mload\n        /* \"contracts/TwitterDapp.sol\":1045:1085  bytes(_tweet).length <= MAX_TWEET_LENGTH */\n      gt\n      iszero\n        /* \"contracts/TwitterDapp.sol\":1037:1113  require(bytes(_tweet).length <= MAX_TWEET_LENGTH, \"Tweet is too long bro!\" ) */\n      tag_115\n      jumpi\n      mload(0x40)\n      0x08c379a000000000000000000000000000000000000000000000000000000000\n      dup2\n      mstore\n      0x04\n      add\n      tag_116\n      swap1\n      tag_117\n      jump\t// in\n    tag_116:\n      mload(0x40)\n      dup1\n      swap2\n      sub\n      swap1\n      revert\n    tag_115:\n        /* \"contracts/TwitterDapp.sol\":1126:1147  Tweet memory newTweet */\n      0x00\n        /* \"contracts/TwitterDapp.sol\":1150:1339  Tweet({... */\n      mload(0x40)\n      dup1\n      0xa0\n      add\n      0x40\n      mstore\n      dup1\n        /* \"contracts/TwitterDapp.sol\":1175:1181  tweets */\n      0x01\n        /* \"contracts/TwitterDapp.sol\":1175:1193  tweets[msg.sender] */\n      0x00\n        /* \"contracts/TwitterDapp.sol\":1182:1192  msg.sender */\n      caller\n        /* \"contracts/TwitterDapp.sol\":1175:1193  tweets[msg.sender] */\n      0xffffffffffffffffffffffffffffffffffffffff\n      and\n      0xffffffffffffffffffffffffffffffffffffffff\n      and\n      dup2\n      mstore\n      0x20\n      add\n      swap1\n      dup2\n      mstore\n      0x20\n      add\n      0x00\n      keccak256\n        /* \"contracts/TwitterDapp.sol\":1175:1200  tweets[msg.sender].length */\n      dup1\n      sload\n      swap1\n      pop\n        /* \"contracts/TwitterDapp.sol\":1150:1339  Tweet({... */\n      dup2\n      mstore\n      0x20\n      add\n        /* \"contracts/TwitterDapp.sol\":1223:1233  msg.sender */\n      caller\n        /* \"contracts/TwitterDapp.sol\":1150:1339  Tweet({... */\n      0xffffffffffffffffffffffffffffffffffffffff\n      and\n      dup2\n      mstore\n      0x20\n      add\n        /* \"contracts/TwitterDapp.sol\":1257:1263  _tweet */\n      dup4\n        /* \"contracts/TwitterDapp.sol\":1150:1339  Tweet({... */\n      dup2\n      mstore\n      0x20\n      add\n        /* \"contracts/TwitterDapp.sol\":1289:1304  block.timestamp */\n      timestamp\n        /* \"contracts/TwitterDapp.sol\":1150:1339  Tweet({... */\n      dup2\n      mstore\n      0x20\n      add\n        /* \"contracts/TwitterDapp.sol\":1326:1327  0 */\n      0x00\n        /* \"contracts/TwitterDapp.sol\":1150:1339  Tweet({... */\n      dup2\n      mstore\n      pop\n        /* \"contracts/TwitterDapp.sol\":1126:1339  Tweet memory newTweet = Tweet({... */\n      swap1\n      pop\n        /* \"contracts/TwitterDapp.sol\":1352:1358  tweets */\n      0x01\n        /* \"contracts/TwitterDapp.sol\":1352:1370  tweets[msg.sender] */\n      0x00\n        /* \"contracts/TwitterDapp.sol\":1359:1369  msg.sender */\n      caller\n        /* \"contracts/TwitterDapp.sol\":1352:1370  tweets[msg.sender] */\n      0xffffffffffffffffffffffffffffffffffffffff\n      and\n      0xffffffffffffffffffffffffffffffffffffffff\n      and\n      dup2\n      mstore\n      0x20\n      add\n      swap1\n      dup2\n      mstore\n      0x20\n      add\n      0x00\n      keccak256\n        /* \"contracts/TwitterDapp.sol\":1376:1384  newTweet */\n      dup2\n        /* \"contracts/TwitterDapp.sol\":1352:1385  tweets[msg.sender].push(newTweet) */\n      swap1\n      dup1\n      0x01\n      dup2\n      sload\n      add\n      dup1\n      dup3\n      sstore\n      dup1\n      swap2\n      pop\n      pop\n      0x01\n      swap1\n      sub\n      swap1\n      0x00\n      mstore\n      keccak256(0x00, 0x20)\n      swap1\n      0x05\n      mul\n      add\n      0x00\n      swap1\n      swap2\n      swap1\n      swap2\n      swap1\n      swap2\n      pop\n      0x00\n      dup3\n      add\n      mload\n      dup2\n      0x00\n      add\n      sstore\n      0x20\n      dup3\n      add\n      mload\n      dup2\n      0x01\n      add\n      exp(0x0100, 0x00)\n      dup2\n      sload\n      dup2\n      0xffffffffffffffffffffffffffffffffffffffff\n      mul\n      not\n      and\n      swap1\n      dup4\n      0xffffffffffffffffffffffffffffffffffffffff\n      and\n      mul\n      or\n      swap1\n      sstore\n      pop\n      0x40\n      dup3\n      add\n      mload\n      dup2\n      0x02\n      add\n      swap1\n      dup2\n      tag_119\n      swap2\n      swap1\n      tag_120\n      jump\t// in\n    tag_119:\n      pop\n      0x60\n      dup3\n      add\n      mload\n      dup2\n      0x03\n      add\n      sstore\n      0x80\n      dup3\n      add\n      mload\n      dup2\n      0x04\n      add\n      sstore\n      pop\n      pop\n        /* \"contracts/TwitterDapp.sol\":1443:1523  TweetCreated(newTweet.id, newTweet.author, newTweet.content, newTweet.timestamp) */\n      0x16fd3c13e9d46923e0a8bce11c7b473ec508a72e6c96cd2404b29ce972afc29e\n        /* \"contracts/TwitterDapp.sol\":1456:1464  newTweet */\n      dup2\n        /* \"contracts/TwitterDapp.sol\":1456:1467  newTweet.id */\n      0x00\n      add\n      mload\n        /* \"contracts/TwitterDapp.sol\":1469:1477  newTweet */\n      dup3\n        /* \"contracts/TwitterDapp.sol\":1469:1484  newTweet.author */\n      0x20\n      add\n      mload\n        /* \"contracts/TwitterDapp.sol\":1486:1494  newTweet */\n      dup4\n        /* \"contracts/TwitterDapp.sol\":1486:1502  newTweet.content */\n      0x40\n      add\n      mload\n        /* \"contracts/TwitterDapp.sol\":1504:1512  newTweet */\n      dup5\n        /* \"contracts/TwitterDapp.sol\":1504:1522  newTweet.timestamp */\n      0x60\n      add\n      mload\n        /* \"contracts/TwitterDapp.sol\":1443:1523  TweetCreated(newTweet.id, newTweet.author, newTweet.content, newTweet.timestamp) */\n      mload(0x40)\n      tag_121\n      swap5\n      swap4\n      swap3\n      swap2\n      swap1\n      tag_122\n      jump\t// in\n    tag_121:\n      mload(0x40)\n      dup1\n      swap2\n      sub\n      swap1\n      log1\n        /* \"contracts/TwitterDapp.sol\":1026:1531  {... */\n      pop\n        /* \"contracts/TwitterDapp.sol\":976:1531  function createTweet(string memory _tweet) public {... */\n      pop\n      jump\t// out\n        /* \"contracts/TwitterDapp.sol\":331:351  address public owner */\n    tag_44:\n      0x02\n      0x00\n      swap1\n      sload\n      swap1\n      0x0100\n      exp\n      swap1\n      div\n      0xffffffffffffffffffffffffffffffffffffffff\n      and\n      dup2\n      jump\t// out\n        /* \"contracts/TwitterDapp.sol\":2182:2293  function getTweet( uint _i) public view returns (Tweet memory) {... */\n    tag_50:\n        /* \"contracts/TwitterDapp.sol\":2231:2243  Tweet memory */\n      tag_123\n      tag_124\n      jump\t// in\n    tag_123:\n        /* \"contracts/TwitterDapp.sol\":2263:2269  tweets */\n      0x01\n        /* \"contracts/TwitterDapp.sol\":2263:2281  tweets[msg.sender] */\n      0x00\n        /* \"contracts/TwitterDapp.sol\":2270:2280  msg.sender */\n      caller\n        /* \"contracts/TwitterDapp.sol\":2263:2281  tweets[msg.sender] */\n      0xffffffffffffffffffffffffffffffffffffffff\n      and\n      0xffffffffffffffffffffffffffffffffffffffff\n      and\n      dup2\n      mstore\n      0x20\n      add\n      swap1\n      dup2\n      mstore\n      0x20\n      add\n      0x00\n      keccak256\n        /* \"contracts/TwitterDapp.sol\":2282:2284  _i */\n      dup3\n        /* \"contracts/TwitterDapp.sol\":2263:2285  tweets[msg.sender][_i] */\n      dup2\n      sload\n      dup2\n      lt\n      tag_126\n      jumpi\n      tag_127\n      tag_73\n      jump\t// in\n    tag_127:\n    tag_126:\n      swap1\n      0x00\n      mstore\n      keccak256(0x00, 0x20)\n      swap1\n      0x05\n      mul\n      add\n        /* \"contracts/TwitterDapp.sol\":2256:2285  return tweets[msg.sender][_i] */\n      mload(0x40)\n      dup1\n      0xa0\n      add\n      0x40\n      mstore\n      swap1\n      dup2\n      0x00\n      dup3\n      add\n      sload\n      dup2\n      mstore\n      0x20\n      add\n      0x01\n      dup3\n      add\n      0x00\n      swap1\n      sload\n      swap1\n      0x0100\n      exp\n      swap1\n      div\n      0xffffffffffffffffffffffffffffffffffffffff\n      and\n      0xffffffffffffffffffffffffffffffffffffffff\n      and\n      0xffffffffffffffffffffffffffffffffffffffff\n      and\n      dup2\n      mstore\n      0x20\n      add\n      0x02\n      dup3\n      add\n      dup1\n      sload\n      tag_129\n      swap1\n      tag_56\n      jump\t// in\n    tag_129:\n      dup1\n      0x1f\n      add\n      0x20\n      dup1\n      swap2\n      div\n      mul\n      0x20\n      add\n      mload(0x40)\n      swap1\n      dup2\n      add\n      0x40\n      mstore\n      dup1\n      swap3\n      swap2\n      swap1\n      dup2\n      dup2\n      mstore\n      0x20\n      add\n      dup3\n      dup1\n      sload\n      tag_130\n      swap1\n      tag_56\n      jump\t// in\n    tag_130:\n      dup1\n      iszero\n      tag_131\n      jumpi\n      dup1\n      0x1f\n      lt\n      tag_132\n      jumpi\n      0x0100\n      dup1\n      dup4\n      sload\n      div\n      mul\n      dup4\n      mstore\n      swap2\n      0x20\n      add\n      swap2\n      jump(tag_131)\n    tag_132:\n      dup3\n      add\n      swap2\n      swap1\n      0x00\n      mstore\n      keccak256(0x00, 0x20)\n      swap1\n    tag_133:\n      dup2\n      sload\n      dup2\n      mstore\n      swap1\n      0x01\n      add\n      swap1\n      0x20\n      add\n      dup1\n      dup4\n      gt\n      tag_133\n      jumpi\n      dup3\n      swap1\n      sub\n      0x1f\n      and\n      dup3\n      add\n      swap2\n    tag_131:\n      pop\n      pop\n      pop\n      pop\n      pop\n      dup2\n      mstore\n      0x20\n      add\n      0x03\n      dup3\n      add\n      sload\n      dup2\n      mstore\n      0x20\n      add\n      0x04\n      dup3\n      add\n      sload\n      dup2\n      mstore\n      pop\n      pop\n      swap1\n      pop\n        /* \"contracts/TwitterDapp.sol\":2182:2293  function getTweet( uint _i) public view returns (Tweet memory) {... */\n      swap2\n      swap1\n      pop\n      jump\t// out\n    tag_124:\n      mload(0x40)\n      dup1\n      0xa0\n      add\n      0x40\n      mstore\n      dup1\n      0x00\n      dup2\n      mstore\n      0x20\n      add\n      and(0xffffffffffffffffffffffffffffffffffffffff, 0x00)\n      dup2\n      mstore\n      0x20\n      add\n      0x60\n      dup2\n      mstore\n      0x20\n      add\n      0x00\n      dup2\n      mstore\n      0x20\n      add\n      0x00\n      dup2\n      mstore\n      pop\n      swap1\n      jump\t// out\n        /* \"#utility.yul\":7:82   */\n    tag_134:\n        /* \"#utility.yul\":40:46   */\n      0x00\n        /* \"#utility.yul\":73:75   */\n      0x40\n        /* \"#utility.yul\":67:76   */\n      mload\n        /* \"#utility.yul\":57:76   */\n      swap1\n      pop\n        /* \"#utility.yul\":7:82   */\n      swap1\n      jump\t// out\n        /* \"#utility.yul\":88:205   */\n    tag_135:\n        /* \"#utility.yul\":197:198   */\n      0x00\n        /* \"#utility.yul\":194:195   */\n      dup1\n        /* \"#utility.yul\":187:199   */\n      revert\n        /* \"#utility.yul\":211:328   */\n    tag_136:\n        /* \"#utility.yul\":320:321   */\n      0x00\n        /* \"#utility.yul\":317:318   */\n      dup1\n        /* \"#utility.yul\":310:322   */\n      revert\n        /* \"#utility.yul\":334:460   */\n    tag_137:\n        /* \"#utility.yul\":371:378   */\n      0x00\n        /* \"#utility.yul\":411:453   */\n      0xffffffffffffffffffffffffffffffffffffffff\n        /* \"#utility.yul\":404:409   */\n      dup3\n        /* \"#utility.yul\":400:454   */\n      and\n        /* \"#utility.yul\":389:454   */\n      swap1\n      pop\n        /* \"#utility.yul\":334:460   */\n      swap2\n      swap1\n      pop\n      jump\t// out\n        /* \"#utility.yul\":466:562   */\n    tag_138:\n        /* \"#utility.yul\":503:510   */\n      0x00\n        /* \"#utility.yul\":532:556   */\n      tag_207\n        /* \"#utility.yul\":550:555   */\n      dup3\n        /* \"#utility.yul\":532:556   */\n      tag_137\n      jump\t// in\n    tag_207:\n        /* \"#utility.yul\":521:556   */\n      swap1\n      pop\n        /* \"#utility.yul\":466:562   */\n      swap2\n      swap1\n      pop\n      jump\t// out\n        /* \"#utility.yul\":568:690   */\n    tag_139:\n        /* \"#utility.yul\":641:665   */\n      tag_209\n        /* \"#utility.yul\":659:664   */\n      dup2\n        /* \"#utility.yul\":641:665   */\n      tag_138\n      jump\t// in\n    tag_209:\n        /* \"#utility.yul\":634:639   */\n      dup2\n        /* \"#utility.yul\":631:666   */\n      eq\n        /* \"#utility.yul\":621:684   */\n      tag_210\n      jumpi\n        /* \"#utility.yul\":680:681   */\n      0x00\n        /* \"#utility.yul\":677:678   */\n      dup1\n        /* \"#utility.yul\":670:682   */\n      revert\n        /* \"#utility.yul\":621:684   */\n    tag_210:\n        /* \"#utility.yul\":568:690   */\n      pop\n      jump\t// out\n        /* \"#utility.yul\":696:835   */\n    tag_140:\n        /* \"#utility.yul\":742:747   */\n      0x00\n        /* \"#utility.yul\":780:786   */\n      dup2\n        /* \"#utility.yul\":767:787   */\n      calldataload\n        /* \"#utility.yul\":758:787   */\n      swap1\n      pop\n        /* \"#utility.yul\":796:829   */\n      tag_212\n        /* \"#utility.yul\":823:828   */\n      dup2\n        /* \"#utility.yul\":796:829   */\n      tag_139\n      jump\t// in\n    tag_212:\n        /* \"#utility.yul\":696:835   */\n      swap3\n      swap2\n      pop\n      pop\n      jump\t// out\n        /* \"#utility.yul\":841:918   */\n    tag_141:\n        /* \"#utility.yul\":878:885   */\n      0x00\n        /* \"#utility.yul\":907:912   */\n      dup2\n        /* \"#utility.yul\":896:912   */\n      swap1\n      pop\n        /* \"#utility.yul\":841:918   */\n      swap2\n      swap1\n      pop\n      jump\t// out\n        /* \"#utility.yul\":924:1046   */\n    tag_142:\n        /* \"#utility.yul\":997:1021   */\n      tag_215\n        /* \"#utility.yul\":1015:1020   */\n      dup2\n        /* \"#utility.yul\":997:1021   */\n      tag_141\n      jump\t// in\n    tag_215:\n        /* \"#utility.yul\":990:995   */\n      dup2\n        /* \"#utility.yul\":987:1022   */\n      eq\n        /* \"#utility.yul\":977:1040   */\n      tag_216\n      jumpi\n        /* \"#utility.yul\":1036:1037   */\n      0x00\n        /* \"#utility.yul\":1033:1034   */\n      dup1\n        /* \"#utility.yul\":1026:1038   */\n      revert\n        /* \"#utility.yul\":977:1040   */\n    tag_216:\n        /* \"#utility.yul\":924:1046   */\n      pop\n      jump\t// out\n        /* \"#utility.yul\":1052:1191   */\n    tag_143:\n        /* \"#utility.yul\":1098:1103   */\n      0x00\n        /* \"#utility.yul\":1136:1142   */\n      dup2\n        /* \"#utility.yul\":1123:1143   */\n      calldataload\n        /* \"#utility.yul\":1114:1143   */\n      swap1\n      pop\n        /* \"#utility.yul\":1152:1185   */\n      tag_218\n        /* \"#utility.yul\":1179:1184   */\n      dup2\n        /* \"#utility.yul\":1152:1185   */\n      tag_142\n      jump\t// in\n    tag_218:\n        /* \"#utility.yul\":1052:1191   */\n      swap3\n      swap2\n      pop\n      pop\n      jump\t// out\n        /* \"#utility.yul\":1197:1671   */\n    tag_15:\n        /* \"#utility.yul\":1265:1271   */\n      0x00\n        /* \"#utility.yul\":1273:1279   */\n      dup1\n        /* \"#utility.yul\":1322:1324   */\n      0x40\n        /* \"#utility.yul\":1310:1319   */\n      dup4\n        /* \"#utility.yul\":1301:1308   */\n      dup6\n        /* \"#utility.yul\":1297:1320   */\n      sub\n        /* \"#utility.yul\":1293:1325   */\n      slt\n        /* \"#utility.yul\":1290:1409   */\n      iszero\n      tag_220\n      jumpi\n        /* \"#utility.yul\":1328:1407   */\n      tag_221\n      tag_135\n      jump\t// in\n    tag_221:\n        /* \"#utility.yul\":1290:1409   */\n    tag_220:\n        /* \"#utility.yul\":1448:1449   */\n      0x00\n        /* \"#utility.yul\":1473:1526   */\n      tag_222\n        /* \"#utility.yul\":1518:1525   */\n      dup6\n        /* \"#utility.yul\":1509:1515   */\n      dup3\n        /* \"#utility.yul\":1498:1507   */\n      dup7\n        /* \"#utility.yul\":1494:1516   */\n      add\n        /* \"#utility.yul\":1473:1526   */\n      tag_140\n      jump\t// in\n    tag_222:\n        /* \"#utility.yul\":1463:1526   */\n      swap3\n      pop\n        /* \"#utility.yul\":1419:1536   */\n      pop\n        /* \"#utility.yul\":1575:1577   */\n      0x20\n        /* \"#utility.yul\":1601:1654   */\n      tag_223\n        /* \"#utility.yul\":1646:1653   */\n      dup6\n        /* \"#utility.yul\":1637:1643   */\n      dup3\n        /* \"#utility.yul\":1626:1635   */\n      dup7\n        /* \"#utility.yul\":1622:1644   */\n      add\n        /* \"#utility.yul\":1601:1654   */\n      tag_143\n      jump\t// in\n    tag_223:\n        /* \"#utility.yul\":1591:1654   */\n      swap2\n      pop\n        /* \"#utility.yul\":1546:1664   */\n      pop\n        /* \"#utility.yul\":1197:1671   */\n      swap3\n      pop\n      swap3\n      swap1\n      pop\n      jump\t// out\n        /* \"#utility.yul\":1677:1795   */\n    tag_144:\n        /* \"#utility.yul\":1764:1788   */\n      tag_225\n        /* \"#utility.yul\":1782:1787   */\n      dup2\n        /* \"#utility.yul\":1764:1788   */\n      tag_141\n      jump\t// in\n    tag_225:\n        /* \"#utility.yul\":1759:1762   */\n      dup3\n        /* \"#utility.yul\":1752:1789   */\n      mstore\n        /* \"#utility.yul\":1677:1795   */\n      pop\n      pop\n      jump\t// out\n        /* \"#utility.yul\":1801:1919   */\n    tag_145:\n        /* \"#utility.yul\":1888:1912   */\n      tag_227\n        /* \"#utility.yul\":1906:1911   */\n      dup2\n        /* \"#utility.yul\":1888:1912   */\n      tag_138\n      jump\t// in\n    tag_227:\n        /* \"#utility.yul\":1883:1886   */\n      dup3\n        /* \"#utility.yul\":1876:1913   */\n      mstore\n        /* \"#utility.yul\":1801:1919   */\n      pop\n      pop\n      jump\t// out\n        /* \"#utility.yul\":1925:2024   */\n    tag_146:\n        /* \"#utility.yul\":1977:1983   */\n      0x00\n        /* \"#utility.yul\":2011:2016   */\n      dup2\n        /* \"#utility.yul\":2005:2017   */\n      mload\n        /* \"#utility.yul\":1995:2017   */\n      swap1\n      pop\n        /* \"#utility.yul\":1925:2024   */\n      swap2\n      swap1\n      pop\n      jump\t// out\n        /* \"#utility.yul\":2030:2199   */\n    tag_147:\n        /* \"#utility.yul\":2114:2125   */\n      0x00\n        /* \"#utility.yul\":2148:2154   */\n      dup3\n        /* \"#utility.yul\":2143:2146   */\n      dup3\n        /* \"#utility.yul\":2136:2155   */\n      mstore\n        /* \"#utility.yul\":2188:2192   */\n      0x20\n        /* \"#utility.yul\":2183:2186   */\n      dup3\n        /* \"#utility.yul\":2179:2193   */\n      add\n        /* \"#utility.yul\":2164:2193   */\n      swap1\n      pop\n        /* \"#utility.yul\":2030:2199   */\n      swap3\n      swap2\n      pop\n      pop\n      jump\t// out\n        /* \"#utility.yul\":2205:2451   */\n    tag_148:\n        /* \"#utility.yul\":2286:2287   */\n      0x00\n        /* \"#utility.yul\":2296:2409   */\n    tag_231:\n        /* \"#utility.yul\":2310:2316   */\n      dup4\n        /* \"#utility.yul\":2307:2308   */\n      dup2\n        /* \"#utility.yul\":2304:2317   */\n      lt\n        /* \"#utility.yul\":2296:2409   */\n      iszero\n      tag_233\n      jumpi\n        /* \"#utility.yul\":2395:2396   */\n      dup1\n        /* \"#utility.yul\":2390:2393   */\n      dup3\n        /* \"#utility.yul\":2386:2397   */\n      add\n        /* \"#utility.yul\":2380:2398   */\n      mload\n        /* \"#utility.yul\":2376:2377   */\n      dup2\n        /* \"#utility.yul\":2371:2374   */\n      dup5\n        /* \"#utility.yul\":2367:2378   */\n      add\n        /* \"#utility.yul\":2360:2399   */\n      mstore\n        /* \"#utility.yul\":2332:2334   */\n      0x20\n        /* \"#utility.yul\":2329:2330   */\n      dup2\n        /* \"#utility.yul\":2325:2335   */\n      add\n        /* \"#utility.yul\":2320:2335   */\n      swap1\n      pop\n        /* \"#utility.yul\":2296:2409   */\n      jump(tag_231)\n    tag_233:\n        /* \"#utility.yul\":2443:2444   */\n      0x00\n        /* \"#utility.yul\":2434:2440   */\n      dup5\n        /* \"#utility.yul\":2429:2432   */\n      dup5\n        /* \"#utility.yul\":2425:2441   */\n      add\n        /* \"#utility.yul\":2418:2445   */\n      mstore\n        /* \"#utility.yul\":2267:2451   */\n      pop\n        /* \"#utility.yul\":2205:2451   */\n      pop\n      pop\n      pop\n      jump\t// out\n        /* \"#utility.yul\":2457:2559   */\n    tag_149:\n        /* \"#utility.yul\":2498:2504   */\n      0x00\n        /* \"#utility.yul\":2549:2551   */\n      0x1f\n        /* \"#utility.yul\":2545:2552   */\n      not\n        /* \"#utility.yul\":2540:2542   */\n      0x1f\n        /* \"#utility.yul\":2533:2538   */\n      dup4\n        /* \"#utility.yul\":2529:2543   */\n      add\n        /* \"#utility.yul\":2525:2553   */\n      and\n        /* \"#utility.yul\":2515:2553   */\n      swap1\n      pop\n        /* \"#utility.yul\":2457:2559   */\n      swap2\n      swap1\n      pop\n      jump\t// out\n        /* \"#utility.yul\":2565:2942   */\n    tag_150:\n        /* \"#utility.yul\":2653:2656   */\n      0x00\n        /* \"#utility.yul\":2681:2720   */\n      tag_236\n        /* \"#utility.yul\":2714:2719   */\n      dup3\n        /* \"#utility.yul\":2681:2720   */\n      tag_146\n      jump\t// in\n    tag_236:\n        /* \"#utility.yul\":2736:2807   */\n      tag_237\n        /* \"#utility.yul\":2800:2806   */\n      dup2\n        /* \"#utility.yul\":2795:2798   */\n      dup6\n        /* \"#utility.yul\":2736:2807   */\n      tag_147\n      jump\t// in\n    tag_237:\n        /* \"#utility.yul\":2729:2807   */\n      swap4\n      pop\n        /* \"#utility.yul\":2816:2881   */\n      tag_238\n        /* \"#utility.yul\":2874:2880   */\n      dup2\n        /* \"#utility.yul\":2869:2872   */\n      dup6\n        /* \"#utility.yul\":2862:2866   */\n      0x20\n        /* \"#utility.yul\":2855:2860   */\n      dup7\n        /* \"#utility.yul\":2851:2867   */\n      add\n        /* \"#utility.yul\":2816:2881   */\n      tag_148\n      jump\t// in\n    tag_238:\n        /* \"#utility.yul\":2906:2935   */\n      tag_239\n        /* \"#utility.yul\":2928:2934   */\n      dup2\n        /* \"#utility.yul\":2906:2935   */\n      tag_149\n      jump\t// in\n    tag_239:\n        /* \"#utility.yul\":2901:2904   */\n      dup5\n        /* \"#utility.yul\":2897:2936   */\n      add\n        /* \"#utility.yul\":2890:2936   */\n      swap2\n      pop\n        /* \"#utility.yul\":2657:2942   */\n      pop\n        /* \"#utility.yul\":2565:2942   */\n      swap3\n      swap2\n      pop\n      pop\n      jump\t// out\n        /* \"#utility.yul\":2948:3703   */\n    tag_18:\n        /* \"#utility.yul\":3173:3177   */\n      0x00\n        /* \"#utility.yul\":3211:3214   */\n      0xa0\n        /* \"#utility.yul\":3200:3209   */\n      dup3\n        /* \"#utility.yul\":3196:3215   */\n      add\n        /* \"#utility.yul\":3188:3215   */\n      swap1\n      pop\n        /* \"#utility.yul\":3225:3296   */\n      tag_241\n        /* \"#utility.yul\":3293:3294   */\n      0x00\n        /* \"#utility.yul\":3282:3291   */\n      dup4\n        /* \"#utility.yul\":3278:3295   */\n      add\n        /* \"#utility.yul\":3269:3275   */\n      dup9\n        /* \"#utility.yul\":3225:3296   */\n      tag_144\n      jump\t// in\n    tag_241:\n        /* \"#utility.yul\":3306:3378   */\n      tag_242\n        /* \"#utility.yul\":3374:3376   */\n      0x20\n        /* \"#utility.yul\":3363:3372   */\n      dup4\n        /* \"#utility.yul\":3359:3377   */\n      add\n        /* \"#utility.yul\":3350:3356   */\n      dup8\n        /* \"#utility.yul\":3306:3378   */\n      tag_145\n      jump\t// in\n    tag_242:\n        /* \"#utility.yul\":3425:3434   */\n      dup2\n        /* \"#utility.yul\":3419:3423   */\n      dup2\n        /* \"#utility.yul\":3415:3435   */\n      sub\n        /* \"#utility.yul\":3410:3412   */\n      0x40\n        /* \"#utility.yul\":3399:3408   */\n      dup4\n        /* \"#utility.yul\":3395:3413   */\n      add\n        /* \"#utility.yul\":3388:3436   */\n      mstore\n        /* \"#utility.yul\":3453:3531   */\n      tag_243\n        /* \"#utility.yul\":3526:3530   */\n      dup2\n        /* \"#utility.yul\":3517:3523   */\n      dup7\n        /* \"#utility.yul\":3453:3531   */\n      tag_150\n      jump\t// in\n    tag_243:\n        /* \"#utility.yul\":3445:3531   */\n      swap1\n      pop\n        /* \"#utility.yul\":3541:3613   */\n      tag_244\n        /* \"#utility.yul\":3609:3611   */\n      0x60\n        /* \"#utility.yul\":3598:3607   */\n      dup4\n        /* \"#utility.yul\":3594:3612   */\n      add\n        /* \"#utility.yul\":3585:3591   */\n      dup6\n        /* \"#utility.yul\":3541:3613   */\n      tag_144\n      jump\t// in\n    tag_244:\n        /* \"#utility.yul\":3623:3696   */\n      tag_245\n        /* \"#utility.yul\":3691:3694   */\n      0x80\n        /* \"#utility.yul\":3680:3689   */\n      dup4\n        /* \"#utility.yul\":3676:3695   */\n      add\n        /* \"#utility.yul\":3667:3673   */\n      dup5\n        /* \"#utility.yul\":3623:3696   */\n      tag_144\n      jump\t// in\n    tag_245:\n        /* \"#utility.yul\":2948:3703   */\n      swap7\n      swap6\n      pop\n      pop\n      pop\n      pop\n      pop\n      pop\n      jump\t// out\n        /* \"#utility.yul\":3709:4038   */\n    tag_21:\n        /* \"#utility.yul\":3768:3774   */\n      0x00\n        /* \"#utility.yul\":3817:3819   */\n      0x20\n        /* \"#utility.yul\":3805:3814   */\n      dup3\n        /* \"#utility.yul\":3796:3803   */\n      dup5\n        /* \"#utility.yul\":3792:3815   */\n      sub\n        /* \"#utility.yul\":3788:3820   */\n      slt\n        /* \"#utility.yul\":3785:3904   */\n      iszero\n      tag_247\n      jumpi\n        /* \"#utility.yul\":3823:3902   */\n      tag_248\n      tag_135\n      jump\t// in\n    tag_248:\n        /* \"#utility.yul\":3785:3904   */\n    tag_247:\n        /* \"#utility.yul\":3943:3944   */\n      0x00\n        /* \"#utility.yul\":3968:4021   */\n      tag_249\n        /* \"#utility.yul\":4013:4020   */\n      dup5\n        /* \"#utility.yul\":4004:4010   */\n      dup3\n        /* \"#utility.yul\":3993:4002   */\n      dup6\n        /* \"#utility.yul\":3989:4011   */\n      add\n        /* \"#utility.yul\":3968:4021   */\n      tag_140\n      jump\t// in\n    tag_249:\n        /* \"#utility.yul\":3958:4021   */\n      swap2\n      pop\n        /* \"#utility.yul\":3914:4031   */\n      pop\n        /* \"#utility.yul\":3709:4038   */\n      swap3\n      swap2\n      pop\n      pop\n      jump\t// out\n        /* \"#utility.yul\":4044:4179   */\n    tag_151:\n        /* \"#utility.yul\":4132:4138   */\n      0x00\n        /* \"#utility.yul\":4166:4171   */\n      dup2\n        /* \"#utility.yul\":4160:4172   */\n      mload\n        /* \"#utility.yul\":4150:4172   */\n      swap1\n      pop\n        /* \"#utility.yul\":4044:4179   */\n      swap2\n      swap1\n      pop\n      jump\t// out\n        /* \"#utility.yul\":4185:4390   */\n    tag_152:\n        /* \"#utility.yul\":4305:4316   */\n      0x00\n        /* \"#utility.yul\":4339:4345   */\n      dup3\n        /* \"#utility.yul\":4334:4337   */\n      dup3\n        /* \"#utility.yul\":4327:4346   */\n      mstore\n        /* \"#utility.yul\":4379:4383   */\n      0x20\n        /* \"#utility.yul\":4374:4377   */\n      dup3\n        /* \"#utility.yul\":4370:4384   */\n      add\n        /* \"#utility.yul\":4355:4384   */\n      swap1\n      pop\n        /* \"#utility.yul\":4185:4390   */\n      swap3\n      swap2\n      pop\n      pop\n      jump\t// out\n        /* \"#utility.yul\":4396:4549   */\n    tag_153:\n        /* \"#utility.yul\":4484:4488   */\n      0x00\n        /* \"#utility.yul\":4507:4510   */\n      dup2\n        /* \"#utility.yul\":4499:4510   */\n      swap1\n      pop\n        /* \"#utility.yul\":4537:4541   */\n      0x20\n        /* \"#utility.yul\":4532:4535   */\n      dup3\n        /* \"#utility.yul\":4528:4542   */\n      add\n        /* \"#utility.yul\":4520:4542   */\n      swap1\n      pop\n        /* \"#utility.yul\":4396:4549   */\n      swap2\n      swap1\n      pop\n      jump\t// out\n        /* \"#utility.yul\":4555:4663   */\n    tag_154:\n        /* \"#utility.yul\":4632:4656   */\n      tag_254\n        /* \"#utility.yul\":4650:4655   */\n      dup2\n        /* \"#utility.yul\":4632:4656   */\n      tag_141\n      jump\t// in\n    tag_254:\n        /* \"#utility.yul\":4627:4630   */\n      dup3\n        /* \"#utility.yul\":4620:4657   */\n      mstore\n        /* \"#utility.yul\":4555:4663   */\n      pop\n      pop\n      jump\t// out\n        /* \"#utility.yul\":4669:4777   */\n    tag_155:\n        /* \"#utility.yul\":4746:4770   */\n      tag_256\n        /* \"#utility.yul\":4764:4769   */\n      dup2\n        /* \"#utility.yul\":4746:4770   */\n      tag_138\n      jump\t// in\n    tag_256:\n        /* \"#utility.yul\":4741:4744   */\n      dup3\n        /* \"#utility.yul\":4734:4771   */\n      mstore\n        /* \"#utility.yul\":4669:4777   */\n      pop\n      pop\n      jump\t// out\n        /* \"#utility.yul\":4783:4942   */\n    tag_156:\n        /* \"#utility.yul\":4857:4868   */\n      0x00\n        /* \"#utility.yul\":4891:4897   */\n      dup3\n        /* \"#utility.yul\":4886:4889   */\n      dup3\n        /* \"#utility.yul\":4879:4898   */\n      mstore\n        /* \"#utility.yul\":4931:4935   */\n      0x20\n        /* \"#utility.yul\":4926:4929   */\n      dup3\n        /* \"#utility.yul\":4922:4936   */\n      add\n        /* \"#utility.yul\":4907:4936   */\n      swap1\n      pop\n        /* \"#utility.yul\":4783:4942   */\n      swap3\n      swap2\n      pop\n      pop\n      jump\t// out\n        /* \"#utility.yul\":4948:5305   */\n    tag_157:\n        /* \"#utility.yul\":5026:5029   */\n      0x00\n        /* \"#utility.yul\":5054:5093   */\n      tag_259\n        /* \"#utility.yul\":5087:5092   */\n      dup3\n        /* \"#utility.yul\":5054:5093   */\n      tag_146\n      jump\t// in\n    tag_259:\n        /* \"#utility.yul\":5109:5170   */\n      tag_260\n        /* \"#utility.yul\":5163:5169   */\n      dup2\n        /* \"#utility.yul\":5158:5161   */\n      dup6\n        /* \"#utility.yul\":5109:5170   */\n      tag_156\n      jump\t// in\n    tag_260:\n        /* \"#utility.yul\":5102:5170   */\n      swap4\n      pop\n        /* \"#utility.yul\":5179:5244   */\n      tag_261\n        /* \"#utility.yul\":5237:5243   */\n      dup2\n        /* \"#utility.yul\":5232:5235   */\n      dup6\n        /* \"#utility.yul\":5225:5229   */\n      0x20\n        /* \"#utility.yul\":5218:5223   */\n      dup7\n        /* \"#utility.yul\":5214:5230   */\n      add\n        /* \"#utility.yul\":5179:5244   */\n      tag_148\n      jump\t// in\n    tag_261:\n        /* \"#utility.yul\":5269:5298   */\n      tag_262\n        /* \"#utility.yul\":5291:5297   */\n      dup2\n        /* \"#utility.yul\":5269:5298   */\n      tag_149\n      jump\t// in\n    tag_262:\n        /* \"#utility.yul\":5264:5267   */\n      dup5\n        /* \"#utility.yul\":5260:5299   */\n      add\n        /* \"#utility.yul\":5253:5299   */\n      swap2\n      pop\n        /* \"#utility.yul\":5030:5305   */\n      pop\n        /* \"#utility.yul\":4948:5305   */\n      swap3\n      swap2\n      pop\n      pop\n      jump\t// out\n        /* \"#utility.yul\":5363:6482   */\n    tag_158:\n        /* \"#utility.yul\":5464:5467   */\n      0x00\n        /* \"#utility.yul\":5500:5504   */\n      0xa0\n        /* \"#utility.yul\":5495:5498   */\n      dup4\n        /* \"#utility.yul\":5491:5505   */\n      add\n        /* \"#utility.yul\":5585:5589   */\n      0x00\n        /* \"#utility.yul\":5578:5583   */\n      dup4\n        /* \"#utility.yul\":5574:5590   */\n      add\n        /* \"#utility.yul\":5568:5591   */\n      mload\n        /* \"#utility.yul\":5604:5667   */\n      tag_264\n        /* \"#utility.yul\":5661:5665   */\n      0x00\n        /* \"#utility.yul\":5656:5659   */\n      dup7\n        /* \"#utility.yul\":5652:5666   */\n      add\n        /* \"#utility.yul\":5638:5650   */\n      dup3\n        /* \"#utility.yul\":5604:5667   */\n      tag_154\n      jump\t// in\n    tag_264:\n        /* \"#utility.yul\":5515:5677   */\n      pop\n        /* \"#utility.yul\":5761:5765   */\n      0x20\n        /* \"#utility.yul\":5754:5759   */\n      dup4\n        /* \"#utility.yul\":5750:5766   */\n      add\n        /* \"#utility.yul\":5744:5767   */\n      mload\n        /* \"#utility.yul\":5780:5843   */\n      tag_265\n        /* \"#utility.yul\":5837:5841   */\n      0x20\n        /* \"#utility.yul\":5832:5835   */\n      dup7\n        /* \"#utility.yul\":5828:5842   */\n      add\n        /* \"#utility.yul\":5814:5826   */\n      dup3\n        /* \"#utility.yul\":5780:5843   */\n      tag_155\n      jump\t// in\n    tag_265:\n        /* \"#utility.yul\":5687:5853   */\n      pop\n        /* \"#utility.yul\":5938:5942   */\n      0x40\n        /* \"#utility.yul\":5931:5936   */\n      dup4\n        /* \"#utility.yul\":5927:5943   */\n      add\n        /* \"#utility.yul\":5921:5944   */\n      mload\n        /* \"#utility.yul\":5991:5994   */\n      dup5\n        /* \"#utility.yul\":5985:5989   */\n      dup3\n        /* \"#utility.yul\":5981:5995   */\n      sub\n        /* \"#utility.yul\":5974:5978   */\n      0x40\n        /* \"#utility.yul\":5969:5972   */\n      dup7\n        /* \"#utility.yul\":5965:5979   */\n      add\n        /* \"#utility.yul\":5958:5996   */\n      mstore\n        /* \"#utility.yul\":6017:6090   */\n      tag_266\n        /* \"#utility.yul\":6085:6089   */\n      dup3\n        /* \"#utility.yul\":6071:6083   */\n      dup3\n        /* \"#utility.yul\":6017:6090   */\n      tag_157\n      jump\t// in\n    tag_266:\n        /* \"#utility.yul\":6009:6090   */\n      swap2\n      pop\n        /* \"#utility.yul\":5863:6101   */\n      pop\n        /* \"#utility.yul\":6188:6192   */\n      0x60\n        /* \"#utility.yul\":6181:6186   */\n      dup4\n        /* \"#utility.yul\":6177:6193   */\n      add\n        /* \"#utility.yul\":6171:6194   */\n      mload\n        /* \"#utility.yul\":6207:6270   */\n      tag_267\n        /* \"#utility.yul\":6264:6268   */\n      0x60\n        /* \"#utility.yul\":6259:6262   */\n      dup7\n        /* \"#utility.yul\":6255:6269   */\n      add\n        /* \"#utility.yul\":6241:6253   */\n      dup3\n        /* \"#utility.yul\":6207:6270   */\n      tag_154\n      jump\t// in\n    tag_267:\n        /* \"#utility.yul\":6111:6280   */\n      pop\n        /* \"#utility.yul\":6363:6367   */\n      0x80\n        /* \"#utility.yul\":6356:6361   */\n      dup4\n        /* \"#utility.yul\":6352:6368   */\n      add\n        /* \"#utility.yul\":6346:6369   */\n      mload\n        /* \"#utility.yul\":6382:6445   */\n      tag_268\n        /* \"#utility.yul\":6439:6443   */\n      0x80\n        /* \"#utility.yul\":6434:6437   */\n      dup7\n        /* \"#utility.yul\":6430:6444   */\n      add\n        /* \"#utility.yul\":6416:6428   */\n      dup3\n        /* \"#utility.yul\":6382:6445   */\n      tag_154\n      jump\t// in\n    tag_268:\n        /* \"#utility.yul\":6290:6455   */\n      pop\n        /* \"#utility.yul\":6472:6476   */\n      dup1\n        /* \"#utility.yul\":6465:6476   */\n      swap2\n      pop\n        /* \"#utility.yul\":5469:6482   */\n      pop\n        /* \"#utility.yul\":5363:6482   */\n      swap3\n      swap2\n      pop\n      pop\n      jump\t// out\n        /* \"#utility.yul\":6488:6728   */\n    tag_159:\n        /* \"#utility.yul\":6599:6609   */\n      0x00\n        /* \"#utility.yul\":6634:6722   */\n      tag_270\n        /* \"#utility.yul\":6718:6721   */\n      dup4\n        /* \"#utility.yul\":6710:6716   */\n      dup4\n        /* \"#utility.yul\":6634:6722   */\n      tag_158\n      jump\t// in\n    tag_270:\n        /* \"#utility.yul\":6620:6722   */\n      swap1\n      pop\n        /* \"#utility.yul\":6488:6728   */\n      swap3\n      swap2\n      pop\n      pop\n      jump\t// out\n        /* \"#utility.yul\":6734:6868   */\n    tag_160:\n        /* \"#utility.yul\":6825:6829   */\n      0x00\n        /* \"#utility.yul\":6857:6861   */\n      0x20\n        /* \"#utility.yul\":6852:6855   */\n      dup3\n        /* \"#utility.yul\":6848:6862   */\n      add\n        /* \"#utility.yul\":6840:6862   */\n      swap1\n      pop\n        /* \"#utility.yul\":6734:6868   */\n      swap2\n      swap1\n      pop\n      jump\t// out\n        /* \"#utility.yul\":6930:8009   */\n    tag_161:\n        /* \"#utility.yul\":7091:7094   */\n      0x00\n        /* \"#utility.yul\":7120:7195   */\n      tag_273\n        /* \"#utility.yul\":7189:7194   */\n      dup3\n        /* \"#utility.yul\":7120:7195   */\n      tag_151\n      jump\t// in\n    tag_273:\n        /* \"#utility.yul\":7211:7318   */\n      tag_274\n        /* \"#utility.yul\":7311:7317   */\n      dup2\n        /* \"#utility.yul\":7306:7309   */\n      dup6\n        /* \"#utility.yul\":7211:7318   */\n      tag_152\n      jump\t// in\n    tag_274:\n        /* \"#utility.yul\":7204:7318   */\n      swap4\n      pop\n        /* \"#utility.yul\":7344:7347   */\n      dup4\n        /* \"#utility.yul\":7389:7393   */\n      0x20\n        /* \"#utility.yul\":7381:7387   */\n      dup3\n        /* \"#utility.yul\":7377:7394   */\n      mul\n        /* \"#utility.yul\":7372:7375   */\n      dup6\n        /* \"#utility.yul\":7368:7395   */\n      add\n        /* \"#utility.yul\":7419:7496   */\n      tag_275\n        /* \"#utility.yul\":7490:7495   */\n      dup6\n        /* \"#utility.yul\":7419:7496   */\n      tag_153\n      jump\t// in\n    tag_275:\n        /* \"#utility.yul\":7519:7526   */\n      dup1\n        /* \"#utility.yul\":7550:7551   */\n      0x00\n        /* \"#utility.yul\":7535:7964   */\n    tag_276:\n        /* \"#utility.yul\":7560:7566   */\n      dup6\n        /* \"#utility.yul\":7557:7558   */\n      dup2\n        /* \"#utility.yul\":7554:7567   */\n      lt\n        /* \"#utility.yul\":7535:7964   */\n      iszero\n      tag_278\n      jumpi\n        /* \"#utility.yul\":7631:7640   */\n      dup5\n        /* \"#utility.yul\":7625:7629   */\n      dup5\n        /* \"#utility.yul\":7621:7641   */\n      sub\n        /* \"#utility.yul\":7616:7619   */\n      dup10\n        /* \"#utility.yul\":7609:7642   */\n      mstore\n        /* \"#utility.yul\":7682:7688   */\n      dup2\n        /* \"#utility.yul\":7676:7689   */\n      mload\n        /* \"#utility.yul\":7710:7816   */\n      tag_279\n        /* \"#utility.yul\":7811:7815   */\n      dup6\n        /* \"#utility.yul\":7796:7809   */\n      dup3\n        /* \"#utility.yul\":7710:7816   */\n      tag_159\n      jump\t// in\n    tag_279:\n        /* \"#utility.yul\":7702:7816   */\n      swap5\n      pop\n        /* \"#utility.yul\":7839:7920   */\n      tag_280\n        /* \"#utility.yul\":7913:7919   */\n      dup4\n        /* \"#utility.yul\":7839:7920   */\n      tag_160\n      jump\t// in\n    tag_280:\n        /* \"#utility.yul\":7829:7920   */\n      swap3\n      pop\n        /* \"#utility.yul\":7949:7953   */\n      0x20\n        /* \"#utility.yul\":7944:7947   */\n      dup11\n        /* \"#utility.yul\":7940:7954   */\n      add\n        /* \"#utility.yul\":7933:7954   */\n      swap10\n      pop\n        /* \"#utility.yul\":7595:7964   */\n      pop\n        /* \"#utility.yul\":7582:7583   */\n      0x01\n        /* \"#utility.yul\":7579:7580   */\n      dup2\n        /* \"#utility.yul\":7575:7584   */\n      add\n        /* \"#utility.yul\":7570:7584   */\n      swap1\n      pop\n        /* \"#utility.yul\":7535:7964   */\n      jump(tag_276)\n    tag_278:\n        /* \"#utility.yul\":7539:7553   */\n      pop\n        /* \"#utility.yul\":7980:7984   */\n      dup3\n        /* \"#utility.yul\":7973:7984   */\n      swap8\n      pop\n        /* \"#utility.yul\":8000:8003   */\n      dup8\n        /* \"#utility.yul\":7993:8003   */\n      swap6\n      pop\n        /* \"#utility.yul\":7096:8009   */\n      pop\n      pop\n      pop\n      pop\n      pop\n        /* \"#utility.yul\":6930:8009   */\n      swap3\n      swap2\n      pop\n      pop\n      jump\t// out\n        /* \"#utility.yul\":8015:8472   */\n    tag_24:\n        /* \"#utility.yul\":8200:8204   */\n      0x00\n        /* \"#utility.yul\":8238:8240   */\n      0x20\n        /* \"#utility.yul\":8227:8236   */\n      dup3\n        /* \"#utility.yul\":8223:8241   */\n      add\n        /* \"#utility.yul\":8215:8241   */\n      swap1\n      pop\n        /* \"#utility.yul\":8287:8296   */\n      dup2\n        /* \"#utility.yul\":8281:8285   */\n      dup2\n        /* \"#utility.yul\":8277:8297   */\n      sub\n        /* \"#utility.yul\":8273:8274   */\n      0x00\n        /* \"#utility.yul\":8262:8271   */\n      dup4\n        /* \"#utility.yul\":8258:8275   */\n      add\n        /* \"#utility.yul\":8251:8298   */\n      mstore\n        /* \"#utility.yul\":8315:8465   */\n      tag_282\n        /* \"#utility.yul\":8460:8464   */\n      dup2\n        /* \"#utility.yul\":8451:8457   */\n      dup5\n        /* \"#utility.yul\":8315:8465   */\n      tag_161\n      jump\t// in\n    tag_282:\n        /* \"#utility.yul\":8307:8465   */\n      swap1\n      pop\n        /* \"#utility.yul\":8015:8472   */\n      swap3\n      swap2\n      pop\n      pop\n      jump\t// out\n        /* \"#utility.yul\":8478:8567   */\n    tag_162:\n        /* \"#utility.yul\":8514:8521   */\n      0x00\n        /* \"#utility.yul\":8554:8560   */\n      0xffff\n        /* \"#utility.yul\":8547:8552   */\n      dup3\n        /* \"#utility.yul\":8543:8561   */\n      and\n        /* \"#utility.yul\":8532:8561   */\n      swap1\n      pop\n        /* \"#utility.yul\":8478:8567   */\n      swap2\n      swap1\n      pop\n      jump\t// out\n        /* \"#utility.yul\":8573:8693   */\n    tag_163:\n        /* \"#utility.yul\":8645:8668   */\n      tag_285\n        /* \"#utility.yul\":8662:8667   */\n      dup2\n        /* \"#utility.yul\":8645:8668   */\n      tag_162\n      jump\t// in\n    tag_285:\n        /* \"#utility.yul\":8638:8643   */\n      dup2\n        /* \"#utility.yul\":8635:8669   */\n      eq\n        /* \"#utility.yul\":8625:8687   */\n      tag_286\n      jumpi\n        /* \"#utility.yul\":8683:8684   */\n      0x00\n        /* \"#utility.yul\":8680:8681   */\n      dup1\n        /* \"#utility.yul\":8673:8685   */\n      revert\n        /* \"#utility.yul\":8625:8687   */\n    tag_286:\n        /* \"#utility.yul\":8573:8693   */\n      pop\n      jump\t// out\n        /* \"#utility.yul\":8699:8836   */\n    tag_164:\n        /* \"#utility.yul\":8744:8749   */\n      0x00\n        /* \"#utility.yul\":8782:8788   */\n      dup2\n        /* \"#utility.yul\":8769:8789   */\n      calldataload\n        /* \"#utility.yul\":8760:8789   */\n      swap1\n      pop\n        /* \"#utility.yul\":8798:8830   */\n      tag_288\n        /* \"#utility.yul\":8824:8829   */\n      dup2\n        /* \"#utility.yul\":8798:8830   */\n      tag_163\n      jump\t// in\n    tag_288:\n        /* \"#utility.yul\":8699:8836   */\n      swap3\n      swap2\n      pop\n      pop\n      jump\t// out\n        /* \"#utility.yul\":8842:9169   */\n    tag_30:\n        /* \"#utility.yul\":8900:8906   */\n      0x00\n        /* \"#utility.yul\":8949:8951   */\n      0x20\n        /* \"#utility.yul\":8937:8946   */\n      dup3\n        /* \"#utility.yul\":8928:8935   */\n      dup5\n        /* \"#utility.yul\":8924:8947   */\n      sub\n        /* \"#utility.yul\":8920:8952   */\n      slt\n        /* \"#utility.yul\":8917:9036   */\n      iszero\n      tag_290\n      jumpi\n        /* \"#utility.yul\":8955:9034   */\n      tag_291\n      tag_135\n      jump\t// in\n    tag_291:\n        /* \"#utility.yul\":8917:9036   */\n    tag_290:\n        /* \"#utility.yul\":9075:9076   */\n      0x00\n        /* \"#utility.yul\":9100:9152   */\n      tag_292\n        /* \"#utility.yul\":9144:9151   */\n      dup5\n        /* \"#utility.yul\":9135:9141   */\n      dup3\n        /* \"#utility.yul\":9124:9133   */\n      dup6\n        /* \"#utility.yul\":9120:9142   */\n      add\n        /* \"#utility.yul\":9100:9152   */\n      tag_164\n      jump\t// in\n    tag_292:\n        /* \"#utility.yul\":9090:9152   */\n      swap2\n      pop\n        /* \"#utility.yul\":9046:9162   */\n      pop\n        /* \"#utility.yul\":8842:9169   */\n      swap3\n      swap2\n      pop\n      pop\n      jump\t// out\n        /* \"#utility.yul\":9175:9290   */\n    tag_165:\n        /* \"#utility.yul\":9260:9283   */\n      tag_294\n        /* \"#utility.yul\":9277:9282   */\n      dup2\n        /* \"#utility.yul\":9260:9283   */\n      tag_162\n      jump\t// in\n    tag_294:\n        /* \"#utility.yul\":9255:9258   */\n      dup3\n        /* \"#utility.yul\":9248:9284   */\n      mstore\n        /* \"#utility.yul\":9175:9290   */\n      pop\n      pop\n      jump\t// out\n        /* \"#utility.yul\":9296:9514   */\n    tag_38:\n        /* \"#utility.yul\":9387:9391   */\n      0x00\n        /* \"#utility.yul\":9425:9427   */\n      0x20\n        /* \"#utility.yul\":9414:9423   */\n      dup3\n        /* \"#utility.yul\":9410:9428   */\n      add\n        /* \"#utility.yul\":9402:9428   */\n      swap1\n      pop\n        /* \"#utility.yul\":9438:9507   */\n      tag_296\n        /* \"#utility.yul\":9504:9505   */\n      0x00\n        /* \"#utility.yul\":9493:9502   */\n      dup4\n        /* \"#utility.yul\":9489:9506   */\n      add\n        /* \"#utility.yul\":9480:9486   */\n      dup5\n        /* \"#utility.yul\":9438:9507   */\n      tag_165\n      jump\t// in\n    tag_296:\n        /* \"#utility.yul\":9296:9514   */\n      swap3\n      swap2\n      pop\n      pop\n      jump\t// out\n        /* \"#utility.yul\":9520:9637   */\n    tag_166:\n        /* \"#utility.yul\":9629:9630   */\n      0x00\n        /* \"#utility.yul\":9626:9627   */\n      dup1\n        /* \"#utility.yul\":9619:9631   */\n      revert\n        /* \"#utility.yul\":9643:9760   */\n    tag_167:\n        /* \"#utility.yul\":9752:9753   */\n      0x00\n        /* \"#utility.yul\":9749:9750   */\n      dup1\n        /* \"#utility.yul\":9742:9754   */\n      revert\n        /* \"#utility.yul\":9766:9946   */\n    tag_168:\n        /* \"#utility.yul\":9814:9891   */\n      0x4e487b7100000000000000000000000000000000000000000000000000000000\n        /* \"#utility.yul\":9811:9812   */\n      0x00\n        /* \"#utility.yul\":9804:9892   */\n      mstore\n        /* \"#utility.yul\":9911:9915   */\n      0x41\n        /* \"#utility.yul\":9908:9909   */\n      0x04\n        /* \"#utility.yul\":9901:9916   */\n      mstore\n        /* \"#utility.yul\":9935:9939   */\n      0x24\n        /* \"#utility.yul\":9932:9933   */\n      0x00\n        /* \"#utility.yul\":9925:9940   */\n      revert\n        /* \"#utility.yul\":9952:10233   */\n    tag_169:\n        /* \"#utility.yul\":10035:10062   */\n      tag_301\n        /* \"#utility.yul\":10057:10061   */\n      dup3\n        /* \"#utility.yul\":10035:10062   */\n      tag_149\n      jump\t// in\n    tag_301:\n        /* \"#utility.yul\":10027:10033   */\n      dup2\n        /* \"#utility.yul\":10023:10063   */\n      add\n        /* \"#utility.yul\":10165:10171   */\n      dup2\n        /* \"#utility.yul\":10153:10163   */\n      dup2\n        /* \"#utility.yul\":10150:10172   */\n      lt\n        /* \"#utility.yul\":10129:10147   */\n      0xffffffffffffffff\n        /* \"#utility.yul\":10117:10127   */\n      dup3\n        /* \"#utility.yul\":10114:10148   */\n      gt\n        /* \"#utility.yul\":10111:10173   */\n      or\n        /* \"#utility.yul\":10108:10196   */\n      iszero\n      tag_302\n      jumpi\n        /* \"#utility.yul\":10176:10194   */\n      tag_303\n      tag_168\n      jump\t// in\n    tag_303:\n        /* \"#utility.yul\":10108:10196   */\n    tag_302:\n        /* \"#utility.yul\":10216:10226   */\n      dup1\n        /* \"#utility.yul\":10212:10214   */\n      0x40\n        /* \"#utility.yul\":10205:10227   */\n      mstore\n        /* \"#utility.yul\":9995:10233   */\n      pop\n        /* \"#utility.yul\":9952:10233   */\n      pop\n      pop\n      jump\t// out\n        /* \"#utility.yul\":10239:10368   */\n    tag_170:\n        /* \"#utility.yul\":10273:10279   */\n      0x00\n        /* \"#utility.yul\":10300:10320   */\n      tag_305\n      tag_134\n      jump\t// in\n    tag_305:\n        /* \"#utility.yul\":10290:10320   */\n      swap1\n      pop\n        /* \"#utility.yul\":10329:10362   */\n      tag_306\n        /* \"#utility.yul\":10357:10361   */\n      dup3\n        /* \"#utility.yul\":10349:10355   */\n      dup3\n        /* \"#utility.yul\":10329:10362   */\n      tag_169\n      jump\t// in\n    tag_306:\n        /* \"#utility.yul\":10239:10368   */\n      swap2\n      swap1\n      pop\n      jump\t// out\n        /* \"#utility.yul\":10374:10682   */\n    tag_171:\n        /* \"#utility.yul\":10436:10440   */\n      0x00\n        /* \"#utility.yul\":10526:10544   */\n      0xffffffffffffffff\n        /* \"#utility.yul\":10518:10524   */\n      dup3\n        /* \"#utility.yul\":10515:10545   */\n      gt\n        /* \"#utility.yul\":10512:10568   */\n      iszero\n      tag_308\n      jumpi\n        /* \"#utility.yul\":10548:10566   */\n      tag_309\n      tag_168\n      jump\t// in\n    tag_309:\n        /* \"#utility.yul\":10512:10568   */\n    tag_308:\n        /* \"#utility.yul\":10586:10615   */\n      tag_310\n        /* \"#utility.yul\":10608:10614   */\n      dup3\n        /* \"#utility.yul\":10586:10615   */\n      tag_149\n      jump\t// in\n    tag_310:\n        /* \"#utility.yul\":10578:10615   */\n      swap1\n      pop\n        /* \"#utility.yul\":10670:10674   */\n      0x20\n        /* \"#utility.yul\":10664:10668   */\n      dup2\n        /* \"#utility.yul\":10660:10675   */\n      add\n        /* \"#utility.yul\":10652:10675   */\n      swap1\n      pop\n        /* \"#utility.yul\":10374:10682   */\n      swap2\n      swap1\n      pop\n      jump\t// out\n        /* \"#utility.yul\":10688:10834   */\n    tag_172:\n        /* \"#utility.yul\":10785:10791   */\n      dup3\n        /* \"#utility.yul\":10780:10783   */\n      dup2\n        /* \"#utility.yul\":10775:10778   */\n      dup4\n        /* \"#utility.yul\":10762:10792   */\n      calldatacopy\n        /* \"#utility.yul\":10826:10827   */\n      0x00\n        /* \"#utility.yul\":10817:10823   */\n      dup4\n        /* \"#utility.yul\":10812:10815   */\n      dup4\n        /* \"#utility.yul\":10808:10824   */\n      add\n        /* \"#utility.yul\":10801:10828   */\n      mstore\n        /* \"#utility.yul\":10688:10834   */\n      pop\n      pop\n      pop\n      jump\t// out\n        /* \"#utility.yul\":10840:11265   */\n    tag_173:\n        /* \"#utility.yul\":10918:10923   */\n      0x00\n        /* \"#utility.yul\":10943:11009   */\n      tag_313\n        /* \"#utility.yul\":10959:11008   */\n      tag_314\n        /* \"#utility.yul\":11001:11007   */\n      dup5\n        /* \"#utility.yul\":10959:11008   */\n      tag_171\n      jump\t// in\n    tag_314:\n        /* \"#utility.yul\":10943:11009   */\n      tag_170\n      jump\t// in\n    tag_313:\n        /* \"#utility.yul\":10934:11009   */\n      swap1\n      pop\n        /* \"#utility.yul\":11032:11038   */\n      dup3\n        /* \"#utility.yul\":11025:11030   */\n      dup2\n        /* \"#utility.yul\":11018:11039   */\n      mstore\n        /* \"#utility.yul\":11070:11074   */\n      0x20\n        /* \"#utility.yul\":11063:11068   */\n      dup2\n        /* \"#utility.yul\":11059:11075   */\n      add\n        /* \"#utility.yul\":11108:11111   */\n      dup5\n        /* \"#utility.yul\":11099:11105   */\n      dup5\n        /* \"#utility.yul\":11094:11097   */\n      dup5\n        /* \"#utility.yul\":11090:11106   */\n      add\n        /* \"#utility.yul\":11087:11112   */\n      gt\n        /* \"#utility.yul\":11084:11196   */\n      iszero\n      tag_315\n      jumpi\n        /* \"#utility.yul\":11115:11194   */\n      tag_316\n      tag_167\n      jump\t// in\n    tag_316:\n        /* \"#utility.yul\":11084:11196   */\n    tag_315:\n        /* \"#utility.yul\":11205:11259   */\n      tag_317\n        /* \"#utility.yul\":11252:11258   */\n      dup5\n        /* \"#utility.yul\":11247:11250   */\n      dup3\n        /* \"#utility.yul\":11242:11245   */\n      dup6\n        /* \"#utility.yul\":11205:11259   */\n      tag_172\n      jump\t// in\n    tag_317:\n        /* \"#utility.yul\":10924:11265   */\n      pop\n        /* \"#utility.yul\":10840:11265   */\n      swap4\n      swap3\n      pop\n      pop\n      pop\n      jump\t// out\n        /* \"#utility.yul\":11285:11625   */\n    tag_174:\n        /* \"#utility.yul\":11341:11346   */\n      0x00\n        /* \"#utility.yul\":11390:11393   */\n      dup3\n        /* \"#utility.yul\":11383:11387   */\n      0x1f\n        /* \"#utility.yul\":11375:11381   */\n      dup4\n        /* \"#utility.yul\":11371:11388   */\n      add\n        /* \"#utility.yul\":11367:11394   */\n      slt\n        /* \"#utility.yul\":11357:11479   */\n      tag_319\n      jumpi\n        /* \"#utility.yul\":11398:11477   */\n      tag_320\n      tag_166\n      jump\t// in\n    tag_320:\n        /* \"#utility.yul\":11357:11479   */\n    tag_319:\n        /* \"#utility.yul\":11515:11521   */\n      dup2\n        /* \"#utility.yul\":11502:11522   */\n      calldataload\n        /* \"#utility.yul\":11540:11619   */\n      tag_321\n        /* \"#utility.yul\":11615:11618   */\n      dup5\n        /* \"#utility.yul\":11607:11613   */\n      dup3\n        /* \"#utility.yul\":11600:11604   */\n      0x20\n        /* \"#utility.yul\":11592:11598   */\n      dup7\n        /* \"#utility.yul\":11588:11605   */\n      add\n        /* \"#utility.yul\":11540:11619   */\n      tag_173\n      jump\t// in\n    tag_321:\n        /* \"#utility.yul\":11531:11619   */\n      swap2\n      pop\n        /* \"#utility.yul\":11347:11625   */\n      pop\n        /* \"#utility.yul\":11285:11625   */\n      swap3\n      swap2\n      pop\n      pop\n      jump\t// out\n        /* \"#utility.yul\":11631:12140   */\n    tag_41:\n        /* \"#utility.yul\":11700:11706   */\n      0x00\n        /* \"#utility.yul\":11749:11751   */\n      0x20\n        /* \"#utility.yul\":11737:11746   */\n      dup3\n        /* \"#utility.yul\":11728:11735   */\n      dup5\n        /* \"#utility.yul\":11724:11747   */\n      sub\n        /* \"#utility.yul\":11720:11752   */\n      slt\n        /* \"#utility.yul\":11717:11836   */\n      iszero\n      tag_323\n      jumpi\n        /* \"#utility.yul\":11755:11834   */\n      tag_324\n      tag_135\n      jump\t// in\n    tag_324:\n        /* \"#utility.yul\":11717:11836   */\n    tag_323:\n        /* \"#utility.yul\":11903:11904   */\n      0x00\n        /* \"#utility.yul\":11892:11901   */\n      dup3\n        /* \"#utility.yul\":11888:11905   */\n      add\n        /* \"#utility.yul\":11875:11906   */\n      calldataload\n        /* \"#utility.yul\":11933:11951   */\n      0xffffffffffffffff\n        /* \"#utility.yul\":11925:11931   */\n      dup2\n        /* \"#utility.yul\":11922:11952   */\n      gt\n        /* \"#utility.yul\":11919:12036   */\n      iszero\n      tag_325\n      jumpi\n        /* \"#utility.yul\":11955:12034   */\n      tag_326\n      tag_136\n      jump\t// in\n    tag_326:\n        /* \"#utility.yul\":11919:12036   */\n    tag_325:\n        /* \"#utility.yul\":12060:12123   */\n      tag_327\n        /* \"#utility.yul\":12115:12122   */\n      dup5\n        /* \"#utility.yul\":12106:12112   */\n      dup3\n        /* \"#utility.yul\":12095:12104   */\n      dup6\n        /* \"#utility.yul\":12091:12113   */\n      add\n        /* \"#utility.yul\":12060:12123   */\n      tag_174\n      jump\t// in\n    tag_327:\n        /* \"#utility.yul\":12050:12123   */\n      swap2\n      pop\n        /* \"#utility.yul\":11846:12133   */\n      pop\n        /* \"#utility.yul\":11631:12140   */\n      swap3\n      swap2\n      pop\n      pop\n      jump\t// out\n        /* \"#utility.yul\":12146:12368   */\n    tag_46:\n        /* \"#utility.yul\":12239:12243   */\n      0x00\n        /* \"#utility.yul\":12277:12279   */\n      0x20\n        /* \"#utility.yul\":12266:12275   */\n      dup3\n        /* \"#utility.yul\":12262:12280   */\n      add\n        /* \"#utility.yul\":12254:12280   */\n      swap1\n      pop\n        /* \"#utility.yul\":12290:12361   */\n      tag_329\n        /* \"#utility.yul\":12358:12359   */\n      0x00\n        /* \"#utility.yul\":12347:12356   */\n      dup4\n        /* \"#utility.yul\":12343:12360   */\n      add\n        /* \"#utility.yul\":12334:12340   */\n      dup5\n        /* \"#utility.yul\":12290:12361   */\n      tag_145\n      jump\t// in\n    tag_329:\n        /* \"#utility.yul\":12146:12368   */\n      swap3\n      swap2\n      pop\n      pop\n      jump\t// out\n        /* \"#utility.yul\":12374:12703   */\n    tag_49:\n        /* \"#utility.yul\":12433:12439   */\n      0x00\n        /* \"#utility.yul\":12482:12484   */\n      0x20\n        /* \"#utility.yul\":12470:12479   */\n      dup3\n        /* \"#utility.yul\":12461:12468   */\n      dup5\n        /* \"#utility.yul\":12457:12480   */\n      sub\n        /* \"#utility.yul\":12453:12485   */\n      slt\n        /* \"#utility.yul\":12450:12569   */\n      iszero\n      tag_331\n      jumpi\n        /* \"#utility.yul\":12488:12567   */\n      tag_332\n      tag_135\n      jump\t// in\n    tag_332:\n        /* \"#utility.yul\":12450:12569   */\n    tag_331:\n        /* \"#utility.yul\":12608:12609   */\n      0x00\n        /* \"#utility.yul\":12633:12686   */\n      tag_333\n        /* \"#utility.yul\":12678:12685   */\n      dup5\n        /* \"#utility.yul\":12669:12675   */\n      dup3\n        /* \"#utility.yul\":12658:12667   */\n      dup6\n        /* \"#utility.yul\":12654:12676   */\n      add\n        /* \"#utility.yul\":12633:12686   */\n      tag_143\n      jump\t// in\n    tag_333:\n        /* \"#utility.yul\":12623:12686   */\n      swap2\n      pop\n        /* \"#utility.yul\":12579:12696   */\n      pop\n        /* \"#utility.yul\":12374:12703   */\n      swap3\n      swap2\n      pop\n      pop\n      jump\t// out\n        /* \"#utility.yul\":12761:13890   */\n    tag_175:\n        /* \"#utility.yul\":12872:12875   */\n      0x00\n        /* \"#utility.yul\":12908:12912   */\n      0xa0\n        /* \"#utility.yul\":12903:12906   */\n      dup4\n        /* \"#utility.yul\":12899:12913   */\n      add\n        /* \"#utility.yul\":12993:12997   */\n      0x00\n        /* \"#utility.yul\":12986:12991   */\n      dup4\n        /* \"#utility.yul\":12982:12998   */\n      add\n        /* \"#utility.yul\":12976:12999   */\n      mload\n        /* \"#utility.yul\":13012:13075   */\n      tag_335\n        /* \"#utility.yul\":13069:13073   */\n      0x00\n        /* \"#utility.yul\":13064:13067   */\n      dup7\n        /* \"#utility.yul\":13060:13074   */\n      add\n        /* \"#utility.yul\":13046:13058   */\n      dup3\n        /* \"#utility.yul\":13012:13075   */\n      tag_154\n      jump\t// in\n    tag_335:\n        /* \"#utility.yul\":12923:13085   */\n      pop\n        /* \"#utility.yul\":13169:13173   */\n      0x20\n        /* \"#utility.yul\":13162:13167   */\n      dup4\n        /* \"#utility.yul\":13158:13174   */\n      add\n        /* \"#utility.yul\":13152:13175   */\n      mload\n        /* \"#utility.yul\":13188:13251   */\n      tag_336\n        /* \"#utility.yul\":13245:13249   */\n      0x20\n        /* \"#utility.yul\":13240:13243   */\n      dup7\n        /* \"#utility.yul\":13236:13250   */\n      add\n        /* \"#utility.yul\":13222:13234   */\n      dup3\n        /* \"#utility.yul\":13188:13251   */\n      tag_155\n      jump\t// in\n    tag_336:\n        /* \"#utility.yul\":13095:13261   */\n      pop\n        /* \"#utility.yul\":13346:13350   */\n      0x40\n        /* \"#utility.yul\":13339:13344   */\n      dup4\n        /* \"#utility.yul\":13335:13351   */\n      add\n        /* \"#utility.yul\":13329:13352   */\n      mload\n        /* \"#utility.yul\":13399:13402   */\n      dup5\n        /* \"#utility.yul\":13393:13397   */\n      dup3\n        /* \"#utility.yul\":13389:13403   */\n      sub\n        /* \"#utility.yul\":13382:13386   */\n      0x40\n        /* \"#utility.yul\":13377:13380   */\n      dup7\n        /* \"#utility.yul\":13373:13387   */\n      add\n        /* \"#utility.yul\":13366:13404   */\n      mstore\n        /* \"#utility.yul\":13425:13498   */\n      tag_337\n        /* \"#utility.yul\":13493:13497   */\n      dup3\n        /* \"#utility.yul\":13479:13491   */\n      dup3\n        /* \"#utility.yul\":13425:13498   */\n      tag_157\n      jump\t// in\n    tag_337:\n        /* \"#utility.yul\":13417:13498   */\n      swap2\n      pop\n        /* \"#utility.yul\":13271:13509   */\n      pop\n        /* \"#utility.yul\":13596:13600   */\n      0x60\n        /* \"#utility.yul\":13589:13594   */\n      dup4\n        /* \"#utility.yul\":13585:13601   */\n      add\n        /* \"#utility.yul\":13579:13602   */\n      mload\n        /* \"#utility.yul\":13615:13678   */\n      tag_338\n        /* \"#utility.yul\":13672:13676   */\n      0x60\n        /* \"#utility.yul\":13667:13670   */\n      dup7\n        /* \"#utility.yul\":13663:13677   */\n      add\n        /* \"#utility.yul\":13649:13661   */\n      dup3\n        /* \"#utility.yul\":13615:13678   */\n      tag_154\n      jump\t// in\n    tag_338:\n        /* \"#utility.yul\":13519:13688   */\n      pop\n        /* \"#utility.yul\":13771:13775   */\n      0x80\n        /* \"#utility.yul\":13764:13769   */\n      dup4\n        /* \"#utility.yul\":13760:13776   */\n      add\n        /* \"#utility.yul\":13754:13777   */\n      mload\n        /* \"#utility.yul\":13790:13853   */\n      tag_339\n        /* \"#utility.yul\":13847:13851   */\n      0x80\n        /* \"#utility.yul\":13842:13845   */\n      dup7\n        /* \"#utility.yul\":13838:13852   */\n      add\n        /* \"#utility.yul\":13824:13836   */\n      dup3\n        /* \"#utility.yul\":13790:13853   */\n      tag_154\n      jump\t// in\n    tag_339:\n        /* \"#utility.yul\":13698:13863   */\n      pop\n        /* \"#utility.yul\":13880:13884   */\n      dup1\n        /* \"#utility.yul\":13873:13884   */\n      swap2\n      pop\n        /* \"#utility.yul\":12877:13890   */\n      pop\n        /* \"#utility.yul\":12761:13890   */\n      swap3\n      swap2\n      pop\n      pop\n      jump\t// out\n        /* \"#utility.yul\":13896:14253   */\n    tag_52:\n        /* \"#utility.yul\":14031:14035   */\n      0x00\n        /* \"#utility.yul\":14069:14071   */\n      0x20\n        /* \"#utility.yul\":14058:14067   */\n      dup3\n        /* \"#utility.yul\":14054:14072   */\n      add\n        /* \"#utility.yul\":14046:14072   */\n      swap1\n      pop\n        /* \"#utility.yul\":14118:14127   */\n      dup2\n        /* \"#utility.yul\":14112:14116   */\n      dup2\n        /* \"#utility.yul\":14108:14128   */\n      sub\n        /* \"#utility.yul\":14104:14105   */\n      0x00\n        /* \"#utility.yul\":14093:14102   */\n      dup4\n        /* \"#utility.yul\":14089:14106   */\n      add\n        /* \"#utility.yul\":14082:14129   */\n      mstore\n        /* \"#utility.yul\":14146:14246   */\n      tag_341\n        /* \"#utility.yul\":14241:14245   */\n      dup2\n        /* \"#utility.yul\":14232:14238   */\n      dup5\n        /* \"#utility.yul\":14146:14246   */\n      tag_175\n      jump\t// in\n    tag_341:\n        /* \"#utility.yul\":14138:14246   */\n      swap1\n      pop\n        /* \"#utility.yul\":13896:14253   */\n      swap3\n      swap2\n      pop\n      pop\n      jump\t// out\n        /* \"#utility.yul\":14259:14439   */\n    tag_176:\n        /* \"#utility.yul\":14307:14384   */\n      0x4e487b7100000000000000000000000000000000000000000000000000000000\n        /* \"#utility.yul\":14304:14305   */\n      0x00\n        /* \"#utility.yul\":14297:14385   */\n      mstore\n        /* \"#utility.yul\":14404:14408   */\n      0x22\n        /* \"#utility.yul\":14401:14402   */\n      0x04\n        /* \"#utility.yul\":14394:14409   */\n      mstore\n        /* \"#utility.yul\":14428:14432   */\n      0x24\n        /* \"#utility.yul\":14425:14426   */\n      0x00\n        /* \"#utility.yul\":14418:14433   */\n      revert\n        /* \"#utility.yul\":14445:14765   */\n    tag_56:\n        /* \"#utility.yul\":14489:14495   */\n      0x00\n        /* \"#utility.yul\":14526:14527   */\n      0x02\n        /* \"#utility.yul\":14520:14524   */\n      dup3\n        /* \"#utility.yul\":14516:14528   */\n      div\n        /* \"#utility.yul\":14506:14528   */\n      swap1\n      pop\n        /* \"#utility.yul\":14573:14574   */\n      0x01\n        /* \"#utility.yul\":14567:14571   */\n      dup3\n        /* \"#utility.yul\":14563:14575   */\n      and\n        /* \"#utility.yul\":14594:14612   */\n      dup1\n        /* \"#utility.yul\":14584:14665   */\n      tag_344\n      jumpi\n        /* \"#utility.yul\":14650:14654   */\n      0x7f\n        /* \"#utility.yul\":14642:14648   */\n      dup3\n        /* \"#utility.yul\":14638:14655   */\n      and\n        /* \"#utility.yul\":14628:14655   */\n      swap2\n      pop\n        /* \"#utility.yul\":14584:14665   */\n    tag_344:\n        /* \"#utility.yul\":14712:14714   */\n      0x20\n        /* \"#utility.yul\":14704:14710   */\n      dup3\n        /* \"#utility.yul\":14701:14715   */\n      lt\n        /* \"#utility.yul\":14681:14699   */\n      dup2\n        /* \"#utility.yul\":14678:14716   */\n      sub\n        /* \"#utility.yul\":14675:14759   */\n      tag_345\n      jumpi\n        /* \"#utility.yul\":14731:14749   */\n      tag_346\n      tag_176\n      jump\t// in\n    tag_346:\n        /* \"#utility.yul\":14675:14759   */\n    tag_345:\n        /* \"#utility.yul\":14496:14765   */\n      pop\n        /* \"#utility.yul\":14445:14765   */\n      swap2\n      swap1\n      pop\n      jump\t// out\n        /* \"#utility.yul\":14771:14951   */\n    tag_73:\n        /* \"#utility.yul\":14819:14896   */\n      0x4e487b7100000000000000000000000000000000000000000000000000000000\n        /* \"#utility.yul\":14816:14817   */\n      0x00\n        /* \"#utility.yul\":14809:14897   */\n      mstore\n        /* \"#utility.yul\":14916:14920   */\n      0x32\n        /* \"#utility.yul\":14913:14914   */\n      0x04\n        /* \"#utility.yul\":14906:14921   */\n      mstore\n        /* \"#utility.yul\":14940:14944   */\n      0x24\n        /* \"#utility.yul\":14937:14938   */\n      0x00\n        /* \"#utility.yul\":14930:14945   */\n      revert\n        /* \"#utility.yul\":14957:15127   */\n    tag_177:\n        /* \"#utility.yul\":15097:15119   */\n      0x545745455420444f4553204e4f54204558495354000000000000000000000000\n        /* \"#utility.yul\":15093:15094   */\n      0x00\n        /* \"#utility.yul\":15085:15091   */\n      dup3\n        /* \"#utility.yul\":15081:15095   */\n      add\n        /* \"#utility.yul\":15074:15120   */\n      mstore\n        /* \"#utility.yul\":14957:15127   */\n      pop\n      jump\t// out\n        /* \"#utility.yul\":15133:15499   */\n    tag_178:\n        /* \"#utility.yul\":15275:15278   */\n      0x00\n        /* \"#utility.yul\":15296:15363   */\n      tag_350\n        /* \"#utility.yul\":15360:15362   */\n      0x14\n        /* \"#utility.yul\":15355:15358   */\n      dup4\n        /* \"#utility.yul\":15296:15363   */\n      tag_147\n      jump\t// in\n    tag_350:\n        /* \"#utility.yul\":15289:15363   */\n      swap2\n      pop\n        /* \"#utility.yul\":15372:15465   */\n      tag_351\n        /* \"#utility.yul\":15461:15464   */\n      dup3\n        /* \"#utility.yul\":15372:15465   */\n      tag_177\n      jump\t// in\n    tag_351:\n        /* \"#utility.yul\":15490:15492   */\n      0x20\n        /* \"#utility.yul\":15485:15488   */\n      dup3\n        /* \"#utility.yul\":15481:15493   */\n      add\n        /* \"#utility.yul\":15474:15493   */\n      swap1\n      pop\n        /* \"#utility.yul\":15133:15499   */\n      swap2\n      swap1\n      pop\n      jump\t// out\n        /* \"#utility.yul\":15505:15924   */\n    tag_77:\n        /* \"#utility.yul\":15671:15675   */\n      0x00\n        /* \"#utility.yul\":15709:15711   */\n      0x20\n        /* \"#utility.yul\":15698:15707   */\n      dup3\n        /* \"#utility.yul\":15694:15712   */\n      add\n        /* \"#utility.yul\":15686:15712   */\n      swap1\n      pop\n        /* \"#utility.yul\":15758:15767   */\n      dup2\n        /* \"#utility.yul\":15752:15756   */\n      dup2\n        /* \"#utility.yul\":15748:15768   */\n      sub\n        /* \"#utility.yul\":15744:15745   */\n      0x00\n        /* \"#utility.yul\":15733:15742   */\n      dup4\n        /* \"#utility.yul\":15729:15746   */\n      add\n        /* \"#utility.yul\":15722:15769   */\n      mstore\n        /* \"#utility.yul\":15786:15917   */\n      tag_353\n        /* \"#utility.yul\":15912:15916   */\n      dup2\n        /* \"#utility.yul\":15786:15917   */\n      tag_178\n      jump\t// in\n    tag_353:\n        /* \"#utility.yul\":15778:15917   */\n      swap1\n      pop\n        /* \"#utility.yul\":15505:15924   */\n      swap2\n      swap1\n      pop\n      jump\t// out\n        /* \"#utility.yul\":15930:16098   */\n    tag_179:\n        /* \"#utility.yul\":16070:16090   */\n      0x545745455420484153204e4f204c494b45530000000000000000000000000000\n        /* \"#utility.yul\":16066:16067   */\n      0x00\n        /* \"#utility.yul\":16058:16064   */\n      dup3\n        /* \"#utility.yul\":16054:16068   */\n      add\n        /* \"#utility.yul\":16047:16091   */\n      mstore\n        /* \"#utility.yul\":15930:16098   */\n      pop\n      jump\t// out\n        /* \"#utility.yul\":16104:16470   */\n    tag_180:\n        /* \"#utility.yul\":16246:16249   */\n      0x00\n        /* \"#utility.yul\":16267:16334   */\n      tag_356\n        /* \"#utility.yul\":16331:16333   */\n      0x12\n        /* \"#utility.yul\":16326:16329   */\n      dup4\n        /* \"#utility.yul\":16267:16334   */\n      tag_147\n      jump\t// in\n    tag_356:\n        /* \"#utility.yul\":16260:16334   */\n      swap2\n      pop\n        /* \"#utility.yul\":16343:16436   */\n      tag_357\n        /* \"#utility.yul\":16432:16435   */\n      dup3\n        /* \"#utility.yul\":16343:16436   */\n      tag_179\n      jump\t// in\n    tag_357:\n        /* \"#utility.yul\":16461:16463   */\n      0x20\n        /* \"#utility.yul\":16456:16459   */\n      dup3\n        /* \"#utility.yul\":16452:16464   */\n      add\n        /* \"#utility.yul\":16445:16464   */\n      swap1\n      pop\n        /* \"#utility.yul\":16104:16470   */\n      swap2\n      swap1\n      pop\n      jump\t// out\n        /* \"#utility.yul\":16476:16895   */\n    tag_83:\n        /* \"#utility.yul\":16642:16646   */\n      0x00\n        /* \"#utility.yul\":16680:16682   */\n      0x20\n        /* \"#utility.yul\":16669:16678   */\n      dup3\n        /* \"#utility.yul\":16665:16683   */\n      add\n        /* \"#utility.yul\":16657:16683   */\n      swap1\n      pop\n        /* \"#utility.yul\":16729:16738   */\n      dup2\n        /* \"#utility.yul\":16723:16727   */\n      dup2\n        /* \"#utility.yul\":16719:16739   */\n      sub\n        /* \"#utility.yul\":16715:16716   */\n      0x00\n        /* \"#utility.yul\":16704:16713   */\n      dup4\n        /* \"#utility.yul\":16700:16717   */\n      add\n        /* \"#utility.yul\":16693:16740   */\n      mstore\n        /* \"#utility.yul\":16757:16888   */\n      tag_359\n        /* \"#utility.yul\":16883:16887   */\n      dup2\n        /* \"#utility.yul\":16757:16888   */\n      tag_180\n      jump\t// in\n    tag_359:\n        /* \"#utility.yul\":16749:16888   */\n      swap1\n      pop\n        /* \"#utility.yul\":16476:16895   */\n      swap2\n      swap1\n      pop\n      jump\t// out\n        /* \"#utility.yul\":16901:17081   */\n    tag_181:\n        /* \"#utility.yul\":16949:17026   */\n      0x4e487b7100000000000000000000000000000000000000000000000000000000\n        /* \"#utility.yul\":16946:16947   */\n      0x00\n        /* \"#utility.yul\":16939:17027   */\n      mstore\n        /* \"#utility.yul\":17046:17050   */\n      0x11\n        /* \"#utility.yul\":17043:17044   */\n      0x04\n        /* \"#utility.yul\":17036:17051   */\n      mstore\n        /* \"#utility.yul\":17070:17074   */\n      0x24\n        /* \"#utility.yul\":17067:17068   */\n      0x00\n        /* \"#utility.yul\":17060:17075   */\n      revert\n        /* \"#utility.yul\":17087:17258   */\n    tag_88:\n        /* \"#utility.yul\":17126:17129   */\n      0x00\n        /* \"#utility.yul\":17149:17173   */\n      tag_362\n        /* \"#utility.yul\":17167:17172   */\n      dup3\n        /* \"#utility.yul\":17149:17173   */\n      tag_141\n      jump\t// in\n    tag_362:\n        /* \"#utility.yul\":17140:17173   */\n      swap2\n      pop\n        /* \"#utility.yul\":17195:17199   */\n      0x00\n        /* \"#utility.yul\":17188:17193   */\n      dup3\n        /* \"#utility.yul\":17185:17200   */\n      sub\n        /* \"#utility.yul\":17182:17223   */\n      tag_363\n      jumpi\n        /* \"#utility.yul\":17203:17221   */\n      tag_364\n      tag_181\n      jump\t// in\n    tag_364:\n        /* \"#utility.yul\":17182:17223   */\n    tag_363:\n        /* \"#utility.yul\":17250:17251   */\n      0x01\n        /* \"#utility.yul\":17243:17248   */\n      dup3\n        /* \"#utility.yul\":17239:17252   */\n      sub\n        /* \"#utility.yul\":17232:17252   */\n      swap1\n      pop\n        /* \"#utility.yul\":17087:17258   */\n      swap2\n      swap1\n      pop\n      jump\t// out\n        /* \"#utility.yul\":17264:17817   */\n    tag_93:\n        /* \"#utility.yul\":17441:17445   */\n      0x00\n        /* \"#utility.yul\":17479:17482   */\n      0x80\n        /* \"#utility.yul\":17468:17477   */\n      dup3\n        /* \"#utility.yul\":17464:17483   */\n      add\n        /* \"#utility.yul\":17456:17483   */\n      swap1\n      pop\n        /* \"#utility.yul\":17493:17564   */\n      tag_366\n        /* \"#utility.yul\":17561:17562   */\n      0x00\n        /* \"#utility.yul\":17550:17559   */\n      dup4\n        /* \"#utility.yul\":17546:17563   */\n      add\n        /* \"#utility.yul\":17537:17543   */\n      dup8\n        /* \"#utility.yul\":17493:17564   */\n      tag_145\n      jump\t// in\n    tag_366:\n        /* \"#utility.yul\":17574:17646   */\n      tag_367\n        /* \"#utility.yul\":17642:17644   */\n      0x20\n        /* \"#utility.yul\":17631:17640   */\n      dup4\n        /* \"#utility.yul\":17627:17645   */\n      add\n        /* \"#utility.yul\":17618:17624   */\n      dup7\n        /* \"#utility.yul\":17574:17646   */\n      tag_145\n      jump\t// in\n    tag_367:\n        /* \"#utility.yul\":17656:17728   */\n      tag_368\n        /* \"#utility.yul\":17724:17726   */\n      0x40\n        /* \"#utility.yul\":17713:17722   */\n      dup4\n        /* \"#utility.yul\":17709:17727   */\n      add\n        /* \"#utility.yul\":17700:17706   */\n      dup6\n        /* \"#utility.yul\":17656:17728   */\n      tag_144\n      jump\t// in\n    tag_368:\n        /* \"#utility.yul\":17738:17810   */\n      tag_369\n        /* \"#utility.yul\":17806:17808   */\n      0x60\n        /* \"#utility.yul\":17795:17804   */\n      dup4\n        /* \"#utility.yul\":17791:17809   */\n      add\n        /* \"#utility.yul\":17782:17788   */\n      dup5\n        /* \"#utility.yul\":17738:17810   */\n      tag_144\n      jump\t// in\n    tag_369:\n        /* \"#utility.yul\":17264:17817   */\n      swap6\n      swap5\n      pop\n      pop\n      pop\n      pop\n      pop\n      jump\t// out\n        /* \"#utility.yul\":17823:17995   */\n    tag_182:\n        /* \"#utility.yul\":17963:17987   */\n      0x594f5520415245204e4f5420544845204f574e45522100000000000000000000\n        /* \"#utility.yul\":17959:17960   */\n      0x00\n        /* \"#utility.yul\":17951:17957   */\n      dup3\n        /* \"#utility.yul\":17947:17961   */\n      add\n        /* \"#utility.yul\":17940:17988   */\n      mstore\n        /* \"#utility.yul\":17823:17995   */\n      pop\n      jump\t// out\n        /* \"#utility.yul\":18001:18367   */\n    tag_183:\n        /* \"#utility.yul\":18143:18146   */\n      0x00\n        /* \"#utility.yul\":18164:18231   */\n      tag_372\n        /* \"#utility.yul\":18228:18230   */\n      0x16\n        /* \"#utility.yul\":18223:18226   */\n      dup4\n        /* \"#utility.yul\":18164:18231   */\n      tag_147\n      jump\t// in\n    tag_372:\n        /* \"#utility.yul\":18157:18231   */\n      swap2\n      pop\n        /* \"#utility.yul\":18240:18333   */\n      tag_373\n        /* \"#utility.yul\":18329:18332   */\n      dup3\n        /* \"#utility.yul\":18240:18333   */\n      tag_182\n      jump\t// in\n    tag_373:\n        /* \"#utility.yul\":18358:18360   */\n      0x20\n        /* \"#utility.yul\":18353:18356   */\n      dup3\n        /* \"#utility.yul\":18349:18361   */\n      add\n        /* \"#utility.yul\":18342:18361   */\n      swap1\n      pop\n        /* \"#utility.yul\":18001:18367   */\n      swap2\n      swap1\n      pop\n      jump\t// out\n        /* \"#utility.yul\":18373:18792   */\n    tag_97:\n        /* \"#utility.yul\":18539:18543   */\n      0x00\n        /* \"#utility.yul\":18577:18579   */\n      0x20\n        /* \"#utility.yul\":18566:18575   */\n      dup3\n        /* \"#utility.yul\":18562:18580   */\n      add\n        /* \"#utility.yul\":18554:18580   */\n      swap1\n      pop\n        /* \"#utility.yul\":18626:18635   */\n      dup2\n        /* \"#utility.yul\":18620:18624   */\n      dup2\n        /* \"#utility.yul\":18616:18636   */\n      sub\n        /* \"#utility.yul\":18612:18613   */\n      0x00\n        /* \"#utility.yul\":18601:18610   */\n      dup4\n        /* \"#utility.yul\":18597:18614   */\n      add\n        /* \"#utility.yul\":18590:18637   */\n      mstore\n        /* \"#utility.yul\":18654:18785   */\n      tag_375\n        /* \"#utility.yul\":18780:18784   */\n      dup2\n        /* \"#utility.yul\":18654:18785   */\n      tag_183\n      jump\t// in\n    tag_375:\n        /* \"#utility.yul\":18646:18785   */\n      swap1\n      pop\n        /* \"#utility.yul\":18373:18792   */\n      swap2\n      swap1\n      pop\n      jump\t// out\n        /* \"#utility.yul\":18798:19031   */\n    tag_109:\n        /* \"#utility.yul\":18837:18840   */\n      0x00\n        /* \"#utility.yul\":18860:18884   */\n      tag_377\n        /* \"#utility.yul\":18878:18883   */\n      dup3\n        /* \"#utility.yul\":18860:18884   */\n      tag_141\n      jump\t// in\n    tag_377:\n        /* \"#utility.yul\":18851:18884   */\n      swap2\n      pop\n        /* \"#utility.yul\":18906:18972   */\n      0xffffffffffffffffffffffffffffffffffffffffffffffffffffffffffffffff\n        /* \"#utility.yul\":18899:18904   */\n      dup3\n        /* \"#utility.yul\":18896:18973   */\n      sub\n        /* \"#utility.yul\":18893:18996   */\n      tag_378\n      jumpi\n        /* \"#utility.yul\":18976:18994   */\n      tag_379\n      tag_181\n      jump\t// in\n    tag_379:\n        /* \"#utility.yul\":18893:18996   */\n    tag_378:\n        /* \"#utility.yul\":19023:19024   */\n      0x01\n        /* \"#utility.yul\":19016:19021   */\n      dup3\n        /* \"#utility.yul\":19012:19025   */\n      add\n        /* \"#utility.yul\":19005:19025   */\n      swap1\n      pop\n        /* \"#utility.yul\":18798:19031   */\n      swap2\n      swap1\n      pop\n      jump\t// out\n        /* \"#utility.yul\":19037:19209   */\n    tag_184:\n        /* \"#utility.yul\":19177:19201   */\n      0x547765657420697320746f6f206c6f6e672062726f2100000000000000000000\n        /* \"#utility.yul\":19173:19174   */\n      0x00\n        /* \"#utility.yul\":19165:19171   */\n      dup3\n        /* \"#utility.yul\":19161:19175   */\n      add\n        /* \"#utility.yul\":19154:19202   */\n      mstore\n        /* \"#utility.yul\":19037:19209   */\n      pop\n      jump\t// out\n        /* \"#utility.yul\":19215:19581   */\n    tag_185:\n        /* \"#utility.yul\":19357:19360   */\n      0x00\n        /* \"#utility.yul\":19378:19445   */\n      tag_382\n        /* \"#utility.yul\":19442:19444   */\n      0x16\n        /* \"#utility.yul\":19437:19440   */\n      dup4\n        /* \"#utility.yul\":19378:19445   */\n      tag_147\n      jump\t// in\n    tag_382:\n        /* \"#utility.yul\":19371:19445   */\n      swap2\n      pop\n        /* \"#utility.yul\":19454:19547   */\n      tag_383\n        /* \"#utility.yul\":19543:19546   */\n      dup3\n        /* \"#utility.yul\":19454:19547   */\n      tag_184\n      jump\t// in\n    tag_383:\n        /* \"#utility.yul\":19572:19574   */\n      0x20\n        /* \"#utility.yul\":19567:19570   */\n      dup3\n        /* \"#utility.yul\":19563:19575   */\n      add\n        /* \"#utility.yul\":19556:19575   */\n      swap1\n      pop\n        /* \"#utility.yul\":19215:19581   */\n      swap2\n      swap1\n      pop\n      jump\t// out\n        /* \"#utility.yul\":19587:20006   */\n    tag_117:\n        /* \"#utility.yul\":19753:19757   */\n      0x00\n        /* \"#utility.yul\":19791:19793   */\n      0x20\n        /* \"#utility.yul\":19780:19789   */\n      dup3\n        /* \"#utility.yul\":19776:19794   */\n      add\n        /* \"#utility.yul\":19768:19794   */\n      swap1\n      pop\n        /* \"#utility.yul\":19840:19849   */\n      dup2\n        /* \"#utility.yul\":19834:19838   */\n      dup2\n        /* \"#utility.yul\":19830:19850   */\n      sub\n        /* \"#utility.yul\":19826:19827   */\n      0x00\n        /* \"#utility.yul\":19815:19824   */\n      dup4\n        /* \"#utility.yul\":19811:19828   */\n      add\n        /* \"#utility.yul\":19804:19851   */\n      mstore\n        /* \"#utility.yul\":19868:19999   */\n      tag_385\n        /* \"#utility.yul\":19994:19998   */\n      dup2\n        /* \"#utility.yul\":19868:19999   */\n      tag_185\n      jump\t// in\n    tag_385:\n        /* \"#utility.yul\":19860:19999   */\n      swap1\n      pop\n        /* \"#utility.yul\":19587:20006   */\n      swap2\n      swap1\n      pop\n      jump\t// out\n        /* \"#utility.yul\":20012:20153   */\n    tag_186:\n        /* \"#utility.yul\":20061:20065   */\n      0x00\n        /* \"#utility.yul\":20084:20087   */\n      dup2\n        /* \"#utility.yul\":20076:20087   */\n      swap1\n      pop\n        /* \"#utility.yul\":20107:20110   */\n      dup2\n        /* \"#utility.yul\":20104:20105   */\n      0x00\n        /* \"#utility.yul\":20097:20111   */\n      mstore\n        /* \"#utility.yul\":20141:20145   */\n      0x20\n        /* \"#utility.yul\":20138:20139   */\n      0x00\n        /* \"#utility.yul\":20128:20146   */\n      keccak256\n        /* \"#utility.yul\":20120:20146   */\n      swap1\n      pop\n        /* \"#utility.yul\":20012:20153   */\n      swap2\n      swap1\n      pop\n      jump\t// out\n        /* \"#utility.yul\":20159:20252   */\n    tag_187:\n        /* \"#utility.yul\":20196:20202   */\n      0x00\n        /* \"#utility.yul\":20243:20245   */\n      0x20\n        /* \"#utility.yul\":20238:20240   */\n      0x1f\n        /* \"#utility.yul\":20231:20236   */\n      dup4\n        /* \"#utility.yul\":20227:20241   */\n      add\n        /* \"#utility.yul\":20223:20246   */\n      div\n        /* \"#utility.yul\":20213:20246   */\n      swap1\n      pop\n        /* \"#utility.yul\":20159:20252   */\n      swap2\n      swap1\n      pop\n      jump\t// out\n        /* \"#utility.yul\":20258:20365   */\n    tag_188:\n        /* \"#utility.yul\":20302:20310   */\n      0x00\n        /* \"#utility.yul\":20352:20357   */\n      dup3\n        /* \"#utility.yul\":20346:20350   */\n      dup3\n        /* \"#utility.yul\":20342:20358   */\n      shl\n        /* \"#utility.yul\":20321:20358   */\n      swap1\n      pop\n        /* \"#utility.yul\":20258:20365   */\n      swap3\n      swap2\n      pop\n      pop\n      jump\t// out\n        /* \"#utility.yul\":20371:20764   */\n    tag_189:\n        /* \"#utility.yul\":20440:20446   */\n      0x00\n        /* \"#utility.yul\":20490:20491   */\n      0x08\n        /* \"#utility.yul\":20478:20488   */\n      dup4\n        /* \"#utility.yul\":20474:20492   */\n      mul\n        /* \"#utility.yul\":20513:20610   */\n      tag_390\n        /* \"#utility.yul\":20543:20609   */\n      0xffffffffffffffffffffffffffffffffffffffffffffffffffffffffffffffff\n        /* \"#utility.yul\":20532:20541   */\n      dup3\n        /* \"#utility.yul\":20513:20610   */\n      tag_188\n      jump\t// in\n    tag_390:\n        /* \"#utility.yul\":20631:20670   */\n      tag_391\n        /* \"#utility.yul\":20661:20669   */\n      dup7\n        /* \"#utility.yul\":20650:20659   */\n      dup4\n        /* \"#utility.yul\":20631:20670   */\n      tag_188\n      jump\t// in\n    tag_391:\n        /* \"#utility.yul\":20619:20670   */\n      swap6\n      pop\n        /* \"#utility.yul\":20703:20707   */\n      dup1\n        /* \"#utility.yul\":20699:20708   */\n      not\n        /* \"#utility.yul\":20692:20697   */\n      dup5\n        /* \"#utility.yul\":20688:20709   */\n      and\n        /* \"#utility.yul\":20679:20709   */\n      swap4\n      pop\n        /* \"#utility.yul\":20752:20756   */\n      dup1\n        /* \"#utility.yul\":20742:20750   */\n      dup7\n        /* \"#utility.yul\":20738:20757   */\n      and\n        /* \"#utility.yul\":20731:20736   */\n      dup5\n        /* \"#utility.yul\":20728:20758   */\n      or\n        /* \"#utility.yul\":20718:20758   */\n      swap3\n      pop\n        /* \"#utility.yul\":20447:20764   */\n      pop\n      pop\n        /* \"#utility.yul\":20371:20764   */\n      swap4\n      swap3\n      pop\n      pop\n      pop\n      jump\t// out\n        /* \"#utility.yul\":20770:20830   */\n    tag_190:\n        /* \"#utility.yul\":20798:20801   */\n      0x00\n        /* \"#utility.yul\":20819:20824   */\n      dup2\n        /* \"#utility.yul\":20812:20824   */\n      swap1\n      pop\n        /* \"#utility.yul\":20770:20830   */\n      swap2\n      swap1\n      pop\n      jump\t// out\n        /* \"#utility.yul\":20836:20978   */\n    tag_191:\n        /* \"#utility.yul\":20886:20895   */\n      0x00\n        /* \"#utility.yul\":20919:20972   */\n      tag_394\n        /* \"#utility.yul\":20937:20971   */\n      tag_395\n        /* \"#utility.yul\":20946:20970   */\n      tag_396\n        /* \"#utility.yul\":20964:20969   */\n      dup5\n        /* \"#utility.yul\":20946:20970   */\n      tag_141\n      jump\t// in\n    tag_396:\n        /* \"#utility.yul\":20937:20971   */\n      tag_190\n      jump\t// in\n    tag_395:\n        /* \"#utility.yul\":20919:20972   */\n      tag_141\n      jump\t// in\n    tag_394:\n        /* \"#utility.yul\":20906:20972   */\n      swap1\n      pop\n        /* \"#utility.yul\":20836:20978   */\n      swap2\n      swap1\n      pop\n      jump\t// out\n        /* \"#utility.yul\":20984:21059   */\n    tag_192:\n        /* \"#utility.yul\":21027:21030   */\n      0x00\n        /* \"#utility.yul\":21048:21053   */\n      dup2\n        /* \"#utility.yul\":21041:21053   */\n      swap1\n      pop\n        /* \"#utility.yul\":20984:21059   */\n      swap2\n      swap1\n      pop\n      jump\t// out\n        /* \"#utility.yul\":21065:21334   */\n    tag_193:\n        /* \"#utility.yul\":21175:21214   */\n      tag_399\n        /* \"#utility.yul\":21206:21213   */\n      dup4\n        /* \"#utility.yul\":21175:21214   */\n      tag_191\n      jump\t// in\n    tag_399:\n        /* \"#utility.yul\":21236:21327   */\n      tag_400\n        /* \"#utility.yul\":21285:21326   */\n      tag_401\n        /* \"#utility.yul\":21309:21325   */\n      dup3\n        /* \"#utility.yul\":21285:21326   */\n      tag_192\n      jump\t// in\n    tag_401:\n        /* \"#utility.yul\":21277:21283   */\n      dup5\n        /* \"#utility.yul\":21270:21274   */\n      dup5\n        /* \"#utility.yul\":21264:21275   */\n      sload\n        /* \"#utility.yul\":21236:21327   */\n      tag_189\n      jump\t// in\n    tag_400:\n        /* \"#utility.yul\":21230:21234   */\n      dup3\n        /* \"#utility.yul\":21223:21328   */\n      sstore\n        /* \"#utility.yul\":21141:21334   */\n      pop\n        /* \"#utility.yul\":21065:21334   */\n      pop\n      pop\n      pop\n      jump\t// out\n        /* \"#utility.yul\":21340:21413   */\n    tag_194:\n        /* \"#utility.yul\":21385:21388   */\n      0x00\n        /* \"#utility.yul\":21340:21413   */\n      swap1\n      jump\t// out\n        /* \"#utility.yul\":21419:21608   */\n    tag_195:\n        /* \"#utility.yul\":21496:21528   */\n      tag_404\n      tag_194\n      jump\t// in\n    tag_404:\n        /* \"#utility.yul\":21537:21602   */\n      tag_405\n        /* \"#utility.yul\":21595:21601   */\n      dup2\n        /* \"#utility.yul\":21587:21593   */\n      dup5\n        /* \"#utility.yul\":21581:21585   */\n      dup5\n        /* \"#utility.yul\":21537:21602   */\n      tag_193\n      jump\t// in\n    tag_405:\n        /* \"#utility.yul\":21472:21608   */\n      pop\n        /* \"#utility.yul\":21419:21608   */\n      pop\n      pop\n      jump\t// out\n        /* \"#utility.yul\":21614:21800   */\n    tag_196:\n        /* \"#utility.yul\":21674:21794   */\n    tag_407:\n        /* \"#utility.yul\":21691:21694   */\n      dup2\n        /* \"#utility.yul\":21684:21689   */\n      dup2\n        /* \"#utility.yul\":21681:21695   */\n      lt\n        /* \"#utility.yul\":21674:21794   */\n      iszero\n      tag_409\n      jumpi\n        /* \"#utility.yul\":21745:21784   */\n      tag_410\n        /* \"#utility.yul\":21782:21783   */\n      0x00\n        /* \"#utility.yul\":21775:21780   */\n      dup3\n        /* \"#utility.yul\":21745:21784   */\n      tag_195\n      jump\t// in\n    tag_410:\n        /* \"#utility.yul\":21718:21719   */\n      0x01\n        /* \"#utility.yul\":21711:21716   */\n      dup2\n        /* \"#utility.yul\":21707:21720   */\n      add\n        /* \"#utility.yul\":21698:21720   */\n      swap1\n      pop\n        /* \"#utility.yul\":21674:21794   */\n      jump(tag_407)\n    tag_409:\n        /* \"#utility.yul\":21614:21800   */\n      pop\n      pop\n      jump\t// out\n        /* \"#utility.yul\":21806:22349   */\n    tag_197:\n        /* \"#utility.yul\":21907:21909   */\n      0x1f\n        /* \"#utility.yul\":21902:21905   */\n      dup3\n        /* \"#utility.yul\":21899:21910   */\n      gt\n        /* \"#utility.yul\":21896:22342   */\n      iszero\n      tag_412\n      jumpi\n        /* \"#utility.yul\":21941:21979   */\n      tag_413\n        /* \"#utility.yul\":21973:21978   */\n      dup2\n        /* \"#utility.yul\":21941:21979   */\n      tag_186\n      jump\t// in\n    tag_413:\n        /* \"#utility.yul\":22025:22054   */\n      tag_414\n        /* \"#utility.yul\":22043:22053   */\n      dup5\n        /* \"#utility.yul\":22025:22054   */\n      tag_187\n      jump\t// in\n    tag_414:\n        /* \"#utility.yul\":22015:22023   */\n      dup2\n        /* \"#utility.yul\":22011:22055   */\n      add\n        /* \"#utility.yul\":22208:22210   */\n      0x20\n        /* \"#utility.yul\":22196:22206   */\n      dup6\n        /* \"#utility.yul\":22193:22211   */\n      lt\n        /* \"#utility.yul\":22190:22239   */\n      iszero\n      tag_415\n      jumpi\n        /* \"#utility.yul\":22229:22237   */\n      dup2\n        /* \"#utility.yul\":22214:22237   */\n      swap1\n      pop\n        /* \"#utility.yul\":22190:22239   */\n    tag_415:\n        /* \"#utility.yul\":22252:22332   */\n      tag_416\n        /* \"#utility.yul\":22308:22330   */\n      tag_417\n        /* \"#utility.yul\":22326:22329   */\n      dup6\n        /* \"#utility.yul\":22308:22330   */\n      tag_187\n      jump\t// in\n    tag_417:\n        /* \"#utility.yul\":22298:22306   */\n      dup4\n        /* \"#utility.yul\":22294:22331   */\n      add\n        /* \"#utility.yul\":22281:22292   */\n      dup3\n        /* \"#utility.yul\":22252:22332   */\n      tag_196\n      jump\t// in\n    tag_416:\n        /* \"#utility.yul\":21911:22342   */\n      pop\n      pop\n        /* \"#utility.yul\":21896:22342   */\n    tag_412:\n        /* \"#utility.yul\":21806:22349   */\n      pop\n      pop\n      pop\n      jump\t// out\n        /* \"#utility.yul\":22355:22472   */\n    tag_198:\n        /* \"#utility.yul\":22409:22417   */\n      0x00\n        /* \"#utility.yul\":22459:22464   */\n      dup3\n        /* \"#utility.yul\":22453:22457   */\n      dup3\n        /* \"#utility.yul\":22449:22465   */\n      shr\n        /* \"#utility.yul\":22428:22465   */\n      swap1\n      pop\n        /* \"#utility.yul\":22355:22472   */\n      swap3\n      swap2\n      pop\n      pop\n      jump\t// out\n        /* \"#utility.yul\":22478:22647   */\n    tag_199:\n        /* \"#utility.yul\":22522:22528   */\n      0x00\n        /* \"#utility.yul\":22555:22606   */\n      tag_420\n        /* \"#utility.yul\":22603:22604   */\n      0x00\n        /* \"#utility.yul\":22599:22605   */\n      not\n        /* \"#utility.yul\":22591:22596   */\n      dup5\n        /* \"#utility.yul\":22588:22589   */\n      0x08\n        /* \"#utility.yul\":22584:22597   */\n      mul\n        /* \"#utility.yul\":22555:22606   */\n      tag_198\n      jump\t// in\n    tag_420:\n        /* \"#utility.yul\":22551:22607   */\n      not\n        /* \"#utility.yul\":22636:22640   */\n      dup1\n        /* \"#utility.yul\":22630:22634   */\n      dup4\n        /* \"#utility.yul\":22626:22641   */\n      and\n        /* \"#utility.yul\":22616:22641   */\n      swap2\n      pop\n        /* \"#utility.yul\":22529:22647   */\n      pop\n        /* \"#utility.yul\":22478:22647   */\n      swap3\n      swap2\n      pop\n      pop\n      jump\t// out\n        /* \"#utility.yul\":22652:22947   */\n    tag_200:\n        /* \"#utility.yul\":22728:22732   */\n      0x00\n        /* \"#utility.yul\":22874:22903   */\n      tag_422\n        /* \"#utility.yul\":22899:22902   */\n      dup4\n        /* \"#utility.yul\":22893:22897   */\n      dup4\n        /* \"#utility.yul\":22874:22903   */\n      tag_199\n      jump\t// in\n    tag_422:\n        /* \"#utility.yul\":22866:22903   */\n      swap2\n      pop\n        /* \"#utility.yul\":22936:22939   */\n      dup3\n        /* \"#utility.yul\":22933:22934   */\n      0x02\n        /* \"#utility.yul\":22929:22940   */\n      mul\n        /* \"#utility.yul\":22923:22927   */\n      dup3\n        /* \"#utility.yul\":22920:22941   */\n      or\n        /* \"#utility.yul\":22912:22941   */\n      swap1\n      pop\n        /* \"#utility.yul\":22652:22947   */\n      swap3\n      swap2\n      pop\n      pop\n      jump\t// out\n        /* \"#utility.yul\":22952:24347   */\n    tag_120:\n        /* \"#utility.yul\":23069:23106   */\n      tag_424\n        /* \"#utility.yul\":23102:23105   */\n      dup3\n        /* \"#utility.yul\":23069:23106   */\n      tag_146\n      jump\t// in\n    tag_424:\n        /* \"#utility.yul\":23171:23189   */\n      0xffffffffffffffff\n        /* \"#utility.yul\":23163:23169   */\n      dup2\n        /* \"#utility.yul\":23160:23190   */\n      gt\n        /* \"#utility.yul\":23157:23213   */\n      iszero\n      tag_425\n      jumpi\n        /* \"#utility.yul\":23193:23211   */\n      tag_426\n      tag_168\n      jump\t// in\n    tag_426:\n        /* \"#utility.yul\":23157:23213   */\n    tag_425:\n        /* \"#utility.yul\":23237:23275   */\n      tag_427\n        /* \"#utility.yul\":23269:23273   */\n      dup3\n        /* \"#utility.yul\":23263:23274   */\n      sload\n        /* \"#utility.yul\":23237:23275   */\n      tag_56\n      jump\t// in\n    tag_427:\n        /* \"#utility.yul\":23322:23389   */\n      tag_428\n        /* \"#utility.yul\":23382:23388   */\n      dup3\n        /* \"#utility.yul\":23374:23380   */\n      dup3\n        /* \"#utility.yul\":23368:23372   */\n      dup6\n        /* \"#utility.yul\":23322:23389   */\n      tag_197\n      jump\t// in\n    tag_428:\n        /* \"#utility.yul\":23416:23417   */\n      0x00\n        /* \"#utility.yul\":23440:23444   */\n      0x20\n        /* \"#utility.yul\":23427:23444   */\n      swap1\n      pop\n        /* \"#utility.yul\":23472:23474   */\n      0x1f\n        /* \"#utility.yul\":23464:23470   */\n      dup4\n        /* \"#utility.yul\":23461:23475   */\n      gt\n        /* \"#utility.yul\":23489:23490   */\n      0x01\n        /* \"#utility.yul\":23484:24102   */\n      dup2\n      eq\n      tag_430\n      jumpi\n        /* \"#utility.yul\":24146:24147   */\n      0x00\n        /* \"#utility.yul\":24163:24169   */\n      dup5\n        /* \"#utility.yul\":24160:24237   */\n      iszero\n      tag_431\n      jumpi\n        /* \"#utility.yul\":24212:24221   */\n      dup3\n        /* \"#utility.yul\":24207:24210   */\n      dup8\n        /* \"#utility.yul\":24203:24222   */\n      add\n        /* \"#utility.yul\":24197:24223   */\n      mload\n        /* \"#utility.yul\":24188:24223   */\n      swap1\n      pop\n        /* \"#utility.yul\":24160:24237   */\n    tag_431:\n        /* \"#utility.yul\":24263:24330   */\n      tag_432\n        /* \"#utility.yul\":24323:24329   */\n      dup6\n        /* \"#utility.yul\":24316:24321   */\n      dup3\n        /* \"#utility.yul\":24263:24330   */\n      tag_200\n      jump\t// in\n    tag_432:\n        /* \"#utility.yul\":24257:24261   */\n      dup7\n        /* \"#utility.yul\":24250:24331   */\n      sstore\n        /* \"#utility.yul\":24119:24341   */\n      pop\n        /* \"#utility.yul\":23454:24341   */\n      jump(tag_429)\n        /* \"#utility.yul\":23484:24102   */\n    tag_430:\n        /* \"#utility.yul\":23536:23540   */\n      0x1f\n        /* \"#utility.yul\":23532:23541   */\n      not\n        /* \"#utility.yul\":23524:23530   */\n      dup5\n        /* \"#utility.yul\":23520:23542   */\n      and\n        /* \"#utility.yul\":23570:23607   */\n      tag_433\n        /* \"#utility.yul\":23602:23606   */\n      dup7\n        /* \"#utility.yul\":23570:23607   */\n      tag_186\n      jump\t// in\n    tag_433:\n        /* \"#utility.yul\":23629:23630   */\n      0x00\n        /* \"#utility.yul\":23643:23851   */\n    tag_434:\n        /* \"#utility.yul\":23657:23664   */\n      dup3\n        /* \"#utility.yul\":23654:23655   */\n      dup2\n        /* \"#utility.yul\":23651:23665   */\n      lt\n        /* \"#utility.yul\":23643:23851   */\n      iszero\n      tag_436\n      jumpi\n        /* \"#utility.yul\":23736:23745   */\n      dup5\n        /* \"#utility.yul\":23731:23734   */\n      dup10\n        /* \"#utility.yul\":23727:23746   */\n      add\n        /* \"#utility.yul\":23721:23747   */\n      mload\n        /* \"#utility.yul\":23713:23719   */\n      dup3\n        /* \"#utility.yul\":23706:23748   */\n      sstore\n        /* \"#utility.yul\":23787:23788   */\n      0x01\n        /* \"#utility.yul\":23779:23785   */\n      dup3\n        /* \"#utility.yul\":23775:23789   */\n      add\n        /* \"#utility.yul\":23765:23789   */\n      swap2\n      pop\n        /* \"#utility.yul\":23834:23836   */\n      0x20\n        /* \"#utility.yul\":23823:23832   */\n      dup6\n        /* \"#utility.yul\":23819:23837   */\n      add\n        /* \"#utility.yul\":23806:23837   */\n      swap5\n      pop\n        /* \"#utility.yul\":23680:23684   */\n      0x20\n        /* \"#utility.yul\":23677:23678   */\n      dup2\n        /* \"#utility.yul\":23673:23685   */\n      add\n        /* \"#utility.yul\":23668:23685   */\n      swap1\n      pop\n        /* \"#utility.yul\":23643:23851   */\n      jump(tag_434)\n    tag_436:\n        /* \"#utility.yul\":23879:23885   */\n      dup7\n        /* \"#utility.yul\":23870:23877   */\n      dup4\n        /* \"#utility.yul\":23867:23886   */\n      lt\n        /* \"#utility.yul\":23864:24043   */\n      iszero\n      tag_437\n      jumpi\n        /* \"#utility.yul\":23937:23946   */\n      dup5\n        /* \"#utility.yul\":23932:23935   */\n      dup10\n        /* \"#utility.yul\":23928:23947   */\n      add\n        /* \"#utility.yul\":23922:23948   */\n      mload\n        /* \"#utility.yul\":23980:24028   */\n      tag_438\n        /* \"#utility.yul\":24022:24026   */\n      0x1f\n        /* \"#utility.yul\":24014:24020   */\n      dup10\n        /* \"#utility.yul\":24010:24027   */\n      and\n        /* \"#utility.yul\":23999:24008   */\n      dup3\n        /* \"#utility.yul\":23980:24028   */\n      tag_199\n      jump\t// in\n    tag_438:\n        /* \"#utility.yul\":23972:23978   */\n      dup4\n        /* \"#utility.yul\":23965:24029   */\n      sstore\n        /* \"#utility.yul\":23887:24043   */\n      pop\n        /* \"#utility.yul\":23864:24043   */\n    tag_437:\n        /* \"#utility.yul\":24089:24090   */\n      0x01\n        /* \"#utility.yul\":24085:24086   */\n      0x02\n        /* \"#utility.yul\":24077:24083   */\n      dup9\n        /* \"#utility.yul\":24073:24087   */\n      mul\n        /* \"#utility.yul\":24069:24091   */\n      add\n        /* \"#utility.yul\":24063:24067   */\n      dup9\n        /* \"#utility.yul\":24056:24092   */\n      sstore\n        /* \"#utility.yul\":23491:24102   */\n      pop\n      pop\n      pop\n        /* \"#utility.yul\":23454:24341   */\n    tag_429:\n      pop\n        /* \"#utility.yul\":23044:24347   */\n      pop\n      pop\n      pop\n        /* \"#utility.yul\":22952:24347   */\n      pop\n      pop\n      jump\t// out\n        /* \"#utility.yul\":24353:24997   */\n    tag_122:\n        /* \"#utility.yul\":24550:24554   */\n      0x00\n        /* \"#utility.yul\":24588:24591   */\n      0x80\n        /* \"#utility.yul\":24577:24586   */\n      dup3\n        /* \"#utility.yul\":24573:24592   */\n      add\n        /* \"#utility.yul\":24565:24592   */\n      swap1\n      pop\n        /* \"#utility.yul\":24602:24673   */\n      tag_440\n        /* \"#utility.yul\":24670:24671   */\n      0x00\n        /* \"#utility.yul\":24659:24668   */\n      dup4\n        /* \"#utility.yul\":24655:24672   */\n      add\n        /* \"#utility.yul\":24646:24652   */\n      dup8\n        /* \"#utility.yul\":24602:24673   */\n      tag_144\n      jump\t// in\n    tag_440:\n        /* \"#utility.yul\":24683:24755   */\n      tag_441\n        /* \"#utility.yul\":24751:24753   */\n      0x20\n        /* \"#utility.yul\":24740:24749   */\n      dup4\n        /* \"#utility.yul\":24736:24754   */\n      add\n        /* \"#utility.yul\":24727:24733   */\n      dup7\n        /* \"#utility.yul\":24683:24755   */\n      tag_145\n      jump\t// in\n    tag_441:\n        /* \"#utility.yul\":24802:24811   */\n      dup2\n        /* \"#utility.yul\":24796:24800   */\n      dup2\n        /* \"#utility.yul\":24792:24812   */\n      sub\n        /* \"#utility.yul\":24787:24789   */\n      0x40\n        /* \"#utility.yul\":24776:24785   */\n      dup4\n        /* \"#utility.yul\":24772:24790   */\n      add\n        /* \"#utility.yul\":24765:24813   */\n      mstore\n        /* \"#utility.yul\":24830:24908   */\n      tag_442\n        /* \"#utility.yul\":24903:24907   */\n      dup2\n        /* \"#utility.yul\":24894:24900   */\n      dup6\n        /* \"#utility.yul\":24830:24908   */\n      tag_150\n      jump\t// in\n    tag_442:\n        /* \"#utility.yul\":24822:24908   */\n      swap1\n      pop\n        /* \"#utility.yul\":24918:24990   */\n      tag_443\n        /* \"#utility.yul\":24986:24988   */\n      0x60\n        /* \"#utility.yul\":24975:24984   */\n      dup4\n        /* \"#utility.yul\":24971:24989   */\n      add\n        /* \"#utility.yul\":24962:24968   */\n      dup5\n        /* \"#utility.yul\":24918:24990   */\n      tag_144\n      jump\t// in\n    tag_443:\n        /* \"#utility.yul\":24353:24997   */\n      swap6\n      swap5\n      pop\n      pop\n      pop\n      pop\n      pop\n      jump\t// out\n\n    auxdata: 0xa264697066735822122015ccd2db4a7ebfe5da14a6dc11c5b8c5db44d67126e8e82a1bedbb2f18ec8bd964736f6c63430008120033\n}\n",
				"bytecode": {
					"linkReferences": {},
					"object": "60806040526101186000806101000a81548161ffff021916908361ffff16021790555034801561002e57600080fd5b5033600260006101000a81548173ffffffffffffffffffffffffffffffffffffffff021916908373ffffffffffffffffffffffffffffffffffffffff160217905550611a488061007f6000396000f3fe608060405234801561001057600080fd5b50600436106100935760003560e01c8063633782161161006657806363378216146101345780636eb10797146101505780637c9cd2bc1461016e5780638da5cb5b1461018a578063c3ad5ecb146101a857610093565b806305a1b4a91461009857806312e7ee1c146100cc5780633d9b569f146100fc57806358bfa4ab14610118575b600080fd5b6100b260048036038101906100ad9190610dfe565b6101d8565b6040516100c3959493929190610eec565b60405180910390f35b6100e660048036038101906100e19190610f46565b6102d3565b6040516100f39190611113565b60405180910390f35b61011660048036038101906101119190610dfe565b610477565b005b610132600480360381019061012d919061116f565b6106db565b005b61014e60048036038101906101499190610dfe565b61078a565b005b610158610949565b60405161016591906111ab565b60405180910390f35b610188600480360381019061018391906112fb565b61095b565b005b610192610b6c565b60405161019f9190611344565b60405180910390f35b6101c260048036038101906101bd919061135f565b610b92565b6040516101cf9190611402565b60405180910390f35b600160205281600052604060002081815481106101f457600080fd5b9060005260206000209060050201600091509150508060000154908060010160009054906101000a900473ffffffffffffffffffffffffffffffffffffffff169080600201805461024490611453565b80601f016020809104026020016040519081016040528092919081815260200182805461027090611453565b80156102bd5780601f10610292576101008083540402835291602001916102bd565b820191906000526020600020905b8154815290600101906020018083116102a057829003601f168201915b5050505050908060030154908060040154905085565b6060600160008373ffffffffffffffffffffffffffffffffffffffff1673ffffffffffffffffffffffffffffffffffffffff168152602001908152602001600020805480602002602001604051908101604052809291908181526020016000905b8282101561046c57838290600052602060002090600502016040518060a0016040529081600082015481526020016001820160009054906101000a900473ffffffffffffffffffffffffffffffffffffffff1673ffffffffffffffffffffffffffffffffffffffff1673ffffffffffffffffffffffffffffffffffffffff1681526020016002820180546103c790611453565b80601f01602080910402602001604051908101604052809291908181526020018280546103f390611453565b80156104405780601f1061041557610100808354040283529160200191610440565b820191906000526020600020905b81548152906001019060200180831161042357829003601f168201915b505050505081526020016003820154815260200160048201548152505081526020019060010190610334565b505050509050919050565b80600160008473ffffffffffffffffffffffffffffffffffffffff1673ffffffffffffffffffffffffffffffffffffffff16815260200190815260200160002082815481106104c9576104c8611484565b5b9060005260206000209060050201600001541461051b576040517f08c379a0000000000000000000000000000000000000000000000000000000008152600401610512906114ff565b60405180910390fd5b6000600160008473ffffffffffffffffffffffffffffffffffffffff1673ffffffffffffffffffffffffffffffffffffffff168152602001908152602001600020828154811061056e5761056d611484565b5b906000526020600020906005020160040154116105c0576040517f08c379a00000000000000000000000000000000000000000000000000000000081526004016105b79061156b565b60405180910390fd5b600160008373ffffffffffffffffffffffffffffffffffffffff1673ffffffffffffffffffffffffffffffffffffffff168152602001908152602001600020818154811061061157610610611484565b5b90600052602060002090600502016004016000815480929190610633906115ba565b91905055507f762c2616349603ac16eba0de8e6141b79129a07ab63bd99e0a80b3a471716943338383600160008773ffffffffffffffffffffffffffffffffffffffff1673ffffffffffffffffffffffffffffffffffffffff16815260200190815260200160002085815481106106ad576106ac611484565b5b9060005260206000209060050201600401546040516106cf94939291906115e3565b60405180910390a15050565b600260009054906101000a900473ffffffffffffffffffffffffffffffffffffffff1673ffffffffffffffffffffffffffffffffffffffff163373ffffffffffffffffffffffffffffffffffffffff161461076b576040517f08c379a000000000000000000000000000000000000000000000000000000000815260040161076290611674565b60405180910390fd5b806000806101000a81548161ffff021916908361ffff16021790555050565b80600160008473ffffffffffffffffffffffffffffffffffffffff1673ffffffffffffffffffffffffffffffffffffffff16815260200190815260200160002082815481106107dc576107db611484565b5b9060005260206000209060050201600001541461082e576040517f08c379a0000000000000000000000000000000000000000000000000000000008152600401610825906114ff565b60405180910390fd5b600160008373ffffffffffffffffffffffffffffffffffffffff1673ffffffffffffffffffffffffffffffffffffffff168152602001908152602001600020818154811061087f5761087e611484565b5b906000526020600020906005020160040160008154809291906108a190611694565b91905055507fe8a76fc0f16d11a00d1e93b689b63d76cf60af914dd3d915375dc41d01a0c3c8338383600160008773ffffffffffffffffffffffffffffffffffffffff1673ffffffffffffffffffffffffffffffffffffffff168152602001908152602001600020858154811061091b5761091a611484565b5b90600052602060002090600502016004015460405161093d94939291906115e3565b60405180910390a15050565b60008054906101000a900461ffff1681565b60008054906101000a900461ffff1661ffff16815111156109b1576040517f08c379a00000000000000000000000000000000000000000000000000000000081526004016109a890611728565b60405180910390fd5b60006040518060a00160405280600160003373ffffffffffffffffffffffffffffffffffffffff1673ffffffffffffffffffffffffffffffffffffffff1681526020019081526020016000208054905081526020013373ffffffffffffffffffffffffffffffffffffffff16815260200183815260200142815260200160008152509050600160003373ffffffffffffffffffffffffffffffffffffffff1673ffffffffffffffffffffffffffffffffffffffff1681526020019081526020016000208190806001815401808255809150506001900390600052602060002090600502016000909190919091506000820151816000015560208201518160010160006101000a81548173ffffffffffffffffffffffffffffffffffffffff021916908373ffffffffffffffffffffffffffffffffffffffff1602179055506040820151816002019081610b0491906118f4565b50606082015181600301556080820151816004015550507f16fd3c13e9d46923e0a8bce11c7b473ec508a72e6c96cd2404b29ce972afc29e8160000151826020015183604001518460600151604051610b6094939291906119c6565b60405180910390a15050565b600260009054906101000a900473ffffffffffffffffffffffffffffffffffffffff1681565b610b9a610d11565b600160003373ffffffffffffffffffffffffffffffffffffffff1673ffffffffffffffffffffffffffffffffffffffff1681526020019081526020016000208281548110610beb57610bea611484565b5b90600052602060002090600502016040518060a0016040529081600082015481526020016001820160009054906101000a900473ffffffffffffffffffffffffffffffffffffffff1673ffffffffffffffffffffffffffffffffffffffff1673ffffffffffffffffffffffffffffffffffffffff168152602001600282018054610c7490611453565b80601f0160208091040260200160405190810160405280929190818152602001828054610ca090611453565b8015610ced5780601f10610cc257610100808354040283529160200191610ced565b820191906000526020600020905b815481529060010190602001808311610cd057829003601f168201915b50505050508152602001600382015481526020016004820154815250509050919050565b6040518060a0016040528060008152602001600073ffffffffffffffffffffffffffffffffffffffff1681526020016060815260200160008152602001600081525090565b6000604051905090565b600080fd5b600080fd5b600073ffffffffffffffffffffffffffffffffffffffff82169050919050565b6000610d9582610d6a565b9050919050565b610da581610d8a565b8114610db057600080fd5b50565b600081359050610dc281610d9c565b92915050565b6000819050919050565b610ddb81610dc8565b8114610de657600080fd5b50565b600081359050610df881610dd2565b92915050565b60008060408385031215610e1557610e14610d60565b5b6000610e2385828601610db3565b9250506020610e3485828601610de9565b9150509250929050565b610e4781610dc8565b82525050565b610e5681610d8a565b82525050565b600081519050919050565b600082825260208201905092915050565b60005b83811015610e96578082015181840152602081019050610e7b565b60008484015250505050565b6000601f19601f8301169050919050565b6000610ebe82610e5c565b610ec88185610e67565b9350610ed8818560208601610e78565b610ee181610ea2565b840191505092915050565b600060a082019050610f016000830188610e3e565b610f0e6020830187610e4d565b8181036040830152610f208186610eb3565b9050610f2f6060830185610e3e565b610f3c6080830184610e3e565b9695505050505050565b600060208284031215610f5c57610f5b610d60565b5b6000610f6a84828501610db3565b91505092915050565b600081519050919050565b600082825260208201905092915050565b6000819050602082019050919050565b610fa881610dc8565b82525050565b610fb781610d8a565b82525050565b600082825260208201905092915050565b6000610fd982610e5c565b610fe38185610fbd565b9350610ff3818560208601610e78565b610ffc81610ea2565b840191505092915050565b600060a08301600083015161101f6000860182610f9f565b5060208301516110326020860182610fae565b506040830151848203604086015261104a8282610fce565b915050606083015161105f6060860182610f9f565b5060808301516110726080860182610f9f565b508091505092915050565b60006110898383611007565b905092915050565b6000602082019050919050565b60006110a982610f73565b6110b38185610f7e565b9350836020820285016110c585610f8f565b8060005b8581101561110157848403895281516110e2858261107d565b94506110ed83611091565b925060208a019950506001810190506110c9565b50829750879550505050505092915050565b6000602082019050818103600083015261112d818461109e565b905092915050565b600061ffff82169050919050565b61114c81611135565b811461115757600080fd5b50565b60008135905061116981611143565b92915050565b60006020828403121561118557611184610d60565b5b60006111938482850161115a565b91505092915050565b6111a581611135565b82525050565b60006020820190506111c0600083018461119c565b92915050565b600080fd5b600080fd5b7f4e487b7100000000000000000000000000000000000000000000000000000000600052604160045260246000fd5b61120882610ea2565b810181811067ffffffffffffffff82111715611227576112266111d0565b5b80604052505050565b600061123a610d56565b905061124682826111ff565b919050565b600067ffffffffffffffff821115611266576112656111d0565b5b61126f82610ea2565b9050602081019050919050565b82818337600083830152505050565b600061129e6112998461124b565b611230565b9050828152602081018484840111156112ba576112b96111cb565b5b6112c584828561127c565b509392505050565b600082601f8301126112e2576112e16111c6565b5b81356112f284826020860161128b565b91505092915050565b60006020828403121561131157611310610d60565b5b600082013567ffffffffffffffff81111561132f5761132e610d65565b5b61133b848285016112cd565b91505092915050565b60006020820190506113596000830184610e4d565b92915050565b60006020828403121561137557611374610d60565b5b600061138384828501610de9565b91505092915050565b600060a0830160008301516113a46000860182610f9f565b5060208301516113b76020860182610fae565b50604083015184820360408601526113cf8282610fce565b91505060608301516113e46060860182610f9f565b5060808301516113f76080860182610f9f565b508091505092915050565b6000602082019050818103600083015261141c818461138c565b905092915050565b7f4e487b7100000000000000000000000000000000000000000000000000000000600052602260045260246000fd5b6000600282049050600182168061146b57607f821691505b60208210810361147e5761147d611424565b5b50919050565b7f4e487b7100000000000000000000000000000000000000000000000000000000600052603260045260246000fd5b7f545745455420444f4553204e4f54204558495354000000000000000000000000600082015250565b60006114e9601483610e67565b91506114f4826114b3565b602082019050919050565b60006020820190508181036000830152611518816114dc565b9050919050565b7f545745455420484153204e4f204c494b45530000000000000000000000000000600082015250565b6000611555601283610e67565b91506115608261151f565b602082019050919050565b6000602082019050818103600083015261158481611548565b9050919050565b7f4e487b7100000000000000000000000000000000000000000000000000000000600052601160045260246000fd5b60006115c582610dc8565b9150600082036115d8576115d761158b565b5b600182039050919050565b60006080820190506115f86000830187610e4d565b6116056020830186610e4d565b6116126040830185610e3e565b61161f6060830184610e3e565b95945050505050565b7f594f5520415245204e4f5420544845204f574e45522100000000000000000000600082015250565b600061165e601683610e67565b915061166982611628565b602082019050919050565b6000602082019050818103600083015261168d81611651565b9050919050565b600061169f82610dc8565b91507fffffffffffffffffffffffffffffffffffffffffffffffffffffffffffffffff82036116d1576116d061158b565b5b600182019050919050565b7f547765657420697320746f6f206c6f6e672062726f2100000000000000000000600082015250565b6000611712601683610e67565b915061171d826116dc565b602082019050919050565b6000602082019050818103600083015261174181611705565b9050919050565b60008190508160005260206000209050919050565b60006020601f8301049050919050565b600082821b905092915050565b6000600883026117aa7fffffffffffffffffffffffffffffffffffffffffffffffffffffffffffffffff8261176d565b6117b4868361176d565b95508019841693508086168417925050509392505050565b6000819050919050565b60006117f16117ec6117e784610dc8565b6117cc565b610dc8565b9050919050565b6000819050919050565b61180b836117d6565b61181f611817826117f8565b84845461177a565b825550505050565b600090565b611834611827565b61183f818484611802565b505050565b5b818110156118635761185860008261182c565b600181019050611845565b5050565b601f8211156118a85761187981611748565b6118828461175d565b81016020851015611891578190505b6118a561189d8561175d565b830182611844565b50505b505050565b600082821c905092915050565b60006118cb600019846008026118ad565b1980831691505092915050565b60006118e483836118ba565b9150826002028217905092915050565b6118fd82610e5c565b67ffffffffffffffff811115611916576119156111d0565b5b6119208254611453565b61192b828285611867565b600060209050601f83116001811461195e576000841561194c578287015190505b61195685826118d8565b8655506119be565b601f19841661196c86611748565b60005b828110156119945784890151825560018201915060208501945060208101905061196f565b868310156119b157848901516119ad601f8916826118ba565b8355505b6001600288020188555050505b505050505050565b60006080820190506119db6000830187610e3e565b6119e86020830186610e4d565b81810360408301526119fa8185610eb3565b9050611a096060830184610e3e565b9594505050505056fea264697066735822122015ccd2db4a7ebfe5da14a6dc11c5b8c5db44d67126e8e82a1bedbb2f18ec8bd964736f6c63430008120033",
					"opcodes": "PUSH1 0x80 PUSH1 0x40 MSTORE PUSH2 0x118 PUSH1 0x0 DUP1 PUSH2 0x100 EXP DUP2 SLOAD DUP2 PUSH2 0xFFFF MUL NOT AND SWAP1 DUP4 PUSH2 0xFFFF AND MUL OR SWAP1 SSTORE POP CALLVALUE DUP1 ISZERO PUSH2 0x2E JUMPI PUSH1 0x0 DUP1 REVERT JUMPDEST POP CALLER PUSH1 0x2 PUSH1 0x0 PUSH2 0x100 EXP DUP2 SLOAD DUP2 PUSH20 0xFFFFFFFFFFFFFFFFFFFFFFFFFFFFFFFFFFFFFFFF MUL NOT AND SWAP1 DUP4 PUSH20 0xFFFFFFFFFFFFFFFFFFFFFFFFFFFFFFFFFFFFFFFF AND MUL OR SWAP1 SSTORE POP PUSH2 0x1A48 DUP1 PUSH2 0x7F PUSH1 0x0 CODECOPY PUSH1 0x0 RETURN INVALID PUSH1 0x80 PUSH1 0x40 MSTORE CALLVALUE DUP1 ISZERO PUSH2 0x10 JUMPI PUSH1 0x0 DUP1 REVERT JUMPDEST POP PUSH1 0x4 CALLDATASIZE LT PUSH2 0x93 JUMPI PUSH1 0x0 CALLDATALOAD PUSH1 0xE0 SHR DUP1 PUSH4 0x63378216 GT PUSH2 0x66 JUMPI DUP1 PUSH4 0x63378216 EQ PUSH2 0x134 JUMPI DUP1 PUSH4 0x6EB10797 EQ PUSH2 0x150 JUMPI DUP1 PUSH4 0x7C9CD2BC EQ PUSH2 0x16E JUMPI DUP1 PUSH4 0x8DA5CB5B EQ PUSH2 0x18A JUMPI DUP1 PUSH4 0xC3AD5ECB EQ PUSH2 0x1A8 JUMPI PUSH2 0x93 JUMP JUMPDEST DUP1 PUSH4 0x5A1B4A9 EQ PUSH2 0x98 JUMPI DUP1 PUSH4 0x12E7EE1C EQ PUSH2 0xCC JUMPI DUP1 PUSH4 0x3D9B569F EQ PUSH2 0xFC JUMPI DUP1 PUSH4 0x58BFA4AB EQ PUSH2 0x118 JUMPI JUMPDEST PUSH1 0x0 DUP1 REVERT JUMPDEST PUSH2 0xB2 PUSH1 0x4 DUP1 CALLDATASIZE SUB DUP2 ADD SWAP1 PUSH2 0xAD SWAP2 SWAP1 PUSH2 0xDFE JUMP JUMPDEST PUSH2 0x1D8 JUMP JUMPDEST PUSH1 0x40 MLOAD PUSH2 0xC3 SWAP6 SWAP5 SWAP4 SWAP3 SWAP2 SWAP1 PUSH2 0xEEC JUMP JUMPDEST PUSH1 0x40 MLOAD DUP1 SWAP2 SUB SWAP1 RETURN JUMPDEST PUSH2 0xE6 PUSH1 0x4 DUP1 CALLDATASIZE SUB DUP2 ADD SWAP1 PUSH2 0xE1 SWAP2 SWAP1 PUSH2 0xF46 JUMP JUMPDEST PUSH2 0x2D3 JUMP JUMPDEST PUSH1 0x40 MLOAD PUSH2 0xF3 SWAP2 SWAP1 PUSH2 0x1113 JUMP JUMPDEST PUSH1 0x40 MLOAD DUP1 SWAP2 SUB SWAP1 RETURN JUMPDEST PUSH2 0x116 PUSH1 0x4 DUP1 CALLDATASIZE SUB DUP2 ADD SWAP1 PUSH2 0x111 SWAP2 SWAP1 PUSH2 0xDFE JUMP JUMPDEST PUSH2 0x477 JUMP JUMPDEST STOP JUMPDEST PUSH2 0x132 PUSH1 0x4 DUP1 CALLDATASIZE SUB DUP2 ADD SWAP1 PUSH2 0x12D SWAP2 SWAP1 PUSH2 0x116F JUMP JUMPDEST PUSH2 0x6DB JUMP JUMPDEST STOP JUMPDEST PUSH2 0x14E PUSH1 0x4 DUP1 CALLDATASIZE SUB DUP2 ADD SWAP1 PUSH2 0x149 SWAP2 SWAP1 PUSH2 0xDFE JUMP JUMPDEST PUSH2 0x78A JUMP JUMPDEST STOP JUMPDEST PUSH2 0x158 PUSH2 0x949 JUMP JUMPDEST PUSH1 0x40 MLOAD PUSH2 0x165 SWAP2 SWAP1 PUSH2 0x11AB JUMP JUMPDEST PUSH1 0x40 MLOAD DUP1 SWAP2 SUB SWAP1 RETURN JUMPDEST PUSH2 0x188 PUSH1 0x4 DUP1 CALLDATASIZE SUB DUP2 ADD SWAP1 PUSH2 0x183 SWAP2 SWAP1 PUSH2 0x12FB JUMP JUMPDEST PUSH2 0x95B JUMP JUMPDEST STOP JUMPDEST PUSH2 0x192 PUSH2 0xB6C JUMP JUMPDEST PUSH1 0x40 MLOAD PUSH2 0x19F SWAP2 SWAP1 PUSH2 0x1344 JUMP JUMPDEST PUSH1 0x40 MLOAD DUP1 SWAP2 SUB SWAP1 RETURN JUMPDEST PUSH2 0x1C2 PUSH1 0x4 DUP1 CALLDATASIZE SUB DUP2 ADD SWAP1 PUSH2 0x1BD SWAP2 SWAP1 PUSH2 0x135F JUMP JUMPDEST PUSH2 0xB92 JUMP JUMPDEST PUSH1 0x40 MLOAD PUSH2 0x1CF SWAP2 SWAP1 PUSH2 0x1402 JUMP JUMPDEST PUSH1 0x40 MLOAD DUP1 SWAP2 SUB SWAP1 RETURN JUMPDEST PUSH1 0x1 PUSH1 0x20 MSTORE DUP2 PUSH1 0x0 MSTORE PUSH1 0x40 PUSH1 0x0 KECCAK256 DUP2 DUP2 SLOAD DUP2 LT PUSH2 0x1F4 JUMPI PUSH1 0x0 DUP1 REVERT JUMPDEST SWAP1 PUSH1 0x0 MSTORE PUSH1 0x20 PUSH1 0x0 KECCAK256 SWAP1 PUSH1 0x5 MUL ADD PUSH1 0x0 SWAP2 POP SWAP2 POP POP DUP1 PUSH1 0x0 ADD SLOAD SWAP1 DUP1 PUSH1 0x1 ADD PUSH1 0x0 SWAP1 SLOAD SWAP1 PUSH2 0x100 EXP SWAP1 DIV PUSH20 0xFFFFFFFFFFFFFFFFFFFFFFFFFFFFFFFFFFFFFFFF AND SWAP1 DUP1 PUSH1 0x2 ADD DUP1 SLOAD PUSH2 0x244 SWAP1 PUSH2 0x1453 JUMP JUMPDEST DUP1 PUSH1 0x1F ADD PUSH1 0x20 DUP1 SWAP2 DIV MUL PUSH1 0x20 ADD PUSH1 0x40 MLOAD SWAP1 DUP2 ADD PUSH1 0x40 MSTORE DUP1 SWAP3 SWAP2 SWAP1 DUP2 DUP2 MSTORE PUSH1 0x20 ADD DUP3 DUP1 SLOAD PUSH2 0x270 SWAP1 PUSH2 0x1453 JUMP JUMPDEST DUP1 ISZERO PUSH2 0x2BD JUMPI DUP1 PUSH1 0x1F LT PUSH2 0x292 JUMPI PUSH2 0x100 DUP1 DUP4 SLOAD DIV MUL DUP4 MSTORE SWAP2 PUSH1 0x20 ADD SWAP2 PUSH2 0x2BD JUMP JUMPDEST DUP3 ADD SWAP2 SWAP1 PUSH1 0x0 MSTORE PUSH1 0x20 PUSH1 0x0 KECCAK256 SWAP1 JUMPDEST DUP2 SLOAD DUP2 MSTORE SWAP1 PUSH1 0x1 ADD SWAP1 PUSH1 0x20 ADD DUP1 DUP4 GT PUSH2 0x2A0 JUMPI DUP3 SWAP1 SUB PUSH1 0x1F AND DUP3 ADD SWAP2 JUMPDEST POP POP POP POP POP SWAP1 DUP1 PUSH1 0x3 ADD SLOAD SWAP1 DUP1 PUSH1 0x4 ADD SLOAD SWAP1 POP DUP6 JUMP JUMPDEST PUSH1 0x60 PUSH1 0x1 PUSH1 0x0 DUP4 PUSH20 0xFFFFFFFFFFFFFFFFFFFFFFFFFFFFFFFFFFFFFFFF AND PUSH20 0xFFFFFFFFFFFFFFFFFFFFFFFFFFFFFFFFFFFFFFFF AND DUP2 MSTORE PUSH1 0x20 ADD SWAP1 DUP2 MSTORE PUSH1 0x20 ADD PUSH1 0x0 KECCAK256 DUP1 SLOAD DUP1 PUSH1 0x20 MUL PUSH1 0x20 ADD PUSH1 0x40 MLOAD SWAP1 DUP2 ADD PUSH1 0x40 MSTORE DUP1 SWAP3 SWAP2 SWAP1 DUP2 DUP2 MSTORE PUSH1 0x20 ADD PUSH1 0x0 SWAP1 JUMPDEST DUP3 DUP3 LT ISZERO PUSH2 0x46C JUMPI DUP4 DUP3 SWAP1 PUSH1 0x0 MSTORE PUSH1 0x20 PUSH1 0x0 KECCAK256 SWAP1 PUSH1 0x5 MUL ADD PUSH1 0x40 MLOAD DUP1 PUSH1 0xA0 ADD PUSH1 0x40 MSTORE SWAP1 DUP2 PUSH1 0x0 DUP3 ADD SLOAD DUP2 MSTORE PUSH1 0x20 ADD PUSH1 0x1 DUP3 ADD PUSH1 0x0 SWAP1 SLOAD SWAP1 PUSH2 0x100 EXP SWAP1 DIV PUSH20 0xFFFFFFFFFFFFFFFFFFFFFFFFFFFFFFFFFFFFFFFF AND PUSH20 0xFFFFFFFFFFFFFFFFFFFFFFFFFFFFFFFFFFFFFFFF AND PUSH20 0xFFFFFFFFFFFFFFFFFFFFFFFFFFFFFFFFFFFFFFFF AND DUP2 MSTORE PUSH1 0x20 ADD PUSH1 0x2 DUP3 ADD DUP1 SLOAD PUSH2 0x3C7 SWAP1 PUSH2 0x1453 JUMP JUMPDEST DUP1 PUSH1 0x1F ADD PUSH1 0x20 DUP1 SWAP2 DIV MUL PUSH1 0x20 ADD PUSH1 0x40 MLOAD SWAP1 DUP2 ADD PUSH1 0x40 MSTORE DUP1 SWAP3 SWAP2 SWAP1 DUP2 DUP2 MSTORE PUSH1 0x20 ADD DUP3 DUP1 SLOAD PUSH2 0x3F3 SWAP1 PUSH2 0x1453 JUMP JUMPDEST DUP1 ISZERO PUSH2 0x440 JUMPI DUP1 PUSH1 0x1F LT PUSH2 0x415 JUMPI PUSH2 0x100 DUP1 DUP4 SLOAD DIV MUL DUP4 MSTORE SWAP2 PUSH1 0x20 ADD SWAP2 PUSH2 0x440 JUMP JUMPDEST DUP3 ADD SWAP2 SWAP1 PUSH1 0x0 MSTORE PUSH1 0x20 PUSH1 0x0 KECCAK256 SWAP1 JUMPDEST DUP2 SLOAD DUP2 MSTORE SWAP1 PUSH1 0x1 ADD SWAP1 PUSH1 0x20 ADD DUP1 DUP4 GT PUSH2 0x423 JUMPI DUP3 SWAP1 SUB PUSH1 0x1F AND DUP3 ADD SWAP2 JUMPDEST POP POP POP POP POP DUP2 MSTORE PUSH1 0x20 ADD PUSH1 0x3 DUP3 ADD SLOAD DUP2 MSTORE PUSH1 0x20 ADD PUSH1 0x4 DUP3 ADD SLOAD DUP2 MSTORE POP POP DUP2 MSTORE PUSH1 0x20 ADD SWAP1 PUSH1 0x1 ADD SWAP1 PUSH2 0x334 JUMP JUMPDEST POP POP POP POP SWAP1 POP SWAP2 SWAP1 POP JUMP JUMPDEST DUP1 PUSH1 0x1 PUSH1 0x0 DUP5 PUSH20 0xFFFFFFFFFFFFFFFFFFFFFFFFFFFFFFFFFFFFFFFF AND PUSH20 0xFFFFFFFFFFFFFFFFFFFFFFFFFFFFFFFFFFFFFFFF AND DUP2 MSTORE PUSH1 0x20 ADD SWAP1 DUP2 MSTORE PUSH1 0x20 ADD PUSH1 0x0 KECCAK256 DUP3 DUP2 SLOAD DUP2 LT PUSH2 0x4C9 JUMPI PUSH2 0x4C8 PUSH2 0x1484 JUMP JUMPDEST JUMPDEST SWAP1 PUSH1 0x0 MSTORE PUSH1 0x20 PUSH1 0x0 KECCAK256 SWAP1 PUSH1 0x5 MUL ADD PUSH1 0x0 ADD SLOAD EQ PUSH2 0x51B JUMPI PUSH1 0x40 MLOAD PUSH32 0x8C379A000000000000000000000000000000000000000000000000000000000 DUP2 MSTORE PUSH1 0x4 ADD PUSH2 0x512 SWAP1 PUSH2 0x14FF JUMP JUMPDEST PUSH1 0x40 MLOAD DUP1 SWAP2 SUB SWAP1 REVERT JUMPDEST PUSH1 0x0 PUSH1 0x1 PUSH1 0x0 DUP5 PUSH20 0xFFFFFFFFFFFFFFFFFFFFFFFFFFFFFFFFFFFFFFFF AND PUSH20 0xFFFFFFFFFFFFFFFFFFFFFFFFFFFFFFFFFFFFFFFF AND DUP2 MSTORE PUSH1 0x20 ADD SWAP1 DUP2 MSTORE PUSH1 0x20 ADD PUSH1 0x0 KECCAK256 DUP3 DUP2 SLOAD DUP2 LT PUSH2 0x56E JUMPI PUSH2 0x56D PUSH2 0x1484 JUMP JUMPDEST JUMPDEST SWAP1 PUSH1 0x0 MSTORE PUSH1 0x20 PUSH1 0x0 KECCAK256 SWAP1 PUSH1 0x5 MUL ADD PUSH1 0x4 ADD SLOAD GT PUSH2 0x5C0 JUMPI PUSH1 0x40 MLOAD PUSH32 0x8C379A000000000000000000000000000000000000000000000000000000000 DUP2 MSTORE PUSH1 0x4 ADD PUSH2 0x5B7 SWAP1 PUSH2 0x156B JUMP JUMPDEST PUSH1 0x40 MLOAD DUP1 SWAP2 SUB SWAP1 REVERT JUMPDEST PUSH1 0x1 PUSH1 0x0 DUP4 PUSH20 0xFFFFFFFFFFFFFFFFFFFFFFFFFFFFFFFFFFFFFFFF AND PUSH20 0xFFFFFFFFFFFFFFFFFFFFFFFFFFFFFFFFFFFFFFFF AND DUP2 MSTORE PUSH1 0x20 ADD SWAP1 DUP2 MSTORE PUSH1 0x20 ADD PUSH1 0x0 KECCAK256 DUP2 DUP2 SLOAD DUP2 LT PUSH2 0x611 JUMPI PUSH2 0x610 PUSH2 0x1484 JUMP JUMPDEST JUMPDEST SWAP1 PUSH1 0x0 MSTORE PUSH1 0x20 PUSH1 0x0 KECCAK256 SWAP1 PUSH1 0x5 MUL ADD PUSH1 0x4 ADD PUSH1 0x0 DUP2 SLOAD DUP1 SWAP3 SWAP2 SWAP1 PUSH2 0x633 SWAP1 PUSH2 0x15BA JUMP JUMPDEST SWAP2 SWAP1 POP SSTORE POP PUSH32 0x762C2616349603AC16EBA0DE8E6141B79129A07AB63BD99E0A80B3A471716943 CALLER DUP4 DUP4 PUSH1 0x1 PUSH1 0x0 DUP8 PUSH20 0xFFFFFFFFFFFFFFFFFFFFFFFFFFFFFFFFFFFFFFFF AND PUSH20 0xFFFFFFFFFFFFFFFFFFFFFFFFFFFFFFFFFFFFFFFF AND DUP2 MSTORE PUSH1 0x20 ADD SWAP1 DUP2 MSTORE PUSH1 0x20 ADD PUSH1 0x0 KECCAK256 DUP6 DUP2 SLOAD DUP2 LT PUSH2 0x6AD JUMPI PUSH2 0x6AC PUSH2 0x1484 JUMP JUMPDEST JUMPDEST SWAP1 PUSH1 0x0 MSTORE PUSH1 0x20 PUSH1 0x0 KECCAK256 SWAP1 PUSH1 0x5 MUL ADD PUSH1 0x4 ADD SLOAD PUSH1 0x40 MLOAD PUSH2 0x6CF SWAP5 SWAP4 SWAP3 SWAP2 SWAP1 PUSH2 0x15E3 JUMP JUMPDEST PUSH1 0x40 MLOAD DUP1 SWAP2 SUB SWAP1 LOG1 POP POP JUMP JUMPDEST PUSH1 0x2 PUSH1 0x0 SWAP1 SLOAD SWAP1 PUSH2 0x100 EXP SWAP1 DIV PUSH20 0xFFFFFFFFFFFFFFFFFFFFFFFFFFFFFFFFFFFFFFFF AND PUSH20 0xFFFFFFFFFFFFFFFFFFFFFFFFFFFFFFFFFFFFFFFF AND CALLER PUSH20 0xFFFFFFFFFFFFFFFFFFFFFFFFFFFFFFFFFFFFFFFF AND EQ PUSH2 0x76B JUMPI PUSH1 0x40 MLOAD PUSH32 0x8C379A000000000000000000000000000000000000000000000000000000000 DUP2 MSTORE PUSH1 0x4 ADD PUSH2 0x762 SWAP1 PUSH2 0x1674 JUMP JUMPDEST PUSH1 0x40 MLOAD DUP1 SWAP2 SUB SWAP1 REVERT JUMPDEST DUP1 PUSH1 0x0 DUP1 PUSH2 0x100 EXP DUP2 SLOAD DUP2 PUSH2 0xFFFF MUL NOT AND SWAP1 DUP4 PUSH2 0xFFFF AND MUL OR SWAP1 SSTORE POP POP JUMP JUMPDEST DUP1 PUSH1 0x1 PUSH1 0x0 DUP5 PUSH20 0xFFFFFFFFFFFFFFFFFFFFFFFFFFFFFFFFFFFFFFFF AND PUSH20 0xFFFFFFFFFFFFFFFFFFFFFFFFFFFFFFFFFFFFFFFF AND DUP2 MSTORE PUSH1 0x20 ADD SWAP1 DUP2 MSTORE PUSH1 0x20 ADD PUSH1 0x0 KECCAK256 DUP3 DUP2 SLOAD DUP2 LT PUSH2 0x7DC JUMPI PUSH2 0x7DB PUSH2 0x1484 JUMP JUMPDEST JUMPDEST SWAP1 PUSH1 0x0 MSTORE PUSH1 0x20 PUSH1 0x0 KECCAK256 SWAP1 PUSH1 0x5 MUL ADD PUSH1 0x0 ADD SLOAD EQ PUSH2 0x82E JUMPI PUSH1 0x40 MLOAD PUSH32 0x8C379A000000000000000000000000000000000000000000000000000000000 DUP2 MSTORE PUSH1 0x4 ADD PUSH2 0x825 SWAP1 PUSH2 0x14FF JUMP JUMPDEST PUSH1 0x40 MLOAD DUP1 SWAP2 SUB SWAP1 REVERT JUMPDEST PUSH1 0x1 PUSH1 0x0 DUP4 PUSH20 0xFFFFFFFFFFFFFFFFFFFFFFFFFFFFFFFFFFFFFFFF AND PUSH20 0xFFFFFFFFFFFFFFFFFFFFFFFFFFFFFFFFFFFFFFFF AND DUP2 MSTORE PUSH1 0x20 ADD SWAP1 DUP2 MSTORE PUSH1 0x20 ADD PUSH1 0x0 KECCAK256 DUP2 DUP2 SLOAD DUP2 LT PUSH2 0x87F JUMPI PUSH2 0x87E PUSH2 0x1484 JUMP JUMPDEST JUMPDEST SWAP1 PUSH1 0x0 MSTORE PUSH1 0x20 PUSH1 0x0 KECCAK256 SWAP1 PUSH1 0x5 MUL ADD PUSH1 0x4 ADD PUSH1 0x0 DUP2 SLOAD DUP1 SWAP3 SWAP2 SWAP1 PUSH2 0x8A1 SWAP1 PUSH2 0x1694 JUMP JUMPDEST SWAP2 SWAP1 POP SSTORE POP PUSH32 0xE8A76FC0F16D11A00D1E93B689B63D76CF60AF914DD3D915375DC41D01A0C3C8 CALLER DUP4 DUP4 PUSH1 0x1 PUSH1 0x0 DUP8 PUSH20 0xFFFFFFFFFFFFFFFFFFFFFFFFFFFFFFFFFFFFFFFF AND PUSH20 0xFFFFFFFFFFFFFFFFFFFFFFFFFFFFFFFFFFFFFFFF AND DUP2 MSTORE PUSH1 0x20 ADD SWAP1 DUP2 MSTORE PUSH1 0x20 ADD PUSH1 0x0 KECCAK256 DUP6 DUP2 SLOAD DUP2 LT PUSH2 0x91B JUMPI PUSH2 0x91A PUSH2 0x1484 JUMP JUMPDEST JUMPDEST SWAP1 PUSH1 0x0 MSTORE PUSH1 0x20 PUSH1 0x0 KECCAK256 SWAP1 PUSH1 0x5 MUL ADD PUSH1 0x4 ADD SLOAD PUSH1 0x40 MLOAD PUSH2 0x93D SWAP5 SWAP4 SWAP3 SWAP2 SWAP1 PUSH2 0x15E3 JUMP JUMPDEST PUSH1 0x40 MLOAD DUP1 SWAP2 SUB SWAP1 LOG1 POP POP JUMP JUMPDEST PUSH1 0x0 DUP1 SLOAD SWAP1 PUSH2 0x100 EXP SWAP1 DIV PUSH2 0xFFFF AND DUP2 JUMP JUMPDEST PUSH1 0x0 DUP1 SLOAD SWAP1 PUSH2 0x100 EXP SWAP1 DIV PUSH2 0xFFFF AND PUSH2 0xFFFF AND DUP2 MLOAD GT ISZERO PUSH2 0x9B1 JUMPI PUSH1 0x40 MLOAD PUSH32 0x8C379A000000000000000000000000000000000000000000000000000000000 DUP2 MSTORE PUSH1 0x4 ADD PUSH2 0x9A8 SWAP1 PUSH2 0x1728 JUMP JUMPDEST PUSH1 0x40 MLOAD DUP1 SWAP2 SUB SWAP1 REVERT JUMPDEST PUSH1 0x0 PUSH1 0x40 MLOAD DUP1 PUSH1 0xA0 ADD PUSH1 0x40 MSTORE DUP1 PUSH1 0x1 PUSH1 0x0 CALLER PUSH20 0xFFFFFFFFFFFFFFFFFFFFFFFFFFFFFFFFFFFFFFFF AND PUSH20 0xFFFFFFFFFFFFFFFFFFFFFFFFFFFFFFFFFFFFFFFF AND DUP2 MSTORE PUSH1 0x20 ADD SWAP1 DUP2 MSTORE PUSH1 0x20 ADD PUSH1 0x0 KECCAK256 DUP1 SLOAD SWAP1 POP DUP2 MSTORE PUSH1 0x20 ADD CALLER PUSH20 0xFFFFFFFFFFFFFFFFFFFFFFFFFFFFFFFFFFFFFFFF AND DUP2 MSTORE PUSH1 0x20 ADD DUP4 DUP2 MSTORE PUSH1 0x20 ADD TIMESTAMP DUP2 MSTORE PUSH1 0x20 ADD PUSH1 0x0 DUP2 MSTORE POP SWAP1 POP PUSH1 0x1 PUSH1 0x0 CALLER PUSH20 0xFFFFFFFFFFFFFFFFFFFFFFFFFFFFFFFFFFFFFFFF AND PUSH20 0xFFFFFFFFFFFFFFFFFFFFFFFFFFFFFFFFFFFFFFFF AND DUP2 MSTORE PUSH1 0x20 ADD SWAP1 DUP2 MSTORE PUSH1 0x20 ADD PUSH1 0x0 KECCAK256 DUP2 SWAP1 DUP1 PUSH1 0x1 DUP2 SLOAD ADD DUP1 DUP3 SSTORE DUP1 SWAP2 POP POP PUSH1 0x1 SWAP1 SUB SWAP1 PUSH1 0x0 MSTORE PUSH1 0x20 PUSH1 0x0 KECCAK256 SWAP1 PUSH1 0x5 MUL ADD PUSH1 0x0 SWAP1 SWAP2 SWAP1 SWAP2 SWAP1 SWAP2 POP PUSH1 0x0 DUP3 ADD MLOAD DUP2 PUSH1 0x0 ADD SSTORE PUSH1 0x20 DUP3 ADD MLOAD DUP2 PUSH1 0x1 ADD PUSH1 0x0 PUSH2 0x100 EXP DUP2 SLOAD DUP2 PUSH20 0xFFFFFFFFFFFFFFFFFFFFFFFFFFFFFFFFFFFFFFFF MUL NOT AND SWAP1 DUP4 PUSH20 0xFFFFFFFFFFFFFFFFFFFFFFFFFFFFFFFFFFFFFFFF AND MUL OR SWAP1 SSTORE POP PUSH1 0x40 DUP3 ADD MLOAD DUP2 PUSH1 0x2 ADD SWAP1 DUP2 PUSH2 0xB04 SWAP2 SWAP1 PUSH2 0x18F4 JUMP JUMPDEST POP PUSH1 0x60 DUP3 ADD MLOAD DUP2 PUSH1 0x3 ADD SSTORE PUSH1 0x80 DUP3 ADD MLOAD DUP2 PUSH1 0x4 ADD SSTORE POP POP PUSH32 0x16FD3C13E9D46923E0A8BCE11C7B473EC508A72E6C96CD2404B29CE972AFC29E DUP2 PUSH1 0x0 ADD MLOAD DUP3 PUSH1 0x20 ADD MLOAD DUP4 PUSH1 0x40 ADD MLOAD DUP5 PUSH1 0x60 ADD MLOAD PUSH1 0x40 MLOAD PUSH2 0xB60 SWAP5 SWAP4 SWAP3 SWAP2 SWAP1 PUSH2 0x19C6 JUMP JUMPDEST PUSH1 0x40 MLOAD DUP1 SWAP2 SUB SWAP1 LOG1 POP POP JUMP JUMPDEST PUSH1 0x2 PUSH1 0x0 SWAP1 SLOAD SWAP1 PUSH2 0x100 EXP SWAP1 DIV PUSH20 0xFFFFFFFFFFFFFFFFFFFFFFFFFFFFFFFFFFFFFFFF AND DUP2 JUMP JUMPDEST PUSH2 0xB9A PUSH2 0xD11 JUMP JUMPDEST PUSH1 0x1 PUSH1 0x0 CALLER PUSH20 0xFFFFFFFFFFFFFFFFFFFFFFFFFFFFFFFFFFFFFFFF AND PUSH20 0xFFFFFFFFFFFFFFFFFFFFFFFFFFFFFFFFFFFFFFFF AND DUP2 MSTORE PUSH1 0x20 ADD SWAP1 DUP2 MSTORE PUSH1 0x20 ADD PUSH1 0x0 KECCAK256 DUP3 DUP2 SLOAD DUP2 LT PUSH2 0xBEB JUMPI PUSH2 0xBEA PUSH2 0x1484 JUMP JUMPDEST JUMPDEST SWAP1 PUSH1 0x0 MSTORE PUSH1 0x20 PUSH1 0x0 KECCAK256 SWAP1 PUSH1 0x5 MUL ADD PUSH1 0x40 MLOAD DUP1 PUSH1 0xA0 ADD PUSH1 0x40 MSTORE SWAP1 DUP2 PUSH1 0x0 DUP3 ADD SLOAD DUP2 MSTORE PUSH1 0x20 ADD PUSH1 0x1 DUP3 ADD PUSH1 0x0 SWAP1 SLOAD SWAP1 PUSH2 0x100 EXP SWAP1 DIV PUSH20 0xFFFFFFFFFFFFFFFFFFFFFFFFFFFFFFFFFFFFFFFF AND PUSH20 0xFFFFFFFFFFFFFFFFFFFFFFFFFFFFFFFFFFFFFFFF AND PUSH20 0xFFFFFFFFFFFFFFFFFFFFFFFFFFFFFFFFFFFFFFFF AND DUP2 MSTORE PUSH1 0x20 ADD PUSH1 0x2 DUP3 ADD DUP1 SLOAD PUSH2 0xC74 SWAP1 PUSH2 0x1453 JUMP JUMPDEST DUP1 PUSH1 0x1F ADD PUSH1 0x20 DUP1 SWAP2 DIV MUL PUSH1 0x20 ADD PUSH1 0x40 MLOAD SWAP1 DUP2 ADD PUSH1 0x40 MSTORE DUP1 SWAP3 SWAP2 SWAP1 DUP2 DUP2 MSTORE PUSH1 0x20 ADD DUP3 DUP1 SLOAD PUSH2 0xCA0 SWAP1 PUSH2 0x1453 JUMP JUMPDEST DUP1 ISZERO PUSH2 0xCED JUMPI DUP1 PUSH1 0x1F LT PUSH2 0xCC2 JUMPI PUSH2 0x100 DUP1 DUP4 SLOAD DIV MUL DUP4 MSTORE SWAP2 PUSH1 0x20 ADD SWAP2 PUSH2 0xCED JUMP JUMPDEST DUP3 ADD SWAP2 SWAP1 PUSH1 0x0 MSTORE PUSH1 0x20 PUSH1 0x0 KECCAK256 SWAP1 JUMPDEST DUP2 SLOAD DUP2 MSTORE SWAP1 PUSH1 0x1 ADD SWAP1 PUSH1 0x20 ADD DUP1 DUP4 GT PUSH2 0xCD0 JUMPI DUP3 SWAP1 SUB PUSH1 0x1F AND DUP3 ADD SWAP2 JUMPDEST POP POP POP POP POP DUP2 MSTORE PUSH1 0x20 ADD PUSH1 0x3 DUP3 ADD SLOAD DUP2 MSTORE PUSH1 0x20 ADD PUSH1 0x4 DUP3 ADD SLOAD DUP2 MSTORE POP POP SWAP1 POP SWAP2 SWAP1 POP JUMP JUMPDEST PUSH1 0x40 MLOAD DUP1 PUSH1 0xA0 ADD PUSH1 0x40 MSTORE DUP1 PUSH1 0x0 DUP2 MSTORE PUSH1 0x20 ADD PUSH1 0x0 PUSH20 0xFFFFFFFFFFFFFFFFFFFFFFFFFFFFFFFFFFFFFFFF AND DUP2 MSTORE PUSH1 0x20 ADD PUSH1 0x60 DUP2 MSTORE PUSH1 0x20 ADD PUSH1 0x0 DUP2 MSTORE PUSH1 0x20 ADD PUSH1 0x0 DUP2 MSTORE POP SWAP1 JUMP JUMPDEST PUSH1 0x0 PUSH1 0x40 MLOAD SWAP1 POP SWAP1 JUMP JUMPDEST PUSH1 0x0 DUP1 REVERT JUMPDEST PUSH1 0x0 DUP1 REVERT JUMPDEST PUSH1 0x0 PUSH20 0xFFFFFFFFFFFFFFFFFFFFFFFFFFFFFFFFFFFFFFFF DUP3 AND SWAP1 POP SWAP2 SWAP1 POP JUMP JUMPDEST PUSH1 0x0 PUSH2 0xD95 DUP3 PUSH2 0xD6A JUMP JUMPDEST SWAP1 POP SWAP2 SWAP1 POP JUMP JUMPDEST PUSH2 0xDA5 DUP2 PUSH2 0xD8A JUMP JUMPDEST DUP2 EQ PUSH2 0xDB0 JUMPI PUSH1 0x0 DUP1 REVERT JUMPDEST POP JUMP JUMPDEST PUSH1 0x0 DUP2 CALLDATALOAD SWAP1 POP PUSH2 0xDC2 DUP2 PUSH2 0xD9C JUMP JUMPDEST SWAP3 SWAP2 POP POP JUMP JUMPDEST PUSH1 0x0 DUP2 SWAP1 POP SWAP2 SWAP1 POP JUMP JUMPDEST PUSH2 0xDDB DUP2 PUSH2 0xDC8 JUMP JUMPDEST DUP2 EQ PUSH2 0xDE6 JUMPI PUSH1 0x0 DUP1 REVERT JUMPDEST POP JUMP JUMPDEST PUSH1 0x0 DUP2 CALLDATALOAD SWAP1 POP PUSH2 0xDF8 DUP2 PUSH2 0xDD2 JUMP JUMPDEST SWAP3 SWAP2 POP POP JUMP JUMPDEST PUSH1 0x0 DUP1 PUSH1 0x40 DUP4 DUP6 SUB SLT ISZERO PUSH2 0xE15 JUMPI PUSH2 0xE14 PUSH2 0xD60 JUMP JUMPDEST JUMPDEST PUSH1 0x0 PUSH2 0xE23 DUP6 DUP3 DUP7 ADD PUSH2 0xDB3 JUMP JUMPDEST SWAP3 POP POP PUSH1 0x20 PUSH2 0xE34 DUP6 DUP3 DUP7 ADD PUSH2 0xDE9 JUMP JUMPDEST SWAP2 POP POP SWAP3 POP SWAP3 SWAP1 POP JUMP JUMPDEST PUSH2 0xE47 DUP2 PUSH2 0xDC8 JUMP JUMPDEST DUP3 MSTORE POP POP JUMP JUMPDEST PUSH2 0xE56 DUP2 PUSH2 0xD8A JUMP JUMPDEST DUP3 MSTORE POP POP JUMP JUMPDEST PUSH1 0x0 DUP2 MLOAD SWAP1 POP SWAP2 SWAP1 POP JUMP JUMPDEST PUSH1 0x0 DUP3 DUP3 MSTORE PUSH1 0x20 DUP3 ADD SWAP1 POP SWAP3 SWAP2 POP POP JUMP JUMPDEST PUSH1 0x0 JUMPDEST DUP4 DUP2 LT ISZERO PUSH2 0xE96 JUMPI DUP1 DUP3 ADD MLOAD DUP2 DUP5 ADD MSTORE PUSH1 0x20 DUP2 ADD SWAP1 POP PUSH2 0xE7B JUMP JUMPDEST PUSH1 0x0 DUP5 DUP5 ADD MSTORE POP POP POP POP JUMP JUMPDEST PUSH1 0x0 PUSH1 0x1F NOT PUSH1 0x1F DUP4 ADD AND SWAP1 POP SWAP2 SWAP1 POP JUMP JUMPDEST PUSH1 0x0 PUSH2 0xEBE DUP3 PUSH2 0xE5C JUMP JUMPDEST PUSH2 0xEC8 DUP2 DUP6 PUSH2 0xE67 JUMP JUMPDEST SWAP4 POP PUSH2 0xED8 DUP2 DUP6 PUSH1 0x20 DUP7 ADD PUSH2 0xE78 JUMP JUMPDEST PUSH2 0xEE1 DUP2 PUSH2 0xEA2 JUMP JUMPDEST DUP5 ADD SWAP2 POP POP SWAP3 SWAP2 POP POP JUMP JUMPDEST PUSH1 0x0 PUSH1 0xA0 DUP3 ADD SWAP1 POP PUSH2 0xF01 PUSH1 0x0 DUP4 ADD DUP9 PUSH2 0xE3E JUMP JUMPDEST PUSH2 0xF0E PUSH1 0x20 DUP4 ADD DUP8 PUSH2 0xE4D JUMP JUMPDEST DUP2 DUP2 SUB PUSH1 0x40 DUP4 ADD MSTORE PUSH2 0xF20 DUP2 DUP7 PUSH2 0xEB3 JUMP JUMPDEST SWAP1 POP PUSH2 0xF2F PUSH1 0x60 DUP4 ADD DUP6 PUSH2 0xE3E JUMP JUMPDEST PUSH2 0xF3C PUSH1 0x80 DUP4 ADD DUP5 PUSH2 0xE3E JUMP JUMPDEST SWAP7 SWAP6 POP POP POP POP POP POP JUMP JUMPDEST PUSH1 0x0 PUSH1 0x20 DUP3 DUP5 SUB SLT ISZERO PUSH2 0xF5C JUMPI PUSH2 0xF5B PUSH2 0xD60 JUMP JUMPDEST JUMPDEST PUSH1 0x0 PUSH2 0xF6A DUP5 DUP3 DUP6 ADD PUSH2 0xDB3 JUMP JUMPDEST SWAP2 POP POP SWAP3 SWAP2 POP POP JUMP JUMPDEST PUSH1 0x0 DUP2 MLOAD SWAP1 POP SWAP2 SWAP1 POP JUMP JUMPDEST PUSH1 0x0 DUP3 DUP3 MSTORE PUSH1 0x20 DUP3 ADD SWAP1 POP SWAP3 SWAP2 POP POP JUMP JUMPDEST PUSH1 0x0 DUP2 SWAP1 POP PUSH1 0x20 DUP3 ADD SWAP1 POP SWAP2 SWAP1 POP JUMP JUMPDEST PUSH2 0xFA8 DUP2 PUSH2 0xDC8 JUMP JUMPDEST DUP3 MSTORE POP POP JUMP JUMPDEST PUSH2 0xFB7 DUP2 PUSH2 0xD8A JUMP JUMPDEST DUP3 MSTORE POP POP JUMP JUMPDEST PUSH1 0x0 DUP3 DUP3 MSTORE PUSH1 0x20 DUP3 ADD SWAP1 POP SWAP3 SWAP2 POP POP JUMP JUMPDEST PUSH1 0x0 PUSH2 0xFD9 DUP3 PUSH2 0xE5C JUMP JUMPDEST PUSH2 0xFE3 DUP2 DUP6 PUSH2 0xFBD JUMP JUMPDEST SWAP4 POP PUSH2 0xFF3 DUP2 DUP6 PUSH1 0x20 DUP7 ADD PUSH2 0xE78 JUMP JUMPDEST PUSH2 0xFFC DUP2 PUSH2 0xEA2 JUMP JUMPDEST DUP5 ADD SWAP2 POP POP SWAP3 SWAP2 POP POP JUMP JUMPDEST PUSH1 0x0 PUSH1 0xA0 DUP4 ADD PUSH1 0x0 DUP4 ADD MLOAD PUSH2 0x101F PUSH1 0x0 DUP7 ADD DUP3 PUSH2 0xF9F JUMP JUMPDEST POP PUSH1 0x20 DUP4 ADD MLOAD PUSH2 0x1032 PUSH1 0x20 DUP7 ADD DUP3 PUSH2 0xFAE JUMP JUMPDEST POP PUSH1 0x40 DUP4 ADD MLOAD DUP5 DUP3 SUB PUSH1 0x40 DUP7 ADD MSTORE PUSH2 0x104A DUP3 DUP3 PUSH2 0xFCE JUMP JUMPDEST SWAP2 POP POP PUSH1 0x60 DUP4 ADD MLOAD PUSH2 0x105F PUSH1 0x60 DUP7 ADD DUP3 PUSH2 0xF9F JUMP JUMPDEST POP PUSH1 0x80 DUP4 ADD MLOAD PUSH2 0x1072 PUSH1 0x80 DUP7 ADD DUP3 PUSH2 0xF9F JUMP JUMPDEST POP DUP1 SWAP2 POP POP SWAP3 SWAP2 POP POP JUMP JUMPDEST PUSH1 0x0 PUSH2 0x1089 DUP4 DUP4 PUSH2 0x1007 JUMP JUMPDEST SWAP1 POP SWAP3 SWAP2 POP POP JUMP JUMPDEST PUSH1 0x0 PUSH1 0x20 DUP3 ADD SWAP1 POP SWAP2 SWAP1 POP JUMP JUMPDEST PUSH1 0x0 PUSH2 0x10A9 DUP3 PUSH2 0xF73 JUMP JUMPDEST PUSH2 0x10B3 DUP2 DUP6 PUSH2 0xF7E JUMP JUMPDEST SWAP4 POP DUP4 PUSH1 0x20 DUP3 MUL DUP6 ADD PUSH2 0x10C5 DUP6 PUSH2 0xF8F JUMP JUMPDEST DUP1 PUSH1 0x0 JUMPDEST DUP6 DUP2 LT ISZERO PUSH2 0x1101 JUMPI DUP5 DUP5 SUB DUP10 MSTORE DUP2 MLOAD PUSH2 0x10E2 DUP6 DUP3 PUSH2 0x107D JUMP JUMPDEST SWAP5 POP PUSH2 0x10ED DUP4 PUSH2 0x1091 JUMP JUMPDEST SWAP3 POP PUSH1 0x20 DUP11 ADD SWAP10 POP POP PUSH1 0x1 DUP2 ADD SWAP1 POP PUSH2 0x10C9 JUMP JUMPDEST POP DUP3 SWAP8 POP DUP8 SWAP6 POP POP POP POP POP POP SWAP3 SWAP2 POP POP JUMP JUMPDEST PUSH1 0x0 PUSH1 0x20 DUP3 ADD SWAP1 POP DUP2 DUP2 SUB PUSH1 0x0 DUP4 ADD MSTORE PUSH2 0x112D DUP2 DUP5 PUSH2 0x109E JUMP JUMPDEST SWAP1 POP SWAP3 SWAP2 POP POP JUMP JUMPDEST PUSH1 0x0 PUSH2 0xFFFF DUP3 AND SWAP1 POP SWAP2 SWAP1 POP JUMP JUMPDEST PUSH2 0x114C DUP2 PUSH2 0x1135 JUMP JUMPDEST DUP2 EQ PUSH2 0x1157 JUMPI PUSH1 0x0 DUP1 REVERT JUMPDEST POP JUMP JUMPDEST PUSH1 0x0 DUP2 CALLDATALOAD SWAP1 POP PUSH2 0x1169 DUP2 PUSH2 0x1143 JUMP JUMPDEST SWAP3 SWAP2 POP POP JUMP JUMPDEST PUSH1 0x0 PUSH1 0x20 DUP3 DUP5 SUB SLT ISZERO PUSH2 0x1185 JUMPI PUSH2 0x1184 PUSH2 0xD60 JUMP JUMPDEST JUMPDEST PUSH1 0x0 PUSH2 0x1193 DUP5 DUP3 DUP6 ADD PUSH2 0x115A JUMP JUMPDEST SWAP2 POP POP SWAP3 SWAP2 POP POP JUMP JUMPDEST PUSH2 0x11A5 DUP2 PUSH2 0x1135 JUMP JUMPDEST DUP3 MSTORE POP POP JUMP JUMPDEST PUSH1 0x0 PUSH1 0x20 DUP3 ADD SWAP1 POP PUSH2 0x11C0 PUSH1 0x0 DUP4 ADD DUP5 PUSH2 0x119C JUMP JUMPDEST SWAP3 SWAP2 POP POP JUMP JUMPDEST PUSH1 0x0 DUP1 REVERT JUMPDEST PUSH1 0x0 DUP1 REVERT JUMPDEST PUSH32 0x4E487B7100000000000000000000000000000000000000000000000000000000 PUSH1 0x0 MSTORE PUSH1 0x41 PUSH1 0x4 MSTORE PUSH1 0x24 PUSH1 0x0 REVERT JUMPDEST PUSH2 0x1208 DUP3 PUSH2 0xEA2 JUMP JUMPDEST DUP2 ADD DUP2 DUP2 LT PUSH8 0xFFFFFFFFFFFFFFFF DUP3 GT OR ISZERO PUSH2 0x1227 JUMPI PUSH2 0x1226 PUSH2 0x11D0 JUMP JUMPDEST JUMPDEST DUP1 PUSH1 0x40 MSTORE POP POP POP JUMP JUMPDEST PUSH1 0x0 PUSH2 0x123A PUSH2 0xD56 JUMP JUMPDEST SWAP1 POP PUSH2 0x1246 DUP3 DUP3 PUSH2 0x11FF JUMP JUMPDEST SWAP2 SWAP1 POP JUMP JUMPDEST PUSH1 0x0 PUSH8 0xFFFFFFFFFFFFFFFF DUP3 GT ISZERO PUSH2 0x1266 JUMPI PUSH2 0x1265 PUSH2 0x11D0 JUMP JUMPDEST JUMPDEST PUSH2 0x126F DUP3 PUSH2 0xEA2 JUMP JUMPDEST SWAP1 POP PUSH1 0x20 DUP2 ADD SWAP1 POP SWAP2 SWAP1 POP JUMP JUMPDEST DUP3 DUP2 DUP4 CALLDATACOPY PUSH1 0x0 DUP4 DUP4 ADD MSTORE POP POP POP JUMP JUMPDEST PUSH1 0x0 PUSH2 0x129E PUSH2 0x1299 DUP5 PUSH2 0x124B JUMP JUMPDEST PUSH2 0x1230 JUMP JUMPDEST SWAP1 POP DUP3 DUP2 MSTORE PUSH1 0x20 DUP2 ADD DUP5 DUP5 DUP5 ADD GT ISZERO PUSH2 0x12BA JUMPI PUSH2 0x12B9 PUSH2 0x11CB JUMP JUMPDEST JUMPDEST PUSH2 0x12C5 DUP5 DUP3 DUP6 PUSH2 0x127C JUMP JUMPDEST POP SWAP4 SWAP3 POP POP POP JUMP JUMPDEST PUSH1 0x0 DUP3 PUSH1 0x1F DUP4 ADD SLT PUSH2 0x12E2 JUMPI PUSH2 0x12E1 PUSH2 0x11C6 JUMP JUMPDEST JUMPDEST DUP2 CALLDATALOAD PUSH2 0x12F2 DUP5 DUP3 PUSH1 0x20 DUP7 ADD PUSH2 0x128B JUMP JUMPDEST SWAP2 POP POP SWAP3 SWAP2 POP POP JUMP JUMPDEST PUSH1 0x0 PUSH1 0x20 DUP3 DUP5 SUB SLT ISZERO PUSH2 0x1311 JUMPI PUSH2 0x1310 PUSH2 0xD60 JUMP JUMPDEST JUMPDEST PUSH1 0x0 DUP3 ADD CALLDATALOAD PUSH8 0xFFFFFFFFFFFFFFFF DUP2 GT ISZERO PUSH2 0x132F JUMPI PUSH2 0x132E PUSH2 0xD65 JUMP JUMPDEST JUMPDEST PUSH2 0x133B DUP5 DUP3 DUP6 ADD PUSH2 0x12CD JUMP JUMPDEST SWAP2 POP POP SWAP3 SWAP2 POP POP JUMP JUMPDEST PUSH1 0x0 PUSH1 0x20 DUP3 ADD SWAP1 POP PUSH2 0x1359 PUSH1 0x0 DUP4 ADD DUP5 PUSH2 0xE4D JUMP JUMPDEST SWAP3 SWAP2 POP POP JUMP JUMPDEST PUSH1 0x0 PUSH1 0x20 DUP3 DUP5 SUB SLT ISZERO PUSH2 0x1375 JUMPI PUSH2 0x1374 PUSH2 0xD60 JUMP JUMPDEST JUMPDEST PUSH1 0x0 PUSH2 0x1383 DUP5 DUP3 DUP6 ADD PUSH2 0xDE9 JUMP JUMPDEST SWAP2 POP POP SWAP3 SWAP2 POP POP JUMP JUMPDEST PUSH1 0x0 PUSH1 0xA0 DUP4 ADD PUSH1 0x0 DUP4 ADD MLOAD PUSH2 0x13A4 PUSH1 0x0 DUP7 ADD DUP3 PUSH2 0xF9F JUMP JUMPDEST POP PUSH1 0x20 DUP4 ADD MLOAD PUSH2 0x13B7 PUSH1 0x20 DUP7 ADD DUP3 PUSH2 0xFAE JUMP JUMPDEST POP PUSH1 0x40 DUP4 ADD MLOAD DUP5 DUP3 SUB PUSH1 0x40 DUP7 ADD MSTORE PUSH2 0x13CF DUP3 DUP3 PUSH2 0xFCE JUMP JUMPDEST SWAP2 POP POP PUSH1 0x60 DUP4 ADD MLOAD PUSH2 0x13E4 PUSH1 0x60 DUP7 ADD DUP3 PUSH2 0xF9F JUMP JUMPDEST POP PUSH1 0x80 DUP4 ADD MLOAD PUSH2 0x13F7 PUSH1 0x80 DUP7 ADD DUP3 PUSH2 0xF9F JUMP JUMPDEST POP DUP1 SWAP2 POP POP SWAP3 SWAP2 POP POP JUMP JUMPDEST PUSH1 0x0 PUSH1 0x20 DUP3 ADD SWAP1 POP DUP2 DUP2 SUB PUSH1 0x0 DUP4 ADD MSTORE PUSH2 0x141C DUP2 DUP5 PUSH2 0x138C JUMP JUMPDEST SWAP1 POP SWAP3 SWAP2 POP POP JUMP JUMPDEST PUSH32 0x4E487B7100000000000000000000000000000000000000000000000000000000 PUSH1 0x0 MSTORE PUSH1 0x22 PUSH1 0x4 MSTORE PUSH1 0x24 PUSH1 0x0 REVERT JUMPDEST PUSH1 0x0 PUSH1 0x2 DUP3 DIV SWAP1 POP PUSH1 0x1 DUP3 AND DUP1 PUSH2 0x146B JUMPI PUSH1 0x7F DUP3 AND SWAP2 POP JUMPDEST PUSH1 0x20 DUP3 LT DUP2 SUB PUSH2 0x147E JUMPI PUSH2 0x147D PUSH2 0x1424 JUMP JUMPDEST JUMPDEST POP SWAP2 SWAP1 POP JUMP JUMPDEST PUSH32 0x4E487B7100000000000000000000000000000000000000000000000000000000 PUSH1 0x0 MSTORE PUSH1 0x32 PUSH1 0x4 MSTORE PUSH1 0x24 PUSH1 0x0 REVERT JUMPDEST PUSH32 0x545745455420444F4553204E4F54204558495354000000000000000000000000 PUSH1 0x0 DUP3 ADD MSTORE POP JUMP JUMPDEST PUSH1 0x0 PUSH2 0x14E9 PUSH1 0x14 DUP4 PUSH2 0xE67 JUMP JUMPDEST SWAP2 POP PUSH2 0x14F4 DUP3 PUSH2 0x14B3 JUMP JUMPDEST PUSH1 0x20 DUP3 ADD SWAP1 POP SWAP2 SWAP1 POP JUMP JUMPDEST PUSH1 0x0 PUSH1 0x20 DUP3 ADD SWAP1 POP DUP2 DUP2 SUB PUSH1 0x0 DUP4 ADD MSTORE PUSH2 0x1518 DUP2 PUSH2 0x14DC JUMP JUMPDEST SWAP1 POP SWAP2 SWAP1 POP JUMP JUMPDEST PUSH32 0x545745455420484153204E4F204C494B45530000000000000000000000000000 PUSH1 0x0 DUP3 ADD MSTORE POP JUMP JUMPDEST PUSH1 0x0 PUSH2 0x1555 PUSH1 0x12 DUP4 PUSH2 0xE67 JUMP JUMPDEST SWAP2 POP PUSH2 0x1560 DUP3 PUSH2 0x151F JUMP JUMPDEST PUSH1 0x20 DUP3 ADD SWAP1 POP SWAP2 SWAP1 POP JUMP JUMPDEST PUSH1 0x0 PUSH1 0x20 DUP3 ADD SWAP1 POP DUP2 DUP2 SUB PUSH1 0x0 DUP4 ADD MSTORE PUSH2 0x1584 DUP2 PUSH2 0x1548 JUMP JUMPDEST SWAP1 POP SWAP2 SWAP1 POP JUMP JUMPDEST PUSH32 0x4E487B7100000000000000000000000000000000000000000000000000000000 PUSH1 0x0 MSTORE PUSH1 0x11 PUSH1 0x4 MSTORE PUSH1 0x24 PUSH1 0x0 REVERT JUMPDEST PUSH1 0x0 PUSH2 0x15C5 DUP3 PUSH2 0xDC8 JUMP JUMPDEST SWAP2 POP PUSH1 0x0 DUP3 SUB PUSH2 0x15D8 JUMPI PUSH2 0x15D7 PUSH2 0x158B JUMP JUMPDEST JUMPDEST PUSH1 0x1 DUP3 SUB SWAP1 POP SWAP2 SWAP1 POP JUMP JUMPDEST PUSH1 0x0 PUSH1 0x80 DUP3 ADD SWAP1 POP PUSH2 0x15F8 PUSH1 0x0 DUP4 ADD DUP8 PUSH2 0xE4D JUMP JUMPDEST PUSH2 0x1605 PUSH1 0x20 DUP4 ADD DUP7 PUSH2 0xE4D JUMP JUMPDEST PUSH2 0x1612 PUSH1 0x40 DUP4 ADD DUP6 PUSH2 0xE3E JUMP JUMPDEST PUSH2 0x161F PUSH1 0x60 DUP4 ADD DUP5 PUSH2 0xE3E JUMP JUMPDEST SWAP6 SWAP5 POP POP POP POP POP JUMP JUMPDEST PUSH32 0x594F5520415245204E4F5420544845204F574E45522100000000000000000000 PUSH1 0x0 DUP3 ADD MSTORE POP JUMP JUMPDEST PUSH1 0x0 PUSH2 0x165E PUSH1 0x16 DUP4 PUSH2 0xE67 JUMP JUMPDEST SWAP2 POP PUSH2 0x1669 DUP3 PUSH2 0x1628 JUMP JUMPDEST PUSH1 0x20 DUP3 ADD SWAP1 POP SWAP2 SWAP1 POP JUMP JUMPDEST PUSH1 0x0 PUSH1 0x20 DUP3 ADD SWAP1 POP DUP2 DUP2 SUB PUSH1 0x0 DUP4 ADD MSTORE PUSH2 0x168D DUP2 PUSH2 0x1651 JUMP JUMPDEST SWAP1 POP SWAP2 SWAP1 POP JUMP JUMPDEST PUSH1 0x0 PUSH2 0x169F DUP3 PUSH2 0xDC8 JUMP JUMPDEST SWAP2 POP PUSH32 0xFFFFFFFFFFFFFFFFFFFFFFFFFFFFFFFFFFFFFFFFFFFFFFFFFFFFFFFFFFFFFFFF DUP3 SUB PUSH2 0x16D1 JUMPI PUSH2 0x16D0 PUSH2 0x158B JUMP JUMPDEST JUMPDEST PUSH1 0x1 DUP3 ADD SWAP1 POP SWAP2 SWAP1 POP JUMP JUMPDEST PUSH32 0x547765657420697320746F6F206C6F6E672062726F2100000000000000000000 PUSH1 0x0 DUP3 ADD MSTORE POP JUMP JUMPDEST PUSH1 0x0 PUSH2 0x1712 PUSH1 0x16 DUP4 PUSH2 0xE67 JUMP JUMPDEST SWAP2 POP PUSH2 0x171D DUP3 PUSH2 0x16DC JUMP JUMPDEST PUSH1 0x20 DUP3 ADD SWAP1 POP SWAP2 SWAP1 POP JUMP JUMPDEST PUSH1 0x0 PUSH1 0x20 DUP3 ADD SWAP1 POP DUP2 DUP2 SUB PUSH1 0x0 DUP4 ADD MSTORE PUSH2 0x1741 DUP2 PUSH2 0x1705 JUMP JUMPDEST SWAP1 POP SWAP2 SWAP1 POP JUMP JUMPDEST PUSH1 0x0 DUP2 SWAP1 POP DUP2 PUSH1 0x0 MSTORE PUSH1 0x20 PUSH1 0x0 KECCAK256 SWAP1 POP SWAP2 SWAP1 POP JUMP JUMPDEST PUSH1 0x0 PUSH1 0x20 PUSH1 0x1F DUP4 ADD DIV SWAP1 POP SWAP2 SWAP1 POP JUMP JUMPDEST PUSH1 0x0 DUP3 DUP3 SHL SWAP1 POP SWAP3 SWAP2 POP POP JUMP JUMPDEST PUSH1 0x0 PUSH1 0x8 DUP4 MUL PUSH2 0x17AA PUSH32 0xFFFFFFFFFFFFFFFFFFFFFFFFFFFFFFFFFFFFFFFFFFFFFFFFFFFFFFFFFFFFFFFF DUP3 PUSH2 0x176D JUMP JUMPDEST PUSH2 0x17B4 DUP7 DUP4 PUSH2 0x176D JUMP JUMPDEST SWAP6 POP DUP1 NOT DUP5 AND SWAP4 POP DUP1 DUP7 AND DUP5 OR SWAP3 POP POP POP SWAP4 SWAP3 POP POP POP JUMP JUMPDEST PUSH1 0x0 DUP2 SWAP1 POP SWAP2 SWAP1 POP JUMP JUMPDEST PUSH1 0x0 PUSH2 0x17F1 PUSH2 0x17EC PUSH2 0x17E7 DUP5 PUSH2 0xDC8 JUMP JUMPDEST PUSH2 0x17CC JUMP JUMPDEST PUSH2 0xDC8 JUMP JUMPDEST SWAP1 POP SWAP2 SWAP1 POP JUMP JUMPDEST PUSH1 0x0 DUP2 SWAP1 POP SWAP2 SWAP1 POP JUMP JUMPDEST PUSH2 0x180B DUP4 PUSH2 0x17D6 JUMP JUMPDEST PUSH2 0x181F PUSH2 0x1817 DUP3 PUSH2 0x17F8 JUMP JUMPDEST DUP5 DUP5 SLOAD PUSH2 0x177A JUMP JUMPDEST DUP3 SSTORE POP POP POP POP JUMP JUMPDEST PUSH1 0x0 SWAP1 JUMP JUMPDEST PUSH2 0x1834 PUSH2 0x1827 JUMP JUMPDEST PUSH2 0x183F DUP2 DUP5 DUP5 PUSH2 0x1802 JUMP JUMPDEST POP POP POP JUMP JUMPDEST JUMPDEST DUP2 DUP2 LT ISZERO PUSH2 0x1863 JUMPI PUSH2 0x1858 PUSH1 0x0 DUP3 PUSH2 0x182C JUMP JUMPDEST PUSH1 0x1 DUP2 ADD SWAP1 POP PUSH2 0x1845 JUMP JUMPDEST POP POP JUMP JUMPDEST PUSH1 0x1F DUP3 GT ISZERO PUSH2 0x18A8 JUMPI PUSH2 0x1879 DUP2 PUSH2 0x1748 JUMP JUMPDEST PUSH2 0x1882 DUP5 PUSH2 0x175D JUMP JUMPDEST DUP2 ADD PUSH1 0x20 DUP6 LT ISZERO PUSH2 0x1891 JUMPI DUP2 SWAP1 POP JUMPDEST PUSH2 0x18A5 PUSH2 0x189D DUP6 PUSH2 0x175D JUMP JUMPDEST DUP4 ADD DUP3 PUSH2 0x1844 JUMP JUMPDEST POP POP JUMPDEST POP POP POP JUMP JUMPDEST PUSH1 0x0 DUP3 DUP3 SHR SWAP1 POP SWAP3 SWAP2 POP POP JUMP JUMPDEST PUSH1 0x0 PUSH2 0x18CB PUSH1 0x0 NOT DUP5 PUSH1 0x8 MUL PUSH2 0x18AD JUMP JUMPDEST NOT DUP1 DUP4 AND SWAP2 POP POP SWAP3 SWAP2 POP POP JUMP JUMPDEST PUSH1 0x0 PUSH2 0x18E4 DUP4 DUP4 PUSH2 0x18BA JUMP JUMPDEST SWAP2 POP DUP3 PUSH1 0x2 MUL DUP3 OR SWAP1 POP SWAP3 SWAP2 POP POP JUMP JUMPDEST PUSH2 0x18FD DUP3 PUSH2 0xE5C JUMP JUMPDEST PUSH8 0xFFFFFFFFFFFFFFFF DUP2 GT ISZERO PUSH2 0x1916 JUMPI PUSH2 0x1915 PUSH2 0x11D0 JUMP JUMPDEST JUMPDEST PUSH2 0x1920 DUP3 SLOAD PUSH2 0x1453 JUMP JUMPDEST PUSH2 0x192B DUP3 DUP3 DUP6 PUSH2 0x1867 JUMP JUMPDEST PUSH1 0x0 PUSH1 0x20 SWAP1 POP PUSH1 0x1F DUP4 GT PUSH1 0x1 DUP2 EQ PUSH2 0x195E JUMPI PUSH1 0x0 DUP5 ISZERO PUSH2 0x194C JUMPI DUP3 DUP8 ADD MLOAD SWAP1 POP JUMPDEST PUSH2 0x1956 DUP6 DUP3 PUSH2 0x18D8 JUMP JUMPDEST DUP7 SSTORE POP PUSH2 0x19BE JUMP JUMPDEST PUSH1 0x1F NOT DUP5 AND PUSH2 0x196C DUP7 PUSH2 0x1748 JUMP JUMPDEST PUSH1 0x0 JUMPDEST DUP3 DUP2 LT ISZERO PUSH2 0x1994 JUMPI DUP5 DUP10 ADD MLOAD DUP3 SSTORE PUSH1 0x1 DUP3 ADD SWAP2 POP PUSH1 0x20 DUP6 ADD SWAP5 POP PUSH1 0x20 DUP2 ADD SWAP1 POP PUSH2 0x196F JUMP JUMPDEST DUP7 DUP4 LT ISZERO PUSH2 0x19B1 JUMPI DUP5 DUP10 ADD MLOAD PUSH2 0x19AD PUSH1 0x1F DUP10 AND DUP3 PUSH2 0x18BA JUMP JUMPDEST DUP4 SSTORE POP JUMPDEST PUSH1 0x1 PUSH1 0x2 DUP9 MUL ADD DUP9 SSTORE POP POP POP JUMPDEST POP POP POP POP POP POP JUMP JUMPDEST PUSH1 0x0 PUSH1 0x80 DUP3 ADD SWAP1 POP PUSH2 0x19DB PUSH1 0x0 DUP4 ADD DUP8 PUSH2 0xE3E JUMP JUMPDEST PUSH2 0x19E8 PUSH1 0x20 DUP4 ADD DUP7 PUSH2 0xE4D JUMP JUMPDEST DUP2 DUP2 SUB PUSH1 0x40 DUP4 ADD MSTORE PUSH2 0x19FA DUP2 DUP6 PUSH2 0xEB3 JUMP JUMPDEST SWAP1 POP PUSH2 0x1A09 PUSH1 0x60 DUP4 ADD DUP5 PUSH2 0xE3E JUMP JUMPDEST SWAP6 SWAP5 POP POP POP POP POP JUMP INVALID LOG2 PUSH5 0x6970667358 0x22 SLT KECCAK256 ISZERO 0xCC 0xD2 0xDB 0x4A PUSH31 0xBFE5DA14A6DC11C5B8C5DB44D67126E8E82A1BEDBB2F18EC8BD964736F6C63 NUMBER STOP ADDMOD SLT STOP CALLER "
				},
				"gasEstimates": {
					"creation": {
						"codeDepositCost": "1345600",
						"executionCost": "49936",
						"totalCost": "1395536"
					},
					"external": {
						"MAX_TWEET_LENGTH()": "2490",
						"changeTweetLength(uint16)": "26916",
						"createTweet(string)": "infinite",
						"getAllTweets(address)": "infinite",
						"getTweet(uint256)": "infinite",
						"likeTweet(address,uint256)": "infinite",
						"owner()": "2580",
						"tweets(address,uint256)": "infinite",
						"unlikeTweet(address,uint256)": "infinite"
					}
				},
				"methodIdentifiers": {
					"MAX_TWEET_LENGTH()": "6eb10797",
					"changeTweetLength(uint16)": "58bfa4ab",
					"createTweet(string)": "7c9cd2bc",
					"getAllTweets(address)": "12e7ee1c",
					"getTweet(uint256)": "c3ad5ecb",
					"likeTweet(address,uint256)": "63378216",
					"owner()": "8da5cb5b",
					"tweets(address,uint256)": "05a1b4a9",
					"unlikeTweet(address,uint256)": "3d9b569f"
				}
			},
			"storageLayout": {
				"storage": [
					{
						"astId": 4,
						"contract": "contracts/TwitterDapp.sol:Twitter",
						"label": "MAX_TWEET_LENGTH",
						"offset": 0,
						"slot": "0",
						"type": "t_uint16"
					},
					{
						"astId": 21,
						"contract": "contracts/TwitterDapp.sol:Twitter",
						"label": "tweets",
						"offset": 0,
						"slot": "1",
						"type": "t_mapping(t_address,t_array(t_struct(Tweet)15_storage)dyn_storage)"
					},
					{
						"astId": 23,
						"contract": "contracts/TwitterDapp.sol:Twitter",
						"label": "owner",
						"offset": 0,
						"slot": "2",
						"type": "t_address"
					}
				],
				"types": {
					"t_address": {
						"encoding": "inplace",
						"label": "address",
						"numberOfBytes": "20"
					},
					"t_array(t_struct(Tweet)15_storage)dyn_storage": {
						"base": "t_struct(Tweet)15_storage",
						"encoding": "dynamic_array",
						"label": "struct Twitter.Tweet[]",
						"numberOfBytes": "32"
					},
					"t_mapping(t_address,t_array(t_struct(Tweet)15_storage)dyn_storage)": {
						"encoding": "mapping",
						"key": "t_address",
						"label": "mapping(address => struct Twitter.Tweet[])",
						"numberOfBytes": "32",
						"value": "t_array(t_struct(Tweet)15_storage)dyn_storage"
					},
					"t_string_storage": {
						"encoding": "bytes",
						"label": "string",
						"numberOfBytes": "32"
					},
					"t_struct(Tweet)15_storage": {
						"encoding": "inplace",
						"label": "struct Twitter.Tweet",
						"members": [
							{
								"astId": 6,
								"contract": "contracts/TwitterDapp.sol:Twitter",
								"label": "id",
								"offset": 0,
								"slot": "0",
								"type": "t_uint256"
							},
							{
								"astId": 8,
								"contract": "contracts/TwitterDapp.sol:Twitter",
								"label": "author",
								"offset": 0,
								"slot": "1",
								"type": "t_address"
							},
							{
								"astId": 10,
								"contract": "contracts/TwitterDapp.sol:Twitter",
								"label": "content",
								"offset": 0,
								"slot": "2",
								"type": "t_string_storage"
							},
							{
								"astId": 12,
								"contract": "contracts/TwitterDapp.sol:Twitter",
								"label": "timestamp",
								"offset": 0,
								"slot": "3",
								"type": "t_uint256"
							},
							{
								"astId": 14,
								"contract": "contracts/TwitterDapp.sol:Twitter",
								"label": "likes",
								"offset": 0,
								"slot": "4",
								"type": "t_uint256"
							}
						],
						"numberOfBytes": "160"
					},
					"t_uint16": {
						"encoding": "inplace",
						"label": "uint16",
						"numberOfBytes": "2"
					},
					"t_uint256": {
						"encoding": "inplace",
						"label": "uint256",
						"numberOfBytes": "32"
					}
				}
			},
			"userdoc": {
				"kind": "user",
				"methods": {},
				"version": 1
			}
		}
	}
}