{
	"data": {
		"bytecode": {
			"linkReferences": {},
			"object": "60806040526000805534801561001457600080fd5b5061036e806100246000396000f3fe608060405234801561001057600080fd5b50600436106100575760003560e01c8063165c4a161461005c5780637afbe4f1146100785780639544554f14610094578063bdf3ccb3146100b0578063f88e9fbf146100ce575b600080fd5b61007660048036038101906100719190610195565b6100ea565b005b610092600480360381019061008d9190610195565b610100565b005b6100ae60048036038101906100a99190610195565b610116565b005b6100b861012c565b6040516100c591906101e4565b60405180910390f35b6100e860048036038101906100e39190610195565b61013b565b005b80826100f6919061022e565b6000819055505050565b808261010c9190610270565b6000819055505050565b808261012291906102a4565b6000819055505050565b6000610136610151565b905090565b80826101479190610307565b6000819055505050565b60008054905090565b600080fd5b6000819050919050565b6101728161015f565b811461017d57600080fd5b50565b60008135905061018f81610169565b92915050565b600080604083850312156101ac576101ab61015a565b5b60006101ba85828601610180565b92505060206101cb85828601610180565b9150509250929050565b6101de8161015f565b82525050565b60006020820190506101f960008301846101d5565b92915050565b7f4e487b7100000000000000000000000000000000000000000000000000000000600052601160045260246000fd5b60006102398261015f565b91506102448361015f565b92508282026102528161015f565b91508282048414831517610269576102686101ff565b5b5092915050565b600061027b8261015f565b91506102868361015f565b925082820190508082111561029e5761029d6101ff565b5b92915050565b60006102af8261015f565b91506102ba8361015f565b92508282039050818111156102d2576102d16101ff565b5b92915050565b7f4e487b7100000000000000000000000000000000000000000000000000000000600052601260045260246000fd5b60006103128261015f565b915061031d8361015f565b92508261032d5761032c6102d8565b5b82820490509291505056fea26469706673582212206716d1ada26e9d6a02e2658d3a35bcf9974f5562ce5188ecaff90f59b972a1cc64736f6c63430008120033",
			"opcodes": "PUSH1 0x80 PUSH1 0x40 MSTORE PUSH1 0x0 DUP1 SSTORE CALLVALUE DUP1 ISZERO PUSH2 0x14 JUMPI PUSH1 0x0 DUP1 REVERT JUMPDEST POP PUSH2 0x36E DUP1 PUSH2 0x24 PUSH1 0x0 CODECOPY PUSH1 0x0 RETURN INVALID PUSH1 0x80 PUSH1 0x40 MSTORE CALLVALUE DUP1 ISZERO PUSH2 0x10 JUMPI PUSH1 0x0 DUP1 REVERT JUMPDEST POP PUSH1 0x4 CALLDATASIZE LT PUSH2 0x57 JUMPI PUSH1 0x0 CALLDATALOAD PUSH1 0xE0 SHR DUP1 PUSH4 0x165C4A16 EQ PUSH2 0x5C JUMPI DUP1 PUSH4 0x7AFBE4F1 EQ PUSH2 0x78 JUMPI DUP1 PUSH4 0x9544554F EQ PUSH2 0x94 JUMPI DUP1 PUSH4 0xBDF3CCB3 EQ PUSH2 0xB0 JUMPI DUP1 PUSH4 0xF88E9FBF EQ PUSH2 0xCE JUMPI JUMPDEST PUSH1 0x0 DUP1 REVERT JUMPDEST PUSH2 0x76 PUSH1 0x4 DUP1 CALLDATASIZE SUB DUP2 ADD SWAP1 PUSH2 0x71 SWAP2 SWAP1 PUSH2 0x195 JUMP JUMPDEST PUSH2 0xEA JUMP JUMPDEST STOP JUMPDEST PUSH2 0x92 PUSH1 0x4 DUP1 CALLDATASIZE SUB DUP2 ADD SWAP1 PUSH2 0x8D SWAP2 SWAP1 PUSH2 0x195 JUMP JUMPDEST PUSH2 0x100 JUMP JUMPDEST STOP JUMPDEST PUSH2 0xAE PUSH1 0x4 DUP1 CALLDATASIZE SUB DUP2 ADD SWAP1 PUSH2 0xA9 SWAP2 SWAP1 PUSH2 0x195 JUMP JUMPDEST PUSH2 0x116 JUMP JUMPDEST STOP JUMPDEST PUSH2 0xB8 PUSH2 0x12C JUMP JUMPDEST PUSH1 0x40 MLOAD PUSH2 0xC5 SWAP2 SWAP1 PUSH2 0x1E4 JUMP JUMPDEST PUSH1 0x40 MLOAD DUP1 SWAP2 SUB SWAP1 RETURN JUMPDEST PUSH2 0xE8 PUSH1 0x4 DUP1 CALLDATASIZE SUB DUP2 ADD SWAP1 PUSH2 0xE3 SWAP2 SWAP1 PUSH2 0x195 JUMP JUMPDEST PUSH2 0x13B JUMP JUMPDEST STOP JUMPDEST DUP1 DUP3 PUSH2 0xF6 SWAP2 SWAP1 PUSH2 0x22E JUMP JUMPDEST PUSH1 0x0 DUP2 SWAP1 SSTORE POP POP POP JUMP JUMPDEST DUP1 DUP3 PUSH2 0x10C SWAP2 SWAP1 PUSH2 0x270 JUMP JUMPDEST PUSH1 0x0 DUP2 SWAP1 SSTORE POP POP POP JUMP JUMPDEST DUP1 DUP3 PUSH2 0x122 SWAP2 SWAP1 PUSH2 0x2A4 JUMP JUMPDEST PUSH1 0x0 DUP2 SWAP1 SSTORE POP POP POP JUMP JUMPDEST PUSH1 0x0 PUSH2 0x136 PUSH2 0x151 JUMP JUMPDEST SWAP1 POP SWAP1 JUMP JUMPDEST DUP1 DUP3 PUSH2 0x147 SWAP2 SWAP1 PUSH2 0x307 JUMP JUMPDEST PUSH1 0x0 DUP2 SWAP1 SSTORE POP POP POP JUMP JUMPDEST PUSH1 0x0 DUP1 SLOAD SWAP1 POP SWAP1 JUMP JUMPDEST PUSH1 0x0 DUP1 REVERT JUMPDEST PUSH1 0x0 DUP2 SWAP1 POP SWAP2 SWAP1 POP JUMP JUMPDEST PUSH2 0x172 DUP2 PUSH2 0x15F JUMP JUMPDEST DUP2 EQ PUSH2 0x17D JUMPI PUSH1 0x0 DUP1 REVERT JUMPDEST POP JUMP JUMPDEST PUSH1 0x0 DUP2 CALLDATALOAD SWAP1 POP PUSH2 0x18F DUP2 PUSH2 0x169 JUMP JUMPDEST SWAP3 SWAP2 POP POP JUMP JUMPDEST PUSH1 0x0 DUP1 PUSH1 0x40 DUP4 DUP6 SUB SLT ISZERO PUSH2 0x1AC JUMPI PUSH2 0x1AB PUSH2 0x15A JUMP JUMPDEST JUMPDEST PUSH1 0x0 PUSH2 0x1BA DUP6 DUP3 DUP7 ADD PUSH2 0x180 JUMP JUMPDEST SWAP3 POP POP PUSH1 0x20 PUSH2 0x1CB DUP6 DUP3 DUP7 ADD PUSH2 0x180 JUMP JUMPDEST SWAP2 POP POP SWAP3 POP SWAP3 SWAP1 POP JUMP JUMPDEST PUSH2 0x1DE DUP2 PUSH2 0x15F JUMP JUMPDEST DUP3 MSTORE POP POP JUMP JUMPDEST PUSH1 0x0 PUSH1 0x20 DUP3 ADD SWAP1 POP PUSH2 0x1F9 PUSH1 0x0 DUP4 ADD DUP5 PUSH2 0x1D5 JUMP JUMPDEST SWAP3 SWAP2 POP POP JUMP JUMPDEST PUSH32 0x4E487B7100000000000000000000000000000000000000000000000000000000 PUSH1 0x0 MSTORE PUSH1 0x11 PUSH1 0x4 MSTORE PUSH1 0x24 PUSH1 0x0 REVERT JUMPDEST PUSH1 0x0 PUSH2 0x239 DUP3 PUSH2 0x15F JUMP JUMPDEST SWAP2 POP PUSH2 0x244 DUP4 PUSH2 0x15F JUMP JUMPDEST SWAP3 POP DUP3 DUP3 MUL PUSH2 0x252 DUP2 PUSH2 0x15F JUMP JUMPDEST SWAP2 POP DUP3 DUP3 DIV DUP5 EQ DUP4 ISZERO OR PUSH2 0x269 JUMPI PUSH2 0x268 PUSH2 0x1FF JUMP JUMPDEST JUMPDEST POP SWAP3 SWAP2 POP POP JUMP JUMPDEST PUSH1 0x0 PUSH2 0x27B DUP3 PUSH2 0x15F JUMP JUMPDEST SWAP2 POP PUSH2 0x286 DUP4 PUSH2 0x15F JUMP JUMPDEST SWAP3 POP DUP3 DUP3 ADD SWAP1 POP DUP1 DUP3 GT ISZERO PUSH2 0x29E JUMPI PUSH2 0x29D PUSH2 0x1FF JUMP JUMPDEST JUMPDEST SWAP3 SWAP2 POP POP JUMP JUMPDEST PUSH1 0x0 PUSH2 0x2AF DUP3 PUSH2 0x15F JUMP JUMPDEST SWAP2 POP PUSH2 0x2BA DUP4 PUSH2 0x15F JUMP JUMPDEST SWAP3 POP DUP3 DUP3 SUB SWAP1 POP DUP2 DUP2 GT ISZERO PUSH2 0x2D2 JUMPI PUSH2 0x2D1 PUSH2 0x1FF JUMP JUMPDEST JUMPDEST SWAP3 SWAP2 POP POP JUMP JUMPDEST PUSH32 0x4E487B7100000000000000000000000000000000000000000000000000000000 PUSH1 0x0 MSTORE PUSH1 0x12 PUSH1 0x4 MSTORE PUSH1 0x24 PUSH1 0x0 REVERT JUMPDEST PUSH1 0x0 PUSH2 0x312 DUP3 PUSH2 0x15F JUMP JUMPDEST SWAP2 POP PUSH2 0x31D DUP4 PUSH2 0x15F JUMP JUMPDEST SWAP3 POP DUP3 PUSH2 0x32D JUMPI PUSH2 0x32C PUSH2 0x2D8 JUMP JUMPDEST JUMPDEST DUP3 DUP3 DIV SWAP1 POP SWAP3 SWAP2 POP POP JUMP INVALID LOG2 PUSH5 0x6970667358 0x22 SLT KECCAK256 PUSH8 0x16D1ADA26E9D6A02 0xE2 PUSH6 0x8D3A35BCF997 0x4F SSTORE PUSH3 0xCE5188 0xEC 0xAF 0xF9 0xF MSIZE 0xB9 PUSH19 0xA1CC64736F6C63430008120033000000000000 "
		},
		"gasEstimates": {
			"creation": {
				"codeDepositCost": "175600",
				"executionCost": "5226",
				"totalCost": "180826"
			},
			"external": {
				"Add(uint256,uint256)": "infinite",
				"GetAnswer()": "2516",
				"Substarct(uint256,uint256)": "infinite",
				"divide(uint256,uint256)": "infinite",
				"multiply(uint256,uint256)": "infinite"
			}
		},
		"methodIdentifiers": {
			"Add(uint256,uint256)": "7afbe4f1",
			"GetAnswer()": "bdf3ccb3",
			"Substarct(uint256,uint256)": "9544554f",
			"divide(uint256,uint256)": "f88e9fbf",
			"multiply(uint256,uint256)": "165c4a16"
		}
	},
	"abi": [
		{
			"inputs": [
				{
					"internalType": "uint256",
					"name": "num1",
					"type": "uint256"
				},
				{
					"internalType": "uint256",
					"name": "num2",
					"type": "uint256"
				}
			],
			"name": "Add",
			"outputs": [],
			"stateMutability": "nonpayable",
			"type": "function"
		},
		{
			"inputs": [],
			"name": "GetAnswer",
			"outputs": [
				{
					"internalType": "uint256",
					"name": "",
					"type": "uint256"
				}
			],
			"stateMutability": "view",
			"type": "function"
		},
		{
			"inputs": [
				{
					"internalType": "uint256",
					"name": "num1",
					"type": "uint256"
				},
				{
					"internalType": "uint256",
					"name": "num2",
					"type": "uint256"
				}
			],
			"name": "Substarct",
			"outputs": [],
			"stateMutability": "nonpayable",
			"type": "function"
		},
		{
			"inputs": [
				{
					"internalType": "uint256",
					"name": "num1",
					"type": "uint256"
				},
				{
					"internalType": "uint256",
					"name": "num2",
					"type": "uint256"
				}
			],
			"name": "divide",
			"outputs": [],
			"stateMutability": "nonpayable",
			"type": "function"
		},
		{
			"inputs": [
				{
					"internalType": "uint256",
					"name": "num1",
					"type": "uint256"
				},
				{
					"internalType": "uint256",
					"name": "num2",
					"type": "uint256"
				}
			],
			"name": "multiply",
			"outputs": [],
			"stateMutability": "nonpayable",
			"type": "function"
		}
	]
}